{"contracts/mocks/MockV3Aggregator.sol":{"MockV3Aggregator":{"abi":[{"inputs":[{"internalType":"int224","name":"_price","type":"int224"},{"internalType":"bool","name":"_fresh","type":"bool"}],"stateMutability":"nonpayable","type":"constructor"},{"inputs":[],"name":"read","outputs":[{"internalType":"int224","name":"","type":"int224"},{"internalType":"uint32","name":"","type":"uint32"}],"stateMutability":"view","type":"function"},{"inputs":[{"internalType":"bool","name":"_fresh","type":"bool"}],"name":"setFresh","outputs":[],"stateMutability":"nonpayable","type":"function"},{"inputs":[{"internalType":"int224","name":"_price","type":"int224"}],"name":"setPrice","outputs":[],"stateMutability":"nonpayable","type":"function"}],"evm":{"bytecode":{"linkReferences":{},"object":"60803461009357601f61025e38819003918201601f19168301916001600160401b038311848410176100985780849260409485528339810103126100935780519081601b0b8203610093576020015180151580910361009357600080546001600160e81b0319166001600160e01b039093169290921760e09190911b60ff60e01b161790556040516101af90816100af8239f35b600080fd5b634e487b7160e01b600052604160045260246000fdfe6080604052600436101561001257600080fd5b6000803560e01c8063488b70e31461013a57806357de26a4146100b15763abb7cc941461003e57600080fd5b346100ae5760203660031901126100ae576004358015158091036100aa577fffffff00ffffffffffffffffffffffffffffffffffffffffffffffffffffffff7cff0000000000000000000000000000000000000000000000000000000083549260e01b16911617815580f35b5080fd5b80fd5b50346100ae57806003193601126100ae57805460ff8160e01c166000146100ef576040915063ffffffff8042165b835192601b0b8352166020820152f35b610f9f1942019142831161010d575063ffffffff80604093166100df565b807f4e487b7100000000000000000000000000000000000000000000000000000000602492526011600452fd5b50346100ae5760203660031901126100ae5760043580601b0b81036100aa577fffffffff00000000000000000000000000000000000000000000000000000000825416907bffffffffffffffffffffffffffffffffffffffffffffffffffffffff1617815580f3fea164736f6c6343000814000a","opcodes":"PUSH1 0x80 CALLVALUE PUSH2 0x93 JUMPI PUSH1 0x1F PUSH2 0x25E CODESIZE DUP2 SWAP1 SUB SWAP2 DUP3 ADD PUSH1 0x1F NOT AND DUP4 ADD SWAP2 PUSH1 0x1 PUSH1 0x1 PUSH1 0x40 SHL SUB DUP4 GT DUP5 DUP5 LT OR PUSH2 0x98 JUMPI DUP1 DUP5 SWAP3 PUSH1 0x40 SWAP5 DUP6 MSTORE DUP4 CODECOPY DUP2 ADD SUB SLT PUSH2 0x93 JUMPI DUP1 MLOAD SWAP1 DUP2 PUSH1 0x1B SIGNEXTEND DUP3 SUB PUSH2 0x93 JUMPI PUSH1 0x20 ADD MLOAD DUP1 ISZERO ISZERO DUP1 SWAP2 SUB PUSH2 0x93 JUMPI PUSH1 0x0 DUP1 SLOAD PUSH1 0x1 PUSH1 0x1 PUSH1 0xE8 SHL SUB NOT AND PUSH1 0x1 PUSH1 0x1 PUSH1 0xE0 SHL SUB SWAP1 SWAP4 AND SWAP3 SWAP1 SWAP3 OR PUSH1 0xE0 SWAP2 SWAP1 SWAP2 SHL PUSH1 0xFF PUSH1 0xE0 SHL AND OR SWAP1 SSTORE PUSH1 0x40 MLOAD PUSH2 0x1AF SWAP1 DUP2 PUSH2 0xAF DUP3 CODECOPY RETURN JUMPDEST PUSH1 0x0 DUP1 REVERT JUMPDEST PUSH4 0x4E487B71 PUSH1 0xE0 SHL PUSH1 0x0 MSTORE PUSH1 0x41 PUSH1 0x4 MSTORE PUSH1 0x24 PUSH1 0x0 REVERT INVALID PUSH1 0x80 PUSH1 0x40 MSTORE PUSH1 0x4 CALLDATASIZE LT ISZERO PUSH2 0x12 JUMPI PUSH1 0x0 DUP1 REVERT JUMPDEST PUSH1 0x0 DUP1 CALLDATALOAD PUSH1 0xE0 SHR DUP1 PUSH4 0x488B70E3 EQ PUSH2 0x13A JUMPI DUP1 PUSH4 0x57DE26A4 EQ PUSH2 0xB1 JUMPI PUSH4 0xABB7CC94 EQ PUSH2 0x3E JUMPI PUSH1 0x0 DUP1 REVERT JUMPDEST CALLVALUE PUSH2 0xAE JUMPI PUSH1 0x20 CALLDATASIZE PUSH1 0x3 NOT ADD SLT PUSH2 0xAE JUMPI PUSH1 0x4 CALLDATALOAD DUP1 ISZERO ISZERO DUP1 SWAP2 SUB PUSH2 0xAA JUMPI PUSH32 0xFFFFFF00FFFFFFFFFFFFFFFFFFFFFFFFFFFFFFFFFFFFFFFFFFFFFFFFFFFFFFFF PUSH29 0xFF00000000000000000000000000000000000000000000000000000000 DUP4 SLOAD SWAP3 PUSH1 0xE0 SHL AND SWAP2 AND OR DUP2 SSTORE DUP1 RETURN JUMPDEST POP DUP1 REVERT JUMPDEST DUP1 REVERT JUMPDEST POP CALLVALUE PUSH2 0xAE JUMPI DUP1 PUSH1 0x3 NOT CALLDATASIZE ADD SLT PUSH2 0xAE JUMPI DUP1 SLOAD PUSH1 0xFF DUP2 PUSH1 0xE0 SHR AND PUSH1 0x0 EQ PUSH2 0xEF JUMPI PUSH1 0x40 SWAP2 POP PUSH4 0xFFFFFFFF DUP1 TIMESTAMP AND JUMPDEST DUP4 MLOAD SWAP3 PUSH1 0x1B SIGNEXTEND DUP4 MSTORE AND PUSH1 0x20 DUP3 ADD MSTORE RETURN JUMPDEST PUSH2 0xF9F NOT TIMESTAMP ADD SWAP2 TIMESTAMP DUP4 GT PUSH2 0x10D JUMPI POP PUSH4 0xFFFFFFFF DUP1 PUSH1 0x40 SWAP4 AND PUSH2 0xDF JUMP JUMPDEST DUP1 PUSH32 0x4E487B7100000000000000000000000000000000000000000000000000000000 PUSH1 0x24 SWAP3 MSTORE PUSH1 0x11 PUSH1 0x4 MSTORE REVERT JUMPDEST POP CALLVALUE PUSH2 0xAE JUMPI PUSH1 0x20 CALLDATASIZE PUSH1 0x3 NOT ADD SLT PUSH2 0xAE JUMPI PUSH1 0x4 CALLDATALOAD DUP1 PUSH1 0x1B SIGNEXTEND DUP2 SUB PUSH2 0xAA JUMPI PUSH32 0xFFFFFFFF00000000000000000000000000000000000000000000000000000000 DUP3 SLOAD AND SWAP1 PUSH28 0xFFFFFFFFFFFFFFFFFFFFFFFFFFFFFFFFFFFFFFFFFFFFFFFFFFFFFFFF AND OR DUP2 SSTORE DUP1 RETURN INVALID LOG1 PUSH5 0x736F6C6343 STOP ADDMOD EQ STOP EXP "},"methodIdentifiers":{"read()":"57de26a4","setFresh(bool)":"abb7cc94","setPrice(int224)":"488b70e3"}}}}}