{"contracts/InvestmentManager.sol":{"InvestmentManager":{"abi":[{"inputs":[],"stateMutability":"nonpayable","type":"constructor"},{"inputs":[{"internalType":"address","name":"owner","type":"address"}],"name":"OwnableInvalidOwner","type":"error"},{"inputs":[{"internalType":"address","name":"account","type":"address"}],"name":"OwnableUnauthorizedAccount","type":"error"},{"anonymous":false,"inputs":[{"indexed":true,"internalType":"address","name":"investor","type":"address"},{"indexed":true,"internalType":"address","name":"offeringAddress","type":"address"},{"indexed":true,"internalType":"address","name":"paymentToken","type":"address"},{"indexed":false,"internalType":"uint256","name":"paidAmount","type":"uint256"},{"indexed":false,"internalType":"uint256","name":"tokensReceived","type":"uint256"}],"name":"InvestmentRouted","type":"event"},{"anonymous":false,"inputs":[{"indexed":true,"internalType":"address","name":"previousOwner","type":"address"},{"indexed":true,"internalType":"address","name":"newOwner","type":"address"}],"name":"OwnershipTransferred","type":"event"},{"anonymous":false,"inputs":[{"indexed":true,"internalType":"address","name":"investor","type":"address"},{"indexed":true,"internalType":"address","name":"offeringAddress","type":"address"},{"indexed":false,"internalType":"uint256","name":"amount","type":"uint256"}],"name":"TokensClaimed","type":"event"},{"inputs":[{"internalType":"address","name":"_offeringAddress","type":"address"}],"name":"claimInvestmentTokens","outputs":[],"stateMutability":"nonpayable","type":"function"},{"inputs":[],"name":"owner","outputs":[{"internalType":"address","name":"","type":"address"}],"stateMutability":"view","type":"function"},{"inputs":[],"name":"renounceOwnership","outputs":[],"stateMutability":"nonpayable","type":"function"},{"inputs":[{"internalType":"address","name":"_token","type":"address"},{"internalType":"uint256","name":"_amount","type":"uint256"},{"internalType":"address","name":"_to","type":"address"}],"name":"rescueERC20","outputs":[],"stateMutability":"nonpayable","type":"function"},{"inputs":[{"internalType":"uint256","name":"_amount","type":"uint256"},{"internalType":"address","name":"_to","type":"address"}],"name":"rescueNative","outputs":[],"stateMutability":"nonpayable","type":"function"},{"inputs":[{"internalType":"address","name":"_offeringAddress","type":"address"},{"internalType":"address","name":"_paymentToken","type":"address"},{"internalType":"uint256","name":"_paymentAmount","type":"uint256"}],"name":"routeInvestment","outputs":[],"stateMutability":"payable","type":"function"},{"inputs":[{"internalType":"address","name":"newOwner","type":"address"}],"name":"transferOwnership","outputs":[],"stateMutability":"nonpayable","type":"function"},{"stateMutability":"payable","type":"receive"}],"evm":{"bytecode":{"linkReferences":{},"object":"6080806040523461007a5733156100645760008054336001600160a01b03198216811783556040519290916001600160a01b0316907f8be0079c531659141344cd1fd0a4f28419497f9722a3daafe3b4186f6b6457e09080a361078d90816100808239f35b631e4fbdf760e01b815260006004820152602490fd5b600080fdfe60406080815260049081361015610020575b5050361561001e57600080fd5b005b600091823560e01c83816318af4c9e146105b657508063715018a61461055057806377662ffc146104225780638da5cb5b146103f8578063acf68f7b14610300578063d1726ca91461012b5763f2fde38b1461007c5750610011565b346101275760203660031901126101275761009561063f565b9061009e610655565b6001600160a01b038092169283156100f857505082548273ffffffffffffffffffffffffffffffffffffffff198216178455167f8be0079c531659141344cd1fd0a4f28419497f9722a3daafe3b4186f6b6457e08380a380f35b908460249251917f1e4fbdf7000000000000000000000000000000000000000000000000000000008352820152fd5b8280fd5b50606036600319011261012757602061014261063f565b9161014b610624565b936044359283926001600160a01b0380961695871696871560001461024257835163329d621160e11b81526001600160a01b03909116918101918252336020830152604082019490945283908190606001038134885af180156102385786906101e3575b7f4ca6fa6ca1ea19f82a05490d19bab8e9124bd2c0f8a2e4da4cbf90ce2b85fdf192505b815193845260208401523392a480f35b506020823d8211610230575b816101fc60209383610699565b8101031261022c577f4ca6fa6ca1ea19f82a05490d19bab8e9124bd2c0f8a2e4da4cbf90ce2b85fdf191516101af565b8580fd5b3d91506101ef565b81513d88823e3d90fd5b835163329d621160e11b81526001600160a01b03909116918101918252336020830152604082019490945283908190606001038189885af180156102385786906102af575b7f4ca6fa6ca1ea19f82a05490d19bab8e9124bd2c0f8a2e4da4cbf90ce2b85fdf192506101d3565b506020823d82116102f8575b816102c860209383610699565b8101031261022c577f4ca6fa6ca1ea19f82a05490d19bab8e9124bd2c0f8a2e4da4cbf90ce2b85fdf19151610287565b3d91506102bb565b50903461012757602091826003193601126103f4576001600160a01b0361032561063f565b16928251917fdf8de3e70000000000000000000000000000000000000000000000000000000083523390830152808260248188885af19182156103ea578592610397575b507fa86305abc2db271df4609aa86a8d044bc11fb36939841bfdad6c1ab2b26e94719192519283523392a380f35b91508082813d83116103e3575b6103ae8183610699565b810103126103df577fa86305abc2db271df4609aa86a8d044bc11fb36939841bfdad6c1ab2b26e9471915191610369565b8480fd5b503d6103a4565b83513d87823e3d90fd5b8380fd5b50503461041e578160031936011261041e576001600160a01b0360209254169051908152f35b5080fd5b5090346101275760603660031901126101275761043d61063f565b60243592604435916001600160a01b039081841680940361054c57610460610655565b16801561050957602092918660449261047a8815156106ea565b610485851515610735565b865197889586947fa9059cbb00000000000000000000000000000000000000000000000000000000865285015260248401525af190811561050057506104c9575080f35b6020813d82116104f8575b816104e160209383610699565b8101031261041e5751801515036104f55780f35b80fd5b3d91506104d4565b513d84823e3d90fd5b606482602086519162461bcd60e51b8352820152601560248201527f496e76616c696420746f6b656e206164647265737300000000000000000000006044820152fd5b8680fd5b83346104f557806003193601126104f557610569610655565b806001600160a01b03815473ffffffffffffffffffffffffffffffffffffffff1981168355167f8be0079c531659141344cd1fd0a4f28419497f9722a3daafe3b4186f6b6457e08280a380f35b9190503461041e578260031936011261041e5781808092356105d6610624565b6105de610655565b6001600160a01b038215916105f383156106ea565b1690610600821515610735565b839061061b575bf115610611575080f35b51903d90823e3d90fd5b506108fc610607565b602435906001600160a01b038216820361063a57565b600080fd5b600435906001600160a01b038216820361063a57565b6001600160a01b0360005416330361066957565b60246040517f118cdaa7000000000000000000000000000000000000000000000000000000008152336004820152fd5b90601f8019910116810190811067ffffffffffffffff8211176106bb57604052565b7f4e487b7100000000000000000000000000000000000000000000000000000000600052604160045260246000fd5b156106f157565b606460405162461bcd60e51b815260206004820152601d60248201527f416d6f756e74206d7573742062652067726561746572207468616e20300000006044820152fd5b1561073c57565b606460405162461bcd60e51b815260206004820152601960248201527f496e76616c696420726563697069656e742061646472657373000000000000006044820152fdfea164736f6c6343000814000a","opcodes":"PUSH1 0x80 DUP1 PUSH1 0x40 MSTORE CALLVALUE PUSH2 0x7A JUMPI CALLER ISZERO PUSH2 0x64 JUMPI PUSH1 0x0 DUP1 SLOAD CALLER PUSH1 0x1 PUSH1 0x1 PUSH1 0xA0 SHL SUB NOT DUP3 AND DUP2 OR DUP4 SSTORE PUSH1 0x40 MLOAD SWAP3 SWAP1 SWAP2 PUSH1 0x1 PUSH1 0x1 PUSH1 0xA0 SHL SUB AND SWAP1 PUSH32 0x8BE0079C531659141344CD1FD0A4F28419497F9722A3DAAFE3B4186F6B6457E0 SWAP1 DUP1 LOG3 PUSH2 0x78D SWAP1 DUP2 PUSH2 0x80 DUP3 CODECOPY RETURN JUMPDEST PUSH4 0x1E4FBDF7 PUSH1 0xE0 SHL DUP2 MSTORE PUSH1 0x0 PUSH1 0x4 DUP3 ADD MSTORE PUSH1 0x24 SWAP1 REVERT JUMPDEST PUSH1 0x0 DUP1 REVERT INVALID PUSH1 0x40 PUSH1 0x80 DUP2 MSTORE PUSH1 0x4 SWAP1 DUP2 CALLDATASIZE LT ISZERO PUSH2 0x20 JUMPI JUMPDEST POP POP CALLDATASIZE ISZERO PUSH2 0x1E JUMPI PUSH1 0x0 DUP1 REVERT JUMPDEST STOP JUMPDEST PUSH1 0x0 SWAP2 DUP3 CALLDATALOAD PUSH1 0xE0 SHR DUP4 DUP2 PUSH4 0x18AF4C9E EQ PUSH2 0x5B6 JUMPI POP DUP1 PUSH4 0x715018A6 EQ PUSH2 0x550 JUMPI DUP1 PUSH4 0x77662FFC EQ PUSH2 0x422 JUMPI DUP1 PUSH4 0x8DA5CB5B EQ PUSH2 0x3F8 JUMPI DUP1 PUSH4 0xACF68F7B EQ PUSH2 0x300 JUMPI DUP1 PUSH4 0xD1726CA9 EQ PUSH2 0x12B JUMPI PUSH4 0xF2FDE38B EQ PUSH2 0x7C JUMPI POP PUSH2 0x11 JUMP JUMPDEST CALLVALUE PUSH2 0x127 JUMPI PUSH1 0x20 CALLDATASIZE PUSH1 0x3 NOT ADD SLT PUSH2 0x127 JUMPI PUSH2 0x95 PUSH2 0x63F JUMP JUMPDEST SWAP1 PUSH2 0x9E PUSH2 0x655 JUMP JUMPDEST PUSH1 0x1 PUSH1 0x1 PUSH1 0xA0 SHL SUB DUP1 SWAP3 AND SWAP3 DUP4 ISZERO PUSH2 0xF8 JUMPI POP POP DUP3 SLOAD DUP3 PUSH20 0xFFFFFFFFFFFFFFFFFFFFFFFFFFFFFFFFFFFFFFFF NOT DUP3 AND OR DUP5 SSTORE AND PUSH32 0x8BE0079C531659141344CD1FD0A4F28419497F9722A3DAAFE3B4186F6B6457E0 DUP4 DUP1 LOG3 DUP1 RETURN JUMPDEST SWAP1 DUP5 PUSH1 0x24 SWAP3 MLOAD SWAP2 PUSH32 0x1E4FBDF700000000000000000000000000000000000000000000000000000000 DUP4 MSTORE DUP3 ADD MSTORE REVERT JUMPDEST DUP3 DUP1 REVERT JUMPDEST POP PUSH1 0x60 CALLDATASIZE PUSH1 0x3 NOT ADD SLT PUSH2 0x127 JUMPI PUSH1 0x20 PUSH2 0x142 PUSH2 0x63F JUMP JUMPDEST SWAP2 PUSH2 0x14B PUSH2 0x624 JUMP JUMPDEST SWAP4 PUSH1 0x44 CALLDATALOAD SWAP3 DUP4 SWAP3 PUSH1 0x1 PUSH1 0x1 PUSH1 0xA0 SHL SUB DUP1 SWAP7 AND SWAP6 DUP8 AND SWAP7 DUP8 ISZERO PUSH1 0x0 EQ PUSH2 0x242 JUMPI DUP4 MLOAD PUSH4 0x329D6211 PUSH1 0xE1 SHL DUP2 MSTORE PUSH1 0x1 PUSH1 0x1 PUSH1 0xA0 SHL SUB SWAP1 SWAP2 AND SWAP2 DUP2 ADD SWAP2 DUP3 MSTORE CALLER PUSH1 0x20 DUP4 ADD MSTORE PUSH1 0x40 DUP3 ADD SWAP5 SWAP1 SWAP5 MSTORE DUP4 SWAP1 DUP2 SWAP1 PUSH1 0x60 ADD SUB DUP2 CALLVALUE DUP9 GAS CALL DUP1 ISZERO PUSH2 0x238 JUMPI DUP7 SWAP1 PUSH2 0x1E3 JUMPI JUMPDEST PUSH32 0x4CA6FA6CA1EA19F82A05490D19BAB8E9124BD2C0F8A2E4DA4CBF90CE2B85FDF1 SWAP3 POP JUMPDEST DUP2 MLOAD SWAP4 DUP5 MSTORE PUSH1 0x20 DUP5 ADD MSTORE CALLER SWAP3 LOG4 DUP1 RETURN JUMPDEST POP PUSH1 0x20 DUP3 RETURNDATASIZE DUP3 GT PUSH2 0x230 JUMPI JUMPDEST DUP2 PUSH2 0x1FC PUSH1 0x20 SWAP4 DUP4 PUSH2 0x699 JUMP JUMPDEST DUP2 ADD SUB SLT PUSH2 0x22C JUMPI PUSH32 0x4CA6FA6CA1EA19F82A05490D19BAB8E9124BD2C0F8A2E4DA4CBF90CE2B85FDF1 SWAP2 MLOAD PUSH2 0x1AF JUMP JUMPDEST DUP6 DUP1 REVERT JUMPDEST RETURNDATASIZE SWAP2 POP PUSH2 0x1EF JUMP JUMPDEST DUP2 MLOAD RETURNDATASIZE DUP9 DUP3 RETURNDATACOPY RETURNDATASIZE SWAP1 REVERT JUMPDEST DUP4 MLOAD PUSH4 0x329D6211 PUSH1 0xE1 SHL DUP2 MSTORE PUSH1 0x1 PUSH1 0x1 PUSH1 0xA0 SHL SUB SWAP1 SWAP2 AND SWAP2 DUP2 ADD SWAP2 DUP3 MSTORE CALLER PUSH1 0x20 DUP4 ADD MSTORE PUSH1 0x40 DUP3 ADD SWAP5 SWAP1 SWAP5 MSTORE DUP4 SWAP1 DUP2 SWAP1 PUSH1 0x60 ADD SUB DUP2 DUP10 DUP9 GAS CALL DUP1 ISZERO PUSH2 0x238 JUMPI DUP7 SWAP1 PUSH2 0x2AF JUMPI JUMPDEST PUSH32 0x4CA6FA6CA1EA19F82A05490D19BAB8E9124BD2C0F8A2E4DA4CBF90CE2B85FDF1 SWAP3 POP PUSH2 0x1D3 JUMP JUMPDEST POP PUSH1 0x20 DUP3 RETURNDATASIZE DUP3 GT PUSH2 0x2F8 JUMPI JUMPDEST DUP2 PUSH2 0x2C8 PUSH1 0x20 SWAP4 DUP4 PUSH2 0x699 JUMP JUMPDEST DUP2 ADD SUB SLT PUSH2 0x22C JUMPI PUSH32 0x4CA6FA6CA1EA19F82A05490D19BAB8E9124BD2C0F8A2E4DA4CBF90CE2B85FDF1 SWAP2 MLOAD PUSH2 0x287 JUMP JUMPDEST RETURNDATASIZE SWAP2 POP PUSH2 0x2BB JUMP JUMPDEST POP SWAP1 CALLVALUE PUSH2 0x127 JUMPI PUSH1 0x20 SWAP2 DUP3 PUSH1 0x3 NOT CALLDATASIZE ADD SLT PUSH2 0x3F4 JUMPI PUSH1 0x1 PUSH1 0x1 PUSH1 0xA0 SHL SUB PUSH2 0x325 PUSH2 0x63F JUMP JUMPDEST AND SWAP3 DUP3 MLOAD SWAP2 PUSH32 0xDF8DE3E700000000000000000000000000000000000000000000000000000000 DUP4 MSTORE CALLER SWAP1 DUP4 ADD MSTORE DUP1 DUP3 PUSH1 0x24 DUP2 DUP9 DUP9 GAS CALL SWAP2 DUP3 ISZERO PUSH2 0x3EA JUMPI DUP6 SWAP3 PUSH2 0x397 JUMPI JUMPDEST POP PUSH32 0xA86305ABC2DB271DF4609AA86A8D044BC11FB36939841BFDAD6C1AB2B26E9471 SWAP2 SWAP3 MLOAD SWAP3 DUP4 MSTORE CALLER SWAP3 LOG3 DUP1 RETURN JUMPDEST SWAP2 POP DUP1 DUP3 DUP2 RETURNDATASIZE DUP4 GT PUSH2 0x3E3 JUMPI JUMPDEST PUSH2 0x3AE DUP2 DUP4 PUSH2 0x699 JUMP JUMPDEST DUP2 ADD SUB SLT PUSH2 0x3DF JUMPI PUSH32 0xA86305ABC2DB271DF4609AA86A8D044BC11FB36939841BFDAD6C1AB2B26E9471 SWAP2 MLOAD SWAP2 PUSH2 0x369 JUMP JUMPDEST DUP5 DUP1 REVERT JUMPDEST POP RETURNDATASIZE PUSH2 0x3A4 JUMP JUMPDEST DUP4 MLOAD RETURNDATASIZE DUP8 DUP3 RETURNDATACOPY RETURNDATASIZE SWAP1 REVERT JUMPDEST DUP4 DUP1 REVERT JUMPDEST POP POP CALLVALUE PUSH2 0x41E JUMPI DUP2 PUSH1 0x3 NOT CALLDATASIZE ADD SLT PUSH2 0x41E JUMPI PUSH1 0x1 PUSH1 0x1 PUSH1 0xA0 SHL SUB PUSH1 0x20 SWAP3 SLOAD AND SWAP1 MLOAD SWAP1 DUP2 MSTORE RETURN JUMPDEST POP DUP1 REVERT JUMPDEST POP SWAP1 CALLVALUE PUSH2 0x127 JUMPI PUSH1 0x60 CALLDATASIZE PUSH1 0x3 NOT ADD SLT PUSH2 0x127 JUMPI PUSH2 0x43D PUSH2 0x63F JUMP JUMPDEST PUSH1 0x24 CALLDATALOAD SWAP3 PUSH1 0x44 CALLDATALOAD SWAP2 PUSH1 0x1 PUSH1 0x1 PUSH1 0xA0 SHL SUB SWAP1 DUP2 DUP5 AND DUP1 SWAP5 SUB PUSH2 0x54C JUMPI PUSH2 0x460 PUSH2 0x655 JUMP JUMPDEST AND DUP1 ISZERO PUSH2 0x509 JUMPI PUSH1 0x20 SWAP3 SWAP2 DUP7 PUSH1 0x44 SWAP3 PUSH2 0x47A DUP9 ISZERO ISZERO PUSH2 0x6EA JUMP JUMPDEST PUSH2 0x485 DUP6 ISZERO ISZERO PUSH2 0x735 JUMP JUMPDEST DUP7 MLOAD SWAP8 DUP9 SWAP6 DUP7 SWAP5 PUSH32 0xA9059CBB00000000000000000000000000000000000000000000000000000000 DUP7 MSTORE DUP6 ADD MSTORE PUSH1 0x24 DUP5 ADD MSTORE GAS CALL SWAP1 DUP2 ISZERO PUSH2 0x500 JUMPI POP PUSH2 0x4C9 JUMPI POP DUP1 RETURN JUMPDEST PUSH1 0x20 DUP2 RETURNDATASIZE DUP3 GT PUSH2 0x4F8 JUMPI JUMPDEST DUP2 PUSH2 0x4E1 PUSH1 0x20 SWAP4 DUP4 PUSH2 0x699 JUMP JUMPDEST DUP2 ADD SUB SLT PUSH2 0x41E JUMPI MLOAD DUP1 ISZERO ISZERO SUB PUSH2 0x4F5 JUMPI DUP1 RETURN JUMPDEST DUP1 REVERT JUMPDEST RETURNDATASIZE SWAP2 POP PUSH2 0x4D4 JUMP JUMPDEST MLOAD RETURNDATASIZE DUP5 DUP3 RETURNDATACOPY RETURNDATASIZE SWAP1 REVERT JUMPDEST PUSH1 0x64 DUP3 PUSH1 0x20 DUP7 MLOAD SWAP2 PUSH3 0x461BCD PUSH1 0xE5 SHL DUP4 MSTORE DUP3 ADD MSTORE PUSH1 0x15 PUSH1 0x24 DUP3 ADD MSTORE PUSH32 0x496E76616C696420746F6B656E20616464726573730000000000000000000000 PUSH1 0x44 DUP3 ADD MSTORE REVERT JUMPDEST DUP7 DUP1 REVERT JUMPDEST DUP4 CALLVALUE PUSH2 0x4F5 JUMPI DUP1 PUSH1 0x3 NOT CALLDATASIZE ADD SLT PUSH2 0x4F5 JUMPI PUSH2 0x569 PUSH2 0x655 JUMP JUMPDEST DUP1 PUSH1 0x1 PUSH1 0x1 PUSH1 0xA0 SHL SUB DUP2 SLOAD PUSH20 0xFFFFFFFFFFFFFFFFFFFFFFFFFFFFFFFFFFFFFFFF NOT DUP2 AND DUP4 SSTORE AND PUSH32 0x8BE0079C531659141344CD1FD0A4F28419497F9722A3DAAFE3B4186F6B6457E0 DUP3 DUP1 LOG3 DUP1 RETURN JUMPDEST SWAP2 SWAP1 POP CALLVALUE PUSH2 0x41E JUMPI DUP3 PUSH1 0x3 NOT CALLDATASIZE ADD SLT PUSH2 0x41E JUMPI DUP2 DUP1 DUP1 SWAP3 CALLDATALOAD PUSH2 0x5D6 PUSH2 0x624 JUMP JUMPDEST PUSH2 0x5DE PUSH2 0x655 JUMP JUMPDEST PUSH1 0x1 PUSH1 0x1 PUSH1 0xA0 SHL SUB DUP3 ISZERO SWAP2 PUSH2 0x5F3 DUP4 ISZERO PUSH2 0x6EA JUMP JUMPDEST AND SWAP1 PUSH2 0x600 DUP3 ISZERO ISZERO PUSH2 0x735 JUMP JUMPDEST DUP4 SWAP1 PUSH2 0x61B JUMPI JUMPDEST CALL ISZERO PUSH2 0x611 JUMPI POP DUP1 RETURN JUMPDEST MLOAD SWAP1 RETURNDATASIZE SWAP1 DUP3 RETURNDATACOPY RETURNDATASIZE SWAP1 REVERT JUMPDEST POP PUSH2 0x8FC PUSH2 0x607 JUMP JUMPDEST PUSH1 0x24 CALLDATALOAD SWAP1 PUSH1 0x1 PUSH1 0x1 PUSH1 0xA0 SHL SUB DUP3 AND DUP3 SUB PUSH2 0x63A JUMPI JUMP JUMPDEST PUSH1 0x0 DUP1 REVERT JUMPDEST PUSH1 0x4 CALLDATALOAD SWAP1 PUSH1 0x1 PUSH1 0x1 PUSH1 0xA0 SHL SUB DUP3 AND DUP3 SUB PUSH2 0x63A JUMPI JUMP JUMPDEST PUSH1 0x1 PUSH1 0x1 PUSH1 0xA0 SHL SUB PUSH1 0x0 SLOAD AND CALLER SUB PUSH2 0x669 JUMPI JUMP JUMPDEST PUSH1 0x24 PUSH1 0x40 MLOAD PUSH32 0x118CDAA700000000000000000000000000000000000000000000000000000000 DUP2 MSTORE CALLER PUSH1 0x4 DUP3 ADD MSTORE REVERT JUMPDEST SWAP1 PUSH1 0x1F DUP1 NOT SWAP2 ADD AND DUP2 ADD SWAP1 DUP2 LT PUSH8 0xFFFFFFFFFFFFFFFF DUP3 GT OR PUSH2 0x6BB JUMPI PUSH1 0x40 MSTORE JUMP JUMPDEST PUSH32 0x4E487B7100000000000000000000000000000000000000000000000000000000 PUSH1 0x0 MSTORE PUSH1 0x41 PUSH1 0x4 MSTORE PUSH1 0x24 PUSH1 0x0 REVERT JUMPDEST ISZERO PUSH2 0x6F1 JUMPI JUMP JUMPDEST PUSH1 0x64 PUSH1 0x40 MLOAD PUSH3 0x461BCD PUSH1 0xE5 SHL DUP2 MSTORE PUSH1 0x20 PUSH1 0x4 DUP3 ADD MSTORE PUSH1 0x1D PUSH1 0x24 DUP3 ADD MSTORE PUSH32 0x416D6F756E74206D7573742062652067726561746572207468616E2030000000 PUSH1 0x44 DUP3 ADD MSTORE REVERT JUMPDEST ISZERO PUSH2 0x73C JUMPI JUMP JUMPDEST PUSH1 0x64 PUSH1 0x40 MLOAD PUSH3 0x461BCD PUSH1 0xE5 SHL DUP2 MSTORE PUSH1 0x20 PUSH1 0x4 DUP3 ADD MSTORE PUSH1 0x19 PUSH1 0x24 DUP3 ADD MSTORE PUSH32 0x496E76616C696420726563697069656E74206164647265737300000000000000 PUSH1 0x44 DUP3 ADD MSTORE REVERT INVALID LOG1 PUSH5 0x736F6C6343 STOP ADDMOD EQ STOP EXP "},"methodIdentifiers":{"claimInvestmentTokens(address)":"acf68f7b","owner()":"8da5cb5b","renounceOwnership()":"715018a6","rescueERC20(address,uint256,address)":"77662ffc","rescueNative(uint256,address)":"18af4c9e","routeInvestment(address,address,uint256)":"d1726ca9","transferOwnership(address)":"f2fde38b"}}}}}