{"contracts/OfferingFactory.sol":{"OfferingFactory":{"abi":[{"inputs":[],"stateMutability":"nonpayable","type":"constructor"},{"inputs":[{"internalType":"address","name":"owner","type":"address"}],"name":"OwnableInvalidOwner","type":"error"},{"inputs":[{"internalType":"address","name":"account","type":"address"}],"name":"OwnableUnauthorizedAccount","type":"error"},{"anonymous":false,"inputs":[{"indexed":true,"internalType":"uint256","name":"offeringId","type":"uint256"},{"indexed":true,"internalType":"address","name":"creator","type":"address"},{"indexed":true,"internalType":"address","name":"offeringAddress","type":"address"},{"indexed":false,"internalType":"address","name":"tokenOwner","type":"address"}],"name":"OfferingDeployed","type":"event"},{"anonymous":false,"inputs":[{"indexed":true,"internalType":"address","name":"previousOwner","type":"address"},{"indexed":true,"internalType":"address","name":"newOwner","type":"address"}],"name":"OwnershipTransferred","type":"event"},{"anonymous":false,"inputs":[{"indexed":true,"internalType":"address","name":"usdtAddress","type":"address"},{"indexed":true,"internalType":"address","name":"usdtOracleAddress","type":"address"}],"name":"USDTConfigUpdated","type":"event"},{"inputs":[{"internalType":"address","name":"","type":"address"},{"internalType":"uint256","name":"","type":"uint256"}],"name":"byOwner","outputs":[{"internalType":"uint256","name":"","type":"uint256"}],"stateMutability":"view","type":"function"},{"inputs":[],"name":"count","outputs":[{"internalType":"uint256","name":"","type":"uint256"}],"stateMutability":"view","type":"function"},{"inputs":[{"components":[{"internalType":"address","name":"saleToken","type":"address"},{"internalType":"uint256","name":"minInvestment","type":"uint256"},{"internalType":"uint256","name":"maxInvestment","type":"uint256"},{"internalType":"uint256","name":"startDate","type":"uint256"},{"internalType":"uint256","name":"endDate","type":"uint256"},{"internalType":"uint256","name":"maturityDate","type":"uint256"},{"internalType":"bool","name":"autoTransfer","type":"bool"},{"internalType":"bool","name":"apyEnabled","type":"bool"},{"internalType":"uint256","name":"fundraisingCap","type":"uint256"},{"internalType":"uint256","name":"tokenPrice","type":"uint256"},{"internalType":"address","name":"tokenOwner","type":"address"},{"internalType":"address","name":"escrowAddress","type":"address"},{"internalType":"address","name":"investmentManager","type":"address"},{"internalType":"address","name":"payoutTokenAddress","type":"address"},{"internalType":"uint256","name":"payoutRate","type":"uint256"},{"internalType":"enum IWRAPEDTOKEN.PayoutFrequency","name":"defaultPayoutFrequency","type":"uint8"}],"internalType":"struct CreateOfferingConfig","name":"config","type":"tuple"}],"name":"createOffering","outputs":[{"internalType":"address","name":"offeringAddress","type":"address"}],"stateMutability":"nonpayable","type":"function"},{"inputs":[{"components":[{"internalType":"address","name":"saleToken","type":"address"},{"internalType":"uint256","name":"minInvestment","type":"uint256"},{"internalType":"uint256","name":"maxInvestment","type":"uint256"},{"internalType":"uint256","name":"startDate","type":"uint256"},{"internalType":"uint256","name":"endDate","type":"uint256"},{"internalType":"uint256","name":"maturityDate","type":"uint256"},{"internalType":"bool","name":"autoTransfer","type":"bool"},{"internalType":"bool","name":"apyEnabled","type":"bool"},{"internalType":"uint256","name":"fundraisingCap","type":"uint256"},{"internalType":"uint256","name":"tokenPrice","type":"uint256"},{"internalType":"address","name":"tokenOwner","type":"address"},{"internalType":"address","name":"escrowAddress","type":"address"},{"internalType":"address","name":"investmentManager","type":"address"},{"internalType":"address","name":"payoutTokenAddress","type":"address"},{"internalType":"uint256","name":"payoutRate","type":"uint256"},{"internalType":"enum IWRAPEDTOKEN.PayoutFrequency","name":"defaultPayoutFrequency","type":"uint8"},{"internalType":"address[]","name":"paymentTokens","type":"address[]"},{"internalType":"address[]","name":"oracles","type":"address[]"}],"internalType":"struct CreateOfferingWithTokensConfig","name":"config","type":"tuple"}],"name":"createOfferingWithPaymentTokens","outputs":[{"internalType":"address","name":"offeringAddress","type":"address"}],"stateMutability":"nonpayable","type":"function"},{"inputs":[],"name":"getAllOfferings","outputs":[{"internalType":"address[]","name":"","type":"address[]"}],"stateMutability":"view","type":"function"},{"inputs":[{"internalType":"uint256","name":"offeringId","type":"uint256"}],"name":"getOfferingAddress","outputs":[{"internalType":"address","name":"","type":"address"}],"stateMutability":"view","type":"function"},{"inputs":[{"internalType":"address","name":"tokenOwner","type":"address"}],"name":"getOfferingIdsByTokenOwner","outputs":[{"internalType":"uint256[]","name":"","type":"uint256[]"}],"stateMutability":"view","type":"function"},{"inputs":[{"internalType":"address","name":"offeringAddress","type":"address"}],"name":"getOfferingOwner","outputs":[{"internalType":"address","name":"","type":"address"}],"stateMutability":"view","type":"function"},{"inputs":[],"name":"getUSDTConfig","outputs":[{"internalType":"address","name":"usdtToken","type":"address"},{"internalType":"address","name":"usdtOracle","type":"address"}],"stateMutability":"view","type":"function"},{"inputs":[{"internalType":"uint256","name":"","type":"uint256"}],"name":"offerings","outputs":[{"internalType":"address","name":"","type":"address"}],"stateMutability":"view","type":"function"},{"inputs":[],"name":"owner","outputs":[{"internalType":"address","name":"","type":"address"}],"stateMutability":"view","type":"function"},{"inputs":[{"internalType":"address","name":"","type":"address"}],"name":"owners","outputs":[{"internalType":"address","name":"","type":"address"}],"stateMutability":"view","type":"function"},{"inputs":[],"name":"renounceOwnership","outputs":[],"stateMutability":"nonpayable","type":"function"},{"inputs":[{"internalType":"address","name":"_usdtAddress","type":"address"},{"internalType":"address","name":"_usdtOracleAddress","type":"address"}],"name":"setUSDTConfig","outputs":[],"stateMutability":"nonpayable","type":"function"},{"inputs":[{"internalType":"address","name":"newOwner","type":"address"}],"name":"transferOwnership","outputs":[],"stateMutability":"nonpayable","type":"function"},{"inputs":[],"name":"usdtAddress","outputs":[{"internalType":"address","name":"","type":"address"}],"stateMutability":"view","type":"function"},{"inputs":[],"name":"usdtOracleAddress","outputs":[{"internalType":"address","name":"","type":"address"}],"stateMutability":"view","type":"function"}],"evm":{"bytecode":{"linkReferences":{},"object":"6080806040523461007a5733156100645760008054336001600160a01b03198216811783556040519290916001600160a01b0316907f8be0079c531659141344cd1fd0a4f28419497f9722a3daafe3b4186f6b6457e09080a361723090816100808239f35b631e4fbdf760e01b815260006004820152602490fd5b600080fdfe6101c08060405260043610156200001557600080fd5b6000908161014052813560e01c908163022914a714620014165750806306661abd14620013f35780632325d8e4146200132b5780633941bf521462000e8657806340368db51462000d5a578063577da0581462000d21578063578786211462000cf5578063715018a61462000c8457806379bf49b81462000c415780638da5cb5b1462000c165780639ab4a4451462000bea578063c82fcef01462000b87578063ca18988a14620001b4578063dc2a95bc1462000a9b578063e297651214620001ef578063e34fec1d14620001b45763f2fde38b14620000f457600080fd5b34620001ad576020366003190112620001ad576200011162001456565b906200011c620015f3565b6001600160a01b038092169182156200017a577f8be0079c531659141344cd1fd0a4f28419497f9722a3daafe3b4186f6b6457e09082548473ffffffffffffffffffffffffffffffffffffffff198216178455169180a36101405180f35b60246040517f1e4fbdf7000000000000000000000000000000000000000000000000000000008152610140516004820152fd5b6101405180fd5b34620001ad576020366003190112620001ad576004356101405152600260205260206001600160a01b03604061014051205416604051908152f35b34620001ad57600319602036820112620001ad5767ffffffffffffffff60043511620001ad57610240809160043536030112620001ad5760405190810181811067ffffffffffffffff821117620009d1576040526200025360043560040162001472565b81526004356024810135602083015260448101356040830152606461010081905281013560608301526084810135608083015260a481013560a08301526200029e9060c4016200152d565b60c0820152620002b360e4600435016200152d565b60e0820152600435610104810135610100830152610124810135610120830152620002e2906101440162001472565b610140820152620002f96101646004350162001472565b610160820152620003106101846004350162001472565b610180820152620003276101a46004350162001472565b6101a08201526101c460043501356101c082015260036101e460043501351015620001ad576101e460043501356101e082015267ffffffffffffffff610204600435013511620001ad57620003883660048035610204810135010162001583565b61020082015267ffffffffffffffff610224600435013511620001ad57620003bc3660048035610224810135010162001583565b610220820152620003cc620015f3565b61020081015151610220820151510362000a5457610200810151511562000a0d57620004086001600160a01b0361016083015116151562001638565b620004236001600160a01b036101a083015116151562001684565b610140519060405191826131a181011067ffffffffffffffff6131a185011117620009f6576131a1620019bd84396101405192806131a18101039084f08060c05215620009eb57819060e0820151620008c1575b81809181516001600160a01b03169060208301516101605260408301516060840151608085015160a086015160c0870151151561010088015190610120890151926101408a01516001600160a01b0316946101608b01516001600160a01b03169660e08c01511515986101808d01516001600160a01b03169c6101a001516001600160a01b03169d6101c001519e6101e00151806101205260031115620008a7576001600160a01b039b62000533604051806101a052620014ba565b6101a051526101605160206101a051015260406101a051015260606101a051015260806101a051015260a06101a051015260c06101a051015260e06101a05101526101006101a05101526101206101a05101526101406101a05101526101606101a0510152166101806101a05101526101a0805101526101c06101a05101526101e06101a0510152620005d1610120516102006101a051016200178b565b6001600160a01b0360c05116803b15620001ad57604051630479c84560e21b81526101405181806200060a6101a05160048301620017ae565b038161014051865af18015620007a05762000895575b50610200820151610220830151610140515b825181101562000870576001600160a01b03620006508285620018ad565b5116156200080e576001600160a01b036200066c8284620018ad565b511615620007c7575b6001600160a01b03620006898285620018ad565b51166001600160a01b036200069f8385620018ad565b511690853b15620001ad576040517f764467cc000000000000000000000000000000000000000000000000000000008152610140516001600160a01b039283166004830152919092166024830152818060448101038161014051895af18015620007a057620007ae575b506001600160a01b036200071e8285620018ad565b5116843b15620001ad57604051907f1309b324000000000000000000000000000000000000000000000000000000008252600482015260016024820152610140518160448183895af18015620007a05762000786575b50620007809062001887565b62000632565b6200079190620014d8565b61014051801562000774575b80fd5b6040513d61014051823e3d90fd5b620007b990620014d8565b610140518015620007095780fd5b60405162461bcd60e51b815260206004820152601e60248201527f496e76616c6964206f7261636c6520666f7220455243323020746f6b656e000060448201526101005190fd5b6001600160a01b03620008228284620018ad565b5116620006755760405162461bcd60e51b815260206004820152601d60248201527f496e76616c6964206f7261636c6520666f72206e61746976652045544800000060448201526101005190fd5b6020846200088d6001600160a01b036101408901511682620018c2565b604051908152f35b620008a090620014d8565b8262000620565b634e487b7160e01b61014051526021600452602461014051fd5b506001600160a01b039051166001600160a01b036101a08301511660a08301516101c08401519160405193620008f78562001487565b6040516200090581620014ed565b600d81526c2bb930b83832b2102a37b5b2b760991b602082015285526040516200092f81620014ed565b600381526215d49560ea1b6020820152602086015260408501526060840152608083015260a08201526001600160a01b0360c0511660c082015260405190816126c681011067ffffffffffffffff6126c684011117620009d157620009a382916126c662004b5e84396126c6830162001712565b03610140519182f0908115620009c5575081906001600160a01b031662000477565b604051903d90823e3d90fd5b634e487b7160e01b61014051526041600452602461014051fd5b6040513d84823e3d90fd5b634e487b7160e01b90526041600452602461014051fd5b60405162461bcd60e51b815260206004820152601a60248201527f4e6f207061796d656e7420746f6b656e732070726f766964656400000000000060448201526101005190fd5b60405162461bcd60e51b815260206004820152601560248201527f4172726179206c656e677468206d69736d61746368000000000000000000000060448201526101005190fd5b34620001ad5761014051806003193601126200079d57600180549062000ac1826200156a565b9062000ad160405192836200150a565b82825262000adf836200156a565b6020838101949091601f1901368637610140515b81811062000b42575050604051928184019082855251809152604084019491610140515b82811062000b255785870386f35b83516001600160a01b031687529581019592810192840162000b17565b8062000b7b916101409795979694965152600286526001600160a01b0360406101405120541662000b748286620018ad565b5262001887565b94929493919362000af3565b34620001ad576040366003190112620001ad5762000ba462001456565b6001600160a01b0360243591166101405152600460205261014051604081209081548310156200079d57602062000bdc84846200153b565b90546040519160031b1c8152f35b34620001ad5761014051806003193601126200079d5760206001600160a01b0360055416604051908152f35b34620001ad5761014051806003193601126200079d576001600160a01b036020915416604051908152f35b34620001ad576020366003190112620001ad5760206001600160a01b038062000c6962001456565b16610140515260038252604061014051205416604051908152f35b34620001ad5761014051806003193601126200079d5762000ca4620015f3565b61014051806001600160a01b03815473ffffffffffffffffffffffffffffffffffffffff1981168355167f8be0079c531659141344cd1fd0a4f28419497f9722a3daafe3b4186f6b6457e08280a380f35b34620001ad5761014051806003193601126200079d5760206001600160a01b0360065416604051908152f35b34620001ad5761014051806003193601126200079d57600554600654604080516001600160a01b03938416815292909116602083015290f35b34620001ad576040366003190112620001ad5762000d7762001456565b602435906001600160a01b0390818316809303620001ad5762000d99620015f3565b1690811562000e4257801562000dfe578073ffffffffffffffffffffffffffffffffffffffff1983816005541617600555600654161760065561014051917f9708fedb34d7f4b974e53ac2d03b32eb2c50270b84ec301a97aa7e7d9e25810e8380a380f35b606460405162461bcd60e51b815260206004820152601660248201527f496e76616c6964206f7261636c652061646472657373000000000000000000006044820152fd5b606460405162461bcd60e51b815260206004820152601460248201527f496e76616c6964205553445420616464726573730000000000000000000000006044820152fd5b34620001ad57610200366003190112620001ad57604051610200810181811067ffffffffffffffff821117620009d15760405262000ec362001456565b8152602435602082015260443560408201526064356060820152608435608082015260a43560a082015260c4358015158103620001ad5760c082015260e4358015158103620001ad5760e082015261010435610100820152610124356101208201526001600160a01b0361014435166101443503620001ad57610144356101408201526001600160a01b0361016435166101643503620001ad57610164356101608201526001600160a01b0361018435166101843503620001ad57610184356101808201526001600160a01b036101a435166101a43503620001ad576101a4356101a08201526101c4356101c082015260036101e4351015620001ad576101e4356101e082015262000fd4620015f3565b62000fef6001600160a01b0361016083015116151562001638565b6200100a6001600160a01b036101a083015116151562001684565b610140519060405191826131a181011067ffffffffffffffff6131a185011117620009f6576131a1620019bd84396101405192806131a18101039084f0806101805215620009eb57819060e082015162001226575b81809181516001600160a01b031690602083015160805260408301516060840151608085015160a086015160c0870151151561010088015190610120890151926101408a01516001600160a01b0316946101608b01516001600160a01b03169660e08c01511515986101808d01516001600160a01b03169c6101a001516001600160a01b03169d6101c001519e6101e001518060e05260031115620008a7576001600160a01b039b620011186040518060a052620014ba565b60a05152608051602060a0510152604060a0510152606060a0510152608060a051015260a08051015260c060a051015260e060a051015261010060a051015261012060a051015261014060a051015261016060a05101521661018060a05101526101a060a05101526101c060a05101526101e060a0510152620011a460e05161020060a051016200178b565b6001600160a01b036101805116803b15620001ad5760405191630479c84560e21b8352610140518380620011de60a05160048301620017ae565b038161014051865af1928315620007a0576101406200088d926001600160a01b039260209662001214575b5001511682620018c2565b6200121f90620014d8565b8662001209565b506001600160a01b039051166001600160a01b036101a08301511660a08301516101c084015191604051936200125c8562001487565b6040516200126a81620014ed565b600d81526c2bb930b83832b2102a37b5b2b760991b602082015285526040516200129481620014ed565b600381526215d49560ea1b6020820152602086015260408501526060840152608083015260a08201526001600160a01b03610180511660c082015260405190816126c681011067ffffffffffffffff6126c684011117620009d1576200130982916126c662004b5e84396126c6830162001712565b03610140519182f0908115620009c5575081906001600160a01b03166200105f565b34620001ad57602080600319360112620001ad576001600160a01b036200135162001456565b16610140515260048152604061014051206040519081838254918281520190819261014051526101405190858220915b86828210620013de5786866200139a828803836200150a565b6040519283928184019082855251809152604084019291610140515b828110620013c657505050500390f35b835185528695509381019392810192600101620013b6565b83548552909301926001928301920162001381565b34620001ad5761014051806003193601126200079d576020600154604051908152f35b90503462001452576020366003190112620014525760209160406001600160a01b0391826200144462001456565b168152600385522054168152f35b5080fd5b600435906001600160a01b03821682036200146d57565b600080fd5b35906001600160a01b03821682036200146d57565b60e0810190811067ffffffffffffffff821117620014a457604052565b634e487b7160e01b600052604160045260246000fd5b610220810190811067ffffffffffffffff821117620014a457604052565b67ffffffffffffffff8111620014a457604052565b6040810190811067ffffffffffffffff821117620014a457604052565b90601f8019910116810190811067ffffffffffffffff821117620014a457604052565b359081151582036200146d57565b8054821015620015545760005260206000200190600090565b634e487b7160e01b600052603260045260246000fd5b67ffffffffffffffff8111620014a45760051b60200190565b81601f820112156200146d578035916200159d836200156a565b92620015ad60405194856200150a565b808452602092838086019260051b8201019283116200146d578301905b828210620015d9575050505090565b838091620015e78462001472565b815201910190620015ca565b6001600160a01b036000541633036200160857565b60246040517f118cdaa7000000000000000000000000000000000000000000000000000000008152336004820152fd5b156200164057565b606460405162461bcd60e51b815260206004820152601660248201527f496e76616c696420657363726f772061646472657373000000000000000000006044820152fd5b156200168c57565b606460405162461bcd60e51b815260206004820152601c60248201527f496e76616c6964207061796f757420746f6b656e2061646472657373000000006044820152fd5b919082519283825260005b848110620016fd575050826000602080949584010152601f8019910116010190565b602081830181015184830182015201620016db565b6020815260e06200174b620017348451836020860152610100850190620016d0565b6020850151848203601f19016040860152620016d0565b9260c06001600160a01b0391826040820151166060860152826060820151166080860152608081015160a086015260a08101518286015201511691015290565b6003821015620017985752565b634e487b7160e01b600052602160045260246000fd5b9190916102208101926001600160a01b038082511683526020820151602084015260408201516040840152606082015160608401526080820151608084015260a082015160a084015260c0820151151560c084015260e082015160e08401526101008083015190840152610120818184015116908401526101408181840151169084015261016080830151151590840152610180818184015116908401526101a0818184015116908401526101c0908183015116908301526101e080820151908301526102008091015191600383101562001798570152565b6000198114620018975760010190565b634e487b7160e01b600052601160045260246000fd5b8051821015620015545760209160051b010190565b9190600154926000938452600260205260408420916001600160a01b038092169273ffffffffffffffffffffffffffffffffffffffff1990848282541617905583865260036020526040862090339082541617905516908184526004602052604084206001549080549568010000000000000000871015620019a857508562001956916001620019a397980181556200153b565b819291549060031b91821b91600019901b191617905560015491604051908152827f4dd34c1e85386b354efed754df3c56823235e0653e32231c2448e8d3278145d060203393a462001887565b600155565b80634e487b7160e01b602492526041600452fdfe6080806040523461001b57600160025561318090816100218239f35b600080fdfe608080604052600436101561009e575b50361561005a57606460405162461bcd60e51b815260206004820152601560248201527f46616c6c6261636b206e6f7420616363657074656400000000000000000000006044820152fd5b606460405162461bcd60e51b815260206004820152601960248201527f446972656374204c554d4941206e6f74206163636570746564000000000000006044820152fd5b600090813560e01c9081622e131614612ac05750806301ffc9a714612a1e5780630b97bc8614612a005780630d342cab146129dd5780630d5defa4146129b657806311e72114146123155780631309b324146122955780631e1a268b14612272578063248a9ca3146122465780632b4353f2146122285780632f2ff15d146121eb57806336568abe1461218b5780633784f0001461205a5780633e646208146120305780633f4ba83a14611fa15780634b31bb1014611f7a5780634fff540214611f545780635c975abb14611f315780635cc0483814611f0a57806361d027b314611ee0578063653ac422146112955780636a61e5fc1461123c578063764467cc1461117057806377d392f014610ef75780637ff9b59614610ed95780638456cb5914610e7357806388e32fc214610da75780638a18511314610d6c5780638ac2c68014610d4e5780638cd0593314610d2657806390838e0914610cee57806391d1485414610ca2578063a217fddf14610c86578063a6527f3914610c48578063b13ef13814610c0a578063b37fd19014610878578063b96627971461085a578063bbcc0a061461083c578063bd49243214610801578063c031a66f146107c9578063c24a0f8b146107ab578063c5c4744c1461078d578063d547741f1461074c578063d59624b41461072e578063df695abb146106f1578063df8de3e714610314578063e985e367146102ed5763fb903b1d0361000f57346102ea5760403660031901126102ea576024356004356102d5612be8565b6102e182821115612f47565b60045560055580f35b80fd5b50346102ea57806003193601126102ea5760206001600160a01b0360035416604051908152f35b50346102ea57602090816003193601126102ea57610330612b28565b610338613097565b610340612f92565b6001600160a01b039182600e5416330361068657600854421061064257828216918282526015855260408220549384156105fe576024868260035416604051928380926370a0823160e01b82523060048301525afa801561050757869085906105c8575b6103b09250101561300b565b838352601586528260408120556103c985600c5461311b565b600c55858560ff600d5460081c1660001461051257906104249183600354168487600d546040519687958694859363095ea7b360e01b855260101c1660048401602090939291936001600160a01b0360408201951681520152565b03925af18015610507576104da575b50600d5460101c1660ff6011541691813b156104d657918391868361046f95604051968795869485936348e8a94960e01b85526004850161306e565b03925af180156104cb576104b7575b50505b7fd8138f8a3f377c5259ca548e70e4c2de94f129f5a11036a15b69513cba2b426a83604051848152a26001600255604051908152f35b6104c18291612adc565b6102ea578061047e565b6040513d84823e3d90fd5b8380fd5b6104f990873d8911610500575b6104f18183612b06565b810190613056565b5038610433565b503d6104e7565b6040513d86823e3d90fd5b60035460405163a9059cbb60e01b81526001600160a01b0395909516600486015260248501919091529091839160449183918791165af19182156105bc579161059f575b50610481576064836040519062461bcd60e51b82526004820152601560248201527f546f6b656e207472616e73666572206661696c656400000000000000000000006044820152fd5b6105b69150843d8611610500576104f18183612b06565b38610556565b604051903d90823e3d90fd5b50508681813d83116105f7575b6105df8183612b06565b810103126105f257856103b091516103a4565b600080fd5b503d6105d5565b6064866040519062461bcd60e51b82526004820152601260248201527f4e6f20746f6b656e7320746f20636c61696d00000000000000000000000000006044820152fd5b6064846040519062461bcd60e51b82526004820152601460248201527f4d61747572697479206e6f7420726561636865640000000000000000000000006044820152fd5b60405162461bcd60e51b815260206004820152602c60248201527f43616c6c6572206973206e6f742074686520696e766573746d656e744d616e6160448201527f67657220636f6e747261637400000000000000000000000000000000000000006064820152608490fd5b50346102ea5760203660031901126102ea5760ff60406020926001600160a01b0361071a612b28565b168152601484522054166040519015158152f35b50346102ea57806003193601126102ea576020600854604051908152f35b50346102ea5760403660031901126102ea5761078960043561076c612b3e565b90808452836020526107846001604086200154612c44565b612ed1565b5080f35b50346102ea57806003193601126102ea576020600b54604051908152f35b50346102ea57806003193601126102ea576020600754604051908152f35b50346102ea5760203660031901126102ea5760406020916001600160a01b036107f0612b28565b168152601583522054604051908152f35b50346102ea5760203660031901126102ea5760209060406001600160a01b03918261082a612b28565b16815260178452205416604051908152f35b50346102ea57806003193601126102ea576020600c54604051908152f35b50346102ea57806003193601126102ea576020600a54604051908152f35b50346102ea5760603660031901126102ea57610892612b28565b602480356044918235926001600160a01b0393848116958682036105f2576108b8612b77565b6108c0613097565b8615610bc757851694856109ef57508347106109ac578680808681945af13d156109a7573d67ffffffffffffffff8111610994576040519061090c601f8201601f191660200183612b06565b81528760203d92013e5b1561095157505060207fd27dd37d941f5a1b76926e48140fdbf50a0c59defb5431a391a1260279eb1c4c915b604051908152a3600160025580f35b907f4c554d494120726573637565206661696c65640000000000000000000000000060649260136040519362461bcd60e51b855260206004860152840152820152fd5b8388634e487b7160e01b81526041600452fd5b610916565b6064837f4e6f7420656e6f756768204c554d4941000000000000000000000000000000008460106040519362461bcd60e51b855260206004860152840152820152fd5b600393919354168514610b8557604051926370a0823160e01b8452306004850152602093848184818a5afa8015610b7a5786918a91610b49575b5010610b075760405163a9059cbb60e01b81526001600160a01b039190911660048201526024810185905283816044818b8a5af1908115610afc578891610adf575b5015610a9d5750505060207fd27dd37d941f5a1b76926e48140fdbf50a0c59defb5431a391a1260279eb1c4c91610942565b6064929160137f455243323020726573637565206661696c656400000000000000000000000000926040519462461bcd60e51b86526004860152840152820152fd5b610af69150843d8611610500576104f18183612b06565b38610a6b565b6040513d8a823e3d90fd5b6064847f4e6f7420656e6f75676820746f6b656e73000000000000000000000000000000856011866040519462461bcd60e51b86526004860152840152820152fd5b809250868092503d8311610b73575b610b628183612b06565b810103126105f25785905138610a29565b503d610b58565b6040513d8b823e3d90fd5b7f43616e6e6f74207265736375652073616c65546f6b656e00000000000000000060649260176040519362461bcd60e51b855260206004860152840152820152fd5b6064847f496e76616c696420726563697069656e740000000000000000000000000000008560116040519362461bcd60e51b855260206004860152840152820152fd5b50346102ea5760203660031901126102ea57610789610c27612b28565b610c2f612b77565b610c436001600160a01b0382161515613128565b612cfa565b50346102ea5760203660031901126102ea57610789610c65612b28565b610c6d612b77565b610c816001600160a01b0382161515613128565b612e26565b50346102ea57806003193601126102ea57602090604051908152f35b50346102ea5760403660031901126102ea576001600160a01b036040610cc6612b3e565b92600435815280602052209116600052602052602060ff604060002054166040519015158152f35b50346102ea5760203660031901126102ea5760406020916001600160a01b03610d15612b28565b168152601683522054604051908152f35b50346102ea57806003193601126102ea57602060ff60115416610d4c6040518092612b54565bf35b50346102ea57806003193601126102ea576020600454604051908152f35b50346102ea57806003193601126102ea5760206040517f35369b3a7bb98c90641a907c2fd643ea781341eba72ccffd47cb018c128c48c38152f35b50346102ea5760203660031901126102ea57610dc1612b28565b610dc9612b77565b6001600160a01b0380911690818352601760205260408320541615610e2f578082526017602052604082206001600160a01b031981541690557fc1d3048301c0d23629a2532c8defa6d68f8e1a0e4157918769e9fb1b2eeb888e6020604051848152a280f35b606460405162461bcd60e51b815260206004820152601360248201527f4e6f206f7261636c6520746f2072656d6f7665000000000000000000000000006044820152fd5b50346102ea57806003193601126102ea57610e8c612b77565b610e94612f92565b600160ff198154161760015560206040513381527f62e78cea01bee320cd4e420270b5ea74000d11b0c9f74754ebdbfc544b05a258918291a16020604051338152a180f35b50346102ea57806003193601126102ea576020601354604051908152f35b50346102ea5760208060031936011261116c57610f12612b28565b90610f1b612be8565b610f23613097565b600854421115611128576001600160a01b03918281169283156110e457600354166040516370a0823160e01b81523060048201528381602481855afa80156110d95786906110aa575b610f7a9150600c549061311b565b9182156110665760405163a9059cbb60e01b81526001600160a01b03919091166004820152602481018390529083908290604490829089905af190811561105b57859161103e575b5015610ffa57907ffcbf6553b2cfc097c2301f1c071469a8839b462e7287e3692f238ccfc6b9208f91604051908152a2600160025580f35b6064826040519062461bcd60e51b82526004820152600e60248201527f5265636c61696d206661696c65640000000000000000000000000000000000006044820152fd5b6110559150833d8511610500576104f18183612b06565b38610fc2565b6040513d87823e3d90fd5b6064846040519062461bcd60e51b82526004820152601360248201527f4e6f20756e636c61696d656420746f6b656e73000000000000000000000000006044820152fd5b508381813d83116110d2575b6110c08183612b06565b810103126105f257610f7a9051610f6c565b503d6110b6565b6040513d88823e3d90fd5b6064836040519062461bcd60e51b82526004820152600f60248201527f496e76616c6964206164647265737300000000000000000000000000000000006044820152fd5b6064906040519062461bcd60e51b82526004820152600b60248201527f4e6f74206d6174757265640000000000000000000000000000000000000000006044820152fd5b5080fd5b50346102ea5760403660031901126102ea5761118a612b28565b611192612b3e565b61119a612b77565b6001600160a01b038091169182156111f8577fc1d3048301c0d23629a2532c8defa6d68f8e1a0e4157918769e9fb1b2eeb888e9160209116928385526017825260408520816001600160a01b0319825416179055604051908152a280f35b606460405162461bcd60e51b815260206004820152601660248201527f496e76616c6964206f7261636c652061646472657373000000000000000000006044820152fd5b50346102ea5760203660031901126102ea577f6b361c807733cc94a3b7bda39c1c94dcc0511e91aa47b0f7f918068e93976890602060043561127c612be8565b6112878115156130d0565b80601355604051908152a180f35b5060603660031901126102ea576112aa612b28565b906112b3612b3e565b916112bc613097565b6112c4612f92565b6001600160a01b03600e54163303610686576001600160a01b03831615611e9c5760ff600d5416611e58576006544210611e1457600754421015611dd0576001600160a01b0381168252601460205260ff60408320541615611d8c5760443515611d48576001600160a01b038116825260176020526001600160a01b036040832054168015611d045760406004918151928380927f57de26a40000000000000000000000000000000000000000000000000000000082525afa908115611cf9578391611cab575b50601b0b9161139b8184136130d0565b6001600160a01b038216611c22576012925b806044350290604435820403611c0e57670de0b6b3a76400009384820291808304861490151715611b2e5760ff16604d8111611b2e5784916113f291600a0a90612feb565b046004548110611bca576001600160a01b0385168252601660205261141b816040842054612fc8565b60055410611b8657600b54936114318286612fc8565b600a5410611b4257808202908282041482151715611b2e5760135461145591612feb565b938415611aea578161146691612fc8565b600b556001600160a01b0385168252601660205261148960408320918254612fc8565b905560ff60095416611a6b575b6001600160a01b038216611888576044353403611844576001600160a01b0360125416803b1561116c5781604491604051928380927f701bb8910000000000000000000000000000000000000000000000000000000082523060048301526001600160a01b038a16602483015234905af180156104cb57908291611830575b50505b60095460ff16156117d457600d5460081c60ff16156116f357600354600d5460405163095ea7b360e01b81526001600160a01b0360109290921c8216600482015260248101869052916020918391168185816044810103925af19081156104cb5782916116d4575b5015611690576001600160a01b03600d5460101c1660ff60115416813b1561168c576115c7839283926040519485809481936348e8a94960e01b83528b8d6004850161306e565b03925af180156104cb57611678575b50507f93638e6cf18b4f6a839de65df95898221f5d9f7dc54b87d4b31d40297643266e60606001600160a01b036020955b8160405195168552604435878601528560408601521692a2600b54600a5481101561163b575b506001600255604051908152f35b827fcb67f20f64495b30f15524c55f90201dd6571d6b5c19dac183d2aeb25315b2dc91600160ff19600d541617600d55604051908152a13861162d565b6116828291612adc565b6102ea57806115d6565b8280fd5b606460405162461bcd60e51b815260206004820152600e60248201527f417070726f7665206661696c65640000000000000000000000000000000000006044820152fd5b6116ed915060203d602011610500576104f18183612b06565b38611580565b60035460405163a9059cbb60e01b81526001600160a01b038681166004830152602482018690529091602091839160449183918791165af19182156105bc57916117b5575b5015611771577f93638e6cf18b4f6a839de65df95898221f5d9f7dc54b87d4b31d40297643266e60606001600160a01b03602095611607565b606460405162461bcd60e51b815260206004820152601460248201527f4175746f2d7472616e73666572206661696c65640000000000000000000000006044820152fd5b6117ce915060203d602011610500576104f18183612b06565b38611738565b60606001600160a01b038560407f93638e6cf18b4f6a839de65df95898221f5d9f7dc54b87d4b31d40297643266e9483602099168152601589522061181a878254612fc8565b905561182886600c54612fc8565b600c55611607565b61183990612adc565b6102ea578038611515565b606460405162461bcd60e51b815260206004820152601760248201527f496e636f7272656374206e617469766520616d6f756e740000000000000000006044820152fd5b34611a01576040517f23b872dd0000000000000000000000000000000000000000000000000000000081526001600160a01b03851660048201523060248201526044356044820152602081606481856001600160a01b0388165af180156104cb576119e2575b5060125460405163095ea7b360e01b81526001600160a01b039182166004820152604480356024830152909160209183918290869088165af180156104cb576119c3575b506001600160a01b0360125416803b1561116c578180916084604051809481937f0ef7c5a70000000000000000000000000000000000000000000000000000000083523060048401526001600160a01b038b1660248401526001600160a01b038916604484015260443560648401525af180156104cb576119b4575b50611518565b6119bd90612adc565b386119ae565b6119db9060203d602011610500576104f18183612b06565b5038611932565b6119fa9060203d602011610500576104f18183612b06565b50386118ee565b608460405162461bcd60e51b815260206004820152602160248201527f446f206e6f742073656e642045544820666f7220746f6b656e207061796d656e60448201527f74000000000000000000000000000000000000000000000000000000000000006064820152fd5b602460206001600160a01b0360035416604051928380926370a0823160e01b82523060048301525afa80156104cb5784908390611ab4575b611aaf9250101561300b565b611496565b50506020813d602011611ae2575b81611acf60209383612b06565b8101031261116c5783611aaf9151611aa3565b3d9150611ac2565b606460405162461bcd60e51b815260206004820152601460248201527f546f6b656e20616d6f756e7420746f6f206c6f770000000000000000000000006044820152fd5b602483634e487b7160e01b81526011600452fd5b606460405162461bcd60e51b815260206004820152600b60248201527f45786365656473206361700000000000000000000000000000000000000000006044820152fd5b606460405162461bcd60e51b815260206004820152601660248201527f45786365656473206d617820696e766573746d656e74000000000000000000006044820152fd5b606460405162461bcd60e51b815260206004820152601460248201527f42656c6f77206d696e20696e766573746d656e740000000000000000000000006044820152fd5b602482634e487b7160e01b81526011600452fd5b6040517f313ce5670000000000000000000000000000000000000000000000000000000081526020816004816001600160a01b0387165afa9081156104cb578291611c6f575b50926113ad565b90506020813d602011611ca3575b81611c8a60209383612b06565b8101031261116c575160ff8116810361116c5738611c68565b3d9150611c7d565b90506040813d604011611cf1575b81611cc660409383612b06565b8101031261168c5780519081601b0b82036104d6576020015163ffffffff81160361168c573861138b565b3d9150611cb9565b6040513d85823e3d90fd5b606460405162461bcd60e51b815260206004820152600e60248201527f4f7261636c65206e6f74207365740000000000000000000000000000000000006044820152fd5b606460405162461bcd60e51b815260206004820152600b60248201527f5a65726f20616d6f756e740000000000000000000000000000000000000000006044820152fd5b606460405162461bcd60e51b815260206004820152601560248201527f546f6b656e206e6f742077686974656c697374656400000000000000000000006044820152fd5b606460405162461bcd60e51b815260206004820152600a60248201527f53616c6520656e646564000000000000000000000000000000000000000000006044820152fd5b606460405162461bcd60e51b815260206004820152601060248201527f53616c65206e6f742073746172746564000000000000000000000000000000006044820152fd5b606460405162461bcd60e51b815260206004820152600e60248201527f53616c6520697320636c6f7365640000000000000000000000000000000000006044820152fd5b606460405162461bcd60e51b815260206004820152601860248201527f496e76616c696420696e766573746f72206164647265737300000000000000006044820152fd5b50346102ea57806003193601126102ea5760206001600160a01b0360115460101c16604051908152f35b50346102ea57806003193601126102ea5760206001600160a01b03600f5416604051908152f35b50346102ea57806003193601126102ea57602060ff600154166040519015158152f35b50346102ea57806003193601126102ea57602060ff600d5460081c166040519015158152f35b50346102ea57806003193601126102ea5760206001600160a01b03600e5416604051908152f35b50346102ea57806003193601126102ea57611fba612b77565b60015460ff8116156120065760ff191660015560206040513381527f5db9ee0a495bf2e6ff9c91a7834c1ba4fdd244a5e8aa4e537bd38aeae4b073aa918291a16020604051338152a180f35b60046040517f8dfc202b000000000000000000000000000000000000000000000000000000008152fd5b50346102ea57806003193601126102ea5760206001600160a01b03600d5460101c16604051908152f35b50346102ea5760203660031901126102ea57600435612077612b77565b42811115612147576007548111156120dd576008548110156120995760075580f35b606460405162461bcd60e51b815260206004820152602060248201527f456e642064617465206d757374206265206265666f7265206d617475726974796044820152fd5b608460405162461bcd60e51b815260206004820152602260248201527f4e657720656e642064617465206d75737420626520616674657220637572726560448201527f6e740000000000000000000000000000000000000000000000000000000000006064820152fd5b606460405162461bcd60e51b815260206004820152601060248201527f496e76616c696420656e642064617465000000000000000000000000000000006044820152fd5b50346102ea5760403660031901126102ea576121a5612b3e565b336001600160a01b038216036121c15761078990600435612ed1565b60046040517f6697b232000000000000000000000000000000000000000000000000000000008152fd5b50346102ea5760403660031901126102ea5761078960043561220b612b3e565b90808452836020526122236001604086200154612c44565b612dac565b50346102ea57806003193601126102ea576020601054604051908152f35b50346102ea5760203660031901126102ea57600160406020926004358152808452200154604051908152f35b50346102ea57806003193601126102ea57602060ff600d54166040519015158152f35b50346102ea5760403660031901126102ea576122af612b28565b6024359081151580920361168c5760206001600160a01b037f91ad45a5ce97c5eee55fa01496772afefc7f0757ed9eac59064e642690509dfb926122f1612b77565b1692838552601482526040852060ff1981541660ff8316179055604051908152a280f35b50346102ea576102208060031936011261116c5760405190810181811067ffffffffffffffff8211176129a25760405261234d612b28565b8152602435602082015260443560408201526064356060820152608435608082015260a43560a082015260c435801515810361168c5760c082015260e43560e0820152610104356101008201526001600160a01b036101243516610124350361116c5761012435610120820152610144356001600160a01b038116810361168c57610140820152610164351515610164350361116c57610164356101608201526001600160a01b036101843516610184350361116c57610184356101808201526001600160a01b036101a435166101a4350361116c576101a4356101a08201526101c4356001600160a01b038116810361168c576101c08201526101e4356101e0820152600361020435101561116c576102043561020082015260115460ff8160081c1661295e576001600160a01b038251161561291a576001600160a01b0361012083015116156128d6576001600160a01b036101408301511615612892576001600160a01b036101a083015116156128285760e0820151156127e457610100820151156127a0576124ea602083015160408401511015612f47565b6060820151421161275c576060820151608083015111156126f2576001600160a01b036101c083015116156126ae576001600160a01b038251166001600160a01b03196003541617600355602082015160045560408201516005556060820151600655608082015160075560a082015160085560c0820151151560ff199060ff826009541691161760095560e0830151600a556101008301516013556001600160a01b03610140840151166001600160a01b031960125416176012556101608301511515600d547fffffffffffffffffffff000000000000000000000000000000000000000000ff61ff0075ffffffffffffffffffffffffffffffffffffffff000061018088015160101b169360081b1691161717600d556001600160a01b036101a0840151166001600160a01b0319600e541617600e556001600160a01b036101c0840151166001600160a01b0319600f541617600f556101e0830151601055610200830151600381101561269a57926001600160a01b03926101209260ff612687961691161760115561267e33612c6a565b50015116612cfa565b5061010061ff0019601154161760115580f35b602485634e487b7160e01b81526021600452fd5b606460405162461bcd60e51b815260206004820152601c60248201527f496e76616c6964207061796f757420746f6b656e2061646472657373000000006044820152fd5b608460405162461bcd60e51b815260206004820152602260248201527f53746172742064617465206d757374206265206265666f726520656e6420646160448201527f74650000000000000000000000000000000000000000000000000000000000006064820152fd5b606460405162461bcd60e51b815260206004820152602060248201527f53746172742064617465206d75737420626520696e20746865206675747572656044820152fd5b606460405162461bcd60e51b815260206004820152601c60248201527f546f6b656e207072696365206d75737420626520706f736974697665000000006044820152fd5b606460405162461bcd60e51b815260206004820152602060248201527f46756e6472616973696e6720636170206d75737420626520706f7369746976656044820152fd5b608460405162461bcd60e51b815260206004820152602260248201527f496e76616c696420696e766573746d656e74206d616e6167657220616464726560448201527f73730000000000000000000000000000000000000000000000000000000000006064820152fd5b606460405162461bcd60e51b815260206004820152601660248201527f496e76616c696420657363726f772061646472657373000000000000000000006044820152fd5b606460405162461bcd60e51b815260206004820152601360248201527f496e76616c696420746f6b656e206f776e6572000000000000000000000000006044820152fd5b606460405162461bcd60e51b815260206004820152601260248201527f496e76616c69642073616c6520746f6b656e00000000000000000000000000006044820152fd5b606460405162461bcd60e51b815260206004820152601360248201527f416c726561647920696e697469616c697a6564000000000000000000000000006044820152fd5b602483634e487b7160e01b81526041600452fd5b50346102ea57806003193601126102ea5760206001600160a01b0360125416604051908152f35b50346102ea57806003193601126102ea57602060ff600954166040519015158152f35b50346102ea57806003193601126102ea576020600654604051908152f35b50346102ea5760203660031901126102ea576004357fffffffff00000000000000000000000000000000000000000000000000000000811680910361116c57807f7965db0b0000000000000000000000000000000000000000000000000000000060209214908115612a96575b506040519015158152f35b7f01ffc9a70000000000000000000000000000000000000000000000000000000091501482612a8b565b90503461116c578160031936011261116c576020906005548152f35b67ffffffffffffffff8111612af057604052565b634e487b7160e01b600052604160045260246000fd5b90601f8019910116810190811067ffffffffffffffff821117612af057604052565b600435906001600160a01b03821682036105f257565b602435906001600160a01b03821682036105f257565b906003821015612b615752565b634e487b7160e01b600052602160045260246000fd5b3360009081527fad3228b676f7d3cd4284a5443f17f1962b36e491b30a40b2405849e597ba5fb5602052604081205460ff1615612bb15750565b604490604051907fe2517d3f0000000000000000000000000000000000000000000000000000000082523360048301526024820152fd5b3360009081527f7dfc0114fc2b0320947240cbd60a9ffc193468a941c37441e641a928a8c116d560205260409020547f35369b3a7bb98c90641a907c2fd643ea781341eba72ccffd47cb018c128c48c39060ff1615612bb15750565b80600052600060205260406000203360005260205260ff6040600020541615612bb15750565b6001600160a01b031660008181527fad3228b676f7d3cd4284a5443f17f1962b36e491b30a40b2405849e597ba5fb5602052604081205490919060ff16612cf657818052816020526040822081835260205260408220600160ff1982541617905533917f2f8788117e7eff1d82e926ec794901d17c78024a50270940304540a733656f0d8180a4600190565b5090565b6001600160a01b031660008181527f7dfc0114fc2b0320947240cbd60a9ffc193468a941c37441e641a928a8c116d560205260408120549091907f35369b3a7bb98c90641a907c2fd643ea781341eba72ccffd47cb018c128c48c39060ff16612da757808352826020526040832082845260205260408320600160ff198254161790557f2f8788117e7eff1d82e926ec794901d17c78024a50270940304540a733656f0d339380a4600190565b505090565b90600091808352826020526001600160a01b036040842092169182845260205260ff60408420541615600014612da757808352826020526040832082845260205260408320600160ff198254161790557f2f8788117e7eff1d82e926ec794901d17c78024a50270940304540a733656f0d339380a4600190565b6001600160a01b031660008181527f7dfc0114fc2b0320947240cbd60a9ffc193468a941c37441e641a928a8c116d560205260408120549091907f35369b3a7bb98c90641a907c2fd643ea781341eba72ccffd47cb018c128c48c39060ff1615612da75780835282602052604083208284526020526040832060ff1981541690557ff6391f5c32d9c69d2a47ea670b442974b53935d1edc7fd64eb21e047a839171b339380a4600190565b90600091808352826020526001600160a01b036040842092169182845260205260ff604084205416600014612da75780835282602052604083208284526020526040832060ff1981541690557ff6391f5c32d9c69d2a47ea670b442974b53935d1edc7fd64eb21e047a839171b339380a4600190565b15612f4e57565b606460405162461bcd60e51b815260206004820152601460248201527f4d696e203e206d617820696e766573746d656e740000000000000000000000006044820152fd5b60ff60015416612f9e57565b60046040517fd93c0665000000000000000000000000000000000000000000000000000000008152fd5b91908201809211612fd557565b634e487b7160e01b600052601160045260246000fd5b8115612ff5570490565b634e487b7160e01b600052601260045260246000fd5b1561301257565b606460405162461bcd60e51b815260206004820152601860248201527f496e73756666696369656e742073616c6520746f6b656e7300000000000000006044820152fd5b908160209103126105f2575180151581036105f25790565b60409061309593959492956001600160a01b03606083019716825260208201520190612b54565b565b60028054146130a65760028055565b60046040517f3ee5aeb5000000000000000000000000000000000000000000000000000000008152fd5b156130d757565b606460405162461bcd60e51b815260206004820152600d60248201527f496e76616c6964207072696365000000000000000000000000000000000000006044820152fd5b91908203918211612fd557565b1561312f57565b606460405162461bcd60e51b815260206004820152600c60248201527f5a65726f206164647265737300000000000000000000000000000000000000006044820152fdfea164736f6c6343000814000a6040610120815234620004ed57620026c690813803806200002081620004f2565b938439820191602081840312620004ed578051906001600160401b038211620004ed570160e081840312620004ed5781519260e084016001600160401b03811185821017620003c457835281516001600160401b038111620004ed57816200008a91840162000518565b84526020820151906001600160401b038211620004ed57620000ae91830162000518565b92836020820152620000c28383016200058a565b83820152620000d4606083016200058a565b6060820152608082015191608082019283526200010060c060a08301519260a08501938452016200058a565b60c0830152815180516001600160401b038111620003c45760035491600183811c93168015620004e2575b6020841014620004cc578190601f9384811162000475575b50602090848311600114620003e657600092620003da575b50508160011b916000199060031b1c1916176003555b8551906001600160401b038211620003c4576004968754600181811c91168015620003b9575b6020821014620003a457908183859493116200034b575b506020918311600114620002e057600092620002d4575b50508160011b916000199060031b1c19161785555b6001600755818401516001600160a01b0393908416158015620002c5575b620002b5578483015184166080526060830151841660a0525160c0908152905160e0520151166101009081529062000230336200059f565b506200023c3362000620565b5051611fe29182620006c483396080518281816102e3015281816110000152818161137301526119c0015260a05182818161051d015281816107fe01528181610d210152610f34015260c05182818161069401526112ce015260e05182818161108e0152611631015251818181610f9001526116c40152f35b8451632945604560e11b81528690fd5b508360608401511615620001f8565b015190503880620001c5565b6000898152602081209350601f198516905b81811062000332575090846001959493921062000318575b505050811b018555620001da565b015160001960f88460031b161c191690553880806200030a565b92936020600181928786015181550195019301620002f2565b909192508860005260206000208380860160051c820192602087106200039a575b94869594939291940160051c01905b8181106200038a5750620001ae565b600081558594506001016200037b565b925081926200036c565b602289634e487b7160e01b6000525260246000fd5b90607f169062000197565b634e487b7160e01b600052604160045260246000fd5b0151905038806200015b565b6003600090815293507fc2575a0e9e593c00f959f8c92f12db2869c3395a3b0502d05e2516446f71f85b91905b601f198416851062000459576001945083601f198116106200043f575b505050811b0160035562000171565b015160001960f88460031b161c1916905538808062000430565b8181015183556020948501946001909301929091019062000413565b909150600360005260206000208480850160051c82019260208610620004c2575b9085949392910160051c01905b818110620004b2575062000143565b60008155849350600101620004a3565b9250819262000496565b634e487b7160e01b600052602260045260246000fd5b92607f16926200012b565b600080fd5b6040519190601f01601f191682016001600160401b03811183821017620003c457604052565b919080601f84011215620004ed5782516001600160401b038111620003c4576020906200054e601f8201601f19168301620004f2565b92818452828287010111620004ed5760005b8181106200057657508260009394955001015290565b858101830151848201840152820162000560565b51906001600160a01b0382168203620004ed57565b6001600160a01b031660008181527f05b8ccbb9d4d8fb16ea74ce3c29a41f1b461fbdaff4714a0d9a8eb05499746bc602052604081205490919060ff166200061c5781805260056020526040822081835260205260408220600160ff198254161790553391600080516020620026a68339815191528180a4600190565b5090565b6001600160a01b031660008181527fa9780ac285a6b64c20b34d35938634ccfeaf5de258bea281533158d789ca4a2f60205260408120549091907f84b05def62ce9bc2bd93f644e8c54b097db7ee9edab66685b9b15dc162c755649060ff16620006be5780835260056020526040832082845260205260408320600160ff19825416179055600080516020620026a6833981519152339380a4600190565b50509056fe608060408181526004918236101561001657600080fd5b600092833560e01c918262e77aa6146119a15750816301ffc9a71461190057816306fdde031461180b578163095ea7b31461176357816309ad1c471461172b5781630b5dce331461170757816318160ddd146116e85781631a4f94f7146116a457816323b872dd1461167f578163248a9ca3146116545781632b4353f2146116195781632f2ff15d146115ef578163313ce567146115d357816336568abe146115745781633f4ba83a146114f15781634265b3c91461146357816342966c6814611445578163464f0b0d146112ba57816348e8a94914610f585781634efa82b614610f145781635c975abb14610ef05781636f7bc9be14610e4157816370a0823114610e0b57816374a3d5b814610c7557816379cc679014610b735781637eb9d98114610b4957816383c379d414610b1f5781638456cb5914610a9a5781638695ed6414610a7b578163895955e614610a4057816391d14854146109fa57816395d89b41146108f7578163a217fddf146108dc578163a41cac7f14610766578163a9059cbb14610724578163bff08087146106f7578163d547741f146106b7578163d59624b41461067c578163dd62ed3e14610633578163e88499a914610431578163eb73fa6f14610412578163f2c399921461021e575063f9168231146101fd57600080fd5b3461021a578160031936011261021a576020906008549051908152f35b5080fd5b83833461021a578160031936011261021a57610238611f1b565b60ff60095416156103ea57338252602090600b82528083209182549081156103db57600784019360ff8554166103b3576001015460ff166103a45733855284815282852054938415610395576102a86102a1612710610299600a5487611e8b565b048095611ebe565b9533611d67565b805460ff19166001179055825163a9059cbb60e01b815233878201908152602081018690528290829081906040010381896001600160a01b037f0000000000000000000000000000000000000000000000000000000000000000165af190811561038b57869161035e575b501561034f57825193845283015233917fa34530ec0b9fd6c8b48017f6726af24c1ad4f28d0f434f7396906b6b954c1d989190a2600160075580f35b8583516312171d8360e31b8152fd5b61037e9150823d8411610384575b6103768183611d2f565b810190611e73565b87610313565b503d61036c565b84513d88823e3d90fd5b868451633a6a68b160e01b8152fd5b8583516317968e5360e31b8152fd5b8684517f5090d6c6000000000000000000000000000000000000000000000000000000008152fd5b858351633a6a68b160e01b8152fd5b9050517fa2a2b35c000000000000000000000000000000000000000000000000000000008152fd5b50503461021a578160031936011261021a57602090600c549051908152f35b9190503461062f578260031936011261062f57338352600b60205280832091825480156106205760ff6001850154166106115761047360ff8386015416611ecb565b9081156106025760028501805461048a8142611ebe565b8481106105da578461049b91611e9e565b9360036104ac60058a015487611e8b565b980194855494806104bd8b88611e50565b116105c6575b5088156105b7576104eb94926104de8a95936104e493611e8b565b90611e50565b9055611e50565b9055815163a9059cbb60e01b815233828201908152602081810186905290829081906040010381886001600160a01b037f0000000000000000000000000000000000000000000000000000000000000000165af19081156105ad57859161058f575b50156105815750519081527f399492d309dd6967e8059de2eece78587d885c0e55c73801041891dc98cb939260203392a280f35b90516312171d8360e31b8152fd5b6105a7915060203d8111610384576103768183611d2f565b3861054d565b83513d87823e3d90fd5b86885163439ece7760e01b8152fd5b6105d39199508590611ebe565b97386104c3565b8587517fb477c7b1000000000000000000000000000000000000000000000000000000008152fd5b82845163439ece7760e01b8152fd5b5090516317968e5360e31b8152fd5b509051633a6a68b160e01b8152fd5b8280fd5b50503461021a578060031936011261021a5780602092610651611a2d565b610659611a48565b6001600160a01b0391821683526001865283832091168252845220549051908152f35b50503461021a578160031936011261021a57602090517f00000000000000000000000000000000000000000000000000000000000000008152f35b9190503461062f578060031936011261062f576106f391356106ee60016106dc611a48565b93838752600560205286200154611ab6565b611cb7565b5080f35b8334610721576020366003190112610721576106f3610714611a2d565b61071c611a5e565b611c0b565b80fd5b8284346107215781600319360112610721575061073f611a2d565b50517fade576c5000000000000000000000000000000000000000000000000000000008152fd5b83833461021a5760208060031936011261062f578335907f84b05def62ce9bc2bd93f644e8c54b097db7ee9edab66685b9b15dc162c7556480855260058252838520338652825260ff8486205416156108bf57506107c2611f1b565b81156108b05782516323b872dd60e01b815233868201908152306020820152604081018490528290829081906060010381886001600160a01b037f0000000000000000000000000000000000000000000000000000000000000000165af19081156108a6578591610889575b501561087a577f04fc7965be49b3c5de2c5ae7700b1d01b9535e8cdd19811bb303e05ff19ce4a093945061086482600c54611e50565b9081600c558351928352820152a1600160075580f35b8483516312171d8360e31b8152fd5b6108a09150823d8411610384576103768183611d2f565b8661082e565b84513d87823e3d90fd5b84835163c7e1b6b160e01b8152fd5b8560449185519163e2517d3f60e01b835233908301526024820152fd5b50503461021a578160031936011261021a5751908152602090f35b83833461021a578160031936011261021a57805191809380549160019083821c928285169485156109f0575b60209586861081146109dd578589529081156109b95750600114610961575b61095d8787610953828c0383611d2f565b51918291826119e4565b0390f35b81529295507f8a35acfbc15ff81a39ae7d344fd709f28e8600b4aa8c65c6b64bfe7fe36bd19b5b8284106109a6575050508261095d9461095392820101948680610942565b8054868501880152928601928101610988565b60ff19168887015250505050151560051b83010192506109538261095d8680610942565b602484602285634e487b7160e01b835252fd5b93607f1693610923565b90503461062f578160031936011261062f578160209360ff92610a1b611a48565b90358252600586526001600160a01b0383832091168252855220541690519015158152f35b50503461021a578160031936011261021a57602090517f84b05def62ce9bc2bd93f644e8c54b097db7ee9edab66685b9b15dc162c755648152f35b50503461021a578160031936011261021a57602090600a549051908152f35b90503461062f578260031936011261062f57610ab4611a5e565b6006549060ff8216610af8575060ff1916600117600655513381527f62e78cea01bee320cd4e420270b5ea74000d11b0c9f74754ebdbfc544b05a25890602090a180f35b82517fd93c0665000000000000000000000000000000000000000000000000000000008152fd5b8334610721578060031936011261072157610b38611a5e565b60ff196009541660095580600a5580f35b8334610721576020366003190112610721576106f3610b66611a2d565b610b6e611a5e565b611adc565b8391503461021a578260031936011261021a57610b8e611a2d565b602435916001600160a01b038216808552600160205285852033865260205285852054916000198310610bca575b85610bc78686611d67565b80f35b848310610c30578115610c1a573315610c0457508495918491610bc796526001602052828720338852602052039085205583928580610bbc565b60249086885191634a1406b160e11b8352820152fd5b6024908688519163e602df0560e01b8352820152fd5b86517ffb8f41b2000000000000000000000000000000000000000000000000000000008152339181019182526020820193909352604081018590528291506060010390fd5b9190503461062f578260031936011261062f57610c90611f1b565b3383526020600b8152818420805415610dfc5760ff600782015416610ded57338552848252828520548015610ddd57610cd9600691610cd460025491600c54611e8b565b611e9e565b910193610ce7855483611ebe565b948515610dce57829055835163a9059cbb60e01b8152338282019081526020810187905284908290819060400103818a6001600160a01b037f0000000000000000000000000000000000000000000000000000000000000000165af1908115610dc4578791610da7575b5015610d99575090610d85847f0408e6e0b73daf4c873106e95fd067260fbff8bf9d1b499cad563d4480d45bac9493611ebe565b9082519485528401523392a2600160075580f35b83516312171d8360e31b8152fd5b610dbe9150843d8611610384576103768183611d2f565b38610d51565b85513d89823e3d90fd5b50835163439ece7760e01b8152fd5b50505051633a6a68b160e01b8152fd5b5050516317968e5360e31b8152fd5b505051633a6a68b160e01b8152fd5b50503461021a57602036600319011261021a57806020926001600160a01b03610e32611a2d565b16815280845220549051908152f35b828434610721576020366003190112610721576001600160a01b03610e64611a2d565b168152600b60205281812080549260ff60018301541692600283015490600384015460ff88860154169260058601549460ff6007600689015498015416978151998a52151560208a015288015260608701526003821015610edd57506101009550608085015260a084015260c0830152151560e0820152f35b80602188634e487b7160e01b6024945252fd5b50503461021a578160031936011261021a5760209060ff6006541690519015158152f35b50503461021a578160031936011261021a57602090516001600160a01b037f0000000000000000000000000000000000000000000000000000000000000000168152f35b83833461021a57606036600319011261021a57610f73611a2d565b90602435916044359060038210156112b6576001600160a01b03907f00000000000000000000000000000000000000000000000000000000000000008281163303611233579087929186156112245785516323b872dd60e01b81526001600160a01b0390911693810193845230602085810191909152604085018890529384908290819060600103818b877f0000000000000000000000000000000000000000000000000000000000000000165af190811561121a5788916111fd575b50156111ee57169182156111bf5761104a85600254611e50565b60025582865285825283862085815401905582867fddf252ad1be2c89b69c2b068fc378daa952ba7f163c4a11628f55a4df523b3ef848751898152a36127106110b37f000000000000000000000000000000000000000000000000000000000000000087611e8b565b0491845194610100860186811067ffffffffffffffff8211176111ac5790889594939291815287875261113482880187815282890192428452600b60608b01958a875260808c0197885260a08c0198895260c08c01998b8b5260e08d019b808d5252528b2098518955511515600189019060ff801983541691151516179055565b51600287015551600386015587850190516003811015611199579260079261118b959261119398979560ff8019835416911617905551600585015551600684015551151591019060ff801983541691151516179055565b600854611e50565b60085580f35b60248860218b634e487b7160e01b835252fd5b60248960418c634e487b7160e01b835252fd5b602487878651917fec442f05000000000000000000000000000000000000000000000000000000008352820152fd5b8785516312171d8360e31b8152fd5b6112149150843d8611610384576103768183611d2f565b89611030565b86513d8a823e3d90fd5b83865163c7e1b6b160e01b8152fd5b60848860208751917f08c379a0000000000000000000000000000000000000000000000000000000008352820152602360248201527f43616c6c6572206973206e6f7420746865206f66666572696e6720636f6e747260448201527f61637400000000000000000000000000000000000000000000000000000000006064820152fd5b8480fd5b90503461062f578260031936011261062f577f0000000000000000000000000000000000000000000000000000000000000000421061141e57338352602090600b8252828420906001820160ff8154166114005782541561140f5760ff600784015416611400573386528584526113348587205433611d67565b805460ff191660011790558154845163a9059cbb60e01b8152338382019081526020810192909252908490829081906040010381896001600160a01b037f0000000000000000000000000000000000000000000000000000000000000000165af19081156113f65786916113d9575b5015610d995750907f8bb992a66750701ebd5f73b74463037e5a77fa3114ea76d89b9db1818b083f48915492519283523392a280f35b6113f09150843d8611610384576103768183611d2f565b386113a3565b85513d88823e3d90fd5b5083516317968e5360e31b8152fd5b508351633a6a68b160e01b8152fd5b90517f111c4409000000000000000000000000000000000000000000000000000000008152fd5b83903461021a57602036600319011261021a57610bc7903533611d67565b9190503461062f57602036600319011261062f57813591611482611a5e565b61138883116114ca57507f373e08b9e2e94c99f958f95cf4e0a2db0e6de1f1607a5b7470341baab1ae608c91602091600160ff19600954161760095581600a5551908152a180f35b90517f458eae5b000000000000000000000000000000000000000000000000000000008152fd5b90503461062f578260031936011261062f5761150b611a5e565b6006549060ff82161561154d575060ff1916600655513381527f5db9ee0a495bf2e6ff9c91a7834c1ba4fdd244a5e8aa4e537bd38aeae4b073aa90602090a180f35b82517f8dfc202b000000000000000000000000000000000000000000000000000000008152fd5b83833461021a578060031936011261021a5761158e611a48565b90336001600160a01b038316036115ab57506106f3919235611cb7565b8390517f6697b232000000000000000000000000000000000000000000000000000000008152fd5b50503461021a578160031936011261021a576020905160128152f35b9190503461062f578060031936011261062f576106f3913561161460016106dc611a48565b611b8f565b50503461021a578160031936011261021a57602090517f00000000000000000000000000000000000000000000000000000000000000008152f35b90503461062f57602036600319011261062f5781602093600192358152600585522001549051908152f35b828434610721576060366003190112610721575061169b611a2d565b5061073f611a48565b50503461021a578160031936011261021a57602090516001600160a01b037f0000000000000000000000000000000000000000000000000000000000000000168152f35b50503461021a578160031936011261021a576020906002549051908152f35b50503461021a578160031936011261021a5760209060ff6009541690519015158152f35b50503461021a57602036600319011261021a5760609061175161174c611a2d565b611f56565b91929081519384526020840152820152f35b90503461062f578160031936011261062f5761177d611a2d565b6024359033156117f5576001600160a01b03169182156117df57508083602095338152600187528181208582528752205582519081527f8c5be1e5ebec7d5bd14f71427d1e84f3dd0314c0f7b2291e5b200ac8c7c3b925843392a35160018152f35b60249085855191634a1406b160e11b8352820152fd5b6024838686519163e602df0560e01b8352820152fd5b9190503461062f578260031936011261062f57805191836003549060019082821c9282811680156118f6575b60209586861082146118e357508488529081156118c15750600114611868575b61095d8686610953828b0383611d2f565b929550600383527fc2575a0e9e593c00f959f8c92f12db2869c3395a3b0502d05e2516446f71f85b5b8284106118ae575050508261095d94610953928201019438611857565b8054868501880152928601928101611891565b60ff191687860152505050151560051b83010192506109538261095d38611857565b836022602492634e487b7160e01b835252fd5b93607f1693611837565b90503461062f57602036600319011261062f5735907fffffffff00000000000000000000000000000000000000000000000000000000821680920361062f57602092507f7965db0b000000000000000000000000000000000000000000000000000000008214918215611977575b50519015158152f35b7f01ffc9a7000000000000000000000000000000000000000000000000000000001491503861196e565b84903461021a578160031936011261021a576020906001600160a01b037f0000000000000000000000000000000000000000000000000000000000000000168152f35b6020808252825181830181905290939260005b828110611a1957505060409293506000838284010152601f8019910116010190565b8181018601518482016040015285016119f7565b600435906001600160a01b0382168203611a4357565b600080fd5b602435906001600160a01b0382168203611a4357565b3360009081527f05b8ccbb9d4d8fb16ea74ce3c29a41f1b461fbdaff4714a0d9a8eb05499746bc602052604081205460ff1615611a985750565b6044906040519063e2517d3f60e01b82523360048301526024820152fd5b80600052600560205260406000203360005260205260ff6040600020541615611a985750565b6001600160a01b031660008181527fa9780ac285a6b64c20b34d35938634ccfeaf5de258bea281533158d789ca4a2f60205260408120549091907f84b05def62ce9bc2bd93f644e8c54b097db7ee9edab66685b9b15dc162c755649060ff16611b8a5780835260056020526040832082845260205260408320600160ff198254161790557f2f8788117e7eff1d82e926ec794901d17c78024a50270940304540a733656f0d339380a4600190565b505090565b9060009180835260056020526001600160a01b036040842092169182845260205260ff60408420541615600014611b8a5780835260056020526040832082845260205260408320600160ff198254161790557f2f8788117e7eff1d82e926ec794901d17c78024a50270940304540a733656f0d339380a4600190565b6001600160a01b031660008181527fa9780ac285a6b64c20b34d35938634ccfeaf5de258bea281533158d789ca4a2f60205260408120549091907f84b05def62ce9bc2bd93f644e8c54b097db7ee9edab66685b9b15dc162c755649060ff1615611b8a578083526005602052604083208284526020526040832060ff1981541690557ff6391f5c32d9c69d2a47ea670b442974b53935d1edc7fd64eb21e047a839171b339380a4600190565b9060009180835260056020526001600160a01b036040842092169182845260205260ff604084205416600014611b8a578083526005602052604083208284526020526040832060ff1981541690557ff6391f5c32d9c69d2a47ea670b442974b53935d1edc7fd64eb21e047a839171b339380a4600190565b90601f8019910116810190811067ffffffffffffffff821117611d5157604052565b634e487b7160e01b600052604160045260246000fd5b906001600160a01b038216908115611e1f5760009282845283602052604084205490828210611dd45750817fddf252ad1be2c89b69c2b068fc378daa952ba7f163c4a11628f55a4df523b3ef926020928587528684520360408620558060025403600255604051908152a3565b6040517fe450d38c0000000000000000000000000000000000000000000000000000000081526001600160a01b03919091166004820152602481019190915260448101829052606490fd5b60246040517f96c6fd1e00000000000000000000000000000000000000000000000000000000815260006004820152fd5b91908201809211611e5d57565b634e487b7160e01b600052601160045260246000fd5b90816020910312611a4357518015158103611a435790565b81810292918115918404141715611e5d57565b8115611ea8570490565b634e487b7160e01b600052601260045260246000fd5b91908203918211611e5d57565b6003811015611f055780611ee157506201518090565b60018103611ef1575062278d0090565b600214611efd57600090565b6301e1338090565b634e487b7160e01b600052602160045260246000fd5b600260075414611f2c576002600755565b60046040517f3ee5aeb5000000000000000000000000000000000000000000000000000000008152fd5b6001600160a01b03600091168152600b6020526040812091825415611fcd578160205260408220548015611fc457600254908115611fba57600691610cd4611fa092600c54611e8b565b9301549182841115611fb75750611fb78284611ebe565b90565b5050915080918190565b50915080918190565b91508091819056fea164736f6c6343000814000a2f8788117e7eff1d82e926ec794901d17c78024a50270940304540a733656f0da164736f6c6343000814000a","opcodes":"PUSH1 0x80 DUP1 PUSH1 0x40 MSTORE CALLVALUE PUSH2 0x7A JUMPI CALLER ISZERO PUSH2 0x64 JUMPI PUSH1 0x0 DUP1 SLOAD CALLER PUSH1 0x1 PUSH1 0x1 PUSH1 0xA0 SHL SUB NOT DUP3 AND DUP2 OR DUP4 SSTORE PUSH1 0x40 MLOAD SWAP3 SWAP1 SWAP2 PUSH1 0x1 PUSH1 0x1 PUSH1 0xA0 SHL SUB AND SWAP1 PUSH32 0x8BE0079C531659141344CD1FD0A4F28419497F9722A3DAAFE3B4186F6B6457E0 SWAP1 DUP1 LOG3 PUSH2 0x7230 SWAP1 DUP2 PUSH2 0x80 DUP3 CODECOPY RETURN JUMPDEST PUSH4 0x1E4FBDF7 PUSH1 0xE0 SHL DUP2 MSTORE PUSH1 0x0 PUSH1 0x4 DUP3 ADD MSTORE PUSH1 0x24 SWAP1 REVERT JUMPDEST PUSH1 0x0 DUP1 REVERT INVALID PUSH2 0x1C0 DUP1 PUSH1 0x40 MSTORE PUSH1 0x4 CALLDATASIZE LT ISZERO PUSH3 0x15 JUMPI PUSH1 0x0 DUP1 REVERT JUMPDEST PUSH1 0x0 SWAP1 DUP2 PUSH2 0x140 MSTORE DUP2 CALLDATALOAD PUSH1 0xE0 SHR SWAP1 DUP2 PUSH4 0x22914A7 EQ PUSH3 0x1416 JUMPI POP DUP1 PUSH4 0x6661ABD EQ PUSH3 0x13F3 JUMPI DUP1 PUSH4 0x2325D8E4 EQ PUSH3 0x132B JUMPI DUP1 PUSH4 0x3941BF52 EQ PUSH3 0xE86 JUMPI DUP1 PUSH4 0x40368DB5 EQ PUSH3 0xD5A JUMPI DUP1 PUSH4 0x577DA058 EQ PUSH3 0xD21 JUMPI DUP1 PUSH4 0x57878621 EQ PUSH3 0xCF5 JUMPI DUP1 PUSH4 0x715018A6 EQ PUSH3 0xC84 JUMPI DUP1 PUSH4 0x79BF49B8 EQ PUSH3 0xC41 JUMPI DUP1 PUSH4 0x8DA5CB5B EQ PUSH3 0xC16 JUMPI DUP1 PUSH4 0x9AB4A445 EQ PUSH3 0xBEA JUMPI DUP1 PUSH4 0xC82FCEF0 EQ PUSH3 0xB87 JUMPI DUP1 PUSH4 0xCA18988A EQ PUSH3 0x1B4 JUMPI DUP1 PUSH4 0xDC2A95BC EQ PUSH3 0xA9B JUMPI DUP1 PUSH4 0xE2976512 EQ PUSH3 0x1EF JUMPI DUP1 PUSH4 0xE34FEC1D EQ PUSH3 0x1B4 JUMPI PUSH4 0xF2FDE38B EQ PUSH3 0xF4 JUMPI PUSH1 0x0 DUP1 REVERT JUMPDEST CALLVALUE PUSH3 0x1AD JUMPI PUSH1 0x20 CALLDATASIZE PUSH1 0x3 NOT ADD SLT PUSH3 0x1AD JUMPI PUSH3 0x111 PUSH3 0x1456 JUMP JUMPDEST SWAP1 PUSH3 0x11C PUSH3 0x15F3 JUMP JUMPDEST PUSH1 0x1 PUSH1 0x1 PUSH1 0xA0 SHL SUB DUP1 SWAP3 AND SWAP2 DUP3 ISZERO PUSH3 0x17A JUMPI PUSH32 0x8BE0079C531659141344CD1FD0A4F28419497F9722A3DAAFE3B4186F6B6457E0 SWAP1 DUP3 SLOAD DUP5 PUSH20 0xFFFFFFFFFFFFFFFFFFFFFFFFFFFFFFFFFFFFFFFF NOT DUP3 AND OR DUP5 SSTORE AND SWAP2 DUP1 LOG3 PUSH2 0x140 MLOAD DUP1 RETURN JUMPDEST PUSH1 0x24 PUSH1 0x40 MLOAD PUSH32 0x1E4FBDF700000000000000000000000000000000000000000000000000000000 DUP2 MSTORE PUSH2 0x140 MLOAD PUSH1 0x4 DUP3 ADD MSTORE REVERT JUMPDEST PUSH2 0x140 MLOAD DUP1 REVERT JUMPDEST CALLVALUE PUSH3 0x1AD JUMPI PUSH1 0x20 CALLDATASIZE PUSH1 0x3 NOT ADD SLT PUSH3 0x1AD JUMPI PUSH1 0x4 CALLDATALOAD PUSH2 0x140 MLOAD MSTORE PUSH1 0x2 PUSH1 0x20 MSTORE PUSH1 0x20 PUSH1 0x1 PUSH1 0x1 PUSH1 0xA0 SHL SUB PUSH1 0x40 PUSH2 0x140 MLOAD KECCAK256 SLOAD AND PUSH1 0x40 MLOAD SWAP1 DUP2 MSTORE RETURN JUMPDEST CALLVALUE PUSH3 0x1AD JUMPI PUSH1 0x3 NOT PUSH1 0x20 CALLDATASIZE DUP3 ADD SLT PUSH3 0x1AD JUMPI PUSH8 0xFFFFFFFFFFFFFFFF PUSH1 0x4 CALLDATALOAD GT PUSH3 0x1AD JUMPI PUSH2 0x240 DUP1 SWAP2 PUSH1 0x4 CALLDATALOAD CALLDATASIZE SUB ADD SLT PUSH3 0x1AD JUMPI PUSH1 0x40 MLOAD SWAP1 DUP2 ADD DUP2 DUP2 LT PUSH8 0xFFFFFFFFFFFFFFFF DUP3 GT OR PUSH3 0x9D1 JUMPI PUSH1 0x40 MSTORE PUSH3 0x253 PUSH1 0x4 CALLDATALOAD PUSH1 0x4 ADD PUSH3 0x1472 JUMP JUMPDEST DUP2 MSTORE PUSH1 0x4 CALLDATALOAD PUSH1 0x24 DUP2 ADD CALLDATALOAD PUSH1 0x20 DUP4 ADD MSTORE PUSH1 0x44 DUP2 ADD CALLDATALOAD PUSH1 0x40 DUP4 ADD MSTORE PUSH1 0x64 PUSH2 0x100 DUP2 SWAP1 MSTORE DUP2 ADD CALLDATALOAD PUSH1 0x60 DUP4 ADD MSTORE PUSH1 0x84 DUP2 ADD CALLDATALOAD PUSH1 0x80 DUP4 ADD MSTORE PUSH1 0xA4 DUP2 ADD CALLDATALOAD PUSH1 0xA0 DUP4 ADD MSTORE PUSH3 0x29E SWAP1 PUSH1 0xC4 ADD PUSH3 0x152D JUMP JUMPDEST PUSH1 0xC0 DUP3 ADD MSTORE PUSH3 0x2B3 PUSH1 0xE4 PUSH1 0x4 CALLDATALOAD ADD PUSH3 0x152D JUMP JUMPDEST PUSH1 0xE0 DUP3 ADD MSTORE PUSH1 0x4 CALLDATALOAD PUSH2 0x104 DUP2 ADD CALLDATALOAD PUSH2 0x100 DUP4 ADD MSTORE PUSH2 0x124 DUP2 ADD CALLDATALOAD PUSH2 0x120 DUP4 ADD MSTORE PUSH3 0x2E2 SWAP1 PUSH2 0x144 ADD PUSH3 0x1472 JUMP JUMPDEST PUSH2 0x140 DUP3 ADD MSTORE PUSH3 0x2F9 PUSH2 0x164 PUSH1 0x4 CALLDATALOAD ADD PUSH3 0x1472 JUMP JUMPDEST PUSH2 0x160 DUP3 ADD MSTORE PUSH3 0x310 PUSH2 0x184 PUSH1 0x4 CALLDATALOAD ADD PUSH3 0x1472 JUMP JUMPDEST PUSH2 0x180 DUP3 ADD MSTORE PUSH3 0x327 PUSH2 0x1A4 PUSH1 0x4 CALLDATALOAD ADD PUSH3 0x1472 JUMP JUMPDEST PUSH2 0x1A0 DUP3 ADD MSTORE PUSH2 0x1C4 PUSH1 0x4 CALLDATALOAD ADD CALLDATALOAD PUSH2 0x1C0 DUP3 ADD MSTORE PUSH1 0x3 PUSH2 0x1E4 PUSH1 0x4 CALLDATALOAD ADD CALLDATALOAD LT ISZERO PUSH3 0x1AD JUMPI PUSH2 0x1E4 PUSH1 0x4 CALLDATALOAD ADD CALLDATALOAD PUSH2 0x1E0 DUP3 ADD MSTORE PUSH8 0xFFFFFFFFFFFFFFFF PUSH2 0x204 PUSH1 0x4 CALLDATALOAD ADD CALLDATALOAD GT PUSH3 0x1AD JUMPI PUSH3 0x388 CALLDATASIZE PUSH1 0x4 DUP1 CALLDATALOAD PUSH2 0x204 DUP2 ADD CALLDATALOAD ADD ADD PUSH3 0x1583 JUMP JUMPDEST PUSH2 0x200 DUP3 ADD MSTORE PUSH8 0xFFFFFFFFFFFFFFFF PUSH2 0x224 PUSH1 0x4 CALLDATALOAD ADD CALLDATALOAD GT PUSH3 0x1AD JUMPI PUSH3 0x3BC CALLDATASIZE PUSH1 0x4 DUP1 CALLDATALOAD PUSH2 0x224 DUP2 ADD CALLDATALOAD ADD ADD PUSH3 0x1583 JUMP JUMPDEST PUSH2 0x220 DUP3 ADD MSTORE PUSH3 0x3CC PUSH3 0x15F3 JUMP JUMPDEST PUSH2 0x200 DUP2 ADD MLOAD MLOAD PUSH2 0x220 DUP3 ADD MLOAD MLOAD SUB PUSH3 0xA54 JUMPI PUSH2 0x200 DUP2 ADD MLOAD MLOAD ISZERO PUSH3 0xA0D JUMPI PUSH3 0x408 PUSH1 0x1 PUSH1 0x1 PUSH1 0xA0 SHL SUB PUSH2 0x160 DUP4 ADD MLOAD AND ISZERO ISZERO PUSH3 0x1638 JUMP JUMPDEST PUSH3 0x423 PUSH1 0x1 PUSH1 0x1 PUSH1 0xA0 SHL SUB PUSH2 0x1A0 DUP4 ADD MLOAD AND ISZERO ISZERO PUSH3 0x1684 JUMP JUMPDEST PUSH2 0x140 MLOAD SWAP1 PUSH1 0x40 MLOAD SWAP2 DUP3 PUSH2 0x31A1 DUP2 ADD LT PUSH8 0xFFFFFFFFFFFFFFFF PUSH2 0x31A1 DUP6 ADD GT OR PUSH3 0x9F6 JUMPI PUSH2 0x31A1 PUSH3 0x19BD DUP5 CODECOPY PUSH2 0x140 MLOAD SWAP3 DUP1 PUSH2 0x31A1 DUP2 ADD SUB SWAP1 DUP5 CREATE DUP1 PUSH1 0xC0 MSTORE ISZERO PUSH3 0x9EB JUMPI DUP2 SWAP1 PUSH1 0xE0 DUP3 ADD MLOAD PUSH3 0x8C1 JUMPI JUMPDEST DUP2 DUP1 SWAP2 DUP2 MLOAD PUSH1 0x1 PUSH1 0x1 PUSH1 0xA0 SHL SUB AND SWAP1 PUSH1 0x20 DUP4 ADD MLOAD PUSH2 0x160 MSTORE PUSH1 0x40 DUP4 ADD MLOAD PUSH1 0x60 DUP5 ADD MLOAD PUSH1 0x80 DUP6 ADD MLOAD PUSH1 0xA0 DUP7 ADD MLOAD PUSH1 0xC0 DUP8 ADD MLOAD ISZERO ISZERO PUSH2 0x100 DUP9 ADD MLOAD SWAP1 PUSH2 0x120 DUP10 ADD MLOAD SWAP3 PUSH2 0x140 DUP11 ADD MLOAD PUSH1 0x1 PUSH1 0x1 PUSH1 0xA0 SHL SUB AND SWAP5 PUSH2 0x160 DUP12 ADD MLOAD PUSH1 0x1 PUSH1 0x1 PUSH1 0xA0 SHL SUB AND SWAP7 PUSH1 0xE0 DUP13 ADD MLOAD ISZERO ISZERO SWAP9 PUSH2 0x180 DUP14 ADD MLOAD PUSH1 0x1 PUSH1 0x1 PUSH1 0xA0 SHL SUB AND SWAP13 PUSH2 0x1A0 ADD MLOAD PUSH1 0x1 PUSH1 0x1 PUSH1 0xA0 SHL SUB AND SWAP14 PUSH2 0x1C0 ADD MLOAD SWAP15 PUSH2 0x1E0 ADD MLOAD DUP1 PUSH2 0x120 MSTORE PUSH1 0x3 GT ISZERO PUSH3 0x8A7 JUMPI PUSH1 0x1 PUSH1 0x1 PUSH1 0xA0 SHL SUB SWAP12 PUSH3 0x533 PUSH1 0x40 MLOAD DUP1 PUSH2 0x1A0 MSTORE PUSH3 0x14BA JUMP JUMPDEST PUSH2 0x1A0 MLOAD MSTORE PUSH2 0x160 MLOAD PUSH1 0x20 PUSH2 0x1A0 MLOAD ADD MSTORE PUSH1 0x40 PUSH2 0x1A0 MLOAD ADD MSTORE PUSH1 0x60 PUSH2 0x1A0 MLOAD ADD MSTORE PUSH1 0x80 PUSH2 0x1A0 MLOAD ADD MSTORE PUSH1 0xA0 PUSH2 0x1A0 MLOAD ADD MSTORE PUSH1 0xC0 PUSH2 0x1A0 MLOAD ADD MSTORE PUSH1 0xE0 PUSH2 0x1A0 MLOAD ADD MSTORE PUSH2 0x100 PUSH2 0x1A0 MLOAD ADD MSTORE PUSH2 0x120 PUSH2 0x1A0 MLOAD ADD MSTORE PUSH2 0x140 PUSH2 0x1A0 MLOAD ADD MSTORE PUSH2 0x160 PUSH2 0x1A0 MLOAD ADD MSTORE AND PUSH2 0x180 PUSH2 0x1A0 MLOAD ADD MSTORE PUSH2 0x1A0 DUP1 MLOAD ADD MSTORE PUSH2 0x1C0 PUSH2 0x1A0 MLOAD ADD MSTORE PUSH2 0x1E0 PUSH2 0x1A0 MLOAD ADD MSTORE PUSH3 0x5D1 PUSH2 0x120 MLOAD PUSH2 0x200 PUSH2 0x1A0 MLOAD ADD PUSH3 0x178B JUMP JUMPDEST PUSH1 0x1 PUSH1 0x1 PUSH1 0xA0 SHL SUB PUSH1 0xC0 MLOAD AND DUP1 EXTCODESIZE ISZERO PUSH3 0x1AD JUMPI PUSH1 0x40 MLOAD PUSH4 0x479C845 PUSH1 0xE2 SHL DUP2 MSTORE PUSH2 0x140 MLOAD DUP2 DUP1 PUSH3 0x60A PUSH2 0x1A0 MLOAD PUSH1 0x4 DUP4 ADD PUSH3 0x17AE JUMP JUMPDEST SUB DUP2 PUSH2 0x140 MLOAD DUP7 GAS CALL DUP1 ISZERO PUSH3 0x7A0 JUMPI PUSH3 0x895 JUMPI JUMPDEST POP PUSH2 0x200 DUP3 ADD MLOAD PUSH2 0x220 DUP4 ADD MLOAD PUSH2 0x140 MLOAD JUMPDEST DUP3 MLOAD DUP2 LT ISZERO PUSH3 0x870 JUMPI PUSH1 0x1 PUSH1 0x1 PUSH1 0xA0 SHL SUB PUSH3 0x650 DUP3 DUP6 PUSH3 0x18AD JUMP JUMPDEST MLOAD AND ISZERO PUSH3 0x80E JUMPI PUSH1 0x1 PUSH1 0x1 PUSH1 0xA0 SHL SUB PUSH3 0x66C DUP3 DUP5 PUSH3 0x18AD JUMP JUMPDEST MLOAD AND ISZERO PUSH3 0x7C7 JUMPI JUMPDEST PUSH1 0x1 PUSH1 0x1 PUSH1 0xA0 SHL SUB PUSH3 0x689 DUP3 DUP6 PUSH3 0x18AD JUMP JUMPDEST MLOAD AND PUSH1 0x1 PUSH1 0x1 PUSH1 0xA0 SHL SUB PUSH3 0x69F DUP4 DUP6 PUSH3 0x18AD JUMP JUMPDEST MLOAD AND SWAP1 DUP6 EXTCODESIZE ISZERO PUSH3 0x1AD JUMPI PUSH1 0x40 MLOAD PUSH32 0x764467CC00000000000000000000000000000000000000000000000000000000 DUP2 MSTORE PUSH2 0x140 MLOAD PUSH1 0x1 PUSH1 0x1 PUSH1 0xA0 SHL SUB SWAP3 DUP4 AND PUSH1 0x4 DUP4 ADD MSTORE SWAP2 SWAP1 SWAP3 AND PUSH1 0x24 DUP4 ADD MSTORE DUP2 DUP1 PUSH1 0x44 DUP2 ADD SUB DUP2 PUSH2 0x140 MLOAD DUP10 GAS CALL DUP1 ISZERO PUSH3 0x7A0 JUMPI PUSH3 0x7AE JUMPI JUMPDEST POP PUSH1 0x1 PUSH1 0x1 PUSH1 0xA0 SHL SUB PUSH3 0x71E DUP3 DUP6 PUSH3 0x18AD JUMP JUMPDEST MLOAD AND DUP5 EXTCODESIZE ISZERO PUSH3 0x1AD JUMPI PUSH1 0x40 MLOAD SWAP1 PUSH32 0x1309B32400000000000000000000000000000000000000000000000000000000 DUP3 MSTORE PUSH1 0x4 DUP3 ADD MSTORE PUSH1 0x1 PUSH1 0x24 DUP3 ADD MSTORE PUSH2 0x140 MLOAD DUP2 PUSH1 0x44 DUP2 DUP4 DUP10 GAS CALL DUP1 ISZERO PUSH3 0x7A0 JUMPI PUSH3 0x786 JUMPI JUMPDEST POP PUSH3 0x780 SWAP1 PUSH3 0x1887 JUMP JUMPDEST PUSH3 0x632 JUMP JUMPDEST PUSH3 0x791 SWAP1 PUSH3 0x14D8 JUMP JUMPDEST PUSH2 0x140 MLOAD DUP1 ISZERO PUSH3 0x774 JUMPI JUMPDEST DUP1 REVERT JUMPDEST PUSH1 0x40 MLOAD RETURNDATASIZE PUSH2 0x140 MLOAD DUP3 RETURNDATACOPY RETURNDATASIZE SWAP1 REVERT JUMPDEST PUSH3 0x7B9 SWAP1 PUSH3 0x14D8 JUMP JUMPDEST PUSH2 0x140 MLOAD DUP1 ISZERO PUSH3 0x709 JUMPI DUP1 REVERT JUMPDEST PUSH1 0x40 MLOAD PUSH3 0x461BCD PUSH1 0xE5 SHL DUP2 MSTORE PUSH1 0x20 PUSH1 0x4 DUP3 ADD MSTORE PUSH1 0x1E PUSH1 0x24 DUP3 ADD MSTORE PUSH32 0x496E76616C6964206F7261636C6520666F7220455243323020746F6B656E0000 PUSH1 0x44 DUP3 ADD MSTORE PUSH2 0x100 MLOAD SWAP1 REVERT JUMPDEST PUSH1 0x1 PUSH1 0x1 PUSH1 0xA0 SHL SUB PUSH3 0x822 DUP3 DUP5 PUSH3 0x18AD JUMP JUMPDEST MLOAD AND PUSH3 0x675 JUMPI PUSH1 0x40 MLOAD PUSH3 0x461BCD PUSH1 0xE5 SHL DUP2 MSTORE PUSH1 0x20 PUSH1 0x4 DUP3 ADD MSTORE PUSH1 0x1D PUSH1 0x24 DUP3 ADD MSTORE PUSH32 0x496E76616C6964206F7261636C6520666F72206E617469766520455448000000 PUSH1 0x44 DUP3 ADD MSTORE PUSH2 0x100 MLOAD SWAP1 REVERT JUMPDEST PUSH1 0x20 DUP5 PUSH3 0x88D PUSH1 0x1 PUSH1 0x1 PUSH1 0xA0 SHL SUB PUSH2 0x140 DUP10 ADD MLOAD AND DUP3 PUSH3 0x18C2 JUMP JUMPDEST PUSH1 0x40 MLOAD SWAP1 DUP2 MSTORE RETURN JUMPDEST PUSH3 0x8A0 SWAP1 PUSH3 0x14D8 JUMP JUMPDEST DUP3 PUSH3 0x620 JUMP JUMPDEST PUSH4 0x4E487B71 PUSH1 0xE0 SHL PUSH2 0x140 MLOAD MSTORE PUSH1 0x21 PUSH1 0x4 MSTORE PUSH1 0x24 PUSH2 0x140 MLOAD REVERT JUMPDEST POP PUSH1 0x1 PUSH1 0x1 PUSH1 0xA0 SHL SUB SWAP1 MLOAD AND PUSH1 0x1 PUSH1 0x1 PUSH1 0xA0 SHL SUB PUSH2 0x1A0 DUP4 ADD MLOAD AND PUSH1 0xA0 DUP4 ADD MLOAD PUSH2 0x1C0 DUP5 ADD MLOAD SWAP2 PUSH1 0x40 MLOAD SWAP4 PUSH3 0x8F7 DUP6 PUSH3 0x1487 JUMP JUMPDEST PUSH1 0x40 MLOAD PUSH3 0x905 DUP2 PUSH3 0x14ED JUMP JUMPDEST PUSH1 0xD DUP2 MSTORE PUSH13 0x2BB930B83832B2102A37B5B2B7 PUSH1 0x99 SHL PUSH1 0x20 DUP3 ADD MSTORE DUP6 MSTORE PUSH1 0x40 MLOAD PUSH3 0x92F DUP2 PUSH3 0x14ED JUMP JUMPDEST PUSH1 0x3 DUP2 MSTORE PUSH3 0x15D495 PUSH1 0xEA SHL PUSH1 0x20 DUP3 ADD MSTORE PUSH1 0x20 DUP7 ADD MSTORE PUSH1 0x40 DUP6 ADD MSTORE PUSH1 0x60 DUP5 ADD MSTORE PUSH1 0x80 DUP4 ADD MSTORE PUSH1 0xA0 DUP3 ADD MSTORE PUSH1 0x1 PUSH1 0x1 PUSH1 0xA0 SHL SUB PUSH1 0xC0 MLOAD AND PUSH1 0xC0 DUP3 ADD MSTORE PUSH1 0x40 MLOAD SWAP1 DUP2 PUSH2 0x26C6 DUP2 ADD LT PUSH8 0xFFFFFFFFFFFFFFFF PUSH2 0x26C6 DUP5 ADD GT OR PUSH3 0x9D1 JUMPI PUSH3 0x9A3 DUP3 SWAP2 PUSH2 0x26C6 PUSH3 0x4B5E DUP5 CODECOPY PUSH2 0x26C6 DUP4 ADD PUSH3 0x1712 JUMP JUMPDEST SUB PUSH2 0x140 MLOAD SWAP2 DUP3 CREATE SWAP1 DUP2 ISZERO PUSH3 0x9C5 JUMPI POP DUP2 SWAP1 PUSH1 0x1 PUSH1 0x1 PUSH1 0xA0 SHL SUB AND PUSH3 0x477 JUMP JUMPDEST PUSH1 0x40 MLOAD SWAP1 RETURNDATASIZE SWAP1 DUP3 RETURNDATACOPY RETURNDATASIZE SWAP1 REVERT JUMPDEST PUSH4 0x4E487B71 PUSH1 0xE0 SHL PUSH2 0x140 MLOAD MSTORE PUSH1 0x41 PUSH1 0x4 MSTORE PUSH1 0x24 PUSH2 0x140 MLOAD REVERT JUMPDEST PUSH1 0x40 MLOAD RETURNDATASIZE DUP5 DUP3 RETURNDATACOPY RETURNDATASIZE SWAP1 REVERT JUMPDEST PUSH4 0x4E487B71 PUSH1 0xE0 SHL SWAP1 MSTORE PUSH1 0x41 PUSH1 0x4 MSTORE PUSH1 0x24 PUSH2 0x140 MLOAD REVERT JUMPDEST PUSH1 0x40 MLOAD PUSH3 0x461BCD PUSH1 0xE5 SHL DUP2 MSTORE PUSH1 0x20 PUSH1 0x4 DUP3 ADD MSTORE PUSH1 0x1A PUSH1 0x24 DUP3 ADD MSTORE PUSH32 0x4E6F207061796D656E7420746F6B656E732070726F7669646564000000000000 PUSH1 0x44 DUP3 ADD MSTORE PUSH2 0x100 MLOAD SWAP1 REVERT JUMPDEST PUSH1 0x40 MLOAD PUSH3 0x461BCD PUSH1 0xE5 SHL DUP2 MSTORE PUSH1 0x20 PUSH1 0x4 DUP3 ADD MSTORE PUSH1 0x15 PUSH1 0x24 DUP3 ADD MSTORE PUSH32 0x4172726179206C656E677468206D69736D617463680000000000000000000000 PUSH1 0x44 DUP3 ADD MSTORE PUSH2 0x100 MLOAD SWAP1 REVERT JUMPDEST CALLVALUE PUSH3 0x1AD JUMPI PUSH2 0x140 MLOAD DUP1 PUSH1 0x3 NOT CALLDATASIZE ADD SLT PUSH3 0x79D JUMPI PUSH1 0x1 DUP1 SLOAD SWAP1 PUSH3 0xAC1 DUP3 PUSH3 0x156A JUMP JUMPDEST SWAP1 PUSH3 0xAD1 PUSH1 0x40 MLOAD SWAP3 DUP4 PUSH3 0x150A JUMP JUMPDEST DUP3 DUP3 MSTORE PUSH3 0xADF DUP4 PUSH3 0x156A JUMP JUMPDEST PUSH1 0x20 DUP4 DUP2 ADD SWAP5 SWAP1 SWAP2 PUSH1 0x1F NOT ADD CALLDATASIZE DUP7 CALLDATACOPY PUSH2 0x140 MLOAD JUMPDEST DUP2 DUP2 LT PUSH3 0xB42 JUMPI POP POP PUSH1 0x40 MLOAD SWAP3 DUP2 DUP5 ADD SWAP1 DUP3 DUP6 MSTORE MLOAD DUP1 SWAP2 MSTORE PUSH1 0x40 DUP5 ADD SWAP5 SWAP2 PUSH2 0x140 MLOAD JUMPDEST DUP3 DUP2 LT PUSH3 0xB25 JUMPI DUP6 DUP8 SUB DUP7 RETURN JUMPDEST DUP4 MLOAD PUSH1 0x1 PUSH1 0x1 PUSH1 0xA0 SHL SUB AND DUP8 MSTORE SWAP6 DUP2 ADD SWAP6 SWAP3 DUP2 ADD SWAP3 DUP5 ADD PUSH3 0xB17 JUMP JUMPDEST DUP1 PUSH3 0xB7B SWAP2 PUSH2 0x140 SWAP8 SWAP6 SWAP8 SWAP7 SWAP5 SWAP7 MLOAD MSTORE PUSH1 0x2 DUP7 MSTORE PUSH1 0x1 PUSH1 0x1 PUSH1 0xA0 SHL SUB PUSH1 0x40 PUSH2 0x140 MLOAD KECCAK256 SLOAD AND PUSH3 0xB74 DUP3 DUP7 PUSH3 0x18AD JUMP JUMPDEST MSTORE PUSH3 0x1887 JUMP JUMPDEST SWAP5 SWAP3 SWAP5 SWAP4 SWAP2 SWAP4 PUSH3 0xAF3 JUMP JUMPDEST CALLVALUE PUSH3 0x1AD JUMPI PUSH1 0x40 CALLDATASIZE PUSH1 0x3 NOT ADD SLT PUSH3 0x1AD JUMPI PUSH3 0xBA4 PUSH3 0x1456 JUMP JUMPDEST PUSH1 0x1 PUSH1 0x1 PUSH1 0xA0 SHL SUB PUSH1 0x24 CALLDATALOAD SWAP2 AND PUSH2 0x140 MLOAD MSTORE PUSH1 0x4 PUSH1 0x20 MSTORE PUSH2 0x140 MLOAD PUSH1 0x40 DUP2 KECCAK256 SWAP1 DUP2 SLOAD DUP4 LT ISZERO PUSH3 0x79D JUMPI PUSH1 0x20 PUSH3 0xBDC DUP5 DUP5 PUSH3 0x153B JUMP JUMPDEST SWAP1 SLOAD PUSH1 0x40 MLOAD SWAP2 PUSH1 0x3 SHL SHR DUP2 MSTORE RETURN JUMPDEST CALLVALUE PUSH3 0x1AD JUMPI PUSH2 0x140 MLOAD DUP1 PUSH1 0x3 NOT CALLDATASIZE ADD SLT PUSH3 0x79D JUMPI PUSH1 0x20 PUSH1 0x1 PUSH1 0x1 PUSH1 0xA0 SHL SUB PUSH1 0x5 SLOAD AND PUSH1 0x40 MLOAD SWAP1 DUP2 MSTORE RETURN JUMPDEST CALLVALUE PUSH3 0x1AD JUMPI PUSH2 0x140 MLOAD DUP1 PUSH1 0x3 NOT CALLDATASIZE ADD SLT PUSH3 0x79D JUMPI PUSH1 0x1 PUSH1 0x1 PUSH1 0xA0 SHL SUB PUSH1 0x20 SWAP2 SLOAD AND PUSH1 0x40 MLOAD SWAP1 DUP2 MSTORE RETURN JUMPDEST CALLVALUE PUSH3 0x1AD JUMPI PUSH1 0x20 CALLDATASIZE PUSH1 0x3 NOT ADD SLT PUSH3 0x1AD JUMPI PUSH1 0x20 PUSH1 0x1 PUSH1 0x1 PUSH1 0xA0 SHL SUB DUP1 PUSH3 0xC69 PUSH3 0x1456 JUMP JUMPDEST AND PUSH2 0x140 MLOAD MSTORE PUSH1 0x3 DUP3 MSTORE PUSH1 0x40 PUSH2 0x140 MLOAD KECCAK256 SLOAD AND PUSH1 0x40 MLOAD SWAP1 DUP2 MSTORE RETURN JUMPDEST CALLVALUE PUSH3 0x1AD JUMPI PUSH2 0x140 MLOAD DUP1 PUSH1 0x3 NOT CALLDATASIZE ADD SLT PUSH3 0x79D JUMPI PUSH3 0xCA4 PUSH3 0x15F3 JUMP JUMPDEST PUSH2 0x140 MLOAD DUP1 PUSH1 0x1 PUSH1 0x1 PUSH1 0xA0 SHL SUB DUP2 SLOAD PUSH20 0xFFFFFFFFFFFFFFFFFFFFFFFFFFFFFFFFFFFFFFFF NOT DUP2 AND DUP4 SSTORE AND PUSH32 0x8BE0079C531659141344CD1FD0A4F28419497F9722A3DAAFE3B4186F6B6457E0 DUP3 DUP1 LOG3 DUP1 RETURN JUMPDEST CALLVALUE PUSH3 0x1AD JUMPI PUSH2 0x140 MLOAD DUP1 PUSH1 0x3 NOT CALLDATASIZE ADD SLT PUSH3 0x79D JUMPI PUSH1 0x20 PUSH1 0x1 PUSH1 0x1 PUSH1 0xA0 SHL SUB PUSH1 0x6 SLOAD AND PUSH1 0x40 MLOAD SWAP1 DUP2 MSTORE RETURN JUMPDEST CALLVALUE PUSH3 0x1AD JUMPI PUSH2 0x140 MLOAD DUP1 PUSH1 0x3 NOT CALLDATASIZE ADD SLT PUSH3 0x79D JUMPI PUSH1 0x5 SLOAD PUSH1 0x6 SLOAD PUSH1 0x40 DUP1 MLOAD PUSH1 0x1 PUSH1 0x1 PUSH1 0xA0 SHL SUB SWAP4 DUP5 AND DUP2 MSTORE SWAP3 SWAP1 SWAP2 AND PUSH1 0x20 DUP4 ADD MSTORE SWAP1 RETURN JUMPDEST CALLVALUE PUSH3 0x1AD JUMPI PUSH1 0x40 CALLDATASIZE PUSH1 0x3 NOT ADD SLT PUSH3 0x1AD JUMPI PUSH3 0xD77 PUSH3 0x1456 JUMP JUMPDEST PUSH1 0x24 CALLDATALOAD SWAP1 PUSH1 0x1 PUSH1 0x1 PUSH1 0xA0 SHL SUB SWAP1 DUP2 DUP4 AND DUP1 SWAP4 SUB PUSH3 0x1AD JUMPI PUSH3 0xD99 PUSH3 0x15F3 JUMP JUMPDEST AND SWAP1 DUP2 ISZERO PUSH3 0xE42 JUMPI DUP1 ISZERO PUSH3 0xDFE JUMPI DUP1 PUSH20 0xFFFFFFFFFFFFFFFFFFFFFFFFFFFFFFFFFFFFFFFF NOT DUP4 DUP2 PUSH1 0x5 SLOAD AND OR PUSH1 0x5 SSTORE PUSH1 0x6 SLOAD AND OR PUSH1 0x6 SSTORE PUSH2 0x140 MLOAD SWAP2 PUSH32 0x9708FEDB34D7F4B974E53AC2D03B32EB2C50270B84EC301A97AA7E7D9E25810E DUP4 DUP1 LOG3 DUP1 RETURN JUMPDEST PUSH1 0x64 PUSH1 0x40 MLOAD PUSH3 0x461BCD PUSH1 0xE5 SHL DUP2 MSTORE PUSH1 0x20 PUSH1 0x4 DUP3 ADD MSTORE PUSH1 0x16 PUSH1 0x24 DUP3 ADD MSTORE PUSH32 0x496E76616C6964206F7261636C65206164647265737300000000000000000000 PUSH1 0x44 DUP3 ADD MSTORE REVERT JUMPDEST PUSH1 0x64 PUSH1 0x40 MLOAD PUSH3 0x461BCD PUSH1 0xE5 SHL DUP2 MSTORE PUSH1 0x20 PUSH1 0x4 DUP3 ADD MSTORE PUSH1 0x14 PUSH1 0x24 DUP3 ADD MSTORE PUSH32 0x496E76616C696420555344542061646472657373000000000000000000000000 PUSH1 0x44 DUP3 ADD MSTORE REVERT JUMPDEST CALLVALUE PUSH3 0x1AD JUMPI PUSH2 0x200 CALLDATASIZE PUSH1 0x3 NOT ADD SLT PUSH3 0x1AD JUMPI PUSH1 0x40 MLOAD PUSH2 0x200 DUP2 ADD DUP2 DUP2 LT PUSH8 0xFFFFFFFFFFFFFFFF DUP3 GT OR PUSH3 0x9D1 JUMPI PUSH1 0x40 MSTORE PUSH3 0xEC3 PUSH3 0x1456 JUMP JUMPDEST DUP2 MSTORE PUSH1 0x24 CALLDATALOAD PUSH1 0x20 DUP3 ADD MSTORE PUSH1 0x44 CALLDATALOAD PUSH1 0x40 DUP3 ADD MSTORE PUSH1 0x64 CALLDATALOAD PUSH1 0x60 DUP3 ADD MSTORE PUSH1 0x84 CALLDATALOAD PUSH1 0x80 DUP3 ADD MSTORE PUSH1 0xA4 CALLDATALOAD PUSH1 0xA0 DUP3 ADD MSTORE PUSH1 0xC4 CALLDATALOAD DUP1 ISZERO ISZERO DUP2 SUB PUSH3 0x1AD JUMPI PUSH1 0xC0 DUP3 ADD MSTORE PUSH1 0xE4 CALLDATALOAD DUP1 ISZERO ISZERO DUP2 SUB PUSH3 0x1AD JUMPI PUSH1 0xE0 DUP3 ADD MSTORE PUSH2 0x104 CALLDATALOAD PUSH2 0x100 DUP3 ADD MSTORE PUSH2 0x124 CALLDATALOAD PUSH2 0x120 DUP3 ADD MSTORE PUSH1 0x1 PUSH1 0x1 PUSH1 0xA0 SHL SUB PUSH2 0x144 CALLDATALOAD AND PUSH2 0x144 CALLDATALOAD SUB PUSH3 0x1AD JUMPI PUSH2 0x144 CALLDATALOAD PUSH2 0x140 DUP3 ADD MSTORE PUSH1 0x1 PUSH1 0x1 PUSH1 0xA0 SHL SUB PUSH2 0x164 CALLDATALOAD AND PUSH2 0x164 CALLDATALOAD SUB PUSH3 0x1AD JUMPI PUSH2 0x164 CALLDATALOAD PUSH2 0x160 DUP3 ADD MSTORE PUSH1 0x1 PUSH1 0x1 PUSH1 0xA0 SHL SUB PUSH2 0x184 CALLDATALOAD AND PUSH2 0x184 CALLDATALOAD SUB PUSH3 0x1AD JUMPI PUSH2 0x184 CALLDATALOAD PUSH2 0x180 DUP3 ADD MSTORE PUSH1 0x1 PUSH1 0x1 PUSH1 0xA0 SHL SUB PUSH2 0x1A4 CALLDATALOAD AND PUSH2 0x1A4 CALLDATALOAD SUB PUSH3 0x1AD JUMPI PUSH2 0x1A4 CALLDATALOAD PUSH2 0x1A0 DUP3 ADD MSTORE PUSH2 0x1C4 CALLDATALOAD PUSH2 0x1C0 DUP3 ADD MSTORE PUSH1 0x3 PUSH2 0x1E4 CALLDATALOAD LT ISZERO PUSH3 0x1AD JUMPI PUSH2 0x1E4 CALLDATALOAD PUSH2 0x1E0 DUP3 ADD MSTORE PUSH3 0xFD4 PUSH3 0x15F3 JUMP JUMPDEST PUSH3 0xFEF PUSH1 0x1 PUSH1 0x1 PUSH1 0xA0 SHL SUB PUSH2 0x160 DUP4 ADD MLOAD AND ISZERO ISZERO PUSH3 0x1638 JUMP JUMPDEST PUSH3 0x100A PUSH1 0x1 PUSH1 0x1 PUSH1 0xA0 SHL SUB PUSH2 0x1A0 DUP4 ADD MLOAD AND ISZERO ISZERO PUSH3 0x1684 JUMP JUMPDEST PUSH2 0x140 MLOAD SWAP1 PUSH1 0x40 MLOAD SWAP2 DUP3 PUSH2 0x31A1 DUP2 ADD LT PUSH8 0xFFFFFFFFFFFFFFFF PUSH2 0x31A1 DUP6 ADD GT OR PUSH3 0x9F6 JUMPI PUSH2 0x31A1 PUSH3 0x19BD DUP5 CODECOPY PUSH2 0x140 MLOAD SWAP3 DUP1 PUSH2 0x31A1 DUP2 ADD SUB SWAP1 DUP5 CREATE DUP1 PUSH2 0x180 MSTORE ISZERO PUSH3 0x9EB JUMPI DUP2 SWAP1 PUSH1 0xE0 DUP3 ADD MLOAD PUSH3 0x1226 JUMPI JUMPDEST DUP2 DUP1 SWAP2 DUP2 MLOAD PUSH1 0x1 PUSH1 0x1 PUSH1 0xA0 SHL SUB AND SWAP1 PUSH1 0x20 DUP4 ADD MLOAD PUSH1 0x80 MSTORE PUSH1 0x40 DUP4 ADD MLOAD PUSH1 0x60 DUP5 ADD MLOAD PUSH1 0x80 DUP6 ADD MLOAD PUSH1 0xA0 DUP7 ADD MLOAD PUSH1 0xC0 DUP8 ADD MLOAD ISZERO ISZERO PUSH2 0x100 DUP9 ADD MLOAD SWAP1 PUSH2 0x120 DUP10 ADD MLOAD SWAP3 PUSH2 0x140 DUP11 ADD MLOAD PUSH1 0x1 PUSH1 0x1 PUSH1 0xA0 SHL SUB AND SWAP5 PUSH2 0x160 DUP12 ADD MLOAD PUSH1 0x1 PUSH1 0x1 PUSH1 0xA0 SHL SUB AND SWAP7 PUSH1 0xE0 DUP13 ADD MLOAD ISZERO ISZERO SWAP9 PUSH2 0x180 DUP14 ADD MLOAD PUSH1 0x1 PUSH1 0x1 PUSH1 0xA0 SHL SUB AND SWAP13 PUSH2 0x1A0 ADD MLOAD PUSH1 0x1 PUSH1 0x1 PUSH1 0xA0 SHL SUB AND SWAP14 PUSH2 0x1C0 ADD MLOAD SWAP15 PUSH2 0x1E0 ADD MLOAD DUP1 PUSH1 0xE0 MSTORE PUSH1 0x3 GT ISZERO PUSH3 0x8A7 JUMPI PUSH1 0x1 PUSH1 0x1 PUSH1 0xA0 SHL SUB SWAP12 PUSH3 0x1118 PUSH1 0x40 MLOAD DUP1 PUSH1 0xA0 MSTORE PUSH3 0x14BA JUMP JUMPDEST PUSH1 0xA0 MLOAD MSTORE PUSH1 0x80 MLOAD PUSH1 0x20 PUSH1 0xA0 MLOAD ADD MSTORE PUSH1 0x40 PUSH1 0xA0 MLOAD ADD MSTORE PUSH1 0x60 PUSH1 0xA0 MLOAD ADD MSTORE PUSH1 0x80 PUSH1 0xA0 MLOAD ADD MSTORE PUSH1 0xA0 DUP1 MLOAD ADD MSTORE PUSH1 0xC0 PUSH1 0xA0 MLOAD ADD MSTORE PUSH1 0xE0 PUSH1 0xA0 MLOAD ADD MSTORE PUSH2 0x100 PUSH1 0xA0 MLOAD ADD MSTORE PUSH2 0x120 PUSH1 0xA0 MLOAD ADD MSTORE PUSH2 0x140 PUSH1 0xA0 MLOAD ADD MSTORE PUSH2 0x160 PUSH1 0xA0 MLOAD ADD MSTORE AND PUSH2 0x180 PUSH1 0xA0 MLOAD ADD MSTORE PUSH2 0x1A0 PUSH1 0xA0 MLOAD ADD MSTORE PUSH2 0x1C0 PUSH1 0xA0 MLOAD ADD MSTORE PUSH2 0x1E0 PUSH1 0xA0 MLOAD ADD MSTORE PUSH3 0x11A4 PUSH1 0xE0 MLOAD PUSH2 0x200 PUSH1 0xA0 MLOAD ADD PUSH3 0x178B JUMP JUMPDEST PUSH1 0x1 PUSH1 0x1 PUSH1 0xA0 SHL SUB PUSH2 0x180 MLOAD AND DUP1 EXTCODESIZE ISZERO PUSH3 0x1AD JUMPI PUSH1 0x40 MLOAD SWAP2 PUSH4 0x479C845 PUSH1 0xE2 SHL DUP4 MSTORE PUSH2 0x140 MLOAD DUP4 DUP1 PUSH3 0x11DE PUSH1 0xA0 MLOAD PUSH1 0x4 DUP4 ADD PUSH3 0x17AE JUMP JUMPDEST SUB DUP2 PUSH2 0x140 MLOAD DUP7 GAS CALL SWAP3 DUP4 ISZERO PUSH3 0x7A0 JUMPI PUSH2 0x140 PUSH3 0x88D SWAP3 PUSH1 0x1 PUSH1 0x1 PUSH1 0xA0 SHL SUB SWAP3 PUSH1 0x20 SWAP7 PUSH3 0x1214 JUMPI JUMPDEST POP ADD MLOAD AND DUP3 PUSH3 0x18C2 JUMP JUMPDEST PUSH3 0x121F SWAP1 PUSH3 0x14D8 JUMP JUMPDEST DUP7 PUSH3 0x1209 JUMP JUMPDEST POP PUSH1 0x1 PUSH1 0x1 PUSH1 0xA0 SHL SUB SWAP1 MLOAD AND PUSH1 0x1 PUSH1 0x1 PUSH1 0xA0 SHL SUB PUSH2 0x1A0 DUP4 ADD MLOAD AND PUSH1 0xA0 DUP4 ADD MLOAD PUSH2 0x1C0 DUP5 ADD MLOAD SWAP2 PUSH1 0x40 MLOAD SWAP4 PUSH3 0x125C DUP6 PUSH3 0x1487 JUMP JUMPDEST PUSH1 0x40 MLOAD PUSH3 0x126A DUP2 PUSH3 0x14ED JUMP JUMPDEST PUSH1 0xD DUP2 MSTORE PUSH13 0x2BB930B83832B2102A37B5B2B7 PUSH1 0x99 SHL PUSH1 0x20 DUP3 ADD MSTORE DUP6 MSTORE PUSH1 0x40 MLOAD PUSH3 0x1294 DUP2 PUSH3 0x14ED JUMP JUMPDEST PUSH1 0x3 DUP2 MSTORE PUSH3 0x15D495 PUSH1 0xEA SHL PUSH1 0x20 DUP3 ADD MSTORE PUSH1 0x20 DUP7 ADD MSTORE PUSH1 0x40 DUP6 ADD MSTORE PUSH1 0x60 DUP5 ADD MSTORE PUSH1 0x80 DUP4 ADD MSTORE PUSH1 0xA0 DUP3 ADD MSTORE PUSH1 0x1 PUSH1 0x1 PUSH1 0xA0 SHL SUB PUSH2 0x180 MLOAD AND PUSH1 0xC0 DUP3 ADD MSTORE PUSH1 0x40 MLOAD SWAP1 DUP2 PUSH2 0x26C6 DUP2 ADD LT PUSH8 0xFFFFFFFFFFFFFFFF PUSH2 0x26C6 DUP5 ADD GT OR PUSH3 0x9D1 JUMPI PUSH3 0x1309 DUP3 SWAP2 PUSH2 0x26C6 PUSH3 0x4B5E DUP5 CODECOPY PUSH2 0x26C6 DUP4 ADD PUSH3 0x1712 JUMP JUMPDEST SUB PUSH2 0x140 MLOAD SWAP2 DUP3 CREATE SWAP1 DUP2 ISZERO PUSH3 0x9C5 JUMPI POP DUP2 SWAP1 PUSH1 0x1 PUSH1 0x1 PUSH1 0xA0 SHL SUB AND PUSH3 0x105F JUMP JUMPDEST CALLVALUE PUSH3 0x1AD JUMPI PUSH1 0x20 DUP1 PUSH1 0x3 NOT CALLDATASIZE ADD SLT PUSH3 0x1AD JUMPI PUSH1 0x1 PUSH1 0x1 PUSH1 0xA0 SHL SUB PUSH3 0x1351 PUSH3 0x1456 JUMP JUMPDEST AND PUSH2 0x140 MLOAD MSTORE PUSH1 0x4 DUP2 MSTORE PUSH1 0x40 PUSH2 0x140 MLOAD KECCAK256 PUSH1 0x40 MLOAD SWAP1 DUP2 DUP4 DUP3 SLOAD SWAP2 DUP3 DUP2 MSTORE ADD SWAP1 DUP2 SWAP3 PUSH2 0x140 MLOAD MSTORE PUSH2 0x140 MLOAD SWAP1 DUP6 DUP3 KECCAK256 SWAP2 JUMPDEST DUP7 DUP3 DUP3 LT PUSH3 0x13DE JUMPI DUP7 DUP7 PUSH3 0x139A DUP3 DUP9 SUB DUP4 PUSH3 0x150A JUMP JUMPDEST PUSH1 0x40 MLOAD SWAP3 DUP4 SWAP3 DUP2 DUP5 ADD SWAP1 DUP3 DUP6 MSTORE MLOAD DUP1 SWAP2 MSTORE PUSH1 0x40 DUP5 ADD SWAP3 SWAP2 PUSH2 0x140 MLOAD JUMPDEST DUP3 DUP2 LT PUSH3 0x13C6 JUMPI POP POP POP POP SUB SWAP1 RETURN JUMPDEST DUP4 MLOAD DUP6 MSTORE DUP7 SWAP6 POP SWAP4 DUP2 ADD SWAP4 SWAP3 DUP2 ADD SWAP3 PUSH1 0x1 ADD PUSH3 0x13B6 JUMP JUMPDEST DUP4 SLOAD DUP6 MSTORE SWAP1 SWAP4 ADD SWAP3 PUSH1 0x1 SWAP3 DUP4 ADD SWAP3 ADD PUSH3 0x1381 JUMP JUMPDEST CALLVALUE PUSH3 0x1AD JUMPI PUSH2 0x140 MLOAD DUP1 PUSH1 0x3 NOT CALLDATASIZE ADD SLT PUSH3 0x79D JUMPI PUSH1 0x20 PUSH1 0x1 SLOAD PUSH1 0x40 MLOAD SWAP1 DUP2 MSTORE RETURN JUMPDEST SWAP1 POP CALLVALUE PUSH3 0x1452 JUMPI PUSH1 0x20 CALLDATASIZE PUSH1 0x3 NOT ADD SLT PUSH3 0x1452 JUMPI PUSH1 0x20 SWAP2 PUSH1 0x40 PUSH1 0x1 PUSH1 0x1 PUSH1 0xA0 SHL SUB SWAP2 DUP3 PUSH3 0x1444 PUSH3 0x1456 JUMP JUMPDEST AND DUP2 MSTORE PUSH1 0x3 DUP6 MSTORE KECCAK256 SLOAD AND DUP2 MSTORE RETURN JUMPDEST POP DUP1 REVERT JUMPDEST PUSH1 0x4 CALLDATALOAD SWAP1 PUSH1 0x1 PUSH1 0x1 PUSH1 0xA0 SHL SUB DUP3 AND DUP3 SUB PUSH3 0x146D JUMPI JUMP JUMPDEST PUSH1 0x0 DUP1 REVERT JUMPDEST CALLDATALOAD SWAP1 PUSH1 0x1 PUSH1 0x1 PUSH1 0xA0 SHL SUB DUP3 AND DUP3 SUB PUSH3 0x146D JUMPI JUMP JUMPDEST PUSH1 0xE0 DUP2 ADD SWAP1 DUP2 LT PUSH8 0xFFFFFFFFFFFFFFFF DUP3 GT OR PUSH3 0x14A4 JUMPI PUSH1 0x40 MSTORE JUMP JUMPDEST PUSH4 0x4E487B71 PUSH1 0xE0 SHL PUSH1 0x0 MSTORE PUSH1 0x41 PUSH1 0x4 MSTORE PUSH1 0x24 PUSH1 0x0 REVERT JUMPDEST PUSH2 0x220 DUP2 ADD SWAP1 DUP2 LT PUSH8 0xFFFFFFFFFFFFFFFF DUP3 GT OR PUSH3 0x14A4 JUMPI PUSH1 0x40 MSTORE JUMP JUMPDEST PUSH8 0xFFFFFFFFFFFFFFFF DUP2 GT PUSH3 0x14A4 JUMPI PUSH1 0x40 MSTORE JUMP JUMPDEST PUSH1 0x40 DUP2 ADD SWAP1 DUP2 LT PUSH8 0xFFFFFFFFFFFFFFFF DUP3 GT OR PUSH3 0x14A4 JUMPI PUSH1 0x40 MSTORE JUMP JUMPDEST SWAP1 PUSH1 0x1F DUP1 NOT SWAP2 ADD AND DUP2 ADD SWAP1 DUP2 LT PUSH8 0xFFFFFFFFFFFFFFFF DUP3 GT OR PUSH3 0x14A4 JUMPI PUSH1 0x40 MSTORE JUMP JUMPDEST CALLDATALOAD SWAP1 DUP2 ISZERO ISZERO DUP3 SUB PUSH3 0x146D JUMPI JUMP JUMPDEST DUP1 SLOAD DUP3 LT ISZERO PUSH3 0x1554 JUMPI PUSH1 0x0 MSTORE PUSH1 0x20 PUSH1 0x0 KECCAK256 ADD SWAP1 PUSH1 0x0 SWAP1 JUMP JUMPDEST PUSH4 0x4E487B71 PUSH1 0xE0 SHL PUSH1 0x0 MSTORE PUSH1 0x32 PUSH1 0x4 MSTORE PUSH1 0x24 PUSH1 0x0 REVERT JUMPDEST PUSH8 0xFFFFFFFFFFFFFFFF DUP2 GT PUSH3 0x14A4 JUMPI PUSH1 0x5 SHL PUSH1 0x20 ADD SWAP1 JUMP JUMPDEST DUP2 PUSH1 0x1F DUP3 ADD SLT ISZERO PUSH3 0x146D JUMPI DUP1 CALLDATALOAD SWAP2 PUSH3 0x159D DUP4 PUSH3 0x156A JUMP JUMPDEST SWAP3 PUSH3 0x15AD PUSH1 0x40 MLOAD SWAP5 DUP6 PUSH3 0x150A JUMP JUMPDEST DUP1 DUP5 MSTORE PUSH1 0x20 SWAP3 DUP4 DUP1 DUP7 ADD SWAP3 PUSH1 0x5 SHL DUP3 ADD ADD SWAP3 DUP4 GT PUSH3 0x146D JUMPI DUP4 ADD SWAP1 JUMPDEST DUP3 DUP3 LT PUSH3 0x15D9 JUMPI POP POP POP POP SWAP1 JUMP JUMPDEST DUP4 DUP1 SWAP2 PUSH3 0x15E7 DUP5 PUSH3 0x1472 JUMP JUMPDEST DUP2 MSTORE ADD SWAP2 ADD SWAP1 PUSH3 0x15CA JUMP JUMPDEST PUSH1 0x1 PUSH1 0x1 PUSH1 0xA0 SHL SUB PUSH1 0x0 SLOAD AND CALLER SUB PUSH3 0x1608 JUMPI JUMP JUMPDEST PUSH1 0x24 PUSH1 0x40 MLOAD PUSH32 0x118CDAA700000000000000000000000000000000000000000000000000000000 DUP2 MSTORE CALLER PUSH1 0x4 DUP3 ADD MSTORE REVERT JUMPDEST ISZERO PUSH3 0x1640 JUMPI JUMP JUMPDEST PUSH1 0x64 PUSH1 0x40 MLOAD PUSH3 0x461BCD PUSH1 0xE5 SHL DUP2 MSTORE PUSH1 0x20 PUSH1 0x4 DUP3 ADD MSTORE PUSH1 0x16 PUSH1 0x24 DUP3 ADD MSTORE PUSH32 0x496E76616C696420657363726F77206164647265737300000000000000000000 PUSH1 0x44 DUP3 ADD MSTORE REVERT JUMPDEST ISZERO PUSH3 0x168C JUMPI JUMP JUMPDEST PUSH1 0x64 PUSH1 0x40 MLOAD PUSH3 0x461BCD PUSH1 0xE5 SHL DUP2 MSTORE PUSH1 0x20 PUSH1 0x4 DUP3 ADD MSTORE PUSH1 0x1C PUSH1 0x24 DUP3 ADD MSTORE PUSH32 0x496E76616C6964207061796F757420746F6B656E206164647265737300000000 PUSH1 0x44 DUP3 ADD MSTORE REVERT JUMPDEST SWAP2 SWAP1 DUP3 MLOAD SWAP3 DUP4 DUP3 MSTORE PUSH1 0x0 JUMPDEST DUP5 DUP2 LT PUSH3 0x16FD JUMPI POP POP DUP3 PUSH1 0x0 PUSH1 0x20 DUP1 SWAP5 SWAP6 DUP5 ADD ADD MSTORE PUSH1 0x1F DUP1 NOT SWAP2 ADD AND ADD ADD SWAP1 JUMP JUMPDEST PUSH1 0x20 DUP2 DUP4 ADD DUP2 ADD MLOAD DUP5 DUP4 ADD DUP3 ADD MSTORE ADD PUSH3 0x16DB JUMP JUMPDEST PUSH1 0x20 DUP2 MSTORE PUSH1 0xE0 PUSH3 0x174B PUSH3 0x1734 DUP5 MLOAD DUP4 PUSH1 0x20 DUP7 ADD MSTORE PUSH2 0x100 DUP6 ADD SWAP1 PUSH3 0x16D0 JUMP JUMPDEST PUSH1 0x20 DUP6 ADD MLOAD DUP5 DUP3 SUB PUSH1 0x1F NOT ADD PUSH1 0x40 DUP7 ADD MSTORE PUSH3 0x16D0 JUMP JUMPDEST SWAP3 PUSH1 0xC0 PUSH1 0x1 PUSH1 0x1 PUSH1 0xA0 SHL SUB SWAP2 DUP3 PUSH1 0x40 DUP3 ADD MLOAD AND PUSH1 0x60 DUP7 ADD MSTORE DUP3 PUSH1 0x60 DUP3 ADD MLOAD AND PUSH1 0x80 DUP7 ADD MSTORE PUSH1 0x80 DUP2 ADD MLOAD PUSH1 0xA0 DUP7 ADD MSTORE PUSH1 0xA0 DUP2 ADD MLOAD DUP3 DUP7 ADD MSTORE ADD MLOAD AND SWAP2 ADD MSTORE SWAP1 JUMP JUMPDEST PUSH1 0x3 DUP3 LT ISZERO PUSH3 0x1798 JUMPI MSTORE JUMP JUMPDEST PUSH4 0x4E487B71 PUSH1 0xE0 SHL PUSH1 0x0 MSTORE PUSH1 0x21 PUSH1 0x4 MSTORE PUSH1 0x24 PUSH1 0x0 REVERT JUMPDEST SWAP2 SWAP1 SWAP2 PUSH2 0x220 DUP2 ADD SWAP3 PUSH1 0x1 PUSH1 0x1 PUSH1 0xA0 SHL SUB DUP1 DUP3 MLOAD AND DUP4 MSTORE PUSH1 0x20 DUP3 ADD MLOAD PUSH1 0x20 DUP5 ADD MSTORE PUSH1 0x40 DUP3 ADD MLOAD PUSH1 0x40 DUP5 ADD MSTORE PUSH1 0x60 DUP3 ADD MLOAD PUSH1 0x60 DUP5 ADD MSTORE PUSH1 0x80 DUP3 ADD MLOAD PUSH1 0x80 DUP5 ADD MSTORE PUSH1 0xA0 DUP3 ADD MLOAD PUSH1 0xA0 DUP5 ADD MSTORE PUSH1 0xC0 DUP3 ADD MLOAD ISZERO ISZERO PUSH1 0xC0 DUP5 ADD MSTORE PUSH1 0xE0 DUP3 ADD MLOAD PUSH1 0xE0 DUP5 ADD MSTORE PUSH2 0x100 DUP1 DUP4 ADD MLOAD SWAP1 DUP5 ADD MSTORE PUSH2 0x120 DUP2 DUP2 DUP5 ADD MLOAD AND SWAP1 DUP5 ADD MSTORE PUSH2 0x140 DUP2 DUP2 DUP5 ADD MLOAD AND SWAP1 DUP5 ADD MSTORE PUSH2 0x160 DUP1 DUP4 ADD MLOAD ISZERO ISZERO SWAP1 DUP5 ADD MSTORE PUSH2 0x180 DUP2 DUP2 DUP5 ADD MLOAD AND SWAP1 DUP5 ADD MSTORE PUSH2 0x1A0 DUP2 DUP2 DUP5 ADD MLOAD AND SWAP1 DUP5 ADD MSTORE PUSH2 0x1C0 SWAP1 DUP2 DUP4 ADD MLOAD AND SWAP1 DUP4 ADD MSTORE PUSH2 0x1E0 DUP1 DUP3 ADD MLOAD SWAP1 DUP4 ADD MSTORE PUSH2 0x200 DUP1 SWAP2 ADD MLOAD SWAP2 PUSH1 0x3 DUP4 LT ISZERO PUSH3 0x1798 JUMPI ADD MSTORE JUMP JUMPDEST PUSH1 0x0 NOT DUP2 EQ PUSH3 0x1897 JUMPI PUSH1 0x1 ADD SWAP1 JUMP JUMPDEST PUSH4 0x4E487B71 PUSH1 0xE0 SHL PUSH1 0x0 MSTORE PUSH1 0x11 PUSH1 0x4 MSTORE PUSH1 0x24 PUSH1 0x0 REVERT JUMPDEST DUP1 MLOAD DUP3 LT ISZERO PUSH3 0x1554 JUMPI PUSH1 0x20 SWAP2 PUSH1 0x5 SHL ADD ADD SWAP1 JUMP JUMPDEST SWAP2 SWAP1 PUSH1 0x1 SLOAD SWAP3 PUSH1 0x0 SWAP4 DUP5 MSTORE PUSH1 0x2 PUSH1 0x20 MSTORE PUSH1 0x40 DUP5 KECCAK256 SWAP2 PUSH1 0x1 PUSH1 0x1 PUSH1 0xA0 SHL SUB DUP1 SWAP3 AND SWAP3 PUSH20 0xFFFFFFFFFFFFFFFFFFFFFFFFFFFFFFFFFFFFFFFF NOT SWAP1 DUP5 DUP3 DUP3 SLOAD AND OR SWAP1 SSTORE DUP4 DUP7 MSTORE PUSH1 0x3 PUSH1 0x20 MSTORE PUSH1 0x40 DUP7 KECCAK256 SWAP1 CALLER SWAP1 DUP3 SLOAD AND OR SWAP1 SSTORE AND SWAP1 DUP2 DUP5 MSTORE PUSH1 0x4 PUSH1 0x20 MSTORE PUSH1 0x40 DUP5 KECCAK256 PUSH1 0x1 SLOAD SWAP1 DUP1 SLOAD SWAP6 PUSH9 0x10000000000000000 DUP8 LT ISZERO PUSH3 0x19A8 JUMPI POP DUP6 PUSH3 0x1956 SWAP2 PUSH1 0x1 PUSH3 0x19A3 SWAP8 SWAP9 ADD DUP2 SSTORE PUSH3 0x153B JUMP JUMPDEST DUP2 SWAP3 SWAP2 SLOAD SWAP1 PUSH1 0x3 SHL SWAP2 DUP3 SHL SWAP2 PUSH1 0x0 NOT SWAP1 SHL NOT AND OR SWAP1 SSTORE PUSH1 0x1 SLOAD SWAP2 PUSH1 0x40 MLOAD SWAP1 DUP2 MSTORE DUP3 PUSH32 0x4DD34C1E85386B354EFED754DF3C56823235E0653E32231C2448E8D3278145D0 PUSH1 0x20 CALLER SWAP4 LOG4 PUSH3 0x1887 JUMP JUMPDEST PUSH1 0x1 SSTORE JUMP JUMPDEST DUP1 PUSH4 0x4E487B71 PUSH1 0xE0 SHL PUSH1 0x24 SWAP3 MSTORE PUSH1 0x41 PUSH1 0x4 MSTORE REVERT INVALID PUSH1 0x80 DUP1 PUSH1 0x40 MSTORE CALLVALUE PUSH2 0x1B JUMPI PUSH1 0x1 PUSH1 0x2 SSTORE PUSH2 0x3180 SWAP1 DUP2 PUSH2 0x21 DUP3 CODECOPY RETURN JUMPDEST PUSH1 0x0 DUP1 REVERT INVALID PUSH1 0x80 DUP1 PUSH1 0x40 MSTORE PUSH1 0x4 CALLDATASIZE LT ISZERO PUSH2 0x9E JUMPI JUMPDEST POP CALLDATASIZE ISZERO PUSH2 0x5A JUMPI PUSH1 0x64 PUSH1 0x40 MLOAD PUSH3 0x461BCD PUSH1 0xE5 SHL DUP2 MSTORE PUSH1 0x20 PUSH1 0x4 DUP3 ADD MSTORE PUSH1 0x15 PUSH1 0x24 DUP3 ADD MSTORE PUSH32 0x46616C6C6261636B206E6F742061636365707465640000000000000000000000 PUSH1 0x44 DUP3 ADD MSTORE REVERT JUMPDEST PUSH1 0x64 PUSH1 0x40 MLOAD PUSH3 0x461BCD PUSH1 0xE5 SHL DUP2 MSTORE PUSH1 0x20 PUSH1 0x4 DUP3 ADD MSTORE PUSH1 0x19 PUSH1 0x24 DUP3 ADD MSTORE PUSH32 0x446972656374204C554D4941206E6F7420616363657074656400000000000000 PUSH1 0x44 DUP3 ADD MSTORE REVERT JUMPDEST PUSH1 0x0 SWAP1 DUP2 CALLDATALOAD PUSH1 0xE0 SHR SWAP1 DUP2 PUSH3 0x2E1316 EQ PUSH2 0x2AC0 JUMPI POP DUP1 PUSH4 0x1FFC9A7 EQ PUSH2 0x2A1E JUMPI DUP1 PUSH4 0xB97BC86 EQ PUSH2 0x2A00 JUMPI DUP1 PUSH4 0xD342CAB EQ PUSH2 0x29DD JUMPI DUP1 PUSH4 0xD5DEFA4 EQ PUSH2 0x29B6 JUMPI DUP1 PUSH4 0x11E72114 EQ PUSH2 0x2315 JUMPI DUP1 PUSH4 0x1309B324 EQ PUSH2 0x2295 JUMPI DUP1 PUSH4 0x1E1A268B EQ PUSH2 0x2272 JUMPI DUP1 PUSH4 0x248A9CA3 EQ PUSH2 0x2246 JUMPI DUP1 PUSH4 0x2B4353F2 EQ PUSH2 0x2228 JUMPI DUP1 PUSH4 0x2F2FF15D EQ PUSH2 0x21EB JUMPI DUP1 PUSH4 0x36568ABE EQ PUSH2 0x218B JUMPI DUP1 PUSH4 0x3784F000 EQ PUSH2 0x205A JUMPI DUP1 PUSH4 0x3E646208 EQ PUSH2 0x2030 JUMPI DUP1 PUSH4 0x3F4BA83A EQ PUSH2 0x1FA1 JUMPI DUP1 PUSH4 0x4B31BB10 EQ PUSH2 0x1F7A JUMPI DUP1 PUSH4 0x4FFF5402 EQ PUSH2 0x1F54 JUMPI DUP1 PUSH4 0x5C975ABB EQ PUSH2 0x1F31 JUMPI DUP1 PUSH4 0x5CC04838 EQ PUSH2 0x1F0A JUMPI DUP1 PUSH4 0x61D027B3 EQ PUSH2 0x1EE0 JUMPI DUP1 PUSH4 0x653AC422 EQ PUSH2 0x1295 JUMPI DUP1 PUSH4 0x6A61E5FC EQ PUSH2 0x123C JUMPI DUP1 PUSH4 0x764467CC EQ PUSH2 0x1170 JUMPI DUP1 PUSH4 0x77D392F0 EQ PUSH2 0xEF7 JUMPI DUP1 PUSH4 0x7FF9B596 EQ PUSH2 0xED9 JUMPI DUP1 PUSH4 0x8456CB59 EQ PUSH2 0xE73 JUMPI DUP1 PUSH4 0x88E32FC2 EQ PUSH2 0xDA7 JUMPI DUP1 PUSH4 0x8A185113 EQ PUSH2 0xD6C JUMPI DUP1 PUSH4 0x8AC2C680 EQ PUSH2 0xD4E JUMPI DUP1 PUSH4 0x8CD05933 EQ PUSH2 0xD26 JUMPI DUP1 PUSH4 0x90838E09 EQ PUSH2 0xCEE JUMPI DUP1 PUSH4 0x91D14854 EQ PUSH2 0xCA2 JUMPI DUP1 PUSH4 0xA217FDDF EQ PUSH2 0xC86 JUMPI DUP1 PUSH4 0xA6527F39 EQ PUSH2 0xC48 JUMPI DUP1 PUSH4 0xB13EF138 EQ PUSH2 0xC0A JUMPI DUP1 PUSH4 0xB37FD190 EQ PUSH2 0x878 JUMPI DUP1 PUSH4 0xB9662797 EQ PUSH2 0x85A JUMPI DUP1 PUSH4 0xBBCC0A06 EQ PUSH2 0x83C JUMPI DUP1 PUSH4 0xBD492432 EQ PUSH2 0x801 JUMPI DUP1 PUSH4 0xC031A66F EQ PUSH2 0x7C9 JUMPI DUP1 PUSH4 0xC24A0F8B EQ PUSH2 0x7AB JUMPI DUP1 PUSH4 0xC5C4744C EQ PUSH2 0x78D JUMPI DUP1 PUSH4 0xD547741F EQ PUSH2 0x74C JUMPI DUP1 PUSH4 0xD59624B4 EQ PUSH2 0x72E JUMPI DUP1 PUSH4 0xDF695ABB EQ PUSH2 0x6F1 JUMPI DUP1 PUSH4 0xDF8DE3E7 EQ PUSH2 0x314 JUMPI DUP1 PUSH4 0xE985E367 EQ PUSH2 0x2ED JUMPI PUSH4 0xFB903B1D SUB PUSH2 0xF JUMPI CALLVALUE PUSH2 0x2EA JUMPI PUSH1 0x40 CALLDATASIZE PUSH1 0x3 NOT ADD SLT PUSH2 0x2EA JUMPI PUSH1 0x24 CALLDATALOAD PUSH1 0x4 CALLDATALOAD PUSH2 0x2D5 PUSH2 0x2BE8 JUMP JUMPDEST PUSH2 0x2E1 DUP3 DUP3 GT ISZERO PUSH2 0x2F47 JUMP JUMPDEST PUSH1 0x4 SSTORE PUSH1 0x5 SSTORE DUP1 RETURN JUMPDEST DUP1 REVERT JUMPDEST POP CALLVALUE PUSH2 0x2EA JUMPI DUP1 PUSH1 0x3 NOT CALLDATASIZE ADD SLT PUSH2 0x2EA JUMPI PUSH1 0x20 PUSH1 0x1 PUSH1 0x1 PUSH1 0xA0 SHL SUB PUSH1 0x3 SLOAD AND PUSH1 0x40 MLOAD SWAP1 DUP2 MSTORE RETURN JUMPDEST POP CALLVALUE PUSH2 0x2EA JUMPI PUSH1 0x20 SWAP1 DUP2 PUSH1 0x3 NOT CALLDATASIZE ADD SLT PUSH2 0x2EA JUMPI PUSH2 0x330 PUSH2 0x2B28 JUMP JUMPDEST PUSH2 0x338 PUSH2 0x3097 JUMP JUMPDEST PUSH2 0x340 PUSH2 0x2F92 JUMP JUMPDEST PUSH1 0x1 PUSH1 0x1 PUSH1 0xA0 SHL SUB SWAP2 DUP3 PUSH1 0xE SLOAD AND CALLER SUB PUSH2 0x686 JUMPI PUSH1 0x8 SLOAD TIMESTAMP LT PUSH2 0x642 JUMPI DUP3 DUP3 AND SWAP2 DUP3 DUP3 MSTORE PUSH1 0x15 DUP6 MSTORE PUSH1 0x40 DUP3 KECCAK256 SLOAD SWAP4 DUP5 ISZERO PUSH2 0x5FE JUMPI PUSH1 0x24 DUP7 DUP3 PUSH1 0x3 SLOAD AND PUSH1 0x40 MLOAD SWAP3 DUP4 DUP1 SWAP3 PUSH4 0x70A08231 PUSH1 0xE0 SHL DUP3 MSTORE ADDRESS PUSH1 0x4 DUP4 ADD MSTORE GAS STATICCALL DUP1 ISZERO PUSH2 0x507 JUMPI DUP7 SWAP1 DUP6 SWAP1 PUSH2 0x5C8 JUMPI JUMPDEST PUSH2 0x3B0 SWAP3 POP LT ISZERO PUSH2 0x300B JUMP JUMPDEST DUP4 DUP4 MSTORE PUSH1 0x15 DUP7 MSTORE DUP3 PUSH1 0x40 DUP2 KECCAK256 SSTORE PUSH2 0x3C9 DUP6 PUSH1 0xC SLOAD PUSH2 0x311B JUMP JUMPDEST PUSH1 0xC SSTORE DUP6 DUP6 PUSH1 0xFF PUSH1 0xD SLOAD PUSH1 0x8 SHR AND PUSH1 0x0 EQ PUSH2 0x512 JUMPI SWAP1 PUSH2 0x424 SWAP2 DUP4 PUSH1 0x3 SLOAD AND DUP5 DUP8 PUSH1 0xD SLOAD PUSH1 0x40 MLOAD SWAP7 DUP8 SWAP6 DUP7 SWAP5 DUP6 SWAP4 PUSH4 0x95EA7B3 PUSH1 0xE0 SHL DUP6 MSTORE PUSH1 0x10 SHR AND PUSH1 0x4 DUP5 ADD PUSH1 0x20 SWAP1 SWAP4 SWAP3 SWAP2 SWAP4 PUSH1 0x1 PUSH1 0x1 PUSH1 0xA0 SHL SUB PUSH1 0x40 DUP3 ADD SWAP6 AND DUP2 MSTORE ADD MSTORE JUMP JUMPDEST SUB SWAP3 GAS CALL DUP1 ISZERO PUSH2 0x507 JUMPI PUSH2 0x4DA JUMPI JUMPDEST POP PUSH1 0xD SLOAD PUSH1 0x10 SHR AND PUSH1 0xFF PUSH1 0x11 SLOAD AND SWAP2 DUP2 EXTCODESIZE ISZERO PUSH2 0x4D6 JUMPI SWAP2 DUP4 SWAP2 DUP7 DUP4 PUSH2 0x46F SWAP6 PUSH1 0x40 MLOAD SWAP7 DUP8 SWAP6 DUP7 SWAP5 DUP6 SWAP4 PUSH4 0x48E8A949 PUSH1 0xE0 SHL DUP6 MSTORE PUSH1 0x4 DUP6 ADD PUSH2 0x306E JUMP JUMPDEST SUB SWAP3 GAS CALL DUP1 ISZERO PUSH2 0x4CB JUMPI PUSH2 0x4B7 JUMPI JUMPDEST POP POP JUMPDEST PUSH32 0xD8138F8A3F377C5259CA548E70E4C2DE94F129F5A11036A15B69513CBA2B426A DUP4 PUSH1 0x40 MLOAD DUP5 DUP2 MSTORE LOG2 PUSH1 0x1 PUSH1 0x2 SSTORE PUSH1 0x40 MLOAD SWAP1 DUP2 MSTORE RETURN JUMPDEST PUSH2 0x4C1 DUP3 SWAP2 PUSH2 0x2ADC JUMP JUMPDEST PUSH2 0x2EA JUMPI DUP1 PUSH2 0x47E JUMP JUMPDEST PUSH1 0x40 MLOAD RETURNDATASIZE DUP5 DUP3 RETURNDATACOPY RETURNDATASIZE SWAP1 REVERT JUMPDEST DUP4 DUP1 REVERT JUMPDEST PUSH2 0x4F9 SWAP1 DUP8 RETURNDATASIZE DUP10 GT PUSH2 0x500 JUMPI JUMPDEST PUSH2 0x4F1 DUP2 DUP4 PUSH2 0x2B06 JUMP JUMPDEST DUP2 ADD SWAP1 PUSH2 0x3056 JUMP JUMPDEST POP CODESIZE PUSH2 0x433 JUMP JUMPDEST POP RETURNDATASIZE PUSH2 0x4E7 JUMP JUMPDEST PUSH1 0x40 MLOAD RETURNDATASIZE DUP7 DUP3 RETURNDATACOPY RETURNDATASIZE SWAP1 REVERT JUMPDEST PUSH1 0x3 SLOAD PUSH1 0x40 MLOAD PUSH4 0xA9059CBB PUSH1 0xE0 SHL DUP2 MSTORE PUSH1 0x1 PUSH1 0x1 PUSH1 0xA0 SHL SUB SWAP6 SWAP1 SWAP6 AND PUSH1 0x4 DUP7 ADD MSTORE PUSH1 0x24 DUP6 ADD SWAP2 SWAP1 SWAP2 MSTORE SWAP1 SWAP2 DUP4 SWAP2 PUSH1 0x44 SWAP2 DUP4 SWAP2 DUP8 SWAP2 AND GAS CALL SWAP2 DUP3 ISZERO PUSH2 0x5BC JUMPI SWAP2 PUSH2 0x59F JUMPI JUMPDEST POP PUSH2 0x481 JUMPI PUSH1 0x64 DUP4 PUSH1 0x40 MLOAD SWAP1 PUSH3 0x461BCD PUSH1 0xE5 SHL DUP3 MSTORE PUSH1 0x4 DUP3 ADD MSTORE PUSH1 0x15 PUSH1 0x24 DUP3 ADD MSTORE PUSH32 0x546F6B656E207472616E73666572206661696C65640000000000000000000000 PUSH1 0x44 DUP3 ADD MSTORE REVERT JUMPDEST PUSH2 0x5B6 SWAP2 POP DUP5 RETURNDATASIZE DUP7 GT PUSH2 0x500 JUMPI PUSH2 0x4F1 DUP2 DUP4 PUSH2 0x2B06 JUMP JUMPDEST CODESIZE PUSH2 0x556 JUMP JUMPDEST PUSH1 0x40 MLOAD SWAP1 RETURNDATASIZE SWAP1 DUP3 RETURNDATACOPY RETURNDATASIZE SWAP1 REVERT JUMPDEST POP POP DUP7 DUP2 DUP2 RETURNDATASIZE DUP4 GT PUSH2 0x5F7 JUMPI JUMPDEST PUSH2 0x5DF DUP2 DUP4 PUSH2 0x2B06 JUMP JUMPDEST DUP2 ADD SUB SLT PUSH2 0x5F2 JUMPI DUP6 PUSH2 0x3B0 SWAP2 MLOAD PUSH2 0x3A4 JUMP JUMPDEST PUSH1 0x0 DUP1 REVERT JUMPDEST POP RETURNDATASIZE PUSH2 0x5D5 JUMP JUMPDEST PUSH1 0x64 DUP7 PUSH1 0x40 MLOAD SWAP1 PUSH3 0x461BCD PUSH1 0xE5 SHL DUP3 MSTORE PUSH1 0x4 DUP3 ADD MSTORE PUSH1 0x12 PUSH1 0x24 DUP3 ADD MSTORE PUSH32 0x4E6F20746F6B656E7320746F20636C61696D0000000000000000000000000000 PUSH1 0x44 DUP3 ADD MSTORE REVERT JUMPDEST PUSH1 0x64 DUP5 PUSH1 0x40 MLOAD SWAP1 PUSH3 0x461BCD PUSH1 0xE5 SHL DUP3 MSTORE PUSH1 0x4 DUP3 ADD MSTORE PUSH1 0x14 PUSH1 0x24 DUP3 ADD MSTORE PUSH32 0x4D61747572697479206E6F742072656163686564000000000000000000000000 PUSH1 0x44 DUP3 ADD MSTORE REVERT JUMPDEST PUSH1 0x40 MLOAD PUSH3 0x461BCD PUSH1 0xE5 SHL DUP2 MSTORE PUSH1 0x20 PUSH1 0x4 DUP3 ADD MSTORE PUSH1 0x2C PUSH1 0x24 DUP3 ADD MSTORE PUSH32 0x43616C6C6572206973206E6F742074686520696E766573746D656E744D616E61 PUSH1 0x44 DUP3 ADD MSTORE PUSH32 0x67657220636F6E74726163740000000000000000000000000000000000000000 PUSH1 0x64 DUP3 ADD MSTORE PUSH1 0x84 SWAP1 REVERT JUMPDEST POP CALLVALUE PUSH2 0x2EA JUMPI PUSH1 0x20 CALLDATASIZE PUSH1 0x3 NOT ADD SLT PUSH2 0x2EA JUMPI PUSH1 0xFF PUSH1 0x40 PUSH1 0x20 SWAP3 PUSH1 0x1 PUSH1 0x1 PUSH1 0xA0 SHL SUB PUSH2 0x71A PUSH2 0x2B28 JUMP JUMPDEST AND DUP2 MSTORE PUSH1 0x14 DUP5 MSTORE KECCAK256 SLOAD AND PUSH1 0x40 MLOAD SWAP1 ISZERO ISZERO DUP2 MSTORE RETURN JUMPDEST POP CALLVALUE PUSH2 0x2EA JUMPI DUP1 PUSH1 0x3 NOT CALLDATASIZE ADD SLT PUSH2 0x2EA JUMPI PUSH1 0x20 PUSH1 0x8 SLOAD PUSH1 0x40 MLOAD SWAP1 DUP2 MSTORE RETURN JUMPDEST POP CALLVALUE PUSH2 0x2EA JUMPI PUSH1 0x40 CALLDATASIZE PUSH1 0x3 NOT ADD SLT PUSH2 0x2EA JUMPI PUSH2 0x789 PUSH1 0x4 CALLDATALOAD PUSH2 0x76C PUSH2 0x2B3E JUMP JUMPDEST SWAP1 DUP1 DUP5 MSTORE DUP4 PUSH1 0x20 MSTORE PUSH2 0x784 PUSH1 0x1 PUSH1 0x40 DUP7 KECCAK256 ADD SLOAD PUSH2 0x2C44 JUMP JUMPDEST PUSH2 0x2ED1 JUMP JUMPDEST POP DUP1 RETURN JUMPDEST POP CALLVALUE PUSH2 0x2EA JUMPI DUP1 PUSH1 0x3 NOT CALLDATASIZE ADD SLT PUSH2 0x2EA JUMPI PUSH1 0x20 PUSH1 0xB SLOAD PUSH1 0x40 MLOAD SWAP1 DUP2 MSTORE RETURN JUMPDEST POP CALLVALUE PUSH2 0x2EA JUMPI DUP1 PUSH1 0x3 NOT CALLDATASIZE ADD SLT PUSH2 0x2EA JUMPI PUSH1 0x20 PUSH1 0x7 SLOAD PUSH1 0x40 MLOAD SWAP1 DUP2 MSTORE RETURN JUMPDEST POP CALLVALUE PUSH2 0x2EA JUMPI PUSH1 0x20 CALLDATASIZE PUSH1 0x3 NOT ADD SLT PUSH2 0x2EA JUMPI PUSH1 0x40 PUSH1 0x20 SWAP2 PUSH1 0x1 PUSH1 0x1 PUSH1 0xA0 SHL SUB PUSH2 0x7F0 PUSH2 0x2B28 JUMP JUMPDEST AND DUP2 MSTORE PUSH1 0x15 DUP4 MSTORE KECCAK256 SLOAD PUSH1 0x40 MLOAD SWAP1 DUP2 MSTORE RETURN JUMPDEST POP CALLVALUE PUSH2 0x2EA JUMPI PUSH1 0x20 CALLDATASIZE PUSH1 0x3 NOT ADD SLT PUSH2 0x2EA JUMPI PUSH1 0x20 SWAP1 PUSH1 0x40 PUSH1 0x1 PUSH1 0x1 PUSH1 0xA0 SHL SUB SWAP2 DUP3 PUSH2 0x82A PUSH2 0x2B28 JUMP JUMPDEST AND DUP2 MSTORE PUSH1 0x17 DUP5 MSTORE KECCAK256 SLOAD AND PUSH1 0x40 MLOAD SWAP1 DUP2 MSTORE RETURN JUMPDEST POP CALLVALUE PUSH2 0x2EA JUMPI DUP1 PUSH1 0x3 NOT CALLDATASIZE ADD SLT PUSH2 0x2EA JUMPI PUSH1 0x20 PUSH1 0xC SLOAD PUSH1 0x40 MLOAD SWAP1 DUP2 MSTORE RETURN JUMPDEST POP CALLVALUE PUSH2 0x2EA JUMPI DUP1 PUSH1 0x3 NOT CALLDATASIZE ADD SLT PUSH2 0x2EA JUMPI PUSH1 0x20 PUSH1 0xA SLOAD PUSH1 0x40 MLOAD SWAP1 DUP2 MSTORE RETURN JUMPDEST POP CALLVALUE PUSH2 0x2EA JUMPI PUSH1 0x60 CALLDATASIZE PUSH1 0x3 NOT ADD SLT PUSH2 0x2EA JUMPI PUSH2 0x892 PUSH2 0x2B28 JUMP JUMPDEST PUSH1 0x24 DUP1 CALLDATALOAD PUSH1 0x44 SWAP2 DUP3 CALLDATALOAD SWAP3 PUSH1 0x1 PUSH1 0x1 PUSH1 0xA0 SHL SUB SWAP4 DUP5 DUP2 AND SWAP6 DUP7 DUP3 SUB PUSH2 0x5F2 JUMPI PUSH2 0x8B8 PUSH2 0x2B77 JUMP JUMPDEST PUSH2 0x8C0 PUSH2 0x3097 JUMP JUMPDEST DUP7 ISZERO PUSH2 0xBC7 JUMPI DUP6 AND SWAP5 DUP6 PUSH2 0x9EF JUMPI POP DUP4 SELFBALANCE LT PUSH2 0x9AC JUMPI DUP7 DUP1 DUP1 DUP7 DUP2 SWAP5 GAS CALL RETURNDATASIZE ISZERO PUSH2 0x9A7 JUMPI RETURNDATASIZE PUSH8 0xFFFFFFFFFFFFFFFF DUP2 GT PUSH2 0x994 JUMPI PUSH1 0x40 MLOAD SWAP1 PUSH2 0x90C PUSH1 0x1F DUP3 ADD PUSH1 0x1F NOT AND PUSH1 0x20 ADD DUP4 PUSH2 0x2B06 JUMP JUMPDEST DUP2 MSTORE DUP8 PUSH1 0x20 RETURNDATASIZE SWAP3 ADD RETURNDATACOPY JUMPDEST ISZERO PUSH2 0x951 JUMPI POP POP PUSH1 0x20 PUSH32 0xD27DD37D941F5A1B76926E48140FDBF50A0C59DEFB5431A391A1260279EB1C4C SWAP2 JUMPDEST PUSH1 0x40 MLOAD SWAP1 DUP2 MSTORE LOG3 PUSH1 0x1 PUSH1 0x2 SSTORE DUP1 RETURN JUMPDEST SWAP1 PUSH32 0x4C554D494120726573637565206661696C656400000000000000000000000000 PUSH1 0x64 SWAP3 PUSH1 0x13 PUSH1 0x40 MLOAD SWAP4 PUSH3 0x461BCD PUSH1 0xE5 SHL DUP6 MSTORE PUSH1 0x20 PUSH1 0x4 DUP7 ADD MSTORE DUP5 ADD MSTORE DUP3 ADD MSTORE REVERT JUMPDEST DUP4 DUP9 PUSH4 0x4E487B71 PUSH1 0xE0 SHL DUP2 MSTORE PUSH1 0x41 PUSH1 0x4 MSTORE REVERT JUMPDEST PUSH2 0x916 JUMP JUMPDEST PUSH1 0x64 DUP4 PUSH32 0x4E6F7420656E6F756768204C554D494100000000000000000000000000000000 DUP5 PUSH1 0x10 PUSH1 0x40 MLOAD SWAP4 PUSH3 0x461BCD PUSH1 0xE5 SHL DUP6 MSTORE PUSH1 0x20 PUSH1 0x4 DUP7 ADD MSTORE DUP5 ADD MSTORE DUP3 ADD MSTORE REVERT JUMPDEST PUSH1 0x3 SWAP4 SWAP2 SWAP4 SLOAD AND DUP6 EQ PUSH2 0xB85 JUMPI PUSH1 0x40 MLOAD SWAP3 PUSH4 0x70A08231 PUSH1 0xE0 SHL DUP5 MSTORE ADDRESS PUSH1 0x4 DUP6 ADD MSTORE PUSH1 0x20 SWAP4 DUP5 DUP2 DUP5 DUP2 DUP11 GAS STATICCALL DUP1 ISZERO PUSH2 0xB7A JUMPI DUP7 SWAP2 DUP11 SWAP2 PUSH2 0xB49 JUMPI JUMPDEST POP LT PUSH2 0xB07 JUMPI PUSH1 0x40 MLOAD PUSH4 0xA9059CBB PUSH1 0xE0 SHL DUP2 MSTORE PUSH1 0x1 PUSH1 0x1 PUSH1 0xA0 SHL SUB SWAP2 SWAP1 SWAP2 AND PUSH1 0x4 DUP3 ADD MSTORE PUSH1 0x24 DUP2 ADD DUP6 SWAP1 MSTORE DUP4 DUP2 PUSH1 0x44 DUP2 DUP12 DUP11 GAS CALL SWAP1 DUP2 ISZERO PUSH2 0xAFC JUMPI DUP9 SWAP2 PUSH2 0xADF JUMPI JUMPDEST POP ISZERO PUSH2 0xA9D JUMPI POP POP POP PUSH1 0x20 PUSH32 0xD27DD37D941F5A1B76926E48140FDBF50A0C59DEFB5431A391A1260279EB1C4C SWAP2 PUSH2 0x942 JUMP JUMPDEST PUSH1 0x64 SWAP3 SWAP2 PUSH1 0x13 PUSH32 0x455243323020726573637565206661696C656400000000000000000000000000 SWAP3 PUSH1 0x40 MLOAD SWAP5 PUSH3 0x461BCD PUSH1 0xE5 SHL DUP7 MSTORE PUSH1 0x4 DUP7 ADD MSTORE DUP5 ADD MSTORE DUP3 ADD MSTORE REVERT JUMPDEST PUSH2 0xAF6 SWAP2 POP DUP5 RETURNDATASIZE DUP7 GT PUSH2 0x500 JUMPI PUSH2 0x4F1 DUP2 DUP4 PUSH2 0x2B06 JUMP JUMPDEST CODESIZE PUSH2 0xA6B JUMP JUMPDEST PUSH1 0x40 MLOAD RETURNDATASIZE DUP11 DUP3 RETURNDATACOPY RETURNDATASIZE SWAP1 REVERT JUMPDEST PUSH1 0x64 DUP5 PUSH32 0x4E6F7420656E6F75676820746F6B656E73000000000000000000000000000000 DUP6 PUSH1 0x11 DUP7 PUSH1 0x40 MLOAD SWAP5 PUSH3 0x461BCD PUSH1 0xE5 SHL DUP7 MSTORE PUSH1 0x4 DUP7 ADD MSTORE DUP5 ADD MSTORE DUP3 ADD MSTORE REVERT JUMPDEST DUP1 SWAP3 POP DUP7 DUP1 SWAP3 POP RETURNDATASIZE DUP4 GT PUSH2 0xB73 JUMPI JUMPDEST PUSH2 0xB62 DUP2 DUP4 PUSH2 0x2B06 JUMP JUMPDEST DUP2 ADD SUB SLT PUSH2 0x5F2 JUMPI DUP6 SWAP1 MLOAD CODESIZE PUSH2 0xA29 JUMP JUMPDEST POP RETURNDATASIZE PUSH2 0xB58 JUMP JUMPDEST PUSH1 0x40 MLOAD RETURNDATASIZE DUP12 DUP3 RETURNDATACOPY RETURNDATASIZE SWAP1 REVERT JUMPDEST PUSH32 0x43616E6E6F74207265736375652073616C65546F6B656E000000000000000000 PUSH1 0x64 SWAP3 PUSH1 0x17 PUSH1 0x40 MLOAD SWAP4 PUSH3 0x461BCD PUSH1 0xE5 SHL DUP6 MSTORE PUSH1 0x20 PUSH1 0x4 DUP7 ADD MSTORE DUP5 ADD MSTORE DUP3 ADD MSTORE REVERT JUMPDEST PUSH1 0x64 DUP5 PUSH32 0x496E76616C696420726563697069656E74000000000000000000000000000000 DUP6 PUSH1 0x11 PUSH1 0x40 MLOAD SWAP4 PUSH3 0x461BCD PUSH1 0xE5 SHL DUP6 MSTORE PUSH1 0x20 PUSH1 0x4 DUP7 ADD MSTORE DUP5 ADD MSTORE DUP3 ADD MSTORE REVERT JUMPDEST POP CALLVALUE PUSH2 0x2EA JUMPI PUSH1 0x20 CALLDATASIZE PUSH1 0x3 NOT ADD SLT PUSH2 0x2EA JUMPI PUSH2 0x789 PUSH2 0xC27 PUSH2 0x2B28 JUMP JUMPDEST PUSH2 0xC2F PUSH2 0x2B77 JUMP JUMPDEST PUSH2 0xC43 PUSH1 0x1 PUSH1 0x1 PUSH1 0xA0 SHL SUB DUP3 AND ISZERO ISZERO PUSH2 0x3128 JUMP JUMPDEST PUSH2 0x2CFA JUMP JUMPDEST POP CALLVALUE PUSH2 0x2EA JUMPI PUSH1 0x20 CALLDATASIZE PUSH1 0x3 NOT ADD SLT PUSH2 0x2EA JUMPI PUSH2 0x789 PUSH2 0xC65 PUSH2 0x2B28 JUMP JUMPDEST PUSH2 0xC6D PUSH2 0x2B77 JUMP JUMPDEST PUSH2 0xC81 PUSH1 0x1 PUSH1 0x1 PUSH1 0xA0 SHL SUB DUP3 AND ISZERO ISZERO PUSH2 0x3128 JUMP JUMPDEST PUSH2 0x2E26 JUMP JUMPDEST POP CALLVALUE PUSH2 0x2EA JUMPI DUP1 PUSH1 0x3 NOT CALLDATASIZE ADD SLT PUSH2 0x2EA JUMPI PUSH1 0x20 SWAP1 PUSH1 0x40 MLOAD SWAP1 DUP2 MSTORE RETURN JUMPDEST POP CALLVALUE PUSH2 0x2EA JUMPI PUSH1 0x40 CALLDATASIZE PUSH1 0x3 NOT ADD SLT PUSH2 0x2EA JUMPI PUSH1 0x1 PUSH1 0x1 PUSH1 0xA0 SHL SUB PUSH1 0x40 PUSH2 0xCC6 PUSH2 0x2B3E JUMP JUMPDEST SWAP3 PUSH1 0x4 CALLDATALOAD DUP2 MSTORE DUP1 PUSH1 0x20 MSTORE KECCAK256 SWAP2 AND PUSH1 0x0 MSTORE PUSH1 0x20 MSTORE PUSH1 0x20 PUSH1 0xFF PUSH1 0x40 PUSH1 0x0 KECCAK256 SLOAD AND PUSH1 0x40 MLOAD SWAP1 ISZERO ISZERO DUP2 MSTORE RETURN JUMPDEST POP CALLVALUE PUSH2 0x2EA JUMPI PUSH1 0x20 CALLDATASIZE PUSH1 0x3 NOT ADD SLT PUSH2 0x2EA JUMPI PUSH1 0x40 PUSH1 0x20 SWAP2 PUSH1 0x1 PUSH1 0x1 PUSH1 0xA0 SHL SUB PUSH2 0xD15 PUSH2 0x2B28 JUMP JUMPDEST AND DUP2 MSTORE PUSH1 0x16 DUP4 MSTORE KECCAK256 SLOAD PUSH1 0x40 MLOAD SWAP1 DUP2 MSTORE RETURN JUMPDEST POP CALLVALUE PUSH2 0x2EA JUMPI DUP1 PUSH1 0x3 NOT CALLDATASIZE ADD SLT PUSH2 0x2EA JUMPI PUSH1 0x20 PUSH1 0xFF PUSH1 0x11 SLOAD AND PUSH2 0xD4C PUSH1 0x40 MLOAD DUP1 SWAP3 PUSH2 0x2B54 JUMP JUMPDEST RETURN JUMPDEST POP CALLVALUE PUSH2 0x2EA JUMPI DUP1 PUSH1 0x3 NOT CALLDATASIZE ADD SLT PUSH2 0x2EA JUMPI PUSH1 0x20 PUSH1 0x4 SLOAD PUSH1 0x40 MLOAD SWAP1 DUP2 MSTORE RETURN JUMPDEST POP CALLVALUE PUSH2 0x2EA JUMPI DUP1 PUSH1 0x3 NOT CALLDATASIZE ADD SLT PUSH2 0x2EA JUMPI PUSH1 0x20 PUSH1 0x40 MLOAD PUSH32 0x35369B3A7BB98C90641A907C2FD643EA781341EBA72CCFFD47CB018C128C48C3 DUP2 MSTORE RETURN JUMPDEST POP CALLVALUE PUSH2 0x2EA JUMPI PUSH1 0x20 CALLDATASIZE PUSH1 0x3 NOT ADD SLT PUSH2 0x2EA JUMPI PUSH2 0xDC1 PUSH2 0x2B28 JUMP JUMPDEST PUSH2 0xDC9 PUSH2 0x2B77 JUMP JUMPDEST PUSH1 0x1 PUSH1 0x1 PUSH1 0xA0 SHL SUB DUP1 SWAP2 AND SWAP1 DUP2 DUP4 MSTORE PUSH1 0x17 PUSH1 0x20 MSTORE PUSH1 0x40 DUP4 KECCAK256 SLOAD AND ISZERO PUSH2 0xE2F JUMPI DUP1 DUP3 MSTORE PUSH1 0x17 PUSH1 0x20 MSTORE PUSH1 0x40 DUP3 KECCAK256 PUSH1 0x1 PUSH1 0x1 PUSH1 0xA0 SHL SUB NOT DUP2 SLOAD AND SWAP1 SSTORE PUSH32 0xC1D3048301C0D23629A2532C8DEFA6D68F8E1A0E4157918769E9FB1B2EEB888E PUSH1 0x20 PUSH1 0x40 MLOAD DUP5 DUP2 MSTORE LOG2 DUP1 RETURN JUMPDEST PUSH1 0x64 PUSH1 0x40 MLOAD PUSH3 0x461BCD PUSH1 0xE5 SHL DUP2 MSTORE PUSH1 0x20 PUSH1 0x4 DUP3 ADD MSTORE PUSH1 0x13 PUSH1 0x24 DUP3 ADD MSTORE PUSH32 0x4E6F206F7261636C6520746F2072656D6F766500000000000000000000000000 PUSH1 0x44 DUP3 ADD MSTORE REVERT JUMPDEST POP CALLVALUE PUSH2 0x2EA JUMPI DUP1 PUSH1 0x3 NOT CALLDATASIZE ADD SLT PUSH2 0x2EA JUMPI PUSH2 0xE8C PUSH2 0x2B77 JUMP JUMPDEST PUSH2 0xE94 PUSH2 0x2F92 JUMP JUMPDEST PUSH1 0x1 PUSH1 0xFF NOT DUP2 SLOAD AND OR PUSH1 0x1 SSTORE PUSH1 0x20 PUSH1 0x40 MLOAD CALLER DUP2 MSTORE PUSH32 0x62E78CEA01BEE320CD4E420270B5EA74000D11B0C9F74754EBDBFC544B05A258 SWAP2 DUP3 SWAP2 LOG1 PUSH1 0x20 PUSH1 0x40 MLOAD CALLER DUP2 MSTORE LOG1 DUP1 RETURN JUMPDEST POP CALLVALUE PUSH2 0x2EA JUMPI DUP1 PUSH1 0x3 NOT CALLDATASIZE ADD SLT PUSH2 0x2EA JUMPI PUSH1 0x20 PUSH1 0x13 SLOAD PUSH1 0x40 MLOAD SWAP1 DUP2 MSTORE RETURN JUMPDEST POP CALLVALUE PUSH2 0x2EA JUMPI PUSH1 0x20 DUP1 PUSH1 0x3 NOT CALLDATASIZE ADD SLT PUSH2 0x116C JUMPI PUSH2 0xF12 PUSH2 0x2B28 JUMP JUMPDEST SWAP1 PUSH2 0xF1B PUSH2 0x2BE8 JUMP JUMPDEST PUSH2 0xF23 PUSH2 0x3097 JUMP JUMPDEST PUSH1 0x8 SLOAD TIMESTAMP GT ISZERO PUSH2 0x1128 JUMPI PUSH1 0x1 PUSH1 0x1 PUSH1 0xA0 SHL SUB SWAP2 DUP3 DUP2 AND SWAP3 DUP4 ISZERO PUSH2 0x10E4 JUMPI PUSH1 0x3 SLOAD AND PUSH1 0x40 MLOAD PUSH4 0x70A08231 PUSH1 0xE0 SHL DUP2 MSTORE ADDRESS PUSH1 0x4 DUP3 ADD MSTORE DUP4 DUP2 PUSH1 0x24 DUP2 DUP6 GAS STATICCALL DUP1 ISZERO PUSH2 0x10D9 JUMPI DUP7 SWAP1 PUSH2 0x10AA JUMPI JUMPDEST PUSH2 0xF7A SWAP2 POP PUSH1 0xC SLOAD SWAP1 PUSH2 0x311B JUMP JUMPDEST SWAP2 DUP3 ISZERO PUSH2 0x1066 JUMPI PUSH1 0x40 MLOAD PUSH4 0xA9059CBB PUSH1 0xE0 SHL DUP2 MSTORE PUSH1 0x1 PUSH1 0x1 PUSH1 0xA0 SHL SUB SWAP2 SWAP1 SWAP2 AND PUSH1 0x4 DUP3 ADD MSTORE PUSH1 0x24 DUP2 ADD DUP4 SWAP1 MSTORE SWAP1 DUP4 SWAP1 DUP3 SWAP1 PUSH1 0x44 SWAP1 DUP3 SWAP1 DUP10 SWAP1 GAS CALL SWAP1 DUP2 ISZERO PUSH2 0x105B JUMPI DUP6 SWAP2 PUSH2 0x103E JUMPI JUMPDEST POP ISZERO PUSH2 0xFFA JUMPI SWAP1 PUSH32 0xFCBF6553B2CFC097C2301F1C071469A8839B462E7287E3692F238CCFC6B9208F SWAP2 PUSH1 0x40 MLOAD SWAP1 DUP2 MSTORE LOG2 PUSH1 0x1 PUSH1 0x2 SSTORE DUP1 RETURN JUMPDEST PUSH1 0x64 DUP3 PUSH1 0x40 MLOAD SWAP1 PUSH3 0x461BCD PUSH1 0xE5 SHL DUP3 MSTORE PUSH1 0x4 DUP3 ADD MSTORE PUSH1 0xE PUSH1 0x24 DUP3 ADD MSTORE PUSH32 0x5265636C61696D206661696C6564000000000000000000000000000000000000 PUSH1 0x44 DUP3 ADD MSTORE REVERT JUMPDEST PUSH2 0x1055 SWAP2 POP DUP4 RETURNDATASIZE DUP6 GT PUSH2 0x500 JUMPI PUSH2 0x4F1 DUP2 DUP4 PUSH2 0x2B06 JUMP JUMPDEST CODESIZE PUSH2 0xFC2 JUMP JUMPDEST PUSH1 0x40 MLOAD RETURNDATASIZE DUP8 DUP3 RETURNDATACOPY RETURNDATASIZE SWAP1 REVERT JUMPDEST PUSH1 0x64 DUP5 PUSH1 0x40 MLOAD SWAP1 PUSH3 0x461BCD PUSH1 0xE5 SHL DUP3 MSTORE PUSH1 0x4 DUP3 ADD MSTORE PUSH1 0x13 PUSH1 0x24 DUP3 ADD MSTORE PUSH32 0x4E6F20756E636C61696D656420746F6B656E7300000000000000000000000000 PUSH1 0x44 DUP3 ADD MSTORE REVERT JUMPDEST POP DUP4 DUP2 DUP2 RETURNDATASIZE DUP4 GT PUSH2 0x10D2 JUMPI JUMPDEST PUSH2 0x10C0 DUP2 DUP4 PUSH2 0x2B06 JUMP JUMPDEST DUP2 ADD SUB SLT PUSH2 0x5F2 JUMPI PUSH2 0xF7A SWAP1 MLOAD PUSH2 0xF6C JUMP JUMPDEST POP RETURNDATASIZE PUSH2 0x10B6 JUMP JUMPDEST PUSH1 0x40 MLOAD RETURNDATASIZE DUP9 DUP3 RETURNDATACOPY RETURNDATASIZE SWAP1 REVERT JUMPDEST PUSH1 0x64 DUP4 PUSH1 0x40 MLOAD SWAP1 PUSH3 0x461BCD PUSH1 0xE5 SHL DUP3 MSTORE PUSH1 0x4 DUP3 ADD MSTORE PUSH1 0xF PUSH1 0x24 DUP3 ADD MSTORE PUSH32 0x496E76616C696420616464726573730000000000000000000000000000000000 PUSH1 0x44 DUP3 ADD MSTORE REVERT JUMPDEST PUSH1 0x64 SWAP1 PUSH1 0x40 MLOAD SWAP1 PUSH3 0x461BCD PUSH1 0xE5 SHL DUP3 MSTORE PUSH1 0x4 DUP3 ADD MSTORE PUSH1 0xB PUSH1 0x24 DUP3 ADD MSTORE PUSH32 0x4E6F74206D617475726564000000000000000000000000000000000000000000 PUSH1 0x44 DUP3 ADD MSTORE REVERT JUMPDEST POP DUP1 REVERT JUMPDEST POP CALLVALUE PUSH2 0x2EA JUMPI PUSH1 0x40 CALLDATASIZE PUSH1 0x3 NOT ADD SLT PUSH2 0x2EA JUMPI PUSH2 0x118A PUSH2 0x2B28 JUMP JUMPDEST PUSH2 0x1192 PUSH2 0x2B3E JUMP JUMPDEST PUSH2 0x119A PUSH2 0x2B77 JUMP JUMPDEST PUSH1 0x1 PUSH1 0x1 PUSH1 0xA0 SHL SUB DUP1 SWAP2 AND SWAP2 DUP3 ISZERO PUSH2 0x11F8 JUMPI PUSH32 0xC1D3048301C0D23629A2532C8DEFA6D68F8E1A0E4157918769E9FB1B2EEB888E SWAP2 PUSH1 0x20 SWAP2 AND SWAP3 DUP4 DUP6 MSTORE PUSH1 0x17 DUP3 MSTORE PUSH1 0x40 DUP6 KECCAK256 DUP2 PUSH1 0x1 PUSH1 0x1 PUSH1 0xA0 SHL SUB NOT DUP3 SLOAD AND OR SWAP1 SSTORE PUSH1 0x40 MLOAD SWAP1 DUP2 MSTORE LOG2 DUP1 RETURN JUMPDEST PUSH1 0x64 PUSH1 0x40 MLOAD PUSH3 0x461BCD PUSH1 0xE5 SHL DUP2 MSTORE PUSH1 0x20 PUSH1 0x4 DUP3 ADD MSTORE PUSH1 0x16 PUSH1 0x24 DUP3 ADD MSTORE PUSH32 0x496E76616C6964206F7261636C65206164647265737300000000000000000000 PUSH1 0x44 DUP3 ADD MSTORE REVERT JUMPDEST POP CALLVALUE PUSH2 0x2EA JUMPI PUSH1 0x20 CALLDATASIZE PUSH1 0x3 NOT ADD SLT PUSH2 0x2EA JUMPI PUSH32 0x6B361C807733CC94A3B7BDA39C1C94DCC0511E91AA47B0F7F918068E93976890 PUSH1 0x20 PUSH1 0x4 CALLDATALOAD PUSH2 0x127C PUSH2 0x2BE8 JUMP JUMPDEST PUSH2 0x1287 DUP2 ISZERO ISZERO PUSH2 0x30D0 JUMP JUMPDEST DUP1 PUSH1 0x13 SSTORE PUSH1 0x40 MLOAD SWAP1 DUP2 MSTORE LOG1 DUP1 RETURN JUMPDEST POP PUSH1 0x60 CALLDATASIZE PUSH1 0x3 NOT ADD SLT PUSH2 0x2EA JUMPI PUSH2 0x12AA PUSH2 0x2B28 JUMP JUMPDEST SWAP1 PUSH2 0x12B3 PUSH2 0x2B3E JUMP JUMPDEST SWAP2 PUSH2 0x12BC PUSH2 0x3097 JUMP JUMPDEST PUSH2 0x12C4 PUSH2 0x2F92 JUMP JUMPDEST PUSH1 0x1 PUSH1 0x1 PUSH1 0xA0 SHL SUB PUSH1 0xE SLOAD AND CALLER SUB PUSH2 0x686 JUMPI PUSH1 0x1 PUSH1 0x1 PUSH1 0xA0 SHL SUB DUP4 AND ISZERO PUSH2 0x1E9C JUMPI PUSH1 0xFF PUSH1 0xD SLOAD AND PUSH2 0x1E58 JUMPI PUSH1 0x6 SLOAD TIMESTAMP LT PUSH2 0x1E14 JUMPI PUSH1 0x7 SLOAD TIMESTAMP LT ISZERO PUSH2 0x1DD0 JUMPI PUSH1 0x1 PUSH1 0x1 PUSH1 0xA0 SHL SUB DUP2 AND DUP3 MSTORE PUSH1 0x14 PUSH1 0x20 MSTORE PUSH1 0xFF PUSH1 0x40 DUP4 KECCAK256 SLOAD AND ISZERO PUSH2 0x1D8C JUMPI PUSH1 0x44 CALLDATALOAD ISZERO PUSH2 0x1D48 JUMPI PUSH1 0x1 PUSH1 0x1 PUSH1 0xA0 SHL SUB DUP2 AND DUP3 MSTORE PUSH1 0x17 PUSH1 0x20 MSTORE PUSH1 0x1 PUSH1 0x1 PUSH1 0xA0 SHL SUB PUSH1 0x40 DUP4 KECCAK256 SLOAD AND DUP1 ISZERO PUSH2 0x1D04 JUMPI PUSH1 0x40 PUSH1 0x4 SWAP2 DUP2 MLOAD SWAP3 DUP4 DUP1 SWAP3 PUSH32 0x57DE26A400000000000000000000000000000000000000000000000000000000 DUP3 MSTORE GAS STATICCALL SWAP1 DUP2 ISZERO PUSH2 0x1CF9 JUMPI DUP4 SWAP2 PUSH2 0x1CAB JUMPI JUMPDEST POP PUSH1 0x1B SIGNEXTEND SWAP2 PUSH2 0x139B DUP2 DUP5 SGT PUSH2 0x30D0 JUMP JUMPDEST PUSH1 0x1 PUSH1 0x1 PUSH1 0xA0 SHL SUB DUP3 AND PUSH2 0x1C22 JUMPI PUSH1 0x12 SWAP3 JUMPDEST DUP1 PUSH1 0x44 CALLDATALOAD MUL SWAP1 PUSH1 0x44 CALLDATALOAD DUP3 DIV SUB PUSH2 0x1C0E JUMPI PUSH8 0xDE0B6B3A7640000 SWAP4 DUP5 DUP3 MUL SWAP2 DUP1 DUP4 DIV DUP7 EQ SWAP1 ISZERO OR ISZERO PUSH2 0x1B2E JUMPI PUSH1 0xFF AND PUSH1 0x4D DUP2 GT PUSH2 0x1B2E JUMPI DUP5 SWAP2 PUSH2 0x13F2 SWAP2 PUSH1 0xA EXP SWAP1 PUSH2 0x2FEB JUMP JUMPDEST DIV PUSH1 0x4 SLOAD DUP2 LT PUSH2 0x1BCA JUMPI PUSH1 0x1 PUSH1 0x1 PUSH1 0xA0 SHL SUB DUP6 AND DUP3 MSTORE PUSH1 0x16 PUSH1 0x20 MSTORE PUSH2 0x141B DUP2 PUSH1 0x40 DUP5 KECCAK256 SLOAD PUSH2 0x2FC8 JUMP JUMPDEST PUSH1 0x5 SLOAD LT PUSH2 0x1B86 JUMPI PUSH1 0xB SLOAD SWAP4 PUSH2 0x1431 DUP3 DUP7 PUSH2 0x2FC8 JUMP JUMPDEST PUSH1 0xA SLOAD LT PUSH2 0x1B42 JUMPI DUP1 DUP3 MUL SWAP1 DUP3 DUP3 DIV EQ DUP3 ISZERO OR ISZERO PUSH2 0x1B2E JUMPI PUSH1 0x13 SLOAD PUSH2 0x1455 SWAP2 PUSH2 0x2FEB JUMP JUMPDEST SWAP4 DUP5 ISZERO PUSH2 0x1AEA JUMPI DUP2 PUSH2 0x1466 SWAP2 PUSH2 0x2FC8 JUMP JUMPDEST PUSH1 0xB SSTORE PUSH1 0x1 PUSH1 0x1 PUSH1 0xA0 SHL SUB DUP6 AND DUP3 MSTORE PUSH1 0x16 PUSH1 0x20 MSTORE PUSH2 0x1489 PUSH1 0x40 DUP4 KECCAK256 SWAP2 DUP3 SLOAD PUSH2 0x2FC8 JUMP JUMPDEST SWAP1 SSTORE PUSH1 0xFF PUSH1 0x9 SLOAD AND PUSH2 0x1A6B JUMPI JUMPDEST PUSH1 0x1 PUSH1 0x1 PUSH1 0xA0 SHL SUB DUP3 AND PUSH2 0x1888 JUMPI PUSH1 0x44 CALLDATALOAD CALLVALUE SUB PUSH2 0x1844 JUMPI PUSH1 0x1 PUSH1 0x1 PUSH1 0xA0 SHL SUB PUSH1 0x12 SLOAD AND DUP1 EXTCODESIZE ISZERO PUSH2 0x116C JUMPI DUP2 PUSH1 0x44 SWAP2 PUSH1 0x40 MLOAD SWAP3 DUP4 DUP1 SWAP3 PUSH32 0x701BB89100000000000000000000000000000000000000000000000000000000 DUP3 MSTORE ADDRESS PUSH1 0x4 DUP4 ADD MSTORE PUSH1 0x1 PUSH1 0x1 PUSH1 0xA0 SHL SUB DUP11 AND PUSH1 0x24 DUP4 ADD MSTORE CALLVALUE SWAP1 GAS CALL DUP1 ISZERO PUSH2 0x4CB JUMPI SWAP1 DUP3 SWAP2 PUSH2 0x1830 JUMPI JUMPDEST POP POP JUMPDEST PUSH1 0x9 SLOAD PUSH1 0xFF AND ISZERO PUSH2 0x17D4 JUMPI PUSH1 0xD SLOAD PUSH1 0x8 SHR PUSH1 0xFF AND ISZERO PUSH2 0x16F3 JUMPI PUSH1 0x3 SLOAD PUSH1 0xD SLOAD PUSH1 0x40 MLOAD PUSH4 0x95EA7B3 PUSH1 0xE0 SHL DUP2 MSTORE PUSH1 0x1 PUSH1 0x1 PUSH1 0xA0 SHL SUB PUSH1 0x10 SWAP3 SWAP1 SWAP3 SHR DUP3 AND PUSH1 0x4 DUP3 ADD MSTORE PUSH1 0x24 DUP2 ADD DUP7 SWAP1 MSTORE SWAP2 PUSH1 0x20 SWAP2 DUP4 SWAP2 AND DUP2 DUP6 DUP2 PUSH1 0x44 DUP2 ADD SUB SWAP3 GAS CALL SWAP1 DUP2 ISZERO PUSH2 0x4CB JUMPI DUP3 SWAP2 PUSH2 0x16D4 JUMPI JUMPDEST POP ISZERO PUSH2 0x1690 JUMPI PUSH1 0x1 PUSH1 0x1 PUSH1 0xA0 SHL SUB PUSH1 0xD SLOAD PUSH1 0x10 SHR AND PUSH1 0xFF PUSH1 0x11 SLOAD AND DUP2 EXTCODESIZE ISZERO PUSH2 0x168C JUMPI PUSH2 0x15C7 DUP4 SWAP3 DUP4 SWAP3 PUSH1 0x40 MLOAD SWAP5 DUP6 DUP1 SWAP5 DUP2 SWAP4 PUSH4 0x48E8A949 PUSH1 0xE0 SHL DUP4 MSTORE DUP12 DUP14 PUSH1 0x4 DUP6 ADD PUSH2 0x306E JUMP JUMPDEST SUB SWAP3 GAS CALL DUP1 ISZERO PUSH2 0x4CB JUMPI PUSH2 0x1678 JUMPI JUMPDEST POP POP PUSH32 0x93638E6CF18B4F6A839DE65DF95898221F5D9F7DC54B87D4B31D40297643266E PUSH1 0x60 PUSH1 0x1 PUSH1 0x1 PUSH1 0xA0 SHL SUB PUSH1 0x20 SWAP6 JUMPDEST DUP2 PUSH1 0x40 MLOAD SWAP6 AND DUP6 MSTORE PUSH1 0x44 CALLDATALOAD DUP8 DUP7 ADD MSTORE DUP6 PUSH1 0x40 DUP7 ADD MSTORE AND SWAP3 LOG2 PUSH1 0xB SLOAD PUSH1 0xA SLOAD DUP2 LT ISZERO PUSH2 0x163B JUMPI JUMPDEST POP PUSH1 0x1 PUSH1 0x2 SSTORE PUSH1 0x40 MLOAD SWAP1 DUP2 MSTORE RETURN JUMPDEST DUP3 PUSH32 0xCB67F20F64495B30F15524C55F90201DD6571D6B5C19DAC183D2AEB25315B2DC SWAP2 PUSH1 0x1 PUSH1 0xFF NOT PUSH1 0xD SLOAD AND OR PUSH1 0xD SSTORE PUSH1 0x40 MLOAD SWAP1 DUP2 MSTORE LOG1 CODESIZE PUSH2 0x162D JUMP JUMPDEST PUSH2 0x1682 DUP3 SWAP2 PUSH2 0x2ADC JUMP JUMPDEST PUSH2 0x2EA JUMPI DUP1 PUSH2 0x15D6 JUMP JUMPDEST DUP3 DUP1 REVERT JUMPDEST PUSH1 0x64 PUSH1 0x40 MLOAD PUSH3 0x461BCD PUSH1 0xE5 SHL DUP2 MSTORE PUSH1 0x20 PUSH1 0x4 DUP3 ADD MSTORE PUSH1 0xE PUSH1 0x24 DUP3 ADD MSTORE PUSH32 0x417070726F7665206661696C6564000000000000000000000000000000000000 PUSH1 0x44 DUP3 ADD MSTORE REVERT JUMPDEST PUSH2 0x16ED SWAP2 POP PUSH1 0x20 RETURNDATASIZE PUSH1 0x20 GT PUSH2 0x500 JUMPI PUSH2 0x4F1 DUP2 DUP4 PUSH2 0x2B06 JUMP JUMPDEST CODESIZE PUSH2 0x1580 JUMP JUMPDEST PUSH1 0x3 SLOAD PUSH1 0x40 MLOAD PUSH4 0xA9059CBB PUSH1 0xE0 SHL DUP2 MSTORE PUSH1 0x1 PUSH1 0x1 PUSH1 0xA0 SHL SUB DUP7 DUP2 AND PUSH1 0x4 DUP4 ADD MSTORE PUSH1 0x24 DUP3 ADD DUP7 SWAP1 MSTORE SWAP1 SWAP2 PUSH1 0x20 SWAP2 DUP4 SWAP2 PUSH1 0x44 SWAP2 DUP4 SWAP2 DUP8 SWAP2 AND GAS CALL SWAP2 DUP3 ISZERO PUSH2 0x5BC JUMPI SWAP2 PUSH2 0x17B5 JUMPI JUMPDEST POP ISZERO PUSH2 0x1771 JUMPI PUSH32 0x93638E6CF18B4F6A839DE65DF95898221F5D9F7DC54B87D4B31D40297643266E PUSH1 0x60 PUSH1 0x1 PUSH1 0x1 PUSH1 0xA0 SHL SUB PUSH1 0x20 SWAP6 PUSH2 0x1607 JUMP JUMPDEST PUSH1 0x64 PUSH1 0x40 MLOAD PUSH3 0x461BCD PUSH1 0xE5 SHL DUP2 MSTORE PUSH1 0x20 PUSH1 0x4 DUP3 ADD MSTORE PUSH1 0x14 PUSH1 0x24 DUP3 ADD MSTORE PUSH32 0x4175746F2D7472616E73666572206661696C6564000000000000000000000000 PUSH1 0x44 DUP3 ADD MSTORE REVERT JUMPDEST PUSH2 0x17CE SWAP2 POP PUSH1 0x20 RETURNDATASIZE PUSH1 0x20 GT PUSH2 0x500 JUMPI PUSH2 0x4F1 DUP2 DUP4 PUSH2 0x2B06 JUMP JUMPDEST CODESIZE PUSH2 0x1738 JUMP JUMPDEST PUSH1 0x60 PUSH1 0x1 PUSH1 0x1 PUSH1 0xA0 SHL SUB DUP6 PUSH1 0x40 PUSH32 0x93638E6CF18B4F6A839DE65DF95898221F5D9F7DC54B87D4B31D40297643266E SWAP5 DUP4 PUSH1 0x20 SWAP10 AND DUP2 MSTORE PUSH1 0x15 DUP10 MSTORE KECCAK256 PUSH2 0x181A DUP8 DUP3 SLOAD PUSH2 0x2FC8 JUMP JUMPDEST SWAP1 SSTORE PUSH2 0x1828 DUP7 PUSH1 0xC SLOAD PUSH2 0x2FC8 JUMP JUMPDEST PUSH1 0xC SSTORE PUSH2 0x1607 JUMP JUMPDEST PUSH2 0x1839 SWAP1 PUSH2 0x2ADC JUMP JUMPDEST PUSH2 0x2EA JUMPI DUP1 CODESIZE PUSH2 0x1515 JUMP JUMPDEST PUSH1 0x64 PUSH1 0x40 MLOAD PUSH3 0x461BCD PUSH1 0xE5 SHL DUP2 MSTORE PUSH1 0x20 PUSH1 0x4 DUP3 ADD MSTORE PUSH1 0x17 PUSH1 0x24 DUP3 ADD MSTORE PUSH32 0x496E636F7272656374206E617469766520616D6F756E74000000000000000000 PUSH1 0x44 DUP3 ADD MSTORE REVERT JUMPDEST CALLVALUE PUSH2 0x1A01 JUMPI PUSH1 0x40 MLOAD PUSH32 0x23B872DD00000000000000000000000000000000000000000000000000000000 DUP2 MSTORE PUSH1 0x1 PUSH1 0x1 PUSH1 0xA0 SHL SUB DUP6 AND PUSH1 0x4 DUP3 ADD MSTORE ADDRESS PUSH1 0x24 DUP3 ADD MSTORE PUSH1 0x44 CALLDATALOAD PUSH1 0x44 DUP3 ADD MSTORE PUSH1 0x20 DUP2 PUSH1 0x64 DUP2 DUP6 PUSH1 0x1 PUSH1 0x1 PUSH1 0xA0 SHL SUB DUP9 AND GAS CALL DUP1 ISZERO PUSH2 0x4CB JUMPI PUSH2 0x19E2 JUMPI JUMPDEST POP PUSH1 0x12 SLOAD PUSH1 0x40 MLOAD PUSH4 0x95EA7B3 PUSH1 0xE0 SHL DUP2 MSTORE PUSH1 0x1 PUSH1 0x1 PUSH1 0xA0 SHL SUB SWAP2 DUP3 AND PUSH1 0x4 DUP3 ADD MSTORE PUSH1 0x44 DUP1 CALLDATALOAD PUSH1 0x24 DUP4 ADD MSTORE SWAP1 SWAP2 PUSH1 0x20 SWAP2 DUP4 SWAP2 DUP3 SWAP1 DUP7 SWAP1 DUP9 AND GAS CALL DUP1 ISZERO PUSH2 0x4CB JUMPI PUSH2 0x19C3 JUMPI JUMPDEST POP PUSH1 0x1 PUSH1 0x1 PUSH1 0xA0 SHL SUB PUSH1 0x12 SLOAD AND DUP1 EXTCODESIZE ISZERO PUSH2 0x116C JUMPI DUP2 DUP1 SWAP2 PUSH1 0x84 PUSH1 0x40 MLOAD DUP1 SWAP5 DUP2 SWAP4 PUSH32 0xEF7C5A700000000000000000000000000000000000000000000000000000000 DUP4 MSTORE ADDRESS PUSH1 0x4 DUP5 ADD MSTORE PUSH1 0x1 PUSH1 0x1 PUSH1 0xA0 SHL SUB DUP12 AND PUSH1 0x24 DUP5 ADD MSTORE PUSH1 0x1 PUSH1 0x1 PUSH1 0xA0 SHL SUB DUP10 AND PUSH1 0x44 DUP5 ADD MSTORE PUSH1 0x44 CALLDATALOAD PUSH1 0x64 DUP5 ADD MSTORE GAS CALL DUP1 ISZERO PUSH2 0x4CB JUMPI PUSH2 0x19B4 JUMPI JUMPDEST POP PUSH2 0x1518 JUMP JUMPDEST PUSH2 0x19BD SWAP1 PUSH2 0x2ADC JUMP JUMPDEST CODESIZE PUSH2 0x19AE JUMP JUMPDEST PUSH2 0x19DB SWAP1 PUSH1 0x20 RETURNDATASIZE PUSH1 0x20 GT PUSH2 0x500 JUMPI PUSH2 0x4F1 DUP2 DUP4 PUSH2 0x2B06 JUMP JUMPDEST POP CODESIZE PUSH2 0x1932 JUMP JUMPDEST PUSH2 0x19FA SWAP1 PUSH1 0x20 RETURNDATASIZE PUSH1 0x20 GT PUSH2 0x500 JUMPI PUSH2 0x4F1 DUP2 DUP4 PUSH2 0x2B06 JUMP JUMPDEST POP CODESIZE PUSH2 0x18EE JUMP JUMPDEST PUSH1 0x84 PUSH1 0x40 MLOAD PUSH3 0x461BCD PUSH1 0xE5 SHL DUP2 MSTORE PUSH1 0x20 PUSH1 0x4 DUP3 ADD MSTORE PUSH1 0x21 PUSH1 0x24 DUP3 ADD MSTORE PUSH32 0x446F206E6F742073656E642045544820666F7220746F6B656E207061796D656E PUSH1 0x44 DUP3 ADD MSTORE PUSH32 0x7400000000000000000000000000000000000000000000000000000000000000 PUSH1 0x64 DUP3 ADD MSTORE REVERT JUMPDEST PUSH1 0x24 PUSH1 0x20 PUSH1 0x1 PUSH1 0x1 PUSH1 0xA0 SHL SUB PUSH1 0x3 SLOAD AND PUSH1 0x40 MLOAD SWAP3 DUP4 DUP1 SWAP3 PUSH4 0x70A08231 PUSH1 0xE0 SHL DUP3 MSTORE ADDRESS PUSH1 0x4 DUP4 ADD MSTORE GAS STATICCALL DUP1 ISZERO PUSH2 0x4CB JUMPI DUP5 SWAP1 DUP4 SWAP1 PUSH2 0x1AB4 JUMPI JUMPDEST PUSH2 0x1AAF SWAP3 POP LT ISZERO PUSH2 0x300B JUMP JUMPDEST PUSH2 0x1496 JUMP JUMPDEST POP POP PUSH1 0x20 DUP2 RETURNDATASIZE PUSH1 0x20 GT PUSH2 0x1AE2 JUMPI JUMPDEST DUP2 PUSH2 0x1ACF PUSH1 0x20 SWAP4 DUP4 PUSH2 0x2B06 JUMP JUMPDEST DUP2 ADD SUB SLT PUSH2 0x116C JUMPI DUP4 PUSH2 0x1AAF SWAP2 MLOAD PUSH2 0x1AA3 JUMP JUMPDEST RETURNDATASIZE SWAP2 POP PUSH2 0x1AC2 JUMP JUMPDEST PUSH1 0x64 PUSH1 0x40 MLOAD PUSH3 0x461BCD PUSH1 0xE5 SHL DUP2 MSTORE PUSH1 0x20 PUSH1 0x4 DUP3 ADD MSTORE PUSH1 0x14 PUSH1 0x24 DUP3 ADD MSTORE PUSH32 0x546F6B656E20616D6F756E7420746F6F206C6F77000000000000000000000000 PUSH1 0x44 DUP3 ADD MSTORE REVERT JUMPDEST PUSH1 0x24 DUP4 PUSH4 0x4E487B71 PUSH1 0xE0 SHL DUP2 MSTORE PUSH1 0x11 PUSH1 0x4 MSTORE REVERT JUMPDEST PUSH1 0x64 PUSH1 0x40 MLOAD PUSH3 0x461BCD PUSH1 0xE5 SHL DUP2 MSTORE PUSH1 0x20 PUSH1 0x4 DUP3 ADD MSTORE PUSH1 0xB PUSH1 0x24 DUP3 ADD MSTORE PUSH32 0x4578636565647320636170000000000000000000000000000000000000000000 PUSH1 0x44 DUP3 ADD MSTORE REVERT JUMPDEST PUSH1 0x64 PUSH1 0x40 MLOAD PUSH3 0x461BCD PUSH1 0xE5 SHL DUP2 MSTORE PUSH1 0x20 PUSH1 0x4 DUP3 ADD MSTORE PUSH1 0x16 PUSH1 0x24 DUP3 ADD MSTORE PUSH32 0x45786365656473206D617820696E766573746D656E7400000000000000000000 PUSH1 0x44 DUP3 ADD MSTORE REVERT JUMPDEST PUSH1 0x64 PUSH1 0x40 MLOAD PUSH3 0x461BCD PUSH1 0xE5 SHL DUP2 MSTORE PUSH1 0x20 PUSH1 0x4 DUP3 ADD MSTORE PUSH1 0x14 PUSH1 0x24 DUP3 ADD MSTORE PUSH32 0x42656C6F77206D696E20696E766573746D656E74000000000000000000000000 PUSH1 0x44 DUP3 ADD MSTORE REVERT JUMPDEST PUSH1 0x24 DUP3 PUSH4 0x4E487B71 PUSH1 0xE0 SHL DUP2 MSTORE PUSH1 0x11 PUSH1 0x4 MSTORE REVERT JUMPDEST PUSH1 0x40 MLOAD PUSH32 0x313CE56700000000000000000000000000000000000000000000000000000000 DUP2 MSTORE PUSH1 0x20 DUP2 PUSH1 0x4 DUP2 PUSH1 0x1 PUSH1 0x1 PUSH1 0xA0 SHL SUB DUP8 AND GAS STATICCALL SWAP1 DUP2 ISZERO PUSH2 0x4CB JUMPI DUP3 SWAP2 PUSH2 0x1C6F JUMPI JUMPDEST POP SWAP3 PUSH2 0x13AD JUMP JUMPDEST SWAP1 POP PUSH1 0x20 DUP2 RETURNDATASIZE PUSH1 0x20 GT PUSH2 0x1CA3 JUMPI JUMPDEST DUP2 PUSH2 0x1C8A PUSH1 0x20 SWAP4 DUP4 PUSH2 0x2B06 JUMP JUMPDEST DUP2 ADD SUB SLT PUSH2 0x116C JUMPI MLOAD PUSH1 0xFF DUP2 AND DUP2 SUB PUSH2 0x116C JUMPI CODESIZE PUSH2 0x1C68 JUMP JUMPDEST RETURNDATASIZE SWAP2 POP PUSH2 0x1C7D JUMP JUMPDEST SWAP1 POP PUSH1 0x40 DUP2 RETURNDATASIZE PUSH1 0x40 GT PUSH2 0x1CF1 JUMPI JUMPDEST DUP2 PUSH2 0x1CC6 PUSH1 0x40 SWAP4 DUP4 PUSH2 0x2B06 JUMP JUMPDEST DUP2 ADD SUB SLT PUSH2 0x168C JUMPI DUP1 MLOAD SWAP1 DUP2 PUSH1 0x1B SIGNEXTEND DUP3 SUB PUSH2 0x4D6 JUMPI PUSH1 0x20 ADD MLOAD PUSH4 0xFFFFFFFF DUP2 AND SUB PUSH2 0x168C JUMPI CODESIZE PUSH2 0x138B JUMP JUMPDEST RETURNDATASIZE SWAP2 POP PUSH2 0x1CB9 JUMP JUMPDEST PUSH1 0x40 MLOAD RETURNDATASIZE DUP6 DUP3 RETURNDATACOPY RETURNDATASIZE SWAP1 REVERT JUMPDEST PUSH1 0x64 PUSH1 0x40 MLOAD PUSH3 0x461BCD PUSH1 0xE5 SHL DUP2 MSTORE PUSH1 0x20 PUSH1 0x4 DUP3 ADD MSTORE PUSH1 0xE PUSH1 0x24 DUP3 ADD MSTORE PUSH32 0x4F7261636C65206E6F7420736574000000000000000000000000000000000000 PUSH1 0x44 DUP3 ADD MSTORE REVERT JUMPDEST PUSH1 0x64 PUSH1 0x40 MLOAD PUSH3 0x461BCD PUSH1 0xE5 SHL DUP2 MSTORE PUSH1 0x20 PUSH1 0x4 DUP3 ADD MSTORE PUSH1 0xB PUSH1 0x24 DUP3 ADD MSTORE PUSH32 0x5A65726F20616D6F756E74000000000000000000000000000000000000000000 PUSH1 0x44 DUP3 ADD MSTORE REVERT JUMPDEST PUSH1 0x64 PUSH1 0x40 MLOAD PUSH3 0x461BCD PUSH1 0xE5 SHL DUP2 MSTORE PUSH1 0x20 PUSH1 0x4 DUP3 ADD MSTORE PUSH1 0x15 PUSH1 0x24 DUP3 ADD MSTORE PUSH32 0x546F6B656E206E6F742077686974656C69737465640000000000000000000000 PUSH1 0x44 DUP3 ADD MSTORE REVERT JUMPDEST PUSH1 0x64 PUSH1 0x40 MLOAD PUSH3 0x461BCD PUSH1 0xE5 SHL DUP2 MSTORE PUSH1 0x20 PUSH1 0x4 DUP3 ADD MSTORE PUSH1 0xA PUSH1 0x24 DUP3 ADD MSTORE PUSH32 0x53616C6520656E64656400000000000000000000000000000000000000000000 PUSH1 0x44 DUP3 ADD MSTORE REVERT JUMPDEST PUSH1 0x64 PUSH1 0x40 MLOAD PUSH3 0x461BCD PUSH1 0xE5 SHL DUP2 MSTORE PUSH1 0x20 PUSH1 0x4 DUP3 ADD MSTORE PUSH1 0x10 PUSH1 0x24 DUP3 ADD MSTORE PUSH32 0x53616C65206E6F74207374617274656400000000000000000000000000000000 PUSH1 0x44 DUP3 ADD MSTORE REVERT JUMPDEST PUSH1 0x64 PUSH1 0x40 MLOAD PUSH3 0x461BCD PUSH1 0xE5 SHL DUP2 MSTORE PUSH1 0x20 PUSH1 0x4 DUP3 ADD MSTORE PUSH1 0xE PUSH1 0x24 DUP3 ADD MSTORE PUSH32 0x53616C6520697320636C6F736564000000000000000000000000000000000000 PUSH1 0x44 DUP3 ADD MSTORE REVERT JUMPDEST PUSH1 0x64 PUSH1 0x40 MLOAD PUSH3 0x461BCD PUSH1 0xE5 SHL DUP2 MSTORE PUSH1 0x20 PUSH1 0x4 DUP3 ADD MSTORE PUSH1 0x18 PUSH1 0x24 DUP3 ADD MSTORE PUSH32 0x496E76616C696420696E766573746F7220616464726573730000000000000000 PUSH1 0x44 DUP3 ADD MSTORE REVERT JUMPDEST POP CALLVALUE PUSH2 0x2EA JUMPI DUP1 PUSH1 0x3 NOT CALLDATASIZE ADD SLT PUSH2 0x2EA JUMPI PUSH1 0x20 PUSH1 0x1 PUSH1 0x1 PUSH1 0xA0 SHL SUB PUSH1 0x11 SLOAD PUSH1 0x10 SHR AND PUSH1 0x40 MLOAD SWAP1 DUP2 MSTORE RETURN JUMPDEST POP CALLVALUE PUSH2 0x2EA JUMPI DUP1 PUSH1 0x3 NOT CALLDATASIZE ADD SLT PUSH2 0x2EA JUMPI PUSH1 0x20 PUSH1 0x1 PUSH1 0x1 PUSH1 0xA0 SHL SUB PUSH1 0xF SLOAD AND PUSH1 0x40 MLOAD SWAP1 DUP2 MSTORE RETURN JUMPDEST POP CALLVALUE PUSH2 0x2EA JUMPI DUP1 PUSH1 0x3 NOT CALLDATASIZE ADD SLT PUSH2 0x2EA JUMPI PUSH1 0x20 PUSH1 0xFF PUSH1 0x1 SLOAD AND PUSH1 0x40 MLOAD SWAP1 ISZERO ISZERO DUP2 MSTORE RETURN JUMPDEST POP CALLVALUE PUSH2 0x2EA JUMPI DUP1 PUSH1 0x3 NOT CALLDATASIZE ADD SLT PUSH2 0x2EA JUMPI PUSH1 0x20 PUSH1 0xFF PUSH1 0xD SLOAD PUSH1 0x8 SHR AND PUSH1 0x40 MLOAD SWAP1 ISZERO ISZERO DUP2 MSTORE RETURN JUMPDEST POP CALLVALUE PUSH2 0x2EA JUMPI DUP1 PUSH1 0x3 NOT CALLDATASIZE ADD SLT PUSH2 0x2EA JUMPI PUSH1 0x20 PUSH1 0x1 PUSH1 0x1 PUSH1 0xA0 SHL SUB PUSH1 0xE SLOAD AND PUSH1 0x40 MLOAD SWAP1 DUP2 MSTORE RETURN JUMPDEST POP CALLVALUE PUSH2 0x2EA JUMPI DUP1 PUSH1 0x3 NOT CALLDATASIZE ADD SLT PUSH2 0x2EA JUMPI PUSH2 0x1FBA PUSH2 0x2B77 JUMP JUMPDEST PUSH1 0x1 SLOAD PUSH1 0xFF DUP2 AND ISZERO PUSH2 0x2006 JUMPI PUSH1 0xFF NOT AND PUSH1 0x1 SSTORE PUSH1 0x20 PUSH1 0x40 MLOAD CALLER DUP2 MSTORE PUSH32 0x5DB9EE0A495BF2E6FF9C91A7834C1BA4FDD244A5E8AA4E537BD38AEAE4B073AA SWAP2 DUP3 SWAP2 LOG1 PUSH1 0x20 PUSH1 0x40 MLOAD CALLER DUP2 MSTORE LOG1 DUP1 RETURN JUMPDEST PUSH1 0x4 PUSH1 0x40 MLOAD PUSH32 0x8DFC202B00000000000000000000000000000000000000000000000000000000 DUP2 MSTORE REVERT JUMPDEST POP CALLVALUE PUSH2 0x2EA JUMPI DUP1 PUSH1 0x3 NOT CALLDATASIZE ADD SLT PUSH2 0x2EA JUMPI PUSH1 0x20 PUSH1 0x1 PUSH1 0x1 PUSH1 0xA0 SHL SUB PUSH1 0xD SLOAD PUSH1 0x10 SHR AND PUSH1 0x40 MLOAD SWAP1 DUP2 MSTORE RETURN JUMPDEST POP CALLVALUE PUSH2 0x2EA JUMPI PUSH1 0x20 CALLDATASIZE PUSH1 0x3 NOT ADD SLT PUSH2 0x2EA JUMPI PUSH1 0x4 CALLDATALOAD PUSH2 0x2077 PUSH2 0x2B77 JUMP JUMPDEST TIMESTAMP DUP2 GT ISZERO PUSH2 0x2147 JUMPI PUSH1 0x7 SLOAD DUP2 GT ISZERO PUSH2 0x20DD JUMPI PUSH1 0x8 SLOAD DUP2 LT ISZERO PUSH2 0x2099 JUMPI PUSH1 0x7 SSTORE DUP1 RETURN JUMPDEST PUSH1 0x64 PUSH1 0x40 MLOAD PUSH3 0x461BCD PUSH1 0xE5 SHL DUP2 MSTORE PUSH1 0x20 PUSH1 0x4 DUP3 ADD MSTORE PUSH1 0x20 PUSH1 0x24 DUP3 ADD MSTORE PUSH32 0x456E642064617465206D757374206265206265666F7265206D61747572697479 PUSH1 0x44 DUP3 ADD MSTORE REVERT JUMPDEST PUSH1 0x84 PUSH1 0x40 MLOAD PUSH3 0x461BCD PUSH1 0xE5 SHL DUP2 MSTORE PUSH1 0x20 PUSH1 0x4 DUP3 ADD MSTORE PUSH1 0x22 PUSH1 0x24 DUP3 ADD MSTORE PUSH32 0x4E657720656E642064617465206D757374206265206166746572206375727265 PUSH1 0x44 DUP3 ADD MSTORE PUSH32 0x6E74000000000000000000000000000000000000000000000000000000000000 PUSH1 0x64 DUP3 ADD MSTORE REVERT JUMPDEST PUSH1 0x64 PUSH1 0x40 MLOAD PUSH3 0x461BCD PUSH1 0xE5 SHL DUP2 MSTORE PUSH1 0x20 PUSH1 0x4 DUP3 ADD MSTORE PUSH1 0x10 PUSH1 0x24 DUP3 ADD MSTORE PUSH32 0x496E76616C696420656E64206461746500000000000000000000000000000000 PUSH1 0x44 DUP3 ADD MSTORE REVERT JUMPDEST POP CALLVALUE PUSH2 0x2EA JUMPI PUSH1 0x40 CALLDATASIZE PUSH1 0x3 NOT ADD SLT PUSH2 0x2EA JUMPI PUSH2 0x21A5 PUSH2 0x2B3E JUMP JUMPDEST CALLER PUSH1 0x1 PUSH1 0x1 PUSH1 0xA0 SHL SUB DUP3 AND SUB PUSH2 0x21C1 JUMPI PUSH2 0x789 SWAP1 PUSH1 0x4 CALLDATALOAD PUSH2 0x2ED1 JUMP JUMPDEST PUSH1 0x4 PUSH1 0x40 MLOAD PUSH32 0x6697B23200000000000000000000000000000000000000000000000000000000 DUP2 MSTORE REVERT JUMPDEST POP CALLVALUE PUSH2 0x2EA JUMPI PUSH1 0x40 CALLDATASIZE PUSH1 0x3 NOT ADD SLT PUSH2 0x2EA JUMPI PUSH2 0x789 PUSH1 0x4 CALLDATALOAD PUSH2 0x220B PUSH2 0x2B3E JUMP JUMPDEST SWAP1 DUP1 DUP5 MSTORE DUP4 PUSH1 0x20 MSTORE PUSH2 0x2223 PUSH1 0x1 PUSH1 0x40 DUP7 KECCAK256 ADD SLOAD PUSH2 0x2C44 JUMP JUMPDEST PUSH2 0x2DAC JUMP JUMPDEST POP CALLVALUE PUSH2 0x2EA JUMPI DUP1 PUSH1 0x3 NOT CALLDATASIZE ADD SLT PUSH2 0x2EA JUMPI PUSH1 0x20 PUSH1 0x10 SLOAD PUSH1 0x40 MLOAD SWAP1 DUP2 MSTORE RETURN JUMPDEST POP CALLVALUE PUSH2 0x2EA JUMPI PUSH1 0x20 CALLDATASIZE PUSH1 0x3 NOT ADD SLT PUSH2 0x2EA JUMPI PUSH1 0x1 PUSH1 0x40 PUSH1 0x20 SWAP3 PUSH1 0x4 CALLDATALOAD DUP2 MSTORE DUP1 DUP5 MSTORE KECCAK256 ADD SLOAD PUSH1 0x40 MLOAD SWAP1 DUP2 MSTORE RETURN JUMPDEST POP CALLVALUE PUSH2 0x2EA JUMPI DUP1 PUSH1 0x3 NOT CALLDATASIZE ADD SLT PUSH2 0x2EA JUMPI PUSH1 0x20 PUSH1 0xFF PUSH1 0xD SLOAD AND PUSH1 0x40 MLOAD SWAP1 ISZERO ISZERO DUP2 MSTORE RETURN JUMPDEST POP CALLVALUE PUSH2 0x2EA JUMPI PUSH1 0x40 CALLDATASIZE PUSH1 0x3 NOT ADD SLT PUSH2 0x2EA JUMPI PUSH2 0x22AF PUSH2 0x2B28 JUMP JUMPDEST PUSH1 0x24 CALLDATALOAD SWAP1 DUP2 ISZERO ISZERO DUP1 SWAP3 SUB PUSH2 0x168C JUMPI PUSH1 0x20 PUSH1 0x1 PUSH1 0x1 PUSH1 0xA0 SHL SUB PUSH32 0x91AD45A5CE97C5EEE55FA01496772AFEFC7F0757ED9EAC59064E642690509DFB SWAP3 PUSH2 0x22F1 PUSH2 0x2B77 JUMP JUMPDEST AND SWAP3 DUP4 DUP6 MSTORE PUSH1 0x14 DUP3 MSTORE PUSH1 0x40 DUP6 KECCAK256 PUSH1 0xFF NOT DUP2 SLOAD AND PUSH1 0xFF DUP4 AND OR SWAP1 SSTORE PUSH1 0x40 MLOAD SWAP1 DUP2 MSTORE LOG2 DUP1 RETURN JUMPDEST POP CALLVALUE PUSH2 0x2EA JUMPI PUSH2 0x220 DUP1 PUSH1 0x3 NOT CALLDATASIZE ADD SLT PUSH2 0x116C JUMPI PUSH1 0x40 MLOAD SWAP1 DUP2 ADD DUP2 DUP2 LT PUSH8 0xFFFFFFFFFFFFFFFF DUP3 GT OR PUSH2 0x29A2 JUMPI PUSH1 0x40 MSTORE PUSH2 0x234D PUSH2 0x2B28 JUMP JUMPDEST DUP2 MSTORE PUSH1 0x24 CALLDATALOAD PUSH1 0x20 DUP3 ADD MSTORE PUSH1 0x44 CALLDATALOAD PUSH1 0x40 DUP3 ADD MSTORE PUSH1 0x64 CALLDATALOAD PUSH1 0x60 DUP3 ADD MSTORE PUSH1 0x84 CALLDATALOAD PUSH1 0x80 DUP3 ADD MSTORE PUSH1 0xA4 CALLDATALOAD PUSH1 0xA0 DUP3 ADD MSTORE PUSH1 0xC4 CALLDATALOAD DUP1 ISZERO ISZERO DUP2 SUB PUSH2 0x168C JUMPI PUSH1 0xC0 DUP3 ADD MSTORE PUSH1 0xE4 CALLDATALOAD PUSH1 0xE0 DUP3 ADD MSTORE PUSH2 0x104 CALLDATALOAD PUSH2 0x100 DUP3 ADD MSTORE PUSH1 0x1 PUSH1 0x1 PUSH1 0xA0 SHL SUB PUSH2 0x124 CALLDATALOAD AND PUSH2 0x124 CALLDATALOAD SUB PUSH2 0x116C JUMPI PUSH2 0x124 CALLDATALOAD PUSH2 0x120 DUP3 ADD MSTORE PUSH2 0x144 CALLDATALOAD PUSH1 0x1 PUSH1 0x1 PUSH1 0xA0 SHL SUB DUP2 AND DUP2 SUB PUSH2 0x168C JUMPI PUSH2 0x140 DUP3 ADD MSTORE PUSH2 0x164 CALLDATALOAD ISZERO ISZERO PUSH2 0x164 CALLDATALOAD SUB PUSH2 0x116C JUMPI PUSH2 0x164 CALLDATALOAD PUSH2 0x160 DUP3 ADD MSTORE PUSH1 0x1 PUSH1 0x1 PUSH1 0xA0 SHL SUB PUSH2 0x184 CALLDATALOAD AND PUSH2 0x184 CALLDATALOAD SUB PUSH2 0x116C JUMPI PUSH2 0x184 CALLDATALOAD PUSH2 0x180 DUP3 ADD MSTORE PUSH1 0x1 PUSH1 0x1 PUSH1 0xA0 SHL SUB PUSH2 0x1A4 CALLDATALOAD AND PUSH2 0x1A4 CALLDATALOAD SUB PUSH2 0x116C JUMPI PUSH2 0x1A4 CALLDATALOAD PUSH2 0x1A0 DUP3 ADD MSTORE PUSH2 0x1C4 CALLDATALOAD PUSH1 0x1 PUSH1 0x1 PUSH1 0xA0 SHL SUB DUP2 AND DUP2 SUB PUSH2 0x168C JUMPI PUSH2 0x1C0 DUP3 ADD MSTORE PUSH2 0x1E4 CALLDATALOAD PUSH2 0x1E0 DUP3 ADD MSTORE PUSH1 0x3 PUSH2 0x204 CALLDATALOAD LT ISZERO PUSH2 0x116C JUMPI PUSH2 0x204 CALLDATALOAD PUSH2 0x200 DUP3 ADD MSTORE PUSH1 0x11 SLOAD PUSH1 0xFF DUP2 PUSH1 0x8 SHR AND PUSH2 0x295E JUMPI PUSH1 0x1 PUSH1 0x1 PUSH1 0xA0 SHL SUB DUP3 MLOAD AND ISZERO PUSH2 0x291A JUMPI PUSH1 0x1 PUSH1 0x1 PUSH1 0xA0 SHL SUB PUSH2 0x120 DUP4 ADD MLOAD AND ISZERO PUSH2 0x28D6 JUMPI PUSH1 0x1 PUSH1 0x1 PUSH1 0xA0 SHL SUB PUSH2 0x140 DUP4 ADD MLOAD AND ISZERO PUSH2 0x2892 JUMPI PUSH1 0x1 PUSH1 0x1 PUSH1 0xA0 SHL SUB PUSH2 0x1A0 DUP4 ADD MLOAD AND ISZERO PUSH2 0x2828 JUMPI PUSH1 0xE0 DUP3 ADD MLOAD ISZERO PUSH2 0x27E4 JUMPI PUSH2 0x100 DUP3 ADD MLOAD ISZERO PUSH2 0x27A0 JUMPI PUSH2 0x24EA PUSH1 0x20 DUP4 ADD MLOAD PUSH1 0x40 DUP5 ADD MLOAD LT ISZERO PUSH2 0x2F47 JUMP JUMPDEST PUSH1 0x60 DUP3 ADD MLOAD TIMESTAMP GT PUSH2 0x275C JUMPI PUSH1 0x60 DUP3 ADD MLOAD PUSH1 0x80 DUP4 ADD MLOAD GT ISZERO PUSH2 0x26F2 JUMPI PUSH1 0x1 PUSH1 0x1 PUSH1 0xA0 SHL SUB PUSH2 0x1C0 DUP4 ADD MLOAD AND ISZERO PUSH2 0x26AE JUMPI PUSH1 0x1 PUSH1 0x1 PUSH1 0xA0 SHL SUB DUP3 MLOAD AND PUSH1 0x1 PUSH1 0x1 PUSH1 0xA0 SHL SUB NOT PUSH1 0x3 SLOAD AND OR PUSH1 0x3 SSTORE PUSH1 0x20 DUP3 ADD MLOAD PUSH1 0x4 SSTORE PUSH1 0x40 DUP3 ADD MLOAD PUSH1 0x5 SSTORE PUSH1 0x60 DUP3 ADD MLOAD PUSH1 0x6 SSTORE PUSH1 0x80 DUP3 ADD MLOAD PUSH1 0x7 SSTORE PUSH1 0xA0 DUP3 ADD MLOAD PUSH1 0x8 SSTORE PUSH1 0xC0 DUP3 ADD MLOAD ISZERO ISZERO PUSH1 0xFF NOT SWAP1 PUSH1 0xFF DUP3 PUSH1 0x9 SLOAD AND SWAP2 AND OR PUSH1 0x9 SSTORE PUSH1 0xE0 DUP4 ADD MLOAD PUSH1 0xA SSTORE PUSH2 0x100 DUP4 ADD MLOAD PUSH1 0x13 SSTORE PUSH1 0x1 PUSH1 0x1 PUSH1 0xA0 SHL SUB PUSH2 0x140 DUP5 ADD MLOAD AND PUSH1 0x1 PUSH1 0x1 PUSH1 0xA0 SHL SUB NOT PUSH1 0x12 SLOAD AND OR PUSH1 0x12 SSTORE PUSH2 0x160 DUP4 ADD MLOAD ISZERO ISZERO PUSH1 0xD SLOAD PUSH32 0xFFFFFFFFFFFFFFFFFFFF000000000000000000000000000000000000000000FF PUSH2 0xFF00 PUSH22 0xFFFFFFFFFFFFFFFFFFFFFFFFFFFFFFFFFFFFFFFF0000 PUSH2 0x180 DUP9 ADD MLOAD PUSH1 0x10 SHL AND SWAP4 PUSH1 0x8 SHL AND SWAP2 AND OR OR PUSH1 0xD SSTORE PUSH1 0x1 PUSH1 0x1 PUSH1 0xA0 SHL SUB PUSH2 0x1A0 DUP5 ADD MLOAD AND PUSH1 0x1 PUSH1 0x1 PUSH1 0xA0 SHL SUB NOT PUSH1 0xE SLOAD AND OR PUSH1 0xE SSTORE PUSH1 0x1 PUSH1 0x1 PUSH1 0xA0 SHL SUB PUSH2 0x1C0 DUP5 ADD MLOAD AND PUSH1 0x1 PUSH1 0x1 PUSH1 0xA0 SHL SUB NOT PUSH1 0xF SLOAD AND OR PUSH1 0xF SSTORE PUSH2 0x1E0 DUP4 ADD MLOAD PUSH1 0x10 SSTORE PUSH2 0x200 DUP4 ADD MLOAD PUSH1 0x3 DUP2 LT ISZERO PUSH2 0x269A JUMPI SWAP3 PUSH1 0x1 PUSH1 0x1 PUSH1 0xA0 SHL SUB SWAP3 PUSH2 0x120 SWAP3 PUSH1 0xFF PUSH2 0x2687 SWAP7 AND SWAP2 AND OR PUSH1 0x11 SSTORE PUSH2 0x267E CALLER PUSH2 0x2C6A JUMP JUMPDEST POP ADD MLOAD AND PUSH2 0x2CFA JUMP JUMPDEST POP PUSH2 0x100 PUSH2 0xFF00 NOT PUSH1 0x11 SLOAD AND OR PUSH1 0x11 SSTORE DUP1 RETURN JUMPDEST PUSH1 0x24 DUP6 PUSH4 0x4E487B71 PUSH1 0xE0 SHL DUP2 MSTORE PUSH1 0x21 PUSH1 0x4 MSTORE REVERT JUMPDEST PUSH1 0x64 PUSH1 0x40 MLOAD PUSH3 0x461BCD PUSH1 0xE5 SHL DUP2 MSTORE PUSH1 0x20 PUSH1 0x4 DUP3 ADD MSTORE PUSH1 0x1C PUSH1 0x24 DUP3 ADD MSTORE PUSH32 0x496E76616C6964207061796F757420746F6B656E206164647265737300000000 PUSH1 0x44 DUP3 ADD MSTORE REVERT JUMPDEST PUSH1 0x84 PUSH1 0x40 MLOAD PUSH3 0x461BCD PUSH1 0xE5 SHL DUP2 MSTORE PUSH1 0x20 PUSH1 0x4 DUP3 ADD MSTORE PUSH1 0x22 PUSH1 0x24 DUP3 ADD MSTORE PUSH32 0x53746172742064617465206D757374206265206265666F726520656E64206461 PUSH1 0x44 DUP3 ADD MSTORE PUSH32 0x7465000000000000000000000000000000000000000000000000000000000000 PUSH1 0x64 DUP3 ADD MSTORE REVERT JUMPDEST PUSH1 0x64 PUSH1 0x40 MLOAD PUSH3 0x461BCD PUSH1 0xE5 SHL DUP2 MSTORE PUSH1 0x20 PUSH1 0x4 DUP3 ADD MSTORE PUSH1 0x20 PUSH1 0x24 DUP3 ADD MSTORE PUSH32 0x53746172742064617465206D75737420626520696E2074686520667574757265 PUSH1 0x44 DUP3 ADD MSTORE REVERT JUMPDEST PUSH1 0x64 PUSH1 0x40 MLOAD PUSH3 0x461BCD PUSH1 0xE5 SHL DUP2 MSTORE PUSH1 0x20 PUSH1 0x4 DUP3 ADD MSTORE PUSH1 0x1C PUSH1 0x24 DUP3 ADD MSTORE PUSH32 0x546F6B656E207072696365206D75737420626520706F73697469766500000000 PUSH1 0x44 DUP3 ADD MSTORE REVERT JUMPDEST PUSH1 0x64 PUSH1 0x40 MLOAD PUSH3 0x461BCD PUSH1 0xE5 SHL DUP2 MSTORE PUSH1 0x20 PUSH1 0x4 DUP3 ADD MSTORE PUSH1 0x20 PUSH1 0x24 DUP3 ADD MSTORE PUSH32 0x46756E6472616973696E6720636170206D75737420626520706F736974697665 PUSH1 0x44 DUP3 ADD MSTORE REVERT JUMPDEST PUSH1 0x84 PUSH1 0x40 MLOAD PUSH3 0x461BCD PUSH1 0xE5 SHL DUP2 MSTORE PUSH1 0x20 PUSH1 0x4 DUP3 ADD MSTORE PUSH1 0x22 PUSH1 0x24 DUP3 ADD MSTORE PUSH32 0x496E76616C696420696E766573746D656E74206D616E61676572206164647265 PUSH1 0x44 DUP3 ADD MSTORE PUSH32 0x7373000000000000000000000000000000000000000000000000000000000000 PUSH1 0x64 DUP3 ADD MSTORE REVERT JUMPDEST PUSH1 0x64 PUSH1 0x40 MLOAD PUSH3 0x461BCD PUSH1 0xE5 SHL DUP2 MSTORE PUSH1 0x20 PUSH1 0x4 DUP3 ADD MSTORE PUSH1 0x16 PUSH1 0x24 DUP3 ADD MSTORE PUSH32 0x496E76616C696420657363726F77206164647265737300000000000000000000 PUSH1 0x44 DUP3 ADD MSTORE REVERT JUMPDEST PUSH1 0x64 PUSH1 0x40 MLOAD PUSH3 0x461BCD PUSH1 0xE5 SHL DUP2 MSTORE PUSH1 0x20 PUSH1 0x4 DUP3 ADD MSTORE PUSH1 0x13 PUSH1 0x24 DUP3 ADD MSTORE PUSH32 0x496E76616C696420746F6B656E206F776E657200000000000000000000000000 PUSH1 0x44 DUP3 ADD MSTORE REVERT JUMPDEST PUSH1 0x64 PUSH1 0x40 MLOAD PUSH3 0x461BCD PUSH1 0xE5 SHL DUP2 MSTORE PUSH1 0x20 PUSH1 0x4 DUP3 ADD MSTORE PUSH1 0x12 PUSH1 0x24 DUP3 ADD MSTORE PUSH32 0x496E76616C69642073616C6520746F6B656E0000000000000000000000000000 PUSH1 0x44 DUP3 ADD MSTORE REVERT JUMPDEST PUSH1 0x64 PUSH1 0x40 MLOAD PUSH3 0x461BCD PUSH1 0xE5 SHL DUP2 MSTORE PUSH1 0x20 PUSH1 0x4 DUP3 ADD MSTORE PUSH1 0x13 PUSH1 0x24 DUP3 ADD MSTORE PUSH32 0x416C726561647920696E697469616C697A656400000000000000000000000000 PUSH1 0x44 DUP3 ADD MSTORE REVERT JUMPDEST PUSH1 0x24 DUP4 PUSH4 0x4E487B71 PUSH1 0xE0 SHL DUP2 MSTORE PUSH1 0x41 PUSH1 0x4 MSTORE REVERT JUMPDEST POP CALLVALUE PUSH2 0x2EA JUMPI DUP1 PUSH1 0x3 NOT CALLDATASIZE ADD SLT PUSH2 0x2EA JUMPI PUSH1 0x20 PUSH1 0x1 PUSH1 0x1 PUSH1 0xA0 SHL SUB PUSH1 0x12 SLOAD AND PUSH1 0x40 MLOAD SWAP1 DUP2 MSTORE RETURN JUMPDEST POP CALLVALUE PUSH2 0x2EA JUMPI DUP1 PUSH1 0x3 NOT CALLDATASIZE ADD SLT PUSH2 0x2EA JUMPI PUSH1 0x20 PUSH1 0xFF PUSH1 0x9 SLOAD AND PUSH1 0x40 MLOAD SWAP1 ISZERO ISZERO DUP2 MSTORE RETURN JUMPDEST POP CALLVALUE PUSH2 0x2EA JUMPI DUP1 PUSH1 0x3 NOT CALLDATASIZE ADD SLT PUSH2 0x2EA JUMPI PUSH1 0x20 PUSH1 0x6 SLOAD PUSH1 0x40 MLOAD SWAP1 DUP2 MSTORE RETURN JUMPDEST POP CALLVALUE PUSH2 0x2EA JUMPI PUSH1 0x20 CALLDATASIZE PUSH1 0x3 NOT ADD SLT PUSH2 0x2EA JUMPI PUSH1 0x4 CALLDATALOAD PUSH32 0xFFFFFFFF00000000000000000000000000000000000000000000000000000000 DUP2 AND DUP1 SWAP2 SUB PUSH2 0x116C JUMPI DUP1 PUSH32 0x7965DB0B00000000000000000000000000000000000000000000000000000000 PUSH1 0x20 SWAP3 EQ SWAP1 DUP2 ISZERO PUSH2 0x2A96 JUMPI JUMPDEST POP PUSH1 0x40 MLOAD SWAP1 ISZERO ISZERO DUP2 MSTORE RETURN JUMPDEST PUSH32 0x1FFC9A700000000000000000000000000000000000000000000000000000000 SWAP2 POP EQ DUP3 PUSH2 0x2A8B JUMP JUMPDEST SWAP1 POP CALLVALUE PUSH2 0x116C JUMPI DUP2 PUSH1 0x3 NOT CALLDATASIZE ADD SLT PUSH2 0x116C JUMPI PUSH1 0x20 SWAP1 PUSH1 0x5 SLOAD DUP2 MSTORE RETURN JUMPDEST PUSH8 0xFFFFFFFFFFFFFFFF DUP2 GT PUSH2 0x2AF0 JUMPI PUSH1 0x40 MSTORE JUMP JUMPDEST PUSH4 0x4E487B71 PUSH1 0xE0 SHL PUSH1 0x0 MSTORE PUSH1 0x41 PUSH1 0x4 MSTORE PUSH1 0x24 PUSH1 0x0 REVERT JUMPDEST SWAP1 PUSH1 0x1F DUP1 NOT SWAP2 ADD AND DUP2 ADD SWAP1 DUP2 LT PUSH8 0xFFFFFFFFFFFFFFFF DUP3 GT OR PUSH2 0x2AF0 JUMPI PUSH1 0x40 MSTORE JUMP JUMPDEST PUSH1 0x4 CALLDATALOAD SWAP1 PUSH1 0x1 PUSH1 0x1 PUSH1 0xA0 SHL SUB DUP3 AND DUP3 SUB PUSH2 0x5F2 JUMPI JUMP JUMPDEST PUSH1 0x24 CALLDATALOAD SWAP1 PUSH1 0x1 PUSH1 0x1 PUSH1 0xA0 SHL SUB DUP3 AND DUP3 SUB PUSH2 0x5F2 JUMPI JUMP JUMPDEST SWAP1 PUSH1 0x3 DUP3 LT ISZERO PUSH2 0x2B61 JUMPI MSTORE JUMP JUMPDEST PUSH4 0x4E487B71 PUSH1 0xE0 SHL PUSH1 0x0 MSTORE PUSH1 0x21 PUSH1 0x4 MSTORE PUSH1 0x24 PUSH1 0x0 REVERT JUMPDEST CALLER PUSH1 0x0 SWAP1 DUP2 MSTORE PUSH32 0xAD3228B676F7D3CD4284A5443F17F1962B36E491B30A40B2405849E597BA5FB5 PUSH1 0x20 MSTORE PUSH1 0x40 DUP2 KECCAK256 SLOAD PUSH1 0xFF AND ISZERO PUSH2 0x2BB1 JUMPI POP JUMP JUMPDEST PUSH1 0x44 SWAP1 PUSH1 0x40 MLOAD SWAP1 PUSH32 0xE2517D3F00000000000000000000000000000000000000000000000000000000 DUP3 MSTORE CALLER PUSH1 0x4 DUP4 ADD MSTORE PUSH1 0x24 DUP3 ADD MSTORE REVERT JUMPDEST CALLER PUSH1 0x0 SWAP1 DUP2 MSTORE PUSH32 0x7DFC0114FC2B0320947240CBD60A9FFC193468A941C37441E641A928A8C116D5 PUSH1 0x20 MSTORE PUSH1 0x40 SWAP1 KECCAK256 SLOAD PUSH32 0x35369B3A7BB98C90641A907C2FD643EA781341EBA72CCFFD47CB018C128C48C3 SWAP1 PUSH1 0xFF AND ISZERO PUSH2 0x2BB1 JUMPI POP JUMP JUMPDEST DUP1 PUSH1 0x0 MSTORE PUSH1 0x0 PUSH1 0x20 MSTORE PUSH1 0x40 PUSH1 0x0 KECCAK256 CALLER PUSH1 0x0 MSTORE PUSH1 0x20 MSTORE PUSH1 0xFF PUSH1 0x40 PUSH1 0x0 KECCAK256 SLOAD AND ISZERO PUSH2 0x2BB1 JUMPI POP JUMP JUMPDEST PUSH1 0x1 PUSH1 0x1 PUSH1 0xA0 SHL SUB AND PUSH1 0x0 DUP2 DUP2 MSTORE PUSH32 0xAD3228B676F7D3CD4284A5443F17F1962B36E491B30A40B2405849E597BA5FB5 PUSH1 0x20 MSTORE PUSH1 0x40 DUP2 KECCAK256 SLOAD SWAP1 SWAP2 SWAP1 PUSH1 0xFF AND PUSH2 0x2CF6 JUMPI DUP2 DUP1 MSTORE DUP2 PUSH1 0x20 MSTORE PUSH1 0x40 DUP3 KECCAK256 DUP2 DUP4 MSTORE PUSH1 0x20 MSTORE PUSH1 0x40 DUP3 KECCAK256 PUSH1 0x1 PUSH1 0xFF NOT DUP3 SLOAD AND OR SWAP1 SSTORE CALLER SWAP2 PUSH32 0x2F8788117E7EFF1D82E926EC794901D17C78024A50270940304540A733656F0D DUP2 DUP1 LOG4 PUSH1 0x1 SWAP1 JUMP JUMPDEST POP SWAP1 JUMP JUMPDEST PUSH1 0x1 PUSH1 0x1 PUSH1 0xA0 SHL SUB AND PUSH1 0x0 DUP2 DUP2 MSTORE PUSH32 0x7DFC0114FC2B0320947240CBD60A9FFC193468A941C37441E641A928A8C116D5 PUSH1 0x20 MSTORE PUSH1 0x40 DUP2 KECCAK256 SLOAD SWAP1 SWAP2 SWAP1 PUSH32 0x35369B3A7BB98C90641A907C2FD643EA781341EBA72CCFFD47CB018C128C48C3 SWAP1 PUSH1 0xFF AND PUSH2 0x2DA7 JUMPI DUP1 DUP4 MSTORE DUP3 PUSH1 0x20 MSTORE PUSH1 0x40 DUP4 KECCAK256 DUP3 DUP5 MSTORE PUSH1 0x20 MSTORE PUSH1 0x40 DUP4 KECCAK256 PUSH1 0x1 PUSH1 0xFF NOT DUP3 SLOAD AND OR SWAP1 SSTORE PUSH32 0x2F8788117E7EFF1D82E926EC794901D17C78024A50270940304540A733656F0D CALLER SWAP4 DUP1 LOG4 PUSH1 0x1 SWAP1 JUMP JUMPDEST POP POP SWAP1 JUMP JUMPDEST SWAP1 PUSH1 0x0 SWAP2 DUP1 DUP4 MSTORE DUP3 PUSH1 0x20 MSTORE PUSH1 0x1 PUSH1 0x1 PUSH1 0xA0 SHL SUB PUSH1 0x40 DUP5 KECCAK256 SWAP3 AND SWAP2 DUP3 DUP5 MSTORE PUSH1 0x20 MSTORE PUSH1 0xFF PUSH1 0x40 DUP5 KECCAK256 SLOAD AND ISZERO PUSH1 0x0 EQ PUSH2 0x2DA7 JUMPI DUP1 DUP4 MSTORE DUP3 PUSH1 0x20 MSTORE PUSH1 0x40 DUP4 KECCAK256 DUP3 DUP5 MSTORE PUSH1 0x20 MSTORE PUSH1 0x40 DUP4 KECCAK256 PUSH1 0x1 PUSH1 0xFF NOT DUP3 SLOAD AND OR SWAP1 SSTORE PUSH32 0x2F8788117E7EFF1D82E926EC794901D17C78024A50270940304540A733656F0D CALLER SWAP4 DUP1 LOG4 PUSH1 0x1 SWAP1 JUMP JUMPDEST PUSH1 0x1 PUSH1 0x1 PUSH1 0xA0 SHL SUB AND PUSH1 0x0 DUP2 DUP2 MSTORE PUSH32 0x7DFC0114FC2B0320947240CBD60A9FFC193468A941C37441E641A928A8C116D5 PUSH1 0x20 MSTORE PUSH1 0x40 DUP2 KECCAK256 SLOAD SWAP1 SWAP2 SWAP1 PUSH32 0x35369B3A7BB98C90641A907C2FD643EA781341EBA72CCFFD47CB018C128C48C3 SWAP1 PUSH1 0xFF AND ISZERO PUSH2 0x2DA7 JUMPI DUP1 DUP4 MSTORE DUP3 PUSH1 0x20 MSTORE PUSH1 0x40 DUP4 KECCAK256 DUP3 DUP5 MSTORE PUSH1 0x20 MSTORE PUSH1 0x40 DUP4 KECCAK256 PUSH1 0xFF NOT DUP2 SLOAD AND SWAP1 SSTORE PUSH32 0xF6391F5C32D9C69D2A47EA670B442974B53935D1EDC7FD64EB21E047A839171B CALLER SWAP4 DUP1 LOG4 PUSH1 0x1 SWAP1 JUMP JUMPDEST SWAP1 PUSH1 0x0 SWAP2 DUP1 DUP4 MSTORE DUP3 PUSH1 0x20 MSTORE PUSH1 0x1 PUSH1 0x1 PUSH1 0xA0 SHL SUB PUSH1 0x40 DUP5 KECCAK256 SWAP3 AND SWAP2 DUP3 DUP5 MSTORE PUSH1 0x20 MSTORE PUSH1 0xFF PUSH1 0x40 DUP5 KECCAK256 SLOAD AND PUSH1 0x0 EQ PUSH2 0x2DA7 JUMPI DUP1 DUP4 MSTORE DUP3 PUSH1 0x20 MSTORE PUSH1 0x40 DUP4 KECCAK256 DUP3 DUP5 MSTORE PUSH1 0x20 MSTORE PUSH1 0x40 DUP4 KECCAK256 PUSH1 0xFF NOT DUP2 SLOAD AND SWAP1 SSTORE PUSH32 0xF6391F5C32D9C69D2A47EA670B442974B53935D1EDC7FD64EB21E047A839171B CALLER SWAP4 DUP1 LOG4 PUSH1 0x1 SWAP1 JUMP JUMPDEST ISZERO PUSH2 0x2F4E JUMPI JUMP JUMPDEST PUSH1 0x64 PUSH1 0x40 MLOAD PUSH3 0x461BCD PUSH1 0xE5 SHL DUP2 MSTORE PUSH1 0x20 PUSH1 0x4 DUP3 ADD MSTORE PUSH1 0x14 PUSH1 0x24 DUP3 ADD MSTORE PUSH32 0x4D696E203E206D617820696E766573746D656E74000000000000000000000000 PUSH1 0x44 DUP3 ADD MSTORE REVERT JUMPDEST PUSH1 0xFF PUSH1 0x1 SLOAD AND PUSH2 0x2F9E JUMPI JUMP JUMPDEST PUSH1 0x4 PUSH1 0x40 MLOAD PUSH32 0xD93C066500000000000000000000000000000000000000000000000000000000 DUP2 MSTORE REVERT JUMPDEST SWAP2 SWAP1 DUP3 ADD DUP1 SWAP3 GT PUSH2 0x2FD5 JUMPI JUMP JUMPDEST PUSH4 0x4E487B71 PUSH1 0xE0 SHL PUSH1 0x0 MSTORE PUSH1 0x11 PUSH1 0x4 MSTORE PUSH1 0x24 PUSH1 0x0 REVERT JUMPDEST DUP2 ISZERO PUSH2 0x2FF5 JUMPI DIV SWAP1 JUMP JUMPDEST PUSH4 0x4E487B71 PUSH1 0xE0 SHL PUSH1 0x0 MSTORE PUSH1 0x12 PUSH1 0x4 MSTORE PUSH1 0x24 PUSH1 0x0 REVERT JUMPDEST ISZERO PUSH2 0x3012 JUMPI JUMP JUMPDEST PUSH1 0x64 PUSH1 0x40 MLOAD PUSH3 0x461BCD PUSH1 0xE5 SHL DUP2 MSTORE PUSH1 0x20 PUSH1 0x4 DUP3 ADD MSTORE PUSH1 0x18 PUSH1 0x24 DUP3 ADD MSTORE PUSH32 0x496E73756666696369656E742073616C6520746F6B656E730000000000000000 PUSH1 0x44 DUP3 ADD MSTORE REVERT JUMPDEST SWAP1 DUP2 PUSH1 0x20 SWAP2 SUB SLT PUSH2 0x5F2 JUMPI MLOAD DUP1 ISZERO ISZERO DUP2 SUB PUSH2 0x5F2 JUMPI SWAP1 JUMP JUMPDEST PUSH1 0x40 SWAP1 PUSH2 0x3095 SWAP4 SWAP6 SWAP5 SWAP3 SWAP6 PUSH1 0x1 PUSH1 0x1 PUSH1 0xA0 SHL SUB PUSH1 0x60 DUP4 ADD SWAP8 AND DUP3 MSTORE PUSH1 0x20 DUP3 ADD MSTORE ADD SWAP1 PUSH2 0x2B54 JUMP JUMPDEST JUMP JUMPDEST PUSH1 0x2 DUP1 SLOAD EQ PUSH2 0x30A6 JUMPI PUSH1 0x2 DUP1 SSTORE JUMP JUMPDEST PUSH1 0x4 PUSH1 0x40 MLOAD PUSH32 0x3EE5AEB500000000000000000000000000000000000000000000000000000000 DUP2 MSTORE REVERT JUMPDEST ISZERO PUSH2 0x30D7 JUMPI JUMP JUMPDEST PUSH1 0x64 PUSH1 0x40 MLOAD PUSH3 0x461BCD PUSH1 0xE5 SHL DUP2 MSTORE PUSH1 0x20 PUSH1 0x4 DUP3 ADD MSTORE PUSH1 0xD PUSH1 0x24 DUP3 ADD MSTORE PUSH32 0x496E76616C696420707269636500000000000000000000000000000000000000 PUSH1 0x44 DUP3 ADD MSTORE REVERT JUMPDEST SWAP2 SWAP1 DUP3 SUB SWAP2 DUP3 GT PUSH2 0x2FD5 JUMPI JUMP JUMPDEST ISZERO PUSH2 0x312F JUMPI JUMP JUMPDEST PUSH1 0x64 PUSH1 0x40 MLOAD PUSH3 0x461BCD PUSH1 0xE5 SHL DUP2 MSTORE PUSH1 0x20 PUSH1 0x4 DUP3 ADD MSTORE PUSH1 0xC PUSH1 0x24 DUP3 ADD MSTORE PUSH32 0x5A65726F20616464726573730000000000000000000000000000000000000000 PUSH1 0x44 DUP3 ADD MSTORE REVERT INVALID LOG1 PUSH5 0x736F6C6343 STOP ADDMOD EQ STOP EXP PUSH1 0x40 PUSH2 0x120 DUP2 MSTORE CALLVALUE PUSH3 0x4ED JUMPI PUSH3 0x26C6 SWAP1 DUP2 CODESIZE SUB DUP1 PUSH3 0x20 DUP2 PUSH3 0x4F2 JUMP JUMPDEST SWAP4 DUP5 CODECOPY DUP3 ADD SWAP2 PUSH1 0x20 DUP2 DUP5 SUB SLT PUSH3 0x4ED JUMPI DUP1 MLOAD SWAP1 PUSH1 0x1 PUSH1 0x1 PUSH1 0x40 SHL SUB DUP3 GT PUSH3 0x4ED JUMPI ADD PUSH1 0xE0 DUP2 DUP5 SUB SLT PUSH3 0x4ED JUMPI DUP2 MLOAD SWAP3 PUSH1 0xE0 DUP5 ADD PUSH1 0x1 PUSH1 0x1 PUSH1 0x40 SHL SUB DUP2 GT DUP6 DUP3 LT OR PUSH3 0x3C4 JUMPI DUP4 MSTORE DUP2 MLOAD PUSH1 0x1 PUSH1 0x1 PUSH1 0x40 SHL SUB DUP2 GT PUSH3 0x4ED JUMPI DUP2 PUSH3 0x8A SWAP2 DUP5 ADD PUSH3 0x518 JUMP JUMPDEST DUP5 MSTORE PUSH1 0x20 DUP3 ADD MLOAD SWAP1 PUSH1 0x1 PUSH1 0x1 PUSH1 0x40 SHL SUB DUP3 GT PUSH3 0x4ED JUMPI PUSH3 0xAE SWAP2 DUP4 ADD PUSH3 0x518 JUMP JUMPDEST SWAP3 DUP4 PUSH1 0x20 DUP3 ADD MSTORE PUSH3 0xC2 DUP4 DUP4 ADD PUSH3 0x58A JUMP JUMPDEST DUP4 DUP3 ADD MSTORE PUSH3 0xD4 PUSH1 0x60 DUP4 ADD PUSH3 0x58A JUMP JUMPDEST PUSH1 0x60 DUP3 ADD MSTORE PUSH1 0x80 DUP3 ADD MLOAD SWAP2 PUSH1 0x80 DUP3 ADD SWAP3 DUP4 MSTORE PUSH3 0x100 PUSH1 0xC0 PUSH1 0xA0 DUP4 ADD MLOAD SWAP3 PUSH1 0xA0 DUP6 ADD SWAP4 DUP5 MSTORE ADD PUSH3 0x58A JUMP JUMPDEST PUSH1 0xC0 DUP4 ADD MSTORE DUP2 MLOAD DUP1 MLOAD PUSH1 0x1 PUSH1 0x1 PUSH1 0x40 SHL SUB DUP2 GT PUSH3 0x3C4 JUMPI PUSH1 0x3 SLOAD SWAP2 PUSH1 0x1 DUP4 DUP2 SHR SWAP4 AND DUP1 ISZERO PUSH3 0x4E2 JUMPI JUMPDEST PUSH1 0x20 DUP5 LT EQ PUSH3 0x4CC JUMPI DUP2 SWAP1 PUSH1 0x1F SWAP4 DUP5 DUP2 GT PUSH3 0x475 JUMPI JUMPDEST POP PUSH1 0x20 SWAP1 DUP5 DUP4 GT PUSH1 0x1 EQ PUSH3 0x3E6 JUMPI PUSH1 0x0 SWAP3 PUSH3 0x3DA JUMPI JUMPDEST POP POP DUP2 PUSH1 0x1 SHL SWAP2 PUSH1 0x0 NOT SWAP1 PUSH1 0x3 SHL SHR NOT AND OR PUSH1 0x3 SSTORE JUMPDEST DUP6 MLOAD SWAP1 PUSH1 0x1 PUSH1 0x1 PUSH1 0x40 SHL SUB DUP3 GT PUSH3 0x3C4 JUMPI PUSH1 0x4 SWAP7 DUP8 SLOAD PUSH1 0x1 DUP2 DUP2 SHR SWAP2 AND DUP1 ISZERO PUSH3 0x3B9 JUMPI JUMPDEST PUSH1 0x20 DUP3 LT EQ PUSH3 0x3A4 JUMPI SWAP1 DUP2 DUP4 DUP6 SWAP5 SWAP4 GT PUSH3 0x34B JUMPI JUMPDEST POP PUSH1 0x20 SWAP2 DUP4 GT PUSH1 0x1 EQ PUSH3 0x2E0 JUMPI PUSH1 0x0 SWAP3 PUSH3 0x2D4 JUMPI JUMPDEST POP POP DUP2 PUSH1 0x1 SHL SWAP2 PUSH1 0x0 NOT SWAP1 PUSH1 0x3 SHL SHR NOT AND OR DUP6 SSTORE JUMPDEST PUSH1 0x1 PUSH1 0x7 SSTORE DUP2 DUP5 ADD MLOAD PUSH1 0x1 PUSH1 0x1 PUSH1 0xA0 SHL SUB SWAP4 SWAP1 DUP5 AND ISZERO DUP1 ISZERO PUSH3 0x2C5 JUMPI JUMPDEST PUSH3 0x2B5 JUMPI DUP5 DUP4 ADD MLOAD DUP5 AND PUSH1 0x80 MSTORE PUSH1 0x60 DUP4 ADD MLOAD DUP5 AND PUSH1 0xA0 MSTORE MLOAD PUSH1 0xC0 SWAP1 DUP2 MSTORE SWAP1 MLOAD PUSH1 0xE0 MSTORE ADD MLOAD AND PUSH2 0x100 SWAP1 DUP2 MSTORE SWAP1 PUSH3 0x230 CALLER PUSH3 0x59F JUMP JUMPDEST POP PUSH3 0x23C CALLER PUSH3 0x620 JUMP JUMPDEST POP MLOAD PUSH2 0x1FE2 SWAP2 DUP3 PUSH3 0x6C4 DUP4 CODECOPY PUSH1 0x80 MLOAD DUP3 DUP2 DUP2 PUSH2 0x2E3 ADD MSTORE DUP2 DUP2 PUSH2 0x1000 ADD MSTORE DUP2 DUP2 PUSH2 0x1373 ADD MSTORE PUSH2 0x19C0 ADD MSTORE PUSH1 0xA0 MLOAD DUP3 DUP2 DUP2 PUSH2 0x51D ADD MSTORE DUP2 DUP2 PUSH2 0x7FE ADD MSTORE DUP2 DUP2 PUSH2 0xD21 ADD MSTORE PUSH2 0xF34 ADD MSTORE PUSH1 0xC0 MLOAD DUP3 DUP2 DUP2 PUSH2 0x694 ADD MSTORE PUSH2 0x12CE ADD MSTORE PUSH1 0xE0 MLOAD DUP3 DUP2 DUP2 PUSH2 0x108E ADD MSTORE PUSH2 0x1631 ADD MSTORE MLOAD DUP2 DUP2 DUP2 PUSH2 0xF90 ADD MSTORE PUSH2 0x16C4 ADD MSTORE RETURN JUMPDEST DUP5 MLOAD PUSH4 0x29456045 PUSH1 0xE1 SHL DUP2 MSTORE DUP7 SWAP1 REVERT JUMPDEST POP DUP4 PUSH1 0x60 DUP5 ADD MLOAD AND ISZERO PUSH3 0x1F8 JUMP JUMPDEST ADD MLOAD SWAP1 POP CODESIZE DUP1 PUSH3 0x1C5 JUMP JUMPDEST PUSH1 0x0 DUP10 DUP2 MSTORE PUSH1 0x20 DUP2 KECCAK256 SWAP4 POP PUSH1 0x1F NOT DUP6 AND SWAP1 JUMPDEST DUP2 DUP2 LT PUSH3 0x332 JUMPI POP SWAP1 DUP5 PUSH1 0x1 SWAP6 SWAP5 SWAP4 SWAP3 LT PUSH3 0x318 JUMPI JUMPDEST POP POP POP DUP2 SHL ADD DUP6 SSTORE PUSH3 0x1DA JUMP JUMPDEST ADD MLOAD PUSH1 0x0 NOT PUSH1 0xF8 DUP5 PUSH1 0x3 SHL AND SHR NOT AND SWAP1 SSTORE CODESIZE DUP1 DUP1 PUSH3 0x30A JUMP JUMPDEST SWAP3 SWAP4 PUSH1 0x20 PUSH1 0x1 DUP2 SWAP3 DUP8 DUP7 ADD MLOAD DUP2 SSTORE ADD SWAP6 ADD SWAP4 ADD PUSH3 0x2F2 JUMP JUMPDEST SWAP1 SWAP2 SWAP3 POP DUP9 PUSH1 0x0 MSTORE PUSH1 0x20 PUSH1 0x0 KECCAK256 DUP4 DUP1 DUP7 ADD PUSH1 0x5 SHR DUP3 ADD SWAP3 PUSH1 0x20 DUP8 LT PUSH3 0x39A JUMPI JUMPDEST SWAP5 DUP7 SWAP6 SWAP5 SWAP4 SWAP3 SWAP2 SWAP5 ADD PUSH1 0x5 SHR ADD SWAP1 JUMPDEST DUP2 DUP2 LT PUSH3 0x38A JUMPI POP PUSH3 0x1AE JUMP JUMPDEST PUSH1 0x0 DUP2 SSTORE DUP6 SWAP5 POP PUSH1 0x1 ADD PUSH3 0x37B JUMP JUMPDEST SWAP3 POP DUP2 SWAP3 PUSH3 0x36C JUMP JUMPDEST PUSH1 0x22 DUP10 PUSH4 0x4E487B71 PUSH1 0xE0 SHL PUSH1 0x0 MSTORE MSTORE PUSH1 0x24 PUSH1 0x0 REVERT JUMPDEST SWAP1 PUSH1 0x7F AND SWAP1 PUSH3 0x197 JUMP JUMPDEST PUSH4 0x4E487B71 PUSH1 0xE0 SHL PUSH1 0x0 MSTORE PUSH1 0x41 PUSH1 0x4 MSTORE PUSH1 0x24 PUSH1 0x0 REVERT JUMPDEST ADD MLOAD SWAP1 POP CODESIZE DUP1 PUSH3 0x15B JUMP JUMPDEST PUSH1 0x3 PUSH1 0x0 SWAP1 DUP2 MSTORE SWAP4 POP PUSH32 0xC2575A0E9E593C00F959F8C92F12DB2869C3395A3B0502D05E2516446F71F85B SWAP2 SWAP1 JUMPDEST PUSH1 0x1F NOT DUP5 AND DUP6 LT PUSH3 0x459 JUMPI PUSH1 0x1 SWAP5 POP DUP4 PUSH1 0x1F NOT DUP2 AND LT PUSH3 0x43F JUMPI JUMPDEST POP POP POP DUP2 SHL ADD PUSH1 0x3 SSTORE PUSH3 0x171 JUMP JUMPDEST ADD MLOAD PUSH1 0x0 NOT PUSH1 0xF8 DUP5 PUSH1 0x3 SHL AND SHR NOT AND SWAP1 SSTORE CODESIZE DUP1 DUP1 PUSH3 0x430 JUMP JUMPDEST DUP2 DUP2 ADD MLOAD DUP4 SSTORE PUSH1 0x20 SWAP5 DUP6 ADD SWAP5 PUSH1 0x1 SWAP1 SWAP4 ADD SWAP3 SWAP1 SWAP2 ADD SWAP1 PUSH3 0x413 JUMP JUMPDEST SWAP1 SWAP2 POP PUSH1 0x3 PUSH1 0x0 MSTORE PUSH1 0x20 PUSH1 0x0 KECCAK256 DUP5 DUP1 DUP6 ADD PUSH1 0x5 SHR DUP3 ADD SWAP3 PUSH1 0x20 DUP7 LT PUSH3 0x4C2 JUMPI JUMPDEST SWAP1 DUP6 SWAP5 SWAP4 SWAP3 SWAP2 ADD PUSH1 0x5 SHR ADD SWAP1 JUMPDEST DUP2 DUP2 LT PUSH3 0x4B2 JUMPI POP PUSH3 0x143 JUMP JUMPDEST PUSH1 0x0 DUP2 SSTORE DUP5 SWAP4 POP PUSH1 0x1 ADD PUSH3 0x4A3 JUMP JUMPDEST SWAP3 POP DUP2 SWAP3 PUSH3 0x496 JUMP JUMPDEST PUSH4 0x4E487B71 PUSH1 0xE0 SHL PUSH1 0x0 MSTORE PUSH1 0x22 PUSH1 0x4 MSTORE PUSH1 0x24 PUSH1 0x0 REVERT JUMPDEST SWAP3 PUSH1 0x7F AND SWAP3 PUSH3 0x12B JUMP JUMPDEST PUSH1 0x0 DUP1 REVERT JUMPDEST PUSH1 0x40 MLOAD SWAP2 SWAP1 PUSH1 0x1F ADD PUSH1 0x1F NOT AND DUP3 ADD PUSH1 0x1 PUSH1 0x1 PUSH1 0x40 SHL SUB DUP2 GT DUP4 DUP3 LT OR PUSH3 0x3C4 JUMPI PUSH1 0x40 MSTORE JUMP JUMPDEST SWAP2 SWAP1 DUP1 PUSH1 0x1F DUP5 ADD SLT ISZERO PUSH3 0x4ED JUMPI DUP3 MLOAD PUSH1 0x1 PUSH1 0x1 PUSH1 0x40 SHL SUB DUP2 GT PUSH3 0x3C4 JUMPI PUSH1 0x20 SWAP1 PUSH3 0x54E PUSH1 0x1F DUP3 ADD PUSH1 0x1F NOT AND DUP4 ADD PUSH3 0x4F2 JUMP JUMPDEST SWAP3 DUP2 DUP5 MSTORE DUP3 DUP3 DUP8 ADD ADD GT PUSH3 0x4ED JUMPI PUSH1 0x0 JUMPDEST DUP2 DUP2 LT PUSH3 0x576 JUMPI POP DUP3 PUSH1 0x0 SWAP4 SWAP5 SWAP6 POP ADD ADD MSTORE SWAP1 JUMP JUMPDEST DUP6 DUP2 ADD DUP4 ADD MLOAD DUP5 DUP3 ADD DUP5 ADD MSTORE DUP3 ADD PUSH3 0x560 JUMP JUMPDEST MLOAD SWAP1 PUSH1 0x1 PUSH1 0x1 PUSH1 0xA0 SHL SUB DUP3 AND DUP3 SUB PUSH3 0x4ED JUMPI JUMP JUMPDEST PUSH1 0x1 PUSH1 0x1 PUSH1 0xA0 SHL SUB AND PUSH1 0x0 DUP2 DUP2 MSTORE PUSH32 0x5B8CCBB9D4D8FB16EA74CE3C29A41F1B461FBDAFF4714A0D9A8EB05499746BC PUSH1 0x20 MSTORE PUSH1 0x40 DUP2 KECCAK256 SLOAD SWAP1 SWAP2 SWAP1 PUSH1 0xFF AND PUSH3 0x61C JUMPI DUP2 DUP1 MSTORE PUSH1 0x5 PUSH1 0x20 MSTORE PUSH1 0x40 DUP3 KECCAK256 DUP2 DUP4 MSTORE PUSH1 0x20 MSTORE PUSH1 0x40 DUP3 KECCAK256 PUSH1 0x1 PUSH1 0xFF NOT DUP3 SLOAD AND OR SWAP1 SSTORE CALLER SWAP2 PUSH1 0x0 DUP1 MLOAD PUSH1 0x20 PUSH3 0x26A6 DUP4 CODECOPY DUP2 MLOAD SWAP2 MSTORE DUP2 DUP1 LOG4 PUSH1 0x1 SWAP1 JUMP JUMPDEST POP SWAP1 JUMP JUMPDEST PUSH1 0x1 PUSH1 0x1 PUSH1 0xA0 SHL SUB AND PUSH1 0x0 DUP2 DUP2 MSTORE PUSH32 0xA9780AC285A6B64C20B34D35938634CCFEAF5DE258BEA281533158D789CA4A2F PUSH1 0x20 MSTORE PUSH1 0x40 DUP2 KECCAK256 SLOAD SWAP1 SWAP2 SWAP1 PUSH32 0x84B05DEF62CE9BC2BD93F644E8C54B097DB7EE9EDAB66685B9B15DC162C75564 SWAP1 PUSH1 0xFF AND PUSH3 0x6BE JUMPI DUP1 DUP4 MSTORE PUSH1 0x5 PUSH1 0x20 MSTORE PUSH1 0x40 DUP4 KECCAK256 DUP3 DUP5 MSTORE PUSH1 0x20 MSTORE PUSH1 0x40 DUP4 KECCAK256 PUSH1 0x1 PUSH1 0xFF NOT DUP3 SLOAD AND OR SWAP1 SSTORE PUSH1 0x0 DUP1 MLOAD PUSH1 0x20 PUSH3 0x26A6 DUP4 CODECOPY DUP2 MLOAD SWAP2 MSTORE CALLER SWAP4 DUP1 LOG4 PUSH1 0x1 SWAP1 JUMP JUMPDEST POP POP SWAP1 JUMP INVALID PUSH1 0x80 PUSH1 0x40 DUP2 DUP2 MSTORE PUSH1 0x4 SWAP2 DUP3 CALLDATASIZE LT ISZERO PUSH2 0x16 JUMPI PUSH1 0x0 DUP1 REVERT JUMPDEST PUSH1 0x0 SWAP3 DUP4 CALLDATALOAD PUSH1 0xE0 SHR SWAP2 DUP3 PUSH3 0xE77AA6 EQ PUSH2 0x19A1 JUMPI POP DUP2 PUSH4 0x1FFC9A7 EQ PUSH2 0x1900 JUMPI DUP2 PUSH4 0x6FDDE03 EQ PUSH2 0x180B JUMPI DUP2 PUSH4 0x95EA7B3 EQ PUSH2 0x1763 JUMPI DUP2 PUSH4 0x9AD1C47 EQ PUSH2 0x172B JUMPI DUP2 PUSH4 0xB5DCE33 EQ PUSH2 0x1707 JUMPI DUP2 PUSH4 0x18160DDD EQ PUSH2 0x16E8 JUMPI DUP2 PUSH4 0x1A4F94F7 EQ PUSH2 0x16A4 JUMPI DUP2 PUSH4 0x23B872DD EQ PUSH2 0x167F JUMPI DUP2 PUSH4 0x248A9CA3 EQ PUSH2 0x1654 JUMPI DUP2 PUSH4 0x2B4353F2 EQ PUSH2 0x1619 JUMPI DUP2 PUSH4 0x2F2FF15D EQ PUSH2 0x15EF JUMPI DUP2 PUSH4 0x313CE567 EQ PUSH2 0x15D3 JUMPI DUP2 PUSH4 0x36568ABE EQ PUSH2 0x1574 JUMPI DUP2 PUSH4 0x3F4BA83A EQ PUSH2 0x14F1 JUMPI DUP2 PUSH4 0x4265B3C9 EQ PUSH2 0x1463 JUMPI DUP2 PUSH4 0x42966C68 EQ PUSH2 0x1445 JUMPI DUP2 PUSH4 0x464F0B0D EQ PUSH2 0x12BA JUMPI DUP2 PUSH4 0x48E8A949 EQ PUSH2 0xF58 JUMPI DUP2 PUSH4 0x4EFA82B6 EQ PUSH2 0xF14 JUMPI DUP2 PUSH4 0x5C975ABB EQ PUSH2 0xEF0 JUMPI DUP2 PUSH4 0x6F7BC9BE EQ PUSH2 0xE41 JUMPI DUP2 PUSH4 0x70A08231 EQ PUSH2 0xE0B JUMPI DUP2 PUSH4 0x74A3D5B8 EQ PUSH2 0xC75 JUMPI DUP2 PUSH4 0x79CC6790 EQ PUSH2 0xB73 JUMPI DUP2 PUSH4 0x7EB9D981 EQ PUSH2 0xB49 JUMPI DUP2 PUSH4 0x83C379D4 EQ PUSH2 0xB1F JUMPI DUP2 PUSH4 0x8456CB59 EQ PUSH2 0xA9A JUMPI DUP2 PUSH4 0x8695ED64 EQ PUSH2 0xA7B JUMPI DUP2 PUSH4 0x895955E6 EQ PUSH2 0xA40 JUMPI DUP2 PUSH4 0x91D14854 EQ PUSH2 0x9FA JUMPI DUP2 PUSH4 0x95D89B41 EQ PUSH2 0x8F7 JUMPI DUP2 PUSH4 0xA217FDDF EQ PUSH2 0x8DC JUMPI DUP2 PUSH4 0xA41CAC7F EQ PUSH2 0x766 JUMPI DUP2 PUSH4 0xA9059CBB EQ PUSH2 0x724 JUMPI DUP2 PUSH4 0xBFF08087 EQ PUSH2 0x6F7 JUMPI DUP2 PUSH4 0xD547741F EQ PUSH2 0x6B7 JUMPI DUP2 PUSH4 0xD59624B4 EQ PUSH2 0x67C JUMPI DUP2 PUSH4 0xDD62ED3E EQ PUSH2 0x633 JUMPI DUP2 PUSH4 0xE88499A9 EQ PUSH2 0x431 JUMPI DUP2 PUSH4 0xEB73FA6F EQ PUSH2 0x412 JUMPI DUP2 PUSH4 0xF2C39992 EQ PUSH2 0x21E JUMPI POP PUSH4 0xF9168231 EQ PUSH2 0x1FD JUMPI PUSH1 0x0 DUP1 REVERT JUMPDEST CALLVALUE PUSH2 0x21A JUMPI DUP2 PUSH1 0x3 NOT CALLDATASIZE ADD SLT PUSH2 0x21A JUMPI PUSH1 0x20 SWAP1 PUSH1 0x8 SLOAD SWAP1 MLOAD SWAP1 DUP2 MSTORE RETURN JUMPDEST POP DUP1 REVERT JUMPDEST DUP4 DUP4 CALLVALUE PUSH2 0x21A JUMPI DUP2 PUSH1 0x3 NOT CALLDATASIZE ADD SLT PUSH2 0x21A JUMPI PUSH2 0x238 PUSH2 0x1F1B JUMP JUMPDEST PUSH1 0xFF PUSH1 0x9 SLOAD AND ISZERO PUSH2 0x3EA JUMPI CALLER DUP3 MSTORE PUSH1 0x20 SWAP1 PUSH1 0xB DUP3 MSTORE DUP1 DUP4 KECCAK256 SWAP2 DUP3 SLOAD SWAP1 DUP2 ISZERO PUSH2 0x3DB JUMPI PUSH1 0x7 DUP5 ADD SWAP4 PUSH1 0xFF DUP6 SLOAD AND PUSH2 0x3B3 JUMPI PUSH1 0x1 ADD SLOAD PUSH1 0xFF AND PUSH2 0x3A4 JUMPI CALLER DUP6 MSTORE DUP5 DUP2 MSTORE DUP3 DUP6 KECCAK256 SLOAD SWAP4 DUP5 ISZERO PUSH2 0x395 JUMPI PUSH2 0x2A8 PUSH2 0x2A1 PUSH2 0x2710 PUSH2 0x299 PUSH1 0xA SLOAD DUP8 PUSH2 0x1E8B JUMP JUMPDEST DIV DUP1 SWAP6 PUSH2 0x1EBE JUMP JUMPDEST SWAP6 CALLER PUSH2 0x1D67 JUMP JUMPDEST DUP1 SLOAD PUSH1 0xFF NOT AND PUSH1 0x1 OR SWAP1 SSTORE DUP3 MLOAD PUSH4 0xA9059CBB PUSH1 0xE0 SHL DUP2 MSTORE CALLER DUP8 DUP3 ADD SWAP1 DUP2 MSTORE PUSH1 0x20 DUP2 ADD DUP7 SWAP1 MSTORE DUP3 SWAP1 DUP3 SWAP1 DUP2 SWAP1 PUSH1 0x40 ADD SUB DUP2 DUP10 PUSH1 0x1 PUSH1 0x1 PUSH1 0xA0 SHL SUB PUSH32 0x0 AND GAS CALL SWAP1 DUP2 ISZERO PUSH2 0x38B JUMPI DUP7 SWAP2 PUSH2 0x35E JUMPI JUMPDEST POP ISZERO PUSH2 0x34F JUMPI DUP3 MLOAD SWAP4 DUP5 MSTORE DUP4 ADD MSTORE CALLER SWAP2 PUSH32 0xA34530EC0B9FD6C8B48017F6726AF24C1AD4F28D0F434F7396906B6B954C1D98 SWAP2 SWAP1 LOG2 PUSH1 0x1 PUSH1 0x7 SSTORE DUP1 RETURN JUMPDEST DUP6 DUP4 MLOAD PUSH4 0x12171D83 PUSH1 0xE3 SHL DUP2 MSTORE REVERT JUMPDEST PUSH2 0x37E SWAP2 POP DUP3 RETURNDATASIZE DUP5 GT PUSH2 0x384 JUMPI JUMPDEST PUSH2 0x376 DUP2 DUP4 PUSH2 0x1D2F JUMP JUMPDEST DUP2 ADD SWAP1 PUSH2 0x1E73 JUMP JUMPDEST DUP8 PUSH2 0x313 JUMP JUMPDEST POP RETURNDATASIZE PUSH2 0x36C JUMP JUMPDEST DUP5 MLOAD RETURNDATASIZE DUP9 DUP3 RETURNDATACOPY RETURNDATASIZE SWAP1 REVERT JUMPDEST DUP7 DUP5 MLOAD PUSH4 0x3A6A68B1 PUSH1 0xE0 SHL DUP2 MSTORE REVERT JUMPDEST DUP6 DUP4 MLOAD PUSH4 0x17968E53 PUSH1 0xE3 SHL DUP2 MSTORE REVERT JUMPDEST DUP7 DUP5 MLOAD PUSH32 0x5090D6C600000000000000000000000000000000000000000000000000000000 DUP2 MSTORE REVERT JUMPDEST DUP6 DUP4 MLOAD PUSH4 0x3A6A68B1 PUSH1 0xE0 SHL DUP2 MSTORE REVERT JUMPDEST SWAP1 POP MLOAD PUSH32 0xA2A2B35C00000000000000000000000000000000000000000000000000000000 DUP2 MSTORE REVERT JUMPDEST POP POP CALLVALUE PUSH2 0x21A JUMPI DUP2 PUSH1 0x3 NOT CALLDATASIZE ADD SLT PUSH2 0x21A JUMPI PUSH1 0x20 SWAP1 PUSH1 0xC SLOAD SWAP1 MLOAD SWAP1 DUP2 MSTORE RETURN JUMPDEST SWAP2 SWAP1 POP CALLVALUE PUSH2 0x62F JUMPI DUP3 PUSH1 0x3 NOT CALLDATASIZE ADD SLT PUSH2 0x62F JUMPI CALLER DUP4 MSTORE PUSH1 0xB PUSH1 0x20 MSTORE DUP1 DUP4 KECCAK256 SWAP2 DUP3 SLOAD DUP1 ISZERO PUSH2 0x620 JUMPI PUSH1 0xFF PUSH1 0x1 DUP6 ADD SLOAD AND PUSH2 0x611 JUMPI PUSH2 0x473 PUSH1 0xFF DUP4 DUP7 ADD SLOAD AND PUSH2 0x1ECB JUMP JUMPDEST SWAP1 DUP2 ISZERO PUSH2 0x602 JUMPI PUSH1 0x2 DUP6 ADD DUP1 SLOAD PUSH2 0x48A DUP2 TIMESTAMP PUSH2 0x1EBE JUMP JUMPDEST DUP5 DUP2 LT PUSH2 0x5DA JUMPI DUP5 PUSH2 0x49B SWAP2 PUSH2 0x1E9E JUMP JUMPDEST SWAP4 PUSH1 0x3 PUSH2 0x4AC PUSH1 0x5 DUP11 ADD SLOAD DUP8 PUSH2 0x1E8B JUMP JUMPDEST SWAP9 ADD SWAP5 DUP6 SLOAD SWAP5 DUP1 PUSH2 0x4BD DUP12 DUP9 PUSH2 0x1E50 JUMP JUMPDEST GT PUSH2 0x5C6 JUMPI JUMPDEST POP DUP9 ISZERO PUSH2 0x5B7 JUMPI PUSH2 0x4EB SWAP5 SWAP3 PUSH2 0x4DE DUP11 SWAP6 SWAP4 PUSH2 0x4E4 SWAP4 PUSH2 0x1E8B JUMP JUMPDEST SWAP1 PUSH2 0x1E50 JUMP JUMPDEST SWAP1 SSTORE PUSH2 0x1E50 JUMP JUMPDEST SWAP1 SSTORE DUP2 MLOAD PUSH4 0xA9059CBB PUSH1 0xE0 SHL DUP2 MSTORE CALLER DUP3 DUP3 ADD SWAP1 DUP2 MSTORE PUSH1 0x20 DUP2 DUP2 ADD DUP7 SWAP1 MSTORE SWAP1 DUP3 SWAP1 DUP2 SWAP1 PUSH1 0x40 ADD SUB DUP2 DUP9 PUSH1 0x1 PUSH1 0x1 PUSH1 0xA0 SHL SUB PUSH32 0x0 AND GAS CALL SWAP1 DUP2 ISZERO PUSH2 0x5AD JUMPI DUP6 SWAP2 PUSH2 0x58F JUMPI JUMPDEST POP ISZERO PUSH2 0x581 JUMPI POP MLOAD SWAP1 DUP2 MSTORE PUSH32 0x399492D309DD6967E8059DE2EECE78587D885C0E55C73801041891DC98CB9392 PUSH1 0x20 CALLER SWAP3 LOG2 DUP1 RETURN JUMPDEST SWAP1 MLOAD PUSH4 0x12171D83 PUSH1 0xE3 SHL DUP2 MSTORE REVERT JUMPDEST PUSH2 0x5A7 SWAP2 POP PUSH1 0x20 RETURNDATASIZE DUP2 GT PUSH2 0x384 JUMPI PUSH2 0x376 DUP2 DUP4 PUSH2 0x1D2F JUMP JUMPDEST CODESIZE PUSH2 0x54D JUMP JUMPDEST DUP4 MLOAD RETURNDATASIZE DUP8 DUP3 RETURNDATACOPY RETURNDATASIZE SWAP1 REVERT JUMPDEST DUP7 DUP9 MLOAD PUSH4 0x439ECE77 PUSH1 0xE0 SHL DUP2 MSTORE REVERT JUMPDEST PUSH2 0x5D3 SWAP2 SWAP10 POP DUP6 SWAP1 PUSH2 0x1EBE JUMP JUMPDEST SWAP8 CODESIZE PUSH2 0x4C3 JUMP JUMPDEST DUP6 DUP8 MLOAD PUSH32 0xB477C7B100000000000000000000000000000000000000000000000000000000 DUP2 MSTORE REVERT JUMPDEST DUP3 DUP5 MLOAD PUSH4 0x439ECE77 PUSH1 0xE0 SHL DUP2 MSTORE REVERT JUMPDEST POP SWAP1 MLOAD PUSH4 0x17968E53 PUSH1 0xE3 SHL DUP2 MSTORE REVERT JUMPDEST POP SWAP1 MLOAD PUSH4 0x3A6A68B1 PUSH1 0xE0 SHL DUP2 MSTORE REVERT JUMPDEST DUP3 DUP1 REVERT JUMPDEST POP POP CALLVALUE PUSH2 0x21A JUMPI DUP1 PUSH1 0x3 NOT CALLDATASIZE ADD SLT PUSH2 0x21A JUMPI DUP1 PUSH1 0x20 SWAP3 PUSH2 0x651 PUSH2 0x1A2D JUMP JUMPDEST PUSH2 0x659 PUSH2 0x1A48 JUMP JUMPDEST PUSH1 0x1 PUSH1 0x1 PUSH1 0xA0 SHL SUB SWAP2 DUP3 AND DUP4 MSTORE PUSH1 0x1 DUP7 MSTORE DUP4 DUP4 KECCAK256 SWAP2 AND DUP3 MSTORE DUP5 MSTORE KECCAK256 SLOAD SWAP1 MLOAD SWAP1 DUP2 MSTORE RETURN JUMPDEST POP POP CALLVALUE PUSH2 0x21A JUMPI DUP2 PUSH1 0x3 NOT CALLDATASIZE ADD SLT PUSH2 0x21A JUMPI PUSH1 0x20 SWAP1 MLOAD PUSH32 0x0 DUP2 MSTORE RETURN JUMPDEST SWAP2 SWAP1 POP CALLVALUE PUSH2 0x62F JUMPI DUP1 PUSH1 0x3 NOT CALLDATASIZE ADD SLT PUSH2 0x62F JUMPI PUSH2 0x6F3 SWAP2 CALLDATALOAD PUSH2 0x6EE PUSH1 0x1 PUSH2 0x6DC PUSH2 0x1A48 JUMP JUMPDEST SWAP4 DUP4 DUP8 MSTORE PUSH1 0x5 PUSH1 0x20 MSTORE DUP7 KECCAK256 ADD SLOAD PUSH2 0x1AB6 JUMP JUMPDEST PUSH2 0x1CB7 JUMP JUMPDEST POP DUP1 RETURN JUMPDEST DUP4 CALLVALUE PUSH2 0x721 JUMPI PUSH1 0x20 CALLDATASIZE PUSH1 0x3 NOT ADD SLT PUSH2 0x721 JUMPI PUSH2 0x6F3 PUSH2 0x714 PUSH2 0x1A2D JUMP JUMPDEST PUSH2 0x71C PUSH2 0x1A5E JUMP JUMPDEST PUSH2 0x1C0B JUMP JUMPDEST DUP1 REVERT JUMPDEST DUP3 DUP5 CALLVALUE PUSH2 0x721 JUMPI DUP2 PUSH1 0x3 NOT CALLDATASIZE ADD SLT PUSH2 0x721 JUMPI POP PUSH2 0x73F PUSH2 0x1A2D JUMP JUMPDEST POP MLOAD PUSH32 0xADE576C500000000000000000000000000000000000000000000000000000000 DUP2 MSTORE REVERT JUMPDEST DUP4 DUP4 CALLVALUE PUSH2 0x21A JUMPI PUSH1 0x20 DUP1 PUSH1 0x3 NOT CALLDATASIZE ADD SLT PUSH2 0x62F JUMPI DUP4 CALLDATALOAD SWAP1 PUSH32 0x84B05DEF62CE9BC2BD93F644E8C54B097DB7EE9EDAB66685B9B15DC162C75564 DUP1 DUP6 MSTORE PUSH1 0x5 DUP3 MSTORE DUP4 DUP6 KECCAK256 CALLER DUP7 MSTORE DUP3 MSTORE PUSH1 0xFF DUP5 DUP7 KECCAK256 SLOAD AND ISZERO PUSH2 0x8BF JUMPI POP PUSH2 0x7C2 PUSH2 0x1F1B JUMP JUMPDEST DUP2 ISZERO PUSH2 0x8B0 JUMPI DUP3 MLOAD PUSH4 0x23B872DD PUSH1 0xE0 SHL DUP2 MSTORE CALLER DUP7 DUP3 ADD SWAP1 DUP2 MSTORE ADDRESS PUSH1 0x20 DUP3 ADD MSTORE PUSH1 0x40 DUP2 ADD DUP5 SWAP1 MSTORE DUP3 SWAP1 DUP3 SWAP1 DUP2 SWAP1 PUSH1 0x60 ADD SUB DUP2 DUP9 PUSH1 0x1 PUSH1 0x1 PUSH1 0xA0 SHL SUB PUSH32 0x0 AND GAS CALL SWAP1 DUP2 ISZERO PUSH2 0x8A6 JUMPI DUP6 SWAP2 PUSH2 0x889 JUMPI JUMPDEST POP ISZERO PUSH2 0x87A JUMPI PUSH32 0x4FC7965BE49B3C5DE2C5AE7700B1D01B9535E8CDD19811BB303E05FF19CE4A0 SWAP4 SWAP5 POP PUSH2 0x864 DUP3 PUSH1 0xC SLOAD PUSH2 0x1E50 JUMP JUMPDEST SWAP1 DUP2 PUSH1 0xC SSTORE DUP4 MLOAD SWAP3 DUP4 MSTORE DUP3 ADD MSTORE LOG1 PUSH1 0x1 PUSH1 0x7 SSTORE DUP1 RETURN JUMPDEST DUP5 DUP4 MLOAD PUSH4 0x12171D83 PUSH1 0xE3 SHL DUP2 MSTORE REVERT JUMPDEST PUSH2 0x8A0 SWAP2 POP DUP3 RETURNDATASIZE DUP5 GT PUSH2 0x384 JUMPI PUSH2 0x376 DUP2 DUP4 PUSH2 0x1D2F JUMP JUMPDEST DUP7 PUSH2 0x82E JUMP JUMPDEST DUP5 MLOAD RETURNDATASIZE DUP8 DUP3 RETURNDATACOPY RETURNDATASIZE SWAP1 REVERT JUMPDEST DUP5 DUP4 MLOAD PUSH4 0xC7E1B6B1 PUSH1 0xE0 SHL DUP2 MSTORE REVERT JUMPDEST DUP6 PUSH1 0x44 SWAP2 DUP6 MLOAD SWAP2 PUSH4 0xE2517D3F PUSH1 0xE0 SHL DUP4 MSTORE CALLER SWAP1 DUP4 ADD MSTORE PUSH1 0x24 DUP3 ADD MSTORE REVERT JUMPDEST POP POP CALLVALUE PUSH2 0x21A JUMPI DUP2 PUSH1 0x3 NOT CALLDATASIZE ADD SLT PUSH2 0x21A JUMPI MLOAD SWAP1 DUP2 MSTORE PUSH1 0x20 SWAP1 RETURN JUMPDEST DUP4 DUP4 CALLVALUE PUSH2 0x21A JUMPI DUP2 PUSH1 0x3 NOT CALLDATASIZE ADD SLT PUSH2 0x21A JUMPI DUP1 MLOAD SWAP2 DUP1 SWAP4 DUP1 SLOAD SWAP2 PUSH1 0x1 SWAP1 DUP4 DUP3 SHR SWAP3 DUP3 DUP6 AND SWAP5 DUP6 ISZERO PUSH2 0x9F0 JUMPI JUMPDEST PUSH1 0x20 SWAP6 DUP7 DUP7 LT DUP2 EQ PUSH2 0x9DD JUMPI DUP6 DUP10 MSTORE SWAP1 DUP2 ISZERO PUSH2 0x9B9 JUMPI POP PUSH1 0x1 EQ PUSH2 0x961 JUMPI JUMPDEST PUSH2 0x95D DUP8 DUP8 PUSH2 0x953 DUP3 DUP13 SUB DUP4 PUSH2 0x1D2F JUMP JUMPDEST MLOAD SWAP2 DUP3 SWAP2 DUP3 PUSH2 0x19E4 JUMP JUMPDEST SUB SWAP1 RETURN JUMPDEST DUP2 MSTORE SWAP3 SWAP6 POP PUSH32 0x8A35ACFBC15FF81A39AE7D344FD709F28E8600B4AA8C65C6B64BFE7FE36BD19B JUMPDEST DUP3 DUP5 LT PUSH2 0x9A6 JUMPI POP POP POP DUP3 PUSH2 0x95D SWAP5 PUSH2 0x953 SWAP3 DUP3 ADD ADD SWAP5 DUP7 DUP1 PUSH2 0x942 JUMP JUMPDEST DUP1 SLOAD DUP7 DUP6 ADD DUP9 ADD MSTORE SWAP3 DUP7 ADD SWAP3 DUP2 ADD PUSH2 0x988 JUMP JUMPDEST PUSH1 0xFF NOT AND DUP9 DUP8 ADD MSTORE POP POP POP POP ISZERO ISZERO PUSH1 0x5 SHL DUP4 ADD ADD SWAP3 POP PUSH2 0x953 DUP3 PUSH2 0x95D DUP7 DUP1 PUSH2 0x942 JUMP JUMPDEST PUSH1 0x24 DUP5 PUSH1 0x22 DUP6 PUSH4 0x4E487B71 PUSH1 0xE0 SHL DUP4 MSTORE MSTORE REVERT JUMPDEST SWAP4 PUSH1 0x7F AND SWAP4 PUSH2 0x923 JUMP JUMPDEST SWAP1 POP CALLVALUE PUSH2 0x62F JUMPI DUP2 PUSH1 0x3 NOT CALLDATASIZE ADD SLT PUSH2 0x62F JUMPI DUP2 PUSH1 0x20 SWAP4 PUSH1 0xFF SWAP3 PUSH2 0xA1B PUSH2 0x1A48 JUMP JUMPDEST SWAP1 CALLDATALOAD DUP3 MSTORE PUSH1 0x5 DUP7 MSTORE PUSH1 0x1 PUSH1 0x1 PUSH1 0xA0 SHL SUB DUP4 DUP4 KECCAK256 SWAP2 AND DUP3 MSTORE DUP6 MSTORE KECCAK256 SLOAD AND SWAP1 MLOAD SWAP1 ISZERO ISZERO DUP2 MSTORE RETURN JUMPDEST POP POP CALLVALUE PUSH2 0x21A JUMPI DUP2 PUSH1 0x3 NOT CALLDATASIZE ADD SLT PUSH2 0x21A JUMPI PUSH1 0x20 SWAP1 MLOAD PUSH32 0x84B05DEF62CE9BC2BD93F644E8C54B097DB7EE9EDAB66685B9B15DC162C75564 DUP2 MSTORE RETURN JUMPDEST POP POP CALLVALUE PUSH2 0x21A JUMPI DUP2 PUSH1 0x3 NOT CALLDATASIZE ADD SLT PUSH2 0x21A JUMPI PUSH1 0x20 SWAP1 PUSH1 0xA SLOAD SWAP1 MLOAD SWAP1 DUP2 MSTORE RETURN JUMPDEST SWAP1 POP CALLVALUE PUSH2 0x62F JUMPI DUP3 PUSH1 0x3 NOT CALLDATASIZE ADD SLT PUSH2 0x62F JUMPI PUSH2 0xAB4 PUSH2 0x1A5E JUMP JUMPDEST PUSH1 0x6 SLOAD SWAP1 PUSH1 0xFF DUP3 AND PUSH2 0xAF8 JUMPI POP PUSH1 0xFF NOT AND PUSH1 0x1 OR PUSH1 0x6 SSTORE MLOAD CALLER DUP2 MSTORE PUSH32 0x62E78CEA01BEE320CD4E420270B5EA74000D11B0C9F74754EBDBFC544B05A258 SWAP1 PUSH1 0x20 SWAP1 LOG1 DUP1 RETURN JUMPDEST DUP3 MLOAD PUSH32 0xD93C066500000000000000000000000000000000000000000000000000000000 DUP2 MSTORE REVERT JUMPDEST DUP4 CALLVALUE PUSH2 0x721 JUMPI DUP1 PUSH1 0x3 NOT CALLDATASIZE ADD SLT PUSH2 0x721 JUMPI PUSH2 0xB38 PUSH2 0x1A5E JUMP JUMPDEST PUSH1 0xFF NOT PUSH1 0x9 SLOAD AND PUSH1 0x9 SSTORE DUP1 PUSH1 0xA SSTORE DUP1 RETURN JUMPDEST DUP4 CALLVALUE PUSH2 0x721 JUMPI PUSH1 0x20 CALLDATASIZE PUSH1 0x3 NOT ADD SLT PUSH2 0x721 JUMPI PUSH2 0x6F3 PUSH2 0xB66 PUSH2 0x1A2D JUMP JUMPDEST PUSH2 0xB6E PUSH2 0x1A5E JUMP JUMPDEST PUSH2 0x1ADC JUMP JUMPDEST DUP4 SWAP2 POP CALLVALUE PUSH2 0x21A JUMPI DUP3 PUSH1 0x3 NOT CALLDATASIZE ADD SLT PUSH2 0x21A JUMPI PUSH2 0xB8E PUSH2 0x1A2D JUMP JUMPDEST PUSH1 0x24 CALLDATALOAD SWAP2 PUSH1 0x1 PUSH1 0x1 PUSH1 0xA0 SHL SUB DUP3 AND DUP1 DUP6 MSTORE PUSH1 0x1 PUSH1 0x20 MSTORE DUP6 DUP6 KECCAK256 CALLER DUP7 MSTORE PUSH1 0x20 MSTORE DUP6 DUP6 KECCAK256 SLOAD SWAP2 PUSH1 0x0 NOT DUP4 LT PUSH2 0xBCA JUMPI JUMPDEST DUP6 PUSH2 0xBC7 DUP7 DUP7 PUSH2 0x1D67 JUMP JUMPDEST DUP1 RETURN JUMPDEST DUP5 DUP4 LT PUSH2 0xC30 JUMPI DUP2 ISZERO PUSH2 0xC1A JUMPI CALLER ISZERO PUSH2 0xC04 JUMPI POP DUP5 SWAP6 SWAP2 DUP5 SWAP2 PUSH2 0xBC7 SWAP7 MSTORE PUSH1 0x1 PUSH1 0x20 MSTORE DUP3 DUP8 KECCAK256 CALLER DUP9 MSTORE PUSH1 0x20 MSTORE SUB SWAP1 DUP6 KECCAK256 SSTORE DUP4 SWAP3 DUP6 DUP1 PUSH2 0xBBC JUMP JUMPDEST PUSH1 0x24 SWAP1 DUP7 DUP9 MLOAD SWAP2 PUSH4 0x4A1406B1 PUSH1 0xE1 SHL DUP4 MSTORE DUP3 ADD MSTORE REVERT JUMPDEST PUSH1 0x24 SWAP1 DUP7 DUP9 MLOAD SWAP2 PUSH4 0xE602DF05 PUSH1 0xE0 SHL DUP4 MSTORE DUP3 ADD MSTORE REVERT JUMPDEST DUP7 MLOAD PUSH32 0xFB8F41B200000000000000000000000000000000000000000000000000000000 DUP2 MSTORE CALLER SWAP2 DUP2 ADD SWAP2 DUP3 MSTORE PUSH1 0x20 DUP3 ADD SWAP4 SWAP1 SWAP4 MSTORE PUSH1 0x40 DUP2 ADD DUP6 SWAP1 MSTORE DUP3 SWAP2 POP PUSH1 0x60 ADD SUB SWAP1 REVERT JUMPDEST SWAP2 SWAP1 POP CALLVALUE PUSH2 0x62F JUMPI DUP3 PUSH1 0x3 NOT CALLDATASIZE ADD SLT PUSH2 0x62F JUMPI PUSH2 0xC90 PUSH2 0x1F1B JUMP JUMPDEST CALLER DUP4 MSTORE PUSH1 0x20 PUSH1 0xB DUP2 MSTORE DUP2 DUP5 KECCAK256 DUP1 SLOAD ISZERO PUSH2 0xDFC JUMPI PUSH1 0xFF PUSH1 0x7 DUP3 ADD SLOAD AND PUSH2 0xDED JUMPI CALLER DUP6 MSTORE DUP5 DUP3 MSTORE DUP3 DUP6 KECCAK256 SLOAD DUP1 ISZERO PUSH2 0xDDD JUMPI PUSH2 0xCD9 PUSH1 0x6 SWAP2 PUSH2 0xCD4 PUSH1 0x2 SLOAD SWAP2 PUSH1 0xC SLOAD PUSH2 0x1E8B JUMP JUMPDEST PUSH2 0x1E9E JUMP JUMPDEST SWAP2 ADD SWAP4 PUSH2 0xCE7 DUP6 SLOAD DUP4 PUSH2 0x1EBE JUMP JUMPDEST SWAP5 DUP6 ISZERO PUSH2 0xDCE JUMPI DUP3 SWAP1 SSTORE DUP4 MLOAD PUSH4 0xA9059CBB PUSH1 0xE0 SHL DUP2 MSTORE CALLER DUP3 DUP3 ADD SWAP1 DUP2 MSTORE PUSH1 0x20 DUP2 ADD DUP8 SWAP1 MSTORE DUP5 SWAP1 DUP3 SWAP1 DUP2 SWAP1 PUSH1 0x40 ADD SUB DUP2 DUP11 PUSH1 0x1 PUSH1 0x1 PUSH1 0xA0 SHL SUB PUSH32 0x0 AND GAS CALL SWAP1 DUP2 ISZERO PUSH2 0xDC4 JUMPI DUP8 SWAP2 PUSH2 0xDA7 JUMPI JUMPDEST POP ISZERO PUSH2 0xD99 JUMPI POP SWAP1 PUSH2 0xD85 DUP5 PUSH32 0x408E6E0B73DAF4C873106E95FD067260FBFF8BF9D1B499CAD563D4480D45BAC SWAP5 SWAP4 PUSH2 0x1EBE JUMP JUMPDEST SWAP1 DUP3 MLOAD SWAP5 DUP6 MSTORE DUP5 ADD MSTORE CALLER SWAP3 LOG2 PUSH1 0x1 PUSH1 0x7 SSTORE DUP1 RETURN JUMPDEST DUP4 MLOAD PUSH4 0x12171D83 PUSH1 0xE3 SHL DUP2 MSTORE REVERT JUMPDEST PUSH2 0xDBE SWAP2 POP DUP5 RETURNDATASIZE DUP7 GT PUSH2 0x384 JUMPI PUSH2 0x376 DUP2 DUP4 PUSH2 0x1D2F JUMP JUMPDEST CODESIZE PUSH2 0xD51 JUMP JUMPDEST DUP6 MLOAD RETURNDATASIZE DUP10 DUP3 RETURNDATACOPY RETURNDATASIZE SWAP1 REVERT JUMPDEST POP DUP4 MLOAD PUSH4 0x439ECE77 PUSH1 0xE0 SHL DUP2 MSTORE REVERT JUMPDEST POP POP POP MLOAD PUSH4 0x3A6A68B1 PUSH1 0xE0 SHL DUP2 MSTORE REVERT JUMPDEST POP POP MLOAD PUSH4 0x17968E53 PUSH1 0xE3 SHL DUP2 MSTORE REVERT JUMPDEST POP POP MLOAD PUSH4 0x3A6A68B1 PUSH1 0xE0 SHL DUP2 MSTORE REVERT JUMPDEST POP POP CALLVALUE PUSH2 0x21A JUMPI PUSH1 0x20 CALLDATASIZE PUSH1 0x3 NOT ADD SLT PUSH2 0x21A JUMPI DUP1 PUSH1 0x20 SWAP3 PUSH1 0x1 PUSH1 0x1 PUSH1 0xA0 SHL SUB PUSH2 0xE32 PUSH2 0x1A2D JUMP JUMPDEST AND DUP2 MSTORE DUP1 DUP5 MSTORE KECCAK256 SLOAD SWAP1 MLOAD SWAP1 DUP2 MSTORE RETURN JUMPDEST DUP3 DUP5 CALLVALUE PUSH2 0x721 JUMPI PUSH1 0x20 CALLDATASIZE PUSH1 0x3 NOT ADD SLT PUSH2 0x721 JUMPI PUSH1 0x1 PUSH1 0x1 PUSH1 0xA0 SHL SUB PUSH2 0xE64 PUSH2 0x1A2D JUMP JUMPDEST AND DUP2 MSTORE PUSH1 0xB PUSH1 0x20 MSTORE DUP2 DUP2 KECCAK256 DUP1 SLOAD SWAP3 PUSH1 0xFF PUSH1 0x1 DUP4 ADD SLOAD AND SWAP3 PUSH1 0x2 DUP4 ADD SLOAD SWAP1 PUSH1 0x3 DUP5 ADD SLOAD PUSH1 0xFF DUP9 DUP7 ADD SLOAD AND SWAP3 PUSH1 0x5 DUP7 ADD SLOAD SWAP5 PUSH1 0xFF PUSH1 0x7 PUSH1 0x6 DUP10 ADD SLOAD SWAP9 ADD SLOAD AND SWAP8 DUP2 MLOAD SWAP10 DUP11 MSTORE ISZERO ISZERO PUSH1 0x20 DUP11 ADD MSTORE DUP9 ADD MSTORE PUSH1 0x60 DUP8 ADD MSTORE PUSH1 0x3 DUP3 LT ISZERO PUSH2 0xEDD JUMPI POP PUSH2 0x100 SWAP6 POP PUSH1 0x80 DUP6 ADD MSTORE PUSH1 0xA0 DUP5 ADD MSTORE PUSH1 0xC0 DUP4 ADD MSTORE ISZERO ISZERO PUSH1 0xE0 DUP3 ADD MSTORE RETURN JUMPDEST DUP1 PUSH1 0x21 DUP9 PUSH4 0x4E487B71 PUSH1 0xE0 SHL PUSH1 0x24 SWAP5 MSTORE MSTORE REVERT JUMPDEST POP POP CALLVALUE PUSH2 0x21A JUMPI DUP2 PUSH1 0x3 NOT CALLDATASIZE ADD SLT PUSH2 0x21A JUMPI PUSH1 0x20 SWAP1 PUSH1 0xFF PUSH1 0x6 SLOAD AND SWAP1 MLOAD SWAP1 ISZERO ISZERO DUP2 MSTORE RETURN JUMPDEST POP POP CALLVALUE PUSH2 0x21A JUMPI DUP2 PUSH1 0x3 NOT CALLDATASIZE ADD SLT PUSH2 0x21A JUMPI PUSH1 0x20 SWAP1 MLOAD PUSH1 0x1 PUSH1 0x1 PUSH1 0xA0 SHL SUB PUSH32 0x0 AND DUP2 MSTORE RETURN JUMPDEST DUP4 DUP4 CALLVALUE PUSH2 0x21A JUMPI PUSH1 0x60 CALLDATASIZE PUSH1 0x3 NOT ADD SLT PUSH2 0x21A JUMPI PUSH2 0xF73 PUSH2 0x1A2D JUMP JUMPDEST SWAP1 PUSH1 0x24 CALLDATALOAD SWAP2 PUSH1 0x44 CALLDATALOAD SWAP1 PUSH1 0x3 DUP3 LT ISZERO PUSH2 0x12B6 JUMPI PUSH1 0x1 PUSH1 0x1 PUSH1 0xA0 SHL SUB SWAP1 PUSH32 0x0 DUP3 DUP2 AND CALLER SUB PUSH2 0x1233 JUMPI SWAP1 DUP8 SWAP3 SWAP2 DUP7 ISZERO PUSH2 0x1224 JUMPI DUP6 MLOAD PUSH4 0x23B872DD PUSH1 0xE0 SHL DUP2 MSTORE PUSH1 0x1 PUSH1 0x1 PUSH1 0xA0 SHL SUB SWAP1 SWAP2 AND SWAP4 DUP2 ADD SWAP4 DUP5 MSTORE ADDRESS PUSH1 0x20 DUP6 DUP2 ADD SWAP2 SWAP1 SWAP2 MSTORE PUSH1 0x40 DUP6 ADD DUP9 SWAP1 MSTORE SWAP4 DUP5 SWAP1 DUP3 SWAP1 DUP2 SWAP1 PUSH1 0x60 ADD SUB DUP2 DUP12 DUP8 PUSH32 0x0 AND GAS CALL SWAP1 DUP2 ISZERO PUSH2 0x121A JUMPI DUP9 SWAP2 PUSH2 0x11FD JUMPI JUMPDEST POP ISZERO PUSH2 0x11EE JUMPI AND SWAP2 DUP3 ISZERO PUSH2 0x11BF JUMPI PUSH2 0x104A DUP6 PUSH1 0x2 SLOAD PUSH2 0x1E50 JUMP JUMPDEST PUSH1 0x2 SSTORE DUP3 DUP7 MSTORE DUP6 DUP3 MSTORE DUP4 DUP7 KECCAK256 DUP6 DUP2 SLOAD ADD SWAP1 SSTORE DUP3 DUP7 PUSH32 0xDDF252AD1BE2C89B69C2B068FC378DAA952BA7F163C4A11628F55A4DF523B3EF DUP5 DUP8 MLOAD DUP10 DUP2 MSTORE LOG3 PUSH2 0x2710 PUSH2 0x10B3 PUSH32 0x0 DUP8 PUSH2 0x1E8B JUMP JUMPDEST DIV SWAP2 DUP5 MLOAD SWAP5 PUSH2 0x100 DUP7 ADD DUP7 DUP2 LT PUSH8 0xFFFFFFFFFFFFFFFF DUP3 GT OR PUSH2 0x11AC JUMPI SWAP1 DUP9 SWAP6 SWAP5 SWAP4 SWAP3 SWAP2 DUP2 MSTORE DUP8 DUP8 MSTORE PUSH2 0x1134 DUP3 DUP9 ADD DUP8 DUP2 MSTORE DUP3 DUP10 ADD SWAP3 TIMESTAMP DUP5 MSTORE PUSH1 0xB PUSH1 0x60 DUP12 ADD SWAP6 DUP11 DUP8 MSTORE PUSH1 0x80 DUP13 ADD SWAP8 DUP9 MSTORE PUSH1 0xA0 DUP13 ADD SWAP9 DUP10 MSTORE PUSH1 0xC0 DUP13 ADD SWAP10 DUP12 DUP12 MSTORE PUSH1 0xE0 DUP14 ADD SWAP12 DUP1 DUP14 MSTORE MSTORE MSTORE DUP12 KECCAK256 SWAP9 MLOAD DUP10 SSTORE MLOAD ISZERO ISZERO PUSH1 0x1 DUP10 ADD SWAP1 PUSH1 0xFF DUP1 NOT DUP4 SLOAD AND SWAP2 ISZERO ISZERO AND OR SWAP1 SSTORE JUMP JUMPDEST MLOAD PUSH1 0x2 DUP8 ADD SSTORE MLOAD PUSH1 0x3 DUP7 ADD SSTORE DUP8 DUP6 ADD SWAP1 MLOAD PUSH1 0x3 DUP2 LT ISZERO PUSH2 0x1199 JUMPI SWAP3 PUSH1 0x7 SWAP3 PUSH2 0x118B SWAP6 SWAP3 PUSH2 0x1193 SWAP9 SWAP8 SWAP6 PUSH1 0xFF DUP1 NOT DUP4 SLOAD AND SWAP2 AND OR SWAP1 SSTORE MLOAD PUSH1 0x5 DUP6 ADD SSTORE MLOAD PUSH1 0x6 DUP5 ADD SSTORE MLOAD ISZERO ISZERO SWAP2 ADD SWAP1 PUSH1 0xFF DUP1 NOT DUP4 SLOAD AND SWAP2 ISZERO ISZERO AND OR SWAP1 SSTORE JUMP JUMPDEST PUSH1 0x8 SLOAD PUSH2 0x1E50 JUMP JUMPDEST PUSH1 0x8 SSTORE DUP1 RETURN JUMPDEST PUSH1 0x24 DUP9 PUSH1 0x21 DUP12 PUSH4 0x4E487B71 PUSH1 0xE0 SHL DUP4 MSTORE MSTORE REVERT JUMPDEST PUSH1 0x24 DUP10 PUSH1 0x41 DUP13 PUSH4 0x4E487B71 PUSH1 0xE0 SHL DUP4 MSTORE MSTORE REVERT JUMPDEST PUSH1 0x24 DUP8 DUP8 DUP7 MLOAD SWAP2 PUSH32 0xEC442F0500000000000000000000000000000000000000000000000000000000 DUP4 MSTORE DUP3 ADD MSTORE REVERT JUMPDEST DUP8 DUP6 MLOAD PUSH4 0x12171D83 PUSH1 0xE3 SHL DUP2 MSTORE REVERT JUMPDEST PUSH2 0x1214 SWAP2 POP DUP5 RETURNDATASIZE DUP7 GT PUSH2 0x384 JUMPI PUSH2 0x376 DUP2 DUP4 PUSH2 0x1D2F JUMP JUMPDEST DUP10 PUSH2 0x1030 JUMP JUMPDEST DUP7 MLOAD RETURNDATASIZE DUP11 DUP3 RETURNDATACOPY RETURNDATASIZE SWAP1 REVERT JUMPDEST DUP4 DUP7 MLOAD PUSH4 0xC7E1B6B1 PUSH1 0xE0 SHL DUP2 MSTORE REVERT JUMPDEST PUSH1 0x84 DUP9 PUSH1 0x20 DUP8 MLOAD SWAP2 PUSH32 0x8C379A000000000000000000000000000000000000000000000000000000000 DUP4 MSTORE DUP3 ADD MSTORE PUSH1 0x23 PUSH1 0x24 DUP3 ADD MSTORE PUSH32 0x43616C6C6572206973206E6F7420746865206F66666572696E6720636F6E7472 PUSH1 0x44 DUP3 ADD MSTORE PUSH32 0x6163740000000000000000000000000000000000000000000000000000000000 PUSH1 0x64 DUP3 ADD MSTORE REVERT JUMPDEST DUP5 DUP1 REVERT JUMPDEST SWAP1 POP CALLVALUE PUSH2 0x62F JUMPI DUP3 PUSH1 0x3 NOT CALLDATASIZE ADD SLT PUSH2 0x62F JUMPI PUSH32 0x0 TIMESTAMP LT PUSH2 0x141E JUMPI CALLER DUP4 MSTORE PUSH1 0x20 SWAP1 PUSH1 0xB DUP3 MSTORE DUP3 DUP5 KECCAK256 SWAP1 PUSH1 0x1 DUP3 ADD PUSH1 0xFF DUP2 SLOAD AND PUSH2 0x1400 JUMPI DUP3 SLOAD ISZERO PUSH2 0x140F JUMPI PUSH1 0xFF PUSH1 0x7 DUP5 ADD SLOAD AND PUSH2 0x1400 JUMPI CALLER DUP7 MSTORE DUP6 DUP5 MSTORE PUSH2 0x1334 DUP6 DUP8 KECCAK256 SLOAD CALLER PUSH2 0x1D67 JUMP JUMPDEST DUP1 SLOAD PUSH1 0xFF NOT AND PUSH1 0x1 OR SWAP1 SSTORE DUP2 SLOAD DUP5 MLOAD PUSH4 0xA9059CBB PUSH1 0xE0 SHL DUP2 MSTORE CALLER DUP4 DUP3 ADD SWAP1 DUP2 MSTORE PUSH1 0x20 DUP2 ADD SWAP3 SWAP1 SWAP3 MSTORE SWAP1 DUP5 SWAP1 DUP3 SWAP1 DUP2 SWAP1 PUSH1 0x40 ADD SUB DUP2 DUP10 PUSH1 0x1 PUSH1 0x1 PUSH1 0xA0 SHL SUB PUSH32 0x0 AND GAS CALL SWAP1 DUP2 ISZERO PUSH2 0x13F6 JUMPI DUP7 SWAP2 PUSH2 0x13D9 JUMPI JUMPDEST POP ISZERO PUSH2 0xD99 JUMPI POP SWAP1 PUSH32 0x8BB992A66750701EBD5F73B74463037E5A77FA3114EA76D89B9DB1818B083F48 SWAP2 SLOAD SWAP3 MLOAD SWAP3 DUP4 MSTORE CALLER SWAP3 LOG2 DUP1 RETURN JUMPDEST PUSH2 0x13F0 SWAP2 POP DUP5 RETURNDATASIZE DUP7 GT PUSH2 0x384 JUMPI PUSH2 0x376 DUP2 DUP4 PUSH2 0x1D2F JUMP JUMPDEST CODESIZE PUSH2 0x13A3 JUMP JUMPDEST DUP6 MLOAD RETURNDATASIZE DUP9 DUP3 RETURNDATACOPY RETURNDATASIZE SWAP1 REVERT JUMPDEST POP DUP4 MLOAD PUSH4 0x17968E53 PUSH1 0xE3 SHL DUP2 MSTORE REVERT JUMPDEST POP DUP4 MLOAD PUSH4 0x3A6A68B1 PUSH1 0xE0 SHL DUP2 MSTORE REVERT JUMPDEST SWAP1 MLOAD PUSH32 0x111C440900000000000000000000000000000000000000000000000000000000 DUP2 MSTORE REVERT JUMPDEST DUP4 SWAP1 CALLVALUE PUSH2 0x21A JUMPI PUSH1 0x20 CALLDATASIZE PUSH1 0x3 NOT ADD SLT PUSH2 0x21A JUMPI PUSH2 0xBC7 SWAP1 CALLDATALOAD CALLER PUSH2 0x1D67 JUMP JUMPDEST SWAP2 SWAP1 POP CALLVALUE PUSH2 0x62F JUMPI PUSH1 0x20 CALLDATASIZE PUSH1 0x3 NOT ADD SLT PUSH2 0x62F JUMPI DUP2 CALLDATALOAD SWAP2 PUSH2 0x1482 PUSH2 0x1A5E JUMP JUMPDEST PUSH2 0x1388 DUP4 GT PUSH2 0x14CA JUMPI POP PUSH32 0x373E08B9E2E94C99F958F95CF4E0A2DB0E6DE1F1607A5B7470341BAAB1AE608C SWAP2 PUSH1 0x20 SWAP2 PUSH1 0x1 PUSH1 0xFF NOT PUSH1 0x9 SLOAD AND OR PUSH1 0x9 SSTORE DUP2 PUSH1 0xA SSTORE MLOAD SWAP1 DUP2 MSTORE LOG1 DUP1 RETURN JUMPDEST SWAP1 MLOAD PUSH32 0x458EAE5B00000000000000000000000000000000000000000000000000000000 DUP2 MSTORE REVERT JUMPDEST SWAP1 POP CALLVALUE PUSH2 0x62F JUMPI DUP3 PUSH1 0x3 NOT CALLDATASIZE ADD SLT PUSH2 0x62F JUMPI PUSH2 0x150B PUSH2 0x1A5E JUMP JUMPDEST PUSH1 0x6 SLOAD SWAP1 PUSH1 0xFF DUP3 AND ISZERO PUSH2 0x154D JUMPI POP PUSH1 0xFF NOT AND PUSH1 0x6 SSTORE MLOAD CALLER DUP2 MSTORE PUSH32 0x5DB9EE0A495BF2E6FF9C91A7834C1BA4FDD244A5E8AA4E537BD38AEAE4B073AA SWAP1 PUSH1 0x20 SWAP1 LOG1 DUP1 RETURN JUMPDEST DUP3 MLOAD PUSH32 0x8DFC202B00000000000000000000000000000000000000000000000000000000 DUP2 MSTORE REVERT JUMPDEST DUP4 DUP4 CALLVALUE PUSH2 0x21A JUMPI DUP1 PUSH1 0x3 NOT CALLDATASIZE ADD SLT PUSH2 0x21A JUMPI PUSH2 0x158E PUSH2 0x1A48 JUMP JUMPDEST SWAP1 CALLER PUSH1 0x1 PUSH1 0x1 PUSH1 0xA0 SHL SUB DUP4 AND SUB PUSH2 0x15AB JUMPI POP PUSH2 0x6F3 SWAP2 SWAP3 CALLDATALOAD PUSH2 0x1CB7 JUMP JUMPDEST DUP4 SWAP1 MLOAD PUSH32 0x6697B23200000000000000000000000000000000000000000000000000000000 DUP2 MSTORE REVERT JUMPDEST POP POP CALLVALUE PUSH2 0x21A JUMPI DUP2 PUSH1 0x3 NOT CALLDATASIZE ADD SLT PUSH2 0x21A JUMPI PUSH1 0x20 SWAP1 MLOAD PUSH1 0x12 DUP2 MSTORE RETURN JUMPDEST SWAP2 SWAP1 POP CALLVALUE PUSH2 0x62F JUMPI DUP1 PUSH1 0x3 NOT CALLDATASIZE ADD SLT PUSH2 0x62F JUMPI PUSH2 0x6F3 SWAP2 CALLDATALOAD PUSH2 0x1614 PUSH1 0x1 PUSH2 0x6DC PUSH2 0x1A48 JUMP JUMPDEST PUSH2 0x1B8F JUMP JUMPDEST POP POP CALLVALUE PUSH2 0x21A JUMPI DUP2 PUSH1 0x3 NOT CALLDATASIZE ADD SLT PUSH2 0x21A JUMPI PUSH1 0x20 SWAP1 MLOAD PUSH32 0x0 DUP2 MSTORE RETURN JUMPDEST SWAP1 POP CALLVALUE PUSH2 0x62F JUMPI PUSH1 0x20 CALLDATASIZE PUSH1 0x3 NOT ADD SLT PUSH2 0x62F JUMPI DUP2 PUSH1 0x20 SWAP4 PUSH1 0x1 SWAP3 CALLDATALOAD DUP2 MSTORE PUSH1 0x5 DUP6 MSTORE KECCAK256 ADD SLOAD SWAP1 MLOAD SWAP1 DUP2 MSTORE RETURN JUMPDEST DUP3 DUP5 CALLVALUE PUSH2 0x721 JUMPI PUSH1 0x60 CALLDATASIZE PUSH1 0x3 NOT ADD SLT PUSH2 0x721 JUMPI POP PUSH2 0x169B PUSH2 0x1A2D JUMP JUMPDEST POP PUSH2 0x73F PUSH2 0x1A48 JUMP JUMPDEST POP POP CALLVALUE PUSH2 0x21A JUMPI DUP2 PUSH1 0x3 NOT CALLDATASIZE ADD SLT PUSH2 0x21A JUMPI PUSH1 0x20 SWAP1 MLOAD PUSH1 0x1 PUSH1 0x1 PUSH1 0xA0 SHL SUB PUSH32 0x0 AND DUP2 MSTORE RETURN JUMPDEST POP POP CALLVALUE PUSH2 0x21A JUMPI DUP2 PUSH1 0x3 NOT CALLDATASIZE ADD SLT PUSH2 0x21A JUMPI PUSH1 0x20 SWAP1 PUSH1 0x2 SLOAD SWAP1 MLOAD SWAP1 DUP2 MSTORE RETURN JUMPDEST POP POP CALLVALUE PUSH2 0x21A JUMPI DUP2 PUSH1 0x3 NOT CALLDATASIZE ADD SLT PUSH2 0x21A JUMPI PUSH1 0x20 SWAP1 PUSH1 0xFF PUSH1 0x9 SLOAD AND SWAP1 MLOAD SWAP1 ISZERO ISZERO DUP2 MSTORE RETURN JUMPDEST POP POP CALLVALUE PUSH2 0x21A JUMPI PUSH1 0x20 CALLDATASIZE PUSH1 0x3 NOT ADD SLT PUSH2 0x21A JUMPI PUSH1 0x60 SWAP1 PUSH2 0x1751 PUSH2 0x174C PUSH2 0x1A2D JUMP JUMPDEST PUSH2 0x1F56 JUMP JUMPDEST SWAP2 SWAP3 SWAP1 DUP2 MLOAD SWAP4 DUP5 MSTORE PUSH1 0x20 DUP5 ADD MSTORE DUP3 ADD MSTORE RETURN JUMPDEST SWAP1 POP CALLVALUE PUSH2 0x62F JUMPI DUP2 PUSH1 0x3 NOT CALLDATASIZE ADD SLT PUSH2 0x62F JUMPI PUSH2 0x177D PUSH2 0x1A2D JUMP JUMPDEST PUSH1 0x24 CALLDATALOAD SWAP1 CALLER ISZERO PUSH2 0x17F5 JUMPI PUSH1 0x1 PUSH1 0x1 PUSH1 0xA0 SHL SUB AND SWAP2 DUP3 ISZERO PUSH2 0x17DF JUMPI POP DUP1 DUP4 PUSH1 0x20 SWAP6 CALLER DUP2 MSTORE PUSH1 0x1 DUP8 MSTORE DUP2 DUP2 KECCAK256 DUP6 DUP3 MSTORE DUP8 MSTORE KECCAK256 SSTORE DUP3 MLOAD SWAP1 DUP2 MSTORE PUSH32 0x8C5BE1E5EBEC7D5BD14F71427D1E84F3DD0314C0F7B2291E5B200AC8C7C3B925 DUP5 CALLER SWAP3 LOG3 MLOAD PUSH1 0x1 DUP2 MSTORE RETURN JUMPDEST PUSH1 0x24 SWAP1 DUP6 DUP6 MLOAD SWAP2 PUSH4 0x4A1406B1 PUSH1 0xE1 SHL DUP4 MSTORE DUP3 ADD MSTORE REVERT JUMPDEST PUSH1 0x24 DUP4 DUP7 DUP7 MLOAD SWAP2 PUSH4 0xE602DF05 PUSH1 0xE0 SHL DUP4 MSTORE DUP3 ADD MSTORE REVERT JUMPDEST SWAP2 SWAP1 POP CALLVALUE PUSH2 0x62F JUMPI DUP3 PUSH1 0x3 NOT CALLDATASIZE ADD SLT PUSH2 0x62F JUMPI DUP1 MLOAD SWAP2 DUP4 PUSH1 0x3 SLOAD SWAP1 PUSH1 0x1 SWAP1 DUP3 DUP3 SHR SWAP3 DUP3 DUP2 AND DUP1 ISZERO PUSH2 0x18F6 JUMPI JUMPDEST PUSH1 0x20 SWAP6 DUP7 DUP7 LT DUP3 EQ PUSH2 0x18E3 JUMPI POP DUP5 DUP9 MSTORE SWAP1 DUP2 ISZERO PUSH2 0x18C1 JUMPI POP PUSH1 0x1 EQ PUSH2 0x1868 JUMPI JUMPDEST PUSH2 0x95D DUP7 DUP7 PUSH2 0x953 DUP3 DUP12 SUB DUP4 PUSH2 0x1D2F JUMP JUMPDEST SWAP3 SWAP6 POP PUSH1 0x3 DUP4 MSTORE PUSH32 0xC2575A0E9E593C00F959F8C92F12DB2869C3395A3B0502D05E2516446F71F85B JUMPDEST DUP3 DUP5 LT PUSH2 0x18AE JUMPI POP POP POP DUP3 PUSH2 0x95D SWAP5 PUSH2 0x953 SWAP3 DUP3 ADD ADD SWAP5 CODESIZE PUSH2 0x1857 JUMP JUMPDEST DUP1 SLOAD DUP7 DUP6 ADD DUP9 ADD MSTORE SWAP3 DUP7 ADD SWAP3 DUP2 ADD PUSH2 0x1891 JUMP JUMPDEST PUSH1 0xFF NOT AND DUP8 DUP7 ADD MSTORE POP POP POP ISZERO ISZERO PUSH1 0x5 SHL DUP4 ADD ADD SWAP3 POP PUSH2 0x953 DUP3 PUSH2 0x95D CODESIZE PUSH2 0x1857 JUMP JUMPDEST DUP4 PUSH1 0x22 PUSH1 0x24 SWAP3 PUSH4 0x4E487B71 PUSH1 0xE0 SHL DUP4 MSTORE MSTORE REVERT JUMPDEST SWAP4 PUSH1 0x7F AND SWAP4 PUSH2 0x1837 JUMP JUMPDEST SWAP1 POP CALLVALUE PUSH2 0x62F JUMPI PUSH1 0x20 CALLDATASIZE PUSH1 0x3 NOT ADD SLT PUSH2 0x62F JUMPI CALLDATALOAD SWAP1 PUSH32 0xFFFFFFFF00000000000000000000000000000000000000000000000000000000 DUP3 AND DUP1 SWAP3 SUB PUSH2 0x62F JUMPI PUSH1 0x20 SWAP3 POP PUSH32 0x7965DB0B00000000000000000000000000000000000000000000000000000000 DUP3 EQ SWAP2 DUP3 ISZERO PUSH2 0x1977 JUMPI JUMPDEST POP MLOAD SWAP1 ISZERO ISZERO DUP2 MSTORE RETURN JUMPDEST PUSH32 0x1FFC9A700000000000000000000000000000000000000000000000000000000 EQ SWAP2 POP CODESIZE PUSH2 0x196E JUMP JUMPDEST DUP5 SWAP1 CALLVALUE PUSH2 0x21A JUMPI DUP2 PUSH1 0x3 NOT CALLDATASIZE ADD SLT PUSH2 0x21A JUMPI PUSH1 0x20 SWAP1 PUSH1 0x1 PUSH1 0x1 PUSH1 0xA0 SHL SUB PUSH32 0x0 AND DUP2 MSTORE RETURN JUMPDEST PUSH1 0x20 DUP1 DUP3 MSTORE DUP3 MLOAD DUP2 DUP4 ADD DUP2 SWAP1 MSTORE SWAP1 SWAP4 SWAP3 PUSH1 0x0 JUMPDEST DUP3 DUP2 LT PUSH2 0x1A19 JUMPI POP POP PUSH1 0x40 SWAP3 SWAP4 POP PUSH1 0x0 DUP4 DUP3 DUP5 ADD ADD MSTORE PUSH1 0x1F DUP1 NOT SWAP2 ADD AND ADD ADD SWAP1 JUMP JUMPDEST DUP2 DUP2 ADD DUP7 ADD MLOAD DUP5 DUP3 ADD PUSH1 0x40 ADD MSTORE DUP6 ADD PUSH2 0x19F7 JUMP JUMPDEST PUSH1 0x4 CALLDATALOAD SWAP1 PUSH1 0x1 PUSH1 0x1 PUSH1 0xA0 SHL SUB DUP3 AND DUP3 SUB PUSH2 0x1A43 JUMPI JUMP JUMPDEST PUSH1 0x0 DUP1 REVERT JUMPDEST PUSH1 0x24 CALLDATALOAD SWAP1 PUSH1 0x1 PUSH1 0x1 PUSH1 0xA0 SHL SUB DUP3 AND DUP3 SUB PUSH2 0x1A43 JUMPI JUMP JUMPDEST CALLER PUSH1 0x0 SWAP1 DUP2 MSTORE PUSH32 0x5B8CCBB9D4D8FB16EA74CE3C29A41F1B461FBDAFF4714A0D9A8EB05499746BC PUSH1 0x20 MSTORE PUSH1 0x40 DUP2 KECCAK256 SLOAD PUSH1 0xFF AND ISZERO PUSH2 0x1A98 JUMPI POP JUMP JUMPDEST PUSH1 0x44 SWAP1 PUSH1 0x40 MLOAD SWAP1 PUSH4 0xE2517D3F PUSH1 0xE0 SHL DUP3 MSTORE CALLER PUSH1 0x4 DUP4 ADD MSTORE PUSH1 0x24 DUP3 ADD MSTORE REVERT JUMPDEST DUP1 PUSH1 0x0 MSTORE PUSH1 0x5 PUSH1 0x20 MSTORE PUSH1 0x40 PUSH1 0x0 KECCAK256 CALLER PUSH1 0x0 MSTORE PUSH1 0x20 MSTORE PUSH1 0xFF PUSH1 0x40 PUSH1 0x0 KECCAK256 SLOAD AND ISZERO PUSH2 0x1A98 JUMPI POP JUMP JUMPDEST PUSH1 0x1 PUSH1 0x1 PUSH1 0xA0 SHL SUB AND PUSH1 0x0 DUP2 DUP2 MSTORE PUSH32 0xA9780AC285A6B64C20B34D35938634CCFEAF5DE258BEA281533158D789CA4A2F PUSH1 0x20 MSTORE PUSH1 0x40 DUP2 KECCAK256 SLOAD SWAP1 SWAP2 SWAP1 PUSH32 0x84B05DEF62CE9BC2BD93F644E8C54B097DB7EE9EDAB66685B9B15DC162C75564 SWAP1 PUSH1 0xFF AND PUSH2 0x1B8A JUMPI DUP1 DUP4 MSTORE PUSH1 0x5 PUSH1 0x20 MSTORE PUSH1 0x40 DUP4 KECCAK256 DUP3 DUP5 MSTORE PUSH1 0x20 MSTORE PUSH1 0x40 DUP4 KECCAK256 PUSH1 0x1 PUSH1 0xFF NOT DUP3 SLOAD AND OR SWAP1 SSTORE PUSH32 0x2F8788117E7EFF1D82E926EC794901D17C78024A50270940304540A733656F0D CALLER SWAP4 DUP1 LOG4 PUSH1 0x1 SWAP1 JUMP JUMPDEST POP POP SWAP1 JUMP JUMPDEST SWAP1 PUSH1 0x0 SWAP2 DUP1 DUP4 MSTORE PUSH1 0x5 PUSH1 0x20 MSTORE PUSH1 0x1 PUSH1 0x1 PUSH1 0xA0 SHL SUB PUSH1 0x40 DUP5 KECCAK256 SWAP3 AND SWAP2 DUP3 DUP5 MSTORE PUSH1 0x20 MSTORE PUSH1 0xFF PUSH1 0x40 DUP5 KECCAK256 SLOAD AND ISZERO PUSH1 0x0 EQ PUSH2 0x1B8A JUMPI DUP1 DUP4 MSTORE PUSH1 0x5 PUSH1 0x20 MSTORE PUSH1 0x40 DUP4 KECCAK256 DUP3 DUP5 MSTORE PUSH1 0x20 MSTORE PUSH1 0x40 DUP4 KECCAK256 PUSH1 0x1 PUSH1 0xFF NOT DUP3 SLOAD AND OR SWAP1 SSTORE PUSH32 0x2F8788117E7EFF1D82E926EC794901D17C78024A50270940304540A733656F0D CALLER SWAP4 DUP1 LOG4 PUSH1 0x1 SWAP1 JUMP JUMPDEST PUSH1 0x1 PUSH1 0x1 PUSH1 0xA0 SHL SUB AND PUSH1 0x0 DUP2 DUP2 MSTORE PUSH32 0xA9780AC285A6B64C20B34D35938634CCFEAF5DE258BEA281533158D789CA4A2F PUSH1 0x20 MSTORE PUSH1 0x40 DUP2 KECCAK256 SLOAD SWAP1 SWAP2 SWAP1 PUSH32 0x84B05DEF62CE9BC2BD93F644E8C54B097DB7EE9EDAB66685B9B15DC162C75564 SWAP1 PUSH1 0xFF AND ISZERO PUSH2 0x1B8A JUMPI DUP1 DUP4 MSTORE PUSH1 0x5 PUSH1 0x20 MSTORE PUSH1 0x40 DUP4 KECCAK256 DUP3 DUP5 MSTORE PUSH1 0x20 MSTORE PUSH1 0x40 DUP4 KECCAK256 PUSH1 0xFF NOT DUP2 SLOAD AND SWAP1 SSTORE PUSH32 0xF6391F5C32D9C69D2A47EA670B442974B53935D1EDC7FD64EB21E047A839171B CALLER SWAP4 DUP1 LOG4 PUSH1 0x1 SWAP1 JUMP JUMPDEST SWAP1 PUSH1 0x0 SWAP2 DUP1 DUP4 MSTORE PUSH1 0x5 PUSH1 0x20 MSTORE PUSH1 0x1 PUSH1 0x1 PUSH1 0xA0 SHL SUB PUSH1 0x40 DUP5 KECCAK256 SWAP3 AND SWAP2 DUP3 DUP5 MSTORE PUSH1 0x20 MSTORE PUSH1 0xFF PUSH1 0x40 DUP5 KECCAK256 SLOAD AND PUSH1 0x0 EQ PUSH2 0x1B8A JUMPI DUP1 DUP4 MSTORE PUSH1 0x5 PUSH1 0x20 MSTORE PUSH1 0x40 DUP4 KECCAK256 DUP3 DUP5 MSTORE PUSH1 0x20 MSTORE PUSH1 0x40 DUP4 KECCAK256 PUSH1 0xFF NOT DUP2 SLOAD AND SWAP1 SSTORE PUSH32 0xF6391F5C32D9C69D2A47EA670B442974B53935D1EDC7FD64EB21E047A839171B CALLER SWAP4 DUP1 LOG4 PUSH1 0x1 SWAP1 JUMP JUMPDEST SWAP1 PUSH1 0x1F DUP1 NOT SWAP2 ADD AND DUP2 ADD SWAP1 DUP2 LT PUSH8 0xFFFFFFFFFFFFFFFF DUP3 GT OR PUSH2 0x1D51 JUMPI PUSH1 0x40 MSTORE JUMP JUMPDEST PUSH4 0x4E487B71 PUSH1 0xE0 SHL PUSH1 0x0 MSTORE PUSH1 0x41 PUSH1 0x4 MSTORE PUSH1 0x24 PUSH1 0x0 REVERT JUMPDEST SWAP1 PUSH1 0x1 PUSH1 0x1 PUSH1 0xA0 SHL SUB DUP3 AND SWAP1 DUP2 ISZERO PUSH2 0x1E1F JUMPI PUSH1 0x0 SWAP3 DUP3 DUP5 MSTORE DUP4 PUSH1 0x20 MSTORE PUSH1 0x40 DUP5 KECCAK256 SLOAD SWAP1 DUP3 DUP3 LT PUSH2 0x1DD4 JUMPI POP DUP2 PUSH32 0xDDF252AD1BE2C89B69C2B068FC378DAA952BA7F163C4A11628F55A4DF523B3EF SWAP3 PUSH1 0x20 SWAP3 DUP6 DUP8 MSTORE DUP7 DUP5 MSTORE SUB PUSH1 0x40 DUP7 KECCAK256 SSTORE DUP1 PUSH1 0x2 SLOAD SUB PUSH1 0x2 SSTORE PUSH1 0x40 MLOAD SWAP1 DUP2 MSTORE LOG3 JUMP JUMPDEST PUSH1 0x40 MLOAD PUSH32 0xE450D38C00000000000000000000000000000000000000000000000000000000 DUP2 MSTORE PUSH1 0x1 PUSH1 0x1 PUSH1 0xA0 SHL SUB SWAP2 SWAP1 SWAP2 AND PUSH1 0x4 DUP3 ADD MSTORE PUSH1 0x24 DUP2 ADD SWAP2 SWAP1 SWAP2 MSTORE PUSH1 0x44 DUP2 ADD DUP3 SWAP1 MSTORE PUSH1 0x64 SWAP1 REVERT JUMPDEST PUSH1 0x24 PUSH1 0x40 MLOAD PUSH32 0x96C6FD1E00000000000000000000000000000000000000000000000000000000 DUP2 MSTORE PUSH1 0x0 PUSH1 0x4 DUP3 ADD MSTORE REVERT JUMPDEST SWAP2 SWAP1 DUP3 ADD DUP1 SWAP3 GT PUSH2 0x1E5D JUMPI JUMP JUMPDEST PUSH4 0x4E487B71 PUSH1 0xE0 SHL PUSH1 0x0 MSTORE PUSH1 0x11 PUSH1 0x4 MSTORE PUSH1 0x24 PUSH1 0x0 REVERT JUMPDEST SWAP1 DUP2 PUSH1 0x20 SWAP2 SUB SLT PUSH2 0x1A43 JUMPI MLOAD DUP1 ISZERO ISZERO DUP2 SUB PUSH2 0x1A43 JUMPI SWAP1 JUMP JUMPDEST DUP2 DUP2 MUL SWAP3 SWAP2 DUP2 ISZERO SWAP2 DUP5 DIV EQ OR ISZERO PUSH2 0x1E5D JUMPI JUMP JUMPDEST DUP2 ISZERO PUSH2 0x1EA8 JUMPI DIV SWAP1 JUMP JUMPDEST PUSH4 0x4E487B71 PUSH1 0xE0 SHL PUSH1 0x0 MSTORE PUSH1 0x12 PUSH1 0x4 MSTORE PUSH1 0x24 PUSH1 0x0 REVERT JUMPDEST SWAP2 SWAP1 DUP3 SUB SWAP2 DUP3 GT PUSH2 0x1E5D JUMPI JUMP JUMPDEST PUSH1 0x3 DUP2 LT ISZERO PUSH2 0x1F05 JUMPI DUP1 PUSH2 0x1EE1 JUMPI POP PUSH3 0x15180 SWAP1 JUMP JUMPDEST PUSH1 0x1 DUP2 SUB PUSH2 0x1EF1 JUMPI POP PUSH3 0x278D00 SWAP1 JUMP JUMPDEST PUSH1 0x2 EQ PUSH2 0x1EFD JUMPI PUSH1 0x0 SWAP1 JUMP JUMPDEST PUSH4 0x1E13380 SWAP1 JUMP JUMPDEST PUSH4 0x4E487B71 PUSH1 0xE0 SHL PUSH1 0x0 MSTORE PUSH1 0x21 PUSH1 0x4 MSTORE PUSH1 0x24 PUSH1 0x0 REVERT JUMPDEST PUSH1 0x2 PUSH1 0x7 SLOAD EQ PUSH2 0x1F2C JUMPI PUSH1 0x2 PUSH1 0x7 SSTORE JUMP JUMPDEST PUSH1 0x4 PUSH1 0x40 MLOAD PUSH32 0x3EE5AEB500000000000000000000000000000000000000000000000000000000 DUP2 MSTORE REVERT JUMPDEST PUSH1 0x1 PUSH1 0x1 PUSH1 0xA0 SHL SUB PUSH1 0x0 SWAP2 AND DUP2 MSTORE PUSH1 0xB PUSH1 0x20 MSTORE PUSH1 0x40 DUP2 KECCAK256 SWAP2 DUP3 SLOAD ISZERO PUSH2 0x1FCD JUMPI DUP2 PUSH1 0x20 MSTORE PUSH1 0x40 DUP3 KECCAK256 SLOAD DUP1 ISZERO PUSH2 0x1FC4 JUMPI PUSH1 0x2 SLOAD SWAP1 DUP2 ISZERO PUSH2 0x1FBA JUMPI PUSH1 0x6 SWAP2 PUSH2 0xCD4 PUSH2 0x1FA0 SWAP3 PUSH1 0xC SLOAD PUSH2 0x1E8B JUMP JUMPDEST SWAP4 ADD SLOAD SWAP2 DUP3 DUP5 GT ISZERO PUSH2 0x1FB7 JUMPI POP PUSH2 0x1FB7 DUP3 DUP5 PUSH2 0x1EBE JUMP JUMPDEST SWAP1 JUMP JUMPDEST POP POP SWAP2 POP DUP1 SWAP2 DUP2 SWAP1 JUMP JUMPDEST POP SWAP2 POP DUP1 SWAP2 DUP2 SWAP1 JUMP JUMPDEST SWAP2 POP DUP1 SWAP2 DUP2 SWAP1 JUMP INVALID LOG1 PUSH5 0x736F6C6343 STOP ADDMOD EQ STOP EXP 0x2F DUP8 DUP9 GT PUSH31 0x7EFF1D82E926EC794901D17C78024A50270940304540A733656F0DA164736F PUSH13 0x6343000814000A000000000000 "},"methodIdentifiers":{"byOwner(address,uint256)":"c82fcef0","count()":"06661abd","createOffering((address,uint256,uint256,uint256,uint256,uint256,bool,bool,uint256,uint256,address,address,address,address,uint256,uint8))":"3941bf52","createOfferingWithPaymentTokens((address,uint256,uint256,uint256,uint256,uint256,bool,bool,uint256,uint256,address,address,address,address,uint256,uint8,address[],address[]))":"e2976512","getAllOfferings()":"dc2a95bc","getOfferingAddress(uint256)":"ca18988a","getOfferingIdsByTokenOwner(address)":"2325d8e4","getOfferingOwner(address)":"79bf49b8","getUSDTConfig()":"577da058","offerings(uint256)":"e34fec1d","owner()":"8da5cb5b","owners(address)":"022914a7","renounceOwnership()":"715018a6","setUSDTConfig(address,address)":"40368db5","transferOwnership(address)":"f2fde38b","usdtAddress()":"9ab4a445","usdtOracleAddress()":"57878621"}}}}}