{"contracts/Escrow.sol":{"Escrow":{"abi":[{"inputs":[{"components":[{"internalType":"address","name":"owner","type":"address"}],"internalType":"struct EscrowConfig","name":"config","type":"tuple"}],"stateMutability":"nonpayable","type":"constructor"},{"inputs":[{"internalType":"address","name":"owner","type":"address"}],"name":"OwnableInvalidOwner","type":"error"},{"inputs":[{"internalType":"address","name":"account","type":"address"}],"name":"OwnableUnauthorizedAccount","type":"error"},{"inputs":[],"name":"ReentrancyGuardReentrantCall","type":"error"},{"anonymous":false,"inputs":[{"indexed":true,"internalType":"address","name":"offeringContract","type":"address"},{"indexed":true,"internalType":"address","name":"investor","type":"address"},{"indexed":true,"internalType":"address","name":"token","type":"address"},{"indexed":false,"internalType":"uint256","name":"amount","type":"uint256"}],"name":"Deposited","type":"event"},{"anonymous":false,"inputs":[{"indexed":true,"internalType":"address","name":"previousOwner","type":"address"},{"indexed":true,"internalType":"address","name":"newOwner","type":"address"}],"name":"OwnershipTransferred","type":"event"},{"anonymous":false,"inputs":[{"indexed":true,"internalType":"address","name":"offeringContract","type":"address"},{"indexed":true,"internalType":"address","name":"investor","type":"address"},{"indexed":true,"internalType":"address","name":"token","type":"address"},{"indexed":false,"internalType":"uint256","name":"amount","type":"uint256"}],"name":"Refunded","type":"event"},{"anonymous":false,"inputs":[],"name":"RefundsEnabled","type":"event"},{"anonymous":false,"inputs":[{"indexed":true,"internalType":"address","name":"token","type":"address"},{"indexed":false,"internalType":"uint256","name":"amount","type":"uint256"},{"indexed":true,"internalType":"address","name":"to","type":"address"}],"name":"Withdrawn","type":"event"},{"inputs":[{"internalType":"address","name":"_offeringContract","type":"address"},{"internalType":"address","name":"_investor","type":"address"}],"name":"depositNative","outputs":[],"stateMutability":"payable","type":"function"},{"inputs":[{"internalType":"address","name":"_offeringContract","type":"address"},{"internalType":"address","name":"_investor","type":"address"},{"internalType":"address","name":"tokenAddr","type":"address"},{"internalType":"uint256","name":"amount","type":"uint256"}],"name":"depositToken","outputs":[],"stateMutability":"nonpayable","type":"function"},{"inputs":[{"internalType":"address","name":"","type":"address"},{"internalType":"address","name":"","type":"address"}],"name":"deposits","outputs":[{"internalType":"uint256","name":"amount","type":"uint256"},{"internalType":"address","name":"token","type":"address"}],"stateMutability":"view","type":"function"},{"inputs":[],"name":"enableRefunds","outputs":[],"stateMutability":"nonpayable","type":"function"},{"inputs":[],"name":"owner","outputs":[{"internalType":"address","name":"","type":"address"}],"stateMutability":"view","type":"function"},{"inputs":[{"internalType":"address","name":"_offeringContract","type":"address"},{"internalType":"address","name":"_investor","type":"address"}],"name":"refund","outputs":[],"stateMutability":"nonpayable","type":"function"},{"inputs":[],"name":"refundsEnabled","outputs":[{"internalType":"bool","name":"","type":"bool"}],"stateMutability":"view","type":"function"},{"inputs":[],"name":"renounceOwnership","outputs":[],"stateMutability":"nonpayable","type":"function"},{"inputs":[{"internalType":"address","name":"newOwner","type":"address"}],"name":"transferOwnership","outputs":[],"stateMutability":"nonpayable","type":"function"},{"inputs":[{"internalType":"address","name":"tokenAddr","type":"address"},{"internalType":"uint256","name":"amount","type":"uint256"},{"internalType":"address","name":"to","type":"address"}],"name":"withdraw","outputs":[],"stateMutability":"nonpayable","type":"function"}],"evm":{"bytecode":{"linkReferences":{},"object":"60803461011857601f610ea638819003918201601f19168301926001600160401b039290918385118386101761011d57816020928492604097885283398101031261011857825191602083019081118382101761011d578352516001600160a01b03808216929091838103610118578152821561010057600080546001600160a01b031981168517825585519491908416907f8be0079c531659141344cd1fd0a4f28419497f9722a3daafe3b4186f6b6457e09080a3600180555116156100ce575051610d7290816101348239f35b62461bcd60e51b815260206004820152600d60248201526c24b73b30b634b21037bbb732b960991b6044820152606490fd5b8351631e4fbdf760e01b815260006004820152602490fd5b600080fd5b634e487b7160e01b600052604160045260246000fdfe6040608081526004908136101561001557600080fd5b600091823560e01c80630ef7c5a714610837578063532f1179146108135780635e30b8a61461058957806369328dec146102e857838163701bb8911461022257508063715018a6146101da5780638c52dc411461018d5780638da5cb5b146101615780638f601f66146101085763f2fde38b1461009157600080fd5b34610104576020366003190112610104576100aa6109f7565b906100b3610a3e565b6001600160a01b039182169283156100ee57505082546001600160a01b031981168317845516600080516020610cfd8339815191528380a380f35b51631e4fbdf760e01b8152908101849052602490fd5b8280fd5b82843461015e578160031936011261015e57816101236109f7565b9161012c610a12565b60018060a01b038094168252600360205283838320911682526020522090600182549201541682519182526020820152f35b80fd5b505034610189578160031936011261018957905490516001600160a01b039091168152602090f35b5080fd5b833461015e578060031936011261015e576101a6610a3e565b600160ff1960025416176002557f599d8e5a83cffb867d051598c4d70e805d59802d8081c1c7d6dffc5b6aca2b898180a180f35b833461015e578060031936011261015e576101f3610a3e565b80546001600160a01b03198116825581906001600160a01b0316600080516020610cfd8339815191528280a380f35b8084806003193601126102e5576102376109f7565b90600080516020610cdd8339815191526020610251610a12565b6001600160a01b039485169390859061026b338714610a6a565b610276341515610ac1565b61028560ff6002541615610afe565b610290861515610b44565b169461029d861515610b8c565b8151906102a982610bd3565b348252600184830192898452878a5260038652848a20898b528652848a20905181550191511660018060a01b031982541617905551348152a480f35b50fd5b509034610104576060366003190112610104576103036109f7565b91602491823591610312610a28565b9361031b610a3e565b610323610c3f565b6001600160a01b03858116968715610553571694856103e757508347106103b35786808080878a5af1610354610c7d565b501561037c575050600080516020610d1d833981519152916020915b51908152a36001805580f35b6013906020606494519362461bcd60e51b855284015282015272115512081dda5d1a191c985dc819985a5b1959606a1b6044820152fd5b6010906020606494519362461bcd60e51b85528401528201526f092dce6eaccccd2c6d2cadce8408aa8960831b6044820152fd5b83516370a0823160e01b8152308482015260209190828185818b5afa908115610549579087918b91610514575b50106104dd578186610439928751938492839263a9059cbb60e01b8452898401610c62565b03818c8b5af19081156104d35789916104a6575b501561046e57505050600080516020610d1d83398151915291602091610370565b90601591606494519362461bcd60e51b855284015282015274151bdad95b881dda5d1a191c985dc819985a5b1959605a1b6044820152fd5b6104c69150823d84116104cc575b6104be8183610c04565b810190610c27565b3861044d565b503d6104b4565b85513d8b823e3d90fd5b5090601391606494519362461bcd60e51b855284015282015272496e73756666696369656e7420746f6b656e7360681b6044820152fd5b809250848092503d8311610542575b61052d8183610c04565b8101031261053e5786905138610414565b8980fd5b503d610523565b86513d8c823e3d90fd5b845162461bcd60e51b815260208186015260118185015270125b9d985b1a59081c9958da5c1a595b9d607a1b6044820152606490fd5b5090346101045780600319360112610104576105a36109f7565b906105ac610a12565b926105b5610a3e565b6105bd610c3f565b60ff60025416156107db576001600160a01b03928316916105df831515610b44565b838516936105ee851515610b8c565b8387526020926003845282882086895284528288209083519761061089610bd3565b836001845494858c5201541692868a01938452156107a45789846001875161063781610bd3565b8381528981018481528b855260038b528985208d86528b5293899020905181559251920180546001600160a01b0319169190921617905582518416908690826106f157505050888080808b518b5af161068e610c7d565b50156106ba575090600080516020610cbd8339815191529392915b511695519051908152a46001805580f35b835162461bcd60e51b81529081018590526011602482015270115512081c99599d5b990819985a5b1959607a1b6044820152606490fd5b610713928b51918d895180968195829463a9059cbb60e01b84528a8401610c62565b03925af190811561079a578a9161077d575b5015610744575090600080516020610cbd8339815191529392916106a9565b835162461bcd60e51b81529081018590526013602482015272151bdad95b881c99599d5b990819985a5b1959606a1b6044820152606490fd5b6107949150863d88116104cc576104be8183610c04565b38610725565b85513d8c823e3d90fd5b845162461bcd60e51b81528083018790526011602482015270139bdd1a1a5b99c81d1bc81c99599d5b99607a1b6044820152606490fd5b6020606492519162461bcd60e51b835282015260136024820152721499599d5b991cc81b9bdd08195b98589b1959606a1b6044820152fd5b50503461018957816003193601126101895760209060ff6002541690519015158152f35b509034610104576080366003190112610104576108526109f7565b9061085b610a12565b92610864610a28565b9160643590610871610c3f565b6001600160a01b0394851693859061088a338714610a6a565b169586156109c457859061089f841515610ac1565b6108ae60ff6002541615610afe565b6108b9861515610b44565b16946108c6861515610b8c565b8151936323b872dd60e01b8552858186015230602486015283604486015260209485816064818d8d5af19081156109ba578a9161099d575b501561096857508151600080516020610cdd8339815191529493929161092382610bd3565b838252848201898152878b5260038652838b20898c528652838b20925183555160019290920180546001600160a01b0319169190921617905551908152a46001805580f35b825162461bcd60e51b8152908101859052600f60248201526e151c985b9cd9995c8819985a5b1959608a1b6044820152606490fd5b6109b49150863d88116104cc576104be8183610c04565b386108fe565b84513d8c823e3d90fd5b815162461bcd60e51b8152602081860152600d60248201526c24b73b30b634b2103a37b5b2b760991b6044820152606490fd5b600435906001600160a01b0382168203610a0d57565b600080fd5b602435906001600160a01b0382168203610a0d57565b604435906001600160a01b0382168203610a0d57565b6000546001600160a01b03163303610a5257565b60405163118cdaa760e01b8152336004820152602490fd5b15610a7157565b60405162461bcd60e51b815260206004820152602260248201527f4f6e6c79206f66666572696e6720636f6e74726163742063616e206465706f736044820152611a5d60f21b6064820152608490fd5b15610ac857565b60405162461bcd60e51b815260206004820152600e60248201526d125b9d985b1a5908185b5bdd5b9d60921b6044820152606490fd5b15610b0557565b60405162461bcd60e51b81526020600482015260176024820152761499599d5b991cc8185b1c9958591e48195b98589b1959604a1b6044820152606490fd5b15610b4b57565b60405162461bcd60e51b8152602060048201526019602482015278125b9d985b1a59081bd999995c9a5b99c818dbdb9d1c9858dd603a1b6044820152606490fd5b15610b9357565b60405162461bcd60e51b8152602060048201526018602482015277496e76616c696420696e766573746f72206164647265737360401b6044820152606490fd5b604081019081106001600160401b03821117610bee57604052565b634e487b7160e01b600052604160045260246000fd5b601f909101601f19168101906001600160401b03821190821017610bee57604052565b90816020910312610a0d57518015158103610a0d5790565b600260015414610c50576002600155565b604051633ee5aeb560e01b8152600490fd5b6001600160a01b039091168152602081019190915260400190565b3d15610cb7573d906001600160401b038211610bee5760405191610cab601f8201601f191660200184610c04565b82523d6000602084013e565b60609056feb7c482f0c0b7ad56e2c7004be448a8ead98a8bbe84675fd80b273563099f85604174a9435a04d04d274c76779cad136a41fde6937c56241c09ab9d3c7064a1a98be0079c531659141344cd1fd0a4f28419497f9722a3daafe3b4186f6b6457e0cbcdbdf10631a43cc99c80acace8232649421c3f4f73919f16013d47c83a687aa264697066735822122088ff976f420e3b371b4f5b0167f151bab05abfa37e1c0ee51d3925323aebfeac64736f6c63430008140033","opcodes":"PUSH1 0x80 CALLVALUE PUSH2 0x118 JUMPI PUSH1 0x1F PUSH2 0xEA6 CODESIZE DUP2 SWAP1 SUB SWAP2 DUP3 ADD PUSH1 0x1F NOT AND DUP4 ADD SWAP3 PUSH1 0x1 PUSH1 0x1 PUSH1 0x40 SHL SUB SWAP3 SWAP1 SWAP2 DUP4 DUP6 GT DUP4 DUP7 LT OR PUSH2 0x11D JUMPI DUP2 PUSH1 0x20 SWAP3 DUP5 SWAP3 PUSH1 0x40 SWAP8 DUP9 MSTORE DUP4 CODECOPY DUP2 ADD SUB SLT PUSH2 0x118 JUMPI DUP3 MLOAD SWAP2 PUSH1 0x20 DUP4 ADD SWAP1 DUP2 GT DUP4 DUP3 LT OR PUSH2 0x11D JUMPI DUP4 MSTORE MLOAD PUSH1 0x1 PUSH1 0x1 PUSH1 0xA0 SHL SUB DUP1 DUP3 AND SWAP3 SWAP1 SWAP2 DUP4 DUP2 SUB PUSH2 0x118 JUMPI DUP2 MSTORE DUP3 ISZERO PUSH2 0x100 JUMPI PUSH1 0x0 DUP1 SLOAD PUSH1 0x1 PUSH1 0x1 PUSH1 0xA0 SHL SUB NOT DUP2 AND DUP6 OR DUP3 SSTORE DUP6 MLOAD SWAP5 SWAP2 SWAP1 DUP5 AND SWAP1 PUSH32 0x8BE0079C531659141344CD1FD0A4F28419497F9722A3DAAFE3B4186F6B6457E0 SWAP1 DUP1 LOG3 PUSH1 0x1 DUP1 SSTORE MLOAD AND ISZERO PUSH2 0xCE JUMPI POP MLOAD PUSH2 0xD72 SWAP1 DUP2 PUSH2 0x134 DUP3 CODECOPY RETURN JUMPDEST PUSH3 0x461BCD PUSH1 0xE5 SHL DUP2 MSTORE PUSH1 0x20 PUSH1 0x4 DUP3 ADD MSTORE PUSH1 0xD PUSH1 0x24 DUP3 ADD MSTORE PUSH13 0x24B73B30B634B21037BBB732B9 PUSH1 0x99 SHL PUSH1 0x44 DUP3 ADD MSTORE PUSH1 0x64 SWAP1 REVERT JUMPDEST DUP4 MLOAD PUSH4 0x1E4FBDF7 PUSH1 0xE0 SHL DUP2 MSTORE PUSH1 0x0 PUSH1 0x4 DUP3 ADD MSTORE PUSH1 0x24 SWAP1 REVERT JUMPDEST PUSH1 0x0 DUP1 REVERT JUMPDEST PUSH4 0x4E487B71 PUSH1 0xE0 SHL PUSH1 0x0 MSTORE PUSH1 0x41 PUSH1 0x4 MSTORE PUSH1 0x24 PUSH1 0x0 REVERT INVALID PUSH1 0x40 PUSH1 0x80 DUP2 MSTORE PUSH1 0x4 SWAP1 DUP2 CALLDATASIZE LT ISZERO PUSH2 0x15 JUMPI PUSH1 0x0 DUP1 REVERT JUMPDEST PUSH1 0x0 SWAP2 DUP3 CALLDATALOAD PUSH1 0xE0 SHR DUP1 PUSH4 0xEF7C5A7 EQ PUSH2 0x837 JUMPI DUP1 PUSH4 0x532F1179 EQ PUSH2 0x813 JUMPI DUP1 PUSH4 0x5E30B8A6 EQ PUSH2 0x589 JUMPI DUP1 PUSH4 0x69328DEC EQ PUSH2 0x2E8 JUMPI DUP4 DUP2 PUSH4 0x701BB891 EQ PUSH2 0x222 JUMPI POP DUP1 PUSH4 0x715018A6 EQ PUSH2 0x1DA JUMPI DUP1 PUSH4 0x8C52DC41 EQ PUSH2 0x18D JUMPI DUP1 PUSH4 0x8DA5CB5B EQ PUSH2 0x161 JUMPI DUP1 PUSH4 0x8F601F66 EQ PUSH2 0x108 JUMPI PUSH4 0xF2FDE38B EQ PUSH2 0x91 JUMPI PUSH1 0x0 DUP1 REVERT JUMPDEST CALLVALUE PUSH2 0x104 JUMPI PUSH1 0x20 CALLDATASIZE PUSH1 0x3 NOT ADD SLT PUSH2 0x104 JUMPI PUSH2 0xAA PUSH2 0x9F7 JUMP JUMPDEST SWAP1 PUSH2 0xB3 PUSH2 0xA3E JUMP JUMPDEST PUSH1 0x1 PUSH1 0x1 PUSH1 0xA0 SHL SUB SWAP2 DUP3 AND SWAP3 DUP4 ISZERO PUSH2 0xEE JUMPI POP POP DUP3 SLOAD PUSH1 0x1 PUSH1 0x1 PUSH1 0xA0 SHL SUB NOT DUP2 AND DUP4 OR DUP5 SSTORE AND PUSH1 0x0 DUP1 MLOAD PUSH1 0x20 PUSH2 0xCFD DUP4 CODECOPY DUP2 MLOAD SWAP2 MSTORE DUP4 DUP1 LOG3 DUP1 RETURN JUMPDEST MLOAD PUSH4 0x1E4FBDF7 PUSH1 0xE0 SHL DUP2 MSTORE SWAP1 DUP2 ADD DUP5 SWAP1 MSTORE PUSH1 0x24 SWAP1 REVERT JUMPDEST DUP3 DUP1 REVERT JUMPDEST DUP3 DUP5 CALLVALUE PUSH2 0x15E JUMPI DUP2 PUSH1 0x3 NOT CALLDATASIZE ADD SLT PUSH2 0x15E JUMPI DUP2 PUSH2 0x123 PUSH2 0x9F7 JUMP JUMPDEST SWAP2 PUSH2 0x12C PUSH2 0xA12 JUMP JUMPDEST PUSH1 0x1 DUP1 PUSH1 0xA0 SHL SUB DUP1 SWAP5 AND DUP3 MSTORE PUSH1 0x3 PUSH1 0x20 MSTORE DUP4 DUP4 DUP4 KECCAK256 SWAP2 AND DUP3 MSTORE PUSH1 0x20 MSTORE KECCAK256 SWAP1 PUSH1 0x1 DUP3 SLOAD SWAP3 ADD SLOAD AND DUP3 MLOAD SWAP2 DUP3 MSTORE PUSH1 0x20 DUP3 ADD MSTORE RETURN JUMPDEST DUP1 REVERT JUMPDEST POP POP CALLVALUE PUSH2 0x189 JUMPI DUP2 PUSH1 0x3 NOT CALLDATASIZE ADD SLT PUSH2 0x189 JUMPI SWAP1 SLOAD SWAP1 MLOAD PUSH1 0x1 PUSH1 0x1 PUSH1 0xA0 SHL SUB SWAP1 SWAP2 AND DUP2 MSTORE PUSH1 0x20 SWAP1 RETURN JUMPDEST POP DUP1 REVERT JUMPDEST DUP4 CALLVALUE PUSH2 0x15E JUMPI DUP1 PUSH1 0x3 NOT CALLDATASIZE ADD SLT PUSH2 0x15E JUMPI PUSH2 0x1A6 PUSH2 0xA3E JUMP JUMPDEST PUSH1 0x1 PUSH1 0xFF NOT PUSH1 0x2 SLOAD AND OR PUSH1 0x2 SSTORE PUSH32 0x599D8E5A83CFFB867D051598C4D70E805D59802D8081C1C7D6DFFC5B6ACA2B89 DUP2 DUP1 LOG1 DUP1 RETURN JUMPDEST DUP4 CALLVALUE PUSH2 0x15E JUMPI DUP1 PUSH1 0x3 NOT CALLDATASIZE ADD SLT PUSH2 0x15E JUMPI PUSH2 0x1F3 PUSH2 0xA3E JUMP JUMPDEST DUP1 SLOAD PUSH1 0x1 PUSH1 0x1 PUSH1 0xA0 SHL SUB NOT DUP2 AND DUP3 SSTORE DUP2 SWAP1 PUSH1 0x1 PUSH1 0x1 PUSH1 0xA0 SHL SUB AND PUSH1 0x0 DUP1 MLOAD PUSH1 0x20 PUSH2 0xCFD DUP4 CODECOPY DUP2 MLOAD SWAP2 MSTORE DUP3 DUP1 LOG3 DUP1 RETURN JUMPDEST DUP1 DUP5 DUP1 PUSH1 0x3 NOT CALLDATASIZE ADD SLT PUSH2 0x2E5 JUMPI PUSH2 0x237 PUSH2 0x9F7 JUMP JUMPDEST SWAP1 PUSH1 0x0 DUP1 MLOAD PUSH1 0x20 PUSH2 0xCDD DUP4 CODECOPY DUP2 MLOAD SWAP2 MSTORE PUSH1 0x20 PUSH2 0x251 PUSH2 0xA12 JUMP JUMPDEST PUSH1 0x1 PUSH1 0x1 PUSH1 0xA0 SHL SUB SWAP5 DUP6 AND SWAP4 SWAP1 DUP6 SWAP1 PUSH2 0x26B CALLER DUP8 EQ PUSH2 0xA6A JUMP JUMPDEST PUSH2 0x276 CALLVALUE ISZERO ISZERO PUSH2 0xAC1 JUMP JUMPDEST PUSH2 0x285 PUSH1 0xFF PUSH1 0x2 SLOAD AND ISZERO PUSH2 0xAFE JUMP JUMPDEST PUSH2 0x290 DUP7 ISZERO ISZERO PUSH2 0xB44 JUMP JUMPDEST AND SWAP5 PUSH2 0x29D DUP7 ISZERO ISZERO PUSH2 0xB8C JUMP JUMPDEST DUP2 MLOAD SWAP1 PUSH2 0x2A9 DUP3 PUSH2 0xBD3 JUMP JUMPDEST CALLVALUE DUP3 MSTORE PUSH1 0x1 DUP5 DUP4 ADD SWAP3 DUP10 DUP5 MSTORE DUP8 DUP11 MSTORE PUSH1 0x3 DUP7 MSTORE DUP5 DUP11 KECCAK256 DUP10 DUP12 MSTORE DUP7 MSTORE DUP5 DUP11 KECCAK256 SWAP1 MLOAD DUP2 SSTORE ADD SWAP2 MLOAD AND PUSH1 0x1 DUP1 PUSH1 0xA0 SHL SUB NOT DUP3 SLOAD AND OR SWAP1 SSTORE MLOAD CALLVALUE DUP2 MSTORE LOG4 DUP1 RETURN JUMPDEST POP REVERT JUMPDEST POP SWAP1 CALLVALUE PUSH2 0x104 JUMPI PUSH1 0x60 CALLDATASIZE PUSH1 0x3 NOT ADD SLT PUSH2 0x104 JUMPI PUSH2 0x303 PUSH2 0x9F7 JUMP JUMPDEST SWAP2 PUSH1 0x24 SWAP2 DUP3 CALLDATALOAD SWAP2 PUSH2 0x312 PUSH2 0xA28 JUMP JUMPDEST SWAP4 PUSH2 0x31B PUSH2 0xA3E JUMP JUMPDEST PUSH2 0x323 PUSH2 0xC3F JUMP JUMPDEST PUSH1 0x1 PUSH1 0x1 PUSH1 0xA0 SHL SUB DUP6 DUP2 AND SWAP7 DUP8 ISZERO PUSH2 0x553 JUMPI AND SWAP5 DUP6 PUSH2 0x3E7 JUMPI POP DUP4 SELFBALANCE LT PUSH2 0x3B3 JUMPI DUP7 DUP1 DUP1 DUP1 DUP8 DUP11 GAS CALL PUSH2 0x354 PUSH2 0xC7D JUMP JUMPDEST POP ISZERO PUSH2 0x37C JUMPI POP POP PUSH1 0x0 DUP1 MLOAD PUSH1 0x20 PUSH2 0xD1D DUP4 CODECOPY DUP2 MLOAD SWAP2 MSTORE SWAP2 PUSH1 0x20 SWAP2 JUMPDEST MLOAD SWAP1 DUP2 MSTORE LOG3 PUSH1 0x1 DUP1 SSTORE DUP1 RETURN JUMPDEST PUSH1 0x13 SWAP1 PUSH1 0x20 PUSH1 0x64 SWAP5 MLOAD SWAP4 PUSH3 0x461BCD PUSH1 0xE5 SHL DUP6 MSTORE DUP5 ADD MSTORE DUP3 ADD MSTORE PUSH19 0x115512081DDA5D1A191C985DC819985A5B1959 PUSH1 0x6A SHL PUSH1 0x44 DUP3 ADD MSTORE REVERT JUMPDEST PUSH1 0x10 SWAP1 PUSH1 0x20 PUSH1 0x64 SWAP5 MLOAD SWAP4 PUSH3 0x461BCD PUSH1 0xE5 SHL DUP6 MSTORE DUP5 ADD MSTORE DUP3 ADD MSTORE PUSH16 0x92DCE6EACCCCD2C6D2CADCE8408AA89 PUSH1 0x83 SHL PUSH1 0x44 DUP3 ADD MSTORE REVERT JUMPDEST DUP4 MLOAD PUSH4 0x70A08231 PUSH1 0xE0 SHL DUP2 MSTORE ADDRESS DUP5 DUP3 ADD MSTORE PUSH1 0x20 SWAP2 SWAP1 DUP3 DUP2 DUP6 DUP2 DUP12 GAS STATICCALL SWAP1 DUP2 ISZERO PUSH2 0x549 JUMPI SWAP1 DUP8 SWAP2 DUP12 SWAP2 PUSH2 0x514 JUMPI JUMPDEST POP LT PUSH2 0x4DD JUMPI DUP2 DUP7 PUSH2 0x439 SWAP3 DUP8 MLOAD SWAP4 DUP5 SWAP3 DUP4 SWAP3 PUSH4 0xA9059CBB PUSH1 0xE0 SHL DUP5 MSTORE DUP10 DUP5 ADD PUSH2 0xC62 JUMP JUMPDEST SUB DUP2 DUP13 DUP12 GAS CALL SWAP1 DUP2 ISZERO PUSH2 0x4D3 JUMPI DUP10 SWAP2 PUSH2 0x4A6 JUMPI JUMPDEST POP ISZERO PUSH2 0x46E JUMPI POP POP POP PUSH1 0x0 DUP1 MLOAD PUSH1 0x20 PUSH2 0xD1D DUP4 CODECOPY DUP2 MLOAD SWAP2 MSTORE SWAP2 PUSH1 0x20 SWAP2 PUSH2 0x370 JUMP JUMPDEST SWAP1 PUSH1 0x15 SWAP2 PUSH1 0x64 SWAP5 MLOAD SWAP4 PUSH3 0x461BCD PUSH1 0xE5 SHL DUP6 MSTORE DUP5 ADD MSTORE DUP3 ADD MSTORE PUSH21 0x151BDAD95B881DDA5D1A191C985DC819985A5B1959 PUSH1 0x5A SHL PUSH1 0x44 DUP3 ADD MSTORE REVERT JUMPDEST PUSH2 0x4C6 SWAP2 POP DUP3 RETURNDATASIZE DUP5 GT PUSH2 0x4CC JUMPI JUMPDEST PUSH2 0x4BE DUP2 DUP4 PUSH2 0xC04 JUMP JUMPDEST DUP2 ADD SWAP1 PUSH2 0xC27 JUMP JUMPDEST CODESIZE PUSH2 0x44D JUMP JUMPDEST POP RETURNDATASIZE PUSH2 0x4B4 JUMP JUMPDEST DUP6 MLOAD RETURNDATASIZE DUP12 DUP3 RETURNDATACOPY RETURNDATASIZE SWAP1 REVERT JUMPDEST POP SWAP1 PUSH1 0x13 SWAP2 PUSH1 0x64 SWAP5 MLOAD SWAP4 PUSH3 0x461BCD PUSH1 0xE5 SHL DUP6 MSTORE DUP5 ADD MSTORE DUP3 ADD MSTORE PUSH19 0x496E73756666696369656E7420746F6B656E73 PUSH1 0x68 SHL PUSH1 0x44 DUP3 ADD MSTORE REVERT JUMPDEST DUP1 SWAP3 POP DUP5 DUP1 SWAP3 POP RETURNDATASIZE DUP4 GT PUSH2 0x542 JUMPI JUMPDEST PUSH2 0x52D DUP2 DUP4 PUSH2 0xC04 JUMP JUMPDEST DUP2 ADD SUB SLT PUSH2 0x53E JUMPI DUP7 SWAP1 MLOAD CODESIZE PUSH2 0x414 JUMP JUMPDEST DUP10 DUP1 REVERT JUMPDEST POP RETURNDATASIZE PUSH2 0x523 JUMP JUMPDEST DUP7 MLOAD RETURNDATASIZE DUP13 DUP3 RETURNDATACOPY RETURNDATASIZE SWAP1 REVERT JUMPDEST DUP5 MLOAD PUSH3 0x461BCD PUSH1 0xE5 SHL DUP2 MSTORE PUSH1 0x20 DUP2 DUP7 ADD MSTORE PUSH1 0x11 DUP2 DUP6 ADD MSTORE PUSH17 0x125B9D985B1A59081C9958DA5C1A595B9D PUSH1 0x7A SHL PUSH1 0x44 DUP3 ADD MSTORE PUSH1 0x64 SWAP1 REVERT JUMPDEST POP SWAP1 CALLVALUE PUSH2 0x104 JUMPI DUP1 PUSH1 0x3 NOT CALLDATASIZE ADD SLT PUSH2 0x104 JUMPI PUSH2 0x5A3 PUSH2 0x9F7 JUMP JUMPDEST SWAP1 PUSH2 0x5AC PUSH2 0xA12 JUMP JUMPDEST SWAP3 PUSH2 0x5B5 PUSH2 0xA3E JUMP JUMPDEST PUSH2 0x5BD PUSH2 0xC3F JUMP JUMPDEST PUSH1 0xFF PUSH1 0x2 SLOAD AND ISZERO PUSH2 0x7DB JUMPI PUSH1 0x1 PUSH1 0x1 PUSH1 0xA0 SHL SUB SWAP3 DUP4 AND SWAP2 PUSH2 0x5DF DUP4 ISZERO ISZERO PUSH2 0xB44 JUMP JUMPDEST DUP4 DUP6 AND SWAP4 PUSH2 0x5EE DUP6 ISZERO ISZERO PUSH2 0xB8C JUMP JUMPDEST DUP4 DUP8 MSTORE PUSH1 0x20 SWAP3 PUSH1 0x3 DUP5 MSTORE DUP3 DUP9 KECCAK256 DUP7 DUP10 MSTORE DUP5 MSTORE DUP3 DUP9 KECCAK256 SWAP1 DUP4 MLOAD SWAP8 PUSH2 0x610 DUP10 PUSH2 0xBD3 JUMP JUMPDEST DUP4 PUSH1 0x1 DUP5 SLOAD SWAP5 DUP6 DUP13 MSTORE ADD SLOAD AND SWAP3 DUP7 DUP11 ADD SWAP4 DUP5 MSTORE ISZERO PUSH2 0x7A4 JUMPI DUP10 DUP5 PUSH1 0x1 DUP8 MLOAD PUSH2 0x637 DUP2 PUSH2 0xBD3 JUMP JUMPDEST DUP4 DUP2 MSTORE DUP10 DUP2 ADD DUP5 DUP2 MSTORE DUP12 DUP6 MSTORE PUSH1 0x3 DUP12 MSTORE DUP10 DUP6 KECCAK256 DUP14 DUP7 MSTORE DUP12 MSTORE SWAP4 DUP10 SWAP1 KECCAK256 SWAP1 MLOAD DUP2 SSTORE SWAP3 MLOAD SWAP3 ADD DUP1 SLOAD PUSH1 0x1 PUSH1 0x1 PUSH1 0xA0 SHL SUB NOT AND SWAP2 SWAP1 SWAP3 AND OR SWAP1 SSTORE DUP3 MLOAD DUP5 AND SWAP1 DUP7 SWAP1 DUP3 PUSH2 0x6F1 JUMPI POP POP POP DUP9 DUP1 DUP1 DUP1 DUP12 MLOAD DUP12 GAS CALL PUSH2 0x68E PUSH2 0xC7D JUMP JUMPDEST POP ISZERO PUSH2 0x6BA JUMPI POP SWAP1 PUSH1 0x0 DUP1 MLOAD PUSH1 0x20 PUSH2 0xCBD DUP4 CODECOPY DUP2 MLOAD SWAP2 MSTORE SWAP4 SWAP3 SWAP2 JUMPDEST MLOAD AND SWAP6 MLOAD SWAP1 MLOAD SWAP1 DUP2 MSTORE LOG4 PUSH1 0x1 DUP1 SSTORE DUP1 RETURN JUMPDEST DUP4 MLOAD PUSH3 0x461BCD PUSH1 0xE5 SHL DUP2 MSTORE SWAP1 DUP2 ADD DUP6 SWAP1 MSTORE PUSH1 0x11 PUSH1 0x24 DUP3 ADD MSTORE PUSH17 0x115512081C99599D5B990819985A5B1959 PUSH1 0x7A SHL PUSH1 0x44 DUP3 ADD MSTORE PUSH1 0x64 SWAP1 REVERT JUMPDEST PUSH2 0x713 SWAP3 DUP12 MLOAD SWAP2 DUP14 DUP10 MLOAD DUP1 SWAP7 DUP2 SWAP6 DUP3 SWAP5 PUSH4 0xA9059CBB PUSH1 0xE0 SHL DUP5 MSTORE DUP11 DUP5 ADD PUSH2 0xC62 JUMP JUMPDEST SUB SWAP3 GAS CALL SWAP1 DUP2 ISZERO PUSH2 0x79A JUMPI DUP11 SWAP2 PUSH2 0x77D JUMPI JUMPDEST POP ISZERO PUSH2 0x744 JUMPI POP SWAP1 PUSH1 0x0 DUP1 MLOAD PUSH1 0x20 PUSH2 0xCBD DUP4 CODECOPY DUP2 MLOAD SWAP2 MSTORE SWAP4 SWAP3 SWAP2 PUSH2 0x6A9 JUMP JUMPDEST DUP4 MLOAD PUSH3 0x461BCD PUSH1 0xE5 SHL DUP2 MSTORE SWAP1 DUP2 ADD DUP6 SWAP1 MSTORE PUSH1 0x13 PUSH1 0x24 DUP3 ADD MSTORE PUSH19 0x151BDAD95B881C99599D5B990819985A5B1959 PUSH1 0x6A SHL PUSH1 0x44 DUP3 ADD MSTORE PUSH1 0x64 SWAP1 REVERT JUMPDEST PUSH2 0x794 SWAP2 POP DUP7 RETURNDATASIZE DUP9 GT PUSH2 0x4CC JUMPI PUSH2 0x4BE DUP2 DUP4 PUSH2 0xC04 JUMP JUMPDEST CODESIZE PUSH2 0x725 JUMP JUMPDEST DUP6 MLOAD RETURNDATASIZE DUP13 DUP3 RETURNDATACOPY RETURNDATASIZE SWAP1 REVERT JUMPDEST DUP5 MLOAD PUSH3 0x461BCD PUSH1 0xE5 SHL DUP2 MSTORE DUP1 DUP4 ADD DUP8 SWAP1 MSTORE PUSH1 0x11 PUSH1 0x24 DUP3 ADD MSTORE PUSH17 0x139BDD1A1A5B99C81D1BC81C99599D5B99 PUSH1 0x7A SHL PUSH1 0x44 DUP3 ADD MSTORE PUSH1 0x64 SWAP1 REVERT JUMPDEST PUSH1 0x20 PUSH1 0x64 SWAP3 MLOAD SWAP2 PUSH3 0x461BCD PUSH1 0xE5 SHL DUP4 MSTORE DUP3 ADD MSTORE PUSH1 0x13 PUSH1 0x24 DUP3 ADD MSTORE PUSH19 0x1499599D5B991CC81B9BDD08195B98589B1959 PUSH1 0x6A SHL PUSH1 0x44 DUP3 ADD MSTORE REVERT JUMPDEST POP POP CALLVALUE PUSH2 0x189 JUMPI DUP2 PUSH1 0x3 NOT CALLDATASIZE ADD SLT PUSH2 0x189 JUMPI PUSH1 0x20 SWAP1 PUSH1 0xFF PUSH1 0x2 SLOAD AND SWAP1 MLOAD SWAP1 ISZERO ISZERO DUP2 MSTORE RETURN JUMPDEST POP SWAP1 CALLVALUE PUSH2 0x104 JUMPI PUSH1 0x80 CALLDATASIZE PUSH1 0x3 NOT ADD SLT PUSH2 0x104 JUMPI PUSH2 0x852 PUSH2 0x9F7 JUMP JUMPDEST SWAP1 PUSH2 0x85B PUSH2 0xA12 JUMP JUMPDEST SWAP3 PUSH2 0x864 PUSH2 0xA28 JUMP JUMPDEST SWAP2 PUSH1 0x64 CALLDATALOAD SWAP1 PUSH2 0x871 PUSH2 0xC3F JUMP JUMPDEST PUSH1 0x1 PUSH1 0x1 PUSH1 0xA0 SHL SUB SWAP5 DUP6 AND SWAP4 DUP6 SWAP1 PUSH2 0x88A CALLER DUP8 EQ PUSH2 0xA6A JUMP JUMPDEST AND SWAP6 DUP7 ISZERO PUSH2 0x9C4 JUMPI DUP6 SWAP1 PUSH2 0x89F DUP5 ISZERO ISZERO PUSH2 0xAC1 JUMP JUMPDEST PUSH2 0x8AE PUSH1 0xFF PUSH1 0x2 SLOAD AND ISZERO PUSH2 0xAFE JUMP JUMPDEST PUSH2 0x8B9 DUP7 ISZERO ISZERO PUSH2 0xB44 JUMP JUMPDEST AND SWAP5 PUSH2 0x8C6 DUP7 ISZERO ISZERO PUSH2 0xB8C JUMP JUMPDEST DUP2 MLOAD SWAP4 PUSH4 0x23B872DD PUSH1 0xE0 SHL DUP6 MSTORE DUP6 DUP2 DUP7 ADD MSTORE ADDRESS PUSH1 0x24 DUP7 ADD MSTORE DUP4 PUSH1 0x44 DUP7 ADD MSTORE PUSH1 0x20 SWAP5 DUP6 DUP2 PUSH1 0x64 DUP2 DUP14 DUP14 GAS CALL SWAP1 DUP2 ISZERO PUSH2 0x9BA JUMPI DUP11 SWAP2 PUSH2 0x99D JUMPI JUMPDEST POP ISZERO PUSH2 0x968 JUMPI POP DUP2 MLOAD PUSH1 0x0 DUP1 MLOAD PUSH1 0x20 PUSH2 0xCDD DUP4 CODECOPY DUP2 MLOAD SWAP2 MSTORE SWAP5 SWAP4 SWAP3 SWAP2 PUSH2 0x923 DUP3 PUSH2 0xBD3 JUMP JUMPDEST DUP4 DUP3 MSTORE DUP5 DUP3 ADD DUP10 DUP2 MSTORE DUP8 DUP12 MSTORE PUSH1 0x3 DUP7 MSTORE DUP4 DUP12 KECCAK256 DUP10 DUP13 MSTORE DUP7 MSTORE DUP4 DUP12 KECCAK256 SWAP3 MLOAD DUP4 SSTORE MLOAD PUSH1 0x1 SWAP3 SWAP1 SWAP3 ADD DUP1 SLOAD PUSH1 0x1 PUSH1 0x1 PUSH1 0xA0 SHL SUB NOT AND SWAP2 SWAP1 SWAP3 AND OR SWAP1 SSTORE MLOAD SWAP1 DUP2 MSTORE LOG4 PUSH1 0x1 DUP1 SSTORE DUP1 RETURN JUMPDEST DUP3 MLOAD PUSH3 0x461BCD PUSH1 0xE5 SHL DUP2 MSTORE SWAP1 DUP2 ADD DUP6 SWAP1 MSTORE PUSH1 0xF PUSH1 0x24 DUP3 ADD MSTORE PUSH15 0x151C985B9CD9995C8819985A5B1959 PUSH1 0x8A SHL PUSH1 0x44 DUP3 ADD MSTORE PUSH1 0x64 SWAP1 REVERT JUMPDEST PUSH2 0x9B4 SWAP2 POP DUP7 RETURNDATASIZE DUP9 GT PUSH2 0x4CC JUMPI PUSH2 0x4BE DUP2 DUP4 PUSH2 0xC04 JUMP JUMPDEST CODESIZE PUSH2 0x8FE JUMP JUMPDEST DUP5 MLOAD RETURNDATASIZE DUP13 DUP3 RETURNDATACOPY RETURNDATASIZE SWAP1 REVERT JUMPDEST DUP2 MLOAD PUSH3 0x461BCD PUSH1 0xE5 SHL DUP2 MSTORE PUSH1 0x20 DUP2 DUP7 ADD MSTORE PUSH1 0xD PUSH1 0x24 DUP3 ADD MSTORE PUSH13 0x24B73B30B634B2103A37B5B2B7 PUSH1 0x99 SHL PUSH1 0x44 DUP3 ADD MSTORE PUSH1 0x64 SWAP1 REVERT JUMPDEST PUSH1 0x4 CALLDATALOAD SWAP1 PUSH1 0x1 PUSH1 0x1 PUSH1 0xA0 SHL SUB DUP3 AND DUP3 SUB PUSH2 0xA0D JUMPI JUMP JUMPDEST PUSH1 0x0 DUP1 REVERT JUMPDEST PUSH1 0x24 CALLDATALOAD SWAP1 PUSH1 0x1 PUSH1 0x1 PUSH1 0xA0 SHL SUB DUP3 AND DUP3 SUB PUSH2 0xA0D JUMPI JUMP JUMPDEST PUSH1 0x44 CALLDATALOAD SWAP1 PUSH1 0x1 PUSH1 0x1 PUSH1 0xA0 SHL SUB DUP3 AND DUP3 SUB PUSH2 0xA0D JUMPI JUMP JUMPDEST PUSH1 0x0 SLOAD PUSH1 0x1 PUSH1 0x1 PUSH1 0xA0 SHL SUB AND CALLER SUB PUSH2 0xA52 JUMPI JUMP JUMPDEST PUSH1 0x40 MLOAD PUSH4 0x118CDAA7 PUSH1 0xE0 SHL DUP2 MSTORE CALLER PUSH1 0x4 DUP3 ADD MSTORE PUSH1 0x24 SWAP1 REVERT JUMPDEST ISZERO PUSH2 0xA71 JUMPI JUMP JUMPDEST PUSH1 0x40 MLOAD PUSH3 0x461BCD PUSH1 0xE5 SHL DUP2 MSTORE PUSH1 0x20 PUSH1 0x4 DUP3 ADD MSTORE PUSH1 0x22 PUSH1 0x24 DUP3 ADD MSTORE PUSH32 0x4F6E6C79206F66666572696E6720636F6E74726163742063616E206465706F73 PUSH1 0x44 DUP3 ADD MSTORE PUSH2 0x1A5D PUSH1 0xF2 SHL PUSH1 0x64 DUP3 ADD MSTORE PUSH1 0x84 SWAP1 REVERT JUMPDEST ISZERO PUSH2 0xAC8 JUMPI JUMP JUMPDEST PUSH1 0x40 MLOAD PUSH3 0x461BCD PUSH1 0xE5 SHL DUP2 MSTORE PUSH1 0x20 PUSH1 0x4 DUP3 ADD MSTORE PUSH1 0xE PUSH1 0x24 DUP3 ADD MSTORE PUSH14 0x125B9D985B1A5908185B5BDD5B9D PUSH1 0x92 SHL PUSH1 0x44 DUP3 ADD MSTORE PUSH1 0x64 SWAP1 REVERT JUMPDEST ISZERO PUSH2 0xB05 JUMPI JUMP JUMPDEST PUSH1 0x40 MLOAD PUSH3 0x461BCD PUSH1 0xE5 SHL DUP2 MSTORE PUSH1 0x20 PUSH1 0x4 DUP3 ADD MSTORE PUSH1 0x17 PUSH1 0x24 DUP3 ADD MSTORE PUSH23 0x1499599D5B991CC8185B1C9958591E48195B98589B1959 PUSH1 0x4A SHL PUSH1 0x44 DUP3 ADD MSTORE PUSH1 0x64 SWAP1 REVERT JUMPDEST ISZERO PUSH2 0xB4B JUMPI JUMP JUMPDEST PUSH1 0x40 MLOAD PUSH3 0x461BCD PUSH1 0xE5 SHL DUP2 MSTORE PUSH1 0x20 PUSH1 0x4 DUP3 ADD MSTORE PUSH1 0x19 PUSH1 0x24 DUP3 ADD MSTORE PUSH25 0x125B9D985B1A59081BD999995C9A5B99C818DBDB9D1C9858DD PUSH1 0x3A SHL PUSH1 0x44 DUP3 ADD MSTORE PUSH1 0x64 SWAP1 REVERT JUMPDEST ISZERO PUSH2 0xB93 JUMPI JUMP JUMPDEST PUSH1 0x40 MLOAD PUSH3 0x461BCD PUSH1 0xE5 SHL DUP2 MSTORE PUSH1 0x20 PUSH1 0x4 DUP3 ADD MSTORE PUSH1 0x18 PUSH1 0x24 DUP3 ADD MSTORE PUSH24 0x496E76616C696420696E766573746F722061646472657373 PUSH1 0x40 SHL PUSH1 0x44 DUP3 ADD MSTORE PUSH1 0x64 SWAP1 REVERT JUMPDEST PUSH1 0x40 DUP2 ADD SWAP1 DUP2 LT PUSH1 0x1 PUSH1 0x1 PUSH1 0x40 SHL SUB DUP3 GT OR PUSH2 0xBEE JUMPI PUSH1 0x40 MSTORE JUMP JUMPDEST PUSH4 0x4E487B71 PUSH1 0xE0 SHL PUSH1 0x0 MSTORE PUSH1 0x41 PUSH1 0x4 MSTORE PUSH1 0x24 PUSH1 0x0 REVERT JUMPDEST PUSH1 0x1F SWAP1 SWAP2 ADD PUSH1 0x1F NOT AND DUP2 ADD SWAP1 PUSH1 0x1 PUSH1 0x1 PUSH1 0x40 SHL SUB DUP3 GT SWAP1 DUP3 LT OR PUSH2 0xBEE JUMPI PUSH1 0x40 MSTORE JUMP JUMPDEST SWAP1 DUP2 PUSH1 0x20 SWAP2 SUB SLT PUSH2 0xA0D JUMPI MLOAD DUP1 ISZERO ISZERO DUP2 SUB PUSH2 0xA0D JUMPI SWAP1 JUMP JUMPDEST PUSH1 0x2 PUSH1 0x1 SLOAD EQ PUSH2 0xC50 JUMPI PUSH1 0x2 PUSH1 0x1 SSTORE JUMP JUMPDEST PUSH1 0x40 MLOAD PUSH4 0x3EE5AEB5 PUSH1 0xE0 SHL DUP2 MSTORE PUSH1 0x4 SWAP1 REVERT JUMPDEST PUSH1 0x1 PUSH1 0x1 PUSH1 0xA0 SHL SUB SWAP1 SWAP2 AND DUP2 MSTORE PUSH1 0x20 DUP2 ADD SWAP2 SWAP1 SWAP2 MSTORE PUSH1 0x40 ADD SWAP1 JUMP JUMPDEST RETURNDATASIZE ISZERO PUSH2 0xCB7 JUMPI RETURNDATASIZE SWAP1 PUSH1 0x1 PUSH1 0x1 PUSH1 0x40 SHL SUB DUP3 GT PUSH2 0xBEE JUMPI PUSH1 0x40 MLOAD SWAP2 PUSH2 0xCAB PUSH1 0x1F DUP3 ADD PUSH1 0x1F NOT AND PUSH1 0x20 ADD DUP5 PUSH2 0xC04 JUMP JUMPDEST DUP3 MSTORE RETURNDATASIZE PUSH1 0x0 PUSH1 0x20 DUP5 ADD RETURNDATACOPY JUMP JUMPDEST PUSH1 0x60 SWAP1 JUMP INVALID 0xB7 0xC4 DUP3 CREATE 0xC0 0xB7 0xAD JUMP 0xE2 0xC7 STOP 0x4B 0xE4 BASEFEE 0xA8 0xEA 0xD9 DUP11 DUP12 0xBE DUP5 PUSH8 0x5FD80B273563099F DUP6 PUSH1 0x41 PUSH21 0xA9435A04D04D274C76779CAD136A41FDE6937C5624 SHR MULMOD 0xAB SWAP14 EXTCODECOPY PUSH17 0x64A1A98BE0079C531659141344CD1FD0A4 CALLCODE DUP5 NOT 0x49 PUSH32 0x9722A3DAAFE3B4186F6B6457E0CBCDBDF10631A43CC99C80ACACE8232649421C EXTCODEHASH 0x4F PUSH20 0x919F16013D47C83A687AA2646970667358221220 DUP9 SELFDESTRUCT SWAP8 PUSH16 0x420E3B371B4F5B0167F151BAB05ABFA3 PUSH31 0x1C0EE51D3925323AEBFEAC64736F6C63430008140033000000000000000000 "},"methodIdentifiers":{"depositNative(address,address)":"701bb891","depositToken(address,address,address,uint256)":"0ef7c5a7","deposits(address,address)":"8f601f66","enableRefunds()":"8c52dc41","owner()":"8da5cb5b","refund(address,address)":"5e30b8a6","refundsEnabled()":"532f1179","renounceOwnership()":"715018a6","transferOwnership(address)":"f2fde38b","withdraw(address,uint256,address)":"69328dec"}}}}}