{"contracts/mocks/MockV3Aggregator.sol":{"MockV3Aggregator":{"abi":[{"inputs":[{"internalType":"int224","name":"_price","type":"int224"},{"internalType":"bool","name":"_fresh","type":"bool"}],"stateMutability":"nonpayable","type":"constructor"},{"inputs":[],"name":"read","outputs":[{"internalType":"int224","name":"","type":"int224"},{"internalType":"uint32","name":"","type":"uint32"}],"stateMutability":"view","type":"function"},{"inputs":[{"internalType":"bool","name":"_fresh","type":"bool"}],"name":"setFresh","outputs":[],"stateMutability":"nonpayable","type":"function"},{"inputs":[{"internalType":"int224","name":"_price","type":"int224"}],"name":"setPrice","outputs":[],"stateMutability":"nonpayable","type":"function"}],"evm":{"bytecode":{"linkReferences":{},"object":"60803461009357601f61021038819003918201601f19168301916001600160401b038311848410176100985780849260409485528339810103126100935780519081601b0b8203610093576020015180151580910361009357600080546001600160e81b0319166001600160e01b039093169290921760e09190911b60ff60e01b1617905560405161016190816100af8239f35b600080fd5b634e487b7160e01b600052604160045260246000fdfe6080604052600436101561001257600080fd5b6000803560e01c8063488b70e3146100ee57806357de26a41461007e5763abb7cc941461003e57600080fd5b3461007b57602036600319011261007b5760043580151580910361007757815460ff60e01b191660e09190911b60ff60e01b1617815580f35b5080fd5b80fd5b503461007b578060031936011261007b57805460ff8160e01c166000146100bc576040915063ffffffff8042165b835192601b0b8352166020820152f35b610f9f194201914283116100da575063ffffffff80604093166100ac565b634e487b7160e01b81526011600452602490fd5b503461007b57602036600319011261007b5760043580601b0b81036100775781546001600160e01b0319166001600160e01b039190911617815580f3fea26469706673582212205bc080d9ae9ce1cd7ecad5509b6b70067be3a51e66ead78ef70dc73a00f8e8ef64736f6c63430008140033","opcodes":"PUSH1 0x80 CALLVALUE PUSH2 0x93 JUMPI PUSH1 0x1F PUSH2 0x210 CODESIZE DUP2 SWAP1 SUB SWAP2 DUP3 ADD PUSH1 0x1F NOT AND DUP4 ADD SWAP2 PUSH1 0x1 PUSH1 0x1 PUSH1 0x40 SHL SUB DUP4 GT DUP5 DUP5 LT OR PUSH2 0x98 JUMPI DUP1 DUP5 SWAP3 PUSH1 0x40 SWAP5 DUP6 MSTORE DUP4 CODECOPY DUP2 ADD SUB SLT PUSH2 0x93 JUMPI DUP1 MLOAD SWAP1 DUP2 PUSH1 0x1B SIGNEXTEND DUP3 SUB PUSH2 0x93 JUMPI PUSH1 0x20 ADD MLOAD DUP1 ISZERO ISZERO DUP1 SWAP2 SUB PUSH2 0x93 JUMPI PUSH1 0x0 DUP1 SLOAD PUSH1 0x1 PUSH1 0x1 PUSH1 0xE8 SHL SUB NOT AND PUSH1 0x1 PUSH1 0x1 PUSH1 0xE0 SHL SUB SWAP1 SWAP4 AND SWAP3 SWAP1 SWAP3 OR PUSH1 0xE0 SWAP2 SWAP1 SWAP2 SHL PUSH1 0xFF PUSH1 0xE0 SHL AND OR SWAP1 SSTORE PUSH1 0x40 MLOAD PUSH2 0x161 SWAP1 DUP2 PUSH2 0xAF DUP3 CODECOPY RETURN JUMPDEST PUSH1 0x0 DUP1 REVERT JUMPDEST PUSH4 0x4E487B71 PUSH1 0xE0 SHL PUSH1 0x0 MSTORE PUSH1 0x41 PUSH1 0x4 MSTORE PUSH1 0x24 PUSH1 0x0 REVERT INVALID PUSH1 0x80 PUSH1 0x40 MSTORE PUSH1 0x4 CALLDATASIZE LT ISZERO PUSH2 0x12 JUMPI PUSH1 0x0 DUP1 REVERT JUMPDEST PUSH1 0x0 DUP1 CALLDATALOAD PUSH1 0xE0 SHR DUP1 PUSH4 0x488B70E3 EQ PUSH2 0xEE JUMPI DUP1 PUSH4 0x57DE26A4 EQ PUSH2 0x7E JUMPI PUSH4 0xABB7CC94 EQ PUSH2 0x3E JUMPI PUSH1 0x0 DUP1 REVERT JUMPDEST CALLVALUE PUSH2 0x7B JUMPI PUSH1 0x20 CALLDATASIZE PUSH1 0x3 NOT ADD SLT PUSH2 0x7B JUMPI PUSH1 0x4 CALLDATALOAD DUP1 ISZERO ISZERO DUP1 SWAP2 SUB PUSH2 0x77 JUMPI DUP2 SLOAD PUSH1 0xFF PUSH1 0xE0 SHL NOT AND PUSH1 0xE0 SWAP2 SWAP1 SWAP2 SHL PUSH1 0xFF PUSH1 0xE0 SHL AND OR DUP2 SSTORE DUP1 RETURN JUMPDEST POP DUP1 REVERT JUMPDEST DUP1 REVERT JUMPDEST POP CALLVALUE PUSH2 0x7B JUMPI DUP1 PUSH1 0x3 NOT CALLDATASIZE ADD SLT PUSH2 0x7B JUMPI DUP1 SLOAD PUSH1 0xFF DUP2 PUSH1 0xE0 SHR AND PUSH1 0x0 EQ PUSH2 0xBC JUMPI PUSH1 0x40 SWAP2 POP PUSH4 0xFFFFFFFF DUP1 TIMESTAMP AND JUMPDEST DUP4 MLOAD SWAP3 PUSH1 0x1B SIGNEXTEND DUP4 MSTORE AND PUSH1 0x20 DUP3 ADD MSTORE RETURN JUMPDEST PUSH2 0xF9F NOT TIMESTAMP ADD SWAP2 TIMESTAMP DUP4 GT PUSH2 0xDA JUMPI POP PUSH4 0xFFFFFFFF DUP1 PUSH1 0x40 SWAP4 AND PUSH2 0xAC JUMP JUMPDEST PUSH4 0x4E487B71 PUSH1 0xE0 SHL DUP2 MSTORE PUSH1 0x11 PUSH1 0x4 MSTORE PUSH1 0x24 SWAP1 REVERT JUMPDEST POP CALLVALUE PUSH2 0x7B JUMPI PUSH1 0x20 CALLDATASIZE PUSH1 0x3 NOT ADD SLT PUSH2 0x7B JUMPI PUSH1 0x4 CALLDATALOAD DUP1 PUSH1 0x1B SIGNEXTEND DUP2 SUB PUSH2 0x77 JUMPI DUP2 SLOAD PUSH1 0x1 PUSH1 0x1 PUSH1 0xE0 SHL SUB NOT AND PUSH1 0x1 PUSH1 0x1 PUSH1 0xE0 SHL SUB SWAP2 SWAP1 SWAP2 AND OR DUP2 SSTORE DUP1 RETURN INVALID LOG2 PUSH5 0x6970667358 0x22 SLT KECCAK256 JUMPDEST 0xC0 DUP1 0xD9 0xAE SWAP13 0xE1 0xCD PUSH31 0xCAD5509B6B70067BE3A51E66EAD78EF70DC73A00F8E8EF64736F6C63430008 EQ STOP CALLER "},"methodIdentifiers":{"read()":"57de26a4","setFresh(bool)":"abb7cc94","setPrice(int224)":"488b70e3"}}}}}