{"contracts/OfferingFactory.sol":{"OfferingFactory":{"abi":[{"inputs":[],"stateMutability":"nonpayable","type":"constructor"},{"inputs":[{"internalType":"address","name":"owner","type":"address"}],"name":"OwnableInvalidOwner","type":"error"},{"inputs":[{"internalType":"address","name":"account","type":"address"}],"name":"OwnableUnauthorizedAccount","type":"error"},{"anonymous":false,"inputs":[{"indexed":true,"internalType":"uint256","name":"offeringId","type":"uint256"},{"indexed":true,"internalType":"address","name":"creator","type":"address"},{"indexed":true,"internalType":"address","name":"offeringAddress","type":"address"},{"indexed":false,"internalType":"address","name":"tokenOwner","type":"address"}],"name":"OfferingDeployed","type":"event"},{"anonymous":false,"inputs":[{"indexed":true,"internalType":"address","name":"previousOwner","type":"address"},{"indexed":true,"internalType":"address","name":"newOwner","type":"address"}],"name":"OwnershipTransferred","type":"event"},{"anonymous":false,"inputs":[{"indexed":true,"internalType":"address","name":"usdtAddress","type":"address"},{"indexed":true,"internalType":"address","name":"usdtOracleAddress","type":"address"}],"name":"USDTConfigUpdated","type":"event"},{"inputs":[{"components":[{"internalType":"address","name":"saleToken","type":"address"},{"internalType":"uint256","name":"minInvestment","type":"uint256"},{"internalType":"uint256","name":"maxInvestment","type":"uint256"},{"internalType":"uint256","name":"startDate","type":"uint256"},{"internalType":"uint256","name":"endDate","type":"uint256"},{"internalType":"uint256","name":"maturityDate","type":"uint256"},{"internalType":"bool","name":"autoTransfer","type":"bool"},{"internalType":"bool","name":"apyEnabled","type":"bool"},{"internalType":"uint256","name":"fundraisingCap","type":"uint256"},{"internalType":"uint256","name":"tokenPrice","type":"uint256"},{"internalType":"address","name":"tokenOwner","type":"address"},{"internalType":"address","name":"escrowAddress","type":"address"},{"internalType":"address","name":"investmentManager","type":"address"},{"internalType":"address","name":"payoutTokenAddress","type":"address"},{"internalType":"uint256","name":"payoutRate","type":"uint256"},{"internalType":"enum IWRAPEDTOKEN.PayoutFrequency","name":"defaultPayoutFrequency","type":"uint8"}],"internalType":"struct CreateOfferingConfig","name":"config","type":"tuple"}],"name":"createOffering","outputs":[{"internalType":"address","name":"offeringAddress","type":"address"}],"stateMutability":"nonpayable","type":"function"},{"inputs":[{"components":[{"internalType":"address","name":"saleToken","type":"address"},{"internalType":"uint256","name":"minInvestment","type":"uint256"},{"internalType":"uint256","name":"maxInvestment","type":"uint256"},{"internalType":"uint256","name":"startDate","type":"uint256"},{"internalType":"uint256","name":"endDate","type":"uint256"},{"internalType":"uint256","name":"maturityDate","type":"uint256"},{"internalType":"bool","name":"autoTransfer","type":"bool"},{"internalType":"bool","name":"apyEnabled","type":"bool"},{"internalType":"uint256","name":"fundraisingCap","type":"uint256"},{"internalType":"uint256","name":"tokenPrice","type":"uint256"},{"internalType":"address","name":"tokenOwner","type":"address"},{"internalType":"address","name":"escrowAddress","type":"address"},{"internalType":"address","name":"investmentManager","type":"address"},{"internalType":"address","name":"payoutTokenAddress","type":"address"},{"internalType":"uint256","name":"payoutRate","type":"uint256"},{"internalType":"enum IWRAPEDTOKEN.PayoutFrequency","name":"defaultPayoutFrequency","type":"uint8"},{"internalType":"address[]","name":"paymentTokens","type":"address[]"},{"internalType":"address[]","name":"oracles","type":"address[]"}],"internalType":"struct CreateOfferingWithTokensConfig","name":"config","type":"tuple"}],"name":"createOfferingWithPaymentTokens","outputs":[{"internalType":"address","name":"offeringAddress","type":"address"}],"stateMutability":"nonpayable","type":"function"},{"inputs":[],"name":"getAllOfferings","outputs":[{"internalType":"address[]","name":"","type":"address[]"}],"stateMutability":"view","type":"function"},{"inputs":[{"internalType":"uint256","name":"offeringId","type":"uint256"}],"name":"getOfferingAddress","outputs":[{"internalType":"address","name":"","type":"address"}],"stateMutability":"view","type":"function"},{"inputs":[{"internalType":"address","name":"tokenOwner","type":"address"}],"name":"getOfferingIdsByTokenOwner","outputs":[{"internalType":"uint256[]","name":"","type":"uint256[]"}],"stateMutability":"view","type":"function"},{"inputs":[{"internalType":"address","name":"offeringAddress","type":"address"}],"name":"getOfferingOwner","outputs":[{"internalType":"address","name":"","type":"address"}],"stateMutability":"view","type":"function"},{"inputs":[],"name":"getUSDTConfig","outputs":[{"internalType":"address","name":"usdtToken","type":"address"},{"internalType":"address","name":"usdtOracle","type":"address"}],"stateMutability":"view","type":"function"},{"inputs":[],"name":"offeringCount","outputs":[{"internalType":"uint256","name":"","type":"uint256"}],"stateMutability":"view","type":"function"},{"inputs":[{"internalType":"address","name":"","type":"address"}],"name":"offeringOwners","outputs":[{"internalType":"address","name":"","type":"address"}],"stateMutability":"view","type":"function"},{"inputs":[{"internalType":"uint256","name":"","type":"uint256"}],"name":"offerings","outputs":[{"internalType":"address","name":"","type":"address"}],"stateMutability":"view","type":"function"},{"inputs":[{"internalType":"address","name":"","type":"address"},{"internalType":"uint256","name":"","type":"uint256"}],"name":"offeringsByTokenOwner","outputs":[{"internalType":"uint256","name":"","type":"uint256"}],"stateMutability":"view","type":"function"},{"inputs":[],"name":"owner","outputs":[{"internalType":"address","name":"","type":"address"}],"stateMutability":"view","type":"function"},{"inputs":[],"name":"renounceOwnership","outputs":[],"stateMutability":"nonpayable","type":"function"},{"inputs":[{"internalType":"address","name":"_usdtAddress","type":"address"},{"internalType":"address","name":"_usdtOracleAddress","type":"address"}],"name":"setUSDTConfig","outputs":[],"stateMutability":"nonpayable","type":"function"},{"inputs":[{"internalType":"address","name":"newOwner","type":"address"}],"name":"transferOwnership","outputs":[],"stateMutability":"nonpayable","type":"function"},{"inputs":[],"name":"usdtAddress","outputs":[{"internalType":"address","name":"","type":"address"}],"stateMutability":"view","type":"function"},{"inputs":[],"name":"usdtOracleAddress","outputs":[{"internalType":"address","name":"","type":"address"}],"stateMutability":"view","type":"function"}],"evm":{"bytecode":{"linkReferences":{},"object":"6080806040523461007a5733156100645760008054336001600160a01b03198216811783556040519290916001600160a01b0316907f8be0079c531659141344cd1fd0a4f28419497f9722a3daafe3b4186f6b6457e09080a3615d7e90816100808239f35b631e4fbdf760e01b815260006004820152602490fd5b600080fdfe6101e08060405260043610156200001557600080fd5b6000908161018052813560e01c9081632187bbeb146200156d57508063222bfe52146200150b5780632325d8e414620014435780633941bf521462000efe57806340368db51462000dea578063577da0581462000dab578063578786211462000d7d578063710549621462000d5a578063715018a61462000d0657806379bf49b81462000cc35780638da5cb5b1462000c975780639ab4a4451462000c69578063ca18988a146200017e578063dc2a95bc1462000b7c578063e297651214620001b8578063e34fec1d146200017e5763f2fde38b14620000f457600080fd5b3462000177576020366003190112620001775762000111620015ae565b906200011c62001761565b6001600160a01b039182169182156200015c5781546001600160a01b0319811684178355169060008051602062005d298339815191529080a36101805180f35b604051631e4fbdf760e01b8152610180516004820152602490fd5b6101805180fd5b3462000177576020366003190112620001775760043561018051526002602052602060018060a01b03604061018051205416604051908152f35b503462000177576003196020368201126200017757600435916001600160401b03831162000177576102408092843603011262000177576040516101a0819052918201906001600160401b0382118383101762000b6857506040526200022182600401620015ca565b9052602481013560206101a0510152604481013560406101a0510152606481013560606101a0510152608481013560806101a051015260a481013560a06101a05101526200027260c48201620016b1565b60c06101a05101526200028860e48201620016b1565b60e06101a05101526101048101356101006101a05101526101248101356101206101a0510152620002bd6101448201620015ca565b6101406101a0510152620002d56101648201620015ca565b6101606101a0510152620002ed6101848201620015ca565b6101806101a0510152620003056101a48201620015ca565b6101a0805101526101c48101356101c06101a05101526101e4810135600381101562000177576101a0516101e001526102048101356001600160401b03811162000177576200035b9060043691840101620016f1565b6101a0516102000152610224810135906001600160401b038211620001775760046200038b9236920101620016f1565b6102206101a05101526200039e62001761565b6101a05161022061020082015151910151510362000b2b576102006101a0510151511562000ae9576101a0516101600151620003e5906001600160a01b031615156200178e565b6101a08051015162000402906001600160a01b03161515620017d4565b610180516040516001600160401b03612dbf82019081119082111762000ad057612dbf62001a498239610180519080612dbf8101039082f0806080521562000aaa57506101a05160e0810151620009ad575b506101a080518051602082015161010090815260408301516060840151608085015160a086015160c0870151948701516101208801516101408901516101608a015160e08b01516101808c01519c8c01516101c0808e01516101e0909e0151908190529c9e6001600160a01b039182169e82169d909c9215159b9382169a948216999598969793151596939593949290911690600311156200099357620005016040518060e05262001640565b60e0515261010051602060e0510152604060e0510152606060e0510152608060e051015260a060e051015260c060e051015260e08051015261010060e051015261012060e051015261014060e051015261016060e051015260018060a01b031661018060e05101526101a060e05101526101c060e05101526101e060e0510152620005966101c05161020060e05101620018da565b6080516001600160a01b0316803b156200017757604051630479c84560e21b8152610180518180620005ce60e05160048301620018fd565b038161018051865af180156200074e576200097a575b50610180515b6102006101a05101518051821015620008c8576001600160a01b03906200061390839062001a33565b511615620007ba576101a05161022001516001600160a01b03906200063a90839062001a33565b51161562000775576101a05161020001516001600160a01b03906200066190839062001a33565b511660018060a01b036200067e836102206101a051015162001a33565b511690833b156200017757620006ae9160405180938192631d9119f360e21b8352610180519460048401620016bf565b038161018051875af180156200074e576200075c575b505b6101a05161020001516001600160a01b0390620006e590839062001a33565b5116823b156200017757604051906304c26cc960e21b8252600482015260016024820152610180518160448183875af180156200074e5762000734575b506200072e9062001a0d565b620005ea565b6200073f906200165d565b61018051801562000722575b80fd5b6040513d61018051823e3d90fd5b62000767906200165d565b610180518015620006c45780fd5b60405162461bcd60e51b815260206004820152601e60248201527f496e76616c6964206f7261636c6520666f7220455243323020746f6b656e00006044820152606490fd5b6101a05161022001516001600160a01b0390620007d990839062001a33565b51161562000883576101a05161020001516001600160a01b03906200080090839062001a33565b511660018060a01b036200081d836102206101a051015162001a33565b511690833b1562000177576200084d9160405180938192631d9119f360e21b8352610180519460048401620016bf565b038161018051875af180156200074e576200086a575b50620006c6565b62000875906200165d565b610180518015620008635780fd5b60405162461bcd60e51b815260206004820152601d60248201527f496e76616c6964206f7261636c6520666f72206e6174697665204554480000006044820152606490fd5b6020836001546101805152600282526101805181604082209160018060a01b0319928284825416179055526003835261018051906040822090339082541617905560018060a01b036101406101a051015116905260048252620009356040610180512060015490620019d5565b6200096f6001548260018060a01b036101406101a0510151166040519081528260008051602062005d09833981519152873393a462001a0d565b600155604051908152f35b62000985906200165d565b610180518015620005e45780fd5b634e487b7160e01b61018051526021600452602461018051fd5b80516101a082015160a08301516101c090930151604051945092916001600160a01b039182169116620009e0856200160e565b604051620009ee8162001671565b600d81526c2bb930b83832b2102a37b5b2b760991b6020820152855260405162000a188162001671565b600381526215d49560ea1b6020820152602086015260408501526060840152608083015260a082015260018060a01b036080511660c0820152604051908161150181011060018060401b036115018401111762000ab65762000a898291611501620048088439611501830162001862565b03610180519182f090811562000aaa57506001600160a01b03163862000454565b604051903d90823e3d90fd5b634e487b7160e01b61018051526041600452602461018051fd5b50634e487b7160e01b9052604160045261018051602490fd5b60405162461bcd60e51b815260206004820152601a602482015279139bc81c185e5b595b9d081d1bdad95b9cc81c1c9bdd9a59195960321b6044820152606490fd5b60405162461bcd60e51b8152602060048201526015602482015274082e4e4c2f240d8cadccee8d040dad2e6dac2e8c6d605b1b6044820152606490fd5b634e487b7160e01b81526041600452602490fd5b34620001775761018051806003193601126200074b57600180549062000ba282620016d9565b9062000bb260405192836200168d565b82825262000bc083620016d9565b6020838101949091601f1901368637610180515b81811062000c23575050604051928184019082855251809152604084019491610180515b82811062000c065785870386f35b83516001600160a01b031687529581019592810192840162000bf8565b61018080518290526002845251604090205493959294929362000c5d91906001600160a01b031662000c56828662001a33565b5262001a0d565b94929493919362000bd4565b34620001775761018051806003193601126200074b576005546040516001600160a01b039091168152602090f35b34620001775761018051806003193601126200074b57546040516001600160a01b039091168152602090f35b3462000177576020366003190112620001775760206001600160a01b038062000ceb620015ae565b16610180515260038252604061018051205416604051908152f35b5034620001775761018051806003193601126200074b575062000d2862001761565b80546001600160a01b0319811682556001600160a01b031660008051602062005d298339815191528280a36101805180f35b34620001775761018051806003193601126200074b576020600154604051908152f35b34620001775761018051806003193601126200074b576006546040516001600160a01b039091168152602090f35b34620001775761018051806003193601126200074b5760055460065460405191829162000de6916001600160a01b03918216911683620016bf565b0390f35b503462000177576040366003190112620001775762000e08620015ae565b6024356001600160a01b03818116939092918490036200074b575062000e2d62001761565b1690811562000ec257801562000e84578060018060a01b031983816005541617600555600654161760065561018051917f9708fedb34d7f4b974e53ac2d03b32eb2c50270b84ec301a97aa7e7d9e25810e8380a380f35b60405162461bcd60e51b8152602060048201526016602482015275496e76616c6964206f7261636c65206164647265737360501b6044820152606490fd5b60405162461bcd60e51b8152602060048201526014602482015273496e76616c69642055534454206164647265737360601b6044820152606490fd5b346200017757610200366003190112620001775760405160c081905261020081019081106001600160401b0382111762000ab65760405262000f3f620015ae565b60c05152602435602060c0510152604435604060c0510152606435606060c0510152608435608060c051015260a43560a060c051015260c4358015158103620001775760c08051015260e4358015158103620001775760e060c05101526101043561010060c05101526101243561012060c05101526101443560018060a01b0381168103620001775760c0516101400152610164356001600160a01b0381168103620001775760c0516101600152610184356001600160a01b0381168103620001775760c05161018001526101a4356001600160a01b038116810362000177576101a060c05101526101c4356101c060c05101526101e435600381101562000177576101e060c05101526200105362001761565b60c051610160015162001071906001600160a01b031615156200178e565b60c0516101a001516200108f906001600160a01b03161515620017d4565b61018051604051612dbf80820191906001600160401b038311828410176200142b5762001a498239806101805192039082f08060a0521562000aaa575060c05160e081015162001336575b5060c080518051602082015161014090815260408301516060840151608085015160a08601519686015161010087015161012088015195880151610160808a015160e08b01516101808c01516101a08d01516101c08e01516101e0909e0151948590529c9e6001600160a01b039d8e169e918e169d909c9215159b9381169a9581169993989697151596919591949192169060031115620009935762001187604051806101205262001640565b610120515261014051602061012051015260406101205101526060610120510152608061012051015260a061012051015260c061012051015260e06101205101526101006101205101526101208051015261014061012051015261016061012051015260018060a01b03166101806101205101526101a06101205101526101c06101205101526101e06101205101526200122c610160516102006101205101620018da565b60a0516001600160a01b0316803b15620001775760405190630479c84560e21b8252610180518280620012666101205160048301620018fd565b038161018051855af19182156200074e5760209262001324575b5060018054610180805191909152600284528051604080822080546001600160a01b03199081168717909155918590526003865282518181208054909316331790925560c05161014001516001600160a01b0316909152600485529051209054620012eb91620019d5565b6200096f6001548260018060a01b0361014060c0510151166040519081528260008051602062005d09833981519152873393a462001a0d565b6200132f906200165d565b8262001280565b80516101a082015160a08301516101c090930151604051945092916001600160a01b03918216911662001369856200160e565b604051620013778162001671565b600d81526c2bb930b83832b2102a37b5b2b760991b60208201528552604051620013a18162001671565b600381526215d49560ea1b6020820152602086015260408501526060840152608083015260a082015260018060a01b0360a0511660c0820152604051906115018083019183831060018060401b0384111762000ab65783926200140a9262004808853962001862565b03610180519182f090811562000aaa57506001600160a01b031681620010da565b634e487b7160e01b8452604160045261018051602490fd5b34620001775760208060031936011262000177576001600160a01b0362001469620015ae565b16610180515260048152604061018051206040519081838254918281520190819261018051526101805190858220915b86828210620014f6578686620014b2828803836200168d565b6040519283928184019082855251809152604084019291610180515b828110620014de57505050500390f35b835185528695509381019392810192600101620014ce565b83548552909301926001928301920162001499565b3462000177576040366003190112620001775762001528620015ae565b6024359060018060a01b03166101805152600460205261018051604081209081548310156200074b5760206200155f8484620015df565b90546040519160031b1c8152f35b905034620015aa576020366003190112620015aa576020916001600160a01b0390604090826200159c620015ae565b168152600385522054168152f35b5080fd5b600435906001600160a01b0382168203620015c557565b600080fd5b35906001600160a01b0382168203620015c557565b8054821015620015f85760005260206000200190600090565b634e487b7160e01b600052603260045260246000fd5b60e081019081106001600160401b038211176200162a57604052565b634e487b7160e01b600052604160045260246000fd5b61022081019081106001600160401b038211176200162a57604052565b6001600160401b0381116200162a57604052565b604081019081106001600160401b038211176200162a57604052565b601f909101601f19168101906001600160401b038211908210176200162a57604052565b35908115158203620015c557565b6001600160a01b0391821681529116602082015260400190565b6001600160401b0381116200162a5760051b60200190565b81601f82011215620015c5578035916200170b83620016d9565b926200171b60405194856200168d565b808452602092838086019260051b820101928311620015c5578301905b82821062001747575050505090565b8380916200175584620015ca565b81520191019062001738565b6000546001600160a01b031633036200177657565b60405163118cdaa760e01b8152336004820152602490fd5b156200179657565b60405162461bcd60e51b8152602060048201526016602482015275496e76616c696420657363726f77206164647265737360501b6044820152606490fd5b15620017dc57565b60405162461bcd60e51b815260206004820152601c60248201527b496e76616c6964207061796f757420746f6b656e206164647265737360201b6044820152606490fd5b919082519283825260005b8481106200184d575050826000602080949584010152601f8019910116010190565b6020818301810151848301820152016200182b565b6020815260e06200189b62001884845183602086015261010085019062001820565b6020850151848203601f1901604086015262001820565b9260c060018060a01b0391826040820151166060860152826060820151166080860152608081015160a086015260a08101518286015201511691015290565b6003821015620018e75752565b634e487b7160e01b600052602160045260246000fd5b91909161022081019260018060a01b038082511683526020820151602084015260408201516040840152606082015160608401526080820151608084015260a082015160a084015260c0820151151560c084015260e082015160e08401526101008083015190840152610120818184015116908401526101408181840151169084015261016080830151151590840152610180818184015116908401526101a0818184015116908401526101c0908183015116908301526101e0808201519083015261020080910151916003831015620018e7570152565b8054600160401b8110156200162a57620019f591600182018155620015df565b819291549060031b91821b91600019901b1916179055565b600019811462001a1d5760010190565b634e487b7160e01b600052601160045260246000fd5b8051821015620015f85760209160051b01019056fe6080806040523461001b576001600255612d9e90816100218239f35b600080fdfe6080806040526004361015610094575b5036156100535760405162461bcd60e51b815260206004820152601560248201527411985b1b189858dac81b9bdd081858d8d95c1d1959605a1b6044820152606490fd5b60405162461bcd60e51b8152602060048201526019602482015278111a5c9958dd081315535250481b9bdd081858d8d95c1d1959603a1b6044820152606490fd5b600090813560e01c9081622e1316146126f95750806301ffc9a7146126a25780630b97bc86146126845780630d342cab146126615780630d5defa41461263857806311e72114146120295780631309b32414611faa5780631e1a268b14611f87578063248a9ca314611f5b5780632b4353f214611f3d5780632f2ff15d14611f0057806336568abe14611eb85780633784f00014611dad5780633e64620814611d805780633f4ba83a14611d095780634b31bb1014611ce05780634fff540214611cba5780635c975abb14611c975780635cc0483814611c6e57806361d027b314611c41578063653ac4221461115d5780636a61e5fc14611104578063764467cc1461104f57806377d392f014610e175780637ff9b59614610df95780638456cb5914610d9357806388e32fc214610ce05780638a18511314610cb75780638ac2c68014610c995780638cd0593314610c7157806390838e0914610c3857806391d1485414610bed578063a217fddf14610bd1578063a6527f3914610b93578063b13ef13814610b55578063b37fd1901461082b578063b96627971461080d578063bbcc0a06146107ef578063bd492432146107b3578063c031a66f1461077a578063c24a0f8b1461075c578063c5c4744c1461073e578063d547741f146106fd578063d59624b4146106df578063df695abb146106a0578063df8de3e71461030c578063e985e367146102e35763fb903b1d0361000f57346102e05760403660031901126102e0576024356004356102cb6127f6565b6102d782821115612a7b565b60045560055580f35b80fd5b50346102e057806003193601126102e0576003546040516001600160a01b039091168152602090f35b50346102e057602090816003193601126102e057610328612761565b610330612bc3565b610338612abe565b600e546001600160a01b0392908316330361064657600854421061060a57828216918282526015855260408220549384156105d0576024868260035416604051928380926370a0823160e01b82523060048301525afa80156104ea578690859061059a575b6103a992501015612b1f565b838352601586528260408120556103c285600c54612c20565b600c55858560ff600d5460081c166000146104f557906104079183600354168487600d546040519687958694859363095ea7b360e01b855260101c1660048401612b7e565b03925af180156104ea576104bd575b50600d5460101c1660ff6011541691813b156104b957918391868361045295604051968795869485936348e8a94960e01b855260048501612b99565b03925af180156104ae5761049a575b50505b7fd8138f8a3f377c5259ca548e70e4c2de94f129f5a11036a15b69513cba2b426a83604051848152a26001600255604051908152f35b6104a48291612715565b6102e05780610461565b6040513d84823e3d90fd5b8380fd5b6104dc90873d89116104e3575b6104d4818361273e565b810190612b66565b5038610416565b503d6104ca565b6040513d86823e3d90fd5b90919261051e9360035416908560405180968195829463a9059cbb60e01b845260048401612b7e565b03925af191821561058e5791610571575b506104645760405162461bcd60e51b8152600481018490526015602482015274151bdad95b881d1c985b9cd9995c8819985a5b1959605a1b6044820152606490fd5b6105889150843d86116104e3576104d4818361273e565b3861052f565b604051903d90823e3d90fd5b50508681813d83116105c9575b6105b1818361273e565b810103126105c457856103a9915161039d565b600080fd5b503d6105a7565b60405162461bcd60e51b81526004810187905260126024820152714e6f20746f6b656e7320746f20636c61696d60701b6044820152606490fd5b60405162461bcd60e51b815260048101859052601460248201527313585d1d5c9a5d1e481b9bdd081c995858da195960621b6044820152606490fd5b60405162461bcd60e51b815260206004820152602c60248201527f43616c6c6572206973206e6f742074686520696e766573746d656e744d616e6160448201526b19d95c8818dbdb9d1c9858dd60a21b6064820152608490fd5b50346102e05760203660031901126102e05760209060ff906040906001600160a01b036106cb612761565b168152601484522054166040519015158152f35b50346102e057806003193601126102e0576020600854604051908152f35b50346102e05760403660031901126102e05761073a60043561071d612777565b9080845283602052610735600160408620015461282e565b612a18565b5080f35b50346102e057806003193601126102e0576020600b54604051908152f35b50346102e057806003193601126102e0576020600754604051908152f35b50346102e05760203660031901126102e0576020906040906001600160a01b036107a2612761565b168152601583522054604051908152f35b50346102e05760203660031901126102e0576020906001600160a01b0390604090826107dd612761565b16815260178452205416604051908152f35b50346102e057806003193601126102e0576020600c54604051908152f35b50346102e057806003193601126102e0576020600a54604051908152f35b50346102e05760603660031901126102e057610845612761565b6001600160a01b0360448035828116936024803593909290918682036105c45761086d6127b0565b610875612bc3565b8615610b1e578516948561097a5750834710610944578680808681945af13d1561093f573d6001600160401b03811161092c57604051906108c0601f8201601f19166020018361273e565b81528760203d92013e5b156108f35750506020600080516020612ce9833981519152915b604051908152a3600160025580f35b90721315535250481c995cd8dd594819985a5b1959606a1b60649260136040519362461bcd60e51b855260206004860152840152820152fd5b634e487b7160e01b885260416004528388fd5b6108ca565b60405162461bcd60e51b8152602060048201526010818501526f4e6f7420656e6f756768204c554d494160801b81840152606490fd5b600393919354168514610ae2576040516370a0823160e01b815230600482015260209390848184818a5afa8015610ad75786918a91610aa6575b5010610a6f5783856109db92604051938492839263a9059cbb60e01b845260048401612b7e565b03818b8a5af1908115610a64578891610a47575b5015610a0f575050506020600080516020612ce9833981519152916108e4565b60649291601372115490cc8c081c995cd8dd594819985a5b1959606a1b926040519462461bcd60e51b86526004860152840152820152fd5b610a5e9150843d86116104e3576104d4818361273e565b386109ef565b6040513d8a823e3d90fd5b60405162461bcd60e51b815260048101859052601181840152704e6f7420656e6f75676820746f6b656e7360781b81850152606490fd5b809250868092503d8311610ad0575b610abf818361273e565b810103126105c457859051386109b4565b503d610ab5565b6040513d8b823e3d90fd5b7621b0b73737ba103932b9b1bab29039b0b632aa37b5b2b760491b60649260176040519362461bcd60e51b855260206004860152840152820152fd5b60405162461bcd60e51b81526020600482015260118186015270125b9d985b1a59081c9958da5c1a595b9d607a1b81850152606490fd5b50346102e05760203660031901126102e05761073a610b72612761565b610b7a6127b0565b610b8e6001600160a01b0382161515612c2d565b6128c0565b50346102e05760203660031901126102e05761073a610bb0612761565b610bb86127b0565b610bcc6001600160a01b0382161515612c2d565b6129a3565b50346102e057806003193601126102e057602090604051908152f35b50346102e05760403660031901126102e0576040610c09612777565b91600435815280602052209060018060a01b0316600052602052602060ff604060002054166040519015158152f35b50346102e05760203660031901126102e0576020906040906001600160a01b03610c60612761565b168152601683522054604051908152f35b50346102e057806003193601126102e057602060ff60115416610c97604051809261278d565bf35b50346102e057806003193601126102e0576020600454604051908152f35b50346102e057806003193601126102e0576020604051600080516020612d098339815191528152f35b50346102e05760203660031901126102e057610cfa612761565b610d026127b0565b6001600160a01b039081168083526017602052604083205490911615610d585780825260176020908152604080842080546001600160a01b031916905551838152600080516020612cc98339815191529190a280f35b60405162461bcd60e51b81526020600482015260136024820152724e6f206f7261636c6520746f2072656d6f766560681b6044820152606490fd5b50346102e057806003193601126102e057610dac6127b0565b610db4612abe565b600160ff198154161760015560206040513381527f62e78cea01bee320cd4e420270b5ea74000d11b0c9f74754ebdbfc544b05a258918291a16020604051338152a180f35b50346102e057806003193601126102e0576020601354604051908152f35b50346102e05760208060031936011261104b57610e32612761565b90610e3b6127f6565b610e43612bc3565b600854421115611019576001600160a01b0382811692908315610fe257600354166040516370a0823160e01b81523060048201528381602481855afa8015610fd7578690610fa8575b610e9a9150600c5490612c20565b918215610f6d5782610ec59285928860405180968195829463a9059cbb60e01b845260048401612b7e565b03925af1908115610f62578591610f45575b5015610f0f57907ffcbf6553b2cfc097c2301f1c071469a8839b462e7287e3692f238ccfc6b9208f91604051908152a2600160025580f35b60405162461bcd60e51b815260048101839052600e60248201526d149958db185a5b4819985a5b195960921b6044820152606490fd5b610f5c9150833d85116104e3576104d4818361273e565b38610ed7565b6040513d87823e3d90fd5b60405162461bcd60e51b81526004810185905260136024820152724e6f20756e636c61696d656420746f6b656e7360681b6044820152606490fd5b508381813d8311610fd0575b610fbe818361273e565b810103126105c457610e9a9051610e8c565b503d610fb4565b6040513d88823e3d90fd5b60405162461bcd60e51b815260048101849052600f60248201526e496e76616c6964206164647265737360881b6044820152606490fd5b6064906040519062461bcd60e51b82526004820152600b60248201526a139bdd081b585d1d5c995960aa1b6044820152fd5b5080fd5b50346102e05760403660031901126102e057611069612761565b611071612777565b6110796127b0565b6001600160a01b039081169182156110c6571680835260176020908152604080852080546001600160a01b03191685179055519283529091600080516020612cc98339815191529190a280f35b60405162461bcd60e51b8152602060048201526016602482015275496e76616c6964206f7261636c65206164647265737360501b6044820152606490fd5b50346102e05760203660031901126102e0577f6b361c807733cc94a3b7bda39c1c94dcc0511e91aa47b0f7f918068e9397689060206004356111446127f6565b61114f811515612be4565b80601355604051908152a180f35b5060603660031901126102e057611172612761565b9061117b612777565b91611184612bc3565b61118c612abe565b600e546001600160a01b03163303610646576001600160a01b03831615611c015760ff600d5416611bcb576006544210611b9357600754421015611b61576001600160a01b03811682526014602052604082205460ff1615611b245760443515611af1576001600160a01b03818116835260176020526040832054168015611abb57604080516315f789a960e21b815291829060049082905afa908115611ab0578391611a62575b50601b0b91611244818413612be4565b6001600160a01b0382166119f2576012925b8060443502906044358204036119de57670de0b6b3a7640000938482029180830486149015171561191d5760ff16604d811161191d57849161129b91600a0a90612aff565b0460045481106119a2576001600160a01b0385168252601660205260408220546112c6908290612adc565b6005541061196457600b54936112dc8286612adc565b600a54106119315780820290828204148215171561191d5760135461130091612aff565b9384156118e1578161131191612adc565b600b556001600160a01b03851682526016602052604082208054909161133691612adc565b905560ff6009541661185f575b6001600160a01b0382166116c4576044353403611685576012546001600160a01b0316803b1561104b5760405163701bb89160e01b81523060048201526001600160a01b03861660248201529082908290604490829034905af180156104ae57908291611671575b50505b60095460ff161561162957600d5460081c60ff161561156e57600354600d5460405163095ea7b360e01b81529160209183916001600160a01b0390811691839187918391611408918c9160109190911c1660048401612b7e565b03925af19081156104ae57829161154f575b50156115195760018060a01b03600d5460101c1660ff60115416813b1561151557611460839283926040519485809481936348e8a94960e01b83528b8d60048501612b99565b03925af180156104ae57611501575b5050600080516020612ca983398151915260606020945b604080516001600160a01b03958616815260443588820152908101869052931692a2600b54600a548110156114c4575b506001600255604051908152f35b827fcb67f20f64495b30f15524c55f90201dd6571d6b5c19dac183d2aeb25315b2dc91600160ff19600d541617600d55604051908152a1386114b6565b61150b8291612715565b6102e0578061146f565b8280fd5b60405162461bcd60e51b815260206004820152600e60248201526d105c1c1c9bdd994819985a5b195960921b6044820152606490fd5b611568915060203d6020116104e3576104d4818361273e565b3861141a565b60035460405163a9059cbb60e01b81529060209082906001600160a01b031681858161159e8a8c60048401612b7e565b03925af191821561058e579161160a575b50156115ce57600080516020612ca98339815191526060602094611486565b60405162461bcd60e51b8152602060048201526014602482015273105d5d1bcb5d1c985b9cd9995c8819985a5b195960621b6044820152606490fd5b611623915060203d6020116104e3576104d4818361273e565b386115af565b60606020946040600080516020612ca98339815191529360018060a01b0383168152601588522061165b868254612adc565b905561166985600c54612adc565b600c55611486565b61167a90612715565b6102e05780386113ab565b60405162461bcd60e51b8152602060048201526017602482015276125b98dbdc9c9958dd081b985d1a5d9948185b5bdd5b9d604a1b6044820152606490fd5b34611810576040516323b872dd60e01b81526001600160a01b038581166004830152306024830152604480359083015260209082906064908290869088165af180156104ae576117f1575b5060125460405163095ea7b360e01b8152906020908290819061174290604435906001600160a01b031660048401612b7e565b0381856001600160a01b0388165af180156104ae576117d2575b506012546001600160a01b0316803b1561104b57604051630ef7c5a760e01b81523060048201526001600160a01b03868116602483015284166044808301919091523560648201529082908290608490829084905af180156104ae576117c3575b506113ae565b6117cc90612715565b386117bd565b6117ea9060203d6020116104e3576104d4818361273e565b503861175c565b6118099060203d6020116104e3576104d4818361273e565b503861170f565b60405162461bcd60e51b815260206004820152602160248201527f446f206e6f742073656e642045544820666f7220746f6b656e207061796d656e6044820152601d60fa1b6064820152608490fd5b6003546040516370a0823160e01b815230600482015290602090829060249082906001600160a01b03165afa80156104ae57849083906118ab575b6118a692501015612b1f565b611343565b50506020813d6020116118d9575b816118c66020938361273e565b8101031261104b57836118a6915161189a565b3d91506118b9565b60405162461bcd60e51b8152602060048201526014602482015273546f6b656e20616d6f756e7420746f6f206c6f7760601b6044820152606490fd5b634e487b7160e01b83526011600452602483fd5b60405162461bcd60e51b815260206004820152600b60248201526a045786365656473206361760ac1b6044820152606490fd5b60405162461bcd60e51b8152602060048201526016602482015275115e18d959591cc81b585e081a5b9d995cdd1b595b9d60521b6044820152606490fd5b60405162461bcd60e51b815260206004820152601460248201527310995b1bddc81b5a5b881a5b9d995cdd1b595b9d60621b6044820152606490fd5b634e487b7160e01b82526011600452602482fd5b60405163313ce56760e01b81526020816004816001600160a01b0387165afa9081156104ae578291611a26575b5092611256565b90506020813d602011611a5a575b81611a416020938361273e565b8101031261104b575160ff8116810361104b5738611a1f565b3d9150611a34565b90506040813d604011611aa8575b81611a7d6040938361273e565b810103126115155780519081601b0b82036104b9576020015163ffffffff8116036115155738611234565b3d9150611a70565b6040513d85823e3d90fd5b60405162461bcd60e51b815260206004820152600e60248201526d13dc9858db19481b9bdd081cd95d60921b6044820152606490fd5b60405162461bcd60e51b815260206004820152600b60248201526a16995c9bc8185b5bdd5b9d60aa1b6044820152606490fd5b60405162461bcd60e51b8152602060048201526015602482015274151bdad95b881b9bdd081dda1a5d195b1a5cdd1959605a1b6044820152606490fd5b60405162461bcd60e51b815260206004820152600a60248201526914d85b1948195b99195960b21b6044820152606490fd5b60405162461bcd60e51b815260206004820152601060248201526f14d85b19481b9bdd081cdd185c9d195960821b6044820152606490fd5b60405162461bcd60e51b815260206004820152600e60248201526d14d85b19481a5cc818db1bdcd95960921b6044820152606490fd5b60405162461bcd60e51b8152602060048201526018602482015277496e76616c696420696e766573746f72206164647265737360401b6044820152606490fd5b50346102e057806003193601126102e05760115460405160109190911c6001600160a01b03168152602090f35b50346102e057806003193601126102e057600f546040516001600160a01b039091168152602090f35b50346102e057806003193601126102e057602060ff600154166040519015158152f35b50346102e057806003193601126102e057602060ff600d5460081c166040519015158152f35b50346102e057806003193601126102e057600e546040516001600160a01b039091168152602090f35b50346102e057806003193601126102e057611d226127b0565b60015460ff811615611d6e5760ff191660015560206040513381527f5db9ee0a495bf2e6ff9c91a7834c1ba4fdd244a5e8aa4e537bd38aeae4b073aa918291a16020604051338152a180f35b604051638dfc202b60e01b8152600490fd5b50346102e057806003193601126102e057600d5460405160109190911c6001600160a01b03168152602090f35b50346102e05760203660031901126102e057600435611dca6127b0565b42811115611e8057600754811115611e3057600854811015611dec5760075580f35b606460405162461bcd60e51b815260206004820152602060248201527f456e642064617465206d757374206265206265666f7265206d617475726974796044820152fd5b60405162461bcd60e51b815260206004820152602260248201527f4e657720656e642064617465206d7573742062652061667465722063757272656044820152611b9d60f21b6064820152608490fd5b60405162461bcd60e51b815260206004820152601060248201526f496e76616c696420656e64206461746560801b6044820152606490fd5b50346102e05760403660031901126102e057611ed2612777565b336001600160a01b03821603611eee5761073a90600435612a18565b60405163334bd91960e11b8152600490fd5b50346102e05760403660031901126102e05761073a600435611f20612777565b9080845283602052611f38600160408620015461282e565b61293c565b50346102e057806003193601126102e0576020601054604051908152f35b50346102e05760203660031901126102e057600160406020926004358152808452200154604051908152f35b50346102e057806003193601126102e057602060ff600d54166040519015158152f35b50346102e05760403660031901126102e057611fc4612761565b602435908115158092036115155760207f91ad45a5ce97c5eee55fa01496772afefc7f0757ed9eac59064e642690509dfb91611ffe6127b0565b6001600160a01b0316808552601482526040808620805460ff191660ff87161790555193845292a280f35b50346102e05761022090816003193601126102e0576040519182016001600160401b0381118382101761262457604052612061612761565b8252602435602083015260443560408301526064356060830152608435608083015260a43560a083015260c435801515810361104b5760c083015260e43560e083015261010435610100830152610124356001600160a01b03811690036102e05761012435610120830152610144356001600160a01b038116810361104b5761014083015261016435151561016435036102e05761016435610160830152610184356001600160a01b03811690036102e057610184356101808301526101a4356001600160a01b03811690036102e0576101a4356101a08301526101c4356001600160a01b038116810361104b576101c08301526101e4356101e083015260036102043510156102e057610204356102008301526011549160ff8360081c166125e95780516001600160a01b0316156125af576101208101516001600160a01b031615612574576101408101516001600160a01b031615612536576101a08101516001600160a01b0316156124e65760e0810151156124a2576101008101511561245e576121f9602082015160408301511015612a7b565b6060810151421161241a576060810151608082015111156123ca576101c08101516001600160a01b031615612386578051600380546001600160a01b03199081166001600160a01b03938416178255602084015160045560408401516005556060840151600655608084015160075560a0840151600890815560c08501516009805460ff9215159290921660ff1992831617905560e0860151600a55610100860151601355610140860151601280548516918716919091179055610160860151600d8054610180890151610100600160b01b031990911692151590941b61ff001691909117601093841b62010000600160b01b03161790556101a0860151600e805485169187169190911790556101c0860151600f80549094169516949094179091556101e084015190556102008301519491908510156123725760ff61235f94951691161760115561234b33612854565b5061012001516001600160a01b03166128c0565b5061010061ff0019601154161760115580f35b634e487b7160e01b84526021600452602484fd5b60405162461bcd60e51b815260206004820152601c60248201527b496e76616c6964207061796f757420746f6b656e206164647265737360201b6044820152606490fd5b60405162461bcd60e51b815260206004820152602260248201527f53746172742064617465206d757374206265206265666f726520656e64206461604482015261746560f01b6064820152608490fd5b606460405162461bcd60e51b815260206004820152602060248201527f53746172742064617465206d75737420626520696e20746865206675747572656044820152fd5b60405162461bcd60e51b815260206004820152601c60248201527b546f6b656e207072696365206d75737420626520706f73697469766560201b6044820152606490fd5b606460405162461bcd60e51b815260206004820152602060248201527f46756e6472616973696e6720636170206d75737420626520706f7369746976656044820152fd5b60405162461bcd60e51b815260206004820152602260248201527f496e76616c696420696e766573746d656e74206d616e61676572206164647265604482015261737360f01b6064820152608490fd5b60405162461bcd60e51b8152602060048201526016602482015275496e76616c696420657363726f77206164647265737360501b6044820152606490fd5b60405162461bcd60e51b815260206004820152601360248201527224b73b30b634b2103a37b5b2b71037bbb732b960691b6044820152606490fd5b60405162461bcd60e51b815260206004820152601260248201527124b73b30b634b21039b0b632903a37b5b2b760711b6044820152606490fd5b60405162461bcd60e51b8152602060048201526013602482015272105b1c9958591e481a5b9a5d1a585b1a5e9959606a1b6044820152606490fd5b634e487b7160e01b82526041600452602482fd5b50346102e057806003193601126102e0576012546040516001600160a01b039091168152602090f35b50346102e057806003193601126102e057602060ff600954166040519015158152f35b50346102e057806003193601126102e0576020600654604051908152f35b50346102e05760203660031901126102e05760043563ffffffff60e01b811680910361104b57602090637965db0b60e01b81149081156126e8575b506040519015158152f35b6301ffc9a760e01b149050826126dd565b90503461104b578160031936011261104b576020906005548152f35b6001600160401b03811161272857604052565b634e487b7160e01b600052604160045260246000fd5b601f909101601f19168101906001600160401b0382119082101761272857604052565b600435906001600160a01b03821682036105c457565b602435906001600160a01b03821682036105c457565b90600382101561279a5752565b634e487b7160e01b600052602160045260246000fd5b336000908152600080516020612d49833981519152602052604081205460ff16156127d85750565b6044906040519063e2517d3f60e01b82523360048301526024820152fd5b336000908152600080516020612c898339815191526020526040902054600080516020612d098339815191529060ff16156127d85750565b80600052600060205260406000203360005260205260ff60406000205416156127d85750565b6001600160a01b03166000818152600080516020612d49833981519152602052604081205490919060ff166128bc57818052816020526040822081835260205260408220600160ff198254161790553391600080516020612c698339815191528180a4600190565b5090565b6001600160a01b03166000818152600080516020612c898339815191526020526040812054909190600080516020612d098339815191529060ff1661293757808352826020526040832082845260205260408320600160ff19825416179055600080516020612c69833981519152339380a4600190565b505090565b9060009180835282602052604083209160018060a01b03169182845260205260ff6040842054161560001461293757808352826020526040832082845260205260408320600160ff19825416179055600080516020612c69833981519152339380a4600190565b6001600160a01b03166000818152600080516020612c898339815191526020526040812054909190600080516020612d098339815191529060ff16156129375780835282602052604083208284526020526040832060ff198154169055600080516020612d29833981519152339380a4600190565b9060009180835282602052604083209160018060a01b03169182845260205260ff6040842054166000146129375780835282602052604083208284526020526040832060ff198154169055600080516020612d29833981519152339380a4600190565b15612a8257565b60405162461bcd60e51b8152602060048201526014602482015273135a5b880f881b585e081a5b9d995cdd1b595b9d60621b6044820152606490fd5b60ff60015416612aca57565b60405163d93c066560e01b8152600490fd5b91908201809211612ae957565b634e487b7160e01b600052601160045260246000fd5b8115612b09570490565b634e487b7160e01b600052601260045260246000fd5b15612b2657565b60405162461bcd60e51b8152602060048201526018602482015277496e73756666696369656e742073616c6520746f6b656e7360401b6044820152606490fd5b908160209103126105c4575180151581036105c45790565b6001600160a01b039091168152602081019190915260400190565b6001600160a01b0390911681526020810191909152606081019291612bc1916040019061278d565b565b6002805414612bd25760028055565b604051633ee5aeb560e01b8152600490fd5b15612beb57565b60405162461bcd60e51b815260206004820152600d60248201526c496e76616c696420707269636560981b6044820152606490fd5b91908203918211612ae957565b15612c3457565b60405162461bcd60e51b815260206004820152600c60248201526b5a65726f206164647265737360a01b6044820152606490fdfe2f8788117e7eff1d82e926ec794901d17c78024a50270940304540a733656f0d7dfc0114fc2b0320947240cbd60a9ffc193468a941c37441e641a928a8c116d593638e6cf18b4f6a839de65df95898221f5d9f7dc54b87d4b31d40297643266ec1d3048301c0d23629a2532c8defa6d68f8e1a0e4157918769e9fb1b2eeb888ed27dd37d941f5a1b76926e48140fdbf50a0c59defb5431a391a1260279eb1c4c35369b3a7bb98c90641a907c2fd643ea781341eba72ccffd47cb018c128c48c3f6391f5c32d9c69d2a47ea670b442974b53935d1edc7fd64eb21e047a839171bad3228b676f7d3cd4284a5443f17f1962b36e491b30a40b2405849e597ba5fb5a26469706673582212200885644bd92a1df99fe0200e3175c84efa61b78f2359cc0bb745dbb11550b0dd64736f6c634300081400336040610120815234620004bb576200150190813803806200002081620004c0565b938439820191602081840312620004bb578051906001600160401b038211620004bb570160e081840312620004bb5781519260e084016001600160401b038111858210176200039257835281516001600160401b038111620004bb57816200008a918401620004e6565b84526020820151906001600160401b038211620004bb57620000ae918301620004e6565b92836020820152620000c283830162000558565b83820152620000d46060830162000558565b6060820152608082015191608082019283526200010060c060a08301519260a085019384520162000558565b60c0830152815180516001600160401b038111620003925760035491600183811c93168015620004b0575b60208410146200049a578190601f9384811162000443575b50602090848311600114620003b457600092620003a8575b50508160011b916000199060031b1c1916176003555b8551906001600160401b03821162000392576004968754600181811c9116801562000387575b602082101462000372579081838594931162000319575b506020918311600114620002ae57600092620002a2575b50508160011b916000199060031b1c19161785555b818401516001600160a01b039390841615801562000293575b62000283578483015184166080526060830151841660a0525160c0908152905160e0520151166101009081529051610f9391826200056e833960805182818161070c015281816109dd0152610ce6015260a051828181610206015261064c015260c051828181610354015261093d015260e0518281816107880152610aa60152518181816106b40152610b030152f35b8451632945604560e11b81528690fd5b508360608401511615620001f3565b015190503880620001c5565b6000898152602081209350601f198516905b818110620003005750908460019594939210620002e6575b505050811b018555620001da565b015160001960f88460031b161c19169055388080620002d8565b92936020600181928786015181550195019301620002c0565b909192508860005260206000208380860160051c8201926020871062000368575b94869594939291940160051c01905b818110620003585750620001ae565b6000815585945060010162000349565b925081926200033a565b602289634e487b7160e01b6000525260246000fd5b90607f169062000197565b634e487b7160e01b600052604160045260246000fd5b0151905038806200015b565b6003600090815293507fc2575a0e9e593c00f959f8c92f12db2869c3395a3b0502d05e2516446f71f85b91905b601f198416851062000427576001945083601f198116106200040d575b505050811b0160035562000171565b015160001960f88460031b161c19169055388080620003fe565b81810151835560209485019460019093019290910190620003e1565b909150600360005260206000208480850160051c8201926020861062000490575b9085949392910160051c01905b81811062000480575062000143565b6000815584935060010162000471565b9250819262000464565b634e487b7160e01b600052602260045260246000fd5b92607f16926200012b565b600080fd5b6040519190601f01601f191682016001600160401b038111838210176200039257604052565b919080601f84011215620004bb5782516001600160401b03811162000392576020906200051c601f8201601f19168301620004c0565b92818452828287010111620004bb5760005b8181106200054457508260009394955001015290565b85810183015184820184015282016200052e565b51906001600160a01b0382168203620004bb5756fe608060408181526004918236101561001657600080fd5b600092833560e01c918262e77aa614610cd25750816306fdde0314610bfb578163095ea7b314610b5157816318160ddd14610b325781631a4f94f714610aee57816323b872dd14610ac95781632b4353f214610a8e578163313ce56714610a7257816342966c6814610a54578163464f0b0d1461092857816348e8a9491461067b5781634efa82b6146106375781636f7bc9be146105a457816370a082311461056d57816379cc67901461048957816395d89b41146103a3578163a9059cbb14610377578163d59624b41461033c578163dd62ed3e146102f3578163e88499a91461012c575063f91682311461010b57600080fd5b346101285781600319360112610128576020906005549051908152f35b5080fd5b919050346102ef57826003193601126102ef573383526006602052808320805480156102e05760ff6001830154166102d15761016d60ff8584015416610eed565b9081156102c1576002830180546101848142610ec5565b8481106102b15784900493600361019f600588015487610eb2565b960194855494806101b08988610e77565b1161029d575b50861561028d5793602095936101df6101e6946101d98a98956102019b96610eb2565b90610e77565b9055610e77565b905583518093819263a9059cbb60e01b835233888401610ed2565b0381877f00000000000000000000000000000000000000000000000000000000000000006001600160a01b03165af1908115610283578491610255575b5015610248578280f35b5163022e258160e11b8152fd5b610276915060203d811161027c575b61026e8183610d8f565b810190610e9a565b3861023e565b503d610264565b82513d86823e3d90fd5b8751630ac48ff560e41b81528990fd5b6102aa9197508590610ec5565b95386101b6565b865163b477c7b160e01b81528890fd5b50505051630ac48ff560e41b8152fd5b505051630c8d9eab60e31b8152fd5b505051633a6a68b160e01b8152fd5b8280fd5b50503461012857806003193601126101285780602092610311610d5e565b610319610d79565b6001600160a01b0391821683526001865283832091168252845220549051908152f35b505034610128578160031936011261012857602090517f00000000000000000000000000000000000000000000000000000000000000008152f35b8284346103a057816003193601126103a05750610392610d5e565b5051631de81c7b60e01b8152fd5b80fd5b838334610128578160031936011261012857805191809380549160019083821c9282851694851561047f575b602095868610811461046c57858952908115610448575060011461040d575b61040987876103ff828c0383610d8f565b5191829182610d15565b0390f35b9080949750528583205b8284106104355750505082610409946103ff928201019486806103ee565b8054868501880152928601928101610417565b60ff19168887015250505050151560051b83010192506103ff8261040986806103ee565b634e487b7160e01b845260228352602484fd5b93607f16936103cf565b839150346101285782600319360112610128576104a4610d5e565b6001600160a01b038116808452600160209081528585203386529052848420546024359390919060001983106104e3575b856104e08686610dc8565b80f35b84831061054b57811561053457331561051d575084959184916104e0965260016020528287203388526020520390852055839285806104d5565b8651634a1406b160e11b8152908101869052602490fd5b865163e602df0560e01b8152908101869052602490fd5b9050610569848751938493637dc7a0d960e11b855233908501610e59565b0390fd5b5050346101285760203660031901126101285760209181906001600160a01b03610595610d5e565b16815280845220549051908152f35b838334610128576020366003190112610128576001600160a01b036105c7610d5e565b168252600660205280822080549260ff600183015416926002830154600384015491600560ff89870154169501549581519788521515602088015286015260608501526003821015610624575060c09350608083015260a0820152f35b634e487b7160e01b815260218552602490fd5b505034610128578160031936011261012857517f00000000000000000000000000000000000000000000000000000000000000006001600160a01b03168152602090f35b8391503461012857606036600319011261012857610697610d5e565b602493843592604435916003831015610924576001600160a01b037f0000000000000000000000000000000000000000000000000000000000000000811694338690036108d65786156108c7578251956323b872dd60e01b875284870152308987015286604487015260209586816064818c877f0000000000000000000000000000000000000000000000000000000000000000165af19081156108bd5789916108a0575b5015610891571696871561087d5761075686600254610e77565b6002558787528685528187208681540190558787600080516020610f3e8339815191528785518a8152a36127106107ad7f000000000000000000000000000000000000000000000000000000000000000088610eb2565b835191900498909560c087016001600160401b0381118882101761086b5784528787528087019389855260068189019242845260608a01948c865260808b01998a5260a08b019d8e528c525289209651875560018701935115159360ff199460ff868354169116179055516002870155516003860155828501935192600384101561085a5750509161085495969160ff600594835416911617905551910155600554610e77565b60055580f35b634e487b7160e01b88526021905286fd5b634e487b7160e01b8a5260418652838afd5b815163ec442f0560e01b8152808401889052fd5b50505163022e258160e11b8152fd5b6108b79150873d891161027c5761026e8183610d8f565b8a61073c565b84513d8b823e3d90fd5b50505163162908e360e11b8152fd5b825162461bcd60e51b81526020818601526023818b01527f43616c6c6572206973206e6f7420746865206f66666572696e6720636f6e74726044820152621858dd60ea1b6064820152608490fd5b8580fd5b919050346102ef57826003193601126102ef577f00000000000000000000000000000000000000000000000000000000000000004210610a475733835260066020528083206001810160ff8154166102d1578154156102e05761099060ff8584015416610eed565b80610a1e575b506109d8916020913387528683526109b18588205433610dc8565b805460ff1916600117905554835163a9059cbb60e01b815292839182919033888401610ed2565b0381877f00000000000000000000000000000000000000000000000000000000000000006001600160a01b03165af1908115610283578491610255575015610248578280f35b610a2c600284015442610ec5565b1015610a385738610996565b505051630ac48ff560e41b8152fd5b5163111c440960e01b8152fd5b839034610128576020366003190112610128576104e0903533610dc8565b5050346101285781600319360112610128576020905160128152f35b505034610128578160031936011261012857602090517f00000000000000000000000000000000000000000000000000000000000000008152f35b8284346103a05760603660031901126103a05750610ae5610d5e565b50610392610d79565b505034610128578160031936011261012857517f00000000000000000000000000000000000000000000000000000000000000006001600160a01b03168152602090f35b5050346101285781600319360112610128576020906002549051908152f35b9050346102ef57816003193601126102ef57610b6b610d5e565b602435903315610be4576001600160a01b0316918215610bcd57508083602095338152600187528181208582528752205582519081527f8c5be1e5ebec7d5bd14f71427d1e84f3dd0314c0f7b2291e5b200ac8c7c3b925843392a35160018152f35b8351634a1406b160e11b8152908101859052602490fd5b835163e602df0560e01b8152808401869052602490fd5b919050346102ef57826003193601126102ef57805191836003549060019082821c928281168015610cc8575b6020958686108214610cb55750848852908115610c935750600114610c58575b61040986866103ff828b0383610d8f565b929550600383528583205b828410610c805750505082610409946103ff928201019438610c47565b8054868501880152928601928101610c63565b60ff191687860152505050151560051b83010192506103ff8261040938610c47565b634e487b7160e01b845260229052602483fd5b93607f1693610c27565b8490346101285781600319360112610128577f00000000000000000000000000000000000000000000000000000000000000006001600160a01b03168152602090f35b6020808252825181830181905290939260005b828110610d4a57505060409293506000838284010152601f8019910116010190565b818101860151848201604001528501610d28565b600435906001600160a01b0382168203610d7457565b600080fd5b602435906001600160a01b0382168203610d7457565b601f909101601f19168101906001600160401b03821190821017610db257604052565b634e487b7160e01b600052604160045260246000fd5b906001600160a01b038216908115610e405760009282845283602052604084205490828210610e23575081600080516020610f3e833981519152926020928587528684520360408620558060025403600255604051908152a3565b6105698360405193849363391434e360e21b855260048501610e59565b604051634b637e8f60e11b815260006004820152602490fd5b604091949392606082019560018060a01b0316825260208201520152565b91908201809211610e8457565b634e487b7160e01b600052601160045260246000fd5b90816020910312610d7457518015158103610d745790565b81810292918115918404141715610e8457565b91908203918211610e8457565b6001600160a01b039091168152602081019190915260400190565b6003811015610f275780610f0357506201518090565b60018103610f13575062278d0090565b600214610f1f57600090565b6301e1338090565b634e487b7160e01b600052602160045260246000fdfeddf252ad1be2c89b69c2b068fc378daa952ba7f163c4a11628f55a4df523b3efa26469706673582212200291455d8d4c7edf5f905a81c8e1e45383bc1145a73a08a1afe718db0fc5e66b64736f6c634300081400334dd34c1e85386b354efed754df3c56823235e0653e32231c2448e8d3278145d08be0079c531659141344cd1fd0a4f28419497f9722a3daafe3b4186f6b6457e0a2646970667358221220746a3330130e246ab15382645ba0f6e8d71592ad2bee9972c183ccdf3cb8d9e164736f6c63430008140033","opcodes":"PUSH1 0x80 DUP1 PUSH1 0x40 MSTORE CALLVALUE PUSH2 0x7A JUMPI CALLER ISZERO PUSH2 0x64 JUMPI PUSH1 0x0 DUP1 SLOAD CALLER PUSH1 0x1 PUSH1 0x1 PUSH1 0xA0 SHL SUB NOT DUP3 AND DUP2 OR DUP4 SSTORE PUSH1 0x40 MLOAD SWAP3 SWAP1 SWAP2 PUSH1 0x1 PUSH1 0x1 PUSH1 0xA0 SHL SUB AND SWAP1 PUSH32 0x8BE0079C531659141344CD1FD0A4F28419497F9722A3DAAFE3B4186F6B6457E0 SWAP1 DUP1 LOG3 PUSH2 0x5D7E SWAP1 DUP2 PUSH2 0x80 DUP3 CODECOPY RETURN JUMPDEST PUSH4 0x1E4FBDF7 PUSH1 0xE0 SHL DUP2 MSTORE PUSH1 0x0 PUSH1 0x4 DUP3 ADD MSTORE PUSH1 0x24 SWAP1 REVERT JUMPDEST PUSH1 0x0 DUP1 REVERT INVALID PUSH2 0x1E0 DUP1 PUSH1 0x40 MSTORE PUSH1 0x4 CALLDATASIZE LT ISZERO PUSH3 0x15 JUMPI PUSH1 0x0 DUP1 REVERT JUMPDEST PUSH1 0x0 SWAP1 DUP2 PUSH2 0x180 MSTORE DUP2 CALLDATALOAD PUSH1 0xE0 SHR SWAP1 DUP2 PUSH4 0x2187BBEB EQ PUSH3 0x156D JUMPI POP DUP1 PUSH4 0x222BFE52 EQ PUSH3 0x150B JUMPI DUP1 PUSH4 0x2325D8E4 EQ PUSH3 0x1443 JUMPI DUP1 PUSH4 0x3941BF52 EQ PUSH3 0xEFE JUMPI DUP1 PUSH4 0x40368DB5 EQ PUSH3 0xDEA JUMPI DUP1 PUSH4 0x577DA058 EQ PUSH3 0xDAB JUMPI DUP1 PUSH4 0x57878621 EQ PUSH3 0xD7D JUMPI DUP1 PUSH4 0x71054962 EQ PUSH3 0xD5A JUMPI DUP1 PUSH4 0x715018A6 EQ PUSH3 0xD06 JUMPI DUP1 PUSH4 0x79BF49B8 EQ PUSH3 0xCC3 JUMPI DUP1 PUSH4 0x8DA5CB5B EQ PUSH3 0xC97 JUMPI DUP1 PUSH4 0x9AB4A445 EQ PUSH3 0xC69 JUMPI DUP1 PUSH4 0xCA18988A EQ PUSH3 0x17E JUMPI DUP1 PUSH4 0xDC2A95BC EQ PUSH3 0xB7C JUMPI DUP1 PUSH4 0xE2976512 EQ PUSH3 0x1B8 JUMPI DUP1 PUSH4 0xE34FEC1D EQ PUSH3 0x17E JUMPI PUSH4 0xF2FDE38B EQ PUSH3 0xF4 JUMPI PUSH1 0x0 DUP1 REVERT JUMPDEST CALLVALUE PUSH3 0x177 JUMPI PUSH1 0x20 CALLDATASIZE PUSH1 0x3 NOT ADD SLT PUSH3 0x177 JUMPI PUSH3 0x111 PUSH3 0x15AE JUMP JUMPDEST SWAP1 PUSH3 0x11C PUSH3 0x1761 JUMP JUMPDEST PUSH1 0x1 PUSH1 0x1 PUSH1 0xA0 SHL SUB SWAP2 DUP3 AND SWAP2 DUP3 ISZERO PUSH3 0x15C JUMPI DUP2 SLOAD PUSH1 0x1 PUSH1 0x1 PUSH1 0xA0 SHL SUB NOT DUP2 AND DUP5 OR DUP4 SSTORE AND SWAP1 PUSH1 0x0 DUP1 MLOAD PUSH1 0x20 PUSH3 0x5D29 DUP4 CODECOPY DUP2 MLOAD SWAP2 MSTORE SWAP1 DUP1 LOG3 PUSH2 0x180 MLOAD DUP1 RETURN JUMPDEST PUSH1 0x40 MLOAD PUSH4 0x1E4FBDF7 PUSH1 0xE0 SHL DUP2 MSTORE PUSH2 0x180 MLOAD PUSH1 0x4 DUP3 ADD MSTORE PUSH1 0x24 SWAP1 REVERT JUMPDEST PUSH2 0x180 MLOAD DUP1 REVERT JUMPDEST CALLVALUE PUSH3 0x177 JUMPI PUSH1 0x20 CALLDATASIZE PUSH1 0x3 NOT ADD SLT PUSH3 0x177 JUMPI PUSH1 0x4 CALLDATALOAD PUSH2 0x180 MLOAD MSTORE PUSH1 0x2 PUSH1 0x20 MSTORE PUSH1 0x20 PUSH1 0x1 DUP1 PUSH1 0xA0 SHL SUB PUSH1 0x40 PUSH2 0x180 MLOAD KECCAK256 SLOAD AND PUSH1 0x40 MLOAD SWAP1 DUP2 MSTORE RETURN JUMPDEST POP CALLVALUE PUSH3 0x177 JUMPI PUSH1 0x3 NOT PUSH1 0x20 CALLDATASIZE DUP3 ADD SLT PUSH3 0x177 JUMPI PUSH1 0x4 CALLDATALOAD SWAP2 PUSH1 0x1 PUSH1 0x1 PUSH1 0x40 SHL SUB DUP4 GT PUSH3 0x177 JUMPI PUSH2 0x240 DUP1 SWAP3 DUP5 CALLDATASIZE SUB ADD SLT PUSH3 0x177 JUMPI PUSH1 0x40 MLOAD PUSH2 0x1A0 DUP2 SWAP1 MSTORE SWAP2 DUP3 ADD SWAP1 PUSH1 0x1 PUSH1 0x1 PUSH1 0x40 SHL SUB DUP3 GT DUP4 DUP4 LT OR PUSH3 0xB68 JUMPI POP PUSH1 0x40 MSTORE PUSH3 0x221 DUP3 PUSH1 0x4 ADD PUSH3 0x15CA JUMP JUMPDEST SWAP1 MSTORE PUSH1 0x24 DUP2 ADD CALLDATALOAD PUSH1 0x20 PUSH2 0x1A0 MLOAD ADD MSTORE PUSH1 0x44 DUP2 ADD CALLDATALOAD PUSH1 0x40 PUSH2 0x1A0 MLOAD ADD MSTORE PUSH1 0x64 DUP2 ADD CALLDATALOAD PUSH1 0x60 PUSH2 0x1A0 MLOAD ADD MSTORE PUSH1 0x84 DUP2 ADD CALLDATALOAD PUSH1 0x80 PUSH2 0x1A0 MLOAD ADD MSTORE PUSH1 0xA4 DUP2 ADD CALLDATALOAD PUSH1 0xA0 PUSH2 0x1A0 MLOAD ADD MSTORE PUSH3 0x272 PUSH1 0xC4 DUP3 ADD PUSH3 0x16B1 JUMP JUMPDEST PUSH1 0xC0 PUSH2 0x1A0 MLOAD ADD MSTORE PUSH3 0x288 PUSH1 0xE4 DUP3 ADD PUSH3 0x16B1 JUMP JUMPDEST PUSH1 0xE0 PUSH2 0x1A0 MLOAD ADD MSTORE PUSH2 0x104 DUP2 ADD CALLDATALOAD PUSH2 0x100 PUSH2 0x1A0 MLOAD ADD MSTORE PUSH2 0x124 DUP2 ADD CALLDATALOAD PUSH2 0x120 PUSH2 0x1A0 MLOAD ADD MSTORE PUSH3 0x2BD PUSH2 0x144 DUP3 ADD PUSH3 0x15CA JUMP JUMPDEST PUSH2 0x140 PUSH2 0x1A0 MLOAD ADD MSTORE PUSH3 0x2D5 PUSH2 0x164 DUP3 ADD PUSH3 0x15CA JUMP JUMPDEST PUSH2 0x160 PUSH2 0x1A0 MLOAD ADD MSTORE PUSH3 0x2ED PUSH2 0x184 DUP3 ADD PUSH3 0x15CA JUMP JUMPDEST PUSH2 0x180 PUSH2 0x1A0 MLOAD ADD MSTORE PUSH3 0x305 PUSH2 0x1A4 DUP3 ADD PUSH3 0x15CA JUMP JUMPDEST PUSH2 0x1A0 DUP1 MLOAD ADD MSTORE PUSH2 0x1C4 DUP2 ADD CALLDATALOAD PUSH2 0x1C0 PUSH2 0x1A0 MLOAD ADD MSTORE PUSH2 0x1E4 DUP2 ADD CALLDATALOAD PUSH1 0x3 DUP2 LT ISZERO PUSH3 0x177 JUMPI PUSH2 0x1A0 MLOAD PUSH2 0x1E0 ADD MSTORE PUSH2 0x204 DUP2 ADD CALLDATALOAD PUSH1 0x1 PUSH1 0x1 PUSH1 0x40 SHL SUB DUP2 GT PUSH3 0x177 JUMPI PUSH3 0x35B SWAP1 PUSH1 0x4 CALLDATASIZE SWAP2 DUP5 ADD ADD PUSH3 0x16F1 JUMP JUMPDEST PUSH2 0x1A0 MLOAD PUSH2 0x200 ADD MSTORE PUSH2 0x224 DUP2 ADD CALLDATALOAD SWAP1 PUSH1 0x1 PUSH1 0x1 PUSH1 0x40 SHL SUB DUP3 GT PUSH3 0x177 JUMPI PUSH1 0x4 PUSH3 0x38B SWAP3 CALLDATASIZE SWAP3 ADD ADD PUSH3 0x16F1 JUMP JUMPDEST PUSH2 0x220 PUSH2 0x1A0 MLOAD ADD MSTORE PUSH3 0x39E PUSH3 0x1761 JUMP JUMPDEST PUSH2 0x1A0 MLOAD PUSH2 0x220 PUSH2 0x200 DUP3 ADD MLOAD MLOAD SWAP2 ADD MLOAD MLOAD SUB PUSH3 0xB2B JUMPI PUSH2 0x200 PUSH2 0x1A0 MLOAD ADD MLOAD MLOAD ISZERO PUSH3 0xAE9 JUMPI PUSH2 0x1A0 MLOAD PUSH2 0x160 ADD MLOAD PUSH3 0x3E5 SWAP1 PUSH1 0x1 PUSH1 0x1 PUSH1 0xA0 SHL SUB AND ISZERO ISZERO PUSH3 0x178E JUMP JUMPDEST PUSH2 0x1A0 DUP1 MLOAD ADD MLOAD PUSH3 0x402 SWAP1 PUSH1 0x1 PUSH1 0x1 PUSH1 0xA0 SHL SUB AND ISZERO ISZERO PUSH3 0x17D4 JUMP JUMPDEST PUSH2 0x180 MLOAD PUSH1 0x40 MLOAD PUSH1 0x1 PUSH1 0x1 PUSH1 0x40 SHL SUB PUSH2 0x2DBF DUP3 ADD SWAP1 DUP2 GT SWAP1 DUP3 GT OR PUSH3 0xAD0 JUMPI PUSH2 0x2DBF PUSH3 0x1A49 DUP3 CODECOPY PUSH2 0x180 MLOAD SWAP1 DUP1 PUSH2 0x2DBF DUP2 ADD SUB SWAP1 DUP3 CREATE DUP1 PUSH1 0x80 MSTORE ISZERO PUSH3 0xAAA JUMPI POP PUSH2 0x1A0 MLOAD PUSH1 0xE0 DUP2 ADD MLOAD PUSH3 0x9AD JUMPI JUMPDEST POP PUSH2 0x1A0 DUP1 MLOAD DUP1 MLOAD PUSH1 0x20 DUP3 ADD MLOAD PUSH2 0x100 SWAP1 DUP2 MSTORE PUSH1 0x40 DUP4 ADD MLOAD PUSH1 0x60 DUP5 ADD MLOAD PUSH1 0x80 DUP6 ADD MLOAD PUSH1 0xA0 DUP7 ADD MLOAD PUSH1 0xC0 DUP8 ADD MLOAD SWAP5 DUP8 ADD MLOAD PUSH2 0x120 DUP9 ADD MLOAD PUSH2 0x140 DUP10 ADD MLOAD PUSH2 0x160 DUP11 ADD MLOAD PUSH1 0xE0 DUP12 ADD MLOAD PUSH2 0x180 DUP13 ADD MLOAD SWAP13 DUP13 ADD MLOAD PUSH2 0x1C0 DUP1 DUP15 ADD MLOAD PUSH2 0x1E0 SWAP1 SWAP15 ADD MLOAD SWAP1 DUP2 SWAP1 MSTORE SWAP13 SWAP15 PUSH1 0x1 PUSH1 0x1 PUSH1 0xA0 SHL SUB SWAP2 DUP3 AND SWAP15 DUP3 AND SWAP14 SWAP1 SWAP13 SWAP3 ISZERO ISZERO SWAP12 SWAP4 DUP3 AND SWAP11 SWAP5 DUP3 AND SWAP10 SWAP6 SWAP9 SWAP7 SWAP8 SWAP4 ISZERO ISZERO SWAP7 SWAP4 SWAP6 SWAP4 SWAP5 SWAP3 SWAP1 SWAP2 AND SWAP1 PUSH1 0x3 GT ISZERO PUSH3 0x993 JUMPI PUSH3 0x501 PUSH1 0x40 MLOAD DUP1 PUSH1 0xE0 MSTORE PUSH3 0x1640 JUMP JUMPDEST PUSH1 0xE0 MLOAD MSTORE PUSH2 0x100 MLOAD PUSH1 0x20 PUSH1 0xE0 MLOAD ADD MSTORE PUSH1 0x40 PUSH1 0xE0 MLOAD ADD MSTORE PUSH1 0x60 PUSH1 0xE0 MLOAD ADD MSTORE PUSH1 0x80 PUSH1 0xE0 MLOAD ADD MSTORE PUSH1 0xA0 PUSH1 0xE0 MLOAD ADD MSTORE PUSH1 0xC0 PUSH1 0xE0 MLOAD ADD MSTORE PUSH1 0xE0 DUP1 MLOAD ADD MSTORE PUSH2 0x100 PUSH1 0xE0 MLOAD ADD MSTORE PUSH2 0x120 PUSH1 0xE0 MLOAD ADD MSTORE PUSH2 0x140 PUSH1 0xE0 MLOAD ADD MSTORE PUSH2 0x160 PUSH1 0xE0 MLOAD ADD MSTORE PUSH1 0x1 DUP1 PUSH1 0xA0 SHL SUB AND PUSH2 0x180 PUSH1 0xE0 MLOAD ADD MSTORE PUSH2 0x1A0 PUSH1 0xE0 MLOAD ADD MSTORE PUSH2 0x1C0 PUSH1 0xE0 MLOAD ADD MSTORE PUSH2 0x1E0 PUSH1 0xE0 MLOAD ADD MSTORE PUSH3 0x596 PUSH2 0x1C0 MLOAD PUSH2 0x200 PUSH1 0xE0 MLOAD ADD PUSH3 0x18DA JUMP JUMPDEST PUSH1 0x80 MLOAD PUSH1 0x1 PUSH1 0x1 PUSH1 0xA0 SHL SUB AND DUP1 EXTCODESIZE ISZERO PUSH3 0x177 JUMPI PUSH1 0x40 MLOAD PUSH4 0x479C845 PUSH1 0xE2 SHL DUP2 MSTORE PUSH2 0x180 MLOAD DUP2 DUP1 PUSH3 0x5CE PUSH1 0xE0 MLOAD PUSH1 0x4 DUP4 ADD PUSH3 0x18FD JUMP JUMPDEST SUB DUP2 PUSH2 0x180 MLOAD DUP7 GAS CALL DUP1 ISZERO PUSH3 0x74E JUMPI PUSH3 0x97A JUMPI JUMPDEST POP PUSH2 0x180 MLOAD JUMPDEST PUSH2 0x200 PUSH2 0x1A0 MLOAD ADD MLOAD DUP1 MLOAD DUP3 LT ISZERO PUSH3 0x8C8 JUMPI PUSH1 0x1 PUSH1 0x1 PUSH1 0xA0 SHL SUB SWAP1 PUSH3 0x613 SWAP1 DUP4 SWAP1 PUSH3 0x1A33 JUMP JUMPDEST MLOAD AND ISZERO PUSH3 0x7BA JUMPI PUSH2 0x1A0 MLOAD PUSH2 0x220 ADD MLOAD PUSH1 0x1 PUSH1 0x1 PUSH1 0xA0 SHL SUB SWAP1 PUSH3 0x63A SWAP1 DUP4 SWAP1 PUSH3 0x1A33 JUMP JUMPDEST MLOAD AND ISZERO PUSH3 0x775 JUMPI PUSH2 0x1A0 MLOAD PUSH2 0x200 ADD MLOAD PUSH1 0x1 PUSH1 0x1 PUSH1 0xA0 SHL SUB SWAP1 PUSH3 0x661 SWAP1 DUP4 SWAP1 PUSH3 0x1A33 JUMP JUMPDEST MLOAD AND PUSH1 0x1 DUP1 PUSH1 0xA0 SHL SUB PUSH3 0x67E DUP4 PUSH2 0x220 PUSH2 0x1A0 MLOAD ADD MLOAD PUSH3 0x1A33 JUMP JUMPDEST MLOAD AND SWAP1 DUP4 EXTCODESIZE ISZERO PUSH3 0x177 JUMPI PUSH3 0x6AE SWAP2 PUSH1 0x40 MLOAD DUP1 SWAP4 DUP2 SWAP3 PUSH4 0x1D9119F3 PUSH1 0xE2 SHL DUP4 MSTORE PUSH2 0x180 MLOAD SWAP5 PUSH1 0x4 DUP5 ADD PUSH3 0x16BF JUMP JUMPDEST SUB DUP2 PUSH2 0x180 MLOAD DUP8 GAS CALL DUP1 ISZERO PUSH3 0x74E JUMPI PUSH3 0x75C JUMPI JUMPDEST POP JUMPDEST PUSH2 0x1A0 MLOAD PUSH2 0x200 ADD MLOAD PUSH1 0x1 PUSH1 0x1 PUSH1 0xA0 SHL SUB SWAP1 PUSH3 0x6E5 SWAP1 DUP4 SWAP1 PUSH3 0x1A33 JUMP JUMPDEST MLOAD AND DUP3 EXTCODESIZE ISZERO PUSH3 0x177 JUMPI PUSH1 0x40 MLOAD SWAP1 PUSH4 0x4C26CC9 PUSH1 0xE2 SHL DUP3 MSTORE PUSH1 0x4 DUP3 ADD MSTORE PUSH1 0x1 PUSH1 0x24 DUP3 ADD MSTORE PUSH2 0x180 MLOAD DUP2 PUSH1 0x44 DUP2 DUP4 DUP8 GAS CALL DUP1 ISZERO PUSH3 0x74E JUMPI PUSH3 0x734 JUMPI JUMPDEST POP PUSH3 0x72E SWAP1 PUSH3 0x1A0D JUMP JUMPDEST PUSH3 0x5EA JUMP JUMPDEST PUSH3 0x73F SWAP1 PUSH3 0x165D JUMP JUMPDEST PUSH2 0x180 MLOAD DUP1 ISZERO PUSH3 0x722 JUMPI JUMPDEST DUP1 REVERT JUMPDEST PUSH1 0x40 MLOAD RETURNDATASIZE PUSH2 0x180 MLOAD DUP3 RETURNDATACOPY RETURNDATASIZE SWAP1 REVERT JUMPDEST PUSH3 0x767 SWAP1 PUSH3 0x165D JUMP JUMPDEST PUSH2 0x180 MLOAD DUP1 ISZERO PUSH3 0x6C4 JUMPI DUP1 REVERT JUMPDEST PUSH1 0x40 MLOAD PUSH3 0x461BCD PUSH1 0xE5 SHL DUP2 MSTORE PUSH1 0x20 PUSH1 0x4 DUP3 ADD MSTORE PUSH1 0x1E PUSH1 0x24 DUP3 ADD MSTORE PUSH32 0x496E76616C6964206F7261636C6520666F7220455243323020746F6B656E0000 PUSH1 0x44 DUP3 ADD MSTORE PUSH1 0x64 SWAP1 REVERT JUMPDEST PUSH2 0x1A0 MLOAD PUSH2 0x220 ADD MLOAD PUSH1 0x1 PUSH1 0x1 PUSH1 0xA0 SHL SUB SWAP1 PUSH3 0x7D9 SWAP1 DUP4 SWAP1 PUSH3 0x1A33 JUMP JUMPDEST MLOAD AND ISZERO PUSH3 0x883 JUMPI PUSH2 0x1A0 MLOAD PUSH2 0x200 ADD MLOAD PUSH1 0x1 PUSH1 0x1 PUSH1 0xA0 SHL SUB SWAP1 PUSH3 0x800 SWAP1 DUP4 SWAP1 PUSH3 0x1A33 JUMP JUMPDEST MLOAD AND PUSH1 0x1 DUP1 PUSH1 0xA0 SHL SUB PUSH3 0x81D DUP4 PUSH2 0x220 PUSH2 0x1A0 MLOAD ADD MLOAD PUSH3 0x1A33 JUMP JUMPDEST MLOAD AND SWAP1 DUP4 EXTCODESIZE ISZERO PUSH3 0x177 JUMPI PUSH3 0x84D SWAP2 PUSH1 0x40 MLOAD DUP1 SWAP4 DUP2 SWAP3 PUSH4 0x1D9119F3 PUSH1 0xE2 SHL DUP4 MSTORE PUSH2 0x180 MLOAD SWAP5 PUSH1 0x4 DUP5 ADD PUSH3 0x16BF JUMP JUMPDEST SUB DUP2 PUSH2 0x180 MLOAD DUP8 GAS CALL DUP1 ISZERO PUSH3 0x74E JUMPI PUSH3 0x86A JUMPI JUMPDEST POP PUSH3 0x6C6 JUMP JUMPDEST PUSH3 0x875 SWAP1 PUSH3 0x165D JUMP JUMPDEST PUSH2 0x180 MLOAD DUP1 ISZERO PUSH3 0x863 JUMPI DUP1 REVERT JUMPDEST PUSH1 0x40 MLOAD PUSH3 0x461BCD PUSH1 0xE5 SHL DUP2 MSTORE PUSH1 0x20 PUSH1 0x4 DUP3 ADD MSTORE PUSH1 0x1D PUSH1 0x24 DUP3 ADD MSTORE PUSH32 0x496E76616C6964206F7261636C6520666F72206E617469766520455448000000 PUSH1 0x44 DUP3 ADD MSTORE PUSH1 0x64 SWAP1 REVERT JUMPDEST PUSH1 0x20 DUP4 PUSH1 0x1 SLOAD PUSH2 0x180 MLOAD MSTORE PUSH1 0x2 DUP3 MSTORE PUSH2 0x180 MLOAD DUP2 PUSH1 0x40 DUP3 KECCAK256 SWAP2 PUSH1 0x1 DUP1 PUSH1 0xA0 SHL SUB NOT SWAP3 DUP3 DUP5 DUP3 SLOAD AND OR SWAP1 SSTORE MSTORE PUSH1 0x3 DUP4 MSTORE PUSH2 0x180 MLOAD SWAP1 PUSH1 0x40 DUP3 KECCAK256 SWAP1 CALLER SWAP1 DUP3 SLOAD AND OR SWAP1 SSTORE PUSH1 0x1 DUP1 PUSH1 0xA0 SHL SUB PUSH2 0x140 PUSH2 0x1A0 MLOAD ADD MLOAD AND SWAP1 MSTORE PUSH1 0x4 DUP3 MSTORE PUSH3 0x935 PUSH1 0x40 PUSH2 0x180 MLOAD KECCAK256 PUSH1 0x1 SLOAD SWAP1 PUSH3 0x19D5 JUMP JUMPDEST PUSH3 0x96F PUSH1 0x1 SLOAD DUP3 PUSH1 0x1 DUP1 PUSH1 0xA0 SHL SUB PUSH2 0x140 PUSH2 0x1A0 MLOAD ADD MLOAD AND PUSH1 0x40 MLOAD SWAP1 DUP2 MSTORE DUP3 PUSH1 0x0 DUP1 MLOAD PUSH1 0x20 PUSH3 0x5D09 DUP4 CODECOPY DUP2 MLOAD SWAP2 MSTORE DUP8 CALLER SWAP4 LOG4 PUSH3 0x1A0D JUMP JUMPDEST PUSH1 0x1 SSTORE PUSH1 0x40 MLOAD SWAP1 DUP2 MSTORE RETURN JUMPDEST PUSH3 0x985 SWAP1 PUSH3 0x165D JUMP JUMPDEST PUSH2 0x180 MLOAD DUP1 ISZERO PUSH3 0x5E4 JUMPI DUP1 REVERT JUMPDEST PUSH4 0x4E487B71 PUSH1 0xE0 SHL PUSH2 0x180 MLOAD MSTORE PUSH1 0x21 PUSH1 0x4 MSTORE PUSH1 0x24 PUSH2 0x180 MLOAD REVERT JUMPDEST DUP1 MLOAD PUSH2 0x1A0 DUP3 ADD MLOAD PUSH1 0xA0 DUP4 ADD MLOAD PUSH2 0x1C0 SWAP1 SWAP4 ADD MLOAD PUSH1 0x40 MLOAD SWAP5 POP SWAP3 SWAP2 PUSH1 0x1 PUSH1 0x1 PUSH1 0xA0 SHL SUB SWAP2 DUP3 AND SWAP2 AND PUSH3 0x9E0 DUP6 PUSH3 0x160E JUMP JUMPDEST PUSH1 0x40 MLOAD PUSH3 0x9EE DUP2 PUSH3 0x1671 JUMP JUMPDEST PUSH1 0xD DUP2 MSTORE PUSH13 0x2BB930B83832B2102A37B5B2B7 PUSH1 0x99 SHL PUSH1 0x20 DUP3 ADD MSTORE DUP6 MSTORE PUSH1 0x40 MLOAD PUSH3 0xA18 DUP2 PUSH3 0x1671 JUMP JUMPDEST PUSH1 0x3 DUP2 MSTORE PUSH3 0x15D495 PUSH1 0xEA SHL PUSH1 0x20 DUP3 ADD MSTORE PUSH1 0x20 DUP7 ADD MSTORE PUSH1 0x40 DUP6 ADD MSTORE PUSH1 0x60 DUP5 ADD MSTORE PUSH1 0x80 DUP4 ADD MSTORE PUSH1 0xA0 DUP3 ADD MSTORE PUSH1 0x1 DUP1 PUSH1 0xA0 SHL SUB PUSH1 0x80 MLOAD AND PUSH1 0xC0 DUP3 ADD MSTORE PUSH1 0x40 MLOAD SWAP1 DUP2 PUSH2 0x1501 DUP2 ADD LT PUSH1 0x1 DUP1 PUSH1 0x40 SHL SUB PUSH2 0x1501 DUP5 ADD GT OR PUSH3 0xAB6 JUMPI PUSH3 0xA89 DUP3 SWAP2 PUSH2 0x1501 PUSH3 0x4808 DUP5 CODECOPY PUSH2 0x1501 DUP4 ADD PUSH3 0x1862 JUMP JUMPDEST SUB PUSH2 0x180 MLOAD SWAP2 DUP3 CREATE SWAP1 DUP2 ISZERO PUSH3 0xAAA JUMPI POP PUSH1 0x1 PUSH1 0x1 PUSH1 0xA0 SHL SUB AND CODESIZE PUSH3 0x454 JUMP JUMPDEST PUSH1 0x40 MLOAD SWAP1 RETURNDATASIZE SWAP1 DUP3 RETURNDATACOPY RETURNDATASIZE SWAP1 REVERT JUMPDEST PUSH4 0x4E487B71 PUSH1 0xE0 SHL PUSH2 0x180 MLOAD MSTORE PUSH1 0x41 PUSH1 0x4 MSTORE PUSH1 0x24 PUSH2 0x180 MLOAD REVERT JUMPDEST POP PUSH4 0x4E487B71 PUSH1 0xE0 SHL SWAP1 MSTORE PUSH1 0x41 PUSH1 0x4 MSTORE PUSH2 0x180 MLOAD PUSH1 0x24 SWAP1 REVERT JUMPDEST PUSH1 0x40 MLOAD PUSH3 0x461BCD PUSH1 0xE5 SHL DUP2 MSTORE PUSH1 0x20 PUSH1 0x4 DUP3 ADD MSTORE PUSH1 0x1A PUSH1 0x24 DUP3 ADD MSTORE PUSH26 0x139BC81C185E5B595B9D081D1BDAD95B9CC81C1C9BDD9A591959 PUSH1 0x32 SHL PUSH1 0x44 DUP3 ADD MSTORE PUSH1 0x64 SWAP1 REVERT JUMPDEST PUSH1 0x40 MLOAD PUSH3 0x461BCD PUSH1 0xE5 SHL DUP2 MSTORE PUSH1 0x20 PUSH1 0x4 DUP3 ADD MSTORE PUSH1 0x15 PUSH1 0x24 DUP3 ADD MSTORE PUSH21 0x82E4E4C2F240D8CADCCEE8D040DAD2E6DAC2E8C6D PUSH1 0x5B SHL PUSH1 0x44 DUP3 ADD MSTORE PUSH1 0x64 SWAP1 REVERT JUMPDEST PUSH4 0x4E487B71 PUSH1 0xE0 SHL DUP2 MSTORE PUSH1 0x41 PUSH1 0x4 MSTORE PUSH1 0x24 SWAP1 REVERT JUMPDEST CALLVALUE PUSH3 0x177 JUMPI PUSH2 0x180 MLOAD DUP1 PUSH1 0x3 NOT CALLDATASIZE ADD SLT PUSH3 0x74B JUMPI PUSH1 0x1 DUP1 SLOAD SWAP1 PUSH3 0xBA2 DUP3 PUSH3 0x16D9 JUMP JUMPDEST SWAP1 PUSH3 0xBB2 PUSH1 0x40 MLOAD SWAP3 DUP4 PUSH3 0x168D JUMP JUMPDEST DUP3 DUP3 MSTORE PUSH3 0xBC0 DUP4 PUSH3 0x16D9 JUMP JUMPDEST PUSH1 0x20 DUP4 DUP2 ADD SWAP5 SWAP1 SWAP2 PUSH1 0x1F NOT ADD CALLDATASIZE DUP7 CALLDATACOPY PUSH2 0x180 MLOAD JUMPDEST DUP2 DUP2 LT PUSH3 0xC23 JUMPI POP POP PUSH1 0x40 MLOAD SWAP3 DUP2 DUP5 ADD SWAP1 DUP3 DUP6 MSTORE MLOAD DUP1 SWAP2 MSTORE PUSH1 0x40 DUP5 ADD SWAP5 SWAP2 PUSH2 0x180 MLOAD JUMPDEST DUP3 DUP2 LT PUSH3 0xC06 JUMPI DUP6 DUP8 SUB DUP7 RETURN JUMPDEST DUP4 MLOAD PUSH1 0x1 PUSH1 0x1 PUSH1 0xA0 SHL SUB AND DUP8 MSTORE SWAP6 DUP2 ADD SWAP6 SWAP3 DUP2 ADD SWAP3 DUP5 ADD PUSH3 0xBF8 JUMP JUMPDEST PUSH2 0x180 DUP1 MLOAD DUP3 SWAP1 MSTORE PUSH1 0x2 DUP5 MSTORE MLOAD PUSH1 0x40 SWAP1 KECCAK256 SLOAD SWAP4 SWAP6 SWAP3 SWAP5 SWAP3 SWAP4 PUSH3 0xC5D SWAP2 SWAP1 PUSH1 0x1 PUSH1 0x1 PUSH1 0xA0 SHL SUB AND PUSH3 0xC56 DUP3 DUP7 PUSH3 0x1A33 JUMP JUMPDEST MSTORE PUSH3 0x1A0D JUMP JUMPDEST SWAP5 SWAP3 SWAP5 SWAP4 SWAP2 SWAP4 PUSH3 0xBD4 JUMP JUMPDEST CALLVALUE PUSH3 0x177 JUMPI PUSH2 0x180 MLOAD DUP1 PUSH1 0x3 NOT CALLDATASIZE ADD SLT PUSH3 0x74B JUMPI PUSH1 0x5 SLOAD PUSH1 0x40 MLOAD PUSH1 0x1 PUSH1 0x1 PUSH1 0xA0 SHL SUB SWAP1 SWAP2 AND DUP2 MSTORE PUSH1 0x20 SWAP1 RETURN JUMPDEST CALLVALUE PUSH3 0x177 JUMPI PUSH2 0x180 MLOAD DUP1 PUSH1 0x3 NOT CALLDATASIZE ADD SLT PUSH3 0x74B JUMPI SLOAD PUSH1 0x40 MLOAD PUSH1 0x1 PUSH1 0x1 PUSH1 0xA0 SHL SUB SWAP1 SWAP2 AND DUP2 MSTORE PUSH1 0x20 SWAP1 RETURN JUMPDEST CALLVALUE PUSH3 0x177 JUMPI PUSH1 0x20 CALLDATASIZE PUSH1 0x3 NOT ADD SLT PUSH3 0x177 JUMPI PUSH1 0x20 PUSH1 0x1 PUSH1 0x1 PUSH1 0xA0 SHL SUB DUP1 PUSH3 0xCEB PUSH3 0x15AE JUMP JUMPDEST AND PUSH2 0x180 MLOAD MSTORE PUSH1 0x3 DUP3 MSTORE PUSH1 0x40 PUSH2 0x180 MLOAD KECCAK256 SLOAD AND PUSH1 0x40 MLOAD SWAP1 DUP2 MSTORE RETURN JUMPDEST POP CALLVALUE PUSH3 0x177 JUMPI PUSH2 0x180 MLOAD DUP1 PUSH1 0x3 NOT CALLDATASIZE ADD SLT PUSH3 0x74B JUMPI POP PUSH3 0xD28 PUSH3 0x1761 JUMP JUMPDEST DUP1 SLOAD PUSH1 0x1 PUSH1 0x1 PUSH1 0xA0 SHL SUB NOT DUP2 AND DUP3 SSTORE PUSH1 0x1 PUSH1 0x1 PUSH1 0xA0 SHL SUB AND PUSH1 0x0 DUP1 MLOAD PUSH1 0x20 PUSH3 0x5D29 DUP4 CODECOPY DUP2 MLOAD SWAP2 MSTORE DUP3 DUP1 LOG3 PUSH2 0x180 MLOAD DUP1 RETURN JUMPDEST CALLVALUE PUSH3 0x177 JUMPI PUSH2 0x180 MLOAD DUP1 PUSH1 0x3 NOT CALLDATASIZE ADD SLT PUSH3 0x74B JUMPI PUSH1 0x20 PUSH1 0x1 SLOAD PUSH1 0x40 MLOAD SWAP1 DUP2 MSTORE RETURN JUMPDEST CALLVALUE PUSH3 0x177 JUMPI PUSH2 0x180 MLOAD DUP1 PUSH1 0x3 NOT CALLDATASIZE ADD SLT PUSH3 0x74B JUMPI PUSH1 0x6 SLOAD PUSH1 0x40 MLOAD PUSH1 0x1 PUSH1 0x1 PUSH1 0xA0 SHL SUB SWAP1 SWAP2 AND DUP2 MSTORE PUSH1 0x20 SWAP1 RETURN JUMPDEST CALLVALUE PUSH3 0x177 JUMPI PUSH2 0x180 MLOAD DUP1 PUSH1 0x3 NOT CALLDATASIZE ADD SLT PUSH3 0x74B JUMPI PUSH1 0x5 SLOAD PUSH1 0x6 SLOAD PUSH1 0x40 MLOAD SWAP2 DUP3 SWAP2 PUSH3 0xDE6 SWAP2 PUSH1 0x1 PUSH1 0x1 PUSH1 0xA0 SHL SUB SWAP2 DUP3 AND SWAP2 AND DUP4 PUSH3 0x16BF JUMP JUMPDEST SUB SWAP1 RETURN JUMPDEST POP CALLVALUE PUSH3 0x177 JUMPI PUSH1 0x40 CALLDATASIZE PUSH1 0x3 NOT ADD SLT PUSH3 0x177 JUMPI PUSH3 0xE08 PUSH3 0x15AE JUMP JUMPDEST PUSH1 0x24 CALLDATALOAD PUSH1 0x1 PUSH1 0x1 PUSH1 0xA0 SHL SUB DUP2 DUP2 AND SWAP4 SWAP1 SWAP3 SWAP2 DUP5 SWAP1 SUB PUSH3 0x74B JUMPI POP PUSH3 0xE2D PUSH3 0x1761 JUMP JUMPDEST AND SWAP1 DUP2 ISZERO PUSH3 0xEC2 JUMPI DUP1 ISZERO PUSH3 0xE84 JUMPI DUP1 PUSH1 0x1 DUP1 PUSH1 0xA0 SHL SUB NOT DUP4 DUP2 PUSH1 0x5 SLOAD AND OR PUSH1 0x5 SSTORE PUSH1 0x6 SLOAD AND OR PUSH1 0x6 SSTORE PUSH2 0x180 MLOAD SWAP2 PUSH32 0x9708FEDB34D7F4B974E53AC2D03B32EB2C50270B84EC301A97AA7E7D9E25810E DUP4 DUP1 LOG3 DUP1 RETURN JUMPDEST PUSH1 0x40 MLOAD PUSH3 0x461BCD PUSH1 0xE5 SHL DUP2 MSTORE PUSH1 0x20 PUSH1 0x4 DUP3 ADD MSTORE PUSH1 0x16 PUSH1 0x24 DUP3 ADD MSTORE PUSH22 0x496E76616C6964206F7261636C652061646472657373 PUSH1 0x50 SHL PUSH1 0x44 DUP3 ADD MSTORE PUSH1 0x64 SWAP1 REVERT JUMPDEST PUSH1 0x40 MLOAD PUSH3 0x461BCD PUSH1 0xE5 SHL DUP2 MSTORE PUSH1 0x20 PUSH1 0x4 DUP3 ADD MSTORE PUSH1 0x14 PUSH1 0x24 DUP3 ADD MSTORE PUSH20 0x496E76616C696420555344542061646472657373 PUSH1 0x60 SHL PUSH1 0x44 DUP3 ADD MSTORE PUSH1 0x64 SWAP1 REVERT JUMPDEST CALLVALUE PUSH3 0x177 JUMPI PUSH2 0x200 CALLDATASIZE PUSH1 0x3 NOT ADD SLT PUSH3 0x177 JUMPI PUSH1 0x40 MLOAD PUSH1 0xC0 DUP2 SWAP1 MSTORE PUSH2 0x200 DUP2 ADD SWAP1 DUP2 LT PUSH1 0x1 PUSH1 0x1 PUSH1 0x40 SHL SUB DUP3 GT OR PUSH3 0xAB6 JUMPI PUSH1 0x40 MSTORE PUSH3 0xF3F PUSH3 0x15AE JUMP JUMPDEST PUSH1 0xC0 MLOAD MSTORE PUSH1 0x24 CALLDATALOAD PUSH1 0x20 PUSH1 0xC0 MLOAD ADD MSTORE PUSH1 0x44 CALLDATALOAD PUSH1 0x40 PUSH1 0xC0 MLOAD ADD MSTORE PUSH1 0x64 CALLDATALOAD PUSH1 0x60 PUSH1 0xC0 MLOAD ADD MSTORE PUSH1 0x84 CALLDATALOAD PUSH1 0x80 PUSH1 0xC0 MLOAD ADD MSTORE PUSH1 0xA4 CALLDATALOAD PUSH1 0xA0 PUSH1 0xC0 MLOAD ADD MSTORE PUSH1 0xC4 CALLDATALOAD DUP1 ISZERO ISZERO DUP2 SUB PUSH3 0x177 JUMPI PUSH1 0xC0 DUP1 MLOAD ADD MSTORE PUSH1 0xE4 CALLDATALOAD DUP1 ISZERO ISZERO DUP2 SUB PUSH3 0x177 JUMPI PUSH1 0xE0 PUSH1 0xC0 MLOAD ADD MSTORE PUSH2 0x104 CALLDATALOAD PUSH2 0x100 PUSH1 0xC0 MLOAD ADD MSTORE PUSH2 0x124 CALLDATALOAD PUSH2 0x120 PUSH1 0xC0 MLOAD ADD MSTORE PUSH2 0x144 CALLDATALOAD PUSH1 0x1 DUP1 PUSH1 0xA0 SHL SUB DUP2 AND DUP2 SUB PUSH3 0x177 JUMPI PUSH1 0xC0 MLOAD PUSH2 0x140 ADD MSTORE PUSH2 0x164 CALLDATALOAD PUSH1 0x1 PUSH1 0x1 PUSH1 0xA0 SHL SUB DUP2 AND DUP2 SUB PUSH3 0x177 JUMPI PUSH1 0xC0 MLOAD PUSH2 0x160 ADD MSTORE PUSH2 0x184 CALLDATALOAD PUSH1 0x1 PUSH1 0x1 PUSH1 0xA0 SHL SUB DUP2 AND DUP2 SUB PUSH3 0x177 JUMPI PUSH1 0xC0 MLOAD PUSH2 0x180 ADD MSTORE PUSH2 0x1A4 CALLDATALOAD PUSH1 0x1 PUSH1 0x1 PUSH1 0xA0 SHL SUB DUP2 AND DUP2 SUB PUSH3 0x177 JUMPI PUSH2 0x1A0 PUSH1 0xC0 MLOAD ADD MSTORE PUSH2 0x1C4 CALLDATALOAD PUSH2 0x1C0 PUSH1 0xC0 MLOAD ADD MSTORE PUSH2 0x1E4 CALLDATALOAD PUSH1 0x3 DUP2 LT ISZERO PUSH3 0x177 JUMPI PUSH2 0x1E0 PUSH1 0xC0 MLOAD ADD MSTORE PUSH3 0x1053 PUSH3 0x1761 JUMP JUMPDEST PUSH1 0xC0 MLOAD PUSH2 0x160 ADD MLOAD PUSH3 0x1071 SWAP1 PUSH1 0x1 PUSH1 0x1 PUSH1 0xA0 SHL SUB AND ISZERO ISZERO PUSH3 0x178E JUMP JUMPDEST PUSH1 0xC0 MLOAD PUSH2 0x1A0 ADD MLOAD PUSH3 0x108F SWAP1 PUSH1 0x1 PUSH1 0x1 PUSH1 0xA0 SHL SUB AND ISZERO ISZERO PUSH3 0x17D4 JUMP JUMPDEST PUSH2 0x180 MLOAD PUSH1 0x40 MLOAD PUSH2 0x2DBF DUP1 DUP3 ADD SWAP2 SWAP1 PUSH1 0x1 PUSH1 0x1 PUSH1 0x40 SHL SUB DUP4 GT DUP3 DUP5 LT OR PUSH3 0x142B JUMPI PUSH3 0x1A49 DUP3 CODECOPY DUP1 PUSH2 0x180 MLOAD SWAP3 SUB SWAP1 DUP3 CREATE DUP1 PUSH1 0xA0 MSTORE ISZERO PUSH3 0xAAA JUMPI POP PUSH1 0xC0 MLOAD PUSH1 0xE0 DUP2 ADD MLOAD PUSH3 0x1336 JUMPI JUMPDEST POP PUSH1 0xC0 DUP1 MLOAD DUP1 MLOAD PUSH1 0x20 DUP3 ADD MLOAD PUSH2 0x140 SWAP1 DUP2 MSTORE PUSH1 0x40 DUP4 ADD MLOAD PUSH1 0x60 DUP5 ADD MLOAD PUSH1 0x80 DUP6 ADD MLOAD PUSH1 0xA0 DUP7 ADD MLOAD SWAP7 DUP7 ADD MLOAD PUSH2 0x100 DUP8 ADD MLOAD PUSH2 0x120 DUP9 ADD MLOAD SWAP6 DUP9 ADD MLOAD PUSH2 0x160 DUP1 DUP11 ADD MLOAD PUSH1 0xE0 DUP12 ADD MLOAD PUSH2 0x180 DUP13 ADD MLOAD PUSH2 0x1A0 DUP14 ADD MLOAD PUSH2 0x1C0 DUP15 ADD MLOAD PUSH2 0x1E0 SWAP1 SWAP15 ADD MLOAD SWAP5 DUP6 SWAP1 MSTORE SWAP13 SWAP15 PUSH1 0x1 PUSH1 0x1 PUSH1 0xA0 SHL SUB SWAP14 DUP15 AND SWAP15 SWAP2 DUP15 AND SWAP14 SWAP1 SWAP13 SWAP3 ISZERO ISZERO SWAP12 SWAP4 DUP2 AND SWAP11 SWAP6 DUP2 AND SWAP10 SWAP4 SWAP9 SWAP7 SWAP8 ISZERO ISZERO SWAP7 SWAP2 SWAP6 SWAP2 SWAP5 SWAP2 SWAP3 AND SWAP1 PUSH1 0x3 GT ISZERO PUSH3 0x993 JUMPI PUSH3 0x1187 PUSH1 0x40 MLOAD DUP1 PUSH2 0x120 MSTORE PUSH3 0x1640 JUMP JUMPDEST PUSH2 0x120 MLOAD MSTORE PUSH2 0x140 MLOAD PUSH1 0x20 PUSH2 0x120 MLOAD ADD MSTORE PUSH1 0x40 PUSH2 0x120 MLOAD ADD MSTORE PUSH1 0x60 PUSH2 0x120 MLOAD ADD MSTORE PUSH1 0x80 PUSH2 0x120 MLOAD ADD MSTORE PUSH1 0xA0 PUSH2 0x120 MLOAD ADD MSTORE PUSH1 0xC0 PUSH2 0x120 MLOAD ADD MSTORE PUSH1 0xE0 PUSH2 0x120 MLOAD ADD MSTORE PUSH2 0x100 PUSH2 0x120 MLOAD ADD MSTORE PUSH2 0x120 DUP1 MLOAD ADD MSTORE PUSH2 0x140 PUSH2 0x120 MLOAD ADD MSTORE PUSH2 0x160 PUSH2 0x120 MLOAD ADD MSTORE PUSH1 0x1 DUP1 PUSH1 0xA0 SHL SUB AND PUSH2 0x180 PUSH2 0x120 MLOAD ADD MSTORE PUSH2 0x1A0 PUSH2 0x120 MLOAD ADD MSTORE PUSH2 0x1C0 PUSH2 0x120 MLOAD ADD MSTORE PUSH2 0x1E0 PUSH2 0x120 MLOAD ADD MSTORE PUSH3 0x122C PUSH2 0x160 MLOAD PUSH2 0x200 PUSH2 0x120 MLOAD ADD PUSH3 0x18DA JUMP JUMPDEST PUSH1 0xA0 MLOAD PUSH1 0x1 PUSH1 0x1 PUSH1 0xA0 SHL SUB AND DUP1 EXTCODESIZE ISZERO PUSH3 0x177 JUMPI PUSH1 0x40 MLOAD SWAP1 PUSH4 0x479C845 PUSH1 0xE2 SHL DUP3 MSTORE PUSH2 0x180 MLOAD DUP3 DUP1 PUSH3 0x1266 PUSH2 0x120 MLOAD PUSH1 0x4 DUP4 ADD PUSH3 0x18FD JUMP JUMPDEST SUB DUP2 PUSH2 0x180 MLOAD DUP6 GAS CALL SWAP2 DUP3 ISZERO PUSH3 0x74E JUMPI PUSH1 0x20 SWAP3 PUSH3 0x1324 JUMPI JUMPDEST POP PUSH1 0x1 DUP1 SLOAD PUSH2 0x180 DUP1 MLOAD SWAP2 SWAP1 SWAP2 MSTORE PUSH1 0x2 DUP5 MSTORE DUP1 MLOAD PUSH1 0x40 DUP1 DUP3 KECCAK256 DUP1 SLOAD PUSH1 0x1 PUSH1 0x1 PUSH1 0xA0 SHL SUB NOT SWAP1 DUP2 AND DUP8 OR SWAP1 SWAP2 SSTORE SWAP2 DUP6 SWAP1 MSTORE PUSH1 0x3 DUP7 MSTORE DUP3 MLOAD DUP2 DUP2 KECCAK256 DUP1 SLOAD SWAP1 SWAP4 AND CALLER OR SWAP1 SWAP3 SSTORE PUSH1 0xC0 MLOAD PUSH2 0x140 ADD MLOAD PUSH1 0x1 PUSH1 0x1 PUSH1 0xA0 SHL SUB AND SWAP1 SWAP2 MSTORE PUSH1 0x4 DUP6 MSTORE SWAP1 MLOAD KECCAK256 SWAP1 SLOAD PUSH3 0x12EB SWAP2 PUSH3 0x19D5 JUMP JUMPDEST PUSH3 0x96F PUSH1 0x1 SLOAD DUP3 PUSH1 0x1 DUP1 PUSH1 0xA0 SHL SUB PUSH2 0x140 PUSH1 0xC0 MLOAD ADD MLOAD AND PUSH1 0x40 MLOAD SWAP1 DUP2 MSTORE DUP3 PUSH1 0x0 DUP1 MLOAD PUSH1 0x20 PUSH3 0x5D09 DUP4 CODECOPY DUP2 MLOAD SWAP2 MSTORE DUP8 CALLER SWAP4 LOG4 PUSH3 0x1A0D JUMP JUMPDEST PUSH3 0x132F SWAP1 PUSH3 0x165D JUMP JUMPDEST DUP3 PUSH3 0x1280 JUMP JUMPDEST DUP1 MLOAD PUSH2 0x1A0 DUP3 ADD MLOAD PUSH1 0xA0 DUP4 ADD MLOAD PUSH2 0x1C0 SWAP1 SWAP4 ADD MLOAD PUSH1 0x40 MLOAD SWAP5 POP SWAP3 SWAP2 PUSH1 0x1 PUSH1 0x1 PUSH1 0xA0 SHL SUB SWAP2 DUP3 AND SWAP2 AND PUSH3 0x1369 DUP6 PUSH3 0x160E JUMP JUMPDEST PUSH1 0x40 MLOAD PUSH3 0x1377 DUP2 PUSH3 0x1671 JUMP JUMPDEST PUSH1 0xD DUP2 MSTORE PUSH13 0x2BB930B83832B2102A37B5B2B7 PUSH1 0x99 SHL PUSH1 0x20 DUP3 ADD MSTORE DUP6 MSTORE PUSH1 0x40 MLOAD PUSH3 0x13A1 DUP2 PUSH3 0x1671 JUMP JUMPDEST PUSH1 0x3 DUP2 MSTORE PUSH3 0x15D495 PUSH1 0xEA SHL PUSH1 0x20 DUP3 ADD MSTORE PUSH1 0x20 DUP7 ADD MSTORE PUSH1 0x40 DUP6 ADD MSTORE PUSH1 0x60 DUP5 ADD MSTORE PUSH1 0x80 DUP4 ADD MSTORE PUSH1 0xA0 DUP3 ADD MSTORE PUSH1 0x1 DUP1 PUSH1 0xA0 SHL SUB PUSH1 0xA0 MLOAD AND PUSH1 0xC0 DUP3 ADD MSTORE PUSH1 0x40 MLOAD SWAP1 PUSH2 0x1501 DUP1 DUP4 ADD SWAP2 DUP4 DUP4 LT PUSH1 0x1 DUP1 PUSH1 0x40 SHL SUB DUP5 GT OR PUSH3 0xAB6 JUMPI DUP4 SWAP3 PUSH3 0x140A SWAP3 PUSH3 0x4808 DUP6 CODECOPY PUSH3 0x1862 JUMP JUMPDEST SUB PUSH2 0x180 MLOAD SWAP2 DUP3 CREATE SWAP1 DUP2 ISZERO PUSH3 0xAAA JUMPI POP PUSH1 0x1 PUSH1 0x1 PUSH1 0xA0 SHL SUB AND DUP2 PUSH3 0x10DA JUMP JUMPDEST PUSH4 0x4E487B71 PUSH1 0xE0 SHL DUP5 MSTORE PUSH1 0x41 PUSH1 0x4 MSTORE PUSH2 0x180 MLOAD PUSH1 0x24 SWAP1 REVERT JUMPDEST CALLVALUE PUSH3 0x177 JUMPI PUSH1 0x20 DUP1 PUSH1 0x3 NOT CALLDATASIZE ADD SLT PUSH3 0x177 JUMPI PUSH1 0x1 PUSH1 0x1 PUSH1 0xA0 SHL SUB PUSH3 0x1469 PUSH3 0x15AE JUMP JUMPDEST AND PUSH2 0x180 MLOAD MSTORE PUSH1 0x4 DUP2 MSTORE PUSH1 0x40 PUSH2 0x180 MLOAD KECCAK256 PUSH1 0x40 MLOAD SWAP1 DUP2 DUP4 DUP3 SLOAD SWAP2 DUP3 DUP2 MSTORE ADD SWAP1 DUP2 SWAP3 PUSH2 0x180 MLOAD MSTORE PUSH2 0x180 MLOAD SWAP1 DUP6 DUP3 KECCAK256 SWAP2 JUMPDEST DUP7 DUP3 DUP3 LT PUSH3 0x14F6 JUMPI DUP7 DUP7 PUSH3 0x14B2 DUP3 DUP9 SUB DUP4 PUSH3 0x168D JUMP JUMPDEST PUSH1 0x40 MLOAD SWAP3 DUP4 SWAP3 DUP2 DUP5 ADD SWAP1 DUP3 DUP6 MSTORE MLOAD DUP1 SWAP2 MSTORE PUSH1 0x40 DUP5 ADD SWAP3 SWAP2 PUSH2 0x180 MLOAD JUMPDEST DUP3 DUP2 LT PUSH3 0x14DE JUMPI POP POP POP POP SUB SWAP1 RETURN JUMPDEST DUP4 MLOAD DUP6 MSTORE DUP7 SWAP6 POP SWAP4 DUP2 ADD SWAP4 SWAP3 DUP2 ADD SWAP3 PUSH1 0x1 ADD PUSH3 0x14CE JUMP JUMPDEST DUP4 SLOAD DUP6 MSTORE SWAP1 SWAP4 ADD SWAP3 PUSH1 0x1 SWAP3 DUP4 ADD SWAP3 ADD PUSH3 0x1499 JUMP JUMPDEST CALLVALUE PUSH3 0x177 JUMPI PUSH1 0x40 CALLDATASIZE PUSH1 0x3 NOT ADD SLT PUSH3 0x177 JUMPI PUSH3 0x1528 PUSH3 0x15AE JUMP JUMPDEST PUSH1 0x24 CALLDATALOAD SWAP1 PUSH1 0x1 DUP1 PUSH1 0xA0 SHL SUB AND PUSH2 0x180 MLOAD MSTORE PUSH1 0x4 PUSH1 0x20 MSTORE PUSH2 0x180 MLOAD PUSH1 0x40 DUP2 KECCAK256 SWAP1 DUP2 SLOAD DUP4 LT ISZERO PUSH3 0x74B JUMPI PUSH1 0x20 PUSH3 0x155F DUP5 DUP5 PUSH3 0x15DF JUMP JUMPDEST SWAP1 SLOAD PUSH1 0x40 MLOAD SWAP2 PUSH1 0x3 SHL SHR DUP2 MSTORE RETURN JUMPDEST SWAP1 POP CALLVALUE PUSH3 0x15AA JUMPI PUSH1 0x20 CALLDATASIZE PUSH1 0x3 NOT ADD SLT PUSH3 0x15AA JUMPI PUSH1 0x20 SWAP2 PUSH1 0x1 PUSH1 0x1 PUSH1 0xA0 SHL SUB SWAP1 PUSH1 0x40 SWAP1 DUP3 PUSH3 0x159C PUSH3 0x15AE JUMP JUMPDEST AND DUP2 MSTORE PUSH1 0x3 DUP6 MSTORE KECCAK256 SLOAD AND DUP2 MSTORE RETURN JUMPDEST POP DUP1 REVERT JUMPDEST PUSH1 0x4 CALLDATALOAD SWAP1 PUSH1 0x1 PUSH1 0x1 PUSH1 0xA0 SHL SUB DUP3 AND DUP3 SUB PUSH3 0x15C5 JUMPI JUMP JUMPDEST PUSH1 0x0 DUP1 REVERT JUMPDEST CALLDATALOAD SWAP1 PUSH1 0x1 PUSH1 0x1 PUSH1 0xA0 SHL SUB DUP3 AND DUP3 SUB PUSH3 0x15C5 JUMPI JUMP JUMPDEST DUP1 SLOAD DUP3 LT ISZERO PUSH3 0x15F8 JUMPI PUSH1 0x0 MSTORE PUSH1 0x20 PUSH1 0x0 KECCAK256 ADD SWAP1 PUSH1 0x0 SWAP1 JUMP JUMPDEST PUSH4 0x4E487B71 PUSH1 0xE0 SHL PUSH1 0x0 MSTORE PUSH1 0x32 PUSH1 0x4 MSTORE PUSH1 0x24 PUSH1 0x0 REVERT JUMPDEST PUSH1 0xE0 DUP2 ADD SWAP1 DUP2 LT PUSH1 0x1 PUSH1 0x1 PUSH1 0x40 SHL SUB DUP3 GT OR PUSH3 0x162A JUMPI PUSH1 0x40 MSTORE JUMP JUMPDEST PUSH4 0x4E487B71 PUSH1 0xE0 SHL PUSH1 0x0 MSTORE PUSH1 0x41 PUSH1 0x4 MSTORE PUSH1 0x24 PUSH1 0x0 REVERT JUMPDEST PUSH2 0x220 DUP2 ADD SWAP1 DUP2 LT PUSH1 0x1 PUSH1 0x1 PUSH1 0x40 SHL SUB DUP3 GT OR PUSH3 0x162A JUMPI PUSH1 0x40 MSTORE JUMP JUMPDEST PUSH1 0x1 PUSH1 0x1 PUSH1 0x40 SHL SUB DUP2 GT PUSH3 0x162A JUMPI PUSH1 0x40 MSTORE JUMP JUMPDEST PUSH1 0x40 DUP2 ADD SWAP1 DUP2 LT PUSH1 0x1 PUSH1 0x1 PUSH1 0x40 SHL SUB DUP3 GT OR PUSH3 0x162A JUMPI PUSH1 0x40 MSTORE JUMP JUMPDEST PUSH1 0x1F SWAP1 SWAP2 ADD PUSH1 0x1F NOT AND DUP2 ADD SWAP1 PUSH1 0x1 PUSH1 0x1 PUSH1 0x40 SHL SUB DUP3 GT SWAP1 DUP3 LT OR PUSH3 0x162A JUMPI PUSH1 0x40 MSTORE JUMP JUMPDEST CALLDATALOAD SWAP1 DUP2 ISZERO ISZERO DUP3 SUB PUSH3 0x15C5 JUMPI JUMP JUMPDEST PUSH1 0x1 PUSH1 0x1 PUSH1 0xA0 SHL SUB SWAP2 DUP3 AND DUP2 MSTORE SWAP2 AND PUSH1 0x20 DUP3 ADD MSTORE PUSH1 0x40 ADD SWAP1 JUMP JUMPDEST PUSH1 0x1 PUSH1 0x1 PUSH1 0x40 SHL SUB DUP2 GT PUSH3 0x162A JUMPI PUSH1 0x5 SHL PUSH1 0x20 ADD SWAP1 JUMP JUMPDEST DUP2 PUSH1 0x1F DUP3 ADD SLT ISZERO PUSH3 0x15C5 JUMPI DUP1 CALLDATALOAD SWAP2 PUSH3 0x170B DUP4 PUSH3 0x16D9 JUMP JUMPDEST SWAP3 PUSH3 0x171B PUSH1 0x40 MLOAD SWAP5 DUP6 PUSH3 0x168D JUMP JUMPDEST DUP1 DUP5 MSTORE PUSH1 0x20 SWAP3 DUP4 DUP1 DUP7 ADD SWAP3 PUSH1 0x5 SHL DUP3 ADD ADD SWAP3 DUP4 GT PUSH3 0x15C5 JUMPI DUP4 ADD SWAP1 JUMPDEST DUP3 DUP3 LT PUSH3 0x1747 JUMPI POP POP POP POP SWAP1 JUMP JUMPDEST DUP4 DUP1 SWAP2 PUSH3 0x1755 DUP5 PUSH3 0x15CA JUMP JUMPDEST DUP2 MSTORE ADD SWAP2 ADD SWAP1 PUSH3 0x1738 JUMP JUMPDEST PUSH1 0x0 SLOAD PUSH1 0x1 PUSH1 0x1 PUSH1 0xA0 SHL SUB AND CALLER SUB PUSH3 0x1776 JUMPI JUMP JUMPDEST PUSH1 0x40 MLOAD PUSH4 0x118CDAA7 PUSH1 0xE0 SHL DUP2 MSTORE CALLER PUSH1 0x4 DUP3 ADD MSTORE PUSH1 0x24 SWAP1 REVERT JUMPDEST ISZERO PUSH3 0x1796 JUMPI JUMP JUMPDEST PUSH1 0x40 MLOAD PUSH3 0x461BCD PUSH1 0xE5 SHL DUP2 MSTORE PUSH1 0x20 PUSH1 0x4 DUP3 ADD MSTORE PUSH1 0x16 PUSH1 0x24 DUP3 ADD MSTORE PUSH22 0x496E76616C696420657363726F772061646472657373 PUSH1 0x50 SHL PUSH1 0x44 DUP3 ADD MSTORE PUSH1 0x64 SWAP1 REVERT JUMPDEST ISZERO PUSH3 0x17DC JUMPI JUMP JUMPDEST PUSH1 0x40 MLOAD PUSH3 0x461BCD PUSH1 0xE5 SHL DUP2 MSTORE PUSH1 0x20 PUSH1 0x4 DUP3 ADD MSTORE PUSH1 0x1C PUSH1 0x24 DUP3 ADD MSTORE PUSH28 0x496E76616C6964207061796F757420746F6B656E2061646472657373 PUSH1 0x20 SHL PUSH1 0x44 DUP3 ADD MSTORE PUSH1 0x64 SWAP1 REVERT JUMPDEST SWAP2 SWAP1 DUP3 MLOAD SWAP3 DUP4 DUP3 MSTORE PUSH1 0x0 JUMPDEST DUP5 DUP2 LT PUSH3 0x184D JUMPI POP POP DUP3 PUSH1 0x0 PUSH1 0x20 DUP1 SWAP5 SWAP6 DUP5 ADD ADD MSTORE PUSH1 0x1F DUP1 NOT SWAP2 ADD AND ADD ADD SWAP1 JUMP JUMPDEST PUSH1 0x20 DUP2 DUP4 ADD DUP2 ADD MLOAD DUP5 DUP4 ADD DUP3 ADD MSTORE ADD PUSH3 0x182B JUMP JUMPDEST PUSH1 0x20 DUP2 MSTORE PUSH1 0xE0 PUSH3 0x189B PUSH3 0x1884 DUP5 MLOAD DUP4 PUSH1 0x20 DUP7 ADD MSTORE PUSH2 0x100 DUP6 ADD SWAP1 PUSH3 0x1820 JUMP JUMPDEST PUSH1 0x20 DUP6 ADD MLOAD DUP5 DUP3 SUB PUSH1 0x1F NOT ADD PUSH1 0x40 DUP7 ADD MSTORE PUSH3 0x1820 JUMP JUMPDEST SWAP3 PUSH1 0xC0 PUSH1 0x1 DUP1 PUSH1 0xA0 SHL SUB SWAP2 DUP3 PUSH1 0x40 DUP3 ADD MLOAD AND PUSH1 0x60 DUP7 ADD MSTORE DUP3 PUSH1 0x60 DUP3 ADD MLOAD AND PUSH1 0x80 DUP7 ADD MSTORE PUSH1 0x80 DUP2 ADD MLOAD PUSH1 0xA0 DUP7 ADD MSTORE PUSH1 0xA0 DUP2 ADD MLOAD DUP3 DUP7 ADD MSTORE ADD MLOAD AND SWAP2 ADD MSTORE SWAP1 JUMP JUMPDEST PUSH1 0x3 DUP3 LT ISZERO PUSH3 0x18E7 JUMPI MSTORE JUMP JUMPDEST PUSH4 0x4E487B71 PUSH1 0xE0 SHL PUSH1 0x0 MSTORE PUSH1 0x21 PUSH1 0x4 MSTORE PUSH1 0x24 PUSH1 0x0 REVERT JUMPDEST SWAP2 SWAP1 SWAP2 PUSH2 0x220 DUP2 ADD SWAP3 PUSH1 0x1 DUP1 PUSH1 0xA0 SHL SUB DUP1 DUP3 MLOAD AND DUP4 MSTORE PUSH1 0x20 DUP3 ADD MLOAD PUSH1 0x20 DUP5 ADD MSTORE PUSH1 0x40 DUP3 ADD MLOAD PUSH1 0x40 DUP5 ADD MSTORE PUSH1 0x60 DUP3 ADD MLOAD PUSH1 0x60 DUP5 ADD MSTORE PUSH1 0x80 DUP3 ADD MLOAD PUSH1 0x80 DUP5 ADD MSTORE PUSH1 0xA0 DUP3 ADD MLOAD PUSH1 0xA0 DUP5 ADD MSTORE PUSH1 0xC0 DUP3 ADD MLOAD ISZERO ISZERO PUSH1 0xC0 DUP5 ADD MSTORE PUSH1 0xE0 DUP3 ADD MLOAD PUSH1 0xE0 DUP5 ADD MSTORE PUSH2 0x100 DUP1 DUP4 ADD MLOAD SWAP1 DUP5 ADD MSTORE PUSH2 0x120 DUP2 DUP2 DUP5 ADD MLOAD AND SWAP1 DUP5 ADD MSTORE PUSH2 0x140 DUP2 DUP2 DUP5 ADD MLOAD AND SWAP1 DUP5 ADD MSTORE PUSH2 0x160 DUP1 DUP4 ADD MLOAD ISZERO ISZERO SWAP1 DUP5 ADD MSTORE PUSH2 0x180 DUP2 DUP2 DUP5 ADD MLOAD AND SWAP1 DUP5 ADD MSTORE PUSH2 0x1A0 DUP2 DUP2 DUP5 ADD MLOAD AND SWAP1 DUP5 ADD MSTORE PUSH2 0x1C0 SWAP1 DUP2 DUP4 ADD MLOAD AND SWAP1 DUP4 ADD MSTORE PUSH2 0x1E0 DUP1 DUP3 ADD MLOAD SWAP1 DUP4 ADD MSTORE PUSH2 0x200 DUP1 SWAP2 ADD MLOAD SWAP2 PUSH1 0x3 DUP4 LT ISZERO PUSH3 0x18E7 JUMPI ADD MSTORE JUMP JUMPDEST DUP1 SLOAD PUSH1 0x1 PUSH1 0x40 SHL DUP2 LT ISZERO PUSH3 0x162A JUMPI PUSH3 0x19F5 SWAP2 PUSH1 0x1 DUP3 ADD DUP2 SSTORE PUSH3 0x15DF JUMP JUMPDEST DUP2 SWAP3 SWAP2 SLOAD SWAP1 PUSH1 0x3 SHL SWAP2 DUP3 SHL SWAP2 PUSH1 0x0 NOT SWAP1 SHL NOT AND OR SWAP1 SSTORE JUMP JUMPDEST PUSH1 0x0 NOT DUP2 EQ PUSH3 0x1A1D JUMPI PUSH1 0x1 ADD SWAP1 JUMP JUMPDEST PUSH4 0x4E487B71 PUSH1 0xE0 SHL PUSH1 0x0 MSTORE PUSH1 0x11 PUSH1 0x4 MSTORE PUSH1 0x24 PUSH1 0x0 REVERT JUMPDEST DUP1 MLOAD DUP3 LT ISZERO PUSH3 0x15F8 JUMPI PUSH1 0x20 SWAP2 PUSH1 0x5 SHL ADD ADD SWAP1 JUMP INVALID PUSH1 0x80 DUP1 PUSH1 0x40 MSTORE CALLVALUE PUSH2 0x1B JUMPI PUSH1 0x1 PUSH1 0x2 SSTORE PUSH2 0x2D9E SWAP1 DUP2 PUSH2 0x21 DUP3 CODECOPY RETURN JUMPDEST PUSH1 0x0 DUP1 REVERT INVALID PUSH1 0x80 DUP1 PUSH1 0x40 MSTORE PUSH1 0x4 CALLDATASIZE LT ISZERO PUSH2 0x94 JUMPI JUMPDEST POP CALLDATASIZE ISZERO PUSH2 0x53 JUMPI PUSH1 0x40 MLOAD PUSH3 0x461BCD PUSH1 0xE5 SHL DUP2 MSTORE PUSH1 0x20 PUSH1 0x4 DUP3 ADD MSTORE PUSH1 0x15 PUSH1 0x24 DUP3 ADD MSTORE PUSH21 0x11985B1B189858DAC81B9BDD081858D8D95C1D1959 PUSH1 0x5A SHL PUSH1 0x44 DUP3 ADD MSTORE PUSH1 0x64 SWAP1 REVERT JUMPDEST PUSH1 0x40 MLOAD PUSH3 0x461BCD PUSH1 0xE5 SHL DUP2 MSTORE PUSH1 0x20 PUSH1 0x4 DUP3 ADD MSTORE PUSH1 0x19 PUSH1 0x24 DUP3 ADD MSTORE PUSH25 0x111A5C9958DD081315535250481B9BDD081858D8D95C1D1959 PUSH1 0x3A SHL PUSH1 0x44 DUP3 ADD MSTORE PUSH1 0x64 SWAP1 REVERT JUMPDEST PUSH1 0x0 SWAP1 DUP2 CALLDATALOAD PUSH1 0xE0 SHR SWAP1 DUP2 PUSH3 0x2E1316 EQ PUSH2 0x26F9 JUMPI POP DUP1 PUSH4 0x1FFC9A7 EQ PUSH2 0x26A2 JUMPI DUP1 PUSH4 0xB97BC86 EQ PUSH2 0x2684 JUMPI DUP1 PUSH4 0xD342CAB EQ PUSH2 0x2661 JUMPI DUP1 PUSH4 0xD5DEFA4 EQ PUSH2 0x2638 JUMPI DUP1 PUSH4 0x11E72114 EQ PUSH2 0x2029 JUMPI DUP1 PUSH4 0x1309B324 EQ PUSH2 0x1FAA JUMPI DUP1 PUSH4 0x1E1A268B EQ PUSH2 0x1F87 JUMPI DUP1 PUSH4 0x248A9CA3 EQ PUSH2 0x1F5B JUMPI DUP1 PUSH4 0x2B4353F2 EQ PUSH2 0x1F3D JUMPI DUP1 PUSH4 0x2F2FF15D EQ PUSH2 0x1F00 JUMPI DUP1 PUSH4 0x36568ABE EQ PUSH2 0x1EB8 JUMPI DUP1 PUSH4 0x3784F000 EQ PUSH2 0x1DAD JUMPI DUP1 PUSH4 0x3E646208 EQ PUSH2 0x1D80 JUMPI DUP1 PUSH4 0x3F4BA83A EQ PUSH2 0x1D09 JUMPI DUP1 PUSH4 0x4B31BB10 EQ PUSH2 0x1CE0 JUMPI DUP1 PUSH4 0x4FFF5402 EQ PUSH2 0x1CBA JUMPI DUP1 PUSH4 0x5C975ABB EQ PUSH2 0x1C97 JUMPI DUP1 PUSH4 0x5CC04838 EQ PUSH2 0x1C6E JUMPI DUP1 PUSH4 0x61D027B3 EQ PUSH2 0x1C41 JUMPI DUP1 PUSH4 0x653AC422 EQ PUSH2 0x115D JUMPI DUP1 PUSH4 0x6A61E5FC EQ PUSH2 0x1104 JUMPI DUP1 PUSH4 0x764467CC EQ PUSH2 0x104F JUMPI DUP1 PUSH4 0x77D392F0 EQ PUSH2 0xE17 JUMPI DUP1 PUSH4 0x7FF9B596 EQ PUSH2 0xDF9 JUMPI DUP1 PUSH4 0x8456CB59 EQ PUSH2 0xD93 JUMPI DUP1 PUSH4 0x88E32FC2 EQ PUSH2 0xCE0 JUMPI DUP1 PUSH4 0x8A185113 EQ PUSH2 0xCB7 JUMPI DUP1 PUSH4 0x8AC2C680 EQ PUSH2 0xC99 JUMPI DUP1 PUSH4 0x8CD05933 EQ PUSH2 0xC71 JUMPI DUP1 PUSH4 0x90838E09 EQ PUSH2 0xC38 JUMPI DUP1 PUSH4 0x91D14854 EQ PUSH2 0xBED JUMPI DUP1 PUSH4 0xA217FDDF EQ PUSH2 0xBD1 JUMPI DUP1 PUSH4 0xA6527F39 EQ PUSH2 0xB93 JUMPI DUP1 PUSH4 0xB13EF138 EQ PUSH2 0xB55 JUMPI DUP1 PUSH4 0xB37FD190 EQ PUSH2 0x82B JUMPI DUP1 PUSH4 0xB9662797 EQ PUSH2 0x80D JUMPI DUP1 PUSH4 0xBBCC0A06 EQ PUSH2 0x7EF JUMPI DUP1 PUSH4 0xBD492432 EQ PUSH2 0x7B3 JUMPI DUP1 PUSH4 0xC031A66F EQ PUSH2 0x77A JUMPI DUP1 PUSH4 0xC24A0F8B EQ PUSH2 0x75C JUMPI DUP1 PUSH4 0xC5C4744C EQ PUSH2 0x73E JUMPI DUP1 PUSH4 0xD547741F EQ PUSH2 0x6FD JUMPI DUP1 PUSH4 0xD59624B4 EQ PUSH2 0x6DF JUMPI DUP1 PUSH4 0xDF695ABB EQ PUSH2 0x6A0 JUMPI DUP1 PUSH4 0xDF8DE3E7 EQ PUSH2 0x30C JUMPI DUP1 PUSH4 0xE985E367 EQ PUSH2 0x2E3 JUMPI PUSH4 0xFB903B1D SUB PUSH2 0xF JUMPI CALLVALUE PUSH2 0x2E0 JUMPI PUSH1 0x40 CALLDATASIZE PUSH1 0x3 NOT ADD SLT PUSH2 0x2E0 JUMPI PUSH1 0x24 CALLDATALOAD PUSH1 0x4 CALLDATALOAD PUSH2 0x2CB PUSH2 0x27F6 JUMP JUMPDEST PUSH2 0x2D7 DUP3 DUP3 GT ISZERO PUSH2 0x2A7B JUMP JUMPDEST PUSH1 0x4 SSTORE PUSH1 0x5 SSTORE DUP1 RETURN JUMPDEST DUP1 REVERT JUMPDEST POP CALLVALUE PUSH2 0x2E0 JUMPI DUP1 PUSH1 0x3 NOT CALLDATASIZE ADD SLT PUSH2 0x2E0 JUMPI PUSH1 0x3 SLOAD PUSH1 0x40 MLOAD PUSH1 0x1 PUSH1 0x1 PUSH1 0xA0 SHL SUB SWAP1 SWAP2 AND DUP2 MSTORE PUSH1 0x20 SWAP1 RETURN JUMPDEST POP CALLVALUE PUSH2 0x2E0 JUMPI PUSH1 0x20 SWAP1 DUP2 PUSH1 0x3 NOT CALLDATASIZE ADD SLT PUSH2 0x2E0 JUMPI PUSH2 0x328 PUSH2 0x2761 JUMP JUMPDEST PUSH2 0x330 PUSH2 0x2BC3 JUMP JUMPDEST PUSH2 0x338 PUSH2 0x2ABE JUMP JUMPDEST PUSH1 0xE SLOAD PUSH1 0x1 PUSH1 0x1 PUSH1 0xA0 SHL SUB SWAP3 SWAP1 DUP4 AND CALLER SUB PUSH2 0x646 JUMPI PUSH1 0x8 SLOAD TIMESTAMP LT PUSH2 0x60A JUMPI DUP3 DUP3 AND SWAP2 DUP3 DUP3 MSTORE PUSH1 0x15 DUP6 MSTORE PUSH1 0x40 DUP3 KECCAK256 SLOAD SWAP4 DUP5 ISZERO PUSH2 0x5D0 JUMPI PUSH1 0x24 DUP7 DUP3 PUSH1 0x3 SLOAD AND PUSH1 0x40 MLOAD SWAP3 DUP4 DUP1 SWAP3 PUSH4 0x70A08231 PUSH1 0xE0 SHL DUP3 MSTORE ADDRESS PUSH1 0x4 DUP4 ADD MSTORE GAS STATICCALL DUP1 ISZERO PUSH2 0x4EA JUMPI DUP7 SWAP1 DUP6 SWAP1 PUSH2 0x59A JUMPI JUMPDEST PUSH2 0x3A9 SWAP3 POP LT ISZERO PUSH2 0x2B1F JUMP JUMPDEST DUP4 DUP4 MSTORE PUSH1 0x15 DUP7 MSTORE DUP3 PUSH1 0x40 DUP2 KECCAK256 SSTORE PUSH2 0x3C2 DUP6 PUSH1 0xC SLOAD PUSH2 0x2C20 JUMP JUMPDEST PUSH1 0xC SSTORE DUP6 DUP6 PUSH1 0xFF PUSH1 0xD SLOAD PUSH1 0x8 SHR AND PUSH1 0x0 EQ PUSH2 0x4F5 JUMPI SWAP1 PUSH2 0x407 SWAP2 DUP4 PUSH1 0x3 SLOAD AND DUP5 DUP8 PUSH1 0xD SLOAD PUSH1 0x40 MLOAD SWAP7 DUP8 SWAP6 DUP7 SWAP5 DUP6 SWAP4 PUSH4 0x95EA7B3 PUSH1 0xE0 SHL DUP6 MSTORE PUSH1 0x10 SHR AND PUSH1 0x4 DUP5 ADD PUSH2 0x2B7E JUMP JUMPDEST SUB SWAP3 GAS CALL DUP1 ISZERO PUSH2 0x4EA JUMPI PUSH2 0x4BD JUMPI JUMPDEST POP PUSH1 0xD SLOAD PUSH1 0x10 SHR AND PUSH1 0xFF PUSH1 0x11 SLOAD AND SWAP2 DUP2 EXTCODESIZE ISZERO PUSH2 0x4B9 JUMPI SWAP2 DUP4 SWAP2 DUP7 DUP4 PUSH2 0x452 SWAP6 PUSH1 0x40 MLOAD SWAP7 DUP8 SWAP6 DUP7 SWAP5 DUP6 SWAP4 PUSH4 0x48E8A949 PUSH1 0xE0 SHL DUP6 MSTORE PUSH1 0x4 DUP6 ADD PUSH2 0x2B99 JUMP JUMPDEST SUB SWAP3 GAS CALL DUP1 ISZERO PUSH2 0x4AE JUMPI PUSH2 0x49A JUMPI JUMPDEST POP POP JUMPDEST PUSH32 0xD8138F8A3F377C5259CA548E70E4C2DE94F129F5A11036A15B69513CBA2B426A DUP4 PUSH1 0x40 MLOAD DUP5 DUP2 MSTORE LOG2 PUSH1 0x1 PUSH1 0x2 SSTORE PUSH1 0x40 MLOAD SWAP1 DUP2 MSTORE RETURN JUMPDEST PUSH2 0x4A4 DUP3 SWAP2 PUSH2 0x2715 JUMP JUMPDEST PUSH2 0x2E0 JUMPI DUP1 PUSH2 0x461 JUMP JUMPDEST PUSH1 0x40 MLOAD RETURNDATASIZE DUP5 DUP3 RETURNDATACOPY RETURNDATASIZE SWAP1 REVERT JUMPDEST DUP4 DUP1 REVERT JUMPDEST PUSH2 0x4DC SWAP1 DUP8 RETURNDATASIZE DUP10 GT PUSH2 0x4E3 JUMPI JUMPDEST PUSH2 0x4D4 DUP2 DUP4 PUSH2 0x273E JUMP JUMPDEST DUP2 ADD SWAP1 PUSH2 0x2B66 JUMP JUMPDEST POP CODESIZE PUSH2 0x416 JUMP JUMPDEST POP RETURNDATASIZE PUSH2 0x4CA JUMP JUMPDEST PUSH1 0x40 MLOAD RETURNDATASIZE DUP7 DUP3 RETURNDATACOPY RETURNDATASIZE SWAP1 REVERT JUMPDEST SWAP1 SWAP2 SWAP3 PUSH2 0x51E SWAP4 PUSH1 0x3 SLOAD AND SWAP1 DUP6 PUSH1 0x40 MLOAD DUP1 SWAP7 DUP2 SWAP6 DUP3 SWAP5 PUSH4 0xA9059CBB PUSH1 0xE0 SHL DUP5 MSTORE PUSH1 0x4 DUP5 ADD PUSH2 0x2B7E JUMP JUMPDEST SUB SWAP3 GAS CALL SWAP2 DUP3 ISZERO PUSH2 0x58E JUMPI SWAP2 PUSH2 0x571 JUMPI JUMPDEST POP PUSH2 0x464 JUMPI PUSH1 0x40 MLOAD PUSH3 0x461BCD PUSH1 0xE5 SHL DUP2 MSTORE PUSH1 0x4 DUP2 ADD DUP5 SWAP1 MSTORE PUSH1 0x15 PUSH1 0x24 DUP3 ADD MSTORE PUSH21 0x151BDAD95B881D1C985B9CD9995C8819985A5B1959 PUSH1 0x5A SHL PUSH1 0x44 DUP3 ADD MSTORE PUSH1 0x64 SWAP1 REVERT JUMPDEST PUSH2 0x588 SWAP2 POP DUP5 RETURNDATASIZE DUP7 GT PUSH2 0x4E3 JUMPI PUSH2 0x4D4 DUP2 DUP4 PUSH2 0x273E JUMP JUMPDEST CODESIZE PUSH2 0x52F JUMP JUMPDEST PUSH1 0x40 MLOAD SWAP1 RETURNDATASIZE SWAP1 DUP3 RETURNDATACOPY RETURNDATASIZE SWAP1 REVERT JUMPDEST POP POP DUP7 DUP2 DUP2 RETURNDATASIZE DUP4 GT PUSH2 0x5C9 JUMPI JUMPDEST PUSH2 0x5B1 DUP2 DUP4 PUSH2 0x273E JUMP JUMPDEST DUP2 ADD SUB SLT PUSH2 0x5C4 JUMPI DUP6 PUSH2 0x3A9 SWAP2 MLOAD PUSH2 0x39D JUMP JUMPDEST PUSH1 0x0 DUP1 REVERT JUMPDEST POP RETURNDATASIZE PUSH2 0x5A7 JUMP JUMPDEST PUSH1 0x40 MLOAD PUSH3 0x461BCD PUSH1 0xE5 SHL DUP2 MSTORE PUSH1 0x4 DUP2 ADD DUP8 SWAP1 MSTORE PUSH1 0x12 PUSH1 0x24 DUP3 ADD MSTORE PUSH18 0x4E6F20746F6B656E7320746F20636C61696D PUSH1 0x70 SHL PUSH1 0x44 DUP3 ADD MSTORE PUSH1 0x64 SWAP1 REVERT JUMPDEST PUSH1 0x40 MLOAD PUSH3 0x461BCD PUSH1 0xE5 SHL DUP2 MSTORE PUSH1 0x4 DUP2 ADD DUP6 SWAP1 MSTORE PUSH1 0x14 PUSH1 0x24 DUP3 ADD MSTORE PUSH20 0x13585D1D5C9A5D1E481B9BDD081C995858DA1959 PUSH1 0x62 SHL PUSH1 0x44 DUP3 ADD MSTORE PUSH1 0x64 SWAP1 REVERT JUMPDEST PUSH1 0x40 MLOAD PUSH3 0x461BCD PUSH1 0xE5 SHL DUP2 MSTORE PUSH1 0x20 PUSH1 0x4 DUP3 ADD MSTORE PUSH1 0x2C PUSH1 0x24 DUP3 ADD MSTORE PUSH32 0x43616C6C6572206973206E6F742074686520696E766573746D656E744D616E61 PUSH1 0x44 DUP3 ADD MSTORE PUSH12 0x19D95C8818DBDB9D1C9858DD PUSH1 0xA2 SHL PUSH1 0x64 DUP3 ADD MSTORE PUSH1 0x84 SWAP1 REVERT JUMPDEST POP CALLVALUE PUSH2 0x2E0 JUMPI PUSH1 0x20 CALLDATASIZE PUSH1 0x3 NOT ADD SLT PUSH2 0x2E0 JUMPI PUSH1 0x20 SWAP1 PUSH1 0xFF SWAP1 PUSH1 0x40 SWAP1 PUSH1 0x1 PUSH1 0x1 PUSH1 0xA0 SHL SUB PUSH2 0x6CB PUSH2 0x2761 JUMP JUMPDEST AND DUP2 MSTORE PUSH1 0x14 DUP5 MSTORE KECCAK256 SLOAD AND PUSH1 0x40 MLOAD SWAP1 ISZERO ISZERO DUP2 MSTORE RETURN JUMPDEST POP CALLVALUE PUSH2 0x2E0 JUMPI DUP1 PUSH1 0x3 NOT CALLDATASIZE ADD SLT PUSH2 0x2E0 JUMPI PUSH1 0x20 PUSH1 0x8 SLOAD PUSH1 0x40 MLOAD SWAP1 DUP2 MSTORE RETURN JUMPDEST POP CALLVALUE PUSH2 0x2E0 JUMPI PUSH1 0x40 CALLDATASIZE PUSH1 0x3 NOT ADD SLT PUSH2 0x2E0 JUMPI PUSH2 0x73A PUSH1 0x4 CALLDATALOAD PUSH2 0x71D PUSH2 0x2777 JUMP JUMPDEST SWAP1 DUP1 DUP5 MSTORE DUP4 PUSH1 0x20 MSTORE PUSH2 0x735 PUSH1 0x1 PUSH1 0x40 DUP7 KECCAK256 ADD SLOAD PUSH2 0x282E JUMP JUMPDEST PUSH2 0x2A18 JUMP JUMPDEST POP DUP1 RETURN JUMPDEST POP CALLVALUE PUSH2 0x2E0 JUMPI DUP1 PUSH1 0x3 NOT CALLDATASIZE ADD SLT PUSH2 0x2E0 JUMPI PUSH1 0x20 PUSH1 0xB SLOAD PUSH1 0x40 MLOAD SWAP1 DUP2 MSTORE RETURN JUMPDEST POP CALLVALUE PUSH2 0x2E0 JUMPI DUP1 PUSH1 0x3 NOT CALLDATASIZE ADD SLT PUSH2 0x2E0 JUMPI PUSH1 0x20 PUSH1 0x7 SLOAD PUSH1 0x40 MLOAD SWAP1 DUP2 MSTORE RETURN JUMPDEST POP CALLVALUE PUSH2 0x2E0 JUMPI PUSH1 0x20 CALLDATASIZE PUSH1 0x3 NOT ADD SLT PUSH2 0x2E0 JUMPI PUSH1 0x20 SWAP1 PUSH1 0x40 SWAP1 PUSH1 0x1 PUSH1 0x1 PUSH1 0xA0 SHL SUB PUSH2 0x7A2 PUSH2 0x2761 JUMP JUMPDEST AND DUP2 MSTORE PUSH1 0x15 DUP4 MSTORE KECCAK256 SLOAD PUSH1 0x40 MLOAD SWAP1 DUP2 MSTORE RETURN JUMPDEST POP CALLVALUE PUSH2 0x2E0 JUMPI PUSH1 0x20 CALLDATASIZE PUSH1 0x3 NOT ADD SLT PUSH2 0x2E0 JUMPI PUSH1 0x20 SWAP1 PUSH1 0x1 PUSH1 0x1 PUSH1 0xA0 SHL SUB SWAP1 PUSH1 0x40 SWAP1 DUP3 PUSH2 0x7DD PUSH2 0x2761 JUMP JUMPDEST AND DUP2 MSTORE PUSH1 0x17 DUP5 MSTORE KECCAK256 SLOAD AND PUSH1 0x40 MLOAD SWAP1 DUP2 MSTORE RETURN JUMPDEST POP CALLVALUE PUSH2 0x2E0 JUMPI DUP1 PUSH1 0x3 NOT CALLDATASIZE ADD SLT PUSH2 0x2E0 JUMPI PUSH1 0x20 PUSH1 0xC SLOAD PUSH1 0x40 MLOAD SWAP1 DUP2 MSTORE RETURN JUMPDEST POP CALLVALUE PUSH2 0x2E0 JUMPI DUP1 PUSH1 0x3 NOT CALLDATASIZE ADD SLT PUSH2 0x2E0 JUMPI PUSH1 0x20 PUSH1 0xA SLOAD PUSH1 0x40 MLOAD SWAP1 DUP2 MSTORE RETURN JUMPDEST POP CALLVALUE PUSH2 0x2E0 JUMPI PUSH1 0x60 CALLDATASIZE PUSH1 0x3 NOT ADD SLT PUSH2 0x2E0 JUMPI PUSH2 0x845 PUSH2 0x2761 JUMP JUMPDEST PUSH1 0x1 PUSH1 0x1 PUSH1 0xA0 SHL SUB PUSH1 0x44 DUP1 CALLDATALOAD DUP3 DUP2 AND SWAP4 PUSH1 0x24 DUP1 CALLDATALOAD SWAP4 SWAP1 SWAP3 SWAP1 SWAP2 DUP7 DUP3 SUB PUSH2 0x5C4 JUMPI PUSH2 0x86D PUSH2 0x27B0 JUMP JUMPDEST PUSH2 0x875 PUSH2 0x2BC3 JUMP JUMPDEST DUP7 ISZERO PUSH2 0xB1E JUMPI DUP6 AND SWAP5 DUP6 PUSH2 0x97A JUMPI POP DUP4 SELFBALANCE LT PUSH2 0x944 JUMPI DUP7 DUP1 DUP1 DUP7 DUP2 SWAP5 GAS CALL RETURNDATASIZE ISZERO PUSH2 0x93F JUMPI RETURNDATASIZE PUSH1 0x1 PUSH1 0x1 PUSH1 0x40 SHL SUB DUP2 GT PUSH2 0x92C JUMPI PUSH1 0x40 MLOAD SWAP1 PUSH2 0x8C0 PUSH1 0x1F DUP3 ADD PUSH1 0x1F NOT AND PUSH1 0x20 ADD DUP4 PUSH2 0x273E JUMP JUMPDEST DUP2 MSTORE DUP8 PUSH1 0x20 RETURNDATASIZE SWAP3 ADD RETURNDATACOPY JUMPDEST ISZERO PUSH2 0x8F3 JUMPI POP POP PUSH1 0x20 PUSH1 0x0 DUP1 MLOAD PUSH1 0x20 PUSH2 0x2CE9 DUP4 CODECOPY DUP2 MLOAD SWAP2 MSTORE SWAP2 JUMPDEST PUSH1 0x40 MLOAD SWAP1 DUP2 MSTORE LOG3 PUSH1 0x1 PUSH1 0x2 SSTORE DUP1 RETURN JUMPDEST SWAP1 PUSH19 0x1315535250481C995CD8DD594819985A5B1959 PUSH1 0x6A SHL PUSH1 0x64 SWAP3 PUSH1 0x13 PUSH1 0x40 MLOAD SWAP4 PUSH3 0x461BCD PUSH1 0xE5 SHL DUP6 MSTORE PUSH1 0x20 PUSH1 0x4 DUP7 ADD MSTORE DUP5 ADD MSTORE DUP3 ADD MSTORE REVERT JUMPDEST PUSH4 0x4E487B71 PUSH1 0xE0 SHL DUP9 MSTORE PUSH1 0x41 PUSH1 0x4 MSTORE DUP4 DUP9 REVERT JUMPDEST PUSH2 0x8CA JUMP JUMPDEST PUSH1 0x40 MLOAD PUSH3 0x461BCD PUSH1 0xE5 SHL DUP2 MSTORE PUSH1 0x20 PUSH1 0x4 DUP3 ADD MSTORE PUSH1 0x10 DUP2 DUP6 ADD MSTORE PUSH16 0x4E6F7420656E6F756768204C554D4941 PUSH1 0x80 SHL DUP2 DUP5 ADD MSTORE PUSH1 0x64 SWAP1 REVERT JUMPDEST PUSH1 0x3 SWAP4 SWAP2 SWAP4 SLOAD AND DUP6 EQ PUSH2 0xAE2 JUMPI PUSH1 0x40 MLOAD PUSH4 0x70A08231 PUSH1 0xE0 SHL DUP2 MSTORE ADDRESS PUSH1 0x4 DUP3 ADD MSTORE PUSH1 0x20 SWAP4 SWAP1 DUP5 DUP2 DUP5 DUP2 DUP11 GAS STATICCALL DUP1 ISZERO PUSH2 0xAD7 JUMPI DUP7 SWAP2 DUP11 SWAP2 PUSH2 0xAA6 JUMPI JUMPDEST POP LT PUSH2 0xA6F JUMPI DUP4 DUP6 PUSH2 0x9DB SWAP3 PUSH1 0x40 MLOAD SWAP4 DUP5 SWAP3 DUP4 SWAP3 PUSH4 0xA9059CBB PUSH1 0xE0 SHL DUP5 MSTORE PUSH1 0x4 DUP5 ADD PUSH2 0x2B7E JUMP JUMPDEST SUB DUP2 DUP12 DUP11 GAS CALL SWAP1 DUP2 ISZERO PUSH2 0xA64 JUMPI DUP9 SWAP2 PUSH2 0xA47 JUMPI JUMPDEST POP ISZERO PUSH2 0xA0F JUMPI POP POP POP PUSH1 0x20 PUSH1 0x0 DUP1 MLOAD PUSH1 0x20 PUSH2 0x2CE9 DUP4 CODECOPY DUP2 MLOAD SWAP2 MSTORE SWAP2 PUSH2 0x8E4 JUMP JUMPDEST PUSH1 0x64 SWAP3 SWAP2 PUSH1 0x13 PUSH19 0x115490CC8C081C995CD8DD594819985A5B1959 PUSH1 0x6A SHL SWAP3 PUSH1 0x40 MLOAD SWAP5 PUSH3 0x461BCD PUSH1 0xE5 SHL DUP7 MSTORE PUSH1 0x4 DUP7 ADD MSTORE DUP5 ADD MSTORE DUP3 ADD MSTORE REVERT JUMPDEST PUSH2 0xA5E SWAP2 POP DUP5 RETURNDATASIZE DUP7 GT PUSH2 0x4E3 JUMPI PUSH2 0x4D4 DUP2 DUP4 PUSH2 0x273E JUMP JUMPDEST CODESIZE PUSH2 0x9EF JUMP JUMPDEST PUSH1 0x40 MLOAD RETURNDATASIZE DUP11 DUP3 RETURNDATACOPY RETURNDATASIZE SWAP1 REVERT JUMPDEST PUSH1 0x40 MLOAD PUSH3 0x461BCD PUSH1 0xE5 SHL DUP2 MSTORE PUSH1 0x4 DUP2 ADD DUP6 SWAP1 MSTORE PUSH1 0x11 DUP2 DUP5 ADD MSTORE PUSH17 0x4E6F7420656E6F75676820746F6B656E73 PUSH1 0x78 SHL DUP2 DUP6 ADD MSTORE PUSH1 0x64 SWAP1 REVERT JUMPDEST DUP1 SWAP3 POP DUP7 DUP1 SWAP3 POP RETURNDATASIZE DUP4 GT PUSH2 0xAD0 JUMPI JUMPDEST PUSH2 0xABF DUP2 DUP4 PUSH2 0x273E JUMP JUMPDEST DUP2 ADD SUB SLT PUSH2 0x5C4 JUMPI DUP6 SWAP1 MLOAD CODESIZE PUSH2 0x9B4 JUMP JUMPDEST POP RETURNDATASIZE PUSH2 0xAB5 JUMP JUMPDEST PUSH1 0x40 MLOAD RETURNDATASIZE DUP12 DUP3 RETURNDATACOPY RETURNDATASIZE SWAP1 REVERT JUMPDEST PUSH23 0x21B0B73737BA103932B9B1BAB29039B0B632AA37B5B2B7 PUSH1 0x49 SHL PUSH1 0x64 SWAP3 PUSH1 0x17 PUSH1 0x40 MLOAD SWAP4 PUSH3 0x461BCD PUSH1 0xE5 SHL DUP6 MSTORE PUSH1 0x20 PUSH1 0x4 DUP7 ADD MSTORE DUP5 ADD MSTORE DUP3 ADD MSTORE REVERT JUMPDEST PUSH1 0x40 MLOAD PUSH3 0x461BCD PUSH1 0xE5 SHL DUP2 MSTORE PUSH1 0x20 PUSH1 0x4 DUP3 ADD MSTORE PUSH1 0x11 DUP2 DUP7 ADD MSTORE PUSH17 0x125B9D985B1A59081C9958DA5C1A595B9D PUSH1 0x7A SHL DUP2 DUP6 ADD MSTORE PUSH1 0x64 SWAP1 REVERT JUMPDEST POP CALLVALUE PUSH2 0x2E0 JUMPI PUSH1 0x20 CALLDATASIZE PUSH1 0x3 NOT ADD SLT PUSH2 0x2E0 JUMPI PUSH2 0x73A PUSH2 0xB72 PUSH2 0x2761 JUMP JUMPDEST PUSH2 0xB7A PUSH2 0x27B0 JUMP JUMPDEST PUSH2 0xB8E PUSH1 0x1 PUSH1 0x1 PUSH1 0xA0 SHL SUB DUP3 AND ISZERO ISZERO PUSH2 0x2C2D JUMP JUMPDEST PUSH2 0x28C0 JUMP JUMPDEST POP CALLVALUE PUSH2 0x2E0 JUMPI PUSH1 0x20 CALLDATASIZE PUSH1 0x3 NOT ADD SLT PUSH2 0x2E0 JUMPI PUSH2 0x73A PUSH2 0xBB0 PUSH2 0x2761 JUMP JUMPDEST PUSH2 0xBB8 PUSH2 0x27B0 JUMP JUMPDEST PUSH2 0xBCC PUSH1 0x1 PUSH1 0x1 PUSH1 0xA0 SHL SUB DUP3 AND ISZERO ISZERO PUSH2 0x2C2D JUMP JUMPDEST PUSH2 0x29A3 JUMP JUMPDEST POP CALLVALUE PUSH2 0x2E0 JUMPI DUP1 PUSH1 0x3 NOT CALLDATASIZE ADD SLT PUSH2 0x2E0 JUMPI PUSH1 0x20 SWAP1 PUSH1 0x40 MLOAD SWAP1 DUP2 MSTORE RETURN JUMPDEST POP CALLVALUE PUSH2 0x2E0 JUMPI PUSH1 0x40 CALLDATASIZE PUSH1 0x3 NOT ADD SLT PUSH2 0x2E0 JUMPI PUSH1 0x40 PUSH2 0xC09 PUSH2 0x2777 JUMP JUMPDEST SWAP2 PUSH1 0x4 CALLDATALOAD DUP2 MSTORE DUP1 PUSH1 0x20 MSTORE KECCAK256 SWAP1 PUSH1 0x1 DUP1 PUSH1 0xA0 SHL SUB AND PUSH1 0x0 MSTORE PUSH1 0x20 MSTORE PUSH1 0x20 PUSH1 0xFF PUSH1 0x40 PUSH1 0x0 KECCAK256 SLOAD AND PUSH1 0x40 MLOAD SWAP1 ISZERO ISZERO DUP2 MSTORE RETURN JUMPDEST POP CALLVALUE PUSH2 0x2E0 JUMPI PUSH1 0x20 CALLDATASIZE PUSH1 0x3 NOT ADD SLT PUSH2 0x2E0 JUMPI PUSH1 0x20 SWAP1 PUSH1 0x40 SWAP1 PUSH1 0x1 PUSH1 0x1 PUSH1 0xA0 SHL SUB PUSH2 0xC60 PUSH2 0x2761 JUMP JUMPDEST AND DUP2 MSTORE PUSH1 0x16 DUP4 MSTORE KECCAK256 SLOAD PUSH1 0x40 MLOAD SWAP1 DUP2 MSTORE RETURN JUMPDEST POP CALLVALUE PUSH2 0x2E0 JUMPI DUP1 PUSH1 0x3 NOT CALLDATASIZE ADD SLT PUSH2 0x2E0 JUMPI PUSH1 0x20 PUSH1 0xFF PUSH1 0x11 SLOAD AND PUSH2 0xC97 PUSH1 0x40 MLOAD DUP1 SWAP3 PUSH2 0x278D JUMP JUMPDEST RETURN JUMPDEST POP CALLVALUE PUSH2 0x2E0 JUMPI DUP1 PUSH1 0x3 NOT CALLDATASIZE ADD SLT PUSH2 0x2E0 JUMPI PUSH1 0x20 PUSH1 0x4 SLOAD PUSH1 0x40 MLOAD SWAP1 DUP2 MSTORE RETURN JUMPDEST POP CALLVALUE PUSH2 0x2E0 JUMPI DUP1 PUSH1 0x3 NOT CALLDATASIZE ADD SLT PUSH2 0x2E0 JUMPI PUSH1 0x20 PUSH1 0x40 MLOAD PUSH1 0x0 DUP1 MLOAD PUSH1 0x20 PUSH2 0x2D09 DUP4 CODECOPY DUP2 MLOAD SWAP2 MSTORE DUP2 MSTORE RETURN JUMPDEST POP CALLVALUE PUSH2 0x2E0 JUMPI PUSH1 0x20 CALLDATASIZE PUSH1 0x3 NOT ADD SLT PUSH2 0x2E0 JUMPI PUSH2 0xCFA PUSH2 0x2761 JUMP JUMPDEST PUSH2 0xD02 PUSH2 0x27B0 JUMP JUMPDEST PUSH1 0x1 PUSH1 0x1 PUSH1 0xA0 SHL SUB SWAP1 DUP2 AND DUP1 DUP4 MSTORE PUSH1 0x17 PUSH1 0x20 MSTORE PUSH1 0x40 DUP4 KECCAK256 SLOAD SWAP1 SWAP2 AND ISZERO PUSH2 0xD58 JUMPI DUP1 DUP3 MSTORE PUSH1 0x17 PUSH1 0x20 SWAP1 DUP2 MSTORE PUSH1 0x40 DUP1 DUP5 KECCAK256 DUP1 SLOAD PUSH1 0x1 PUSH1 0x1 PUSH1 0xA0 SHL SUB NOT AND SWAP1 SSTORE MLOAD DUP4 DUP2 MSTORE PUSH1 0x0 DUP1 MLOAD PUSH1 0x20 PUSH2 0x2CC9 DUP4 CODECOPY DUP2 MLOAD SWAP2 MSTORE SWAP2 SWAP1 LOG2 DUP1 RETURN JUMPDEST PUSH1 0x40 MLOAD PUSH3 0x461BCD PUSH1 0xE5 SHL DUP2 MSTORE PUSH1 0x20 PUSH1 0x4 DUP3 ADD MSTORE PUSH1 0x13 PUSH1 0x24 DUP3 ADD MSTORE PUSH19 0x4E6F206F7261636C6520746F2072656D6F7665 PUSH1 0x68 SHL PUSH1 0x44 DUP3 ADD MSTORE PUSH1 0x64 SWAP1 REVERT JUMPDEST POP CALLVALUE PUSH2 0x2E0 JUMPI DUP1 PUSH1 0x3 NOT CALLDATASIZE ADD SLT PUSH2 0x2E0 JUMPI PUSH2 0xDAC PUSH2 0x27B0 JUMP JUMPDEST PUSH2 0xDB4 PUSH2 0x2ABE JUMP JUMPDEST PUSH1 0x1 PUSH1 0xFF NOT DUP2 SLOAD AND OR PUSH1 0x1 SSTORE PUSH1 0x20 PUSH1 0x40 MLOAD CALLER DUP2 MSTORE PUSH32 0x62E78CEA01BEE320CD4E420270B5EA74000D11B0C9F74754EBDBFC544B05A258 SWAP2 DUP3 SWAP2 LOG1 PUSH1 0x20 PUSH1 0x40 MLOAD CALLER DUP2 MSTORE LOG1 DUP1 RETURN JUMPDEST POP CALLVALUE PUSH2 0x2E0 JUMPI DUP1 PUSH1 0x3 NOT CALLDATASIZE ADD SLT PUSH2 0x2E0 JUMPI PUSH1 0x20 PUSH1 0x13 SLOAD PUSH1 0x40 MLOAD SWAP1 DUP2 MSTORE RETURN JUMPDEST POP CALLVALUE PUSH2 0x2E0 JUMPI PUSH1 0x20 DUP1 PUSH1 0x3 NOT CALLDATASIZE ADD SLT PUSH2 0x104B JUMPI PUSH2 0xE32 PUSH2 0x2761 JUMP JUMPDEST SWAP1 PUSH2 0xE3B PUSH2 0x27F6 JUMP JUMPDEST PUSH2 0xE43 PUSH2 0x2BC3 JUMP JUMPDEST PUSH1 0x8 SLOAD TIMESTAMP GT ISZERO PUSH2 0x1019 JUMPI PUSH1 0x1 PUSH1 0x1 PUSH1 0xA0 SHL SUB DUP3 DUP2 AND SWAP3 SWAP1 DUP4 ISZERO PUSH2 0xFE2 JUMPI PUSH1 0x3 SLOAD AND PUSH1 0x40 MLOAD PUSH4 0x70A08231 PUSH1 0xE0 SHL DUP2 MSTORE ADDRESS PUSH1 0x4 DUP3 ADD MSTORE DUP4 DUP2 PUSH1 0x24 DUP2 DUP6 GAS STATICCALL DUP1 ISZERO PUSH2 0xFD7 JUMPI DUP7 SWAP1 PUSH2 0xFA8 JUMPI JUMPDEST PUSH2 0xE9A SWAP2 POP PUSH1 0xC SLOAD SWAP1 PUSH2 0x2C20 JUMP JUMPDEST SWAP2 DUP3 ISZERO PUSH2 0xF6D JUMPI DUP3 PUSH2 0xEC5 SWAP3 DUP6 SWAP3 DUP9 PUSH1 0x40 MLOAD DUP1 SWAP7 DUP2 SWAP6 DUP3 SWAP5 PUSH4 0xA9059CBB PUSH1 0xE0 SHL DUP5 MSTORE PUSH1 0x4 DUP5 ADD PUSH2 0x2B7E JUMP JUMPDEST SUB SWAP3 GAS CALL SWAP1 DUP2 ISZERO PUSH2 0xF62 JUMPI DUP6 SWAP2 PUSH2 0xF45 JUMPI JUMPDEST POP ISZERO PUSH2 0xF0F JUMPI SWAP1 PUSH32 0xFCBF6553B2CFC097C2301F1C071469A8839B462E7287E3692F238CCFC6B9208F SWAP2 PUSH1 0x40 MLOAD SWAP1 DUP2 MSTORE LOG2 PUSH1 0x1 PUSH1 0x2 SSTORE DUP1 RETURN JUMPDEST PUSH1 0x40 MLOAD PUSH3 0x461BCD PUSH1 0xE5 SHL DUP2 MSTORE PUSH1 0x4 DUP2 ADD DUP4 SWAP1 MSTORE PUSH1 0xE PUSH1 0x24 DUP3 ADD MSTORE PUSH14 0x149958DB185A5B4819985A5B1959 PUSH1 0x92 SHL PUSH1 0x44 DUP3 ADD MSTORE PUSH1 0x64 SWAP1 REVERT JUMPDEST PUSH2 0xF5C SWAP2 POP DUP4 RETURNDATASIZE DUP6 GT PUSH2 0x4E3 JUMPI PUSH2 0x4D4 DUP2 DUP4 PUSH2 0x273E JUMP JUMPDEST CODESIZE PUSH2 0xED7 JUMP JUMPDEST PUSH1 0x40 MLOAD RETURNDATASIZE DUP8 DUP3 RETURNDATACOPY RETURNDATASIZE SWAP1 REVERT JUMPDEST PUSH1 0x40 MLOAD PUSH3 0x461BCD PUSH1 0xE5 SHL DUP2 MSTORE PUSH1 0x4 DUP2 ADD DUP6 SWAP1 MSTORE PUSH1 0x13 PUSH1 0x24 DUP3 ADD MSTORE PUSH19 0x4E6F20756E636C61696D656420746F6B656E73 PUSH1 0x68 SHL PUSH1 0x44 DUP3 ADD MSTORE PUSH1 0x64 SWAP1 REVERT JUMPDEST POP DUP4 DUP2 DUP2 RETURNDATASIZE DUP4 GT PUSH2 0xFD0 JUMPI JUMPDEST PUSH2 0xFBE DUP2 DUP4 PUSH2 0x273E JUMP JUMPDEST DUP2 ADD SUB SLT PUSH2 0x5C4 JUMPI PUSH2 0xE9A SWAP1 MLOAD PUSH2 0xE8C JUMP JUMPDEST POP RETURNDATASIZE PUSH2 0xFB4 JUMP JUMPDEST PUSH1 0x40 MLOAD RETURNDATASIZE DUP9 DUP3 RETURNDATACOPY RETURNDATASIZE SWAP1 REVERT JUMPDEST PUSH1 0x40 MLOAD PUSH3 0x461BCD PUSH1 0xE5 SHL DUP2 MSTORE PUSH1 0x4 DUP2 ADD DUP5 SWAP1 MSTORE PUSH1 0xF PUSH1 0x24 DUP3 ADD MSTORE PUSH15 0x496E76616C69642061646472657373 PUSH1 0x88 SHL PUSH1 0x44 DUP3 ADD MSTORE PUSH1 0x64 SWAP1 REVERT JUMPDEST PUSH1 0x64 SWAP1 PUSH1 0x40 MLOAD SWAP1 PUSH3 0x461BCD PUSH1 0xE5 SHL DUP3 MSTORE PUSH1 0x4 DUP3 ADD MSTORE PUSH1 0xB PUSH1 0x24 DUP3 ADD MSTORE PUSH11 0x139BDD081B585D1D5C9959 PUSH1 0xAA SHL PUSH1 0x44 DUP3 ADD MSTORE REVERT JUMPDEST POP DUP1 REVERT JUMPDEST POP CALLVALUE PUSH2 0x2E0 JUMPI PUSH1 0x40 CALLDATASIZE PUSH1 0x3 NOT ADD SLT PUSH2 0x2E0 JUMPI PUSH2 0x1069 PUSH2 0x2761 JUMP JUMPDEST PUSH2 0x1071 PUSH2 0x2777 JUMP JUMPDEST PUSH2 0x1079 PUSH2 0x27B0 JUMP JUMPDEST PUSH1 0x1 PUSH1 0x1 PUSH1 0xA0 SHL SUB SWAP1 DUP2 AND SWAP2 DUP3 ISZERO PUSH2 0x10C6 JUMPI AND DUP1 DUP4 MSTORE PUSH1 0x17 PUSH1 0x20 SWAP1 DUP2 MSTORE PUSH1 0x40 DUP1 DUP6 KECCAK256 DUP1 SLOAD PUSH1 0x1 PUSH1 0x1 PUSH1 0xA0 SHL SUB NOT AND DUP6 OR SWAP1 SSTORE MLOAD SWAP3 DUP4 MSTORE SWAP1 SWAP2 PUSH1 0x0 DUP1 MLOAD PUSH1 0x20 PUSH2 0x2CC9 DUP4 CODECOPY DUP2 MLOAD SWAP2 MSTORE SWAP2 SWAP1 LOG2 DUP1 RETURN JUMPDEST PUSH1 0x40 MLOAD PUSH3 0x461BCD PUSH1 0xE5 SHL DUP2 MSTORE PUSH1 0x20 PUSH1 0x4 DUP3 ADD MSTORE PUSH1 0x16 PUSH1 0x24 DUP3 ADD MSTORE PUSH22 0x496E76616C6964206F7261636C652061646472657373 PUSH1 0x50 SHL PUSH1 0x44 DUP3 ADD MSTORE PUSH1 0x64 SWAP1 REVERT JUMPDEST POP CALLVALUE PUSH2 0x2E0 JUMPI PUSH1 0x20 CALLDATASIZE PUSH1 0x3 NOT ADD SLT PUSH2 0x2E0 JUMPI PUSH32 0x6B361C807733CC94A3B7BDA39C1C94DCC0511E91AA47B0F7F918068E93976890 PUSH1 0x20 PUSH1 0x4 CALLDATALOAD PUSH2 0x1144 PUSH2 0x27F6 JUMP JUMPDEST PUSH2 0x114F DUP2 ISZERO ISZERO PUSH2 0x2BE4 JUMP JUMPDEST DUP1 PUSH1 0x13 SSTORE PUSH1 0x40 MLOAD SWAP1 DUP2 MSTORE LOG1 DUP1 RETURN JUMPDEST POP PUSH1 0x60 CALLDATASIZE PUSH1 0x3 NOT ADD SLT PUSH2 0x2E0 JUMPI PUSH2 0x1172 PUSH2 0x2761 JUMP JUMPDEST SWAP1 PUSH2 0x117B PUSH2 0x2777 JUMP JUMPDEST SWAP2 PUSH2 0x1184 PUSH2 0x2BC3 JUMP JUMPDEST PUSH2 0x118C PUSH2 0x2ABE JUMP JUMPDEST PUSH1 0xE SLOAD PUSH1 0x1 PUSH1 0x1 PUSH1 0xA0 SHL SUB AND CALLER SUB PUSH2 0x646 JUMPI PUSH1 0x1 PUSH1 0x1 PUSH1 0xA0 SHL SUB DUP4 AND ISZERO PUSH2 0x1C01 JUMPI PUSH1 0xFF PUSH1 0xD SLOAD AND PUSH2 0x1BCB JUMPI PUSH1 0x6 SLOAD TIMESTAMP LT PUSH2 0x1B93 JUMPI PUSH1 0x7 SLOAD TIMESTAMP LT ISZERO PUSH2 0x1B61 JUMPI PUSH1 0x1 PUSH1 0x1 PUSH1 0xA0 SHL SUB DUP2 AND DUP3 MSTORE PUSH1 0x14 PUSH1 0x20 MSTORE PUSH1 0x40 DUP3 KECCAK256 SLOAD PUSH1 0xFF AND ISZERO PUSH2 0x1B24 JUMPI PUSH1 0x44 CALLDATALOAD ISZERO PUSH2 0x1AF1 JUMPI PUSH1 0x1 PUSH1 0x1 PUSH1 0xA0 SHL SUB DUP2 DUP2 AND DUP4 MSTORE PUSH1 0x17 PUSH1 0x20 MSTORE PUSH1 0x40 DUP4 KECCAK256 SLOAD AND DUP1 ISZERO PUSH2 0x1ABB JUMPI PUSH1 0x40 DUP1 MLOAD PUSH4 0x15F789A9 PUSH1 0xE2 SHL DUP2 MSTORE SWAP2 DUP3 SWAP1 PUSH1 0x4 SWAP1 DUP3 SWAP1 GAS STATICCALL SWAP1 DUP2 ISZERO PUSH2 0x1AB0 JUMPI DUP4 SWAP2 PUSH2 0x1A62 JUMPI JUMPDEST POP PUSH1 0x1B SIGNEXTEND SWAP2 PUSH2 0x1244 DUP2 DUP5 SGT PUSH2 0x2BE4 JUMP JUMPDEST PUSH1 0x1 PUSH1 0x1 PUSH1 0xA0 SHL SUB DUP3 AND PUSH2 0x19F2 JUMPI PUSH1 0x12 SWAP3 JUMPDEST DUP1 PUSH1 0x44 CALLDATALOAD MUL SWAP1 PUSH1 0x44 CALLDATALOAD DUP3 DIV SUB PUSH2 0x19DE JUMPI PUSH8 0xDE0B6B3A7640000 SWAP4 DUP5 DUP3 MUL SWAP2 DUP1 DUP4 DIV DUP7 EQ SWAP1 ISZERO OR ISZERO PUSH2 0x191D JUMPI PUSH1 0xFF AND PUSH1 0x4D DUP2 GT PUSH2 0x191D JUMPI DUP5 SWAP2 PUSH2 0x129B SWAP2 PUSH1 0xA EXP SWAP1 PUSH2 0x2AFF JUMP JUMPDEST DIV PUSH1 0x4 SLOAD DUP2 LT PUSH2 0x19A2 JUMPI PUSH1 0x1 PUSH1 0x1 PUSH1 0xA0 SHL SUB DUP6 AND DUP3 MSTORE PUSH1 0x16 PUSH1 0x20 MSTORE PUSH1 0x40 DUP3 KECCAK256 SLOAD PUSH2 0x12C6 SWAP1 DUP3 SWAP1 PUSH2 0x2ADC JUMP JUMPDEST PUSH1 0x5 SLOAD LT PUSH2 0x1964 JUMPI PUSH1 0xB SLOAD SWAP4 PUSH2 0x12DC DUP3 DUP7 PUSH2 0x2ADC JUMP JUMPDEST PUSH1 0xA SLOAD LT PUSH2 0x1931 JUMPI DUP1 DUP3 MUL SWAP1 DUP3 DUP3 DIV EQ DUP3 ISZERO OR ISZERO PUSH2 0x191D JUMPI PUSH1 0x13 SLOAD PUSH2 0x1300 SWAP2 PUSH2 0x2AFF JUMP JUMPDEST SWAP4 DUP5 ISZERO PUSH2 0x18E1 JUMPI DUP2 PUSH2 0x1311 SWAP2 PUSH2 0x2ADC JUMP JUMPDEST PUSH1 0xB SSTORE PUSH1 0x1 PUSH1 0x1 PUSH1 0xA0 SHL SUB DUP6 AND DUP3 MSTORE PUSH1 0x16 PUSH1 0x20 MSTORE PUSH1 0x40 DUP3 KECCAK256 DUP1 SLOAD SWAP1 SWAP2 PUSH2 0x1336 SWAP2 PUSH2 0x2ADC JUMP JUMPDEST SWAP1 SSTORE PUSH1 0xFF PUSH1 0x9 SLOAD AND PUSH2 0x185F JUMPI JUMPDEST PUSH1 0x1 PUSH1 0x1 PUSH1 0xA0 SHL SUB DUP3 AND PUSH2 0x16C4 JUMPI PUSH1 0x44 CALLDATALOAD CALLVALUE SUB PUSH2 0x1685 JUMPI PUSH1 0x12 SLOAD PUSH1 0x1 PUSH1 0x1 PUSH1 0xA0 SHL SUB AND DUP1 EXTCODESIZE ISZERO PUSH2 0x104B JUMPI PUSH1 0x40 MLOAD PUSH4 0x701BB891 PUSH1 0xE0 SHL DUP2 MSTORE ADDRESS PUSH1 0x4 DUP3 ADD MSTORE PUSH1 0x1 PUSH1 0x1 PUSH1 0xA0 SHL SUB DUP7 AND PUSH1 0x24 DUP3 ADD MSTORE SWAP1 DUP3 SWAP1 DUP3 SWAP1 PUSH1 0x44 SWAP1 DUP3 SWAP1 CALLVALUE SWAP1 GAS CALL DUP1 ISZERO PUSH2 0x4AE JUMPI SWAP1 DUP3 SWAP2 PUSH2 0x1671 JUMPI JUMPDEST POP POP JUMPDEST PUSH1 0x9 SLOAD PUSH1 0xFF AND ISZERO PUSH2 0x1629 JUMPI PUSH1 0xD SLOAD PUSH1 0x8 SHR PUSH1 0xFF AND ISZERO PUSH2 0x156E JUMPI PUSH1 0x3 SLOAD PUSH1 0xD SLOAD PUSH1 0x40 MLOAD PUSH4 0x95EA7B3 PUSH1 0xE0 SHL DUP2 MSTORE SWAP2 PUSH1 0x20 SWAP2 DUP4 SWAP2 PUSH1 0x1 PUSH1 0x1 PUSH1 0xA0 SHL SUB SWAP1 DUP2 AND SWAP2 DUP4 SWAP2 DUP8 SWAP2 DUP4 SWAP2 PUSH2 0x1408 SWAP2 DUP13 SWAP2 PUSH1 0x10 SWAP2 SWAP1 SWAP2 SHR AND PUSH1 0x4 DUP5 ADD PUSH2 0x2B7E JUMP JUMPDEST SUB SWAP3 GAS CALL SWAP1 DUP2 ISZERO PUSH2 0x4AE JUMPI DUP3 SWAP2 PUSH2 0x154F JUMPI JUMPDEST POP ISZERO PUSH2 0x1519 JUMPI PUSH1 0x1 DUP1 PUSH1 0xA0 SHL SUB PUSH1 0xD SLOAD PUSH1 0x10 SHR AND PUSH1 0xFF PUSH1 0x11 SLOAD AND DUP2 EXTCODESIZE ISZERO PUSH2 0x1515 JUMPI PUSH2 0x1460 DUP4 SWAP3 DUP4 SWAP3 PUSH1 0x40 MLOAD SWAP5 DUP6 DUP1 SWAP5 DUP2 SWAP4 PUSH4 0x48E8A949 PUSH1 0xE0 SHL DUP4 MSTORE DUP12 DUP14 PUSH1 0x4 DUP6 ADD PUSH2 0x2B99 JUMP JUMPDEST SUB SWAP3 GAS CALL DUP1 ISZERO PUSH2 0x4AE JUMPI PUSH2 0x1501 JUMPI JUMPDEST POP POP PUSH1 0x0 DUP1 MLOAD PUSH1 0x20 PUSH2 0x2CA9 DUP4 CODECOPY DUP2 MLOAD SWAP2 MSTORE PUSH1 0x60 PUSH1 0x20 SWAP5 JUMPDEST PUSH1 0x40 DUP1 MLOAD PUSH1 0x1 PUSH1 0x1 PUSH1 0xA0 SHL SUB SWAP6 DUP7 AND DUP2 MSTORE PUSH1 0x44 CALLDATALOAD DUP9 DUP3 ADD MSTORE SWAP1 DUP2 ADD DUP7 SWAP1 MSTORE SWAP4 AND SWAP3 LOG2 PUSH1 0xB SLOAD PUSH1 0xA SLOAD DUP2 LT ISZERO PUSH2 0x14C4 JUMPI JUMPDEST POP PUSH1 0x1 PUSH1 0x2 SSTORE PUSH1 0x40 MLOAD SWAP1 DUP2 MSTORE RETURN JUMPDEST DUP3 PUSH32 0xCB67F20F64495B30F15524C55F90201DD6571D6B5C19DAC183D2AEB25315B2DC SWAP2 PUSH1 0x1 PUSH1 0xFF NOT PUSH1 0xD SLOAD AND OR PUSH1 0xD SSTORE PUSH1 0x40 MLOAD SWAP1 DUP2 MSTORE LOG1 CODESIZE PUSH2 0x14B6 JUMP JUMPDEST PUSH2 0x150B DUP3 SWAP2 PUSH2 0x2715 JUMP JUMPDEST PUSH2 0x2E0 JUMPI DUP1 PUSH2 0x146F JUMP JUMPDEST DUP3 DUP1 REVERT JUMPDEST PUSH1 0x40 MLOAD PUSH3 0x461BCD PUSH1 0xE5 SHL DUP2 MSTORE PUSH1 0x20 PUSH1 0x4 DUP3 ADD MSTORE PUSH1 0xE PUSH1 0x24 DUP3 ADD MSTORE PUSH14 0x105C1C1C9BDD994819985A5B1959 PUSH1 0x92 SHL PUSH1 0x44 DUP3 ADD MSTORE PUSH1 0x64 SWAP1 REVERT JUMPDEST PUSH2 0x1568 SWAP2 POP PUSH1 0x20 RETURNDATASIZE PUSH1 0x20 GT PUSH2 0x4E3 JUMPI PUSH2 0x4D4 DUP2 DUP4 PUSH2 0x273E JUMP JUMPDEST CODESIZE PUSH2 0x141A JUMP JUMPDEST PUSH1 0x3 SLOAD PUSH1 0x40 MLOAD PUSH4 0xA9059CBB PUSH1 0xE0 SHL DUP2 MSTORE SWAP1 PUSH1 0x20 SWAP1 DUP3 SWAP1 PUSH1 0x1 PUSH1 0x1 PUSH1 0xA0 SHL SUB AND DUP2 DUP6 DUP2 PUSH2 0x159E DUP11 DUP13 PUSH1 0x4 DUP5 ADD PUSH2 0x2B7E JUMP JUMPDEST SUB SWAP3 GAS CALL SWAP2 DUP3 ISZERO PUSH2 0x58E JUMPI SWAP2 PUSH2 0x160A JUMPI JUMPDEST POP ISZERO PUSH2 0x15CE JUMPI PUSH1 0x0 DUP1 MLOAD PUSH1 0x20 PUSH2 0x2CA9 DUP4 CODECOPY DUP2 MLOAD SWAP2 MSTORE PUSH1 0x60 PUSH1 0x20 SWAP5 PUSH2 0x1486 JUMP JUMPDEST PUSH1 0x40 MLOAD PUSH3 0x461BCD PUSH1 0xE5 SHL DUP2 MSTORE PUSH1 0x20 PUSH1 0x4 DUP3 ADD MSTORE PUSH1 0x14 PUSH1 0x24 DUP3 ADD MSTORE PUSH20 0x105D5D1BCB5D1C985B9CD9995C8819985A5B1959 PUSH1 0x62 SHL PUSH1 0x44 DUP3 ADD MSTORE PUSH1 0x64 SWAP1 REVERT JUMPDEST PUSH2 0x1623 SWAP2 POP PUSH1 0x20 RETURNDATASIZE PUSH1 0x20 GT PUSH2 0x4E3 JUMPI PUSH2 0x4D4 DUP2 DUP4 PUSH2 0x273E JUMP JUMPDEST CODESIZE PUSH2 0x15AF JUMP JUMPDEST PUSH1 0x60 PUSH1 0x20 SWAP5 PUSH1 0x40 PUSH1 0x0 DUP1 MLOAD PUSH1 0x20 PUSH2 0x2CA9 DUP4 CODECOPY DUP2 MLOAD SWAP2 MSTORE SWAP4 PUSH1 0x1 DUP1 PUSH1 0xA0 SHL SUB DUP4 AND DUP2 MSTORE PUSH1 0x15 DUP9 MSTORE KECCAK256 PUSH2 0x165B DUP7 DUP3 SLOAD PUSH2 0x2ADC JUMP JUMPDEST SWAP1 SSTORE PUSH2 0x1669 DUP6 PUSH1 0xC SLOAD PUSH2 0x2ADC JUMP JUMPDEST PUSH1 0xC SSTORE PUSH2 0x1486 JUMP JUMPDEST PUSH2 0x167A SWAP1 PUSH2 0x2715 JUMP JUMPDEST PUSH2 0x2E0 JUMPI DUP1 CODESIZE PUSH2 0x13AB JUMP JUMPDEST PUSH1 0x40 MLOAD PUSH3 0x461BCD PUSH1 0xE5 SHL DUP2 MSTORE PUSH1 0x20 PUSH1 0x4 DUP3 ADD MSTORE PUSH1 0x17 PUSH1 0x24 DUP3 ADD MSTORE PUSH23 0x125B98DBDC9C9958DD081B985D1A5D9948185B5BDD5B9D PUSH1 0x4A SHL PUSH1 0x44 DUP3 ADD MSTORE PUSH1 0x64 SWAP1 REVERT JUMPDEST CALLVALUE PUSH2 0x1810 JUMPI PUSH1 0x40 MLOAD PUSH4 0x23B872DD PUSH1 0xE0 SHL DUP2 MSTORE PUSH1 0x1 PUSH1 0x1 PUSH1 0xA0 SHL SUB DUP6 DUP2 AND PUSH1 0x4 DUP4 ADD MSTORE ADDRESS PUSH1 0x24 DUP4 ADD MSTORE PUSH1 0x44 DUP1 CALLDATALOAD SWAP1 DUP4 ADD MSTORE PUSH1 0x20 SWAP1 DUP3 SWAP1 PUSH1 0x64 SWAP1 DUP3 SWAP1 DUP7 SWAP1 DUP9 AND GAS CALL DUP1 ISZERO PUSH2 0x4AE JUMPI PUSH2 0x17F1 JUMPI JUMPDEST POP PUSH1 0x12 SLOAD PUSH1 0x40 MLOAD PUSH4 0x95EA7B3 PUSH1 0xE0 SHL DUP2 MSTORE SWAP1 PUSH1 0x20 SWAP1 DUP3 SWAP1 DUP2 SWAP1 PUSH2 0x1742 SWAP1 PUSH1 0x44 CALLDATALOAD SWAP1 PUSH1 0x1 PUSH1 0x1 PUSH1 0xA0 SHL SUB AND PUSH1 0x4 DUP5 ADD PUSH2 0x2B7E JUMP JUMPDEST SUB DUP2 DUP6 PUSH1 0x1 PUSH1 0x1 PUSH1 0xA0 SHL SUB DUP9 AND GAS CALL DUP1 ISZERO PUSH2 0x4AE JUMPI PUSH2 0x17D2 JUMPI JUMPDEST POP PUSH1 0x12 SLOAD PUSH1 0x1 PUSH1 0x1 PUSH1 0xA0 SHL SUB AND DUP1 EXTCODESIZE ISZERO PUSH2 0x104B JUMPI PUSH1 0x40 MLOAD PUSH4 0xEF7C5A7 PUSH1 0xE0 SHL DUP2 MSTORE ADDRESS PUSH1 0x4 DUP3 ADD MSTORE PUSH1 0x1 PUSH1 0x1 PUSH1 0xA0 SHL SUB DUP7 DUP2 AND PUSH1 0x24 DUP4 ADD MSTORE DUP5 AND PUSH1 0x44 DUP1 DUP4 ADD SWAP2 SWAP1 SWAP2 MSTORE CALLDATALOAD PUSH1 0x64 DUP3 ADD MSTORE SWAP1 DUP3 SWAP1 DUP3 SWAP1 PUSH1 0x84 SWAP1 DUP3 SWAP1 DUP5 SWAP1 GAS CALL DUP1 ISZERO PUSH2 0x4AE JUMPI PUSH2 0x17C3 JUMPI JUMPDEST POP PUSH2 0x13AE JUMP JUMPDEST PUSH2 0x17CC SWAP1 PUSH2 0x2715 JUMP JUMPDEST CODESIZE PUSH2 0x17BD JUMP JUMPDEST PUSH2 0x17EA SWAP1 PUSH1 0x20 RETURNDATASIZE PUSH1 0x20 GT PUSH2 0x4E3 JUMPI PUSH2 0x4D4 DUP2 DUP4 PUSH2 0x273E JUMP JUMPDEST POP CODESIZE PUSH2 0x175C JUMP JUMPDEST PUSH2 0x1809 SWAP1 PUSH1 0x20 RETURNDATASIZE PUSH1 0x20 GT PUSH2 0x4E3 JUMPI PUSH2 0x4D4 DUP2 DUP4 PUSH2 0x273E JUMP JUMPDEST POP CODESIZE PUSH2 0x170F JUMP JUMPDEST PUSH1 0x40 MLOAD PUSH3 0x461BCD PUSH1 0xE5 SHL DUP2 MSTORE PUSH1 0x20 PUSH1 0x4 DUP3 ADD MSTORE PUSH1 0x21 PUSH1 0x24 DUP3 ADD MSTORE PUSH32 0x446F206E6F742073656E642045544820666F7220746F6B656E207061796D656E PUSH1 0x44 DUP3 ADD MSTORE PUSH1 0x1D PUSH1 0xFA SHL PUSH1 0x64 DUP3 ADD MSTORE PUSH1 0x84 SWAP1 REVERT JUMPDEST PUSH1 0x3 SLOAD PUSH1 0x40 MLOAD PUSH4 0x70A08231 PUSH1 0xE0 SHL DUP2 MSTORE ADDRESS PUSH1 0x4 DUP3 ADD MSTORE SWAP1 PUSH1 0x20 SWAP1 DUP3 SWAP1 PUSH1 0x24 SWAP1 DUP3 SWAP1 PUSH1 0x1 PUSH1 0x1 PUSH1 0xA0 SHL SUB AND GAS STATICCALL DUP1 ISZERO PUSH2 0x4AE JUMPI DUP5 SWAP1 DUP4 SWAP1 PUSH2 0x18AB JUMPI JUMPDEST PUSH2 0x18A6 SWAP3 POP LT ISZERO PUSH2 0x2B1F JUMP JUMPDEST PUSH2 0x1343 JUMP JUMPDEST POP POP PUSH1 0x20 DUP2 RETURNDATASIZE PUSH1 0x20 GT PUSH2 0x18D9 JUMPI JUMPDEST DUP2 PUSH2 0x18C6 PUSH1 0x20 SWAP4 DUP4 PUSH2 0x273E JUMP JUMPDEST DUP2 ADD SUB SLT PUSH2 0x104B JUMPI DUP4 PUSH2 0x18A6 SWAP2 MLOAD PUSH2 0x189A JUMP JUMPDEST RETURNDATASIZE SWAP2 POP PUSH2 0x18B9 JUMP JUMPDEST PUSH1 0x40 MLOAD PUSH3 0x461BCD PUSH1 0xE5 SHL DUP2 MSTORE PUSH1 0x20 PUSH1 0x4 DUP3 ADD MSTORE PUSH1 0x14 PUSH1 0x24 DUP3 ADD MSTORE PUSH20 0x546F6B656E20616D6F756E7420746F6F206C6F77 PUSH1 0x60 SHL PUSH1 0x44 DUP3 ADD MSTORE PUSH1 0x64 SWAP1 REVERT JUMPDEST PUSH4 0x4E487B71 PUSH1 0xE0 SHL DUP4 MSTORE PUSH1 0x11 PUSH1 0x4 MSTORE PUSH1 0x24 DUP4 REVERT JUMPDEST PUSH1 0x40 MLOAD PUSH3 0x461BCD PUSH1 0xE5 SHL DUP2 MSTORE PUSH1 0x20 PUSH1 0x4 DUP3 ADD MSTORE PUSH1 0xB PUSH1 0x24 DUP3 ADD MSTORE PUSH11 0x457863656564732063617 PUSH1 0xAC SHL PUSH1 0x44 DUP3 ADD MSTORE PUSH1 0x64 SWAP1 REVERT JUMPDEST PUSH1 0x40 MLOAD PUSH3 0x461BCD PUSH1 0xE5 SHL DUP2 MSTORE PUSH1 0x20 PUSH1 0x4 DUP3 ADD MSTORE PUSH1 0x16 PUSH1 0x24 DUP3 ADD MSTORE PUSH22 0x115E18D959591CC81B585E081A5B9D995CDD1B595B9D PUSH1 0x52 SHL PUSH1 0x44 DUP3 ADD MSTORE PUSH1 0x64 SWAP1 REVERT JUMPDEST PUSH1 0x40 MLOAD PUSH3 0x461BCD PUSH1 0xE5 SHL DUP2 MSTORE PUSH1 0x20 PUSH1 0x4 DUP3 ADD MSTORE PUSH1 0x14 PUSH1 0x24 DUP3 ADD MSTORE PUSH20 0x10995B1BDDC81B5A5B881A5B9D995CDD1B595B9D PUSH1 0x62 SHL PUSH1 0x44 DUP3 ADD MSTORE PUSH1 0x64 SWAP1 REVERT JUMPDEST PUSH4 0x4E487B71 PUSH1 0xE0 SHL DUP3 MSTORE PUSH1 0x11 PUSH1 0x4 MSTORE PUSH1 0x24 DUP3 REVERT JUMPDEST PUSH1 0x40 MLOAD PUSH4 0x313CE567 PUSH1 0xE0 SHL DUP2 MSTORE PUSH1 0x20 DUP2 PUSH1 0x4 DUP2 PUSH1 0x1 PUSH1 0x1 PUSH1 0xA0 SHL SUB DUP8 AND GAS STATICCALL SWAP1 DUP2 ISZERO PUSH2 0x4AE JUMPI DUP3 SWAP2 PUSH2 0x1A26 JUMPI JUMPDEST POP SWAP3 PUSH2 0x1256 JUMP JUMPDEST SWAP1 POP PUSH1 0x20 DUP2 RETURNDATASIZE PUSH1 0x20 GT PUSH2 0x1A5A JUMPI JUMPDEST DUP2 PUSH2 0x1A41 PUSH1 0x20 SWAP4 DUP4 PUSH2 0x273E JUMP JUMPDEST DUP2 ADD SUB SLT PUSH2 0x104B JUMPI MLOAD PUSH1 0xFF DUP2 AND DUP2 SUB PUSH2 0x104B JUMPI CODESIZE PUSH2 0x1A1F JUMP JUMPDEST RETURNDATASIZE SWAP2 POP PUSH2 0x1A34 JUMP JUMPDEST SWAP1 POP PUSH1 0x40 DUP2 RETURNDATASIZE PUSH1 0x40 GT PUSH2 0x1AA8 JUMPI JUMPDEST DUP2 PUSH2 0x1A7D PUSH1 0x40 SWAP4 DUP4 PUSH2 0x273E JUMP JUMPDEST DUP2 ADD SUB SLT PUSH2 0x1515 JUMPI DUP1 MLOAD SWAP1 DUP2 PUSH1 0x1B SIGNEXTEND DUP3 SUB PUSH2 0x4B9 JUMPI PUSH1 0x20 ADD MLOAD PUSH4 0xFFFFFFFF DUP2 AND SUB PUSH2 0x1515 JUMPI CODESIZE PUSH2 0x1234 JUMP JUMPDEST RETURNDATASIZE SWAP2 POP PUSH2 0x1A70 JUMP JUMPDEST PUSH1 0x40 MLOAD RETURNDATASIZE DUP6 DUP3 RETURNDATACOPY RETURNDATASIZE SWAP1 REVERT JUMPDEST PUSH1 0x40 MLOAD PUSH3 0x461BCD PUSH1 0xE5 SHL DUP2 MSTORE PUSH1 0x20 PUSH1 0x4 DUP3 ADD MSTORE PUSH1 0xE PUSH1 0x24 DUP3 ADD MSTORE PUSH14 0x13DC9858DB19481B9BDD081CD95D PUSH1 0x92 SHL PUSH1 0x44 DUP3 ADD MSTORE PUSH1 0x64 SWAP1 REVERT JUMPDEST PUSH1 0x40 MLOAD PUSH3 0x461BCD PUSH1 0xE5 SHL DUP2 MSTORE PUSH1 0x20 PUSH1 0x4 DUP3 ADD MSTORE PUSH1 0xB PUSH1 0x24 DUP3 ADD MSTORE PUSH11 0x16995C9BC8185B5BDD5B9D PUSH1 0xAA SHL PUSH1 0x44 DUP3 ADD MSTORE PUSH1 0x64 SWAP1 REVERT JUMPDEST PUSH1 0x40 MLOAD PUSH3 0x461BCD PUSH1 0xE5 SHL DUP2 MSTORE PUSH1 0x20 PUSH1 0x4 DUP3 ADD MSTORE PUSH1 0x15 PUSH1 0x24 DUP3 ADD MSTORE PUSH21 0x151BDAD95B881B9BDD081DDA1A5D195B1A5CDD1959 PUSH1 0x5A SHL PUSH1 0x44 DUP3 ADD MSTORE PUSH1 0x64 SWAP1 REVERT JUMPDEST PUSH1 0x40 MLOAD PUSH3 0x461BCD PUSH1 0xE5 SHL DUP2 MSTORE PUSH1 0x20 PUSH1 0x4 DUP3 ADD MSTORE PUSH1 0xA PUSH1 0x24 DUP3 ADD MSTORE PUSH10 0x14D85B1948195B991959 PUSH1 0xB2 SHL PUSH1 0x44 DUP3 ADD MSTORE PUSH1 0x64 SWAP1 REVERT JUMPDEST PUSH1 0x40 MLOAD PUSH3 0x461BCD PUSH1 0xE5 SHL DUP2 MSTORE PUSH1 0x20 PUSH1 0x4 DUP3 ADD MSTORE PUSH1 0x10 PUSH1 0x24 DUP3 ADD MSTORE PUSH16 0x14D85B19481B9BDD081CDD185C9D1959 PUSH1 0x82 SHL PUSH1 0x44 DUP3 ADD MSTORE PUSH1 0x64 SWAP1 REVERT JUMPDEST PUSH1 0x40 MLOAD PUSH3 0x461BCD PUSH1 0xE5 SHL DUP2 MSTORE PUSH1 0x20 PUSH1 0x4 DUP3 ADD MSTORE PUSH1 0xE PUSH1 0x24 DUP3 ADD MSTORE PUSH14 0x14D85B19481A5CC818DB1BDCD959 PUSH1 0x92 SHL PUSH1 0x44 DUP3 ADD MSTORE PUSH1 0x64 SWAP1 REVERT JUMPDEST PUSH1 0x40 MLOAD PUSH3 0x461BCD PUSH1 0xE5 SHL DUP2 MSTORE PUSH1 0x20 PUSH1 0x4 DUP3 ADD MSTORE PUSH1 0x18 PUSH1 0x24 DUP3 ADD MSTORE PUSH24 0x496E76616C696420696E766573746F722061646472657373 PUSH1 0x40 SHL PUSH1 0x44 DUP3 ADD MSTORE PUSH1 0x64 SWAP1 REVERT JUMPDEST POP CALLVALUE PUSH2 0x2E0 JUMPI DUP1 PUSH1 0x3 NOT CALLDATASIZE ADD SLT PUSH2 0x2E0 JUMPI PUSH1 0x11 SLOAD PUSH1 0x40 MLOAD PUSH1 0x10 SWAP2 SWAP1 SWAP2 SHR PUSH1 0x1 PUSH1 0x1 PUSH1 0xA0 SHL SUB AND DUP2 MSTORE PUSH1 0x20 SWAP1 RETURN JUMPDEST POP CALLVALUE PUSH2 0x2E0 JUMPI DUP1 PUSH1 0x3 NOT CALLDATASIZE ADD SLT PUSH2 0x2E0 JUMPI PUSH1 0xF SLOAD PUSH1 0x40 MLOAD PUSH1 0x1 PUSH1 0x1 PUSH1 0xA0 SHL SUB SWAP1 SWAP2 AND DUP2 MSTORE PUSH1 0x20 SWAP1 RETURN JUMPDEST POP CALLVALUE PUSH2 0x2E0 JUMPI DUP1 PUSH1 0x3 NOT CALLDATASIZE ADD SLT PUSH2 0x2E0 JUMPI PUSH1 0x20 PUSH1 0xFF PUSH1 0x1 SLOAD AND PUSH1 0x40 MLOAD SWAP1 ISZERO ISZERO DUP2 MSTORE RETURN JUMPDEST POP CALLVALUE PUSH2 0x2E0 JUMPI DUP1 PUSH1 0x3 NOT CALLDATASIZE ADD SLT PUSH2 0x2E0 JUMPI PUSH1 0x20 PUSH1 0xFF PUSH1 0xD SLOAD PUSH1 0x8 SHR AND PUSH1 0x40 MLOAD SWAP1 ISZERO ISZERO DUP2 MSTORE RETURN JUMPDEST POP CALLVALUE PUSH2 0x2E0 JUMPI DUP1 PUSH1 0x3 NOT CALLDATASIZE ADD SLT PUSH2 0x2E0 JUMPI PUSH1 0xE SLOAD PUSH1 0x40 MLOAD PUSH1 0x1 PUSH1 0x1 PUSH1 0xA0 SHL SUB SWAP1 SWAP2 AND DUP2 MSTORE PUSH1 0x20 SWAP1 RETURN JUMPDEST POP CALLVALUE PUSH2 0x2E0 JUMPI DUP1 PUSH1 0x3 NOT CALLDATASIZE ADD SLT PUSH2 0x2E0 JUMPI PUSH2 0x1D22 PUSH2 0x27B0 JUMP JUMPDEST PUSH1 0x1 SLOAD PUSH1 0xFF DUP2 AND ISZERO PUSH2 0x1D6E JUMPI PUSH1 0xFF NOT AND PUSH1 0x1 SSTORE PUSH1 0x20 PUSH1 0x40 MLOAD CALLER DUP2 MSTORE PUSH32 0x5DB9EE0A495BF2E6FF9C91A7834C1BA4FDD244A5E8AA4E537BD38AEAE4B073AA SWAP2 DUP3 SWAP2 LOG1 PUSH1 0x20 PUSH1 0x40 MLOAD CALLER DUP2 MSTORE LOG1 DUP1 RETURN JUMPDEST PUSH1 0x40 MLOAD PUSH4 0x8DFC202B PUSH1 0xE0 SHL DUP2 MSTORE PUSH1 0x4 SWAP1 REVERT JUMPDEST POP CALLVALUE PUSH2 0x2E0 JUMPI DUP1 PUSH1 0x3 NOT CALLDATASIZE ADD SLT PUSH2 0x2E0 JUMPI PUSH1 0xD SLOAD PUSH1 0x40 MLOAD PUSH1 0x10 SWAP2 SWAP1 SWAP2 SHR PUSH1 0x1 PUSH1 0x1 PUSH1 0xA0 SHL SUB AND DUP2 MSTORE PUSH1 0x20 SWAP1 RETURN JUMPDEST POP CALLVALUE PUSH2 0x2E0 JUMPI PUSH1 0x20 CALLDATASIZE PUSH1 0x3 NOT ADD SLT PUSH2 0x2E0 JUMPI PUSH1 0x4 CALLDATALOAD PUSH2 0x1DCA PUSH2 0x27B0 JUMP JUMPDEST TIMESTAMP DUP2 GT ISZERO PUSH2 0x1E80 JUMPI PUSH1 0x7 SLOAD DUP2 GT ISZERO PUSH2 0x1E30 JUMPI PUSH1 0x8 SLOAD DUP2 LT ISZERO PUSH2 0x1DEC JUMPI PUSH1 0x7 SSTORE DUP1 RETURN JUMPDEST PUSH1 0x64 PUSH1 0x40 MLOAD PUSH3 0x461BCD PUSH1 0xE5 SHL DUP2 MSTORE PUSH1 0x20 PUSH1 0x4 DUP3 ADD MSTORE PUSH1 0x20 PUSH1 0x24 DUP3 ADD MSTORE PUSH32 0x456E642064617465206D757374206265206265666F7265206D61747572697479 PUSH1 0x44 DUP3 ADD MSTORE REVERT JUMPDEST PUSH1 0x40 MLOAD PUSH3 0x461BCD PUSH1 0xE5 SHL DUP2 MSTORE PUSH1 0x20 PUSH1 0x4 DUP3 ADD MSTORE PUSH1 0x22 PUSH1 0x24 DUP3 ADD MSTORE PUSH32 0x4E657720656E642064617465206D757374206265206166746572206375727265 PUSH1 0x44 DUP3 ADD MSTORE PUSH2 0x1B9D PUSH1 0xF2 SHL PUSH1 0x64 DUP3 ADD MSTORE PUSH1 0x84 SWAP1 REVERT JUMPDEST PUSH1 0x40 MLOAD PUSH3 0x461BCD PUSH1 0xE5 SHL DUP2 MSTORE PUSH1 0x20 PUSH1 0x4 DUP3 ADD MSTORE PUSH1 0x10 PUSH1 0x24 DUP3 ADD MSTORE PUSH16 0x496E76616C696420656E642064617465 PUSH1 0x80 SHL PUSH1 0x44 DUP3 ADD MSTORE PUSH1 0x64 SWAP1 REVERT JUMPDEST POP CALLVALUE PUSH2 0x2E0 JUMPI PUSH1 0x40 CALLDATASIZE PUSH1 0x3 NOT ADD SLT PUSH2 0x2E0 JUMPI PUSH2 0x1ED2 PUSH2 0x2777 JUMP JUMPDEST CALLER PUSH1 0x1 PUSH1 0x1 PUSH1 0xA0 SHL SUB DUP3 AND SUB PUSH2 0x1EEE JUMPI PUSH2 0x73A SWAP1 PUSH1 0x4 CALLDATALOAD PUSH2 0x2A18 JUMP JUMPDEST PUSH1 0x40 MLOAD PUSH4 0x334BD919 PUSH1 0xE1 SHL DUP2 MSTORE PUSH1 0x4 SWAP1 REVERT JUMPDEST POP CALLVALUE PUSH2 0x2E0 JUMPI PUSH1 0x40 CALLDATASIZE PUSH1 0x3 NOT ADD SLT PUSH2 0x2E0 JUMPI PUSH2 0x73A PUSH1 0x4 CALLDATALOAD PUSH2 0x1F20 PUSH2 0x2777 JUMP JUMPDEST SWAP1 DUP1 DUP5 MSTORE DUP4 PUSH1 0x20 MSTORE PUSH2 0x1F38 PUSH1 0x1 PUSH1 0x40 DUP7 KECCAK256 ADD SLOAD PUSH2 0x282E JUMP JUMPDEST PUSH2 0x293C JUMP JUMPDEST POP CALLVALUE PUSH2 0x2E0 JUMPI DUP1 PUSH1 0x3 NOT CALLDATASIZE ADD SLT PUSH2 0x2E0 JUMPI PUSH1 0x20 PUSH1 0x10 SLOAD PUSH1 0x40 MLOAD SWAP1 DUP2 MSTORE RETURN JUMPDEST POP CALLVALUE PUSH2 0x2E0 JUMPI PUSH1 0x20 CALLDATASIZE PUSH1 0x3 NOT ADD SLT PUSH2 0x2E0 JUMPI PUSH1 0x1 PUSH1 0x40 PUSH1 0x20 SWAP3 PUSH1 0x4 CALLDATALOAD DUP2 MSTORE DUP1 DUP5 MSTORE KECCAK256 ADD SLOAD PUSH1 0x40 MLOAD SWAP1 DUP2 MSTORE RETURN JUMPDEST POP CALLVALUE PUSH2 0x2E0 JUMPI DUP1 PUSH1 0x3 NOT CALLDATASIZE ADD SLT PUSH2 0x2E0 JUMPI PUSH1 0x20 PUSH1 0xFF PUSH1 0xD SLOAD AND PUSH1 0x40 MLOAD SWAP1 ISZERO ISZERO DUP2 MSTORE RETURN JUMPDEST POP CALLVALUE PUSH2 0x2E0 JUMPI PUSH1 0x40 CALLDATASIZE PUSH1 0x3 NOT ADD SLT PUSH2 0x2E0 JUMPI PUSH2 0x1FC4 PUSH2 0x2761 JUMP JUMPDEST PUSH1 0x24 CALLDATALOAD SWAP1 DUP2 ISZERO ISZERO DUP1 SWAP3 SUB PUSH2 0x1515 JUMPI PUSH1 0x20 PUSH32 0x91AD45A5CE97C5EEE55FA01496772AFEFC7F0757ED9EAC59064E642690509DFB SWAP2 PUSH2 0x1FFE PUSH2 0x27B0 JUMP JUMPDEST PUSH1 0x1 PUSH1 0x1 PUSH1 0xA0 SHL SUB AND DUP1 DUP6 MSTORE PUSH1 0x14 DUP3 MSTORE PUSH1 0x40 DUP1 DUP7 KECCAK256 DUP1 SLOAD PUSH1 0xFF NOT AND PUSH1 0xFF DUP8 AND OR SWAP1 SSTORE MLOAD SWAP4 DUP5 MSTORE SWAP3 LOG2 DUP1 RETURN JUMPDEST POP CALLVALUE PUSH2 0x2E0 JUMPI PUSH2 0x220 SWAP1 DUP2 PUSH1 0x3 NOT CALLDATASIZE ADD SLT PUSH2 0x2E0 JUMPI PUSH1 0x40 MLOAD SWAP2 DUP3 ADD PUSH1 0x1 PUSH1 0x1 PUSH1 0x40 SHL SUB DUP2 GT DUP4 DUP3 LT OR PUSH2 0x2624 JUMPI PUSH1 0x40 MSTORE PUSH2 0x2061 PUSH2 0x2761 JUMP JUMPDEST DUP3 MSTORE PUSH1 0x24 CALLDATALOAD PUSH1 0x20 DUP4 ADD MSTORE PUSH1 0x44 CALLDATALOAD PUSH1 0x40 DUP4 ADD MSTORE PUSH1 0x64 CALLDATALOAD PUSH1 0x60 DUP4 ADD MSTORE PUSH1 0x84 CALLDATALOAD PUSH1 0x80 DUP4 ADD MSTORE PUSH1 0xA4 CALLDATALOAD PUSH1 0xA0 DUP4 ADD MSTORE PUSH1 0xC4 CALLDATALOAD DUP1 ISZERO ISZERO DUP2 SUB PUSH2 0x104B JUMPI PUSH1 0xC0 DUP4 ADD MSTORE PUSH1 0xE4 CALLDATALOAD PUSH1 0xE0 DUP4 ADD MSTORE PUSH2 0x104 CALLDATALOAD PUSH2 0x100 DUP4 ADD MSTORE PUSH2 0x124 CALLDATALOAD PUSH1 0x1 PUSH1 0x1 PUSH1 0xA0 SHL SUB DUP2 AND SWAP1 SUB PUSH2 0x2E0 JUMPI PUSH2 0x124 CALLDATALOAD PUSH2 0x120 DUP4 ADD MSTORE PUSH2 0x144 CALLDATALOAD PUSH1 0x1 PUSH1 0x1 PUSH1 0xA0 SHL SUB DUP2 AND DUP2 SUB PUSH2 0x104B JUMPI PUSH2 0x140 DUP4 ADD MSTORE PUSH2 0x164 CALLDATALOAD ISZERO ISZERO PUSH2 0x164 CALLDATALOAD SUB PUSH2 0x2E0 JUMPI PUSH2 0x164 CALLDATALOAD PUSH2 0x160 DUP4 ADD MSTORE PUSH2 0x184 CALLDATALOAD PUSH1 0x1 PUSH1 0x1 PUSH1 0xA0 SHL SUB DUP2 AND SWAP1 SUB PUSH2 0x2E0 JUMPI PUSH2 0x184 CALLDATALOAD PUSH2 0x180 DUP4 ADD MSTORE PUSH2 0x1A4 CALLDATALOAD PUSH1 0x1 PUSH1 0x1 PUSH1 0xA0 SHL SUB DUP2 AND SWAP1 SUB PUSH2 0x2E0 JUMPI PUSH2 0x1A4 CALLDATALOAD PUSH2 0x1A0 DUP4 ADD MSTORE PUSH2 0x1C4 CALLDATALOAD PUSH1 0x1 PUSH1 0x1 PUSH1 0xA0 SHL SUB DUP2 AND DUP2 SUB PUSH2 0x104B JUMPI PUSH2 0x1C0 DUP4 ADD MSTORE PUSH2 0x1E4 CALLDATALOAD PUSH2 0x1E0 DUP4 ADD MSTORE PUSH1 0x3 PUSH2 0x204 CALLDATALOAD LT ISZERO PUSH2 0x2E0 JUMPI PUSH2 0x204 CALLDATALOAD PUSH2 0x200 DUP4 ADD MSTORE PUSH1 0x11 SLOAD SWAP2 PUSH1 0xFF DUP4 PUSH1 0x8 SHR AND PUSH2 0x25E9 JUMPI DUP1 MLOAD PUSH1 0x1 PUSH1 0x1 PUSH1 0xA0 SHL SUB AND ISZERO PUSH2 0x25AF JUMPI PUSH2 0x120 DUP2 ADD MLOAD PUSH1 0x1 PUSH1 0x1 PUSH1 0xA0 SHL SUB AND ISZERO PUSH2 0x2574 JUMPI PUSH2 0x140 DUP2 ADD MLOAD PUSH1 0x1 PUSH1 0x1 PUSH1 0xA0 SHL SUB AND ISZERO PUSH2 0x2536 JUMPI PUSH2 0x1A0 DUP2 ADD MLOAD PUSH1 0x1 PUSH1 0x1 PUSH1 0xA0 SHL SUB AND ISZERO PUSH2 0x24E6 JUMPI PUSH1 0xE0 DUP2 ADD MLOAD ISZERO PUSH2 0x24A2 JUMPI PUSH2 0x100 DUP2 ADD MLOAD ISZERO PUSH2 0x245E JUMPI PUSH2 0x21F9 PUSH1 0x20 DUP3 ADD MLOAD PUSH1 0x40 DUP4 ADD MLOAD LT ISZERO PUSH2 0x2A7B JUMP JUMPDEST PUSH1 0x60 DUP2 ADD MLOAD TIMESTAMP GT PUSH2 0x241A JUMPI PUSH1 0x60 DUP2 ADD MLOAD PUSH1 0x80 DUP3 ADD MLOAD GT ISZERO PUSH2 0x23CA JUMPI PUSH2 0x1C0 DUP2 ADD MLOAD PUSH1 0x1 PUSH1 0x1 PUSH1 0xA0 SHL SUB AND ISZERO PUSH2 0x2386 JUMPI DUP1 MLOAD PUSH1 0x3 DUP1 SLOAD PUSH1 0x1 PUSH1 0x1 PUSH1 0xA0 SHL SUB NOT SWAP1 DUP2 AND PUSH1 0x1 PUSH1 0x1 PUSH1 0xA0 SHL SUB SWAP4 DUP5 AND OR DUP3 SSTORE PUSH1 0x20 DUP5 ADD MLOAD PUSH1 0x4 SSTORE PUSH1 0x40 DUP5 ADD MLOAD PUSH1 0x5 SSTORE PUSH1 0x60 DUP5 ADD MLOAD PUSH1 0x6 SSTORE PUSH1 0x80 DUP5 ADD MLOAD PUSH1 0x7 SSTORE PUSH1 0xA0 DUP5 ADD MLOAD PUSH1 0x8 SWAP1 DUP2 SSTORE PUSH1 0xC0 DUP6 ADD MLOAD PUSH1 0x9 DUP1 SLOAD PUSH1 0xFF SWAP3 ISZERO ISZERO SWAP3 SWAP1 SWAP3 AND PUSH1 0xFF NOT SWAP3 DUP4 AND OR SWAP1 SSTORE PUSH1 0xE0 DUP7 ADD MLOAD PUSH1 0xA SSTORE PUSH2 0x100 DUP7 ADD MLOAD PUSH1 0x13 SSTORE PUSH2 0x140 DUP7 ADD MLOAD PUSH1 0x12 DUP1 SLOAD DUP6 AND SWAP2 DUP8 AND SWAP2 SWAP1 SWAP2 OR SWAP1 SSTORE PUSH2 0x160 DUP7 ADD MLOAD PUSH1 0xD DUP1 SLOAD PUSH2 0x180 DUP10 ADD MLOAD PUSH2 0x100 PUSH1 0x1 PUSH1 0xB0 SHL SUB NOT SWAP1 SWAP2 AND SWAP3 ISZERO ISZERO SWAP1 SWAP5 SHL PUSH2 0xFF00 AND SWAP2 SWAP1 SWAP2 OR PUSH1 0x10 SWAP4 DUP5 SHL PUSH3 0x10000 PUSH1 0x1 PUSH1 0xB0 SHL SUB AND OR SWAP1 SSTORE PUSH2 0x1A0 DUP7 ADD MLOAD PUSH1 0xE DUP1 SLOAD DUP6 AND SWAP2 DUP8 AND SWAP2 SWAP1 SWAP2 OR SWAP1 SSTORE PUSH2 0x1C0 DUP7 ADD MLOAD PUSH1 0xF DUP1 SLOAD SWAP1 SWAP5 AND SWAP6 AND SWAP5 SWAP1 SWAP5 OR SWAP1 SWAP2 SSTORE PUSH2 0x1E0 DUP5 ADD MLOAD SWAP1 SSTORE PUSH2 0x200 DUP4 ADD MLOAD SWAP5 SWAP2 SWAP1 DUP6 LT ISZERO PUSH2 0x2372 JUMPI PUSH1 0xFF PUSH2 0x235F SWAP5 SWAP6 AND SWAP2 AND OR PUSH1 0x11 SSTORE PUSH2 0x234B CALLER PUSH2 0x2854 JUMP JUMPDEST POP PUSH2 0x120 ADD MLOAD PUSH1 0x1 PUSH1 0x1 PUSH1 0xA0 SHL SUB AND PUSH2 0x28C0 JUMP JUMPDEST POP PUSH2 0x100 PUSH2 0xFF00 NOT PUSH1 0x11 SLOAD AND OR PUSH1 0x11 SSTORE DUP1 RETURN JUMPDEST PUSH4 0x4E487B71 PUSH1 0xE0 SHL DUP5 MSTORE PUSH1 0x21 PUSH1 0x4 MSTORE PUSH1 0x24 DUP5 REVERT JUMPDEST PUSH1 0x40 MLOAD PUSH3 0x461BCD PUSH1 0xE5 SHL DUP2 MSTORE PUSH1 0x20 PUSH1 0x4 DUP3 ADD MSTORE PUSH1 0x1C PUSH1 0x24 DUP3 ADD MSTORE PUSH28 0x496E76616C6964207061796F757420746F6B656E2061646472657373 PUSH1 0x20 SHL PUSH1 0x44 DUP3 ADD MSTORE PUSH1 0x64 SWAP1 REVERT JUMPDEST PUSH1 0x40 MLOAD PUSH3 0x461BCD PUSH1 0xE5 SHL DUP2 MSTORE PUSH1 0x20 PUSH1 0x4 DUP3 ADD MSTORE PUSH1 0x22 PUSH1 0x24 DUP3 ADD MSTORE PUSH32 0x53746172742064617465206D757374206265206265666F726520656E64206461 PUSH1 0x44 DUP3 ADD MSTORE PUSH2 0x7465 PUSH1 0xF0 SHL PUSH1 0x64 DUP3 ADD MSTORE PUSH1 0x84 SWAP1 REVERT JUMPDEST PUSH1 0x64 PUSH1 0x40 MLOAD PUSH3 0x461BCD PUSH1 0xE5 SHL DUP2 MSTORE PUSH1 0x20 PUSH1 0x4 DUP3 ADD MSTORE PUSH1 0x20 PUSH1 0x24 DUP3 ADD MSTORE PUSH32 0x53746172742064617465206D75737420626520696E2074686520667574757265 PUSH1 0x44 DUP3 ADD MSTORE REVERT JUMPDEST PUSH1 0x40 MLOAD PUSH3 0x461BCD PUSH1 0xE5 SHL DUP2 MSTORE PUSH1 0x20 PUSH1 0x4 DUP3 ADD MSTORE PUSH1 0x1C PUSH1 0x24 DUP3 ADD MSTORE PUSH28 0x546F6B656E207072696365206D75737420626520706F736974697665 PUSH1 0x20 SHL PUSH1 0x44 DUP3 ADD MSTORE PUSH1 0x64 SWAP1 REVERT JUMPDEST PUSH1 0x64 PUSH1 0x40 MLOAD PUSH3 0x461BCD PUSH1 0xE5 SHL DUP2 MSTORE PUSH1 0x20 PUSH1 0x4 DUP3 ADD MSTORE PUSH1 0x20 PUSH1 0x24 DUP3 ADD MSTORE PUSH32 0x46756E6472616973696E6720636170206D75737420626520706F736974697665 PUSH1 0x44 DUP3 ADD MSTORE REVERT JUMPDEST PUSH1 0x40 MLOAD PUSH3 0x461BCD PUSH1 0xE5 SHL DUP2 MSTORE PUSH1 0x20 PUSH1 0x4 DUP3 ADD MSTORE PUSH1 0x22 PUSH1 0x24 DUP3 ADD MSTORE PUSH32 0x496E76616C696420696E766573746D656E74206D616E61676572206164647265 PUSH1 0x44 DUP3 ADD MSTORE PUSH2 0x7373 PUSH1 0xF0 SHL PUSH1 0x64 DUP3 ADD MSTORE PUSH1 0x84 SWAP1 REVERT JUMPDEST PUSH1 0x40 MLOAD PUSH3 0x461BCD PUSH1 0xE5 SHL DUP2 MSTORE PUSH1 0x20 PUSH1 0x4 DUP3 ADD MSTORE PUSH1 0x16 PUSH1 0x24 DUP3 ADD MSTORE PUSH22 0x496E76616C696420657363726F772061646472657373 PUSH1 0x50 SHL PUSH1 0x44 DUP3 ADD MSTORE PUSH1 0x64 SWAP1 REVERT JUMPDEST PUSH1 0x40 MLOAD PUSH3 0x461BCD PUSH1 0xE5 SHL DUP2 MSTORE PUSH1 0x20 PUSH1 0x4 DUP3 ADD MSTORE PUSH1 0x13 PUSH1 0x24 DUP3 ADD MSTORE PUSH19 0x24B73B30B634B2103A37B5B2B71037BBB732B9 PUSH1 0x69 SHL PUSH1 0x44 DUP3 ADD MSTORE PUSH1 0x64 SWAP1 REVERT JUMPDEST PUSH1 0x40 MLOAD PUSH3 0x461BCD PUSH1 0xE5 SHL DUP2 MSTORE PUSH1 0x20 PUSH1 0x4 DUP3 ADD MSTORE PUSH1 0x12 PUSH1 0x24 DUP3 ADD MSTORE PUSH18 0x24B73B30B634B21039B0B632903A37B5B2B7 PUSH1 0x71 SHL PUSH1 0x44 DUP3 ADD MSTORE PUSH1 0x64 SWAP1 REVERT JUMPDEST PUSH1 0x40 MLOAD PUSH3 0x461BCD PUSH1 0xE5 SHL DUP2 MSTORE PUSH1 0x20 PUSH1 0x4 DUP3 ADD MSTORE PUSH1 0x13 PUSH1 0x24 DUP3 ADD MSTORE PUSH19 0x105B1C9958591E481A5B9A5D1A585B1A5E9959 PUSH1 0x6A SHL PUSH1 0x44 DUP3 ADD MSTORE PUSH1 0x64 SWAP1 REVERT JUMPDEST PUSH4 0x4E487B71 PUSH1 0xE0 SHL DUP3 MSTORE PUSH1 0x41 PUSH1 0x4 MSTORE PUSH1 0x24 DUP3 REVERT JUMPDEST POP CALLVALUE PUSH2 0x2E0 JUMPI DUP1 PUSH1 0x3 NOT CALLDATASIZE ADD SLT PUSH2 0x2E0 JUMPI PUSH1 0x12 SLOAD PUSH1 0x40 MLOAD PUSH1 0x1 PUSH1 0x1 PUSH1 0xA0 SHL SUB SWAP1 SWAP2 AND DUP2 MSTORE PUSH1 0x20 SWAP1 RETURN JUMPDEST POP CALLVALUE PUSH2 0x2E0 JUMPI DUP1 PUSH1 0x3 NOT CALLDATASIZE ADD SLT PUSH2 0x2E0 JUMPI PUSH1 0x20 PUSH1 0xFF PUSH1 0x9 SLOAD AND PUSH1 0x40 MLOAD SWAP1 ISZERO ISZERO DUP2 MSTORE RETURN JUMPDEST POP CALLVALUE PUSH2 0x2E0 JUMPI DUP1 PUSH1 0x3 NOT CALLDATASIZE ADD SLT PUSH2 0x2E0 JUMPI PUSH1 0x20 PUSH1 0x6 SLOAD PUSH1 0x40 MLOAD SWAP1 DUP2 MSTORE RETURN JUMPDEST POP CALLVALUE PUSH2 0x2E0 JUMPI PUSH1 0x20 CALLDATASIZE PUSH1 0x3 NOT ADD SLT PUSH2 0x2E0 JUMPI PUSH1 0x4 CALLDATALOAD PUSH4 0xFFFFFFFF PUSH1 0xE0 SHL DUP2 AND DUP1 SWAP2 SUB PUSH2 0x104B JUMPI PUSH1 0x20 SWAP1 PUSH4 0x7965DB0B PUSH1 0xE0 SHL DUP2 EQ SWAP1 DUP2 ISZERO PUSH2 0x26E8 JUMPI JUMPDEST POP PUSH1 0x40 MLOAD SWAP1 ISZERO ISZERO DUP2 MSTORE RETURN JUMPDEST PUSH4 0x1FFC9A7 PUSH1 0xE0 SHL EQ SWAP1 POP DUP3 PUSH2 0x26DD JUMP JUMPDEST SWAP1 POP CALLVALUE PUSH2 0x104B JUMPI DUP2 PUSH1 0x3 NOT CALLDATASIZE ADD SLT PUSH2 0x104B JUMPI PUSH1 0x20 SWAP1 PUSH1 0x5 SLOAD DUP2 MSTORE RETURN JUMPDEST PUSH1 0x1 PUSH1 0x1 PUSH1 0x40 SHL SUB DUP2 GT PUSH2 0x2728 JUMPI PUSH1 0x40 MSTORE JUMP JUMPDEST PUSH4 0x4E487B71 PUSH1 0xE0 SHL PUSH1 0x0 MSTORE PUSH1 0x41 PUSH1 0x4 MSTORE PUSH1 0x24 PUSH1 0x0 REVERT JUMPDEST PUSH1 0x1F SWAP1 SWAP2 ADD PUSH1 0x1F NOT AND DUP2 ADD SWAP1 PUSH1 0x1 PUSH1 0x1 PUSH1 0x40 SHL SUB DUP3 GT SWAP1 DUP3 LT OR PUSH2 0x2728 JUMPI PUSH1 0x40 MSTORE JUMP JUMPDEST PUSH1 0x4 CALLDATALOAD SWAP1 PUSH1 0x1 PUSH1 0x1 PUSH1 0xA0 SHL SUB DUP3 AND DUP3 SUB PUSH2 0x5C4 JUMPI JUMP JUMPDEST PUSH1 0x24 CALLDATALOAD SWAP1 PUSH1 0x1 PUSH1 0x1 PUSH1 0xA0 SHL SUB DUP3 AND DUP3 SUB PUSH2 0x5C4 JUMPI JUMP JUMPDEST SWAP1 PUSH1 0x3 DUP3 LT ISZERO PUSH2 0x279A JUMPI MSTORE JUMP JUMPDEST PUSH4 0x4E487B71 PUSH1 0xE0 SHL PUSH1 0x0 MSTORE PUSH1 0x21 PUSH1 0x4 MSTORE PUSH1 0x24 PUSH1 0x0 REVERT JUMPDEST CALLER PUSH1 0x0 SWAP1 DUP2 MSTORE PUSH1 0x0 DUP1 MLOAD PUSH1 0x20 PUSH2 0x2D49 DUP4 CODECOPY DUP2 MLOAD SWAP2 MSTORE PUSH1 0x20 MSTORE PUSH1 0x40 DUP2 KECCAK256 SLOAD PUSH1 0xFF AND ISZERO PUSH2 0x27D8 JUMPI POP JUMP JUMPDEST PUSH1 0x44 SWAP1 PUSH1 0x40 MLOAD SWAP1 PUSH4 0xE2517D3F PUSH1 0xE0 SHL DUP3 MSTORE CALLER PUSH1 0x4 DUP4 ADD MSTORE PUSH1 0x24 DUP3 ADD MSTORE REVERT JUMPDEST CALLER PUSH1 0x0 SWAP1 DUP2 MSTORE PUSH1 0x0 DUP1 MLOAD PUSH1 0x20 PUSH2 0x2C89 DUP4 CODECOPY DUP2 MLOAD SWAP2 MSTORE PUSH1 0x20 MSTORE PUSH1 0x40 SWAP1 KECCAK256 SLOAD PUSH1 0x0 DUP1 MLOAD PUSH1 0x20 PUSH2 0x2D09 DUP4 CODECOPY DUP2 MLOAD SWAP2 MSTORE SWAP1 PUSH1 0xFF AND ISZERO PUSH2 0x27D8 JUMPI POP JUMP JUMPDEST DUP1 PUSH1 0x0 MSTORE PUSH1 0x0 PUSH1 0x20 MSTORE PUSH1 0x40 PUSH1 0x0 KECCAK256 CALLER PUSH1 0x0 MSTORE PUSH1 0x20 MSTORE PUSH1 0xFF PUSH1 0x40 PUSH1 0x0 KECCAK256 SLOAD AND ISZERO PUSH2 0x27D8 JUMPI POP JUMP JUMPDEST PUSH1 0x1 PUSH1 0x1 PUSH1 0xA0 SHL SUB AND PUSH1 0x0 DUP2 DUP2 MSTORE PUSH1 0x0 DUP1 MLOAD PUSH1 0x20 PUSH2 0x2D49 DUP4 CODECOPY DUP2 MLOAD SWAP2 MSTORE PUSH1 0x20 MSTORE PUSH1 0x40 DUP2 KECCAK256 SLOAD SWAP1 SWAP2 SWAP1 PUSH1 0xFF AND PUSH2 0x28BC JUMPI DUP2 DUP1 MSTORE DUP2 PUSH1 0x20 MSTORE PUSH1 0x40 DUP3 KECCAK256 DUP2 DUP4 MSTORE PUSH1 0x20 MSTORE PUSH1 0x40 DUP3 KECCAK256 PUSH1 0x1 PUSH1 0xFF NOT DUP3 SLOAD AND OR SWAP1 SSTORE CALLER SWAP2 PUSH1 0x0 DUP1 MLOAD PUSH1 0x20 PUSH2 0x2C69 DUP4 CODECOPY DUP2 MLOAD SWAP2 MSTORE DUP2 DUP1 LOG4 PUSH1 0x1 SWAP1 JUMP JUMPDEST POP SWAP1 JUMP JUMPDEST PUSH1 0x1 PUSH1 0x1 PUSH1 0xA0 SHL SUB AND PUSH1 0x0 DUP2 DUP2 MSTORE PUSH1 0x0 DUP1 MLOAD PUSH1 0x20 PUSH2 0x2C89 DUP4 CODECOPY DUP2 MLOAD SWAP2 MSTORE PUSH1 0x20 MSTORE PUSH1 0x40 DUP2 KECCAK256 SLOAD SWAP1 SWAP2 SWAP1 PUSH1 0x0 DUP1 MLOAD PUSH1 0x20 PUSH2 0x2D09 DUP4 CODECOPY DUP2 MLOAD SWAP2 MSTORE SWAP1 PUSH1 0xFF AND PUSH2 0x2937 JUMPI DUP1 DUP4 MSTORE DUP3 PUSH1 0x20 MSTORE PUSH1 0x40 DUP4 KECCAK256 DUP3 DUP5 MSTORE PUSH1 0x20 MSTORE PUSH1 0x40 DUP4 KECCAK256 PUSH1 0x1 PUSH1 0xFF NOT DUP3 SLOAD AND OR SWAP1 SSTORE PUSH1 0x0 DUP1 MLOAD PUSH1 0x20 PUSH2 0x2C69 DUP4 CODECOPY DUP2 MLOAD SWAP2 MSTORE CALLER SWAP4 DUP1 LOG4 PUSH1 0x1 SWAP1 JUMP JUMPDEST POP POP SWAP1 JUMP JUMPDEST SWAP1 PUSH1 0x0 SWAP2 DUP1 DUP4 MSTORE DUP3 PUSH1 0x20 MSTORE PUSH1 0x40 DUP4 KECCAK256 SWAP2 PUSH1 0x1 DUP1 PUSH1 0xA0 SHL SUB AND SWAP2 DUP3 DUP5 MSTORE PUSH1 0x20 MSTORE PUSH1 0xFF PUSH1 0x40 DUP5 KECCAK256 SLOAD AND ISZERO PUSH1 0x0 EQ PUSH2 0x2937 JUMPI DUP1 DUP4 MSTORE DUP3 PUSH1 0x20 MSTORE PUSH1 0x40 DUP4 KECCAK256 DUP3 DUP5 MSTORE PUSH1 0x20 MSTORE PUSH1 0x40 DUP4 KECCAK256 PUSH1 0x1 PUSH1 0xFF NOT DUP3 SLOAD AND OR SWAP1 SSTORE PUSH1 0x0 DUP1 MLOAD PUSH1 0x20 PUSH2 0x2C69 DUP4 CODECOPY DUP2 MLOAD SWAP2 MSTORE CALLER SWAP4 DUP1 LOG4 PUSH1 0x1 SWAP1 JUMP JUMPDEST PUSH1 0x1 PUSH1 0x1 PUSH1 0xA0 SHL SUB AND PUSH1 0x0 DUP2 DUP2 MSTORE PUSH1 0x0 DUP1 MLOAD PUSH1 0x20 PUSH2 0x2C89 DUP4 CODECOPY DUP2 MLOAD SWAP2 MSTORE PUSH1 0x20 MSTORE PUSH1 0x40 DUP2 KECCAK256 SLOAD SWAP1 SWAP2 SWAP1 PUSH1 0x0 DUP1 MLOAD PUSH1 0x20 PUSH2 0x2D09 DUP4 CODECOPY DUP2 MLOAD SWAP2 MSTORE SWAP1 PUSH1 0xFF AND ISZERO PUSH2 0x2937 JUMPI DUP1 DUP4 MSTORE DUP3 PUSH1 0x20 MSTORE PUSH1 0x40 DUP4 KECCAK256 DUP3 DUP5 MSTORE PUSH1 0x20 MSTORE PUSH1 0x40 DUP4 KECCAK256 PUSH1 0xFF NOT DUP2 SLOAD AND SWAP1 SSTORE PUSH1 0x0 DUP1 MLOAD PUSH1 0x20 PUSH2 0x2D29 DUP4 CODECOPY DUP2 MLOAD SWAP2 MSTORE CALLER SWAP4 DUP1 LOG4 PUSH1 0x1 SWAP1 JUMP JUMPDEST SWAP1 PUSH1 0x0 SWAP2 DUP1 DUP4 MSTORE DUP3 PUSH1 0x20 MSTORE PUSH1 0x40 DUP4 KECCAK256 SWAP2 PUSH1 0x1 DUP1 PUSH1 0xA0 SHL SUB AND SWAP2 DUP3 DUP5 MSTORE PUSH1 0x20 MSTORE PUSH1 0xFF PUSH1 0x40 DUP5 KECCAK256 SLOAD AND PUSH1 0x0 EQ PUSH2 0x2937 JUMPI DUP1 DUP4 MSTORE DUP3 PUSH1 0x20 MSTORE PUSH1 0x40 DUP4 KECCAK256 DUP3 DUP5 MSTORE PUSH1 0x20 MSTORE PUSH1 0x40 DUP4 KECCAK256 PUSH1 0xFF NOT DUP2 SLOAD AND SWAP1 SSTORE PUSH1 0x0 DUP1 MLOAD PUSH1 0x20 PUSH2 0x2D29 DUP4 CODECOPY DUP2 MLOAD SWAP2 MSTORE CALLER SWAP4 DUP1 LOG4 PUSH1 0x1 SWAP1 JUMP JUMPDEST ISZERO PUSH2 0x2A82 JUMPI JUMP JUMPDEST PUSH1 0x40 MLOAD PUSH3 0x461BCD PUSH1 0xE5 SHL DUP2 MSTORE PUSH1 0x20 PUSH1 0x4 DUP3 ADD MSTORE PUSH1 0x14 PUSH1 0x24 DUP3 ADD MSTORE PUSH20 0x135A5B880F881B585E081A5B9D995CDD1B595B9D PUSH1 0x62 SHL PUSH1 0x44 DUP3 ADD MSTORE PUSH1 0x64 SWAP1 REVERT JUMPDEST PUSH1 0xFF PUSH1 0x1 SLOAD AND PUSH2 0x2ACA JUMPI JUMP JUMPDEST PUSH1 0x40 MLOAD PUSH4 0xD93C0665 PUSH1 0xE0 SHL DUP2 MSTORE PUSH1 0x4 SWAP1 REVERT JUMPDEST SWAP2 SWAP1 DUP3 ADD DUP1 SWAP3 GT PUSH2 0x2AE9 JUMPI JUMP JUMPDEST PUSH4 0x4E487B71 PUSH1 0xE0 SHL PUSH1 0x0 MSTORE PUSH1 0x11 PUSH1 0x4 MSTORE PUSH1 0x24 PUSH1 0x0 REVERT JUMPDEST DUP2 ISZERO PUSH2 0x2B09 JUMPI DIV SWAP1 JUMP JUMPDEST PUSH4 0x4E487B71 PUSH1 0xE0 SHL PUSH1 0x0 MSTORE PUSH1 0x12 PUSH1 0x4 MSTORE PUSH1 0x24 PUSH1 0x0 REVERT JUMPDEST ISZERO PUSH2 0x2B26 JUMPI JUMP JUMPDEST PUSH1 0x40 MLOAD PUSH3 0x461BCD PUSH1 0xE5 SHL DUP2 MSTORE PUSH1 0x20 PUSH1 0x4 DUP3 ADD MSTORE PUSH1 0x18 PUSH1 0x24 DUP3 ADD MSTORE PUSH24 0x496E73756666696369656E742073616C6520746F6B656E73 PUSH1 0x40 SHL PUSH1 0x44 DUP3 ADD MSTORE PUSH1 0x64 SWAP1 REVERT JUMPDEST SWAP1 DUP2 PUSH1 0x20 SWAP2 SUB SLT PUSH2 0x5C4 JUMPI MLOAD DUP1 ISZERO ISZERO DUP2 SUB PUSH2 0x5C4 JUMPI SWAP1 JUMP JUMPDEST PUSH1 0x1 PUSH1 0x1 PUSH1 0xA0 SHL SUB SWAP1 SWAP2 AND DUP2 MSTORE PUSH1 0x20 DUP2 ADD SWAP2 SWAP1 SWAP2 MSTORE PUSH1 0x40 ADD SWAP1 JUMP JUMPDEST PUSH1 0x1 PUSH1 0x1 PUSH1 0xA0 SHL SUB SWAP1 SWAP2 AND DUP2 MSTORE PUSH1 0x20 DUP2 ADD SWAP2 SWAP1 SWAP2 MSTORE PUSH1 0x60 DUP2 ADD SWAP3 SWAP2 PUSH2 0x2BC1 SWAP2 PUSH1 0x40 ADD SWAP1 PUSH2 0x278D JUMP JUMPDEST JUMP JUMPDEST PUSH1 0x2 DUP1 SLOAD EQ PUSH2 0x2BD2 JUMPI PUSH1 0x2 DUP1 SSTORE JUMP JUMPDEST PUSH1 0x40 MLOAD PUSH4 0x3EE5AEB5 PUSH1 0xE0 SHL DUP2 MSTORE PUSH1 0x4 SWAP1 REVERT JUMPDEST ISZERO PUSH2 0x2BEB JUMPI JUMP JUMPDEST PUSH1 0x40 MLOAD PUSH3 0x461BCD PUSH1 0xE5 SHL DUP2 MSTORE PUSH1 0x20 PUSH1 0x4 DUP3 ADD MSTORE PUSH1 0xD PUSH1 0x24 DUP3 ADD MSTORE PUSH13 0x496E76616C6964207072696365 PUSH1 0x98 SHL PUSH1 0x44 DUP3 ADD MSTORE PUSH1 0x64 SWAP1 REVERT JUMPDEST SWAP2 SWAP1 DUP3 SUB SWAP2 DUP3 GT PUSH2 0x2AE9 JUMPI JUMP JUMPDEST ISZERO PUSH2 0x2C34 JUMPI JUMP JUMPDEST PUSH1 0x40 MLOAD PUSH3 0x461BCD PUSH1 0xE5 SHL DUP2 MSTORE PUSH1 0x20 PUSH1 0x4 DUP3 ADD MSTORE PUSH1 0xC PUSH1 0x24 DUP3 ADD MSTORE PUSH12 0x5A65726F2061646472657373 PUSH1 0xA0 SHL PUSH1 0x44 DUP3 ADD MSTORE PUSH1 0x64 SWAP1 REVERT INVALID 0x2F DUP8 DUP9 GT PUSH31 0x7EFF1D82E926EC794901D17C78024A50270940304540A733656F0D7DFC0114 0xFC 0x2B SUB KECCAK256 SWAP5 PUSH19 0x40CBD60A9FFC193468A941C37441E641A928A8 0xC1 AND 0xD5 SWAP4 PUSH4 0x8E6CF18B 0x4F PUSH11 0x839DE65DF95898221F5D9F PUSH30 0xC54B87D4B31D40297643266EC1D3048301C0D23629A2532C8DEFA6D68F8E BYTE 0xE COINBASE JUMPI SWAP2 DUP8 PUSH10 0xE9FB1B2EEB888ED27DD3 PUSH30 0x941F5A1B76926E48140FDBF50A0C59DEFB5431A391A1260279EB1C4C3536 SWAP12 GASPRICE PUSH28 0xB98C90641A907C2FD643EA781341EBA72CCFFD47CB018C128C48C3F6 CODECOPY 0x1F 0x5C ORIGIN 0xD9 0xC6 SWAP14 0x2A SELFBALANCE 0xEA PUSH8 0xB442974B53935D1 0xED 0xC7 REVERT PUSH5 0xEB21E047A8 CODECOPY OR SHL 0xAD ORIGIN 0x28 0xB6 PUSH23 0xF7D3CD4284A5443F17F1962B36E491B30A40B2405849E5 SWAP8 0xBA PUSH0 0xB5 LOG2 PUSH5 0x6970667358 0x22 SLT KECCAK256 ADDMOD DUP6 PUSH5 0x4BD92A1DF9 SWAP16 0xE0 KECCAK256 0xE BALANCE PUSH22 0xC84EFA61B78F2359CC0BB745DBB11550B0DD64736F6C PUSH4 0x43000814 STOP CALLER PUSH1 0x40 PUSH2 0x120 DUP2 MSTORE CALLVALUE PUSH3 0x4BB JUMPI PUSH3 0x1501 SWAP1 DUP2 CODESIZE SUB DUP1 PUSH3 0x20 DUP2 PUSH3 0x4C0 JUMP JUMPDEST SWAP4 DUP5 CODECOPY DUP3 ADD SWAP2 PUSH1 0x20 DUP2 DUP5 SUB SLT PUSH3 0x4BB JUMPI DUP1 MLOAD SWAP1 PUSH1 0x1 PUSH1 0x1 PUSH1 0x40 SHL SUB DUP3 GT PUSH3 0x4BB JUMPI ADD PUSH1 0xE0 DUP2 DUP5 SUB SLT PUSH3 0x4BB JUMPI DUP2 MLOAD SWAP3 PUSH1 0xE0 DUP5 ADD PUSH1 0x1 PUSH1 0x1 PUSH1 0x40 SHL SUB DUP2 GT DUP6 DUP3 LT OR PUSH3 0x392 JUMPI DUP4 MSTORE DUP2 MLOAD PUSH1 0x1 PUSH1 0x1 PUSH1 0x40 SHL SUB DUP2 GT PUSH3 0x4BB JUMPI DUP2 PUSH3 0x8A SWAP2 DUP5 ADD PUSH3 0x4E6 JUMP JUMPDEST DUP5 MSTORE PUSH1 0x20 DUP3 ADD MLOAD SWAP1 PUSH1 0x1 PUSH1 0x1 PUSH1 0x40 SHL SUB DUP3 GT PUSH3 0x4BB JUMPI PUSH3 0xAE SWAP2 DUP4 ADD PUSH3 0x4E6 JUMP JUMPDEST SWAP3 DUP4 PUSH1 0x20 DUP3 ADD MSTORE PUSH3 0xC2 DUP4 DUP4 ADD PUSH3 0x558 JUMP JUMPDEST DUP4 DUP3 ADD MSTORE PUSH3 0xD4 PUSH1 0x60 DUP4 ADD PUSH3 0x558 JUMP JUMPDEST PUSH1 0x60 DUP3 ADD MSTORE PUSH1 0x80 DUP3 ADD MLOAD SWAP2 PUSH1 0x80 DUP3 ADD SWAP3 DUP4 MSTORE PUSH3 0x100 PUSH1 0xC0 PUSH1 0xA0 DUP4 ADD MLOAD SWAP3 PUSH1 0xA0 DUP6 ADD SWAP4 DUP5 MSTORE ADD PUSH3 0x558 JUMP JUMPDEST PUSH1 0xC0 DUP4 ADD MSTORE DUP2 MLOAD DUP1 MLOAD PUSH1 0x1 PUSH1 0x1 PUSH1 0x40 SHL SUB DUP2 GT PUSH3 0x392 JUMPI PUSH1 0x3 SLOAD SWAP2 PUSH1 0x1 DUP4 DUP2 SHR SWAP4 AND DUP1 ISZERO PUSH3 0x4B0 JUMPI JUMPDEST PUSH1 0x20 DUP5 LT EQ PUSH3 0x49A JUMPI DUP2 SWAP1 PUSH1 0x1F SWAP4 DUP5 DUP2 GT PUSH3 0x443 JUMPI JUMPDEST POP PUSH1 0x20 SWAP1 DUP5 DUP4 GT PUSH1 0x1 EQ PUSH3 0x3B4 JUMPI PUSH1 0x0 SWAP3 PUSH3 0x3A8 JUMPI JUMPDEST POP POP DUP2 PUSH1 0x1 SHL SWAP2 PUSH1 0x0 NOT SWAP1 PUSH1 0x3 SHL SHR NOT AND OR PUSH1 0x3 SSTORE JUMPDEST DUP6 MLOAD SWAP1 PUSH1 0x1 PUSH1 0x1 PUSH1 0x40 SHL SUB DUP3 GT PUSH3 0x392 JUMPI PUSH1 0x4 SWAP7 DUP8 SLOAD PUSH1 0x1 DUP2 DUP2 SHR SWAP2 AND DUP1 ISZERO PUSH3 0x387 JUMPI JUMPDEST PUSH1 0x20 DUP3 LT EQ PUSH3 0x372 JUMPI SWAP1 DUP2 DUP4 DUP6 SWAP5 SWAP4 GT PUSH3 0x319 JUMPI JUMPDEST POP PUSH1 0x20 SWAP2 DUP4 GT PUSH1 0x1 EQ PUSH3 0x2AE JUMPI PUSH1 0x0 SWAP3 PUSH3 0x2A2 JUMPI JUMPDEST POP POP DUP2 PUSH1 0x1 SHL SWAP2 PUSH1 0x0 NOT SWAP1 PUSH1 0x3 SHL SHR NOT AND OR DUP6 SSTORE JUMPDEST DUP2 DUP5 ADD MLOAD PUSH1 0x1 PUSH1 0x1 PUSH1 0xA0 SHL SUB SWAP4 SWAP1 DUP5 AND ISZERO DUP1 ISZERO PUSH3 0x293 JUMPI JUMPDEST PUSH3 0x283 JUMPI DUP5 DUP4 ADD MLOAD DUP5 AND PUSH1 0x80 MSTORE PUSH1 0x60 DUP4 ADD MLOAD DUP5 AND PUSH1 0xA0 MSTORE MLOAD PUSH1 0xC0 SWAP1 DUP2 MSTORE SWAP1 MLOAD PUSH1 0xE0 MSTORE ADD MLOAD AND PUSH2 0x100 SWAP1 DUP2 MSTORE SWAP1 MLOAD PUSH2 0xF93 SWAP2 DUP3 PUSH3 0x56E DUP4 CODECOPY PUSH1 0x80 MLOAD DUP3 DUP2 DUP2 PUSH2 0x70C ADD MSTORE DUP2 DUP2 PUSH2 0x9DD ADD MSTORE PUSH2 0xCE6 ADD MSTORE PUSH1 0xA0 MLOAD DUP3 DUP2 DUP2 PUSH2 0x206 ADD MSTORE PUSH2 0x64C ADD MSTORE PUSH1 0xC0 MLOAD DUP3 DUP2 DUP2 PUSH2 0x354 ADD MSTORE PUSH2 0x93D ADD MSTORE PUSH1 0xE0 MLOAD DUP3 DUP2 DUP2 PUSH2 0x788 ADD MSTORE PUSH2 0xAA6 ADD MSTORE MLOAD DUP2 DUP2 DUP2 PUSH2 0x6B4 ADD MSTORE PUSH2 0xB03 ADD MSTORE RETURN JUMPDEST DUP5 MLOAD PUSH4 0x29456045 PUSH1 0xE1 SHL DUP2 MSTORE DUP7 SWAP1 REVERT JUMPDEST POP DUP4 PUSH1 0x60 DUP5 ADD MLOAD AND ISZERO PUSH3 0x1F3 JUMP JUMPDEST ADD MLOAD SWAP1 POP CODESIZE DUP1 PUSH3 0x1C5 JUMP JUMPDEST PUSH1 0x0 DUP10 DUP2 MSTORE PUSH1 0x20 DUP2 KECCAK256 SWAP4 POP PUSH1 0x1F NOT DUP6 AND SWAP1 JUMPDEST DUP2 DUP2 LT PUSH3 0x300 JUMPI POP SWAP1 DUP5 PUSH1 0x1 SWAP6 SWAP5 SWAP4 SWAP3 LT PUSH3 0x2E6 JUMPI JUMPDEST POP POP POP DUP2 SHL ADD DUP6 SSTORE PUSH3 0x1DA JUMP JUMPDEST ADD MLOAD PUSH1 0x0 NOT PUSH1 0xF8 DUP5 PUSH1 0x3 SHL AND SHR NOT AND SWAP1 SSTORE CODESIZE DUP1 DUP1 PUSH3 0x2D8 JUMP JUMPDEST SWAP3 SWAP4 PUSH1 0x20 PUSH1 0x1 DUP2 SWAP3 DUP8 DUP7 ADD MLOAD DUP2 SSTORE ADD SWAP6 ADD SWAP4 ADD PUSH3 0x2C0 JUMP JUMPDEST SWAP1 SWAP2 SWAP3 POP DUP9 PUSH1 0x0 MSTORE PUSH1 0x20 PUSH1 0x0 KECCAK256 DUP4 DUP1 DUP7 ADD PUSH1 0x5 SHR DUP3 ADD SWAP3 PUSH1 0x20 DUP8 LT PUSH3 0x368 JUMPI JUMPDEST SWAP5 DUP7 SWAP6 SWAP5 SWAP4 SWAP3 SWAP2 SWAP5 ADD PUSH1 0x5 SHR ADD SWAP1 JUMPDEST DUP2 DUP2 LT PUSH3 0x358 JUMPI POP PUSH3 0x1AE JUMP JUMPDEST PUSH1 0x0 DUP2 SSTORE DUP6 SWAP5 POP PUSH1 0x1 ADD PUSH3 0x349 JUMP JUMPDEST SWAP3 POP DUP2 SWAP3 PUSH3 0x33A JUMP JUMPDEST PUSH1 0x22 DUP10 PUSH4 0x4E487B71 PUSH1 0xE0 SHL PUSH1 0x0 MSTORE MSTORE PUSH1 0x24 PUSH1 0x0 REVERT JUMPDEST SWAP1 PUSH1 0x7F AND SWAP1 PUSH3 0x197 JUMP JUMPDEST PUSH4 0x4E487B71 PUSH1 0xE0 SHL PUSH1 0x0 MSTORE PUSH1 0x41 PUSH1 0x4 MSTORE PUSH1 0x24 PUSH1 0x0 REVERT JUMPDEST ADD MLOAD SWAP1 POP CODESIZE DUP1 PUSH3 0x15B JUMP JUMPDEST PUSH1 0x3 PUSH1 0x0 SWAP1 DUP2 MSTORE SWAP4 POP PUSH32 0xC2575A0E9E593C00F959F8C92F12DB2869C3395A3B0502D05E2516446F71F85B SWAP2 SWAP1 JUMPDEST PUSH1 0x1F NOT DUP5 AND DUP6 LT PUSH3 0x427 JUMPI PUSH1 0x1 SWAP5 POP DUP4 PUSH1 0x1F NOT DUP2 AND LT PUSH3 0x40D JUMPI JUMPDEST POP POP POP DUP2 SHL ADD PUSH1 0x3 SSTORE PUSH3 0x171 JUMP JUMPDEST ADD MLOAD PUSH1 0x0 NOT PUSH1 0xF8 DUP5 PUSH1 0x3 SHL AND SHR NOT AND SWAP1 SSTORE CODESIZE DUP1 DUP1 PUSH3 0x3FE JUMP JUMPDEST DUP2 DUP2 ADD MLOAD DUP4 SSTORE PUSH1 0x20 SWAP5 DUP6 ADD SWAP5 PUSH1 0x1 SWAP1 SWAP4 ADD SWAP3 SWAP1 SWAP2 ADD SWAP1 PUSH3 0x3E1 JUMP JUMPDEST SWAP1 SWAP2 POP PUSH1 0x3 PUSH1 0x0 MSTORE PUSH1 0x20 PUSH1 0x0 KECCAK256 DUP5 DUP1 DUP6 ADD PUSH1 0x5 SHR DUP3 ADD SWAP3 PUSH1 0x20 DUP7 LT PUSH3 0x490 JUMPI JUMPDEST SWAP1 DUP6 SWAP5 SWAP4 SWAP3 SWAP2 ADD PUSH1 0x5 SHR ADD SWAP1 JUMPDEST DUP2 DUP2 LT PUSH3 0x480 JUMPI POP PUSH3 0x143 JUMP JUMPDEST PUSH1 0x0 DUP2 SSTORE DUP5 SWAP4 POP PUSH1 0x1 ADD PUSH3 0x471 JUMP JUMPDEST SWAP3 POP DUP2 SWAP3 PUSH3 0x464 JUMP JUMPDEST PUSH4 0x4E487B71 PUSH1 0xE0 SHL PUSH1 0x0 MSTORE PUSH1 0x22 PUSH1 0x4 MSTORE PUSH1 0x24 PUSH1 0x0 REVERT JUMPDEST SWAP3 PUSH1 0x7F AND SWAP3 PUSH3 0x12B JUMP JUMPDEST PUSH1 0x0 DUP1 REVERT JUMPDEST PUSH1 0x40 MLOAD SWAP2 SWAP1 PUSH1 0x1F ADD PUSH1 0x1F NOT AND DUP3 ADD PUSH1 0x1 PUSH1 0x1 PUSH1 0x40 SHL SUB DUP2 GT DUP4 DUP3 LT OR PUSH3 0x392 JUMPI PUSH1 0x40 MSTORE JUMP JUMPDEST SWAP2 SWAP1 DUP1 PUSH1 0x1F DUP5 ADD SLT ISZERO PUSH3 0x4BB JUMPI DUP3 MLOAD PUSH1 0x1 PUSH1 0x1 PUSH1 0x40 SHL SUB DUP2 GT PUSH3 0x392 JUMPI PUSH1 0x20 SWAP1 PUSH3 0x51C PUSH1 0x1F DUP3 ADD PUSH1 0x1F NOT AND DUP4 ADD PUSH3 0x4C0 JUMP JUMPDEST SWAP3 DUP2 DUP5 MSTORE DUP3 DUP3 DUP8 ADD ADD GT PUSH3 0x4BB JUMPI PUSH1 0x0 JUMPDEST DUP2 DUP2 LT PUSH3 0x544 JUMPI POP DUP3 PUSH1 0x0 SWAP4 SWAP5 SWAP6 POP ADD ADD MSTORE SWAP1 JUMP JUMPDEST DUP6 DUP2 ADD DUP4 ADD MLOAD DUP5 DUP3 ADD DUP5 ADD MSTORE DUP3 ADD PUSH3 0x52E JUMP JUMPDEST MLOAD SWAP1 PUSH1 0x1 PUSH1 0x1 PUSH1 0xA0 SHL SUB DUP3 AND DUP3 SUB PUSH3 0x4BB JUMPI JUMP INVALID PUSH1 0x80 PUSH1 0x40 DUP2 DUP2 MSTORE PUSH1 0x4 SWAP2 DUP3 CALLDATASIZE LT ISZERO PUSH2 0x16 JUMPI PUSH1 0x0 DUP1 REVERT JUMPDEST PUSH1 0x0 SWAP3 DUP4 CALLDATALOAD PUSH1 0xE0 SHR SWAP2 DUP3 PUSH3 0xE77AA6 EQ PUSH2 0xCD2 JUMPI POP DUP2 PUSH4 0x6FDDE03 EQ PUSH2 0xBFB JUMPI DUP2 PUSH4 0x95EA7B3 EQ PUSH2 0xB51 JUMPI DUP2 PUSH4 0x18160DDD EQ PUSH2 0xB32 JUMPI DUP2 PUSH4 0x1A4F94F7 EQ PUSH2 0xAEE JUMPI DUP2 PUSH4 0x23B872DD EQ PUSH2 0xAC9 JUMPI DUP2 PUSH4 0x2B4353F2 EQ PUSH2 0xA8E JUMPI DUP2 PUSH4 0x313CE567 EQ PUSH2 0xA72 JUMPI DUP2 PUSH4 0x42966C68 EQ PUSH2 0xA54 JUMPI DUP2 PUSH4 0x464F0B0D EQ PUSH2 0x928 JUMPI DUP2 PUSH4 0x48E8A949 EQ PUSH2 0x67B JUMPI DUP2 PUSH4 0x4EFA82B6 EQ PUSH2 0x637 JUMPI DUP2 PUSH4 0x6F7BC9BE EQ PUSH2 0x5A4 JUMPI DUP2 PUSH4 0x70A08231 EQ PUSH2 0x56D JUMPI DUP2 PUSH4 0x79CC6790 EQ PUSH2 0x489 JUMPI DUP2 PUSH4 0x95D89B41 EQ PUSH2 0x3A3 JUMPI DUP2 PUSH4 0xA9059CBB EQ PUSH2 0x377 JUMPI DUP2 PUSH4 0xD59624B4 EQ PUSH2 0x33C JUMPI DUP2 PUSH4 0xDD62ED3E EQ PUSH2 0x2F3 JUMPI DUP2 PUSH4 0xE88499A9 EQ PUSH2 0x12C JUMPI POP PUSH4 0xF9168231 EQ PUSH2 0x10B JUMPI PUSH1 0x0 DUP1 REVERT JUMPDEST CALLVALUE PUSH2 0x128 JUMPI DUP2 PUSH1 0x3 NOT CALLDATASIZE ADD SLT PUSH2 0x128 JUMPI PUSH1 0x20 SWAP1 PUSH1 0x5 SLOAD SWAP1 MLOAD SWAP1 DUP2 MSTORE RETURN JUMPDEST POP DUP1 REVERT JUMPDEST SWAP2 SWAP1 POP CALLVALUE PUSH2 0x2EF JUMPI DUP3 PUSH1 0x3 NOT CALLDATASIZE ADD SLT PUSH2 0x2EF JUMPI CALLER DUP4 MSTORE PUSH1 0x6 PUSH1 0x20 MSTORE DUP1 DUP4 KECCAK256 DUP1 SLOAD DUP1 ISZERO PUSH2 0x2E0 JUMPI PUSH1 0xFF PUSH1 0x1 DUP4 ADD SLOAD AND PUSH2 0x2D1 JUMPI PUSH2 0x16D PUSH1 0xFF DUP6 DUP5 ADD SLOAD AND PUSH2 0xEED JUMP JUMPDEST SWAP1 DUP2 ISZERO PUSH2 0x2C1 JUMPI PUSH1 0x2 DUP4 ADD DUP1 SLOAD PUSH2 0x184 DUP2 TIMESTAMP PUSH2 0xEC5 JUMP JUMPDEST DUP5 DUP2 LT PUSH2 0x2B1 JUMPI DUP5 SWAP1 DIV SWAP4 PUSH1 0x3 PUSH2 0x19F PUSH1 0x5 DUP9 ADD SLOAD DUP8 PUSH2 0xEB2 JUMP JUMPDEST SWAP7 ADD SWAP5 DUP6 SLOAD SWAP5 DUP1 PUSH2 0x1B0 DUP10 DUP9 PUSH2 0xE77 JUMP JUMPDEST GT PUSH2 0x29D JUMPI JUMPDEST POP DUP7 ISZERO PUSH2 0x28D JUMPI SWAP4 PUSH1 0x20 SWAP6 SWAP4 PUSH2 0x1DF PUSH2 0x1E6 SWAP5 PUSH2 0x1D9 DUP11 SWAP9 SWAP6 PUSH2 0x201 SWAP12 SWAP7 PUSH2 0xEB2 JUMP JUMPDEST SWAP1 PUSH2 0xE77 JUMP JUMPDEST SWAP1 SSTORE PUSH2 0xE77 JUMP JUMPDEST SWAP1 SSTORE DUP4 MLOAD DUP1 SWAP4 DUP2 SWAP3 PUSH4 0xA9059CBB PUSH1 0xE0 SHL DUP4 MSTORE CALLER DUP9 DUP5 ADD PUSH2 0xED2 JUMP JUMPDEST SUB DUP2 DUP8 PUSH32 0x0 PUSH1 0x1 PUSH1 0x1 PUSH1 0xA0 SHL SUB AND GAS CALL SWAP1 DUP2 ISZERO PUSH2 0x283 JUMPI DUP5 SWAP2 PUSH2 0x255 JUMPI JUMPDEST POP ISZERO PUSH2 0x248 JUMPI DUP3 DUP1 RETURN JUMPDEST MLOAD PUSH4 0x22E2581 PUSH1 0xE1 SHL DUP2 MSTORE REVERT JUMPDEST PUSH2 0x276 SWAP2 POP PUSH1 0x20 RETURNDATASIZE DUP2 GT PUSH2 0x27C JUMPI JUMPDEST PUSH2 0x26E DUP2 DUP4 PUSH2 0xD8F JUMP JUMPDEST DUP2 ADD SWAP1 PUSH2 0xE9A JUMP JUMPDEST CODESIZE PUSH2 0x23E JUMP JUMPDEST POP RETURNDATASIZE PUSH2 0x264 JUMP JUMPDEST DUP3 MLOAD RETURNDATASIZE DUP7 DUP3 RETURNDATACOPY RETURNDATASIZE SWAP1 REVERT JUMPDEST DUP8 MLOAD PUSH4 0xAC48FF5 PUSH1 0xE4 SHL DUP2 MSTORE DUP10 SWAP1 REVERT JUMPDEST PUSH2 0x2AA SWAP2 SWAP8 POP DUP6 SWAP1 PUSH2 0xEC5 JUMP JUMPDEST SWAP6 CODESIZE PUSH2 0x1B6 JUMP JUMPDEST DUP7 MLOAD PUSH4 0xB477C7B1 PUSH1 0xE0 SHL DUP2 MSTORE DUP9 SWAP1 REVERT JUMPDEST POP POP POP MLOAD PUSH4 0xAC48FF5 PUSH1 0xE4 SHL DUP2 MSTORE REVERT JUMPDEST POP POP MLOAD PUSH4 0xC8D9EAB PUSH1 0xE3 SHL DUP2 MSTORE REVERT JUMPDEST POP POP MLOAD PUSH4 0x3A6A68B1 PUSH1 0xE0 SHL DUP2 MSTORE REVERT JUMPDEST DUP3 DUP1 REVERT JUMPDEST POP POP CALLVALUE PUSH2 0x128 JUMPI DUP1 PUSH1 0x3 NOT CALLDATASIZE ADD SLT PUSH2 0x128 JUMPI DUP1 PUSH1 0x20 SWAP3 PUSH2 0x311 PUSH2 0xD5E JUMP JUMPDEST PUSH2 0x319 PUSH2 0xD79 JUMP JUMPDEST PUSH1 0x1 PUSH1 0x1 PUSH1 0xA0 SHL SUB SWAP2 DUP3 AND DUP4 MSTORE PUSH1 0x1 DUP7 MSTORE DUP4 DUP4 KECCAK256 SWAP2 AND DUP3 MSTORE DUP5 MSTORE KECCAK256 SLOAD SWAP1 MLOAD SWAP1 DUP2 MSTORE RETURN JUMPDEST POP POP CALLVALUE PUSH2 0x128 JUMPI DUP2 PUSH1 0x3 NOT CALLDATASIZE ADD SLT PUSH2 0x128 JUMPI PUSH1 0x20 SWAP1 MLOAD PUSH32 0x0 DUP2 MSTORE RETURN JUMPDEST DUP3 DUP5 CALLVALUE PUSH2 0x3A0 JUMPI DUP2 PUSH1 0x3 NOT CALLDATASIZE ADD SLT PUSH2 0x3A0 JUMPI POP PUSH2 0x392 PUSH2 0xD5E JUMP JUMPDEST POP MLOAD PUSH4 0x1DE81C7B PUSH1 0xE0 SHL DUP2 MSTORE REVERT JUMPDEST DUP1 REVERT JUMPDEST DUP4 DUP4 CALLVALUE PUSH2 0x128 JUMPI DUP2 PUSH1 0x3 NOT CALLDATASIZE ADD SLT PUSH2 0x128 JUMPI DUP1 MLOAD SWAP2 DUP1 SWAP4 DUP1 SLOAD SWAP2 PUSH1 0x1 SWAP1 DUP4 DUP3 SHR SWAP3 DUP3 DUP6 AND SWAP5 DUP6 ISZERO PUSH2 0x47F JUMPI JUMPDEST PUSH1 0x20 SWAP6 DUP7 DUP7 LT DUP2 EQ PUSH2 0x46C JUMPI DUP6 DUP10 MSTORE SWAP1 DUP2 ISZERO PUSH2 0x448 JUMPI POP PUSH1 0x1 EQ PUSH2 0x40D JUMPI JUMPDEST PUSH2 0x409 DUP8 DUP8 PUSH2 0x3FF DUP3 DUP13 SUB DUP4 PUSH2 0xD8F JUMP JUMPDEST MLOAD SWAP2 DUP3 SWAP2 DUP3 PUSH2 0xD15 JUMP JUMPDEST SUB SWAP1 RETURN JUMPDEST SWAP1 DUP1 SWAP5 SWAP8 POP MSTORE DUP6 DUP4 KECCAK256 JUMPDEST DUP3 DUP5 LT PUSH2 0x435 JUMPI POP POP POP DUP3 PUSH2 0x409 SWAP5 PUSH2 0x3FF SWAP3 DUP3 ADD ADD SWAP5 DUP7 DUP1 PUSH2 0x3EE JUMP JUMPDEST DUP1 SLOAD DUP7 DUP6 ADD DUP9 ADD MSTORE SWAP3 DUP7 ADD SWAP3 DUP2 ADD PUSH2 0x417 JUMP JUMPDEST PUSH1 0xFF NOT AND DUP9 DUP8 ADD MSTORE POP POP POP POP ISZERO ISZERO PUSH1 0x5 SHL DUP4 ADD ADD SWAP3 POP PUSH2 0x3FF DUP3 PUSH2 0x409 DUP7 DUP1 PUSH2 0x3EE JUMP JUMPDEST PUSH4 0x4E487B71 PUSH1 0xE0 SHL DUP5 MSTORE PUSH1 0x22 DUP4 MSTORE PUSH1 0x24 DUP5 REVERT JUMPDEST SWAP4 PUSH1 0x7F AND SWAP4 PUSH2 0x3CF JUMP JUMPDEST DUP4 SWAP2 POP CALLVALUE PUSH2 0x128 JUMPI DUP3 PUSH1 0x3 NOT CALLDATASIZE ADD SLT PUSH2 0x128 JUMPI PUSH2 0x4A4 PUSH2 0xD5E JUMP JUMPDEST PUSH1 0x1 PUSH1 0x1 PUSH1 0xA0 SHL SUB DUP2 AND DUP1 DUP5 MSTORE PUSH1 0x1 PUSH1 0x20 SWAP1 DUP2 MSTORE DUP6 DUP6 KECCAK256 CALLER DUP7 MSTORE SWAP1 MSTORE DUP5 DUP5 KECCAK256 SLOAD PUSH1 0x24 CALLDATALOAD SWAP4 SWAP1 SWAP2 SWAP1 PUSH1 0x0 NOT DUP4 LT PUSH2 0x4E3 JUMPI JUMPDEST DUP6 PUSH2 0x4E0 DUP7 DUP7 PUSH2 0xDC8 JUMP JUMPDEST DUP1 RETURN JUMPDEST DUP5 DUP4 LT PUSH2 0x54B JUMPI DUP2 ISZERO PUSH2 0x534 JUMPI CALLER ISZERO PUSH2 0x51D JUMPI POP DUP5 SWAP6 SWAP2 DUP5 SWAP2 PUSH2 0x4E0 SWAP7 MSTORE PUSH1 0x1 PUSH1 0x20 MSTORE DUP3 DUP8 KECCAK256 CALLER DUP9 MSTORE PUSH1 0x20 MSTORE SUB SWAP1 DUP6 KECCAK256 SSTORE DUP4 SWAP3 DUP6 DUP1 PUSH2 0x4D5 JUMP JUMPDEST DUP7 MLOAD PUSH4 0x4A1406B1 PUSH1 0xE1 SHL DUP2 MSTORE SWAP1 DUP2 ADD DUP7 SWAP1 MSTORE PUSH1 0x24 SWAP1 REVERT JUMPDEST DUP7 MLOAD PUSH4 0xE602DF05 PUSH1 0xE0 SHL DUP2 MSTORE SWAP1 DUP2 ADD DUP7 SWAP1 MSTORE PUSH1 0x24 SWAP1 REVERT JUMPDEST SWAP1 POP PUSH2 0x569 DUP5 DUP8 MLOAD SWAP4 DUP5 SWAP4 PUSH4 0x7DC7A0D9 PUSH1 0xE1 SHL DUP6 MSTORE CALLER SWAP1 DUP6 ADD PUSH2 0xE59 JUMP JUMPDEST SUB SWAP1 REVERT JUMPDEST POP POP CALLVALUE PUSH2 0x128 JUMPI PUSH1 0x20 CALLDATASIZE PUSH1 0x3 NOT ADD SLT PUSH2 0x128 JUMPI PUSH1 0x20 SWAP2 DUP2 SWAP1 PUSH1 0x1 PUSH1 0x1 PUSH1 0xA0 SHL SUB PUSH2 0x595 PUSH2 0xD5E JUMP JUMPDEST AND DUP2 MSTORE DUP1 DUP5 MSTORE KECCAK256 SLOAD SWAP1 MLOAD SWAP1 DUP2 MSTORE RETURN JUMPDEST DUP4 DUP4 CALLVALUE PUSH2 0x128 JUMPI PUSH1 0x20 CALLDATASIZE PUSH1 0x3 NOT ADD SLT PUSH2 0x128 JUMPI PUSH1 0x1 PUSH1 0x1 PUSH1 0xA0 SHL SUB PUSH2 0x5C7 PUSH2 0xD5E JUMP JUMPDEST AND DUP3 MSTORE PUSH1 0x6 PUSH1 0x20 MSTORE DUP1 DUP3 KECCAK256 DUP1 SLOAD SWAP3 PUSH1 0xFF PUSH1 0x1 DUP4 ADD SLOAD AND SWAP3 PUSH1 0x2 DUP4 ADD SLOAD PUSH1 0x3 DUP5 ADD SLOAD SWAP2 PUSH1 0x5 PUSH1 0xFF DUP10 DUP8 ADD SLOAD AND SWAP6 ADD SLOAD SWAP6 DUP2 MLOAD SWAP8 DUP9 MSTORE ISZERO ISZERO PUSH1 0x20 DUP9 ADD MSTORE DUP7 ADD MSTORE PUSH1 0x60 DUP6 ADD MSTORE PUSH1 0x3 DUP3 LT ISZERO PUSH2 0x624 JUMPI POP PUSH1 0xC0 SWAP4 POP PUSH1 0x80 DUP4 ADD MSTORE PUSH1 0xA0 DUP3 ADD MSTORE RETURN JUMPDEST PUSH4 0x4E487B71 PUSH1 0xE0 SHL DUP2 MSTORE PUSH1 0x21 DUP6 MSTORE PUSH1 0x24 SWAP1 REVERT JUMPDEST POP POP CALLVALUE PUSH2 0x128 JUMPI DUP2 PUSH1 0x3 NOT CALLDATASIZE ADD SLT PUSH2 0x128 JUMPI MLOAD PUSH32 0x0 PUSH1 0x1 PUSH1 0x1 PUSH1 0xA0 SHL SUB AND DUP2 MSTORE PUSH1 0x20 SWAP1 RETURN JUMPDEST DUP4 SWAP2 POP CALLVALUE PUSH2 0x128 JUMPI PUSH1 0x60 CALLDATASIZE PUSH1 0x3 NOT ADD SLT PUSH2 0x128 JUMPI PUSH2 0x697 PUSH2 0xD5E JUMP JUMPDEST PUSH1 0x24 SWAP4 DUP5 CALLDATALOAD SWAP3 PUSH1 0x44 CALLDATALOAD SWAP2 PUSH1 0x3 DUP4 LT ISZERO PUSH2 0x924 JUMPI PUSH1 0x1 PUSH1 0x1 PUSH1 0xA0 SHL SUB PUSH32 0x0 DUP2 AND SWAP5 CALLER DUP7 SWAP1 SUB PUSH2 0x8D6 JUMPI DUP7 ISZERO PUSH2 0x8C7 JUMPI DUP3 MLOAD SWAP6 PUSH4 0x23B872DD PUSH1 0xE0 SHL DUP8 MSTORE DUP5 DUP8 ADD MSTORE ADDRESS DUP10 DUP8 ADD MSTORE DUP7 PUSH1 0x44 DUP8 ADD MSTORE PUSH1 0x20 SWAP6 DUP7 DUP2 PUSH1 0x64 DUP2 DUP13 DUP8 PUSH32 0x0 AND GAS CALL SWAP1 DUP2 ISZERO PUSH2 0x8BD JUMPI DUP10 SWAP2 PUSH2 0x8A0 JUMPI JUMPDEST POP ISZERO PUSH2 0x891 JUMPI AND SWAP7 DUP8 ISZERO PUSH2 0x87D JUMPI PUSH2 0x756 DUP7 PUSH1 0x2 SLOAD PUSH2 0xE77 JUMP JUMPDEST PUSH1 0x2 SSTORE DUP8 DUP8 MSTORE DUP7 DUP6 MSTORE DUP2 DUP8 KECCAK256 DUP7 DUP2 SLOAD ADD SWAP1 SSTORE DUP8 DUP8 PUSH1 0x0 DUP1 MLOAD PUSH1 0x20 PUSH2 0xF3E DUP4 CODECOPY DUP2 MLOAD SWAP2 MSTORE DUP8 DUP6 MLOAD DUP11 DUP2 MSTORE LOG3 PUSH2 0x2710 PUSH2 0x7AD PUSH32 0x0 DUP9 PUSH2 0xEB2 JUMP JUMPDEST DUP4 MLOAD SWAP2 SWAP1 DIV SWAP9 SWAP1 SWAP6 PUSH1 0xC0 DUP8 ADD PUSH1 0x1 PUSH1 0x1 PUSH1 0x40 SHL SUB DUP2 GT DUP9 DUP3 LT OR PUSH2 0x86B JUMPI DUP5 MSTORE DUP8 DUP8 MSTORE DUP1 DUP8 ADD SWAP4 DUP10 DUP6 MSTORE PUSH1 0x6 DUP2 DUP10 ADD SWAP3 TIMESTAMP DUP5 MSTORE PUSH1 0x60 DUP11 ADD SWAP5 DUP13 DUP7 MSTORE PUSH1 0x80 DUP12 ADD SWAP10 DUP11 MSTORE PUSH1 0xA0 DUP12 ADD SWAP14 DUP15 MSTORE DUP13 MSTORE MSTORE DUP10 KECCAK256 SWAP7 MLOAD DUP8 SSTORE PUSH1 0x1 DUP8 ADD SWAP4 MLOAD ISZERO ISZERO SWAP4 PUSH1 0xFF NOT SWAP5 PUSH1 0xFF DUP7 DUP4 SLOAD AND SWAP2 AND OR SWAP1 SSTORE MLOAD PUSH1 0x2 DUP8 ADD SSTORE MLOAD PUSH1 0x3 DUP7 ADD SSTORE DUP3 DUP6 ADD SWAP4 MLOAD SWAP3 PUSH1 0x3 DUP5 LT ISZERO PUSH2 0x85A JUMPI POP POP SWAP2 PUSH2 0x854 SWAP6 SWAP7 SWAP2 PUSH1 0xFF PUSH1 0x5 SWAP5 DUP4 SLOAD AND SWAP2 AND OR SWAP1 SSTORE MLOAD SWAP2 ADD SSTORE PUSH1 0x5 SLOAD PUSH2 0xE77 JUMP JUMPDEST PUSH1 0x5 SSTORE DUP1 RETURN JUMPDEST PUSH4 0x4E487B71 PUSH1 0xE0 SHL DUP9 MSTORE PUSH1 0x21 SWAP1 MSTORE DUP7 REVERT JUMPDEST PUSH4 0x4E487B71 PUSH1 0xE0 SHL DUP11 MSTORE PUSH1 0x41 DUP7 MSTORE DUP4 DUP11 REVERT JUMPDEST DUP2 MLOAD PUSH4 0xEC442F05 PUSH1 0xE0 SHL DUP2 MSTORE DUP1 DUP5 ADD DUP9 SWAP1 MSTORE REVERT JUMPDEST POP POP MLOAD PUSH4 0x22E2581 PUSH1 0xE1 SHL DUP2 MSTORE REVERT JUMPDEST PUSH2 0x8B7 SWAP2 POP DUP8 RETURNDATASIZE DUP10 GT PUSH2 0x27C JUMPI PUSH2 0x26E DUP2 DUP4 PUSH2 0xD8F JUMP JUMPDEST DUP11 PUSH2 0x73C JUMP JUMPDEST DUP5 MLOAD RETURNDATASIZE DUP12 DUP3 RETURNDATACOPY RETURNDATASIZE SWAP1 REVERT JUMPDEST POP POP MLOAD PUSH4 0x162908E3 PUSH1 0xE1 SHL DUP2 MSTORE REVERT JUMPDEST DUP3 MLOAD PUSH3 0x461BCD PUSH1 0xE5 SHL DUP2 MSTORE PUSH1 0x20 DUP2 DUP7 ADD MSTORE PUSH1 0x23 DUP2 DUP12 ADD MSTORE PUSH32 0x43616C6C6572206973206E6F7420746865206F66666572696E6720636F6E7472 PUSH1 0x44 DUP3 ADD MSTORE PUSH3 0x1858DD PUSH1 0xEA SHL PUSH1 0x64 DUP3 ADD MSTORE PUSH1 0x84 SWAP1 REVERT JUMPDEST DUP6 DUP1 REVERT JUMPDEST SWAP2 SWAP1 POP CALLVALUE PUSH2 0x2EF JUMPI DUP3 PUSH1 0x3 NOT CALLDATASIZE ADD SLT PUSH2 0x2EF JUMPI PUSH32 0x0 TIMESTAMP LT PUSH2 0xA47 JUMPI CALLER DUP4 MSTORE PUSH1 0x6 PUSH1 0x20 MSTORE DUP1 DUP4 KECCAK256 PUSH1 0x1 DUP2 ADD PUSH1 0xFF DUP2 SLOAD AND PUSH2 0x2D1 JUMPI DUP2 SLOAD ISZERO PUSH2 0x2E0 JUMPI PUSH2 0x990 PUSH1 0xFF DUP6 DUP5 ADD SLOAD AND PUSH2 0xEED JUMP JUMPDEST DUP1 PUSH2 0xA1E JUMPI JUMPDEST POP PUSH2 0x9D8 SWAP2 PUSH1 0x20 SWAP2 CALLER DUP8 MSTORE DUP7 DUP4 MSTORE PUSH2 0x9B1 DUP6 DUP9 KECCAK256 SLOAD CALLER PUSH2 0xDC8 JUMP JUMPDEST DUP1 SLOAD PUSH1 0xFF NOT AND PUSH1 0x1 OR SWAP1 SSTORE SLOAD DUP4 MLOAD PUSH4 0xA9059CBB PUSH1 0xE0 SHL DUP2 MSTORE SWAP3 DUP4 SWAP2 DUP3 SWAP2 SWAP1 CALLER DUP9 DUP5 ADD PUSH2 0xED2 JUMP JUMPDEST SUB DUP2 DUP8 PUSH32 0x0 PUSH1 0x1 PUSH1 0x1 PUSH1 0xA0 SHL SUB AND GAS CALL SWAP1 DUP2 ISZERO PUSH2 0x283 JUMPI DUP5 SWAP2 PUSH2 0x255 JUMPI POP ISZERO PUSH2 0x248 JUMPI DUP3 DUP1 RETURN JUMPDEST PUSH2 0xA2C PUSH1 0x2 DUP5 ADD SLOAD TIMESTAMP PUSH2 0xEC5 JUMP JUMPDEST LT ISZERO PUSH2 0xA38 JUMPI CODESIZE PUSH2 0x996 JUMP JUMPDEST POP POP MLOAD PUSH4 0xAC48FF5 PUSH1 0xE4 SHL DUP2 MSTORE REVERT JUMPDEST MLOAD PUSH4 0x111C4409 PUSH1 0xE0 SHL DUP2 MSTORE REVERT JUMPDEST DUP4 SWAP1 CALLVALUE PUSH2 0x128 JUMPI PUSH1 0x20 CALLDATASIZE PUSH1 0x3 NOT ADD SLT PUSH2 0x128 JUMPI PUSH2 0x4E0 SWAP1 CALLDATALOAD CALLER PUSH2 0xDC8 JUMP JUMPDEST POP POP CALLVALUE PUSH2 0x128 JUMPI DUP2 PUSH1 0x3 NOT CALLDATASIZE ADD SLT PUSH2 0x128 JUMPI PUSH1 0x20 SWAP1 MLOAD PUSH1 0x12 DUP2 MSTORE RETURN JUMPDEST POP POP CALLVALUE PUSH2 0x128 JUMPI DUP2 PUSH1 0x3 NOT CALLDATASIZE ADD SLT PUSH2 0x128 JUMPI PUSH1 0x20 SWAP1 MLOAD PUSH32 0x0 DUP2 MSTORE RETURN JUMPDEST DUP3 DUP5 CALLVALUE PUSH2 0x3A0 JUMPI PUSH1 0x60 CALLDATASIZE PUSH1 0x3 NOT ADD SLT PUSH2 0x3A0 JUMPI POP PUSH2 0xAE5 PUSH2 0xD5E JUMP JUMPDEST POP PUSH2 0x392 PUSH2 0xD79 JUMP JUMPDEST POP POP CALLVALUE PUSH2 0x128 JUMPI DUP2 PUSH1 0x3 NOT CALLDATASIZE ADD SLT PUSH2 0x128 JUMPI MLOAD PUSH32 0x0 PUSH1 0x1 PUSH1 0x1 PUSH1 0xA0 SHL SUB AND DUP2 MSTORE PUSH1 0x20 SWAP1 RETURN JUMPDEST POP POP CALLVALUE PUSH2 0x128 JUMPI DUP2 PUSH1 0x3 NOT CALLDATASIZE ADD SLT PUSH2 0x128 JUMPI PUSH1 0x20 SWAP1 PUSH1 0x2 SLOAD SWAP1 MLOAD SWAP1 DUP2 MSTORE RETURN JUMPDEST SWAP1 POP CALLVALUE PUSH2 0x2EF JUMPI DUP2 PUSH1 0x3 NOT CALLDATASIZE ADD SLT PUSH2 0x2EF JUMPI PUSH2 0xB6B PUSH2 0xD5E JUMP JUMPDEST PUSH1 0x24 CALLDATALOAD SWAP1 CALLER ISZERO PUSH2 0xBE4 JUMPI PUSH1 0x1 PUSH1 0x1 PUSH1 0xA0 SHL SUB AND SWAP2 DUP3 ISZERO PUSH2 0xBCD JUMPI POP DUP1 DUP4 PUSH1 0x20 SWAP6 CALLER DUP2 MSTORE PUSH1 0x1 DUP8 MSTORE DUP2 DUP2 KECCAK256 DUP6 DUP3 MSTORE DUP8 MSTORE KECCAK256 SSTORE DUP3 MLOAD SWAP1 DUP2 MSTORE PUSH32 0x8C5BE1E5EBEC7D5BD14F71427D1E84F3DD0314C0F7B2291E5B200AC8C7C3B925 DUP5 CALLER SWAP3 LOG3 MLOAD PUSH1 0x1 DUP2 MSTORE RETURN JUMPDEST DUP4 MLOAD PUSH4 0x4A1406B1 PUSH1 0xE1 SHL DUP2 MSTORE SWAP1 DUP2 ADD DUP6 SWAP1 MSTORE PUSH1 0x24 SWAP1 REVERT JUMPDEST DUP4 MLOAD PUSH4 0xE602DF05 PUSH1 0xE0 SHL DUP2 MSTORE DUP1 DUP5 ADD DUP7 SWAP1 MSTORE PUSH1 0x24 SWAP1 REVERT JUMPDEST SWAP2 SWAP1 POP CALLVALUE PUSH2 0x2EF JUMPI DUP3 PUSH1 0x3 NOT CALLDATASIZE ADD SLT PUSH2 0x2EF JUMPI DUP1 MLOAD SWAP2 DUP4 PUSH1 0x3 SLOAD SWAP1 PUSH1 0x1 SWAP1 DUP3 DUP3 SHR SWAP3 DUP3 DUP2 AND DUP1 ISZERO PUSH2 0xCC8 JUMPI JUMPDEST PUSH1 0x20 SWAP6 DUP7 DUP7 LT DUP3 EQ PUSH2 0xCB5 JUMPI POP DUP5 DUP9 MSTORE SWAP1 DUP2 ISZERO PUSH2 0xC93 JUMPI POP PUSH1 0x1 EQ PUSH2 0xC58 JUMPI JUMPDEST PUSH2 0x409 DUP7 DUP7 PUSH2 0x3FF DUP3 DUP12 SUB DUP4 PUSH2 0xD8F JUMP JUMPDEST SWAP3 SWAP6 POP PUSH1 0x3 DUP4 MSTORE DUP6 DUP4 KECCAK256 JUMPDEST DUP3 DUP5 LT PUSH2 0xC80 JUMPI POP POP POP DUP3 PUSH2 0x409 SWAP5 PUSH2 0x3FF SWAP3 DUP3 ADD ADD SWAP5 CODESIZE PUSH2 0xC47 JUMP JUMPDEST DUP1 SLOAD DUP7 DUP6 ADD DUP9 ADD MSTORE SWAP3 DUP7 ADD SWAP3 DUP2 ADD PUSH2 0xC63 JUMP JUMPDEST PUSH1 0xFF NOT AND DUP8 DUP7 ADD MSTORE POP POP POP ISZERO ISZERO PUSH1 0x5 SHL DUP4 ADD ADD SWAP3 POP PUSH2 0x3FF DUP3 PUSH2 0x409 CODESIZE PUSH2 0xC47 JUMP JUMPDEST PUSH4 0x4E487B71 PUSH1 0xE0 SHL DUP5 MSTORE PUSH1 0x22 SWAP1 MSTORE PUSH1 0x24 DUP4 REVERT JUMPDEST SWAP4 PUSH1 0x7F AND SWAP4 PUSH2 0xC27 JUMP JUMPDEST DUP5 SWAP1 CALLVALUE PUSH2 0x128 JUMPI DUP2 PUSH1 0x3 NOT CALLDATASIZE ADD SLT PUSH2 0x128 JUMPI PUSH32 0x0 PUSH1 0x1 PUSH1 0x1 PUSH1 0xA0 SHL SUB AND DUP2 MSTORE PUSH1 0x20 SWAP1 RETURN JUMPDEST PUSH1 0x20 DUP1 DUP3 MSTORE DUP3 MLOAD DUP2 DUP4 ADD DUP2 SWAP1 MSTORE SWAP1 SWAP4 SWAP3 PUSH1 0x0 JUMPDEST DUP3 DUP2 LT PUSH2 0xD4A JUMPI POP POP PUSH1 0x40 SWAP3 SWAP4 POP PUSH1 0x0 DUP4 DUP3 DUP5 ADD ADD MSTORE PUSH1 0x1F DUP1 NOT SWAP2 ADD AND ADD ADD SWAP1 JUMP JUMPDEST DUP2 DUP2 ADD DUP7 ADD MLOAD DUP5 DUP3 ADD PUSH1 0x40 ADD MSTORE DUP6 ADD PUSH2 0xD28 JUMP JUMPDEST PUSH1 0x4 CALLDATALOAD SWAP1 PUSH1 0x1 PUSH1 0x1 PUSH1 0xA0 SHL SUB DUP3 AND DUP3 SUB PUSH2 0xD74 JUMPI JUMP JUMPDEST PUSH1 0x0 DUP1 REVERT JUMPDEST PUSH1 0x24 CALLDATALOAD SWAP1 PUSH1 0x1 PUSH1 0x1 PUSH1 0xA0 SHL SUB DUP3 AND DUP3 SUB PUSH2 0xD74 JUMPI JUMP JUMPDEST PUSH1 0x1F SWAP1 SWAP2 ADD PUSH1 0x1F NOT AND DUP2 ADD SWAP1 PUSH1 0x1 PUSH1 0x1 PUSH1 0x40 SHL SUB DUP3 GT SWAP1 DUP3 LT OR PUSH2 0xDB2 JUMPI PUSH1 0x40 MSTORE JUMP JUMPDEST PUSH4 0x4E487B71 PUSH1 0xE0 SHL PUSH1 0x0 MSTORE PUSH1 0x41 PUSH1 0x4 MSTORE PUSH1 0x24 PUSH1 0x0 REVERT JUMPDEST SWAP1 PUSH1 0x1 PUSH1 0x1 PUSH1 0xA0 SHL SUB DUP3 AND SWAP1 DUP2 ISZERO PUSH2 0xE40 JUMPI PUSH1 0x0 SWAP3 DUP3 DUP5 MSTORE DUP4 PUSH1 0x20 MSTORE PUSH1 0x40 DUP5 KECCAK256 SLOAD SWAP1 DUP3 DUP3 LT PUSH2 0xE23 JUMPI POP DUP2 PUSH1 0x0 DUP1 MLOAD PUSH1 0x20 PUSH2 0xF3E DUP4 CODECOPY DUP2 MLOAD SWAP2 MSTORE SWAP3 PUSH1 0x20 SWAP3 DUP6 DUP8 MSTORE DUP7 DUP5 MSTORE SUB PUSH1 0x40 DUP7 KECCAK256 SSTORE DUP1 PUSH1 0x2 SLOAD SUB PUSH1 0x2 SSTORE PUSH1 0x40 MLOAD SWAP1 DUP2 MSTORE LOG3 JUMP JUMPDEST PUSH2 0x569 DUP4 PUSH1 0x40 MLOAD SWAP4 DUP5 SWAP4 PUSH4 0x391434E3 PUSH1 0xE2 SHL DUP6 MSTORE PUSH1 0x4 DUP6 ADD PUSH2 0xE59 JUMP JUMPDEST PUSH1 0x40 MLOAD PUSH4 0x4B637E8F PUSH1 0xE1 SHL DUP2 MSTORE PUSH1 0x0 PUSH1 0x4 DUP3 ADD MSTORE PUSH1 0x24 SWAP1 REVERT JUMPDEST PUSH1 0x40 SWAP2 SWAP5 SWAP4 SWAP3 PUSH1 0x60 DUP3 ADD SWAP6 PUSH1 0x1 DUP1 PUSH1 0xA0 SHL SUB AND DUP3 MSTORE PUSH1 0x20 DUP3 ADD MSTORE ADD MSTORE JUMP JUMPDEST SWAP2 SWAP1 DUP3 ADD DUP1 SWAP3 GT PUSH2 0xE84 JUMPI JUMP JUMPDEST PUSH4 0x4E487B71 PUSH1 0xE0 SHL PUSH1 0x0 MSTORE PUSH1 0x11 PUSH1 0x4 MSTORE PUSH1 0x24 PUSH1 0x0 REVERT JUMPDEST SWAP1 DUP2 PUSH1 0x20 SWAP2 SUB SLT PUSH2 0xD74 JUMPI MLOAD DUP1 ISZERO ISZERO DUP2 SUB PUSH2 0xD74 JUMPI SWAP1 JUMP JUMPDEST DUP2 DUP2 MUL SWAP3 SWAP2 DUP2 ISZERO SWAP2 DUP5 DIV EQ OR ISZERO PUSH2 0xE84 JUMPI JUMP JUMPDEST SWAP2 SWAP1 DUP3 SUB SWAP2 DUP3 GT PUSH2 0xE84 JUMPI JUMP JUMPDEST PUSH1 0x1 PUSH1 0x1 PUSH1 0xA0 SHL SUB SWAP1 SWAP2 AND DUP2 MSTORE PUSH1 0x20 DUP2 ADD SWAP2 SWAP1 SWAP2 MSTORE PUSH1 0x40 ADD SWAP1 JUMP JUMPDEST PUSH1 0x3 DUP2 LT ISZERO PUSH2 0xF27 JUMPI DUP1 PUSH2 0xF03 JUMPI POP PUSH3 0x15180 SWAP1 JUMP JUMPDEST PUSH1 0x1 DUP2 SUB PUSH2 0xF13 JUMPI POP PUSH3 0x278D00 SWAP1 JUMP JUMPDEST PUSH1 0x2 EQ PUSH2 0xF1F JUMPI PUSH1 0x0 SWAP1 JUMP JUMPDEST PUSH4 0x1E13380 SWAP1 JUMP JUMPDEST PUSH4 0x4E487B71 PUSH1 0xE0 SHL PUSH1 0x0 MSTORE PUSH1 0x21 PUSH1 0x4 MSTORE PUSH1 0x24 PUSH1 0x0 REVERT INVALID 0xDD CALLCODE MSTORE 0xAD SHL 0xE2 0xC8 SWAP12 PUSH10 0xC2B068FC378DAA952BA7 CALL PUSH4 0xC4A11628 CREATE2 GAS 0x4D CREATE2 0x23 0xB3 0xEF LOG2 PUSH5 0x6970667358 0x22 SLT KECCAK256 MUL SWAP2 GASLIMIT 0x5D DUP14 0x4C PUSH31 0xDF5F905A81C8E1E45383BC1145A73A08A1AFE718DB0FC5E66B64736F6C6343 STOP ADDMOD EQ STOP CALLER 0x4D 0xD3 0x4C 0x1E DUP6 CODESIZE PUSH12 0x354EFED754DF3C56823235E0 PUSH6 0x3E32231C2448 0xE8 0xD3 0x27 DUP2 GASLIMIT 0xD0 DUP12 0xE0 SMOD SWAP13 MSTORE8 AND MSIZE EQ SGT PREVRANDAO 0xCD 0x1F 0xD0 LOG4 CALLCODE DUP5 NOT 0x49 PUSH32 0x9722A3DAAFE3B4186F6B6457E0A2646970667358221220746A3330130E246AB1 MSTORE8 DUP3 PUSH5 0x5BA0F6E8D7 ISZERO SWAP3 0xAD 0x2B 0xEE SWAP10 PUSH19 0xC183CCDF3CB8D9E164736F6C63430008140033 "},"methodIdentifiers":{"createOffering((address,uint256,uint256,uint256,uint256,uint256,bool,bool,uint256,uint256,address,address,address,address,uint256,uint8))":"3941bf52","createOfferingWithPaymentTokens((address,uint256,uint256,uint256,uint256,uint256,bool,bool,uint256,uint256,address,address,address,address,uint256,uint8,address[],address[]))":"e2976512","getAllOfferings()":"dc2a95bc","getOfferingAddress(uint256)":"ca18988a","getOfferingIdsByTokenOwner(address)":"2325d8e4","getOfferingOwner(address)":"79bf49b8","getUSDTConfig()":"577da058","offeringCount()":"71054962","offeringOwners(address)":"2187bbeb","offerings(uint256)":"e34fec1d","offeringsByTokenOwner(address,uint256)":"222bfe52","owner()":"8da5cb5b","renounceOwnership()":"715018a6","setUSDTConfig(address,address)":"40368db5","transferOwnership(address)":"f2fde38b","usdtAddress()":"9ab4a445","usdtOracleAddress()":"57878621"}}}}}