{"contracts/WrapedToken.sol":{"WRAPEDTOKEN":{"abi":[{"inputs":[{"components":[{"internalType":"string","name":"name","type":"string"},{"internalType":"string","name":"symbol","type":"string"},{"internalType":"address","name":"peggedToken","type":"address"},{"internalType":"address","name":"payoutToken","type":"address"},{"internalType":"uint256","name":"maturityDate","type":"uint256"},{"internalType":"uint256","name":"payoutRate","type":"uint256"},{"internalType":"address","name":"offeringContract","type":"address"}],"internalType":"struct WrapedTokenConfig","name":"config","type":"tuple"}],"stateMutability":"nonpayable","type":"constructor"},{"inputs":[],"name":"AlreadyClaimed","type":"error"},{"inputs":[],"name":"AlreadyMatured","type":"error"},{"inputs":[{"internalType":"address","name":"spender","type":"address"},{"internalType":"uint256","name":"allowance","type":"uint256"},{"internalType":"uint256","name":"needed","type":"uint256"}],"name":"ERC20InsufficientAllowance","type":"error"},{"inputs":[{"internalType":"address","name":"sender","type":"address"},{"internalType":"uint256","name":"balance","type":"uint256"},{"internalType":"uint256","name":"needed","type":"uint256"}],"name":"ERC20InsufficientBalance","type":"error"},{"inputs":[{"internalType":"address","name":"approver","type":"address"}],"name":"ERC20InvalidApprover","type":"error"},{"inputs":[{"internalType":"address","name":"receiver","type":"address"}],"name":"ERC20InvalidReceiver","type":"error"},{"inputs":[{"internalType":"address","name":"sender","type":"address"}],"name":"ERC20InvalidSender","type":"error"},{"inputs":[{"internalType":"address","name":"spender","type":"address"}],"name":"ERC20InvalidSpender","type":"error"},{"inputs":[],"name":"InvalidAmount","type":"error"},{"inputs":[],"name":"InvalidStablecoin","type":"error"},{"inputs":[],"name":"NoDeposit","type":"error"},{"inputs":[],"name":"NoPayoutDue","type":"error"},{"inputs":[],"name":"NoTransfersAllowed","type":"error"},{"inputs":[],"name":"NotMatured","type":"error"},{"inputs":[],"name":"PayoutPeriodNotElapsed","type":"error"},{"inputs":[],"name":"TokenTransferFailed","type":"error"},{"anonymous":false,"inputs":[{"indexed":true,"internalType":"address","name":"owner","type":"address"},{"indexed":true,"internalType":"address","name":"spender","type":"address"},{"indexed":false,"internalType":"uint256","name":"value","type":"uint256"}],"name":"Approval","type":"event"},{"anonymous":false,"inputs":[{"indexed":true,"internalType":"address","name":"from","type":"address"},{"indexed":true,"internalType":"address","name":"to","type":"address"},{"indexed":false,"internalType":"uint256","name":"value","type":"uint256"}],"name":"Transfer","type":"event"},{"inputs":[{"internalType":"address","name":"owner","type":"address"},{"internalType":"address","name":"spender","type":"address"}],"name":"allowance","outputs":[{"internalType":"uint256","name":"","type":"uint256"}],"stateMutability":"view","type":"function"},{"inputs":[{"internalType":"address","name":"spender","type":"address"},{"internalType":"uint256","name":"value","type":"uint256"}],"name":"approve","outputs":[{"internalType":"bool","name":"","type":"bool"}],"stateMutability":"nonpayable","type":"function"},{"inputs":[{"internalType":"address","name":"account","type":"address"}],"name":"balanceOf","outputs":[{"internalType":"uint256","name":"","type":"uint256"}],"stateMutability":"view","type":"function"},{"inputs":[{"internalType":"uint256","name":"value","type":"uint256"}],"name":"burn","outputs":[],"stateMutability":"nonpayable","type":"function"},{"inputs":[{"internalType":"address","name":"account","type":"address"},{"internalType":"uint256","name":"value","type":"uint256"}],"name":"burnFrom","outputs":[],"stateMutability":"nonpayable","type":"function"},{"inputs":[],"name":"claimFinalTokens","outputs":[],"stateMutability":"nonpayable","type":"function"},{"inputs":[],"name":"claimPayout","outputs":[],"stateMutability":"nonpayable","type":"function"},{"inputs":[],"name":"decimals","outputs":[{"internalType":"uint8","name":"","type":"uint8"}],"stateMutability":"view","type":"function"},{"inputs":[{"internalType":"address","name":"","type":"address"}],"name":"investors","outputs":[{"internalType":"uint256","name":"deposited","type":"uint256"},{"internalType":"bool","name":"hasClaimedTokens","type":"bool"},{"internalType":"uint256","name":"lastPayoutTime","type":"uint256"},{"internalType":"uint256","name":"totalPayoutsClaimed","type":"uint256"},{"internalType":"enum WRAPEDTOKEN.PayoutFrequency","name":"payoutFrequency","type":"uint8"},{"internalType":"uint256","name":"payoutAmountPerPeriod","type":"uint256"}],"stateMutability":"view","type":"function"},{"inputs":[],"name":"maturityDate","outputs":[{"internalType":"uint256","name":"","type":"uint256"}],"stateMutability":"view","type":"function"},{"inputs":[],"name":"name","outputs":[{"internalType":"string","name":"","type":"string"}],"stateMutability":"view","type":"function"},{"inputs":[],"name":"offeringContract","outputs":[{"internalType":"address","name":"","type":"address"}],"stateMutability":"view","type":"function"},{"inputs":[],"name":"payoutRate","outputs":[{"internalType":"uint256","name":"","type":"uint256"}],"stateMutability":"view","type":"function"},{"inputs":[],"name":"payoutToken","outputs":[{"internalType":"contract IERC20","name":"","type":"address"}],"stateMutability":"view","type":"function"},{"inputs":[],"name":"peggedToken","outputs":[{"internalType":"contract IERC20","name":"","type":"address"}],"stateMutability":"view","type":"function"},{"inputs":[{"internalType":"address","name":"_user","type":"address"},{"internalType":"uint256","name":"amount","type":"uint256"},{"internalType":"enum WRAPEDTOKEN.PayoutFrequency","name":"_payoutFrequency","type":"uint8"}],"name":"registerInvestment","outputs":[],"stateMutability":"nonpayable","type":"function"},{"inputs":[],"name":"symbol","outputs":[{"internalType":"string","name":"","type":"string"}],"stateMutability":"view","type":"function"},{"inputs":[],"name":"totalEscrowed","outputs":[{"internalType":"uint256","name":"","type":"uint256"}],"stateMutability":"view","type":"function"},{"inputs":[],"name":"totalSupply","outputs":[{"internalType":"uint256","name":"","type":"uint256"}],"stateMutability":"view","type":"function"},{"inputs":[{"internalType":"address","name":"","type":"address"},{"internalType":"uint256","name":"","type":"uint256"}],"name":"transfer","outputs":[{"internalType":"bool","name":"","type":"bool"}],"stateMutability":"pure","type":"function"},{"inputs":[{"internalType":"address","name":"","type":"address"},{"internalType":"address","name":"","type":"address"},{"internalType":"uint256","name":"","type":"uint256"}],"name":"transferFrom","outputs":[{"internalType":"bool","name":"","type":"bool"}],"stateMutability":"pure","type":"function"}],"evm":{"bytecode":{"linkReferences":{},"object":"6040610120815234620004bb576200150190813803806200002081620004c0565b938439820191602081840312620004bb578051906001600160401b038211620004bb570160e081840312620004bb5781519260e084016001600160401b038111858210176200039257835281516001600160401b038111620004bb57816200008a918401620004e6565b84526020820151906001600160401b038211620004bb57620000ae918301620004e6565b92836020820152620000c283830162000558565b83820152620000d46060830162000558565b6060820152608082015191608082019283526200010060c060a08301519260a085019384520162000558565b60c0830152815180516001600160401b038111620003925760035491600183811c93168015620004b0575b60208410146200049a578190601f9384811162000443575b50602090848311600114620003b457600092620003a8575b50508160011b916000199060031b1c1916176003555b8551906001600160401b03821162000392576004968754600181811c9116801562000387575b602082101462000372579081838594931162000319575b506020918311600114620002ae57600092620002a2575b50508160011b916000199060031b1c19161785555b818401516001600160a01b039390841615801562000293575b62000283578483015184166080526060830151841660a0525160c0908152905160e0520151166101009081529051610f9391826200056e833960805182818161070c015281816109dd0152610ce6015260a051828181610206015261064c015260c051828181610354015261093d015260e0518281816107880152610aa60152518181816106b40152610b030152f35b8451632945604560e11b81528690fd5b508360608401511615620001f3565b015190503880620001c5565b6000898152602081209350601f198516905b818110620003005750908460019594939210620002e6575b505050811b018555620001da565b015160001960f88460031b161c19169055388080620002d8565b92936020600181928786015181550195019301620002c0565b909192508860005260206000208380860160051c8201926020871062000368575b94869594939291940160051c01905b818110620003585750620001ae565b6000815585945060010162000349565b925081926200033a565b602289634e487b7160e01b6000525260246000fd5b90607f169062000197565b634e487b7160e01b600052604160045260246000fd5b0151905038806200015b565b6003600090815293507fc2575a0e9e593c00f959f8c92f12db2869c3395a3b0502d05e2516446f71f85b91905b601f198416851062000427576001945083601f198116106200040d575b505050811b0160035562000171565b015160001960f88460031b161c19169055388080620003fe565b81810151835560209485019460019093019290910190620003e1565b909150600360005260206000208480850160051c8201926020861062000490575b9085949392910160051c01905b81811062000480575062000143565b6000815584935060010162000471565b9250819262000464565b634e487b7160e01b600052602260045260246000fd5b92607f16926200012b565b600080fd5b6040519190601f01601f191682016001600160401b038111838210176200039257604052565b919080601f84011215620004bb5782516001600160401b03811162000392576020906200051c601f8201601f19168301620004c0565b92818452828287010111620004bb5760005b8181106200054457508260009394955001015290565b85810183015184820184015282016200052e565b51906001600160a01b0382168203620004bb5756fe608060408181526004918236101561001657600080fd5b600092833560e01c918262e77aa614610cd25750816306fdde0314610bfb578163095ea7b314610b5157816318160ddd14610b325781631a4f94f714610aee57816323b872dd14610ac95781632b4353f214610a8e578163313ce56714610a7257816342966c6814610a54578163464f0b0d1461092857816348e8a9491461067b5781634efa82b6146106375781636f7bc9be146105a457816370a082311461056d57816379cc67901461048957816395d89b41146103a3578163a9059cbb14610377578163d59624b41461033c578163dd62ed3e146102f3578163e88499a91461012c575063f91682311461010b57600080fd5b346101285781600319360112610128576020906005549051908152f35b5080fd5b919050346102ef57826003193601126102ef573383526006602052808320805480156102e05760ff6001830154166102d15761016d60ff8584015416610eed565b9081156102c1576002830180546101848142610ec5565b8481106102b15784900493600361019f600588015487610eb2565b960194855494806101b08988610e77565b1161029d575b50861561028d5793602095936101df6101e6946101d98a98956102019b96610eb2565b90610e77565b9055610e77565b905583518093819263a9059cbb60e01b835233888401610ed2565b0381877f00000000000000000000000000000000000000000000000000000000000000006001600160a01b03165af1908115610283578491610255575b5015610248578280f35b5163022e258160e11b8152fd5b610276915060203d811161027c575b61026e8183610d8f565b810190610e9a565b3861023e565b503d610264565b82513d86823e3d90fd5b8751630ac48ff560e41b81528990fd5b6102aa9197508590610ec5565b95386101b6565b865163b477c7b160e01b81528890fd5b50505051630ac48ff560e41b8152fd5b505051630c8d9eab60e31b8152fd5b505051633a6a68b160e01b8152fd5b8280fd5b50503461012857806003193601126101285780602092610311610d5e565b610319610d79565b6001600160a01b0391821683526001865283832091168252845220549051908152f35b505034610128578160031936011261012857602090517f00000000000000000000000000000000000000000000000000000000000000008152f35b8284346103a057816003193601126103a05750610392610d5e565b5051631de81c7b60e01b8152fd5b80fd5b838334610128578160031936011261012857805191809380549160019083821c9282851694851561047f575b602095868610811461046c57858952908115610448575060011461040d575b61040987876103ff828c0383610d8f565b5191829182610d15565b0390f35b9080949750528583205b8284106104355750505082610409946103ff928201019486806103ee565b8054868501880152928601928101610417565b60ff19168887015250505050151560051b83010192506103ff8261040986806103ee565b634e487b7160e01b845260228352602484fd5b93607f16936103cf565b839150346101285782600319360112610128576104a4610d5e565b6001600160a01b038116808452600160209081528585203386529052848420546024359390919060001983106104e3575b856104e08686610dc8565b80f35b84831061054b57811561053457331561051d575084959184916104e0965260016020528287203388526020520390852055839285806104d5565b8651634a1406b160e11b8152908101869052602490fd5b865163e602df0560e01b8152908101869052602490fd5b9050610569848751938493637dc7a0d960e11b855233908501610e59565b0390fd5b5050346101285760203660031901126101285760209181906001600160a01b03610595610d5e565b16815280845220549051908152f35b838334610128576020366003190112610128576001600160a01b036105c7610d5e565b168252600660205280822080549260ff600183015416926002830154600384015491600560ff89870154169501549581519788521515602088015286015260608501526003821015610624575060c09350608083015260a0820152f35b634e487b7160e01b815260218552602490fd5b505034610128578160031936011261012857517f00000000000000000000000000000000000000000000000000000000000000006001600160a01b03168152602090f35b8391503461012857606036600319011261012857610697610d5e565b602493843592604435916003831015610924576001600160a01b037f0000000000000000000000000000000000000000000000000000000000000000811694338690036108d65786156108c7578251956323b872dd60e01b875284870152308987015286604487015260209586816064818c877f0000000000000000000000000000000000000000000000000000000000000000165af19081156108bd5789916108a0575b5015610891571696871561087d5761075686600254610e77565b6002558787528685528187208681540190558787600080516020610f3e8339815191528785518a8152a36127106107ad7f000000000000000000000000000000000000000000000000000000000000000088610eb2565b835191900498909560c087016001600160401b0381118882101761086b5784528787528087019389855260068189019242845260608a01948c865260808b01998a5260a08b019d8e528c525289209651875560018701935115159360ff199460ff868354169116179055516002870155516003860155828501935192600384101561085a5750509161085495969160ff600594835416911617905551910155600554610e77565b60055580f35b634e487b7160e01b88526021905286fd5b634e487b7160e01b8a5260418652838afd5b815163ec442f0560e01b8152808401889052fd5b50505163022e258160e11b8152fd5b6108b79150873d891161027c5761026e8183610d8f565b8a61073c565b84513d8b823e3d90fd5b50505163162908e360e11b8152fd5b825162461bcd60e51b81526020818601526023818b01527f43616c6c6572206973206e6f7420746865206f66666572696e6720636f6e74726044820152621858dd60ea1b6064820152608490fd5b8580fd5b919050346102ef57826003193601126102ef577f00000000000000000000000000000000000000000000000000000000000000004210610a475733835260066020528083206001810160ff8154166102d1578154156102e05761099060ff8584015416610eed565b80610a1e575b506109d8916020913387528683526109b18588205433610dc8565b805460ff1916600117905554835163a9059cbb60e01b815292839182919033888401610ed2565b0381877f00000000000000000000000000000000000000000000000000000000000000006001600160a01b03165af1908115610283578491610255575015610248578280f35b610a2c600284015442610ec5565b1015610a385738610996565b505051630ac48ff560e41b8152fd5b5163111c440960e01b8152fd5b839034610128576020366003190112610128576104e0903533610dc8565b5050346101285781600319360112610128576020905160128152f35b505034610128578160031936011261012857602090517f00000000000000000000000000000000000000000000000000000000000000008152f35b8284346103a05760603660031901126103a05750610ae5610d5e565b50610392610d79565b505034610128578160031936011261012857517f00000000000000000000000000000000000000000000000000000000000000006001600160a01b03168152602090f35b5050346101285781600319360112610128576020906002549051908152f35b9050346102ef57816003193601126102ef57610b6b610d5e565b602435903315610be4576001600160a01b0316918215610bcd57508083602095338152600187528181208582528752205582519081527f8c5be1e5ebec7d5bd14f71427d1e84f3dd0314c0f7b2291e5b200ac8c7c3b925843392a35160018152f35b8351634a1406b160e11b8152908101859052602490fd5b835163e602df0560e01b8152808401869052602490fd5b919050346102ef57826003193601126102ef57805191836003549060019082821c928281168015610cc8575b6020958686108214610cb55750848852908115610c935750600114610c58575b61040986866103ff828b0383610d8f565b929550600383528583205b828410610c805750505082610409946103ff928201019438610c47565b8054868501880152928601928101610c63565b60ff191687860152505050151560051b83010192506103ff8261040938610c47565b634e487b7160e01b845260229052602483fd5b93607f1693610c27565b8490346101285781600319360112610128577f00000000000000000000000000000000000000000000000000000000000000006001600160a01b03168152602090f35b6020808252825181830181905290939260005b828110610d4a57505060409293506000838284010152601f8019910116010190565b818101860151848201604001528501610d28565b600435906001600160a01b0382168203610d7457565b600080fd5b602435906001600160a01b0382168203610d7457565b601f909101601f19168101906001600160401b03821190821017610db257604052565b634e487b7160e01b600052604160045260246000fd5b906001600160a01b038216908115610e405760009282845283602052604084205490828210610e23575081600080516020610f3e833981519152926020928587528684520360408620558060025403600255604051908152a3565b6105698360405193849363391434e360e21b855260048501610e59565b604051634b637e8f60e11b815260006004820152602490fd5b604091949392606082019560018060a01b0316825260208201520152565b91908201809211610e8457565b634e487b7160e01b600052601160045260246000fd5b90816020910312610d7457518015158103610d745790565b81810292918115918404141715610e8457565b91908203918211610e8457565b6001600160a01b039091168152602081019190915260400190565b6003811015610f275780610f0357506201518090565b60018103610f13575062278d0090565b600214610f1f57600090565b6301e1338090565b634e487b7160e01b600052602160045260246000fdfeddf252ad1be2c89b69c2b068fc378daa952ba7f163c4a11628f55a4df523b3efa26469706673582212200291455d8d4c7edf5f905a81c8e1e45383bc1145a73a08a1afe718db0fc5e66b64736f6c63430008140033","opcodes":"PUSH1 0x40 PUSH2 0x120 DUP2 MSTORE CALLVALUE PUSH3 0x4BB JUMPI PUSH3 0x1501 SWAP1 DUP2 CODESIZE SUB DUP1 PUSH3 0x20 DUP2 PUSH3 0x4C0 JUMP JUMPDEST SWAP4 DUP5 CODECOPY DUP3 ADD SWAP2 PUSH1 0x20 DUP2 DUP5 SUB SLT PUSH3 0x4BB JUMPI DUP1 MLOAD SWAP1 PUSH1 0x1 PUSH1 0x1 PUSH1 0x40 SHL SUB DUP3 GT PUSH3 0x4BB JUMPI ADD PUSH1 0xE0 DUP2 DUP5 SUB SLT PUSH3 0x4BB JUMPI DUP2 MLOAD SWAP3 PUSH1 0xE0 DUP5 ADD PUSH1 0x1 PUSH1 0x1 PUSH1 0x40 SHL SUB DUP2 GT DUP6 DUP3 LT OR PUSH3 0x392 JUMPI DUP4 MSTORE DUP2 MLOAD PUSH1 0x1 PUSH1 0x1 PUSH1 0x40 SHL SUB DUP2 GT PUSH3 0x4BB JUMPI DUP2 PUSH3 0x8A SWAP2 DUP5 ADD PUSH3 0x4E6 JUMP JUMPDEST DUP5 MSTORE PUSH1 0x20 DUP3 ADD MLOAD SWAP1 PUSH1 0x1 PUSH1 0x1 PUSH1 0x40 SHL SUB DUP3 GT PUSH3 0x4BB JUMPI PUSH3 0xAE SWAP2 DUP4 ADD PUSH3 0x4E6 JUMP JUMPDEST SWAP3 DUP4 PUSH1 0x20 DUP3 ADD MSTORE PUSH3 0xC2 DUP4 DUP4 ADD PUSH3 0x558 JUMP JUMPDEST DUP4 DUP3 ADD MSTORE PUSH3 0xD4 PUSH1 0x60 DUP4 ADD PUSH3 0x558 JUMP JUMPDEST PUSH1 0x60 DUP3 ADD MSTORE PUSH1 0x80 DUP3 ADD MLOAD SWAP2 PUSH1 0x80 DUP3 ADD SWAP3 DUP4 MSTORE PUSH3 0x100 PUSH1 0xC0 PUSH1 0xA0 DUP4 ADD MLOAD SWAP3 PUSH1 0xA0 DUP6 ADD SWAP4 DUP5 MSTORE ADD PUSH3 0x558 JUMP JUMPDEST PUSH1 0xC0 DUP4 ADD MSTORE DUP2 MLOAD DUP1 MLOAD PUSH1 0x1 PUSH1 0x1 PUSH1 0x40 SHL SUB DUP2 GT PUSH3 0x392 JUMPI PUSH1 0x3 SLOAD SWAP2 PUSH1 0x1 DUP4 DUP2 SHR SWAP4 AND DUP1 ISZERO PUSH3 0x4B0 JUMPI JUMPDEST PUSH1 0x20 DUP5 LT EQ PUSH3 0x49A JUMPI DUP2 SWAP1 PUSH1 0x1F SWAP4 DUP5 DUP2 GT PUSH3 0x443 JUMPI JUMPDEST POP PUSH1 0x20 SWAP1 DUP5 DUP4 GT PUSH1 0x1 EQ PUSH3 0x3B4 JUMPI PUSH1 0x0 SWAP3 PUSH3 0x3A8 JUMPI JUMPDEST POP POP DUP2 PUSH1 0x1 SHL SWAP2 PUSH1 0x0 NOT SWAP1 PUSH1 0x3 SHL SHR NOT AND OR PUSH1 0x3 SSTORE JUMPDEST DUP6 MLOAD SWAP1 PUSH1 0x1 PUSH1 0x1 PUSH1 0x40 SHL SUB DUP3 GT PUSH3 0x392 JUMPI PUSH1 0x4 SWAP7 DUP8 SLOAD PUSH1 0x1 DUP2 DUP2 SHR SWAP2 AND DUP1 ISZERO PUSH3 0x387 JUMPI JUMPDEST PUSH1 0x20 DUP3 LT EQ PUSH3 0x372 JUMPI SWAP1 DUP2 DUP4 DUP6 SWAP5 SWAP4 GT PUSH3 0x319 JUMPI JUMPDEST POP PUSH1 0x20 SWAP2 DUP4 GT PUSH1 0x1 EQ PUSH3 0x2AE JUMPI PUSH1 0x0 SWAP3 PUSH3 0x2A2 JUMPI JUMPDEST POP POP DUP2 PUSH1 0x1 SHL SWAP2 PUSH1 0x0 NOT SWAP1 PUSH1 0x3 SHL SHR NOT AND OR DUP6 SSTORE JUMPDEST DUP2 DUP5 ADD MLOAD PUSH1 0x1 PUSH1 0x1 PUSH1 0xA0 SHL SUB SWAP4 SWAP1 DUP5 AND ISZERO DUP1 ISZERO PUSH3 0x293 JUMPI JUMPDEST PUSH3 0x283 JUMPI DUP5 DUP4 ADD MLOAD DUP5 AND PUSH1 0x80 MSTORE PUSH1 0x60 DUP4 ADD MLOAD DUP5 AND PUSH1 0xA0 MSTORE MLOAD PUSH1 0xC0 SWAP1 DUP2 MSTORE SWAP1 MLOAD PUSH1 0xE0 MSTORE ADD MLOAD AND PUSH2 0x100 SWAP1 DUP2 MSTORE SWAP1 MLOAD PUSH2 0xF93 SWAP2 DUP3 PUSH3 0x56E DUP4 CODECOPY PUSH1 0x80 MLOAD DUP3 DUP2 DUP2 PUSH2 0x70C ADD MSTORE DUP2 DUP2 PUSH2 0x9DD ADD MSTORE PUSH2 0xCE6 ADD MSTORE PUSH1 0xA0 MLOAD DUP3 DUP2 DUP2 PUSH2 0x206 ADD MSTORE PUSH2 0x64C ADD MSTORE PUSH1 0xC0 MLOAD DUP3 DUP2 DUP2 PUSH2 0x354 ADD MSTORE PUSH2 0x93D ADD MSTORE PUSH1 0xE0 MLOAD DUP3 DUP2 DUP2 PUSH2 0x788 ADD MSTORE PUSH2 0xAA6 ADD MSTORE MLOAD DUP2 DUP2 DUP2 PUSH2 0x6B4 ADD MSTORE PUSH2 0xB03 ADD MSTORE RETURN JUMPDEST DUP5 MLOAD PUSH4 0x29456045 PUSH1 0xE1 SHL DUP2 MSTORE DUP7 SWAP1 REVERT JUMPDEST POP DUP4 PUSH1 0x60 DUP5 ADD MLOAD AND ISZERO PUSH3 0x1F3 JUMP JUMPDEST ADD MLOAD SWAP1 POP CODESIZE DUP1 PUSH3 0x1C5 JUMP JUMPDEST PUSH1 0x0 DUP10 DUP2 MSTORE PUSH1 0x20 DUP2 KECCAK256 SWAP4 POP PUSH1 0x1F NOT DUP6 AND SWAP1 JUMPDEST DUP2 DUP2 LT PUSH3 0x300 JUMPI POP SWAP1 DUP5 PUSH1 0x1 SWAP6 SWAP5 SWAP4 SWAP3 LT PUSH3 0x2E6 JUMPI JUMPDEST POP POP POP DUP2 SHL ADD DUP6 SSTORE PUSH3 0x1DA JUMP JUMPDEST ADD MLOAD PUSH1 0x0 NOT PUSH1 0xF8 DUP5 PUSH1 0x3 SHL AND SHR NOT AND SWAP1 SSTORE CODESIZE DUP1 DUP1 PUSH3 0x2D8 JUMP JUMPDEST SWAP3 SWAP4 PUSH1 0x20 PUSH1 0x1 DUP2 SWAP3 DUP8 DUP7 ADD MLOAD DUP2 SSTORE ADD SWAP6 ADD SWAP4 ADD PUSH3 0x2C0 JUMP JUMPDEST SWAP1 SWAP2 SWAP3 POP DUP9 PUSH1 0x0 MSTORE PUSH1 0x20 PUSH1 0x0 KECCAK256 DUP4 DUP1 DUP7 ADD PUSH1 0x5 SHR DUP3 ADD SWAP3 PUSH1 0x20 DUP8 LT PUSH3 0x368 JUMPI JUMPDEST SWAP5 DUP7 SWAP6 SWAP5 SWAP4 SWAP3 SWAP2 SWAP5 ADD PUSH1 0x5 SHR ADD SWAP1 JUMPDEST DUP2 DUP2 LT PUSH3 0x358 JUMPI POP PUSH3 0x1AE JUMP JUMPDEST PUSH1 0x0 DUP2 SSTORE DUP6 SWAP5 POP PUSH1 0x1 ADD PUSH3 0x349 JUMP JUMPDEST SWAP3 POP DUP2 SWAP3 PUSH3 0x33A JUMP JUMPDEST PUSH1 0x22 DUP10 PUSH4 0x4E487B71 PUSH1 0xE0 SHL PUSH1 0x0 MSTORE MSTORE PUSH1 0x24 PUSH1 0x0 REVERT JUMPDEST SWAP1 PUSH1 0x7F AND SWAP1 PUSH3 0x197 JUMP JUMPDEST PUSH4 0x4E487B71 PUSH1 0xE0 SHL PUSH1 0x0 MSTORE PUSH1 0x41 PUSH1 0x4 MSTORE PUSH1 0x24 PUSH1 0x0 REVERT JUMPDEST ADD MLOAD SWAP1 POP CODESIZE DUP1 PUSH3 0x15B JUMP JUMPDEST PUSH1 0x3 PUSH1 0x0 SWAP1 DUP2 MSTORE SWAP4 POP PUSH32 0xC2575A0E9E593C00F959F8C92F12DB2869C3395A3B0502D05E2516446F71F85B SWAP2 SWAP1 JUMPDEST PUSH1 0x1F NOT DUP5 AND DUP6 LT PUSH3 0x427 JUMPI PUSH1 0x1 SWAP5 POP DUP4 PUSH1 0x1F NOT DUP2 AND LT PUSH3 0x40D JUMPI JUMPDEST POP POP POP DUP2 SHL ADD PUSH1 0x3 SSTORE PUSH3 0x171 JUMP JUMPDEST ADD MLOAD PUSH1 0x0 NOT PUSH1 0xF8 DUP5 PUSH1 0x3 SHL AND SHR NOT AND SWAP1 SSTORE CODESIZE DUP1 DUP1 PUSH3 0x3FE JUMP JUMPDEST DUP2 DUP2 ADD MLOAD DUP4 SSTORE PUSH1 0x20 SWAP5 DUP6 ADD SWAP5 PUSH1 0x1 SWAP1 SWAP4 ADD SWAP3 SWAP1 SWAP2 ADD SWAP1 PUSH3 0x3E1 JUMP JUMPDEST SWAP1 SWAP2 POP PUSH1 0x3 PUSH1 0x0 MSTORE PUSH1 0x20 PUSH1 0x0 KECCAK256 DUP5 DUP1 DUP6 ADD PUSH1 0x5 SHR DUP3 ADD SWAP3 PUSH1 0x20 DUP7 LT PUSH3 0x490 JUMPI JUMPDEST SWAP1 DUP6 SWAP5 SWAP4 SWAP3 SWAP2 ADD PUSH1 0x5 SHR ADD SWAP1 JUMPDEST DUP2 DUP2 LT PUSH3 0x480 JUMPI POP PUSH3 0x143 JUMP JUMPDEST PUSH1 0x0 DUP2 SSTORE DUP5 SWAP4 POP PUSH1 0x1 ADD PUSH3 0x471 JUMP JUMPDEST SWAP3 POP DUP2 SWAP3 PUSH3 0x464 JUMP JUMPDEST PUSH4 0x4E487B71 PUSH1 0xE0 SHL PUSH1 0x0 MSTORE PUSH1 0x22 PUSH1 0x4 MSTORE PUSH1 0x24 PUSH1 0x0 REVERT JUMPDEST SWAP3 PUSH1 0x7F AND SWAP3 PUSH3 0x12B JUMP JUMPDEST PUSH1 0x0 DUP1 REVERT JUMPDEST PUSH1 0x40 MLOAD SWAP2 SWAP1 PUSH1 0x1F ADD PUSH1 0x1F NOT AND DUP3 ADD PUSH1 0x1 PUSH1 0x1 PUSH1 0x40 SHL SUB DUP2 GT DUP4 DUP3 LT OR PUSH3 0x392 JUMPI PUSH1 0x40 MSTORE JUMP JUMPDEST SWAP2 SWAP1 DUP1 PUSH1 0x1F DUP5 ADD SLT ISZERO PUSH3 0x4BB JUMPI DUP3 MLOAD PUSH1 0x1 PUSH1 0x1 PUSH1 0x40 SHL SUB DUP2 GT PUSH3 0x392 JUMPI PUSH1 0x20 SWAP1 PUSH3 0x51C PUSH1 0x1F DUP3 ADD PUSH1 0x1F NOT AND DUP4 ADD PUSH3 0x4C0 JUMP JUMPDEST SWAP3 DUP2 DUP5 MSTORE DUP3 DUP3 DUP8 ADD ADD GT PUSH3 0x4BB JUMPI PUSH1 0x0 JUMPDEST DUP2 DUP2 LT PUSH3 0x544 JUMPI POP DUP3 PUSH1 0x0 SWAP4 SWAP5 SWAP6 POP ADD ADD MSTORE SWAP1 JUMP JUMPDEST DUP6 DUP2 ADD DUP4 ADD MLOAD DUP5 DUP3 ADD DUP5 ADD MSTORE DUP3 ADD PUSH3 0x52E JUMP JUMPDEST MLOAD SWAP1 PUSH1 0x1 PUSH1 0x1 PUSH1 0xA0 SHL SUB DUP3 AND DUP3 SUB PUSH3 0x4BB JUMPI JUMP INVALID PUSH1 0x80 PUSH1 0x40 DUP2 DUP2 MSTORE PUSH1 0x4 SWAP2 DUP3 CALLDATASIZE LT ISZERO PUSH2 0x16 JUMPI PUSH1 0x0 DUP1 REVERT JUMPDEST PUSH1 0x0 SWAP3 DUP4 CALLDATALOAD PUSH1 0xE0 SHR SWAP2 DUP3 PUSH3 0xE77AA6 EQ PUSH2 0xCD2 JUMPI POP DUP2 PUSH4 0x6FDDE03 EQ PUSH2 0xBFB JUMPI DUP2 PUSH4 0x95EA7B3 EQ PUSH2 0xB51 JUMPI DUP2 PUSH4 0x18160DDD EQ PUSH2 0xB32 JUMPI DUP2 PUSH4 0x1A4F94F7 EQ PUSH2 0xAEE JUMPI DUP2 PUSH4 0x23B872DD EQ PUSH2 0xAC9 JUMPI DUP2 PUSH4 0x2B4353F2 EQ PUSH2 0xA8E JUMPI DUP2 PUSH4 0x313CE567 EQ PUSH2 0xA72 JUMPI DUP2 PUSH4 0x42966C68 EQ PUSH2 0xA54 JUMPI DUP2 PUSH4 0x464F0B0D EQ PUSH2 0x928 JUMPI DUP2 PUSH4 0x48E8A949 EQ PUSH2 0x67B JUMPI DUP2 PUSH4 0x4EFA82B6 EQ PUSH2 0x637 JUMPI DUP2 PUSH4 0x6F7BC9BE EQ PUSH2 0x5A4 JUMPI DUP2 PUSH4 0x70A08231 EQ PUSH2 0x56D JUMPI DUP2 PUSH4 0x79CC6790 EQ PUSH2 0x489 JUMPI DUP2 PUSH4 0x95D89B41 EQ PUSH2 0x3A3 JUMPI DUP2 PUSH4 0xA9059CBB EQ PUSH2 0x377 JUMPI DUP2 PUSH4 0xD59624B4 EQ PUSH2 0x33C JUMPI DUP2 PUSH4 0xDD62ED3E EQ PUSH2 0x2F3 JUMPI DUP2 PUSH4 0xE88499A9 EQ PUSH2 0x12C JUMPI POP PUSH4 0xF9168231 EQ PUSH2 0x10B JUMPI PUSH1 0x0 DUP1 REVERT JUMPDEST CALLVALUE PUSH2 0x128 JUMPI DUP2 PUSH1 0x3 NOT CALLDATASIZE ADD SLT PUSH2 0x128 JUMPI PUSH1 0x20 SWAP1 PUSH1 0x5 SLOAD SWAP1 MLOAD SWAP1 DUP2 MSTORE RETURN JUMPDEST POP DUP1 REVERT JUMPDEST SWAP2 SWAP1 POP CALLVALUE PUSH2 0x2EF JUMPI DUP3 PUSH1 0x3 NOT CALLDATASIZE ADD SLT PUSH2 0x2EF JUMPI CALLER DUP4 MSTORE PUSH1 0x6 PUSH1 0x20 MSTORE DUP1 DUP4 KECCAK256 DUP1 SLOAD DUP1 ISZERO PUSH2 0x2E0 JUMPI PUSH1 0xFF PUSH1 0x1 DUP4 ADD SLOAD AND PUSH2 0x2D1 JUMPI PUSH2 0x16D PUSH1 0xFF DUP6 DUP5 ADD SLOAD AND PUSH2 0xEED JUMP JUMPDEST SWAP1 DUP2 ISZERO PUSH2 0x2C1 JUMPI PUSH1 0x2 DUP4 ADD DUP1 SLOAD PUSH2 0x184 DUP2 TIMESTAMP PUSH2 0xEC5 JUMP JUMPDEST DUP5 DUP2 LT PUSH2 0x2B1 JUMPI DUP5 SWAP1 DIV SWAP4 PUSH1 0x3 PUSH2 0x19F PUSH1 0x5 DUP9 ADD SLOAD DUP8 PUSH2 0xEB2 JUMP JUMPDEST SWAP7 ADD SWAP5 DUP6 SLOAD SWAP5 DUP1 PUSH2 0x1B0 DUP10 DUP9 PUSH2 0xE77 JUMP JUMPDEST GT PUSH2 0x29D JUMPI JUMPDEST POP DUP7 ISZERO PUSH2 0x28D JUMPI SWAP4 PUSH1 0x20 SWAP6 SWAP4 PUSH2 0x1DF PUSH2 0x1E6 SWAP5 PUSH2 0x1D9 DUP11 SWAP9 SWAP6 PUSH2 0x201 SWAP12 SWAP7 PUSH2 0xEB2 JUMP JUMPDEST SWAP1 PUSH2 0xE77 JUMP JUMPDEST SWAP1 SSTORE PUSH2 0xE77 JUMP JUMPDEST SWAP1 SSTORE DUP4 MLOAD DUP1 SWAP4 DUP2 SWAP3 PUSH4 0xA9059CBB PUSH1 0xE0 SHL DUP4 MSTORE CALLER DUP9 DUP5 ADD PUSH2 0xED2 JUMP JUMPDEST SUB DUP2 DUP8 PUSH32 0x0 PUSH1 0x1 PUSH1 0x1 PUSH1 0xA0 SHL SUB AND GAS CALL SWAP1 DUP2 ISZERO PUSH2 0x283 JUMPI DUP5 SWAP2 PUSH2 0x255 JUMPI JUMPDEST POP ISZERO PUSH2 0x248 JUMPI DUP3 DUP1 RETURN JUMPDEST MLOAD PUSH4 0x22E2581 PUSH1 0xE1 SHL DUP2 MSTORE REVERT JUMPDEST PUSH2 0x276 SWAP2 POP PUSH1 0x20 RETURNDATASIZE DUP2 GT PUSH2 0x27C JUMPI JUMPDEST PUSH2 0x26E DUP2 DUP4 PUSH2 0xD8F JUMP JUMPDEST DUP2 ADD SWAP1 PUSH2 0xE9A JUMP JUMPDEST CODESIZE PUSH2 0x23E JUMP JUMPDEST POP RETURNDATASIZE PUSH2 0x264 JUMP JUMPDEST DUP3 MLOAD RETURNDATASIZE DUP7 DUP3 RETURNDATACOPY RETURNDATASIZE SWAP1 REVERT JUMPDEST DUP8 MLOAD PUSH4 0xAC48FF5 PUSH1 0xE4 SHL DUP2 MSTORE DUP10 SWAP1 REVERT JUMPDEST PUSH2 0x2AA SWAP2 SWAP8 POP DUP6 SWAP1 PUSH2 0xEC5 JUMP JUMPDEST SWAP6 CODESIZE PUSH2 0x1B6 JUMP JUMPDEST DUP7 MLOAD PUSH4 0xB477C7B1 PUSH1 0xE0 SHL DUP2 MSTORE DUP9 SWAP1 REVERT JUMPDEST POP POP POP MLOAD PUSH4 0xAC48FF5 PUSH1 0xE4 SHL DUP2 MSTORE REVERT JUMPDEST POP POP MLOAD PUSH4 0xC8D9EAB PUSH1 0xE3 SHL DUP2 MSTORE REVERT JUMPDEST POP POP MLOAD PUSH4 0x3A6A68B1 PUSH1 0xE0 SHL DUP2 MSTORE REVERT JUMPDEST DUP3 DUP1 REVERT JUMPDEST POP POP CALLVALUE PUSH2 0x128 JUMPI DUP1 PUSH1 0x3 NOT CALLDATASIZE ADD SLT PUSH2 0x128 JUMPI DUP1 PUSH1 0x20 SWAP3 PUSH2 0x311 PUSH2 0xD5E JUMP JUMPDEST PUSH2 0x319 PUSH2 0xD79 JUMP JUMPDEST PUSH1 0x1 PUSH1 0x1 PUSH1 0xA0 SHL SUB SWAP2 DUP3 AND DUP4 MSTORE PUSH1 0x1 DUP7 MSTORE DUP4 DUP4 KECCAK256 SWAP2 AND DUP3 MSTORE DUP5 MSTORE KECCAK256 SLOAD SWAP1 MLOAD SWAP1 DUP2 MSTORE RETURN JUMPDEST POP POP CALLVALUE PUSH2 0x128 JUMPI DUP2 PUSH1 0x3 NOT CALLDATASIZE ADD SLT PUSH2 0x128 JUMPI PUSH1 0x20 SWAP1 MLOAD PUSH32 0x0 DUP2 MSTORE RETURN JUMPDEST DUP3 DUP5 CALLVALUE PUSH2 0x3A0 JUMPI DUP2 PUSH1 0x3 NOT CALLDATASIZE ADD SLT PUSH2 0x3A0 JUMPI POP PUSH2 0x392 PUSH2 0xD5E JUMP JUMPDEST POP MLOAD PUSH4 0x1DE81C7B PUSH1 0xE0 SHL DUP2 MSTORE REVERT JUMPDEST DUP1 REVERT JUMPDEST DUP4 DUP4 CALLVALUE PUSH2 0x128 JUMPI DUP2 PUSH1 0x3 NOT CALLDATASIZE ADD SLT PUSH2 0x128 JUMPI DUP1 MLOAD SWAP2 DUP1 SWAP4 DUP1 SLOAD SWAP2 PUSH1 0x1 SWAP1 DUP4 DUP3 SHR SWAP3 DUP3 DUP6 AND SWAP5 DUP6 ISZERO PUSH2 0x47F JUMPI JUMPDEST PUSH1 0x20 SWAP6 DUP7 DUP7 LT DUP2 EQ PUSH2 0x46C JUMPI DUP6 DUP10 MSTORE SWAP1 DUP2 ISZERO PUSH2 0x448 JUMPI POP PUSH1 0x1 EQ PUSH2 0x40D JUMPI JUMPDEST PUSH2 0x409 DUP8 DUP8 PUSH2 0x3FF DUP3 DUP13 SUB DUP4 PUSH2 0xD8F JUMP JUMPDEST MLOAD SWAP2 DUP3 SWAP2 DUP3 PUSH2 0xD15 JUMP JUMPDEST SUB SWAP1 RETURN JUMPDEST SWAP1 DUP1 SWAP5 SWAP8 POP MSTORE DUP6 DUP4 KECCAK256 JUMPDEST DUP3 DUP5 LT PUSH2 0x435 JUMPI POP POP POP DUP3 PUSH2 0x409 SWAP5 PUSH2 0x3FF SWAP3 DUP3 ADD ADD SWAP5 DUP7 DUP1 PUSH2 0x3EE JUMP JUMPDEST DUP1 SLOAD DUP7 DUP6 ADD DUP9 ADD MSTORE SWAP3 DUP7 ADD SWAP3 DUP2 ADD PUSH2 0x417 JUMP JUMPDEST PUSH1 0xFF NOT AND DUP9 DUP8 ADD MSTORE POP POP POP POP ISZERO ISZERO PUSH1 0x5 SHL DUP4 ADD ADD SWAP3 POP PUSH2 0x3FF DUP3 PUSH2 0x409 DUP7 DUP1 PUSH2 0x3EE JUMP JUMPDEST PUSH4 0x4E487B71 PUSH1 0xE0 SHL DUP5 MSTORE PUSH1 0x22 DUP4 MSTORE PUSH1 0x24 DUP5 REVERT JUMPDEST SWAP4 PUSH1 0x7F AND SWAP4 PUSH2 0x3CF JUMP JUMPDEST DUP4 SWAP2 POP CALLVALUE PUSH2 0x128 JUMPI DUP3 PUSH1 0x3 NOT CALLDATASIZE ADD SLT PUSH2 0x128 JUMPI PUSH2 0x4A4 PUSH2 0xD5E JUMP JUMPDEST PUSH1 0x1 PUSH1 0x1 PUSH1 0xA0 SHL SUB DUP2 AND DUP1 DUP5 MSTORE PUSH1 0x1 PUSH1 0x20 SWAP1 DUP2 MSTORE DUP6 DUP6 KECCAK256 CALLER DUP7 MSTORE SWAP1 MSTORE DUP5 DUP5 KECCAK256 SLOAD PUSH1 0x24 CALLDATALOAD SWAP4 SWAP1 SWAP2 SWAP1 PUSH1 0x0 NOT DUP4 LT PUSH2 0x4E3 JUMPI JUMPDEST DUP6 PUSH2 0x4E0 DUP7 DUP7 PUSH2 0xDC8 JUMP JUMPDEST DUP1 RETURN JUMPDEST DUP5 DUP4 LT PUSH2 0x54B JUMPI DUP2 ISZERO PUSH2 0x534 JUMPI CALLER ISZERO PUSH2 0x51D JUMPI POP DUP5 SWAP6 SWAP2 DUP5 SWAP2 PUSH2 0x4E0 SWAP7 MSTORE PUSH1 0x1 PUSH1 0x20 MSTORE DUP3 DUP8 KECCAK256 CALLER DUP9 MSTORE PUSH1 0x20 MSTORE SUB SWAP1 DUP6 KECCAK256 SSTORE DUP4 SWAP3 DUP6 DUP1 PUSH2 0x4D5 JUMP JUMPDEST DUP7 MLOAD PUSH4 0x4A1406B1 PUSH1 0xE1 SHL DUP2 MSTORE SWAP1 DUP2 ADD DUP7 SWAP1 MSTORE PUSH1 0x24 SWAP1 REVERT JUMPDEST DUP7 MLOAD PUSH4 0xE602DF05 PUSH1 0xE0 SHL DUP2 MSTORE SWAP1 DUP2 ADD DUP7 SWAP1 MSTORE PUSH1 0x24 SWAP1 REVERT JUMPDEST SWAP1 POP PUSH2 0x569 DUP5 DUP8 MLOAD SWAP4 DUP5 SWAP4 PUSH4 0x7DC7A0D9 PUSH1 0xE1 SHL DUP6 MSTORE CALLER SWAP1 DUP6 ADD PUSH2 0xE59 JUMP JUMPDEST SUB SWAP1 REVERT JUMPDEST POP POP CALLVALUE PUSH2 0x128 JUMPI PUSH1 0x20 CALLDATASIZE PUSH1 0x3 NOT ADD SLT PUSH2 0x128 JUMPI PUSH1 0x20 SWAP2 DUP2 SWAP1 PUSH1 0x1 PUSH1 0x1 PUSH1 0xA0 SHL SUB PUSH2 0x595 PUSH2 0xD5E JUMP JUMPDEST AND DUP2 MSTORE DUP1 DUP5 MSTORE KECCAK256 SLOAD SWAP1 MLOAD SWAP1 DUP2 MSTORE RETURN JUMPDEST DUP4 DUP4 CALLVALUE PUSH2 0x128 JUMPI PUSH1 0x20 CALLDATASIZE PUSH1 0x3 NOT ADD SLT PUSH2 0x128 JUMPI PUSH1 0x1 PUSH1 0x1 PUSH1 0xA0 SHL SUB PUSH2 0x5C7 PUSH2 0xD5E JUMP JUMPDEST AND DUP3 MSTORE PUSH1 0x6 PUSH1 0x20 MSTORE DUP1 DUP3 KECCAK256 DUP1 SLOAD SWAP3 PUSH1 0xFF PUSH1 0x1 DUP4 ADD SLOAD AND SWAP3 PUSH1 0x2 DUP4 ADD SLOAD PUSH1 0x3 DUP5 ADD SLOAD SWAP2 PUSH1 0x5 PUSH1 0xFF DUP10 DUP8 ADD SLOAD AND SWAP6 ADD SLOAD SWAP6 DUP2 MLOAD SWAP8 DUP9 MSTORE ISZERO ISZERO PUSH1 0x20 DUP9 ADD MSTORE DUP7 ADD MSTORE PUSH1 0x60 DUP6 ADD MSTORE PUSH1 0x3 DUP3 LT ISZERO PUSH2 0x624 JUMPI POP PUSH1 0xC0 SWAP4 POP PUSH1 0x80 DUP4 ADD MSTORE PUSH1 0xA0 DUP3 ADD MSTORE RETURN JUMPDEST PUSH4 0x4E487B71 PUSH1 0xE0 SHL DUP2 MSTORE PUSH1 0x21 DUP6 MSTORE PUSH1 0x24 SWAP1 REVERT JUMPDEST POP POP CALLVALUE PUSH2 0x128 JUMPI DUP2 PUSH1 0x3 NOT CALLDATASIZE ADD SLT PUSH2 0x128 JUMPI MLOAD PUSH32 0x0 PUSH1 0x1 PUSH1 0x1 PUSH1 0xA0 SHL SUB AND DUP2 MSTORE PUSH1 0x20 SWAP1 RETURN JUMPDEST DUP4 SWAP2 POP CALLVALUE PUSH2 0x128 JUMPI PUSH1 0x60 CALLDATASIZE PUSH1 0x3 NOT ADD SLT PUSH2 0x128 JUMPI PUSH2 0x697 PUSH2 0xD5E JUMP JUMPDEST PUSH1 0x24 SWAP4 DUP5 CALLDATALOAD SWAP3 PUSH1 0x44 CALLDATALOAD SWAP2 PUSH1 0x3 DUP4 LT ISZERO PUSH2 0x924 JUMPI PUSH1 0x1 PUSH1 0x1 PUSH1 0xA0 SHL SUB PUSH32 0x0 DUP2 AND SWAP5 CALLER DUP7 SWAP1 SUB PUSH2 0x8D6 JUMPI DUP7 ISZERO PUSH2 0x8C7 JUMPI DUP3 MLOAD SWAP6 PUSH4 0x23B872DD PUSH1 0xE0 SHL DUP8 MSTORE DUP5 DUP8 ADD MSTORE ADDRESS DUP10 DUP8 ADD MSTORE DUP7 PUSH1 0x44 DUP8 ADD MSTORE PUSH1 0x20 SWAP6 DUP7 DUP2 PUSH1 0x64 DUP2 DUP13 DUP8 PUSH32 0x0 AND GAS CALL SWAP1 DUP2 ISZERO PUSH2 0x8BD JUMPI DUP10 SWAP2 PUSH2 0x8A0 JUMPI JUMPDEST POP ISZERO PUSH2 0x891 JUMPI AND SWAP7 DUP8 ISZERO PUSH2 0x87D JUMPI PUSH2 0x756 DUP7 PUSH1 0x2 SLOAD PUSH2 0xE77 JUMP JUMPDEST PUSH1 0x2 SSTORE DUP8 DUP8 MSTORE DUP7 DUP6 MSTORE DUP2 DUP8 KECCAK256 DUP7 DUP2 SLOAD ADD SWAP1 SSTORE DUP8 DUP8 PUSH1 0x0 DUP1 MLOAD PUSH1 0x20 PUSH2 0xF3E DUP4 CODECOPY DUP2 MLOAD SWAP2 MSTORE DUP8 DUP6 MLOAD DUP11 DUP2 MSTORE LOG3 PUSH2 0x2710 PUSH2 0x7AD PUSH32 0x0 DUP9 PUSH2 0xEB2 JUMP JUMPDEST DUP4 MLOAD SWAP2 SWAP1 DIV SWAP9 SWAP1 SWAP6 PUSH1 0xC0 DUP8 ADD PUSH1 0x1 PUSH1 0x1 PUSH1 0x40 SHL SUB DUP2 GT DUP9 DUP3 LT OR PUSH2 0x86B JUMPI DUP5 MSTORE DUP8 DUP8 MSTORE DUP1 DUP8 ADD SWAP4 DUP10 DUP6 MSTORE PUSH1 0x6 DUP2 DUP10 ADD SWAP3 TIMESTAMP DUP5 MSTORE PUSH1 0x60 DUP11 ADD SWAP5 DUP13 DUP7 MSTORE PUSH1 0x80 DUP12 ADD SWAP10 DUP11 MSTORE PUSH1 0xA0 DUP12 ADD SWAP14 DUP15 MSTORE DUP13 MSTORE MSTORE DUP10 KECCAK256 SWAP7 MLOAD DUP8 SSTORE PUSH1 0x1 DUP8 ADD SWAP4 MLOAD ISZERO ISZERO SWAP4 PUSH1 0xFF NOT SWAP5 PUSH1 0xFF DUP7 DUP4 SLOAD AND SWAP2 AND OR SWAP1 SSTORE MLOAD PUSH1 0x2 DUP8 ADD SSTORE MLOAD PUSH1 0x3 DUP7 ADD SSTORE DUP3 DUP6 ADD SWAP4 MLOAD SWAP3 PUSH1 0x3 DUP5 LT ISZERO PUSH2 0x85A JUMPI POP POP SWAP2 PUSH2 0x854 SWAP6 SWAP7 SWAP2 PUSH1 0xFF PUSH1 0x5 SWAP5 DUP4 SLOAD AND SWAP2 AND OR SWAP1 SSTORE MLOAD SWAP2 ADD SSTORE PUSH1 0x5 SLOAD PUSH2 0xE77 JUMP JUMPDEST PUSH1 0x5 SSTORE DUP1 RETURN JUMPDEST PUSH4 0x4E487B71 PUSH1 0xE0 SHL DUP9 MSTORE PUSH1 0x21 SWAP1 MSTORE DUP7 REVERT JUMPDEST PUSH4 0x4E487B71 PUSH1 0xE0 SHL DUP11 MSTORE PUSH1 0x41 DUP7 MSTORE DUP4 DUP11 REVERT JUMPDEST DUP2 MLOAD PUSH4 0xEC442F05 PUSH1 0xE0 SHL DUP2 MSTORE DUP1 DUP5 ADD DUP9 SWAP1 MSTORE REVERT JUMPDEST POP POP MLOAD PUSH4 0x22E2581 PUSH1 0xE1 SHL DUP2 MSTORE REVERT JUMPDEST PUSH2 0x8B7 SWAP2 POP DUP8 RETURNDATASIZE DUP10 GT PUSH2 0x27C JUMPI PUSH2 0x26E DUP2 DUP4 PUSH2 0xD8F JUMP JUMPDEST DUP11 PUSH2 0x73C JUMP JUMPDEST DUP5 MLOAD RETURNDATASIZE DUP12 DUP3 RETURNDATACOPY RETURNDATASIZE SWAP1 REVERT JUMPDEST POP POP MLOAD PUSH4 0x162908E3 PUSH1 0xE1 SHL DUP2 MSTORE REVERT JUMPDEST DUP3 MLOAD PUSH3 0x461BCD PUSH1 0xE5 SHL DUP2 MSTORE PUSH1 0x20 DUP2 DUP7 ADD MSTORE PUSH1 0x23 DUP2 DUP12 ADD MSTORE PUSH32 0x43616C6C6572206973206E6F7420746865206F66666572696E6720636F6E7472 PUSH1 0x44 DUP3 ADD MSTORE PUSH3 0x1858DD PUSH1 0xEA SHL PUSH1 0x64 DUP3 ADD MSTORE PUSH1 0x84 SWAP1 REVERT JUMPDEST DUP6 DUP1 REVERT JUMPDEST SWAP2 SWAP1 POP CALLVALUE PUSH2 0x2EF JUMPI DUP3 PUSH1 0x3 NOT CALLDATASIZE ADD SLT PUSH2 0x2EF JUMPI PUSH32 0x0 TIMESTAMP LT PUSH2 0xA47 JUMPI CALLER DUP4 MSTORE PUSH1 0x6 PUSH1 0x20 MSTORE DUP1 DUP4 KECCAK256 PUSH1 0x1 DUP2 ADD PUSH1 0xFF DUP2 SLOAD AND PUSH2 0x2D1 JUMPI DUP2 SLOAD ISZERO PUSH2 0x2E0 JUMPI PUSH2 0x990 PUSH1 0xFF DUP6 DUP5 ADD SLOAD AND PUSH2 0xEED JUMP JUMPDEST DUP1 PUSH2 0xA1E JUMPI JUMPDEST POP PUSH2 0x9D8 SWAP2 PUSH1 0x20 SWAP2 CALLER DUP8 MSTORE DUP7 DUP4 MSTORE PUSH2 0x9B1 DUP6 DUP9 KECCAK256 SLOAD CALLER PUSH2 0xDC8 JUMP JUMPDEST DUP1 SLOAD PUSH1 0xFF NOT AND PUSH1 0x1 OR SWAP1 SSTORE SLOAD DUP4 MLOAD PUSH4 0xA9059CBB PUSH1 0xE0 SHL DUP2 MSTORE SWAP3 DUP4 SWAP2 DUP3 SWAP2 SWAP1 CALLER DUP9 DUP5 ADD PUSH2 0xED2 JUMP JUMPDEST SUB DUP2 DUP8 PUSH32 0x0 PUSH1 0x1 PUSH1 0x1 PUSH1 0xA0 SHL SUB AND GAS CALL SWAP1 DUP2 ISZERO PUSH2 0x283 JUMPI DUP5 SWAP2 PUSH2 0x255 JUMPI POP ISZERO PUSH2 0x248 JUMPI DUP3 DUP1 RETURN JUMPDEST PUSH2 0xA2C PUSH1 0x2 DUP5 ADD SLOAD TIMESTAMP PUSH2 0xEC5 JUMP JUMPDEST LT ISZERO PUSH2 0xA38 JUMPI CODESIZE PUSH2 0x996 JUMP JUMPDEST POP POP MLOAD PUSH4 0xAC48FF5 PUSH1 0xE4 SHL DUP2 MSTORE REVERT JUMPDEST MLOAD PUSH4 0x111C4409 PUSH1 0xE0 SHL DUP2 MSTORE REVERT JUMPDEST DUP4 SWAP1 CALLVALUE PUSH2 0x128 JUMPI PUSH1 0x20 CALLDATASIZE PUSH1 0x3 NOT ADD SLT PUSH2 0x128 JUMPI PUSH2 0x4E0 SWAP1 CALLDATALOAD CALLER PUSH2 0xDC8 JUMP JUMPDEST POP POP CALLVALUE PUSH2 0x128 JUMPI DUP2 PUSH1 0x3 NOT CALLDATASIZE ADD SLT PUSH2 0x128 JUMPI PUSH1 0x20 SWAP1 MLOAD PUSH1 0x12 DUP2 MSTORE RETURN JUMPDEST POP POP CALLVALUE PUSH2 0x128 JUMPI DUP2 PUSH1 0x3 NOT CALLDATASIZE ADD SLT PUSH2 0x128 JUMPI PUSH1 0x20 SWAP1 MLOAD PUSH32 0x0 DUP2 MSTORE RETURN JUMPDEST DUP3 DUP5 CALLVALUE PUSH2 0x3A0 JUMPI PUSH1 0x60 CALLDATASIZE PUSH1 0x3 NOT ADD SLT PUSH2 0x3A0 JUMPI POP PUSH2 0xAE5 PUSH2 0xD5E JUMP JUMPDEST POP PUSH2 0x392 PUSH2 0xD79 JUMP JUMPDEST POP POP CALLVALUE PUSH2 0x128 JUMPI DUP2 PUSH1 0x3 NOT CALLDATASIZE ADD SLT PUSH2 0x128 JUMPI MLOAD PUSH32 0x0 PUSH1 0x1 PUSH1 0x1 PUSH1 0xA0 SHL SUB AND DUP2 MSTORE PUSH1 0x20 SWAP1 RETURN JUMPDEST POP POP CALLVALUE PUSH2 0x128 JUMPI DUP2 PUSH1 0x3 NOT CALLDATASIZE ADD SLT PUSH2 0x128 JUMPI PUSH1 0x20 SWAP1 PUSH1 0x2 SLOAD SWAP1 MLOAD SWAP1 DUP2 MSTORE RETURN JUMPDEST SWAP1 POP CALLVALUE PUSH2 0x2EF JUMPI DUP2 PUSH1 0x3 NOT CALLDATASIZE ADD SLT PUSH2 0x2EF JUMPI PUSH2 0xB6B PUSH2 0xD5E JUMP JUMPDEST PUSH1 0x24 CALLDATALOAD SWAP1 CALLER ISZERO PUSH2 0xBE4 JUMPI PUSH1 0x1 PUSH1 0x1 PUSH1 0xA0 SHL SUB AND SWAP2 DUP3 ISZERO PUSH2 0xBCD JUMPI POP DUP1 DUP4 PUSH1 0x20 SWAP6 CALLER DUP2 MSTORE PUSH1 0x1 DUP8 MSTORE DUP2 DUP2 KECCAK256 DUP6 DUP3 MSTORE DUP8 MSTORE KECCAK256 SSTORE DUP3 MLOAD SWAP1 DUP2 MSTORE PUSH32 0x8C5BE1E5EBEC7D5BD14F71427D1E84F3DD0314C0F7B2291E5B200AC8C7C3B925 DUP5 CALLER SWAP3 LOG3 MLOAD PUSH1 0x1 DUP2 MSTORE RETURN JUMPDEST DUP4 MLOAD PUSH4 0x4A1406B1 PUSH1 0xE1 SHL DUP2 MSTORE SWAP1 DUP2 ADD DUP6 SWAP1 MSTORE PUSH1 0x24 SWAP1 REVERT JUMPDEST DUP4 MLOAD PUSH4 0xE602DF05 PUSH1 0xE0 SHL DUP2 MSTORE DUP1 DUP5 ADD DUP7 SWAP1 MSTORE PUSH1 0x24 SWAP1 REVERT JUMPDEST SWAP2 SWAP1 POP CALLVALUE PUSH2 0x2EF JUMPI DUP3 PUSH1 0x3 NOT CALLDATASIZE ADD SLT PUSH2 0x2EF JUMPI DUP1 MLOAD SWAP2 DUP4 PUSH1 0x3 SLOAD SWAP1 PUSH1 0x1 SWAP1 DUP3 DUP3 SHR SWAP3 DUP3 DUP2 AND DUP1 ISZERO PUSH2 0xCC8 JUMPI JUMPDEST PUSH1 0x20 SWAP6 DUP7 DUP7 LT DUP3 EQ PUSH2 0xCB5 JUMPI POP DUP5 DUP9 MSTORE SWAP1 DUP2 ISZERO PUSH2 0xC93 JUMPI POP PUSH1 0x1 EQ PUSH2 0xC58 JUMPI JUMPDEST PUSH2 0x409 DUP7 DUP7 PUSH2 0x3FF DUP3 DUP12 SUB DUP4 PUSH2 0xD8F JUMP JUMPDEST SWAP3 SWAP6 POP PUSH1 0x3 DUP4 MSTORE DUP6 DUP4 KECCAK256 JUMPDEST DUP3 DUP5 LT PUSH2 0xC80 JUMPI POP POP POP DUP3 PUSH2 0x409 SWAP5 PUSH2 0x3FF SWAP3 DUP3 ADD ADD SWAP5 CODESIZE PUSH2 0xC47 JUMP JUMPDEST DUP1 SLOAD DUP7 DUP6 ADD DUP9 ADD MSTORE SWAP3 DUP7 ADD SWAP3 DUP2 ADD PUSH2 0xC63 JUMP JUMPDEST PUSH1 0xFF NOT AND DUP8 DUP7 ADD MSTORE POP POP POP ISZERO ISZERO PUSH1 0x5 SHL DUP4 ADD ADD SWAP3 POP PUSH2 0x3FF DUP3 PUSH2 0x409 CODESIZE PUSH2 0xC47 JUMP JUMPDEST PUSH4 0x4E487B71 PUSH1 0xE0 SHL DUP5 MSTORE PUSH1 0x22 SWAP1 MSTORE PUSH1 0x24 DUP4 REVERT JUMPDEST SWAP4 PUSH1 0x7F AND SWAP4 PUSH2 0xC27 JUMP JUMPDEST DUP5 SWAP1 CALLVALUE PUSH2 0x128 JUMPI DUP2 PUSH1 0x3 NOT CALLDATASIZE ADD SLT PUSH2 0x128 JUMPI PUSH32 0x0 PUSH1 0x1 PUSH1 0x1 PUSH1 0xA0 SHL SUB AND DUP2 MSTORE PUSH1 0x20 SWAP1 RETURN JUMPDEST PUSH1 0x20 DUP1 DUP3 MSTORE DUP3 MLOAD DUP2 DUP4 ADD DUP2 SWAP1 MSTORE SWAP1 SWAP4 SWAP3 PUSH1 0x0 JUMPDEST DUP3 DUP2 LT PUSH2 0xD4A JUMPI POP POP PUSH1 0x40 SWAP3 SWAP4 POP PUSH1 0x0 DUP4 DUP3 DUP5 ADD ADD MSTORE PUSH1 0x1F DUP1 NOT SWAP2 ADD AND ADD ADD SWAP1 JUMP JUMPDEST DUP2 DUP2 ADD DUP7 ADD MLOAD DUP5 DUP3 ADD PUSH1 0x40 ADD MSTORE DUP6 ADD PUSH2 0xD28 JUMP JUMPDEST PUSH1 0x4 CALLDATALOAD SWAP1 PUSH1 0x1 PUSH1 0x1 PUSH1 0xA0 SHL SUB DUP3 AND DUP3 SUB PUSH2 0xD74 JUMPI JUMP JUMPDEST PUSH1 0x0 DUP1 REVERT JUMPDEST PUSH1 0x24 CALLDATALOAD SWAP1 PUSH1 0x1 PUSH1 0x1 PUSH1 0xA0 SHL SUB DUP3 AND DUP3 SUB PUSH2 0xD74 JUMPI JUMP JUMPDEST PUSH1 0x1F SWAP1 SWAP2 ADD PUSH1 0x1F NOT AND DUP2 ADD SWAP1 PUSH1 0x1 PUSH1 0x1 PUSH1 0x40 SHL SUB DUP3 GT SWAP1 DUP3 LT OR PUSH2 0xDB2 JUMPI PUSH1 0x40 MSTORE JUMP JUMPDEST PUSH4 0x4E487B71 PUSH1 0xE0 SHL PUSH1 0x0 MSTORE PUSH1 0x41 PUSH1 0x4 MSTORE PUSH1 0x24 PUSH1 0x0 REVERT JUMPDEST SWAP1 PUSH1 0x1 PUSH1 0x1 PUSH1 0xA0 SHL SUB DUP3 AND SWAP1 DUP2 ISZERO PUSH2 0xE40 JUMPI PUSH1 0x0 SWAP3 DUP3 DUP5 MSTORE DUP4 PUSH1 0x20 MSTORE PUSH1 0x40 DUP5 KECCAK256 SLOAD SWAP1 DUP3 DUP3 LT PUSH2 0xE23 JUMPI POP DUP2 PUSH1 0x0 DUP1 MLOAD PUSH1 0x20 PUSH2 0xF3E DUP4 CODECOPY DUP2 MLOAD SWAP2 MSTORE SWAP3 PUSH1 0x20 SWAP3 DUP6 DUP8 MSTORE DUP7 DUP5 MSTORE SUB PUSH1 0x40 DUP7 KECCAK256 SSTORE DUP1 PUSH1 0x2 SLOAD SUB PUSH1 0x2 SSTORE PUSH1 0x40 MLOAD SWAP1 DUP2 MSTORE LOG3 JUMP JUMPDEST PUSH2 0x569 DUP4 PUSH1 0x40 MLOAD SWAP4 DUP5 SWAP4 PUSH4 0x391434E3 PUSH1 0xE2 SHL DUP6 MSTORE PUSH1 0x4 DUP6 ADD PUSH2 0xE59 JUMP JUMPDEST PUSH1 0x40 MLOAD PUSH4 0x4B637E8F PUSH1 0xE1 SHL DUP2 MSTORE PUSH1 0x0 PUSH1 0x4 DUP3 ADD MSTORE PUSH1 0x24 SWAP1 REVERT JUMPDEST PUSH1 0x40 SWAP2 SWAP5 SWAP4 SWAP3 PUSH1 0x60 DUP3 ADD SWAP6 PUSH1 0x1 DUP1 PUSH1 0xA0 SHL SUB AND DUP3 MSTORE PUSH1 0x20 DUP3 ADD MSTORE ADD MSTORE JUMP JUMPDEST SWAP2 SWAP1 DUP3 ADD DUP1 SWAP3 GT PUSH2 0xE84 JUMPI JUMP JUMPDEST PUSH4 0x4E487B71 PUSH1 0xE0 SHL PUSH1 0x0 MSTORE PUSH1 0x11 PUSH1 0x4 MSTORE PUSH1 0x24 PUSH1 0x0 REVERT JUMPDEST SWAP1 DUP2 PUSH1 0x20 SWAP2 SUB SLT PUSH2 0xD74 JUMPI MLOAD DUP1 ISZERO ISZERO DUP2 SUB PUSH2 0xD74 JUMPI SWAP1 JUMP JUMPDEST DUP2 DUP2 MUL SWAP3 SWAP2 DUP2 ISZERO SWAP2 DUP5 DIV EQ OR ISZERO PUSH2 0xE84 JUMPI JUMP JUMPDEST SWAP2 SWAP1 DUP3 SUB SWAP2 DUP3 GT PUSH2 0xE84 JUMPI JUMP JUMPDEST PUSH1 0x1 PUSH1 0x1 PUSH1 0xA0 SHL SUB SWAP1 SWAP2 AND DUP2 MSTORE PUSH1 0x20 DUP2 ADD SWAP2 SWAP1 SWAP2 MSTORE PUSH1 0x40 ADD SWAP1 JUMP JUMPDEST PUSH1 0x3 DUP2 LT ISZERO PUSH2 0xF27 JUMPI DUP1 PUSH2 0xF03 JUMPI POP PUSH3 0x15180 SWAP1 JUMP JUMPDEST PUSH1 0x1 DUP2 SUB PUSH2 0xF13 JUMPI POP PUSH3 0x278D00 SWAP1 JUMP JUMPDEST PUSH1 0x2 EQ PUSH2 0xF1F JUMPI PUSH1 0x0 SWAP1 JUMP JUMPDEST PUSH4 0x1E13380 SWAP1 JUMP JUMPDEST PUSH4 0x4E487B71 PUSH1 0xE0 SHL PUSH1 0x0 MSTORE PUSH1 0x21 PUSH1 0x4 MSTORE PUSH1 0x24 PUSH1 0x0 REVERT INVALID 0xDD CALLCODE MSTORE 0xAD SHL 0xE2 0xC8 SWAP12 PUSH10 0xC2B068FC378DAA952BA7 CALL PUSH4 0xC4A11628 CREATE2 GAS 0x4D CREATE2 0x23 0xB3 0xEF LOG2 PUSH5 0x6970667358 0x22 SLT KECCAK256 MUL SWAP2 GASLIMIT 0x5D DUP14 0x4C PUSH31 0xDF5F905A81C8E1E45383BC1145A73A08A1AFE718DB0FC5E66B64736F6C6343 STOP ADDMOD EQ STOP CALLER "},"methodIdentifiers":{"allowance(address,address)":"dd62ed3e","approve(address,uint256)":"095ea7b3","balanceOf(address)":"70a08231","burn(uint256)":"42966c68","burnFrom(address,uint256)":"79cc6790","claimFinalTokens()":"464f0b0d","claimPayout()":"e88499a9","decimals()":"313ce567","investors(address)":"6f7bc9be","maturityDate()":"d59624b4","name()":"06fdde03","offeringContract()":"1a4f94f7","payoutRate()":"2b4353f2","payoutToken()":"4efa82b6","peggedToken()":"00e77aa6","registerInvestment(address,uint256,uint8)":"48e8a949","symbol()":"95d89b41","totalEscrowed()":"f9168231","totalSupply()":"18160ddd","transfer(address,uint256)":"a9059cbb","transferFrom(address,address,uint256)":"23b872dd"}}}}}