{"contracts/Offering.sol":{"Offering":{"abi":[{"inputs":[],"name":"AccessControlBadConfirmation","type":"error"},{"inputs":[{"internalType":"address","name":"account","type":"address"},{"internalType":"bytes32","name":"neededRole","type":"bytes32"}],"name":"AccessControlUnauthorizedAccount","type":"error"},{"inputs":[],"name":"EnforcedPause","type":"error"},{"inputs":[],"name":"ExpectedPause","type":"error"},{"inputs":[],"name":"ReentrancyGuardReentrantCall","type":"error"},{"anonymous":false,"inputs":[{"indexed":true,"internalType":"address","name":"investor","type":"address"},{"indexed":false,"internalType":"uint256","name":"amount","type":"uint256"}],"name":"Claimed","type":"event"},{"anonymous":false,"inputs":[{"indexed":true,"internalType":"address","name":"investor","type":"address"},{"indexed":false,"internalType":"address","name":"paymentToken","type":"address"},{"indexed":false,"internalType":"uint256","name":"paidAmount","type":"uint256"},{"indexed":false,"internalType":"uint256","name":"tokensReceived","type":"uint256"}],"name":"Invested","type":"event"},{"anonymous":false,"inputs":[{"indexed":true,"internalType":"address","name":"token","type":"address"},{"indexed":false,"internalType":"address","name":"oracle","type":"address"}],"name":"OracleSet","type":"event"},{"anonymous":false,"inputs":[{"indexed":false,"internalType":"address","name":"account","type":"address"}],"name":"Paused","type":"event"},{"anonymous":false,"inputs":[{"indexed":true,"internalType":"address","name":"token","type":"address"},{"indexed":false,"internalType":"bool","name":"status","type":"bool"}],"name":"PaymentTokenWhitelisted","type":"event"},{"anonymous":false,"inputs":[{"indexed":true,"internalType":"address","name":"token","type":"address"},{"indexed":false,"internalType":"uint256","name":"amount","type":"uint256"},{"indexed":true,"internalType":"address","name":"to","type":"address"}],"name":"Rescue","type":"event"},{"anonymous":false,"inputs":[{"indexed":true,"internalType":"bytes32","name":"role","type":"bytes32"},{"indexed":true,"internalType":"bytes32","name":"previousAdminRole","type":"bytes32"},{"indexed":true,"internalType":"bytes32","name":"newAdminRole","type":"bytes32"}],"name":"RoleAdminChanged","type":"event"},{"anonymous":false,"inputs":[{"indexed":true,"internalType":"bytes32","name":"role","type":"bytes32"},{"indexed":true,"internalType":"address","name":"account","type":"address"},{"indexed":true,"internalType":"address","name":"sender","type":"address"}],"name":"RoleGranted","type":"event"},{"anonymous":false,"inputs":[{"indexed":true,"internalType":"bytes32","name":"role","type":"bytes32"},{"indexed":true,"internalType":"address","name":"account","type":"address"},{"indexed":true,"internalType":"address","name":"sender","type":"address"}],"name":"RoleRevoked","type":"event"},{"anonymous":false,"inputs":[{"indexed":false,"internalType":"uint256","name":"totalRaised","type":"uint256"}],"name":"SaleClosed","type":"event"},{"anonymous":false,"inputs":[{"indexed":false,"internalType":"uint256","name":"newPrice","type":"uint256"}],"name":"TokenPriceUpdated","type":"event"},{"anonymous":false,"inputs":[{"indexed":true,"internalType":"address","name":"to","type":"address"},{"indexed":false,"internalType":"uint256","name":"amount","type":"uint256"}],"name":"UnclaimedTokensReclaimed","type":"event"},{"anonymous":false,"inputs":[{"indexed":false,"internalType":"address","name":"account","type":"address"}],"name":"Unpaused","type":"event"},{"stateMutability":"payable","type":"fallback"},{"inputs":[],"name":"DEFAULT_ADMIN_ROLE","outputs":[{"internalType":"bytes32","name":"","type":"bytes32"}],"stateMutability":"view","type":"function"},{"inputs":[],"name":"TOKEN_OWNER_ROLE","outputs":[{"internalType":"bytes32","name":"","type":"bytes32"}],"stateMutability":"view","type":"function"},{"inputs":[],"name":"apyEnabled","outputs":[{"internalType":"bool","name":"","type":"bool"}],"stateMutability":"view","type":"function"},{"inputs":[],"name":"autoTransfer","outputs":[{"internalType":"bool","name":"","type":"bool"}],"stateMutability":"view","type":"function"},{"inputs":[{"internalType":"address","name":"_investor","type":"address"}],"name":"claimTokens","outputs":[{"internalType":"uint256","name":"","type":"uint256"}],"stateMutability":"nonpayable","type":"function"},{"inputs":[],"name":"endDate","outputs":[{"internalType":"uint256","name":"","type":"uint256"}],"stateMutability":"view","type":"function"},{"inputs":[],"name":"escrowAddress","outputs":[{"internalType":"address","name":"","type":"address"}],"stateMutability":"view","type":"function"},{"inputs":[],"name":"fundraisingCap","outputs":[{"internalType":"uint256","name":"","type":"uint256"}],"stateMutability":"view","type":"function"},{"inputs":[{"internalType":"bytes32","name":"role","type":"bytes32"}],"name":"getRoleAdmin","outputs":[{"internalType":"bytes32","name":"","type":"bytes32"}],"stateMutability":"view","type":"function"},{"inputs":[{"internalType":"bytes32","name":"role","type":"bytes32"},{"internalType":"address","name":"account","type":"address"}],"name":"grantRole","outputs":[],"stateMutability":"nonpayable","type":"function"},{"inputs":[{"internalType":"address","name":"newOwner","type":"address"}],"name":"grantTokenOwner","outputs":[],"stateMutability":"nonpayable","type":"function"},{"inputs":[{"internalType":"bytes32","name":"role","type":"bytes32"},{"internalType":"address","name":"account","type":"address"}],"name":"hasRole","outputs":[{"internalType":"bool","name":"","type":"bool"}],"stateMutability":"view","type":"function"},{"inputs":[{"internalType":"address","name":"_saleToken","type":"address"},{"internalType":"uint256","name":"_minInvestment","type":"uint256"},{"internalType":"uint256","name":"_maxInvestment","type":"uint256"},{"internalType":"uint256","name":"_startDate","type":"uint256"},{"internalType":"uint256","name":"_endDate","type":"uint256"},{"internalType":"uint256","name":"_maturityDate","type":"uint256"},{"internalType":"bool","name":"_autoTransfer","type":"bool"},{"internalType":"uint256","name":"_fundraisingCap","type":"uint256"},{"internalType":"uint256","name":"_tokenPrice","type":"uint256"},{"internalType":"address","name":"_tokenOwner","type":"address"},{"internalType":"address","name":"_escrowAddress","type":"address"},{"internalType":"bool","name":"_apyEnabled","type":"bool"},{"internalType":"address","name":"_wrappedTokenAddress","type":"address"},{"internalType":"address","name":"_investmentManager","type":"address"}],"name":"initialize","outputs":[],"stateMutability":"nonpayable","type":"function"},{"inputs":[{"internalType":"address","name":"paymentToken","type":"address"},{"internalType":"address","name":"investor","type":"address"},{"internalType":"uint256","name":"paymentAmount","type":"uint256"}],"name":"invest","outputs":[{"internalType":"uint256","name":"","type":"uint256"}],"stateMutability":"payable","type":"function"},{"inputs":[],"name":"investmentManager","outputs":[{"internalType":"address","name":"","type":"address"}],"stateMutability":"view","type":"function"},{"inputs":[],"name":"isSaleClosed","outputs":[{"internalType":"bool","name":"","type":"bool"}],"stateMutability":"view","type":"function"},{"inputs":[],"name":"maturityDate","outputs":[{"internalType":"uint256","name":"","type":"uint256"}],"stateMutability":"view","type":"function"},{"inputs":[],"name":"maxInvestment","outputs":[{"internalType":"uint256","name":"","type":"uint256"}],"stateMutability":"view","type":"function"},{"inputs":[],"name":"minInvestment","outputs":[{"internalType":"uint256","name":"","type":"uint256"}],"stateMutability":"view","type":"function"},{"inputs":[],"name":"pause","outputs":[],"stateMutability":"nonpayable","type":"function"},{"inputs":[],"name":"paused","outputs":[{"internalType":"bool","name":"","type":"bool"}],"stateMutability":"view","type":"function"},{"inputs":[{"internalType":"address","name":"","type":"address"}],"name":"pendingTokens","outputs":[{"internalType":"uint256","name":"","type":"uint256"}],"stateMutability":"view","type":"function"},{"inputs":[{"internalType":"address","name":"to","type":"address"}],"name":"reclaimUnclaimedTokens","outputs":[],"stateMutability":"nonpayable","type":"function"},{"inputs":[{"internalType":"address","name":"token","type":"address"}],"name":"removeTokenOracle","outputs":[],"stateMutability":"nonpayable","type":"function"},{"inputs":[{"internalType":"bytes32","name":"role","type":"bytes32"},{"internalType":"address","name":"callerConfirmation","type":"address"}],"name":"renounceRole","outputs":[],"stateMutability":"nonpayable","type":"function"},{"inputs":[{"internalType":"address","name":"token","type":"address"},{"internalType":"uint256","name":"amount","type":"uint256"},{"internalType":"address","name":"to","type":"address"}],"name":"rescueTokens","outputs":[],"stateMutability":"nonpayable","type":"function"},{"inputs":[{"internalType":"bytes32","name":"role","type":"bytes32"},{"internalType":"address","name":"account","type":"address"}],"name":"revokeRole","outputs":[],"stateMutability":"nonpayable","type":"function"},{"inputs":[{"internalType":"address","name":"owner","type":"address"}],"name":"revokeTokenOwner","outputs":[],"stateMutability":"nonpayable","type":"function"},{"inputs":[],"name":"saleToken","outputs":[{"internalType":"contract IERC20","name":"","type":"address"}],"stateMutability":"view","type":"function"},{"inputs":[{"internalType":"uint256","name":"_endDate","type":"uint256"}],"name":"setEndDate","outputs":[],"stateMutability":"nonpayable","type":"function"},{"inputs":[{"internalType":"uint256","name":"_minInvestment","type":"uint256"},{"internalType":"uint256","name":"_maxInvestment","type":"uint256"}],"name":"setInvestmentLimits","outputs":[],"stateMutability":"nonpayable","type":"function"},{"inputs":[{"internalType":"address","name":"token","type":"address"},{"internalType":"address","name":"oracle","type":"address"}],"name":"setTokenOracle","outputs":[],"stateMutability":"nonpayable","type":"function"},{"inputs":[{"internalType":"uint256","name":"newPrice","type":"uint256"}],"name":"setTokenPrice","outputs":[],"stateMutability":"nonpayable","type":"function"},{"inputs":[{"internalType":"address","name":"token","type":"address"},{"internalType":"bool","name":"status","type":"bool"}],"name":"setWhitelistedPaymentToken","outputs":[],"stateMutability":"nonpayable","type":"function"},{"inputs":[],"name":"startDate","outputs":[{"internalType":"uint256","name":"","type":"uint256"}],"stateMutability":"view","type":"function"},{"inputs":[{"internalType":"bytes4","name":"interfaceId","type":"bytes4"}],"name":"supportsInterface","outputs":[{"internalType":"bool","name":"","type":"bool"}],"stateMutability":"view","type":"function"},{"inputs":[{"internalType":"address","name":"","type":"address"}],"name":"tokenOracles","outputs":[{"internalType":"address","name":"","type":"address"}],"stateMutability":"view","type":"function"},{"inputs":[],"name":"tokenPrice","outputs":[{"internalType":"uint256","name":"","type":"uint256"}],"stateMutability":"view","type":"function"},{"inputs":[{"internalType":"address","name":"","type":"address"}],"name":"totalInvested","outputs":[{"internalType":"uint256","name":"","type":"uint256"}],"stateMutability":"view","type":"function"},{"inputs":[],"name":"totalPendingTokens","outputs":[{"internalType":"uint256","name":"","type":"uint256"}],"stateMutability":"view","type":"function"},{"inputs":[],"name":"totalRaised","outputs":[{"internalType":"uint256","name":"","type":"uint256"}],"stateMutability":"view","type":"function"},{"inputs":[],"name":"treasury","outputs":[{"internalType":"address","name":"","type":"address"}],"stateMutability":"view","type":"function"},{"inputs":[],"name":"unpause","outputs":[],"stateMutability":"nonpayable","type":"function"},{"inputs":[{"internalType":"address","name":"","type":"address"}],"name":"whitelistedPaymentTokens","outputs":[{"internalType":"bool","name":"","type":"bool"}],"stateMutability":"view","type":"function"},{"inputs":[],"name":"wrappedTokenAddress","outputs":[{"internalType":"address","name":"","type":"address"}],"stateMutability":"view","type":"function"},{"stateMutability":"payable","type":"receive"}],"evm":{"bytecode":{"linkReferences":{},"object":"6080806040523461001b576001600255612a7990816100218239f35b600080fdfe6080806040526004361015610094575b5036156100535760405162461bcd60e51b815260206004820152601560248201527411985b1b189858dac81b9bdd081858d8d95c1d1959605a1b6044820152606490fd5b60405162461bcd60e51b8152602060048201526019602482015278111a5c9958dd081315535250481b9bdd081858d8d95c1d1959603a1b6044820152606490fd5b600090813560e01c9081622e1316146124215750806301ffc9a7146123ca5780630b97bc86146123ac5780630d342cab146123895780630d5defa4146123605780631309b324146122e15780631e1a268b146122be578063248a9ca31461229257806328eaf5bd14611ea75780632f2ff15d14611e6a57806336568abe14611e225780633784f00014611d175780633e64620814611cea5780633f4ba83a14611c735780634b31bb1014611c4a5780634fff540214611c245780635c975abb14611c0157806361d027b314611bd8578063653ac4221461110c5780636a61e5fc146110b3578063764467cc14610ffe57806377d392f014610dc65780637ff9b59614610da85780638456cb5914610d4257806388e32fc214610c8f5780638a18511314610c665780638ac2c68014610c4857806390838e0914610c0f57806391d1485414610bc4578063a217fddf14610ba8578063a6527f3914610b6a578063b13ef13814610b2c578063b37fd19014610802578063b9662797146107e4578063bbcc0a06146107c6578063bd4924321461078a578063c031a66f14610751578063c24a0f8b14610733578063c5c4744c14610715578063d547741f146106d4578063d59624b4146106b6578063df695abb14610677578063df8de3e7146102eb578063e985e367146102c25763fb903b1d0361000f57346102bf5760403660031901126102bf576024356004356102aa6124af565b6102b682821115612734565b60045560055580f35b80fd5b50346102bf57806003193601126102bf576003546040516001600160a01b039091168152602090f35b50346102bf57602090816003193601126102bf5761030761243d565b61030f61289e565b610317612777565b600e546001600160a01b0392908316330361061d5760085442106105e157828216918282526013855260408220549384156105a7576024868260035416604051928380926370a0823160e01b82523060048301525afa80156104c15786908590610571575b61038892501015612824565b838352601386528260408120556103a185600c546128fb565b600c55858560ff600d5460081c166000146104cc57906103e69183600354168487600d546040519687958694859363095ea7b360e01b855260101c1660048401612883565b03925af180156104c157610494575b50600d5460101c1690813b15610490578461042992849283604051809681958294630e306c4360e11b845260048401612883565b03925af1801561048557610471575b50505b7fd8138f8a3f377c5259ca548e70e4c2de94f129f5a11036a15b69513cba2b426a83604051848152a26001600255604051908152f35b61047b82916127d8565b6102bf5780610438565b6040513d84823e3d90fd5b8280fd5b6104b390873d89116104ba575b6104ab8183612801565b81019061286b565b50386103f5565b503d6104a1565b6040513d86823e3d90fd5b9091926104f59360035416908560405180968195829463a9059cbb60e01b845260048401612883565b03925af19182156105655791610548575b5061043b5760405162461bcd60e51b8152600481018490526015602482015274151bdad95b881d1c985b9cd9995c8819985a5b1959605a1b6044820152606490fd5b61055f9150843d86116104ba576104ab8183612801565b38610506565b604051903d90823e3d90fd5b50508681813d83116105a0575b6105888183612801565b8101031261059b5785610388915161037c565b600080fd5b503d61057e565b60405162461bcd60e51b81526004810187905260126024820152714e6f20746f6b656e7320746f20636c61696d60701b6044820152606490fd5b60405162461bcd60e51b815260048101859052601460248201527313585d1d5c9a5d1e481b9bdd081c995858da195960621b6044820152606490fd5b60405162461bcd60e51b815260206004820152602c60248201527f43616c6c6572206973206e6f742074686520696e766573746d656e744d616e6160448201526b19d95c8818dbdb9d1c9858dd60a21b6064820152608490fd5b50346102bf5760203660031901126102bf5760209060ff906040906001600160a01b036106a261243d565b168152601284522054166040519015158152f35b50346102bf57806003193601126102bf576020600854604051908152f35b50346102bf5760403660031901126102bf576107116004356106f4612453565b908084528360205261070c60016040862001546124e7565b6126d1565b5080f35b50346102bf57806003193601126102bf576020600b54604051908152f35b50346102bf57806003193601126102bf576020600754604051908152f35b50346102bf5760203660031901126102bf576020906040906001600160a01b0361077961243d565b168152601383522054604051908152f35b50346102bf5760203660031901126102bf576020906001600160a01b0390604090826107b461243d565b16815260158452205416604051908152f35b50346102bf57806003193601126102bf576020600c54604051908152f35b50346102bf57806003193601126102bf576020600a54604051908152f35b50346102bf5760603660031901126102bf5761081c61243d565b6001600160a01b03604480358281169360248035939092909186820361059b57610844612469565b61084c61289e565b8615610af55785169485610951575083471061091b578680808681945af13d15610916573d6001600160401b0381116109035760405190610897601f8201601f191660200183612801565b81528760203d92013e5b156108ca57505060206000805160206129c4833981519152915b604051908152a3600160025580f35b90721315535250481c995cd8dd594819985a5b1959606a1b60649260136040519362461bcd60e51b855260206004860152840152820152fd5b634e487b7160e01b885260416004528388fd5b6108a1565b60405162461bcd60e51b8152602060048201526010818501526f4e6f7420656e6f756768204c554d494160801b81840152606490fd5b600393919354168514610ab9576040516370a0823160e01b815230600482015260209390848184818a5afa8015610aae5786918a91610a7d575b5010610a465783856109b292604051938492839263a9059cbb60e01b845260048401612883565b03818b8a5af1908115610a3b578891610a1e575b50156109e65750505060206000805160206129c4833981519152916108bb565b60649291601372115490cc8c081c995cd8dd594819985a5b1959606a1b926040519462461bcd60e51b86526004860152840152820152fd5b610a359150843d86116104ba576104ab8183612801565b386109c6565b6040513d8a823e3d90fd5b60405162461bcd60e51b815260048101859052601181840152704e6f7420656e6f75676820746f6b656e7360781b81850152606490fd5b809250868092503d8311610aa7575b610a968183612801565b8101031261059b578590513861098b565b503d610a8c565b6040513d8b823e3d90fd5b7621b0b73737ba103932b9b1bab29039b0b632aa37b5b2b760491b60649260176040519362461bcd60e51b855260206004860152840152820152fd5b60405162461bcd60e51b81526020600482015260118186015270125b9d985b1a59081c9958da5c1a595b9d607a1b81850152606490fd5b50346102bf5760203660031901126102bf57610711610b4961243d565b610b51612469565b610b656001600160a01b0382161515612908565b612579565b50346102bf5760203660031901126102bf57610711610b8761243d565b610b8f612469565b610ba36001600160a01b0382161515612908565b61265c565b50346102bf57806003193601126102bf57602090604051908152f35b50346102bf5760403660031901126102bf576040610be0612453565b91600435815280602052209060018060a01b0316600052602052602060ff604060002054166040519015158152f35b50346102bf5760203660031901126102bf576020906040906001600160a01b03610c3761243d565b168152601483522054604051908152f35b50346102bf57806003193601126102bf576020600454604051908152f35b50346102bf57806003193601126102bf5760206040516000805160206129e48339815191528152f35b50346102bf5760203660031901126102bf57610ca961243d565b610cb1612469565b6001600160a01b039081168083526015602052604083205490911615610d075780825260156020908152604080842080546001600160a01b0319169055518381526000805160206129a48339815191529190a280f35b60405162461bcd60e51b81526020600482015260136024820152724e6f206f7261636c6520746f2072656d6f766560681b6044820152606490fd5b50346102bf57806003193601126102bf57610d5b612469565b610d63612777565b600160ff198154161760015560206040513381527f62e78cea01bee320cd4e420270b5ea74000d11b0c9f74754ebdbfc544b05a258918291a16020604051338152a180f35b50346102bf57806003193601126102bf576020601154604051908152f35b50346102bf57602080600319360112610ffa57610de161243d565b90610dea6124af565b610df261289e565b600854421115610fc8576001600160a01b0382811692908315610f9157600354166040516370a0823160e01b81523060048201528381602481855afa8015610f86578690610f57575b610e499150600c54906128fb565b918215610f1c5782610e749285928860405180968195829463a9059cbb60e01b845260048401612883565b03925af1908115610f11578591610ef4575b5015610ebe57907ffcbf6553b2cfc097c2301f1c071469a8839b462e7287e3692f238ccfc6b9208f91604051908152a2600160025580f35b60405162461bcd60e51b815260048101839052600e60248201526d149958db185a5b4819985a5b195960921b6044820152606490fd5b610f0b9150833d85116104ba576104ab8183612801565b38610e86565b6040513d87823e3d90fd5b60405162461bcd60e51b81526004810185905260136024820152724e6f20756e636c61696d656420746f6b656e7360681b6044820152606490fd5b508381813d8311610f7f575b610f6d8183612801565b8101031261059b57610e499051610e3b565b503d610f63565b6040513d88823e3d90fd5b60405162461bcd60e51b815260048101849052600f60248201526e496e76616c6964206164647265737360881b6044820152606490fd5b6064906040519062461bcd60e51b82526004820152600b60248201526a139bdd081b585d1d5c995960aa1b6044820152fd5b5080fd5b50346102bf5760403660031901126102bf5761101861243d565b611020612453565b611028612469565b6001600160a01b03908116918215611075571680835260156020908152604080852080546001600160a01b031916851790555192835290916000805160206129a48339815191529190a280f35b60405162461bcd60e51b8152602060048201526016602482015275496e76616c6964206f7261636c65206164647265737360501b6044820152606490fd5b50346102bf5760203660031901126102bf577f6b361c807733cc94a3b7bda39c1c94dcc0511e91aa47b0f7f918068e9397689060206004356110f36124af565b6110fe8115156128bf565b80601155604051908152a180f35b5060603660031901126102bf5761112161243d565b9061112a612453565b9161113361289e565b61113b612777565b600e546001600160a01b0316330361061d576001600160a01b03831615611b985760ff600d5416611b62576006544210611b2a57600754421015611af8576001600160a01b03811682526012602052604082205460ff1615611abb5760443515611a88576001600160a01b03818116835260156020526040832054168015611a5257604080516315f789a960e21b815291829060049082905afa908115611a475783916119f9575b506111f28382601b0b136128bf565b6001600160a01b0382166119865760125b81601b0b6044350291604435830490601b0b0361197257670de0b6b3a7640000820291808304670de0b6b3a764000014901517156119725760ff16604d811161197257670de0b6b3a76400009161125d91600a0a906127b8565b04916004548310611936576001600160a01b038416815260146020526040812054611289908490612795565b600554106118f857600b549261129f8185612795565b600a54106118c557670de0b6b3a76400008102818104670de0b6b3a764000014821517156118b1576011546112d3916127b8565b93841561187557816112e491612795565b600b556001600160a01b03851682526014602052604082208054909161130991612795565b905560ff600954166117f3575b6001600160a01b038216611673576044353403611634576010546001600160a01b0316803b15610ffa578160049160405192838092636db5a92360e11b825234905af1801561048557908291611620575b50505b60095460ff16156115d857600d5460081c60ff161561151d57600354600d5460405163095ea7b360e01b81529160209183916001600160a01b03908116918391879183916113c4918c9160109190911c1660048401612883565b03925af19081156104855782916114fe575b50156114c857600d5460101c6001600160a01b0316803b15610ffa57816040518092630e306c4360e11b82528183816114138a8c60048401612883565b03925af18015610485576114b4575b505060008051602061298483398151915260606020945b604080516001600160a01b03958616815260443588820152908101869052931692a2600b54600a54811015611477575b506001600255604051908152f35b827fcb67f20f64495b30f15524c55f90201dd6571d6b5c19dac183d2aeb25315b2dc91600160ff19600d541617600d55604051908152a138611469565b6114be82916127d8565b6102bf5780611422565b60405162461bcd60e51b815260206004820152600e60248201526d105c1c1c9bdd994819985a5b195960921b6044820152606490fd5b611517915060203d6020116104ba576104ab8183612801565b386113d6565b60035460405163a9059cbb60e01b81529060209082906001600160a01b031681858161154d8a8c60048401612883565b03925af191821561056557916115b9575b501561157d576000805160206129848339815191526060602094611439565b60405162461bcd60e51b8152602060048201526014602482015273105d5d1bcb5d1c985b9cd9995c8819985a5b195960621b6044820152606490fd5b6115d2915060203d6020116104ba576104ab8183612801565b3861155e565b606060209460406000805160206129848339815191529360018060a01b0383168152601388522061160a868254612795565b905561161885600c54612795565b600c55611439565b611629906127d8565b6102bf578038611367565b60405162461bcd60e51b8152602060048201526017602482015276125b98dbdc9c9958dd081b985d1a5d9948185b5bdd5b9d604a1b6044820152606490fd5b346117a4576040516323b872dd60e01b81526001600160a01b038581166004830152306024830152604480359083015260209082906064908290869088165af1801561048557611785575b5060105460405163095ea7b360e01b815290602090829081906116f190604435906001600160a01b031660048401612883565b0381856001600160a01b0388165af1801561048557611766575b506010546001600160a01b0316803b15610ffa578160405180926319c5aef560e11b82528183816117426044358a60048401612883565b03925af1801561048557611757575b5061136a565b611760906127d8565b38611751565b61177e9060203d6020116104ba576104ab8183612801565b503861170b565b61179d9060203d6020116104ba576104ab8183612801565b50386116be565b60405162461bcd60e51b815260206004820152602160248201527f446f206e6f742073656e642045544820666f7220746f6b656e207061796d656e6044820152601d60fa1b6064820152608490fd5b6003546040516370a0823160e01b815230600482015290602090829060249082906001600160a01b03165afa8015610485578490839061183f575b61183a92501015612824565b611316565b50506020813d60201161186d575b8161185a60209383612801565b81010312610ffa578361183a915161182e565b3d915061184d565b60405162461bcd60e51b8152602060048201526014602482015273546f6b656e20616d6f756e7420746f6f206c6f7760601b6044820152606490fd5b634e487b7160e01b83526011600452602483fd5b60405162461bcd60e51b815260206004820152600b60248201526a045786365656473206361760ac1b6044820152606490fd5b60405162461bcd60e51b8152602060048201526016602482015275115e18d959591cc81b585e081a5b9d995cdd1b595b9d60521b6044820152606490fd5b60405162461bcd60e51b815260206004820152601460248201527310995b1bddc81b5a5b881a5b9d995cdd1b595b9d60621b6044820152606490fd5b634e487b7160e01b84526011600452602484fd5b60405163313ce56760e01b81526020816004816001600160a01b0387165afa9081156104c15784916119b9575b50611203565b90506020813d6020116119f1575b816119d460209383612801565b810103126119ed575160ff811681036119ed57386119b3565b8380fd5b3d91506119c7565b90506040813d604011611a3f575b81611a1460409383612801565b810103126104905780519081601b0b82036119ed576020015163ffffffff81160361049057386111e3565b3d9150611a07565b6040513d85823e3d90fd5b60405162461bcd60e51b815260206004820152600e60248201526d13dc9858db19481b9bdd081cd95d60921b6044820152606490fd5b60405162461bcd60e51b815260206004820152600b60248201526a16995c9bc8185b5bdd5b9d60aa1b6044820152606490fd5b60405162461bcd60e51b8152602060048201526015602482015274151bdad95b881b9bdd081dda1a5d195b1a5cdd1959605a1b6044820152606490fd5b60405162461bcd60e51b815260206004820152600a60248201526914d85b1948195b99195960b21b6044820152606490fd5b60405162461bcd60e51b815260206004820152601060248201526f14d85b19481b9bdd081cdd185c9d195960821b6044820152606490fd5b60405162461bcd60e51b815260206004820152600e60248201526d14d85b19481a5cc818db1bdcd95960921b6044820152606490fd5b60405162461bcd60e51b8152602060048201526018602482015277496e76616c696420696e766573746f72206164647265737360401b6044820152606490fd5b50346102bf57806003193601126102bf57600f546040516001600160a01b039091168152602090f35b50346102bf57806003193601126102bf57602060ff600154166040519015158152f35b50346102bf57806003193601126102bf57602060ff600d5460081c166040519015158152f35b50346102bf57806003193601126102bf57600e546040516001600160a01b039091168152602090f35b50346102bf57806003193601126102bf57611c8c612469565b60015460ff811615611cd85760ff191660015560206040513381527f5db9ee0a495bf2e6ff9c91a7834c1ba4fdd244a5e8aa4e537bd38aeae4b073aa918291a16020604051338152a180f35b604051638dfc202b60e01b8152600490fd5b50346102bf57806003193601126102bf57600d5460405160109190911c6001600160a01b03168152602090f35b50346102bf5760203660031901126102bf57600435611d34612469565b42811115611dea57600754811115611d9a57600854811015611d565760075580f35b606460405162461bcd60e51b815260206004820152602060248201527f456e642064617465206d757374206265206265666f7265206d617475726974796044820152fd5b60405162461bcd60e51b815260206004820152602260248201527f4e657720656e642064617465206d7573742062652061667465722063757272656044820152611b9d60f21b6064820152608490fd5b60405162461bcd60e51b815260206004820152601060248201526f496e76616c696420656e64206461746560801b6044820152606490fd5b50346102bf5760403660031901126102bf57611e3c612453565b336001600160a01b03821603611e5857610711906004356126d1565b60405163334bd91960e11b8152600490fd5b50346102bf5760403660031901126102bf57610711600435611e8a612453565b9080845283602052611ea260016040862001546124e7565b6125f5565b50346102bf576101c03660031901126102bf57611ec261243d565b60c435908115158092036104905761012435906001600160a01b03908183169081840361228e576101443583811680910361228a5761016435908115158092036122865761018435908582168203612282576101a4359580871680970361227e57600e549460ff8660a01c16612243571694851561220957156121ce5780156121905785156121405760e43580156120fc57610104359081156120b85760243599604435611f72818d1115612734565b6064358042116120745760843591828210156120245761200d9d60018060a01b03199b8c600354161760035560045560055560065560075560a43560085560ff801960095416911617600955600a5560115584601054161760105561ff00600d549162010000600160b01b039060101b169260081b1690610100600160b01b0319161717600d551617600e556120073361250d565b50612579565b50600e805460ff60a01b1916600160a01b17905580f35b60405162461bcd60e51b815260206004820152602260248201527f53746172742064617465206d757374206265206265666f726520656e64206461604482015261746560f01b6064820152608490fd5b606460405162461bcd60e51b815260206004820152602060248201527f53746172742064617465206d75737420626520696e20746865206675747572656044820152fd5b60405162461bcd60e51b815260206004820152601c60248201527b546f6b656e207072696365206d75737420626520706f73697469766560201b6044820152606490fd5b606460405162461bcd60e51b815260206004820152602060248201527f46756e6472616973696e6720636170206d75737420626520706f7369746976656044820152fd5b60405162461bcd60e51b815260206004820152602260248201527f496e76616c696420696e766573746d656e74206d616e61676572206164647265604482015261737360f01b6064820152608490fd5b60405162461bcd60e51b8152602060048201526016602482015275496e76616c696420657363726f77206164647265737360501b6044820152606490fd5b60405162461bcd60e51b815260206004820152601360248201527224b73b30b634b2103a37b5b2b71037bbb732b960691b6044820152606490fd5b60405162461bcd60e51b815260206004820152601260248201527124b73b30b634b21039b0b632903a37b5b2b760711b6044820152606490fd5b60405162461bcd60e51b8152602060048201526013602482015272105b1c9958591e481a5b9a5d1a585b1a5e9959606a1b6044820152606490fd5b8980fd5b8880fd5b8780fd5b8680fd5b8580fd5b50346102bf5760203660031901126102bf57600160406020926004358152808452200154604051908152f35b50346102bf57806003193601126102bf57602060ff600d54166040519015158152f35b50346102bf5760403660031901126102bf576122fb61243d565b602435908115158092036104905760207f91ad45a5ce97c5eee55fa01496772afefc7f0757ed9eac59064e642690509dfb91612335612469565b6001600160a01b0316808552601282526040808620805460ff191660ff87161790555193845292a280f35b50346102bf57806003193601126102bf576010546040516001600160a01b039091168152602090f35b50346102bf57806003193601126102bf57602060ff600954166040519015158152f35b50346102bf57806003193601126102bf576020600654604051908152f35b50346102bf5760203660031901126102bf5760043563ffffffff60e01b8116809103610ffa57602090637965db0b60e01b8114908115612410575b506040519015158152f35b6301ffc9a760e01b14905082612405565b905034610ffa5781600319360112610ffa576020906005548152f35b600435906001600160a01b038216820361059b57565b602435906001600160a01b038216820361059b57565b336000908152600080516020612a24833981519152602052604081205460ff16156124915750565b6044906040519063e2517d3f60e01b82523360048301526024820152fd5b33600090815260008051602061296483398151915260205260409020546000805160206129e48339815191529060ff16156124915750565b80600052600060205260406000203360005260205260ff60406000205416156124915750565b6001600160a01b03166000818152600080516020612a24833981519152602052604081205490919060ff1661257557818052816020526040822081835260205260408220600160ff1982541617905533916000805160206129448339815191528180a4600190565b5090565b6001600160a01b0316600081815260008051602061296483398151915260205260408120549091906000805160206129e48339815191529060ff166125f057808352826020526040832082845260205260408320600160ff19825416179055600080516020612944833981519152339380a4600190565b505090565b9060009180835282602052604083209160018060a01b03169182845260205260ff604084205416156000146125f057808352826020526040832082845260205260408320600160ff19825416179055600080516020612944833981519152339380a4600190565b6001600160a01b0316600081815260008051602061296483398151915260205260408120549091906000805160206129e48339815191529060ff16156125f05780835282602052604083208284526020526040832060ff198154169055600080516020612a04833981519152339380a4600190565b9060009180835282602052604083209160018060a01b03169182845260205260ff6040842054166000146125f05780835282602052604083208284526020526040832060ff198154169055600080516020612a04833981519152339380a4600190565b1561273b57565b60405162461bcd60e51b8152602060048201526014602482015273135a5b880f881b585e081a5b9d995cdd1b595b9d60621b6044820152606490fd5b60ff6001541661278357565b60405163d93c066560e01b8152600490fd5b919082018092116127a257565b634e487b7160e01b600052601160045260246000fd5b81156127c2570490565b634e487b7160e01b600052601260045260246000fd5b6001600160401b0381116127eb57604052565b634e487b7160e01b600052604160045260246000fd5b601f909101601f19168101906001600160401b038211908210176127eb57604052565b1561282b57565b60405162461bcd60e51b8152602060048201526018602482015277496e73756666696369656e742073616c6520746f6b656e7360401b6044820152606490fd5b9081602091031261059b5751801515810361059b5790565b6001600160a01b039091168152602081019190915260400190565b60028054146128ad5760028055565b604051633ee5aeb560e01b8152600490fd5b156128c657565b60405162461bcd60e51b815260206004820152600d60248201526c496e76616c696420707269636560981b6044820152606490fd5b919082039182116127a257565b1561290f57565b60405162461bcd60e51b815260206004820152600c60248201526b5a65726f206164647265737360a01b6044820152606490fdfe2f8788117e7eff1d82e926ec794901d17c78024a50270940304540a733656f0d7dfc0114fc2b0320947240cbd60a9ffc193468a941c37441e641a928a8c116d593638e6cf18b4f6a839de65df95898221f5d9f7dc54b87d4b31d40297643266ec1d3048301c0d23629a2532c8defa6d68f8e1a0e4157918769e9fb1b2eeb888ed27dd37d941f5a1b76926e48140fdbf50a0c59defb5431a391a1260279eb1c4c35369b3a7bb98c90641a907c2fd643ea781341eba72ccffd47cb018c128c48c3f6391f5c32d9c69d2a47ea670b442974b53935d1edc7fd64eb21e047a839171bad3228b676f7d3cd4284a5443f17f1962b36e491b30a40b2405849e597ba5fb5a2646970667358221220a5233ada8de7139aca42700d178ca97a55eb988cb593e5e0cae0610ec216b8b864736f6c63430008140033","opcodes":"PUSH1 0x80 DUP1 PUSH1 0x40 MSTORE CALLVALUE PUSH2 0x1B JUMPI PUSH1 0x1 PUSH1 0x2 SSTORE PUSH2 0x2A79 SWAP1 DUP2 PUSH2 0x21 DUP3 CODECOPY RETURN JUMPDEST PUSH1 0x0 DUP1 REVERT INVALID PUSH1 0x80 DUP1 PUSH1 0x40 MSTORE PUSH1 0x4 CALLDATASIZE LT ISZERO PUSH2 0x94 JUMPI JUMPDEST POP CALLDATASIZE ISZERO PUSH2 0x53 JUMPI PUSH1 0x40 MLOAD PUSH3 0x461BCD PUSH1 0xE5 SHL DUP2 MSTORE PUSH1 0x20 PUSH1 0x4 DUP3 ADD MSTORE PUSH1 0x15 PUSH1 0x24 DUP3 ADD MSTORE PUSH21 0x11985B1B189858DAC81B9BDD081858D8D95C1D1959 PUSH1 0x5A SHL PUSH1 0x44 DUP3 ADD MSTORE PUSH1 0x64 SWAP1 REVERT JUMPDEST PUSH1 0x40 MLOAD PUSH3 0x461BCD PUSH1 0xE5 SHL DUP2 MSTORE PUSH1 0x20 PUSH1 0x4 DUP3 ADD MSTORE PUSH1 0x19 PUSH1 0x24 DUP3 ADD MSTORE PUSH25 0x111A5C9958DD081315535250481B9BDD081858D8D95C1D1959 PUSH1 0x3A SHL PUSH1 0x44 DUP3 ADD MSTORE PUSH1 0x64 SWAP1 REVERT JUMPDEST PUSH1 0x0 SWAP1 DUP2 CALLDATALOAD PUSH1 0xE0 SHR SWAP1 DUP2 PUSH3 0x2E1316 EQ PUSH2 0x2421 JUMPI POP DUP1 PUSH4 0x1FFC9A7 EQ PUSH2 0x23CA JUMPI DUP1 PUSH4 0xB97BC86 EQ PUSH2 0x23AC JUMPI DUP1 PUSH4 0xD342CAB EQ PUSH2 0x2389 JUMPI DUP1 PUSH4 0xD5DEFA4 EQ PUSH2 0x2360 JUMPI DUP1 PUSH4 0x1309B324 EQ PUSH2 0x22E1 JUMPI DUP1 PUSH4 0x1E1A268B EQ PUSH2 0x22BE JUMPI DUP1 PUSH4 0x248A9CA3 EQ PUSH2 0x2292 JUMPI DUP1 PUSH4 0x28EAF5BD EQ PUSH2 0x1EA7 JUMPI DUP1 PUSH4 0x2F2FF15D EQ PUSH2 0x1E6A JUMPI DUP1 PUSH4 0x36568ABE EQ PUSH2 0x1E22 JUMPI DUP1 PUSH4 0x3784F000 EQ PUSH2 0x1D17 JUMPI DUP1 PUSH4 0x3E646208 EQ PUSH2 0x1CEA JUMPI DUP1 PUSH4 0x3F4BA83A EQ PUSH2 0x1C73 JUMPI DUP1 PUSH4 0x4B31BB10 EQ PUSH2 0x1C4A JUMPI DUP1 PUSH4 0x4FFF5402 EQ PUSH2 0x1C24 JUMPI DUP1 PUSH4 0x5C975ABB EQ PUSH2 0x1C01 JUMPI DUP1 PUSH4 0x61D027B3 EQ PUSH2 0x1BD8 JUMPI DUP1 PUSH4 0x653AC422 EQ PUSH2 0x110C JUMPI DUP1 PUSH4 0x6A61E5FC EQ PUSH2 0x10B3 JUMPI DUP1 PUSH4 0x764467CC EQ PUSH2 0xFFE JUMPI DUP1 PUSH4 0x77D392F0 EQ PUSH2 0xDC6 JUMPI DUP1 PUSH4 0x7FF9B596 EQ PUSH2 0xDA8 JUMPI DUP1 PUSH4 0x8456CB59 EQ PUSH2 0xD42 JUMPI DUP1 PUSH4 0x88E32FC2 EQ PUSH2 0xC8F JUMPI DUP1 PUSH4 0x8A185113 EQ PUSH2 0xC66 JUMPI DUP1 PUSH4 0x8AC2C680 EQ PUSH2 0xC48 JUMPI DUP1 PUSH4 0x90838E09 EQ PUSH2 0xC0F JUMPI DUP1 PUSH4 0x91D14854 EQ PUSH2 0xBC4 JUMPI DUP1 PUSH4 0xA217FDDF EQ PUSH2 0xBA8 JUMPI DUP1 PUSH4 0xA6527F39 EQ PUSH2 0xB6A JUMPI DUP1 PUSH4 0xB13EF138 EQ PUSH2 0xB2C JUMPI DUP1 PUSH4 0xB37FD190 EQ PUSH2 0x802 JUMPI DUP1 PUSH4 0xB9662797 EQ PUSH2 0x7E4 JUMPI DUP1 PUSH4 0xBBCC0A06 EQ PUSH2 0x7C6 JUMPI DUP1 PUSH4 0xBD492432 EQ PUSH2 0x78A JUMPI DUP1 PUSH4 0xC031A66F EQ PUSH2 0x751 JUMPI DUP1 PUSH4 0xC24A0F8B EQ PUSH2 0x733 JUMPI DUP1 PUSH4 0xC5C4744C EQ PUSH2 0x715 JUMPI DUP1 PUSH4 0xD547741F EQ PUSH2 0x6D4 JUMPI DUP1 PUSH4 0xD59624B4 EQ PUSH2 0x6B6 JUMPI DUP1 PUSH4 0xDF695ABB EQ PUSH2 0x677 JUMPI DUP1 PUSH4 0xDF8DE3E7 EQ PUSH2 0x2EB JUMPI DUP1 PUSH4 0xE985E367 EQ PUSH2 0x2C2 JUMPI PUSH4 0xFB903B1D SUB PUSH2 0xF JUMPI CALLVALUE PUSH2 0x2BF JUMPI PUSH1 0x40 CALLDATASIZE PUSH1 0x3 NOT ADD SLT PUSH2 0x2BF JUMPI PUSH1 0x24 CALLDATALOAD PUSH1 0x4 CALLDATALOAD PUSH2 0x2AA PUSH2 0x24AF JUMP JUMPDEST PUSH2 0x2B6 DUP3 DUP3 GT ISZERO PUSH2 0x2734 JUMP JUMPDEST PUSH1 0x4 SSTORE PUSH1 0x5 SSTORE DUP1 RETURN JUMPDEST DUP1 REVERT JUMPDEST POP CALLVALUE PUSH2 0x2BF JUMPI DUP1 PUSH1 0x3 NOT CALLDATASIZE ADD SLT PUSH2 0x2BF JUMPI PUSH1 0x3 SLOAD PUSH1 0x40 MLOAD PUSH1 0x1 PUSH1 0x1 PUSH1 0xA0 SHL SUB SWAP1 SWAP2 AND DUP2 MSTORE PUSH1 0x20 SWAP1 RETURN JUMPDEST POP CALLVALUE PUSH2 0x2BF JUMPI PUSH1 0x20 SWAP1 DUP2 PUSH1 0x3 NOT CALLDATASIZE ADD SLT PUSH2 0x2BF JUMPI PUSH2 0x307 PUSH2 0x243D JUMP JUMPDEST PUSH2 0x30F PUSH2 0x289E JUMP JUMPDEST PUSH2 0x317 PUSH2 0x2777 JUMP JUMPDEST PUSH1 0xE SLOAD PUSH1 0x1 PUSH1 0x1 PUSH1 0xA0 SHL SUB SWAP3 SWAP1 DUP4 AND CALLER SUB PUSH2 0x61D JUMPI PUSH1 0x8 SLOAD TIMESTAMP LT PUSH2 0x5E1 JUMPI DUP3 DUP3 AND SWAP2 DUP3 DUP3 MSTORE PUSH1 0x13 DUP6 MSTORE PUSH1 0x40 DUP3 KECCAK256 SLOAD SWAP4 DUP5 ISZERO PUSH2 0x5A7 JUMPI PUSH1 0x24 DUP7 DUP3 PUSH1 0x3 SLOAD AND PUSH1 0x40 MLOAD SWAP3 DUP4 DUP1 SWAP3 PUSH4 0x70A08231 PUSH1 0xE0 SHL DUP3 MSTORE ADDRESS PUSH1 0x4 DUP4 ADD MSTORE GAS STATICCALL DUP1 ISZERO PUSH2 0x4C1 JUMPI DUP7 SWAP1 DUP6 SWAP1 PUSH2 0x571 JUMPI JUMPDEST PUSH2 0x388 SWAP3 POP LT ISZERO PUSH2 0x2824 JUMP JUMPDEST DUP4 DUP4 MSTORE PUSH1 0x13 DUP7 MSTORE DUP3 PUSH1 0x40 DUP2 KECCAK256 SSTORE PUSH2 0x3A1 DUP6 PUSH1 0xC SLOAD PUSH2 0x28FB JUMP JUMPDEST PUSH1 0xC SSTORE DUP6 DUP6 PUSH1 0xFF PUSH1 0xD SLOAD PUSH1 0x8 SHR AND PUSH1 0x0 EQ PUSH2 0x4CC JUMPI SWAP1 PUSH2 0x3E6 SWAP2 DUP4 PUSH1 0x3 SLOAD AND DUP5 DUP8 PUSH1 0xD SLOAD PUSH1 0x40 MLOAD SWAP7 DUP8 SWAP6 DUP7 SWAP5 DUP6 SWAP4 PUSH4 0x95EA7B3 PUSH1 0xE0 SHL DUP6 MSTORE PUSH1 0x10 SHR AND PUSH1 0x4 DUP5 ADD PUSH2 0x2883 JUMP JUMPDEST SUB SWAP3 GAS CALL DUP1 ISZERO PUSH2 0x4C1 JUMPI PUSH2 0x494 JUMPI JUMPDEST POP PUSH1 0xD SLOAD PUSH1 0x10 SHR AND SWAP1 DUP2 EXTCODESIZE ISZERO PUSH2 0x490 JUMPI DUP5 PUSH2 0x429 SWAP3 DUP5 SWAP3 DUP4 PUSH1 0x40 MLOAD DUP1 SWAP7 DUP2 SWAP6 DUP3 SWAP5 PUSH4 0xE306C43 PUSH1 0xE1 SHL DUP5 MSTORE PUSH1 0x4 DUP5 ADD PUSH2 0x2883 JUMP JUMPDEST SUB SWAP3 GAS CALL DUP1 ISZERO PUSH2 0x485 JUMPI PUSH2 0x471 JUMPI JUMPDEST POP POP JUMPDEST PUSH32 0xD8138F8A3F377C5259CA548E70E4C2DE94F129F5A11036A15B69513CBA2B426A DUP4 PUSH1 0x40 MLOAD DUP5 DUP2 MSTORE LOG2 PUSH1 0x1 PUSH1 0x2 SSTORE PUSH1 0x40 MLOAD SWAP1 DUP2 MSTORE RETURN JUMPDEST PUSH2 0x47B DUP3 SWAP2 PUSH2 0x27D8 JUMP JUMPDEST PUSH2 0x2BF JUMPI DUP1 PUSH2 0x438 JUMP JUMPDEST PUSH1 0x40 MLOAD RETURNDATASIZE DUP5 DUP3 RETURNDATACOPY RETURNDATASIZE SWAP1 REVERT JUMPDEST DUP3 DUP1 REVERT JUMPDEST PUSH2 0x4B3 SWAP1 DUP8 RETURNDATASIZE DUP10 GT PUSH2 0x4BA JUMPI JUMPDEST PUSH2 0x4AB DUP2 DUP4 PUSH2 0x2801 JUMP JUMPDEST DUP2 ADD SWAP1 PUSH2 0x286B JUMP JUMPDEST POP CODESIZE PUSH2 0x3F5 JUMP JUMPDEST POP RETURNDATASIZE PUSH2 0x4A1 JUMP JUMPDEST PUSH1 0x40 MLOAD RETURNDATASIZE DUP7 DUP3 RETURNDATACOPY RETURNDATASIZE SWAP1 REVERT JUMPDEST SWAP1 SWAP2 SWAP3 PUSH2 0x4F5 SWAP4 PUSH1 0x3 SLOAD AND SWAP1 DUP6 PUSH1 0x40 MLOAD DUP1 SWAP7 DUP2 SWAP6 DUP3 SWAP5 PUSH4 0xA9059CBB PUSH1 0xE0 SHL DUP5 MSTORE PUSH1 0x4 DUP5 ADD PUSH2 0x2883 JUMP JUMPDEST SUB SWAP3 GAS CALL SWAP2 DUP3 ISZERO PUSH2 0x565 JUMPI SWAP2 PUSH2 0x548 JUMPI JUMPDEST POP PUSH2 0x43B JUMPI PUSH1 0x40 MLOAD PUSH3 0x461BCD PUSH1 0xE5 SHL DUP2 MSTORE PUSH1 0x4 DUP2 ADD DUP5 SWAP1 MSTORE PUSH1 0x15 PUSH1 0x24 DUP3 ADD MSTORE PUSH21 0x151BDAD95B881D1C985B9CD9995C8819985A5B1959 PUSH1 0x5A SHL PUSH1 0x44 DUP3 ADD MSTORE PUSH1 0x64 SWAP1 REVERT JUMPDEST PUSH2 0x55F SWAP2 POP DUP5 RETURNDATASIZE DUP7 GT PUSH2 0x4BA JUMPI PUSH2 0x4AB DUP2 DUP4 PUSH2 0x2801 JUMP JUMPDEST CODESIZE PUSH2 0x506 JUMP JUMPDEST PUSH1 0x40 MLOAD SWAP1 RETURNDATASIZE SWAP1 DUP3 RETURNDATACOPY RETURNDATASIZE SWAP1 REVERT JUMPDEST POP POP DUP7 DUP2 DUP2 RETURNDATASIZE DUP4 GT PUSH2 0x5A0 JUMPI JUMPDEST PUSH2 0x588 DUP2 DUP4 PUSH2 0x2801 JUMP JUMPDEST DUP2 ADD SUB SLT PUSH2 0x59B JUMPI DUP6 PUSH2 0x388 SWAP2 MLOAD PUSH2 0x37C JUMP JUMPDEST PUSH1 0x0 DUP1 REVERT JUMPDEST POP RETURNDATASIZE PUSH2 0x57E JUMP JUMPDEST PUSH1 0x40 MLOAD PUSH3 0x461BCD PUSH1 0xE5 SHL DUP2 MSTORE PUSH1 0x4 DUP2 ADD DUP8 SWAP1 MSTORE PUSH1 0x12 PUSH1 0x24 DUP3 ADD MSTORE PUSH18 0x4E6F20746F6B656E7320746F20636C61696D PUSH1 0x70 SHL PUSH1 0x44 DUP3 ADD MSTORE PUSH1 0x64 SWAP1 REVERT JUMPDEST PUSH1 0x40 MLOAD PUSH3 0x461BCD PUSH1 0xE5 SHL DUP2 MSTORE PUSH1 0x4 DUP2 ADD DUP6 SWAP1 MSTORE PUSH1 0x14 PUSH1 0x24 DUP3 ADD MSTORE PUSH20 0x13585D1D5C9A5D1E481B9BDD081C995858DA1959 PUSH1 0x62 SHL PUSH1 0x44 DUP3 ADD MSTORE PUSH1 0x64 SWAP1 REVERT JUMPDEST PUSH1 0x40 MLOAD PUSH3 0x461BCD PUSH1 0xE5 SHL DUP2 MSTORE PUSH1 0x20 PUSH1 0x4 DUP3 ADD MSTORE PUSH1 0x2C PUSH1 0x24 DUP3 ADD MSTORE PUSH32 0x43616C6C6572206973206E6F742074686520696E766573746D656E744D616E61 PUSH1 0x44 DUP3 ADD MSTORE PUSH12 0x19D95C8818DBDB9D1C9858DD PUSH1 0xA2 SHL PUSH1 0x64 DUP3 ADD MSTORE PUSH1 0x84 SWAP1 REVERT JUMPDEST POP CALLVALUE PUSH2 0x2BF JUMPI PUSH1 0x20 CALLDATASIZE PUSH1 0x3 NOT ADD SLT PUSH2 0x2BF JUMPI PUSH1 0x20 SWAP1 PUSH1 0xFF SWAP1 PUSH1 0x40 SWAP1 PUSH1 0x1 PUSH1 0x1 PUSH1 0xA0 SHL SUB PUSH2 0x6A2 PUSH2 0x243D JUMP JUMPDEST AND DUP2 MSTORE PUSH1 0x12 DUP5 MSTORE KECCAK256 SLOAD AND PUSH1 0x40 MLOAD SWAP1 ISZERO ISZERO DUP2 MSTORE RETURN JUMPDEST POP CALLVALUE PUSH2 0x2BF JUMPI DUP1 PUSH1 0x3 NOT CALLDATASIZE ADD SLT PUSH2 0x2BF JUMPI PUSH1 0x20 PUSH1 0x8 SLOAD PUSH1 0x40 MLOAD SWAP1 DUP2 MSTORE RETURN JUMPDEST POP CALLVALUE PUSH2 0x2BF JUMPI PUSH1 0x40 CALLDATASIZE PUSH1 0x3 NOT ADD SLT PUSH2 0x2BF JUMPI PUSH2 0x711 PUSH1 0x4 CALLDATALOAD PUSH2 0x6F4 PUSH2 0x2453 JUMP JUMPDEST SWAP1 DUP1 DUP5 MSTORE DUP4 PUSH1 0x20 MSTORE PUSH2 0x70C PUSH1 0x1 PUSH1 0x40 DUP7 KECCAK256 ADD SLOAD PUSH2 0x24E7 JUMP JUMPDEST PUSH2 0x26D1 JUMP JUMPDEST POP DUP1 RETURN JUMPDEST POP CALLVALUE PUSH2 0x2BF JUMPI DUP1 PUSH1 0x3 NOT CALLDATASIZE ADD SLT PUSH2 0x2BF JUMPI PUSH1 0x20 PUSH1 0xB SLOAD PUSH1 0x40 MLOAD SWAP1 DUP2 MSTORE RETURN JUMPDEST POP CALLVALUE PUSH2 0x2BF JUMPI DUP1 PUSH1 0x3 NOT CALLDATASIZE ADD SLT PUSH2 0x2BF JUMPI PUSH1 0x20 PUSH1 0x7 SLOAD PUSH1 0x40 MLOAD SWAP1 DUP2 MSTORE RETURN JUMPDEST POP CALLVALUE PUSH2 0x2BF JUMPI PUSH1 0x20 CALLDATASIZE PUSH1 0x3 NOT ADD SLT PUSH2 0x2BF JUMPI PUSH1 0x20 SWAP1 PUSH1 0x40 SWAP1 PUSH1 0x1 PUSH1 0x1 PUSH1 0xA0 SHL SUB PUSH2 0x779 PUSH2 0x243D JUMP JUMPDEST AND DUP2 MSTORE PUSH1 0x13 DUP4 MSTORE KECCAK256 SLOAD PUSH1 0x40 MLOAD SWAP1 DUP2 MSTORE RETURN JUMPDEST POP CALLVALUE PUSH2 0x2BF JUMPI PUSH1 0x20 CALLDATASIZE PUSH1 0x3 NOT ADD SLT PUSH2 0x2BF JUMPI PUSH1 0x20 SWAP1 PUSH1 0x1 PUSH1 0x1 PUSH1 0xA0 SHL SUB SWAP1 PUSH1 0x40 SWAP1 DUP3 PUSH2 0x7B4 PUSH2 0x243D JUMP JUMPDEST AND DUP2 MSTORE PUSH1 0x15 DUP5 MSTORE KECCAK256 SLOAD AND PUSH1 0x40 MLOAD SWAP1 DUP2 MSTORE RETURN JUMPDEST POP CALLVALUE PUSH2 0x2BF JUMPI DUP1 PUSH1 0x3 NOT CALLDATASIZE ADD SLT PUSH2 0x2BF JUMPI PUSH1 0x20 PUSH1 0xC SLOAD PUSH1 0x40 MLOAD SWAP1 DUP2 MSTORE RETURN JUMPDEST POP CALLVALUE PUSH2 0x2BF JUMPI DUP1 PUSH1 0x3 NOT CALLDATASIZE ADD SLT PUSH2 0x2BF JUMPI PUSH1 0x20 PUSH1 0xA SLOAD PUSH1 0x40 MLOAD SWAP1 DUP2 MSTORE RETURN JUMPDEST POP CALLVALUE PUSH2 0x2BF JUMPI PUSH1 0x60 CALLDATASIZE PUSH1 0x3 NOT ADD SLT PUSH2 0x2BF JUMPI PUSH2 0x81C PUSH2 0x243D JUMP JUMPDEST PUSH1 0x1 PUSH1 0x1 PUSH1 0xA0 SHL SUB PUSH1 0x44 DUP1 CALLDATALOAD DUP3 DUP2 AND SWAP4 PUSH1 0x24 DUP1 CALLDATALOAD SWAP4 SWAP1 SWAP3 SWAP1 SWAP2 DUP7 DUP3 SUB PUSH2 0x59B JUMPI PUSH2 0x844 PUSH2 0x2469 JUMP JUMPDEST PUSH2 0x84C PUSH2 0x289E JUMP JUMPDEST DUP7 ISZERO PUSH2 0xAF5 JUMPI DUP6 AND SWAP5 DUP6 PUSH2 0x951 JUMPI POP DUP4 SELFBALANCE LT PUSH2 0x91B JUMPI DUP7 DUP1 DUP1 DUP7 DUP2 SWAP5 GAS CALL RETURNDATASIZE ISZERO PUSH2 0x916 JUMPI RETURNDATASIZE PUSH1 0x1 PUSH1 0x1 PUSH1 0x40 SHL SUB DUP2 GT PUSH2 0x903 JUMPI PUSH1 0x40 MLOAD SWAP1 PUSH2 0x897 PUSH1 0x1F DUP3 ADD PUSH1 0x1F NOT AND PUSH1 0x20 ADD DUP4 PUSH2 0x2801 JUMP JUMPDEST DUP2 MSTORE DUP8 PUSH1 0x20 RETURNDATASIZE SWAP3 ADD RETURNDATACOPY JUMPDEST ISZERO PUSH2 0x8CA JUMPI POP POP PUSH1 0x20 PUSH1 0x0 DUP1 MLOAD PUSH1 0x20 PUSH2 0x29C4 DUP4 CODECOPY DUP2 MLOAD SWAP2 MSTORE SWAP2 JUMPDEST PUSH1 0x40 MLOAD SWAP1 DUP2 MSTORE LOG3 PUSH1 0x1 PUSH1 0x2 SSTORE DUP1 RETURN JUMPDEST SWAP1 PUSH19 0x1315535250481C995CD8DD594819985A5B1959 PUSH1 0x6A SHL PUSH1 0x64 SWAP3 PUSH1 0x13 PUSH1 0x40 MLOAD SWAP4 PUSH3 0x461BCD PUSH1 0xE5 SHL DUP6 MSTORE PUSH1 0x20 PUSH1 0x4 DUP7 ADD MSTORE DUP5 ADD MSTORE DUP3 ADD MSTORE REVERT JUMPDEST PUSH4 0x4E487B71 PUSH1 0xE0 SHL DUP9 MSTORE PUSH1 0x41 PUSH1 0x4 MSTORE DUP4 DUP9 REVERT JUMPDEST PUSH2 0x8A1 JUMP JUMPDEST PUSH1 0x40 MLOAD PUSH3 0x461BCD PUSH1 0xE5 SHL DUP2 MSTORE PUSH1 0x20 PUSH1 0x4 DUP3 ADD MSTORE PUSH1 0x10 DUP2 DUP6 ADD MSTORE PUSH16 0x4E6F7420656E6F756768204C554D4941 PUSH1 0x80 SHL DUP2 DUP5 ADD MSTORE PUSH1 0x64 SWAP1 REVERT JUMPDEST PUSH1 0x3 SWAP4 SWAP2 SWAP4 SLOAD AND DUP6 EQ PUSH2 0xAB9 JUMPI PUSH1 0x40 MLOAD PUSH4 0x70A08231 PUSH1 0xE0 SHL DUP2 MSTORE ADDRESS PUSH1 0x4 DUP3 ADD MSTORE PUSH1 0x20 SWAP4 SWAP1 DUP5 DUP2 DUP5 DUP2 DUP11 GAS STATICCALL DUP1 ISZERO PUSH2 0xAAE JUMPI DUP7 SWAP2 DUP11 SWAP2 PUSH2 0xA7D JUMPI JUMPDEST POP LT PUSH2 0xA46 JUMPI DUP4 DUP6 PUSH2 0x9B2 SWAP3 PUSH1 0x40 MLOAD SWAP4 DUP5 SWAP3 DUP4 SWAP3 PUSH4 0xA9059CBB PUSH1 0xE0 SHL DUP5 MSTORE PUSH1 0x4 DUP5 ADD PUSH2 0x2883 JUMP JUMPDEST SUB DUP2 DUP12 DUP11 GAS CALL SWAP1 DUP2 ISZERO PUSH2 0xA3B JUMPI DUP9 SWAP2 PUSH2 0xA1E JUMPI JUMPDEST POP ISZERO PUSH2 0x9E6 JUMPI POP POP POP PUSH1 0x20 PUSH1 0x0 DUP1 MLOAD PUSH1 0x20 PUSH2 0x29C4 DUP4 CODECOPY DUP2 MLOAD SWAP2 MSTORE SWAP2 PUSH2 0x8BB JUMP JUMPDEST PUSH1 0x64 SWAP3 SWAP2 PUSH1 0x13 PUSH19 0x115490CC8C081C995CD8DD594819985A5B1959 PUSH1 0x6A SHL SWAP3 PUSH1 0x40 MLOAD SWAP5 PUSH3 0x461BCD PUSH1 0xE5 SHL DUP7 MSTORE PUSH1 0x4 DUP7 ADD MSTORE DUP5 ADD MSTORE DUP3 ADD MSTORE REVERT JUMPDEST PUSH2 0xA35 SWAP2 POP DUP5 RETURNDATASIZE DUP7 GT PUSH2 0x4BA JUMPI PUSH2 0x4AB DUP2 DUP4 PUSH2 0x2801 JUMP JUMPDEST CODESIZE PUSH2 0x9C6 JUMP JUMPDEST PUSH1 0x40 MLOAD RETURNDATASIZE DUP11 DUP3 RETURNDATACOPY RETURNDATASIZE SWAP1 REVERT JUMPDEST PUSH1 0x40 MLOAD PUSH3 0x461BCD PUSH1 0xE5 SHL DUP2 MSTORE PUSH1 0x4 DUP2 ADD DUP6 SWAP1 MSTORE PUSH1 0x11 DUP2 DUP5 ADD MSTORE PUSH17 0x4E6F7420656E6F75676820746F6B656E73 PUSH1 0x78 SHL DUP2 DUP6 ADD MSTORE PUSH1 0x64 SWAP1 REVERT JUMPDEST DUP1 SWAP3 POP DUP7 DUP1 SWAP3 POP RETURNDATASIZE DUP4 GT PUSH2 0xAA7 JUMPI JUMPDEST PUSH2 0xA96 DUP2 DUP4 PUSH2 0x2801 JUMP JUMPDEST DUP2 ADD SUB SLT PUSH2 0x59B JUMPI DUP6 SWAP1 MLOAD CODESIZE PUSH2 0x98B JUMP JUMPDEST POP RETURNDATASIZE PUSH2 0xA8C JUMP JUMPDEST PUSH1 0x40 MLOAD RETURNDATASIZE DUP12 DUP3 RETURNDATACOPY RETURNDATASIZE SWAP1 REVERT JUMPDEST PUSH23 0x21B0B73737BA103932B9B1BAB29039B0B632AA37B5B2B7 PUSH1 0x49 SHL PUSH1 0x64 SWAP3 PUSH1 0x17 PUSH1 0x40 MLOAD SWAP4 PUSH3 0x461BCD PUSH1 0xE5 SHL DUP6 MSTORE PUSH1 0x20 PUSH1 0x4 DUP7 ADD MSTORE DUP5 ADD MSTORE DUP3 ADD MSTORE REVERT JUMPDEST PUSH1 0x40 MLOAD PUSH3 0x461BCD PUSH1 0xE5 SHL DUP2 MSTORE PUSH1 0x20 PUSH1 0x4 DUP3 ADD MSTORE PUSH1 0x11 DUP2 DUP7 ADD MSTORE PUSH17 0x125B9D985B1A59081C9958DA5C1A595B9D PUSH1 0x7A SHL DUP2 DUP6 ADD MSTORE PUSH1 0x64 SWAP1 REVERT JUMPDEST POP CALLVALUE PUSH2 0x2BF JUMPI PUSH1 0x20 CALLDATASIZE PUSH1 0x3 NOT ADD SLT PUSH2 0x2BF JUMPI PUSH2 0x711 PUSH2 0xB49 PUSH2 0x243D JUMP JUMPDEST PUSH2 0xB51 PUSH2 0x2469 JUMP JUMPDEST PUSH2 0xB65 PUSH1 0x1 PUSH1 0x1 PUSH1 0xA0 SHL SUB DUP3 AND ISZERO ISZERO PUSH2 0x2908 JUMP JUMPDEST PUSH2 0x2579 JUMP JUMPDEST POP CALLVALUE PUSH2 0x2BF JUMPI PUSH1 0x20 CALLDATASIZE PUSH1 0x3 NOT ADD SLT PUSH2 0x2BF JUMPI PUSH2 0x711 PUSH2 0xB87 PUSH2 0x243D JUMP JUMPDEST PUSH2 0xB8F PUSH2 0x2469 JUMP JUMPDEST PUSH2 0xBA3 PUSH1 0x1 PUSH1 0x1 PUSH1 0xA0 SHL SUB DUP3 AND ISZERO ISZERO PUSH2 0x2908 JUMP JUMPDEST PUSH2 0x265C JUMP JUMPDEST POP CALLVALUE PUSH2 0x2BF JUMPI DUP1 PUSH1 0x3 NOT CALLDATASIZE ADD SLT PUSH2 0x2BF JUMPI PUSH1 0x20 SWAP1 PUSH1 0x40 MLOAD SWAP1 DUP2 MSTORE RETURN JUMPDEST POP CALLVALUE PUSH2 0x2BF JUMPI PUSH1 0x40 CALLDATASIZE PUSH1 0x3 NOT ADD SLT PUSH2 0x2BF JUMPI PUSH1 0x40 PUSH2 0xBE0 PUSH2 0x2453 JUMP JUMPDEST SWAP2 PUSH1 0x4 CALLDATALOAD DUP2 MSTORE DUP1 PUSH1 0x20 MSTORE KECCAK256 SWAP1 PUSH1 0x1 DUP1 PUSH1 0xA0 SHL SUB AND PUSH1 0x0 MSTORE PUSH1 0x20 MSTORE PUSH1 0x20 PUSH1 0xFF PUSH1 0x40 PUSH1 0x0 KECCAK256 SLOAD AND PUSH1 0x40 MLOAD SWAP1 ISZERO ISZERO DUP2 MSTORE RETURN JUMPDEST POP CALLVALUE PUSH2 0x2BF JUMPI PUSH1 0x20 CALLDATASIZE PUSH1 0x3 NOT ADD SLT PUSH2 0x2BF JUMPI PUSH1 0x20 SWAP1 PUSH1 0x40 SWAP1 PUSH1 0x1 PUSH1 0x1 PUSH1 0xA0 SHL SUB PUSH2 0xC37 PUSH2 0x243D JUMP JUMPDEST AND DUP2 MSTORE PUSH1 0x14 DUP4 MSTORE KECCAK256 SLOAD PUSH1 0x40 MLOAD SWAP1 DUP2 MSTORE RETURN JUMPDEST POP CALLVALUE PUSH2 0x2BF JUMPI DUP1 PUSH1 0x3 NOT CALLDATASIZE ADD SLT PUSH2 0x2BF JUMPI PUSH1 0x20 PUSH1 0x4 SLOAD PUSH1 0x40 MLOAD SWAP1 DUP2 MSTORE RETURN JUMPDEST POP CALLVALUE PUSH2 0x2BF JUMPI DUP1 PUSH1 0x3 NOT CALLDATASIZE ADD SLT PUSH2 0x2BF JUMPI PUSH1 0x20 PUSH1 0x40 MLOAD PUSH1 0x0 DUP1 MLOAD PUSH1 0x20 PUSH2 0x29E4 DUP4 CODECOPY DUP2 MLOAD SWAP2 MSTORE DUP2 MSTORE RETURN JUMPDEST POP CALLVALUE PUSH2 0x2BF JUMPI PUSH1 0x20 CALLDATASIZE PUSH1 0x3 NOT ADD SLT PUSH2 0x2BF JUMPI PUSH2 0xCA9 PUSH2 0x243D JUMP JUMPDEST PUSH2 0xCB1 PUSH2 0x2469 JUMP JUMPDEST PUSH1 0x1 PUSH1 0x1 PUSH1 0xA0 SHL SUB SWAP1 DUP2 AND DUP1 DUP4 MSTORE PUSH1 0x15 PUSH1 0x20 MSTORE PUSH1 0x40 DUP4 KECCAK256 SLOAD SWAP1 SWAP2 AND ISZERO PUSH2 0xD07 JUMPI DUP1 DUP3 MSTORE PUSH1 0x15 PUSH1 0x20 SWAP1 DUP2 MSTORE PUSH1 0x40 DUP1 DUP5 KECCAK256 DUP1 SLOAD PUSH1 0x1 PUSH1 0x1 PUSH1 0xA0 SHL SUB NOT AND SWAP1 SSTORE MLOAD DUP4 DUP2 MSTORE PUSH1 0x0 DUP1 MLOAD PUSH1 0x20 PUSH2 0x29A4 DUP4 CODECOPY DUP2 MLOAD SWAP2 MSTORE SWAP2 SWAP1 LOG2 DUP1 RETURN JUMPDEST PUSH1 0x40 MLOAD PUSH3 0x461BCD PUSH1 0xE5 SHL DUP2 MSTORE PUSH1 0x20 PUSH1 0x4 DUP3 ADD MSTORE PUSH1 0x13 PUSH1 0x24 DUP3 ADD MSTORE PUSH19 0x4E6F206F7261636C6520746F2072656D6F7665 PUSH1 0x68 SHL PUSH1 0x44 DUP3 ADD MSTORE PUSH1 0x64 SWAP1 REVERT JUMPDEST POP CALLVALUE PUSH2 0x2BF JUMPI DUP1 PUSH1 0x3 NOT CALLDATASIZE ADD SLT PUSH2 0x2BF JUMPI PUSH2 0xD5B PUSH2 0x2469 JUMP JUMPDEST PUSH2 0xD63 PUSH2 0x2777 JUMP JUMPDEST PUSH1 0x1 PUSH1 0xFF NOT DUP2 SLOAD AND OR PUSH1 0x1 SSTORE PUSH1 0x20 PUSH1 0x40 MLOAD CALLER DUP2 MSTORE PUSH32 0x62E78CEA01BEE320CD4E420270B5EA74000D11B0C9F74754EBDBFC544B05A258 SWAP2 DUP3 SWAP2 LOG1 PUSH1 0x20 PUSH1 0x40 MLOAD CALLER DUP2 MSTORE LOG1 DUP1 RETURN JUMPDEST POP CALLVALUE PUSH2 0x2BF JUMPI DUP1 PUSH1 0x3 NOT CALLDATASIZE ADD SLT PUSH2 0x2BF JUMPI PUSH1 0x20 PUSH1 0x11 SLOAD PUSH1 0x40 MLOAD SWAP1 DUP2 MSTORE RETURN JUMPDEST POP CALLVALUE PUSH2 0x2BF JUMPI PUSH1 0x20 DUP1 PUSH1 0x3 NOT CALLDATASIZE ADD SLT PUSH2 0xFFA JUMPI PUSH2 0xDE1 PUSH2 0x243D JUMP JUMPDEST SWAP1 PUSH2 0xDEA PUSH2 0x24AF JUMP JUMPDEST PUSH2 0xDF2 PUSH2 0x289E JUMP JUMPDEST PUSH1 0x8 SLOAD TIMESTAMP GT ISZERO PUSH2 0xFC8 JUMPI PUSH1 0x1 PUSH1 0x1 PUSH1 0xA0 SHL SUB DUP3 DUP2 AND SWAP3 SWAP1 DUP4 ISZERO PUSH2 0xF91 JUMPI PUSH1 0x3 SLOAD AND PUSH1 0x40 MLOAD PUSH4 0x70A08231 PUSH1 0xE0 SHL DUP2 MSTORE ADDRESS PUSH1 0x4 DUP3 ADD MSTORE DUP4 DUP2 PUSH1 0x24 DUP2 DUP6 GAS STATICCALL DUP1 ISZERO PUSH2 0xF86 JUMPI DUP7 SWAP1 PUSH2 0xF57 JUMPI JUMPDEST PUSH2 0xE49 SWAP2 POP PUSH1 0xC SLOAD SWAP1 PUSH2 0x28FB JUMP JUMPDEST SWAP2 DUP3 ISZERO PUSH2 0xF1C JUMPI DUP3 PUSH2 0xE74 SWAP3 DUP6 SWAP3 DUP9 PUSH1 0x40 MLOAD DUP1 SWAP7 DUP2 SWAP6 DUP3 SWAP5 PUSH4 0xA9059CBB PUSH1 0xE0 SHL DUP5 MSTORE PUSH1 0x4 DUP5 ADD PUSH2 0x2883 JUMP JUMPDEST SUB SWAP3 GAS CALL SWAP1 DUP2 ISZERO PUSH2 0xF11 JUMPI DUP6 SWAP2 PUSH2 0xEF4 JUMPI JUMPDEST POP ISZERO PUSH2 0xEBE JUMPI SWAP1 PUSH32 0xFCBF6553B2CFC097C2301F1C071469A8839B462E7287E3692F238CCFC6B9208F SWAP2 PUSH1 0x40 MLOAD SWAP1 DUP2 MSTORE LOG2 PUSH1 0x1 PUSH1 0x2 SSTORE DUP1 RETURN JUMPDEST PUSH1 0x40 MLOAD PUSH3 0x461BCD PUSH1 0xE5 SHL DUP2 MSTORE PUSH1 0x4 DUP2 ADD DUP4 SWAP1 MSTORE PUSH1 0xE PUSH1 0x24 DUP3 ADD MSTORE PUSH14 0x149958DB185A5B4819985A5B1959 PUSH1 0x92 SHL PUSH1 0x44 DUP3 ADD MSTORE PUSH1 0x64 SWAP1 REVERT JUMPDEST PUSH2 0xF0B SWAP2 POP DUP4 RETURNDATASIZE DUP6 GT PUSH2 0x4BA JUMPI PUSH2 0x4AB DUP2 DUP4 PUSH2 0x2801 JUMP JUMPDEST CODESIZE PUSH2 0xE86 JUMP JUMPDEST PUSH1 0x40 MLOAD RETURNDATASIZE DUP8 DUP3 RETURNDATACOPY RETURNDATASIZE SWAP1 REVERT JUMPDEST PUSH1 0x40 MLOAD PUSH3 0x461BCD PUSH1 0xE5 SHL DUP2 MSTORE PUSH1 0x4 DUP2 ADD DUP6 SWAP1 MSTORE PUSH1 0x13 PUSH1 0x24 DUP3 ADD MSTORE PUSH19 0x4E6F20756E636C61696D656420746F6B656E73 PUSH1 0x68 SHL PUSH1 0x44 DUP3 ADD MSTORE PUSH1 0x64 SWAP1 REVERT JUMPDEST POP DUP4 DUP2 DUP2 RETURNDATASIZE DUP4 GT PUSH2 0xF7F JUMPI JUMPDEST PUSH2 0xF6D DUP2 DUP4 PUSH2 0x2801 JUMP JUMPDEST DUP2 ADD SUB SLT PUSH2 0x59B JUMPI PUSH2 0xE49 SWAP1 MLOAD PUSH2 0xE3B JUMP JUMPDEST POP RETURNDATASIZE PUSH2 0xF63 JUMP JUMPDEST PUSH1 0x40 MLOAD RETURNDATASIZE DUP9 DUP3 RETURNDATACOPY RETURNDATASIZE SWAP1 REVERT JUMPDEST PUSH1 0x40 MLOAD PUSH3 0x461BCD PUSH1 0xE5 SHL DUP2 MSTORE PUSH1 0x4 DUP2 ADD DUP5 SWAP1 MSTORE PUSH1 0xF PUSH1 0x24 DUP3 ADD MSTORE PUSH15 0x496E76616C69642061646472657373 PUSH1 0x88 SHL PUSH1 0x44 DUP3 ADD MSTORE PUSH1 0x64 SWAP1 REVERT JUMPDEST PUSH1 0x64 SWAP1 PUSH1 0x40 MLOAD SWAP1 PUSH3 0x461BCD PUSH1 0xE5 SHL DUP3 MSTORE PUSH1 0x4 DUP3 ADD MSTORE PUSH1 0xB PUSH1 0x24 DUP3 ADD MSTORE PUSH11 0x139BDD081B585D1D5C9959 PUSH1 0xAA SHL PUSH1 0x44 DUP3 ADD MSTORE REVERT JUMPDEST POP DUP1 REVERT JUMPDEST POP CALLVALUE PUSH2 0x2BF JUMPI PUSH1 0x40 CALLDATASIZE PUSH1 0x3 NOT ADD SLT PUSH2 0x2BF JUMPI PUSH2 0x1018 PUSH2 0x243D JUMP JUMPDEST PUSH2 0x1020 PUSH2 0x2453 JUMP JUMPDEST PUSH2 0x1028 PUSH2 0x2469 JUMP JUMPDEST PUSH1 0x1 PUSH1 0x1 PUSH1 0xA0 SHL SUB SWAP1 DUP2 AND SWAP2 DUP3 ISZERO PUSH2 0x1075 JUMPI AND DUP1 DUP4 MSTORE PUSH1 0x15 PUSH1 0x20 SWAP1 DUP2 MSTORE PUSH1 0x40 DUP1 DUP6 KECCAK256 DUP1 SLOAD PUSH1 0x1 PUSH1 0x1 PUSH1 0xA0 SHL SUB NOT AND DUP6 OR SWAP1 SSTORE MLOAD SWAP3 DUP4 MSTORE SWAP1 SWAP2 PUSH1 0x0 DUP1 MLOAD PUSH1 0x20 PUSH2 0x29A4 DUP4 CODECOPY DUP2 MLOAD SWAP2 MSTORE SWAP2 SWAP1 LOG2 DUP1 RETURN JUMPDEST PUSH1 0x40 MLOAD PUSH3 0x461BCD PUSH1 0xE5 SHL DUP2 MSTORE PUSH1 0x20 PUSH1 0x4 DUP3 ADD MSTORE PUSH1 0x16 PUSH1 0x24 DUP3 ADD MSTORE PUSH22 0x496E76616C6964206F7261636C652061646472657373 PUSH1 0x50 SHL PUSH1 0x44 DUP3 ADD MSTORE PUSH1 0x64 SWAP1 REVERT JUMPDEST POP CALLVALUE PUSH2 0x2BF JUMPI PUSH1 0x20 CALLDATASIZE PUSH1 0x3 NOT ADD SLT PUSH2 0x2BF JUMPI PUSH32 0x6B361C807733CC94A3B7BDA39C1C94DCC0511E91AA47B0F7F918068E93976890 PUSH1 0x20 PUSH1 0x4 CALLDATALOAD PUSH2 0x10F3 PUSH2 0x24AF JUMP JUMPDEST PUSH2 0x10FE DUP2 ISZERO ISZERO PUSH2 0x28BF JUMP JUMPDEST DUP1 PUSH1 0x11 SSTORE PUSH1 0x40 MLOAD SWAP1 DUP2 MSTORE LOG1 DUP1 RETURN JUMPDEST POP PUSH1 0x60 CALLDATASIZE PUSH1 0x3 NOT ADD SLT PUSH2 0x2BF JUMPI PUSH2 0x1121 PUSH2 0x243D JUMP JUMPDEST SWAP1 PUSH2 0x112A PUSH2 0x2453 JUMP JUMPDEST SWAP2 PUSH2 0x1133 PUSH2 0x289E JUMP JUMPDEST PUSH2 0x113B PUSH2 0x2777 JUMP JUMPDEST PUSH1 0xE SLOAD PUSH1 0x1 PUSH1 0x1 PUSH1 0xA0 SHL SUB AND CALLER SUB PUSH2 0x61D JUMPI PUSH1 0x1 PUSH1 0x1 PUSH1 0xA0 SHL SUB DUP4 AND ISZERO PUSH2 0x1B98 JUMPI PUSH1 0xFF PUSH1 0xD SLOAD AND PUSH2 0x1B62 JUMPI PUSH1 0x6 SLOAD TIMESTAMP LT PUSH2 0x1B2A JUMPI PUSH1 0x7 SLOAD TIMESTAMP LT ISZERO PUSH2 0x1AF8 JUMPI PUSH1 0x1 PUSH1 0x1 PUSH1 0xA0 SHL SUB DUP2 AND DUP3 MSTORE PUSH1 0x12 PUSH1 0x20 MSTORE PUSH1 0x40 DUP3 KECCAK256 SLOAD PUSH1 0xFF AND ISZERO PUSH2 0x1ABB JUMPI PUSH1 0x44 CALLDATALOAD ISZERO PUSH2 0x1A88 JUMPI PUSH1 0x1 PUSH1 0x1 PUSH1 0xA0 SHL SUB DUP2 DUP2 AND DUP4 MSTORE PUSH1 0x15 PUSH1 0x20 MSTORE PUSH1 0x40 DUP4 KECCAK256 SLOAD AND DUP1 ISZERO PUSH2 0x1A52 JUMPI PUSH1 0x40 DUP1 MLOAD PUSH4 0x15F789A9 PUSH1 0xE2 SHL DUP2 MSTORE SWAP2 DUP3 SWAP1 PUSH1 0x4 SWAP1 DUP3 SWAP1 GAS STATICCALL SWAP1 DUP2 ISZERO PUSH2 0x1A47 JUMPI DUP4 SWAP2 PUSH2 0x19F9 JUMPI JUMPDEST POP PUSH2 0x11F2 DUP4 DUP3 PUSH1 0x1B SIGNEXTEND SGT PUSH2 0x28BF JUMP JUMPDEST PUSH1 0x1 PUSH1 0x1 PUSH1 0xA0 SHL SUB DUP3 AND PUSH2 0x1986 JUMPI PUSH1 0x12 JUMPDEST DUP2 PUSH1 0x1B SIGNEXTEND PUSH1 0x44 CALLDATALOAD MUL SWAP2 PUSH1 0x44 CALLDATALOAD DUP4 DIV SWAP1 PUSH1 0x1B SIGNEXTEND SUB PUSH2 0x1972 JUMPI PUSH8 0xDE0B6B3A7640000 DUP3 MUL SWAP2 DUP1 DUP4 DIV PUSH8 0xDE0B6B3A7640000 EQ SWAP1 ISZERO OR ISZERO PUSH2 0x1972 JUMPI PUSH1 0xFF AND PUSH1 0x4D DUP2 GT PUSH2 0x1972 JUMPI PUSH8 0xDE0B6B3A7640000 SWAP2 PUSH2 0x125D SWAP2 PUSH1 0xA EXP SWAP1 PUSH2 0x27B8 JUMP JUMPDEST DIV SWAP2 PUSH1 0x4 SLOAD DUP4 LT PUSH2 0x1936 JUMPI PUSH1 0x1 PUSH1 0x1 PUSH1 0xA0 SHL SUB DUP5 AND DUP2 MSTORE PUSH1 0x14 PUSH1 0x20 MSTORE PUSH1 0x40 DUP2 KECCAK256 SLOAD PUSH2 0x1289 SWAP1 DUP5 SWAP1 PUSH2 0x2795 JUMP JUMPDEST PUSH1 0x5 SLOAD LT PUSH2 0x18F8 JUMPI PUSH1 0xB SLOAD SWAP3 PUSH2 0x129F DUP2 DUP6 PUSH2 0x2795 JUMP JUMPDEST PUSH1 0xA SLOAD LT PUSH2 0x18C5 JUMPI PUSH8 0xDE0B6B3A7640000 DUP2 MUL DUP2 DUP2 DIV PUSH8 0xDE0B6B3A7640000 EQ DUP3 ISZERO OR ISZERO PUSH2 0x18B1 JUMPI PUSH1 0x11 SLOAD PUSH2 0x12D3 SWAP2 PUSH2 0x27B8 JUMP JUMPDEST SWAP4 DUP5 ISZERO PUSH2 0x1875 JUMPI DUP2 PUSH2 0x12E4 SWAP2 PUSH2 0x2795 JUMP JUMPDEST PUSH1 0xB SSTORE PUSH1 0x1 PUSH1 0x1 PUSH1 0xA0 SHL SUB DUP6 AND DUP3 MSTORE PUSH1 0x14 PUSH1 0x20 MSTORE PUSH1 0x40 DUP3 KECCAK256 DUP1 SLOAD SWAP1 SWAP2 PUSH2 0x1309 SWAP2 PUSH2 0x2795 JUMP JUMPDEST SWAP1 SSTORE PUSH1 0xFF PUSH1 0x9 SLOAD AND PUSH2 0x17F3 JUMPI JUMPDEST PUSH1 0x1 PUSH1 0x1 PUSH1 0xA0 SHL SUB DUP3 AND PUSH2 0x1673 JUMPI PUSH1 0x44 CALLDATALOAD CALLVALUE SUB PUSH2 0x1634 JUMPI PUSH1 0x10 SLOAD PUSH1 0x1 PUSH1 0x1 PUSH1 0xA0 SHL SUB AND DUP1 EXTCODESIZE ISZERO PUSH2 0xFFA JUMPI DUP2 PUSH1 0x4 SWAP2 PUSH1 0x40 MLOAD SWAP3 DUP4 DUP1 SWAP3 PUSH4 0x6DB5A923 PUSH1 0xE1 SHL DUP3 MSTORE CALLVALUE SWAP1 GAS CALL DUP1 ISZERO PUSH2 0x485 JUMPI SWAP1 DUP3 SWAP2 PUSH2 0x1620 JUMPI JUMPDEST POP POP JUMPDEST PUSH1 0x9 SLOAD PUSH1 0xFF AND ISZERO PUSH2 0x15D8 JUMPI PUSH1 0xD SLOAD PUSH1 0x8 SHR PUSH1 0xFF AND ISZERO PUSH2 0x151D JUMPI PUSH1 0x3 SLOAD PUSH1 0xD SLOAD PUSH1 0x40 MLOAD PUSH4 0x95EA7B3 PUSH1 0xE0 SHL DUP2 MSTORE SWAP2 PUSH1 0x20 SWAP2 DUP4 SWAP2 PUSH1 0x1 PUSH1 0x1 PUSH1 0xA0 SHL SUB SWAP1 DUP2 AND SWAP2 DUP4 SWAP2 DUP8 SWAP2 DUP4 SWAP2 PUSH2 0x13C4 SWAP2 DUP13 SWAP2 PUSH1 0x10 SWAP2 SWAP1 SWAP2 SHR AND PUSH1 0x4 DUP5 ADD PUSH2 0x2883 JUMP JUMPDEST SUB SWAP3 GAS CALL SWAP1 DUP2 ISZERO PUSH2 0x485 JUMPI DUP3 SWAP2 PUSH2 0x14FE JUMPI JUMPDEST POP ISZERO PUSH2 0x14C8 JUMPI PUSH1 0xD SLOAD PUSH1 0x10 SHR PUSH1 0x1 PUSH1 0x1 PUSH1 0xA0 SHL SUB AND DUP1 EXTCODESIZE ISZERO PUSH2 0xFFA JUMPI DUP2 PUSH1 0x40 MLOAD DUP1 SWAP3 PUSH4 0xE306C43 PUSH1 0xE1 SHL DUP3 MSTORE DUP2 DUP4 DUP2 PUSH2 0x1413 DUP11 DUP13 PUSH1 0x4 DUP5 ADD PUSH2 0x2883 JUMP JUMPDEST SUB SWAP3 GAS CALL DUP1 ISZERO PUSH2 0x485 JUMPI PUSH2 0x14B4 JUMPI JUMPDEST POP POP PUSH1 0x0 DUP1 MLOAD PUSH1 0x20 PUSH2 0x2984 DUP4 CODECOPY DUP2 MLOAD SWAP2 MSTORE PUSH1 0x60 PUSH1 0x20 SWAP5 JUMPDEST PUSH1 0x40 DUP1 MLOAD PUSH1 0x1 PUSH1 0x1 PUSH1 0xA0 SHL SUB SWAP6 DUP7 AND DUP2 MSTORE PUSH1 0x44 CALLDATALOAD DUP9 DUP3 ADD MSTORE SWAP1 DUP2 ADD DUP7 SWAP1 MSTORE SWAP4 AND SWAP3 LOG2 PUSH1 0xB SLOAD PUSH1 0xA SLOAD DUP2 LT ISZERO PUSH2 0x1477 JUMPI JUMPDEST POP PUSH1 0x1 PUSH1 0x2 SSTORE PUSH1 0x40 MLOAD SWAP1 DUP2 MSTORE RETURN JUMPDEST DUP3 PUSH32 0xCB67F20F64495B30F15524C55F90201DD6571D6B5C19DAC183D2AEB25315B2DC SWAP2 PUSH1 0x1 PUSH1 0xFF NOT PUSH1 0xD SLOAD AND OR PUSH1 0xD SSTORE PUSH1 0x40 MLOAD SWAP1 DUP2 MSTORE LOG1 CODESIZE PUSH2 0x1469 JUMP JUMPDEST PUSH2 0x14BE DUP3 SWAP2 PUSH2 0x27D8 JUMP JUMPDEST PUSH2 0x2BF JUMPI DUP1 PUSH2 0x1422 JUMP JUMPDEST PUSH1 0x40 MLOAD PUSH3 0x461BCD PUSH1 0xE5 SHL DUP2 MSTORE PUSH1 0x20 PUSH1 0x4 DUP3 ADD MSTORE PUSH1 0xE PUSH1 0x24 DUP3 ADD MSTORE PUSH14 0x105C1C1C9BDD994819985A5B1959 PUSH1 0x92 SHL PUSH1 0x44 DUP3 ADD MSTORE PUSH1 0x64 SWAP1 REVERT JUMPDEST PUSH2 0x1517 SWAP2 POP PUSH1 0x20 RETURNDATASIZE PUSH1 0x20 GT PUSH2 0x4BA JUMPI PUSH2 0x4AB DUP2 DUP4 PUSH2 0x2801 JUMP JUMPDEST CODESIZE PUSH2 0x13D6 JUMP JUMPDEST PUSH1 0x3 SLOAD PUSH1 0x40 MLOAD PUSH4 0xA9059CBB PUSH1 0xE0 SHL DUP2 MSTORE SWAP1 PUSH1 0x20 SWAP1 DUP3 SWAP1 PUSH1 0x1 PUSH1 0x1 PUSH1 0xA0 SHL SUB AND DUP2 DUP6 DUP2 PUSH2 0x154D DUP11 DUP13 PUSH1 0x4 DUP5 ADD PUSH2 0x2883 JUMP JUMPDEST SUB SWAP3 GAS CALL SWAP2 DUP3 ISZERO PUSH2 0x565 JUMPI SWAP2 PUSH2 0x15B9 JUMPI JUMPDEST POP ISZERO PUSH2 0x157D JUMPI PUSH1 0x0 DUP1 MLOAD PUSH1 0x20 PUSH2 0x2984 DUP4 CODECOPY DUP2 MLOAD SWAP2 MSTORE PUSH1 0x60 PUSH1 0x20 SWAP5 PUSH2 0x1439 JUMP JUMPDEST PUSH1 0x40 MLOAD PUSH3 0x461BCD PUSH1 0xE5 SHL DUP2 MSTORE PUSH1 0x20 PUSH1 0x4 DUP3 ADD MSTORE PUSH1 0x14 PUSH1 0x24 DUP3 ADD MSTORE PUSH20 0x105D5D1BCB5D1C985B9CD9995C8819985A5B1959 PUSH1 0x62 SHL PUSH1 0x44 DUP3 ADD MSTORE PUSH1 0x64 SWAP1 REVERT JUMPDEST PUSH2 0x15D2 SWAP2 POP PUSH1 0x20 RETURNDATASIZE PUSH1 0x20 GT PUSH2 0x4BA JUMPI PUSH2 0x4AB DUP2 DUP4 PUSH2 0x2801 JUMP JUMPDEST CODESIZE PUSH2 0x155E JUMP JUMPDEST PUSH1 0x60 PUSH1 0x20 SWAP5 PUSH1 0x40 PUSH1 0x0 DUP1 MLOAD PUSH1 0x20 PUSH2 0x2984 DUP4 CODECOPY DUP2 MLOAD SWAP2 MSTORE SWAP4 PUSH1 0x1 DUP1 PUSH1 0xA0 SHL SUB DUP4 AND DUP2 MSTORE PUSH1 0x13 DUP9 MSTORE KECCAK256 PUSH2 0x160A DUP7 DUP3 SLOAD PUSH2 0x2795 JUMP JUMPDEST SWAP1 SSTORE PUSH2 0x1618 DUP6 PUSH1 0xC SLOAD PUSH2 0x2795 JUMP JUMPDEST PUSH1 0xC SSTORE PUSH2 0x1439 JUMP JUMPDEST PUSH2 0x1629 SWAP1 PUSH2 0x27D8 JUMP JUMPDEST PUSH2 0x2BF JUMPI DUP1 CODESIZE PUSH2 0x1367 JUMP JUMPDEST PUSH1 0x40 MLOAD PUSH3 0x461BCD PUSH1 0xE5 SHL DUP2 MSTORE PUSH1 0x20 PUSH1 0x4 DUP3 ADD MSTORE PUSH1 0x17 PUSH1 0x24 DUP3 ADD MSTORE PUSH23 0x125B98DBDC9C9958DD081B985D1A5D9948185B5BDD5B9D PUSH1 0x4A SHL PUSH1 0x44 DUP3 ADD MSTORE PUSH1 0x64 SWAP1 REVERT JUMPDEST CALLVALUE PUSH2 0x17A4 JUMPI PUSH1 0x40 MLOAD PUSH4 0x23B872DD PUSH1 0xE0 SHL DUP2 MSTORE PUSH1 0x1 PUSH1 0x1 PUSH1 0xA0 SHL SUB DUP6 DUP2 AND PUSH1 0x4 DUP4 ADD MSTORE ADDRESS PUSH1 0x24 DUP4 ADD MSTORE PUSH1 0x44 DUP1 CALLDATALOAD SWAP1 DUP4 ADD MSTORE PUSH1 0x20 SWAP1 DUP3 SWAP1 PUSH1 0x64 SWAP1 DUP3 SWAP1 DUP7 SWAP1 DUP9 AND GAS CALL DUP1 ISZERO PUSH2 0x485 JUMPI PUSH2 0x1785 JUMPI JUMPDEST POP PUSH1 0x10 SLOAD PUSH1 0x40 MLOAD PUSH4 0x95EA7B3 PUSH1 0xE0 SHL DUP2 MSTORE SWAP1 PUSH1 0x20 SWAP1 DUP3 SWAP1 DUP2 SWAP1 PUSH2 0x16F1 SWAP1 PUSH1 0x44 CALLDATALOAD SWAP1 PUSH1 0x1 PUSH1 0x1 PUSH1 0xA0 SHL SUB AND PUSH1 0x4 DUP5 ADD PUSH2 0x2883 JUMP JUMPDEST SUB DUP2 DUP6 PUSH1 0x1 PUSH1 0x1 PUSH1 0xA0 SHL SUB DUP9 AND GAS CALL DUP1 ISZERO PUSH2 0x485 JUMPI PUSH2 0x1766 JUMPI JUMPDEST POP PUSH1 0x10 SLOAD PUSH1 0x1 PUSH1 0x1 PUSH1 0xA0 SHL SUB AND DUP1 EXTCODESIZE ISZERO PUSH2 0xFFA JUMPI DUP2 PUSH1 0x40 MLOAD DUP1 SWAP3 PUSH4 0x19C5AEF5 PUSH1 0xE1 SHL DUP3 MSTORE DUP2 DUP4 DUP2 PUSH2 0x1742 PUSH1 0x44 CALLDATALOAD DUP11 PUSH1 0x4 DUP5 ADD PUSH2 0x2883 JUMP JUMPDEST SUB SWAP3 GAS CALL DUP1 ISZERO PUSH2 0x485 JUMPI PUSH2 0x1757 JUMPI JUMPDEST POP PUSH2 0x136A JUMP JUMPDEST PUSH2 0x1760 SWAP1 PUSH2 0x27D8 JUMP JUMPDEST CODESIZE PUSH2 0x1751 JUMP JUMPDEST PUSH2 0x177E SWAP1 PUSH1 0x20 RETURNDATASIZE PUSH1 0x20 GT PUSH2 0x4BA JUMPI PUSH2 0x4AB DUP2 DUP4 PUSH2 0x2801 JUMP JUMPDEST POP CODESIZE PUSH2 0x170B JUMP JUMPDEST PUSH2 0x179D SWAP1 PUSH1 0x20 RETURNDATASIZE PUSH1 0x20 GT PUSH2 0x4BA JUMPI PUSH2 0x4AB DUP2 DUP4 PUSH2 0x2801 JUMP JUMPDEST POP CODESIZE PUSH2 0x16BE JUMP JUMPDEST PUSH1 0x40 MLOAD PUSH3 0x461BCD PUSH1 0xE5 SHL DUP2 MSTORE PUSH1 0x20 PUSH1 0x4 DUP3 ADD MSTORE PUSH1 0x21 PUSH1 0x24 DUP3 ADD MSTORE PUSH32 0x446F206E6F742073656E642045544820666F7220746F6B656E207061796D656E PUSH1 0x44 DUP3 ADD MSTORE PUSH1 0x1D PUSH1 0xFA SHL PUSH1 0x64 DUP3 ADD MSTORE PUSH1 0x84 SWAP1 REVERT JUMPDEST PUSH1 0x3 SLOAD PUSH1 0x40 MLOAD PUSH4 0x70A08231 PUSH1 0xE0 SHL DUP2 MSTORE ADDRESS PUSH1 0x4 DUP3 ADD MSTORE SWAP1 PUSH1 0x20 SWAP1 DUP3 SWAP1 PUSH1 0x24 SWAP1 DUP3 SWAP1 PUSH1 0x1 PUSH1 0x1 PUSH1 0xA0 SHL SUB AND GAS STATICCALL DUP1 ISZERO PUSH2 0x485 JUMPI DUP5 SWAP1 DUP4 SWAP1 PUSH2 0x183F JUMPI JUMPDEST PUSH2 0x183A SWAP3 POP LT ISZERO PUSH2 0x2824 JUMP JUMPDEST PUSH2 0x1316 JUMP JUMPDEST POP POP PUSH1 0x20 DUP2 RETURNDATASIZE PUSH1 0x20 GT PUSH2 0x186D JUMPI JUMPDEST DUP2 PUSH2 0x185A PUSH1 0x20 SWAP4 DUP4 PUSH2 0x2801 JUMP JUMPDEST DUP2 ADD SUB SLT PUSH2 0xFFA JUMPI DUP4 PUSH2 0x183A SWAP2 MLOAD PUSH2 0x182E JUMP JUMPDEST RETURNDATASIZE SWAP2 POP PUSH2 0x184D JUMP JUMPDEST PUSH1 0x40 MLOAD PUSH3 0x461BCD PUSH1 0xE5 SHL DUP2 MSTORE PUSH1 0x20 PUSH1 0x4 DUP3 ADD MSTORE PUSH1 0x14 PUSH1 0x24 DUP3 ADD MSTORE PUSH20 0x546F6B656E20616D6F756E7420746F6F206C6F77 PUSH1 0x60 SHL PUSH1 0x44 DUP3 ADD MSTORE PUSH1 0x64 SWAP1 REVERT JUMPDEST PUSH4 0x4E487B71 PUSH1 0xE0 SHL DUP4 MSTORE PUSH1 0x11 PUSH1 0x4 MSTORE PUSH1 0x24 DUP4 REVERT JUMPDEST PUSH1 0x40 MLOAD PUSH3 0x461BCD PUSH1 0xE5 SHL DUP2 MSTORE PUSH1 0x20 PUSH1 0x4 DUP3 ADD MSTORE PUSH1 0xB PUSH1 0x24 DUP3 ADD MSTORE PUSH11 0x457863656564732063617 PUSH1 0xAC SHL PUSH1 0x44 DUP3 ADD MSTORE PUSH1 0x64 SWAP1 REVERT JUMPDEST PUSH1 0x40 MLOAD PUSH3 0x461BCD PUSH1 0xE5 SHL DUP2 MSTORE PUSH1 0x20 PUSH1 0x4 DUP3 ADD MSTORE PUSH1 0x16 PUSH1 0x24 DUP3 ADD MSTORE PUSH22 0x115E18D959591CC81B585E081A5B9D995CDD1B595B9D PUSH1 0x52 SHL PUSH1 0x44 DUP3 ADD MSTORE PUSH1 0x64 SWAP1 REVERT JUMPDEST PUSH1 0x40 MLOAD PUSH3 0x461BCD PUSH1 0xE5 SHL DUP2 MSTORE PUSH1 0x20 PUSH1 0x4 DUP3 ADD MSTORE PUSH1 0x14 PUSH1 0x24 DUP3 ADD MSTORE PUSH20 0x10995B1BDDC81B5A5B881A5B9D995CDD1B595B9D PUSH1 0x62 SHL PUSH1 0x44 DUP3 ADD MSTORE PUSH1 0x64 SWAP1 REVERT JUMPDEST PUSH4 0x4E487B71 PUSH1 0xE0 SHL DUP5 MSTORE PUSH1 0x11 PUSH1 0x4 MSTORE PUSH1 0x24 DUP5 REVERT JUMPDEST PUSH1 0x40 MLOAD PUSH4 0x313CE567 PUSH1 0xE0 SHL DUP2 MSTORE PUSH1 0x20 DUP2 PUSH1 0x4 DUP2 PUSH1 0x1 PUSH1 0x1 PUSH1 0xA0 SHL SUB DUP8 AND GAS STATICCALL SWAP1 DUP2 ISZERO PUSH2 0x4C1 JUMPI DUP5 SWAP2 PUSH2 0x19B9 JUMPI JUMPDEST POP PUSH2 0x1203 JUMP JUMPDEST SWAP1 POP PUSH1 0x20 DUP2 RETURNDATASIZE PUSH1 0x20 GT PUSH2 0x19F1 JUMPI JUMPDEST DUP2 PUSH2 0x19D4 PUSH1 0x20 SWAP4 DUP4 PUSH2 0x2801 JUMP JUMPDEST DUP2 ADD SUB SLT PUSH2 0x19ED JUMPI MLOAD PUSH1 0xFF DUP2 AND DUP2 SUB PUSH2 0x19ED JUMPI CODESIZE PUSH2 0x19B3 JUMP JUMPDEST DUP4 DUP1 REVERT JUMPDEST RETURNDATASIZE SWAP2 POP PUSH2 0x19C7 JUMP JUMPDEST SWAP1 POP PUSH1 0x40 DUP2 RETURNDATASIZE PUSH1 0x40 GT PUSH2 0x1A3F JUMPI JUMPDEST DUP2 PUSH2 0x1A14 PUSH1 0x40 SWAP4 DUP4 PUSH2 0x2801 JUMP JUMPDEST DUP2 ADD SUB SLT PUSH2 0x490 JUMPI DUP1 MLOAD SWAP1 DUP2 PUSH1 0x1B SIGNEXTEND DUP3 SUB PUSH2 0x19ED JUMPI PUSH1 0x20 ADD MLOAD PUSH4 0xFFFFFFFF DUP2 AND SUB PUSH2 0x490 JUMPI CODESIZE PUSH2 0x11E3 JUMP JUMPDEST RETURNDATASIZE SWAP2 POP PUSH2 0x1A07 JUMP JUMPDEST PUSH1 0x40 MLOAD RETURNDATASIZE DUP6 DUP3 RETURNDATACOPY RETURNDATASIZE SWAP1 REVERT JUMPDEST PUSH1 0x40 MLOAD PUSH3 0x461BCD PUSH1 0xE5 SHL DUP2 MSTORE PUSH1 0x20 PUSH1 0x4 DUP3 ADD MSTORE PUSH1 0xE PUSH1 0x24 DUP3 ADD MSTORE PUSH14 0x13DC9858DB19481B9BDD081CD95D PUSH1 0x92 SHL PUSH1 0x44 DUP3 ADD MSTORE PUSH1 0x64 SWAP1 REVERT JUMPDEST PUSH1 0x40 MLOAD PUSH3 0x461BCD PUSH1 0xE5 SHL DUP2 MSTORE PUSH1 0x20 PUSH1 0x4 DUP3 ADD MSTORE PUSH1 0xB PUSH1 0x24 DUP3 ADD MSTORE PUSH11 0x16995C9BC8185B5BDD5B9D PUSH1 0xAA SHL PUSH1 0x44 DUP3 ADD MSTORE PUSH1 0x64 SWAP1 REVERT JUMPDEST PUSH1 0x40 MLOAD PUSH3 0x461BCD PUSH1 0xE5 SHL DUP2 MSTORE PUSH1 0x20 PUSH1 0x4 DUP3 ADD MSTORE PUSH1 0x15 PUSH1 0x24 DUP3 ADD MSTORE PUSH21 0x151BDAD95B881B9BDD081DDA1A5D195B1A5CDD1959 PUSH1 0x5A SHL PUSH1 0x44 DUP3 ADD MSTORE PUSH1 0x64 SWAP1 REVERT JUMPDEST PUSH1 0x40 MLOAD PUSH3 0x461BCD PUSH1 0xE5 SHL DUP2 MSTORE PUSH1 0x20 PUSH1 0x4 DUP3 ADD MSTORE PUSH1 0xA PUSH1 0x24 DUP3 ADD MSTORE PUSH10 0x14D85B1948195B991959 PUSH1 0xB2 SHL PUSH1 0x44 DUP3 ADD MSTORE PUSH1 0x64 SWAP1 REVERT JUMPDEST PUSH1 0x40 MLOAD PUSH3 0x461BCD PUSH1 0xE5 SHL DUP2 MSTORE PUSH1 0x20 PUSH1 0x4 DUP3 ADD MSTORE PUSH1 0x10 PUSH1 0x24 DUP3 ADD MSTORE PUSH16 0x14D85B19481B9BDD081CDD185C9D1959 PUSH1 0x82 SHL PUSH1 0x44 DUP3 ADD MSTORE PUSH1 0x64 SWAP1 REVERT JUMPDEST PUSH1 0x40 MLOAD PUSH3 0x461BCD PUSH1 0xE5 SHL DUP2 MSTORE PUSH1 0x20 PUSH1 0x4 DUP3 ADD MSTORE PUSH1 0xE PUSH1 0x24 DUP3 ADD MSTORE PUSH14 0x14D85B19481A5CC818DB1BDCD959 PUSH1 0x92 SHL PUSH1 0x44 DUP3 ADD MSTORE PUSH1 0x64 SWAP1 REVERT JUMPDEST PUSH1 0x40 MLOAD PUSH3 0x461BCD PUSH1 0xE5 SHL DUP2 MSTORE PUSH1 0x20 PUSH1 0x4 DUP3 ADD MSTORE PUSH1 0x18 PUSH1 0x24 DUP3 ADD MSTORE PUSH24 0x496E76616C696420696E766573746F722061646472657373 PUSH1 0x40 SHL PUSH1 0x44 DUP3 ADD MSTORE PUSH1 0x64 SWAP1 REVERT JUMPDEST POP CALLVALUE PUSH2 0x2BF JUMPI DUP1 PUSH1 0x3 NOT CALLDATASIZE ADD SLT PUSH2 0x2BF JUMPI PUSH1 0xF SLOAD PUSH1 0x40 MLOAD PUSH1 0x1 PUSH1 0x1 PUSH1 0xA0 SHL SUB SWAP1 SWAP2 AND DUP2 MSTORE PUSH1 0x20 SWAP1 RETURN JUMPDEST POP CALLVALUE PUSH2 0x2BF JUMPI DUP1 PUSH1 0x3 NOT CALLDATASIZE ADD SLT PUSH2 0x2BF JUMPI PUSH1 0x20 PUSH1 0xFF PUSH1 0x1 SLOAD AND PUSH1 0x40 MLOAD SWAP1 ISZERO ISZERO DUP2 MSTORE RETURN JUMPDEST POP CALLVALUE PUSH2 0x2BF JUMPI DUP1 PUSH1 0x3 NOT CALLDATASIZE ADD SLT PUSH2 0x2BF JUMPI PUSH1 0x20 PUSH1 0xFF PUSH1 0xD SLOAD PUSH1 0x8 SHR AND PUSH1 0x40 MLOAD SWAP1 ISZERO ISZERO DUP2 MSTORE RETURN JUMPDEST POP CALLVALUE PUSH2 0x2BF JUMPI DUP1 PUSH1 0x3 NOT CALLDATASIZE ADD SLT PUSH2 0x2BF JUMPI PUSH1 0xE SLOAD PUSH1 0x40 MLOAD PUSH1 0x1 PUSH1 0x1 PUSH1 0xA0 SHL SUB SWAP1 SWAP2 AND DUP2 MSTORE PUSH1 0x20 SWAP1 RETURN JUMPDEST POP CALLVALUE PUSH2 0x2BF JUMPI DUP1 PUSH1 0x3 NOT CALLDATASIZE ADD SLT PUSH2 0x2BF JUMPI PUSH2 0x1C8C PUSH2 0x2469 JUMP JUMPDEST PUSH1 0x1 SLOAD PUSH1 0xFF DUP2 AND ISZERO PUSH2 0x1CD8 JUMPI PUSH1 0xFF NOT AND PUSH1 0x1 SSTORE PUSH1 0x20 PUSH1 0x40 MLOAD CALLER DUP2 MSTORE PUSH32 0x5DB9EE0A495BF2E6FF9C91A7834C1BA4FDD244A5E8AA4E537BD38AEAE4B073AA SWAP2 DUP3 SWAP2 LOG1 PUSH1 0x20 PUSH1 0x40 MLOAD CALLER DUP2 MSTORE LOG1 DUP1 RETURN JUMPDEST PUSH1 0x40 MLOAD PUSH4 0x8DFC202B PUSH1 0xE0 SHL DUP2 MSTORE PUSH1 0x4 SWAP1 REVERT JUMPDEST POP CALLVALUE PUSH2 0x2BF JUMPI DUP1 PUSH1 0x3 NOT CALLDATASIZE ADD SLT PUSH2 0x2BF JUMPI PUSH1 0xD SLOAD PUSH1 0x40 MLOAD PUSH1 0x10 SWAP2 SWAP1 SWAP2 SHR PUSH1 0x1 PUSH1 0x1 PUSH1 0xA0 SHL SUB AND DUP2 MSTORE PUSH1 0x20 SWAP1 RETURN JUMPDEST POP CALLVALUE PUSH2 0x2BF JUMPI PUSH1 0x20 CALLDATASIZE PUSH1 0x3 NOT ADD SLT PUSH2 0x2BF JUMPI PUSH1 0x4 CALLDATALOAD PUSH2 0x1D34 PUSH2 0x2469 JUMP JUMPDEST TIMESTAMP DUP2 GT ISZERO PUSH2 0x1DEA JUMPI PUSH1 0x7 SLOAD DUP2 GT ISZERO PUSH2 0x1D9A JUMPI PUSH1 0x8 SLOAD DUP2 LT ISZERO PUSH2 0x1D56 JUMPI PUSH1 0x7 SSTORE DUP1 RETURN JUMPDEST PUSH1 0x64 PUSH1 0x40 MLOAD PUSH3 0x461BCD PUSH1 0xE5 SHL DUP2 MSTORE PUSH1 0x20 PUSH1 0x4 DUP3 ADD MSTORE PUSH1 0x20 PUSH1 0x24 DUP3 ADD MSTORE PUSH32 0x456E642064617465206D757374206265206265666F7265206D61747572697479 PUSH1 0x44 DUP3 ADD MSTORE REVERT JUMPDEST PUSH1 0x40 MLOAD PUSH3 0x461BCD PUSH1 0xE5 SHL DUP2 MSTORE PUSH1 0x20 PUSH1 0x4 DUP3 ADD MSTORE PUSH1 0x22 PUSH1 0x24 DUP3 ADD MSTORE PUSH32 0x4E657720656E642064617465206D757374206265206166746572206375727265 PUSH1 0x44 DUP3 ADD MSTORE PUSH2 0x1B9D PUSH1 0xF2 SHL PUSH1 0x64 DUP3 ADD MSTORE PUSH1 0x84 SWAP1 REVERT JUMPDEST PUSH1 0x40 MLOAD PUSH3 0x461BCD PUSH1 0xE5 SHL DUP2 MSTORE PUSH1 0x20 PUSH1 0x4 DUP3 ADD MSTORE PUSH1 0x10 PUSH1 0x24 DUP3 ADD MSTORE PUSH16 0x496E76616C696420656E642064617465 PUSH1 0x80 SHL PUSH1 0x44 DUP3 ADD MSTORE PUSH1 0x64 SWAP1 REVERT JUMPDEST POP CALLVALUE PUSH2 0x2BF JUMPI PUSH1 0x40 CALLDATASIZE PUSH1 0x3 NOT ADD SLT PUSH2 0x2BF JUMPI PUSH2 0x1E3C PUSH2 0x2453 JUMP JUMPDEST CALLER PUSH1 0x1 PUSH1 0x1 PUSH1 0xA0 SHL SUB DUP3 AND SUB PUSH2 0x1E58 JUMPI PUSH2 0x711 SWAP1 PUSH1 0x4 CALLDATALOAD PUSH2 0x26D1 JUMP JUMPDEST PUSH1 0x40 MLOAD PUSH4 0x334BD919 PUSH1 0xE1 SHL DUP2 MSTORE PUSH1 0x4 SWAP1 REVERT JUMPDEST POP CALLVALUE PUSH2 0x2BF JUMPI PUSH1 0x40 CALLDATASIZE PUSH1 0x3 NOT ADD SLT PUSH2 0x2BF JUMPI PUSH2 0x711 PUSH1 0x4 CALLDATALOAD PUSH2 0x1E8A PUSH2 0x2453 JUMP JUMPDEST SWAP1 DUP1 DUP5 MSTORE DUP4 PUSH1 0x20 MSTORE PUSH2 0x1EA2 PUSH1 0x1 PUSH1 0x40 DUP7 KECCAK256 ADD SLOAD PUSH2 0x24E7 JUMP JUMPDEST PUSH2 0x25F5 JUMP JUMPDEST POP CALLVALUE PUSH2 0x2BF JUMPI PUSH2 0x1C0 CALLDATASIZE PUSH1 0x3 NOT ADD SLT PUSH2 0x2BF JUMPI PUSH2 0x1EC2 PUSH2 0x243D JUMP JUMPDEST PUSH1 0xC4 CALLDATALOAD SWAP1 DUP2 ISZERO ISZERO DUP1 SWAP3 SUB PUSH2 0x490 JUMPI PUSH2 0x124 CALLDATALOAD SWAP1 PUSH1 0x1 PUSH1 0x1 PUSH1 0xA0 SHL SUB SWAP1 DUP2 DUP4 AND SWAP1 DUP2 DUP5 SUB PUSH2 0x228E JUMPI PUSH2 0x144 CALLDATALOAD DUP4 DUP2 AND DUP1 SWAP2 SUB PUSH2 0x228A JUMPI PUSH2 0x164 CALLDATALOAD SWAP1 DUP2 ISZERO ISZERO DUP1 SWAP3 SUB PUSH2 0x2286 JUMPI PUSH2 0x184 CALLDATALOAD SWAP1 DUP6 DUP3 AND DUP3 SUB PUSH2 0x2282 JUMPI PUSH2 0x1A4 CALLDATALOAD SWAP6 DUP1 DUP8 AND DUP1 SWAP8 SUB PUSH2 0x227E JUMPI PUSH1 0xE SLOAD SWAP5 PUSH1 0xFF DUP7 PUSH1 0xA0 SHR AND PUSH2 0x2243 JUMPI AND SWAP5 DUP6 ISZERO PUSH2 0x2209 JUMPI ISZERO PUSH2 0x21CE JUMPI DUP1 ISZERO PUSH2 0x2190 JUMPI DUP6 ISZERO PUSH2 0x2140 JUMPI PUSH1 0xE4 CALLDATALOAD DUP1 ISZERO PUSH2 0x20FC JUMPI PUSH2 0x104 CALLDATALOAD SWAP1 DUP2 ISZERO PUSH2 0x20B8 JUMPI PUSH1 0x24 CALLDATALOAD SWAP10 PUSH1 0x44 CALLDATALOAD PUSH2 0x1F72 DUP2 DUP14 GT ISZERO PUSH2 0x2734 JUMP JUMPDEST PUSH1 0x64 CALLDATALOAD DUP1 TIMESTAMP GT PUSH2 0x2074 JUMPI PUSH1 0x84 CALLDATALOAD SWAP2 DUP3 DUP3 LT ISZERO PUSH2 0x2024 JUMPI PUSH2 0x200D SWAP14 PUSH1 0x1 DUP1 PUSH1 0xA0 SHL SUB NOT SWAP12 DUP13 PUSH1 0x3 SLOAD AND OR PUSH1 0x3 SSTORE PUSH1 0x4 SSTORE PUSH1 0x5 SSTORE PUSH1 0x6 SSTORE PUSH1 0x7 SSTORE PUSH1 0xA4 CALLDATALOAD PUSH1 0x8 SSTORE PUSH1 0xFF DUP1 NOT PUSH1 0x9 SLOAD AND SWAP2 AND OR PUSH1 0x9 SSTORE PUSH1 0xA SSTORE PUSH1 0x11 SSTORE DUP5 PUSH1 0x10 SLOAD AND OR PUSH1 0x10 SSTORE PUSH2 0xFF00 PUSH1 0xD SLOAD SWAP2 PUSH3 0x10000 PUSH1 0x1 PUSH1 0xB0 SHL SUB SWAP1 PUSH1 0x10 SHL AND SWAP3 PUSH1 0x8 SHL AND SWAP1 PUSH2 0x100 PUSH1 0x1 PUSH1 0xB0 SHL SUB NOT AND OR OR PUSH1 0xD SSTORE AND OR PUSH1 0xE SSTORE PUSH2 0x2007 CALLER PUSH2 0x250D JUMP JUMPDEST POP PUSH2 0x2579 JUMP JUMPDEST POP PUSH1 0xE DUP1 SLOAD PUSH1 0xFF PUSH1 0xA0 SHL NOT AND PUSH1 0x1 PUSH1 0xA0 SHL OR SWAP1 SSTORE DUP1 RETURN JUMPDEST PUSH1 0x40 MLOAD PUSH3 0x461BCD PUSH1 0xE5 SHL DUP2 MSTORE PUSH1 0x20 PUSH1 0x4 DUP3 ADD MSTORE PUSH1 0x22 PUSH1 0x24 DUP3 ADD MSTORE PUSH32 0x53746172742064617465206D757374206265206265666F726520656E64206461 PUSH1 0x44 DUP3 ADD MSTORE PUSH2 0x7465 PUSH1 0xF0 SHL PUSH1 0x64 DUP3 ADD MSTORE PUSH1 0x84 SWAP1 REVERT JUMPDEST PUSH1 0x64 PUSH1 0x40 MLOAD PUSH3 0x461BCD PUSH1 0xE5 SHL DUP2 MSTORE PUSH1 0x20 PUSH1 0x4 DUP3 ADD MSTORE PUSH1 0x20 PUSH1 0x24 DUP3 ADD MSTORE PUSH32 0x53746172742064617465206D75737420626520696E2074686520667574757265 PUSH1 0x44 DUP3 ADD MSTORE REVERT JUMPDEST PUSH1 0x40 MLOAD PUSH3 0x461BCD PUSH1 0xE5 SHL DUP2 MSTORE PUSH1 0x20 PUSH1 0x4 DUP3 ADD MSTORE PUSH1 0x1C PUSH1 0x24 DUP3 ADD MSTORE PUSH28 0x546F6B656E207072696365206D75737420626520706F736974697665 PUSH1 0x20 SHL PUSH1 0x44 DUP3 ADD MSTORE PUSH1 0x64 SWAP1 REVERT JUMPDEST PUSH1 0x64 PUSH1 0x40 MLOAD PUSH3 0x461BCD PUSH1 0xE5 SHL DUP2 MSTORE PUSH1 0x20 PUSH1 0x4 DUP3 ADD MSTORE PUSH1 0x20 PUSH1 0x24 DUP3 ADD MSTORE PUSH32 0x46756E6472616973696E6720636170206D75737420626520706F736974697665 PUSH1 0x44 DUP3 ADD MSTORE REVERT JUMPDEST PUSH1 0x40 MLOAD PUSH3 0x461BCD PUSH1 0xE5 SHL DUP2 MSTORE PUSH1 0x20 PUSH1 0x4 DUP3 ADD MSTORE PUSH1 0x22 PUSH1 0x24 DUP3 ADD MSTORE PUSH32 0x496E76616C696420696E766573746D656E74206D616E61676572206164647265 PUSH1 0x44 DUP3 ADD MSTORE PUSH2 0x7373 PUSH1 0xF0 SHL PUSH1 0x64 DUP3 ADD MSTORE PUSH1 0x84 SWAP1 REVERT JUMPDEST PUSH1 0x40 MLOAD PUSH3 0x461BCD PUSH1 0xE5 SHL DUP2 MSTORE PUSH1 0x20 PUSH1 0x4 DUP3 ADD MSTORE PUSH1 0x16 PUSH1 0x24 DUP3 ADD MSTORE PUSH22 0x496E76616C696420657363726F772061646472657373 PUSH1 0x50 SHL PUSH1 0x44 DUP3 ADD MSTORE PUSH1 0x64 SWAP1 REVERT JUMPDEST PUSH1 0x40 MLOAD PUSH3 0x461BCD PUSH1 0xE5 SHL DUP2 MSTORE PUSH1 0x20 PUSH1 0x4 DUP3 ADD MSTORE PUSH1 0x13 PUSH1 0x24 DUP3 ADD MSTORE PUSH19 0x24B73B30B634B2103A37B5B2B71037BBB732B9 PUSH1 0x69 SHL PUSH1 0x44 DUP3 ADD MSTORE PUSH1 0x64 SWAP1 REVERT JUMPDEST PUSH1 0x40 MLOAD PUSH3 0x461BCD PUSH1 0xE5 SHL DUP2 MSTORE PUSH1 0x20 PUSH1 0x4 DUP3 ADD MSTORE PUSH1 0x12 PUSH1 0x24 DUP3 ADD MSTORE PUSH18 0x24B73B30B634B21039B0B632903A37B5B2B7 PUSH1 0x71 SHL PUSH1 0x44 DUP3 ADD MSTORE PUSH1 0x64 SWAP1 REVERT JUMPDEST PUSH1 0x40 MLOAD PUSH3 0x461BCD PUSH1 0xE5 SHL DUP2 MSTORE PUSH1 0x20 PUSH1 0x4 DUP3 ADD MSTORE PUSH1 0x13 PUSH1 0x24 DUP3 ADD MSTORE PUSH19 0x105B1C9958591E481A5B9A5D1A585B1A5E9959 PUSH1 0x6A SHL PUSH1 0x44 DUP3 ADD MSTORE PUSH1 0x64 SWAP1 REVERT JUMPDEST DUP10 DUP1 REVERT JUMPDEST DUP9 DUP1 REVERT JUMPDEST DUP8 DUP1 REVERT JUMPDEST DUP7 DUP1 REVERT JUMPDEST DUP6 DUP1 REVERT JUMPDEST POP CALLVALUE PUSH2 0x2BF JUMPI PUSH1 0x20 CALLDATASIZE PUSH1 0x3 NOT ADD SLT PUSH2 0x2BF JUMPI PUSH1 0x1 PUSH1 0x40 PUSH1 0x20 SWAP3 PUSH1 0x4 CALLDATALOAD DUP2 MSTORE DUP1 DUP5 MSTORE KECCAK256 ADD SLOAD PUSH1 0x40 MLOAD SWAP1 DUP2 MSTORE RETURN JUMPDEST POP CALLVALUE PUSH2 0x2BF JUMPI DUP1 PUSH1 0x3 NOT CALLDATASIZE ADD SLT PUSH2 0x2BF JUMPI PUSH1 0x20 PUSH1 0xFF PUSH1 0xD SLOAD AND PUSH1 0x40 MLOAD SWAP1 ISZERO ISZERO DUP2 MSTORE RETURN JUMPDEST POP CALLVALUE PUSH2 0x2BF JUMPI PUSH1 0x40 CALLDATASIZE PUSH1 0x3 NOT ADD SLT PUSH2 0x2BF JUMPI PUSH2 0x22FB PUSH2 0x243D JUMP JUMPDEST PUSH1 0x24 CALLDATALOAD SWAP1 DUP2 ISZERO ISZERO DUP1 SWAP3 SUB PUSH2 0x490 JUMPI PUSH1 0x20 PUSH32 0x91AD45A5CE97C5EEE55FA01496772AFEFC7F0757ED9EAC59064E642690509DFB SWAP2 PUSH2 0x2335 PUSH2 0x2469 JUMP JUMPDEST PUSH1 0x1 PUSH1 0x1 PUSH1 0xA0 SHL SUB AND DUP1 DUP6 MSTORE PUSH1 0x12 DUP3 MSTORE PUSH1 0x40 DUP1 DUP7 KECCAK256 DUP1 SLOAD PUSH1 0xFF NOT AND PUSH1 0xFF DUP8 AND OR SWAP1 SSTORE MLOAD SWAP4 DUP5 MSTORE SWAP3 LOG2 DUP1 RETURN JUMPDEST POP CALLVALUE PUSH2 0x2BF JUMPI DUP1 PUSH1 0x3 NOT CALLDATASIZE ADD SLT PUSH2 0x2BF JUMPI PUSH1 0x10 SLOAD PUSH1 0x40 MLOAD PUSH1 0x1 PUSH1 0x1 PUSH1 0xA0 SHL SUB SWAP1 SWAP2 AND DUP2 MSTORE PUSH1 0x20 SWAP1 RETURN JUMPDEST POP CALLVALUE PUSH2 0x2BF JUMPI DUP1 PUSH1 0x3 NOT CALLDATASIZE ADD SLT PUSH2 0x2BF JUMPI PUSH1 0x20 PUSH1 0xFF PUSH1 0x9 SLOAD AND PUSH1 0x40 MLOAD SWAP1 ISZERO ISZERO DUP2 MSTORE RETURN JUMPDEST POP CALLVALUE PUSH2 0x2BF JUMPI DUP1 PUSH1 0x3 NOT CALLDATASIZE ADD SLT PUSH2 0x2BF JUMPI PUSH1 0x20 PUSH1 0x6 SLOAD PUSH1 0x40 MLOAD SWAP1 DUP2 MSTORE RETURN JUMPDEST POP CALLVALUE PUSH2 0x2BF JUMPI PUSH1 0x20 CALLDATASIZE PUSH1 0x3 NOT ADD SLT PUSH2 0x2BF JUMPI PUSH1 0x4 CALLDATALOAD PUSH4 0xFFFFFFFF PUSH1 0xE0 SHL DUP2 AND DUP1 SWAP2 SUB PUSH2 0xFFA JUMPI PUSH1 0x20 SWAP1 PUSH4 0x7965DB0B PUSH1 0xE0 SHL DUP2 EQ SWAP1 DUP2 ISZERO PUSH2 0x2410 JUMPI JUMPDEST POP PUSH1 0x40 MLOAD SWAP1 ISZERO ISZERO DUP2 MSTORE RETURN JUMPDEST PUSH4 0x1FFC9A7 PUSH1 0xE0 SHL EQ SWAP1 POP DUP3 PUSH2 0x2405 JUMP JUMPDEST SWAP1 POP CALLVALUE PUSH2 0xFFA JUMPI DUP2 PUSH1 0x3 NOT CALLDATASIZE ADD SLT PUSH2 0xFFA JUMPI PUSH1 0x20 SWAP1 PUSH1 0x5 SLOAD DUP2 MSTORE RETURN JUMPDEST PUSH1 0x4 CALLDATALOAD SWAP1 PUSH1 0x1 PUSH1 0x1 PUSH1 0xA0 SHL SUB DUP3 AND DUP3 SUB PUSH2 0x59B JUMPI JUMP JUMPDEST PUSH1 0x24 CALLDATALOAD SWAP1 PUSH1 0x1 PUSH1 0x1 PUSH1 0xA0 SHL SUB DUP3 AND DUP3 SUB PUSH2 0x59B JUMPI JUMP JUMPDEST CALLER PUSH1 0x0 SWAP1 DUP2 MSTORE PUSH1 0x0 DUP1 MLOAD PUSH1 0x20 PUSH2 0x2A24 DUP4 CODECOPY DUP2 MLOAD SWAP2 MSTORE PUSH1 0x20 MSTORE PUSH1 0x40 DUP2 KECCAK256 SLOAD PUSH1 0xFF AND ISZERO PUSH2 0x2491 JUMPI POP JUMP JUMPDEST PUSH1 0x44 SWAP1 PUSH1 0x40 MLOAD SWAP1 PUSH4 0xE2517D3F PUSH1 0xE0 SHL DUP3 MSTORE CALLER PUSH1 0x4 DUP4 ADD MSTORE PUSH1 0x24 DUP3 ADD MSTORE REVERT JUMPDEST CALLER PUSH1 0x0 SWAP1 DUP2 MSTORE PUSH1 0x0 DUP1 MLOAD PUSH1 0x20 PUSH2 0x2964 DUP4 CODECOPY DUP2 MLOAD SWAP2 MSTORE PUSH1 0x20 MSTORE PUSH1 0x40 SWAP1 KECCAK256 SLOAD PUSH1 0x0 DUP1 MLOAD PUSH1 0x20 PUSH2 0x29E4 DUP4 CODECOPY DUP2 MLOAD SWAP2 MSTORE SWAP1 PUSH1 0xFF AND ISZERO PUSH2 0x2491 JUMPI POP JUMP JUMPDEST DUP1 PUSH1 0x0 MSTORE PUSH1 0x0 PUSH1 0x20 MSTORE PUSH1 0x40 PUSH1 0x0 KECCAK256 CALLER PUSH1 0x0 MSTORE PUSH1 0x20 MSTORE PUSH1 0xFF PUSH1 0x40 PUSH1 0x0 KECCAK256 SLOAD AND ISZERO PUSH2 0x2491 JUMPI POP JUMP JUMPDEST PUSH1 0x1 PUSH1 0x1 PUSH1 0xA0 SHL SUB AND PUSH1 0x0 DUP2 DUP2 MSTORE PUSH1 0x0 DUP1 MLOAD PUSH1 0x20 PUSH2 0x2A24 DUP4 CODECOPY DUP2 MLOAD SWAP2 MSTORE PUSH1 0x20 MSTORE PUSH1 0x40 DUP2 KECCAK256 SLOAD SWAP1 SWAP2 SWAP1 PUSH1 0xFF AND PUSH2 0x2575 JUMPI DUP2 DUP1 MSTORE DUP2 PUSH1 0x20 MSTORE PUSH1 0x40 DUP3 KECCAK256 DUP2 DUP4 MSTORE PUSH1 0x20 MSTORE PUSH1 0x40 DUP3 KECCAK256 PUSH1 0x1 PUSH1 0xFF NOT DUP3 SLOAD AND OR SWAP1 SSTORE CALLER SWAP2 PUSH1 0x0 DUP1 MLOAD PUSH1 0x20 PUSH2 0x2944 DUP4 CODECOPY DUP2 MLOAD SWAP2 MSTORE DUP2 DUP1 LOG4 PUSH1 0x1 SWAP1 JUMP JUMPDEST POP SWAP1 JUMP JUMPDEST PUSH1 0x1 PUSH1 0x1 PUSH1 0xA0 SHL SUB AND PUSH1 0x0 DUP2 DUP2 MSTORE PUSH1 0x0 DUP1 MLOAD PUSH1 0x20 PUSH2 0x2964 DUP4 CODECOPY DUP2 MLOAD SWAP2 MSTORE PUSH1 0x20 MSTORE PUSH1 0x40 DUP2 KECCAK256 SLOAD SWAP1 SWAP2 SWAP1 PUSH1 0x0 DUP1 MLOAD PUSH1 0x20 PUSH2 0x29E4 DUP4 CODECOPY DUP2 MLOAD SWAP2 MSTORE SWAP1 PUSH1 0xFF AND PUSH2 0x25F0 JUMPI DUP1 DUP4 MSTORE DUP3 PUSH1 0x20 MSTORE PUSH1 0x40 DUP4 KECCAK256 DUP3 DUP5 MSTORE PUSH1 0x20 MSTORE PUSH1 0x40 DUP4 KECCAK256 PUSH1 0x1 PUSH1 0xFF NOT DUP3 SLOAD AND OR SWAP1 SSTORE PUSH1 0x0 DUP1 MLOAD PUSH1 0x20 PUSH2 0x2944 DUP4 CODECOPY DUP2 MLOAD SWAP2 MSTORE CALLER SWAP4 DUP1 LOG4 PUSH1 0x1 SWAP1 JUMP JUMPDEST POP POP SWAP1 JUMP JUMPDEST SWAP1 PUSH1 0x0 SWAP2 DUP1 DUP4 MSTORE DUP3 PUSH1 0x20 MSTORE PUSH1 0x40 DUP4 KECCAK256 SWAP2 PUSH1 0x1 DUP1 PUSH1 0xA0 SHL SUB AND SWAP2 DUP3 DUP5 MSTORE PUSH1 0x20 MSTORE PUSH1 0xFF PUSH1 0x40 DUP5 KECCAK256 SLOAD AND ISZERO PUSH1 0x0 EQ PUSH2 0x25F0 JUMPI DUP1 DUP4 MSTORE DUP3 PUSH1 0x20 MSTORE PUSH1 0x40 DUP4 KECCAK256 DUP3 DUP5 MSTORE PUSH1 0x20 MSTORE PUSH1 0x40 DUP4 KECCAK256 PUSH1 0x1 PUSH1 0xFF NOT DUP3 SLOAD AND OR SWAP1 SSTORE PUSH1 0x0 DUP1 MLOAD PUSH1 0x20 PUSH2 0x2944 DUP4 CODECOPY DUP2 MLOAD SWAP2 MSTORE CALLER SWAP4 DUP1 LOG4 PUSH1 0x1 SWAP1 JUMP JUMPDEST PUSH1 0x1 PUSH1 0x1 PUSH1 0xA0 SHL SUB AND PUSH1 0x0 DUP2 DUP2 MSTORE PUSH1 0x0 DUP1 MLOAD PUSH1 0x20 PUSH2 0x2964 DUP4 CODECOPY DUP2 MLOAD SWAP2 MSTORE PUSH1 0x20 MSTORE PUSH1 0x40 DUP2 KECCAK256 SLOAD SWAP1 SWAP2 SWAP1 PUSH1 0x0 DUP1 MLOAD PUSH1 0x20 PUSH2 0x29E4 DUP4 CODECOPY DUP2 MLOAD SWAP2 MSTORE SWAP1 PUSH1 0xFF AND ISZERO PUSH2 0x25F0 JUMPI DUP1 DUP4 MSTORE DUP3 PUSH1 0x20 MSTORE PUSH1 0x40 DUP4 KECCAK256 DUP3 DUP5 MSTORE PUSH1 0x20 MSTORE PUSH1 0x40 DUP4 KECCAK256 PUSH1 0xFF NOT DUP2 SLOAD AND SWAP1 SSTORE PUSH1 0x0 DUP1 MLOAD PUSH1 0x20 PUSH2 0x2A04 DUP4 CODECOPY DUP2 MLOAD SWAP2 MSTORE CALLER SWAP4 DUP1 LOG4 PUSH1 0x1 SWAP1 JUMP JUMPDEST SWAP1 PUSH1 0x0 SWAP2 DUP1 DUP4 MSTORE DUP3 PUSH1 0x20 MSTORE PUSH1 0x40 DUP4 KECCAK256 SWAP2 PUSH1 0x1 DUP1 PUSH1 0xA0 SHL SUB AND SWAP2 DUP3 DUP5 MSTORE PUSH1 0x20 MSTORE PUSH1 0xFF PUSH1 0x40 DUP5 KECCAK256 SLOAD AND PUSH1 0x0 EQ PUSH2 0x25F0 JUMPI DUP1 DUP4 MSTORE DUP3 PUSH1 0x20 MSTORE PUSH1 0x40 DUP4 KECCAK256 DUP3 DUP5 MSTORE PUSH1 0x20 MSTORE PUSH1 0x40 DUP4 KECCAK256 PUSH1 0xFF NOT DUP2 SLOAD AND SWAP1 SSTORE PUSH1 0x0 DUP1 MLOAD PUSH1 0x20 PUSH2 0x2A04 DUP4 CODECOPY DUP2 MLOAD SWAP2 MSTORE CALLER SWAP4 DUP1 LOG4 PUSH1 0x1 SWAP1 JUMP JUMPDEST ISZERO PUSH2 0x273B JUMPI JUMP JUMPDEST PUSH1 0x40 MLOAD PUSH3 0x461BCD PUSH1 0xE5 SHL DUP2 MSTORE PUSH1 0x20 PUSH1 0x4 DUP3 ADD MSTORE PUSH1 0x14 PUSH1 0x24 DUP3 ADD MSTORE PUSH20 0x135A5B880F881B585E081A5B9D995CDD1B595B9D PUSH1 0x62 SHL PUSH1 0x44 DUP3 ADD MSTORE PUSH1 0x64 SWAP1 REVERT JUMPDEST PUSH1 0xFF PUSH1 0x1 SLOAD AND PUSH2 0x2783 JUMPI JUMP JUMPDEST PUSH1 0x40 MLOAD PUSH4 0xD93C0665 PUSH1 0xE0 SHL DUP2 MSTORE PUSH1 0x4 SWAP1 REVERT JUMPDEST SWAP2 SWAP1 DUP3 ADD DUP1 SWAP3 GT PUSH2 0x27A2 JUMPI JUMP JUMPDEST PUSH4 0x4E487B71 PUSH1 0xE0 SHL PUSH1 0x0 MSTORE PUSH1 0x11 PUSH1 0x4 MSTORE PUSH1 0x24 PUSH1 0x0 REVERT JUMPDEST DUP2 ISZERO PUSH2 0x27C2 JUMPI DIV SWAP1 JUMP JUMPDEST PUSH4 0x4E487B71 PUSH1 0xE0 SHL PUSH1 0x0 MSTORE PUSH1 0x12 PUSH1 0x4 MSTORE PUSH1 0x24 PUSH1 0x0 REVERT JUMPDEST PUSH1 0x1 PUSH1 0x1 PUSH1 0x40 SHL SUB DUP2 GT PUSH2 0x27EB JUMPI PUSH1 0x40 MSTORE JUMP JUMPDEST PUSH4 0x4E487B71 PUSH1 0xE0 SHL PUSH1 0x0 MSTORE PUSH1 0x41 PUSH1 0x4 MSTORE PUSH1 0x24 PUSH1 0x0 REVERT JUMPDEST PUSH1 0x1F SWAP1 SWAP2 ADD PUSH1 0x1F NOT AND DUP2 ADD SWAP1 PUSH1 0x1 PUSH1 0x1 PUSH1 0x40 SHL SUB DUP3 GT SWAP1 DUP3 LT OR PUSH2 0x27EB JUMPI PUSH1 0x40 MSTORE JUMP JUMPDEST ISZERO PUSH2 0x282B JUMPI JUMP JUMPDEST PUSH1 0x40 MLOAD PUSH3 0x461BCD PUSH1 0xE5 SHL DUP2 MSTORE PUSH1 0x20 PUSH1 0x4 DUP3 ADD MSTORE PUSH1 0x18 PUSH1 0x24 DUP3 ADD MSTORE PUSH24 0x496E73756666696369656E742073616C6520746F6B656E73 PUSH1 0x40 SHL PUSH1 0x44 DUP3 ADD MSTORE PUSH1 0x64 SWAP1 REVERT JUMPDEST SWAP1 DUP2 PUSH1 0x20 SWAP2 SUB SLT PUSH2 0x59B JUMPI MLOAD DUP1 ISZERO ISZERO DUP2 SUB PUSH2 0x59B JUMPI SWAP1 JUMP JUMPDEST PUSH1 0x1 PUSH1 0x1 PUSH1 0xA0 SHL SUB SWAP1 SWAP2 AND DUP2 MSTORE PUSH1 0x20 DUP2 ADD SWAP2 SWAP1 SWAP2 MSTORE PUSH1 0x40 ADD SWAP1 JUMP JUMPDEST PUSH1 0x2 DUP1 SLOAD EQ PUSH2 0x28AD JUMPI PUSH1 0x2 DUP1 SSTORE JUMP JUMPDEST PUSH1 0x40 MLOAD PUSH4 0x3EE5AEB5 PUSH1 0xE0 SHL DUP2 MSTORE PUSH1 0x4 SWAP1 REVERT JUMPDEST ISZERO PUSH2 0x28C6 JUMPI JUMP JUMPDEST PUSH1 0x40 MLOAD PUSH3 0x461BCD PUSH1 0xE5 SHL DUP2 MSTORE PUSH1 0x20 PUSH1 0x4 DUP3 ADD MSTORE PUSH1 0xD PUSH1 0x24 DUP3 ADD MSTORE PUSH13 0x496E76616C6964207072696365 PUSH1 0x98 SHL PUSH1 0x44 DUP3 ADD MSTORE PUSH1 0x64 SWAP1 REVERT JUMPDEST SWAP2 SWAP1 DUP3 SUB SWAP2 DUP3 GT PUSH2 0x27A2 JUMPI JUMP JUMPDEST ISZERO PUSH2 0x290F JUMPI JUMP JUMPDEST PUSH1 0x40 MLOAD PUSH3 0x461BCD PUSH1 0xE5 SHL DUP2 MSTORE PUSH1 0x20 PUSH1 0x4 DUP3 ADD MSTORE PUSH1 0xC PUSH1 0x24 DUP3 ADD MSTORE PUSH12 0x5A65726F2061646472657373 PUSH1 0xA0 SHL PUSH1 0x44 DUP3 ADD MSTORE PUSH1 0x64 SWAP1 REVERT INVALID 0x2F DUP8 DUP9 GT PUSH31 0x7EFF1D82E926EC794901D17C78024A50270940304540A733656F0D7DFC0114 0xFC 0x2B SUB KECCAK256 SWAP5 PUSH19 0x40CBD60A9FFC193468A941C37441E641A928A8 0xC1 AND 0xD5 SWAP4 PUSH4 0x8E6CF18B 0x4F PUSH11 0x839DE65DF95898221F5D9F PUSH30 0xC54B87D4B31D40297643266EC1D3048301C0D23629A2532C8DEFA6D68F8E BYTE 0xE COINBASE JUMPI SWAP2 DUP8 PUSH10 0xE9FB1B2EEB888ED27DD3 PUSH30 0x941F5A1B76926E48140FDBF50A0C59DEFB5431A391A1260279EB1C4C3536 SWAP12 GASPRICE PUSH28 0xB98C90641A907C2FD643EA781341EBA72CCFFD47CB018C128C48C3F6 CODECOPY 0x1F 0x5C ORIGIN 0xD9 0xC6 SWAP14 0x2A SELFBALANCE 0xEA PUSH8 0xB442974B53935D1 0xED 0xC7 REVERT PUSH5 0xEB21E047A8 CODECOPY OR SHL 0xAD ORIGIN 0x28 0xB6 PUSH23 0xF7D3CD4284A5443F17F1962B36E491B30A40B2405849E5 SWAP8 0xBA PUSH0 0xB5 LOG2 PUSH5 0x6970667358 0x22 SLT KECCAK256 0xA5 0x23 GASPRICE 0xDA DUP14 0xE7 SGT SWAP11 0xCA TIMESTAMP PUSH17 0xD178CA97A55EB988CB593E5E0CAE0610E 0xC2 AND 0xB8 0xB8 PUSH5 0x736F6C6343 STOP ADDMOD EQ STOP CALLER "},"methodIdentifiers":{"DEFAULT_ADMIN_ROLE()":"a217fddf","TOKEN_OWNER_ROLE()":"8a185113","apyEnabled()":"4fff5402","autoTransfer()":"0d342cab","claimTokens(address)":"df8de3e7","endDate()":"c24a0f8b","escrowAddress()":"0d5defa4","fundraisingCap()":"b9662797","getRoleAdmin(bytes32)":"248a9ca3","grantRole(bytes32,address)":"2f2ff15d","grantTokenOwner(address)":"b13ef138","hasRole(bytes32,address)":"91d14854","initialize(address,uint256,uint256,uint256,uint256,uint256,bool,uint256,uint256,address,address,bool,address,address)":"28eaf5bd","invest(address,address,uint256)":"653ac422","investmentManager()":"4b31bb10","isSaleClosed()":"1e1a268b","maturityDate()":"d59624b4","maxInvestment()":"002e1316","minInvestment()":"8ac2c680","pause()":"8456cb59","paused()":"5c975abb","pendingTokens(address)":"c031a66f","reclaimUnclaimedTokens(address)":"77d392f0","removeTokenOracle(address)":"88e32fc2","renounceRole(bytes32,address)":"36568abe","rescueTokens(address,uint256,address)":"b37fd190","revokeRole(bytes32,address)":"d547741f","revokeTokenOwner(address)":"a6527f39","saleToken()":"e985e367","setEndDate(uint256)":"3784f000","setInvestmentLimits(uint256,uint256)":"fb903b1d","setTokenOracle(address,address)":"764467cc","setTokenPrice(uint256)":"6a61e5fc","setWhitelistedPaymentToken(address,bool)":"1309b324","startDate()":"0b97bc86","supportsInterface(bytes4)":"01ffc9a7","tokenOracles(address)":"bd492432","tokenPrice()":"7ff9b596","totalInvested(address)":"90838e09","totalPendingTokens()":"bbcc0a06","totalRaised()":"c5c4744c","treasury()":"61d027b3","unpause()":"3f4ba83a","whitelistedPaymentTokens(address)":"df695abb","wrappedTokenAddress()":"3e646208"}}}}}