{"contracts/WrapedToken.sol":{"WRAPEDTOKEN":{"abi":[{"inputs":[{"internalType":"string","name":"name","type":"string"},{"internalType":"string","name":"symbol","type":"string"},{"internalType":"address","name":"_peggedToken","type":"address"},{"internalType":"uint256","name":"_maturityDate","type":"uint256"},{"internalType":"address","name":"_offeringContract","type":"address"}],"stateMutability":"nonpayable","type":"constructor"},{"inputs":[],"name":"AlreadyClaimed","type":"error"},{"inputs":[],"name":"AlreadyMatured","type":"error"},{"inputs":[{"internalType":"address","name":"spender","type":"address"},{"internalType":"uint256","name":"allowance","type":"uint256"},{"internalType":"uint256","name":"needed","type":"uint256"}],"name":"ERC20InsufficientAllowance","type":"error"},{"inputs":[{"internalType":"address","name":"sender","type":"address"},{"internalType":"uint256","name":"balance","type":"uint256"},{"internalType":"uint256","name":"needed","type":"uint256"}],"name":"ERC20InsufficientBalance","type":"error"},{"inputs":[{"internalType":"address","name":"approver","type":"address"}],"name":"ERC20InvalidApprover","type":"error"},{"inputs":[{"internalType":"address","name":"receiver","type":"address"}],"name":"ERC20InvalidReceiver","type":"error"},{"inputs":[{"internalType":"address","name":"sender","type":"address"}],"name":"ERC20InvalidSender","type":"error"},{"inputs":[{"internalType":"address","name":"spender","type":"address"}],"name":"ERC20InvalidSpender","type":"error"},{"inputs":[],"name":"InvalidAmount","type":"error"},{"inputs":[],"name":"InvalidStablecoin","type":"error"},{"inputs":[],"name":"NoDeposit","type":"error"},{"inputs":[],"name":"NoTransfersAllowed","type":"error"},{"inputs":[],"name":"NotMatured","type":"error"},{"inputs":[],"name":"TokenTransferFailed","type":"error"},{"anonymous":false,"inputs":[{"indexed":true,"internalType":"address","name":"owner","type":"address"},{"indexed":true,"internalType":"address","name":"spender","type":"address"},{"indexed":false,"internalType":"uint256","name":"value","type":"uint256"}],"name":"Approval","type":"event"},{"anonymous":false,"inputs":[{"indexed":true,"internalType":"address","name":"from","type":"address"},{"indexed":true,"internalType":"address","name":"to","type":"address"},{"indexed":false,"internalType":"uint256","name":"value","type":"uint256"}],"name":"Transfer","type":"event"},{"inputs":[{"internalType":"address","name":"owner","type":"address"},{"internalType":"address","name":"spender","type":"address"}],"name":"allowance","outputs":[{"internalType":"uint256","name":"","type":"uint256"}],"stateMutability":"view","type":"function"},{"inputs":[{"internalType":"address","name":"spender","type":"address"},{"internalType":"uint256","name":"value","type":"uint256"}],"name":"approve","outputs":[{"internalType":"bool","name":"","type":"bool"}],"stateMutability":"nonpayable","type":"function"},{"inputs":[{"internalType":"address","name":"account","type":"address"}],"name":"balanceOf","outputs":[{"internalType":"uint256","name":"","type":"uint256"}],"stateMutability":"view","type":"function"},{"inputs":[{"internalType":"uint256","name":"value","type":"uint256"}],"name":"burn","outputs":[],"stateMutability":"nonpayable","type":"function"},{"inputs":[{"internalType":"address","name":"account","type":"address"},{"internalType":"uint256","name":"value","type":"uint256"}],"name":"burnFrom","outputs":[],"stateMutability":"nonpayable","type":"function"},{"inputs":[],"name":"claimFinalTokens","outputs":[],"stateMutability":"nonpayable","type":"function"},{"inputs":[],"name":"decimals","outputs":[{"internalType":"uint8","name":"","type":"uint8"}],"stateMutability":"view","type":"function"},{"inputs":[{"internalType":"address","name":"","type":"address"}],"name":"investors","outputs":[{"internalType":"uint256","name":"deposited","type":"uint256"},{"internalType":"bool","name":"hasClaimedTokens","type":"bool"}],"stateMutability":"view","type":"function"},{"inputs":[],"name":"maturityDate","outputs":[{"internalType":"uint256","name":"","type":"uint256"}],"stateMutability":"view","type":"function"},{"inputs":[],"name":"name","outputs":[{"internalType":"string","name":"","type":"string"}],"stateMutability":"view","type":"function"},{"inputs":[],"name":"offeringContract","outputs":[{"internalType":"address","name":"","type":"address"}],"stateMutability":"view","type":"function"},{"inputs":[],"name":"peggedToken","outputs":[{"internalType":"contract IERC20","name":"","type":"address"}],"stateMutability":"view","type":"function"},{"inputs":[{"internalType":"address","name":"_user","type":"address"},{"internalType":"uint256","name":"amount","type":"uint256"}],"name":"registerInvestment","outputs":[],"stateMutability":"nonpayable","type":"function"},{"inputs":[],"name":"symbol","outputs":[{"internalType":"string","name":"","type":"string"}],"stateMutability":"view","type":"function"},{"inputs":[],"name":"totalEscrowed","outputs":[{"internalType":"uint256","name":"","type":"uint256"}],"stateMutability":"view","type":"function"},{"inputs":[],"name":"totalSupply","outputs":[{"internalType":"uint256","name":"","type":"uint256"}],"stateMutability":"view","type":"function"},{"inputs":[{"internalType":"address","name":"","type":"address"},{"internalType":"uint256","name":"","type":"uint256"}],"name":"transfer","outputs":[{"internalType":"bool","name":"","type":"bool"}],"stateMutability":"pure","type":"function"},{"inputs":[{"internalType":"address","name":"","type":"address"},{"internalType":"address","name":"","type":"address"},{"internalType":"uint256","name":"","type":"uint256"}],"name":"transferFrom","outputs":[{"internalType":"bool","name":"","type":"bool"}],"stateMutability":"pure","type":"function"}],"evm":{"bytecode":{"linkReferences":{},"object":"60e060405234620003a55762001031803803806200001d81620003aa565b92833981019060a081830312620003a55780516001600160401b039290838111620003a5578162000050918401620003d0565b926020918284015190828211620003a5576200006e918501620003d0565b936200007d6040850162000442565b916200009160806060870151960162000442565b958251828111620002a5576003918254916001958684811c941680156200039a575b8985101462000384578190601f948581116200032e575b508990858311600114620002c757600092620002bb575b505060001982861b1c191690861b1783555b8051938411620002a55760049687548681811c911680156200029a575b8282101462000285578381116200023a575b5080928511600114620001cc5750938394918492600095620001c0575b50501b92600019911b1c19161782555b6001600160a01b0316908115620001b1575060805260a05260c052604051610bd9908162000458823960805181818161049c0152818161063301526109b7015260a05181818161016a0152610416015260c0518181816105da01526107d40152f35b604051632945604560e11b8152fd5b0151935038806200013f565b92919084601f1981168960005285600020956000905b898383106200021f575050501062000204575b50505050811b0182556200014f565b01519060f884600019921b161c1916905538808080620001f5565b858701518955909701969485019488935090810190620001e2565b88600052816000208480880160051c8201928489106200027b575b0160051c019087905b8281106200026e57505062000122565b600081550187906200025e565b9250819262000255565b602289634e487b7160e01b6000525260246000fd5b90607f169062000110565b634e487b7160e01b600052604160045260246000fd5b015190503880620000e1565b90889350601f19831691876000528b6000209260005b8d828210620003175750508411620002fe575b505050811b018355620000f3565b015160001983881b60f8161c19169055388080620002f0565b8385015186558c97909501949384019301620002dd565b90915085600052896000208580850160051c8201928c86106200037a575b918a91869594930160051c01915b8281106200036a575050620000ca565b600081558594508a91016200035a565b925081926200034c565b634e487b7160e01b600052602260045260246000fd5b93607f1693620000b3565b600080fd5b6040519190601f01601f191682016001600160401b03811183821017620002a557604052565b919080601f84011215620003a55782516001600160401b038111620002a55760209062000406601f8201601f19168301620003aa565b92818452828287010111620003a55760005b8181106200042e57508260009394955001015290565b858101830151848201840152820162000418565b51906001600160a01b0382168203620003a55756fe608060408181526004918236101561001657600080fd5b600092833560e01c918262e77aa6146109a35750816306fdde03146108cc578163095ea7b31461082257816318160ddd146108035781631a4f94f7146107bf5781631c60d886146105b157816323b872dd1461058c578163313ce5671461057057816342966c6814610552578163464f0b0d146104015781636f7bc9be146103ba57816370a082311461038357816379cc67901461029f57816395d89b41146101b9578163a9059cbb1461018d57508063d59624b414610153578063dd62ed3e1461010b5763f9168231146100ea57600080fd5b346101075781600319360112610107576020906005549051908152f35b5080fd5b503461010757806003193601126101075780602092610128610a2f565b610130610a4a565b6001600160a01b0391821683526001865283832091168252845220549051908152f35b5034610107578160031936011261010757602090517f00000000000000000000000000000000000000000000000000000000000000008152f35b8284346101b657816003193601126101b657506101a8610a2f565b5051631de81c7b60e01b8152fd5b80fd5b838334610107578160031936011261010757805191809380549160019083821c92828516948515610295575b60209586861081146102825785895290811561025e5750600114610223575b61021f8787610215828c0383610a60565b51918291826109e6565b0390f35b9080949750528583205b82841061024b575050508261021f9461021592820101948680610204565b805486850188015292860192810161022d565b60ff19168887015250505050151560051b83010192506102158261021f8680610204565b634e487b7160e01b845260228352602484fd5b93607f16936101e5565b839150346101075782600319360112610107576102ba610a2f565b6001600160a01b038116808452600160209081528585203386529052848420546024359390919060001983106102f9575b856102f68686610a99565b80f35b84831061036157811561034a573315610333575084959184916102f6965260016020528287203388526020520390852055839285806102eb565b8651634a1406b160e11b8152908101869052602490fd5b865163e602df0560e01b8152908101869052602490fd5b905061037f848751938493637dc7a0d960e11b855233908501610b2a565b0390fd5b5050346101075760203660031901126101075760209181906001600160a01b036103ab610a2f565b16815280845220549051908152f35b505034610107576020366003190112610107579081906001600160a01b036103e0610a2f565b16815260066020522060ff6001825492015416825191825215156020820152f35b9190503461054e578260031936011261054e577f000000000000000000000000000000000000000000000000000000000000000042106105415733835260066020528083206001810160ff81541661053257815415610523573385528460205261046e8386205433610a99565b805460ff1916600117905554815163a9059cbb60e01b815233848201526024810191909152602081604481877f00000000000000000000000000000000000000000000000000000000000000006001600160a01b03165af19081156105195784916104eb575b50156104de578280f35b5163022e258160e11b8152fd5b61050c915060203d8111610512575b6105048183610a60565b810190610b6b565b386104d4565b503d6104fa565b82513d86823e3d90fd5b505051633a6a68b160e01b8152fd5b505051630c8d9eab60e31b8152fd5b5163111c440960e01b8152fd5b8280fd5b839034610107576020366003190112610107576102f6903533610a99565b5050346101075781600319360112610107576020905160128152f35b8284346101b65760603660031901126101b657506105a8610a2f565b506101a8610a4a565b8383346101075780600319360112610107576105cb610a2f565b60243591906001600160a01b037f000000000000000000000000000000000000000000000000000000000000000081169133839003610770578415610760578351926323b872dd60e01b84528784015230602484015284604484015260209283816064818a877f0000000000000000000000000000000000000000000000000000000000000000165af1908115610756578791610739575b501561072957169182156107135761067d84600254610b48565b6002558285528482528085208481540190558285600080516020610b84833981519152848451888152a38051918282016001600160401b03811184821017610700579160066106fa96959492600194835286845280840195898752895252862090518155019051151560ff80198354169116179055600554610b48565b60055580f35b634e487b7160e01b875260418852602487fd5b5163ec442f0560e01b8152808601859052602490fd5b835163022e258160e11b81528790fd5b6107509150843d8611610512576105048183610a60565b88610663565b85513d89823e3d90fd5b835163162908e360e11b81528790fd5b835162461bcd60e51b8152602081890152602360248201527f43616c6c6572206973206e6f7420746865206f66666572696e6720636f6e74726044820152621858dd60ea1b6064820152608490fd5b505034610107578160031936011261010757517f00000000000000000000000000000000000000000000000000000000000000006001600160a01b03168152602090f35b5050346101075781600319360112610107576020906002549051908152f35b90503461054e578160031936011261054e5761083c610a2f565b6024359033156108b5576001600160a01b031691821561089e57508083602095338152600187528181208582528752205582519081527f8c5be1e5ebec7d5bd14f71427d1e84f3dd0314c0f7b2291e5b200ac8c7c3b925843392a35160018152f35b8351634a1406b160e11b8152908101859052602490fd5b835163e602df0560e01b8152808401869052602490fd5b9190503461054e578260031936011261054e57805191836003549060019082821c928281168015610999575b602095868610821461098657508488529081156109645750600114610929575b61021f8686610215828b0383610a60565b929550600383528583205b828410610951575050508261021f94610215928201019438610918565b8054868501880152928601928101610934565b60ff191687860152505050151560051b83010192506102158261021f38610918565b634e487b7160e01b845260229052602483fd5b93607f16936108f8565b8490346101075781600319360112610107577f00000000000000000000000000000000000000000000000000000000000000006001600160a01b03168152602090f35b6020808252825181830181905290939260005b828110610a1b57505060409293506000838284010152601f8019910116010190565b8181018601518482016040015285016109f9565b600435906001600160a01b0382168203610a4557565b600080fd5b602435906001600160a01b0382168203610a4557565b601f909101601f19168101906001600160401b03821190821017610a8357604052565b634e487b7160e01b600052604160045260246000fd5b906001600160a01b038216908115610b115760009282845283602052604084205490828210610af4575081600080516020610b84833981519152926020928587528684520360408620558060025403600255604051908152a3565b61037f8360405193849363391434e360e21b855260048501610b2a565b604051634b637e8f60e11b815260006004820152602490fd5b604091949392606082019560018060a01b0316825260208201520152565b91908201809211610b5557565b634e487b7160e01b600052601160045260246000fd5b90816020910312610a4557518015158103610a45579056feddf252ad1be2c89b69c2b068fc378daa952ba7f163c4a11628f55a4df523b3efa264697066735822122072aff8ac0870e1ad92423de4f8b5732447afe3f3a5ddb531c39cb8bff70db26764736f6c63430008140033","opcodes":"PUSH1 0xE0 PUSH1 0x40 MSTORE CALLVALUE PUSH3 0x3A5 JUMPI PUSH3 0x1031 DUP1 CODESIZE SUB DUP1 PUSH3 0x1D DUP2 PUSH3 0x3AA JUMP JUMPDEST SWAP3 DUP4 CODECOPY DUP2 ADD SWAP1 PUSH1 0xA0 DUP2 DUP4 SUB SLT PUSH3 0x3A5 JUMPI DUP1 MLOAD PUSH1 0x1 PUSH1 0x1 PUSH1 0x40 SHL SUB SWAP3 SWAP1 DUP4 DUP2 GT PUSH3 0x3A5 JUMPI DUP2 PUSH3 0x50 SWAP2 DUP5 ADD PUSH3 0x3D0 JUMP JUMPDEST SWAP3 PUSH1 0x20 SWAP2 DUP3 DUP5 ADD MLOAD SWAP1 DUP3 DUP3 GT PUSH3 0x3A5 JUMPI PUSH3 0x6E SWAP2 DUP6 ADD PUSH3 0x3D0 JUMP JUMPDEST SWAP4 PUSH3 0x7D PUSH1 0x40 DUP6 ADD PUSH3 0x442 JUMP JUMPDEST SWAP2 PUSH3 0x91 PUSH1 0x80 PUSH1 0x60 DUP8 ADD MLOAD SWAP7 ADD PUSH3 0x442 JUMP JUMPDEST SWAP6 DUP3 MLOAD DUP3 DUP2 GT PUSH3 0x2A5 JUMPI PUSH1 0x3 SWAP2 DUP3 SLOAD SWAP2 PUSH1 0x1 SWAP6 DUP7 DUP5 DUP2 SHR SWAP5 AND DUP1 ISZERO PUSH3 0x39A JUMPI JUMPDEST DUP10 DUP6 LT EQ PUSH3 0x384 JUMPI DUP2 SWAP1 PUSH1 0x1F SWAP5 DUP6 DUP2 GT PUSH3 0x32E JUMPI JUMPDEST POP DUP10 SWAP1 DUP6 DUP4 GT PUSH1 0x1 EQ PUSH3 0x2C7 JUMPI PUSH1 0x0 SWAP3 PUSH3 0x2BB JUMPI JUMPDEST POP POP PUSH1 0x0 NOT DUP3 DUP7 SHL SHR NOT AND SWAP1 DUP7 SHL OR DUP4 SSTORE JUMPDEST DUP1 MLOAD SWAP4 DUP5 GT PUSH3 0x2A5 JUMPI PUSH1 0x4 SWAP7 DUP8 SLOAD DUP7 DUP2 DUP2 SHR SWAP2 AND DUP1 ISZERO PUSH3 0x29A JUMPI JUMPDEST DUP3 DUP3 LT EQ PUSH3 0x285 JUMPI DUP4 DUP2 GT PUSH3 0x23A JUMPI JUMPDEST POP DUP1 SWAP3 DUP6 GT PUSH1 0x1 EQ PUSH3 0x1CC JUMPI POP SWAP4 DUP4 SWAP5 SWAP2 DUP5 SWAP3 PUSH1 0x0 SWAP6 PUSH3 0x1C0 JUMPI JUMPDEST POP POP SHL SWAP3 PUSH1 0x0 NOT SWAP2 SHL SHR NOT AND OR DUP3 SSTORE JUMPDEST PUSH1 0x1 PUSH1 0x1 PUSH1 0xA0 SHL SUB AND SWAP1 DUP2 ISZERO PUSH3 0x1B1 JUMPI POP PUSH1 0x80 MSTORE PUSH1 0xA0 MSTORE PUSH1 0xC0 MSTORE PUSH1 0x40 MLOAD PUSH2 0xBD9 SWAP1 DUP2 PUSH3 0x458 DUP3 CODECOPY PUSH1 0x80 MLOAD DUP2 DUP2 DUP2 PUSH2 0x49C ADD MSTORE DUP2 DUP2 PUSH2 0x633 ADD MSTORE PUSH2 0x9B7 ADD MSTORE PUSH1 0xA0 MLOAD DUP2 DUP2 DUP2 PUSH2 0x16A ADD MSTORE PUSH2 0x416 ADD MSTORE PUSH1 0xC0 MLOAD DUP2 DUP2 DUP2 PUSH2 0x5DA ADD MSTORE PUSH2 0x7D4 ADD MSTORE RETURN JUMPDEST PUSH1 0x40 MLOAD PUSH4 0x29456045 PUSH1 0xE1 SHL DUP2 MSTORE REVERT JUMPDEST ADD MLOAD SWAP4 POP CODESIZE DUP1 PUSH3 0x13F JUMP JUMPDEST SWAP3 SWAP2 SWAP1 DUP5 PUSH1 0x1F NOT DUP2 AND DUP10 PUSH1 0x0 MSTORE DUP6 PUSH1 0x0 KECCAK256 SWAP6 PUSH1 0x0 SWAP1 JUMPDEST DUP10 DUP4 DUP4 LT PUSH3 0x21F JUMPI POP POP POP LT PUSH3 0x204 JUMPI JUMPDEST POP POP POP POP DUP2 SHL ADD DUP3 SSTORE PUSH3 0x14F JUMP JUMPDEST ADD MLOAD SWAP1 PUSH1 0xF8 DUP5 PUSH1 0x0 NOT SWAP3 SHL AND SHR NOT AND SWAP1 SSTORE CODESIZE DUP1 DUP1 DUP1 PUSH3 0x1F5 JUMP JUMPDEST DUP6 DUP8 ADD MLOAD DUP10 SSTORE SWAP1 SWAP8 ADD SWAP7 SWAP5 DUP6 ADD SWAP5 DUP9 SWAP4 POP SWAP1 DUP2 ADD SWAP1 PUSH3 0x1E2 JUMP JUMPDEST DUP9 PUSH1 0x0 MSTORE DUP2 PUSH1 0x0 KECCAK256 DUP5 DUP1 DUP9 ADD PUSH1 0x5 SHR DUP3 ADD SWAP3 DUP5 DUP10 LT PUSH3 0x27B JUMPI JUMPDEST ADD PUSH1 0x5 SHR ADD SWAP1 DUP8 SWAP1 JUMPDEST DUP3 DUP2 LT PUSH3 0x26E JUMPI POP POP PUSH3 0x122 JUMP JUMPDEST PUSH1 0x0 DUP2 SSTORE ADD DUP8 SWAP1 PUSH3 0x25E JUMP JUMPDEST SWAP3 POP DUP2 SWAP3 PUSH3 0x255 JUMP JUMPDEST PUSH1 0x22 DUP10 PUSH4 0x4E487B71 PUSH1 0xE0 SHL PUSH1 0x0 MSTORE MSTORE PUSH1 0x24 PUSH1 0x0 REVERT JUMPDEST SWAP1 PUSH1 0x7F AND SWAP1 PUSH3 0x110 JUMP JUMPDEST PUSH4 0x4E487B71 PUSH1 0xE0 SHL PUSH1 0x0 MSTORE PUSH1 0x41 PUSH1 0x4 MSTORE PUSH1 0x24 PUSH1 0x0 REVERT JUMPDEST ADD MLOAD SWAP1 POP CODESIZE DUP1 PUSH3 0xE1 JUMP JUMPDEST SWAP1 DUP9 SWAP4 POP PUSH1 0x1F NOT DUP4 AND SWAP2 DUP8 PUSH1 0x0 MSTORE DUP12 PUSH1 0x0 KECCAK256 SWAP3 PUSH1 0x0 JUMPDEST DUP14 DUP3 DUP3 LT PUSH3 0x317 JUMPI POP POP DUP5 GT PUSH3 0x2FE JUMPI JUMPDEST POP POP POP DUP2 SHL ADD DUP4 SSTORE PUSH3 0xF3 JUMP JUMPDEST ADD MLOAD PUSH1 0x0 NOT DUP4 DUP9 SHL PUSH1 0xF8 AND SHR NOT AND SWAP1 SSTORE CODESIZE DUP1 DUP1 PUSH3 0x2F0 JUMP JUMPDEST DUP4 DUP6 ADD MLOAD DUP7 SSTORE DUP13 SWAP8 SWAP1 SWAP6 ADD SWAP5 SWAP4 DUP5 ADD SWAP4 ADD PUSH3 0x2DD JUMP JUMPDEST SWAP1 SWAP2 POP DUP6 PUSH1 0x0 MSTORE DUP10 PUSH1 0x0 KECCAK256 DUP6 DUP1 DUP6 ADD PUSH1 0x5 SHR DUP3 ADD SWAP3 DUP13 DUP7 LT PUSH3 0x37A JUMPI JUMPDEST SWAP2 DUP11 SWAP2 DUP7 SWAP6 SWAP5 SWAP4 ADD PUSH1 0x5 SHR ADD SWAP2 JUMPDEST DUP3 DUP2 LT PUSH3 0x36A JUMPI POP POP PUSH3 0xCA JUMP JUMPDEST PUSH1 0x0 DUP2 SSTORE DUP6 SWAP5 POP DUP11 SWAP2 ADD PUSH3 0x35A JUMP JUMPDEST SWAP3 POP DUP2 SWAP3 PUSH3 0x34C JUMP JUMPDEST PUSH4 0x4E487B71 PUSH1 0xE0 SHL PUSH1 0x0 MSTORE PUSH1 0x22 PUSH1 0x4 MSTORE PUSH1 0x24 PUSH1 0x0 REVERT JUMPDEST SWAP4 PUSH1 0x7F AND SWAP4 PUSH3 0xB3 JUMP JUMPDEST PUSH1 0x0 DUP1 REVERT JUMPDEST PUSH1 0x40 MLOAD SWAP2 SWAP1 PUSH1 0x1F ADD PUSH1 0x1F NOT AND DUP3 ADD PUSH1 0x1 PUSH1 0x1 PUSH1 0x40 SHL SUB DUP2 GT DUP4 DUP3 LT OR PUSH3 0x2A5 JUMPI PUSH1 0x40 MSTORE JUMP JUMPDEST SWAP2 SWAP1 DUP1 PUSH1 0x1F DUP5 ADD SLT ISZERO PUSH3 0x3A5 JUMPI DUP3 MLOAD PUSH1 0x1 PUSH1 0x1 PUSH1 0x40 SHL SUB DUP2 GT PUSH3 0x2A5 JUMPI PUSH1 0x20 SWAP1 PUSH3 0x406 PUSH1 0x1F DUP3 ADD PUSH1 0x1F NOT AND DUP4 ADD PUSH3 0x3AA JUMP JUMPDEST SWAP3 DUP2 DUP5 MSTORE DUP3 DUP3 DUP8 ADD ADD GT PUSH3 0x3A5 JUMPI PUSH1 0x0 JUMPDEST DUP2 DUP2 LT PUSH3 0x42E JUMPI POP DUP3 PUSH1 0x0 SWAP4 SWAP5 SWAP6 POP ADD ADD MSTORE SWAP1 JUMP JUMPDEST DUP6 DUP2 ADD DUP4 ADD MLOAD DUP5 DUP3 ADD DUP5 ADD MSTORE DUP3 ADD PUSH3 0x418 JUMP JUMPDEST MLOAD SWAP1 PUSH1 0x1 PUSH1 0x1 PUSH1 0xA0 SHL SUB DUP3 AND DUP3 SUB PUSH3 0x3A5 JUMPI JUMP INVALID PUSH1 0x80 PUSH1 0x40 DUP2 DUP2 MSTORE PUSH1 0x4 SWAP2 DUP3 CALLDATASIZE LT ISZERO PUSH2 0x16 JUMPI PUSH1 0x0 DUP1 REVERT JUMPDEST PUSH1 0x0 SWAP3 DUP4 CALLDATALOAD PUSH1 0xE0 SHR SWAP2 DUP3 PUSH3 0xE77AA6 EQ PUSH2 0x9A3 JUMPI POP DUP2 PUSH4 0x6FDDE03 EQ PUSH2 0x8CC JUMPI DUP2 PUSH4 0x95EA7B3 EQ PUSH2 0x822 JUMPI DUP2 PUSH4 0x18160DDD EQ PUSH2 0x803 JUMPI DUP2 PUSH4 0x1A4F94F7 EQ PUSH2 0x7BF JUMPI DUP2 PUSH4 0x1C60D886 EQ PUSH2 0x5B1 JUMPI DUP2 PUSH4 0x23B872DD EQ PUSH2 0x58C JUMPI DUP2 PUSH4 0x313CE567 EQ PUSH2 0x570 JUMPI DUP2 PUSH4 0x42966C68 EQ PUSH2 0x552 JUMPI DUP2 PUSH4 0x464F0B0D EQ PUSH2 0x401 JUMPI DUP2 PUSH4 0x6F7BC9BE EQ PUSH2 0x3BA JUMPI DUP2 PUSH4 0x70A08231 EQ PUSH2 0x383 JUMPI DUP2 PUSH4 0x79CC6790 EQ PUSH2 0x29F JUMPI DUP2 PUSH4 0x95D89B41 EQ PUSH2 0x1B9 JUMPI DUP2 PUSH4 0xA9059CBB EQ PUSH2 0x18D JUMPI POP DUP1 PUSH4 0xD59624B4 EQ PUSH2 0x153 JUMPI DUP1 PUSH4 0xDD62ED3E EQ PUSH2 0x10B JUMPI PUSH4 0xF9168231 EQ PUSH2 0xEA JUMPI PUSH1 0x0 DUP1 REVERT JUMPDEST CALLVALUE PUSH2 0x107 JUMPI DUP2 PUSH1 0x3 NOT CALLDATASIZE ADD SLT PUSH2 0x107 JUMPI PUSH1 0x20 SWAP1 PUSH1 0x5 SLOAD SWAP1 MLOAD SWAP1 DUP2 MSTORE RETURN JUMPDEST POP DUP1 REVERT JUMPDEST POP CALLVALUE PUSH2 0x107 JUMPI DUP1 PUSH1 0x3 NOT CALLDATASIZE ADD SLT PUSH2 0x107 JUMPI DUP1 PUSH1 0x20 SWAP3 PUSH2 0x128 PUSH2 0xA2F JUMP JUMPDEST PUSH2 0x130 PUSH2 0xA4A JUMP JUMPDEST PUSH1 0x1 PUSH1 0x1 PUSH1 0xA0 SHL SUB SWAP2 DUP3 AND DUP4 MSTORE PUSH1 0x1 DUP7 MSTORE DUP4 DUP4 KECCAK256 SWAP2 AND DUP3 MSTORE DUP5 MSTORE KECCAK256 SLOAD SWAP1 MLOAD SWAP1 DUP2 MSTORE RETURN JUMPDEST POP CALLVALUE PUSH2 0x107 JUMPI DUP2 PUSH1 0x3 NOT CALLDATASIZE ADD SLT PUSH2 0x107 JUMPI PUSH1 0x20 SWAP1 MLOAD PUSH32 0x0 DUP2 MSTORE RETURN JUMPDEST DUP3 DUP5 CALLVALUE PUSH2 0x1B6 JUMPI DUP2 PUSH1 0x3 NOT CALLDATASIZE ADD SLT PUSH2 0x1B6 JUMPI POP PUSH2 0x1A8 PUSH2 0xA2F JUMP JUMPDEST POP MLOAD PUSH4 0x1DE81C7B PUSH1 0xE0 SHL DUP2 MSTORE REVERT JUMPDEST DUP1 REVERT JUMPDEST DUP4 DUP4 CALLVALUE PUSH2 0x107 JUMPI DUP2 PUSH1 0x3 NOT CALLDATASIZE ADD SLT PUSH2 0x107 JUMPI DUP1 MLOAD SWAP2 DUP1 SWAP4 DUP1 SLOAD SWAP2 PUSH1 0x1 SWAP1 DUP4 DUP3 SHR SWAP3 DUP3 DUP6 AND SWAP5 DUP6 ISZERO PUSH2 0x295 JUMPI JUMPDEST PUSH1 0x20 SWAP6 DUP7 DUP7 LT DUP2 EQ PUSH2 0x282 JUMPI DUP6 DUP10 MSTORE SWAP1 DUP2 ISZERO PUSH2 0x25E JUMPI POP PUSH1 0x1 EQ PUSH2 0x223 JUMPI JUMPDEST PUSH2 0x21F DUP8 DUP8 PUSH2 0x215 DUP3 DUP13 SUB DUP4 PUSH2 0xA60 JUMP JUMPDEST MLOAD SWAP2 DUP3 SWAP2 DUP3 PUSH2 0x9E6 JUMP JUMPDEST SUB SWAP1 RETURN JUMPDEST SWAP1 DUP1 SWAP5 SWAP8 POP MSTORE DUP6 DUP4 KECCAK256 JUMPDEST DUP3 DUP5 LT PUSH2 0x24B JUMPI POP POP POP DUP3 PUSH2 0x21F SWAP5 PUSH2 0x215 SWAP3 DUP3 ADD ADD SWAP5 DUP7 DUP1 PUSH2 0x204 JUMP JUMPDEST DUP1 SLOAD DUP7 DUP6 ADD DUP9 ADD MSTORE SWAP3 DUP7 ADD SWAP3 DUP2 ADD PUSH2 0x22D JUMP JUMPDEST PUSH1 0xFF NOT AND DUP9 DUP8 ADD MSTORE POP POP POP POP ISZERO ISZERO PUSH1 0x5 SHL DUP4 ADD ADD SWAP3 POP PUSH2 0x215 DUP3 PUSH2 0x21F DUP7 DUP1 PUSH2 0x204 JUMP JUMPDEST PUSH4 0x4E487B71 PUSH1 0xE0 SHL DUP5 MSTORE PUSH1 0x22 DUP4 MSTORE PUSH1 0x24 DUP5 REVERT JUMPDEST SWAP4 PUSH1 0x7F AND SWAP4 PUSH2 0x1E5 JUMP JUMPDEST DUP4 SWAP2 POP CALLVALUE PUSH2 0x107 JUMPI DUP3 PUSH1 0x3 NOT CALLDATASIZE ADD SLT PUSH2 0x107 JUMPI PUSH2 0x2BA PUSH2 0xA2F JUMP JUMPDEST PUSH1 0x1 PUSH1 0x1 PUSH1 0xA0 SHL SUB DUP2 AND DUP1 DUP5 MSTORE PUSH1 0x1 PUSH1 0x20 SWAP1 DUP2 MSTORE DUP6 DUP6 KECCAK256 CALLER DUP7 MSTORE SWAP1 MSTORE DUP5 DUP5 KECCAK256 SLOAD PUSH1 0x24 CALLDATALOAD SWAP4 SWAP1 SWAP2 SWAP1 PUSH1 0x0 NOT DUP4 LT PUSH2 0x2F9 JUMPI JUMPDEST DUP6 PUSH2 0x2F6 DUP7 DUP7 PUSH2 0xA99 JUMP JUMPDEST DUP1 RETURN JUMPDEST DUP5 DUP4 LT PUSH2 0x361 JUMPI DUP2 ISZERO PUSH2 0x34A JUMPI CALLER ISZERO PUSH2 0x333 JUMPI POP DUP5 SWAP6 SWAP2 DUP5 SWAP2 PUSH2 0x2F6 SWAP7 MSTORE PUSH1 0x1 PUSH1 0x20 MSTORE DUP3 DUP8 KECCAK256 CALLER DUP9 MSTORE PUSH1 0x20 MSTORE SUB SWAP1 DUP6 KECCAK256 SSTORE DUP4 SWAP3 DUP6 DUP1 PUSH2 0x2EB JUMP JUMPDEST DUP7 MLOAD PUSH4 0x4A1406B1 PUSH1 0xE1 SHL DUP2 MSTORE SWAP1 DUP2 ADD DUP7 SWAP1 MSTORE PUSH1 0x24 SWAP1 REVERT JUMPDEST DUP7 MLOAD PUSH4 0xE602DF05 PUSH1 0xE0 SHL DUP2 MSTORE SWAP1 DUP2 ADD DUP7 SWAP1 MSTORE PUSH1 0x24 SWAP1 REVERT JUMPDEST SWAP1 POP PUSH2 0x37F DUP5 DUP8 MLOAD SWAP4 DUP5 SWAP4 PUSH4 0x7DC7A0D9 PUSH1 0xE1 SHL DUP6 MSTORE CALLER SWAP1 DUP6 ADD PUSH2 0xB2A JUMP JUMPDEST SUB SWAP1 REVERT JUMPDEST POP POP CALLVALUE PUSH2 0x107 JUMPI PUSH1 0x20 CALLDATASIZE PUSH1 0x3 NOT ADD SLT PUSH2 0x107 JUMPI PUSH1 0x20 SWAP2 DUP2 SWAP1 PUSH1 0x1 PUSH1 0x1 PUSH1 0xA0 SHL SUB PUSH2 0x3AB PUSH2 0xA2F JUMP JUMPDEST AND DUP2 MSTORE DUP1 DUP5 MSTORE KECCAK256 SLOAD SWAP1 MLOAD SWAP1 DUP2 MSTORE RETURN JUMPDEST POP POP CALLVALUE PUSH2 0x107 JUMPI PUSH1 0x20 CALLDATASIZE PUSH1 0x3 NOT ADD SLT PUSH2 0x107 JUMPI SWAP1 DUP2 SWAP1 PUSH1 0x1 PUSH1 0x1 PUSH1 0xA0 SHL SUB PUSH2 0x3E0 PUSH2 0xA2F JUMP JUMPDEST AND DUP2 MSTORE PUSH1 0x6 PUSH1 0x20 MSTORE KECCAK256 PUSH1 0xFF PUSH1 0x1 DUP3 SLOAD SWAP3 ADD SLOAD AND DUP3 MLOAD SWAP2 DUP3 MSTORE ISZERO ISZERO PUSH1 0x20 DUP3 ADD MSTORE RETURN JUMPDEST SWAP2 SWAP1 POP CALLVALUE PUSH2 0x54E JUMPI DUP3 PUSH1 0x3 NOT CALLDATASIZE ADD SLT PUSH2 0x54E JUMPI PUSH32 0x0 TIMESTAMP LT PUSH2 0x541 JUMPI CALLER DUP4 MSTORE PUSH1 0x6 PUSH1 0x20 MSTORE DUP1 DUP4 KECCAK256 PUSH1 0x1 DUP2 ADD PUSH1 0xFF DUP2 SLOAD AND PUSH2 0x532 JUMPI DUP2 SLOAD ISZERO PUSH2 0x523 JUMPI CALLER DUP6 MSTORE DUP5 PUSH1 0x20 MSTORE PUSH2 0x46E DUP4 DUP7 KECCAK256 SLOAD CALLER PUSH2 0xA99 JUMP JUMPDEST DUP1 SLOAD PUSH1 0xFF NOT AND PUSH1 0x1 OR SWAP1 SSTORE SLOAD DUP2 MLOAD PUSH4 0xA9059CBB PUSH1 0xE0 SHL DUP2 MSTORE CALLER DUP5 DUP3 ADD MSTORE PUSH1 0x24 DUP2 ADD SWAP2 SWAP1 SWAP2 MSTORE PUSH1 0x20 DUP2 PUSH1 0x44 DUP2 DUP8 PUSH32 0x0 PUSH1 0x1 PUSH1 0x1 PUSH1 0xA0 SHL SUB AND GAS CALL SWAP1 DUP2 ISZERO PUSH2 0x519 JUMPI DUP5 SWAP2 PUSH2 0x4EB JUMPI JUMPDEST POP ISZERO PUSH2 0x4DE JUMPI DUP3 DUP1 RETURN JUMPDEST MLOAD PUSH4 0x22E2581 PUSH1 0xE1 SHL DUP2 MSTORE REVERT JUMPDEST PUSH2 0x50C SWAP2 POP PUSH1 0x20 RETURNDATASIZE DUP2 GT PUSH2 0x512 JUMPI JUMPDEST PUSH2 0x504 DUP2 DUP4 PUSH2 0xA60 JUMP JUMPDEST DUP2 ADD SWAP1 PUSH2 0xB6B JUMP JUMPDEST CODESIZE PUSH2 0x4D4 JUMP JUMPDEST POP RETURNDATASIZE PUSH2 0x4FA JUMP JUMPDEST DUP3 MLOAD RETURNDATASIZE DUP7 DUP3 RETURNDATACOPY RETURNDATASIZE SWAP1 REVERT JUMPDEST POP POP MLOAD PUSH4 0x3A6A68B1 PUSH1 0xE0 SHL DUP2 MSTORE REVERT JUMPDEST POP POP MLOAD PUSH4 0xC8D9EAB PUSH1 0xE3 SHL DUP2 MSTORE REVERT JUMPDEST MLOAD PUSH4 0x111C4409 PUSH1 0xE0 SHL DUP2 MSTORE REVERT JUMPDEST DUP3 DUP1 REVERT JUMPDEST DUP4 SWAP1 CALLVALUE PUSH2 0x107 JUMPI PUSH1 0x20 CALLDATASIZE PUSH1 0x3 NOT ADD SLT PUSH2 0x107 JUMPI PUSH2 0x2F6 SWAP1 CALLDATALOAD CALLER PUSH2 0xA99 JUMP JUMPDEST POP POP CALLVALUE PUSH2 0x107 JUMPI DUP2 PUSH1 0x3 NOT CALLDATASIZE ADD SLT PUSH2 0x107 JUMPI PUSH1 0x20 SWAP1 MLOAD PUSH1 0x12 DUP2 MSTORE RETURN JUMPDEST DUP3 DUP5 CALLVALUE PUSH2 0x1B6 JUMPI PUSH1 0x60 CALLDATASIZE PUSH1 0x3 NOT ADD SLT PUSH2 0x1B6 JUMPI POP PUSH2 0x5A8 PUSH2 0xA2F JUMP JUMPDEST POP PUSH2 0x1A8 PUSH2 0xA4A JUMP JUMPDEST DUP4 DUP4 CALLVALUE PUSH2 0x107 JUMPI DUP1 PUSH1 0x3 NOT CALLDATASIZE ADD SLT PUSH2 0x107 JUMPI PUSH2 0x5CB PUSH2 0xA2F JUMP JUMPDEST PUSH1 0x24 CALLDATALOAD SWAP2 SWAP1 PUSH1 0x1 PUSH1 0x1 PUSH1 0xA0 SHL SUB PUSH32 0x0 DUP2 AND SWAP2 CALLER DUP4 SWAP1 SUB PUSH2 0x770 JUMPI DUP5 ISZERO PUSH2 0x760 JUMPI DUP4 MLOAD SWAP3 PUSH4 0x23B872DD PUSH1 0xE0 SHL DUP5 MSTORE DUP8 DUP5 ADD MSTORE ADDRESS PUSH1 0x24 DUP5 ADD MSTORE DUP5 PUSH1 0x44 DUP5 ADD MSTORE PUSH1 0x20 SWAP3 DUP4 DUP2 PUSH1 0x64 DUP2 DUP11 DUP8 PUSH32 0x0 AND GAS CALL SWAP1 DUP2 ISZERO PUSH2 0x756 JUMPI DUP8 SWAP2 PUSH2 0x739 JUMPI JUMPDEST POP ISZERO PUSH2 0x729 JUMPI AND SWAP2 DUP3 ISZERO PUSH2 0x713 JUMPI PUSH2 0x67D DUP5 PUSH1 0x2 SLOAD PUSH2 0xB48 JUMP JUMPDEST PUSH1 0x2 SSTORE DUP3 DUP6 MSTORE DUP5 DUP3 MSTORE DUP1 DUP6 KECCAK256 DUP5 DUP2 SLOAD ADD SWAP1 SSTORE DUP3 DUP6 PUSH1 0x0 DUP1 MLOAD PUSH1 0x20 PUSH2 0xB84 DUP4 CODECOPY DUP2 MLOAD SWAP2 MSTORE DUP5 DUP5 MLOAD DUP9 DUP2 MSTORE LOG3 DUP1 MLOAD SWAP2 DUP3 DUP3 ADD PUSH1 0x1 PUSH1 0x1 PUSH1 0x40 SHL SUB DUP2 GT DUP5 DUP3 LT OR PUSH2 0x700 JUMPI SWAP2 PUSH1 0x6 PUSH2 0x6FA SWAP7 SWAP6 SWAP5 SWAP3 PUSH1 0x1 SWAP5 DUP4 MSTORE DUP7 DUP5 MSTORE DUP1 DUP5 ADD SWAP6 DUP10 DUP8 MSTORE DUP10 MSTORE MSTORE DUP7 KECCAK256 SWAP1 MLOAD DUP2 SSTORE ADD SWAP1 MLOAD ISZERO ISZERO PUSH1 0xFF DUP1 NOT DUP4 SLOAD AND SWAP2 AND OR SWAP1 SSTORE PUSH1 0x5 SLOAD PUSH2 0xB48 JUMP JUMPDEST PUSH1 0x5 SSTORE DUP1 RETURN JUMPDEST PUSH4 0x4E487B71 PUSH1 0xE0 SHL DUP8 MSTORE PUSH1 0x41 DUP9 MSTORE PUSH1 0x24 DUP8 REVERT JUMPDEST MLOAD PUSH4 0xEC442F05 PUSH1 0xE0 SHL DUP2 MSTORE DUP1 DUP7 ADD DUP6 SWAP1 MSTORE PUSH1 0x24 SWAP1 REVERT JUMPDEST DUP4 MLOAD PUSH4 0x22E2581 PUSH1 0xE1 SHL DUP2 MSTORE DUP8 SWAP1 REVERT JUMPDEST PUSH2 0x750 SWAP2 POP DUP5 RETURNDATASIZE DUP7 GT PUSH2 0x512 JUMPI PUSH2 0x504 DUP2 DUP4 PUSH2 0xA60 JUMP JUMPDEST DUP9 PUSH2 0x663 JUMP JUMPDEST DUP6 MLOAD RETURNDATASIZE DUP10 DUP3 RETURNDATACOPY RETURNDATASIZE SWAP1 REVERT JUMPDEST DUP4 MLOAD PUSH4 0x162908E3 PUSH1 0xE1 SHL DUP2 MSTORE DUP8 SWAP1 REVERT JUMPDEST DUP4 MLOAD PUSH3 0x461BCD PUSH1 0xE5 SHL DUP2 MSTORE PUSH1 0x20 DUP2 DUP10 ADD MSTORE PUSH1 0x23 PUSH1 0x24 DUP3 ADD MSTORE PUSH32 0x43616C6C6572206973206E6F7420746865206F66666572696E6720636F6E7472 PUSH1 0x44 DUP3 ADD MSTORE PUSH3 0x1858DD PUSH1 0xEA SHL PUSH1 0x64 DUP3 ADD MSTORE PUSH1 0x84 SWAP1 REVERT JUMPDEST POP POP CALLVALUE PUSH2 0x107 JUMPI DUP2 PUSH1 0x3 NOT CALLDATASIZE ADD SLT PUSH2 0x107 JUMPI MLOAD PUSH32 0x0 PUSH1 0x1 PUSH1 0x1 PUSH1 0xA0 SHL SUB AND DUP2 MSTORE PUSH1 0x20 SWAP1 RETURN JUMPDEST POP POP CALLVALUE PUSH2 0x107 JUMPI DUP2 PUSH1 0x3 NOT CALLDATASIZE ADD SLT PUSH2 0x107 JUMPI PUSH1 0x20 SWAP1 PUSH1 0x2 SLOAD SWAP1 MLOAD SWAP1 DUP2 MSTORE RETURN JUMPDEST SWAP1 POP CALLVALUE PUSH2 0x54E JUMPI DUP2 PUSH1 0x3 NOT CALLDATASIZE ADD SLT PUSH2 0x54E JUMPI PUSH2 0x83C PUSH2 0xA2F JUMP JUMPDEST PUSH1 0x24 CALLDATALOAD SWAP1 CALLER ISZERO PUSH2 0x8B5 JUMPI PUSH1 0x1 PUSH1 0x1 PUSH1 0xA0 SHL SUB AND SWAP2 DUP3 ISZERO PUSH2 0x89E JUMPI POP DUP1 DUP4 PUSH1 0x20 SWAP6 CALLER DUP2 MSTORE PUSH1 0x1 DUP8 MSTORE DUP2 DUP2 KECCAK256 DUP6 DUP3 MSTORE DUP8 MSTORE KECCAK256 SSTORE DUP3 MLOAD SWAP1 DUP2 MSTORE PUSH32 0x8C5BE1E5EBEC7D5BD14F71427D1E84F3DD0314C0F7B2291E5B200AC8C7C3B925 DUP5 CALLER SWAP3 LOG3 MLOAD PUSH1 0x1 DUP2 MSTORE RETURN JUMPDEST DUP4 MLOAD PUSH4 0x4A1406B1 PUSH1 0xE1 SHL DUP2 MSTORE SWAP1 DUP2 ADD DUP6 SWAP1 MSTORE PUSH1 0x24 SWAP1 REVERT JUMPDEST DUP4 MLOAD PUSH4 0xE602DF05 PUSH1 0xE0 SHL DUP2 MSTORE DUP1 DUP5 ADD DUP7 SWAP1 MSTORE PUSH1 0x24 SWAP1 REVERT JUMPDEST SWAP2 SWAP1 POP CALLVALUE PUSH2 0x54E JUMPI DUP3 PUSH1 0x3 NOT CALLDATASIZE ADD SLT PUSH2 0x54E JUMPI DUP1 MLOAD SWAP2 DUP4 PUSH1 0x3 SLOAD SWAP1 PUSH1 0x1 SWAP1 DUP3 DUP3 SHR SWAP3 DUP3 DUP2 AND DUP1 ISZERO PUSH2 0x999 JUMPI JUMPDEST PUSH1 0x20 SWAP6 DUP7 DUP7 LT DUP3 EQ PUSH2 0x986 JUMPI POP DUP5 DUP9 MSTORE SWAP1 DUP2 ISZERO PUSH2 0x964 JUMPI POP PUSH1 0x1 EQ PUSH2 0x929 JUMPI JUMPDEST PUSH2 0x21F DUP7 DUP7 PUSH2 0x215 DUP3 DUP12 SUB DUP4 PUSH2 0xA60 JUMP JUMPDEST SWAP3 SWAP6 POP PUSH1 0x3 DUP4 MSTORE DUP6 DUP4 KECCAK256 JUMPDEST DUP3 DUP5 LT PUSH2 0x951 JUMPI POP POP POP DUP3 PUSH2 0x21F SWAP5 PUSH2 0x215 SWAP3 DUP3 ADD ADD SWAP5 CODESIZE PUSH2 0x918 JUMP JUMPDEST DUP1 SLOAD DUP7 DUP6 ADD DUP9 ADD MSTORE SWAP3 DUP7 ADD SWAP3 DUP2 ADD PUSH2 0x934 JUMP JUMPDEST PUSH1 0xFF NOT AND DUP8 DUP7 ADD MSTORE POP POP POP ISZERO ISZERO PUSH1 0x5 SHL DUP4 ADD ADD SWAP3 POP PUSH2 0x215 DUP3 PUSH2 0x21F CODESIZE PUSH2 0x918 JUMP JUMPDEST PUSH4 0x4E487B71 PUSH1 0xE0 SHL DUP5 MSTORE PUSH1 0x22 SWAP1 MSTORE PUSH1 0x24 DUP4 REVERT JUMPDEST SWAP4 PUSH1 0x7F AND SWAP4 PUSH2 0x8F8 JUMP JUMPDEST DUP5 SWAP1 CALLVALUE PUSH2 0x107 JUMPI DUP2 PUSH1 0x3 NOT CALLDATASIZE ADD SLT PUSH2 0x107 JUMPI PUSH32 0x0 PUSH1 0x1 PUSH1 0x1 PUSH1 0xA0 SHL SUB AND DUP2 MSTORE PUSH1 0x20 SWAP1 RETURN JUMPDEST PUSH1 0x20 DUP1 DUP3 MSTORE DUP3 MLOAD DUP2 DUP4 ADD DUP2 SWAP1 MSTORE SWAP1 SWAP4 SWAP3 PUSH1 0x0 JUMPDEST DUP3 DUP2 LT PUSH2 0xA1B JUMPI POP POP PUSH1 0x40 SWAP3 SWAP4 POP PUSH1 0x0 DUP4 DUP3 DUP5 ADD ADD MSTORE PUSH1 0x1F DUP1 NOT SWAP2 ADD AND ADD ADD SWAP1 JUMP JUMPDEST DUP2 DUP2 ADD DUP7 ADD MLOAD DUP5 DUP3 ADD PUSH1 0x40 ADD MSTORE DUP6 ADD PUSH2 0x9F9 JUMP JUMPDEST PUSH1 0x4 CALLDATALOAD SWAP1 PUSH1 0x1 PUSH1 0x1 PUSH1 0xA0 SHL SUB DUP3 AND DUP3 SUB PUSH2 0xA45 JUMPI JUMP JUMPDEST PUSH1 0x0 DUP1 REVERT JUMPDEST PUSH1 0x24 CALLDATALOAD SWAP1 PUSH1 0x1 PUSH1 0x1 PUSH1 0xA0 SHL SUB DUP3 AND DUP3 SUB PUSH2 0xA45 JUMPI JUMP JUMPDEST PUSH1 0x1F SWAP1 SWAP2 ADD PUSH1 0x1F NOT AND DUP2 ADD SWAP1 PUSH1 0x1 PUSH1 0x1 PUSH1 0x40 SHL SUB DUP3 GT SWAP1 DUP3 LT OR PUSH2 0xA83 JUMPI PUSH1 0x40 MSTORE JUMP JUMPDEST PUSH4 0x4E487B71 PUSH1 0xE0 SHL PUSH1 0x0 MSTORE PUSH1 0x41 PUSH1 0x4 MSTORE PUSH1 0x24 PUSH1 0x0 REVERT JUMPDEST SWAP1 PUSH1 0x1 PUSH1 0x1 PUSH1 0xA0 SHL SUB DUP3 AND SWAP1 DUP2 ISZERO PUSH2 0xB11 JUMPI PUSH1 0x0 SWAP3 DUP3 DUP5 MSTORE DUP4 PUSH1 0x20 MSTORE PUSH1 0x40 DUP5 KECCAK256 SLOAD SWAP1 DUP3 DUP3 LT PUSH2 0xAF4 JUMPI POP DUP2 PUSH1 0x0 DUP1 MLOAD PUSH1 0x20 PUSH2 0xB84 DUP4 CODECOPY DUP2 MLOAD SWAP2 MSTORE SWAP3 PUSH1 0x20 SWAP3 DUP6 DUP8 MSTORE DUP7 DUP5 MSTORE SUB PUSH1 0x40 DUP7 KECCAK256 SSTORE DUP1 PUSH1 0x2 SLOAD SUB PUSH1 0x2 SSTORE PUSH1 0x40 MLOAD SWAP1 DUP2 MSTORE LOG3 JUMP JUMPDEST PUSH2 0x37F DUP4 PUSH1 0x40 MLOAD SWAP4 DUP5 SWAP4 PUSH4 0x391434E3 PUSH1 0xE2 SHL DUP6 MSTORE PUSH1 0x4 DUP6 ADD PUSH2 0xB2A JUMP JUMPDEST PUSH1 0x40 MLOAD PUSH4 0x4B637E8F PUSH1 0xE1 SHL DUP2 MSTORE PUSH1 0x0 PUSH1 0x4 DUP3 ADD MSTORE PUSH1 0x24 SWAP1 REVERT JUMPDEST PUSH1 0x40 SWAP2 SWAP5 SWAP4 SWAP3 PUSH1 0x60 DUP3 ADD SWAP6 PUSH1 0x1 DUP1 PUSH1 0xA0 SHL SUB AND DUP3 MSTORE PUSH1 0x20 DUP3 ADD MSTORE ADD MSTORE JUMP JUMPDEST SWAP2 SWAP1 DUP3 ADD DUP1 SWAP3 GT PUSH2 0xB55 JUMPI JUMP JUMPDEST PUSH4 0x4E487B71 PUSH1 0xE0 SHL PUSH1 0x0 MSTORE PUSH1 0x11 PUSH1 0x4 MSTORE PUSH1 0x24 PUSH1 0x0 REVERT JUMPDEST SWAP1 DUP2 PUSH1 0x20 SWAP2 SUB SLT PUSH2 0xA45 JUMPI MLOAD DUP1 ISZERO ISZERO DUP2 SUB PUSH2 0xA45 JUMPI SWAP1 JUMP INVALID 0xDD CALLCODE MSTORE 0xAD SHL 0xE2 0xC8 SWAP12 PUSH10 0xC2B068FC378DAA952BA7 CALL PUSH4 0xC4A11628 CREATE2 GAS 0x4D CREATE2 0x23 0xB3 0xEF LOG2 PUSH5 0x6970667358 0x22 SLT KECCAK256 PUSH19 0xAFF8AC0870E1AD92423DE4F8B5732447AFE3F3 0xA5 0xDD 0xB5 BALANCE 0xC3 SWAP13 0xB8 0xBF 0xF7 0xD 0xB2 PUSH8 0x64736F6C63430008 EQ STOP CALLER "},"methodIdentifiers":{"allowance(address,address)":"dd62ed3e","approve(address,uint256)":"095ea7b3","balanceOf(address)":"70a08231","burn(uint256)":"42966c68","burnFrom(address,uint256)":"79cc6790","claimFinalTokens()":"464f0b0d","decimals()":"313ce567","investors(address)":"6f7bc9be","maturityDate()":"d59624b4","name()":"06fdde03","offeringContract()":"1a4f94f7","peggedToken()":"00e77aa6","registerInvestment(address,uint256)":"1c60d886","symbol()":"95d89b41","totalEscrowed()":"f9168231","totalSupply()":"18160ddd","transfer(address,uint256)":"a9059cbb","transferFrom(address,address,uint256)":"23b872dd"}}}}}