{"contracts/Escrow.sol":{"Escrow":{"abi":[{"inputs":[{"internalType":"address","name":"_owner","type":"address"},{"internalType":"address","name":"_offeringContract","type":"address"}],"stateMutability":"nonpayable","type":"constructor"},{"inputs":[{"internalType":"address","name":"owner","type":"address"}],"name":"OwnableInvalidOwner","type":"error"},{"inputs":[{"internalType":"address","name":"account","type":"address"}],"name":"OwnableUnauthorizedAccount","type":"error"},{"inputs":[],"name":"ReentrancyGuardReentrantCall","type":"error"},{"anonymous":false,"inputs":[{"indexed":true,"internalType":"address","name":"investor","type":"address"},{"indexed":true,"internalType":"address","name":"token","type":"address"},{"indexed":false,"internalType":"uint256","name":"amount","type":"uint256"}],"name":"Deposited","type":"event"},{"anonymous":false,"inputs":[{"indexed":true,"internalType":"address","name":"previousOwner","type":"address"},{"indexed":true,"internalType":"address","name":"newOwner","type":"address"}],"name":"OwnershipTransferred","type":"event"},{"anonymous":false,"inputs":[{"indexed":true,"internalType":"address","name":"investor","type":"address"},{"indexed":true,"internalType":"address","name":"token","type":"address"},{"indexed":false,"internalType":"uint256","name":"amount","type":"uint256"}],"name":"Refunded","type":"event"},{"anonymous":false,"inputs":[],"name":"RefundsEnabled","type":"event"},{"anonymous":false,"inputs":[{"indexed":true,"internalType":"address","name":"token","type":"address"},{"indexed":false,"internalType":"uint256","name":"amount","type":"uint256"},{"indexed":true,"internalType":"address","name":"to","type":"address"}],"name":"Withdrawn","type":"event"},{"inputs":[],"name":"depositNative","outputs":[],"stateMutability":"payable","type":"function"},{"inputs":[{"internalType":"address","name":"tokenAddr","type":"address"},{"internalType":"uint256","name":"amount","type":"uint256"}],"name":"depositToken","outputs":[],"stateMutability":"nonpayable","type":"function"},{"inputs":[{"internalType":"address","name":"","type":"address"}],"name":"deposits","outputs":[{"internalType":"uint256","name":"amount","type":"uint256"},{"internalType":"address","name":"token","type":"address"}],"stateMutability":"view","type":"function"},{"inputs":[],"name":"enableRefunds","outputs":[],"stateMutability":"nonpayable","type":"function"},{"inputs":[],"name":"offeringContract","outputs":[{"internalType":"address","name":"","type":"address"}],"stateMutability":"view","type":"function"},{"inputs":[],"name":"owner","outputs":[{"internalType":"address","name":"","type":"address"}],"stateMutability":"view","type":"function"},{"inputs":[],"name":"refund","outputs":[],"stateMutability":"nonpayable","type":"function"},{"inputs":[],"name":"refundsEnabled","outputs":[{"internalType":"bool","name":"","type":"bool"}],"stateMutability":"view","type":"function"},{"inputs":[],"name":"renounceOwnership","outputs":[],"stateMutability":"nonpayable","type":"function"},{"inputs":[{"internalType":"address","name":"newOwner","type":"address"}],"name":"transferOwnership","outputs":[],"stateMutability":"nonpayable","type":"function"},{"inputs":[{"internalType":"address","name":"tokenAddr","type":"address"},{"internalType":"uint256","name":"amount","type":"uint256"},{"internalType":"address","name":"to","type":"address"}],"name":"withdraw","outputs":[],"stateMutability":"nonpayable","type":"function"}],"evm":{"bytecode":{"linkReferences":{},"object":"60803461012457601f610d0b38819003918201601f19168301916001600160401b0383118484101761012957808492604094855283398101031261012457610052602061004b8361013f565b920161013f565b6001600160a01b039182169190821561010b57600080546001600160a01b0319808216861783559491908416907f8be0079c531659141344cd1fd0a4f28419497f9722a3daafe3b4186f6b6457e09080a360018055169081156100c6576004541617600455604051610bb790816101548239f35b60405162461bcd60e51b815260206004820152601960248201527f496e76616c6964206f66666572696e6720636f6e7472616374000000000000006044820152606490fd5b604051631e4fbdf760e01b815260006004820152602490fd5b600080fd5b634e487b7160e01b600052604160045260246000fd5b51906001600160a01b03821682036101245756fe60806040908082526004908136101561001757600080fd5b600091823560e01c9182631a4f94f71461092a57508163338b5dea146107ac578163532f117914610788578163590e1ae31461054c57816369328dec146102a7578163715018a61461025f5781638c52dc41146102125781638da5cb5b146101e6578163db6b52461461015f578163f2fde38b146100e5575063fc7e286d1461009f57600080fd5b346100e25760203660031901126100e2576001600160a01b03908290826100c461094e565b16815260036020522090600182549201541682519182526020820152f35b80fd5b8391503461015b57602036600319011261015b5761010161094e565b9061010a610969565b6001600160a01b0391821692831561014557505082546001600160a01b031981168317845516600080516020610b428339815191528380a380f35b51631e4fbdf760e01b8152908101849052602490fd5b8280fd5b828085816003193601126101e357610178341515610995565b61018760ff60025416156109d2565b805161019281610a18565b34815260016020820191848352338552600360205283852090518155019060018060a01b0390511660018060a01b031982541617905551348152600080516020610b2283398151915260203392a380f35b50fd5b82843461020e578160031936011261020e57905490516001600160a01b039091168152602090f35b5080fd5b82346100e257806003193601126100e25761022b610969565b600160ff1960025416176002557f599d8e5a83cffb867d051598c4d70e805d59802d8081c1c7d6dffc5b6aca2b898180a180f35b82346100e257806003193601126100e257610278610969565b80546001600160a01b03198116825581906001600160a01b0316600080516020610b428339815191528280a380f35b9050823461015b57606036600319011261015b576102c361094e565b91602491823591604480359460018060a01b0380871697888803610548576102e9610969565b6102f1610a84565b8815610513571695866103a857508447106103755787808080888b5af1610316610ac2565b501561033f57505050600080516020610b62833981519152916020915b51908152a36001805580f35b90601372115512081dda5d1a191c985dc819985a5b1959606a1b926020606496519562461bcd60e51b8752860152840152820152fd5b9060106f092dce6eaccccd2c6d2cadce8408aa8960831b926020606496519562461bcd60e51b8752860152840152820152fd5b84516370a0823160e01b8152308582015260209190828185818c5afa908115610509579088918c916104d4575b501061049e5781876103fa928851938492839263a9059cbb60e01b84528a8401610aa7565b03818d8c5af1908115610494578a91610467575b50156104305750505050600080516020610b6283398151915291602091610333565b74151bdad95b881dda5d1a191c985dc819985a5b1959605a1b9291601591606496519562461bcd60e51b8752860152840152820152fd5b6104879150823d841161048d575b61047f8183610a49565b810190610a6c565b8a61040e565b503d610475565b86513d8c823e3d90fd5b5072496e73756666696369656e7420746f6b656e7360681b9291601391606496519562461bcd60e51b8752860152840152820152fd5b809250848092503d8311610502575b6104ed8183610a49565b810103126104fe578790518c6103d5565b8a80fd5b503d6104e3565b87513d8d823e3d90fd5b855162461bcd60e51b815260208187015260118185015270125b9d985b1a59081c9958da5c1a595b9d607a1b81860152606490fd5b8980fd5b9050823461015b578260031936011261015b57610567610a84565b60ff600254161561074f57338352602060038152600182852083519461058c86610a18565b815491828752838060a01b0393849101541691848701928352156107185784516105b581610a18565b878152836001868301928a8452338b5260038852888b20905181550191511660018060a01b031982541617905586848484511680156000146106675750508080808951335af1610603610ac2565b5015610630575090600080516020610b0283398151915292915b5116935192519283523392a36001805580f35b845162461bcd60e51b81529081018490526011602482015270115512081c99599d5b990819985a5b1959607a1b6044820152606490fd5b610688908951895194858094819363a9059cbb60e01b8352338a8401610aa7565b03925af190811561070e5788916106f1575b50156106b8575090600080516020610b02833981519152929161061d565b845162461bcd60e51b81529081018490526013602482015272151bdad95b881c99599d5b990819985a5b1959606a1b6044820152606490fd5b6107089150853d871161048d5761047f8183610a49565b8861069a565b86513d8a823e3d90fd5b845162461bcd60e51b81529081018490526011602482015270139bdd1a1a5b99c81d1bc81c99599d5b99607a1b6044820152606490fd5b906020606492519162461bcd60e51b835282015260136024820152721499599d5b991cc81b9bdd08195b98589b1959606a1b6044820152fd5b82843461020e578160031936011261020e5760209060ff6002541690519015158152f35b9050823461015b578060031936011261015b576107c761094e565b91602435916107d4610a84565b6001600160a01b039384169384156108f7576107f1841515610995565b61080060ff60025416156109d2565b825482516323b872dd60e01b815290821681850152306024820152604481018590526020939084816064818b8b5af19081156108ed5788916108d0575b501561089b57508151600080516020610b2283398151915293929161086182610a18565b858252600184830192888452338a5260038652848a20905181550191511660018060a01b0319825416179055519283523392a36001805580f35b825162461bcd60e51b8152908101849052600f60248201526e151c985b9cd9995c8819985a5b1959608a1b6044820152606490fd5b6108e79150853d871161048d5761047f8183610a49565b8861083d565b84513d8a823e3d90fd5b815162461bcd60e51b8152602081850152600d60248201526c24b73b30b634b2103a37b5b2b760991b6044820152606490fd5b91503461015b578260031936011261015b57546001600160a01b0316815260209150f35b600435906001600160a01b038216820361096457565b600080fd5b6000546001600160a01b0316330361097d57565b60405163118cdaa760e01b8152336004820152602490fd5b1561099c57565b60405162461bcd60e51b815260206004820152600e60248201526d125b9d985b1a5908185b5bdd5b9d60921b6044820152606490fd5b156109d957565b60405162461bcd60e51b81526020600482015260176024820152761499599d5b991cc8185b1c9958591e48195b98589b1959604a1b6044820152606490fd5b604081019081106001600160401b03821117610a3357604052565b634e487b7160e01b600052604160045260246000fd5b601f909101601f19168101906001600160401b03821190821017610a3357604052565b90816020910312610964575180151581036109645790565b600260015414610a95576002600155565b604051633ee5aeb560e01b8152600490fd5b6001600160a01b039091168152602081019190915260400190565b3d15610afc573d906001600160401b038211610a335760405191610af0601f8201601f191660200184610a49565b82523d6000602084013e565b60609056feec1e5ed733e00f1a00915d56caef57b4f52312dde4f9b3165f213319a0da156b8752a472e571a816aea92eec8dae9baf628e840f4929fbcc2d155e6233ff68a78be0079c531659141344cd1fd0a4f28419497f9722a3daafe3b4186f6b6457e0cbcdbdf10631a43cc99c80acace8232649421c3f4f73919f16013d47c83a687aa2646970667358221220979e3dbc356faba89b2d8646dd2b7bd5aee0a507a1cf9b83e9fa9c697b328cf764736f6c63430008140033","opcodes":"PUSH1 0x80 CALLVALUE PUSH2 0x124 JUMPI PUSH1 0x1F PUSH2 0xD0B CODESIZE DUP2 SWAP1 SUB SWAP2 DUP3 ADD PUSH1 0x1F NOT AND DUP4 ADD SWAP2 PUSH1 0x1 PUSH1 0x1 PUSH1 0x40 SHL SUB DUP4 GT DUP5 DUP5 LT OR PUSH2 0x129 JUMPI DUP1 DUP5 SWAP3 PUSH1 0x40 SWAP5 DUP6 MSTORE DUP4 CODECOPY DUP2 ADD SUB SLT PUSH2 0x124 JUMPI PUSH2 0x52 PUSH1 0x20 PUSH2 0x4B DUP4 PUSH2 0x13F JUMP JUMPDEST SWAP3 ADD PUSH2 0x13F JUMP JUMPDEST PUSH1 0x1 PUSH1 0x1 PUSH1 0xA0 SHL SUB SWAP2 DUP3 AND SWAP2 SWAP1 DUP3 ISZERO PUSH2 0x10B JUMPI PUSH1 0x0 DUP1 SLOAD PUSH1 0x1 PUSH1 0x1 PUSH1 0xA0 SHL SUB NOT DUP1 DUP3 AND DUP7 OR DUP4 SSTORE SWAP5 SWAP2 SWAP1 DUP5 AND SWAP1 PUSH32 0x8BE0079C531659141344CD1FD0A4F28419497F9722A3DAAFE3B4186F6B6457E0 SWAP1 DUP1 LOG3 PUSH1 0x1 DUP1 SSTORE AND SWAP1 DUP2 ISZERO PUSH2 0xC6 JUMPI PUSH1 0x4 SLOAD AND OR PUSH1 0x4 SSTORE PUSH1 0x40 MLOAD PUSH2 0xBB7 SWAP1 DUP2 PUSH2 0x154 DUP3 CODECOPY RETURN JUMPDEST PUSH1 0x40 MLOAD PUSH3 0x461BCD PUSH1 0xE5 SHL DUP2 MSTORE PUSH1 0x20 PUSH1 0x4 DUP3 ADD MSTORE PUSH1 0x19 PUSH1 0x24 DUP3 ADD MSTORE PUSH32 0x496E76616C6964206F66666572696E6720636F6E747261637400000000000000 PUSH1 0x44 DUP3 ADD MSTORE PUSH1 0x64 SWAP1 REVERT JUMPDEST PUSH1 0x40 MLOAD PUSH4 0x1E4FBDF7 PUSH1 0xE0 SHL DUP2 MSTORE PUSH1 0x0 PUSH1 0x4 DUP3 ADD MSTORE PUSH1 0x24 SWAP1 REVERT JUMPDEST PUSH1 0x0 DUP1 REVERT JUMPDEST PUSH4 0x4E487B71 PUSH1 0xE0 SHL PUSH1 0x0 MSTORE PUSH1 0x41 PUSH1 0x4 MSTORE PUSH1 0x24 PUSH1 0x0 REVERT JUMPDEST MLOAD SWAP1 PUSH1 0x1 PUSH1 0x1 PUSH1 0xA0 SHL SUB DUP3 AND DUP3 SUB PUSH2 0x124 JUMPI JUMP INVALID PUSH1 0x80 PUSH1 0x40 SWAP1 DUP1 DUP3 MSTORE PUSH1 0x4 SWAP1 DUP2 CALLDATASIZE LT ISZERO PUSH2 0x17 JUMPI PUSH1 0x0 DUP1 REVERT JUMPDEST PUSH1 0x0 SWAP2 DUP3 CALLDATALOAD PUSH1 0xE0 SHR SWAP2 DUP3 PUSH4 0x1A4F94F7 EQ PUSH2 0x92A JUMPI POP DUP2 PUSH4 0x338B5DEA EQ PUSH2 0x7AC JUMPI DUP2 PUSH4 0x532F1179 EQ PUSH2 0x788 JUMPI DUP2 PUSH4 0x590E1AE3 EQ PUSH2 0x54C JUMPI DUP2 PUSH4 0x69328DEC EQ PUSH2 0x2A7 JUMPI DUP2 PUSH4 0x715018A6 EQ PUSH2 0x25F JUMPI DUP2 PUSH4 0x8C52DC41 EQ PUSH2 0x212 JUMPI DUP2 PUSH4 0x8DA5CB5B EQ PUSH2 0x1E6 JUMPI DUP2 PUSH4 0xDB6B5246 EQ PUSH2 0x15F JUMPI DUP2 PUSH4 0xF2FDE38B EQ PUSH2 0xE5 JUMPI POP PUSH4 0xFC7E286D EQ PUSH2 0x9F JUMPI PUSH1 0x0 DUP1 REVERT JUMPDEST CALLVALUE PUSH2 0xE2 JUMPI PUSH1 0x20 CALLDATASIZE PUSH1 0x3 NOT ADD SLT PUSH2 0xE2 JUMPI PUSH1 0x1 PUSH1 0x1 PUSH1 0xA0 SHL SUB SWAP1 DUP3 SWAP1 DUP3 PUSH2 0xC4 PUSH2 0x94E JUMP JUMPDEST AND DUP2 MSTORE PUSH1 0x3 PUSH1 0x20 MSTORE KECCAK256 SWAP1 PUSH1 0x1 DUP3 SLOAD SWAP3 ADD SLOAD AND DUP3 MLOAD SWAP2 DUP3 MSTORE PUSH1 0x20 DUP3 ADD MSTORE RETURN JUMPDEST DUP1 REVERT JUMPDEST DUP4 SWAP2 POP CALLVALUE PUSH2 0x15B JUMPI PUSH1 0x20 CALLDATASIZE PUSH1 0x3 NOT ADD SLT PUSH2 0x15B JUMPI PUSH2 0x101 PUSH2 0x94E JUMP JUMPDEST SWAP1 PUSH2 0x10A PUSH2 0x969 JUMP JUMPDEST PUSH1 0x1 PUSH1 0x1 PUSH1 0xA0 SHL SUB SWAP2 DUP3 AND SWAP3 DUP4 ISZERO PUSH2 0x145 JUMPI POP POP DUP3 SLOAD PUSH1 0x1 PUSH1 0x1 PUSH1 0xA0 SHL SUB NOT DUP2 AND DUP4 OR DUP5 SSTORE AND PUSH1 0x0 DUP1 MLOAD PUSH1 0x20 PUSH2 0xB42 DUP4 CODECOPY DUP2 MLOAD SWAP2 MSTORE DUP4 DUP1 LOG3 DUP1 RETURN JUMPDEST MLOAD PUSH4 0x1E4FBDF7 PUSH1 0xE0 SHL DUP2 MSTORE SWAP1 DUP2 ADD DUP5 SWAP1 MSTORE PUSH1 0x24 SWAP1 REVERT JUMPDEST DUP3 DUP1 REVERT JUMPDEST DUP3 DUP1 DUP6 DUP2 PUSH1 0x3 NOT CALLDATASIZE ADD SLT PUSH2 0x1E3 JUMPI PUSH2 0x178 CALLVALUE ISZERO ISZERO PUSH2 0x995 JUMP JUMPDEST PUSH2 0x187 PUSH1 0xFF PUSH1 0x2 SLOAD AND ISZERO PUSH2 0x9D2 JUMP JUMPDEST DUP1 MLOAD PUSH2 0x192 DUP2 PUSH2 0xA18 JUMP JUMPDEST CALLVALUE DUP2 MSTORE PUSH1 0x1 PUSH1 0x20 DUP3 ADD SWAP2 DUP5 DUP4 MSTORE CALLER DUP6 MSTORE PUSH1 0x3 PUSH1 0x20 MSTORE DUP4 DUP6 KECCAK256 SWAP1 MLOAD DUP2 SSTORE ADD SWAP1 PUSH1 0x1 DUP1 PUSH1 0xA0 SHL SUB SWAP1 MLOAD AND PUSH1 0x1 DUP1 PUSH1 0xA0 SHL SUB NOT DUP3 SLOAD AND OR SWAP1 SSTORE MLOAD CALLVALUE DUP2 MSTORE PUSH1 0x0 DUP1 MLOAD PUSH1 0x20 PUSH2 0xB22 DUP4 CODECOPY DUP2 MLOAD SWAP2 MSTORE PUSH1 0x20 CALLER SWAP3 LOG3 DUP1 RETURN JUMPDEST POP REVERT JUMPDEST DUP3 DUP5 CALLVALUE PUSH2 0x20E JUMPI DUP2 PUSH1 0x3 NOT CALLDATASIZE ADD SLT PUSH2 0x20E JUMPI SWAP1 SLOAD SWAP1 MLOAD PUSH1 0x1 PUSH1 0x1 PUSH1 0xA0 SHL SUB SWAP1 SWAP2 AND DUP2 MSTORE PUSH1 0x20 SWAP1 RETURN JUMPDEST POP DUP1 REVERT JUMPDEST DUP3 CALLVALUE PUSH2 0xE2 JUMPI DUP1 PUSH1 0x3 NOT CALLDATASIZE ADD SLT PUSH2 0xE2 JUMPI PUSH2 0x22B PUSH2 0x969 JUMP JUMPDEST PUSH1 0x1 PUSH1 0xFF NOT PUSH1 0x2 SLOAD AND OR PUSH1 0x2 SSTORE PUSH32 0x599D8E5A83CFFB867D051598C4D70E805D59802D8081C1C7D6DFFC5B6ACA2B89 DUP2 DUP1 LOG1 DUP1 RETURN JUMPDEST DUP3 CALLVALUE PUSH2 0xE2 JUMPI DUP1 PUSH1 0x3 NOT CALLDATASIZE ADD SLT PUSH2 0xE2 JUMPI PUSH2 0x278 PUSH2 0x969 JUMP JUMPDEST DUP1 SLOAD PUSH1 0x1 PUSH1 0x1 PUSH1 0xA0 SHL SUB NOT DUP2 AND DUP3 SSTORE DUP2 SWAP1 PUSH1 0x1 PUSH1 0x1 PUSH1 0xA0 SHL SUB AND PUSH1 0x0 DUP1 MLOAD PUSH1 0x20 PUSH2 0xB42 DUP4 CODECOPY DUP2 MLOAD SWAP2 MSTORE DUP3 DUP1 LOG3 DUP1 RETURN JUMPDEST SWAP1 POP DUP3 CALLVALUE PUSH2 0x15B JUMPI PUSH1 0x60 CALLDATASIZE PUSH1 0x3 NOT ADD SLT PUSH2 0x15B JUMPI PUSH2 0x2C3 PUSH2 0x94E JUMP JUMPDEST SWAP2 PUSH1 0x24 SWAP2 DUP3 CALLDATALOAD SWAP2 PUSH1 0x44 DUP1 CALLDATALOAD SWAP5 PUSH1 0x1 DUP1 PUSH1 0xA0 SHL SUB DUP1 DUP8 AND SWAP8 DUP9 DUP9 SUB PUSH2 0x548 JUMPI PUSH2 0x2E9 PUSH2 0x969 JUMP JUMPDEST PUSH2 0x2F1 PUSH2 0xA84 JUMP JUMPDEST DUP9 ISZERO PUSH2 0x513 JUMPI AND SWAP6 DUP7 PUSH2 0x3A8 JUMPI POP DUP5 SELFBALANCE LT PUSH2 0x375 JUMPI DUP8 DUP1 DUP1 DUP1 DUP9 DUP12 GAS CALL PUSH2 0x316 PUSH2 0xAC2 JUMP JUMPDEST POP ISZERO PUSH2 0x33F JUMPI POP POP POP PUSH1 0x0 DUP1 MLOAD PUSH1 0x20 PUSH2 0xB62 DUP4 CODECOPY DUP2 MLOAD SWAP2 MSTORE SWAP2 PUSH1 0x20 SWAP2 JUMPDEST MLOAD SWAP1 DUP2 MSTORE LOG3 PUSH1 0x1 DUP1 SSTORE DUP1 RETURN JUMPDEST SWAP1 PUSH1 0x13 PUSH19 0x115512081DDA5D1A191C985DC819985A5B1959 PUSH1 0x6A SHL SWAP3 PUSH1 0x20 PUSH1 0x64 SWAP7 MLOAD SWAP6 PUSH3 0x461BCD PUSH1 0xE5 SHL DUP8 MSTORE DUP7 ADD MSTORE DUP5 ADD MSTORE DUP3 ADD MSTORE REVERT JUMPDEST SWAP1 PUSH1 0x10 PUSH16 0x92DCE6EACCCCD2C6D2CADCE8408AA89 PUSH1 0x83 SHL SWAP3 PUSH1 0x20 PUSH1 0x64 SWAP7 MLOAD SWAP6 PUSH3 0x461BCD PUSH1 0xE5 SHL DUP8 MSTORE DUP7 ADD MSTORE DUP5 ADD MSTORE DUP3 ADD MSTORE REVERT JUMPDEST DUP5 MLOAD PUSH4 0x70A08231 PUSH1 0xE0 SHL DUP2 MSTORE ADDRESS DUP6 DUP3 ADD MSTORE PUSH1 0x20 SWAP2 SWAP1 DUP3 DUP2 DUP6 DUP2 DUP13 GAS STATICCALL SWAP1 DUP2 ISZERO PUSH2 0x509 JUMPI SWAP1 DUP9 SWAP2 DUP13 SWAP2 PUSH2 0x4D4 JUMPI JUMPDEST POP LT PUSH2 0x49E JUMPI DUP2 DUP8 PUSH2 0x3FA SWAP3 DUP9 MLOAD SWAP4 DUP5 SWAP3 DUP4 SWAP3 PUSH4 0xA9059CBB PUSH1 0xE0 SHL DUP5 MSTORE DUP11 DUP5 ADD PUSH2 0xAA7 JUMP JUMPDEST SUB DUP2 DUP14 DUP13 GAS CALL SWAP1 DUP2 ISZERO PUSH2 0x494 JUMPI DUP11 SWAP2 PUSH2 0x467 JUMPI JUMPDEST POP ISZERO PUSH2 0x430 JUMPI POP POP POP POP PUSH1 0x0 DUP1 MLOAD PUSH1 0x20 PUSH2 0xB62 DUP4 CODECOPY DUP2 MLOAD SWAP2 MSTORE SWAP2 PUSH1 0x20 SWAP2 PUSH2 0x333 JUMP JUMPDEST PUSH21 0x151BDAD95B881DDA5D1A191C985DC819985A5B1959 PUSH1 0x5A SHL SWAP3 SWAP2 PUSH1 0x15 SWAP2 PUSH1 0x64 SWAP7 MLOAD SWAP6 PUSH3 0x461BCD PUSH1 0xE5 SHL DUP8 MSTORE DUP7 ADD MSTORE DUP5 ADD MSTORE DUP3 ADD MSTORE REVERT JUMPDEST PUSH2 0x487 SWAP2 POP DUP3 RETURNDATASIZE DUP5 GT PUSH2 0x48D JUMPI JUMPDEST PUSH2 0x47F DUP2 DUP4 PUSH2 0xA49 JUMP JUMPDEST DUP2 ADD SWAP1 PUSH2 0xA6C JUMP JUMPDEST DUP11 PUSH2 0x40E JUMP JUMPDEST POP RETURNDATASIZE PUSH2 0x475 JUMP JUMPDEST DUP7 MLOAD RETURNDATASIZE DUP13 DUP3 RETURNDATACOPY RETURNDATASIZE SWAP1 REVERT JUMPDEST POP PUSH19 0x496E73756666696369656E7420746F6B656E73 PUSH1 0x68 SHL SWAP3 SWAP2 PUSH1 0x13 SWAP2 PUSH1 0x64 SWAP7 MLOAD SWAP6 PUSH3 0x461BCD PUSH1 0xE5 SHL DUP8 MSTORE DUP7 ADD MSTORE DUP5 ADD MSTORE DUP3 ADD MSTORE REVERT JUMPDEST DUP1 SWAP3 POP DUP5 DUP1 SWAP3 POP RETURNDATASIZE DUP4 GT PUSH2 0x502 JUMPI JUMPDEST PUSH2 0x4ED DUP2 DUP4 PUSH2 0xA49 JUMP JUMPDEST DUP2 ADD SUB SLT PUSH2 0x4FE JUMPI DUP8 SWAP1 MLOAD DUP13 PUSH2 0x3D5 JUMP JUMPDEST DUP11 DUP1 REVERT JUMPDEST POP RETURNDATASIZE PUSH2 0x4E3 JUMP JUMPDEST DUP8 MLOAD RETURNDATASIZE DUP14 DUP3 RETURNDATACOPY RETURNDATASIZE SWAP1 REVERT JUMPDEST DUP6 MLOAD PUSH3 0x461BCD PUSH1 0xE5 SHL DUP2 MSTORE PUSH1 0x20 DUP2 DUP8 ADD MSTORE PUSH1 0x11 DUP2 DUP6 ADD MSTORE PUSH17 0x125B9D985B1A59081C9958DA5C1A595B9D PUSH1 0x7A SHL DUP2 DUP7 ADD MSTORE PUSH1 0x64 SWAP1 REVERT JUMPDEST DUP10 DUP1 REVERT JUMPDEST SWAP1 POP DUP3 CALLVALUE PUSH2 0x15B JUMPI DUP3 PUSH1 0x3 NOT CALLDATASIZE ADD SLT PUSH2 0x15B JUMPI PUSH2 0x567 PUSH2 0xA84 JUMP JUMPDEST PUSH1 0xFF PUSH1 0x2 SLOAD AND ISZERO PUSH2 0x74F JUMPI CALLER DUP4 MSTORE PUSH1 0x20 PUSH1 0x3 DUP2 MSTORE PUSH1 0x1 DUP3 DUP6 KECCAK256 DUP4 MLOAD SWAP5 PUSH2 0x58C DUP7 PUSH2 0xA18 JUMP JUMPDEST DUP2 SLOAD SWAP2 DUP3 DUP8 MSTORE DUP4 DUP1 PUSH1 0xA0 SHL SUB SWAP4 DUP5 SWAP2 ADD SLOAD AND SWAP2 DUP5 DUP8 ADD SWAP3 DUP4 MSTORE ISZERO PUSH2 0x718 JUMPI DUP5 MLOAD PUSH2 0x5B5 DUP2 PUSH2 0xA18 JUMP JUMPDEST DUP8 DUP2 MSTORE DUP4 PUSH1 0x1 DUP7 DUP4 ADD SWAP3 DUP11 DUP5 MSTORE CALLER DUP12 MSTORE PUSH1 0x3 DUP9 MSTORE DUP9 DUP12 KECCAK256 SWAP1 MLOAD DUP2 SSTORE ADD SWAP2 MLOAD AND PUSH1 0x1 DUP1 PUSH1 0xA0 SHL SUB NOT DUP3 SLOAD AND OR SWAP1 SSTORE DUP7 DUP5 DUP5 DUP5 MLOAD AND DUP1 ISZERO PUSH1 0x0 EQ PUSH2 0x667 JUMPI POP POP DUP1 DUP1 DUP1 DUP10 MLOAD CALLER GAS CALL PUSH2 0x603 PUSH2 0xAC2 JUMP JUMPDEST POP ISZERO PUSH2 0x630 JUMPI POP SWAP1 PUSH1 0x0 DUP1 MLOAD PUSH1 0x20 PUSH2 0xB02 DUP4 CODECOPY DUP2 MLOAD SWAP2 MSTORE SWAP3 SWAP2 JUMPDEST MLOAD AND SWAP4 MLOAD SWAP3 MLOAD SWAP3 DUP4 MSTORE CALLER SWAP3 LOG3 PUSH1 0x1 DUP1 SSTORE DUP1 RETURN JUMPDEST DUP5 MLOAD PUSH3 0x461BCD PUSH1 0xE5 SHL DUP2 MSTORE SWAP1 DUP2 ADD DUP5 SWAP1 MSTORE PUSH1 0x11 PUSH1 0x24 DUP3 ADD MSTORE PUSH17 0x115512081C99599D5B990819985A5B1959 PUSH1 0x7A SHL PUSH1 0x44 DUP3 ADD MSTORE PUSH1 0x64 SWAP1 REVERT JUMPDEST PUSH2 0x688 SWAP1 DUP10 MLOAD DUP10 MLOAD SWAP5 DUP6 DUP1 SWAP5 DUP2 SWAP4 PUSH4 0xA9059CBB PUSH1 0xE0 SHL DUP4 MSTORE CALLER DUP11 DUP5 ADD PUSH2 0xAA7 JUMP JUMPDEST SUB SWAP3 GAS CALL SWAP1 DUP2 ISZERO PUSH2 0x70E JUMPI DUP9 SWAP2 PUSH2 0x6F1 JUMPI JUMPDEST POP ISZERO PUSH2 0x6B8 JUMPI POP SWAP1 PUSH1 0x0 DUP1 MLOAD PUSH1 0x20 PUSH2 0xB02 DUP4 CODECOPY DUP2 MLOAD SWAP2 MSTORE SWAP3 SWAP2 PUSH2 0x61D JUMP JUMPDEST DUP5 MLOAD PUSH3 0x461BCD PUSH1 0xE5 SHL DUP2 MSTORE SWAP1 DUP2 ADD DUP5 SWAP1 MSTORE PUSH1 0x13 PUSH1 0x24 DUP3 ADD MSTORE PUSH19 0x151BDAD95B881C99599D5B990819985A5B1959 PUSH1 0x6A SHL PUSH1 0x44 DUP3 ADD MSTORE PUSH1 0x64 SWAP1 REVERT JUMPDEST PUSH2 0x708 SWAP2 POP DUP6 RETURNDATASIZE DUP8 GT PUSH2 0x48D JUMPI PUSH2 0x47F DUP2 DUP4 PUSH2 0xA49 JUMP JUMPDEST DUP9 PUSH2 0x69A JUMP JUMPDEST DUP7 MLOAD RETURNDATASIZE DUP11 DUP3 RETURNDATACOPY RETURNDATASIZE SWAP1 REVERT JUMPDEST DUP5 MLOAD PUSH3 0x461BCD PUSH1 0xE5 SHL DUP2 MSTORE SWAP1 DUP2 ADD DUP5 SWAP1 MSTORE PUSH1 0x11 PUSH1 0x24 DUP3 ADD MSTORE PUSH17 0x139BDD1A1A5B99C81D1BC81C99599D5B99 PUSH1 0x7A SHL PUSH1 0x44 DUP3 ADD MSTORE PUSH1 0x64 SWAP1 REVERT JUMPDEST SWAP1 PUSH1 0x20 PUSH1 0x64 SWAP3 MLOAD SWAP2 PUSH3 0x461BCD PUSH1 0xE5 SHL DUP4 MSTORE DUP3 ADD MSTORE PUSH1 0x13 PUSH1 0x24 DUP3 ADD MSTORE PUSH19 0x1499599D5B991CC81B9BDD08195B98589B1959 PUSH1 0x6A SHL PUSH1 0x44 DUP3 ADD MSTORE REVERT JUMPDEST DUP3 DUP5 CALLVALUE PUSH2 0x20E JUMPI DUP2 PUSH1 0x3 NOT CALLDATASIZE ADD SLT PUSH2 0x20E JUMPI PUSH1 0x20 SWAP1 PUSH1 0xFF PUSH1 0x2 SLOAD AND SWAP1 MLOAD SWAP1 ISZERO ISZERO DUP2 MSTORE RETURN JUMPDEST SWAP1 POP DUP3 CALLVALUE PUSH2 0x15B JUMPI DUP1 PUSH1 0x3 NOT CALLDATASIZE ADD SLT PUSH2 0x15B JUMPI PUSH2 0x7C7 PUSH2 0x94E JUMP JUMPDEST SWAP2 PUSH1 0x24 CALLDATALOAD SWAP2 PUSH2 0x7D4 PUSH2 0xA84 JUMP JUMPDEST PUSH1 0x1 PUSH1 0x1 PUSH1 0xA0 SHL SUB SWAP4 DUP5 AND SWAP4 DUP5 ISZERO PUSH2 0x8F7 JUMPI PUSH2 0x7F1 DUP5 ISZERO ISZERO PUSH2 0x995 JUMP JUMPDEST PUSH2 0x800 PUSH1 0xFF PUSH1 0x2 SLOAD AND ISZERO PUSH2 0x9D2 JUMP JUMPDEST DUP3 SLOAD DUP3 MLOAD PUSH4 0x23B872DD PUSH1 0xE0 SHL DUP2 MSTORE SWAP1 DUP3 AND DUP2 DUP6 ADD MSTORE ADDRESS PUSH1 0x24 DUP3 ADD MSTORE PUSH1 0x44 DUP2 ADD DUP6 SWAP1 MSTORE PUSH1 0x20 SWAP4 SWAP1 DUP5 DUP2 PUSH1 0x64 DUP2 DUP12 DUP12 GAS CALL SWAP1 DUP2 ISZERO PUSH2 0x8ED JUMPI DUP9 SWAP2 PUSH2 0x8D0 JUMPI JUMPDEST POP ISZERO PUSH2 0x89B JUMPI POP DUP2 MLOAD PUSH1 0x0 DUP1 MLOAD PUSH1 0x20 PUSH2 0xB22 DUP4 CODECOPY DUP2 MLOAD SWAP2 MSTORE SWAP4 SWAP3 SWAP2 PUSH2 0x861 DUP3 PUSH2 0xA18 JUMP JUMPDEST DUP6 DUP3 MSTORE PUSH1 0x1 DUP5 DUP4 ADD SWAP3 DUP9 DUP5 MSTORE CALLER DUP11 MSTORE PUSH1 0x3 DUP7 MSTORE DUP5 DUP11 KECCAK256 SWAP1 MLOAD DUP2 SSTORE ADD SWAP2 MLOAD AND PUSH1 0x1 DUP1 PUSH1 0xA0 SHL SUB NOT DUP3 SLOAD AND OR SWAP1 SSTORE MLOAD SWAP3 DUP4 MSTORE CALLER SWAP3 LOG3 PUSH1 0x1 DUP1 SSTORE DUP1 RETURN JUMPDEST DUP3 MLOAD PUSH3 0x461BCD PUSH1 0xE5 SHL DUP2 MSTORE SWAP1 DUP2 ADD DUP5 SWAP1 MSTORE PUSH1 0xF PUSH1 0x24 DUP3 ADD MSTORE PUSH15 0x151C985B9CD9995C8819985A5B1959 PUSH1 0x8A SHL PUSH1 0x44 DUP3 ADD MSTORE PUSH1 0x64 SWAP1 REVERT JUMPDEST PUSH2 0x8E7 SWAP2 POP DUP6 RETURNDATASIZE DUP8 GT PUSH2 0x48D JUMPI PUSH2 0x47F DUP2 DUP4 PUSH2 0xA49 JUMP JUMPDEST DUP9 PUSH2 0x83D JUMP JUMPDEST DUP5 MLOAD RETURNDATASIZE DUP11 DUP3 RETURNDATACOPY RETURNDATASIZE SWAP1 REVERT JUMPDEST DUP2 MLOAD PUSH3 0x461BCD PUSH1 0xE5 SHL DUP2 MSTORE PUSH1 0x20 DUP2 DUP6 ADD MSTORE PUSH1 0xD PUSH1 0x24 DUP3 ADD MSTORE PUSH13 0x24B73B30B634B2103A37B5B2B7 PUSH1 0x99 SHL PUSH1 0x44 DUP3 ADD MSTORE PUSH1 0x64 SWAP1 REVERT JUMPDEST SWAP2 POP CALLVALUE PUSH2 0x15B JUMPI DUP3 PUSH1 0x3 NOT CALLDATASIZE ADD SLT PUSH2 0x15B JUMPI SLOAD PUSH1 0x1 PUSH1 0x1 PUSH1 0xA0 SHL SUB AND DUP2 MSTORE PUSH1 0x20 SWAP2 POP RETURN JUMPDEST PUSH1 0x4 CALLDATALOAD SWAP1 PUSH1 0x1 PUSH1 0x1 PUSH1 0xA0 SHL SUB DUP3 AND DUP3 SUB PUSH2 0x964 JUMPI JUMP JUMPDEST PUSH1 0x0 DUP1 REVERT JUMPDEST PUSH1 0x0 SLOAD PUSH1 0x1 PUSH1 0x1 PUSH1 0xA0 SHL SUB AND CALLER SUB PUSH2 0x97D JUMPI JUMP JUMPDEST PUSH1 0x40 MLOAD PUSH4 0x118CDAA7 PUSH1 0xE0 SHL DUP2 MSTORE CALLER PUSH1 0x4 DUP3 ADD MSTORE PUSH1 0x24 SWAP1 REVERT JUMPDEST ISZERO PUSH2 0x99C JUMPI JUMP JUMPDEST PUSH1 0x40 MLOAD PUSH3 0x461BCD PUSH1 0xE5 SHL DUP2 MSTORE PUSH1 0x20 PUSH1 0x4 DUP3 ADD MSTORE PUSH1 0xE PUSH1 0x24 DUP3 ADD MSTORE PUSH14 0x125B9D985B1A5908185B5BDD5B9D PUSH1 0x92 SHL PUSH1 0x44 DUP3 ADD MSTORE PUSH1 0x64 SWAP1 REVERT JUMPDEST ISZERO PUSH2 0x9D9 JUMPI JUMP JUMPDEST PUSH1 0x40 MLOAD PUSH3 0x461BCD PUSH1 0xE5 SHL DUP2 MSTORE PUSH1 0x20 PUSH1 0x4 DUP3 ADD MSTORE PUSH1 0x17 PUSH1 0x24 DUP3 ADD MSTORE PUSH23 0x1499599D5B991CC8185B1C9958591E48195B98589B1959 PUSH1 0x4A SHL PUSH1 0x44 DUP3 ADD MSTORE PUSH1 0x64 SWAP1 REVERT JUMPDEST PUSH1 0x40 DUP2 ADD SWAP1 DUP2 LT PUSH1 0x1 PUSH1 0x1 PUSH1 0x40 SHL SUB DUP3 GT OR PUSH2 0xA33 JUMPI PUSH1 0x40 MSTORE JUMP JUMPDEST PUSH4 0x4E487B71 PUSH1 0xE0 SHL PUSH1 0x0 MSTORE PUSH1 0x41 PUSH1 0x4 MSTORE PUSH1 0x24 PUSH1 0x0 REVERT JUMPDEST PUSH1 0x1F SWAP1 SWAP2 ADD PUSH1 0x1F NOT AND DUP2 ADD SWAP1 PUSH1 0x1 PUSH1 0x1 PUSH1 0x40 SHL SUB DUP3 GT SWAP1 DUP3 LT OR PUSH2 0xA33 JUMPI PUSH1 0x40 MSTORE JUMP JUMPDEST SWAP1 DUP2 PUSH1 0x20 SWAP2 SUB SLT PUSH2 0x964 JUMPI MLOAD DUP1 ISZERO ISZERO DUP2 SUB PUSH2 0x964 JUMPI SWAP1 JUMP JUMPDEST PUSH1 0x2 PUSH1 0x1 SLOAD EQ PUSH2 0xA95 JUMPI PUSH1 0x2 PUSH1 0x1 SSTORE JUMP JUMPDEST PUSH1 0x40 MLOAD PUSH4 0x3EE5AEB5 PUSH1 0xE0 SHL DUP2 MSTORE PUSH1 0x4 SWAP1 REVERT JUMPDEST PUSH1 0x1 PUSH1 0x1 PUSH1 0xA0 SHL SUB SWAP1 SWAP2 AND DUP2 MSTORE PUSH1 0x20 DUP2 ADD SWAP2 SWAP1 SWAP2 MSTORE PUSH1 0x40 ADD SWAP1 JUMP JUMPDEST RETURNDATASIZE ISZERO PUSH2 0xAFC JUMPI RETURNDATASIZE SWAP1 PUSH1 0x1 PUSH1 0x1 PUSH1 0x40 SHL SUB DUP3 GT PUSH2 0xA33 JUMPI PUSH1 0x40 MLOAD SWAP2 PUSH2 0xAF0 PUSH1 0x1F DUP3 ADD PUSH1 0x1F NOT AND PUSH1 0x20 ADD DUP5 PUSH2 0xA49 JUMP JUMPDEST DUP3 MSTORE RETURNDATASIZE PUSH1 0x0 PUSH1 0x20 DUP5 ADD RETURNDATACOPY JUMP JUMPDEST PUSH1 0x60 SWAP1 JUMP INVALID 0xEC 0x1E 0x5E 0xD7 CALLER 0xE0 0xF BYTE STOP SWAP2 0x5D JUMP 0xCA 0xEF JUMPI 0xB4 CREATE2 0x23 SLT 0xDD 0xE4 0xF9 0xB3 AND PUSH0 0x21 CALLER NOT LOG0 0xDA ISZERO PUSH12 0x8752A472E571A816AEA92EEC DUP14 0xAE SWAP12 0xAF PUSH3 0x8E840F 0x49 0x29 0xFB 0xCC 0x2D ISZERO 0x5E PUSH3 0x33FF68 0xA7 DUP12 0xE0 SMOD SWAP13 MSTORE8 AND MSIZE EQ SGT PREVRANDAO 0xCD 0x1F 0xD0 LOG4 CALLCODE DUP5 NOT 0x49 PUSH32 0x9722A3DAAFE3B4186F6B6457E0CBCDBDF10631A43CC99C80ACACE8232649421C EXTCODEHASH 0x4F PUSH20 0x919F16013D47C83A687AA2646970667358221220 SWAP8 SWAP15 RETURNDATASIZE 0xBC CALLDATALOAD PUSH16 0xABA89B2D8646DD2B7BD5AEE0A507A1CF SWAP12 DUP4 0xE9 STATICCALL SWAP13 PUSH10 0x7B328CF764736F6C6343 STOP ADDMOD EQ STOP CALLER "},"methodIdentifiers":{"depositNative()":"db6b5246","depositToken(address,uint256)":"338b5dea","deposits(address)":"fc7e286d","enableRefunds()":"8c52dc41","offeringContract()":"1a4f94f7","owner()":"8da5cb5b","refund()":"590e1ae3","refundsEnabled()":"532f1179","renounceOwnership()":"715018a6","transferOwnership(address)":"f2fde38b","withdraw(address,uint256,address)":"69328dec"}}}}}