{"contracts/Escrow.sol":{"Escrow":{"abi":[{"inputs":[{"components":[{"internalType":"address","name":"owner","type":"address"}],"internalType":"struct EscrowConfig","name":"config","type":"tuple"}],"stateMutability":"nonpayable","type":"constructor"},{"inputs":[{"internalType":"address","name":"owner","type":"address"}],"name":"OwnableInvalidOwner","type":"error"},{"inputs":[{"internalType":"address","name":"account","type":"address"}],"name":"OwnableUnauthorizedAccount","type":"error"},{"inputs":[],"name":"ReentrancyGuardReentrantCall","type":"error"},{"anonymous":false,"inputs":[{"indexed":true,"internalType":"address","name":"offeringContract","type":"address"},{"indexed":true,"internalType":"address","name":"investor","type":"address"},{"indexed":true,"internalType":"address","name":"token","type":"address"},{"indexed":false,"internalType":"uint256","name":"amount","type":"uint256"}],"name":"Deposited","type":"event"},{"anonymous":false,"inputs":[{"indexed":true,"internalType":"address","name":"previousOwner","type":"address"},{"indexed":true,"internalType":"address","name":"newOwner","type":"address"}],"name":"OwnershipTransferred","type":"event"},{"anonymous":false,"inputs":[{"indexed":true,"internalType":"address","name":"offeringContract","type":"address"},{"indexed":true,"internalType":"address","name":"investor","type":"address"},{"indexed":true,"internalType":"address","name":"token","type":"address"},{"indexed":false,"internalType":"uint256","name":"amount","type":"uint256"}],"name":"Refunded","type":"event"},{"anonymous":false,"inputs":[],"name":"RefundsEnabled","type":"event"},{"anonymous":false,"inputs":[{"indexed":true,"internalType":"address","name":"token","type":"address"},{"indexed":false,"internalType":"uint256","name":"amount","type":"uint256"},{"indexed":true,"internalType":"address","name":"to","type":"address"}],"name":"Withdrawn","type":"event"},{"inputs":[{"internalType":"address","name":"_offeringContract","type":"address"},{"internalType":"address","name":"_investor","type":"address"}],"name":"depositNative","outputs":[],"stateMutability":"payable","type":"function"},{"inputs":[{"internalType":"address","name":"_offeringContract","type":"address"},{"internalType":"address","name":"_investor","type":"address"},{"internalType":"address","name":"tokenAddr","type":"address"},{"internalType":"uint256","name":"amount","type":"uint256"}],"name":"depositToken","outputs":[],"stateMutability":"nonpayable","type":"function"},{"inputs":[{"internalType":"address","name":"","type":"address"},{"internalType":"address","name":"","type":"address"}],"name":"deposits","outputs":[{"internalType":"uint256","name":"amount","type":"uint256"},{"internalType":"address","name":"token","type":"address"}],"stateMutability":"view","type":"function"},{"inputs":[],"name":"enableRefunds","outputs":[],"stateMutability":"nonpayable","type":"function"},{"inputs":[],"name":"owner","outputs":[{"internalType":"address","name":"","type":"address"}],"stateMutability":"view","type":"function"},{"inputs":[{"internalType":"address","name":"_offeringContract","type":"address"},{"internalType":"address","name":"_investor","type":"address"}],"name":"refund","outputs":[],"stateMutability":"nonpayable","type":"function"},{"inputs":[],"name":"refundsEnabled","outputs":[{"internalType":"bool","name":"","type":"bool"}],"stateMutability":"view","type":"function"},{"inputs":[],"name":"renounceOwnership","outputs":[],"stateMutability":"nonpayable","type":"function"},{"inputs":[{"internalType":"address","name":"newOwner","type":"address"}],"name":"transferOwnership","outputs":[],"stateMutability":"nonpayable","type":"function"},{"inputs":[{"internalType":"address","name":"tokenAddr","type":"address"},{"internalType":"uint256","name":"amount","type":"uint256"},{"internalType":"address","name":"to","type":"address"}],"name":"withdraw","outputs":[],"stateMutability":"nonpayable","type":"function"}],"evm":{"bytecode":{"linkReferences":{},"object":"60803461011857601f610fd238819003918201601f19168301926001600160401b039290918385118386101761011d57816020928492604097885283398101031261011857825191602083019081118382101761011d578352516001600160a01b03808216929091838103610118578152821561010057600080546001600160a01b031981168517825585519491908416907f8be0079c531659141344cd1fd0a4f28419497f9722a3daafe3b4186f6b6457e09080a3600180555116156100ce575051610e9e90816101348239f35b62461bcd60e51b815260206004820152600d60248201526c24b73b30b634b21037bbb732b960991b6044820152606490fd5b8351631e4fbdf760e01b815260006004820152602490fd5b600080fd5b634e487b7160e01b600052604160045260246000fdfe6040608081526004908136101561001557600080fd5b600091823560e01c80630ef7c5a714610966578063532f1179146109425780635e30b8a61461065657806369328dec1461033557838163701bb8911461025d57508063715018a6146102045780638c52dc41146101b75780638da5cb5b1461018d5780638f601f66146101335763f2fde38b1461009157600080fd5b3461012f57602036600319011261012f576100aa610b69565b906100b3610bb0565b6001600160a01b038092169283156101005750508254826001600160a01b03198216178455167f8be0079c531659141344cd1fd0a4f28419497f9722a3daafe3b4186f6b6457e08380a380f35b908460249251917f1e4fbdf7000000000000000000000000000000000000000000000000000000008352820152fd5b8280fd5b82843461018a578160031936011261018a578161014e610b69565b91610157610b84565b6001600160a01b038094168252600360205283838320911682526020522090600182549201541682519182526020820152f35b80fd5b5050346101b357816003193601126101b3576001600160a01b0360209254169051908152f35b5080fd5b833461018a578060031936011261018a576101d0610bb0565b600160ff1960025416176002557f599d8e5a83cffb867d051598c4d70e805d59802d8081c1c7d6dffc5b6aca2b898180a180f35b833461018a578060031936011261018a5761021d610bb0565b806001600160a01b0381546001600160a01b031981168355167f8be0079c531659141344cd1fd0a4f28419497f9722a3daafe3b4186f6b6457e08280a380f35b80848060031936011261033257610272610b69565b907f4174a9435a04d04d274c76779cad136a41fde6937c56241c09ab9d3c7064a1a9602061029e610b84565b926001600160a01b0380809616946102b7863314610bf4565b6102c2341515610c65565b6102d160ff6002541615610cb0565b6102dc861515610cfb565b16946102e9861515610d46565b8151906102f582610d91565b348252600184830192898452878a5260038652848a20898b528652848a2090518155019151166001600160a01b031982541617905551348152a480f35b50fd5b50903461012f57606036600319011261012f57610350610b69565b9160249182359161035f610b9a565b93610368610bb0565b610370610e16565b6001600160a01b038086169687156106145716948561045d575083471061041c5786808080878a5af16103a1610e51565b50156103db5750507fcbcdbdf10631a43cc99c80acace8232649421c3f4f73919f16013d47c83a687a916020915b51908152a36001805580f35b6013906020606494519362461bcd60e51b85528401528201527f455448207769746864726177206661696c6564000000000000000000000000006044820152fd5b6010906020606494519362461bcd60e51b85528401528201527f496e73756666696369656e7420455448000000000000000000000000000000006044820152fd5b8351907f70a082310000000000000000000000000000000000000000000000000000000082523084830152602091828185818b5afa90811561060a579087918b916105d5575b501061059457845163a9059cbb60e01b81526001600160a01b039091168482019081526020810187905282908290819060400103818c8b5af190811561058a57899161055d575b501561051d575050507fcbcdbdf10631a43cc99c80acace8232649421c3f4f73919f16013d47c83a687a916020916103cf565b90601591606494519362461bcd60e51b85528401528201527f546f6b656e207769746864726177206661696c656400000000000000000000006044820152fd5b61057d9150823d8411610583575b6105758183610ddc565b810190610dfe565b386104ea565b503d61056b565b85513d8b823e3d90fd5b5090601391606494519362461bcd60e51b85528401528201527f496e73756666696369656e7420746f6b656e73000000000000000000000000006044820152fd5b809250848092503d8311610603575b6105ee8183610ddc565b810103126105ff57869051386104a3565b8980fd5b503d6105e4565b86513d8c823e3d90fd5b606484601185602089519362461bcd60e51b85528401528201527f496e76616c696420726563697069656e740000000000000000000000000000006044820152fd5b50903461012f578060031936011261012f57610670610b69565b90610679610b84565b92610682610bb0565b61068a610e16565b60ff6002541615610900576001600160a01b03809316916106ac831515610cfb565b838516936106bb851515610d46565b838752602092600384528288208689528452828820908351976106dd89610d91565b836001845494858c5201541692868a01938452156108be5789846001875161070481610d91565b838152888a8201948086528c815260038c528d8282209082528c522090518155019151166001600160a01b031982541617905585848451169182156000146107da57505050888080808b518b5af161075a610e51565b50156107985750907fb7c482f0c0b7ad56e2c7004be448a8ead98a8bbe84675fd80b273563099f85609392915b511695519051908152a46001805580f35b6064908585519162461bcd60e51b8352820152601160248201527f45544820726566756e64206661696c65640000000000000000000000000000006044820152fd5b610812928b51918d895180968195829463a9059cbb60e01b84528a8401602090939291936001600160a01b0360408201951681520152565b03925af19081156108b4578a91610897575b50156108555750907fb7c482f0c0b7ad56e2c7004be448a8ead98a8bbe84675fd80b273563099f8560939291610787565b6064908585519162461bcd60e51b8352820152601360248201527f546f6b656e20726566756e64206661696c6564000000000000000000000000006044820152fd5b6108ae9150863d8811610583576105758183610ddc565b38610824565b85513d8c823e3d90fd5b6064828787519162461bcd60e51b8352820152601160248201527f4e6f7468696e6720746f20726566756e640000000000000000000000000000006044820152fd5b6020606492519162461bcd60e51b8352820152601360248201527f526566756e6473206e6f7420656e61626c6564000000000000000000000000006044820152fd5b5050346101b357816003193601126101b35760209060ff6002541690519015158152f35b50903461012f57608036600319011261012f57610981610b69565b9061098a610b84565b92610993610b9a565b91606435906109a0610e16565b6001600160a01b0380809616946109b8863314610bf4565b16958615610b265785906109cd841515610c65565b6109dc60ff6002541615610cb0565b6109e7861515610cfb565b16946109f4861515610d46565b8151937f23b872dd000000000000000000000000000000000000000000000000000000008552858186015230602486015283604486015260209485816064818d8d5af1908115610b1c578a91610aff575b5015610abd575081517f4174a9435a04d04d274c76779cad136a41fde6937c56241c09ab9d3c7064a1a994939291610a7c82610d91565b8382526001858301928a8452888c5260038752848c208a8d528752848c2090518155019151166001600160a01b031982541617905551908152a46001805580f35b6064908584519162461bcd60e51b8352820152600f60248201527f5472616e73666572206661696c656400000000000000000000000000000000006044820152fd5b610b169150863d8811610583576105758183610ddc565b38610a45565b84513d8c823e3d90fd5b606484602084519162461bcd60e51b8352820152600d60248201527f496e76616c696420746f6b656e000000000000000000000000000000000000006044820152fd5b600435906001600160a01b0382168203610b7f57565b600080fd5b602435906001600160a01b0382168203610b7f57565b604435906001600160a01b0382168203610b7f57565b6001600160a01b03600054163303610bc457565b60246040517f118cdaa7000000000000000000000000000000000000000000000000000000008152336004820152fd5b15610bfb57565b608460405162461bcd60e51b815260206004820152602260248201527f4f6e6c79206f66666572696e6720636f6e74726163742063616e206465706f7360448201527f69740000000000000000000000000000000000000000000000000000000000006064820152fd5b15610c6c57565b606460405162461bcd60e51b815260206004820152600e60248201527f496e76616c696420616d6f756e740000000000000000000000000000000000006044820152fd5b15610cb757565b606460405162461bcd60e51b815260206004820152601760248201527f526566756e647320616c726561647920656e61626c65640000000000000000006044820152fd5b15610d0257565b606460405162461bcd60e51b815260206004820152601960248201527f496e76616c6964206f66666572696e6720636f6e7472616374000000000000006044820152fd5b15610d4d57565b606460405162461bcd60e51b815260206004820152601860248201527f496e76616c696420696e766573746f72206164647265737300000000000000006044820152fd5b6040810190811067ffffffffffffffff821117610dad57604052565b7f4e487b7100000000000000000000000000000000000000000000000000000000600052604160045260246000fd5b90601f8019910116810190811067ffffffffffffffff821117610dad57604052565b90816020910312610b7f57518015158103610b7f5790565b600260015414610e27576002600155565b60046040517f3ee5aeb5000000000000000000000000000000000000000000000000000000008152fd5b3d15610e8c573d9067ffffffffffffffff8211610dad5760405191610e80601f8201601f191660200184610ddc565b82523d6000602084013e565b60609056fea164736f6c6343000814000a","opcodes":"PUSH1 0x80 CALLVALUE PUSH2 0x118 JUMPI PUSH1 0x1F PUSH2 0xFD2 CODESIZE DUP2 SWAP1 SUB SWAP2 DUP3 ADD PUSH1 0x1F NOT AND DUP4 ADD SWAP3 PUSH1 0x1 PUSH1 0x1 PUSH1 0x40 SHL SUB SWAP3 SWAP1 SWAP2 DUP4 DUP6 GT DUP4 DUP7 LT OR PUSH2 0x11D JUMPI DUP2 PUSH1 0x20 SWAP3 DUP5 SWAP3 PUSH1 0x40 SWAP8 DUP9 MSTORE DUP4 CODECOPY DUP2 ADD SUB SLT PUSH2 0x118 JUMPI DUP3 MLOAD SWAP2 PUSH1 0x20 DUP4 ADD SWAP1 DUP2 GT DUP4 DUP3 LT OR PUSH2 0x11D JUMPI DUP4 MSTORE MLOAD PUSH1 0x1 PUSH1 0x1 PUSH1 0xA0 SHL SUB DUP1 DUP3 AND SWAP3 SWAP1 SWAP2 DUP4 DUP2 SUB PUSH2 0x118 JUMPI DUP2 MSTORE DUP3 ISZERO PUSH2 0x100 JUMPI PUSH1 0x0 DUP1 SLOAD PUSH1 0x1 PUSH1 0x1 PUSH1 0xA0 SHL SUB NOT DUP2 AND DUP6 OR DUP3 SSTORE DUP6 MLOAD SWAP5 SWAP2 SWAP1 DUP5 AND SWAP1 PUSH32 0x8BE0079C531659141344CD1FD0A4F28419497F9722A3DAAFE3B4186F6B6457E0 SWAP1 DUP1 LOG3 PUSH1 0x1 DUP1 SSTORE MLOAD AND ISZERO PUSH2 0xCE JUMPI POP MLOAD PUSH2 0xE9E SWAP1 DUP2 PUSH2 0x134 DUP3 CODECOPY RETURN JUMPDEST PUSH3 0x461BCD PUSH1 0xE5 SHL DUP2 MSTORE PUSH1 0x20 PUSH1 0x4 DUP3 ADD MSTORE PUSH1 0xD PUSH1 0x24 DUP3 ADD MSTORE PUSH13 0x24B73B30B634B21037BBB732B9 PUSH1 0x99 SHL PUSH1 0x44 DUP3 ADD MSTORE PUSH1 0x64 SWAP1 REVERT JUMPDEST DUP4 MLOAD PUSH4 0x1E4FBDF7 PUSH1 0xE0 SHL DUP2 MSTORE PUSH1 0x0 PUSH1 0x4 DUP3 ADD MSTORE PUSH1 0x24 SWAP1 REVERT JUMPDEST PUSH1 0x0 DUP1 REVERT JUMPDEST PUSH4 0x4E487B71 PUSH1 0xE0 SHL PUSH1 0x0 MSTORE PUSH1 0x41 PUSH1 0x4 MSTORE PUSH1 0x24 PUSH1 0x0 REVERT INVALID PUSH1 0x40 PUSH1 0x80 DUP2 MSTORE PUSH1 0x4 SWAP1 DUP2 CALLDATASIZE LT ISZERO PUSH2 0x15 JUMPI PUSH1 0x0 DUP1 REVERT JUMPDEST PUSH1 0x0 SWAP2 DUP3 CALLDATALOAD PUSH1 0xE0 SHR DUP1 PUSH4 0xEF7C5A7 EQ PUSH2 0x966 JUMPI DUP1 PUSH4 0x532F1179 EQ PUSH2 0x942 JUMPI DUP1 PUSH4 0x5E30B8A6 EQ PUSH2 0x656 JUMPI DUP1 PUSH4 0x69328DEC EQ PUSH2 0x335 JUMPI DUP4 DUP2 PUSH4 0x701BB891 EQ PUSH2 0x25D JUMPI POP DUP1 PUSH4 0x715018A6 EQ PUSH2 0x204 JUMPI DUP1 PUSH4 0x8C52DC41 EQ PUSH2 0x1B7 JUMPI DUP1 PUSH4 0x8DA5CB5B EQ PUSH2 0x18D JUMPI DUP1 PUSH4 0x8F601F66 EQ PUSH2 0x133 JUMPI PUSH4 0xF2FDE38B EQ PUSH2 0x91 JUMPI PUSH1 0x0 DUP1 REVERT JUMPDEST CALLVALUE PUSH2 0x12F JUMPI PUSH1 0x20 CALLDATASIZE PUSH1 0x3 NOT ADD SLT PUSH2 0x12F JUMPI PUSH2 0xAA PUSH2 0xB69 JUMP JUMPDEST SWAP1 PUSH2 0xB3 PUSH2 0xBB0 JUMP JUMPDEST PUSH1 0x1 PUSH1 0x1 PUSH1 0xA0 SHL SUB DUP1 SWAP3 AND SWAP3 DUP4 ISZERO PUSH2 0x100 JUMPI POP POP DUP3 SLOAD DUP3 PUSH1 0x1 PUSH1 0x1 PUSH1 0xA0 SHL SUB NOT DUP3 AND OR DUP5 SSTORE AND PUSH32 0x8BE0079C531659141344CD1FD0A4F28419497F9722A3DAAFE3B4186F6B6457E0 DUP4 DUP1 LOG3 DUP1 RETURN JUMPDEST SWAP1 DUP5 PUSH1 0x24 SWAP3 MLOAD SWAP2 PUSH32 0x1E4FBDF700000000000000000000000000000000000000000000000000000000 DUP4 MSTORE DUP3 ADD MSTORE REVERT JUMPDEST DUP3 DUP1 REVERT JUMPDEST DUP3 DUP5 CALLVALUE PUSH2 0x18A JUMPI DUP2 PUSH1 0x3 NOT CALLDATASIZE ADD SLT PUSH2 0x18A JUMPI DUP2 PUSH2 0x14E PUSH2 0xB69 JUMP JUMPDEST SWAP2 PUSH2 0x157 PUSH2 0xB84 JUMP JUMPDEST PUSH1 0x1 PUSH1 0x1 PUSH1 0xA0 SHL SUB DUP1 SWAP5 AND DUP3 MSTORE PUSH1 0x3 PUSH1 0x20 MSTORE DUP4 DUP4 DUP4 KECCAK256 SWAP2 AND DUP3 MSTORE PUSH1 0x20 MSTORE KECCAK256 SWAP1 PUSH1 0x1 DUP3 SLOAD SWAP3 ADD SLOAD AND DUP3 MLOAD SWAP2 DUP3 MSTORE PUSH1 0x20 DUP3 ADD MSTORE RETURN JUMPDEST DUP1 REVERT JUMPDEST POP POP CALLVALUE PUSH2 0x1B3 JUMPI DUP2 PUSH1 0x3 NOT CALLDATASIZE ADD SLT PUSH2 0x1B3 JUMPI PUSH1 0x1 PUSH1 0x1 PUSH1 0xA0 SHL SUB PUSH1 0x20 SWAP3 SLOAD AND SWAP1 MLOAD SWAP1 DUP2 MSTORE RETURN JUMPDEST POP DUP1 REVERT JUMPDEST DUP4 CALLVALUE PUSH2 0x18A JUMPI DUP1 PUSH1 0x3 NOT CALLDATASIZE ADD SLT PUSH2 0x18A JUMPI PUSH2 0x1D0 PUSH2 0xBB0 JUMP JUMPDEST PUSH1 0x1 PUSH1 0xFF NOT PUSH1 0x2 SLOAD AND OR PUSH1 0x2 SSTORE PUSH32 0x599D8E5A83CFFB867D051598C4D70E805D59802D8081C1C7D6DFFC5B6ACA2B89 DUP2 DUP1 LOG1 DUP1 RETURN JUMPDEST DUP4 CALLVALUE PUSH2 0x18A JUMPI DUP1 PUSH1 0x3 NOT CALLDATASIZE ADD SLT PUSH2 0x18A JUMPI PUSH2 0x21D PUSH2 0xBB0 JUMP JUMPDEST DUP1 PUSH1 0x1 PUSH1 0x1 PUSH1 0xA0 SHL SUB DUP2 SLOAD PUSH1 0x1 PUSH1 0x1 PUSH1 0xA0 SHL SUB NOT DUP2 AND DUP4 SSTORE AND PUSH32 0x8BE0079C531659141344CD1FD0A4F28419497F9722A3DAAFE3B4186F6B6457E0 DUP3 DUP1 LOG3 DUP1 RETURN JUMPDEST DUP1 DUP5 DUP1 PUSH1 0x3 NOT CALLDATASIZE ADD SLT PUSH2 0x332 JUMPI PUSH2 0x272 PUSH2 0xB69 JUMP JUMPDEST SWAP1 PUSH32 0x4174A9435A04D04D274C76779CAD136A41FDE6937C56241C09AB9D3C7064A1A9 PUSH1 0x20 PUSH2 0x29E PUSH2 0xB84 JUMP JUMPDEST SWAP3 PUSH1 0x1 PUSH1 0x1 PUSH1 0xA0 SHL SUB DUP1 DUP1 SWAP7 AND SWAP5 PUSH2 0x2B7 DUP7 CALLER EQ PUSH2 0xBF4 JUMP JUMPDEST PUSH2 0x2C2 CALLVALUE ISZERO ISZERO PUSH2 0xC65 JUMP JUMPDEST PUSH2 0x2D1 PUSH1 0xFF PUSH1 0x2 SLOAD AND ISZERO PUSH2 0xCB0 JUMP JUMPDEST PUSH2 0x2DC DUP7 ISZERO ISZERO PUSH2 0xCFB JUMP JUMPDEST AND SWAP5 PUSH2 0x2E9 DUP7 ISZERO ISZERO PUSH2 0xD46 JUMP JUMPDEST DUP2 MLOAD SWAP1 PUSH2 0x2F5 DUP3 PUSH2 0xD91 JUMP JUMPDEST CALLVALUE DUP3 MSTORE PUSH1 0x1 DUP5 DUP4 ADD SWAP3 DUP10 DUP5 MSTORE DUP8 DUP11 MSTORE PUSH1 0x3 DUP7 MSTORE DUP5 DUP11 KECCAK256 DUP10 DUP12 MSTORE DUP7 MSTORE DUP5 DUP11 KECCAK256 SWAP1 MLOAD DUP2 SSTORE ADD SWAP2 MLOAD AND PUSH1 0x1 PUSH1 0x1 PUSH1 0xA0 SHL SUB NOT DUP3 SLOAD AND OR SWAP1 SSTORE MLOAD CALLVALUE DUP2 MSTORE LOG4 DUP1 RETURN JUMPDEST POP REVERT JUMPDEST POP SWAP1 CALLVALUE PUSH2 0x12F JUMPI PUSH1 0x60 CALLDATASIZE PUSH1 0x3 NOT ADD SLT PUSH2 0x12F JUMPI PUSH2 0x350 PUSH2 0xB69 JUMP JUMPDEST SWAP2 PUSH1 0x24 SWAP2 DUP3 CALLDATALOAD SWAP2 PUSH2 0x35F PUSH2 0xB9A JUMP JUMPDEST SWAP4 PUSH2 0x368 PUSH2 0xBB0 JUMP JUMPDEST PUSH2 0x370 PUSH2 0xE16 JUMP JUMPDEST PUSH1 0x1 PUSH1 0x1 PUSH1 0xA0 SHL SUB DUP1 DUP7 AND SWAP7 DUP8 ISZERO PUSH2 0x614 JUMPI AND SWAP5 DUP6 PUSH2 0x45D JUMPI POP DUP4 SELFBALANCE LT PUSH2 0x41C JUMPI DUP7 DUP1 DUP1 DUP1 DUP8 DUP11 GAS CALL PUSH2 0x3A1 PUSH2 0xE51 JUMP JUMPDEST POP ISZERO PUSH2 0x3DB JUMPI POP POP PUSH32 0xCBCDBDF10631A43CC99C80ACACE8232649421C3F4F73919F16013D47C83A687A SWAP2 PUSH1 0x20 SWAP2 JUMPDEST MLOAD SWAP1 DUP2 MSTORE LOG3 PUSH1 0x1 DUP1 SSTORE DUP1 RETURN JUMPDEST PUSH1 0x13 SWAP1 PUSH1 0x20 PUSH1 0x64 SWAP5 MLOAD SWAP4 PUSH3 0x461BCD PUSH1 0xE5 SHL DUP6 MSTORE DUP5 ADD MSTORE DUP3 ADD MSTORE PUSH32 0x455448207769746864726177206661696C656400000000000000000000000000 PUSH1 0x44 DUP3 ADD MSTORE REVERT JUMPDEST PUSH1 0x10 SWAP1 PUSH1 0x20 PUSH1 0x64 SWAP5 MLOAD SWAP4 PUSH3 0x461BCD PUSH1 0xE5 SHL DUP6 MSTORE DUP5 ADD MSTORE DUP3 ADD MSTORE PUSH32 0x496E73756666696369656E742045544800000000000000000000000000000000 PUSH1 0x44 DUP3 ADD MSTORE REVERT JUMPDEST DUP4 MLOAD SWAP1 PUSH32 0x70A0823100000000000000000000000000000000000000000000000000000000 DUP3 MSTORE ADDRESS DUP5 DUP4 ADD MSTORE PUSH1 0x20 SWAP2 DUP3 DUP2 DUP6 DUP2 DUP12 GAS STATICCALL SWAP1 DUP2 ISZERO PUSH2 0x60A JUMPI SWAP1 DUP8 SWAP2 DUP12 SWAP2 PUSH2 0x5D5 JUMPI JUMPDEST POP LT PUSH2 0x594 JUMPI DUP5 MLOAD PUSH4 0xA9059CBB PUSH1 0xE0 SHL DUP2 MSTORE PUSH1 0x1 PUSH1 0x1 PUSH1 0xA0 SHL SUB SWAP1 SWAP2 AND DUP5 DUP3 ADD SWAP1 DUP2 MSTORE PUSH1 0x20 DUP2 ADD DUP8 SWAP1 MSTORE DUP3 SWAP1 DUP3 SWAP1 DUP2 SWAP1 PUSH1 0x40 ADD SUB DUP2 DUP13 DUP12 GAS CALL SWAP1 DUP2 ISZERO PUSH2 0x58A JUMPI DUP10 SWAP2 PUSH2 0x55D JUMPI JUMPDEST POP ISZERO PUSH2 0x51D JUMPI POP POP POP PUSH32 0xCBCDBDF10631A43CC99C80ACACE8232649421C3F4F73919F16013D47C83A687A SWAP2 PUSH1 0x20 SWAP2 PUSH2 0x3CF JUMP JUMPDEST SWAP1 PUSH1 0x15 SWAP2 PUSH1 0x64 SWAP5 MLOAD SWAP4 PUSH3 0x461BCD PUSH1 0xE5 SHL DUP6 MSTORE DUP5 ADD MSTORE DUP3 ADD MSTORE PUSH32 0x546F6B656E207769746864726177206661696C65640000000000000000000000 PUSH1 0x44 DUP3 ADD MSTORE REVERT JUMPDEST PUSH2 0x57D SWAP2 POP DUP3 RETURNDATASIZE DUP5 GT PUSH2 0x583 JUMPI JUMPDEST PUSH2 0x575 DUP2 DUP4 PUSH2 0xDDC JUMP JUMPDEST DUP2 ADD SWAP1 PUSH2 0xDFE JUMP JUMPDEST CODESIZE PUSH2 0x4EA JUMP JUMPDEST POP RETURNDATASIZE PUSH2 0x56B JUMP JUMPDEST DUP6 MLOAD RETURNDATASIZE DUP12 DUP3 RETURNDATACOPY RETURNDATASIZE SWAP1 REVERT JUMPDEST POP SWAP1 PUSH1 0x13 SWAP2 PUSH1 0x64 SWAP5 MLOAD SWAP4 PUSH3 0x461BCD PUSH1 0xE5 SHL DUP6 MSTORE DUP5 ADD MSTORE DUP3 ADD MSTORE PUSH32 0x496E73756666696369656E7420746F6B656E7300000000000000000000000000 PUSH1 0x44 DUP3 ADD MSTORE REVERT JUMPDEST DUP1 SWAP3 POP DUP5 DUP1 SWAP3 POP RETURNDATASIZE DUP4 GT PUSH2 0x603 JUMPI JUMPDEST PUSH2 0x5EE DUP2 DUP4 PUSH2 0xDDC JUMP JUMPDEST DUP2 ADD SUB SLT PUSH2 0x5FF JUMPI DUP7 SWAP1 MLOAD CODESIZE PUSH2 0x4A3 JUMP JUMPDEST DUP10 DUP1 REVERT JUMPDEST POP RETURNDATASIZE PUSH2 0x5E4 JUMP JUMPDEST DUP7 MLOAD RETURNDATASIZE DUP13 DUP3 RETURNDATACOPY RETURNDATASIZE SWAP1 REVERT JUMPDEST PUSH1 0x64 DUP5 PUSH1 0x11 DUP6 PUSH1 0x20 DUP10 MLOAD SWAP4 PUSH3 0x461BCD PUSH1 0xE5 SHL DUP6 MSTORE DUP5 ADD MSTORE DUP3 ADD MSTORE PUSH32 0x496E76616C696420726563697069656E74000000000000000000000000000000 PUSH1 0x44 DUP3 ADD MSTORE REVERT JUMPDEST POP SWAP1 CALLVALUE PUSH2 0x12F JUMPI DUP1 PUSH1 0x3 NOT CALLDATASIZE ADD SLT PUSH2 0x12F JUMPI PUSH2 0x670 PUSH2 0xB69 JUMP JUMPDEST SWAP1 PUSH2 0x679 PUSH2 0xB84 JUMP JUMPDEST SWAP3 PUSH2 0x682 PUSH2 0xBB0 JUMP JUMPDEST PUSH2 0x68A PUSH2 0xE16 JUMP JUMPDEST PUSH1 0xFF PUSH1 0x2 SLOAD AND ISZERO PUSH2 0x900 JUMPI PUSH1 0x1 PUSH1 0x1 PUSH1 0xA0 SHL SUB DUP1 SWAP4 AND SWAP2 PUSH2 0x6AC DUP4 ISZERO ISZERO PUSH2 0xCFB JUMP JUMPDEST DUP4 DUP6 AND SWAP4 PUSH2 0x6BB DUP6 ISZERO ISZERO PUSH2 0xD46 JUMP JUMPDEST DUP4 DUP8 MSTORE PUSH1 0x20 SWAP3 PUSH1 0x3 DUP5 MSTORE DUP3 DUP9 KECCAK256 DUP7 DUP10 MSTORE DUP5 MSTORE DUP3 DUP9 KECCAK256 SWAP1 DUP4 MLOAD SWAP8 PUSH2 0x6DD DUP10 PUSH2 0xD91 JUMP JUMPDEST DUP4 PUSH1 0x1 DUP5 SLOAD SWAP5 DUP6 DUP13 MSTORE ADD SLOAD AND SWAP3 DUP7 DUP11 ADD SWAP4 DUP5 MSTORE ISZERO PUSH2 0x8BE JUMPI DUP10 DUP5 PUSH1 0x1 DUP8 MLOAD PUSH2 0x704 DUP2 PUSH2 0xD91 JUMP JUMPDEST DUP4 DUP2 MSTORE DUP9 DUP11 DUP3 ADD SWAP5 DUP1 DUP7 MSTORE DUP13 DUP2 MSTORE PUSH1 0x3 DUP13 MSTORE DUP14 DUP3 DUP3 KECCAK256 SWAP1 DUP3 MSTORE DUP13 MSTORE KECCAK256 SWAP1 MLOAD DUP2 SSTORE ADD SWAP2 MLOAD AND PUSH1 0x1 PUSH1 0x1 PUSH1 0xA0 SHL SUB NOT DUP3 SLOAD AND OR SWAP1 SSTORE DUP6 DUP5 DUP5 MLOAD AND SWAP2 DUP3 ISZERO PUSH1 0x0 EQ PUSH2 0x7DA JUMPI POP POP POP DUP9 DUP1 DUP1 DUP1 DUP12 MLOAD DUP12 GAS CALL PUSH2 0x75A PUSH2 0xE51 JUMP JUMPDEST POP ISZERO PUSH2 0x798 JUMPI POP SWAP1 PUSH32 0xB7C482F0C0B7AD56E2C7004BE448A8EAD98A8BBE84675FD80B273563099F8560 SWAP4 SWAP3 SWAP2 JUMPDEST MLOAD AND SWAP6 MLOAD SWAP1 MLOAD SWAP1 DUP2 MSTORE LOG4 PUSH1 0x1 DUP1 SSTORE DUP1 RETURN JUMPDEST PUSH1 0x64 SWAP1 DUP6 DUP6 MLOAD SWAP2 PUSH3 0x461BCD PUSH1 0xE5 SHL DUP4 MSTORE DUP3 ADD MSTORE PUSH1 0x11 PUSH1 0x24 DUP3 ADD MSTORE PUSH32 0x45544820726566756E64206661696C6564000000000000000000000000000000 PUSH1 0x44 DUP3 ADD MSTORE REVERT JUMPDEST PUSH2 0x812 SWAP3 DUP12 MLOAD SWAP2 DUP14 DUP10 MLOAD DUP1 SWAP7 DUP2 SWAP6 DUP3 SWAP5 PUSH4 0xA9059CBB PUSH1 0xE0 SHL DUP5 MSTORE DUP11 DUP5 ADD PUSH1 0x20 SWAP1 SWAP4 SWAP3 SWAP2 SWAP4 PUSH1 0x1 PUSH1 0x1 PUSH1 0xA0 SHL SUB PUSH1 0x40 DUP3 ADD SWAP6 AND DUP2 MSTORE ADD MSTORE JUMP JUMPDEST SUB SWAP3 GAS CALL SWAP1 DUP2 ISZERO PUSH2 0x8B4 JUMPI DUP11 SWAP2 PUSH2 0x897 JUMPI JUMPDEST POP ISZERO PUSH2 0x855 JUMPI POP SWAP1 PUSH32 0xB7C482F0C0B7AD56E2C7004BE448A8EAD98A8BBE84675FD80B273563099F8560 SWAP4 SWAP3 SWAP2 PUSH2 0x787 JUMP JUMPDEST PUSH1 0x64 SWAP1 DUP6 DUP6 MLOAD SWAP2 PUSH3 0x461BCD PUSH1 0xE5 SHL DUP4 MSTORE DUP3 ADD MSTORE PUSH1 0x13 PUSH1 0x24 DUP3 ADD MSTORE PUSH32 0x546F6B656E20726566756E64206661696C656400000000000000000000000000 PUSH1 0x44 DUP3 ADD MSTORE REVERT JUMPDEST PUSH2 0x8AE SWAP2 POP DUP7 RETURNDATASIZE DUP9 GT PUSH2 0x583 JUMPI PUSH2 0x575 DUP2 DUP4 PUSH2 0xDDC JUMP JUMPDEST CODESIZE PUSH2 0x824 JUMP JUMPDEST DUP6 MLOAD RETURNDATASIZE DUP13 DUP3 RETURNDATACOPY RETURNDATASIZE SWAP1 REVERT JUMPDEST PUSH1 0x64 DUP3 DUP8 DUP8 MLOAD SWAP2 PUSH3 0x461BCD PUSH1 0xE5 SHL DUP4 MSTORE DUP3 ADD MSTORE PUSH1 0x11 PUSH1 0x24 DUP3 ADD MSTORE PUSH32 0x4E6F7468696E6720746F20726566756E64000000000000000000000000000000 PUSH1 0x44 DUP3 ADD MSTORE REVERT JUMPDEST PUSH1 0x20 PUSH1 0x64 SWAP3 MLOAD SWAP2 PUSH3 0x461BCD PUSH1 0xE5 SHL DUP4 MSTORE DUP3 ADD MSTORE PUSH1 0x13 PUSH1 0x24 DUP3 ADD MSTORE PUSH32 0x526566756E6473206E6F7420656E61626C656400000000000000000000000000 PUSH1 0x44 DUP3 ADD MSTORE REVERT JUMPDEST POP POP CALLVALUE PUSH2 0x1B3 JUMPI DUP2 PUSH1 0x3 NOT CALLDATASIZE ADD SLT PUSH2 0x1B3 JUMPI PUSH1 0x20 SWAP1 PUSH1 0xFF PUSH1 0x2 SLOAD AND SWAP1 MLOAD SWAP1 ISZERO ISZERO DUP2 MSTORE RETURN JUMPDEST POP SWAP1 CALLVALUE PUSH2 0x12F JUMPI PUSH1 0x80 CALLDATASIZE PUSH1 0x3 NOT ADD SLT PUSH2 0x12F JUMPI PUSH2 0x981 PUSH2 0xB69 JUMP JUMPDEST SWAP1 PUSH2 0x98A PUSH2 0xB84 JUMP JUMPDEST SWAP3 PUSH2 0x993 PUSH2 0xB9A JUMP JUMPDEST SWAP2 PUSH1 0x64 CALLDATALOAD SWAP1 PUSH2 0x9A0 PUSH2 0xE16 JUMP JUMPDEST PUSH1 0x1 PUSH1 0x1 PUSH1 0xA0 SHL SUB DUP1 DUP1 SWAP7 AND SWAP5 PUSH2 0x9B8 DUP7 CALLER EQ PUSH2 0xBF4 JUMP JUMPDEST AND SWAP6 DUP7 ISZERO PUSH2 0xB26 JUMPI DUP6 SWAP1 PUSH2 0x9CD DUP5 ISZERO ISZERO PUSH2 0xC65 JUMP JUMPDEST PUSH2 0x9DC PUSH1 0xFF PUSH1 0x2 SLOAD AND ISZERO PUSH2 0xCB0 JUMP JUMPDEST PUSH2 0x9E7 DUP7 ISZERO ISZERO PUSH2 0xCFB JUMP JUMPDEST AND SWAP5 PUSH2 0x9F4 DUP7 ISZERO ISZERO PUSH2 0xD46 JUMP JUMPDEST DUP2 MLOAD SWAP4 PUSH32 0x23B872DD00000000000000000000000000000000000000000000000000000000 DUP6 MSTORE DUP6 DUP2 DUP7 ADD MSTORE ADDRESS PUSH1 0x24 DUP7 ADD MSTORE DUP4 PUSH1 0x44 DUP7 ADD MSTORE PUSH1 0x20 SWAP5 DUP6 DUP2 PUSH1 0x64 DUP2 DUP14 DUP14 GAS CALL SWAP1 DUP2 ISZERO PUSH2 0xB1C JUMPI DUP11 SWAP2 PUSH2 0xAFF JUMPI JUMPDEST POP ISZERO PUSH2 0xABD JUMPI POP DUP2 MLOAD PUSH32 0x4174A9435A04D04D274C76779CAD136A41FDE6937C56241C09AB9D3C7064A1A9 SWAP5 SWAP4 SWAP3 SWAP2 PUSH2 0xA7C DUP3 PUSH2 0xD91 JUMP JUMPDEST DUP4 DUP3 MSTORE PUSH1 0x1 DUP6 DUP4 ADD SWAP3 DUP11 DUP5 MSTORE DUP9 DUP13 MSTORE PUSH1 0x3 DUP8 MSTORE DUP5 DUP13 KECCAK256 DUP11 DUP14 MSTORE DUP8 MSTORE DUP5 DUP13 KECCAK256 SWAP1 MLOAD DUP2 SSTORE ADD SWAP2 MLOAD AND PUSH1 0x1 PUSH1 0x1 PUSH1 0xA0 SHL SUB NOT DUP3 SLOAD AND OR SWAP1 SSTORE MLOAD SWAP1 DUP2 MSTORE LOG4 PUSH1 0x1 DUP1 SSTORE DUP1 RETURN JUMPDEST PUSH1 0x64 SWAP1 DUP6 DUP5 MLOAD SWAP2 PUSH3 0x461BCD PUSH1 0xE5 SHL DUP4 MSTORE DUP3 ADD MSTORE PUSH1 0xF PUSH1 0x24 DUP3 ADD MSTORE PUSH32 0x5472616E73666572206661696C65640000000000000000000000000000000000 PUSH1 0x44 DUP3 ADD MSTORE REVERT JUMPDEST PUSH2 0xB16 SWAP2 POP DUP7 RETURNDATASIZE DUP9 GT PUSH2 0x583 JUMPI PUSH2 0x575 DUP2 DUP4 PUSH2 0xDDC JUMP JUMPDEST CODESIZE PUSH2 0xA45 JUMP JUMPDEST DUP5 MLOAD RETURNDATASIZE DUP13 DUP3 RETURNDATACOPY RETURNDATASIZE SWAP1 REVERT JUMPDEST PUSH1 0x64 DUP5 PUSH1 0x20 DUP5 MLOAD SWAP2 PUSH3 0x461BCD PUSH1 0xE5 SHL DUP4 MSTORE DUP3 ADD MSTORE PUSH1 0xD PUSH1 0x24 DUP3 ADD MSTORE PUSH32 0x496E76616C696420746F6B656E00000000000000000000000000000000000000 PUSH1 0x44 DUP3 ADD MSTORE REVERT JUMPDEST PUSH1 0x4 CALLDATALOAD SWAP1 PUSH1 0x1 PUSH1 0x1 PUSH1 0xA0 SHL SUB DUP3 AND DUP3 SUB PUSH2 0xB7F JUMPI JUMP JUMPDEST PUSH1 0x0 DUP1 REVERT JUMPDEST PUSH1 0x24 CALLDATALOAD SWAP1 PUSH1 0x1 PUSH1 0x1 PUSH1 0xA0 SHL SUB DUP3 AND DUP3 SUB PUSH2 0xB7F JUMPI JUMP JUMPDEST PUSH1 0x44 CALLDATALOAD SWAP1 PUSH1 0x1 PUSH1 0x1 PUSH1 0xA0 SHL SUB DUP3 AND DUP3 SUB PUSH2 0xB7F JUMPI JUMP JUMPDEST PUSH1 0x1 PUSH1 0x1 PUSH1 0xA0 SHL SUB PUSH1 0x0 SLOAD AND CALLER SUB PUSH2 0xBC4 JUMPI JUMP JUMPDEST PUSH1 0x24 PUSH1 0x40 MLOAD PUSH32 0x118CDAA700000000000000000000000000000000000000000000000000000000 DUP2 MSTORE CALLER PUSH1 0x4 DUP3 ADD MSTORE REVERT JUMPDEST ISZERO PUSH2 0xBFB JUMPI JUMP JUMPDEST PUSH1 0x84 PUSH1 0x40 MLOAD PUSH3 0x461BCD PUSH1 0xE5 SHL DUP2 MSTORE PUSH1 0x20 PUSH1 0x4 DUP3 ADD MSTORE PUSH1 0x22 PUSH1 0x24 DUP3 ADD MSTORE PUSH32 0x4F6E6C79206F66666572696E6720636F6E74726163742063616E206465706F73 PUSH1 0x44 DUP3 ADD MSTORE PUSH32 0x6974000000000000000000000000000000000000000000000000000000000000 PUSH1 0x64 DUP3 ADD MSTORE REVERT JUMPDEST ISZERO PUSH2 0xC6C JUMPI JUMP JUMPDEST PUSH1 0x64 PUSH1 0x40 MLOAD PUSH3 0x461BCD PUSH1 0xE5 SHL DUP2 MSTORE PUSH1 0x20 PUSH1 0x4 DUP3 ADD MSTORE PUSH1 0xE PUSH1 0x24 DUP3 ADD MSTORE PUSH32 0x496E76616C696420616D6F756E74000000000000000000000000000000000000 PUSH1 0x44 DUP3 ADD MSTORE REVERT JUMPDEST ISZERO PUSH2 0xCB7 JUMPI JUMP JUMPDEST PUSH1 0x64 PUSH1 0x40 MLOAD PUSH3 0x461BCD PUSH1 0xE5 SHL DUP2 MSTORE PUSH1 0x20 PUSH1 0x4 DUP3 ADD MSTORE PUSH1 0x17 PUSH1 0x24 DUP3 ADD MSTORE PUSH32 0x526566756E647320616C726561647920656E61626C6564000000000000000000 PUSH1 0x44 DUP3 ADD MSTORE REVERT JUMPDEST ISZERO PUSH2 0xD02 JUMPI JUMP JUMPDEST PUSH1 0x64 PUSH1 0x40 MLOAD PUSH3 0x461BCD PUSH1 0xE5 SHL DUP2 MSTORE PUSH1 0x20 PUSH1 0x4 DUP3 ADD MSTORE PUSH1 0x19 PUSH1 0x24 DUP3 ADD MSTORE PUSH32 0x496E76616C6964206F66666572696E6720636F6E747261637400000000000000 PUSH1 0x44 DUP3 ADD MSTORE REVERT JUMPDEST ISZERO PUSH2 0xD4D JUMPI JUMP JUMPDEST PUSH1 0x64 PUSH1 0x40 MLOAD PUSH3 0x461BCD PUSH1 0xE5 SHL DUP2 MSTORE PUSH1 0x20 PUSH1 0x4 DUP3 ADD MSTORE PUSH1 0x18 PUSH1 0x24 DUP3 ADD MSTORE PUSH32 0x496E76616C696420696E766573746F7220616464726573730000000000000000 PUSH1 0x44 DUP3 ADD MSTORE REVERT JUMPDEST PUSH1 0x40 DUP2 ADD SWAP1 DUP2 LT PUSH8 0xFFFFFFFFFFFFFFFF DUP3 GT OR PUSH2 0xDAD JUMPI PUSH1 0x40 MSTORE JUMP JUMPDEST PUSH32 0x4E487B7100000000000000000000000000000000000000000000000000000000 PUSH1 0x0 MSTORE PUSH1 0x41 PUSH1 0x4 MSTORE PUSH1 0x24 PUSH1 0x0 REVERT JUMPDEST SWAP1 PUSH1 0x1F DUP1 NOT SWAP2 ADD AND DUP2 ADD SWAP1 DUP2 LT PUSH8 0xFFFFFFFFFFFFFFFF DUP3 GT OR PUSH2 0xDAD JUMPI PUSH1 0x40 MSTORE JUMP JUMPDEST SWAP1 DUP2 PUSH1 0x20 SWAP2 SUB SLT PUSH2 0xB7F JUMPI MLOAD DUP1 ISZERO ISZERO DUP2 SUB PUSH2 0xB7F JUMPI SWAP1 JUMP JUMPDEST PUSH1 0x2 PUSH1 0x1 SLOAD EQ PUSH2 0xE27 JUMPI PUSH1 0x2 PUSH1 0x1 SSTORE JUMP JUMPDEST PUSH1 0x4 PUSH1 0x40 MLOAD PUSH32 0x3EE5AEB500000000000000000000000000000000000000000000000000000000 DUP2 MSTORE REVERT JUMPDEST RETURNDATASIZE ISZERO PUSH2 0xE8C JUMPI RETURNDATASIZE SWAP1 PUSH8 0xFFFFFFFFFFFFFFFF DUP3 GT PUSH2 0xDAD JUMPI PUSH1 0x40 MLOAD SWAP2 PUSH2 0xE80 PUSH1 0x1F DUP3 ADD PUSH1 0x1F NOT AND PUSH1 0x20 ADD DUP5 PUSH2 0xDDC JUMP JUMPDEST DUP3 MSTORE RETURNDATASIZE PUSH1 0x0 PUSH1 0x20 DUP5 ADD RETURNDATACOPY JUMP JUMPDEST PUSH1 0x60 SWAP1 JUMP INVALID LOG1 PUSH5 0x736F6C6343 STOP ADDMOD EQ STOP EXP "},"methodIdentifiers":{"depositNative(address,address)":"701bb891","depositToken(address,address,address,uint256)":"0ef7c5a7","deposits(address,address)":"8f601f66","enableRefunds()":"8c52dc41","owner()":"8da5cb5b","refund(address,address)":"5e30b8a6","refundsEnabled()":"532f1179","renounceOwnership()":"715018a6","transferOwnership(address)":"f2fde38b","withdraw(address,uint256,address)":"69328dec"}}}}}