{"contracts/Offering.sol":{"Offering":{"abi":[{"inputs":[],"name":"AccessControlBadConfirmation","type":"error"},{"inputs":[{"internalType":"address","name":"account","type":"address"},{"internalType":"bytes32","name":"neededRole","type":"bytes32"}],"name":"AccessControlUnauthorizedAccount","type":"error"},{"inputs":[],"name":"EnforcedPause","type":"error"},{"inputs":[],"name":"ExpectedPause","type":"error"},{"inputs":[],"name":"ReentrancyGuardReentrantCall","type":"error"},{"anonymous":false,"inputs":[{"indexed":true,"internalType":"address","name":"investor","type":"address"},{"indexed":false,"internalType":"uint256","name":"amount","type":"uint256"}],"name":"Claimed","type":"event"},{"anonymous":false,"inputs":[{"indexed":true,"internalType":"address","name":"investor","type":"address"},{"indexed":false,"internalType":"address","name":"paymentToken","type":"address"},{"indexed":false,"internalType":"uint256","name":"paidAmount","type":"uint256"},{"indexed":false,"internalType":"uint256","name":"tokensReceived","type":"uint256"}],"name":"Invested","type":"event"},{"anonymous":false,"inputs":[{"indexed":true,"internalType":"address","name":"token","type":"address"},{"indexed":false,"internalType":"address","name":"oracle","type":"address"}],"name":"OracleSet","type":"event"},{"anonymous":false,"inputs":[{"indexed":false,"internalType":"address","name":"account","type":"address"}],"name":"Paused","type":"event"},{"anonymous":false,"inputs":[{"indexed":true,"internalType":"address","name":"token","type":"address"},{"indexed":false,"internalType":"bool","name":"status","type":"bool"}],"name":"PaymentTokenWhitelisted","type":"event"},{"anonymous":false,"inputs":[{"indexed":true,"internalType":"address","name":"token","type":"address"},{"indexed":false,"internalType":"uint256","name":"amount","type":"uint256"},{"indexed":true,"internalType":"address","name":"to","type":"address"}],"name":"Rescue","type":"event"},{"anonymous":false,"inputs":[{"indexed":true,"internalType":"bytes32","name":"role","type":"bytes32"},{"indexed":true,"internalType":"bytes32","name":"previousAdminRole","type":"bytes32"},{"indexed":true,"internalType":"bytes32","name":"newAdminRole","type":"bytes32"}],"name":"RoleAdminChanged","type":"event"},{"anonymous":false,"inputs":[{"indexed":true,"internalType":"bytes32","name":"role","type":"bytes32"},{"indexed":true,"internalType":"address","name":"account","type":"address"},{"indexed":true,"internalType":"address","name":"sender","type":"address"}],"name":"RoleGranted","type":"event"},{"anonymous":false,"inputs":[{"indexed":true,"internalType":"bytes32","name":"role","type":"bytes32"},{"indexed":true,"internalType":"address","name":"account","type":"address"},{"indexed":true,"internalType":"address","name":"sender","type":"address"}],"name":"RoleRevoked","type":"event"},{"anonymous":false,"inputs":[{"indexed":false,"internalType":"uint256","name":"totalRaised","type":"uint256"}],"name":"SaleClosed","type":"event"},{"anonymous":false,"inputs":[{"indexed":false,"internalType":"uint256","name":"newPrice","type":"uint256"}],"name":"TokenPriceUpdated","type":"event"},{"anonymous":false,"inputs":[{"indexed":true,"internalType":"address","name":"to","type":"address"},{"indexed":false,"internalType":"uint256","name":"amount","type":"uint256"}],"name":"UnclaimedTokensReclaimed","type":"event"},{"anonymous":false,"inputs":[{"indexed":false,"internalType":"address","name":"account","type":"address"}],"name":"Unpaused","type":"event"},{"stateMutability":"payable","type":"fallback"},{"inputs":[],"name":"DEFAULT_ADMIN_ROLE","outputs":[{"internalType":"bytes32","name":"","type":"bytes32"}],"stateMutability":"view","type":"function"},{"inputs":[],"name":"TOKEN_OWNER_ROLE","outputs":[{"internalType":"bytes32","name":"","type":"bytes32"}],"stateMutability":"view","type":"function"},{"inputs":[],"name":"apyEnabled","outputs":[{"internalType":"bool","name":"","type":"bool"}],"stateMutability":"view","type":"function"},{"inputs":[],"name":"autoTransfer","outputs":[{"internalType":"bool","name":"","type":"bool"}],"stateMutability":"view","type":"function"},{"inputs":[{"internalType":"address","name":"_investor","type":"address"}],"name":"claimTokens","outputs":[{"internalType":"uint256","name":"","type":"uint256"}],"stateMutability":"nonpayable","type":"function"},{"inputs":[],"name":"defaultPayoutFrequency","outputs":[{"internalType":"enum IWRAPEDTOKEN.PayoutFrequency","name":"","type":"uint8"}],"stateMutability":"view","type":"function"},{"inputs":[],"name":"endDate","outputs":[{"internalType":"uint256","name":"","type":"uint256"}],"stateMutability":"view","type":"function"},{"inputs":[],"name":"escrowAddress","outputs":[{"internalType":"address","name":"","type":"address"}],"stateMutability":"view","type":"function"},{"inputs":[],"name":"fundraisingCap","outputs":[{"internalType":"uint256","name":"","type":"uint256"}],"stateMutability":"view","type":"function"},{"inputs":[{"internalType":"bytes32","name":"role","type":"bytes32"}],"name":"getRoleAdmin","outputs":[{"internalType":"bytes32","name":"","type":"bytes32"}],"stateMutability":"view","type":"function"},{"inputs":[{"internalType":"bytes32","name":"role","type":"bytes32"},{"internalType":"address","name":"account","type":"address"}],"name":"grantRole","outputs":[],"stateMutability":"nonpayable","type":"function"},{"inputs":[{"internalType":"address","name":"newOwner","type":"address"}],"name":"grantTokenOwner","outputs":[],"stateMutability":"nonpayable","type":"function"},{"inputs":[{"internalType":"bytes32","name":"role","type":"bytes32"},{"internalType":"address","name":"account","type":"address"}],"name":"hasRole","outputs":[{"internalType":"bool","name":"","type":"bool"}],"stateMutability":"view","type":"function"},{"inputs":[{"components":[{"internalType":"address","name":"saleToken","type":"address"},{"internalType":"uint256","name":"minInvestment","type":"uint256"},{"internalType":"uint256","name":"maxInvestment","type":"uint256"},{"internalType":"uint256","name":"startDate","type":"uint256"},{"internalType":"uint256","name":"endDate","type":"uint256"},{"internalType":"uint256","name":"maturityDate","type":"uint256"},{"internalType":"bool","name":"autoTransfer","type":"bool"},{"internalType":"uint256","name":"fundraisingCap","type":"uint256"},{"internalType":"uint256","name":"tokenPrice","type":"uint256"},{"internalType":"address","name":"tokenOwner","type":"address"},{"internalType":"address","name":"escrowAddress","type":"address"},{"internalType":"bool","name":"apyEnabled","type":"bool"},{"internalType":"address","name":"wrappedTokenAddress","type":"address"},{"internalType":"address","name":"investmentManager","type":"address"},{"internalType":"address","name":"payoutTokenAddress","type":"address"},{"internalType":"uint256","name":"payoutRate","type":"uint256"},{"internalType":"enum IWRAPEDTOKEN.PayoutFrequency","name":"defaultPayoutFrequency","type":"uint8"}],"internalType":"struct InitConfig","name":"config","type":"tuple"}],"name":"initialize","outputs":[],"stateMutability":"nonpayable","type":"function"},{"inputs":[{"internalType":"address","name":"paymentToken","type":"address"},{"internalType":"address","name":"investor","type":"address"},{"internalType":"uint256","name":"paymentAmount","type":"uint256"}],"name":"invest","outputs":[{"internalType":"uint256","name":"","type":"uint256"}],"stateMutability":"payable","type":"function"},{"inputs":[],"name":"investmentManager","outputs":[{"internalType":"address","name":"","type":"address"}],"stateMutability":"view","type":"function"},{"inputs":[],"name":"isSaleClosed","outputs":[{"internalType":"bool","name":"","type":"bool"}],"stateMutability":"view","type":"function"},{"inputs":[],"name":"maturityDate","outputs":[{"internalType":"uint256","name":"","type":"uint256"}],"stateMutability":"view","type":"function"},{"inputs":[],"name":"maxInvestment","outputs":[{"internalType":"uint256","name":"","type":"uint256"}],"stateMutability":"view","type":"function"},{"inputs":[],"name":"minInvestment","outputs":[{"internalType":"uint256","name":"","type":"uint256"}],"stateMutability":"view","type":"function"},{"inputs":[],"name":"pause","outputs":[],"stateMutability":"nonpayable","type":"function"},{"inputs":[],"name":"paused","outputs":[{"internalType":"bool","name":"","type":"bool"}],"stateMutability":"view","type":"function"},{"inputs":[],"name":"payoutRate","outputs":[{"internalType":"uint256","name":"","type":"uint256"}],"stateMutability":"view","type":"function"},{"inputs":[],"name":"payoutTokenAddress","outputs":[{"internalType":"address","name":"","type":"address"}],"stateMutability":"view","type":"function"},{"inputs":[{"internalType":"address","name":"","type":"address"}],"name":"pendingTokens","outputs":[{"internalType":"uint256","name":"","type":"uint256"}],"stateMutability":"view","type":"function"},{"inputs":[{"internalType":"address","name":"to","type":"address"}],"name":"reclaimUnclaimedTokens","outputs":[],"stateMutability":"nonpayable","type":"function"},{"inputs":[{"internalType":"address","name":"token","type":"address"}],"name":"removeTokenOracle","outputs":[],"stateMutability":"nonpayable","type":"function"},{"inputs":[{"internalType":"bytes32","name":"role","type":"bytes32"},{"internalType":"address","name":"callerConfirmation","type":"address"}],"name":"renounceRole","outputs":[],"stateMutability":"nonpayable","type":"function"},{"inputs":[{"internalType":"address","name":"token","type":"address"},{"internalType":"uint256","name":"amount","type":"uint256"},{"internalType":"address","name":"to","type":"address"}],"name":"rescueTokens","outputs":[],"stateMutability":"nonpayable","type":"function"},{"inputs":[{"internalType":"bytes32","name":"role","type":"bytes32"},{"internalType":"address","name":"account","type":"address"}],"name":"revokeRole","outputs":[],"stateMutability":"nonpayable","type":"function"},{"inputs":[{"internalType":"address","name":"owner","type":"address"}],"name":"revokeTokenOwner","outputs":[],"stateMutability":"nonpayable","type":"function"},{"inputs":[],"name":"saleToken","outputs":[{"internalType":"contract IERC20","name":"","type":"address"}],"stateMutability":"view","type":"function"},{"inputs":[{"internalType":"uint256","name":"_endDate","type":"uint256"}],"name":"setEndDate","outputs":[],"stateMutability":"nonpayable","type":"function"},{"inputs":[{"internalType":"uint256","name":"_minInvestment","type":"uint256"},{"internalType":"uint256","name":"_maxInvestment","type":"uint256"}],"name":"setInvestmentLimits","outputs":[],"stateMutability":"nonpayable","type":"function"},{"inputs":[{"internalType":"address","name":"token","type":"address"},{"internalType":"address","name":"oracle","type":"address"}],"name":"setTokenOracle","outputs":[],"stateMutability":"nonpayable","type":"function"},{"inputs":[{"internalType":"uint256","name":"newPrice","type":"uint256"}],"name":"setTokenPrice","outputs":[],"stateMutability":"nonpayable","type":"function"},{"inputs":[{"internalType":"address","name":"token","type":"address"},{"internalType":"bool","name":"status","type":"bool"}],"name":"setWhitelistedPaymentToken","outputs":[],"stateMutability":"nonpayable","type":"function"},{"inputs":[],"name":"startDate","outputs":[{"internalType":"uint256","name":"","type":"uint256"}],"stateMutability":"view","type":"function"},{"inputs":[{"internalType":"bytes4","name":"interfaceId","type":"bytes4"}],"name":"supportsInterface","outputs":[{"internalType":"bool","name":"","type":"bool"}],"stateMutability":"view","type":"function"},{"inputs":[{"internalType":"address","name":"","type":"address"}],"name":"tokenOracles","outputs":[{"internalType":"address","name":"","type":"address"}],"stateMutability":"view","type":"function"},{"inputs":[],"name":"tokenPrice","outputs":[{"internalType":"uint256","name":"","type":"uint256"}],"stateMutability":"view","type":"function"},{"inputs":[{"internalType":"address","name":"","type":"address"}],"name":"totalInvested","outputs":[{"internalType":"uint256","name":"","type":"uint256"}],"stateMutability":"view","type":"function"},{"inputs":[],"name":"totalPendingTokens","outputs":[{"internalType":"uint256","name":"","type":"uint256"}],"stateMutability":"view","type":"function"},{"inputs":[],"name":"totalRaised","outputs":[{"internalType":"uint256","name":"","type":"uint256"}],"stateMutability":"view","type":"function"},{"inputs":[],"name":"treasury","outputs":[{"internalType":"address","name":"","type":"address"}],"stateMutability":"view","type":"function"},{"inputs":[],"name":"unpause","outputs":[],"stateMutability":"nonpayable","type":"function"},{"inputs":[{"internalType":"address","name":"","type":"address"}],"name":"whitelistedPaymentTokens","outputs":[{"internalType":"bool","name":"","type":"bool"}],"stateMutability":"view","type":"function"},{"inputs":[],"name":"wrappedTokenAddress","outputs":[{"internalType":"address","name":"","type":"address"}],"stateMutability":"view","type":"function"},{"stateMutability":"payable","type":"receive"}],"evm":{"bytecode":{"linkReferences":{},"object":"6080806040523461001b57600160025561318090816100218239f35b600080fdfe608080604052600436101561009e575b50361561005a57606460405162461bcd60e51b815260206004820152601560248201527f46616c6c6261636b206e6f7420616363657074656400000000000000000000006044820152fd5b606460405162461bcd60e51b815260206004820152601960248201527f446972656374204c554d4941206e6f74206163636570746564000000000000006044820152fd5b600090813560e01c9081622e131614612ac05750806301ffc9a714612a1e5780630b97bc8614612a005780630d342cab146129dd5780630d5defa4146129b657806311e72114146123155780631309b324146122955780631e1a268b14612272578063248a9ca3146122465780632b4353f2146122285780632f2ff15d146121eb57806336568abe1461218b5780633784f0001461205a5780633e646208146120305780633f4ba83a14611fa15780634b31bb1014611f7a5780634fff540214611f545780635c975abb14611f315780635cc0483814611f0a57806361d027b314611ee0578063653ac422146112955780636a61e5fc1461123c578063764467cc1461117057806377d392f014610ef75780637ff9b59614610ed95780638456cb5914610e7357806388e32fc214610da75780638a18511314610d6c5780638ac2c68014610d4e5780638cd0593314610d2657806390838e0914610cee57806391d1485414610ca2578063a217fddf14610c86578063a6527f3914610c48578063b13ef13814610c0a578063b37fd19014610878578063b96627971461085a578063bbcc0a061461083c578063bd49243214610801578063c031a66f146107c9578063c24a0f8b146107ab578063c5c4744c1461078d578063d547741f1461074c578063d59624b41461072e578063df695abb146106f1578063df8de3e714610314578063e985e367146102ed5763fb903b1d0361000f57346102ea5760403660031901126102ea576024356004356102d5612be8565b6102e182821115612f47565b60045560055580f35b80fd5b50346102ea57806003193601126102ea5760206001600160a01b0360035416604051908152f35b50346102ea57602090816003193601126102ea57610330612b28565b610338613097565b610340612f92565b6001600160a01b039182600e5416330361068657600854421061064257828216918282526015855260408220549384156105fe576024868260035416604051928380926370a0823160e01b82523060048301525afa801561050757869085906105c8575b6103b09250101561300b565b838352601586528260408120556103c985600c5461311b565b600c55858560ff600d5460081c1660001461051257906104249183600354168487600d546040519687958694859363095ea7b360e01b855260101c1660048401602090939291936001600160a01b0360408201951681520152565b03925af18015610507576104da575b50600d5460101c1660ff6011541691813b156104d657918391868361046f95604051968795869485936348e8a94960e01b85526004850161306e565b03925af180156104cb576104b7575b50505b7fd8138f8a3f377c5259ca548e70e4c2de94f129f5a11036a15b69513cba2b426a83604051848152a26001600255604051908152f35b6104c18291612adc565b6102ea578061047e565b6040513d84823e3d90fd5b8380fd5b6104f990873d8911610500575b6104f18183612b06565b810190613056565b5038610433565b503d6104e7565b6040513d86823e3d90fd5b60035460405163a9059cbb60e01b81526001600160a01b0395909516600486015260248501919091529091839160449183918791165af19182156105bc579161059f575b50610481576064836040519062461bcd60e51b82526004820152601560248201527f546f6b656e207472616e73666572206661696c656400000000000000000000006044820152fd5b6105b69150843d8611610500576104f18183612b06565b38610556565b604051903d90823e3d90fd5b50508681813d83116105f7575b6105df8183612b06565b810103126105f257856103b091516103a4565b600080fd5b503d6105d5565b6064866040519062461bcd60e51b82526004820152601260248201527f4e6f20746f6b656e7320746f20636c61696d00000000000000000000000000006044820152fd5b6064846040519062461bcd60e51b82526004820152601460248201527f4d61747572697479206e6f7420726561636865640000000000000000000000006044820152fd5b60405162461bcd60e51b815260206004820152602c60248201527f43616c6c6572206973206e6f742074686520696e766573746d656e744d616e6160448201527f67657220636f6e747261637400000000000000000000000000000000000000006064820152608490fd5b50346102ea5760203660031901126102ea5760ff60406020926001600160a01b0361071a612b28565b168152601484522054166040519015158152f35b50346102ea57806003193601126102ea576020600854604051908152f35b50346102ea5760403660031901126102ea5761078960043561076c612b3e565b90808452836020526107846001604086200154612c44565b612ed1565b5080f35b50346102ea57806003193601126102ea576020600b54604051908152f35b50346102ea57806003193601126102ea576020600754604051908152f35b50346102ea5760203660031901126102ea5760406020916001600160a01b036107f0612b28565b168152601583522054604051908152f35b50346102ea5760203660031901126102ea5760209060406001600160a01b03918261082a612b28565b16815260178452205416604051908152f35b50346102ea57806003193601126102ea576020600c54604051908152f35b50346102ea57806003193601126102ea576020600a54604051908152f35b50346102ea5760603660031901126102ea57610892612b28565b602480356044918235926001600160a01b0393848116958682036105f2576108b8612b77565b6108c0613097565b8615610bc757851694856109ef57508347106109ac578680808681945af13d156109a7573d67ffffffffffffffff8111610994576040519061090c601f8201601f191660200183612b06565b81528760203d92013e5b1561095157505060207fd27dd37d941f5a1b76926e48140fdbf50a0c59defb5431a391a1260279eb1c4c915b604051908152a3600160025580f35b907f4c554d494120726573637565206661696c65640000000000000000000000000060649260136040519362461bcd60e51b855260206004860152840152820152fd5b8388634e487b7160e01b81526041600452fd5b610916565b6064837f4e6f7420656e6f756768204c554d4941000000000000000000000000000000008460106040519362461bcd60e51b855260206004860152840152820152fd5b600393919354168514610b8557604051926370a0823160e01b8452306004850152602093848184818a5afa8015610b7a5786918a91610b49575b5010610b075760405163a9059cbb60e01b81526001600160a01b039190911660048201526024810185905283816044818b8a5af1908115610afc578891610adf575b5015610a9d5750505060207fd27dd37d941f5a1b76926e48140fdbf50a0c59defb5431a391a1260279eb1c4c91610942565b6064929160137f455243323020726573637565206661696c656400000000000000000000000000926040519462461bcd60e51b86526004860152840152820152fd5b610af69150843d8611610500576104f18183612b06565b38610a6b565b6040513d8a823e3d90fd5b6064847f4e6f7420656e6f75676820746f6b656e73000000000000000000000000000000856011866040519462461bcd60e51b86526004860152840152820152fd5b809250868092503d8311610b73575b610b628183612b06565b810103126105f25785905138610a29565b503d610b58565b6040513d8b823e3d90fd5b7f43616e6e6f74207265736375652073616c65546f6b656e00000000000000000060649260176040519362461bcd60e51b855260206004860152840152820152fd5b6064847f496e76616c696420726563697069656e740000000000000000000000000000008560116040519362461bcd60e51b855260206004860152840152820152fd5b50346102ea5760203660031901126102ea57610789610c27612b28565b610c2f612b77565b610c436001600160a01b0382161515613128565b612cfa565b50346102ea5760203660031901126102ea57610789610c65612b28565b610c6d612b77565b610c816001600160a01b0382161515613128565b612e26565b50346102ea57806003193601126102ea57602090604051908152f35b50346102ea5760403660031901126102ea576001600160a01b036040610cc6612b3e565b92600435815280602052209116600052602052602060ff604060002054166040519015158152f35b50346102ea5760203660031901126102ea5760406020916001600160a01b03610d15612b28565b168152601683522054604051908152f35b50346102ea57806003193601126102ea57602060ff60115416610d4c6040518092612b54565bf35b50346102ea57806003193601126102ea576020600454604051908152f35b50346102ea57806003193601126102ea5760206040517f35369b3a7bb98c90641a907c2fd643ea781341eba72ccffd47cb018c128c48c38152f35b50346102ea5760203660031901126102ea57610dc1612b28565b610dc9612b77565b6001600160a01b0380911690818352601760205260408320541615610e2f578082526017602052604082206001600160a01b031981541690557fc1d3048301c0d23629a2532c8defa6d68f8e1a0e4157918769e9fb1b2eeb888e6020604051848152a280f35b606460405162461bcd60e51b815260206004820152601360248201527f4e6f206f7261636c6520746f2072656d6f7665000000000000000000000000006044820152fd5b50346102ea57806003193601126102ea57610e8c612b77565b610e94612f92565b600160ff198154161760015560206040513381527f62e78cea01bee320cd4e420270b5ea74000d11b0c9f74754ebdbfc544b05a258918291a16020604051338152a180f35b50346102ea57806003193601126102ea576020601354604051908152f35b50346102ea5760208060031936011261116c57610f12612b28565b90610f1b612be8565b610f23613097565b600854421115611128576001600160a01b03918281169283156110e457600354166040516370a0823160e01b81523060048201528381602481855afa80156110d95786906110aa575b610f7a9150600c549061311b565b9182156110665760405163a9059cbb60e01b81526001600160a01b03919091166004820152602481018390529083908290604490829089905af190811561105b57859161103e575b5015610ffa57907ffcbf6553b2cfc097c2301f1c071469a8839b462e7287e3692f238ccfc6b9208f91604051908152a2600160025580f35b6064826040519062461bcd60e51b82526004820152600e60248201527f5265636c61696d206661696c65640000000000000000000000000000000000006044820152fd5b6110559150833d8511610500576104f18183612b06565b38610fc2565b6040513d87823e3d90fd5b6064846040519062461bcd60e51b82526004820152601360248201527f4e6f20756e636c61696d656420746f6b656e73000000000000000000000000006044820152fd5b508381813d83116110d2575b6110c08183612b06565b810103126105f257610f7a9051610f6c565b503d6110b6565b6040513d88823e3d90fd5b6064836040519062461bcd60e51b82526004820152600f60248201527f496e76616c6964206164647265737300000000000000000000000000000000006044820152fd5b6064906040519062461bcd60e51b82526004820152600b60248201527f4e6f74206d6174757265640000000000000000000000000000000000000000006044820152fd5b5080fd5b50346102ea5760403660031901126102ea5761118a612b28565b611192612b3e565b61119a612b77565b6001600160a01b038091169182156111f8577fc1d3048301c0d23629a2532c8defa6d68f8e1a0e4157918769e9fb1b2eeb888e9160209116928385526017825260408520816001600160a01b0319825416179055604051908152a280f35b606460405162461bcd60e51b815260206004820152601660248201527f496e76616c6964206f7261636c652061646472657373000000000000000000006044820152fd5b50346102ea5760203660031901126102ea577f6b361c807733cc94a3b7bda39c1c94dcc0511e91aa47b0f7f918068e93976890602060043561127c612be8565b6112878115156130d0565b80601355604051908152a180f35b5060603660031901126102ea576112aa612b28565b906112b3612b3e565b916112bc613097565b6112c4612f92565b6001600160a01b03600e54163303610686576001600160a01b03831615611e9c5760ff600d5416611e58576006544210611e1457600754421015611dd0576001600160a01b0381168252601460205260ff60408320541615611d8c5760443515611d48576001600160a01b038116825260176020526001600160a01b036040832054168015611d045760406004918151928380927f57de26a40000000000000000000000000000000000000000000000000000000082525afa908115611cf9578391611cab575b50601b0b9161139b8184136130d0565b6001600160a01b038216611c22576012925b806044350290604435820403611c0e57670de0b6b3a76400009384820291808304861490151715611b2e5760ff16604d8111611b2e5784916113f291600a0a90612feb565b046004548110611bca576001600160a01b0385168252601660205261141b816040842054612fc8565b60055410611b8657600b54936114318286612fc8565b600a5410611b4257808202908282041482151715611b2e5760135461145591612feb565b938415611aea578161146691612fc8565b600b556001600160a01b0385168252601660205261148960408320918254612fc8565b905560ff60095416611a6b575b6001600160a01b038216611888576044353403611844576001600160a01b0360125416803b1561116c5781604491604051928380927f701bb8910000000000000000000000000000000000000000000000000000000082523060048301526001600160a01b038a16602483015234905af180156104cb57908291611830575b50505b60095460ff16156117d457600d5460081c60ff16156116f357600354600d5460405163095ea7b360e01b81526001600160a01b0360109290921c8216600482015260248101869052916020918391168185816044810103925af19081156104cb5782916116d4575b5015611690576001600160a01b03600d5460101c1660ff60115416813b1561168c576115c7839283926040519485809481936348e8a94960e01b83528b8d6004850161306e565b03925af180156104cb57611678575b50507f93638e6cf18b4f6a839de65df95898221f5d9f7dc54b87d4b31d40297643266e60606001600160a01b036020955b8160405195168552604435878601528560408601521692a2600b54600a5481101561163b575b506001600255604051908152f35b827fcb67f20f64495b30f15524c55f90201dd6571d6b5c19dac183d2aeb25315b2dc91600160ff19600d541617600d55604051908152a13861162d565b6116828291612adc565b6102ea57806115d6565b8280fd5b606460405162461bcd60e51b815260206004820152600e60248201527f417070726f7665206661696c65640000000000000000000000000000000000006044820152fd5b6116ed915060203d602011610500576104f18183612b06565b38611580565b60035460405163a9059cbb60e01b81526001600160a01b038681166004830152602482018690529091602091839160449183918791165af19182156105bc57916117b5575b5015611771577f93638e6cf18b4f6a839de65df95898221f5d9f7dc54b87d4b31d40297643266e60606001600160a01b03602095611607565b606460405162461bcd60e51b815260206004820152601460248201527f4175746f2d7472616e73666572206661696c65640000000000000000000000006044820152fd5b6117ce915060203d602011610500576104f18183612b06565b38611738565b60606001600160a01b038560407f93638e6cf18b4f6a839de65df95898221f5d9f7dc54b87d4b31d40297643266e9483602099168152601589522061181a878254612fc8565b905561182886600c54612fc8565b600c55611607565b61183990612adc565b6102ea578038611515565b606460405162461bcd60e51b815260206004820152601760248201527f496e636f7272656374206e617469766520616d6f756e740000000000000000006044820152fd5b34611a01576040517f23b872dd0000000000000000000000000000000000000000000000000000000081526001600160a01b03851660048201523060248201526044356044820152602081606481856001600160a01b0388165af180156104cb576119e2575b5060125460405163095ea7b360e01b81526001600160a01b039182166004820152604480356024830152909160209183918290869088165af180156104cb576119c3575b506001600160a01b0360125416803b1561116c578180916084604051809481937f0ef7c5a70000000000000000000000000000000000000000000000000000000083523060048401526001600160a01b038b1660248401526001600160a01b038916604484015260443560648401525af180156104cb576119b4575b50611518565b6119bd90612adc565b386119ae565b6119db9060203d602011610500576104f18183612b06565b5038611932565b6119fa9060203d602011610500576104f18183612b06565b50386118ee565b608460405162461bcd60e51b815260206004820152602160248201527f446f206e6f742073656e642045544820666f7220746f6b656e207061796d656e60448201527f74000000000000000000000000000000000000000000000000000000000000006064820152fd5b602460206001600160a01b0360035416604051928380926370a0823160e01b82523060048301525afa80156104cb5784908390611ab4575b611aaf9250101561300b565b611496565b50506020813d602011611ae2575b81611acf60209383612b06565b8101031261116c5783611aaf9151611aa3565b3d9150611ac2565b606460405162461bcd60e51b815260206004820152601460248201527f546f6b656e20616d6f756e7420746f6f206c6f770000000000000000000000006044820152fd5b602483634e487b7160e01b81526011600452fd5b606460405162461bcd60e51b815260206004820152600b60248201527f45786365656473206361700000000000000000000000000000000000000000006044820152fd5b606460405162461bcd60e51b815260206004820152601660248201527f45786365656473206d617820696e766573746d656e74000000000000000000006044820152fd5b606460405162461bcd60e51b815260206004820152601460248201527f42656c6f77206d696e20696e766573746d656e740000000000000000000000006044820152fd5b602482634e487b7160e01b81526011600452fd5b6040517f313ce5670000000000000000000000000000000000000000000000000000000081526020816004816001600160a01b0387165afa9081156104cb578291611c6f575b50926113ad565b90506020813d602011611ca3575b81611c8a60209383612b06565b8101031261116c575160ff8116810361116c5738611c68565b3d9150611c7d565b90506040813d604011611cf1575b81611cc660409383612b06565b8101031261168c5780519081601b0b82036104d6576020015163ffffffff81160361168c573861138b565b3d9150611cb9565b6040513d85823e3d90fd5b606460405162461bcd60e51b815260206004820152600e60248201527f4f7261636c65206e6f74207365740000000000000000000000000000000000006044820152fd5b606460405162461bcd60e51b815260206004820152600b60248201527f5a65726f20616d6f756e740000000000000000000000000000000000000000006044820152fd5b606460405162461bcd60e51b815260206004820152601560248201527f546f6b656e206e6f742077686974656c697374656400000000000000000000006044820152fd5b606460405162461bcd60e51b815260206004820152600a60248201527f53616c6520656e646564000000000000000000000000000000000000000000006044820152fd5b606460405162461bcd60e51b815260206004820152601060248201527f53616c65206e6f742073746172746564000000000000000000000000000000006044820152fd5b606460405162461bcd60e51b815260206004820152600e60248201527f53616c6520697320636c6f7365640000000000000000000000000000000000006044820152fd5b606460405162461bcd60e51b815260206004820152601860248201527f496e76616c696420696e766573746f72206164647265737300000000000000006044820152fd5b50346102ea57806003193601126102ea5760206001600160a01b0360115460101c16604051908152f35b50346102ea57806003193601126102ea5760206001600160a01b03600f5416604051908152f35b50346102ea57806003193601126102ea57602060ff600154166040519015158152f35b50346102ea57806003193601126102ea57602060ff600d5460081c166040519015158152f35b50346102ea57806003193601126102ea5760206001600160a01b03600e5416604051908152f35b50346102ea57806003193601126102ea57611fba612b77565b60015460ff8116156120065760ff191660015560206040513381527f5db9ee0a495bf2e6ff9c91a7834c1ba4fdd244a5e8aa4e537bd38aeae4b073aa918291a16020604051338152a180f35b60046040517f8dfc202b000000000000000000000000000000000000000000000000000000008152fd5b50346102ea57806003193601126102ea5760206001600160a01b03600d5460101c16604051908152f35b50346102ea5760203660031901126102ea57600435612077612b77565b42811115612147576007548111156120dd576008548110156120995760075580f35b606460405162461bcd60e51b815260206004820152602060248201527f456e642064617465206d757374206265206265666f7265206d617475726974796044820152fd5b608460405162461bcd60e51b815260206004820152602260248201527f4e657720656e642064617465206d75737420626520616674657220637572726560448201527f6e740000000000000000000000000000000000000000000000000000000000006064820152fd5b606460405162461bcd60e51b815260206004820152601060248201527f496e76616c696420656e642064617465000000000000000000000000000000006044820152fd5b50346102ea5760403660031901126102ea576121a5612b3e565b336001600160a01b038216036121c15761078990600435612ed1565b60046040517f6697b232000000000000000000000000000000000000000000000000000000008152fd5b50346102ea5760403660031901126102ea5761078960043561220b612b3e565b90808452836020526122236001604086200154612c44565b612dac565b50346102ea57806003193601126102ea576020601054604051908152f35b50346102ea5760203660031901126102ea57600160406020926004358152808452200154604051908152f35b50346102ea57806003193601126102ea57602060ff600d54166040519015158152f35b50346102ea5760403660031901126102ea576122af612b28565b6024359081151580920361168c5760206001600160a01b037f91ad45a5ce97c5eee55fa01496772afefc7f0757ed9eac59064e642690509dfb926122f1612b77565b1692838552601482526040852060ff1981541660ff8316179055604051908152a280f35b50346102ea576102208060031936011261116c5760405190810181811067ffffffffffffffff8211176129a25760405261234d612b28565b8152602435602082015260443560408201526064356060820152608435608082015260a43560a082015260c435801515810361168c5760c082015260e43560e0820152610104356101008201526001600160a01b036101243516610124350361116c5761012435610120820152610144356001600160a01b038116810361168c57610140820152610164351515610164350361116c57610164356101608201526001600160a01b036101843516610184350361116c57610184356101808201526001600160a01b036101a435166101a4350361116c576101a4356101a08201526101c4356001600160a01b038116810361168c576101c08201526101e4356101e0820152600361020435101561116c576102043561020082015260115460ff8160081c1661295e576001600160a01b038251161561291a576001600160a01b0361012083015116156128d6576001600160a01b036101408301511615612892576001600160a01b036101a083015116156128285760e0820151156127e457610100820151156127a0576124ea602083015160408401511015612f47565b6060820151421161275c576060820151608083015111156126f2576001600160a01b036101c083015116156126ae576001600160a01b038251166001600160a01b03196003541617600355602082015160045560408201516005556060820151600655608082015160075560a082015160085560c0820151151560ff199060ff826009541691161760095560e0830151600a556101008301516013556001600160a01b03610140840151166001600160a01b031960125416176012556101608301511515600d547fffffffffffffffffffff000000000000000000000000000000000000000000ff61ff0075ffffffffffffffffffffffffffffffffffffffff000061018088015160101b169360081b1691161717600d556001600160a01b036101a0840151166001600160a01b0319600e541617600e556001600160a01b036101c0840151166001600160a01b0319600f541617600f556101e0830151601055610200830151600381101561269a57926001600160a01b03926101209260ff612687961691161760115561267e33612c6a565b50015116612cfa565b5061010061ff0019601154161760115580f35b602485634e487b7160e01b81526021600452fd5b606460405162461bcd60e51b815260206004820152601c60248201527f496e76616c6964207061796f757420746f6b656e2061646472657373000000006044820152fd5b608460405162461bcd60e51b815260206004820152602260248201527f53746172742064617465206d757374206265206265666f726520656e6420646160448201527f74650000000000000000000000000000000000000000000000000000000000006064820152fd5b606460405162461bcd60e51b815260206004820152602060248201527f53746172742064617465206d75737420626520696e20746865206675747572656044820152fd5b606460405162461bcd60e51b815260206004820152601c60248201527f546f6b656e207072696365206d75737420626520706f736974697665000000006044820152fd5b606460405162461bcd60e51b815260206004820152602060248201527f46756e6472616973696e6720636170206d75737420626520706f7369746976656044820152fd5b608460405162461bcd60e51b815260206004820152602260248201527f496e76616c696420696e766573746d656e74206d616e6167657220616464726560448201527f73730000000000000000000000000000000000000000000000000000000000006064820152fd5b606460405162461bcd60e51b815260206004820152601660248201527f496e76616c696420657363726f772061646472657373000000000000000000006044820152fd5b606460405162461bcd60e51b815260206004820152601360248201527f496e76616c696420746f6b656e206f776e6572000000000000000000000000006044820152fd5b606460405162461bcd60e51b815260206004820152601260248201527f496e76616c69642073616c6520746f6b656e00000000000000000000000000006044820152fd5b606460405162461bcd60e51b815260206004820152601360248201527f416c726561647920696e697469616c697a6564000000000000000000000000006044820152fd5b602483634e487b7160e01b81526041600452fd5b50346102ea57806003193601126102ea5760206001600160a01b0360125416604051908152f35b50346102ea57806003193601126102ea57602060ff600954166040519015158152f35b50346102ea57806003193601126102ea576020600654604051908152f35b50346102ea5760203660031901126102ea576004357fffffffff00000000000000000000000000000000000000000000000000000000811680910361116c57807f7965db0b0000000000000000000000000000000000000000000000000000000060209214908115612a96575b506040519015158152f35b7f01ffc9a70000000000000000000000000000000000000000000000000000000091501482612a8b565b90503461116c578160031936011261116c576020906005548152f35b67ffffffffffffffff8111612af057604052565b634e487b7160e01b600052604160045260246000fd5b90601f8019910116810190811067ffffffffffffffff821117612af057604052565b600435906001600160a01b03821682036105f257565b602435906001600160a01b03821682036105f257565b906003821015612b615752565b634e487b7160e01b600052602160045260246000fd5b3360009081527fad3228b676f7d3cd4284a5443f17f1962b36e491b30a40b2405849e597ba5fb5602052604081205460ff1615612bb15750565b604490604051907fe2517d3f0000000000000000000000000000000000000000000000000000000082523360048301526024820152fd5b3360009081527f7dfc0114fc2b0320947240cbd60a9ffc193468a941c37441e641a928a8c116d560205260409020547f35369b3a7bb98c90641a907c2fd643ea781341eba72ccffd47cb018c128c48c39060ff1615612bb15750565b80600052600060205260406000203360005260205260ff6040600020541615612bb15750565b6001600160a01b031660008181527fad3228b676f7d3cd4284a5443f17f1962b36e491b30a40b2405849e597ba5fb5602052604081205490919060ff16612cf657818052816020526040822081835260205260408220600160ff1982541617905533917f2f8788117e7eff1d82e926ec794901d17c78024a50270940304540a733656f0d8180a4600190565b5090565b6001600160a01b031660008181527f7dfc0114fc2b0320947240cbd60a9ffc193468a941c37441e641a928a8c116d560205260408120549091907f35369b3a7bb98c90641a907c2fd643ea781341eba72ccffd47cb018c128c48c39060ff16612da757808352826020526040832082845260205260408320600160ff198254161790557f2f8788117e7eff1d82e926ec794901d17c78024a50270940304540a733656f0d339380a4600190565b505090565b90600091808352826020526001600160a01b036040842092169182845260205260ff60408420541615600014612da757808352826020526040832082845260205260408320600160ff198254161790557f2f8788117e7eff1d82e926ec794901d17c78024a50270940304540a733656f0d339380a4600190565b6001600160a01b031660008181527f7dfc0114fc2b0320947240cbd60a9ffc193468a941c37441e641a928a8c116d560205260408120549091907f35369b3a7bb98c90641a907c2fd643ea781341eba72ccffd47cb018c128c48c39060ff1615612da75780835282602052604083208284526020526040832060ff1981541690557ff6391f5c32d9c69d2a47ea670b442974b53935d1edc7fd64eb21e047a839171b339380a4600190565b90600091808352826020526001600160a01b036040842092169182845260205260ff604084205416600014612da75780835282602052604083208284526020526040832060ff1981541690557ff6391f5c32d9c69d2a47ea670b442974b53935d1edc7fd64eb21e047a839171b339380a4600190565b15612f4e57565b606460405162461bcd60e51b815260206004820152601460248201527f4d696e203e206d617820696e766573746d656e740000000000000000000000006044820152fd5b60ff60015416612f9e57565b60046040517fd93c0665000000000000000000000000000000000000000000000000000000008152fd5b91908201809211612fd557565b634e487b7160e01b600052601160045260246000fd5b8115612ff5570490565b634e487b7160e01b600052601260045260246000fd5b1561301257565b606460405162461bcd60e51b815260206004820152601860248201527f496e73756666696369656e742073616c6520746f6b656e7300000000000000006044820152fd5b908160209103126105f2575180151581036105f25790565b60409061309593959492956001600160a01b03606083019716825260208201520190612b54565b565b60028054146130a65760028055565b60046040517f3ee5aeb5000000000000000000000000000000000000000000000000000000008152fd5b156130d757565b606460405162461bcd60e51b815260206004820152600d60248201527f496e76616c6964207072696365000000000000000000000000000000000000006044820152fd5b91908203918211612fd557565b1561312f57565b606460405162461bcd60e51b815260206004820152600c60248201527f5a65726f206164647265737300000000000000000000000000000000000000006044820152fdfea164736f6c6343000814000a","opcodes":"PUSH1 0x80 DUP1 PUSH1 0x40 MSTORE CALLVALUE PUSH2 0x1B JUMPI PUSH1 0x1 PUSH1 0x2 SSTORE PUSH2 0x3180 SWAP1 DUP2 PUSH2 0x21 DUP3 CODECOPY RETURN JUMPDEST PUSH1 0x0 DUP1 REVERT INVALID PUSH1 0x80 DUP1 PUSH1 0x40 MSTORE PUSH1 0x4 CALLDATASIZE LT ISZERO PUSH2 0x9E JUMPI JUMPDEST POP CALLDATASIZE ISZERO PUSH2 0x5A JUMPI PUSH1 0x64 PUSH1 0x40 MLOAD PUSH3 0x461BCD PUSH1 0xE5 SHL DUP2 MSTORE PUSH1 0x20 PUSH1 0x4 DUP3 ADD MSTORE PUSH1 0x15 PUSH1 0x24 DUP3 ADD MSTORE PUSH32 0x46616C6C6261636B206E6F742061636365707465640000000000000000000000 PUSH1 0x44 DUP3 ADD MSTORE REVERT JUMPDEST PUSH1 0x64 PUSH1 0x40 MLOAD PUSH3 0x461BCD PUSH1 0xE5 SHL DUP2 MSTORE PUSH1 0x20 PUSH1 0x4 DUP3 ADD MSTORE PUSH1 0x19 PUSH1 0x24 DUP3 ADD MSTORE PUSH32 0x446972656374204C554D4941206E6F7420616363657074656400000000000000 PUSH1 0x44 DUP3 ADD MSTORE REVERT JUMPDEST PUSH1 0x0 SWAP1 DUP2 CALLDATALOAD PUSH1 0xE0 SHR SWAP1 DUP2 PUSH3 0x2E1316 EQ PUSH2 0x2AC0 JUMPI POP DUP1 PUSH4 0x1FFC9A7 EQ PUSH2 0x2A1E JUMPI DUP1 PUSH4 0xB97BC86 EQ PUSH2 0x2A00 JUMPI DUP1 PUSH4 0xD342CAB EQ PUSH2 0x29DD JUMPI DUP1 PUSH4 0xD5DEFA4 EQ PUSH2 0x29B6 JUMPI DUP1 PUSH4 0x11E72114 EQ PUSH2 0x2315 JUMPI DUP1 PUSH4 0x1309B324 EQ PUSH2 0x2295 JUMPI DUP1 PUSH4 0x1E1A268B EQ PUSH2 0x2272 JUMPI DUP1 PUSH4 0x248A9CA3 EQ PUSH2 0x2246 JUMPI DUP1 PUSH4 0x2B4353F2 EQ PUSH2 0x2228 JUMPI DUP1 PUSH4 0x2F2FF15D EQ PUSH2 0x21EB JUMPI DUP1 PUSH4 0x36568ABE EQ PUSH2 0x218B JUMPI DUP1 PUSH4 0x3784F000 EQ PUSH2 0x205A JUMPI DUP1 PUSH4 0x3E646208 EQ PUSH2 0x2030 JUMPI DUP1 PUSH4 0x3F4BA83A EQ PUSH2 0x1FA1 JUMPI DUP1 PUSH4 0x4B31BB10 EQ PUSH2 0x1F7A JUMPI DUP1 PUSH4 0x4FFF5402 EQ PUSH2 0x1F54 JUMPI DUP1 PUSH4 0x5C975ABB EQ PUSH2 0x1F31 JUMPI DUP1 PUSH4 0x5CC04838 EQ PUSH2 0x1F0A JUMPI DUP1 PUSH4 0x61D027B3 EQ PUSH2 0x1EE0 JUMPI DUP1 PUSH4 0x653AC422 EQ PUSH2 0x1295 JUMPI DUP1 PUSH4 0x6A61E5FC EQ PUSH2 0x123C JUMPI DUP1 PUSH4 0x764467CC EQ PUSH2 0x1170 JUMPI DUP1 PUSH4 0x77D392F0 EQ PUSH2 0xEF7 JUMPI DUP1 PUSH4 0x7FF9B596 EQ PUSH2 0xED9 JUMPI DUP1 PUSH4 0x8456CB59 EQ PUSH2 0xE73 JUMPI DUP1 PUSH4 0x88E32FC2 EQ PUSH2 0xDA7 JUMPI DUP1 PUSH4 0x8A185113 EQ PUSH2 0xD6C JUMPI DUP1 PUSH4 0x8AC2C680 EQ PUSH2 0xD4E JUMPI DUP1 PUSH4 0x8CD05933 EQ PUSH2 0xD26 JUMPI DUP1 PUSH4 0x90838E09 EQ PUSH2 0xCEE JUMPI DUP1 PUSH4 0x91D14854 EQ PUSH2 0xCA2 JUMPI DUP1 PUSH4 0xA217FDDF EQ PUSH2 0xC86 JUMPI DUP1 PUSH4 0xA6527F39 EQ PUSH2 0xC48 JUMPI DUP1 PUSH4 0xB13EF138 EQ PUSH2 0xC0A JUMPI DUP1 PUSH4 0xB37FD190 EQ PUSH2 0x878 JUMPI DUP1 PUSH4 0xB9662797 EQ PUSH2 0x85A JUMPI DUP1 PUSH4 0xBBCC0A06 EQ PUSH2 0x83C JUMPI DUP1 PUSH4 0xBD492432 EQ PUSH2 0x801 JUMPI DUP1 PUSH4 0xC031A66F EQ PUSH2 0x7C9 JUMPI DUP1 PUSH4 0xC24A0F8B EQ PUSH2 0x7AB JUMPI DUP1 PUSH4 0xC5C4744C EQ PUSH2 0x78D JUMPI DUP1 PUSH4 0xD547741F EQ PUSH2 0x74C JUMPI DUP1 PUSH4 0xD59624B4 EQ PUSH2 0x72E JUMPI DUP1 PUSH4 0xDF695ABB EQ PUSH2 0x6F1 JUMPI DUP1 PUSH4 0xDF8DE3E7 EQ PUSH2 0x314 JUMPI DUP1 PUSH4 0xE985E367 EQ PUSH2 0x2ED JUMPI PUSH4 0xFB903B1D SUB PUSH2 0xF JUMPI CALLVALUE PUSH2 0x2EA JUMPI PUSH1 0x40 CALLDATASIZE PUSH1 0x3 NOT ADD SLT PUSH2 0x2EA JUMPI PUSH1 0x24 CALLDATALOAD PUSH1 0x4 CALLDATALOAD PUSH2 0x2D5 PUSH2 0x2BE8 JUMP JUMPDEST PUSH2 0x2E1 DUP3 DUP3 GT ISZERO PUSH2 0x2F47 JUMP JUMPDEST PUSH1 0x4 SSTORE PUSH1 0x5 SSTORE DUP1 RETURN JUMPDEST DUP1 REVERT JUMPDEST POP CALLVALUE PUSH2 0x2EA JUMPI DUP1 PUSH1 0x3 NOT CALLDATASIZE ADD SLT PUSH2 0x2EA JUMPI PUSH1 0x20 PUSH1 0x1 PUSH1 0x1 PUSH1 0xA0 SHL SUB PUSH1 0x3 SLOAD AND PUSH1 0x40 MLOAD SWAP1 DUP2 MSTORE RETURN JUMPDEST POP CALLVALUE PUSH2 0x2EA JUMPI PUSH1 0x20 SWAP1 DUP2 PUSH1 0x3 NOT CALLDATASIZE ADD SLT PUSH2 0x2EA JUMPI PUSH2 0x330 PUSH2 0x2B28 JUMP JUMPDEST PUSH2 0x338 PUSH2 0x3097 JUMP JUMPDEST PUSH2 0x340 PUSH2 0x2F92 JUMP JUMPDEST PUSH1 0x1 PUSH1 0x1 PUSH1 0xA0 SHL SUB SWAP2 DUP3 PUSH1 0xE SLOAD AND CALLER SUB PUSH2 0x686 JUMPI PUSH1 0x8 SLOAD TIMESTAMP LT PUSH2 0x642 JUMPI DUP3 DUP3 AND SWAP2 DUP3 DUP3 MSTORE PUSH1 0x15 DUP6 MSTORE PUSH1 0x40 DUP3 KECCAK256 SLOAD SWAP4 DUP5 ISZERO PUSH2 0x5FE JUMPI PUSH1 0x24 DUP7 DUP3 PUSH1 0x3 SLOAD AND PUSH1 0x40 MLOAD SWAP3 DUP4 DUP1 SWAP3 PUSH4 0x70A08231 PUSH1 0xE0 SHL DUP3 MSTORE ADDRESS PUSH1 0x4 DUP4 ADD MSTORE GAS STATICCALL DUP1 ISZERO PUSH2 0x507 JUMPI DUP7 SWAP1 DUP6 SWAP1 PUSH2 0x5C8 JUMPI JUMPDEST PUSH2 0x3B0 SWAP3 POP LT ISZERO PUSH2 0x300B JUMP JUMPDEST DUP4 DUP4 MSTORE PUSH1 0x15 DUP7 MSTORE DUP3 PUSH1 0x40 DUP2 KECCAK256 SSTORE PUSH2 0x3C9 DUP6 PUSH1 0xC SLOAD PUSH2 0x311B JUMP JUMPDEST PUSH1 0xC SSTORE DUP6 DUP6 PUSH1 0xFF PUSH1 0xD SLOAD PUSH1 0x8 SHR AND PUSH1 0x0 EQ PUSH2 0x512 JUMPI SWAP1 PUSH2 0x424 SWAP2 DUP4 PUSH1 0x3 SLOAD AND DUP5 DUP8 PUSH1 0xD SLOAD PUSH1 0x40 MLOAD SWAP7 DUP8 SWAP6 DUP7 SWAP5 DUP6 SWAP4 PUSH4 0x95EA7B3 PUSH1 0xE0 SHL DUP6 MSTORE PUSH1 0x10 SHR AND PUSH1 0x4 DUP5 ADD PUSH1 0x20 SWAP1 SWAP4 SWAP3 SWAP2 SWAP4 PUSH1 0x1 PUSH1 0x1 PUSH1 0xA0 SHL SUB PUSH1 0x40 DUP3 ADD SWAP6 AND DUP2 MSTORE ADD MSTORE JUMP JUMPDEST SUB SWAP3 GAS CALL DUP1 ISZERO PUSH2 0x507 JUMPI PUSH2 0x4DA JUMPI JUMPDEST POP PUSH1 0xD SLOAD PUSH1 0x10 SHR AND PUSH1 0xFF PUSH1 0x11 SLOAD AND SWAP2 DUP2 EXTCODESIZE ISZERO PUSH2 0x4D6 JUMPI SWAP2 DUP4 SWAP2 DUP7 DUP4 PUSH2 0x46F SWAP6 PUSH1 0x40 MLOAD SWAP7 DUP8 SWAP6 DUP7 SWAP5 DUP6 SWAP4 PUSH4 0x48E8A949 PUSH1 0xE0 SHL DUP6 MSTORE PUSH1 0x4 DUP6 ADD PUSH2 0x306E JUMP JUMPDEST SUB SWAP3 GAS CALL DUP1 ISZERO PUSH2 0x4CB JUMPI PUSH2 0x4B7 JUMPI JUMPDEST POP POP JUMPDEST PUSH32 0xD8138F8A3F377C5259CA548E70E4C2DE94F129F5A11036A15B69513CBA2B426A DUP4 PUSH1 0x40 MLOAD DUP5 DUP2 MSTORE LOG2 PUSH1 0x1 PUSH1 0x2 SSTORE PUSH1 0x40 MLOAD SWAP1 DUP2 MSTORE RETURN JUMPDEST PUSH2 0x4C1 DUP3 SWAP2 PUSH2 0x2ADC JUMP JUMPDEST PUSH2 0x2EA JUMPI DUP1 PUSH2 0x47E JUMP JUMPDEST PUSH1 0x40 MLOAD RETURNDATASIZE DUP5 DUP3 RETURNDATACOPY RETURNDATASIZE SWAP1 REVERT JUMPDEST DUP4 DUP1 REVERT JUMPDEST PUSH2 0x4F9 SWAP1 DUP8 RETURNDATASIZE DUP10 GT PUSH2 0x500 JUMPI JUMPDEST PUSH2 0x4F1 DUP2 DUP4 PUSH2 0x2B06 JUMP JUMPDEST DUP2 ADD SWAP1 PUSH2 0x3056 JUMP JUMPDEST POP CODESIZE PUSH2 0x433 JUMP JUMPDEST POP RETURNDATASIZE PUSH2 0x4E7 JUMP JUMPDEST PUSH1 0x40 MLOAD RETURNDATASIZE DUP7 DUP3 RETURNDATACOPY RETURNDATASIZE SWAP1 REVERT JUMPDEST PUSH1 0x3 SLOAD PUSH1 0x40 MLOAD PUSH4 0xA9059CBB PUSH1 0xE0 SHL DUP2 MSTORE PUSH1 0x1 PUSH1 0x1 PUSH1 0xA0 SHL SUB SWAP6 SWAP1 SWAP6 AND PUSH1 0x4 DUP7 ADD MSTORE PUSH1 0x24 DUP6 ADD SWAP2 SWAP1 SWAP2 MSTORE SWAP1 SWAP2 DUP4 SWAP2 PUSH1 0x44 SWAP2 DUP4 SWAP2 DUP8 SWAP2 AND GAS CALL SWAP2 DUP3 ISZERO PUSH2 0x5BC JUMPI SWAP2 PUSH2 0x59F JUMPI JUMPDEST POP PUSH2 0x481 JUMPI PUSH1 0x64 DUP4 PUSH1 0x40 MLOAD SWAP1 PUSH3 0x461BCD PUSH1 0xE5 SHL DUP3 MSTORE PUSH1 0x4 DUP3 ADD MSTORE PUSH1 0x15 PUSH1 0x24 DUP3 ADD MSTORE PUSH32 0x546F6B656E207472616E73666572206661696C65640000000000000000000000 PUSH1 0x44 DUP3 ADD MSTORE REVERT JUMPDEST PUSH2 0x5B6 SWAP2 POP DUP5 RETURNDATASIZE DUP7 GT PUSH2 0x500 JUMPI PUSH2 0x4F1 DUP2 DUP4 PUSH2 0x2B06 JUMP JUMPDEST CODESIZE PUSH2 0x556 JUMP JUMPDEST PUSH1 0x40 MLOAD SWAP1 RETURNDATASIZE SWAP1 DUP3 RETURNDATACOPY RETURNDATASIZE SWAP1 REVERT JUMPDEST POP POP DUP7 DUP2 DUP2 RETURNDATASIZE DUP4 GT PUSH2 0x5F7 JUMPI JUMPDEST PUSH2 0x5DF DUP2 DUP4 PUSH2 0x2B06 JUMP JUMPDEST DUP2 ADD SUB SLT PUSH2 0x5F2 JUMPI DUP6 PUSH2 0x3B0 SWAP2 MLOAD PUSH2 0x3A4 JUMP JUMPDEST PUSH1 0x0 DUP1 REVERT JUMPDEST POP RETURNDATASIZE PUSH2 0x5D5 JUMP JUMPDEST PUSH1 0x64 DUP7 PUSH1 0x40 MLOAD SWAP1 PUSH3 0x461BCD PUSH1 0xE5 SHL DUP3 MSTORE PUSH1 0x4 DUP3 ADD MSTORE PUSH1 0x12 PUSH1 0x24 DUP3 ADD MSTORE PUSH32 0x4E6F20746F6B656E7320746F20636C61696D0000000000000000000000000000 PUSH1 0x44 DUP3 ADD MSTORE REVERT JUMPDEST PUSH1 0x64 DUP5 PUSH1 0x40 MLOAD SWAP1 PUSH3 0x461BCD PUSH1 0xE5 SHL DUP3 MSTORE PUSH1 0x4 DUP3 ADD MSTORE PUSH1 0x14 PUSH1 0x24 DUP3 ADD MSTORE PUSH32 0x4D61747572697479206E6F742072656163686564000000000000000000000000 PUSH1 0x44 DUP3 ADD MSTORE REVERT JUMPDEST PUSH1 0x40 MLOAD PUSH3 0x461BCD PUSH1 0xE5 SHL DUP2 MSTORE PUSH1 0x20 PUSH1 0x4 DUP3 ADD MSTORE PUSH1 0x2C PUSH1 0x24 DUP3 ADD MSTORE PUSH32 0x43616C6C6572206973206E6F742074686520696E766573746D656E744D616E61 PUSH1 0x44 DUP3 ADD MSTORE PUSH32 0x67657220636F6E74726163740000000000000000000000000000000000000000 PUSH1 0x64 DUP3 ADD MSTORE PUSH1 0x84 SWAP1 REVERT JUMPDEST POP CALLVALUE PUSH2 0x2EA JUMPI PUSH1 0x20 CALLDATASIZE PUSH1 0x3 NOT ADD SLT PUSH2 0x2EA JUMPI PUSH1 0xFF PUSH1 0x40 PUSH1 0x20 SWAP3 PUSH1 0x1 PUSH1 0x1 PUSH1 0xA0 SHL SUB PUSH2 0x71A PUSH2 0x2B28 JUMP JUMPDEST AND DUP2 MSTORE PUSH1 0x14 DUP5 MSTORE KECCAK256 SLOAD AND PUSH1 0x40 MLOAD SWAP1 ISZERO ISZERO DUP2 MSTORE RETURN JUMPDEST POP CALLVALUE PUSH2 0x2EA JUMPI DUP1 PUSH1 0x3 NOT CALLDATASIZE ADD SLT PUSH2 0x2EA JUMPI PUSH1 0x20 PUSH1 0x8 SLOAD PUSH1 0x40 MLOAD SWAP1 DUP2 MSTORE RETURN JUMPDEST POP CALLVALUE PUSH2 0x2EA JUMPI PUSH1 0x40 CALLDATASIZE PUSH1 0x3 NOT ADD SLT PUSH2 0x2EA JUMPI PUSH2 0x789 PUSH1 0x4 CALLDATALOAD PUSH2 0x76C PUSH2 0x2B3E JUMP JUMPDEST SWAP1 DUP1 DUP5 MSTORE DUP4 PUSH1 0x20 MSTORE PUSH2 0x784 PUSH1 0x1 PUSH1 0x40 DUP7 KECCAK256 ADD SLOAD PUSH2 0x2C44 JUMP JUMPDEST PUSH2 0x2ED1 JUMP JUMPDEST POP DUP1 RETURN JUMPDEST POP CALLVALUE PUSH2 0x2EA JUMPI DUP1 PUSH1 0x3 NOT CALLDATASIZE ADD SLT PUSH2 0x2EA JUMPI PUSH1 0x20 PUSH1 0xB SLOAD PUSH1 0x40 MLOAD SWAP1 DUP2 MSTORE RETURN JUMPDEST POP CALLVALUE PUSH2 0x2EA JUMPI DUP1 PUSH1 0x3 NOT CALLDATASIZE ADD SLT PUSH2 0x2EA JUMPI PUSH1 0x20 PUSH1 0x7 SLOAD PUSH1 0x40 MLOAD SWAP1 DUP2 MSTORE RETURN JUMPDEST POP CALLVALUE PUSH2 0x2EA JUMPI PUSH1 0x20 CALLDATASIZE PUSH1 0x3 NOT ADD SLT PUSH2 0x2EA JUMPI PUSH1 0x40 PUSH1 0x20 SWAP2 PUSH1 0x1 PUSH1 0x1 PUSH1 0xA0 SHL SUB PUSH2 0x7F0 PUSH2 0x2B28 JUMP JUMPDEST AND DUP2 MSTORE PUSH1 0x15 DUP4 MSTORE KECCAK256 SLOAD PUSH1 0x40 MLOAD SWAP1 DUP2 MSTORE RETURN JUMPDEST POP CALLVALUE PUSH2 0x2EA JUMPI PUSH1 0x20 CALLDATASIZE PUSH1 0x3 NOT ADD SLT PUSH2 0x2EA JUMPI PUSH1 0x20 SWAP1 PUSH1 0x40 PUSH1 0x1 PUSH1 0x1 PUSH1 0xA0 SHL SUB SWAP2 DUP3 PUSH2 0x82A PUSH2 0x2B28 JUMP JUMPDEST AND DUP2 MSTORE PUSH1 0x17 DUP5 MSTORE KECCAK256 SLOAD AND PUSH1 0x40 MLOAD SWAP1 DUP2 MSTORE RETURN JUMPDEST POP CALLVALUE PUSH2 0x2EA JUMPI DUP1 PUSH1 0x3 NOT CALLDATASIZE ADD SLT PUSH2 0x2EA JUMPI PUSH1 0x20 PUSH1 0xC SLOAD PUSH1 0x40 MLOAD SWAP1 DUP2 MSTORE RETURN JUMPDEST POP CALLVALUE PUSH2 0x2EA JUMPI DUP1 PUSH1 0x3 NOT CALLDATASIZE ADD SLT PUSH2 0x2EA JUMPI PUSH1 0x20 PUSH1 0xA SLOAD PUSH1 0x40 MLOAD SWAP1 DUP2 MSTORE RETURN JUMPDEST POP CALLVALUE PUSH2 0x2EA JUMPI PUSH1 0x60 CALLDATASIZE PUSH1 0x3 NOT ADD SLT PUSH2 0x2EA JUMPI PUSH2 0x892 PUSH2 0x2B28 JUMP JUMPDEST PUSH1 0x24 DUP1 CALLDATALOAD PUSH1 0x44 SWAP2 DUP3 CALLDATALOAD SWAP3 PUSH1 0x1 PUSH1 0x1 PUSH1 0xA0 SHL SUB SWAP4 DUP5 DUP2 AND SWAP6 DUP7 DUP3 SUB PUSH2 0x5F2 JUMPI PUSH2 0x8B8 PUSH2 0x2B77 JUMP JUMPDEST PUSH2 0x8C0 PUSH2 0x3097 JUMP JUMPDEST DUP7 ISZERO PUSH2 0xBC7 JUMPI DUP6 AND SWAP5 DUP6 PUSH2 0x9EF JUMPI POP DUP4 SELFBALANCE LT PUSH2 0x9AC JUMPI DUP7 DUP1 DUP1 DUP7 DUP2 SWAP5 GAS CALL RETURNDATASIZE ISZERO PUSH2 0x9A7 JUMPI RETURNDATASIZE PUSH8 0xFFFFFFFFFFFFFFFF DUP2 GT PUSH2 0x994 JUMPI PUSH1 0x40 MLOAD SWAP1 PUSH2 0x90C PUSH1 0x1F DUP3 ADD PUSH1 0x1F NOT AND PUSH1 0x20 ADD DUP4 PUSH2 0x2B06 JUMP JUMPDEST DUP2 MSTORE DUP8 PUSH1 0x20 RETURNDATASIZE SWAP3 ADD RETURNDATACOPY JUMPDEST ISZERO PUSH2 0x951 JUMPI POP POP PUSH1 0x20 PUSH32 0xD27DD37D941F5A1B76926E48140FDBF50A0C59DEFB5431A391A1260279EB1C4C SWAP2 JUMPDEST PUSH1 0x40 MLOAD SWAP1 DUP2 MSTORE LOG3 PUSH1 0x1 PUSH1 0x2 SSTORE DUP1 RETURN JUMPDEST SWAP1 PUSH32 0x4C554D494120726573637565206661696C656400000000000000000000000000 PUSH1 0x64 SWAP3 PUSH1 0x13 PUSH1 0x40 MLOAD SWAP4 PUSH3 0x461BCD PUSH1 0xE5 SHL DUP6 MSTORE PUSH1 0x20 PUSH1 0x4 DUP7 ADD MSTORE DUP5 ADD MSTORE DUP3 ADD MSTORE REVERT JUMPDEST DUP4 DUP9 PUSH4 0x4E487B71 PUSH1 0xE0 SHL DUP2 MSTORE PUSH1 0x41 PUSH1 0x4 MSTORE REVERT JUMPDEST PUSH2 0x916 JUMP JUMPDEST PUSH1 0x64 DUP4 PUSH32 0x4E6F7420656E6F756768204C554D494100000000000000000000000000000000 DUP5 PUSH1 0x10 PUSH1 0x40 MLOAD SWAP4 PUSH3 0x461BCD PUSH1 0xE5 SHL DUP6 MSTORE PUSH1 0x20 PUSH1 0x4 DUP7 ADD MSTORE DUP5 ADD MSTORE DUP3 ADD MSTORE REVERT JUMPDEST PUSH1 0x3 SWAP4 SWAP2 SWAP4 SLOAD AND DUP6 EQ PUSH2 0xB85 JUMPI PUSH1 0x40 MLOAD SWAP3 PUSH4 0x70A08231 PUSH1 0xE0 SHL DUP5 MSTORE ADDRESS PUSH1 0x4 DUP6 ADD MSTORE PUSH1 0x20 SWAP4 DUP5 DUP2 DUP5 DUP2 DUP11 GAS STATICCALL DUP1 ISZERO PUSH2 0xB7A JUMPI DUP7 SWAP2 DUP11 SWAP2 PUSH2 0xB49 JUMPI JUMPDEST POP LT PUSH2 0xB07 JUMPI PUSH1 0x40 MLOAD PUSH4 0xA9059CBB PUSH1 0xE0 SHL DUP2 MSTORE PUSH1 0x1 PUSH1 0x1 PUSH1 0xA0 SHL SUB SWAP2 SWAP1 SWAP2 AND PUSH1 0x4 DUP3 ADD MSTORE PUSH1 0x24 DUP2 ADD DUP6 SWAP1 MSTORE DUP4 DUP2 PUSH1 0x44 DUP2 DUP12 DUP11 GAS CALL SWAP1 DUP2 ISZERO PUSH2 0xAFC JUMPI DUP9 SWAP2 PUSH2 0xADF JUMPI JUMPDEST POP ISZERO PUSH2 0xA9D JUMPI POP POP POP PUSH1 0x20 PUSH32 0xD27DD37D941F5A1B76926E48140FDBF50A0C59DEFB5431A391A1260279EB1C4C SWAP2 PUSH2 0x942 JUMP JUMPDEST PUSH1 0x64 SWAP3 SWAP2 PUSH1 0x13 PUSH32 0x455243323020726573637565206661696C656400000000000000000000000000 SWAP3 PUSH1 0x40 MLOAD SWAP5 PUSH3 0x461BCD PUSH1 0xE5 SHL DUP7 MSTORE PUSH1 0x4 DUP7 ADD MSTORE DUP5 ADD MSTORE DUP3 ADD MSTORE REVERT JUMPDEST PUSH2 0xAF6 SWAP2 POP DUP5 RETURNDATASIZE DUP7 GT PUSH2 0x500 JUMPI PUSH2 0x4F1 DUP2 DUP4 PUSH2 0x2B06 JUMP JUMPDEST CODESIZE PUSH2 0xA6B JUMP JUMPDEST PUSH1 0x40 MLOAD RETURNDATASIZE DUP11 DUP3 RETURNDATACOPY RETURNDATASIZE SWAP1 REVERT JUMPDEST PUSH1 0x64 DUP5 PUSH32 0x4E6F7420656E6F75676820746F6B656E73000000000000000000000000000000 DUP6 PUSH1 0x11 DUP7 PUSH1 0x40 MLOAD SWAP5 PUSH3 0x461BCD PUSH1 0xE5 SHL DUP7 MSTORE PUSH1 0x4 DUP7 ADD MSTORE DUP5 ADD MSTORE DUP3 ADD MSTORE REVERT JUMPDEST DUP1 SWAP3 POP DUP7 DUP1 SWAP3 POP RETURNDATASIZE DUP4 GT PUSH2 0xB73 JUMPI JUMPDEST PUSH2 0xB62 DUP2 DUP4 PUSH2 0x2B06 JUMP JUMPDEST DUP2 ADD SUB SLT PUSH2 0x5F2 JUMPI DUP6 SWAP1 MLOAD CODESIZE PUSH2 0xA29 JUMP JUMPDEST POP RETURNDATASIZE PUSH2 0xB58 JUMP JUMPDEST PUSH1 0x40 MLOAD RETURNDATASIZE DUP12 DUP3 RETURNDATACOPY RETURNDATASIZE SWAP1 REVERT JUMPDEST PUSH32 0x43616E6E6F74207265736375652073616C65546F6B656E000000000000000000 PUSH1 0x64 SWAP3 PUSH1 0x17 PUSH1 0x40 MLOAD SWAP4 PUSH3 0x461BCD PUSH1 0xE5 SHL DUP6 MSTORE PUSH1 0x20 PUSH1 0x4 DUP7 ADD MSTORE DUP5 ADD MSTORE DUP3 ADD MSTORE REVERT JUMPDEST PUSH1 0x64 DUP5 PUSH32 0x496E76616C696420726563697069656E74000000000000000000000000000000 DUP6 PUSH1 0x11 PUSH1 0x40 MLOAD SWAP4 PUSH3 0x461BCD PUSH1 0xE5 SHL DUP6 MSTORE PUSH1 0x20 PUSH1 0x4 DUP7 ADD MSTORE DUP5 ADD MSTORE DUP3 ADD MSTORE REVERT JUMPDEST POP CALLVALUE PUSH2 0x2EA JUMPI PUSH1 0x20 CALLDATASIZE PUSH1 0x3 NOT ADD SLT PUSH2 0x2EA JUMPI PUSH2 0x789 PUSH2 0xC27 PUSH2 0x2B28 JUMP JUMPDEST PUSH2 0xC2F PUSH2 0x2B77 JUMP JUMPDEST PUSH2 0xC43 PUSH1 0x1 PUSH1 0x1 PUSH1 0xA0 SHL SUB DUP3 AND ISZERO ISZERO PUSH2 0x3128 JUMP JUMPDEST PUSH2 0x2CFA JUMP JUMPDEST POP CALLVALUE PUSH2 0x2EA JUMPI PUSH1 0x20 CALLDATASIZE PUSH1 0x3 NOT ADD SLT PUSH2 0x2EA JUMPI PUSH2 0x789 PUSH2 0xC65 PUSH2 0x2B28 JUMP JUMPDEST PUSH2 0xC6D PUSH2 0x2B77 JUMP JUMPDEST PUSH2 0xC81 PUSH1 0x1 PUSH1 0x1 PUSH1 0xA0 SHL SUB DUP3 AND ISZERO ISZERO PUSH2 0x3128 JUMP JUMPDEST PUSH2 0x2E26 JUMP JUMPDEST POP CALLVALUE PUSH2 0x2EA JUMPI DUP1 PUSH1 0x3 NOT CALLDATASIZE ADD SLT PUSH2 0x2EA JUMPI PUSH1 0x20 SWAP1 PUSH1 0x40 MLOAD SWAP1 DUP2 MSTORE RETURN JUMPDEST POP CALLVALUE PUSH2 0x2EA JUMPI PUSH1 0x40 CALLDATASIZE PUSH1 0x3 NOT ADD SLT PUSH2 0x2EA JUMPI PUSH1 0x1 PUSH1 0x1 PUSH1 0xA0 SHL SUB PUSH1 0x40 PUSH2 0xCC6 PUSH2 0x2B3E JUMP JUMPDEST SWAP3 PUSH1 0x4 CALLDATALOAD DUP2 MSTORE DUP1 PUSH1 0x20 MSTORE KECCAK256 SWAP2 AND PUSH1 0x0 MSTORE PUSH1 0x20 MSTORE PUSH1 0x20 PUSH1 0xFF PUSH1 0x40 PUSH1 0x0 KECCAK256 SLOAD AND PUSH1 0x40 MLOAD SWAP1 ISZERO ISZERO DUP2 MSTORE RETURN JUMPDEST POP CALLVALUE PUSH2 0x2EA JUMPI PUSH1 0x20 CALLDATASIZE PUSH1 0x3 NOT ADD SLT PUSH2 0x2EA JUMPI PUSH1 0x40 PUSH1 0x20 SWAP2 PUSH1 0x1 PUSH1 0x1 PUSH1 0xA0 SHL SUB PUSH2 0xD15 PUSH2 0x2B28 JUMP JUMPDEST AND DUP2 MSTORE PUSH1 0x16 DUP4 MSTORE KECCAK256 SLOAD PUSH1 0x40 MLOAD SWAP1 DUP2 MSTORE RETURN JUMPDEST POP CALLVALUE PUSH2 0x2EA JUMPI DUP1 PUSH1 0x3 NOT CALLDATASIZE ADD SLT PUSH2 0x2EA JUMPI PUSH1 0x20 PUSH1 0xFF PUSH1 0x11 SLOAD AND PUSH2 0xD4C PUSH1 0x40 MLOAD DUP1 SWAP3 PUSH2 0x2B54 JUMP JUMPDEST RETURN JUMPDEST POP CALLVALUE PUSH2 0x2EA JUMPI DUP1 PUSH1 0x3 NOT CALLDATASIZE ADD SLT PUSH2 0x2EA JUMPI PUSH1 0x20 PUSH1 0x4 SLOAD PUSH1 0x40 MLOAD SWAP1 DUP2 MSTORE RETURN JUMPDEST POP CALLVALUE PUSH2 0x2EA JUMPI DUP1 PUSH1 0x3 NOT CALLDATASIZE ADD SLT PUSH2 0x2EA JUMPI PUSH1 0x20 PUSH1 0x40 MLOAD PUSH32 0x35369B3A7BB98C90641A907C2FD643EA781341EBA72CCFFD47CB018C128C48C3 DUP2 MSTORE RETURN JUMPDEST POP CALLVALUE PUSH2 0x2EA JUMPI PUSH1 0x20 CALLDATASIZE PUSH1 0x3 NOT ADD SLT PUSH2 0x2EA JUMPI PUSH2 0xDC1 PUSH2 0x2B28 JUMP JUMPDEST PUSH2 0xDC9 PUSH2 0x2B77 JUMP JUMPDEST PUSH1 0x1 PUSH1 0x1 PUSH1 0xA0 SHL SUB DUP1 SWAP2 AND SWAP1 DUP2 DUP4 MSTORE PUSH1 0x17 PUSH1 0x20 MSTORE PUSH1 0x40 DUP4 KECCAK256 SLOAD AND ISZERO PUSH2 0xE2F JUMPI DUP1 DUP3 MSTORE PUSH1 0x17 PUSH1 0x20 MSTORE PUSH1 0x40 DUP3 KECCAK256 PUSH1 0x1 PUSH1 0x1 PUSH1 0xA0 SHL SUB NOT DUP2 SLOAD AND SWAP1 SSTORE PUSH32 0xC1D3048301C0D23629A2532C8DEFA6D68F8E1A0E4157918769E9FB1B2EEB888E PUSH1 0x20 PUSH1 0x40 MLOAD DUP5 DUP2 MSTORE LOG2 DUP1 RETURN JUMPDEST PUSH1 0x64 PUSH1 0x40 MLOAD PUSH3 0x461BCD PUSH1 0xE5 SHL DUP2 MSTORE PUSH1 0x20 PUSH1 0x4 DUP3 ADD MSTORE PUSH1 0x13 PUSH1 0x24 DUP3 ADD MSTORE PUSH32 0x4E6F206F7261636C6520746F2072656D6F766500000000000000000000000000 PUSH1 0x44 DUP3 ADD MSTORE REVERT JUMPDEST POP CALLVALUE PUSH2 0x2EA JUMPI DUP1 PUSH1 0x3 NOT CALLDATASIZE ADD SLT PUSH2 0x2EA JUMPI PUSH2 0xE8C PUSH2 0x2B77 JUMP JUMPDEST PUSH2 0xE94 PUSH2 0x2F92 JUMP JUMPDEST PUSH1 0x1 PUSH1 0xFF NOT DUP2 SLOAD AND OR PUSH1 0x1 SSTORE PUSH1 0x20 PUSH1 0x40 MLOAD CALLER DUP2 MSTORE PUSH32 0x62E78CEA01BEE320CD4E420270B5EA74000D11B0C9F74754EBDBFC544B05A258 SWAP2 DUP3 SWAP2 LOG1 PUSH1 0x20 PUSH1 0x40 MLOAD CALLER DUP2 MSTORE LOG1 DUP1 RETURN JUMPDEST POP CALLVALUE PUSH2 0x2EA JUMPI DUP1 PUSH1 0x3 NOT CALLDATASIZE ADD SLT PUSH2 0x2EA JUMPI PUSH1 0x20 PUSH1 0x13 SLOAD PUSH1 0x40 MLOAD SWAP1 DUP2 MSTORE RETURN JUMPDEST POP CALLVALUE PUSH2 0x2EA JUMPI PUSH1 0x20 DUP1 PUSH1 0x3 NOT CALLDATASIZE ADD SLT PUSH2 0x116C JUMPI PUSH2 0xF12 PUSH2 0x2B28 JUMP JUMPDEST SWAP1 PUSH2 0xF1B PUSH2 0x2BE8 JUMP JUMPDEST PUSH2 0xF23 PUSH2 0x3097 JUMP JUMPDEST PUSH1 0x8 SLOAD TIMESTAMP GT ISZERO PUSH2 0x1128 JUMPI PUSH1 0x1 PUSH1 0x1 PUSH1 0xA0 SHL SUB SWAP2 DUP3 DUP2 AND SWAP3 DUP4 ISZERO PUSH2 0x10E4 JUMPI PUSH1 0x3 SLOAD AND PUSH1 0x40 MLOAD PUSH4 0x70A08231 PUSH1 0xE0 SHL DUP2 MSTORE ADDRESS PUSH1 0x4 DUP3 ADD MSTORE DUP4 DUP2 PUSH1 0x24 DUP2 DUP6 GAS STATICCALL DUP1 ISZERO PUSH2 0x10D9 JUMPI DUP7 SWAP1 PUSH2 0x10AA JUMPI JUMPDEST PUSH2 0xF7A SWAP2 POP PUSH1 0xC SLOAD SWAP1 PUSH2 0x311B JUMP JUMPDEST SWAP2 DUP3 ISZERO PUSH2 0x1066 JUMPI PUSH1 0x40 MLOAD PUSH4 0xA9059CBB PUSH1 0xE0 SHL DUP2 MSTORE PUSH1 0x1 PUSH1 0x1 PUSH1 0xA0 SHL SUB SWAP2 SWAP1 SWAP2 AND PUSH1 0x4 DUP3 ADD MSTORE PUSH1 0x24 DUP2 ADD DUP4 SWAP1 MSTORE SWAP1 DUP4 SWAP1 DUP3 SWAP1 PUSH1 0x44 SWAP1 DUP3 SWAP1 DUP10 SWAP1 GAS CALL SWAP1 DUP2 ISZERO PUSH2 0x105B JUMPI DUP6 SWAP2 PUSH2 0x103E JUMPI JUMPDEST POP ISZERO PUSH2 0xFFA JUMPI SWAP1 PUSH32 0xFCBF6553B2CFC097C2301F1C071469A8839B462E7287E3692F238CCFC6B9208F SWAP2 PUSH1 0x40 MLOAD SWAP1 DUP2 MSTORE LOG2 PUSH1 0x1 PUSH1 0x2 SSTORE DUP1 RETURN JUMPDEST PUSH1 0x64 DUP3 PUSH1 0x40 MLOAD SWAP1 PUSH3 0x461BCD PUSH1 0xE5 SHL DUP3 MSTORE PUSH1 0x4 DUP3 ADD MSTORE PUSH1 0xE PUSH1 0x24 DUP3 ADD MSTORE PUSH32 0x5265636C61696D206661696C6564000000000000000000000000000000000000 PUSH1 0x44 DUP3 ADD MSTORE REVERT JUMPDEST PUSH2 0x1055 SWAP2 POP DUP4 RETURNDATASIZE DUP6 GT PUSH2 0x500 JUMPI PUSH2 0x4F1 DUP2 DUP4 PUSH2 0x2B06 JUMP JUMPDEST CODESIZE PUSH2 0xFC2 JUMP JUMPDEST PUSH1 0x40 MLOAD RETURNDATASIZE DUP8 DUP3 RETURNDATACOPY RETURNDATASIZE SWAP1 REVERT JUMPDEST PUSH1 0x64 DUP5 PUSH1 0x40 MLOAD SWAP1 PUSH3 0x461BCD PUSH1 0xE5 SHL DUP3 MSTORE PUSH1 0x4 DUP3 ADD MSTORE PUSH1 0x13 PUSH1 0x24 DUP3 ADD MSTORE PUSH32 0x4E6F20756E636C61696D656420746F6B656E7300000000000000000000000000 PUSH1 0x44 DUP3 ADD MSTORE REVERT JUMPDEST POP DUP4 DUP2 DUP2 RETURNDATASIZE DUP4 GT PUSH2 0x10D2 JUMPI JUMPDEST PUSH2 0x10C0 DUP2 DUP4 PUSH2 0x2B06 JUMP JUMPDEST DUP2 ADD SUB SLT PUSH2 0x5F2 JUMPI PUSH2 0xF7A SWAP1 MLOAD PUSH2 0xF6C JUMP JUMPDEST POP RETURNDATASIZE PUSH2 0x10B6 JUMP JUMPDEST PUSH1 0x40 MLOAD RETURNDATASIZE DUP9 DUP3 RETURNDATACOPY RETURNDATASIZE SWAP1 REVERT JUMPDEST PUSH1 0x64 DUP4 PUSH1 0x40 MLOAD SWAP1 PUSH3 0x461BCD PUSH1 0xE5 SHL DUP3 MSTORE PUSH1 0x4 DUP3 ADD MSTORE PUSH1 0xF PUSH1 0x24 DUP3 ADD MSTORE PUSH32 0x496E76616C696420616464726573730000000000000000000000000000000000 PUSH1 0x44 DUP3 ADD MSTORE REVERT JUMPDEST PUSH1 0x64 SWAP1 PUSH1 0x40 MLOAD SWAP1 PUSH3 0x461BCD PUSH1 0xE5 SHL DUP3 MSTORE PUSH1 0x4 DUP3 ADD MSTORE PUSH1 0xB PUSH1 0x24 DUP3 ADD MSTORE PUSH32 0x4E6F74206D617475726564000000000000000000000000000000000000000000 PUSH1 0x44 DUP3 ADD MSTORE REVERT JUMPDEST POP DUP1 REVERT JUMPDEST POP CALLVALUE PUSH2 0x2EA JUMPI PUSH1 0x40 CALLDATASIZE PUSH1 0x3 NOT ADD SLT PUSH2 0x2EA JUMPI PUSH2 0x118A PUSH2 0x2B28 JUMP JUMPDEST PUSH2 0x1192 PUSH2 0x2B3E JUMP JUMPDEST PUSH2 0x119A PUSH2 0x2B77 JUMP JUMPDEST PUSH1 0x1 PUSH1 0x1 PUSH1 0xA0 SHL SUB DUP1 SWAP2 AND SWAP2 DUP3 ISZERO PUSH2 0x11F8 JUMPI PUSH32 0xC1D3048301C0D23629A2532C8DEFA6D68F8E1A0E4157918769E9FB1B2EEB888E SWAP2 PUSH1 0x20 SWAP2 AND SWAP3 DUP4 DUP6 MSTORE PUSH1 0x17 DUP3 MSTORE PUSH1 0x40 DUP6 KECCAK256 DUP2 PUSH1 0x1 PUSH1 0x1 PUSH1 0xA0 SHL SUB NOT DUP3 SLOAD AND OR SWAP1 SSTORE PUSH1 0x40 MLOAD SWAP1 DUP2 MSTORE LOG2 DUP1 RETURN JUMPDEST PUSH1 0x64 PUSH1 0x40 MLOAD PUSH3 0x461BCD PUSH1 0xE5 SHL DUP2 MSTORE PUSH1 0x20 PUSH1 0x4 DUP3 ADD MSTORE PUSH1 0x16 PUSH1 0x24 DUP3 ADD MSTORE PUSH32 0x496E76616C6964206F7261636C65206164647265737300000000000000000000 PUSH1 0x44 DUP3 ADD MSTORE REVERT JUMPDEST POP CALLVALUE PUSH2 0x2EA JUMPI PUSH1 0x20 CALLDATASIZE PUSH1 0x3 NOT ADD SLT PUSH2 0x2EA JUMPI PUSH32 0x6B361C807733CC94A3B7BDA39C1C94DCC0511E91AA47B0F7F918068E93976890 PUSH1 0x20 PUSH1 0x4 CALLDATALOAD PUSH2 0x127C PUSH2 0x2BE8 JUMP JUMPDEST PUSH2 0x1287 DUP2 ISZERO ISZERO PUSH2 0x30D0 JUMP JUMPDEST DUP1 PUSH1 0x13 SSTORE PUSH1 0x40 MLOAD SWAP1 DUP2 MSTORE LOG1 DUP1 RETURN JUMPDEST POP PUSH1 0x60 CALLDATASIZE PUSH1 0x3 NOT ADD SLT PUSH2 0x2EA JUMPI PUSH2 0x12AA PUSH2 0x2B28 JUMP JUMPDEST SWAP1 PUSH2 0x12B3 PUSH2 0x2B3E JUMP JUMPDEST SWAP2 PUSH2 0x12BC PUSH2 0x3097 JUMP JUMPDEST PUSH2 0x12C4 PUSH2 0x2F92 JUMP JUMPDEST PUSH1 0x1 PUSH1 0x1 PUSH1 0xA0 SHL SUB PUSH1 0xE SLOAD AND CALLER SUB PUSH2 0x686 JUMPI PUSH1 0x1 PUSH1 0x1 PUSH1 0xA0 SHL SUB DUP4 AND ISZERO PUSH2 0x1E9C JUMPI PUSH1 0xFF PUSH1 0xD SLOAD AND PUSH2 0x1E58 JUMPI PUSH1 0x6 SLOAD TIMESTAMP LT PUSH2 0x1E14 JUMPI PUSH1 0x7 SLOAD TIMESTAMP LT ISZERO PUSH2 0x1DD0 JUMPI PUSH1 0x1 PUSH1 0x1 PUSH1 0xA0 SHL SUB DUP2 AND DUP3 MSTORE PUSH1 0x14 PUSH1 0x20 MSTORE PUSH1 0xFF PUSH1 0x40 DUP4 KECCAK256 SLOAD AND ISZERO PUSH2 0x1D8C JUMPI PUSH1 0x44 CALLDATALOAD ISZERO PUSH2 0x1D48 JUMPI PUSH1 0x1 PUSH1 0x1 PUSH1 0xA0 SHL SUB DUP2 AND DUP3 MSTORE PUSH1 0x17 PUSH1 0x20 MSTORE PUSH1 0x1 PUSH1 0x1 PUSH1 0xA0 SHL SUB PUSH1 0x40 DUP4 KECCAK256 SLOAD AND DUP1 ISZERO PUSH2 0x1D04 JUMPI PUSH1 0x40 PUSH1 0x4 SWAP2 DUP2 MLOAD SWAP3 DUP4 DUP1 SWAP3 PUSH32 0x57DE26A400000000000000000000000000000000000000000000000000000000 DUP3 MSTORE GAS STATICCALL SWAP1 DUP2 ISZERO PUSH2 0x1CF9 JUMPI DUP4 SWAP2 PUSH2 0x1CAB JUMPI JUMPDEST POP PUSH1 0x1B SIGNEXTEND SWAP2 PUSH2 0x139B DUP2 DUP5 SGT PUSH2 0x30D0 JUMP JUMPDEST PUSH1 0x1 PUSH1 0x1 PUSH1 0xA0 SHL SUB DUP3 AND PUSH2 0x1C22 JUMPI PUSH1 0x12 SWAP3 JUMPDEST DUP1 PUSH1 0x44 CALLDATALOAD MUL SWAP1 PUSH1 0x44 CALLDATALOAD DUP3 DIV SUB PUSH2 0x1C0E JUMPI PUSH8 0xDE0B6B3A7640000 SWAP4 DUP5 DUP3 MUL SWAP2 DUP1 DUP4 DIV DUP7 EQ SWAP1 ISZERO OR ISZERO PUSH2 0x1B2E JUMPI PUSH1 0xFF AND PUSH1 0x4D DUP2 GT PUSH2 0x1B2E JUMPI DUP5 SWAP2 PUSH2 0x13F2 SWAP2 PUSH1 0xA EXP SWAP1 PUSH2 0x2FEB JUMP JUMPDEST DIV PUSH1 0x4 SLOAD DUP2 LT PUSH2 0x1BCA JUMPI PUSH1 0x1 PUSH1 0x1 PUSH1 0xA0 SHL SUB DUP6 AND DUP3 MSTORE PUSH1 0x16 PUSH1 0x20 MSTORE PUSH2 0x141B DUP2 PUSH1 0x40 DUP5 KECCAK256 SLOAD PUSH2 0x2FC8 JUMP JUMPDEST PUSH1 0x5 SLOAD LT PUSH2 0x1B86 JUMPI PUSH1 0xB SLOAD SWAP4 PUSH2 0x1431 DUP3 DUP7 PUSH2 0x2FC8 JUMP JUMPDEST PUSH1 0xA SLOAD LT PUSH2 0x1B42 JUMPI DUP1 DUP3 MUL SWAP1 DUP3 DUP3 DIV EQ DUP3 ISZERO OR ISZERO PUSH2 0x1B2E JUMPI PUSH1 0x13 SLOAD PUSH2 0x1455 SWAP2 PUSH2 0x2FEB JUMP JUMPDEST SWAP4 DUP5 ISZERO PUSH2 0x1AEA JUMPI DUP2 PUSH2 0x1466 SWAP2 PUSH2 0x2FC8 JUMP JUMPDEST PUSH1 0xB SSTORE PUSH1 0x1 PUSH1 0x1 PUSH1 0xA0 SHL SUB DUP6 AND DUP3 MSTORE PUSH1 0x16 PUSH1 0x20 MSTORE PUSH2 0x1489 PUSH1 0x40 DUP4 KECCAK256 SWAP2 DUP3 SLOAD PUSH2 0x2FC8 JUMP JUMPDEST SWAP1 SSTORE PUSH1 0xFF PUSH1 0x9 SLOAD AND PUSH2 0x1A6B JUMPI JUMPDEST PUSH1 0x1 PUSH1 0x1 PUSH1 0xA0 SHL SUB DUP3 AND PUSH2 0x1888 JUMPI PUSH1 0x44 CALLDATALOAD CALLVALUE SUB PUSH2 0x1844 JUMPI PUSH1 0x1 PUSH1 0x1 PUSH1 0xA0 SHL SUB PUSH1 0x12 SLOAD AND DUP1 EXTCODESIZE ISZERO PUSH2 0x116C JUMPI DUP2 PUSH1 0x44 SWAP2 PUSH1 0x40 MLOAD SWAP3 DUP4 DUP1 SWAP3 PUSH32 0x701BB89100000000000000000000000000000000000000000000000000000000 DUP3 MSTORE ADDRESS PUSH1 0x4 DUP4 ADD MSTORE PUSH1 0x1 PUSH1 0x1 PUSH1 0xA0 SHL SUB DUP11 AND PUSH1 0x24 DUP4 ADD MSTORE CALLVALUE SWAP1 GAS CALL DUP1 ISZERO PUSH2 0x4CB JUMPI SWAP1 DUP3 SWAP2 PUSH2 0x1830 JUMPI JUMPDEST POP POP JUMPDEST PUSH1 0x9 SLOAD PUSH1 0xFF AND ISZERO PUSH2 0x17D4 JUMPI PUSH1 0xD SLOAD PUSH1 0x8 SHR PUSH1 0xFF AND ISZERO PUSH2 0x16F3 JUMPI PUSH1 0x3 SLOAD PUSH1 0xD SLOAD PUSH1 0x40 MLOAD PUSH4 0x95EA7B3 PUSH1 0xE0 SHL DUP2 MSTORE PUSH1 0x1 PUSH1 0x1 PUSH1 0xA0 SHL SUB PUSH1 0x10 SWAP3 SWAP1 SWAP3 SHR DUP3 AND PUSH1 0x4 DUP3 ADD MSTORE PUSH1 0x24 DUP2 ADD DUP7 SWAP1 MSTORE SWAP2 PUSH1 0x20 SWAP2 DUP4 SWAP2 AND DUP2 DUP6 DUP2 PUSH1 0x44 DUP2 ADD SUB SWAP3 GAS CALL SWAP1 DUP2 ISZERO PUSH2 0x4CB JUMPI DUP3 SWAP2 PUSH2 0x16D4 JUMPI JUMPDEST POP ISZERO PUSH2 0x1690 JUMPI PUSH1 0x1 PUSH1 0x1 PUSH1 0xA0 SHL SUB PUSH1 0xD SLOAD PUSH1 0x10 SHR AND PUSH1 0xFF PUSH1 0x11 SLOAD AND DUP2 EXTCODESIZE ISZERO PUSH2 0x168C JUMPI PUSH2 0x15C7 DUP4 SWAP3 DUP4 SWAP3 PUSH1 0x40 MLOAD SWAP5 DUP6 DUP1 SWAP5 DUP2 SWAP4 PUSH4 0x48E8A949 PUSH1 0xE0 SHL DUP4 MSTORE DUP12 DUP14 PUSH1 0x4 DUP6 ADD PUSH2 0x306E JUMP JUMPDEST SUB SWAP3 GAS CALL DUP1 ISZERO PUSH2 0x4CB JUMPI PUSH2 0x1678 JUMPI JUMPDEST POP POP PUSH32 0x93638E6CF18B4F6A839DE65DF95898221F5D9F7DC54B87D4B31D40297643266E PUSH1 0x60 PUSH1 0x1 PUSH1 0x1 PUSH1 0xA0 SHL SUB PUSH1 0x20 SWAP6 JUMPDEST DUP2 PUSH1 0x40 MLOAD SWAP6 AND DUP6 MSTORE PUSH1 0x44 CALLDATALOAD DUP8 DUP7 ADD MSTORE DUP6 PUSH1 0x40 DUP7 ADD MSTORE AND SWAP3 LOG2 PUSH1 0xB SLOAD PUSH1 0xA SLOAD DUP2 LT ISZERO PUSH2 0x163B JUMPI JUMPDEST POP PUSH1 0x1 PUSH1 0x2 SSTORE PUSH1 0x40 MLOAD SWAP1 DUP2 MSTORE RETURN JUMPDEST DUP3 PUSH32 0xCB67F20F64495B30F15524C55F90201DD6571D6B5C19DAC183D2AEB25315B2DC SWAP2 PUSH1 0x1 PUSH1 0xFF NOT PUSH1 0xD SLOAD AND OR PUSH1 0xD SSTORE PUSH1 0x40 MLOAD SWAP1 DUP2 MSTORE LOG1 CODESIZE PUSH2 0x162D JUMP JUMPDEST PUSH2 0x1682 DUP3 SWAP2 PUSH2 0x2ADC JUMP JUMPDEST PUSH2 0x2EA JUMPI DUP1 PUSH2 0x15D6 JUMP JUMPDEST DUP3 DUP1 REVERT JUMPDEST PUSH1 0x64 PUSH1 0x40 MLOAD PUSH3 0x461BCD PUSH1 0xE5 SHL DUP2 MSTORE PUSH1 0x20 PUSH1 0x4 DUP3 ADD MSTORE PUSH1 0xE PUSH1 0x24 DUP3 ADD MSTORE PUSH32 0x417070726F7665206661696C6564000000000000000000000000000000000000 PUSH1 0x44 DUP3 ADD MSTORE REVERT JUMPDEST PUSH2 0x16ED SWAP2 POP PUSH1 0x20 RETURNDATASIZE PUSH1 0x20 GT PUSH2 0x500 JUMPI PUSH2 0x4F1 DUP2 DUP4 PUSH2 0x2B06 JUMP JUMPDEST CODESIZE PUSH2 0x1580 JUMP JUMPDEST PUSH1 0x3 SLOAD PUSH1 0x40 MLOAD PUSH4 0xA9059CBB PUSH1 0xE0 SHL DUP2 MSTORE PUSH1 0x1 PUSH1 0x1 PUSH1 0xA0 SHL SUB DUP7 DUP2 AND PUSH1 0x4 DUP4 ADD MSTORE PUSH1 0x24 DUP3 ADD DUP7 SWAP1 MSTORE SWAP1 SWAP2 PUSH1 0x20 SWAP2 DUP4 SWAP2 PUSH1 0x44 SWAP2 DUP4 SWAP2 DUP8 SWAP2 AND GAS CALL SWAP2 DUP3 ISZERO PUSH2 0x5BC JUMPI SWAP2 PUSH2 0x17B5 JUMPI JUMPDEST POP ISZERO PUSH2 0x1771 JUMPI PUSH32 0x93638E6CF18B4F6A839DE65DF95898221F5D9F7DC54B87D4B31D40297643266E PUSH1 0x60 PUSH1 0x1 PUSH1 0x1 PUSH1 0xA0 SHL SUB PUSH1 0x20 SWAP6 PUSH2 0x1607 JUMP JUMPDEST PUSH1 0x64 PUSH1 0x40 MLOAD PUSH3 0x461BCD PUSH1 0xE5 SHL DUP2 MSTORE PUSH1 0x20 PUSH1 0x4 DUP3 ADD MSTORE PUSH1 0x14 PUSH1 0x24 DUP3 ADD MSTORE PUSH32 0x4175746F2D7472616E73666572206661696C6564000000000000000000000000 PUSH1 0x44 DUP3 ADD MSTORE REVERT JUMPDEST PUSH2 0x17CE SWAP2 POP PUSH1 0x20 RETURNDATASIZE PUSH1 0x20 GT PUSH2 0x500 JUMPI PUSH2 0x4F1 DUP2 DUP4 PUSH2 0x2B06 JUMP JUMPDEST CODESIZE PUSH2 0x1738 JUMP JUMPDEST PUSH1 0x60 PUSH1 0x1 PUSH1 0x1 PUSH1 0xA0 SHL SUB DUP6 PUSH1 0x40 PUSH32 0x93638E6CF18B4F6A839DE65DF95898221F5D9F7DC54B87D4B31D40297643266E SWAP5 DUP4 PUSH1 0x20 SWAP10 AND DUP2 MSTORE PUSH1 0x15 DUP10 MSTORE KECCAK256 PUSH2 0x181A DUP8 DUP3 SLOAD PUSH2 0x2FC8 JUMP JUMPDEST SWAP1 SSTORE PUSH2 0x1828 DUP7 PUSH1 0xC SLOAD PUSH2 0x2FC8 JUMP JUMPDEST PUSH1 0xC SSTORE PUSH2 0x1607 JUMP JUMPDEST PUSH2 0x1839 SWAP1 PUSH2 0x2ADC JUMP JUMPDEST PUSH2 0x2EA JUMPI DUP1 CODESIZE PUSH2 0x1515 JUMP JUMPDEST PUSH1 0x64 PUSH1 0x40 MLOAD PUSH3 0x461BCD PUSH1 0xE5 SHL DUP2 MSTORE PUSH1 0x20 PUSH1 0x4 DUP3 ADD MSTORE PUSH1 0x17 PUSH1 0x24 DUP3 ADD MSTORE PUSH32 0x496E636F7272656374206E617469766520616D6F756E74000000000000000000 PUSH1 0x44 DUP3 ADD MSTORE REVERT JUMPDEST CALLVALUE PUSH2 0x1A01 JUMPI PUSH1 0x40 MLOAD PUSH32 0x23B872DD00000000000000000000000000000000000000000000000000000000 DUP2 MSTORE PUSH1 0x1 PUSH1 0x1 PUSH1 0xA0 SHL SUB DUP6 AND PUSH1 0x4 DUP3 ADD MSTORE ADDRESS PUSH1 0x24 DUP3 ADD MSTORE PUSH1 0x44 CALLDATALOAD PUSH1 0x44 DUP3 ADD MSTORE PUSH1 0x20 DUP2 PUSH1 0x64 DUP2 DUP6 PUSH1 0x1 PUSH1 0x1 PUSH1 0xA0 SHL SUB DUP9 AND GAS CALL DUP1 ISZERO PUSH2 0x4CB JUMPI PUSH2 0x19E2 JUMPI JUMPDEST POP PUSH1 0x12 SLOAD PUSH1 0x40 MLOAD PUSH4 0x95EA7B3 PUSH1 0xE0 SHL DUP2 MSTORE PUSH1 0x1 PUSH1 0x1 PUSH1 0xA0 SHL SUB SWAP2 DUP3 AND PUSH1 0x4 DUP3 ADD MSTORE PUSH1 0x44 DUP1 CALLDATALOAD PUSH1 0x24 DUP4 ADD MSTORE SWAP1 SWAP2 PUSH1 0x20 SWAP2 DUP4 SWAP2 DUP3 SWAP1 DUP7 SWAP1 DUP9 AND GAS CALL DUP1 ISZERO PUSH2 0x4CB JUMPI PUSH2 0x19C3 JUMPI JUMPDEST POP PUSH1 0x1 PUSH1 0x1 PUSH1 0xA0 SHL SUB PUSH1 0x12 SLOAD AND DUP1 EXTCODESIZE ISZERO PUSH2 0x116C JUMPI DUP2 DUP1 SWAP2 PUSH1 0x84 PUSH1 0x40 MLOAD DUP1 SWAP5 DUP2 SWAP4 PUSH32 0xEF7C5A700000000000000000000000000000000000000000000000000000000 DUP4 MSTORE ADDRESS PUSH1 0x4 DUP5 ADD MSTORE PUSH1 0x1 PUSH1 0x1 PUSH1 0xA0 SHL SUB DUP12 AND PUSH1 0x24 DUP5 ADD MSTORE PUSH1 0x1 PUSH1 0x1 PUSH1 0xA0 SHL SUB DUP10 AND PUSH1 0x44 DUP5 ADD MSTORE PUSH1 0x44 CALLDATALOAD PUSH1 0x64 DUP5 ADD MSTORE GAS CALL DUP1 ISZERO PUSH2 0x4CB JUMPI PUSH2 0x19B4 JUMPI JUMPDEST POP PUSH2 0x1518 JUMP JUMPDEST PUSH2 0x19BD SWAP1 PUSH2 0x2ADC JUMP JUMPDEST CODESIZE PUSH2 0x19AE JUMP JUMPDEST PUSH2 0x19DB SWAP1 PUSH1 0x20 RETURNDATASIZE PUSH1 0x20 GT PUSH2 0x500 JUMPI PUSH2 0x4F1 DUP2 DUP4 PUSH2 0x2B06 JUMP JUMPDEST POP CODESIZE PUSH2 0x1932 JUMP JUMPDEST PUSH2 0x19FA SWAP1 PUSH1 0x20 RETURNDATASIZE PUSH1 0x20 GT PUSH2 0x500 JUMPI PUSH2 0x4F1 DUP2 DUP4 PUSH2 0x2B06 JUMP JUMPDEST POP CODESIZE PUSH2 0x18EE JUMP JUMPDEST PUSH1 0x84 PUSH1 0x40 MLOAD PUSH3 0x461BCD PUSH1 0xE5 SHL DUP2 MSTORE PUSH1 0x20 PUSH1 0x4 DUP3 ADD MSTORE PUSH1 0x21 PUSH1 0x24 DUP3 ADD MSTORE PUSH32 0x446F206E6F742073656E642045544820666F7220746F6B656E207061796D656E PUSH1 0x44 DUP3 ADD MSTORE PUSH32 0x7400000000000000000000000000000000000000000000000000000000000000 PUSH1 0x64 DUP3 ADD MSTORE REVERT JUMPDEST PUSH1 0x24 PUSH1 0x20 PUSH1 0x1 PUSH1 0x1 PUSH1 0xA0 SHL SUB PUSH1 0x3 SLOAD AND PUSH1 0x40 MLOAD SWAP3 DUP4 DUP1 SWAP3 PUSH4 0x70A08231 PUSH1 0xE0 SHL DUP3 MSTORE ADDRESS PUSH1 0x4 DUP4 ADD MSTORE GAS STATICCALL DUP1 ISZERO PUSH2 0x4CB JUMPI DUP5 SWAP1 DUP4 SWAP1 PUSH2 0x1AB4 JUMPI JUMPDEST PUSH2 0x1AAF SWAP3 POP LT ISZERO PUSH2 0x300B JUMP JUMPDEST PUSH2 0x1496 JUMP JUMPDEST POP POP PUSH1 0x20 DUP2 RETURNDATASIZE PUSH1 0x20 GT PUSH2 0x1AE2 JUMPI JUMPDEST DUP2 PUSH2 0x1ACF PUSH1 0x20 SWAP4 DUP4 PUSH2 0x2B06 JUMP JUMPDEST DUP2 ADD SUB SLT PUSH2 0x116C JUMPI DUP4 PUSH2 0x1AAF SWAP2 MLOAD PUSH2 0x1AA3 JUMP JUMPDEST RETURNDATASIZE SWAP2 POP PUSH2 0x1AC2 JUMP JUMPDEST PUSH1 0x64 PUSH1 0x40 MLOAD PUSH3 0x461BCD PUSH1 0xE5 SHL DUP2 MSTORE PUSH1 0x20 PUSH1 0x4 DUP3 ADD MSTORE PUSH1 0x14 PUSH1 0x24 DUP3 ADD MSTORE PUSH32 0x546F6B656E20616D6F756E7420746F6F206C6F77000000000000000000000000 PUSH1 0x44 DUP3 ADD MSTORE REVERT JUMPDEST PUSH1 0x24 DUP4 PUSH4 0x4E487B71 PUSH1 0xE0 SHL DUP2 MSTORE PUSH1 0x11 PUSH1 0x4 MSTORE REVERT JUMPDEST PUSH1 0x64 PUSH1 0x40 MLOAD PUSH3 0x461BCD PUSH1 0xE5 SHL DUP2 MSTORE PUSH1 0x20 PUSH1 0x4 DUP3 ADD MSTORE PUSH1 0xB PUSH1 0x24 DUP3 ADD MSTORE PUSH32 0x4578636565647320636170000000000000000000000000000000000000000000 PUSH1 0x44 DUP3 ADD MSTORE REVERT JUMPDEST PUSH1 0x64 PUSH1 0x40 MLOAD PUSH3 0x461BCD PUSH1 0xE5 SHL DUP2 MSTORE PUSH1 0x20 PUSH1 0x4 DUP3 ADD MSTORE PUSH1 0x16 PUSH1 0x24 DUP3 ADD MSTORE PUSH32 0x45786365656473206D617820696E766573746D656E7400000000000000000000 PUSH1 0x44 DUP3 ADD MSTORE REVERT JUMPDEST PUSH1 0x64 PUSH1 0x40 MLOAD PUSH3 0x461BCD PUSH1 0xE5 SHL DUP2 MSTORE PUSH1 0x20 PUSH1 0x4 DUP3 ADD MSTORE PUSH1 0x14 PUSH1 0x24 DUP3 ADD MSTORE PUSH32 0x42656C6F77206D696E20696E766573746D656E74000000000000000000000000 PUSH1 0x44 DUP3 ADD MSTORE REVERT JUMPDEST PUSH1 0x24 DUP3 PUSH4 0x4E487B71 PUSH1 0xE0 SHL DUP2 MSTORE PUSH1 0x11 PUSH1 0x4 MSTORE REVERT JUMPDEST PUSH1 0x40 MLOAD PUSH32 0x313CE56700000000000000000000000000000000000000000000000000000000 DUP2 MSTORE PUSH1 0x20 DUP2 PUSH1 0x4 DUP2 PUSH1 0x1 PUSH1 0x1 PUSH1 0xA0 SHL SUB DUP8 AND GAS STATICCALL SWAP1 DUP2 ISZERO PUSH2 0x4CB JUMPI DUP3 SWAP2 PUSH2 0x1C6F JUMPI JUMPDEST POP SWAP3 PUSH2 0x13AD JUMP JUMPDEST SWAP1 POP PUSH1 0x20 DUP2 RETURNDATASIZE PUSH1 0x20 GT PUSH2 0x1CA3 JUMPI JUMPDEST DUP2 PUSH2 0x1C8A PUSH1 0x20 SWAP4 DUP4 PUSH2 0x2B06 JUMP JUMPDEST DUP2 ADD SUB SLT PUSH2 0x116C JUMPI MLOAD PUSH1 0xFF DUP2 AND DUP2 SUB PUSH2 0x116C JUMPI CODESIZE PUSH2 0x1C68 JUMP JUMPDEST RETURNDATASIZE SWAP2 POP PUSH2 0x1C7D JUMP JUMPDEST SWAP1 POP PUSH1 0x40 DUP2 RETURNDATASIZE PUSH1 0x40 GT PUSH2 0x1CF1 JUMPI JUMPDEST DUP2 PUSH2 0x1CC6 PUSH1 0x40 SWAP4 DUP4 PUSH2 0x2B06 JUMP JUMPDEST DUP2 ADD SUB SLT PUSH2 0x168C JUMPI DUP1 MLOAD SWAP1 DUP2 PUSH1 0x1B SIGNEXTEND DUP3 SUB PUSH2 0x4D6 JUMPI PUSH1 0x20 ADD MLOAD PUSH4 0xFFFFFFFF DUP2 AND SUB PUSH2 0x168C JUMPI CODESIZE PUSH2 0x138B JUMP JUMPDEST RETURNDATASIZE SWAP2 POP PUSH2 0x1CB9 JUMP JUMPDEST PUSH1 0x40 MLOAD RETURNDATASIZE DUP6 DUP3 RETURNDATACOPY RETURNDATASIZE SWAP1 REVERT JUMPDEST PUSH1 0x64 PUSH1 0x40 MLOAD PUSH3 0x461BCD PUSH1 0xE5 SHL DUP2 MSTORE PUSH1 0x20 PUSH1 0x4 DUP3 ADD MSTORE PUSH1 0xE PUSH1 0x24 DUP3 ADD MSTORE PUSH32 0x4F7261636C65206E6F7420736574000000000000000000000000000000000000 PUSH1 0x44 DUP3 ADD MSTORE REVERT JUMPDEST PUSH1 0x64 PUSH1 0x40 MLOAD PUSH3 0x461BCD PUSH1 0xE5 SHL DUP2 MSTORE PUSH1 0x20 PUSH1 0x4 DUP3 ADD MSTORE PUSH1 0xB PUSH1 0x24 DUP3 ADD MSTORE PUSH32 0x5A65726F20616D6F756E74000000000000000000000000000000000000000000 PUSH1 0x44 DUP3 ADD MSTORE REVERT JUMPDEST PUSH1 0x64 PUSH1 0x40 MLOAD PUSH3 0x461BCD PUSH1 0xE5 SHL DUP2 MSTORE PUSH1 0x20 PUSH1 0x4 DUP3 ADD MSTORE PUSH1 0x15 PUSH1 0x24 DUP3 ADD MSTORE PUSH32 0x546F6B656E206E6F742077686974656C69737465640000000000000000000000 PUSH1 0x44 DUP3 ADD MSTORE REVERT JUMPDEST PUSH1 0x64 PUSH1 0x40 MLOAD PUSH3 0x461BCD PUSH1 0xE5 SHL DUP2 MSTORE PUSH1 0x20 PUSH1 0x4 DUP3 ADD MSTORE PUSH1 0xA PUSH1 0x24 DUP3 ADD MSTORE PUSH32 0x53616C6520656E64656400000000000000000000000000000000000000000000 PUSH1 0x44 DUP3 ADD MSTORE REVERT JUMPDEST PUSH1 0x64 PUSH1 0x40 MLOAD PUSH3 0x461BCD PUSH1 0xE5 SHL DUP2 MSTORE PUSH1 0x20 PUSH1 0x4 DUP3 ADD MSTORE PUSH1 0x10 PUSH1 0x24 DUP3 ADD MSTORE PUSH32 0x53616C65206E6F74207374617274656400000000000000000000000000000000 PUSH1 0x44 DUP3 ADD MSTORE REVERT JUMPDEST PUSH1 0x64 PUSH1 0x40 MLOAD PUSH3 0x461BCD PUSH1 0xE5 SHL DUP2 MSTORE PUSH1 0x20 PUSH1 0x4 DUP3 ADD MSTORE PUSH1 0xE PUSH1 0x24 DUP3 ADD MSTORE PUSH32 0x53616C6520697320636C6F736564000000000000000000000000000000000000 PUSH1 0x44 DUP3 ADD MSTORE REVERT JUMPDEST PUSH1 0x64 PUSH1 0x40 MLOAD PUSH3 0x461BCD PUSH1 0xE5 SHL DUP2 MSTORE PUSH1 0x20 PUSH1 0x4 DUP3 ADD MSTORE PUSH1 0x18 PUSH1 0x24 DUP3 ADD MSTORE PUSH32 0x496E76616C696420696E766573746F7220616464726573730000000000000000 PUSH1 0x44 DUP3 ADD MSTORE REVERT JUMPDEST POP CALLVALUE PUSH2 0x2EA JUMPI DUP1 PUSH1 0x3 NOT CALLDATASIZE ADD SLT PUSH2 0x2EA JUMPI PUSH1 0x20 PUSH1 0x1 PUSH1 0x1 PUSH1 0xA0 SHL SUB PUSH1 0x11 SLOAD PUSH1 0x10 SHR AND PUSH1 0x40 MLOAD SWAP1 DUP2 MSTORE RETURN JUMPDEST POP CALLVALUE PUSH2 0x2EA JUMPI DUP1 PUSH1 0x3 NOT CALLDATASIZE ADD SLT PUSH2 0x2EA JUMPI PUSH1 0x20 PUSH1 0x1 PUSH1 0x1 PUSH1 0xA0 SHL SUB PUSH1 0xF SLOAD AND PUSH1 0x40 MLOAD SWAP1 DUP2 MSTORE RETURN JUMPDEST POP CALLVALUE PUSH2 0x2EA JUMPI DUP1 PUSH1 0x3 NOT CALLDATASIZE ADD SLT PUSH2 0x2EA JUMPI PUSH1 0x20 PUSH1 0xFF PUSH1 0x1 SLOAD AND PUSH1 0x40 MLOAD SWAP1 ISZERO ISZERO DUP2 MSTORE RETURN JUMPDEST POP CALLVALUE PUSH2 0x2EA JUMPI DUP1 PUSH1 0x3 NOT CALLDATASIZE ADD SLT PUSH2 0x2EA JUMPI PUSH1 0x20 PUSH1 0xFF PUSH1 0xD SLOAD PUSH1 0x8 SHR AND PUSH1 0x40 MLOAD SWAP1 ISZERO ISZERO DUP2 MSTORE RETURN JUMPDEST POP CALLVALUE PUSH2 0x2EA JUMPI DUP1 PUSH1 0x3 NOT CALLDATASIZE ADD SLT PUSH2 0x2EA JUMPI PUSH1 0x20 PUSH1 0x1 PUSH1 0x1 PUSH1 0xA0 SHL SUB PUSH1 0xE SLOAD AND PUSH1 0x40 MLOAD SWAP1 DUP2 MSTORE RETURN JUMPDEST POP CALLVALUE PUSH2 0x2EA JUMPI DUP1 PUSH1 0x3 NOT CALLDATASIZE ADD SLT PUSH2 0x2EA JUMPI PUSH2 0x1FBA PUSH2 0x2B77 JUMP JUMPDEST PUSH1 0x1 SLOAD PUSH1 0xFF DUP2 AND ISZERO PUSH2 0x2006 JUMPI PUSH1 0xFF NOT AND PUSH1 0x1 SSTORE PUSH1 0x20 PUSH1 0x40 MLOAD CALLER DUP2 MSTORE PUSH32 0x5DB9EE0A495BF2E6FF9C91A7834C1BA4FDD244A5E8AA4E537BD38AEAE4B073AA SWAP2 DUP3 SWAP2 LOG1 PUSH1 0x20 PUSH1 0x40 MLOAD CALLER DUP2 MSTORE LOG1 DUP1 RETURN JUMPDEST PUSH1 0x4 PUSH1 0x40 MLOAD PUSH32 0x8DFC202B00000000000000000000000000000000000000000000000000000000 DUP2 MSTORE REVERT JUMPDEST POP CALLVALUE PUSH2 0x2EA JUMPI DUP1 PUSH1 0x3 NOT CALLDATASIZE ADD SLT PUSH2 0x2EA JUMPI PUSH1 0x20 PUSH1 0x1 PUSH1 0x1 PUSH1 0xA0 SHL SUB PUSH1 0xD SLOAD PUSH1 0x10 SHR AND PUSH1 0x40 MLOAD SWAP1 DUP2 MSTORE RETURN JUMPDEST POP CALLVALUE PUSH2 0x2EA JUMPI PUSH1 0x20 CALLDATASIZE PUSH1 0x3 NOT ADD SLT PUSH2 0x2EA JUMPI PUSH1 0x4 CALLDATALOAD PUSH2 0x2077 PUSH2 0x2B77 JUMP JUMPDEST TIMESTAMP DUP2 GT ISZERO PUSH2 0x2147 JUMPI PUSH1 0x7 SLOAD DUP2 GT ISZERO PUSH2 0x20DD JUMPI PUSH1 0x8 SLOAD DUP2 LT ISZERO PUSH2 0x2099 JUMPI PUSH1 0x7 SSTORE DUP1 RETURN JUMPDEST PUSH1 0x64 PUSH1 0x40 MLOAD PUSH3 0x461BCD PUSH1 0xE5 SHL DUP2 MSTORE PUSH1 0x20 PUSH1 0x4 DUP3 ADD MSTORE PUSH1 0x20 PUSH1 0x24 DUP3 ADD MSTORE PUSH32 0x456E642064617465206D757374206265206265666F7265206D61747572697479 PUSH1 0x44 DUP3 ADD MSTORE REVERT JUMPDEST PUSH1 0x84 PUSH1 0x40 MLOAD PUSH3 0x461BCD PUSH1 0xE5 SHL DUP2 MSTORE PUSH1 0x20 PUSH1 0x4 DUP3 ADD MSTORE PUSH1 0x22 PUSH1 0x24 DUP3 ADD MSTORE PUSH32 0x4E657720656E642064617465206D757374206265206166746572206375727265 PUSH1 0x44 DUP3 ADD MSTORE PUSH32 0x6E74000000000000000000000000000000000000000000000000000000000000 PUSH1 0x64 DUP3 ADD MSTORE REVERT JUMPDEST PUSH1 0x64 PUSH1 0x40 MLOAD PUSH3 0x461BCD PUSH1 0xE5 SHL DUP2 MSTORE PUSH1 0x20 PUSH1 0x4 DUP3 ADD MSTORE PUSH1 0x10 PUSH1 0x24 DUP3 ADD MSTORE PUSH32 0x496E76616C696420656E64206461746500000000000000000000000000000000 PUSH1 0x44 DUP3 ADD MSTORE REVERT JUMPDEST POP CALLVALUE PUSH2 0x2EA JUMPI PUSH1 0x40 CALLDATASIZE PUSH1 0x3 NOT ADD SLT PUSH2 0x2EA JUMPI PUSH2 0x21A5 PUSH2 0x2B3E JUMP JUMPDEST CALLER PUSH1 0x1 PUSH1 0x1 PUSH1 0xA0 SHL SUB DUP3 AND SUB PUSH2 0x21C1 JUMPI PUSH2 0x789 SWAP1 PUSH1 0x4 CALLDATALOAD PUSH2 0x2ED1 JUMP JUMPDEST PUSH1 0x4 PUSH1 0x40 MLOAD PUSH32 0x6697B23200000000000000000000000000000000000000000000000000000000 DUP2 MSTORE REVERT JUMPDEST POP CALLVALUE PUSH2 0x2EA JUMPI PUSH1 0x40 CALLDATASIZE PUSH1 0x3 NOT ADD SLT PUSH2 0x2EA JUMPI PUSH2 0x789 PUSH1 0x4 CALLDATALOAD PUSH2 0x220B PUSH2 0x2B3E JUMP JUMPDEST SWAP1 DUP1 DUP5 MSTORE DUP4 PUSH1 0x20 MSTORE PUSH2 0x2223 PUSH1 0x1 PUSH1 0x40 DUP7 KECCAK256 ADD SLOAD PUSH2 0x2C44 JUMP JUMPDEST PUSH2 0x2DAC JUMP JUMPDEST POP CALLVALUE PUSH2 0x2EA JUMPI DUP1 PUSH1 0x3 NOT CALLDATASIZE ADD SLT PUSH2 0x2EA JUMPI PUSH1 0x20 PUSH1 0x10 SLOAD PUSH1 0x40 MLOAD SWAP1 DUP2 MSTORE RETURN JUMPDEST POP CALLVALUE PUSH2 0x2EA JUMPI PUSH1 0x20 CALLDATASIZE PUSH1 0x3 NOT ADD SLT PUSH2 0x2EA JUMPI PUSH1 0x1 PUSH1 0x40 PUSH1 0x20 SWAP3 PUSH1 0x4 CALLDATALOAD DUP2 MSTORE DUP1 DUP5 MSTORE KECCAK256 ADD SLOAD PUSH1 0x40 MLOAD SWAP1 DUP2 MSTORE RETURN JUMPDEST POP CALLVALUE PUSH2 0x2EA JUMPI DUP1 PUSH1 0x3 NOT CALLDATASIZE ADD SLT PUSH2 0x2EA JUMPI PUSH1 0x20 PUSH1 0xFF PUSH1 0xD SLOAD AND PUSH1 0x40 MLOAD SWAP1 ISZERO ISZERO DUP2 MSTORE RETURN JUMPDEST POP CALLVALUE PUSH2 0x2EA JUMPI PUSH1 0x40 CALLDATASIZE PUSH1 0x3 NOT ADD SLT PUSH2 0x2EA JUMPI PUSH2 0x22AF PUSH2 0x2B28 JUMP JUMPDEST PUSH1 0x24 CALLDATALOAD SWAP1 DUP2 ISZERO ISZERO DUP1 SWAP3 SUB PUSH2 0x168C JUMPI PUSH1 0x20 PUSH1 0x1 PUSH1 0x1 PUSH1 0xA0 SHL SUB PUSH32 0x91AD45A5CE97C5EEE55FA01496772AFEFC7F0757ED9EAC59064E642690509DFB SWAP3 PUSH2 0x22F1 PUSH2 0x2B77 JUMP JUMPDEST AND SWAP3 DUP4 DUP6 MSTORE PUSH1 0x14 DUP3 MSTORE PUSH1 0x40 DUP6 KECCAK256 PUSH1 0xFF NOT DUP2 SLOAD AND PUSH1 0xFF DUP4 AND OR SWAP1 SSTORE PUSH1 0x40 MLOAD SWAP1 DUP2 MSTORE LOG2 DUP1 RETURN JUMPDEST POP CALLVALUE PUSH2 0x2EA JUMPI PUSH2 0x220 DUP1 PUSH1 0x3 NOT CALLDATASIZE ADD SLT PUSH2 0x116C JUMPI PUSH1 0x40 MLOAD SWAP1 DUP2 ADD DUP2 DUP2 LT PUSH8 0xFFFFFFFFFFFFFFFF DUP3 GT OR PUSH2 0x29A2 JUMPI PUSH1 0x40 MSTORE PUSH2 0x234D PUSH2 0x2B28 JUMP JUMPDEST DUP2 MSTORE PUSH1 0x24 CALLDATALOAD PUSH1 0x20 DUP3 ADD MSTORE PUSH1 0x44 CALLDATALOAD PUSH1 0x40 DUP3 ADD MSTORE PUSH1 0x64 CALLDATALOAD PUSH1 0x60 DUP3 ADD MSTORE PUSH1 0x84 CALLDATALOAD PUSH1 0x80 DUP3 ADD MSTORE PUSH1 0xA4 CALLDATALOAD PUSH1 0xA0 DUP3 ADD MSTORE PUSH1 0xC4 CALLDATALOAD DUP1 ISZERO ISZERO DUP2 SUB PUSH2 0x168C JUMPI PUSH1 0xC0 DUP3 ADD MSTORE PUSH1 0xE4 CALLDATALOAD PUSH1 0xE0 DUP3 ADD MSTORE PUSH2 0x104 CALLDATALOAD PUSH2 0x100 DUP3 ADD MSTORE PUSH1 0x1 PUSH1 0x1 PUSH1 0xA0 SHL SUB PUSH2 0x124 CALLDATALOAD AND PUSH2 0x124 CALLDATALOAD SUB PUSH2 0x116C JUMPI PUSH2 0x124 CALLDATALOAD PUSH2 0x120 DUP3 ADD MSTORE PUSH2 0x144 CALLDATALOAD PUSH1 0x1 PUSH1 0x1 PUSH1 0xA0 SHL SUB DUP2 AND DUP2 SUB PUSH2 0x168C JUMPI PUSH2 0x140 DUP3 ADD MSTORE PUSH2 0x164 CALLDATALOAD ISZERO ISZERO PUSH2 0x164 CALLDATALOAD SUB PUSH2 0x116C JUMPI PUSH2 0x164 CALLDATALOAD PUSH2 0x160 DUP3 ADD MSTORE PUSH1 0x1 PUSH1 0x1 PUSH1 0xA0 SHL SUB PUSH2 0x184 CALLDATALOAD AND PUSH2 0x184 CALLDATALOAD SUB PUSH2 0x116C JUMPI PUSH2 0x184 CALLDATALOAD PUSH2 0x180 DUP3 ADD MSTORE PUSH1 0x1 PUSH1 0x1 PUSH1 0xA0 SHL SUB PUSH2 0x1A4 CALLDATALOAD AND PUSH2 0x1A4 CALLDATALOAD SUB PUSH2 0x116C JUMPI PUSH2 0x1A4 CALLDATALOAD PUSH2 0x1A0 DUP3 ADD MSTORE PUSH2 0x1C4 CALLDATALOAD PUSH1 0x1 PUSH1 0x1 PUSH1 0xA0 SHL SUB DUP2 AND DUP2 SUB PUSH2 0x168C JUMPI PUSH2 0x1C0 DUP3 ADD MSTORE PUSH2 0x1E4 CALLDATALOAD PUSH2 0x1E0 DUP3 ADD MSTORE PUSH1 0x3 PUSH2 0x204 CALLDATALOAD LT ISZERO PUSH2 0x116C JUMPI PUSH2 0x204 CALLDATALOAD PUSH2 0x200 DUP3 ADD MSTORE PUSH1 0x11 SLOAD PUSH1 0xFF DUP2 PUSH1 0x8 SHR AND PUSH2 0x295E JUMPI PUSH1 0x1 PUSH1 0x1 PUSH1 0xA0 SHL SUB DUP3 MLOAD AND ISZERO PUSH2 0x291A JUMPI PUSH1 0x1 PUSH1 0x1 PUSH1 0xA0 SHL SUB PUSH2 0x120 DUP4 ADD MLOAD AND ISZERO PUSH2 0x28D6 JUMPI PUSH1 0x1 PUSH1 0x1 PUSH1 0xA0 SHL SUB PUSH2 0x140 DUP4 ADD MLOAD AND ISZERO PUSH2 0x2892 JUMPI PUSH1 0x1 PUSH1 0x1 PUSH1 0xA0 SHL SUB PUSH2 0x1A0 DUP4 ADD MLOAD AND ISZERO PUSH2 0x2828 JUMPI PUSH1 0xE0 DUP3 ADD MLOAD ISZERO PUSH2 0x27E4 JUMPI PUSH2 0x100 DUP3 ADD MLOAD ISZERO PUSH2 0x27A0 JUMPI PUSH2 0x24EA PUSH1 0x20 DUP4 ADD MLOAD PUSH1 0x40 DUP5 ADD MLOAD LT ISZERO PUSH2 0x2F47 JUMP JUMPDEST PUSH1 0x60 DUP3 ADD MLOAD TIMESTAMP GT PUSH2 0x275C JUMPI PUSH1 0x60 DUP3 ADD MLOAD PUSH1 0x80 DUP4 ADD MLOAD GT ISZERO PUSH2 0x26F2 JUMPI PUSH1 0x1 PUSH1 0x1 PUSH1 0xA0 SHL SUB PUSH2 0x1C0 DUP4 ADD MLOAD AND ISZERO PUSH2 0x26AE JUMPI PUSH1 0x1 PUSH1 0x1 PUSH1 0xA0 SHL SUB DUP3 MLOAD AND PUSH1 0x1 PUSH1 0x1 PUSH1 0xA0 SHL SUB NOT PUSH1 0x3 SLOAD AND OR PUSH1 0x3 SSTORE PUSH1 0x20 DUP3 ADD MLOAD PUSH1 0x4 SSTORE PUSH1 0x40 DUP3 ADD MLOAD PUSH1 0x5 SSTORE PUSH1 0x60 DUP3 ADD MLOAD PUSH1 0x6 SSTORE PUSH1 0x80 DUP3 ADD MLOAD PUSH1 0x7 SSTORE PUSH1 0xA0 DUP3 ADD MLOAD PUSH1 0x8 SSTORE PUSH1 0xC0 DUP3 ADD MLOAD ISZERO ISZERO PUSH1 0xFF NOT SWAP1 PUSH1 0xFF DUP3 PUSH1 0x9 SLOAD AND SWAP2 AND OR PUSH1 0x9 SSTORE PUSH1 0xE0 DUP4 ADD MLOAD PUSH1 0xA SSTORE PUSH2 0x100 DUP4 ADD MLOAD PUSH1 0x13 SSTORE PUSH1 0x1 PUSH1 0x1 PUSH1 0xA0 SHL SUB PUSH2 0x140 DUP5 ADD MLOAD AND PUSH1 0x1 PUSH1 0x1 PUSH1 0xA0 SHL SUB NOT PUSH1 0x12 SLOAD AND OR PUSH1 0x12 SSTORE PUSH2 0x160 DUP4 ADD MLOAD ISZERO ISZERO PUSH1 0xD SLOAD PUSH32 0xFFFFFFFFFFFFFFFFFFFF000000000000000000000000000000000000000000FF PUSH2 0xFF00 PUSH22 0xFFFFFFFFFFFFFFFFFFFFFFFFFFFFFFFFFFFFFFFF0000 PUSH2 0x180 DUP9 ADD MLOAD PUSH1 0x10 SHL AND SWAP4 PUSH1 0x8 SHL AND SWAP2 AND OR OR PUSH1 0xD SSTORE PUSH1 0x1 PUSH1 0x1 PUSH1 0xA0 SHL SUB PUSH2 0x1A0 DUP5 ADD MLOAD AND PUSH1 0x1 PUSH1 0x1 PUSH1 0xA0 SHL SUB NOT PUSH1 0xE SLOAD AND OR PUSH1 0xE SSTORE PUSH1 0x1 PUSH1 0x1 PUSH1 0xA0 SHL SUB PUSH2 0x1C0 DUP5 ADD MLOAD AND PUSH1 0x1 PUSH1 0x1 PUSH1 0xA0 SHL SUB NOT PUSH1 0xF SLOAD AND OR PUSH1 0xF SSTORE PUSH2 0x1E0 DUP4 ADD MLOAD PUSH1 0x10 SSTORE PUSH2 0x200 DUP4 ADD MLOAD PUSH1 0x3 DUP2 LT ISZERO PUSH2 0x269A JUMPI SWAP3 PUSH1 0x1 PUSH1 0x1 PUSH1 0xA0 SHL SUB SWAP3 PUSH2 0x120 SWAP3 PUSH1 0xFF PUSH2 0x2687 SWAP7 AND SWAP2 AND OR PUSH1 0x11 SSTORE PUSH2 0x267E CALLER PUSH2 0x2C6A JUMP JUMPDEST POP ADD MLOAD AND PUSH2 0x2CFA JUMP JUMPDEST POP PUSH2 0x100 PUSH2 0xFF00 NOT PUSH1 0x11 SLOAD AND OR PUSH1 0x11 SSTORE DUP1 RETURN JUMPDEST PUSH1 0x24 DUP6 PUSH4 0x4E487B71 PUSH1 0xE0 SHL DUP2 MSTORE PUSH1 0x21 PUSH1 0x4 MSTORE REVERT JUMPDEST PUSH1 0x64 PUSH1 0x40 MLOAD PUSH3 0x461BCD PUSH1 0xE5 SHL DUP2 MSTORE PUSH1 0x20 PUSH1 0x4 DUP3 ADD MSTORE PUSH1 0x1C PUSH1 0x24 DUP3 ADD MSTORE PUSH32 0x496E76616C6964207061796F757420746F6B656E206164647265737300000000 PUSH1 0x44 DUP3 ADD MSTORE REVERT JUMPDEST PUSH1 0x84 PUSH1 0x40 MLOAD PUSH3 0x461BCD PUSH1 0xE5 SHL DUP2 MSTORE PUSH1 0x20 PUSH1 0x4 DUP3 ADD MSTORE PUSH1 0x22 PUSH1 0x24 DUP3 ADD MSTORE PUSH32 0x53746172742064617465206D757374206265206265666F726520656E64206461 PUSH1 0x44 DUP3 ADD MSTORE PUSH32 0x7465000000000000000000000000000000000000000000000000000000000000 PUSH1 0x64 DUP3 ADD MSTORE REVERT JUMPDEST PUSH1 0x64 PUSH1 0x40 MLOAD PUSH3 0x461BCD PUSH1 0xE5 SHL DUP2 MSTORE PUSH1 0x20 PUSH1 0x4 DUP3 ADD MSTORE PUSH1 0x20 PUSH1 0x24 DUP3 ADD MSTORE PUSH32 0x53746172742064617465206D75737420626520696E2074686520667574757265 PUSH1 0x44 DUP3 ADD MSTORE REVERT JUMPDEST PUSH1 0x64 PUSH1 0x40 MLOAD PUSH3 0x461BCD PUSH1 0xE5 SHL DUP2 MSTORE PUSH1 0x20 PUSH1 0x4 DUP3 ADD MSTORE PUSH1 0x1C PUSH1 0x24 DUP3 ADD MSTORE PUSH32 0x546F6B656E207072696365206D75737420626520706F73697469766500000000 PUSH1 0x44 DUP3 ADD MSTORE REVERT JUMPDEST PUSH1 0x64 PUSH1 0x40 MLOAD PUSH3 0x461BCD PUSH1 0xE5 SHL DUP2 MSTORE PUSH1 0x20 PUSH1 0x4 DUP3 ADD MSTORE PUSH1 0x20 PUSH1 0x24 DUP3 ADD MSTORE PUSH32 0x46756E6472616973696E6720636170206D75737420626520706F736974697665 PUSH1 0x44 DUP3 ADD MSTORE REVERT JUMPDEST PUSH1 0x84 PUSH1 0x40 MLOAD PUSH3 0x461BCD PUSH1 0xE5 SHL DUP2 MSTORE PUSH1 0x20 PUSH1 0x4 DUP3 ADD MSTORE PUSH1 0x22 PUSH1 0x24 DUP3 ADD MSTORE PUSH32 0x496E76616C696420696E766573746D656E74206D616E61676572206164647265 PUSH1 0x44 DUP3 ADD MSTORE PUSH32 0x7373000000000000000000000000000000000000000000000000000000000000 PUSH1 0x64 DUP3 ADD MSTORE REVERT JUMPDEST PUSH1 0x64 PUSH1 0x40 MLOAD PUSH3 0x461BCD PUSH1 0xE5 SHL DUP2 MSTORE PUSH1 0x20 PUSH1 0x4 DUP3 ADD MSTORE PUSH1 0x16 PUSH1 0x24 DUP3 ADD MSTORE PUSH32 0x496E76616C696420657363726F77206164647265737300000000000000000000 PUSH1 0x44 DUP3 ADD MSTORE REVERT JUMPDEST PUSH1 0x64 PUSH1 0x40 MLOAD PUSH3 0x461BCD PUSH1 0xE5 SHL DUP2 MSTORE PUSH1 0x20 PUSH1 0x4 DUP3 ADD MSTORE PUSH1 0x13 PUSH1 0x24 DUP3 ADD MSTORE PUSH32 0x496E76616C696420746F6B656E206F776E657200000000000000000000000000 PUSH1 0x44 DUP3 ADD MSTORE REVERT JUMPDEST PUSH1 0x64 PUSH1 0x40 MLOAD PUSH3 0x461BCD PUSH1 0xE5 SHL DUP2 MSTORE PUSH1 0x20 PUSH1 0x4 DUP3 ADD MSTORE PUSH1 0x12 PUSH1 0x24 DUP3 ADD MSTORE PUSH32 0x496E76616C69642073616C6520746F6B656E0000000000000000000000000000 PUSH1 0x44 DUP3 ADD MSTORE REVERT JUMPDEST PUSH1 0x64 PUSH1 0x40 MLOAD PUSH3 0x461BCD PUSH1 0xE5 SHL DUP2 MSTORE PUSH1 0x20 PUSH1 0x4 DUP3 ADD MSTORE PUSH1 0x13 PUSH1 0x24 DUP3 ADD MSTORE PUSH32 0x416C726561647920696E697469616C697A656400000000000000000000000000 PUSH1 0x44 DUP3 ADD MSTORE REVERT JUMPDEST PUSH1 0x24 DUP4 PUSH4 0x4E487B71 PUSH1 0xE0 SHL DUP2 MSTORE PUSH1 0x41 PUSH1 0x4 MSTORE REVERT JUMPDEST POP CALLVALUE PUSH2 0x2EA JUMPI DUP1 PUSH1 0x3 NOT CALLDATASIZE ADD SLT PUSH2 0x2EA JUMPI PUSH1 0x20 PUSH1 0x1 PUSH1 0x1 PUSH1 0xA0 SHL SUB PUSH1 0x12 SLOAD AND PUSH1 0x40 MLOAD SWAP1 DUP2 MSTORE RETURN JUMPDEST POP CALLVALUE PUSH2 0x2EA JUMPI DUP1 PUSH1 0x3 NOT CALLDATASIZE ADD SLT PUSH2 0x2EA JUMPI PUSH1 0x20 PUSH1 0xFF PUSH1 0x9 SLOAD AND PUSH1 0x40 MLOAD SWAP1 ISZERO ISZERO DUP2 MSTORE RETURN JUMPDEST POP CALLVALUE PUSH2 0x2EA JUMPI DUP1 PUSH1 0x3 NOT CALLDATASIZE ADD SLT PUSH2 0x2EA JUMPI PUSH1 0x20 PUSH1 0x6 SLOAD PUSH1 0x40 MLOAD SWAP1 DUP2 MSTORE RETURN JUMPDEST POP CALLVALUE PUSH2 0x2EA JUMPI PUSH1 0x20 CALLDATASIZE PUSH1 0x3 NOT ADD SLT PUSH2 0x2EA JUMPI PUSH1 0x4 CALLDATALOAD PUSH32 0xFFFFFFFF00000000000000000000000000000000000000000000000000000000 DUP2 AND DUP1 SWAP2 SUB PUSH2 0x116C JUMPI DUP1 PUSH32 0x7965DB0B00000000000000000000000000000000000000000000000000000000 PUSH1 0x20 SWAP3 EQ SWAP1 DUP2 ISZERO PUSH2 0x2A96 JUMPI JUMPDEST POP PUSH1 0x40 MLOAD SWAP1 ISZERO ISZERO DUP2 MSTORE RETURN JUMPDEST PUSH32 0x1FFC9A700000000000000000000000000000000000000000000000000000000 SWAP2 POP EQ DUP3 PUSH2 0x2A8B JUMP JUMPDEST SWAP1 POP CALLVALUE PUSH2 0x116C JUMPI DUP2 PUSH1 0x3 NOT CALLDATASIZE ADD SLT PUSH2 0x116C JUMPI PUSH1 0x20 SWAP1 PUSH1 0x5 SLOAD DUP2 MSTORE RETURN JUMPDEST PUSH8 0xFFFFFFFFFFFFFFFF DUP2 GT PUSH2 0x2AF0 JUMPI PUSH1 0x40 MSTORE JUMP JUMPDEST PUSH4 0x4E487B71 PUSH1 0xE0 SHL PUSH1 0x0 MSTORE PUSH1 0x41 PUSH1 0x4 MSTORE PUSH1 0x24 PUSH1 0x0 REVERT JUMPDEST SWAP1 PUSH1 0x1F DUP1 NOT SWAP2 ADD AND DUP2 ADD SWAP1 DUP2 LT PUSH8 0xFFFFFFFFFFFFFFFF DUP3 GT OR PUSH2 0x2AF0 JUMPI PUSH1 0x40 MSTORE JUMP JUMPDEST PUSH1 0x4 CALLDATALOAD SWAP1 PUSH1 0x1 PUSH1 0x1 PUSH1 0xA0 SHL SUB DUP3 AND DUP3 SUB PUSH2 0x5F2 JUMPI JUMP JUMPDEST PUSH1 0x24 CALLDATALOAD SWAP1 PUSH1 0x1 PUSH1 0x1 PUSH1 0xA0 SHL SUB DUP3 AND DUP3 SUB PUSH2 0x5F2 JUMPI JUMP JUMPDEST SWAP1 PUSH1 0x3 DUP3 LT ISZERO PUSH2 0x2B61 JUMPI MSTORE JUMP JUMPDEST PUSH4 0x4E487B71 PUSH1 0xE0 SHL PUSH1 0x0 MSTORE PUSH1 0x21 PUSH1 0x4 MSTORE PUSH1 0x24 PUSH1 0x0 REVERT JUMPDEST CALLER PUSH1 0x0 SWAP1 DUP2 MSTORE PUSH32 0xAD3228B676F7D3CD4284A5443F17F1962B36E491B30A40B2405849E597BA5FB5 PUSH1 0x20 MSTORE PUSH1 0x40 DUP2 KECCAK256 SLOAD PUSH1 0xFF AND ISZERO PUSH2 0x2BB1 JUMPI POP JUMP JUMPDEST PUSH1 0x44 SWAP1 PUSH1 0x40 MLOAD SWAP1 PUSH32 0xE2517D3F00000000000000000000000000000000000000000000000000000000 DUP3 MSTORE CALLER PUSH1 0x4 DUP4 ADD MSTORE PUSH1 0x24 DUP3 ADD MSTORE REVERT JUMPDEST CALLER PUSH1 0x0 SWAP1 DUP2 MSTORE PUSH32 0x7DFC0114FC2B0320947240CBD60A9FFC193468A941C37441E641A928A8C116D5 PUSH1 0x20 MSTORE PUSH1 0x40 SWAP1 KECCAK256 SLOAD PUSH32 0x35369B3A7BB98C90641A907C2FD643EA781341EBA72CCFFD47CB018C128C48C3 SWAP1 PUSH1 0xFF AND ISZERO PUSH2 0x2BB1 JUMPI POP JUMP JUMPDEST DUP1 PUSH1 0x0 MSTORE PUSH1 0x0 PUSH1 0x20 MSTORE PUSH1 0x40 PUSH1 0x0 KECCAK256 CALLER PUSH1 0x0 MSTORE PUSH1 0x20 MSTORE PUSH1 0xFF PUSH1 0x40 PUSH1 0x0 KECCAK256 SLOAD AND ISZERO PUSH2 0x2BB1 JUMPI POP JUMP JUMPDEST PUSH1 0x1 PUSH1 0x1 PUSH1 0xA0 SHL SUB AND PUSH1 0x0 DUP2 DUP2 MSTORE PUSH32 0xAD3228B676F7D3CD4284A5443F17F1962B36E491B30A40B2405849E597BA5FB5 PUSH1 0x20 MSTORE PUSH1 0x40 DUP2 KECCAK256 SLOAD SWAP1 SWAP2 SWAP1 PUSH1 0xFF AND PUSH2 0x2CF6 JUMPI DUP2 DUP1 MSTORE DUP2 PUSH1 0x20 MSTORE PUSH1 0x40 DUP3 KECCAK256 DUP2 DUP4 MSTORE PUSH1 0x20 MSTORE PUSH1 0x40 DUP3 KECCAK256 PUSH1 0x1 PUSH1 0xFF NOT DUP3 SLOAD AND OR SWAP1 SSTORE CALLER SWAP2 PUSH32 0x2F8788117E7EFF1D82E926EC794901D17C78024A50270940304540A733656F0D DUP2 DUP1 LOG4 PUSH1 0x1 SWAP1 JUMP JUMPDEST POP SWAP1 JUMP JUMPDEST PUSH1 0x1 PUSH1 0x1 PUSH1 0xA0 SHL SUB AND PUSH1 0x0 DUP2 DUP2 MSTORE PUSH32 0x7DFC0114FC2B0320947240CBD60A9FFC193468A941C37441E641A928A8C116D5 PUSH1 0x20 MSTORE PUSH1 0x40 DUP2 KECCAK256 SLOAD SWAP1 SWAP2 SWAP1 PUSH32 0x35369B3A7BB98C90641A907C2FD643EA781341EBA72CCFFD47CB018C128C48C3 SWAP1 PUSH1 0xFF AND PUSH2 0x2DA7 JUMPI DUP1 DUP4 MSTORE DUP3 PUSH1 0x20 MSTORE PUSH1 0x40 DUP4 KECCAK256 DUP3 DUP5 MSTORE PUSH1 0x20 MSTORE PUSH1 0x40 DUP4 KECCAK256 PUSH1 0x1 PUSH1 0xFF NOT DUP3 SLOAD AND OR SWAP1 SSTORE PUSH32 0x2F8788117E7EFF1D82E926EC794901D17C78024A50270940304540A733656F0D CALLER SWAP4 DUP1 LOG4 PUSH1 0x1 SWAP1 JUMP JUMPDEST POP POP SWAP1 JUMP JUMPDEST SWAP1 PUSH1 0x0 SWAP2 DUP1 DUP4 MSTORE DUP3 PUSH1 0x20 MSTORE PUSH1 0x1 PUSH1 0x1 PUSH1 0xA0 SHL SUB PUSH1 0x40 DUP5 KECCAK256 SWAP3 AND SWAP2 DUP3 DUP5 MSTORE PUSH1 0x20 MSTORE PUSH1 0xFF PUSH1 0x40 DUP5 KECCAK256 SLOAD AND ISZERO PUSH1 0x0 EQ PUSH2 0x2DA7 JUMPI DUP1 DUP4 MSTORE DUP3 PUSH1 0x20 MSTORE PUSH1 0x40 DUP4 KECCAK256 DUP3 DUP5 MSTORE PUSH1 0x20 MSTORE PUSH1 0x40 DUP4 KECCAK256 PUSH1 0x1 PUSH1 0xFF NOT DUP3 SLOAD AND OR SWAP1 SSTORE PUSH32 0x2F8788117E7EFF1D82E926EC794901D17C78024A50270940304540A733656F0D CALLER SWAP4 DUP1 LOG4 PUSH1 0x1 SWAP1 JUMP JUMPDEST PUSH1 0x1 PUSH1 0x1 PUSH1 0xA0 SHL SUB AND PUSH1 0x0 DUP2 DUP2 MSTORE PUSH32 0x7DFC0114FC2B0320947240CBD60A9FFC193468A941C37441E641A928A8C116D5 PUSH1 0x20 MSTORE PUSH1 0x40 DUP2 KECCAK256 SLOAD SWAP1 SWAP2 SWAP1 PUSH32 0x35369B3A7BB98C90641A907C2FD643EA781341EBA72CCFFD47CB018C128C48C3 SWAP1 PUSH1 0xFF AND ISZERO PUSH2 0x2DA7 JUMPI DUP1 DUP4 MSTORE DUP3 PUSH1 0x20 MSTORE PUSH1 0x40 DUP4 KECCAK256 DUP3 DUP5 MSTORE PUSH1 0x20 MSTORE PUSH1 0x40 DUP4 KECCAK256 PUSH1 0xFF NOT DUP2 SLOAD AND SWAP1 SSTORE PUSH32 0xF6391F5C32D9C69D2A47EA670B442974B53935D1EDC7FD64EB21E047A839171B CALLER SWAP4 DUP1 LOG4 PUSH1 0x1 SWAP1 JUMP JUMPDEST SWAP1 PUSH1 0x0 SWAP2 DUP1 DUP4 MSTORE DUP3 PUSH1 0x20 MSTORE PUSH1 0x1 PUSH1 0x1 PUSH1 0xA0 SHL SUB PUSH1 0x40 DUP5 KECCAK256 SWAP3 AND SWAP2 DUP3 DUP5 MSTORE PUSH1 0x20 MSTORE PUSH1 0xFF PUSH1 0x40 DUP5 KECCAK256 SLOAD AND PUSH1 0x0 EQ PUSH2 0x2DA7 JUMPI DUP1 DUP4 MSTORE DUP3 PUSH1 0x20 MSTORE PUSH1 0x40 DUP4 KECCAK256 DUP3 DUP5 MSTORE PUSH1 0x20 MSTORE PUSH1 0x40 DUP4 KECCAK256 PUSH1 0xFF NOT DUP2 SLOAD AND SWAP1 SSTORE PUSH32 0xF6391F5C32D9C69D2A47EA670B442974B53935D1EDC7FD64EB21E047A839171B CALLER SWAP4 DUP1 LOG4 PUSH1 0x1 SWAP1 JUMP JUMPDEST ISZERO PUSH2 0x2F4E JUMPI JUMP JUMPDEST PUSH1 0x64 PUSH1 0x40 MLOAD PUSH3 0x461BCD PUSH1 0xE5 SHL DUP2 MSTORE PUSH1 0x20 PUSH1 0x4 DUP3 ADD MSTORE PUSH1 0x14 PUSH1 0x24 DUP3 ADD MSTORE PUSH32 0x4D696E203E206D617820696E766573746D656E74000000000000000000000000 PUSH1 0x44 DUP3 ADD MSTORE REVERT JUMPDEST PUSH1 0xFF PUSH1 0x1 SLOAD AND PUSH2 0x2F9E JUMPI JUMP JUMPDEST PUSH1 0x4 PUSH1 0x40 MLOAD PUSH32 0xD93C066500000000000000000000000000000000000000000000000000000000 DUP2 MSTORE REVERT JUMPDEST SWAP2 SWAP1 DUP3 ADD DUP1 SWAP3 GT PUSH2 0x2FD5 JUMPI JUMP JUMPDEST PUSH4 0x4E487B71 PUSH1 0xE0 SHL PUSH1 0x0 MSTORE PUSH1 0x11 PUSH1 0x4 MSTORE PUSH1 0x24 PUSH1 0x0 REVERT JUMPDEST DUP2 ISZERO PUSH2 0x2FF5 JUMPI DIV SWAP1 JUMP JUMPDEST PUSH4 0x4E487B71 PUSH1 0xE0 SHL PUSH1 0x0 MSTORE PUSH1 0x12 PUSH1 0x4 MSTORE PUSH1 0x24 PUSH1 0x0 REVERT JUMPDEST ISZERO PUSH2 0x3012 JUMPI JUMP JUMPDEST PUSH1 0x64 PUSH1 0x40 MLOAD PUSH3 0x461BCD PUSH1 0xE5 SHL DUP2 MSTORE PUSH1 0x20 PUSH1 0x4 DUP3 ADD MSTORE PUSH1 0x18 PUSH1 0x24 DUP3 ADD MSTORE PUSH32 0x496E73756666696369656E742073616C6520746F6B656E730000000000000000 PUSH1 0x44 DUP3 ADD MSTORE REVERT JUMPDEST SWAP1 DUP2 PUSH1 0x20 SWAP2 SUB SLT PUSH2 0x5F2 JUMPI MLOAD DUP1 ISZERO ISZERO DUP2 SUB PUSH2 0x5F2 JUMPI SWAP1 JUMP JUMPDEST PUSH1 0x40 SWAP1 PUSH2 0x3095 SWAP4 SWAP6 SWAP5 SWAP3 SWAP6 PUSH1 0x1 PUSH1 0x1 PUSH1 0xA0 SHL SUB PUSH1 0x60 DUP4 ADD SWAP8 AND DUP3 MSTORE PUSH1 0x20 DUP3 ADD MSTORE ADD SWAP1 PUSH2 0x2B54 JUMP JUMPDEST JUMP JUMPDEST PUSH1 0x2 DUP1 SLOAD EQ PUSH2 0x30A6 JUMPI PUSH1 0x2 DUP1 SSTORE JUMP JUMPDEST PUSH1 0x4 PUSH1 0x40 MLOAD PUSH32 0x3EE5AEB500000000000000000000000000000000000000000000000000000000 DUP2 MSTORE REVERT JUMPDEST ISZERO PUSH2 0x30D7 JUMPI JUMP JUMPDEST PUSH1 0x64 PUSH1 0x40 MLOAD PUSH3 0x461BCD PUSH1 0xE5 SHL DUP2 MSTORE PUSH1 0x20 PUSH1 0x4 DUP3 ADD MSTORE PUSH1 0xD PUSH1 0x24 DUP3 ADD MSTORE PUSH32 0x496E76616C696420707269636500000000000000000000000000000000000000 PUSH1 0x44 DUP3 ADD MSTORE REVERT JUMPDEST SWAP2 SWAP1 DUP3 SUB SWAP2 DUP3 GT PUSH2 0x2FD5 JUMPI JUMP JUMPDEST ISZERO PUSH2 0x312F JUMPI JUMP JUMPDEST PUSH1 0x64 PUSH1 0x40 MLOAD PUSH3 0x461BCD PUSH1 0xE5 SHL DUP2 MSTORE PUSH1 0x20 PUSH1 0x4 DUP3 ADD MSTORE PUSH1 0xC PUSH1 0x24 DUP3 ADD MSTORE PUSH32 0x5A65726F20616464726573730000000000000000000000000000000000000000 PUSH1 0x44 DUP3 ADD MSTORE REVERT INVALID LOG1 PUSH5 0x736F6C6343 STOP ADDMOD EQ STOP EXP "},"methodIdentifiers":{"DEFAULT_ADMIN_ROLE()":"a217fddf","TOKEN_OWNER_ROLE()":"8a185113","apyEnabled()":"4fff5402","autoTransfer()":"0d342cab","claimTokens(address)":"df8de3e7","defaultPayoutFrequency()":"8cd05933","endDate()":"c24a0f8b","escrowAddress()":"0d5defa4","fundraisingCap()":"b9662797","getRoleAdmin(bytes32)":"248a9ca3","grantRole(bytes32,address)":"2f2ff15d","grantTokenOwner(address)":"b13ef138","hasRole(bytes32,address)":"91d14854","initialize((address,uint256,uint256,uint256,uint256,uint256,bool,uint256,uint256,address,address,bool,address,address,address,uint256,uint8))":"11e72114","invest(address,address,uint256)":"653ac422","investmentManager()":"4b31bb10","isSaleClosed()":"1e1a268b","maturityDate()":"d59624b4","maxInvestment()":"002e1316","minInvestment()":"8ac2c680","pause()":"8456cb59","paused()":"5c975abb","payoutRate()":"2b4353f2","payoutTokenAddress()":"5cc04838","pendingTokens(address)":"c031a66f","reclaimUnclaimedTokens(address)":"77d392f0","removeTokenOracle(address)":"88e32fc2","renounceRole(bytes32,address)":"36568abe","rescueTokens(address,uint256,address)":"b37fd190","revokeRole(bytes32,address)":"d547741f","revokeTokenOwner(address)":"a6527f39","saleToken()":"e985e367","setEndDate(uint256)":"3784f000","setInvestmentLimits(uint256,uint256)":"fb903b1d","setTokenOracle(address,address)":"764467cc","setTokenPrice(uint256)":"6a61e5fc","setWhitelistedPaymentToken(address,bool)":"1309b324","startDate()":"0b97bc86","supportsInterface(bytes4)":"01ffc9a7","tokenOracles(address)":"bd492432","tokenPrice()":"7ff9b596","totalInvested(address)":"90838e09","totalPendingTokens()":"bbcc0a06","totalRaised()":"c5c4744c","treasury()":"61d027b3","unpause()":"3f4ba83a","whitelistedPaymentTokens(address)":"df695abb","wrappedTokenAddress()":"3e646208"}}}}}