{"contracts/Payout.sol":{"Payout":{"abi":[{"inputs":[{"internalType":"address","name":"defaultAdmin","type":"address"},{"internalType":"address","name":"initialSigner","type":"address"}],"stateMutability":"nonpayable","type":"constructor"},{"inputs":[],"name":"AccessControlBadConfirmation","type":"error"},{"inputs":[{"internalType":"address","name":"account","type":"address"},{"internalType":"bytes32","name":"neededRole","type":"bytes32"}],"name":"AccessControlUnauthorizedAccount","type":"error"},{"inputs":[],"name":"EnforcedPause","type":"error"},{"inputs":[],"name":"ExpectedPause","type":"error"},{"inputs":[],"name":"ReentrancyGuardReentrantCall","type":"error"},{"anonymous":false,"inputs":[{"indexed":false,"internalType":"address","name":"account","type":"address"}],"name":"Paused","type":"event"},{"anonymous":false,"inputs":[{"indexed":true,"internalType":"uint256","name":"payoutId","type":"uint256"},{"indexed":true,"internalType":"address","name":"funder","type":"address"},{"indexed":false,"internalType":"address","name":"token","type":"address"},{"indexed":false,"internalType":"uint256","name":"totalAmount","type":"uint256"},{"indexed":false,"internalType":"uint256","name":"payoutNonce","type":"uint256"}],"name":"PayoutAllotted","type":"event"},{"anonymous":false,"inputs":[{"indexed":true,"internalType":"uint256","name":"payoutId","type":"uint256"},{"indexed":true,"internalType":"address","name":"claimant","type":"address"},{"indexed":false,"internalType":"address","name":"token","type":"address"},{"indexed":false,"internalType":"uint256","name":"amountClaimed","type":"uint256"}],"name":"PayoutClaimed","type":"event"},{"anonymous":false,"inputs":[{"indexed":true,"internalType":"bytes32","name":"role","type":"bytes32"},{"indexed":true,"internalType":"bytes32","name":"previousAdminRole","type":"bytes32"},{"indexed":true,"internalType":"bytes32","name":"newAdminRole","type":"bytes32"}],"name":"RoleAdminChanged","type":"event"},{"anonymous":false,"inputs":[{"indexed":true,"internalType":"bytes32","name":"role","type":"bytes32"},{"indexed":true,"internalType":"address","name":"account","type":"address"},{"indexed":true,"internalType":"address","name":"sender","type":"address"}],"name":"RoleGranted","type":"event"},{"anonymous":false,"inputs":[{"indexed":true,"internalType":"bytes32","name":"role","type":"bytes32"},{"indexed":true,"internalType":"address","name":"account","type":"address"},{"indexed":true,"internalType":"address","name":"sender","type":"address"}],"name":"RoleRevoked","type":"event"},{"anonymous":false,"inputs":[{"indexed":false,"internalType":"address","name":"account","type":"address"}],"name":"Unpaused","type":"event"},{"inputs":[],"name":"DEFAULT_ADMIN_ROLE","outputs":[{"internalType":"bytes32","name":"","type":"bytes32"}],"stateMutability":"view","type":"function"},{"inputs":[],"name":"PAYOUT_FUNDER_ROLE","outputs":[{"internalType":"bytes32","name":"","type":"bytes32"}],"stateMutability":"view","type":"function"},{"inputs":[],"name":"SIGNER_ROLE","outputs":[{"internalType":"bytes32","name":"","type":"bytes32"}],"stateMutability":"view","type":"function"},{"inputs":[{"internalType":"address","name":"_token","type":"address"},{"internalType":"uint256","name":"_amount","type":"uint256"}],"name":"allotPayout","outputs":[{"internalType":"uint256","name":"","type":"uint256"}],"stateMutability":"nonpayable","type":"function"},{"inputs":[{"internalType":"uint256","name":"_payoutId","type":"uint256"},{"internalType":"uint256","name":"_amountToClaim","type":"uint256"},{"internalType":"uint256","name":"_claimantNonce","type":"uint256"},{"internalType":"bytes","name":"_signature","type":"bytes"}],"name":"claimPayout","outputs":[],"stateMutability":"nonpayable","type":"function"},{"inputs":[{"internalType":"uint256","name":"","type":"uint256"},{"internalType":"address","name":"","type":"address"}],"name":"claimantNonces","outputs":[{"internalType":"uint256","name":"","type":"uint256"}],"stateMutability":"view","type":"function"},{"inputs":[{"internalType":"uint256","name":"_payoutId","type":"uint256"}],"name":"getNumClaimants","outputs":[{"internalType":"uint256","name":"","type":"uint256"}],"stateMutability":"view","type":"function"},{"inputs":[{"internalType":"uint256","name":"_payoutId","type":"uint256"}],"name":"getRemainingAmount","outputs":[{"internalType":"uint256","name":"","type":"uint256"}],"stateMutability":"view","type":"function"},{"inputs":[{"internalType":"bytes32","name":"role","type":"bytes32"}],"name":"getRoleAdmin","outputs":[{"internalType":"bytes32","name":"","type":"bytes32"}],"stateMutability":"view","type":"function"},{"inputs":[{"internalType":"address","name":"_funder","type":"address"}],"name":"grantPayoutFunderRole","outputs":[],"stateMutability":"nonpayable","type":"function"},{"inputs":[{"internalType":"bytes32","name":"role","type":"bytes32"},{"internalType":"address","name":"account","type":"address"}],"name":"grantRole","outputs":[],"stateMutability":"nonpayable","type":"function"},{"inputs":[{"internalType":"address","name":"_signer","type":"address"}],"name":"grantSignerRole","outputs":[],"stateMutability":"nonpayable","type":"function"},{"inputs":[{"internalType":"uint256","name":"","type":"uint256"},{"internalType":"address","name":"","type":"address"}],"name":"hasClaimed","outputs":[{"internalType":"bool","name":"","type":"bool"}],"stateMutability":"view","type":"function"},{"inputs":[{"internalType":"bytes32","name":"role","type":"bytes32"},{"internalType":"address","name":"account","type":"address"}],"name":"hasRole","outputs":[{"internalType":"bool","name":"","type":"bool"}],"stateMutability":"view","type":"function"},{"inputs":[],"name":"nextPayoutId","outputs":[{"internalType":"uint256","name":"","type":"uint256"}],"stateMutability":"view","type":"function"},{"inputs":[],"name":"pause","outputs":[],"stateMutability":"nonpayable","type":"function"},{"inputs":[],"name":"paused","outputs":[{"internalType":"bool","name":"","type":"bool"}],"stateMutability":"view","type":"function"},{"inputs":[{"internalType":"uint256","name":"","type":"uint256"}],"name":"payouts","outputs":[{"internalType":"address","name":"funder","type":"address"},{"internalType":"address","name":"token","type":"address"},{"internalType":"uint256","name":"totalAmount","type":"uint256"},{"internalType":"uint256","name":"claimedAmount","type":"uint256"},{"internalType":"uint256","name":"numClaimants","type":"uint256"},{"internalType":"bool","name":"isActive","type":"bool"},{"internalType":"uint256","name":"payoutNonce","type":"uint256"}],"stateMutability":"view","type":"function"},{"inputs":[{"internalType":"bytes32","name":"role","type":"bytes32"},{"internalType":"address","name":"callerConfirmation","type":"address"}],"name":"renounceRole","outputs":[],"stateMutability":"nonpayable","type":"function"},{"inputs":[{"internalType":"address","name":"_funder","type":"address"}],"name":"revokePayoutFunderRole","outputs":[],"stateMutability":"nonpayable","type":"function"},{"inputs":[{"internalType":"bytes32","name":"role","type":"bytes32"},{"internalType":"address","name":"account","type":"address"}],"name":"revokeRole","outputs":[],"stateMutability":"nonpayable","type":"function"},{"inputs":[{"internalType":"address","name":"_signer","type":"address"}],"name":"revokeSignerRole","outputs":[],"stateMutability":"nonpayable","type":"function"},{"inputs":[{"internalType":"bytes4","name":"interfaceId","type":"bytes4"}],"name":"supportsInterface","outputs":[{"internalType":"bool","name":"","type":"bool"}],"stateMutability":"view","type":"function"},{"inputs":[],"name":"unpause","outputs":[],"stateMutability":"nonpayable","type":"function"}],"evm":{"bytecode":{"linkReferences":{},"object":"6080346200008c57601f6200167b38819003918201601f19168301916001600160401b03831184841017620000915780849260409485528339810103126200008c57806200006f6200006360206200005b6200007695620000a7565b9301620000a7565b916001600255620000bc565b506200013c565b50600160035560405161147c9081620001df8239f35b600080fd5b634e487b7160e01b600052604160045260246000fd5b51906001600160a01b03821682036200008c57565b6001600160a01b031660008181527fad3228b676f7d3cd4284a5443f17f1962b36e491b30a40b2405849e597ba5fb5602052604081205490919060ff166200013857818052816020526040822081835260205260408220600160ff1982541617905533916000805160206200165b8339815191528180a4600190565b5090565b6001600160a01b031660008181527f059f08e7d7ba1c82eddc57afae67f80df851baf38a099607a779825038c3ce5b60205260408120549091907fe2f4eaae4a9751e85a3e4a7b9587827a877f29914755229b07a7b2da98285f709060ff16620001d957808352826020526040832082845260205260408320600160ff198254161790556000805160206200165b833981519152339380a4600190565b50509056fe6080604052600436101561001257600080fd5b60003560e01c806301ffc9a714610197578063248a9ca31461019257806329652e861461018d5780632f2ff15d1461018857806336568abe146101835780633f4ba83a1461017e578063493ddb3c146101795780635c975abb1461017457806372091b391461016f5780638456cb591461016a578063873f6f9e1461016557806391d1485414610160578063923af4eb1461015b578063a1ebf35d14610156578063a217fddf14610151578063a8b1a7d11461014c578063b7e2c37c14610147578063cb894e7c14610142578063cffa81871461013d578063d547741f14610138578063d5c94bbd14610133578063f3f9d8481461012e578063f6252ff2146101295763ff9a30d61461012457600080fd5b610938565b610883565b610865565b61083c565b6107fd565b6107d4565b610791565b610768565b61073f565b610723565b6106fa565b6106bf565b61068b565b61064b565b6105cf565b6105a6565b610583565b6103d8565b610362565b61031b565b6102da565b610231565b6101f2565b346101ed5760203660031901126101ed5760043563ffffffff60e01b81168091036101ed57602090637965db0b60e01b81149081156101dc575b506040519015158152f35b6301ffc9a760e01b149050386101d1565b600080fd5b346101ed5760203660031901126101ed5760043560005260006020526020600160406000200154604051908152f35b6000526004602052604060002090565b346101ed5760203660031901126101ed57600435600052600460205260e0604060002060018060a01b039081815416916001820154169060028101546003820154600483015491600660ff600586015416940154946040519687526020870152604086015260608501526080840152151560a083015260c0820152f35b602435906001600160a01b03821682036101ed57565b600435906001600160a01b03821682036101ed57565b346101ed5760403660031901126101ed576103196004356102f96102ae565b90806000526000602052610314600160406000200154610a9d565b610b7e565b005b346101ed5760403660031901126101ed576103346102ae565b336001600160a01b038216036103505761031990600435610c57565b60405163334bd91960e11b8152600490fd5b346101ed5760003660031901126101ed5761037b6109e8565b60015460ff8116156103c65760ff191660015560206040513381527f5db9ee0a495bf2e6ff9c91a7834c1ba4fdd244a5e8aa4e537bd38aeae4b073aa918291a16020604051338152a1005b604051638dfc202b60e01b8152600490fd5b346101ed5760403660031901126101ed576103f16102c4565b602435906103fd610a44565b610405610dea565b61040d610e08565b6001600160a01b03811690610423821515610c70565b61042e831515610cb4565b6003549161044361043e84610d15565b600355565b610458600661045185610221565b0154610d24565b6104aa610463610919565b3381526001600160a01b0385166020820152866040820152600060608201526000608082015261049660a0820160019052565b8260c08201526104a586610221565b610d5e565b6040516323b872dd60e01b81523360048201523060248201526044810186905291602090839060649082906000905af190811561057e5761054c9585937f14c3655037c4d8b3b38bfd705973294a3789bbaded8d0364b15ba2c7edde30ff93610550575b50604080516001600160a01b0396909616865260208601919091528401523392606090a361053c6001600255565b6040519081529081906020820190565b0390f35b6105709060203d8111610577575b61056881836108f1565b810190610dc6565b503861050e565b503d61055e565b610dde565b346101ed5760003660031901126101ed57602060ff600154166040519015158152f35b346101ed5760203660031901126101ed576103196105c26102c4565b6105ca6109e8565b610b97565b346101ed5760003660031901126101ed576105e86109e8565b6105f0610dea565b600160ff198154161760015560206040513381527f62e78cea01bee320cd4e420270b5ea74000d11b0c9f74754ebdbfc544b05a258918291a16020604051338152a1005b9060018060a01b0316600052602052604060002090565b346101ed5760403660031901126101ed57602060ff61067f61066b6102ae565b600435600052600584526040600020610634565b54166040519015158152f35b346101ed5760403660031901126101ed57602060ff61067f6106ab6102ae565b600435600052600084526040600020610634565b346101ed5760403660031901126101ed5760206106f16106dd6102ae565b600435600052600683526040600020610634565b54604051908152f35b346101ed5760003660031901126101ed5760206040516000805160206114078339815191528152f35b346101ed5760003660031901126101ed57602060405160008152f35b346101ed5760203660031901126101ed5761031961075b6102c4565b6107636109e8565b610c23565b346101ed5760203660031901126101ed576103196107846102c4565b61078c6109e8565b610ab6565b346101ed5760203660031901126101ed5760043560005260046020526020600460406000206107ca60018060a01b0382541615156110fd565b0154604051908152f35b346101ed5760203660031901126101ed576103196107f06102c4565b6107f86109e8565b610b4a565b346101ed5760403660031901126101ed5761031960043561081c6102ae565b90806000526000602052610837600160406000200154610a9d565b610c57565b346101ed5760003660031901126101ed5760206040516000805160206113c78339815191528152f35b346101ed5760003660031901126101ed576020600354604051908152f35b346101ed5760203660031901126101ed57600435600052600460205260406000206108b860018060a01b0382541615156110fd565b6003600282015491015481039081116108d657602090604051908152f35b610cff565b634e487b7160e01b600052604160045260246000fd5b601f909101601f19168101906001600160401b0382119082101761091457604052565b6108db565b6040519060e082016001600160401b0381118382101761091457604052565b346101ed5760803660031901126101ed576064356001600160401b038082116101ed57366023830112156101ed578160040135908111610914576040519061098a601f8201601f1916602001836108f1565b80825236602482850101116101ed57602081600092602461031996018386013783010152604435602435600435610e29565b6109e360ff9160008051602061140783398151915260005260006020526040600020610634565b541690565b600080805260205260ff610a1c337fad3228b676f7d3cd4284a5443f17f1962b36e491b30a40b2405849e597ba5fb5610634565b541615610a2557565b60405163e2517d3f60e01b815233600482015260006024820152604490fd5b6000805160206113c7833981519152600081815260205260ff610a75336000805160206113e7833981519152610634565b541615610a7f5750565b6044906040519063e2517d3f60e01b82523360048301526024820152fd5b80600052600060205260ff610a75336040600020610634565b6000805160206113c7833981519152600081815260208190529060ff610aea846000805160206113e7833981519152610634565b5416610b445780825281602052610b048360408420610634565b805460ff1916600117905533926001600160a01b0316917f2f8788117e7eff1d82e926ec794901d17c78024a50270940304540a733656f0d9080a4600190565b50905090565b600080516020611407833981519152600081815260208190529060ff610aea84600080516020611427833981519152610634565b6000908082528160205260ff610aea8460408520610634565b6000805160206113c7833981519152600081815260208190529060ff610bcb846000805160206113e7833981519152610634565b541615610b445780825281602052610be68360408420610634565b805460ff1916905533926001600160a01b0316917ff6391f5c32d9c69d2a47ea670b442974b53935d1edc7fd64eb21e047a839171b9080a4600190565b600080516020611407833981519152600081815260208190529060ff610bcb84600080516020611427833981519152610634565b6000908082528160205260ff610bcb8460408520610634565b15610c7757565b60405162461bcd60e51b8152602060048201526015602482015274496e76616c696420746f6b656e206164647265737360581b6044820152606490fd5b15610cbb57565b606460405162461bcd60e51b815260206004820152602060248201527f416d6f756e74206d7573742062652067726561746572207468616e207a65726f6044820152fd5b634e487b7160e01b600052601160045260246000fd5b60001981146108d65760010190565b90600182018092116108d657565b919082018092116108d657565b80546001600160a01b0319166001600160a01b03909216919091179055565b9060c0600691610d8a60018060a01b03610d7b8184511687610d3f565b60208301511660018601610d3f565b6040810151600285015560608101516003850155608081015160048501556005840160a0820151151560ff801983541691161790550151910155565b908160209103126101ed575180151581036101ed5790565b6040513d6000823e3d90fd5b60ff60015416610df657565b60405163d93c066560e01b8152600490fd5b6002805414610e175760028055565b604051633ee5aeb560e01b8152600490fd5b91610f1290610ef6610fe18486610fdc610fd7610fd26001999b610e4b610e08565b610e53610dea565b610f1e89610f18610e6388610221565b9c8d988f80610e889160a01b03610e808c5460018060a01b031690565b1615156110fd565b610e9e610e9960058c015460ff1690565b611141565b610ed4610ecf610ecb610ec433610ebf866000526005602052604060002090565b610634565b5460ff1690565b1590565b611184565b610edf8b15156111cf565b610efd8b600360028d01549c019e8f54809d61122d565b101561123a565b610ebf33916000526006602052604060002090565b54610d24565b14611285565b60068a015460408051602081018f81526001600160601b031933606090811b821694840194909452605483018b9052607483018e90523090931b909216609482015260a880820193909352918252601f1991610f7b60c8826108f1565b51902090610fca6040519182610fbe602082019586603c917b0ca2ba3432b932bab69029b4b3b732b21026b2b9b9b0b3b29d05199960211b8252601c8201520190565b039081018352826108f1565b51902061133b565b6109bc565b6112e3565b610d32565b905560048201610ff18154610d15565b905561101b61100e33610ebf876000526005602052604060002090565b805460ff19166001179055565b61103333610ebf866000526006602052604060002090565b550180546110579061104b906001600160a01b031681565b6001600160a01b031690565b6020604051809263a9059cbb60e01b82528160008161107a8a3360048401611320565b03925af1801561057e577ff9a14d9b61a9505a2368c9180178adf3cee68729fef922c2976d84368cd36e21926110d0926110c1926110df575b50546001600160a01b031690565b93604051918291339683611320565b0390a36110dd6001600255565b565b6110f69060203d81116105775761056881836108f1565b50386110b3565b1561110457565b60405162461bcd60e51b815260206004820152601560248201527414185e5bdd5d08191bd95cc81b9bdd08195e1a5cdd605a1b6044820152606490fd5b1561114857565b60405162461bcd60e51b81526020600482015260146024820152735061796f7574206973206e6f742061637469766560601b6044820152606490fd5b1561118b57565b606460405162461bcd60e51b815260206004820152602060248201527f416c726561647920636c61696d65642066726f6d2074686973207061796f75746044820152fd5b156111d657565b60405162461bcd60e51b815260206004820152602960248201527f416d6f756e7420746f20636c61696d206d7573742062652067726561746572206044820152687468616e207a65726f60b81b6064820152608490fd5b919082039182116108d657565b1561124157565b60405162461bcd60e51b815260206004820152601c60248201527b496e73756666696369656e742066756e64732072656d61696e696e6760201b6044820152606490fd5b1561128c57565b60405162461bcd60e51b815260206004820152602960248201527f496e636f727265637420636c61696d616e74206e6f6e6365206f72207265706c60448201526861792061747461636b60b81b6064820152608490fd5b156112ea57565b60405162461bcd60e51b815260206004820152600e60248201526d24b73b30b634b21039b4b3b732b960911b6044820152606490fd5b6001600160a01b039091168152602081019190915260400190565b906041815103611386576020818101516040808401516060948501518251968752600090811a8786015291860192909252928401528180529160809060015afa1561057e5760005190565b60405162461bcd60e51b8152602060048201526018602482015277092dcecc2d8d2c840e6d2cedcc2e8eae4ca40d8cadccee8d60431b6044820152606490fdfedd01ab90b70e8c65d33958baf3f2903825e567eda9345348566db0976335c63b2f248c084653d121695721f7e91d2fd5fbbe3fbfd21a6b49a0deeea66f402953e2f4eaae4a9751e85a3e4a7b9587827a877f29914755229b07a7b2da98285f70059f08e7d7ba1c82eddc57afae67f80df851baf38a099607a779825038c3ce5ba2646970667358221220ae7ba530f3cb076e7590b9a1510aa239cf008341c3377e2ff61e3c2757ac99c464736f6c634300081400332f8788117e7eff1d82e926ec794901d17c78024a50270940304540a733656f0d","opcodes":"PUSH1 0x80 CALLVALUE PUSH3 0x8C JUMPI PUSH1 0x1F PUSH3 0x167B CODESIZE DUP2 SWAP1 SUB SWAP2 DUP3 ADD PUSH1 0x1F NOT AND DUP4 ADD SWAP2 PUSH1 0x1 PUSH1 0x1 PUSH1 0x40 SHL SUB DUP4 GT DUP5 DUP5 LT OR PUSH3 0x91 JUMPI DUP1 DUP5 SWAP3 PUSH1 0x40 SWAP5 DUP6 MSTORE DUP4 CODECOPY DUP2 ADD SUB SLT PUSH3 0x8C JUMPI DUP1 PUSH3 0x6F PUSH3 0x63 PUSH1 0x20 PUSH3 0x5B PUSH3 0x76 SWAP6 PUSH3 0xA7 JUMP JUMPDEST SWAP4 ADD PUSH3 0xA7 JUMP JUMPDEST SWAP2 PUSH1 0x1 PUSH1 0x2 SSTORE PUSH3 0xBC JUMP JUMPDEST POP PUSH3 0x13C JUMP JUMPDEST POP PUSH1 0x1 PUSH1 0x3 SSTORE PUSH1 0x40 MLOAD PUSH2 0x147C SWAP1 DUP2 PUSH3 0x1DF DUP3 CODECOPY RETURN JUMPDEST PUSH1 0x0 DUP1 REVERT JUMPDEST PUSH4 0x4E487B71 PUSH1 0xE0 SHL PUSH1 0x0 MSTORE PUSH1 0x41 PUSH1 0x4 MSTORE PUSH1 0x24 PUSH1 0x0 REVERT JUMPDEST MLOAD SWAP1 PUSH1 0x1 PUSH1 0x1 PUSH1 0xA0 SHL SUB DUP3 AND DUP3 SUB PUSH3 0x8C JUMPI JUMP JUMPDEST PUSH1 0x1 PUSH1 0x1 PUSH1 0xA0 SHL SUB AND PUSH1 0x0 DUP2 DUP2 MSTORE PUSH32 0xAD3228B676F7D3CD4284A5443F17F1962B36E491B30A40B2405849E597BA5FB5 PUSH1 0x20 MSTORE PUSH1 0x40 DUP2 KECCAK256 SLOAD SWAP1 SWAP2 SWAP1 PUSH1 0xFF AND PUSH3 0x138 JUMPI DUP2 DUP1 MSTORE DUP2 PUSH1 0x20 MSTORE PUSH1 0x40 DUP3 KECCAK256 DUP2 DUP4 MSTORE PUSH1 0x20 MSTORE PUSH1 0x40 DUP3 KECCAK256 PUSH1 0x1 PUSH1 0xFF NOT DUP3 SLOAD AND OR SWAP1 SSTORE CALLER SWAP2 PUSH1 0x0 DUP1 MLOAD PUSH1 0x20 PUSH3 0x165B DUP4 CODECOPY DUP2 MLOAD SWAP2 MSTORE DUP2 DUP1 LOG4 PUSH1 0x1 SWAP1 JUMP JUMPDEST POP SWAP1 JUMP JUMPDEST PUSH1 0x1 PUSH1 0x1 PUSH1 0xA0 SHL SUB AND PUSH1 0x0 DUP2 DUP2 MSTORE PUSH32 0x59F08E7D7BA1C82EDDC57AFAE67F80DF851BAF38A099607A779825038C3CE5B PUSH1 0x20 MSTORE PUSH1 0x40 DUP2 KECCAK256 SLOAD SWAP1 SWAP2 SWAP1 PUSH32 0xE2F4EAAE4A9751E85A3E4A7B9587827A877F29914755229B07A7B2DA98285F70 SWAP1 PUSH1 0xFF AND PUSH3 0x1D9 JUMPI DUP1 DUP4 MSTORE DUP3 PUSH1 0x20 MSTORE PUSH1 0x40 DUP4 KECCAK256 DUP3 DUP5 MSTORE PUSH1 0x20 MSTORE PUSH1 0x40 DUP4 KECCAK256 PUSH1 0x1 PUSH1 0xFF NOT DUP3 SLOAD AND OR SWAP1 SSTORE PUSH1 0x0 DUP1 MLOAD PUSH1 0x20 PUSH3 0x165B DUP4 CODECOPY DUP2 MLOAD SWAP2 MSTORE CALLER SWAP4 DUP1 LOG4 PUSH1 0x1 SWAP1 JUMP JUMPDEST POP POP SWAP1 JUMP INVALID PUSH1 0x80 PUSH1 0x40 MSTORE PUSH1 0x4 CALLDATASIZE LT ISZERO PUSH2 0x12 JUMPI PUSH1 0x0 DUP1 REVERT JUMPDEST PUSH1 0x0 CALLDATALOAD PUSH1 0xE0 SHR DUP1 PUSH4 0x1FFC9A7 EQ PUSH2 0x197 JUMPI DUP1 PUSH4 0x248A9CA3 EQ PUSH2 0x192 JUMPI DUP1 PUSH4 0x29652E86 EQ PUSH2 0x18D JUMPI DUP1 PUSH4 0x2F2FF15D EQ PUSH2 0x188 JUMPI DUP1 PUSH4 0x36568ABE EQ PUSH2 0x183 JUMPI DUP1 PUSH4 0x3F4BA83A EQ PUSH2 0x17E JUMPI DUP1 PUSH4 0x493DDB3C EQ PUSH2 0x179 JUMPI DUP1 PUSH4 0x5C975ABB EQ PUSH2 0x174 JUMPI DUP1 PUSH4 0x72091B39 EQ PUSH2 0x16F JUMPI DUP1 PUSH4 0x8456CB59 EQ PUSH2 0x16A JUMPI DUP1 PUSH4 0x873F6F9E EQ PUSH2 0x165 JUMPI DUP1 PUSH4 0x91D14854 EQ PUSH2 0x160 JUMPI DUP1 PUSH4 0x923AF4EB EQ PUSH2 0x15B JUMPI DUP1 PUSH4 0xA1EBF35D EQ PUSH2 0x156 JUMPI DUP1 PUSH4 0xA217FDDF EQ PUSH2 0x151 JUMPI DUP1 PUSH4 0xA8B1A7D1 EQ PUSH2 0x14C JUMPI DUP1 PUSH4 0xB7E2C37C EQ PUSH2 0x147 JUMPI DUP1 PUSH4 0xCB894E7C EQ PUSH2 0x142 JUMPI DUP1 PUSH4 0xCFFA8187 EQ PUSH2 0x13D JUMPI DUP1 PUSH4 0xD547741F EQ PUSH2 0x138 JUMPI DUP1 PUSH4 0xD5C94BBD EQ PUSH2 0x133 JUMPI DUP1 PUSH4 0xF3F9D848 EQ PUSH2 0x12E JUMPI DUP1 PUSH4 0xF6252FF2 EQ PUSH2 0x129 JUMPI PUSH4 0xFF9A30D6 EQ PUSH2 0x124 JUMPI PUSH1 0x0 DUP1 REVERT JUMPDEST PUSH2 0x938 JUMP JUMPDEST PUSH2 0x883 JUMP JUMPDEST PUSH2 0x865 JUMP JUMPDEST PUSH2 0x83C JUMP JUMPDEST PUSH2 0x7FD JUMP JUMPDEST PUSH2 0x7D4 JUMP JUMPDEST PUSH2 0x791 JUMP JUMPDEST PUSH2 0x768 JUMP JUMPDEST PUSH2 0x73F JUMP JUMPDEST PUSH2 0x723 JUMP JUMPDEST PUSH2 0x6FA JUMP JUMPDEST PUSH2 0x6BF JUMP JUMPDEST PUSH2 0x68B JUMP JUMPDEST PUSH2 0x64B JUMP JUMPDEST PUSH2 0x5CF JUMP JUMPDEST PUSH2 0x5A6 JUMP JUMPDEST PUSH2 0x583 JUMP JUMPDEST PUSH2 0x3D8 JUMP JUMPDEST PUSH2 0x362 JUMP JUMPDEST PUSH2 0x31B JUMP JUMPDEST PUSH2 0x2DA JUMP JUMPDEST PUSH2 0x231 JUMP JUMPDEST PUSH2 0x1F2 JUMP JUMPDEST CALLVALUE PUSH2 0x1ED JUMPI PUSH1 0x20 CALLDATASIZE PUSH1 0x3 NOT ADD SLT PUSH2 0x1ED JUMPI PUSH1 0x4 CALLDATALOAD PUSH4 0xFFFFFFFF PUSH1 0xE0 SHL DUP2 AND DUP1 SWAP2 SUB PUSH2 0x1ED JUMPI PUSH1 0x20 SWAP1 PUSH4 0x7965DB0B PUSH1 0xE0 SHL DUP2 EQ SWAP1 DUP2 ISZERO PUSH2 0x1DC JUMPI JUMPDEST POP PUSH1 0x40 MLOAD SWAP1 ISZERO ISZERO DUP2 MSTORE RETURN JUMPDEST PUSH4 0x1FFC9A7 PUSH1 0xE0 SHL EQ SWAP1 POP CODESIZE PUSH2 0x1D1 JUMP JUMPDEST PUSH1 0x0 DUP1 REVERT JUMPDEST CALLVALUE PUSH2 0x1ED JUMPI PUSH1 0x20 CALLDATASIZE PUSH1 0x3 NOT ADD SLT PUSH2 0x1ED JUMPI PUSH1 0x4 CALLDATALOAD PUSH1 0x0 MSTORE PUSH1 0x0 PUSH1 0x20 MSTORE PUSH1 0x20 PUSH1 0x1 PUSH1 0x40 PUSH1 0x0 KECCAK256 ADD SLOAD PUSH1 0x40 MLOAD SWAP1 DUP2 MSTORE RETURN JUMPDEST PUSH1 0x0 MSTORE PUSH1 0x4 PUSH1 0x20 MSTORE PUSH1 0x40 PUSH1 0x0 KECCAK256 SWAP1 JUMP JUMPDEST CALLVALUE PUSH2 0x1ED JUMPI PUSH1 0x20 CALLDATASIZE PUSH1 0x3 NOT ADD SLT PUSH2 0x1ED JUMPI PUSH1 0x4 CALLDATALOAD PUSH1 0x0 MSTORE PUSH1 0x4 PUSH1 0x20 MSTORE PUSH1 0xE0 PUSH1 0x40 PUSH1 0x0 KECCAK256 PUSH1 0x1 DUP1 PUSH1 0xA0 SHL SUB SWAP1 DUP2 DUP2 SLOAD AND SWAP2 PUSH1 0x1 DUP3 ADD SLOAD AND SWAP1 PUSH1 0x2 DUP2 ADD SLOAD PUSH1 0x3 DUP3 ADD SLOAD PUSH1 0x4 DUP4 ADD SLOAD SWAP2 PUSH1 0x6 PUSH1 0xFF PUSH1 0x5 DUP7 ADD SLOAD AND SWAP5 ADD SLOAD SWAP5 PUSH1 0x40 MLOAD SWAP7 DUP8 MSTORE PUSH1 0x20 DUP8 ADD MSTORE PUSH1 0x40 DUP7 ADD MSTORE PUSH1 0x60 DUP6 ADD MSTORE PUSH1 0x80 DUP5 ADD MSTORE ISZERO ISZERO PUSH1 0xA0 DUP4 ADD MSTORE PUSH1 0xC0 DUP3 ADD MSTORE RETURN JUMPDEST PUSH1 0x24 CALLDATALOAD SWAP1 PUSH1 0x1 PUSH1 0x1 PUSH1 0xA0 SHL SUB DUP3 AND DUP3 SUB PUSH2 0x1ED JUMPI JUMP JUMPDEST PUSH1 0x4 CALLDATALOAD SWAP1 PUSH1 0x1 PUSH1 0x1 PUSH1 0xA0 SHL SUB DUP3 AND DUP3 SUB PUSH2 0x1ED JUMPI JUMP JUMPDEST CALLVALUE PUSH2 0x1ED JUMPI PUSH1 0x40 CALLDATASIZE PUSH1 0x3 NOT ADD SLT PUSH2 0x1ED JUMPI PUSH2 0x319 PUSH1 0x4 CALLDATALOAD PUSH2 0x2F9 PUSH2 0x2AE JUMP JUMPDEST SWAP1 DUP1 PUSH1 0x0 MSTORE PUSH1 0x0 PUSH1 0x20 MSTORE PUSH2 0x314 PUSH1 0x1 PUSH1 0x40 PUSH1 0x0 KECCAK256 ADD SLOAD PUSH2 0xA9D JUMP JUMPDEST PUSH2 0xB7E JUMP JUMPDEST STOP JUMPDEST CALLVALUE PUSH2 0x1ED JUMPI PUSH1 0x40 CALLDATASIZE PUSH1 0x3 NOT ADD SLT PUSH2 0x1ED JUMPI PUSH2 0x334 PUSH2 0x2AE JUMP JUMPDEST CALLER PUSH1 0x1 PUSH1 0x1 PUSH1 0xA0 SHL SUB DUP3 AND SUB PUSH2 0x350 JUMPI PUSH2 0x319 SWAP1 PUSH1 0x4 CALLDATALOAD PUSH2 0xC57 JUMP JUMPDEST PUSH1 0x40 MLOAD PUSH4 0x334BD919 PUSH1 0xE1 SHL DUP2 MSTORE PUSH1 0x4 SWAP1 REVERT JUMPDEST CALLVALUE PUSH2 0x1ED JUMPI PUSH1 0x0 CALLDATASIZE PUSH1 0x3 NOT ADD SLT PUSH2 0x1ED JUMPI PUSH2 0x37B PUSH2 0x9E8 JUMP JUMPDEST PUSH1 0x1 SLOAD PUSH1 0xFF DUP2 AND ISZERO PUSH2 0x3C6 JUMPI PUSH1 0xFF NOT AND PUSH1 0x1 SSTORE PUSH1 0x20 PUSH1 0x40 MLOAD CALLER DUP2 MSTORE PUSH32 0x5DB9EE0A495BF2E6FF9C91A7834C1BA4FDD244A5E8AA4E537BD38AEAE4B073AA SWAP2 DUP3 SWAP2 LOG1 PUSH1 0x20 PUSH1 0x40 MLOAD CALLER DUP2 MSTORE LOG1 STOP JUMPDEST PUSH1 0x40 MLOAD PUSH4 0x8DFC202B PUSH1 0xE0 SHL DUP2 MSTORE PUSH1 0x4 SWAP1 REVERT JUMPDEST CALLVALUE PUSH2 0x1ED JUMPI PUSH1 0x40 CALLDATASIZE PUSH1 0x3 NOT ADD SLT PUSH2 0x1ED JUMPI PUSH2 0x3F1 PUSH2 0x2C4 JUMP JUMPDEST PUSH1 0x24 CALLDATALOAD SWAP1 PUSH2 0x3FD PUSH2 0xA44 JUMP JUMPDEST PUSH2 0x405 PUSH2 0xDEA JUMP JUMPDEST PUSH2 0x40D PUSH2 0xE08 JUMP JUMPDEST PUSH1 0x1 PUSH1 0x1 PUSH1 0xA0 SHL SUB DUP2 AND SWAP1 PUSH2 0x423 DUP3 ISZERO ISZERO PUSH2 0xC70 JUMP JUMPDEST PUSH2 0x42E DUP4 ISZERO ISZERO PUSH2 0xCB4 JUMP JUMPDEST PUSH1 0x3 SLOAD SWAP2 PUSH2 0x443 PUSH2 0x43E DUP5 PUSH2 0xD15 JUMP JUMPDEST PUSH1 0x3 SSTORE JUMP JUMPDEST PUSH2 0x458 PUSH1 0x6 PUSH2 0x451 DUP6 PUSH2 0x221 JUMP JUMPDEST ADD SLOAD PUSH2 0xD24 JUMP JUMPDEST PUSH2 0x4AA PUSH2 0x463 PUSH2 0x919 JUMP JUMPDEST CALLER DUP2 MSTORE PUSH1 0x1 PUSH1 0x1 PUSH1 0xA0 SHL SUB DUP6 AND PUSH1 0x20 DUP3 ADD MSTORE DUP7 PUSH1 0x40 DUP3 ADD MSTORE PUSH1 0x0 PUSH1 0x60 DUP3 ADD MSTORE PUSH1 0x0 PUSH1 0x80 DUP3 ADD MSTORE PUSH2 0x496 PUSH1 0xA0 DUP3 ADD PUSH1 0x1 SWAP1 MSTORE JUMP JUMPDEST DUP3 PUSH1 0xC0 DUP3 ADD MSTORE PUSH2 0x4A5 DUP7 PUSH2 0x221 JUMP JUMPDEST PUSH2 0xD5E JUMP JUMPDEST PUSH1 0x40 MLOAD PUSH4 0x23B872DD PUSH1 0xE0 SHL DUP2 MSTORE CALLER PUSH1 0x4 DUP3 ADD MSTORE ADDRESS PUSH1 0x24 DUP3 ADD MSTORE PUSH1 0x44 DUP2 ADD DUP7 SWAP1 MSTORE SWAP2 PUSH1 0x20 SWAP1 DUP4 SWAP1 PUSH1 0x64 SWAP1 DUP3 SWAP1 PUSH1 0x0 SWAP1 GAS CALL SWAP1 DUP2 ISZERO PUSH2 0x57E JUMPI PUSH2 0x54C SWAP6 DUP6 SWAP4 PUSH32 0x14C3655037C4D8B3B38BFD705973294A3789BBADED8D0364B15BA2C7EDDE30FF SWAP4 PUSH2 0x550 JUMPI JUMPDEST POP PUSH1 0x40 DUP1 MLOAD PUSH1 0x1 PUSH1 0x1 PUSH1 0xA0 SHL SUB SWAP7 SWAP1 SWAP7 AND DUP7 MSTORE PUSH1 0x20 DUP7 ADD SWAP2 SWAP1 SWAP2 MSTORE DUP5 ADD MSTORE CALLER SWAP3 PUSH1 0x60 SWAP1 LOG3 PUSH2 0x53C PUSH1 0x1 PUSH1 0x2 SSTORE JUMP JUMPDEST PUSH1 0x40 MLOAD SWAP1 DUP2 MSTORE SWAP1 DUP2 SWAP1 PUSH1 0x20 DUP3 ADD SWAP1 JUMP JUMPDEST SUB SWAP1 RETURN JUMPDEST PUSH2 0x570 SWAP1 PUSH1 0x20 RETURNDATASIZE DUP2 GT PUSH2 0x577 JUMPI JUMPDEST PUSH2 0x568 DUP2 DUP4 PUSH2 0x8F1 JUMP JUMPDEST DUP2 ADD SWAP1 PUSH2 0xDC6 JUMP JUMPDEST POP CODESIZE PUSH2 0x50E JUMP JUMPDEST POP RETURNDATASIZE PUSH2 0x55E JUMP JUMPDEST PUSH2 0xDDE JUMP JUMPDEST CALLVALUE PUSH2 0x1ED JUMPI PUSH1 0x0 CALLDATASIZE PUSH1 0x3 NOT ADD SLT PUSH2 0x1ED JUMPI PUSH1 0x20 PUSH1 0xFF PUSH1 0x1 SLOAD AND PUSH1 0x40 MLOAD SWAP1 ISZERO ISZERO DUP2 MSTORE RETURN JUMPDEST CALLVALUE PUSH2 0x1ED JUMPI PUSH1 0x20 CALLDATASIZE PUSH1 0x3 NOT ADD SLT PUSH2 0x1ED JUMPI PUSH2 0x319 PUSH2 0x5C2 PUSH2 0x2C4 JUMP JUMPDEST PUSH2 0x5CA PUSH2 0x9E8 JUMP JUMPDEST PUSH2 0xB97 JUMP JUMPDEST CALLVALUE PUSH2 0x1ED JUMPI PUSH1 0x0 CALLDATASIZE PUSH1 0x3 NOT ADD SLT PUSH2 0x1ED JUMPI PUSH2 0x5E8 PUSH2 0x9E8 JUMP JUMPDEST PUSH2 0x5F0 PUSH2 0xDEA JUMP JUMPDEST PUSH1 0x1 PUSH1 0xFF NOT DUP2 SLOAD AND OR PUSH1 0x1 SSTORE PUSH1 0x20 PUSH1 0x40 MLOAD CALLER DUP2 MSTORE PUSH32 0x62E78CEA01BEE320CD4E420270B5EA74000D11B0C9F74754EBDBFC544B05A258 SWAP2 DUP3 SWAP2 LOG1 PUSH1 0x20 PUSH1 0x40 MLOAD CALLER DUP2 MSTORE LOG1 STOP JUMPDEST SWAP1 PUSH1 0x1 DUP1 PUSH1 0xA0 SHL SUB AND PUSH1 0x0 MSTORE PUSH1 0x20 MSTORE PUSH1 0x40 PUSH1 0x0 KECCAK256 SWAP1 JUMP JUMPDEST CALLVALUE PUSH2 0x1ED JUMPI PUSH1 0x40 CALLDATASIZE PUSH1 0x3 NOT ADD SLT PUSH2 0x1ED JUMPI PUSH1 0x20 PUSH1 0xFF PUSH2 0x67F PUSH2 0x66B PUSH2 0x2AE JUMP JUMPDEST PUSH1 0x4 CALLDATALOAD PUSH1 0x0 MSTORE PUSH1 0x5 DUP5 MSTORE PUSH1 0x40 PUSH1 0x0 KECCAK256 PUSH2 0x634 JUMP JUMPDEST SLOAD AND PUSH1 0x40 MLOAD SWAP1 ISZERO ISZERO DUP2 MSTORE RETURN JUMPDEST CALLVALUE PUSH2 0x1ED JUMPI PUSH1 0x40 CALLDATASIZE PUSH1 0x3 NOT ADD SLT PUSH2 0x1ED JUMPI PUSH1 0x20 PUSH1 0xFF PUSH2 0x67F PUSH2 0x6AB PUSH2 0x2AE JUMP JUMPDEST PUSH1 0x4 CALLDATALOAD PUSH1 0x0 MSTORE PUSH1 0x0 DUP5 MSTORE PUSH1 0x40 PUSH1 0x0 KECCAK256 PUSH2 0x634 JUMP JUMPDEST CALLVALUE PUSH2 0x1ED JUMPI PUSH1 0x40 CALLDATASIZE PUSH1 0x3 NOT ADD SLT PUSH2 0x1ED JUMPI PUSH1 0x20 PUSH2 0x6F1 PUSH2 0x6DD PUSH2 0x2AE JUMP JUMPDEST PUSH1 0x4 CALLDATALOAD PUSH1 0x0 MSTORE PUSH1 0x6 DUP4 MSTORE PUSH1 0x40 PUSH1 0x0 KECCAK256 PUSH2 0x634 JUMP JUMPDEST SLOAD PUSH1 0x40 MLOAD SWAP1 DUP2 MSTORE RETURN JUMPDEST CALLVALUE PUSH2 0x1ED JUMPI PUSH1 0x0 CALLDATASIZE PUSH1 0x3 NOT ADD SLT PUSH2 0x1ED JUMPI PUSH1 0x20 PUSH1 0x40 MLOAD PUSH1 0x0 DUP1 MLOAD PUSH1 0x20 PUSH2 0x1407 DUP4 CODECOPY DUP2 MLOAD SWAP2 MSTORE DUP2 MSTORE RETURN JUMPDEST CALLVALUE PUSH2 0x1ED JUMPI PUSH1 0x0 CALLDATASIZE PUSH1 0x3 NOT ADD SLT PUSH2 0x1ED JUMPI PUSH1 0x20 PUSH1 0x40 MLOAD PUSH1 0x0 DUP2 MSTORE RETURN JUMPDEST CALLVALUE PUSH2 0x1ED JUMPI PUSH1 0x20 CALLDATASIZE PUSH1 0x3 NOT ADD SLT PUSH2 0x1ED JUMPI PUSH2 0x319 PUSH2 0x75B PUSH2 0x2C4 JUMP JUMPDEST PUSH2 0x763 PUSH2 0x9E8 JUMP JUMPDEST PUSH2 0xC23 JUMP JUMPDEST CALLVALUE PUSH2 0x1ED JUMPI PUSH1 0x20 CALLDATASIZE PUSH1 0x3 NOT ADD SLT PUSH2 0x1ED JUMPI PUSH2 0x319 PUSH2 0x784 PUSH2 0x2C4 JUMP JUMPDEST PUSH2 0x78C PUSH2 0x9E8 JUMP JUMPDEST PUSH2 0xAB6 JUMP JUMPDEST CALLVALUE PUSH2 0x1ED JUMPI PUSH1 0x20 CALLDATASIZE PUSH1 0x3 NOT ADD SLT PUSH2 0x1ED JUMPI PUSH1 0x4 CALLDATALOAD PUSH1 0x0 MSTORE PUSH1 0x4 PUSH1 0x20 MSTORE PUSH1 0x20 PUSH1 0x4 PUSH1 0x40 PUSH1 0x0 KECCAK256 PUSH2 0x7CA PUSH1 0x1 DUP1 PUSH1 0xA0 SHL SUB DUP3 SLOAD AND ISZERO ISZERO PUSH2 0x10FD JUMP JUMPDEST ADD SLOAD PUSH1 0x40 MLOAD SWAP1 DUP2 MSTORE RETURN JUMPDEST CALLVALUE PUSH2 0x1ED JUMPI PUSH1 0x20 CALLDATASIZE PUSH1 0x3 NOT ADD SLT PUSH2 0x1ED JUMPI PUSH2 0x319 PUSH2 0x7F0 PUSH2 0x2C4 JUMP JUMPDEST PUSH2 0x7F8 PUSH2 0x9E8 JUMP JUMPDEST PUSH2 0xB4A JUMP JUMPDEST CALLVALUE PUSH2 0x1ED JUMPI PUSH1 0x40 CALLDATASIZE PUSH1 0x3 NOT ADD SLT PUSH2 0x1ED JUMPI PUSH2 0x319 PUSH1 0x4 CALLDATALOAD PUSH2 0x81C PUSH2 0x2AE JUMP JUMPDEST SWAP1 DUP1 PUSH1 0x0 MSTORE PUSH1 0x0 PUSH1 0x20 MSTORE PUSH2 0x837 PUSH1 0x1 PUSH1 0x40 PUSH1 0x0 KECCAK256 ADD SLOAD PUSH2 0xA9D JUMP JUMPDEST PUSH2 0xC57 JUMP JUMPDEST CALLVALUE PUSH2 0x1ED JUMPI PUSH1 0x0 CALLDATASIZE PUSH1 0x3 NOT ADD SLT PUSH2 0x1ED JUMPI PUSH1 0x20 PUSH1 0x40 MLOAD PUSH1 0x0 DUP1 MLOAD PUSH1 0x20 PUSH2 0x13C7 DUP4 CODECOPY DUP2 MLOAD SWAP2 MSTORE DUP2 MSTORE RETURN JUMPDEST CALLVALUE PUSH2 0x1ED JUMPI PUSH1 0x0 CALLDATASIZE PUSH1 0x3 NOT ADD SLT PUSH2 0x1ED JUMPI PUSH1 0x20 PUSH1 0x3 SLOAD PUSH1 0x40 MLOAD SWAP1 DUP2 MSTORE RETURN JUMPDEST CALLVALUE PUSH2 0x1ED JUMPI PUSH1 0x20 CALLDATASIZE PUSH1 0x3 NOT ADD SLT PUSH2 0x1ED JUMPI PUSH1 0x4 CALLDATALOAD PUSH1 0x0 MSTORE PUSH1 0x4 PUSH1 0x20 MSTORE PUSH1 0x40 PUSH1 0x0 KECCAK256 PUSH2 0x8B8 PUSH1 0x1 DUP1 PUSH1 0xA0 SHL SUB DUP3 SLOAD AND ISZERO ISZERO PUSH2 0x10FD JUMP JUMPDEST PUSH1 0x3 PUSH1 0x2 DUP3 ADD SLOAD SWAP2 ADD SLOAD DUP2 SUB SWAP1 DUP2 GT PUSH2 0x8D6 JUMPI PUSH1 0x20 SWAP1 PUSH1 0x40 MLOAD SWAP1 DUP2 MSTORE RETURN JUMPDEST PUSH2 0xCFF JUMP JUMPDEST PUSH4 0x4E487B71 PUSH1 0xE0 SHL PUSH1 0x0 MSTORE PUSH1 0x41 PUSH1 0x4 MSTORE PUSH1 0x24 PUSH1 0x0 REVERT JUMPDEST PUSH1 0x1F SWAP1 SWAP2 ADD PUSH1 0x1F NOT AND DUP2 ADD SWAP1 PUSH1 0x1 PUSH1 0x1 PUSH1 0x40 SHL SUB DUP3 GT SWAP1 DUP3 LT OR PUSH2 0x914 JUMPI PUSH1 0x40 MSTORE JUMP JUMPDEST PUSH2 0x8DB JUMP JUMPDEST PUSH1 0x40 MLOAD SWAP1 PUSH1 0xE0 DUP3 ADD PUSH1 0x1 PUSH1 0x1 PUSH1 0x40 SHL SUB DUP2 GT DUP4 DUP3 LT OR PUSH2 0x914 JUMPI PUSH1 0x40 MSTORE JUMP JUMPDEST CALLVALUE PUSH2 0x1ED JUMPI PUSH1 0x80 CALLDATASIZE PUSH1 0x3 NOT ADD SLT PUSH2 0x1ED JUMPI PUSH1 0x64 CALLDATALOAD PUSH1 0x1 PUSH1 0x1 PUSH1 0x40 SHL SUB DUP1 DUP3 GT PUSH2 0x1ED JUMPI CALLDATASIZE PUSH1 0x23 DUP4 ADD SLT ISZERO PUSH2 0x1ED JUMPI DUP2 PUSH1 0x4 ADD CALLDATALOAD SWAP1 DUP2 GT PUSH2 0x914 JUMPI PUSH1 0x40 MLOAD SWAP1 PUSH2 0x98A PUSH1 0x1F DUP3 ADD PUSH1 0x1F NOT AND PUSH1 0x20 ADD DUP4 PUSH2 0x8F1 JUMP JUMPDEST DUP1 DUP3 MSTORE CALLDATASIZE PUSH1 0x24 DUP3 DUP6 ADD ADD GT PUSH2 0x1ED JUMPI PUSH1 0x20 DUP2 PUSH1 0x0 SWAP3 PUSH1 0x24 PUSH2 0x319 SWAP7 ADD DUP4 DUP7 ADD CALLDATACOPY DUP4 ADD ADD MSTORE PUSH1 0x44 CALLDATALOAD PUSH1 0x24 CALLDATALOAD PUSH1 0x4 CALLDATALOAD PUSH2 0xE29 JUMP JUMPDEST PUSH2 0x9E3 PUSH1 0xFF SWAP2 PUSH1 0x0 DUP1 MLOAD PUSH1 0x20 PUSH2 0x1407 DUP4 CODECOPY DUP2 MLOAD SWAP2 MSTORE PUSH1 0x0 MSTORE PUSH1 0x0 PUSH1 0x20 MSTORE PUSH1 0x40 PUSH1 0x0 KECCAK256 PUSH2 0x634 JUMP JUMPDEST SLOAD AND SWAP1 JUMP JUMPDEST PUSH1 0x0 DUP1 DUP1 MSTORE PUSH1 0x20 MSTORE PUSH1 0xFF PUSH2 0xA1C CALLER PUSH32 0xAD3228B676F7D3CD4284A5443F17F1962B36E491B30A40B2405849E597BA5FB5 PUSH2 0x634 JUMP JUMPDEST SLOAD AND ISZERO PUSH2 0xA25 JUMPI JUMP JUMPDEST PUSH1 0x40 MLOAD PUSH4 0xE2517D3F PUSH1 0xE0 SHL DUP2 MSTORE CALLER PUSH1 0x4 DUP3 ADD MSTORE PUSH1 0x0 PUSH1 0x24 DUP3 ADD MSTORE PUSH1 0x44 SWAP1 REVERT JUMPDEST PUSH1 0x0 DUP1 MLOAD PUSH1 0x20 PUSH2 0x13C7 DUP4 CODECOPY DUP2 MLOAD SWAP2 MSTORE PUSH1 0x0 DUP2 DUP2 MSTORE PUSH1 0x20 MSTORE PUSH1 0xFF PUSH2 0xA75 CALLER PUSH1 0x0 DUP1 MLOAD PUSH1 0x20 PUSH2 0x13E7 DUP4 CODECOPY DUP2 MLOAD SWAP2 MSTORE PUSH2 0x634 JUMP JUMPDEST SLOAD AND ISZERO PUSH2 0xA7F JUMPI POP JUMP JUMPDEST PUSH1 0x44 SWAP1 PUSH1 0x40 MLOAD SWAP1 PUSH4 0xE2517D3F PUSH1 0xE0 SHL DUP3 MSTORE CALLER PUSH1 0x4 DUP4 ADD MSTORE PUSH1 0x24 DUP3 ADD MSTORE REVERT JUMPDEST DUP1 PUSH1 0x0 MSTORE PUSH1 0x0 PUSH1 0x20 MSTORE PUSH1 0xFF PUSH2 0xA75 CALLER PUSH1 0x40 PUSH1 0x0 KECCAK256 PUSH2 0x634 JUMP JUMPDEST PUSH1 0x0 DUP1 MLOAD PUSH1 0x20 PUSH2 0x13C7 DUP4 CODECOPY DUP2 MLOAD SWAP2 MSTORE PUSH1 0x0 DUP2 DUP2 MSTORE PUSH1 0x20 DUP2 SWAP1 MSTORE SWAP1 PUSH1 0xFF PUSH2 0xAEA DUP5 PUSH1 0x0 DUP1 MLOAD PUSH1 0x20 PUSH2 0x13E7 DUP4 CODECOPY DUP2 MLOAD SWAP2 MSTORE PUSH2 0x634 JUMP JUMPDEST SLOAD AND PUSH2 0xB44 JUMPI DUP1 DUP3 MSTORE DUP2 PUSH1 0x20 MSTORE PUSH2 0xB04 DUP4 PUSH1 0x40 DUP5 KECCAK256 PUSH2 0x634 JUMP JUMPDEST DUP1 SLOAD PUSH1 0xFF NOT AND PUSH1 0x1 OR SWAP1 SSTORE CALLER SWAP3 PUSH1 0x1 PUSH1 0x1 PUSH1 0xA0 SHL SUB AND SWAP2 PUSH32 0x2F8788117E7EFF1D82E926EC794901D17C78024A50270940304540A733656F0D SWAP1 DUP1 LOG4 PUSH1 0x1 SWAP1 JUMP JUMPDEST POP SWAP1 POP SWAP1 JUMP JUMPDEST PUSH1 0x0 DUP1 MLOAD PUSH1 0x20 PUSH2 0x1407 DUP4 CODECOPY DUP2 MLOAD SWAP2 MSTORE PUSH1 0x0 DUP2 DUP2 MSTORE PUSH1 0x20 DUP2 SWAP1 MSTORE SWAP1 PUSH1 0xFF PUSH2 0xAEA DUP5 PUSH1 0x0 DUP1 MLOAD PUSH1 0x20 PUSH2 0x1427 DUP4 CODECOPY DUP2 MLOAD SWAP2 MSTORE PUSH2 0x634 JUMP JUMPDEST PUSH1 0x0 SWAP1 DUP1 DUP3 MSTORE DUP2 PUSH1 0x20 MSTORE PUSH1 0xFF PUSH2 0xAEA DUP5 PUSH1 0x40 DUP6 KECCAK256 PUSH2 0x634 JUMP JUMPDEST PUSH1 0x0 DUP1 MLOAD PUSH1 0x20 PUSH2 0x13C7 DUP4 CODECOPY DUP2 MLOAD SWAP2 MSTORE PUSH1 0x0 DUP2 DUP2 MSTORE PUSH1 0x20 DUP2 SWAP1 MSTORE SWAP1 PUSH1 0xFF PUSH2 0xBCB DUP5 PUSH1 0x0 DUP1 MLOAD PUSH1 0x20 PUSH2 0x13E7 DUP4 CODECOPY DUP2 MLOAD SWAP2 MSTORE PUSH2 0x634 JUMP JUMPDEST SLOAD AND ISZERO PUSH2 0xB44 JUMPI DUP1 DUP3 MSTORE DUP2 PUSH1 0x20 MSTORE PUSH2 0xBE6 DUP4 PUSH1 0x40 DUP5 KECCAK256 PUSH2 0x634 JUMP JUMPDEST DUP1 SLOAD PUSH1 0xFF NOT AND SWAP1 SSTORE CALLER SWAP3 PUSH1 0x1 PUSH1 0x1 PUSH1 0xA0 SHL SUB AND SWAP2 PUSH32 0xF6391F5C32D9C69D2A47EA670B442974B53935D1EDC7FD64EB21E047A839171B SWAP1 DUP1 LOG4 PUSH1 0x1 SWAP1 JUMP JUMPDEST PUSH1 0x0 DUP1 MLOAD PUSH1 0x20 PUSH2 0x1407 DUP4 CODECOPY DUP2 MLOAD SWAP2 MSTORE PUSH1 0x0 DUP2 DUP2 MSTORE PUSH1 0x20 DUP2 SWAP1 MSTORE SWAP1 PUSH1 0xFF PUSH2 0xBCB DUP5 PUSH1 0x0 DUP1 MLOAD PUSH1 0x20 PUSH2 0x1427 DUP4 CODECOPY DUP2 MLOAD SWAP2 MSTORE PUSH2 0x634 JUMP JUMPDEST PUSH1 0x0 SWAP1 DUP1 DUP3 MSTORE DUP2 PUSH1 0x20 MSTORE PUSH1 0xFF PUSH2 0xBCB DUP5 PUSH1 0x40 DUP6 KECCAK256 PUSH2 0x634 JUMP JUMPDEST ISZERO PUSH2 0xC77 JUMPI JUMP JUMPDEST PUSH1 0x40 MLOAD PUSH3 0x461BCD PUSH1 0xE5 SHL DUP2 MSTORE PUSH1 0x20 PUSH1 0x4 DUP3 ADD MSTORE PUSH1 0x15 PUSH1 0x24 DUP3 ADD MSTORE PUSH21 0x496E76616C696420746F6B656E2061646472657373 PUSH1 0x58 SHL PUSH1 0x44 DUP3 ADD MSTORE PUSH1 0x64 SWAP1 REVERT JUMPDEST ISZERO PUSH2 0xCBB JUMPI JUMP JUMPDEST PUSH1 0x64 PUSH1 0x40 MLOAD PUSH3 0x461BCD PUSH1 0xE5 SHL DUP2 MSTORE PUSH1 0x20 PUSH1 0x4 DUP3 ADD MSTORE PUSH1 0x20 PUSH1 0x24 DUP3 ADD MSTORE PUSH32 0x416D6F756E74206D7573742062652067726561746572207468616E207A65726F PUSH1 0x44 DUP3 ADD MSTORE REVERT JUMPDEST PUSH4 0x4E487B71 PUSH1 0xE0 SHL PUSH1 0x0 MSTORE PUSH1 0x11 PUSH1 0x4 MSTORE PUSH1 0x24 PUSH1 0x0 REVERT JUMPDEST PUSH1 0x0 NOT DUP2 EQ PUSH2 0x8D6 JUMPI PUSH1 0x1 ADD SWAP1 JUMP JUMPDEST SWAP1 PUSH1 0x1 DUP3 ADD DUP1 SWAP3 GT PUSH2 0x8D6 JUMPI JUMP JUMPDEST SWAP2 SWAP1 DUP3 ADD DUP1 SWAP3 GT PUSH2 0x8D6 JUMPI JUMP JUMPDEST DUP1 SLOAD PUSH1 0x1 PUSH1 0x1 PUSH1 0xA0 SHL SUB NOT AND PUSH1 0x1 PUSH1 0x1 PUSH1 0xA0 SHL SUB SWAP1 SWAP3 AND SWAP2 SWAP1 SWAP2 OR SWAP1 SSTORE JUMP JUMPDEST SWAP1 PUSH1 0xC0 PUSH1 0x6 SWAP2 PUSH2 0xD8A PUSH1 0x1 DUP1 PUSH1 0xA0 SHL SUB PUSH2 0xD7B DUP2 DUP5 MLOAD AND DUP8 PUSH2 0xD3F JUMP JUMPDEST PUSH1 0x20 DUP4 ADD MLOAD AND PUSH1 0x1 DUP7 ADD PUSH2 0xD3F JUMP JUMPDEST PUSH1 0x40 DUP2 ADD MLOAD PUSH1 0x2 DUP6 ADD SSTORE PUSH1 0x60 DUP2 ADD MLOAD PUSH1 0x3 DUP6 ADD SSTORE PUSH1 0x80 DUP2 ADD MLOAD PUSH1 0x4 DUP6 ADD SSTORE PUSH1 0x5 DUP5 ADD PUSH1 0xA0 DUP3 ADD MLOAD ISZERO ISZERO PUSH1 0xFF DUP1 NOT DUP4 SLOAD AND SWAP2 AND OR SWAP1 SSTORE ADD MLOAD SWAP2 ADD SSTORE JUMP JUMPDEST SWAP1 DUP2 PUSH1 0x20 SWAP2 SUB SLT PUSH2 0x1ED JUMPI MLOAD DUP1 ISZERO ISZERO DUP2 SUB PUSH2 0x1ED JUMPI SWAP1 JUMP JUMPDEST PUSH1 0x40 MLOAD RETURNDATASIZE PUSH1 0x0 DUP3 RETURNDATACOPY RETURNDATASIZE SWAP1 REVERT JUMPDEST PUSH1 0xFF PUSH1 0x1 SLOAD AND PUSH2 0xDF6 JUMPI JUMP JUMPDEST PUSH1 0x40 MLOAD PUSH4 0xD93C0665 PUSH1 0xE0 SHL DUP2 MSTORE PUSH1 0x4 SWAP1 REVERT JUMPDEST PUSH1 0x2 DUP1 SLOAD EQ PUSH2 0xE17 JUMPI PUSH1 0x2 DUP1 SSTORE JUMP JUMPDEST PUSH1 0x40 MLOAD PUSH4 0x3EE5AEB5 PUSH1 0xE0 SHL DUP2 MSTORE PUSH1 0x4 SWAP1 REVERT JUMPDEST SWAP2 PUSH2 0xF12 SWAP1 PUSH2 0xEF6 PUSH2 0xFE1 DUP5 DUP7 PUSH2 0xFDC PUSH2 0xFD7 PUSH2 0xFD2 PUSH1 0x1 SWAP10 SWAP12 PUSH2 0xE4B PUSH2 0xE08 JUMP JUMPDEST PUSH2 0xE53 PUSH2 0xDEA JUMP JUMPDEST PUSH2 0xF1E DUP10 PUSH2 0xF18 PUSH2 0xE63 DUP9 PUSH2 0x221 JUMP JUMPDEST SWAP13 DUP14 SWAP9 DUP16 DUP1 PUSH2 0xE88 SWAP2 PUSH1 0xA0 SHL SUB PUSH2 0xE80 DUP13 SLOAD PUSH1 0x1 DUP1 PUSH1 0xA0 SHL SUB AND SWAP1 JUMP JUMPDEST AND ISZERO ISZERO PUSH2 0x10FD JUMP JUMPDEST PUSH2 0xE9E PUSH2 0xE99 PUSH1 0x5 DUP13 ADD SLOAD PUSH1 0xFF AND SWAP1 JUMP JUMPDEST PUSH2 0x1141 JUMP JUMPDEST PUSH2 0xED4 PUSH2 0xECF PUSH2 0xECB PUSH2 0xEC4 CALLER PUSH2 0xEBF DUP7 PUSH1 0x0 MSTORE PUSH1 0x5 PUSH1 0x20 MSTORE PUSH1 0x40 PUSH1 0x0 KECCAK256 SWAP1 JUMP JUMPDEST PUSH2 0x634 JUMP JUMPDEST SLOAD PUSH1 0xFF AND SWAP1 JUMP JUMPDEST ISZERO SWAP1 JUMP JUMPDEST PUSH2 0x1184 JUMP JUMPDEST PUSH2 0xEDF DUP12 ISZERO ISZERO PUSH2 0x11CF JUMP JUMPDEST PUSH2 0xEFD DUP12 PUSH1 0x3 PUSH1 0x2 DUP14 ADD SLOAD SWAP13 ADD SWAP15 DUP16 SLOAD DUP1 SWAP14 PUSH2 0x122D JUMP JUMPDEST LT ISZERO PUSH2 0x123A JUMP JUMPDEST PUSH2 0xEBF CALLER SWAP2 PUSH1 0x0 MSTORE PUSH1 0x6 PUSH1 0x20 MSTORE PUSH1 0x40 PUSH1 0x0 KECCAK256 SWAP1 JUMP JUMPDEST SLOAD PUSH2 0xD24 JUMP JUMPDEST EQ PUSH2 0x1285 JUMP JUMPDEST PUSH1 0x6 DUP11 ADD SLOAD PUSH1 0x40 DUP1 MLOAD PUSH1 0x20 DUP2 ADD DUP16 DUP2 MSTORE PUSH1 0x1 PUSH1 0x1 PUSH1 0x60 SHL SUB NOT CALLER PUSH1 0x60 SWAP1 DUP2 SHL DUP3 AND SWAP5 DUP5 ADD SWAP5 SWAP1 SWAP5 MSTORE PUSH1 0x54 DUP4 ADD DUP12 SWAP1 MSTORE PUSH1 0x74 DUP4 ADD DUP15 SWAP1 MSTORE ADDRESS SWAP1 SWAP4 SHL SWAP1 SWAP3 AND PUSH1 0x94 DUP3 ADD MSTORE PUSH1 0xA8 DUP1 DUP3 ADD SWAP4 SWAP1 SWAP4 MSTORE SWAP2 DUP3 MSTORE PUSH1 0x1F NOT SWAP2 PUSH2 0xF7B PUSH1 0xC8 DUP3 PUSH2 0x8F1 JUMP JUMPDEST MLOAD SWAP1 KECCAK256 SWAP1 PUSH2 0xFCA PUSH1 0x40 MLOAD SWAP2 DUP3 PUSH2 0xFBE PUSH1 0x20 DUP3 ADD SWAP6 DUP7 PUSH1 0x3C SWAP2 PUSH28 0xCA2BA3432B932BAB69029B4B3B732B21026B2B9B9B0B3B29D051999 PUSH1 0x21 SHL DUP3 MSTORE PUSH1 0x1C DUP3 ADD MSTORE ADD SWAP1 JUMP JUMPDEST SUB SWAP1 DUP2 ADD DUP4 MSTORE DUP3 PUSH2 0x8F1 JUMP JUMPDEST MLOAD SWAP1 KECCAK256 PUSH2 0x133B JUMP JUMPDEST PUSH2 0x9BC JUMP JUMPDEST PUSH2 0x12E3 JUMP JUMPDEST PUSH2 0xD32 JUMP JUMPDEST SWAP1 SSTORE PUSH1 0x4 DUP3 ADD PUSH2 0xFF1 DUP2 SLOAD PUSH2 0xD15 JUMP JUMPDEST SWAP1 SSTORE PUSH2 0x101B PUSH2 0x100E CALLER PUSH2 0xEBF DUP8 PUSH1 0x0 MSTORE PUSH1 0x5 PUSH1 0x20 MSTORE PUSH1 0x40 PUSH1 0x0 KECCAK256 SWAP1 JUMP JUMPDEST DUP1 SLOAD PUSH1 0xFF NOT AND PUSH1 0x1 OR SWAP1 SSTORE JUMP JUMPDEST PUSH2 0x1033 CALLER PUSH2 0xEBF DUP7 PUSH1 0x0 MSTORE PUSH1 0x6 PUSH1 0x20 MSTORE PUSH1 0x40 PUSH1 0x0 KECCAK256 SWAP1 JUMP JUMPDEST SSTORE ADD DUP1 SLOAD PUSH2 0x1057 SWAP1 PUSH2 0x104B SWAP1 PUSH1 0x1 PUSH1 0x1 PUSH1 0xA0 SHL SUB AND DUP2 JUMP JUMPDEST PUSH1 0x1 PUSH1 0x1 PUSH1 0xA0 SHL SUB AND SWAP1 JUMP JUMPDEST PUSH1 0x20 PUSH1 0x40 MLOAD DUP1 SWAP3 PUSH4 0xA9059CBB PUSH1 0xE0 SHL DUP3 MSTORE DUP2 PUSH1 0x0 DUP2 PUSH2 0x107A DUP11 CALLER PUSH1 0x4 DUP5 ADD PUSH2 0x1320 JUMP JUMPDEST SUB SWAP3 GAS CALL DUP1 ISZERO PUSH2 0x57E JUMPI PUSH32 0xF9A14D9B61A9505A2368C9180178ADF3CEE68729FEF922C2976D84368CD36E21 SWAP3 PUSH2 0x10D0 SWAP3 PUSH2 0x10C1 SWAP3 PUSH2 0x10DF JUMPI JUMPDEST POP SLOAD PUSH1 0x1 PUSH1 0x1 PUSH1 0xA0 SHL SUB AND SWAP1 JUMP JUMPDEST SWAP4 PUSH1 0x40 MLOAD SWAP2 DUP3 SWAP2 CALLER SWAP7 DUP4 PUSH2 0x1320 JUMP JUMPDEST SUB SWAP1 LOG3 PUSH2 0x10DD PUSH1 0x1 PUSH1 0x2 SSTORE JUMP JUMPDEST JUMP JUMPDEST PUSH2 0x10F6 SWAP1 PUSH1 0x20 RETURNDATASIZE DUP2 GT PUSH2 0x577 JUMPI PUSH2 0x568 DUP2 DUP4 PUSH2 0x8F1 JUMP JUMPDEST POP CODESIZE PUSH2 0x10B3 JUMP JUMPDEST ISZERO PUSH2 0x1104 JUMPI JUMP JUMPDEST PUSH1 0x40 MLOAD PUSH3 0x461BCD PUSH1 0xE5 SHL DUP2 MSTORE PUSH1 0x20 PUSH1 0x4 DUP3 ADD MSTORE PUSH1 0x15 PUSH1 0x24 DUP3 ADD MSTORE PUSH21 0x14185E5BDD5D08191BD95CC81B9BDD08195E1A5CDD PUSH1 0x5A SHL PUSH1 0x44 DUP3 ADD MSTORE PUSH1 0x64 SWAP1 REVERT JUMPDEST ISZERO PUSH2 0x1148 JUMPI JUMP JUMPDEST PUSH1 0x40 MLOAD PUSH3 0x461BCD PUSH1 0xE5 SHL DUP2 MSTORE PUSH1 0x20 PUSH1 0x4 DUP3 ADD MSTORE PUSH1 0x14 PUSH1 0x24 DUP3 ADD MSTORE PUSH20 0x5061796F7574206973206E6F7420616374697665 PUSH1 0x60 SHL PUSH1 0x44 DUP3 ADD MSTORE PUSH1 0x64 SWAP1 REVERT JUMPDEST ISZERO PUSH2 0x118B JUMPI JUMP JUMPDEST PUSH1 0x64 PUSH1 0x40 MLOAD PUSH3 0x461BCD PUSH1 0xE5 SHL DUP2 MSTORE PUSH1 0x20 PUSH1 0x4 DUP3 ADD MSTORE PUSH1 0x20 PUSH1 0x24 DUP3 ADD MSTORE PUSH32 0x416C726561647920636C61696D65642066726F6D2074686973207061796F7574 PUSH1 0x44 DUP3 ADD MSTORE REVERT JUMPDEST ISZERO PUSH2 0x11D6 JUMPI JUMP JUMPDEST PUSH1 0x40 MLOAD PUSH3 0x461BCD PUSH1 0xE5 SHL DUP2 MSTORE PUSH1 0x20 PUSH1 0x4 DUP3 ADD MSTORE PUSH1 0x29 PUSH1 0x24 DUP3 ADD MSTORE PUSH32 0x416D6F756E7420746F20636C61696D206D757374206265206772656174657220 PUSH1 0x44 DUP3 ADD MSTORE PUSH9 0x7468616E207A65726F PUSH1 0xB8 SHL PUSH1 0x64 DUP3 ADD MSTORE PUSH1 0x84 SWAP1 REVERT JUMPDEST SWAP2 SWAP1 DUP3 SUB SWAP2 DUP3 GT PUSH2 0x8D6 JUMPI JUMP JUMPDEST ISZERO PUSH2 0x1241 JUMPI JUMP JUMPDEST PUSH1 0x40 MLOAD PUSH3 0x461BCD PUSH1 0xE5 SHL DUP2 MSTORE PUSH1 0x20 PUSH1 0x4 DUP3 ADD MSTORE PUSH1 0x1C PUSH1 0x24 DUP3 ADD MSTORE PUSH28 0x496E73756666696369656E742066756E64732072656D61696E696E67 PUSH1 0x20 SHL PUSH1 0x44 DUP3 ADD MSTORE PUSH1 0x64 SWAP1 REVERT JUMPDEST ISZERO PUSH2 0x128C JUMPI JUMP JUMPDEST PUSH1 0x40 MLOAD PUSH3 0x461BCD PUSH1 0xE5 SHL DUP2 MSTORE PUSH1 0x20 PUSH1 0x4 DUP3 ADD MSTORE PUSH1 0x29 PUSH1 0x24 DUP3 ADD MSTORE PUSH32 0x496E636F727265637420636C61696D616E74206E6F6E6365206F72207265706C PUSH1 0x44 DUP3 ADD MSTORE PUSH9 0x61792061747461636B PUSH1 0xB8 SHL PUSH1 0x64 DUP3 ADD MSTORE PUSH1 0x84 SWAP1 REVERT JUMPDEST ISZERO PUSH2 0x12EA JUMPI JUMP JUMPDEST PUSH1 0x40 MLOAD PUSH3 0x461BCD PUSH1 0xE5 SHL DUP2 MSTORE PUSH1 0x20 PUSH1 0x4 DUP3 ADD MSTORE PUSH1 0xE PUSH1 0x24 DUP3 ADD MSTORE PUSH14 0x24B73B30B634B21039B4B3B732B9 PUSH1 0x91 SHL PUSH1 0x44 DUP3 ADD MSTORE PUSH1 0x64 SWAP1 REVERT JUMPDEST PUSH1 0x1 PUSH1 0x1 PUSH1 0xA0 SHL SUB SWAP1 SWAP2 AND DUP2 MSTORE PUSH1 0x20 DUP2 ADD SWAP2 SWAP1 SWAP2 MSTORE PUSH1 0x40 ADD SWAP1 JUMP JUMPDEST SWAP1 PUSH1 0x41 DUP2 MLOAD SUB PUSH2 0x1386 JUMPI PUSH1 0x20 DUP2 DUP2 ADD MLOAD PUSH1 0x40 DUP1 DUP5 ADD MLOAD PUSH1 0x60 SWAP5 DUP6 ADD MLOAD DUP3 MLOAD SWAP7 DUP8 MSTORE PUSH1 0x0 SWAP1 DUP2 BYTE DUP8 DUP7 ADD MSTORE SWAP2 DUP7 ADD SWAP3 SWAP1 SWAP3 MSTORE SWAP3 DUP5 ADD MSTORE DUP2 DUP1 MSTORE SWAP2 PUSH1 0x80 SWAP1 PUSH1 0x1 GAS STATICCALL ISZERO PUSH2 0x57E JUMPI PUSH1 0x0 MLOAD SWAP1 JUMP JUMPDEST PUSH1 0x40 MLOAD PUSH3 0x461BCD PUSH1 0xE5 SHL DUP2 MSTORE PUSH1 0x20 PUSH1 0x4 DUP3 ADD MSTORE PUSH1 0x18 PUSH1 0x24 DUP3 ADD MSTORE PUSH24 0x92DCECC2D8D2C840E6D2CEDCC2E8EAE4CA40D8CADCCEE8D PUSH1 0x43 SHL PUSH1 0x44 DUP3 ADD MSTORE PUSH1 0x64 SWAP1 REVERT INVALID 0xDD ADD 0xAB SWAP1 0xB7 0xE DUP13 PUSH6 0xD33958BAF3F2 SWAP1 CODESIZE 0x25 0xE5 PUSH8 0xEDA9345348566DB0 SWAP8 PUSH4 0x35C63B2F 0x24 DUP13 ADDMOD CHAINID MSTORE8 0xD1 0x21 PUSH10 0x5721F7E91D2FD5FBBE3F 0xBF 0xD2 BYTE PUSH12 0x49A0DEEEA66F402953E2F4EA 0xAE 0x4A SWAP8 MLOAD 0xE8 GAS RETURNDATACOPY 0x4A PUSH28 0x9587827A877F29914755229B07A7B2DA98285F70059F08E7D7BA1C82 0xED 0xDC JUMPI 0xAF 0xAE PUSH8 0xF80DF851BAF38A09 SWAP7 SMOD 0xA7 PUSH26 0x825038C3CE5BA2646970667358221220AE7BA530F3CB076E7590 0xB9 LOG1 MLOAD EXP LOG2 CODECOPY 0xCF STOP DUP4 COINBASE 0xC3 CALLDATACOPY PUSH31 0x2FF61E3C2757AC99C464736F6C634300081400332F8788117E7EFF1D82E926 0xEC PUSH26 0x4901D17C78024A50270940304540A733656F0D00000000000000 "},"methodIdentifiers":{"DEFAULT_ADMIN_ROLE()":"a217fddf","PAYOUT_FUNDER_ROLE()":"d5c94bbd","SIGNER_ROLE()":"a1ebf35d","allotPayout(address,uint256)":"493ddb3c","claimPayout(uint256,uint256,uint256,bytes)":"ff9a30d6","claimantNonces(uint256,address)":"923af4eb","getNumClaimants(uint256)":"cb894e7c","getRemainingAmount(uint256)":"f6252ff2","getRoleAdmin(bytes32)":"248a9ca3","grantPayoutFunderRole(address)":"b7e2c37c","grantRole(bytes32,address)":"2f2ff15d","grantSignerRole(address)":"cffa8187","hasClaimed(uint256,address)":"873f6f9e","hasRole(bytes32,address)":"91d14854","nextPayoutId()":"f3f9d848","pause()":"8456cb59","paused()":"5c975abb","payouts(uint256)":"29652e86","renounceRole(bytes32,address)":"36568abe","revokePayoutFunderRole(address)":"72091b39","revokeRole(bytes32,address)":"d547741f","revokeSignerRole(address)":"a8b1a7d1","supportsInterface(bytes4)":"01ffc9a7","unpause()":"3f4ba83a"}}}}}