{"contracts/Offering.sol":{"Offering":{"abi":[{"inputs":[],"name":"AccessControlBadConfirmation","type":"error"},{"inputs":[{"internalType":"address","name":"account","type":"address"},{"internalType":"bytes32","name":"neededRole","type":"bytes32"}],"name":"AccessControlUnauthorizedAccount","type":"error"},{"inputs":[],"name":"EnforcedPause","type":"error"},{"inputs":[],"name":"ExpectedPause","type":"error"},{"inputs":[],"name":"ReentrancyGuardReentrantCall","type":"error"},{"anonymous":false,"inputs":[{"indexed":true,"internalType":"address","name":"investor","type":"address"},{"indexed":false,"internalType":"uint256","name":"amount","type":"uint256"}],"name":"Claimed","type":"event"},{"anonymous":false,"inputs":[{"indexed":true,"internalType":"address","name":"investor","type":"address"},{"indexed":false,"internalType":"address","name":"paymentToken","type":"address"},{"indexed":false,"internalType":"uint256","name":"paidAmount","type":"uint256"},{"indexed":false,"internalType":"uint256","name":"tokensReceived","type":"uint256"}],"name":"Invested","type":"event"},{"anonymous":false,"inputs":[{"indexed":false,"internalType":"uint256","name":"timestamp","type":"uint256"}],"name":"OfferingCancelled","type":"event"},{"anonymous":false,"inputs":[{"indexed":false,"internalType":"uint256","name":"timestamp","type":"uint256"}],"name":"OfferingFinalized","type":"event"},{"anonymous":false,"inputs":[{"indexed":true,"internalType":"address","name":"token","type":"address"},{"indexed":false,"internalType":"address","name":"oracle","type":"address"}],"name":"OracleSet","type":"event"},{"anonymous":false,"inputs":[{"indexed":false,"internalType":"address","name":"account","type":"address"}],"name":"Paused","type":"event"},{"anonymous":false,"inputs":[{"indexed":true,"internalType":"address","name":"token","type":"address"},{"indexed":false,"internalType":"bool","name":"status","type":"bool"}],"name":"PaymentTokenWhitelisted","type":"event"},{"anonymous":false,"inputs":[{"indexed":true,"internalType":"address","name":"token","type":"address"},{"indexed":false,"internalType":"uint256","name":"amount","type":"uint256"},{"indexed":true,"internalType":"address","name":"to","type":"address"}],"name":"Rescue","type":"event"},{"anonymous":false,"inputs":[{"indexed":true,"internalType":"bytes32","name":"role","type":"bytes32"},{"indexed":true,"internalType":"bytes32","name":"previousAdminRole","type":"bytes32"},{"indexed":true,"internalType":"bytes32","name":"newAdminRole","type":"bytes32"}],"name":"RoleAdminChanged","type":"event"},{"anonymous":false,"inputs":[{"indexed":true,"internalType":"bytes32","name":"role","type":"bytes32"},{"indexed":true,"internalType":"address","name":"account","type":"address"},{"indexed":true,"internalType":"address","name":"sender","type":"address"}],"name":"RoleGranted","type":"event"},{"anonymous":false,"inputs":[{"indexed":true,"internalType":"bytes32","name":"role","type":"bytes32"},{"indexed":true,"internalType":"address","name":"account","type":"address"},{"indexed":true,"internalType":"address","name":"sender","type":"address"}],"name":"RoleRevoked","type":"event"},{"anonymous":false,"inputs":[{"indexed":false,"internalType":"uint256","name":"totalRaised","type":"uint256"}],"name":"SaleClosed","type":"event"},{"anonymous":false,"inputs":[{"indexed":false,"internalType":"uint256","name":"totalRaised","type":"uint256"},{"indexed":false,"internalType":"uint256","name":"softCap","type":"uint256"}],"name":"SoftCapReached","type":"event"},{"anonymous":false,"inputs":[{"indexed":false,"internalType":"uint256","name":"newPrice","type":"uint256"}],"name":"TokenPriceUpdated","type":"event"},{"anonymous":false,"inputs":[{"indexed":true,"internalType":"address","name":"to","type":"address"},{"indexed":false,"internalType":"uint256","name":"amount","type":"uint256"}],"name":"UnclaimedTokensReclaimed","type":"event"},{"anonymous":false,"inputs":[{"indexed":false,"internalType":"address","name":"account","type":"address"}],"name":"Unpaused","type":"event"},{"stateMutability":"payable","type":"fallback"},{"inputs":[],"name":"DEFAULT_ADMIN_ROLE","outputs":[{"internalType":"bytes32","name":"","type":"bytes32"}],"stateMutability":"view","type":"function"},{"inputs":[],"name":"TOKEN_OWNER_ROLE","outputs":[{"internalType":"bytes32","name":"","type":"bytes32"}],"stateMutability":"view","type":"function"},{"inputs":[],"name":"apyEnabled","outputs":[{"internalType":"bool","name":"","type":"bool"}],"stateMutability":"view","type":"function"},{"inputs":[],"name":"canCancel","outputs":[{"internalType":"bool","name":"","type":"bool"}],"stateMutability":"view","type":"function"},{"inputs":[],"name":"canFinalize","outputs":[{"internalType":"bool","name":"","type":"bool"}],"stateMutability":"view","type":"function"},{"inputs":[],"name":"cancelOffering","outputs":[],"stateMutability":"nonpayable","type":"function"},{"inputs":[{"internalType":"address","name":"_investor","type":"address"}],"name":"claimTokens","outputs":[{"internalType":"uint256","name":"","type":"uint256"}],"stateMutability":"nonpayable","type":"function"},{"inputs":[],"name":"defaultPayoutFrequency","outputs":[{"internalType":"enum IWRAPEDTOKEN.PayoutFrequency","name":"","type":"uint8"}],"stateMutability":"view","type":"function"},{"inputs":[],"name":"endDate","outputs":[{"internalType":"uint256","name":"","type":"uint256"}],"stateMutability":"view","type":"function"},{"inputs":[],"name":"escrowAddress","outputs":[{"internalType":"address","name":"","type":"address"}],"stateMutability":"view","type":"function"},{"inputs":[],"name":"finalizeOffering","outputs":[],"stateMutability":"nonpayable","type":"function"},{"inputs":[],"name":"finalizeOfferingSoftCap","outputs":[],"stateMutability":"nonpayable","type":"function"},{"inputs":[],"name":"fundraisingCap","outputs":[{"internalType":"uint256","name":"","type":"uint256"}],"stateMutability":"view","type":"function"},{"inputs":[],"name":"getOfferingStatus","outputs":[{"internalType":"bool","name":"saleActive","type":"bool"},{"internalType":"bool","name":"saleClosed","type":"bool"},{"internalType":"bool","name":"finalized","type":"bool"},{"internalType":"bool","name":"cancelled","type":"bool"},{"internalType":"bool","name":"softCapReached","type":"bool"},{"internalType":"uint256","name":"raised","type":"uint256"},{"internalType":"uint256","name":"softCapAmount","type":"uint256"},{"internalType":"uint256","name":"cap","type":"uint256"},{"internalType":"uint256","name":"endTime","type":"uint256"}],"stateMutability":"view","type":"function"},{"inputs":[{"internalType":"bytes32","name":"role","type":"bytes32"}],"name":"getRoleAdmin","outputs":[{"internalType":"bytes32","name":"","type":"bytes32"}],"stateMutability":"view","type":"function"},{"inputs":[{"internalType":"bytes32","name":"role","type":"bytes32"},{"internalType":"address","name":"account","type":"address"}],"name":"grantRole","outputs":[],"stateMutability":"nonpayable","type":"function"},{"inputs":[{"internalType":"bytes32","name":"role","type":"bytes32"},{"internalType":"address","name":"account","type":"address"}],"name":"hasRole","outputs":[{"internalType":"bool","name":"","type":"bool"}],"stateMutability":"view","type":"function"},{"inputs":[{"components":[{"internalType":"address","name":"saleToken","type":"address"},{"internalType":"uint256","name":"minInvestment","type":"uint256"},{"internalType":"uint256","name":"maxInvestment","type":"uint256"},{"internalType":"uint256","name":"startDate","type":"uint256"},{"internalType":"uint256","name":"endDate","type":"uint256"},{"internalType":"uint256","name":"softCap","type":"uint256"},{"internalType":"uint256","name":"fundraisingCap","type":"uint256"},{"internalType":"uint256","name":"tokenPrice","type":"uint256"},{"internalType":"address","name":"tokenOwner","type":"address"},{"internalType":"address","name":"escrowAddress","type":"address"},{"internalType":"bool","name":"apyEnabled","type":"bool"},{"internalType":"address","name":"wrappedTokenAddress","type":"address"},{"internalType":"address","name":"investmentManager","type":"address"},{"internalType":"address","name":"payoutTokenAddress","type":"address"},{"internalType":"uint256","name":"payoutRate","type":"uint256"}],"internalType":"struct InitConfig","name":"config","type":"tuple"}],"name":"initialize","outputs":[],"stateMutability":"nonpayable","type":"function"},{"inputs":[{"internalType":"address","name":"paymentToken","type":"address"},{"internalType":"address","name":"investor","type":"address"},{"internalType":"uint256","name":"paymentAmount","type":"uint256"}],"name":"invest","outputs":[{"internalType":"uint256","name":"","type":"uint256"}],"stateMutability":"payable","type":"function"},{"inputs":[],"name":"investmentManager","outputs":[{"internalType":"address","name":"","type":"address"}],"stateMutability":"view","type":"function"},{"inputs":[],"name":"isOfferingCancelled","outputs":[{"internalType":"bool","name":"","type":"bool"}],"stateMutability":"view","type":"function"},{"inputs":[],"name":"isOfferingFinalized","outputs":[{"internalType":"bool","name":"","type":"bool"}],"stateMutability":"view","type":"function"},{"inputs":[],"name":"isSaleClosed","outputs":[{"internalType":"bool","name":"","type":"bool"}],"stateMutability":"view","type":"function"},{"inputs":[],"name":"isSoftCapReached","outputs":[{"internalType":"bool","name":"","type":"bool"}],"stateMutability":"view","type":"function"},{"inputs":[],"name":"maxInvestment","outputs":[{"internalType":"uint256","name":"","type":"uint256"}],"stateMutability":"view","type":"function"},{"inputs":[],"name":"minInvestment","outputs":[{"internalType":"uint256","name":"","type":"uint256"}],"stateMutability":"view","type":"function"},{"inputs":[],"name":"pause","outputs":[],"stateMutability":"nonpayable","type":"function"},{"inputs":[],"name":"paused","outputs":[{"internalType":"bool","name":"","type":"bool"}],"stateMutability":"view","type":"function"},{"inputs":[],"name":"payoutRate","outputs":[{"internalType":"uint256","name":"","type":"uint256"}],"stateMutability":"view","type":"function"},{"inputs":[],"name":"payoutTokenAddress","outputs":[{"internalType":"address","name":"","type":"address"}],"stateMutability":"view","type":"function"},{"inputs":[{"internalType":"address","name":"","type":"address"}],"name":"pendingTokens","outputs":[{"internalType":"uint256","name":"","type":"uint256"}],"stateMutability":"view","type":"function"},{"inputs":[{"internalType":"address","name":"to","type":"address"}],"name":"reclaimUnclaimedTokens","outputs":[],"stateMutability":"nonpayable","type":"function"},{"inputs":[{"internalType":"address","name":"token","type":"address"}],"name":"removeTokenOracle","outputs":[],"stateMutability":"nonpayable","type":"function"},{"inputs":[{"internalType":"bytes32","name":"role","type":"bytes32"},{"internalType":"address","name":"callerConfirmation","type":"address"}],"name":"renounceRole","outputs":[],"stateMutability":"nonpayable","type":"function"},{"inputs":[{"internalType":"address","name":"token","type":"address"},{"internalType":"uint256","name":"amount","type":"uint256"},{"internalType":"address","name":"to","type":"address"}],"name":"rescueTokens","outputs":[],"stateMutability":"nonpayable","type":"function"},{"inputs":[{"internalType":"bytes32","name":"role","type":"bytes32"},{"internalType":"address","name":"account","type":"address"}],"name":"revokeRole","outputs":[],"stateMutability":"nonpayable","type":"function"},{"inputs":[],"name":"saleToken","outputs":[{"internalType":"contract IERC20","name":"","type":"address"}],"stateMutability":"view","type":"function"},{"inputs":[{"internalType":"address","name":"token","type":"address"},{"internalType":"address","name":"oracle","type":"address"}],"name":"setTokenOracle","outputs":[],"stateMutability":"nonpayable","type":"function"},{"inputs":[{"internalType":"address","name":"token","type":"address"},{"internalType":"bool","name":"status","type":"bool"}],"name":"setWhitelistedPaymentToken","outputs":[],"stateMutability":"nonpayable","type":"function"},{"inputs":[],"name":"softCap","outputs":[{"internalType":"uint256","name":"","type":"uint256"}],"stateMutability":"view","type":"function"},{"inputs":[],"name":"startDate","outputs":[{"internalType":"uint256","name":"","type":"uint256"}],"stateMutability":"view","type":"function"},{"inputs":[{"internalType":"bytes4","name":"interfaceId","type":"bytes4"}],"name":"supportsInterface","outputs":[{"internalType":"bool","name":"","type":"bool"}],"stateMutability":"view","type":"function"},{"inputs":[{"internalType":"address","name":"","type":"address"}],"name":"tokenOracles","outputs":[{"internalType":"address","name":"","type":"address"}],"stateMutability":"view","type":"function"},{"inputs":[],"name":"tokenPrice","outputs":[{"internalType":"uint256","name":"","type":"uint256"}],"stateMutability":"view","type":"function"},{"inputs":[{"internalType":"address","name":"","type":"address"}],"name":"totalInvested","outputs":[{"internalType":"uint256","name":"","type":"uint256"}],"stateMutability":"view","type":"function"},{"inputs":[],"name":"totalPendingTokens","outputs":[{"internalType":"uint256","name":"","type":"uint256"}],"stateMutability":"view","type":"function"},{"inputs":[],"name":"totalRaised","outputs":[{"internalType":"uint256","name":"","type":"uint256"}],"stateMutability":"view","type":"function"},{"inputs":[],"name":"treasury","outputs":[{"internalType":"address","name":"","type":"address"}],"stateMutability":"view","type":"function"},{"inputs":[],"name":"unpause","outputs":[],"stateMutability":"nonpayable","type":"function"},{"inputs":[{"internalType":"address","name":"","type":"address"}],"name":"whitelistedPaymentTokens","outputs":[{"internalType":"bool","name":"","type":"bool"}],"stateMutability":"view","type":"function"},{"inputs":[],"name":"wrappedTokenAddress","outputs":[{"internalType":"address","name":"","type":"address"}],"stateMutability":"view","type":"function"},{"stateMutability":"payable","type":"receive"}],"evm":{"bytecode":{"linkReferences":{},"object":"6080806040523461001b5760016002556135e190816100218239f35b600080fdfe608080604052600436101561009e575b50361561005a57606460405162461bcd60e51b815260206004820152601560248201527f46616c6c6261636b206e6f7420616363657074656400000000000000000000006044820152fd5b606460405162461bcd60e51b815260206004820152601960248201527f446972656374204c554d4941206e6f74206163636570746564000000000000006044820152fd5b600090813560e01c9081622e131614612ff15750806301ffc9a714612f505780630b97bc8614612f325780630d5defa414612f0b5780631309b32414612e8b5780631e1a268b14612e68578063248a9ca314612e3c5780632b4353f214612e1e5780632f2ff15d14612de157806335a41aaf14612c3b57806336568abe14612bdb5780633d70a11d14612b295780633e64620814612b005780633f4ba83a14612a715780634b31bb1014612a4a5780634c6c8a3114612a245780634cf08fbb1461231c5780634f4f7c24146122005780634fff5402146121da5780635c975abb146121b75780635cc048381461219057806361d027b314612166578063653ac4221461144c57806371e28126146113e7578063764467cc1461131b57806377d392f0146110d65780637ff9b596146110b857806380d32f85146110955780638456cb591461102f57806386dea3ec14610e7a57806388e32fc214610dae5780638a18511314610d735780638ac2c68014610d555780638cd0593314610d15578063906a26e014610cf757806390838e0914610cbf57806391d1485414610c73578063a217fddf14610c57578063b37fd1901461090c578063b473acf3146108e6578063b9662797146108c8578063bbcc0a06146108aa578063bd4924321461086f578063c031a66f14610837578063c24a0f8b14610819578063c5c4744c146107fb578063d0f3725f146107bc578063d547741f1461077b578063df695abb1461073e578063df8de3e7146103005763e985e3670361000f57346102fd57806003193601126102fd5760206001600160a01b0360035416604051908152f35b80fd5b50346102fd57602090816003193601126102fd5761031c61300d565b90610325613505565b61032d613394565b6001600160a01b039081600d541633036106d357610375600c5461037060ff808360081c169261035c8461353e565b60101c16159161036b83613415565b61353e565b613415565b8183169182825260148552604082205493841561068f576024868360035416604051928380926370a0823160e01b82523060048301525afa908115610552579086918591610659575b501061061557838352601486528260408120556103dd85600b5461346d565b600b55858560ff600c5460181c1660001461055d579061043691846003541685600c54841c168760405180968195829463095ea7b360e01b845260048401602090939291936001600160a01b0360408201951681520152565b03925af1801561055257610525575b50670de0b6b3a764000061045b6012548761347a565b0491600c54871c1690813b15610521576040517ff8abbb410000000000000000000000000000000000000000000000000000000081526001600160a01b0391909116600482015260248101869052604481019290925282908290606490829084905af1801561051657610502575b50505b7fd8138f8a3f377c5259ca548e70e4c2de94f129f5a11036a15b69513cba2b426a83604051848152a26001600255604051908152f35b61050c8291613039565b6102fd57806104c9565b6040513d84823e3d90fd5b8380fd5b61054490873d891161054b575b61053c818361304d565b8101906134ad565b5038610445565b503d610532565b6040513d86823e3d90fd5b60035460405163a9059cbb60e01b81526001600160a01b03949094166004850152602484019190915291929091839160449183918791165af191821561060957916105ec575b506104cc576064836040519062461bcd60e51b82526004820152601560248201527f546f6b656e207472616e73666572206661696c656400000000000000000000006044820152fd5b6106039150843d861161054b5761053c818361304d565b386105a3565b604051903d90823e3d90fd5b6064866040519062461bcd60e51b82526004820152601860248201527f496e73756666696369656e742073616c6520746f6b656e7300000000000000006044820152fd5b809250888092503d8311610688575b610672818361304d565b8101031261068357859051386103be565b600080fd5b503d610668565b6064866040519062461bcd60e51b82526004820152601260248201527f4e6f20746f6b656e7320746f20636c61696d00000000000000000000000000006044820152fd5b60405162461bcd60e51b815260206004820152602c60248201527f43616c6c6572206973206e6f742074686520696e766573746d656e744d616e6160448201527f67657220636f6e747261637400000000000000000000000000000000000000006064820152608490fd5b50346102fd5760203660031901126102fd5760ff60406020926001600160a01b0361076761300d565b168152601384522054166040519015158152f35b50346102fd5760403660031901126102fd576107b860043561079b613023565b90808452836020526107b3600160408620015461313c565b61331e565b5080f35b50346102fd57806003193601126102fd576020600c5460ff8160081c161590816107ec575b506040519015158152f35b60ff915060101c1615826107e1565b50346102fd57806003193601126102fd576020600a54604051908152f35b50346102fd57806003193601126102fd576020600754604051908152f35b50346102fd5760203660031901126102fd5760406020916001600160a01b0361085e61300d565b168152601483522054604051908152f35b50346102fd5760203660031901126102fd5760209060406001600160a01b03918261089861300d565b16815260168452205416604051908152f35b50346102fd57806003193601126102fd576020600b54604051908152f35b50346102fd57806003193601126102fd576020600954604051908152f35b50346102fd57806003193601126102fd57602060ff600c5460101c166040519015158152f35b50346102fd5760603660031901126102fd5761092661300d565b602480356044918235926001600160a01b0393848116958682036106835761094c61306f565b610954613505565b8615610c145785169485610a3c57508347106109f9578680808681945af161097a6134c5565b50156109b657505060207fd27dd37d941f5a1b76926e48140fdbf50a0c59defb5431a391a1260279eb1c4c915b604051908152a3600160025580f35b907f4c554d494120726573637565206661696c65640000000000000000000000000060649260136040519362461bcd60e51b855260206004860152840152820152fd5b6064837f4e6f7420656e6f756768204c554d4941000000000000000000000000000000008460106040519362461bcd60e51b855260206004860152840152820152fd5b600393919354168514610bd257604051926370a0823160e01b8452306004850152602093848184818a5afa8015610bc75786918a91610b96575b5010610b545760405163a9059cbb60e01b81526001600160a01b039190911660048201526024810185905283816044818b8a5af1908115610b49578891610b2c575b5015610aea5750505060207fd27dd37d941f5a1b76926e48140fdbf50a0c59defb5431a391a1260279eb1c4c916109a7565b60649291601c7f455243323020726573637565207472616e73666572206661696c656400000000926040519462461bcd60e51b86526004860152840152820152fd5b610b439150843d861161054b5761053c818361304d565b38610ab8565b6040513d8a823e3d90fd5b6064847f4e6f7420656e6f75676820746f6b656e73000000000000000000000000000000856011866040519462461bcd60e51b86526004860152840152820152fd5b809250868092503d8311610bc0575b610baf818361304d565b810103126106835785905138610a76565b503d610ba5565b6040513d8b823e3d90fd5b7f43616e6e6f74207265736375652073616c65546f6b656e00000000000000000060649260176040519362461bcd60e51b855260206004860152840152820152fd5b6064847f496e76616c696420726563697069656e740000000000000000000000000000008560116040519362461bcd60e51b855260206004860152840152820152fd5b50346102fd57806003193601126102fd57602090604051908152f35b50346102fd5760403660031901126102fd576001600160a01b036040610c97613023565b92600435815280602052209116600052602052602060ff604060002054166040519015158152f35b50346102fd5760203660031901126102fd5760406020916001600160a01b03610ce661300d565b168152601583522054604051908152f35b50346102fd57806003193601126102fd576020600854604051908152f35b50346102fd57806003193601126102fd5760ff60105416604051906003811015610d4157602092508152f35b602483634e487b7160e01b81526021600452fd5b50346102fd57806003193601126102fd576020600454604051908152f35b50346102fd57806003193601126102fd5760206040517f35369b3a7bb98c90641a907c2fd643ea781341eba72ccffd47cb018c128c48c38152f35b50346102fd5760203660031901126102fd57610dc861300d565b610dd061306f565b6001600160a01b0380911690818352601660205260408320541615610e36578082526016602052604082206001600160a01b031981541690557fc1d3048301c0d23629a2532c8defa6d68f8e1a0e4157918769e9fb1b2eeb888e6020604051848152a280f35b606460405162461bcd60e51b815260206004820152601360248201527f4e6f206f7261636c6520746f2072656d6f7665000000000000000000000000006044820152fd5b50346102fd57806003193601126102fd57610e936130e0565b600a5460085411610feb57600c54610eb160ff8260081c16156133ca565b610ec160ff8260101c1615613415565b60ff8116610fa757610101829161ffff19161780600c5560ff8160181c1680610f92575b610f45575b507f88a7d28eab96d3365f5163f9ec845ac889ace5a29ae33059254ee6493dee4a616020604051428152a17fcb67f20f64495b30f15524c55f90201dd6571d6b5c19dac183d2aeb25315b2dc6020600a54604051908152a180f35b60201c6001600160a01b0316803b15610f8f578180916004604051809481936378bd678b60e11b83525af180156105165715610eea57610f8490613039565b6102fd578038610eea565b50fd5b506001600160a01b038160201c161515610ee5565b606460405162461bcd60e51b815260206004820152601360248201527f53616c6520616c726561647920636c6f736564000000000000000000000000006044820152fd5b606460405162461bcd60e51b815260206004820152601460248201527f536f667420636170206e6f7420726561636865640000000000000000000000006044820152fd5b50346102fd57806003193601126102fd5761104861306f565b611050613394565b600160ff198154161760015560206040513381527f62e78cea01bee320cd4e420270b5ea74000d11b0c9f74754ebdbfc544b05a258918291a16020604051338152a180f35b50346102fd57806003193601126102fd576020600a546008541115604051908152f35b50346102fd57806003193601126102fd576020601254604051908152f35b50346102fd57602080600319360112611317576110f161300d565b906110fa6130e0565b611102613505565b61111c60ff600c5460081c1661111781613589565b613589565b6001600160a01b03918281169283156112d357600354166040516370a0823160e01b81523060048201528381602481855afa80156112c8578690611299575b6111699150600b549061346d565b9182156112555760405163a9059cbb60e01b81526001600160a01b03919091166004820152602481018390529083908290604490829089905af190811561124a57859161122d575b50156111e957907ffcbf6553b2cfc097c2301f1c071469a8839b462e7287e3692f238ccfc6b9208f91604051908152a2600160025580f35b6064826040519062461bcd60e51b82526004820152601760248201527f5265636c61696d207472616e73666572206661696c65640000000000000000006044820152fd5b6112449150833d851161054b5761053c818361304d565b386111b1565b6040513d87823e3d90fd5b6064846040519062461bcd60e51b82526004820152601360248201527f4e6f20756e636c61696d656420746f6b656e73000000000000000000000000006044820152fd5b508381813d83116112c1575b6112af818361304d565b8101031261068357611169905161115b565b503d6112a5565b6040513d88823e3d90fd5b6064836040519062461bcd60e51b82526004820152600f60248201527f496e76616c6964206164647265737300000000000000000000000000000000006044820152fd5b5080fd5b50346102fd5760403660031901126102fd5761133561300d565b61133d613023565b61134561306f565b6001600160a01b038091169182156113a3577fc1d3048301c0d23629a2532c8defa6d68f8e1a0e4157918769e9fb1b2eeb888e9160209116928385526016825260408520816001600160a01b0319825416179055604051908152a280f35b606460405162461bcd60e51b815260206004820152601660248201527f496e76616c6964206f7261636c652061646472657373000000000000000000006044820152fd5b50346102fd57806003193601126102fd57600754421080159061143e575b8061142e575b8061141e575b6020906040519015158152f35b50600c5460101c60ff1615611411565b5060ff600c5460081c161561140b565b50600a546008541115611405565b5060603660031901126102fd5761146161300d565b9061146a613023565b906044928335611478613505565b611480613394565b6001600160a01b039384600d541633036106d357841691821561212257600c5460ff81166120de5760ff6114bc9160101c161561037081613415565b600654421061209a5760075442101561205657848116938481526020956013875260ff60408320541615612013578315611fd05785825260168752806040832054168015611f8d5790604060049899928151998a80927f57de26a40000000000000000000000000000000000000000000000000000000082525afa978815611f825783908499611f2e575b50601b0b9783891315611eeb5761156863ffffffff6201518092164261346d565b11611ea8578615968715611e25576115836012995b8761347a565b670de0b6b3a7640000998a8202918083048c1490151715611e115760ff16604d8111611e11578a916115b891600a0a9061348d565b04978815611dce576004548910611d8b5787855260158b526115de896040872054613460565b60055410611d4857600a546115f38a82613460565b60095410611d05576fffffffffffffffffffffffffffffffff9a8b8b11611cc2578a8c038c8111611cac578211611c6957808b02908b820403611c555760125461163c9161348d565b9a8b15611c12578b11611bcf578961165391613460565b600a5587855260158b526040852061166c8a8254613460565b90551561190957508434036118c6576011541660405190898201907f701bb8910000000000000000000000000000000000000000000000000000000082523060248401528784840152838352608083019183831067ffffffffffffffff8411176118b05785938493604052519134905af16116e56134c5565b501561186d57509060407f93638e6cf18b4f6a839de65df95898221f5d9f7dc54b87d4b31d40297643266e93925b8581526014895220611726878254613460565b905561173486600b54613460565b600b5561176186604051938493846040919493926001600160a01b03606083019616825260208201520152565b0390a2600a5460085490918183101590818061185b575b611828575b81611815575b506117e0575b50826009548210156117a3575b6001600255604051838152f35b7fcb67f20f64495b30f15524c55f90201dd6571d6b5c19dac183d2aeb25315b2dc91600160ff19600c541617600c55604051908152a13882611796565b60407fb43ca1b105f16771375b5b40a413666f837e4732dc6dd193f408c02736edac859181519084825286820152a138611789565b611820915082613460565b821038611783565b7fb43ca1b105f16771375b5b40a413666f837e4732dc6dd193f408c02736edac85604080518681528589820152a161177d565b506118668184613460565b8410611778565b877f457363726f77206465706f736974206661696c656400000000000000000000006064926040519262461bcd60e51b8452600484015260156024840152820152fd5b634e487b7160e01b600052604160045260246000fd5b6064897f496e636f7272656374206e617469766520616d6f756e74000000000000000000846040519262461bcd60e51b8452600484015260176024840152820152fd5b34611b6657604051917f23b872dd000000000000000000000000000000000000000000000000000000008352876004840152602492308482015287858201528b8160648189875af19081156112c8578691611b49575b5015611b075760115460405163095ea7b360e01b81529082166001600160a01b03166004820152602481018890528b8160448189875af19081156112c8578691611aea575b5015611aa85760115416906040518b8101917f0ef7c5a70000000000000000000000000000000000000000000000000000000083523085830152898683015260648201528760848201526084815260c0810181811067ffffffffffffffff821117611a935760405251859283929083905af1611a1e6134c5565b5015611a515750509060407f93638e6cf18b4f6a839de65df95898221f5d9f7dc54b87d4b31d40297643266e9392611713565b7f457363726f7720746f6b656e206465706f736974206661696c65640000000000606492601b8b936040519462461bcd60e51b86526004860152840152820152fd5b84634e487b7160e01b60005260416004526000fd5b60648b7f5061796d656e7420746f6b656e20617070726f76616c206661696c656400000086601d876040519462461bcd60e51b86526004860152840152820152fd5b611b0191508c8d3d1061054b5761053c818361304d565b386119a4565b60648b7f5061796d656e7420746f6b656e207472616e73666572206661696c656400000086601d876040519462461bcd60e51b86526004860152840152820152fd5b611b6091508c8d3d1061054b5761053c818361304d565b3861195f565b60848a7f446f206e6f742073656e642045544820666f7220746f6b656e207061796d656e856040519262461bcd60e51b84526004840152602160248401528201527f74000000000000000000000000000000000000000000000000000000000000006064820152fd5b60648c7f546f6b656e20616d6f756e7420746f6f206c6172676500000000000000000000876040519262461bcd60e51b8452600484015260166024840152820152fd5b60648d7f546f6b656e20616d6f756e7420746f6f206c6f77000000000000000000000000886040519262461bcd60e51b8452600484015260146024840152820152fd5b602487634e487b7160e01b81526011600452fd5b60648d7f546f74616c2072616973656420776f756c64206f766572666c6f770000000000886040519262461bcd60e51b84526004840152601b6024840152820152fd5b634e487b7160e01b600052601160045260246000fd5b60648d7f496e766573746d656e7420616d6f756e7420746f6f206c617267650000000000886040519262461bcd60e51b84526004840152601b6024840152820152fd5b60648c7f4578636565647320636170000000000000000000000000000000000000000000876040519262461bcd60e51b84526004840152600b6024840152820152fd5b60648b7f45786365656473206d617820696e766573746d656e7400000000000000000000866040519262461bcd60e51b8452600484015260166024840152820152fd5b60648b7f42656c6f77206d696e20696e766573746d656e74000000000000000000000000866040519262461bcd60e51b8452600484015260146024840152820152fd5b60648b7f5553442076616c75652063616c63756c6174696f6e206f766572666c6f770000866040519262461bcd60e51b84526004840152601e6024840152820152fd5b602486634e487b7160e01b81526011600452fd5b6040517f313ce5670000000000000000000000000000000000000000000000000000000081528a81600481855afa801561124a578590611e6b575b61158391509961157d565b508a81813d8311611ea1575b611e81818361304d565b81010312611e9d575160ff81168103611e9d5761158390611e60565b8480fd5b503d611e77565b6064897f5072696365206461746120746f6f207374616c65000000000000000000000000846040519262461bcd60e51b8452600484015260146024840152820152fd5b60648a7f496e76616c696420707269636500000000000000000000000000000000000000856040519262461bcd60e51b84526004840152600d6024840152820152fd5b9850506040883d604011611f7a575b81611f4a6040938361304d565b81010312611f765787519788601b0b8903610521578901519763ffffffff891689036105215738611547565b8280fd5b3d9150611f3d565b6040513d85823e3d90fd5b6064887f4f7261636c65206e6f74207365740000000000000000000000000000000000008b6040519262461bcd60e51b84526004840152600e6024840152820152fd5b6064877f5a65726f20616d6f756e740000000000000000000000000000000000000000008a6040519262461bcd60e51b84526004840152600b6024840152820152fd5b6064877f546f6b656e206e6f742077686974656c697374656400000000000000000000008a6040519262461bcd60e51b8452600484015260156024840152820152fd5b6064867f53616c6520656e646564000000000000000000000000000000000000000000006040519162461bcd60e51b835260206004840152600a6024840152820152fd5b6064867f53616c65206e6f742073746172746564000000000000000000000000000000006040519162461bcd60e51b83526020600484015260106024840152820152fd5b6064877f53616c6520697320636c6f7365640000000000000000000000000000000000006040519162461bcd60e51b835260206004840152600e6024840152820152fd5b6064867f496e76616c696420696e766573746f72206164647265737300000000000000006040519162461bcd60e51b83526020600484015260186024840152820152fd5b50346102fd57806003193601126102fd5760206001600160a01b0360105460101c16604051908152f35b50346102fd57806003193601126102fd5760206001600160a01b03600e5416604051908152f35b50346102fd57806003193601126102fd57602060ff600154166040519015158152f35b50346102fd57806003193601126102fd57602060ff600c5460181c166040519015158152f35b50346102fd57806003193601126102fd576122196130e0565b600c5461222c60ff8260081c16156133ca565b60ff8160101c166122d85762ff00ff19166201000117600c5560115481906001600160a01b0316803b15610f8f578180916004604051809481937fdcdcafaa0000000000000000000000000000000000000000000000000000000083525af18015610516576122c4575b507f0a94fbe15a0ddbadfc15077a69292dd28a535c34f78b22a3fcac5463a9e1256d6020604051428152a180f35b6122cd90613039565b6102fd578038612296565b606460405162461bcd60e51b815260206004820152601160248201527f416c72656164792063616e63656c6c65640000000000000000000000000000006044820152fd5b50346102fd576101e0806003193601126113175760405190810181811067ffffffffffffffff8211176118b05760405261235461300d565b8152602435602082015260443560408201526064356060820152608435608082015260a43560a082015260c43560c082015260e43560e08201526001600160a01b036101043516610104350361068357610104356101008201526001600160a01b0361012435166101243503610683576101243561012082015261014435801515810361068357610140820152610164356001600160a01b0381168103610683576101608201526001600160a01b036101843516610184350361068357610184356101808201526001600160a01b036101a435166101a43503610683576101a4356101a08201526101c4356101c082015260ff60105460081c166129e0576001600160a01b038151161561299c576001600160a01b036101008201511615612958576001600160a01b036101208201511615612914576001600160a01b0361018082015116156128aa5760a0810151156128665760c0810151156128225760a081015160c0820151106127b85760e08101511561277457602081015160408201511061273057606081015142116126ec57606081015160808201511115612682576001600160a01b036101a0820151161561263e576001600160a01b03610100828261262b9451166001600160a01b03196003541617600355602081015160045560408101516005556060810151600655608081015160075560a081015160085560c081015160095560e081015160125582610120820151166001600160a01b031960115416176011556101408101511515600c547fffffffffffffffff000000000000000000000000000000000000000000ffffff63ff00000077ffffffffffffffffffffffffffffffffffffffff0000000061016086015160201b169360181b1691161717600c5582610180820151166001600160a01b0319600d541617600d55826101a0820151166001600160a01b0319600e541617600e556101c0810151600f5561262233613162565b500151166131f2565b5061010061ff0019601054161760105580f35b606460405162461bcd60e51b815260206004820152601c60248201527f496e76616c6964207061796f757420746f6b656e2061646472657373000000006044820152fd5b608460405162461bcd60e51b815260206004820152602260248201527f53746172742064617465206d757374206265206265666f726520656e6420646160448201527f74650000000000000000000000000000000000000000000000000000000000006064820152fd5b606460405162461bcd60e51b815260206004820152602060248201527f53746172742064617465206d75737420626520696e20746865206675747572656044820152fd5b606460405162461bcd60e51b815260206004820152601460248201527f4d696e203e206d617820696e766573746d656e740000000000000000000000006044820152fd5b606460405162461bcd60e51b815260206004820152601c60248201527f546f6b656e207072696365206d75737420626520706f736974697665000000006044820152fd5b608460405162461bcd60e51b815260206004820152602660248201527f536f6674206361702063616e6e6f74206578636565642066756e64726169736960448201527f6e672063617000000000000000000000000000000000000000000000000000006064820152fd5b606460405162461bcd60e51b815260206004820152602060248201527f46756e6472616973696e6720636170206d75737420626520706f7369746976656044820152fd5b606460405162461bcd60e51b815260206004820152601960248201527f536f667420636170206d75737420626520706f736974697665000000000000006044820152fd5b608460405162461bcd60e51b815260206004820152602260248201527f496e76616c696420696e766573746d656e74206d616e6167657220616464726560448201527f73730000000000000000000000000000000000000000000000000000000000006064820152fd5b606460405162461bcd60e51b815260206004820152601660248201527f496e76616c696420657363726f772061646472657373000000000000000000006044820152fd5b606460405162461bcd60e51b815260206004820152601360248201527f496e76616c696420746f6b656e206f776e6572000000000000000000000000006044820152fd5b606460405162461bcd60e51b815260206004820152601260248201527f496e76616c69642073616c6520746f6b656e00000000000000000000000000006044820152fd5b606460405162461bcd60e51b815260206004820152601360248201527f416c726561647920696e697469616c697a6564000000000000000000000000006044820152fd5b50346102fd57806003193601126102fd57602060ff600c5460081c166040519015158152f35b50346102fd57806003193601126102fd5760206001600160a01b03600d5416604051908152f35b50346102fd57806003193601126102fd57612a8a61306f565b60015460ff811615612ad65760ff191660015560206040513381527f5db9ee0a495bf2e6ff9c91a7834c1ba4fdd244a5e8aa4e537bd38aeae4b073aa918291a16020604051338152a180f35b60046040517f8dfc202b000000000000000000000000000000000000000000000000000000008152fd5b50346102fd57806003193601126102fd576020600c546001600160a01b0360405191831c168152f35b50346102fd57806003193601126102fd5760065442101580612bd0575b80612bc3575b80612bb3575b61012090600c54600a546008546009549160ff60075494604051961515875281811615156020880152818160081c161515604088015260101c161515606086015281811015608086015260a085015260c084015260e0830152610100820152f35b50600c5460101c60ff1615612b52565b5060ff600c541615612b4c565b506007544210612b46565b50346102fd5760403660031901126102fd57612bf5613023565b336001600160a01b03821603612c11576107b89060043561331e565b60046040517f6697b232000000000000000000000000000000000000000000000000000000008152fd5b50346102fd57806003193601126102fd576001600160a01b0380601154163303612d9d576007544210612d59578190610101600c54612c8060ff8260081c16156133ca565b612c9060ff8260101c1615613415565b61ffff19161780600c5560ff8160181c1680612d4b575b612d07575b827f88a7d28eab96d3365f5163f9ec845ac889ace5a29ae33059254ee6493dee4a616020604051428152a17fcb67f20f64495b30f15524c55f90201dd6571d6b5c19dac183d2aeb25315b2dc6020600a54604051908152a180f35b60201c16803b15610f8f5781906004604051809481936378bd678b60e11b83525af1801561051657612d3c575b808291612cac565b612d4590613039565b38612d34565b50818160201c161515612ca7565b606460405162461bcd60e51b815260206004820152601260248201527f53616c65206e6f7420656e6465642079657400000000000000000000000000006044820152fd5b606460405162461bcd60e51b815260206004820152601a60248201527f4e6f7420617574686f72697a656420746f2066696e616c697a650000000000006044820152fd5b50346102fd5760403660031901126102fd576107b8600435612e01613023565b9080845283602052612e19600160408620015461313c565b6132a4565b50346102fd57806003193601126102fd576020600f54604051908152f35b50346102fd5760203660031901126102fd57600160406020926004358152808452200154604051908152f35b50346102fd57806003193601126102fd57602060ff600c54166040519015158152f35b50346102fd5760403660031901126102fd57612ea561300d565b60243590811515809203611f765760206001600160a01b037f91ad45a5ce97c5eee55fa01496772afefc7f0757ed9eac59064e642690509dfb92612ee761306f565b1692838552601382526040852060ff1981541660ff8316179055604051908152a280f35b50346102fd57806003193601126102fd5760206001600160a01b0360115416604051908152f35b50346102fd57806003193601126102fd576020600654604051908152f35b50346102fd5760203660031901126102fd576004357fffffffff00000000000000000000000000000000000000000000000000000000811680910361131757807f7965db0b0000000000000000000000000000000000000000000000000000000060209214908115612fc757506040519015158152f35b7f01ffc9a700000000000000000000000000000000000000000000000000000000915014826107e1565b9050346113175781600319360112611317576020906005548152f35b600435906001600160a01b038216820361068357565b602435906001600160a01b038216820361068357565b67ffffffffffffffff81116118b057604052565b90601f8019910116810190811067ffffffffffffffff8211176118b057604052565b3360009081527fad3228b676f7d3cd4284a5443f17f1962b36e491b30a40b2405849e597ba5fb5602052604081205460ff16156130a95750565b604490604051907fe2517d3f0000000000000000000000000000000000000000000000000000000082523360048301526024820152fd5b3360009081527f7dfc0114fc2b0320947240cbd60a9ffc193468a941c37441e641a928a8c116d560205260409020547f35369b3a7bb98c90641a907c2fd643ea781341eba72ccffd47cb018c128c48c39060ff16156130a95750565b80600052600060205260406000203360005260205260ff60406000205416156130a95750565b6001600160a01b031660008181527fad3228b676f7d3cd4284a5443f17f1962b36e491b30a40b2405849e597ba5fb5602052604081205490919060ff166131ee57818052816020526040822081835260205260408220600160ff1982541617905533917f2f8788117e7eff1d82e926ec794901d17c78024a50270940304540a733656f0d8180a4600190565b5090565b6001600160a01b031660008181527f7dfc0114fc2b0320947240cbd60a9ffc193468a941c37441e641a928a8c116d560205260408120549091907f35369b3a7bb98c90641a907c2fd643ea781341eba72ccffd47cb018c128c48c39060ff1661329f57808352826020526040832082845260205260408320600160ff198254161790557f2f8788117e7eff1d82e926ec794901d17c78024a50270940304540a733656f0d339380a4600190565b505090565b90600091808352826020526001600160a01b036040842092169182845260205260ff6040842054161560001461329f57808352826020526040832082845260205260408320600160ff198254161790557f2f8788117e7eff1d82e926ec794901d17c78024a50270940304540a733656f0d339380a4600190565b90600091808352826020526001600160a01b036040842092169182845260205260ff60408420541660001461329f5780835282602052604083208284526020526040832060ff1981541690557ff6391f5c32d9c69d2a47ea670b442974b53935d1edc7fd64eb21e047a839171b339380a4600190565b60ff600154166133a057565b60046040517fd93c0665000000000000000000000000000000000000000000000000000000008152fd5b156133d157565b606460405162461bcd60e51b815260206004820152601160248201527f416c72656164792066696e616c697a65640000000000000000000000000000006044820152fd5b1561341c57565b606460405162461bcd60e51b815260206004820152601560248201527f4f66666572696e672069732063616e63656c6c656400000000000000000000006044820152fd5b91908201809211611cac57565b91908203918211611cac57565b81810292918115918404141715611cac57565b8115613497570490565b634e487b7160e01b600052601260045260246000fd5b90816020910312610683575180151581036106835790565b3d15613500573d9067ffffffffffffffff82116118b057604051916134f4601f8201601f19166020018461304d565b82523d6000602084013e565b606090565b60028054146135145760028055565b60046040517f3ee5aeb5000000000000000000000000000000000000000000000000000000008152fd5b1561354557565b606460405162461bcd60e51b815260206004820152601a60248201527f4f66666572696e67206e6f742066696e616c697a6564207965740000000000006044820152fd5b1561359057565b606460405162461bcd60e51b815260206004820152601660248201527f4f66666572696e67206e6f742066696e616c697a6564000000000000000000006044820152fdfea164736f6c6343000814000a","opcodes":"PUSH1 0x80 DUP1 PUSH1 0x40 MSTORE CALLVALUE PUSH2 0x1B JUMPI PUSH1 0x1 PUSH1 0x2 SSTORE PUSH2 0x35E1 SWAP1 DUP2 PUSH2 0x21 DUP3 CODECOPY RETURN JUMPDEST PUSH1 0x0 DUP1 REVERT INVALID PUSH1 0x80 DUP1 PUSH1 0x40 MSTORE PUSH1 0x4 CALLDATASIZE LT ISZERO PUSH2 0x9E JUMPI JUMPDEST POP CALLDATASIZE ISZERO PUSH2 0x5A JUMPI PUSH1 0x64 PUSH1 0x40 MLOAD PUSH3 0x461BCD PUSH1 0xE5 SHL DUP2 MSTORE PUSH1 0x20 PUSH1 0x4 DUP3 ADD MSTORE PUSH1 0x15 PUSH1 0x24 DUP3 ADD MSTORE PUSH32 0x46616C6C6261636B206E6F742061636365707465640000000000000000000000 PUSH1 0x44 DUP3 ADD MSTORE REVERT JUMPDEST PUSH1 0x64 PUSH1 0x40 MLOAD PUSH3 0x461BCD PUSH1 0xE5 SHL DUP2 MSTORE PUSH1 0x20 PUSH1 0x4 DUP3 ADD MSTORE PUSH1 0x19 PUSH1 0x24 DUP3 ADD MSTORE PUSH32 0x446972656374204C554D4941206E6F7420616363657074656400000000000000 PUSH1 0x44 DUP3 ADD MSTORE REVERT JUMPDEST PUSH1 0x0 SWAP1 DUP2 CALLDATALOAD PUSH1 0xE0 SHR SWAP1 DUP2 PUSH3 0x2E1316 EQ PUSH2 0x2FF1 JUMPI POP DUP1 PUSH4 0x1FFC9A7 EQ PUSH2 0x2F50 JUMPI DUP1 PUSH4 0xB97BC86 EQ PUSH2 0x2F32 JUMPI DUP1 PUSH4 0xD5DEFA4 EQ PUSH2 0x2F0B JUMPI DUP1 PUSH4 0x1309B324 EQ PUSH2 0x2E8B JUMPI DUP1 PUSH4 0x1E1A268B EQ PUSH2 0x2E68 JUMPI DUP1 PUSH4 0x248A9CA3 EQ PUSH2 0x2E3C JUMPI DUP1 PUSH4 0x2B4353F2 EQ PUSH2 0x2E1E JUMPI DUP1 PUSH4 0x2F2FF15D EQ PUSH2 0x2DE1 JUMPI DUP1 PUSH4 0x35A41AAF EQ PUSH2 0x2C3B JUMPI DUP1 PUSH4 0x36568ABE EQ PUSH2 0x2BDB JUMPI DUP1 PUSH4 0x3D70A11D EQ PUSH2 0x2B29 JUMPI DUP1 PUSH4 0x3E646208 EQ PUSH2 0x2B00 JUMPI DUP1 PUSH4 0x3F4BA83A EQ PUSH2 0x2A71 JUMPI DUP1 PUSH4 0x4B31BB10 EQ PUSH2 0x2A4A JUMPI DUP1 PUSH4 0x4C6C8A31 EQ PUSH2 0x2A24 JUMPI DUP1 PUSH4 0x4CF08FBB EQ PUSH2 0x231C JUMPI DUP1 PUSH4 0x4F4F7C24 EQ PUSH2 0x2200 JUMPI DUP1 PUSH4 0x4FFF5402 EQ PUSH2 0x21DA JUMPI DUP1 PUSH4 0x5C975ABB EQ PUSH2 0x21B7 JUMPI DUP1 PUSH4 0x5CC04838 EQ PUSH2 0x2190 JUMPI DUP1 PUSH4 0x61D027B3 EQ PUSH2 0x2166 JUMPI DUP1 PUSH4 0x653AC422 EQ PUSH2 0x144C JUMPI DUP1 PUSH4 0x71E28126 EQ PUSH2 0x13E7 JUMPI DUP1 PUSH4 0x764467CC EQ PUSH2 0x131B JUMPI DUP1 PUSH4 0x77D392F0 EQ PUSH2 0x10D6 JUMPI DUP1 PUSH4 0x7FF9B596 EQ PUSH2 0x10B8 JUMPI DUP1 PUSH4 0x80D32F85 EQ PUSH2 0x1095 JUMPI DUP1 PUSH4 0x8456CB59 EQ PUSH2 0x102F JUMPI DUP1 PUSH4 0x86DEA3EC EQ PUSH2 0xE7A JUMPI DUP1 PUSH4 0x88E32FC2 EQ PUSH2 0xDAE JUMPI DUP1 PUSH4 0x8A185113 EQ PUSH2 0xD73 JUMPI DUP1 PUSH4 0x8AC2C680 EQ PUSH2 0xD55 JUMPI DUP1 PUSH4 0x8CD05933 EQ PUSH2 0xD15 JUMPI DUP1 PUSH4 0x906A26E0 EQ PUSH2 0xCF7 JUMPI DUP1 PUSH4 0x90838E09 EQ PUSH2 0xCBF JUMPI DUP1 PUSH4 0x91D14854 EQ PUSH2 0xC73 JUMPI DUP1 PUSH4 0xA217FDDF EQ PUSH2 0xC57 JUMPI DUP1 PUSH4 0xB37FD190 EQ PUSH2 0x90C JUMPI DUP1 PUSH4 0xB473ACF3 EQ PUSH2 0x8E6 JUMPI DUP1 PUSH4 0xB9662797 EQ PUSH2 0x8C8 JUMPI DUP1 PUSH4 0xBBCC0A06 EQ PUSH2 0x8AA JUMPI DUP1 PUSH4 0xBD492432 EQ PUSH2 0x86F JUMPI DUP1 PUSH4 0xC031A66F EQ PUSH2 0x837 JUMPI DUP1 PUSH4 0xC24A0F8B EQ PUSH2 0x819 JUMPI DUP1 PUSH4 0xC5C4744C EQ PUSH2 0x7FB JUMPI DUP1 PUSH4 0xD0F3725F EQ PUSH2 0x7BC JUMPI DUP1 PUSH4 0xD547741F EQ PUSH2 0x77B JUMPI DUP1 PUSH4 0xDF695ABB EQ PUSH2 0x73E JUMPI DUP1 PUSH4 0xDF8DE3E7 EQ PUSH2 0x300 JUMPI PUSH4 0xE985E367 SUB PUSH2 0xF JUMPI CALLVALUE PUSH2 0x2FD JUMPI DUP1 PUSH1 0x3 NOT CALLDATASIZE ADD SLT PUSH2 0x2FD JUMPI PUSH1 0x20 PUSH1 0x1 PUSH1 0x1 PUSH1 0xA0 SHL SUB PUSH1 0x3 SLOAD AND PUSH1 0x40 MLOAD SWAP1 DUP2 MSTORE RETURN JUMPDEST DUP1 REVERT JUMPDEST POP CALLVALUE PUSH2 0x2FD JUMPI PUSH1 0x20 SWAP1 DUP2 PUSH1 0x3 NOT CALLDATASIZE ADD SLT PUSH2 0x2FD JUMPI PUSH2 0x31C PUSH2 0x300D JUMP JUMPDEST SWAP1 PUSH2 0x325 PUSH2 0x3505 JUMP JUMPDEST PUSH2 0x32D PUSH2 0x3394 JUMP JUMPDEST PUSH1 0x1 PUSH1 0x1 PUSH1 0xA0 SHL SUB SWAP1 DUP2 PUSH1 0xD SLOAD AND CALLER SUB PUSH2 0x6D3 JUMPI PUSH2 0x375 PUSH1 0xC SLOAD PUSH2 0x370 PUSH1 0xFF DUP1 DUP4 PUSH1 0x8 SHR AND SWAP3 PUSH2 0x35C DUP5 PUSH2 0x353E JUMP JUMPDEST PUSH1 0x10 SHR AND ISZERO SWAP2 PUSH2 0x36B DUP4 PUSH2 0x3415 JUMP JUMPDEST PUSH2 0x353E JUMP JUMPDEST PUSH2 0x3415 JUMP JUMPDEST DUP2 DUP4 AND SWAP2 DUP3 DUP3 MSTORE PUSH1 0x14 DUP6 MSTORE PUSH1 0x40 DUP3 KECCAK256 SLOAD SWAP4 DUP5 ISZERO PUSH2 0x68F JUMPI PUSH1 0x24 DUP7 DUP4 PUSH1 0x3 SLOAD AND PUSH1 0x40 MLOAD SWAP3 DUP4 DUP1 SWAP3 PUSH4 0x70A08231 PUSH1 0xE0 SHL DUP3 MSTORE ADDRESS PUSH1 0x4 DUP4 ADD MSTORE GAS STATICCALL SWAP1 DUP2 ISZERO PUSH2 0x552 JUMPI SWAP1 DUP7 SWAP2 DUP6 SWAP2 PUSH2 0x659 JUMPI JUMPDEST POP LT PUSH2 0x615 JUMPI DUP4 DUP4 MSTORE PUSH1 0x14 DUP7 MSTORE DUP3 PUSH1 0x40 DUP2 KECCAK256 SSTORE PUSH2 0x3DD DUP6 PUSH1 0xB SLOAD PUSH2 0x346D JUMP JUMPDEST PUSH1 0xB SSTORE DUP6 DUP6 PUSH1 0xFF PUSH1 0xC SLOAD PUSH1 0x18 SHR AND PUSH1 0x0 EQ PUSH2 0x55D JUMPI SWAP1 PUSH2 0x436 SWAP2 DUP5 PUSH1 0x3 SLOAD AND DUP6 PUSH1 0xC SLOAD DUP5 SHR AND DUP8 PUSH1 0x40 MLOAD DUP1 SWAP7 DUP2 SWAP6 DUP3 SWAP5 PUSH4 0x95EA7B3 PUSH1 0xE0 SHL DUP5 MSTORE PUSH1 0x4 DUP5 ADD PUSH1 0x20 SWAP1 SWAP4 SWAP3 SWAP2 SWAP4 PUSH1 0x1 PUSH1 0x1 PUSH1 0xA0 SHL SUB PUSH1 0x40 DUP3 ADD SWAP6 AND DUP2 MSTORE ADD MSTORE JUMP JUMPDEST SUB SWAP3 GAS CALL DUP1 ISZERO PUSH2 0x552 JUMPI PUSH2 0x525 JUMPI JUMPDEST POP PUSH8 0xDE0B6B3A7640000 PUSH2 0x45B PUSH1 0x12 SLOAD DUP8 PUSH2 0x347A JUMP JUMPDEST DIV SWAP2 PUSH1 0xC SLOAD DUP8 SHR AND SWAP1 DUP2 EXTCODESIZE ISZERO PUSH2 0x521 JUMPI PUSH1 0x40 MLOAD PUSH32 0xF8ABBB4100000000000000000000000000000000000000000000000000000000 DUP2 MSTORE PUSH1 0x1 PUSH1 0x1 PUSH1 0xA0 SHL SUB SWAP2 SWAP1 SWAP2 AND PUSH1 0x4 DUP3 ADD MSTORE PUSH1 0x24 DUP2 ADD DUP7 SWAP1 MSTORE PUSH1 0x44 DUP2 ADD SWAP3 SWAP1 SWAP3 MSTORE DUP3 SWAP1 DUP3 SWAP1 PUSH1 0x64 SWAP1 DUP3 SWAP1 DUP5 SWAP1 GAS CALL DUP1 ISZERO PUSH2 0x516 JUMPI PUSH2 0x502 JUMPI JUMPDEST POP POP JUMPDEST PUSH32 0xD8138F8A3F377C5259CA548E70E4C2DE94F129F5A11036A15B69513CBA2B426A DUP4 PUSH1 0x40 MLOAD DUP5 DUP2 MSTORE LOG2 PUSH1 0x1 PUSH1 0x2 SSTORE PUSH1 0x40 MLOAD SWAP1 DUP2 MSTORE RETURN JUMPDEST PUSH2 0x50C DUP3 SWAP2 PUSH2 0x3039 JUMP JUMPDEST PUSH2 0x2FD JUMPI DUP1 PUSH2 0x4C9 JUMP JUMPDEST PUSH1 0x40 MLOAD RETURNDATASIZE DUP5 DUP3 RETURNDATACOPY RETURNDATASIZE SWAP1 REVERT JUMPDEST DUP4 DUP1 REVERT JUMPDEST PUSH2 0x544 SWAP1 DUP8 RETURNDATASIZE DUP10 GT PUSH2 0x54B JUMPI JUMPDEST PUSH2 0x53C DUP2 DUP4 PUSH2 0x304D JUMP JUMPDEST DUP2 ADD SWAP1 PUSH2 0x34AD JUMP JUMPDEST POP CODESIZE PUSH2 0x445 JUMP JUMPDEST POP RETURNDATASIZE PUSH2 0x532 JUMP JUMPDEST PUSH1 0x40 MLOAD RETURNDATASIZE DUP7 DUP3 RETURNDATACOPY RETURNDATASIZE SWAP1 REVERT JUMPDEST PUSH1 0x3 SLOAD PUSH1 0x40 MLOAD PUSH4 0xA9059CBB PUSH1 0xE0 SHL DUP2 MSTORE PUSH1 0x1 PUSH1 0x1 PUSH1 0xA0 SHL SUB SWAP5 SWAP1 SWAP5 AND PUSH1 0x4 DUP6 ADD MSTORE PUSH1 0x24 DUP5 ADD SWAP2 SWAP1 SWAP2 MSTORE SWAP2 SWAP3 SWAP1 SWAP2 DUP4 SWAP2 PUSH1 0x44 SWAP2 DUP4 SWAP2 DUP8 SWAP2 AND GAS CALL SWAP2 DUP3 ISZERO PUSH2 0x609 JUMPI SWAP2 PUSH2 0x5EC JUMPI JUMPDEST POP PUSH2 0x4CC JUMPI PUSH1 0x64 DUP4 PUSH1 0x40 MLOAD SWAP1 PUSH3 0x461BCD PUSH1 0xE5 SHL DUP3 MSTORE PUSH1 0x4 DUP3 ADD MSTORE PUSH1 0x15 PUSH1 0x24 DUP3 ADD MSTORE PUSH32 0x546F6B656E207472616E73666572206661696C65640000000000000000000000 PUSH1 0x44 DUP3 ADD MSTORE REVERT JUMPDEST PUSH2 0x603 SWAP2 POP DUP5 RETURNDATASIZE DUP7 GT PUSH2 0x54B JUMPI PUSH2 0x53C DUP2 DUP4 PUSH2 0x304D JUMP JUMPDEST CODESIZE PUSH2 0x5A3 JUMP JUMPDEST PUSH1 0x40 MLOAD SWAP1 RETURNDATASIZE SWAP1 DUP3 RETURNDATACOPY RETURNDATASIZE SWAP1 REVERT JUMPDEST PUSH1 0x64 DUP7 PUSH1 0x40 MLOAD SWAP1 PUSH3 0x461BCD PUSH1 0xE5 SHL DUP3 MSTORE PUSH1 0x4 DUP3 ADD MSTORE PUSH1 0x18 PUSH1 0x24 DUP3 ADD MSTORE PUSH32 0x496E73756666696369656E742073616C6520746F6B656E730000000000000000 PUSH1 0x44 DUP3 ADD MSTORE REVERT JUMPDEST DUP1 SWAP3 POP DUP9 DUP1 SWAP3 POP RETURNDATASIZE DUP4 GT PUSH2 0x688 JUMPI JUMPDEST PUSH2 0x672 DUP2 DUP4 PUSH2 0x304D JUMP JUMPDEST DUP2 ADD SUB SLT PUSH2 0x683 JUMPI DUP6 SWAP1 MLOAD CODESIZE PUSH2 0x3BE JUMP JUMPDEST PUSH1 0x0 DUP1 REVERT JUMPDEST POP RETURNDATASIZE PUSH2 0x668 JUMP JUMPDEST PUSH1 0x64 DUP7 PUSH1 0x40 MLOAD SWAP1 PUSH3 0x461BCD PUSH1 0xE5 SHL DUP3 MSTORE PUSH1 0x4 DUP3 ADD MSTORE PUSH1 0x12 PUSH1 0x24 DUP3 ADD MSTORE PUSH32 0x4E6F20746F6B656E7320746F20636C61696D0000000000000000000000000000 PUSH1 0x44 DUP3 ADD MSTORE REVERT JUMPDEST PUSH1 0x40 MLOAD PUSH3 0x461BCD PUSH1 0xE5 SHL DUP2 MSTORE PUSH1 0x20 PUSH1 0x4 DUP3 ADD MSTORE PUSH1 0x2C PUSH1 0x24 DUP3 ADD MSTORE PUSH32 0x43616C6C6572206973206E6F742074686520696E766573746D656E744D616E61 PUSH1 0x44 DUP3 ADD MSTORE PUSH32 0x67657220636F6E74726163740000000000000000000000000000000000000000 PUSH1 0x64 DUP3 ADD MSTORE PUSH1 0x84 SWAP1 REVERT JUMPDEST POP CALLVALUE PUSH2 0x2FD JUMPI PUSH1 0x20 CALLDATASIZE PUSH1 0x3 NOT ADD SLT PUSH2 0x2FD JUMPI PUSH1 0xFF PUSH1 0x40 PUSH1 0x20 SWAP3 PUSH1 0x1 PUSH1 0x1 PUSH1 0xA0 SHL SUB PUSH2 0x767 PUSH2 0x300D JUMP JUMPDEST AND DUP2 MSTORE PUSH1 0x13 DUP5 MSTORE KECCAK256 SLOAD AND PUSH1 0x40 MLOAD SWAP1 ISZERO ISZERO DUP2 MSTORE RETURN JUMPDEST POP CALLVALUE PUSH2 0x2FD JUMPI PUSH1 0x40 CALLDATASIZE PUSH1 0x3 NOT ADD SLT PUSH2 0x2FD JUMPI PUSH2 0x7B8 PUSH1 0x4 CALLDATALOAD PUSH2 0x79B PUSH2 0x3023 JUMP JUMPDEST SWAP1 DUP1 DUP5 MSTORE DUP4 PUSH1 0x20 MSTORE PUSH2 0x7B3 PUSH1 0x1 PUSH1 0x40 DUP7 KECCAK256 ADD SLOAD PUSH2 0x313C JUMP JUMPDEST PUSH2 0x331E JUMP JUMPDEST POP DUP1 RETURN JUMPDEST POP CALLVALUE PUSH2 0x2FD JUMPI DUP1 PUSH1 0x3 NOT CALLDATASIZE ADD SLT PUSH2 0x2FD JUMPI PUSH1 0x20 PUSH1 0xC SLOAD PUSH1 0xFF DUP2 PUSH1 0x8 SHR AND ISZERO SWAP1 DUP2 PUSH2 0x7EC JUMPI JUMPDEST POP PUSH1 0x40 MLOAD SWAP1 ISZERO ISZERO DUP2 MSTORE RETURN JUMPDEST PUSH1 0xFF SWAP2 POP PUSH1 0x10 SHR AND ISZERO DUP3 PUSH2 0x7E1 JUMP JUMPDEST POP CALLVALUE PUSH2 0x2FD JUMPI DUP1 PUSH1 0x3 NOT CALLDATASIZE ADD SLT PUSH2 0x2FD JUMPI PUSH1 0x20 PUSH1 0xA SLOAD PUSH1 0x40 MLOAD SWAP1 DUP2 MSTORE RETURN JUMPDEST POP CALLVALUE PUSH2 0x2FD JUMPI DUP1 PUSH1 0x3 NOT CALLDATASIZE ADD SLT PUSH2 0x2FD JUMPI PUSH1 0x20 PUSH1 0x7 SLOAD PUSH1 0x40 MLOAD SWAP1 DUP2 MSTORE RETURN JUMPDEST POP CALLVALUE PUSH2 0x2FD JUMPI PUSH1 0x20 CALLDATASIZE PUSH1 0x3 NOT ADD SLT PUSH2 0x2FD JUMPI PUSH1 0x40 PUSH1 0x20 SWAP2 PUSH1 0x1 PUSH1 0x1 PUSH1 0xA0 SHL SUB PUSH2 0x85E PUSH2 0x300D JUMP JUMPDEST AND DUP2 MSTORE PUSH1 0x14 DUP4 MSTORE KECCAK256 SLOAD PUSH1 0x40 MLOAD SWAP1 DUP2 MSTORE RETURN JUMPDEST POP CALLVALUE PUSH2 0x2FD JUMPI PUSH1 0x20 CALLDATASIZE PUSH1 0x3 NOT ADD SLT PUSH2 0x2FD JUMPI PUSH1 0x20 SWAP1 PUSH1 0x40 PUSH1 0x1 PUSH1 0x1 PUSH1 0xA0 SHL SUB SWAP2 DUP3 PUSH2 0x898 PUSH2 0x300D JUMP JUMPDEST AND DUP2 MSTORE PUSH1 0x16 DUP5 MSTORE KECCAK256 SLOAD AND PUSH1 0x40 MLOAD SWAP1 DUP2 MSTORE RETURN JUMPDEST POP CALLVALUE PUSH2 0x2FD JUMPI DUP1 PUSH1 0x3 NOT CALLDATASIZE ADD SLT PUSH2 0x2FD JUMPI PUSH1 0x20 PUSH1 0xB SLOAD PUSH1 0x40 MLOAD SWAP1 DUP2 MSTORE RETURN JUMPDEST POP CALLVALUE PUSH2 0x2FD JUMPI DUP1 PUSH1 0x3 NOT CALLDATASIZE ADD SLT PUSH2 0x2FD JUMPI PUSH1 0x20 PUSH1 0x9 SLOAD PUSH1 0x40 MLOAD SWAP1 DUP2 MSTORE RETURN JUMPDEST POP CALLVALUE PUSH2 0x2FD JUMPI DUP1 PUSH1 0x3 NOT CALLDATASIZE ADD SLT PUSH2 0x2FD JUMPI PUSH1 0x20 PUSH1 0xFF PUSH1 0xC SLOAD PUSH1 0x10 SHR AND PUSH1 0x40 MLOAD SWAP1 ISZERO ISZERO DUP2 MSTORE RETURN JUMPDEST POP CALLVALUE PUSH2 0x2FD JUMPI PUSH1 0x60 CALLDATASIZE PUSH1 0x3 NOT ADD SLT PUSH2 0x2FD JUMPI PUSH2 0x926 PUSH2 0x300D JUMP JUMPDEST PUSH1 0x24 DUP1 CALLDATALOAD PUSH1 0x44 SWAP2 DUP3 CALLDATALOAD SWAP3 PUSH1 0x1 PUSH1 0x1 PUSH1 0xA0 SHL SUB SWAP4 DUP5 DUP2 AND SWAP6 DUP7 DUP3 SUB PUSH2 0x683 JUMPI PUSH2 0x94C PUSH2 0x306F JUMP JUMPDEST PUSH2 0x954 PUSH2 0x3505 JUMP JUMPDEST DUP7 ISZERO PUSH2 0xC14 JUMPI DUP6 AND SWAP5 DUP6 PUSH2 0xA3C JUMPI POP DUP4 SELFBALANCE LT PUSH2 0x9F9 JUMPI DUP7 DUP1 DUP1 DUP7 DUP2 SWAP5 GAS CALL PUSH2 0x97A PUSH2 0x34C5 JUMP JUMPDEST POP ISZERO PUSH2 0x9B6 JUMPI POP POP PUSH1 0x20 PUSH32 0xD27DD37D941F5A1B76926E48140FDBF50A0C59DEFB5431A391A1260279EB1C4C SWAP2 JUMPDEST PUSH1 0x40 MLOAD SWAP1 DUP2 MSTORE LOG3 PUSH1 0x1 PUSH1 0x2 SSTORE DUP1 RETURN JUMPDEST SWAP1 PUSH32 0x4C554D494120726573637565206661696C656400000000000000000000000000 PUSH1 0x64 SWAP3 PUSH1 0x13 PUSH1 0x40 MLOAD SWAP4 PUSH3 0x461BCD PUSH1 0xE5 SHL DUP6 MSTORE PUSH1 0x20 PUSH1 0x4 DUP7 ADD MSTORE DUP5 ADD MSTORE DUP3 ADD MSTORE REVERT JUMPDEST PUSH1 0x64 DUP4 PUSH32 0x4E6F7420656E6F756768204C554D494100000000000000000000000000000000 DUP5 PUSH1 0x10 PUSH1 0x40 MLOAD SWAP4 PUSH3 0x461BCD PUSH1 0xE5 SHL DUP6 MSTORE PUSH1 0x20 PUSH1 0x4 DUP7 ADD MSTORE DUP5 ADD MSTORE DUP3 ADD MSTORE REVERT JUMPDEST PUSH1 0x3 SWAP4 SWAP2 SWAP4 SLOAD AND DUP6 EQ PUSH2 0xBD2 JUMPI PUSH1 0x40 MLOAD SWAP3 PUSH4 0x70A08231 PUSH1 0xE0 SHL DUP5 MSTORE ADDRESS PUSH1 0x4 DUP6 ADD MSTORE PUSH1 0x20 SWAP4 DUP5 DUP2 DUP5 DUP2 DUP11 GAS STATICCALL DUP1 ISZERO PUSH2 0xBC7 JUMPI DUP7 SWAP2 DUP11 SWAP2 PUSH2 0xB96 JUMPI JUMPDEST POP LT PUSH2 0xB54 JUMPI PUSH1 0x40 MLOAD PUSH4 0xA9059CBB PUSH1 0xE0 SHL DUP2 MSTORE PUSH1 0x1 PUSH1 0x1 PUSH1 0xA0 SHL SUB SWAP2 SWAP1 SWAP2 AND PUSH1 0x4 DUP3 ADD MSTORE PUSH1 0x24 DUP2 ADD DUP6 SWAP1 MSTORE DUP4 DUP2 PUSH1 0x44 DUP2 DUP12 DUP11 GAS CALL SWAP1 DUP2 ISZERO PUSH2 0xB49 JUMPI DUP9 SWAP2 PUSH2 0xB2C JUMPI JUMPDEST POP ISZERO PUSH2 0xAEA JUMPI POP POP POP PUSH1 0x20 PUSH32 0xD27DD37D941F5A1B76926E48140FDBF50A0C59DEFB5431A391A1260279EB1C4C SWAP2 PUSH2 0x9A7 JUMP JUMPDEST PUSH1 0x64 SWAP3 SWAP2 PUSH1 0x1C PUSH32 0x455243323020726573637565207472616E73666572206661696C656400000000 SWAP3 PUSH1 0x40 MLOAD SWAP5 PUSH3 0x461BCD PUSH1 0xE5 SHL DUP7 MSTORE PUSH1 0x4 DUP7 ADD MSTORE DUP5 ADD MSTORE DUP3 ADD MSTORE REVERT JUMPDEST PUSH2 0xB43 SWAP2 POP DUP5 RETURNDATASIZE DUP7 GT PUSH2 0x54B JUMPI PUSH2 0x53C DUP2 DUP4 PUSH2 0x304D JUMP JUMPDEST CODESIZE PUSH2 0xAB8 JUMP JUMPDEST PUSH1 0x40 MLOAD RETURNDATASIZE DUP11 DUP3 RETURNDATACOPY RETURNDATASIZE SWAP1 REVERT JUMPDEST PUSH1 0x64 DUP5 PUSH32 0x4E6F7420656E6F75676820746F6B656E73000000000000000000000000000000 DUP6 PUSH1 0x11 DUP7 PUSH1 0x40 MLOAD SWAP5 PUSH3 0x461BCD PUSH1 0xE5 SHL DUP7 MSTORE PUSH1 0x4 DUP7 ADD MSTORE DUP5 ADD MSTORE DUP3 ADD MSTORE REVERT JUMPDEST DUP1 SWAP3 POP DUP7 DUP1 SWAP3 POP RETURNDATASIZE DUP4 GT PUSH2 0xBC0 JUMPI JUMPDEST PUSH2 0xBAF DUP2 DUP4 PUSH2 0x304D JUMP JUMPDEST DUP2 ADD SUB SLT PUSH2 0x683 JUMPI DUP6 SWAP1 MLOAD CODESIZE PUSH2 0xA76 JUMP JUMPDEST POP RETURNDATASIZE PUSH2 0xBA5 JUMP JUMPDEST PUSH1 0x40 MLOAD RETURNDATASIZE DUP12 DUP3 RETURNDATACOPY RETURNDATASIZE SWAP1 REVERT JUMPDEST PUSH32 0x43616E6E6F74207265736375652073616C65546F6B656E000000000000000000 PUSH1 0x64 SWAP3 PUSH1 0x17 PUSH1 0x40 MLOAD SWAP4 PUSH3 0x461BCD PUSH1 0xE5 SHL DUP6 MSTORE PUSH1 0x20 PUSH1 0x4 DUP7 ADD MSTORE DUP5 ADD MSTORE DUP3 ADD MSTORE REVERT JUMPDEST PUSH1 0x64 DUP5 PUSH32 0x496E76616C696420726563697069656E74000000000000000000000000000000 DUP6 PUSH1 0x11 PUSH1 0x40 MLOAD SWAP4 PUSH3 0x461BCD PUSH1 0xE5 SHL DUP6 MSTORE PUSH1 0x20 PUSH1 0x4 DUP7 ADD MSTORE DUP5 ADD MSTORE DUP3 ADD MSTORE REVERT JUMPDEST POP CALLVALUE PUSH2 0x2FD JUMPI DUP1 PUSH1 0x3 NOT CALLDATASIZE ADD SLT PUSH2 0x2FD JUMPI PUSH1 0x20 SWAP1 PUSH1 0x40 MLOAD SWAP1 DUP2 MSTORE RETURN JUMPDEST POP CALLVALUE PUSH2 0x2FD JUMPI PUSH1 0x40 CALLDATASIZE PUSH1 0x3 NOT ADD SLT PUSH2 0x2FD JUMPI PUSH1 0x1 PUSH1 0x1 PUSH1 0xA0 SHL SUB PUSH1 0x40 PUSH2 0xC97 PUSH2 0x3023 JUMP JUMPDEST SWAP3 PUSH1 0x4 CALLDATALOAD DUP2 MSTORE DUP1 PUSH1 0x20 MSTORE KECCAK256 SWAP2 AND PUSH1 0x0 MSTORE PUSH1 0x20 MSTORE PUSH1 0x20 PUSH1 0xFF PUSH1 0x40 PUSH1 0x0 KECCAK256 SLOAD AND PUSH1 0x40 MLOAD SWAP1 ISZERO ISZERO DUP2 MSTORE RETURN JUMPDEST POP CALLVALUE PUSH2 0x2FD JUMPI PUSH1 0x20 CALLDATASIZE PUSH1 0x3 NOT ADD SLT PUSH2 0x2FD JUMPI PUSH1 0x40 PUSH1 0x20 SWAP2 PUSH1 0x1 PUSH1 0x1 PUSH1 0xA0 SHL SUB PUSH2 0xCE6 PUSH2 0x300D JUMP JUMPDEST AND DUP2 MSTORE PUSH1 0x15 DUP4 MSTORE KECCAK256 SLOAD PUSH1 0x40 MLOAD SWAP1 DUP2 MSTORE RETURN JUMPDEST POP CALLVALUE PUSH2 0x2FD JUMPI DUP1 PUSH1 0x3 NOT CALLDATASIZE ADD SLT PUSH2 0x2FD JUMPI PUSH1 0x20 PUSH1 0x8 SLOAD PUSH1 0x40 MLOAD SWAP1 DUP2 MSTORE RETURN JUMPDEST POP CALLVALUE PUSH2 0x2FD JUMPI DUP1 PUSH1 0x3 NOT CALLDATASIZE ADD SLT PUSH2 0x2FD JUMPI PUSH1 0xFF PUSH1 0x10 SLOAD AND PUSH1 0x40 MLOAD SWAP1 PUSH1 0x3 DUP2 LT ISZERO PUSH2 0xD41 JUMPI PUSH1 0x20 SWAP3 POP DUP2 MSTORE RETURN JUMPDEST PUSH1 0x24 DUP4 PUSH4 0x4E487B71 PUSH1 0xE0 SHL DUP2 MSTORE PUSH1 0x21 PUSH1 0x4 MSTORE REVERT JUMPDEST POP CALLVALUE PUSH2 0x2FD JUMPI DUP1 PUSH1 0x3 NOT CALLDATASIZE ADD SLT PUSH2 0x2FD JUMPI PUSH1 0x20 PUSH1 0x4 SLOAD PUSH1 0x40 MLOAD SWAP1 DUP2 MSTORE RETURN JUMPDEST POP CALLVALUE PUSH2 0x2FD JUMPI DUP1 PUSH1 0x3 NOT CALLDATASIZE ADD SLT PUSH2 0x2FD JUMPI PUSH1 0x20 PUSH1 0x40 MLOAD PUSH32 0x35369B3A7BB98C90641A907C2FD643EA781341EBA72CCFFD47CB018C128C48C3 DUP2 MSTORE RETURN JUMPDEST POP CALLVALUE PUSH2 0x2FD JUMPI PUSH1 0x20 CALLDATASIZE PUSH1 0x3 NOT ADD SLT PUSH2 0x2FD JUMPI PUSH2 0xDC8 PUSH2 0x300D JUMP JUMPDEST PUSH2 0xDD0 PUSH2 0x306F JUMP JUMPDEST PUSH1 0x1 PUSH1 0x1 PUSH1 0xA0 SHL SUB DUP1 SWAP2 AND SWAP1 DUP2 DUP4 MSTORE PUSH1 0x16 PUSH1 0x20 MSTORE PUSH1 0x40 DUP4 KECCAK256 SLOAD AND ISZERO PUSH2 0xE36 JUMPI DUP1 DUP3 MSTORE PUSH1 0x16 PUSH1 0x20 MSTORE PUSH1 0x40 DUP3 KECCAK256 PUSH1 0x1 PUSH1 0x1 PUSH1 0xA0 SHL SUB NOT DUP2 SLOAD AND SWAP1 SSTORE PUSH32 0xC1D3048301C0D23629A2532C8DEFA6D68F8E1A0E4157918769E9FB1B2EEB888E PUSH1 0x20 PUSH1 0x40 MLOAD DUP5 DUP2 MSTORE LOG2 DUP1 RETURN JUMPDEST PUSH1 0x64 PUSH1 0x40 MLOAD PUSH3 0x461BCD PUSH1 0xE5 SHL DUP2 MSTORE PUSH1 0x20 PUSH1 0x4 DUP3 ADD MSTORE PUSH1 0x13 PUSH1 0x24 DUP3 ADD MSTORE PUSH32 0x4E6F206F7261636C6520746F2072656D6F766500000000000000000000000000 PUSH1 0x44 DUP3 ADD MSTORE REVERT JUMPDEST POP CALLVALUE PUSH2 0x2FD JUMPI DUP1 PUSH1 0x3 NOT CALLDATASIZE ADD SLT PUSH2 0x2FD JUMPI PUSH2 0xE93 PUSH2 0x30E0 JUMP JUMPDEST PUSH1 0xA SLOAD PUSH1 0x8 SLOAD GT PUSH2 0xFEB JUMPI PUSH1 0xC SLOAD PUSH2 0xEB1 PUSH1 0xFF DUP3 PUSH1 0x8 SHR AND ISZERO PUSH2 0x33CA JUMP JUMPDEST PUSH2 0xEC1 PUSH1 0xFF DUP3 PUSH1 0x10 SHR AND ISZERO PUSH2 0x3415 JUMP JUMPDEST PUSH1 0xFF DUP2 AND PUSH2 0xFA7 JUMPI PUSH2 0x101 DUP3 SWAP2 PUSH2 0xFFFF NOT AND OR DUP1 PUSH1 0xC SSTORE PUSH1 0xFF DUP2 PUSH1 0x18 SHR AND DUP1 PUSH2 0xF92 JUMPI JUMPDEST PUSH2 0xF45 JUMPI JUMPDEST POP PUSH32 0x88A7D28EAB96D3365F5163F9EC845AC889ACE5A29AE33059254EE6493DEE4A61 PUSH1 0x20 PUSH1 0x40 MLOAD TIMESTAMP DUP2 MSTORE LOG1 PUSH32 0xCB67F20F64495B30F15524C55F90201DD6571D6B5C19DAC183D2AEB25315B2DC PUSH1 0x20 PUSH1 0xA SLOAD PUSH1 0x40 MLOAD SWAP1 DUP2 MSTORE LOG1 DUP1 RETURN JUMPDEST PUSH1 0x20 SHR PUSH1 0x1 PUSH1 0x1 PUSH1 0xA0 SHL SUB AND DUP1 EXTCODESIZE ISZERO PUSH2 0xF8F JUMPI DUP2 DUP1 SWAP2 PUSH1 0x4 PUSH1 0x40 MLOAD DUP1 SWAP5 DUP2 SWAP4 PUSH4 0x78BD678B PUSH1 0xE1 SHL DUP4 MSTORE GAS CALL DUP1 ISZERO PUSH2 0x516 JUMPI ISZERO PUSH2 0xEEA JUMPI PUSH2 0xF84 SWAP1 PUSH2 0x3039 JUMP JUMPDEST PUSH2 0x2FD JUMPI DUP1 CODESIZE PUSH2 0xEEA JUMP JUMPDEST POP REVERT JUMPDEST POP PUSH1 0x1 PUSH1 0x1 PUSH1 0xA0 SHL SUB DUP2 PUSH1 0x20 SHR AND ISZERO ISZERO PUSH2 0xEE5 JUMP JUMPDEST PUSH1 0x64 PUSH1 0x40 MLOAD PUSH3 0x461BCD PUSH1 0xE5 SHL DUP2 MSTORE PUSH1 0x20 PUSH1 0x4 DUP3 ADD MSTORE PUSH1 0x13 PUSH1 0x24 DUP3 ADD MSTORE PUSH32 0x53616C6520616C726561647920636C6F73656400000000000000000000000000 PUSH1 0x44 DUP3 ADD MSTORE REVERT JUMPDEST PUSH1 0x64 PUSH1 0x40 MLOAD PUSH3 0x461BCD PUSH1 0xE5 SHL DUP2 MSTORE PUSH1 0x20 PUSH1 0x4 DUP3 ADD MSTORE PUSH1 0x14 PUSH1 0x24 DUP3 ADD MSTORE PUSH32 0x536F667420636170206E6F742072656163686564000000000000000000000000 PUSH1 0x44 DUP3 ADD MSTORE REVERT JUMPDEST POP CALLVALUE PUSH2 0x2FD JUMPI DUP1 PUSH1 0x3 NOT CALLDATASIZE ADD SLT PUSH2 0x2FD JUMPI PUSH2 0x1048 PUSH2 0x306F JUMP JUMPDEST PUSH2 0x1050 PUSH2 0x3394 JUMP JUMPDEST PUSH1 0x1 PUSH1 0xFF NOT DUP2 SLOAD AND OR PUSH1 0x1 SSTORE PUSH1 0x20 PUSH1 0x40 MLOAD CALLER DUP2 MSTORE PUSH32 0x62E78CEA01BEE320CD4E420270B5EA74000D11B0C9F74754EBDBFC544B05A258 SWAP2 DUP3 SWAP2 LOG1 PUSH1 0x20 PUSH1 0x40 MLOAD CALLER DUP2 MSTORE LOG1 DUP1 RETURN JUMPDEST POP CALLVALUE PUSH2 0x2FD JUMPI DUP1 PUSH1 0x3 NOT CALLDATASIZE ADD SLT PUSH2 0x2FD JUMPI PUSH1 0x20 PUSH1 0xA SLOAD PUSH1 0x8 SLOAD GT ISZERO PUSH1 0x40 MLOAD SWAP1 DUP2 MSTORE RETURN JUMPDEST POP CALLVALUE PUSH2 0x2FD JUMPI DUP1 PUSH1 0x3 NOT CALLDATASIZE ADD SLT PUSH2 0x2FD JUMPI PUSH1 0x20 PUSH1 0x12 SLOAD PUSH1 0x40 MLOAD SWAP1 DUP2 MSTORE RETURN JUMPDEST POP CALLVALUE PUSH2 0x2FD JUMPI PUSH1 0x20 DUP1 PUSH1 0x3 NOT CALLDATASIZE ADD SLT PUSH2 0x1317 JUMPI PUSH2 0x10F1 PUSH2 0x300D JUMP JUMPDEST SWAP1 PUSH2 0x10FA PUSH2 0x30E0 JUMP JUMPDEST PUSH2 0x1102 PUSH2 0x3505 JUMP JUMPDEST PUSH2 0x111C PUSH1 0xFF PUSH1 0xC SLOAD PUSH1 0x8 SHR AND PUSH2 0x1117 DUP2 PUSH2 0x3589 JUMP JUMPDEST PUSH2 0x3589 JUMP JUMPDEST PUSH1 0x1 PUSH1 0x1 PUSH1 0xA0 SHL SUB SWAP2 DUP3 DUP2 AND SWAP3 DUP4 ISZERO PUSH2 0x12D3 JUMPI PUSH1 0x3 SLOAD AND PUSH1 0x40 MLOAD PUSH4 0x70A08231 PUSH1 0xE0 SHL DUP2 MSTORE ADDRESS PUSH1 0x4 DUP3 ADD MSTORE DUP4 DUP2 PUSH1 0x24 DUP2 DUP6 GAS STATICCALL DUP1 ISZERO PUSH2 0x12C8 JUMPI DUP7 SWAP1 PUSH2 0x1299 JUMPI JUMPDEST PUSH2 0x1169 SWAP2 POP PUSH1 0xB SLOAD SWAP1 PUSH2 0x346D JUMP JUMPDEST SWAP2 DUP3 ISZERO PUSH2 0x1255 JUMPI PUSH1 0x40 MLOAD PUSH4 0xA9059CBB PUSH1 0xE0 SHL DUP2 MSTORE PUSH1 0x1 PUSH1 0x1 PUSH1 0xA0 SHL SUB SWAP2 SWAP1 SWAP2 AND PUSH1 0x4 DUP3 ADD MSTORE PUSH1 0x24 DUP2 ADD DUP4 SWAP1 MSTORE SWAP1 DUP4 SWAP1 DUP3 SWAP1 PUSH1 0x44 SWAP1 DUP3 SWAP1 DUP10 SWAP1 GAS CALL SWAP1 DUP2 ISZERO PUSH2 0x124A JUMPI DUP6 SWAP2 PUSH2 0x122D JUMPI JUMPDEST POP ISZERO PUSH2 0x11E9 JUMPI SWAP1 PUSH32 0xFCBF6553B2CFC097C2301F1C071469A8839B462E7287E3692F238CCFC6B9208F SWAP2 PUSH1 0x40 MLOAD SWAP1 DUP2 MSTORE LOG2 PUSH1 0x1 PUSH1 0x2 SSTORE DUP1 RETURN JUMPDEST PUSH1 0x64 DUP3 PUSH1 0x40 MLOAD SWAP1 PUSH3 0x461BCD PUSH1 0xE5 SHL DUP3 MSTORE PUSH1 0x4 DUP3 ADD MSTORE PUSH1 0x17 PUSH1 0x24 DUP3 ADD MSTORE PUSH32 0x5265636C61696D207472616E73666572206661696C6564000000000000000000 PUSH1 0x44 DUP3 ADD MSTORE REVERT JUMPDEST PUSH2 0x1244 SWAP2 POP DUP4 RETURNDATASIZE DUP6 GT PUSH2 0x54B JUMPI PUSH2 0x53C DUP2 DUP4 PUSH2 0x304D JUMP JUMPDEST CODESIZE PUSH2 0x11B1 JUMP JUMPDEST PUSH1 0x40 MLOAD RETURNDATASIZE DUP8 DUP3 RETURNDATACOPY RETURNDATASIZE SWAP1 REVERT JUMPDEST PUSH1 0x64 DUP5 PUSH1 0x40 MLOAD SWAP1 PUSH3 0x461BCD PUSH1 0xE5 SHL DUP3 MSTORE PUSH1 0x4 DUP3 ADD MSTORE PUSH1 0x13 PUSH1 0x24 DUP3 ADD MSTORE PUSH32 0x4E6F20756E636C61696D656420746F6B656E7300000000000000000000000000 PUSH1 0x44 DUP3 ADD MSTORE REVERT JUMPDEST POP DUP4 DUP2 DUP2 RETURNDATASIZE DUP4 GT PUSH2 0x12C1 JUMPI JUMPDEST PUSH2 0x12AF DUP2 DUP4 PUSH2 0x304D JUMP JUMPDEST DUP2 ADD SUB SLT PUSH2 0x683 JUMPI PUSH2 0x1169 SWAP1 MLOAD PUSH2 0x115B JUMP JUMPDEST POP RETURNDATASIZE PUSH2 0x12A5 JUMP JUMPDEST PUSH1 0x40 MLOAD RETURNDATASIZE DUP9 DUP3 RETURNDATACOPY RETURNDATASIZE SWAP1 REVERT JUMPDEST PUSH1 0x64 DUP4 PUSH1 0x40 MLOAD SWAP1 PUSH3 0x461BCD PUSH1 0xE5 SHL DUP3 MSTORE PUSH1 0x4 DUP3 ADD MSTORE PUSH1 0xF PUSH1 0x24 DUP3 ADD MSTORE PUSH32 0x496E76616C696420616464726573730000000000000000000000000000000000 PUSH1 0x44 DUP3 ADD MSTORE REVERT JUMPDEST POP DUP1 REVERT JUMPDEST POP CALLVALUE PUSH2 0x2FD JUMPI PUSH1 0x40 CALLDATASIZE PUSH1 0x3 NOT ADD SLT PUSH2 0x2FD JUMPI PUSH2 0x1335 PUSH2 0x300D JUMP JUMPDEST PUSH2 0x133D PUSH2 0x3023 JUMP JUMPDEST PUSH2 0x1345 PUSH2 0x306F JUMP JUMPDEST PUSH1 0x1 PUSH1 0x1 PUSH1 0xA0 SHL SUB DUP1 SWAP2 AND SWAP2 DUP3 ISZERO PUSH2 0x13A3 JUMPI PUSH32 0xC1D3048301C0D23629A2532C8DEFA6D68F8E1A0E4157918769E9FB1B2EEB888E SWAP2 PUSH1 0x20 SWAP2 AND SWAP3 DUP4 DUP6 MSTORE PUSH1 0x16 DUP3 MSTORE PUSH1 0x40 DUP6 KECCAK256 DUP2 PUSH1 0x1 PUSH1 0x1 PUSH1 0xA0 SHL SUB NOT DUP3 SLOAD AND OR SWAP1 SSTORE PUSH1 0x40 MLOAD SWAP1 DUP2 MSTORE LOG2 DUP1 RETURN JUMPDEST PUSH1 0x64 PUSH1 0x40 MLOAD PUSH3 0x461BCD PUSH1 0xE5 SHL DUP2 MSTORE PUSH1 0x20 PUSH1 0x4 DUP3 ADD MSTORE PUSH1 0x16 PUSH1 0x24 DUP3 ADD MSTORE PUSH32 0x496E76616C6964206F7261636C65206164647265737300000000000000000000 PUSH1 0x44 DUP3 ADD MSTORE REVERT JUMPDEST POP CALLVALUE PUSH2 0x2FD JUMPI DUP1 PUSH1 0x3 NOT CALLDATASIZE ADD SLT PUSH2 0x2FD JUMPI PUSH1 0x7 SLOAD TIMESTAMP LT DUP1 ISZERO SWAP1 PUSH2 0x143E JUMPI JUMPDEST DUP1 PUSH2 0x142E JUMPI JUMPDEST DUP1 PUSH2 0x141E JUMPI JUMPDEST PUSH1 0x20 SWAP1 PUSH1 0x40 MLOAD SWAP1 ISZERO ISZERO DUP2 MSTORE RETURN JUMPDEST POP PUSH1 0xC SLOAD PUSH1 0x10 SHR PUSH1 0xFF AND ISZERO PUSH2 0x1411 JUMP JUMPDEST POP PUSH1 0xFF PUSH1 0xC SLOAD PUSH1 0x8 SHR AND ISZERO PUSH2 0x140B JUMP JUMPDEST POP PUSH1 0xA SLOAD PUSH1 0x8 SLOAD GT ISZERO PUSH2 0x1405 JUMP JUMPDEST POP PUSH1 0x60 CALLDATASIZE PUSH1 0x3 NOT ADD SLT PUSH2 0x2FD JUMPI PUSH2 0x1461 PUSH2 0x300D JUMP JUMPDEST SWAP1 PUSH2 0x146A PUSH2 0x3023 JUMP JUMPDEST SWAP1 PUSH1 0x44 SWAP3 DUP4 CALLDATALOAD PUSH2 0x1478 PUSH2 0x3505 JUMP JUMPDEST PUSH2 0x1480 PUSH2 0x3394 JUMP JUMPDEST PUSH1 0x1 PUSH1 0x1 PUSH1 0xA0 SHL SUB SWAP4 DUP5 PUSH1 0xD SLOAD AND CALLER SUB PUSH2 0x6D3 JUMPI DUP5 AND SWAP2 DUP3 ISZERO PUSH2 0x2122 JUMPI PUSH1 0xC SLOAD PUSH1 0xFF DUP2 AND PUSH2 0x20DE JUMPI PUSH1 0xFF PUSH2 0x14BC SWAP2 PUSH1 0x10 SHR AND ISZERO PUSH2 0x370 DUP2 PUSH2 0x3415 JUMP JUMPDEST PUSH1 0x6 SLOAD TIMESTAMP LT PUSH2 0x209A JUMPI PUSH1 0x7 SLOAD TIMESTAMP LT ISZERO PUSH2 0x2056 JUMPI DUP5 DUP2 AND SWAP4 DUP5 DUP2 MSTORE PUSH1 0x20 SWAP6 PUSH1 0x13 DUP8 MSTORE PUSH1 0xFF PUSH1 0x40 DUP4 KECCAK256 SLOAD AND ISZERO PUSH2 0x2013 JUMPI DUP4 ISZERO PUSH2 0x1FD0 JUMPI DUP6 DUP3 MSTORE PUSH1 0x16 DUP8 MSTORE DUP1 PUSH1 0x40 DUP4 KECCAK256 SLOAD AND DUP1 ISZERO PUSH2 0x1F8D JUMPI SWAP1 PUSH1 0x40 PUSH1 0x4 SWAP9 SWAP10 SWAP3 DUP2 MLOAD SWAP10 DUP11 DUP1 SWAP3 PUSH32 0x57DE26A400000000000000000000000000000000000000000000000000000000 DUP3 MSTORE GAS STATICCALL SWAP8 DUP9 ISZERO PUSH2 0x1F82 JUMPI DUP4 SWAP1 DUP5 SWAP10 PUSH2 0x1F2E JUMPI JUMPDEST POP PUSH1 0x1B SIGNEXTEND SWAP8 DUP4 DUP10 SGT ISZERO PUSH2 0x1EEB JUMPI PUSH2 0x1568 PUSH4 0xFFFFFFFF PUSH3 0x15180 SWAP3 AND TIMESTAMP PUSH2 0x346D JUMP JUMPDEST GT PUSH2 0x1EA8 JUMPI DUP7 ISZERO SWAP7 DUP8 ISZERO PUSH2 0x1E25 JUMPI PUSH2 0x1583 PUSH1 0x12 SWAP10 JUMPDEST DUP8 PUSH2 0x347A JUMP JUMPDEST PUSH8 0xDE0B6B3A7640000 SWAP10 DUP11 DUP3 MUL SWAP2 DUP1 DUP4 DIV DUP13 EQ SWAP1 ISZERO OR ISZERO PUSH2 0x1E11 JUMPI PUSH1 0xFF AND PUSH1 0x4D DUP2 GT PUSH2 0x1E11 JUMPI DUP11 SWAP2 PUSH2 0x15B8 SWAP2 PUSH1 0xA EXP SWAP1 PUSH2 0x348D JUMP JUMPDEST DIV SWAP8 DUP9 ISZERO PUSH2 0x1DCE JUMPI PUSH1 0x4 SLOAD DUP10 LT PUSH2 0x1D8B JUMPI DUP8 DUP6 MSTORE PUSH1 0x15 DUP12 MSTORE PUSH2 0x15DE DUP10 PUSH1 0x40 DUP8 KECCAK256 SLOAD PUSH2 0x3460 JUMP JUMPDEST PUSH1 0x5 SLOAD LT PUSH2 0x1D48 JUMPI PUSH1 0xA SLOAD PUSH2 0x15F3 DUP11 DUP3 PUSH2 0x3460 JUMP JUMPDEST PUSH1 0x9 SLOAD LT PUSH2 0x1D05 JUMPI PUSH16 0xFFFFFFFFFFFFFFFFFFFFFFFFFFFFFFFF SWAP11 DUP12 DUP12 GT PUSH2 0x1CC2 JUMPI DUP11 DUP13 SUB DUP13 DUP2 GT PUSH2 0x1CAC JUMPI DUP3 GT PUSH2 0x1C69 JUMPI DUP1 DUP12 MUL SWAP1 DUP12 DUP3 DIV SUB PUSH2 0x1C55 JUMPI PUSH1 0x12 SLOAD PUSH2 0x163C SWAP2 PUSH2 0x348D JUMP JUMPDEST SWAP11 DUP12 ISZERO PUSH2 0x1C12 JUMPI DUP12 GT PUSH2 0x1BCF JUMPI DUP10 PUSH2 0x1653 SWAP2 PUSH2 0x3460 JUMP JUMPDEST PUSH1 0xA SSTORE DUP8 DUP6 MSTORE PUSH1 0x15 DUP12 MSTORE PUSH1 0x40 DUP6 KECCAK256 PUSH2 0x166C DUP11 DUP3 SLOAD PUSH2 0x3460 JUMP JUMPDEST SWAP1 SSTORE ISZERO PUSH2 0x1909 JUMPI POP DUP5 CALLVALUE SUB PUSH2 0x18C6 JUMPI PUSH1 0x11 SLOAD AND PUSH1 0x40 MLOAD SWAP1 DUP10 DUP3 ADD SWAP1 PUSH32 0x701BB89100000000000000000000000000000000000000000000000000000000 DUP3 MSTORE ADDRESS PUSH1 0x24 DUP5 ADD MSTORE DUP8 DUP5 DUP5 ADD MSTORE DUP4 DUP4 MSTORE PUSH1 0x80 DUP4 ADD SWAP2 DUP4 DUP4 LT PUSH8 0xFFFFFFFFFFFFFFFF DUP5 GT OR PUSH2 0x18B0 JUMPI DUP6 SWAP4 DUP5 SWAP4 PUSH1 0x40 MSTORE MLOAD SWAP2 CALLVALUE SWAP1 GAS CALL PUSH2 0x16E5 PUSH2 0x34C5 JUMP JUMPDEST POP ISZERO PUSH2 0x186D JUMPI POP SWAP1 PUSH1 0x40 PUSH32 0x93638E6CF18B4F6A839DE65DF95898221F5D9F7DC54B87D4B31D40297643266E SWAP4 SWAP3 JUMPDEST DUP6 DUP2 MSTORE PUSH1 0x14 DUP10 MSTORE KECCAK256 PUSH2 0x1726 DUP8 DUP3 SLOAD PUSH2 0x3460 JUMP JUMPDEST SWAP1 SSTORE PUSH2 0x1734 DUP7 PUSH1 0xB SLOAD PUSH2 0x3460 JUMP JUMPDEST PUSH1 0xB SSTORE PUSH2 0x1761 DUP7 PUSH1 0x40 MLOAD SWAP4 DUP5 SWAP4 DUP5 PUSH1 0x40 SWAP2 SWAP5 SWAP4 SWAP3 PUSH1 0x1 PUSH1 0x1 PUSH1 0xA0 SHL SUB PUSH1 0x60 DUP4 ADD SWAP7 AND DUP3 MSTORE PUSH1 0x20 DUP3 ADD MSTORE ADD MSTORE JUMP JUMPDEST SUB SWAP1 LOG2 PUSH1 0xA SLOAD PUSH1 0x8 SLOAD SWAP1 SWAP2 DUP2 DUP4 LT ISZERO SWAP1 DUP2 DUP1 PUSH2 0x185B JUMPI JUMPDEST PUSH2 0x1828 JUMPI JUMPDEST DUP2 PUSH2 0x1815 JUMPI JUMPDEST POP PUSH2 0x17E0 JUMPI JUMPDEST POP DUP3 PUSH1 0x9 SLOAD DUP3 LT ISZERO PUSH2 0x17A3 JUMPI JUMPDEST PUSH1 0x1 PUSH1 0x2 SSTORE PUSH1 0x40 MLOAD DUP4 DUP2 MSTORE RETURN JUMPDEST PUSH32 0xCB67F20F64495B30F15524C55F90201DD6571D6B5C19DAC183D2AEB25315B2DC SWAP2 PUSH1 0x1 PUSH1 0xFF NOT PUSH1 0xC SLOAD AND OR PUSH1 0xC SSTORE PUSH1 0x40 MLOAD SWAP1 DUP2 MSTORE LOG1 CODESIZE DUP3 PUSH2 0x1796 JUMP JUMPDEST PUSH1 0x40 PUSH32 0xB43CA1B105F16771375B5B40A413666F837E4732DC6DD193F408C02736EDAC85 SWAP2 DUP2 MLOAD SWAP1 DUP5 DUP3 MSTORE DUP7 DUP3 ADD MSTORE LOG1 CODESIZE PUSH2 0x1789 JUMP JUMPDEST PUSH2 0x1820 SWAP2 POP DUP3 PUSH2 0x3460 JUMP JUMPDEST DUP3 LT CODESIZE PUSH2 0x1783 JUMP JUMPDEST PUSH32 0xB43CA1B105F16771375B5B40A413666F837E4732DC6DD193F408C02736EDAC85 PUSH1 0x40 DUP1 MLOAD DUP7 DUP2 MSTORE DUP6 DUP10 DUP3 ADD MSTORE LOG1 PUSH2 0x177D JUMP JUMPDEST POP PUSH2 0x1866 DUP2 DUP5 PUSH2 0x3460 JUMP JUMPDEST DUP5 LT PUSH2 0x1778 JUMP JUMPDEST DUP8 PUSH32 0x457363726F77206465706F736974206661696C65640000000000000000000000 PUSH1 0x64 SWAP3 PUSH1 0x40 MLOAD SWAP3 PUSH3 0x461BCD PUSH1 0xE5 SHL DUP5 MSTORE PUSH1 0x4 DUP5 ADD MSTORE PUSH1 0x15 PUSH1 0x24 DUP5 ADD MSTORE DUP3 ADD MSTORE REVERT JUMPDEST PUSH4 0x4E487B71 PUSH1 0xE0 SHL PUSH1 0x0 MSTORE PUSH1 0x41 PUSH1 0x4 MSTORE PUSH1 0x24 PUSH1 0x0 REVERT JUMPDEST PUSH1 0x64 DUP10 PUSH32 0x496E636F7272656374206E617469766520616D6F756E74000000000000000000 DUP5 PUSH1 0x40 MLOAD SWAP3 PUSH3 0x461BCD PUSH1 0xE5 SHL DUP5 MSTORE PUSH1 0x4 DUP5 ADD MSTORE PUSH1 0x17 PUSH1 0x24 DUP5 ADD MSTORE DUP3 ADD MSTORE REVERT JUMPDEST CALLVALUE PUSH2 0x1B66 JUMPI PUSH1 0x40 MLOAD SWAP2 PUSH32 0x23B872DD00000000000000000000000000000000000000000000000000000000 DUP4 MSTORE DUP8 PUSH1 0x4 DUP5 ADD MSTORE PUSH1 0x24 SWAP3 ADDRESS DUP5 DUP3 ADD MSTORE DUP8 DUP6 DUP3 ADD MSTORE DUP12 DUP2 PUSH1 0x64 DUP2 DUP10 DUP8 GAS CALL SWAP1 DUP2 ISZERO PUSH2 0x12C8 JUMPI DUP7 SWAP2 PUSH2 0x1B49 JUMPI JUMPDEST POP ISZERO PUSH2 0x1B07 JUMPI PUSH1 0x11 SLOAD PUSH1 0x40 MLOAD PUSH4 0x95EA7B3 PUSH1 0xE0 SHL DUP2 MSTORE SWAP1 DUP3 AND PUSH1 0x1 PUSH1 0x1 PUSH1 0xA0 SHL SUB AND PUSH1 0x4 DUP3 ADD MSTORE PUSH1 0x24 DUP2 ADD DUP9 SWAP1 MSTORE DUP12 DUP2 PUSH1 0x44 DUP2 DUP10 DUP8 GAS CALL SWAP1 DUP2 ISZERO PUSH2 0x12C8 JUMPI DUP7 SWAP2 PUSH2 0x1AEA JUMPI JUMPDEST POP ISZERO PUSH2 0x1AA8 JUMPI PUSH1 0x11 SLOAD AND SWAP1 PUSH1 0x40 MLOAD DUP12 DUP2 ADD SWAP2 PUSH32 0xEF7C5A700000000000000000000000000000000000000000000000000000000 DUP4 MSTORE ADDRESS DUP6 DUP4 ADD MSTORE DUP10 DUP7 DUP4 ADD MSTORE PUSH1 0x64 DUP3 ADD MSTORE DUP8 PUSH1 0x84 DUP3 ADD MSTORE PUSH1 0x84 DUP2 MSTORE PUSH1 0xC0 DUP2 ADD DUP2 DUP2 LT PUSH8 0xFFFFFFFFFFFFFFFF DUP3 GT OR PUSH2 0x1A93 JUMPI PUSH1 0x40 MSTORE MLOAD DUP6 SWAP3 DUP4 SWAP3 SWAP1 DUP4 SWAP1 GAS CALL PUSH2 0x1A1E PUSH2 0x34C5 JUMP JUMPDEST POP ISZERO PUSH2 0x1A51 JUMPI POP POP SWAP1 PUSH1 0x40 PUSH32 0x93638E6CF18B4F6A839DE65DF95898221F5D9F7DC54B87D4B31D40297643266E SWAP4 SWAP3 PUSH2 0x1713 JUMP JUMPDEST PUSH32 0x457363726F7720746F6B656E206465706F736974206661696C65640000000000 PUSH1 0x64 SWAP3 PUSH1 0x1B DUP12 SWAP4 PUSH1 0x40 MLOAD SWAP5 PUSH3 0x461BCD PUSH1 0xE5 SHL DUP7 MSTORE PUSH1 0x4 DUP7 ADD MSTORE DUP5 ADD MSTORE DUP3 ADD MSTORE REVERT JUMPDEST DUP5 PUSH4 0x4E487B71 PUSH1 0xE0 SHL PUSH1 0x0 MSTORE PUSH1 0x41 PUSH1 0x4 MSTORE PUSH1 0x0 REVERT JUMPDEST PUSH1 0x64 DUP12 PUSH32 0x5061796D656E7420746F6B656E20617070726F76616C206661696C6564000000 DUP7 PUSH1 0x1D DUP8 PUSH1 0x40 MLOAD SWAP5 PUSH3 0x461BCD PUSH1 0xE5 SHL DUP7 MSTORE PUSH1 0x4 DUP7 ADD MSTORE DUP5 ADD MSTORE DUP3 ADD MSTORE REVERT JUMPDEST PUSH2 0x1B01 SWAP2 POP DUP13 DUP14 RETURNDATASIZE LT PUSH2 0x54B JUMPI PUSH2 0x53C DUP2 DUP4 PUSH2 0x304D JUMP JUMPDEST CODESIZE PUSH2 0x19A4 JUMP JUMPDEST PUSH1 0x64 DUP12 PUSH32 0x5061796D656E7420746F6B656E207472616E73666572206661696C6564000000 DUP7 PUSH1 0x1D DUP8 PUSH1 0x40 MLOAD SWAP5 PUSH3 0x461BCD PUSH1 0xE5 SHL DUP7 MSTORE PUSH1 0x4 DUP7 ADD MSTORE DUP5 ADD MSTORE DUP3 ADD MSTORE REVERT JUMPDEST PUSH2 0x1B60 SWAP2 POP DUP13 DUP14 RETURNDATASIZE LT PUSH2 0x54B JUMPI PUSH2 0x53C DUP2 DUP4 PUSH2 0x304D JUMP JUMPDEST CODESIZE PUSH2 0x195F JUMP JUMPDEST PUSH1 0x84 DUP11 PUSH32 0x446F206E6F742073656E642045544820666F7220746F6B656E207061796D656E DUP6 PUSH1 0x40 MLOAD SWAP3 PUSH3 0x461BCD PUSH1 0xE5 SHL DUP5 MSTORE PUSH1 0x4 DUP5 ADD MSTORE PUSH1 0x21 PUSH1 0x24 DUP5 ADD MSTORE DUP3 ADD MSTORE PUSH32 0x7400000000000000000000000000000000000000000000000000000000000000 PUSH1 0x64 DUP3 ADD MSTORE REVERT JUMPDEST PUSH1 0x64 DUP13 PUSH32 0x546F6B656E20616D6F756E7420746F6F206C6172676500000000000000000000 DUP8 PUSH1 0x40 MLOAD SWAP3 PUSH3 0x461BCD PUSH1 0xE5 SHL DUP5 MSTORE PUSH1 0x4 DUP5 ADD MSTORE PUSH1 0x16 PUSH1 0x24 DUP5 ADD MSTORE DUP3 ADD MSTORE REVERT JUMPDEST PUSH1 0x64 DUP14 PUSH32 0x546F6B656E20616D6F756E7420746F6F206C6F77000000000000000000000000 DUP9 PUSH1 0x40 MLOAD SWAP3 PUSH3 0x461BCD PUSH1 0xE5 SHL DUP5 MSTORE PUSH1 0x4 DUP5 ADD MSTORE PUSH1 0x14 PUSH1 0x24 DUP5 ADD MSTORE DUP3 ADD MSTORE REVERT JUMPDEST PUSH1 0x24 DUP8 PUSH4 0x4E487B71 PUSH1 0xE0 SHL DUP2 MSTORE PUSH1 0x11 PUSH1 0x4 MSTORE REVERT JUMPDEST PUSH1 0x64 DUP14 PUSH32 0x546F74616C2072616973656420776F756C64206F766572666C6F770000000000 DUP9 PUSH1 0x40 MLOAD SWAP3 PUSH3 0x461BCD PUSH1 0xE5 SHL DUP5 MSTORE PUSH1 0x4 DUP5 ADD MSTORE PUSH1 0x1B PUSH1 0x24 DUP5 ADD MSTORE DUP3 ADD MSTORE REVERT JUMPDEST PUSH4 0x4E487B71 PUSH1 0xE0 SHL PUSH1 0x0 MSTORE PUSH1 0x11 PUSH1 0x4 MSTORE PUSH1 0x24 PUSH1 0x0 REVERT JUMPDEST PUSH1 0x64 DUP14 PUSH32 0x496E766573746D656E7420616D6F756E7420746F6F206C617267650000000000 DUP9 PUSH1 0x40 MLOAD SWAP3 PUSH3 0x461BCD PUSH1 0xE5 SHL DUP5 MSTORE PUSH1 0x4 DUP5 ADD MSTORE PUSH1 0x1B PUSH1 0x24 DUP5 ADD MSTORE DUP3 ADD MSTORE REVERT JUMPDEST PUSH1 0x64 DUP13 PUSH32 0x4578636565647320636170000000000000000000000000000000000000000000 DUP8 PUSH1 0x40 MLOAD SWAP3 PUSH3 0x461BCD PUSH1 0xE5 SHL DUP5 MSTORE PUSH1 0x4 DUP5 ADD MSTORE PUSH1 0xB PUSH1 0x24 DUP5 ADD MSTORE DUP3 ADD MSTORE REVERT JUMPDEST PUSH1 0x64 DUP12 PUSH32 0x45786365656473206D617820696E766573746D656E7400000000000000000000 DUP7 PUSH1 0x40 MLOAD SWAP3 PUSH3 0x461BCD PUSH1 0xE5 SHL DUP5 MSTORE PUSH1 0x4 DUP5 ADD MSTORE PUSH1 0x16 PUSH1 0x24 DUP5 ADD MSTORE DUP3 ADD MSTORE REVERT JUMPDEST PUSH1 0x64 DUP12 PUSH32 0x42656C6F77206D696E20696E766573746D656E74000000000000000000000000 DUP7 PUSH1 0x40 MLOAD SWAP3 PUSH3 0x461BCD PUSH1 0xE5 SHL DUP5 MSTORE PUSH1 0x4 DUP5 ADD MSTORE PUSH1 0x14 PUSH1 0x24 DUP5 ADD MSTORE DUP3 ADD MSTORE REVERT JUMPDEST PUSH1 0x64 DUP12 PUSH32 0x5553442076616C75652063616C63756C6174696F6E206F766572666C6F770000 DUP7 PUSH1 0x40 MLOAD SWAP3 PUSH3 0x461BCD PUSH1 0xE5 SHL DUP5 MSTORE PUSH1 0x4 DUP5 ADD MSTORE PUSH1 0x1E PUSH1 0x24 DUP5 ADD MSTORE DUP3 ADD MSTORE REVERT JUMPDEST PUSH1 0x24 DUP7 PUSH4 0x4E487B71 PUSH1 0xE0 SHL DUP2 MSTORE PUSH1 0x11 PUSH1 0x4 MSTORE REVERT JUMPDEST PUSH1 0x40 MLOAD PUSH32 0x313CE56700000000000000000000000000000000000000000000000000000000 DUP2 MSTORE DUP11 DUP2 PUSH1 0x4 DUP2 DUP6 GAS STATICCALL DUP1 ISZERO PUSH2 0x124A JUMPI DUP6 SWAP1 PUSH2 0x1E6B JUMPI JUMPDEST PUSH2 0x1583 SWAP2 POP SWAP10 PUSH2 0x157D JUMP JUMPDEST POP DUP11 DUP2 DUP2 RETURNDATASIZE DUP4 GT PUSH2 0x1EA1 JUMPI JUMPDEST PUSH2 0x1E81 DUP2 DUP4 PUSH2 0x304D JUMP JUMPDEST DUP2 ADD SUB SLT PUSH2 0x1E9D JUMPI MLOAD PUSH1 0xFF DUP2 AND DUP2 SUB PUSH2 0x1E9D JUMPI PUSH2 0x1583 SWAP1 PUSH2 0x1E60 JUMP JUMPDEST DUP5 DUP1 REVERT JUMPDEST POP RETURNDATASIZE PUSH2 0x1E77 JUMP JUMPDEST PUSH1 0x64 DUP10 PUSH32 0x5072696365206461746120746F6F207374616C65000000000000000000000000 DUP5 PUSH1 0x40 MLOAD SWAP3 PUSH3 0x461BCD PUSH1 0xE5 SHL DUP5 MSTORE PUSH1 0x4 DUP5 ADD MSTORE PUSH1 0x14 PUSH1 0x24 DUP5 ADD MSTORE DUP3 ADD MSTORE REVERT JUMPDEST PUSH1 0x64 DUP11 PUSH32 0x496E76616C696420707269636500000000000000000000000000000000000000 DUP6 PUSH1 0x40 MLOAD SWAP3 PUSH3 0x461BCD PUSH1 0xE5 SHL DUP5 MSTORE PUSH1 0x4 DUP5 ADD MSTORE PUSH1 0xD PUSH1 0x24 DUP5 ADD MSTORE DUP3 ADD MSTORE REVERT JUMPDEST SWAP9 POP POP PUSH1 0x40 DUP9 RETURNDATASIZE PUSH1 0x40 GT PUSH2 0x1F7A JUMPI JUMPDEST DUP2 PUSH2 0x1F4A PUSH1 0x40 SWAP4 DUP4 PUSH2 0x304D JUMP JUMPDEST DUP2 ADD SUB SLT PUSH2 0x1F76 JUMPI DUP8 MLOAD SWAP8 DUP9 PUSH1 0x1B SIGNEXTEND DUP10 SUB PUSH2 0x521 JUMPI DUP10 ADD MLOAD SWAP8 PUSH4 0xFFFFFFFF DUP10 AND DUP10 SUB PUSH2 0x521 JUMPI CODESIZE PUSH2 0x1547 JUMP JUMPDEST DUP3 DUP1 REVERT JUMPDEST RETURNDATASIZE SWAP2 POP PUSH2 0x1F3D JUMP JUMPDEST PUSH1 0x40 MLOAD RETURNDATASIZE DUP6 DUP3 RETURNDATACOPY RETURNDATASIZE SWAP1 REVERT JUMPDEST PUSH1 0x64 DUP9 PUSH32 0x4F7261636C65206E6F7420736574000000000000000000000000000000000000 DUP12 PUSH1 0x40 MLOAD SWAP3 PUSH3 0x461BCD PUSH1 0xE5 SHL DUP5 MSTORE PUSH1 0x4 DUP5 ADD MSTORE PUSH1 0xE PUSH1 0x24 DUP5 ADD MSTORE DUP3 ADD MSTORE REVERT JUMPDEST PUSH1 0x64 DUP8 PUSH32 0x5A65726F20616D6F756E74000000000000000000000000000000000000000000 DUP11 PUSH1 0x40 MLOAD SWAP3 PUSH3 0x461BCD PUSH1 0xE5 SHL DUP5 MSTORE PUSH1 0x4 DUP5 ADD MSTORE PUSH1 0xB PUSH1 0x24 DUP5 ADD MSTORE DUP3 ADD MSTORE REVERT JUMPDEST PUSH1 0x64 DUP8 PUSH32 0x546F6B656E206E6F742077686974656C69737465640000000000000000000000 DUP11 PUSH1 0x40 MLOAD SWAP3 PUSH3 0x461BCD PUSH1 0xE5 SHL DUP5 MSTORE PUSH1 0x4 DUP5 ADD MSTORE PUSH1 0x15 PUSH1 0x24 DUP5 ADD MSTORE DUP3 ADD MSTORE REVERT JUMPDEST PUSH1 0x64 DUP7 PUSH32 0x53616C6520656E64656400000000000000000000000000000000000000000000 PUSH1 0x40 MLOAD SWAP2 PUSH3 0x461BCD PUSH1 0xE5 SHL DUP4 MSTORE PUSH1 0x20 PUSH1 0x4 DUP5 ADD MSTORE PUSH1 0xA PUSH1 0x24 DUP5 ADD MSTORE DUP3 ADD MSTORE REVERT JUMPDEST PUSH1 0x64 DUP7 PUSH32 0x53616C65206E6F74207374617274656400000000000000000000000000000000 PUSH1 0x40 MLOAD SWAP2 PUSH3 0x461BCD PUSH1 0xE5 SHL DUP4 MSTORE PUSH1 0x20 PUSH1 0x4 DUP5 ADD MSTORE PUSH1 0x10 PUSH1 0x24 DUP5 ADD MSTORE DUP3 ADD MSTORE REVERT JUMPDEST PUSH1 0x64 DUP8 PUSH32 0x53616C6520697320636C6F736564000000000000000000000000000000000000 PUSH1 0x40 MLOAD SWAP2 PUSH3 0x461BCD PUSH1 0xE5 SHL DUP4 MSTORE PUSH1 0x20 PUSH1 0x4 DUP5 ADD MSTORE PUSH1 0xE PUSH1 0x24 DUP5 ADD MSTORE DUP3 ADD MSTORE REVERT JUMPDEST PUSH1 0x64 DUP7 PUSH32 0x496E76616C696420696E766573746F7220616464726573730000000000000000 PUSH1 0x40 MLOAD SWAP2 PUSH3 0x461BCD PUSH1 0xE5 SHL DUP4 MSTORE PUSH1 0x20 PUSH1 0x4 DUP5 ADD MSTORE PUSH1 0x18 PUSH1 0x24 DUP5 ADD MSTORE DUP3 ADD MSTORE REVERT JUMPDEST POP CALLVALUE PUSH2 0x2FD JUMPI DUP1 PUSH1 0x3 NOT CALLDATASIZE ADD SLT PUSH2 0x2FD JUMPI PUSH1 0x20 PUSH1 0x1 PUSH1 0x1 PUSH1 0xA0 SHL SUB PUSH1 0x10 SLOAD PUSH1 0x10 SHR AND PUSH1 0x40 MLOAD SWAP1 DUP2 MSTORE RETURN JUMPDEST POP CALLVALUE PUSH2 0x2FD JUMPI DUP1 PUSH1 0x3 NOT CALLDATASIZE ADD SLT PUSH2 0x2FD JUMPI PUSH1 0x20 PUSH1 0x1 PUSH1 0x1 PUSH1 0xA0 SHL SUB PUSH1 0xE SLOAD AND PUSH1 0x40 MLOAD SWAP1 DUP2 MSTORE RETURN JUMPDEST POP CALLVALUE PUSH2 0x2FD JUMPI DUP1 PUSH1 0x3 NOT CALLDATASIZE ADD SLT PUSH2 0x2FD JUMPI PUSH1 0x20 PUSH1 0xFF PUSH1 0x1 SLOAD AND PUSH1 0x40 MLOAD SWAP1 ISZERO ISZERO DUP2 MSTORE RETURN JUMPDEST POP CALLVALUE PUSH2 0x2FD JUMPI DUP1 PUSH1 0x3 NOT CALLDATASIZE ADD SLT PUSH2 0x2FD JUMPI PUSH1 0x20 PUSH1 0xFF PUSH1 0xC SLOAD PUSH1 0x18 SHR AND PUSH1 0x40 MLOAD SWAP1 ISZERO ISZERO DUP2 MSTORE RETURN JUMPDEST POP CALLVALUE PUSH2 0x2FD JUMPI DUP1 PUSH1 0x3 NOT CALLDATASIZE ADD SLT PUSH2 0x2FD JUMPI PUSH2 0x2219 PUSH2 0x30E0 JUMP JUMPDEST PUSH1 0xC SLOAD PUSH2 0x222C PUSH1 0xFF DUP3 PUSH1 0x8 SHR AND ISZERO PUSH2 0x33CA JUMP JUMPDEST PUSH1 0xFF DUP2 PUSH1 0x10 SHR AND PUSH2 0x22D8 JUMPI PUSH3 0xFF00FF NOT AND PUSH3 0x10001 OR PUSH1 0xC SSTORE PUSH1 0x11 SLOAD DUP2 SWAP1 PUSH1 0x1 PUSH1 0x1 PUSH1 0xA0 SHL SUB AND DUP1 EXTCODESIZE ISZERO PUSH2 0xF8F JUMPI DUP2 DUP1 SWAP2 PUSH1 0x4 PUSH1 0x40 MLOAD DUP1 SWAP5 DUP2 SWAP4 PUSH32 0xDCDCAFAA00000000000000000000000000000000000000000000000000000000 DUP4 MSTORE GAS CALL DUP1 ISZERO PUSH2 0x516 JUMPI PUSH2 0x22C4 JUMPI JUMPDEST POP PUSH32 0xA94FBE15A0DDBADFC15077A69292DD28A535C34F78B22A3FCAC5463A9E1256D PUSH1 0x20 PUSH1 0x40 MLOAD TIMESTAMP DUP2 MSTORE LOG1 DUP1 RETURN JUMPDEST PUSH2 0x22CD SWAP1 PUSH2 0x3039 JUMP JUMPDEST PUSH2 0x2FD JUMPI DUP1 CODESIZE PUSH2 0x2296 JUMP JUMPDEST PUSH1 0x64 PUSH1 0x40 MLOAD PUSH3 0x461BCD PUSH1 0xE5 SHL DUP2 MSTORE PUSH1 0x20 PUSH1 0x4 DUP3 ADD MSTORE PUSH1 0x11 PUSH1 0x24 DUP3 ADD MSTORE PUSH32 0x416C72656164792063616E63656C6C6564000000000000000000000000000000 PUSH1 0x44 DUP3 ADD MSTORE REVERT JUMPDEST POP CALLVALUE PUSH2 0x2FD JUMPI PUSH2 0x1E0 DUP1 PUSH1 0x3 NOT CALLDATASIZE ADD SLT PUSH2 0x1317 JUMPI PUSH1 0x40 MLOAD SWAP1 DUP2 ADD DUP2 DUP2 LT PUSH8 0xFFFFFFFFFFFFFFFF DUP3 GT OR PUSH2 0x18B0 JUMPI PUSH1 0x40 MSTORE PUSH2 0x2354 PUSH2 0x300D JUMP JUMPDEST DUP2 MSTORE PUSH1 0x24 CALLDATALOAD PUSH1 0x20 DUP3 ADD MSTORE PUSH1 0x44 CALLDATALOAD PUSH1 0x40 DUP3 ADD MSTORE PUSH1 0x64 CALLDATALOAD PUSH1 0x60 DUP3 ADD MSTORE PUSH1 0x84 CALLDATALOAD PUSH1 0x80 DUP3 ADD MSTORE PUSH1 0xA4 CALLDATALOAD PUSH1 0xA0 DUP3 ADD MSTORE PUSH1 0xC4 CALLDATALOAD PUSH1 0xC0 DUP3 ADD MSTORE PUSH1 0xE4 CALLDATALOAD PUSH1 0xE0 DUP3 ADD MSTORE PUSH1 0x1 PUSH1 0x1 PUSH1 0xA0 SHL SUB PUSH2 0x104 CALLDATALOAD AND PUSH2 0x104 CALLDATALOAD SUB PUSH2 0x683 JUMPI PUSH2 0x104 CALLDATALOAD PUSH2 0x100 DUP3 ADD MSTORE PUSH1 0x1 PUSH1 0x1 PUSH1 0xA0 SHL SUB PUSH2 0x124 CALLDATALOAD AND PUSH2 0x124 CALLDATALOAD SUB PUSH2 0x683 JUMPI PUSH2 0x124 CALLDATALOAD PUSH2 0x120 DUP3 ADD MSTORE PUSH2 0x144 CALLDATALOAD DUP1 ISZERO ISZERO DUP2 SUB PUSH2 0x683 JUMPI PUSH2 0x140 DUP3 ADD MSTORE PUSH2 0x164 CALLDATALOAD PUSH1 0x1 PUSH1 0x1 PUSH1 0xA0 SHL SUB DUP2 AND DUP2 SUB PUSH2 0x683 JUMPI PUSH2 0x160 DUP3 ADD MSTORE PUSH1 0x1 PUSH1 0x1 PUSH1 0xA0 SHL SUB PUSH2 0x184 CALLDATALOAD AND PUSH2 0x184 CALLDATALOAD SUB PUSH2 0x683 JUMPI PUSH2 0x184 CALLDATALOAD PUSH2 0x180 DUP3 ADD MSTORE PUSH1 0x1 PUSH1 0x1 PUSH1 0xA0 SHL SUB PUSH2 0x1A4 CALLDATALOAD AND PUSH2 0x1A4 CALLDATALOAD SUB PUSH2 0x683 JUMPI PUSH2 0x1A4 CALLDATALOAD PUSH2 0x1A0 DUP3 ADD MSTORE PUSH2 0x1C4 CALLDATALOAD PUSH2 0x1C0 DUP3 ADD MSTORE PUSH1 0xFF PUSH1 0x10 SLOAD PUSH1 0x8 SHR AND PUSH2 0x29E0 JUMPI PUSH1 0x1 PUSH1 0x1 PUSH1 0xA0 SHL SUB DUP2 MLOAD AND ISZERO PUSH2 0x299C JUMPI PUSH1 0x1 PUSH1 0x1 PUSH1 0xA0 SHL SUB PUSH2 0x100 DUP3 ADD MLOAD AND ISZERO PUSH2 0x2958 JUMPI PUSH1 0x1 PUSH1 0x1 PUSH1 0xA0 SHL SUB PUSH2 0x120 DUP3 ADD MLOAD AND ISZERO PUSH2 0x2914 JUMPI PUSH1 0x1 PUSH1 0x1 PUSH1 0xA0 SHL SUB PUSH2 0x180 DUP3 ADD MLOAD AND ISZERO PUSH2 0x28AA JUMPI PUSH1 0xA0 DUP2 ADD MLOAD ISZERO PUSH2 0x2866 JUMPI PUSH1 0xC0 DUP2 ADD MLOAD ISZERO PUSH2 0x2822 JUMPI PUSH1 0xA0 DUP2 ADD MLOAD PUSH1 0xC0 DUP3 ADD MLOAD LT PUSH2 0x27B8 JUMPI PUSH1 0xE0 DUP2 ADD MLOAD ISZERO PUSH2 0x2774 JUMPI PUSH1 0x20 DUP2 ADD MLOAD PUSH1 0x40 DUP3 ADD MLOAD LT PUSH2 0x2730 JUMPI PUSH1 0x60 DUP2 ADD MLOAD TIMESTAMP GT PUSH2 0x26EC JUMPI PUSH1 0x60 DUP2 ADD MLOAD PUSH1 0x80 DUP3 ADD MLOAD GT ISZERO PUSH2 0x2682 JUMPI PUSH1 0x1 PUSH1 0x1 PUSH1 0xA0 SHL SUB PUSH2 0x1A0 DUP3 ADD MLOAD AND ISZERO PUSH2 0x263E JUMPI PUSH1 0x1 PUSH1 0x1 PUSH1 0xA0 SHL SUB PUSH2 0x100 DUP3 DUP3 PUSH2 0x262B SWAP5 MLOAD AND PUSH1 0x1 PUSH1 0x1 PUSH1 0xA0 SHL SUB NOT PUSH1 0x3 SLOAD AND OR PUSH1 0x3 SSTORE PUSH1 0x20 DUP2 ADD MLOAD PUSH1 0x4 SSTORE PUSH1 0x40 DUP2 ADD MLOAD PUSH1 0x5 SSTORE PUSH1 0x60 DUP2 ADD MLOAD PUSH1 0x6 SSTORE PUSH1 0x80 DUP2 ADD MLOAD PUSH1 0x7 SSTORE PUSH1 0xA0 DUP2 ADD MLOAD PUSH1 0x8 SSTORE PUSH1 0xC0 DUP2 ADD MLOAD PUSH1 0x9 SSTORE PUSH1 0xE0 DUP2 ADD MLOAD PUSH1 0x12 SSTORE DUP3 PUSH2 0x120 DUP3 ADD MLOAD AND PUSH1 0x1 PUSH1 0x1 PUSH1 0xA0 SHL SUB NOT PUSH1 0x11 SLOAD AND OR PUSH1 0x11 SSTORE PUSH2 0x140 DUP2 ADD MLOAD ISZERO ISZERO PUSH1 0xC SLOAD PUSH32 0xFFFFFFFFFFFFFFFF000000000000000000000000000000000000000000FFFFFF PUSH4 0xFF000000 PUSH24 0xFFFFFFFFFFFFFFFFFFFFFFFFFFFFFFFFFFFFFFFF00000000 PUSH2 0x160 DUP7 ADD MLOAD PUSH1 0x20 SHL AND SWAP4 PUSH1 0x18 SHL AND SWAP2 AND OR OR PUSH1 0xC SSTORE DUP3 PUSH2 0x180 DUP3 ADD MLOAD AND PUSH1 0x1 PUSH1 0x1 PUSH1 0xA0 SHL SUB NOT PUSH1 0xD SLOAD AND OR PUSH1 0xD SSTORE DUP3 PUSH2 0x1A0 DUP3 ADD MLOAD AND PUSH1 0x1 PUSH1 0x1 PUSH1 0xA0 SHL SUB NOT PUSH1 0xE SLOAD AND OR PUSH1 0xE SSTORE PUSH2 0x1C0 DUP2 ADD MLOAD PUSH1 0xF SSTORE PUSH2 0x2622 CALLER PUSH2 0x3162 JUMP JUMPDEST POP ADD MLOAD AND PUSH2 0x31F2 JUMP JUMPDEST POP PUSH2 0x100 PUSH2 0xFF00 NOT PUSH1 0x10 SLOAD AND OR PUSH1 0x10 SSTORE DUP1 RETURN JUMPDEST PUSH1 0x64 PUSH1 0x40 MLOAD PUSH3 0x461BCD PUSH1 0xE5 SHL DUP2 MSTORE PUSH1 0x20 PUSH1 0x4 DUP3 ADD MSTORE PUSH1 0x1C PUSH1 0x24 DUP3 ADD MSTORE PUSH32 0x496E76616C6964207061796F757420746F6B656E206164647265737300000000 PUSH1 0x44 DUP3 ADD MSTORE REVERT JUMPDEST PUSH1 0x84 PUSH1 0x40 MLOAD PUSH3 0x461BCD PUSH1 0xE5 SHL DUP2 MSTORE PUSH1 0x20 PUSH1 0x4 DUP3 ADD MSTORE PUSH1 0x22 PUSH1 0x24 DUP3 ADD MSTORE PUSH32 0x53746172742064617465206D757374206265206265666F726520656E64206461 PUSH1 0x44 DUP3 ADD MSTORE PUSH32 0x7465000000000000000000000000000000000000000000000000000000000000 PUSH1 0x64 DUP3 ADD MSTORE REVERT JUMPDEST PUSH1 0x64 PUSH1 0x40 MLOAD PUSH3 0x461BCD PUSH1 0xE5 SHL DUP2 MSTORE PUSH1 0x20 PUSH1 0x4 DUP3 ADD MSTORE PUSH1 0x20 PUSH1 0x24 DUP3 ADD MSTORE PUSH32 0x53746172742064617465206D75737420626520696E2074686520667574757265 PUSH1 0x44 DUP3 ADD MSTORE REVERT JUMPDEST PUSH1 0x64 PUSH1 0x40 MLOAD PUSH3 0x461BCD PUSH1 0xE5 SHL DUP2 MSTORE PUSH1 0x20 PUSH1 0x4 DUP3 ADD MSTORE PUSH1 0x14 PUSH1 0x24 DUP3 ADD MSTORE PUSH32 0x4D696E203E206D617820696E766573746D656E74000000000000000000000000 PUSH1 0x44 DUP3 ADD MSTORE REVERT JUMPDEST PUSH1 0x64 PUSH1 0x40 MLOAD PUSH3 0x461BCD PUSH1 0xE5 SHL DUP2 MSTORE PUSH1 0x20 PUSH1 0x4 DUP3 ADD MSTORE PUSH1 0x1C PUSH1 0x24 DUP3 ADD MSTORE PUSH32 0x546F6B656E207072696365206D75737420626520706F73697469766500000000 PUSH1 0x44 DUP3 ADD MSTORE REVERT JUMPDEST PUSH1 0x84 PUSH1 0x40 MLOAD PUSH3 0x461BCD PUSH1 0xE5 SHL DUP2 MSTORE PUSH1 0x20 PUSH1 0x4 DUP3 ADD MSTORE PUSH1 0x26 PUSH1 0x24 DUP3 ADD MSTORE PUSH32 0x536F6674206361702063616E6E6F74206578636565642066756E647261697369 PUSH1 0x44 DUP3 ADD MSTORE PUSH32 0x6E67206361700000000000000000000000000000000000000000000000000000 PUSH1 0x64 DUP3 ADD MSTORE REVERT JUMPDEST PUSH1 0x64 PUSH1 0x40 MLOAD PUSH3 0x461BCD PUSH1 0xE5 SHL DUP2 MSTORE PUSH1 0x20 PUSH1 0x4 DUP3 ADD MSTORE PUSH1 0x20 PUSH1 0x24 DUP3 ADD MSTORE PUSH32 0x46756E6472616973696E6720636170206D75737420626520706F736974697665 PUSH1 0x44 DUP3 ADD MSTORE REVERT JUMPDEST PUSH1 0x64 PUSH1 0x40 MLOAD PUSH3 0x461BCD PUSH1 0xE5 SHL DUP2 MSTORE PUSH1 0x20 PUSH1 0x4 DUP3 ADD MSTORE PUSH1 0x19 PUSH1 0x24 DUP3 ADD MSTORE PUSH32 0x536F667420636170206D75737420626520706F73697469766500000000000000 PUSH1 0x44 DUP3 ADD MSTORE REVERT JUMPDEST PUSH1 0x84 PUSH1 0x40 MLOAD PUSH3 0x461BCD PUSH1 0xE5 SHL DUP2 MSTORE PUSH1 0x20 PUSH1 0x4 DUP3 ADD MSTORE PUSH1 0x22 PUSH1 0x24 DUP3 ADD MSTORE PUSH32 0x496E76616C696420696E766573746D656E74206D616E61676572206164647265 PUSH1 0x44 DUP3 ADD MSTORE PUSH32 0x7373000000000000000000000000000000000000000000000000000000000000 PUSH1 0x64 DUP3 ADD MSTORE REVERT JUMPDEST PUSH1 0x64 PUSH1 0x40 MLOAD PUSH3 0x461BCD PUSH1 0xE5 SHL DUP2 MSTORE PUSH1 0x20 PUSH1 0x4 DUP3 ADD MSTORE PUSH1 0x16 PUSH1 0x24 DUP3 ADD MSTORE PUSH32 0x496E76616C696420657363726F77206164647265737300000000000000000000 PUSH1 0x44 DUP3 ADD MSTORE REVERT JUMPDEST PUSH1 0x64 PUSH1 0x40 MLOAD PUSH3 0x461BCD PUSH1 0xE5 SHL DUP2 MSTORE PUSH1 0x20 PUSH1 0x4 DUP3 ADD MSTORE PUSH1 0x13 PUSH1 0x24 DUP3 ADD MSTORE PUSH32 0x496E76616C696420746F6B656E206F776E657200000000000000000000000000 PUSH1 0x44 DUP3 ADD MSTORE REVERT JUMPDEST PUSH1 0x64 PUSH1 0x40 MLOAD PUSH3 0x461BCD PUSH1 0xE5 SHL DUP2 MSTORE PUSH1 0x20 PUSH1 0x4 DUP3 ADD MSTORE PUSH1 0x12 PUSH1 0x24 DUP3 ADD MSTORE PUSH32 0x496E76616C69642073616C6520746F6B656E0000000000000000000000000000 PUSH1 0x44 DUP3 ADD MSTORE REVERT JUMPDEST PUSH1 0x64 PUSH1 0x40 MLOAD PUSH3 0x461BCD PUSH1 0xE5 SHL DUP2 MSTORE PUSH1 0x20 PUSH1 0x4 DUP3 ADD MSTORE PUSH1 0x13 PUSH1 0x24 DUP3 ADD MSTORE PUSH32 0x416C726561647920696E697469616C697A656400000000000000000000000000 PUSH1 0x44 DUP3 ADD MSTORE REVERT JUMPDEST POP CALLVALUE PUSH2 0x2FD JUMPI DUP1 PUSH1 0x3 NOT CALLDATASIZE ADD SLT PUSH2 0x2FD JUMPI PUSH1 0x20 PUSH1 0xFF PUSH1 0xC SLOAD PUSH1 0x8 SHR AND PUSH1 0x40 MLOAD SWAP1 ISZERO ISZERO DUP2 MSTORE RETURN JUMPDEST POP CALLVALUE PUSH2 0x2FD JUMPI DUP1 PUSH1 0x3 NOT CALLDATASIZE ADD SLT PUSH2 0x2FD JUMPI PUSH1 0x20 PUSH1 0x1 PUSH1 0x1 PUSH1 0xA0 SHL SUB PUSH1 0xD SLOAD AND PUSH1 0x40 MLOAD SWAP1 DUP2 MSTORE RETURN JUMPDEST POP CALLVALUE PUSH2 0x2FD JUMPI DUP1 PUSH1 0x3 NOT CALLDATASIZE ADD SLT PUSH2 0x2FD JUMPI PUSH2 0x2A8A PUSH2 0x306F JUMP JUMPDEST PUSH1 0x1 SLOAD PUSH1 0xFF DUP2 AND ISZERO PUSH2 0x2AD6 JUMPI PUSH1 0xFF NOT AND PUSH1 0x1 SSTORE PUSH1 0x20 PUSH1 0x40 MLOAD CALLER DUP2 MSTORE PUSH32 0x5DB9EE0A495BF2E6FF9C91A7834C1BA4FDD244A5E8AA4E537BD38AEAE4B073AA SWAP2 DUP3 SWAP2 LOG1 PUSH1 0x20 PUSH1 0x40 MLOAD CALLER DUP2 MSTORE LOG1 DUP1 RETURN JUMPDEST PUSH1 0x4 PUSH1 0x40 MLOAD PUSH32 0x8DFC202B00000000000000000000000000000000000000000000000000000000 DUP2 MSTORE REVERT JUMPDEST POP CALLVALUE PUSH2 0x2FD JUMPI DUP1 PUSH1 0x3 NOT CALLDATASIZE ADD SLT PUSH2 0x2FD JUMPI PUSH1 0x20 PUSH1 0xC SLOAD PUSH1 0x1 PUSH1 0x1 PUSH1 0xA0 SHL SUB PUSH1 0x40 MLOAD SWAP2 DUP4 SHR AND DUP2 MSTORE RETURN JUMPDEST POP CALLVALUE PUSH2 0x2FD JUMPI DUP1 PUSH1 0x3 NOT CALLDATASIZE ADD SLT PUSH2 0x2FD JUMPI PUSH1 0x6 SLOAD TIMESTAMP LT ISZERO DUP1 PUSH2 0x2BD0 JUMPI JUMPDEST DUP1 PUSH2 0x2BC3 JUMPI JUMPDEST DUP1 PUSH2 0x2BB3 JUMPI JUMPDEST PUSH2 0x120 SWAP1 PUSH1 0xC SLOAD PUSH1 0xA SLOAD PUSH1 0x8 SLOAD PUSH1 0x9 SLOAD SWAP2 PUSH1 0xFF PUSH1 0x7 SLOAD SWAP5 PUSH1 0x40 MLOAD SWAP7 ISZERO ISZERO DUP8 MSTORE DUP2 DUP2 AND ISZERO ISZERO PUSH1 0x20 DUP9 ADD MSTORE DUP2 DUP2 PUSH1 0x8 SHR AND ISZERO ISZERO PUSH1 0x40 DUP9 ADD MSTORE PUSH1 0x10 SHR AND ISZERO ISZERO PUSH1 0x60 DUP7 ADD MSTORE DUP2 DUP2 LT ISZERO PUSH1 0x80 DUP7 ADD MSTORE PUSH1 0xA0 DUP6 ADD MSTORE PUSH1 0xC0 DUP5 ADD MSTORE PUSH1 0xE0 DUP4 ADD MSTORE PUSH2 0x100 DUP3 ADD MSTORE RETURN JUMPDEST POP PUSH1 0xC SLOAD PUSH1 0x10 SHR PUSH1 0xFF AND ISZERO PUSH2 0x2B52 JUMP JUMPDEST POP PUSH1 0xFF PUSH1 0xC SLOAD AND ISZERO PUSH2 0x2B4C JUMP JUMPDEST POP PUSH1 0x7 SLOAD TIMESTAMP LT PUSH2 0x2B46 JUMP JUMPDEST POP CALLVALUE PUSH2 0x2FD JUMPI PUSH1 0x40 CALLDATASIZE PUSH1 0x3 NOT ADD SLT PUSH2 0x2FD JUMPI PUSH2 0x2BF5 PUSH2 0x3023 JUMP JUMPDEST CALLER PUSH1 0x1 PUSH1 0x1 PUSH1 0xA0 SHL SUB DUP3 AND SUB PUSH2 0x2C11 JUMPI PUSH2 0x7B8 SWAP1 PUSH1 0x4 CALLDATALOAD PUSH2 0x331E JUMP JUMPDEST PUSH1 0x4 PUSH1 0x40 MLOAD PUSH32 0x6697B23200000000000000000000000000000000000000000000000000000000 DUP2 MSTORE REVERT JUMPDEST POP CALLVALUE PUSH2 0x2FD JUMPI DUP1 PUSH1 0x3 NOT CALLDATASIZE ADD SLT PUSH2 0x2FD JUMPI PUSH1 0x1 PUSH1 0x1 PUSH1 0xA0 SHL SUB DUP1 PUSH1 0x11 SLOAD AND CALLER SUB PUSH2 0x2D9D JUMPI PUSH1 0x7 SLOAD TIMESTAMP LT PUSH2 0x2D59 JUMPI DUP2 SWAP1 PUSH2 0x101 PUSH1 0xC SLOAD PUSH2 0x2C80 PUSH1 0xFF DUP3 PUSH1 0x8 SHR AND ISZERO PUSH2 0x33CA JUMP JUMPDEST PUSH2 0x2C90 PUSH1 0xFF DUP3 PUSH1 0x10 SHR AND ISZERO PUSH2 0x3415 JUMP JUMPDEST PUSH2 0xFFFF NOT AND OR DUP1 PUSH1 0xC SSTORE PUSH1 0xFF DUP2 PUSH1 0x18 SHR AND DUP1 PUSH2 0x2D4B JUMPI JUMPDEST PUSH2 0x2D07 JUMPI JUMPDEST DUP3 PUSH32 0x88A7D28EAB96D3365F5163F9EC845AC889ACE5A29AE33059254EE6493DEE4A61 PUSH1 0x20 PUSH1 0x40 MLOAD TIMESTAMP DUP2 MSTORE LOG1 PUSH32 0xCB67F20F64495B30F15524C55F90201DD6571D6B5C19DAC183D2AEB25315B2DC PUSH1 0x20 PUSH1 0xA SLOAD PUSH1 0x40 MLOAD SWAP1 DUP2 MSTORE LOG1 DUP1 RETURN JUMPDEST PUSH1 0x20 SHR AND DUP1 EXTCODESIZE ISZERO PUSH2 0xF8F JUMPI DUP2 SWAP1 PUSH1 0x4 PUSH1 0x40 MLOAD DUP1 SWAP5 DUP2 SWAP4 PUSH4 0x78BD678B PUSH1 0xE1 SHL DUP4 MSTORE GAS CALL DUP1 ISZERO PUSH2 0x516 JUMPI PUSH2 0x2D3C JUMPI JUMPDEST DUP1 DUP3 SWAP2 PUSH2 0x2CAC JUMP JUMPDEST PUSH2 0x2D45 SWAP1 PUSH2 0x3039 JUMP JUMPDEST CODESIZE PUSH2 0x2D34 JUMP JUMPDEST POP DUP2 DUP2 PUSH1 0x20 SHR AND ISZERO ISZERO PUSH2 0x2CA7 JUMP JUMPDEST PUSH1 0x64 PUSH1 0x40 MLOAD PUSH3 0x461BCD PUSH1 0xE5 SHL DUP2 MSTORE PUSH1 0x20 PUSH1 0x4 DUP3 ADD MSTORE PUSH1 0x12 PUSH1 0x24 DUP3 ADD MSTORE PUSH32 0x53616C65206E6F7420656E646564207965740000000000000000000000000000 PUSH1 0x44 DUP3 ADD MSTORE REVERT JUMPDEST PUSH1 0x64 PUSH1 0x40 MLOAD PUSH3 0x461BCD PUSH1 0xE5 SHL DUP2 MSTORE PUSH1 0x20 PUSH1 0x4 DUP3 ADD MSTORE PUSH1 0x1A PUSH1 0x24 DUP3 ADD MSTORE PUSH32 0x4E6F7420617574686F72697A656420746F2066696E616C697A65000000000000 PUSH1 0x44 DUP3 ADD MSTORE REVERT JUMPDEST POP CALLVALUE PUSH2 0x2FD JUMPI PUSH1 0x40 CALLDATASIZE PUSH1 0x3 NOT ADD SLT PUSH2 0x2FD JUMPI PUSH2 0x7B8 PUSH1 0x4 CALLDATALOAD PUSH2 0x2E01 PUSH2 0x3023 JUMP JUMPDEST SWAP1 DUP1 DUP5 MSTORE DUP4 PUSH1 0x20 MSTORE PUSH2 0x2E19 PUSH1 0x1 PUSH1 0x40 DUP7 KECCAK256 ADD SLOAD PUSH2 0x313C JUMP JUMPDEST PUSH2 0x32A4 JUMP JUMPDEST POP CALLVALUE PUSH2 0x2FD JUMPI DUP1 PUSH1 0x3 NOT CALLDATASIZE ADD SLT PUSH2 0x2FD JUMPI PUSH1 0x20 PUSH1 0xF SLOAD PUSH1 0x40 MLOAD SWAP1 DUP2 MSTORE RETURN JUMPDEST POP CALLVALUE PUSH2 0x2FD JUMPI PUSH1 0x20 CALLDATASIZE PUSH1 0x3 NOT ADD SLT PUSH2 0x2FD JUMPI PUSH1 0x1 PUSH1 0x40 PUSH1 0x20 SWAP3 PUSH1 0x4 CALLDATALOAD DUP2 MSTORE DUP1 DUP5 MSTORE KECCAK256 ADD SLOAD PUSH1 0x40 MLOAD SWAP1 DUP2 MSTORE RETURN JUMPDEST POP CALLVALUE PUSH2 0x2FD JUMPI DUP1 PUSH1 0x3 NOT CALLDATASIZE ADD SLT PUSH2 0x2FD JUMPI PUSH1 0x20 PUSH1 0xFF PUSH1 0xC SLOAD AND PUSH1 0x40 MLOAD SWAP1 ISZERO ISZERO DUP2 MSTORE RETURN JUMPDEST POP CALLVALUE PUSH2 0x2FD JUMPI PUSH1 0x40 CALLDATASIZE PUSH1 0x3 NOT ADD SLT PUSH2 0x2FD JUMPI PUSH2 0x2EA5 PUSH2 0x300D JUMP JUMPDEST PUSH1 0x24 CALLDATALOAD SWAP1 DUP2 ISZERO ISZERO DUP1 SWAP3 SUB PUSH2 0x1F76 JUMPI PUSH1 0x20 PUSH1 0x1 PUSH1 0x1 PUSH1 0xA0 SHL SUB PUSH32 0x91AD45A5CE97C5EEE55FA01496772AFEFC7F0757ED9EAC59064E642690509DFB SWAP3 PUSH2 0x2EE7 PUSH2 0x306F JUMP JUMPDEST AND SWAP3 DUP4 DUP6 MSTORE PUSH1 0x13 DUP3 MSTORE PUSH1 0x40 DUP6 KECCAK256 PUSH1 0xFF NOT DUP2 SLOAD AND PUSH1 0xFF DUP4 AND OR SWAP1 SSTORE PUSH1 0x40 MLOAD SWAP1 DUP2 MSTORE LOG2 DUP1 RETURN JUMPDEST POP CALLVALUE PUSH2 0x2FD JUMPI DUP1 PUSH1 0x3 NOT CALLDATASIZE ADD SLT PUSH2 0x2FD JUMPI PUSH1 0x20 PUSH1 0x1 PUSH1 0x1 PUSH1 0xA0 SHL SUB PUSH1 0x11 SLOAD AND PUSH1 0x40 MLOAD SWAP1 DUP2 MSTORE RETURN JUMPDEST POP CALLVALUE PUSH2 0x2FD JUMPI DUP1 PUSH1 0x3 NOT CALLDATASIZE ADD SLT PUSH2 0x2FD JUMPI PUSH1 0x20 PUSH1 0x6 SLOAD PUSH1 0x40 MLOAD SWAP1 DUP2 MSTORE RETURN JUMPDEST POP CALLVALUE PUSH2 0x2FD JUMPI PUSH1 0x20 CALLDATASIZE PUSH1 0x3 NOT ADD SLT PUSH2 0x2FD JUMPI PUSH1 0x4 CALLDATALOAD PUSH32 0xFFFFFFFF00000000000000000000000000000000000000000000000000000000 DUP2 AND DUP1 SWAP2 SUB PUSH2 0x1317 JUMPI DUP1 PUSH32 0x7965DB0B00000000000000000000000000000000000000000000000000000000 PUSH1 0x20 SWAP3 EQ SWAP1 DUP2 ISZERO PUSH2 0x2FC7 JUMPI POP PUSH1 0x40 MLOAD SWAP1 ISZERO ISZERO DUP2 MSTORE RETURN JUMPDEST PUSH32 0x1FFC9A700000000000000000000000000000000000000000000000000000000 SWAP2 POP EQ DUP3 PUSH2 0x7E1 JUMP JUMPDEST SWAP1 POP CALLVALUE PUSH2 0x1317 JUMPI DUP2 PUSH1 0x3 NOT CALLDATASIZE ADD SLT PUSH2 0x1317 JUMPI PUSH1 0x20 SWAP1 PUSH1 0x5 SLOAD DUP2 MSTORE RETURN JUMPDEST PUSH1 0x4 CALLDATALOAD SWAP1 PUSH1 0x1 PUSH1 0x1 PUSH1 0xA0 SHL SUB DUP3 AND DUP3 SUB PUSH2 0x683 JUMPI JUMP JUMPDEST PUSH1 0x24 CALLDATALOAD SWAP1 PUSH1 0x1 PUSH1 0x1 PUSH1 0xA0 SHL SUB DUP3 AND DUP3 SUB PUSH2 0x683 JUMPI JUMP JUMPDEST PUSH8 0xFFFFFFFFFFFFFFFF DUP2 GT PUSH2 0x18B0 JUMPI PUSH1 0x40 MSTORE JUMP JUMPDEST SWAP1 PUSH1 0x1F DUP1 NOT SWAP2 ADD AND DUP2 ADD SWAP1 DUP2 LT PUSH8 0xFFFFFFFFFFFFFFFF DUP3 GT OR PUSH2 0x18B0 JUMPI PUSH1 0x40 MSTORE JUMP JUMPDEST CALLER PUSH1 0x0 SWAP1 DUP2 MSTORE PUSH32 0xAD3228B676F7D3CD4284A5443F17F1962B36E491B30A40B2405849E597BA5FB5 PUSH1 0x20 MSTORE PUSH1 0x40 DUP2 KECCAK256 SLOAD PUSH1 0xFF AND ISZERO PUSH2 0x30A9 JUMPI POP JUMP JUMPDEST PUSH1 0x44 SWAP1 PUSH1 0x40 MLOAD SWAP1 PUSH32 0xE2517D3F00000000000000000000000000000000000000000000000000000000 DUP3 MSTORE CALLER PUSH1 0x4 DUP4 ADD MSTORE PUSH1 0x24 DUP3 ADD MSTORE REVERT JUMPDEST CALLER PUSH1 0x0 SWAP1 DUP2 MSTORE PUSH32 0x7DFC0114FC2B0320947240CBD60A9FFC193468A941C37441E641A928A8C116D5 PUSH1 0x20 MSTORE PUSH1 0x40 SWAP1 KECCAK256 SLOAD PUSH32 0x35369B3A7BB98C90641A907C2FD643EA781341EBA72CCFFD47CB018C128C48C3 SWAP1 PUSH1 0xFF AND ISZERO PUSH2 0x30A9 JUMPI POP JUMP JUMPDEST DUP1 PUSH1 0x0 MSTORE PUSH1 0x0 PUSH1 0x20 MSTORE PUSH1 0x40 PUSH1 0x0 KECCAK256 CALLER PUSH1 0x0 MSTORE PUSH1 0x20 MSTORE PUSH1 0xFF PUSH1 0x40 PUSH1 0x0 KECCAK256 SLOAD AND ISZERO PUSH2 0x30A9 JUMPI POP JUMP JUMPDEST PUSH1 0x1 PUSH1 0x1 PUSH1 0xA0 SHL SUB AND PUSH1 0x0 DUP2 DUP2 MSTORE PUSH32 0xAD3228B676F7D3CD4284A5443F17F1962B36E491B30A40B2405849E597BA5FB5 PUSH1 0x20 MSTORE PUSH1 0x40 DUP2 KECCAK256 SLOAD SWAP1 SWAP2 SWAP1 PUSH1 0xFF AND PUSH2 0x31EE JUMPI DUP2 DUP1 MSTORE DUP2 PUSH1 0x20 MSTORE PUSH1 0x40 DUP3 KECCAK256 DUP2 DUP4 MSTORE PUSH1 0x20 MSTORE PUSH1 0x40 DUP3 KECCAK256 PUSH1 0x1 PUSH1 0xFF NOT DUP3 SLOAD AND OR SWAP1 SSTORE CALLER SWAP2 PUSH32 0x2F8788117E7EFF1D82E926EC794901D17C78024A50270940304540A733656F0D DUP2 DUP1 LOG4 PUSH1 0x1 SWAP1 JUMP JUMPDEST POP SWAP1 JUMP JUMPDEST PUSH1 0x1 PUSH1 0x1 PUSH1 0xA0 SHL SUB AND PUSH1 0x0 DUP2 DUP2 MSTORE PUSH32 0x7DFC0114FC2B0320947240CBD60A9FFC193468A941C37441E641A928A8C116D5 PUSH1 0x20 MSTORE PUSH1 0x40 DUP2 KECCAK256 SLOAD SWAP1 SWAP2 SWAP1 PUSH32 0x35369B3A7BB98C90641A907C2FD643EA781341EBA72CCFFD47CB018C128C48C3 SWAP1 PUSH1 0xFF AND PUSH2 0x329F JUMPI DUP1 DUP4 MSTORE DUP3 PUSH1 0x20 MSTORE PUSH1 0x40 DUP4 KECCAK256 DUP3 DUP5 MSTORE PUSH1 0x20 MSTORE PUSH1 0x40 DUP4 KECCAK256 PUSH1 0x1 PUSH1 0xFF NOT DUP3 SLOAD AND OR SWAP1 SSTORE PUSH32 0x2F8788117E7EFF1D82E926EC794901D17C78024A50270940304540A733656F0D CALLER SWAP4 DUP1 LOG4 PUSH1 0x1 SWAP1 JUMP JUMPDEST POP POP SWAP1 JUMP JUMPDEST SWAP1 PUSH1 0x0 SWAP2 DUP1 DUP4 MSTORE DUP3 PUSH1 0x20 MSTORE PUSH1 0x1 PUSH1 0x1 PUSH1 0xA0 SHL SUB PUSH1 0x40 DUP5 KECCAK256 SWAP3 AND SWAP2 DUP3 DUP5 MSTORE PUSH1 0x20 MSTORE PUSH1 0xFF PUSH1 0x40 DUP5 KECCAK256 SLOAD AND ISZERO PUSH1 0x0 EQ PUSH2 0x329F JUMPI DUP1 DUP4 MSTORE DUP3 PUSH1 0x20 MSTORE PUSH1 0x40 DUP4 KECCAK256 DUP3 DUP5 MSTORE PUSH1 0x20 MSTORE PUSH1 0x40 DUP4 KECCAK256 PUSH1 0x1 PUSH1 0xFF NOT DUP3 SLOAD AND OR SWAP1 SSTORE PUSH32 0x2F8788117E7EFF1D82E926EC794901D17C78024A50270940304540A733656F0D CALLER SWAP4 DUP1 LOG4 PUSH1 0x1 SWAP1 JUMP JUMPDEST SWAP1 PUSH1 0x0 SWAP2 DUP1 DUP4 MSTORE DUP3 PUSH1 0x20 MSTORE PUSH1 0x1 PUSH1 0x1 PUSH1 0xA0 SHL SUB PUSH1 0x40 DUP5 KECCAK256 SWAP3 AND SWAP2 DUP3 DUP5 MSTORE PUSH1 0x20 MSTORE PUSH1 0xFF PUSH1 0x40 DUP5 KECCAK256 SLOAD AND PUSH1 0x0 EQ PUSH2 0x329F JUMPI DUP1 DUP4 MSTORE DUP3 PUSH1 0x20 MSTORE PUSH1 0x40 DUP4 KECCAK256 DUP3 DUP5 MSTORE PUSH1 0x20 MSTORE PUSH1 0x40 DUP4 KECCAK256 PUSH1 0xFF NOT DUP2 SLOAD AND SWAP1 SSTORE PUSH32 0xF6391F5C32D9C69D2A47EA670B442974B53935D1EDC7FD64EB21E047A839171B CALLER SWAP4 DUP1 LOG4 PUSH1 0x1 SWAP1 JUMP JUMPDEST PUSH1 0xFF PUSH1 0x1 SLOAD AND PUSH2 0x33A0 JUMPI JUMP JUMPDEST PUSH1 0x4 PUSH1 0x40 MLOAD PUSH32 0xD93C066500000000000000000000000000000000000000000000000000000000 DUP2 MSTORE REVERT JUMPDEST ISZERO PUSH2 0x33D1 JUMPI JUMP JUMPDEST PUSH1 0x64 PUSH1 0x40 MLOAD PUSH3 0x461BCD PUSH1 0xE5 SHL DUP2 MSTORE PUSH1 0x20 PUSH1 0x4 DUP3 ADD MSTORE PUSH1 0x11 PUSH1 0x24 DUP3 ADD MSTORE PUSH32 0x416C72656164792066696E616C697A6564000000000000000000000000000000 PUSH1 0x44 DUP3 ADD MSTORE REVERT JUMPDEST ISZERO PUSH2 0x341C JUMPI JUMP JUMPDEST PUSH1 0x64 PUSH1 0x40 MLOAD PUSH3 0x461BCD PUSH1 0xE5 SHL DUP2 MSTORE PUSH1 0x20 PUSH1 0x4 DUP3 ADD MSTORE PUSH1 0x15 PUSH1 0x24 DUP3 ADD MSTORE PUSH32 0x4F66666572696E672069732063616E63656C6C65640000000000000000000000 PUSH1 0x44 DUP3 ADD MSTORE REVERT JUMPDEST SWAP2 SWAP1 DUP3 ADD DUP1 SWAP3 GT PUSH2 0x1CAC JUMPI JUMP JUMPDEST SWAP2 SWAP1 DUP3 SUB SWAP2 DUP3 GT PUSH2 0x1CAC JUMPI JUMP JUMPDEST DUP2 DUP2 MUL SWAP3 SWAP2 DUP2 ISZERO SWAP2 DUP5 DIV EQ OR ISZERO PUSH2 0x1CAC JUMPI JUMP JUMPDEST DUP2 ISZERO PUSH2 0x3497 JUMPI DIV SWAP1 JUMP JUMPDEST PUSH4 0x4E487B71 PUSH1 0xE0 SHL PUSH1 0x0 MSTORE PUSH1 0x12 PUSH1 0x4 MSTORE PUSH1 0x24 PUSH1 0x0 REVERT JUMPDEST SWAP1 DUP2 PUSH1 0x20 SWAP2 SUB SLT PUSH2 0x683 JUMPI MLOAD DUP1 ISZERO ISZERO DUP2 SUB PUSH2 0x683 JUMPI SWAP1 JUMP JUMPDEST RETURNDATASIZE ISZERO PUSH2 0x3500 JUMPI RETURNDATASIZE SWAP1 PUSH8 0xFFFFFFFFFFFFFFFF DUP3 GT PUSH2 0x18B0 JUMPI PUSH1 0x40 MLOAD SWAP2 PUSH2 0x34F4 PUSH1 0x1F DUP3 ADD PUSH1 0x1F NOT AND PUSH1 0x20 ADD DUP5 PUSH2 0x304D JUMP JUMPDEST DUP3 MSTORE RETURNDATASIZE PUSH1 0x0 PUSH1 0x20 DUP5 ADD RETURNDATACOPY JUMP JUMPDEST PUSH1 0x60 SWAP1 JUMP JUMPDEST PUSH1 0x2 DUP1 SLOAD EQ PUSH2 0x3514 JUMPI PUSH1 0x2 DUP1 SSTORE JUMP JUMPDEST PUSH1 0x4 PUSH1 0x40 MLOAD PUSH32 0x3EE5AEB500000000000000000000000000000000000000000000000000000000 DUP2 MSTORE REVERT JUMPDEST ISZERO PUSH2 0x3545 JUMPI JUMP JUMPDEST PUSH1 0x64 PUSH1 0x40 MLOAD PUSH3 0x461BCD PUSH1 0xE5 SHL DUP2 MSTORE PUSH1 0x20 PUSH1 0x4 DUP3 ADD MSTORE PUSH1 0x1A PUSH1 0x24 DUP3 ADD MSTORE PUSH32 0x4F66666572696E67206E6F742066696E616C697A656420796574000000000000 PUSH1 0x44 DUP3 ADD MSTORE REVERT JUMPDEST ISZERO PUSH2 0x3590 JUMPI JUMP JUMPDEST PUSH1 0x64 PUSH1 0x40 MLOAD PUSH3 0x461BCD PUSH1 0xE5 SHL DUP2 MSTORE PUSH1 0x20 PUSH1 0x4 DUP3 ADD MSTORE PUSH1 0x16 PUSH1 0x24 DUP3 ADD MSTORE PUSH32 0x4F66666572696E67206E6F742066696E616C697A656400000000000000000000 PUSH1 0x44 DUP3 ADD MSTORE REVERT INVALID LOG1 PUSH5 0x736F6C6343 STOP ADDMOD EQ STOP EXP "},"methodIdentifiers":{"DEFAULT_ADMIN_ROLE()":"a217fddf","TOKEN_OWNER_ROLE()":"8a185113","apyEnabled()":"4fff5402","canCancel()":"d0f3725f","canFinalize()":"71e28126","cancelOffering()":"4f4f7c24","claimTokens(address)":"df8de3e7","defaultPayoutFrequency()":"8cd05933","endDate()":"c24a0f8b","escrowAddress()":"0d5defa4","finalizeOffering()":"35a41aaf","finalizeOfferingSoftCap()":"86dea3ec","fundraisingCap()":"b9662797","getOfferingStatus()":"3d70a11d","getRoleAdmin(bytes32)":"248a9ca3","grantRole(bytes32,address)":"2f2ff15d","hasRole(bytes32,address)":"91d14854","initialize((address,uint256,uint256,uint256,uint256,uint256,uint256,uint256,address,address,bool,address,address,address,uint256))":"4cf08fbb","invest(address,address,uint256)":"653ac422","investmentManager()":"4b31bb10","isOfferingCancelled()":"b473acf3","isOfferingFinalized()":"4c6c8a31","isSaleClosed()":"1e1a268b","isSoftCapReached()":"80d32f85","maxInvestment()":"002e1316","minInvestment()":"8ac2c680","pause()":"8456cb59","paused()":"5c975abb","payoutRate()":"2b4353f2","payoutTokenAddress()":"5cc04838","pendingTokens(address)":"c031a66f","reclaimUnclaimedTokens(address)":"77d392f0","removeTokenOracle(address)":"88e32fc2","renounceRole(bytes32,address)":"36568abe","rescueTokens(address,uint256,address)":"b37fd190","revokeRole(bytes32,address)":"d547741f","saleToken()":"e985e367","setTokenOracle(address,address)":"764467cc","setWhitelistedPaymentToken(address,bool)":"1309b324","softCap()":"906a26e0","startDate()":"0b97bc86","supportsInterface(bytes4)":"01ffc9a7","tokenOracles(address)":"bd492432","tokenPrice()":"7ff9b596","totalInvested(address)":"90838e09","totalPendingTokens()":"bbcc0a06","totalRaised()":"c5c4744c","treasury()":"61d027b3","unpause()":"3f4ba83a","whitelistedPaymentTokens(address)":"df695abb","wrappedTokenAddress()":"3e646208"}}}}}