{"contracts/InvestmentManager.sol":{"InvestmentManager":{"abi":[{"inputs":[],"stateMutability":"nonpayable","type":"constructor"},{"inputs":[],"name":"ECDSAInvalidSignature","type":"error"},{"inputs":[{"internalType":"uint256","name":"length","type":"uint256"}],"name":"ECDSAInvalidSignatureLength","type":"error"},{"inputs":[{"internalType":"bytes32","name":"s","type":"bytes32"}],"name":"ECDSAInvalidSignatureS","type":"error"},{"inputs":[{"internalType":"address","name":"owner","type":"address"}],"name":"OwnableInvalidOwner","type":"error"},{"inputs":[{"internalType":"address","name":"account","type":"address"}],"name":"OwnableUnauthorizedAccount","type":"error"},{"anonymous":false,"inputs":[{"indexed":true,"internalType":"address","name":"investor","type":"address"},{"indexed":true,"internalType":"address","name":"offeringAddress","type":"address"},{"indexed":true,"internalType":"address","name":"paymentToken","type":"address"},{"indexed":false,"internalType":"uint256","name":"paidAmount","type":"uint256"},{"indexed":false,"internalType":"uint256","name":"tokensReceived","type":"uint256"}],"name":"InvestmentRouted","type":"event"},{"anonymous":false,"inputs":[{"indexed":true,"internalType":"address","name":"investor","type":"address"},{"indexed":true,"internalType":"address","name":"offeringAddress","type":"address"},{"indexed":true,"internalType":"address","name":"paymentToken","type":"address"},{"indexed":false,"internalType":"uint256","name":"paidAmount","type":"uint256"},{"indexed":false,"internalType":"uint256","name":"tokensReceived","type":"uint256"},{"indexed":false,"internalType":"bytes32","name":"signatureHash","type":"bytes32"}],"name":"KYBValidatedInvestment","type":"event"},{"anonymous":false,"inputs":[{"indexed":true,"internalType":"address","name":"validator","type":"address"}],"name":"KYBValidatorAdded","type":"event"},{"anonymous":false,"inputs":[{"indexed":true,"internalType":"address","name":"validator","type":"address"}],"name":"KYBValidatorRemoved","type":"event"},{"anonymous":false,"inputs":[{"indexed":true,"internalType":"address","name":"oldValidator","type":"address"},{"indexed":true,"internalType":"address","name":"newValidator","type":"address"}],"name":"KYBValidatorUpdated","type":"event"},{"anonymous":false,"inputs":[{"indexed":true,"internalType":"address","name":"previousOwner","type":"address"},{"indexed":true,"internalType":"address","name":"newOwner","type":"address"}],"name":"OwnershipTransferred","type":"event"},{"anonymous":false,"inputs":[{"indexed":true,"internalType":"address","name":"investor","type":"address"},{"indexed":true,"internalType":"address","name":"offeringAddress","type":"address"},{"indexed":true,"internalType":"address","name":"token","type":"address"},{"indexed":false,"internalType":"uint256","name":"amount","type":"uint256"}],"name":"RefundClaimed","type":"event"},{"anonymous":false,"inputs":[{"indexed":true,"internalType":"address","name":"investor","type":"address"},{"indexed":true,"internalType":"address","name":"offeringAddress","type":"address"},{"indexed":false,"internalType":"uint256","name":"amount","type":"uint256"}],"name":"TokensClaimed","type":"event"},{"anonymous":false,"inputs":[{"indexed":true,"internalType":"address","name":"offeringAddress","type":"address"}],"name":"refundEnabled","type":"event"},{"inputs":[{"internalType":"address","name":"_kybValidator","type":"address"}],"name":"addKYBValidator","outputs":[],"stateMutability":"nonpayable","type":"function"},{"inputs":[{"internalType":"address","name":"_offeringAddress","type":"address"}],"name":"claimInvestmentTokens","outputs":[],"stateMutability":"nonpayable","type":"function"},{"inputs":[{"internalType":"address","name":"_offeringContract","type":"address"},{"internalType":"address","name":"_token","type":"address"}],"name":"claimRefund","outputs":[],"stateMutability":"nonpayable","type":"function"},{"inputs":[],"name":"escrowContract","outputs":[{"internalType":"address","name":"","type":"address"}],"stateMutability":"view","type":"function"},{"inputs":[],"name":"getKYBValidatorCount","outputs":[{"internalType":"uint256","name":"count","type":"uint256"}],"stateMutability":"view","type":"function"},{"inputs":[{"internalType":"address","name":"_validator","type":"address"}],"name":"isKYBValidator","outputs":[{"internalType":"bool","name":"isValidator","type":"bool"}],"stateMutability":"view","type":"function"},{"inputs":[{"internalType":"bytes32","name":"_signatureHash","type":"bytes32"}],"name":"isSignatureUsed","outputs":[{"internalType":"bool","name":"isUsed","type":"bool"}],"stateMutability":"view","type":"function"},{"inputs":[],"name":"kybValidatorCount","outputs":[{"internalType":"uint256","name":"","type":"uint256"}],"stateMutability":"view","type":"function"},{"inputs":[{"internalType":"address","name":"","type":"address"}],"name":"kybValidators","outputs":[{"internalType":"bool","name":"","type":"bool"}],"stateMutability":"view","type":"function"},{"inputs":[{"internalType":"address","name":"_offeringContract","type":"address"}],"name":"notifyRefundsEnabled","outputs":[],"stateMutability":"nonpayable","type":"function"},{"inputs":[],"name":"owner","outputs":[{"internalType":"address","name":"","type":"address"}],"stateMutability":"view","type":"function"},{"inputs":[{"internalType":"address","name":"","type":"address"}],"name":"refundsEnabledForOffering","outputs":[{"internalType":"bool","name":"","type":"bool"}],"stateMutability":"view","type":"function"},{"inputs":[{"internalType":"address","name":"_kybValidator","type":"address"}],"name":"removeKYBValidator","outputs":[],"stateMutability":"nonpayable","type":"function"},{"inputs":[],"name":"renounceOwnership","outputs":[],"stateMutability":"nonpayable","type":"function"},{"inputs":[{"internalType":"address","name":"_token","type":"address"},{"internalType":"uint256","name":"_amount","type":"uint256"},{"internalType":"address","name":"_to","type":"address"}],"name":"rescueERC20","outputs":[],"stateMutability":"nonpayable","type":"function"},{"inputs":[{"internalType":"uint256","name":"_amount","type":"uint256"},{"internalType":"address","name":"_to","type":"address"}],"name":"rescueNative","outputs":[],"stateMutability":"nonpayable","type":"function"},{"inputs":[{"internalType":"address","name":"_offeringAddress","type":"address"},{"internalType":"address","name":"_paymentToken","type":"address"},{"internalType":"uint256","name":"_paymentAmount","type":"uint256"}],"name":"routeInvestment","outputs":[],"stateMutability":"payable","type":"function"},{"inputs":[{"internalType":"address","name":"_offeringAddress","type":"address"},{"internalType":"address","name":"_paymentToken","type":"address"},{"internalType":"uint256","name":"_paymentAmount","type":"uint256"},{"internalType":"uint256","name":"_nonce","type":"uint256"},{"internalType":"uint256","name":"_expiry","type":"uint256"},{"internalType":"bytes","name":"_signature","type":"bytes"}],"name":"routeInvestmentWithKYB","outputs":[],"stateMutability":"payable","type":"function"},{"inputs":[{"internalType":"address","name":"_escrowContract","type":"address"}],"name":"setEscrowContract","outputs":[],"stateMutability":"nonpayable","type":"function"},{"inputs":[{"internalType":"address","name":"_kybValidator","type":"address"}],"name":"setKYBValidator","outputs":[],"stateMutability":"nonpayable","type":"function"},{"inputs":[{"internalType":"address","name":"newOwner","type":"address"}],"name":"transferOwnership","outputs":[],"stateMutability":"nonpayable","type":"function"},{"inputs":[{"internalType":"bytes32","name":"","type":"bytes32"}],"name":"usedSignatures","outputs":[{"internalType":"bool","name":"","type":"bool"}],"stateMutability":"view","type":"function"},{"inputs":[{"internalType":"address","name":"_wallet","type":"address"},{"internalType":"uint256","name":"_nonce","type":"uint256"},{"internalType":"uint256","name":"_expiry","type":"uint256"},{"internalType":"bytes","name":"_signature","type":"bytes"}],"name":"verifyKYBSignature","outputs":[{"internalType":"bool","name":"isValid","type":"bool"}],"stateMutability":"view","type":"function"},{"stateMutability":"payable","type":"receive"}],"evm":{"bytecode":{"linkReferences":{},"object":"6080806040523461007a5733156100645760008054336001600160a01b03198216811783556040519290916001600160a01b0316907f8be0079c531659141344cd1fd0a4f28419497f9722a3daafe3b4186f6b6457e09080a36118ec90816100808239f35b631e4fbdf760e01b815260006004820152602490fd5b600080fdfe60806040818152600480361015610021575b505050361561001f57600080fd5b005b600092833560e01c90816305ba484b146112fd5750806318af4c9e1461123c57806325b5c8ba146112025780633d66da8e14610ea45780633e2c3e4414610ddc57806341ade38f14610ca257806345f4f24414610c495780634d80efae14610c1d578063681c423c14610a16578063715018a614610bb357806377662ffc14610a785780638da5cb5b14610a52578063a17d997114610a16578063acf68f7b14610922578063bd01c30014610903578063bf3cc17f1461064b578063c7103ea314610577578063d1726ca9146103a1578063e42a96e714610375578063f2fde38b146102c6578063f42375b51461022e578063f576dd4a146101565763f978fd61036100115734610152576020366003190112610152578160209360ff923581526005855220541690519015158152f35b8280fd5b509034610152576020366003190112610152576001600160a01b0361017961132f565b6101816113e0565b169161018e831515611424565b828452600260205260ff82852054166101ec575081835260026020528220600160ff198254161790556101c260035461146f565b6003557f2192294437b5b338c3c8b632e448e72f44b9d499877c3f3f677980333b4628118280a280f35b6020606492519162461bcd60e51b8352820152601860248201527f56616c696461746f7220616c72656164792065786973747300000000000000006044820152fd5b5034610152576020366003190112610152576001600160a01b0361025061132f565b6102586113e0565b1691821561028357505073ffffffffffffffffffffffffffffffffffffffff19600154161760015580f35b906020606492519162461bcd60e51b8352820152601f60248201527f496e76616c696420657363726f7720636f6e74726163742061646472657373006044820152fd5b5034610152576020366003190112610152576102e061132f565b906102e96113e0565b6001600160a01b038092169283156103465750506000548273ffffffffffffffffffffffffffffffffffffffff19821617600055167f8be0079c531659141344cd1fd0a4f28419497f9722a3daafe3b4186f6b6457e0600080a380f35b908460249251917f1e4fbdf7000000000000000000000000000000000000000000000000000000008352820152fd5b50503461039d578160031936011261039d576020906001600160a01b03600154169051908152f35b5080fd5b5060603660031901126101525760206103b861132f565b916103c1611319565b936044359283926001600160a01b038096169587169687156000146104b957835163329d621160e11b81526001600160a01b03909116918101918252336020830152604082019490945283908190606001038134885af180156104af578690610459575b7f4ca6fa6ca1ea19f82a05490d19bab8e9124bd2c0f8a2e4da4cbf90ce2b85fdf192505b815193845260208401523392a480f35b506020823d82116104a7575b8161047260209383611345565b810103126104a2577f4ca6fa6ca1ea19f82a05490d19bab8e9124bd2c0f8a2e4da4cbf90ce2b85fdf19151610425565b600080fd5b3d9150610465565b81513d88823e3d90fd5b835163329d621160e11b81526001600160a01b03909116918101918252336020830152604082019490945283908190606001038189885af180156104af578690610526575b7f4ca6fa6ca1ea19f82a05490d19bab8e9124bd2c0f8a2e4da4cbf90ce2b85fdf19250610449565b506020823d821161056f575b8161053f60209383611345565b810103126104a2577f4ca6fa6ca1ea19f82a05490d19bab8e9124bd2c0f8a2e4da4cbf90ce2b85fdf191516104fe565b3d9150610532565b5090346101525760203660031901126101525761059261132f565b6001600160a01b0390816001541633036105e25716918284526020528220600160ff198254161790557fd7ef9ff788993c5f1f6b6adbb4f3cf84b3ecaf44d67577300f107aa1fadb1e728280a280f35b608484602085519162461bcd60e51b8352820152602b60248201527f4f6e6c7920457363726f7720636f6e74726163742063616e2063616c6c20746860448201527f69732066756e6374696f6e0000000000000000000000000000000000000000006064820152fd5b5060c03660031901126101525761066061132f565b90610669611319565b9260443591606435906084359060a43567ffffffffffffffff81116108ff576106959036908301611399565b926106a284848333611494565b156108bc579185918594936107249651610732816020998a9687830195309146913389939092609695927f4b59425f56414c49444154494f4e00000000000000000000000000000000000086526bffffffffffffffffffffffff19809560601b16600e87015260228601526042850152606284015260601b1660828201520190565b03601f198101835282611345565b5190207f19457468657265756d205369676e6564204d6573736167653a0a3332000000008b52601c52603c8a208a5260058252848a20805460ff191660011790556001600160a01b03898116999816978961084257855163329d621160e11b81526001600160a01b039091169181019182523360208301526040820193909352829081906060010381348a5af190811561083857889161080b575b50905b8381519101209282519485528401528201527f1f42736f274a87d38cfb6fb2aba76f41e41d2f981b55107d42a3d2527eb4a28560603392a480f35b90508381813d8311610831575b6108228183611345565b810103126104a25751386107cd565b503d610818565b83513d8a823e3d90fd5b855163329d621160e11b81526001600160a01b0390911691810191825233602083015260408201939093528290819060600103818b8a5af190811561083857889161088f575b50906107d0565b90508381813d83116108b5575b6108a68183611345565b810103126104a2575138610888565b503d61089c565b606482602087519162461bcd60e51b8352820152601560248201527f496e76616c6964204b5942207369676e617475726500000000000000000000006044820152fd5b8880fd5b50503461039d578160031936011261039d576020906003549051908152f35b5090346101525760209182600319360112610a12576001600160a01b0361094761132f565b16928251917fdf8de3e70000000000000000000000000000000000000000000000000000000083523390830152808260248188885af1918215610a085785926109b9575b507fa86305abc2db271df4609aa86a8d044bc11fb36939841bfdad6c1ab2b26e94719192519283523392a380f35b91508082813d8311610a01575b6109d08183611345565b810103126104a2577fa86305abc2db271df4609aa86a8d044bc11fb36939841bfdad6c1ab2b26e947191519161098b565b503d6109c6565b83513d87823e3d90fd5b8380fd5b50503461039d57602036600319011261039d5760ff816020936001600160a01b03610a3f61132f565b1681526002855220541690519015158152f35b50503461039d578160031936011261039d576001600160a01b0360209254169051908152f35b50903461015257606036600319011261015257610a9361132f565b6001600160a01b0360443581811692602435918490036104a257602092604491610abb6113e0565b1693610ac88515156117fe565b610ad3831515611849565b610ade811515611894565b87865195869485937fa9059cbb0000000000000000000000000000000000000000000000000000000085528a85015260248401525af1908115610ba9578491610b6f575b5015610b2c578280f35b906020606492519162461bcd60e51b8352820152601c60248201527f455243323020726573637565207472616e73666572206661696c6564000000006044820152fd5b90506020813d8211610ba1575b81610b8960209383611345565b81010312610a1257518015158103610a125738610b22565b3d9150610b7c565b82513d86823e3d90fd5b8334610c1a5780600319360112610c1a57610bcc6113e0565b60006001600160a01b03815473ffffffffffffffffffffffffffffffffffffffff1981168355167f8be0079c531659141344cd1fd0a4f28419497f9722a3daafe3b4186f6b6457e08280a380f35b80fd5b5034610152576020366003190112610152578160209360ff923581526005855220541690519015158152f35b503461015257608036600319011261015257610c6361132f565b926064359067ffffffffffffffff8211610c1a575092610c8b610c9992602095369101611399565b906044359060243590611494565b90519015158152f35b5034610152576020366003190112610152576001600160a01b03610cc461132f565b610ccc6113e0565b1691610cd9831515611424565b828452600260205260ff818520541615610d995760016003541115610d565782845260026020528320805460ff19169055600354908115610d435750600019016003557fedbb10f58a7ffabf46a7894ef02269394350959655518d5fad67cb08791b452f8280a280f35b836011602492634e487b7160e01b835252fd5b906020606492519162461bcd60e51b8352820152601c60248201527f43616e6e6f742072656d6f7665206c6173742076616c696461746f72000000006044820152fd5b906020606492519162461bcd60e51b8352820152601860248201527f56616c696461746f7220646f6573206e6f7420657869737400000000000000006044820152fd5b509034610152576020366003190112610152576001600160a01b03610dff61132f565b610e076113e0565b1691610e14831515611424565b600354610e3c575081835260026020528220600160ff198254161790556101c260035461146f565b6020608492519162461bcd60e51b8352820152602d60248201527f557365206164644b594256616c696461746f7220666f72206164646974696f6e60448201527f616c2076616c696461746f7273000000000000000000000000000000000000006064820152fd5b5091903461039d578060031936011261039d57610ebf61132f565b90610ec8611319565b906001600160a01b03918284169283865260209187835260ff84882054161561119a578415611158578116610f07811580801591611150575b506117fe565b60015484517f7c45e5790000000000000000000000000000000000000000000000000000000081526001600160a01b0388168a8201908152336020820152909791841691908690899081906040010381855afa9788156111465789986110d2575b508751156110905784880192848451160361104e57813b156108ff5785517f5e30b8a60000000000000000000000000000000000000000000000000000000081526001600160a01b03909116818b019081523360208201529091899183919082908490829060400103925af1801561104457611013575b50907f74ce707ecbd67ceda60331b15321122eb484a382378aa41fabe4231420a3d77292915116945192519283523392a480f35b67ffffffffffffffff81989298116110315784529596508638610fdf565b60248260418b634e487b7160e01b835252fd5b85513d8a823e3d90fd5b60648a8688519162461bcd60e51b8352820152601960248201527f546f6b656e206d69736d6174636820666f7220726566756e64000000000000006044820152fd5b60648a8688519162461bcd60e51b8352820152601b60248201527f4e6f206465706f73697420666f756e6420666f7220726566756e6400000000006044820152fd5b9097508581813d831161113f575b6110ea8183611345565b810103126108ff5785519086820182811067ffffffffffffffff82111761112c57875280518252850151848116810361112857858201529638610f68565b8980fd5b60248b60418e634e487b7160e01b835252fd5b503d6110e0565b86513d8b823e3d90fd5b905038610f01565b6064888486519162461bcd60e51b8352820152601960248201527f496e76616c6964206f66666572696e6720636f6e7472616374000000000000006044820152fd5b6084888486519162461bcd60e51b8352820152602560248201527f526566756e6473206e6f7420656e61626c656420666f722074686973206f666660448201527f6572696e670000000000000000000000000000000000000000000000000000006064820152fd5b5034610152576020366003190112610152578160209360ff926001600160a01b0361122b61132f565b168252855220541690519015158152f35b5090346101525780600319360112610152578280808085356001600160a01b03611264611319565b61126c6113e0565b611277831515611849565b16611283811515611894565b5af13d156112f8573d6112958161137d565b906112a284519283611345565b81528460203d92013e5b156112b5578280f35b906020606492519162461bcd60e51b8352820152601d60248201527f4e617469766520726573637565207472616e73666572206661696c65640000006044820152fd5b6112ac565b84903461039d578160031936011261039d576020906003548152f35b602435906001600160a01b03821682036104a257565b600435906001600160a01b03821682036104a257565b90601f8019910116810190811067ffffffffffffffff82111761136757604052565b634e487b7160e01b600052604160045260246000fd5b67ffffffffffffffff811161136757601f01601f191660200190565b81601f820112156104a2578035906113b08261137d565b926113be6040519485611345565b828452602083830101116104a257816000926020809301838601378301015290565b6001600160a01b036000541633036113f457565b60246040517f118cdaa7000000000000000000000000000000000000000000000000000000008152336004820152fd5b1561142b57565b606460405162461bcd60e51b815260206004820152601d60248201527f496e76616c6964204b59422076616c696461746f7220616464726573730000006044820152fd5b600019811461147e5760010190565b634e487b7160e01b600052601160045260246000fd5b60035415611620578242116115dc576040517f4b59425f56414c49444154494f4e000000000000000000000000000000000000602082019081526bffffffffffffffffffffffff19606093841b8116602e840152604283019490945260628201949094524660828201523090911b90911660a28201526115178160b68101610724565b519020904615611598576000917f19457468657265756d205369676e6564204d6573736167653a0a3332000000008352601c52603c8220808352600560205260ff60408420541661159357916001600160a01b0361158561157c60409460ff96611664565b90929192611730565b168152600260205220541690565b505090565b606460405162461bcd60e51b815260206004820152601060248201527f496e76616c696420636861696e204944000000000000000000000000000000006044820152fd5b606460405162461bcd60e51b815260206004820152601160248201527f5369676e617475726520657870697265640000000000000000000000000000006044820152fd5b606460405162461bcd60e51b815260206004820152601560248201527f4e6f204b59422076616c696461746f72732073657400000000000000000000006044820152fd5b81519190604183036116955761168e92506020820151906060604084015193015160001a906116a0565b9192909190565b505060009160029190565b91907f7fffffffffffffffffffffffffffffff5d576e7357a4501ddfe92f46681b20a0841161172457926020929160ff608095604051948552168484015260408301526060820152600092839182805260015afa156117185780516001600160a01b0381161561170f57918190565b50809160019190565b604051903d90823e3d90fd5b50505060009160039190565b60048110156117e85780611742575050565b600181036117745760046040517ff645eedf000000000000000000000000000000000000000000000000000000008152fd5b600281036117ad57602482604051907ffce698f70000000000000000000000000000000000000000000000000000000082526004820152fd5b6003146117b75750565b602490604051907fd78bce0c0000000000000000000000000000000000000000000000000000000082526004820152fd5b634e487b7160e01b600052602160045260246000fd5b1561180557565b606460405162461bcd60e51b815260206004820152601560248201527f496e76616c696420746f6b656e206164647265737300000000000000000000006044820152fd5b1561185057565b606460405162461bcd60e51b815260206004820152601d60248201527f416d6f756e74206d7573742062652067726561746572207468616e20300000006044820152fd5b1561189b57565b606460405162461bcd60e51b815260206004820152601960248201527f496e76616c696420726563697069656e742061646472657373000000000000006044820152fdfea164736f6c6343000814000a","opcodes":"PUSH1 0x80 DUP1 PUSH1 0x40 MSTORE CALLVALUE PUSH2 0x7A JUMPI CALLER ISZERO PUSH2 0x64 JUMPI PUSH1 0x0 DUP1 SLOAD CALLER PUSH1 0x1 PUSH1 0x1 PUSH1 0xA0 SHL SUB NOT DUP3 AND DUP2 OR DUP4 SSTORE PUSH1 0x40 MLOAD SWAP3 SWAP1 SWAP2 PUSH1 0x1 PUSH1 0x1 PUSH1 0xA0 SHL SUB AND SWAP1 PUSH32 0x8BE0079C531659141344CD1FD0A4F28419497F9722A3DAAFE3B4186F6B6457E0 SWAP1 DUP1 LOG3 PUSH2 0x18EC SWAP1 DUP2 PUSH2 0x80 DUP3 CODECOPY RETURN JUMPDEST PUSH4 0x1E4FBDF7 PUSH1 0xE0 SHL DUP2 MSTORE PUSH1 0x0 PUSH1 0x4 DUP3 ADD MSTORE PUSH1 0x24 SWAP1 REVERT JUMPDEST PUSH1 0x0 DUP1 REVERT INVALID PUSH1 0x80 PUSH1 0x40 DUP2 DUP2 MSTORE PUSH1 0x4 DUP1 CALLDATASIZE LT ISZERO PUSH2 0x21 JUMPI JUMPDEST POP POP POP CALLDATASIZE ISZERO PUSH2 0x1F JUMPI PUSH1 0x0 DUP1 REVERT JUMPDEST STOP JUMPDEST PUSH1 0x0 SWAP3 DUP4 CALLDATALOAD PUSH1 0xE0 SHR SWAP1 DUP2 PUSH4 0x5BA484B EQ PUSH2 0x12FD JUMPI POP DUP1 PUSH4 0x18AF4C9E EQ PUSH2 0x123C JUMPI DUP1 PUSH4 0x25B5C8BA EQ PUSH2 0x1202 JUMPI DUP1 PUSH4 0x3D66DA8E EQ PUSH2 0xEA4 JUMPI DUP1 PUSH4 0x3E2C3E44 EQ PUSH2 0xDDC JUMPI DUP1 PUSH4 0x41ADE38F EQ PUSH2 0xCA2 JUMPI DUP1 PUSH4 0x45F4F244 EQ PUSH2 0xC49 JUMPI DUP1 PUSH4 0x4D80EFAE EQ PUSH2 0xC1D JUMPI DUP1 PUSH4 0x681C423C EQ PUSH2 0xA16 JUMPI DUP1 PUSH4 0x715018A6 EQ PUSH2 0xBB3 JUMPI DUP1 PUSH4 0x77662FFC EQ PUSH2 0xA78 JUMPI DUP1 PUSH4 0x8DA5CB5B EQ PUSH2 0xA52 JUMPI DUP1 PUSH4 0xA17D9971 EQ PUSH2 0xA16 JUMPI DUP1 PUSH4 0xACF68F7B EQ PUSH2 0x922 JUMPI DUP1 PUSH4 0xBD01C300 EQ PUSH2 0x903 JUMPI DUP1 PUSH4 0xBF3CC17F EQ PUSH2 0x64B JUMPI DUP1 PUSH4 0xC7103EA3 EQ PUSH2 0x577 JUMPI DUP1 PUSH4 0xD1726CA9 EQ PUSH2 0x3A1 JUMPI DUP1 PUSH4 0xE42A96E7 EQ PUSH2 0x375 JUMPI DUP1 PUSH4 0xF2FDE38B EQ PUSH2 0x2C6 JUMPI DUP1 PUSH4 0xF42375B5 EQ PUSH2 0x22E JUMPI DUP1 PUSH4 0xF576DD4A EQ PUSH2 0x156 JUMPI PUSH4 0xF978FD61 SUB PUSH2 0x11 JUMPI CALLVALUE PUSH2 0x152 JUMPI PUSH1 0x20 CALLDATASIZE PUSH1 0x3 NOT ADD SLT PUSH2 0x152 JUMPI DUP2 PUSH1 0x20 SWAP4 PUSH1 0xFF SWAP3 CALLDATALOAD DUP2 MSTORE PUSH1 0x5 DUP6 MSTORE KECCAK256 SLOAD AND SWAP1 MLOAD SWAP1 ISZERO ISZERO DUP2 MSTORE RETURN JUMPDEST DUP3 DUP1 REVERT JUMPDEST POP SWAP1 CALLVALUE PUSH2 0x152 JUMPI PUSH1 0x20 CALLDATASIZE PUSH1 0x3 NOT ADD SLT PUSH2 0x152 JUMPI PUSH1 0x1 PUSH1 0x1 PUSH1 0xA0 SHL SUB PUSH2 0x179 PUSH2 0x132F JUMP JUMPDEST PUSH2 0x181 PUSH2 0x13E0 JUMP JUMPDEST AND SWAP2 PUSH2 0x18E DUP4 ISZERO ISZERO PUSH2 0x1424 JUMP JUMPDEST DUP3 DUP5 MSTORE PUSH1 0x2 PUSH1 0x20 MSTORE PUSH1 0xFF DUP3 DUP6 KECCAK256 SLOAD AND PUSH2 0x1EC JUMPI POP DUP2 DUP4 MSTORE PUSH1 0x2 PUSH1 0x20 MSTORE DUP3 KECCAK256 PUSH1 0x1 PUSH1 0xFF NOT DUP3 SLOAD AND OR SWAP1 SSTORE PUSH2 0x1C2 PUSH1 0x3 SLOAD PUSH2 0x146F JUMP JUMPDEST PUSH1 0x3 SSTORE PUSH32 0x2192294437B5B338C3C8B632E448E72F44B9D499877C3F3F677980333B462811 DUP3 DUP1 LOG2 DUP1 RETURN JUMPDEST PUSH1 0x20 PUSH1 0x64 SWAP3 MLOAD SWAP2 PUSH3 0x461BCD PUSH1 0xE5 SHL DUP4 MSTORE DUP3 ADD MSTORE PUSH1 0x18 PUSH1 0x24 DUP3 ADD MSTORE PUSH32 0x56616C696461746F7220616C7265616479206578697374730000000000000000 PUSH1 0x44 DUP3 ADD MSTORE REVERT JUMPDEST POP CALLVALUE PUSH2 0x152 JUMPI PUSH1 0x20 CALLDATASIZE PUSH1 0x3 NOT ADD SLT PUSH2 0x152 JUMPI PUSH1 0x1 PUSH1 0x1 PUSH1 0xA0 SHL SUB PUSH2 0x250 PUSH2 0x132F JUMP JUMPDEST PUSH2 0x258 PUSH2 0x13E0 JUMP JUMPDEST AND SWAP2 DUP3 ISZERO PUSH2 0x283 JUMPI POP POP PUSH20 0xFFFFFFFFFFFFFFFFFFFFFFFFFFFFFFFFFFFFFFFF NOT PUSH1 0x1 SLOAD AND OR PUSH1 0x1 SSTORE DUP1 RETURN JUMPDEST SWAP1 PUSH1 0x20 PUSH1 0x64 SWAP3 MLOAD SWAP2 PUSH3 0x461BCD PUSH1 0xE5 SHL DUP4 MSTORE DUP3 ADD MSTORE PUSH1 0x1F PUSH1 0x24 DUP3 ADD MSTORE PUSH32 0x496E76616C696420657363726F7720636F6E7472616374206164647265737300 PUSH1 0x44 DUP3 ADD MSTORE REVERT JUMPDEST POP CALLVALUE PUSH2 0x152 JUMPI PUSH1 0x20 CALLDATASIZE PUSH1 0x3 NOT ADD SLT PUSH2 0x152 JUMPI PUSH2 0x2E0 PUSH2 0x132F JUMP JUMPDEST SWAP1 PUSH2 0x2E9 PUSH2 0x13E0 JUMP JUMPDEST PUSH1 0x1 PUSH1 0x1 PUSH1 0xA0 SHL SUB DUP1 SWAP3 AND SWAP3 DUP4 ISZERO PUSH2 0x346 JUMPI POP POP PUSH1 0x0 SLOAD DUP3 PUSH20 0xFFFFFFFFFFFFFFFFFFFFFFFFFFFFFFFFFFFFFFFF NOT DUP3 AND OR PUSH1 0x0 SSTORE AND PUSH32 0x8BE0079C531659141344CD1FD0A4F28419497F9722A3DAAFE3B4186F6B6457E0 PUSH1 0x0 DUP1 LOG3 DUP1 RETURN JUMPDEST SWAP1 DUP5 PUSH1 0x24 SWAP3 MLOAD SWAP2 PUSH32 0x1E4FBDF700000000000000000000000000000000000000000000000000000000 DUP4 MSTORE DUP3 ADD MSTORE REVERT JUMPDEST POP POP CALLVALUE PUSH2 0x39D JUMPI DUP2 PUSH1 0x3 NOT CALLDATASIZE ADD SLT PUSH2 0x39D JUMPI PUSH1 0x20 SWAP1 PUSH1 0x1 PUSH1 0x1 PUSH1 0xA0 SHL SUB PUSH1 0x1 SLOAD AND SWAP1 MLOAD SWAP1 DUP2 MSTORE RETURN JUMPDEST POP DUP1 REVERT JUMPDEST POP PUSH1 0x60 CALLDATASIZE PUSH1 0x3 NOT ADD SLT PUSH2 0x152 JUMPI PUSH1 0x20 PUSH2 0x3B8 PUSH2 0x132F JUMP JUMPDEST SWAP2 PUSH2 0x3C1 PUSH2 0x1319 JUMP JUMPDEST SWAP4 PUSH1 0x44 CALLDATALOAD SWAP3 DUP4 SWAP3 PUSH1 0x1 PUSH1 0x1 PUSH1 0xA0 SHL SUB DUP1 SWAP7 AND SWAP6 DUP8 AND SWAP7 DUP8 ISZERO PUSH1 0x0 EQ PUSH2 0x4B9 JUMPI DUP4 MLOAD PUSH4 0x329D6211 PUSH1 0xE1 SHL DUP2 MSTORE PUSH1 0x1 PUSH1 0x1 PUSH1 0xA0 SHL SUB SWAP1 SWAP2 AND SWAP2 DUP2 ADD SWAP2 DUP3 MSTORE CALLER PUSH1 0x20 DUP4 ADD MSTORE PUSH1 0x40 DUP3 ADD SWAP5 SWAP1 SWAP5 MSTORE DUP4 SWAP1 DUP2 SWAP1 PUSH1 0x60 ADD SUB DUP2 CALLVALUE DUP9 GAS CALL DUP1 ISZERO PUSH2 0x4AF JUMPI DUP7 SWAP1 PUSH2 0x459 JUMPI JUMPDEST PUSH32 0x4CA6FA6CA1EA19F82A05490D19BAB8E9124BD2C0F8A2E4DA4CBF90CE2B85FDF1 SWAP3 POP JUMPDEST DUP2 MLOAD SWAP4 DUP5 MSTORE PUSH1 0x20 DUP5 ADD MSTORE CALLER SWAP3 LOG4 DUP1 RETURN JUMPDEST POP PUSH1 0x20 DUP3 RETURNDATASIZE DUP3 GT PUSH2 0x4A7 JUMPI JUMPDEST DUP2 PUSH2 0x472 PUSH1 0x20 SWAP4 DUP4 PUSH2 0x1345 JUMP JUMPDEST DUP2 ADD SUB SLT PUSH2 0x4A2 JUMPI PUSH32 0x4CA6FA6CA1EA19F82A05490D19BAB8E9124BD2C0F8A2E4DA4CBF90CE2B85FDF1 SWAP2 MLOAD PUSH2 0x425 JUMP JUMPDEST PUSH1 0x0 DUP1 REVERT JUMPDEST RETURNDATASIZE SWAP2 POP PUSH2 0x465 JUMP JUMPDEST DUP2 MLOAD RETURNDATASIZE DUP9 DUP3 RETURNDATACOPY RETURNDATASIZE SWAP1 REVERT JUMPDEST DUP4 MLOAD PUSH4 0x329D6211 PUSH1 0xE1 SHL DUP2 MSTORE PUSH1 0x1 PUSH1 0x1 PUSH1 0xA0 SHL SUB SWAP1 SWAP2 AND SWAP2 DUP2 ADD SWAP2 DUP3 MSTORE CALLER PUSH1 0x20 DUP4 ADD MSTORE PUSH1 0x40 DUP3 ADD SWAP5 SWAP1 SWAP5 MSTORE DUP4 SWAP1 DUP2 SWAP1 PUSH1 0x60 ADD SUB DUP2 DUP10 DUP9 GAS CALL DUP1 ISZERO PUSH2 0x4AF JUMPI DUP7 SWAP1 PUSH2 0x526 JUMPI JUMPDEST PUSH32 0x4CA6FA6CA1EA19F82A05490D19BAB8E9124BD2C0F8A2E4DA4CBF90CE2B85FDF1 SWAP3 POP PUSH2 0x449 JUMP JUMPDEST POP PUSH1 0x20 DUP3 RETURNDATASIZE DUP3 GT PUSH2 0x56F JUMPI JUMPDEST DUP2 PUSH2 0x53F PUSH1 0x20 SWAP4 DUP4 PUSH2 0x1345 JUMP JUMPDEST DUP2 ADD SUB SLT PUSH2 0x4A2 JUMPI PUSH32 0x4CA6FA6CA1EA19F82A05490D19BAB8E9124BD2C0F8A2E4DA4CBF90CE2B85FDF1 SWAP2 MLOAD PUSH2 0x4FE JUMP JUMPDEST RETURNDATASIZE SWAP2 POP PUSH2 0x532 JUMP JUMPDEST POP SWAP1 CALLVALUE PUSH2 0x152 JUMPI PUSH1 0x20 CALLDATASIZE PUSH1 0x3 NOT ADD SLT PUSH2 0x152 JUMPI PUSH2 0x592 PUSH2 0x132F JUMP JUMPDEST PUSH1 0x1 PUSH1 0x1 PUSH1 0xA0 SHL SUB SWAP1 DUP2 PUSH1 0x1 SLOAD AND CALLER SUB PUSH2 0x5E2 JUMPI AND SWAP2 DUP3 DUP5 MSTORE PUSH1 0x20 MSTORE DUP3 KECCAK256 PUSH1 0x1 PUSH1 0xFF NOT DUP3 SLOAD AND OR SWAP1 SSTORE PUSH32 0xD7EF9FF788993C5F1F6B6ADBB4F3CF84B3ECAF44D67577300F107AA1FADB1E72 DUP3 DUP1 LOG2 DUP1 RETURN JUMPDEST PUSH1 0x84 DUP5 PUSH1 0x20 DUP6 MLOAD SWAP2 PUSH3 0x461BCD PUSH1 0xE5 SHL DUP4 MSTORE DUP3 ADD MSTORE PUSH1 0x2B PUSH1 0x24 DUP3 ADD MSTORE PUSH32 0x4F6E6C7920457363726F7720636F6E74726163742063616E2063616C6C207468 PUSH1 0x44 DUP3 ADD MSTORE PUSH32 0x69732066756E6374696F6E000000000000000000000000000000000000000000 PUSH1 0x64 DUP3 ADD MSTORE REVERT JUMPDEST POP PUSH1 0xC0 CALLDATASIZE PUSH1 0x3 NOT ADD SLT PUSH2 0x152 JUMPI PUSH2 0x660 PUSH2 0x132F JUMP JUMPDEST SWAP1 PUSH2 0x669 PUSH2 0x1319 JUMP JUMPDEST SWAP3 PUSH1 0x44 CALLDATALOAD SWAP2 PUSH1 0x64 CALLDATALOAD SWAP1 PUSH1 0x84 CALLDATALOAD SWAP1 PUSH1 0xA4 CALLDATALOAD PUSH8 0xFFFFFFFFFFFFFFFF DUP2 GT PUSH2 0x8FF JUMPI PUSH2 0x695 SWAP1 CALLDATASIZE SWAP1 DUP4 ADD PUSH2 0x1399 JUMP JUMPDEST SWAP3 PUSH2 0x6A2 DUP5 DUP5 DUP4 CALLER PUSH2 0x1494 JUMP JUMPDEST ISZERO PUSH2 0x8BC JUMPI SWAP2 DUP6 SWAP2 DUP6 SWAP5 SWAP4 PUSH2 0x724 SWAP7 MLOAD PUSH2 0x732 DUP2 PUSH1 0x20 SWAP10 DUP11 SWAP7 DUP8 DUP4 ADD SWAP6 ADDRESS SWAP2 CHAINID SWAP2 CALLER DUP10 SWAP4 SWAP1 SWAP3 PUSH1 0x96 SWAP6 SWAP3 PUSH32 0x4B59425F56414C49444154494F4E000000000000000000000000000000000000 DUP7 MSTORE PUSH12 0xFFFFFFFFFFFFFFFFFFFFFFFF NOT DUP1 SWAP6 PUSH1 0x60 SHL AND PUSH1 0xE DUP8 ADD MSTORE PUSH1 0x22 DUP7 ADD MSTORE PUSH1 0x42 DUP6 ADD MSTORE PUSH1 0x62 DUP5 ADD MSTORE PUSH1 0x60 SHL AND PUSH1 0x82 DUP3 ADD MSTORE ADD SWAP1 JUMP JUMPDEST SUB PUSH1 0x1F NOT DUP2 ADD DUP4 MSTORE DUP3 PUSH2 0x1345 JUMP JUMPDEST MLOAD SWAP1 KECCAK256 PUSH32 0x19457468657265756D205369676E6564204D6573736167653A0A333200000000 DUP12 MSTORE PUSH1 0x1C MSTORE PUSH1 0x3C DUP11 KECCAK256 DUP11 MSTORE PUSH1 0x5 DUP3 MSTORE DUP5 DUP11 KECCAK256 DUP1 SLOAD PUSH1 0xFF NOT AND PUSH1 0x1 OR SWAP1 SSTORE PUSH1 0x1 PUSH1 0x1 PUSH1 0xA0 SHL SUB DUP10 DUP2 AND SWAP10 SWAP9 AND SWAP8 DUP10 PUSH2 0x842 JUMPI DUP6 MLOAD PUSH4 0x329D6211 PUSH1 0xE1 SHL DUP2 MSTORE PUSH1 0x1 PUSH1 0x1 PUSH1 0xA0 SHL SUB SWAP1 SWAP2 AND SWAP2 DUP2 ADD SWAP2 DUP3 MSTORE CALLER PUSH1 0x20 DUP4 ADD MSTORE PUSH1 0x40 DUP3 ADD SWAP4 SWAP1 SWAP4 MSTORE DUP3 SWAP1 DUP2 SWAP1 PUSH1 0x60 ADD SUB DUP2 CALLVALUE DUP11 GAS CALL SWAP1 DUP2 ISZERO PUSH2 0x838 JUMPI DUP9 SWAP2 PUSH2 0x80B JUMPI JUMPDEST POP SWAP1 JUMPDEST DUP4 DUP2 MLOAD SWAP2 ADD KECCAK256 SWAP3 DUP3 MLOAD SWAP5 DUP6 MSTORE DUP5 ADD MSTORE DUP3 ADD MSTORE PUSH32 0x1F42736F274A87D38CFB6FB2ABA76F41E41D2F981B55107D42A3D2527EB4A285 PUSH1 0x60 CALLER SWAP3 LOG4 DUP1 RETURN JUMPDEST SWAP1 POP DUP4 DUP2 DUP2 RETURNDATASIZE DUP4 GT PUSH2 0x831 JUMPI JUMPDEST PUSH2 0x822 DUP2 DUP4 PUSH2 0x1345 JUMP JUMPDEST DUP2 ADD SUB SLT PUSH2 0x4A2 JUMPI MLOAD CODESIZE PUSH2 0x7CD JUMP JUMPDEST POP RETURNDATASIZE PUSH2 0x818 JUMP JUMPDEST DUP4 MLOAD RETURNDATASIZE DUP11 DUP3 RETURNDATACOPY RETURNDATASIZE SWAP1 REVERT JUMPDEST DUP6 MLOAD PUSH4 0x329D6211 PUSH1 0xE1 SHL DUP2 MSTORE PUSH1 0x1 PUSH1 0x1 PUSH1 0xA0 SHL SUB SWAP1 SWAP2 AND SWAP2 DUP2 ADD SWAP2 DUP3 MSTORE CALLER PUSH1 0x20 DUP4 ADD MSTORE PUSH1 0x40 DUP3 ADD SWAP4 SWAP1 SWAP4 MSTORE DUP3 SWAP1 DUP2 SWAP1 PUSH1 0x60 ADD SUB DUP2 DUP12 DUP11 GAS CALL SWAP1 DUP2 ISZERO PUSH2 0x838 JUMPI DUP9 SWAP2 PUSH2 0x88F JUMPI JUMPDEST POP SWAP1 PUSH2 0x7D0 JUMP JUMPDEST SWAP1 POP DUP4 DUP2 DUP2 RETURNDATASIZE DUP4 GT PUSH2 0x8B5 JUMPI JUMPDEST PUSH2 0x8A6 DUP2 DUP4 PUSH2 0x1345 JUMP JUMPDEST DUP2 ADD SUB SLT PUSH2 0x4A2 JUMPI MLOAD CODESIZE PUSH2 0x888 JUMP JUMPDEST POP RETURNDATASIZE PUSH2 0x89C JUMP JUMPDEST PUSH1 0x64 DUP3 PUSH1 0x20 DUP8 MLOAD SWAP2 PUSH3 0x461BCD PUSH1 0xE5 SHL DUP4 MSTORE DUP3 ADD MSTORE PUSH1 0x15 PUSH1 0x24 DUP3 ADD MSTORE PUSH32 0x496E76616C6964204B5942207369676E61747572650000000000000000000000 PUSH1 0x44 DUP3 ADD MSTORE REVERT JUMPDEST DUP9 DUP1 REVERT JUMPDEST POP POP CALLVALUE PUSH2 0x39D JUMPI DUP2 PUSH1 0x3 NOT CALLDATASIZE ADD SLT PUSH2 0x39D JUMPI PUSH1 0x20 SWAP1 PUSH1 0x3 SLOAD SWAP1 MLOAD SWAP1 DUP2 MSTORE RETURN JUMPDEST POP SWAP1 CALLVALUE PUSH2 0x152 JUMPI PUSH1 0x20 SWAP2 DUP3 PUSH1 0x3 NOT CALLDATASIZE ADD SLT PUSH2 0xA12 JUMPI PUSH1 0x1 PUSH1 0x1 PUSH1 0xA0 SHL SUB PUSH2 0x947 PUSH2 0x132F JUMP JUMPDEST AND SWAP3 DUP3 MLOAD SWAP2 PUSH32 0xDF8DE3E700000000000000000000000000000000000000000000000000000000 DUP4 MSTORE CALLER SWAP1 DUP4 ADD MSTORE DUP1 DUP3 PUSH1 0x24 DUP2 DUP9 DUP9 GAS CALL SWAP2 DUP3 ISZERO PUSH2 0xA08 JUMPI DUP6 SWAP3 PUSH2 0x9B9 JUMPI JUMPDEST POP PUSH32 0xA86305ABC2DB271DF4609AA86A8D044BC11FB36939841BFDAD6C1AB2B26E9471 SWAP2 SWAP3 MLOAD SWAP3 DUP4 MSTORE CALLER SWAP3 LOG3 DUP1 RETURN JUMPDEST SWAP2 POP DUP1 DUP3 DUP2 RETURNDATASIZE DUP4 GT PUSH2 0xA01 JUMPI JUMPDEST PUSH2 0x9D0 DUP2 DUP4 PUSH2 0x1345 JUMP JUMPDEST DUP2 ADD SUB SLT PUSH2 0x4A2 JUMPI PUSH32 0xA86305ABC2DB271DF4609AA86A8D044BC11FB36939841BFDAD6C1AB2B26E9471 SWAP2 MLOAD SWAP2 PUSH2 0x98B JUMP JUMPDEST POP RETURNDATASIZE PUSH2 0x9C6 JUMP JUMPDEST DUP4 MLOAD RETURNDATASIZE DUP8 DUP3 RETURNDATACOPY RETURNDATASIZE SWAP1 REVERT JUMPDEST DUP4 DUP1 REVERT JUMPDEST POP POP CALLVALUE PUSH2 0x39D JUMPI PUSH1 0x20 CALLDATASIZE PUSH1 0x3 NOT ADD SLT PUSH2 0x39D JUMPI PUSH1 0xFF DUP2 PUSH1 0x20 SWAP4 PUSH1 0x1 PUSH1 0x1 PUSH1 0xA0 SHL SUB PUSH2 0xA3F PUSH2 0x132F JUMP JUMPDEST AND DUP2 MSTORE PUSH1 0x2 DUP6 MSTORE KECCAK256 SLOAD AND SWAP1 MLOAD SWAP1 ISZERO ISZERO DUP2 MSTORE RETURN JUMPDEST POP POP CALLVALUE PUSH2 0x39D JUMPI DUP2 PUSH1 0x3 NOT CALLDATASIZE ADD SLT PUSH2 0x39D JUMPI PUSH1 0x1 PUSH1 0x1 PUSH1 0xA0 SHL SUB PUSH1 0x20 SWAP3 SLOAD AND SWAP1 MLOAD SWAP1 DUP2 MSTORE RETURN JUMPDEST POP SWAP1 CALLVALUE PUSH2 0x152 JUMPI PUSH1 0x60 CALLDATASIZE PUSH1 0x3 NOT ADD SLT PUSH2 0x152 JUMPI PUSH2 0xA93 PUSH2 0x132F JUMP JUMPDEST PUSH1 0x1 PUSH1 0x1 PUSH1 0xA0 SHL SUB PUSH1 0x44 CALLDATALOAD DUP2 DUP2 AND SWAP3 PUSH1 0x24 CALLDATALOAD SWAP2 DUP5 SWAP1 SUB PUSH2 0x4A2 JUMPI PUSH1 0x20 SWAP3 PUSH1 0x44 SWAP2 PUSH2 0xABB PUSH2 0x13E0 JUMP JUMPDEST AND SWAP4 PUSH2 0xAC8 DUP6 ISZERO ISZERO PUSH2 0x17FE JUMP JUMPDEST PUSH2 0xAD3 DUP4 ISZERO ISZERO PUSH2 0x1849 JUMP JUMPDEST PUSH2 0xADE DUP2 ISZERO ISZERO PUSH2 0x1894 JUMP JUMPDEST DUP8 DUP7 MLOAD SWAP6 DUP7 SWAP5 DUP6 SWAP4 PUSH32 0xA9059CBB00000000000000000000000000000000000000000000000000000000 DUP6 MSTORE DUP11 DUP6 ADD MSTORE PUSH1 0x24 DUP5 ADD MSTORE GAS CALL SWAP1 DUP2 ISZERO PUSH2 0xBA9 JUMPI DUP5 SWAP2 PUSH2 0xB6F JUMPI JUMPDEST POP ISZERO PUSH2 0xB2C JUMPI DUP3 DUP1 RETURN JUMPDEST SWAP1 PUSH1 0x20 PUSH1 0x64 SWAP3 MLOAD SWAP2 PUSH3 0x461BCD PUSH1 0xE5 SHL DUP4 MSTORE DUP3 ADD MSTORE PUSH1 0x1C PUSH1 0x24 DUP3 ADD MSTORE PUSH32 0x455243323020726573637565207472616E73666572206661696C656400000000 PUSH1 0x44 DUP3 ADD MSTORE REVERT JUMPDEST SWAP1 POP PUSH1 0x20 DUP2 RETURNDATASIZE DUP3 GT PUSH2 0xBA1 JUMPI JUMPDEST DUP2 PUSH2 0xB89 PUSH1 0x20 SWAP4 DUP4 PUSH2 0x1345 JUMP JUMPDEST DUP2 ADD SUB SLT PUSH2 0xA12 JUMPI MLOAD DUP1 ISZERO ISZERO DUP2 SUB PUSH2 0xA12 JUMPI CODESIZE PUSH2 0xB22 JUMP JUMPDEST RETURNDATASIZE SWAP2 POP PUSH2 0xB7C JUMP JUMPDEST DUP3 MLOAD RETURNDATASIZE DUP7 DUP3 RETURNDATACOPY RETURNDATASIZE SWAP1 REVERT JUMPDEST DUP4 CALLVALUE PUSH2 0xC1A JUMPI DUP1 PUSH1 0x3 NOT CALLDATASIZE ADD SLT PUSH2 0xC1A JUMPI PUSH2 0xBCC PUSH2 0x13E0 JUMP JUMPDEST PUSH1 0x0 PUSH1 0x1 PUSH1 0x1 PUSH1 0xA0 SHL SUB DUP2 SLOAD PUSH20 0xFFFFFFFFFFFFFFFFFFFFFFFFFFFFFFFFFFFFFFFF NOT DUP2 AND DUP4 SSTORE AND PUSH32 0x8BE0079C531659141344CD1FD0A4F28419497F9722A3DAAFE3B4186F6B6457E0 DUP3 DUP1 LOG3 DUP1 RETURN JUMPDEST DUP1 REVERT JUMPDEST POP CALLVALUE PUSH2 0x152 JUMPI PUSH1 0x20 CALLDATASIZE PUSH1 0x3 NOT ADD SLT PUSH2 0x152 JUMPI DUP2 PUSH1 0x20 SWAP4 PUSH1 0xFF SWAP3 CALLDATALOAD DUP2 MSTORE PUSH1 0x5 DUP6 MSTORE KECCAK256 SLOAD AND SWAP1 MLOAD SWAP1 ISZERO ISZERO DUP2 MSTORE RETURN JUMPDEST POP CALLVALUE PUSH2 0x152 JUMPI PUSH1 0x80 CALLDATASIZE PUSH1 0x3 NOT ADD SLT PUSH2 0x152 JUMPI PUSH2 0xC63 PUSH2 0x132F JUMP JUMPDEST SWAP3 PUSH1 0x64 CALLDATALOAD SWAP1 PUSH8 0xFFFFFFFFFFFFFFFF DUP3 GT PUSH2 0xC1A JUMPI POP SWAP3 PUSH2 0xC8B PUSH2 0xC99 SWAP3 PUSH1 0x20 SWAP6 CALLDATASIZE SWAP2 ADD PUSH2 0x1399 JUMP JUMPDEST SWAP1 PUSH1 0x44 CALLDATALOAD SWAP1 PUSH1 0x24 CALLDATALOAD SWAP1 PUSH2 0x1494 JUMP JUMPDEST SWAP1 MLOAD SWAP1 ISZERO ISZERO DUP2 MSTORE RETURN JUMPDEST POP CALLVALUE PUSH2 0x152 JUMPI PUSH1 0x20 CALLDATASIZE PUSH1 0x3 NOT ADD SLT PUSH2 0x152 JUMPI PUSH1 0x1 PUSH1 0x1 PUSH1 0xA0 SHL SUB PUSH2 0xCC4 PUSH2 0x132F JUMP JUMPDEST PUSH2 0xCCC PUSH2 0x13E0 JUMP JUMPDEST AND SWAP2 PUSH2 0xCD9 DUP4 ISZERO ISZERO PUSH2 0x1424 JUMP JUMPDEST DUP3 DUP5 MSTORE PUSH1 0x2 PUSH1 0x20 MSTORE PUSH1 0xFF DUP2 DUP6 KECCAK256 SLOAD AND ISZERO PUSH2 0xD99 JUMPI PUSH1 0x1 PUSH1 0x3 SLOAD GT ISZERO PUSH2 0xD56 JUMPI DUP3 DUP5 MSTORE PUSH1 0x2 PUSH1 0x20 MSTORE DUP4 KECCAK256 DUP1 SLOAD PUSH1 0xFF NOT AND SWAP1 SSTORE PUSH1 0x3 SLOAD SWAP1 DUP2 ISZERO PUSH2 0xD43 JUMPI POP PUSH1 0x0 NOT ADD PUSH1 0x3 SSTORE PUSH32 0xEDBB10F58A7FFABF46A7894EF02269394350959655518D5FAD67CB08791B452F DUP3 DUP1 LOG2 DUP1 RETURN JUMPDEST DUP4 PUSH1 0x11 PUSH1 0x24 SWAP3 PUSH4 0x4E487B71 PUSH1 0xE0 SHL DUP4 MSTORE MSTORE REVERT JUMPDEST SWAP1 PUSH1 0x20 PUSH1 0x64 SWAP3 MLOAD SWAP2 PUSH3 0x461BCD PUSH1 0xE5 SHL DUP4 MSTORE DUP3 ADD MSTORE PUSH1 0x1C PUSH1 0x24 DUP3 ADD MSTORE PUSH32 0x43616E6E6F742072656D6F7665206C6173742076616C696461746F7200000000 PUSH1 0x44 DUP3 ADD MSTORE REVERT JUMPDEST SWAP1 PUSH1 0x20 PUSH1 0x64 SWAP3 MLOAD SWAP2 PUSH3 0x461BCD PUSH1 0xE5 SHL DUP4 MSTORE DUP3 ADD MSTORE PUSH1 0x18 PUSH1 0x24 DUP3 ADD MSTORE PUSH32 0x56616C696461746F7220646F6573206E6F742065786973740000000000000000 PUSH1 0x44 DUP3 ADD MSTORE REVERT JUMPDEST POP SWAP1 CALLVALUE PUSH2 0x152 JUMPI PUSH1 0x20 CALLDATASIZE PUSH1 0x3 NOT ADD SLT PUSH2 0x152 JUMPI PUSH1 0x1 PUSH1 0x1 PUSH1 0xA0 SHL SUB PUSH2 0xDFF PUSH2 0x132F JUMP JUMPDEST PUSH2 0xE07 PUSH2 0x13E0 JUMP JUMPDEST AND SWAP2 PUSH2 0xE14 DUP4 ISZERO ISZERO PUSH2 0x1424 JUMP JUMPDEST PUSH1 0x3 SLOAD PUSH2 0xE3C JUMPI POP DUP2 DUP4 MSTORE PUSH1 0x2 PUSH1 0x20 MSTORE DUP3 KECCAK256 PUSH1 0x1 PUSH1 0xFF NOT DUP3 SLOAD AND OR SWAP1 SSTORE PUSH2 0x1C2 PUSH1 0x3 SLOAD PUSH2 0x146F JUMP JUMPDEST PUSH1 0x20 PUSH1 0x84 SWAP3 MLOAD SWAP2 PUSH3 0x461BCD PUSH1 0xE5 SHL DUP4 MSTORE DUP3 ADD MSTORE PUSH1 0x2D PUSH1 0x24 DUP3 ADD MSTORE PUSH32 0x557365206164644B594256616C696461746F7220666F72206164646974696F6E PUSH1 0x44 DUP3 ADD MSTORE PUSH32 0x616C2076616C696461746F727300000000000000000000000000000000000000 PUSH1 0x64 DUP3 ADD MSTORE REVERT JUMPDEST POP SWAP2 SWAP1 CALLVALUE PUSH2 0x39D JUMPI DUP1 PUSH1 0x3 NOT CALLDATASIZE ADD SLT PUSH2 0x39D JUMPI PUSH2 0xEBF PUSH2 0x132F JUMP JUMPDEST SWAP1 PUSH2 0xEC8 PUSH2 0x1319 JUMP JUMPDEST SWAP1 PUSH1 0x1 PUSH1 0x1 PUSH1 0xA0 SHL SUB SWAP2 DUP3 DUP5 AND SWAP3 DUP4 DUP7 MSTORE PUSH1 0x20 SWAP2 DUP8 DUP4 MSTORE PUSH1 0xFF DUP5 DUP9 KECCAK256 SLOAD AND ISZERO PUSH2 0x119A JUMPI DUP5 ISZERO PUSH2 0x1158 JUMPI DUP2 AND PUSH2 0xF07 DUP2 ISZERO DUP1 DUP1 ISZERO SWAP2 PUSH2 0x1150 JUMPI JUMPDEST POP PUSH2 0x17FE JUMP JUMPDEST PUSH1 0x1 SLOAD DUP5 MLOAD PUSH32 0x7C45E57900000000000000000000000000000000000000000000000000000000 DUP2 MSTORE PUSH1 0x1 PUSH1 0x1 PUSH1 0xA0 SHL SUB DUP9 AND DUP11 DUP3 ADD SWAP1 DUP2 MSTORE CALLER PUSH1 0x20 DUP3 ADD MSTORE SWAP1 SWAP8 SWAP2 DUP5 AND SWAP2 SWAP1 DUP7 SWAP1 DUP10 SWAP1 DUP2 SWAP1 PUSH1 0x40 ADD SUB DUP2 DUP6 GAS STATICCALL SWAP8 DUP9 ISZERO PUSH2 0x1146 JUMPI DUP10 SWAP9 PUSH2 0x10D2 JUMPI JUMPDEST POP DUP8 MLOAD ISZERO PUSH2 0x1090 JUMPI DUP5 DUP9 ADD SWAP3 DUP5 DUP5 MLOAD AND SUB PUSH2 0x104E JUMPI DUP2 EXTCODESIZE ISZERO PUSH2 0x8FF JUMPI DUP6 MLOAD PUSH32 0x5E30B8A600000000000000000000000000000000000000000000000000000000 DUP2 MSTORE PUSH1 0x1 PUSH1 0x1 PUSH1 0xA0 SHL SUB SWAP1 SWAP2 AND DUP2 DUP12 ADD SWAP1 DUP2 MSTORE CALLER PUSH1 0x20 DUP3 ADD MSTORE SWAP1 SWAP2 DUP10 SWAP2 DUP4 SWAP2 SWAP1 DUP3 SWAP1 DUP5 SWAP1 DUP3 SWAP1 PUSH1 0x40 ADD SUB SWAP3 GAS CALL DUP1 ISZERO PUSH2 0x1044 JUMPI PUSH2 0x1013 JUMPI JUMPDEST POP SWAP1 PUSH32 0x74CE707ECBD67CEDA60331B15321122EB484A382378AA41FABE4231420A3D772 SWAP3 SWAP2 MLOAD AND SWAP5 MLOAD SWAP3 MLOAD SWAP3 DUP4 MSTORE CALLER SWAP3 LOG4 DUP1 RETURN JUMPDEST PUSH8 0xFFFFFFFFFFFFFFFF DUP2 SWAP9 SWAP3 SWAP9 GT PUSH2 0x1031 JUMPI DUP5 MSTORE SWAP6 SWAP7 POP DUP7 CODESIZE PUSH2 0xFDF JUMP JUMPDEST PUSH1 0x24 DUP3 PUSH1 0x41 DUP12 PUSH4 0x4E487B71 PUSH1 0xE0 SHL DUP4 MSTORE MSTORE REVERT JUMPDEST DUP6 MLOAD RETURNDATASIZE DUP11 DUP3 RETURNDATACOPY RETURNDATASIZE SWAP1 REVERT JUMPDEST PUSH1 0x64 DUP11 DUP7 DUP9 MLOAD SWAP2 PUSH3 0x461BCD PUSH1 0xE5 SHL DUP4 MSTORE DUP3 ADD MSTORE PUSH1 0x19 PUSH1 0x24 DUP3 ADD MSTORE PUSH32 0x546F6B656E206D69736D6174636820666F7220726566756E6400000000000000 PUSH1 0x44 DUP3 ADD MSTORE REVERT JUMPDEST PUSH1 0x64 DUP11 DUP7 DUP9 MLOAD SWAP2 PUSH3 0x461BCD PUSH1 0xE5 SHL DUP4 MSTORE DUP3 ADD MSTORE PUSH1 0x1B PUSH1 0x24 DUP3 ADD MSTORE PUSH32 0x4E6F206465706F73697420666F756E6420666F7220726566756E640000000000 PUSH1 0x44 DUP3 ADD MSTORE REVERT JUMPDEST SWAP1 SWAP8 POP DUP6 DUP2 DUP2 RETURNDATASIZE DUP4 GT PUSH2 0x113F JUMPI JUMPDEST PUSH2 0x10EA DUP2 DUP4 PUSH2 0x1345 JUMP JUMPDEST DUP2 ADD SUB SLT PUSH2 0x8FF JUMPI DUP6 MLOAD SWAP1 DUP7 DUP3 ADD DUP3 DUP2 LT PUSH8 0xFFFFFFFFFFFFFFFF DUP3 GT OR PUSH2 0x112C JUMPI DUP8 MSTORE DUP1 MLOAD DUP3 MSTORE DUP6 ADD MLOAD DUP5 DUP2 AND DUP2 SUB PUSH2 0x1128 JUMPI DUP6 DUP3 ADD MSTORE SWAP7 CODESIZE PUSH2 0xF68 JUMP JUMPDEST DUP10 DUP1 REVERT JUMPDEST PUSH1 0x24 DUP12 PUSH1 0x41 DUP15 PUSH4 0x4E487B71 PUSH1 0xE0 SHL DUP4 MSTORE MSTORE REVERT JUMPDEST POP RETURNDATASIZE PUSH2 0x10E0 JUMP JUMPDEST DUP7 MLOAD RETURNDATASIZE DUP12 DUP3 RETURNDATACOPY RETURNDATASIZE SWAP1 REVERT JUMPDEST SWAP1 POP CODESIZE PUSH2 0xF01 JUMP JUMPDEST PUSH1 0x64 DUP9 DUP5 DUP7 MLOAD SWAP2 PUSH3 0x461BCD PUSH1 0xE5 SHL DUP4 MSTORE DUP3 ADD MSTORE PUSH1 0x19 PUSH1 0x24 DUP3 ADD MSTORE PUSH32 0x496E76616C6964206F66666572696E6720636F6E747261637400000000000000 PUSH1 0x44 DUP3 ADD MSTORE REVERT JUMPDEST PUSH1 0x84 DUP9 DUP5 DUP7 MLOAD SWAP2 PUSH3 0x461BCD PUSH1 0xE5 SHL DUP4 MSTORE DUP3 ADD MSTORE PUSH1 0x25 PUSH1 0x24 DUP3 ADD MSTORE PUSH32 0x526566756E6473206E6F7420656E61626C656420666F722074686973206F6666 PUSH1 0x44 DUP3 ADD MSTORE PUSH32 0x6572696E67000000000000000000000000000000000000000000000000000000 PUSH1 0x64 DUP3 ADD MSTORE REVERT JUMPDEST POP CALLVALUE PUSH2 0x152 JUMPI PUSH1 0x20 CALLDATASIZE PUSH1 0x3 NOT ADD SLT PUSH2 0x152 JUMPI DUP2 PUSH1 0x20 SWAP4 PUSH1 0xFF SWAP3 PUSH1 0x1 PUSH1 0x1 PUSH1 0xA0 SHL SUB PUSH2 0x122B PUSH2 0x132F JUMP JUMPDEST AND DUP3 MSTORE DUP6 MSTORE KECCAK256 SLOAD AND SWAP1 MLOAD SWAP1 ISZERO ISZERO DUP2 MSTORE RETURN JUMPDEST POP SWAP1 CALLVALUE PUSH2 0x152 JUMPI DUP1 PUSH1 0x3 NOT CALLDATASIZE ADD SLT PUSH2 0x152 JUMPI DUP3 DUP1 DUP1 DUP1 DUP6 CALLDATALOAD PUSH1 0x1 PUSH1 0x1 PUSH1 0xA0 SHL SUB PUSH2 0x1264 PUSH2 0x1319 JUMP JUMPDEST PUSH2 0x126C PUSH2 0x13E0 JUMP JUMPDEST PUSH2 0x1277 DUP4 ISZERO ISZERO PUSH2 0x1849 JUMP JUMPDEST AND PUSH2 0x1283 DUP2 ISZERO ISZERO PUSH2 0x1894 JUMP JUMPDEST GAS CALL RETURNDATASIZE ISZERO PUSH2 0x12F8 JUMPI RETURNDATASIZE PUSH2 0x1295 DUP2 PUSH2 0x137D JUMP JUMPDEST SWAP1 PUSH2 0x12A2 DUP5 MLOAD SWAP3 DUP4 PUSH2 0x1345 JUMP JUMPDEST DUP2 MSTORE DUP5 PUSH1 0x20 RETURNDATASIZE SWAP3 ADD RETURNDATACOPY JUMPDEST ISZERO PUSH2 0x12B5 JUMPI DUP3 DUP1 RETURN JUMPDEST SWAP1 PUSH1 0x20 PUSH1 0x64 SWAP3 MLOAD SWAP2 PUSH3 0x461BCD PUSH1 0xE5 SHL DUP4 MSTORE DUP3 ADD MSTORE PUSH1 0x1D PUSH1 0x24 DUP3 ADD MSTORE PUSH32 0x4E617469766520726573637565207472616E73666572206661696C6564000000 PUSH1 0x44 DUP3 ADD MSTORE REVERT JUMPDEST PUSH2 0x12AC JUMP JUMPDEST DUP5 SWAP1 CALLVALUE PUSH2 0x39D JUMPI DUP2 PUSH1 0x3 NOT CALLDATASIZE ADD SLT PUSH2 0x39D JUMPI PUSH1 0x20 SWAP1 PUSH1 0x3 SLOAD DUP2 MSTORE RETURN JUMPDEST PUSH1 0x24 CALLDATALOAD SWAP1 PUSH1 0x1 PUSH1 0x1 PUSH1 0xA0 SHL SUB DUP3 AND DUP3 SUB PUSH2 0x4A2 JUMPI JUMP JUMPDEST PUSH1 0x4 CALLDATALOAD SWAP1 PUSH1 0x1 PUSH1 0x1 PUSH1 0xA0 SHL SUB DUP3 AND DUP3 SUB PUSH2 0x4A2 JUMPI JUMP JUMPDEST SWAP1 PUSH1 0x1F DUP1 NOT SWAP2 ADD AND DUP2 ADD SWAP1 DUP2 LT PUSH8 0xFFFFFFFFFFFFFFFF DUP3 GT OR PUSH2 0x1367 JUMPI PUSH1 0x40 MSTORE JUMP JUMPDEST PUSH4 0x4E487B71 PUSH1 0xE0 SHL PUSH1 0x0 MSTORE PUSH1 0x41 PUSH1 0x4 MSTORE PUSH1 0x24 PUSH1 0x0 REVERT JUMPDEST PUSH8 0xFFFFFFFFFFFFFFFF DUP2 GT PUSH2 0x1367 JUMPI PUSH1 0x1F ADD PUSH1 0x1F NOT AND PUSH1 0x20 ADD SWAP1 JUMP JUMPDEST DUP2 PUSH1 0x1F DUP3 ADD SLT ISZERO PUSH2 0x4A2 JUMPI DUP1 CALLDATALOAD SWAP1 PUSH2 0x13B0 DUP3 PUSH2 0x137D JUMP JUMPDEST SWAP3 PUSH2 0x13BE PUSH1 0x40 MLOAD SWAP5 DUP6 PUSH2 0x1345 JUMP JUMPDEST DUP3 DUP5 MSTORE PUSH1 0x20 DUP4 DUP4 ADD ADD GT PUSH2 0x4A2 JUMPI DUP2 PUSH1 0x0 SWAP3 PUSH1 0x20 DUP1 SWAP4 ADD DUP4 DUP7 ADD CALLDATACOPY DUP4 ADD ADD MSTORE SWAP1 JUMP JUMPDEST PUSH1 0x1 PUSH1 0x1 PUSH1 0xA0 SHL SUB PUSH1 0x0 SLOAD AND CALLER SUB PUSH2 0x13F4 JUMPI JUMP JUMPDEST PUSH1 0x24 PUSH1 0x40 MLOAD PUSH32 0x118CDAA700000000000000000000000000000000000000000000000000000000 DUP2 MSTORE CALLER PUSH1 0x4 DUP3 ADD MSTORE REVERT JUMPDEST ISZERO PUSH2 0x142B JUMPI JUMP JUMPDEST PUSH1 0x64 PUSH1 0x40 MLOAD PUSH3 0x461BCD PUSH1 0xE5 SHL DUP2 MSTORE PUSH1 0x20 PUSH1 0x4 DUP3 ADD MSTORE PUSH1 0x1D PUSH1 0x24 DUP3 ADD MSTORE PUSH32 0x496E76616C6964204B59422076616C696461746F722061646472657373000000 PUSH1 0x44 DUP3 ADD MSTORE REVERT JUMPDEST PUSH1 0x0 NOT DUP2 EQ PUSH2 0x147E JUMPI PUSH1 0x1 ADD SWAP1 JUMP JUMPDEST PUSH4 0x4E487B71 PUSH1 0xE0 SHL PUSH1 0x0 MSTORE PUSH1 0x11 PUSH1 0x4 MSTORE PUSH1 0x24 PUSH1 0x0 REVERT JUMPDEST PUSH1 0x3 SLOAD ISZERO PUSH2 0x1620 JUMPI DUP3 TIMESTAMP GT PUSH2 0x15DC JUMPI PUSH1 0x40 MLOAD PUSH32 0x4B59425F56414C49444154494F4E000000000000000000000000000000000000 PUSH1 0x20 DUP3 ADD SWAP1 DUP2 MSTORE PUSH12 0xFFFFFFFFFFFFFFFFFFFFFFFF NOT PUSH1 0x60 SWAP4 DUP5 SHL DUP2 AND PUSH1 0x2E DUP5 ADD MSTORE PUSH1 0x42 DUP4 ADD SWAP5 SWAP1 SWAP5 MSTORE PUSH1 0x62 DUP3 ADD SWAP5 SWAP1 SWAP5 MSTORE CHAINID PUSH1 0x82 DUP3 ADD MSTORE ADDRESS SWAP1 SWAP2 SHL SWAP1 SWAP2 AND PUSH1 0xA2 DUP3 ADD MSTORE PUSH2 0x1517 DUP2 PUSH1 0xB6 DUP2 ADD PUSH2 0x724 JUMP JUMPDEST MLOAD SWAP1 KECCAK256 SWAP1 CHAINID ISZERO PUSH2 0x1598 JUMPI PUSH1 0x0 SWAP2 PUSH32 0x19457468657265756D205369676E6564204D6573736167653A0A333200000000 DUP4 MSTORE PUSH1 0x1C MSTORE PUSH1 0x3C DUP3 KECCAK256 DUP1 DUP4 MSTORE PUSH1 0x5 PUSH1 0x20 MSTORE PUSH1 0xFF PUSH1 0x40 DUP5 KECCAK256 SLOAD AND PUSH2 0x1593 JUMPI SWAP2 PUSH1 0x1 PUSH1 0x1 PUSH1 0xA0 SHL SUB PUSH2 0x1585 PUSH2 0x157C PUSH1 0x40 SWAP5 PUSH1 0xFF SWAP7 PUSH2 0x1664 JUMP JUMPDEST SWAP1 SWAP3 SWAP2 SWAP3 PUSH2 0x1730 JUMP JUMPDEST AND DUP2 MSTORE PUSH1 0x2 PUSH1 0x20 MSTORE KECCAK256 SLOAD AND SWAP1 JUMP JUMPDEST POP POP SWAP1 JUMP JUMPDEST PUSH1 0x64 PUSH1 0x40 MLOAD PUSH3 0x461BCD PUSH1 0xE5 SHL DUP2 MSTORE PUSH1 0x20 PUSH1 0x4 DUP3 ADD MSTORE PUSH1 0x10 PUSH1 0x24 DUP3 ADD MSTORE PUSH32 0x496E76616C696420636861696E20494400000000000000000000000000000000 PUSH1 0x44 DUP3 ADD MSTORE REVERT JUMPDEST PUSH1 0x64 PUSH1 0x40 MLOAD PUSH3 0x461BCD PUSH1 0xE5 SHL DUP2 MSTORE PUSH1 0x20 PUSH1 0x4 DUP3 ADD MSTORE PUSH1 0x11 PUSH1 0x24 DUP3 ADD MSTORE PUSH32 0x5369676E61747572652065787069726564000000000000000000000000000000 PUSH1 0x44 DUP3 ADD MSTORE REVERT JUMPDEST PUSH1 0x64 PUSH1 0x40 MLOAD PUSH3 0x461BCD PUSH1 0xE5 SHL DUP2 MSTORE PUSH1 0x20 PUSH1 0x4 DUP3 ADD MSTORE PUSH1 0x15 PUSH1 0x24 DUP3 ADD MSTORE PUSH32 0x4E6F204B59422076616C696461746F7273207365740000000000000000000000 PUSH1 0x44 DUP3 ADD MSTORE REVERT JUMPDEST DUP2 MLOAD SWAP2 SWAP1 PUSH1 0x41 DUP4 SUB PUSH2 0x1695 JUMPI PUSH2 0x168E SWAP3 POP PUSH1 0x20 DUP3 ADD MLOAD SWAP1 PUSH1 0x60 PUSH1 0x40 DUP5 ADD MLOAD SWAP4 ADD MLOAD PUSH1 0x0 BYTE SWAP1 PUSH2 0x16A0 JUMP JUMPDEST SWAP2 SWAP3 SWAP1 SWAP2 SWAP1 JUMP JUMPDEST POP POP PUSH1 0x0 SWAP2 PUSH1 0x2 SWAP2 SWAP1 JUMP JUMPDEST SWAP2 SWAP1 PUSH32 0x7FFFFFFFFFFFFFFFFFFFFFFFFFFFFFFF5D576E7357A4501DDFE92F46681B20A0 DUP5 GT PUSH2 0x1724 JUMPI SWAP3 PUSH1 0x20 SWAP3 SWAP2 PUSH1 0xFF PUSH1 0x80 SWAP6 PUSH1 0x40 MLOAD SWAP5 DUP6 MSTORE AND DUP5 DUP5 ADD MSTORE PUSH1 0x40 DUP4 ADD MSTORE PUSH1 0x60 DUP3 ADD MSTORE PUSH1 0x0 SWAP3 DUP4 SWAP2 DUP3 DUP1 MSTORE PUSH1 0x1 GAS STATICCALL ISZERO PUSH2 0x1718 JUMPI DUP1 MLOAD PUSH1 0x1 PUSH1 0x1 PUSH1 0xA0 SHL SUB DUP2 AND ISZERO PUSH2 0x170F JUMPI SWAP2 DUP2 SWAP1 JUMP JUMPDEST POP DUP1 SWAP2 PUSH1 0x1 SWAP2 SWAP1 JUMP JUMPDEST PUSH1 0x40 MLOAD SWAP1 RETURNDATASIZE SWAP1 DUP3 RETURNDATACOPY RETURNDATASIZE SWAP1 REVERT JUMPDEST POP POP POP PUSH1 0x0 SWAP2 PUSH1 0x3 SWAP2 SWAP1 JUMP JUMPDEST PUSH1 0x4 DUP2 LT ISZERO PUSH2 0x17E8 JUMPI DUP1 PUSH2 0x1742 JUMPI POP POP JUMP JUMPDEST PUSH1 0x1 DUP2 SUB PUSH2 0x1774 JUMPI PUSH1 0x4 PUSH1 0x40 MLOAD PUSH32 0xF645EEDF00000000000000000000000000000000000000000000000000000000 DUP2 MSTORE REVERT JUMPDEST PUSH1 0x2 DUP2 SUB PUSH2 0x17AD JUMPI PUSH1 0x24 DUP3 PUSH1 0x40 MLOAD SWAP1 PUSH32 0xFCE698F700000000000000000000000000000000000000000000000000000000 DUP3 MSTORE PUSH1 0x4 DUP3 ADD MSTORE REVERT JUMPDEST PUSH1 0x3 EQ PUSH2 0x17B7 JUMPI POP JUMP JUMPDEST PUSH1 0x24 SWAP1 PUSH1 0x40 MLOAD SWAP1 PUSH32 0xD78BCE0C00000000000000000000000000000000000000000000000000000000 DUP3 MSTORE PUSH1 0x4 DUP3 ADD MSTORE REVERT JUMPDEST PUSH4 0x4E487B71 PUSH1 0xE0 SHL PUSH1 0x0 MSTORE PUSH1 0x21 PUSH1 0x4 MSTORE PUSH1 0x24 PUSH1 0x0 REVERT JUMPDEST ISZERO PUSH2 0x1805 JUMPI JUMP JUMPDEST PUSH1 0x64 PUSH1 0x40 MLOAD PUSH3 0x461BCD PUSH1 0xE5 SHL DUP2 MSTORE PUSH1 0x20 PUSH1 0x4 DUP3 ADD MSTORE PUSH1 0x15 PUSH1 0x24 DUP3 ADD MSTORE PUSH32 0x496E76616C696420746F6B656E20616464726573730000000000000000000000 PUSH1 0x44 DUP3 ADD MSTORE REVERT JUMPDEST ISZERO PUSH2 0x1850 JUMPI JUMP JUMPDEST PUSH1 0x64 PUSH1 0x40 MLOAD PUSH3 0x461BCD PUSH1 0xE5 SHL DUP2 MSTORE PUSH1 0x20 PUSH1 0x4 DUP3 ADD MSTORE PUSH1 0x1D PUSH1 0x24 DUP3 ADD MSTORE PUSH32 0x416D6F756E74206D7573742062652067726561746572207468616E2030000000 PUSH1 0x44 DUP3 ADD MSTORE REVERT JUMPDEST ISZERO PUSH2 0x189B JUMPI JUMP JUMPDEST PUSH1 0x64 PUSH1 0x40 MLOAD PUSH3 0x461BCD PUSH1 0xE5 SHL DUP2 MSTORE PUSH1 0x20 PUSH1 0x4 DUP3 ADD MSTORE PUSH1 0x19 PUSH1 0x24 DUP3 ADD MSTORE PUSH32 0x496E76616C696420726563697069656E74206164647265737300000000000000 PUSH1 0x44 DUP3 ADD MSTORE REVERT INVALID LOG1 PUSH5 0x736F6C6343 STOP ADDMOD EQ STOP EXP "},"methodIdentifiers":{"addKYBValidator(address)":"f576dd4a","claimInvestmentTokens(address)":"acf68f7b","claimRefund(address,address)":"3d66da8e","escrowContract()":"e42a96e7","getKYBValidatorCount()":"bd01c300","isKYBValidator(address)":"681c423c","isSignatureUsed(bytes32)":"4d80efae","kybValidatorCount()":"05ba484b","kybValidators(address)":"a17d9971","notifyRefundsEnabled(address)":"c7103ea3","owner()":"8da5cb5b","refundsEnabledForOffering(address)":"25b5c8ba","removeKYBValidator(address)":"41ade38f","renounceOwnership()":"715018a6","rescueERC20(address,uint256,address)":"77662ffc","rescueNative(uint256,address)":"18af4c9e","routeInvestment(address,address,uint256)":"d1726ca9","routeInvestmentWithKYB(address,address,uint256,uint256,uint256,bytes)":"bf3cc17f","setEscrowContract(address)":"f42375b5","setKYBValidator(address)":"3e2c3e44","transferOwnership(address)":"f2fde38b","usedSignatures(bytes32)":"f978fd61","verifyKYBSignature(address,uint256,uint256,bytes)":"45f4f244"}}}}}