{"contracts/WrappedTokenFactory.sol":{"WrappedTokenFactory":{"abi":[{"inputs":[],"stateMutability":"nonpayable","type":"constructor"},{"inputs":[{"internalType":"address","name":"owner","type":"address"}],"name":"OwnableInvalidOwner","type":"error"},{"inputs":[{"internalType":"address","name":"account","type":"address"}],"name":"OwnableUnauthorizedAccount","type":"error"},{"anonymous":false,"inputs":[{"indexed":true,"internalType":"address","name":"previousOwner","type":"address"},{"indexed":true,"internalType":"address","name":"newOwner","type":"address"}],"name":"OwnershipTransferred","type":"event"},{"anonymous":false,"inputs":[{"indexed":true,"internalType":"uint256","name":"tokenId","type":"uint256"},{"indexed":true,"internalType":"address","name":"creator","type":"address"},{"indexed":true,"internalType":"address","name":"wrappedTokenAddress","type":"address"},{"indexed":false,"internalType":"address","name":"offeringContract","type":"address"}],"name":"WrappedTokenDeployed","type":"event"},{"inputs":[{"internalType":"address","name":"","type":"address"},{"internalType":"uint256","name":"","type":"uint256"}],"name":"byCreator","outputs":[{"internalType":"uint256","name":"","type":"uint256"}],"stateMutability":"view","type":"function"},{"inputs":[],"name":"count","outputs":[{"internalType":"uint256","name":"","type":"uint256"}],"stateMutability":"view","type":"function"},{"inputs":[{"components":[{"internalType":"string","name":"name","type":"string"},{"internalType":"string","name":"symbol","type":"string"},{"internalType":"address","name":"peggedToken","type":"address"},{"internalType":"address","name":"payoutToken","type":"address"},{"internalType":"uint256","name":"maturityDate","type":"uint256"},{"internalType":"uint256","name":"payoutRate","type":"uint256"},{"internalType":"address","name":"offeringContract","type":"address"}],"internalType":"struct WrapedTokenConfig","name":"config","type":"tuple"}],"name":"createWrappedToken","outputs":[{"internalType":"address","name":"wrappedTokenAddress","type":"address"}],"stateMutability":"nonpayable","type":"function"},{"inputs":[{"internalType":"address","name":"","type":"address"}],"name":"creators","outputs":[{"internalType":"address","name":"","type":"address"}],"stateMutability":"view","type":"function"},{"inputs":[],"name":"getAllWrappedTokens","outputs":[{"internalType":"address[]","name":"","type":"address[]"}],"stateMutability":"view","type":"function"},{"inputs":[{"internalType":"uint256","name":"tokenId","type":"uint256"}],"name":"getWrappedTokenAddress","outputs":[{"internalType":"address","name":"","type":"address"}],"stateMutability":"view","type":"function"},{"inputs":[{"internalType":"address","name":"wrappedTokenAddress","type":"address"}],"name":"getWrappedTokenCreator","outputs":[{"internalType":"address","name":"","type":"address"}],"stateMutability":"view","type":"function"},{"inputs":[{"internalType":"address","name":"creator","type":"address"}],"name":"getWrappedTokenIdsByCreator","outputs":[{"internalType":"uint256[]","name":"","type":"uint256[]"}],"stateMutability":"view","type":"function"},{"inputs":[],"name":"owner","outputs":[{"internalType":"address","name":"","type":"address"}],"stateMutability":"view","type":"function"},{"inputs":[],"name":"renounceOwnership","outputs":[],"stateMutability":"nonpayable","type":"function"},{"inputs":[{"internalType":"address","name":"newOwner","type":"address"}],"name":"transferOwnership","outputs":[],"stateMutability":"nonpayable","type":"function"},{"inputs":[{"internalType":"uint256","name":"","type":"uint256"}],"name":"wrappedTokens","outputs":[{"internalType":"address","name":"","type":"address"}],"stateMutability":"view","type":"function"}],"evm":{"bytecode":{"linkReferences":{},"object":"6080806040523461007a5733156100645760008054336001600160a01b03198216811783556040519290916001600160a01b0316907f8be0079c531659141344cd1fd0a4f28419497f9722a3daafe3b4186f6b6457e09080a3612fba90816100808239f35b631e4fbdf760e01b815260006004820152602490fd5b600080fdfe608060408181526004803610156200001657600080fd5b600092833560e01c90816306661abd146200070e5750806314dd14b314620006dc57806315ad7e9414620006dc57806338c98ace14620004475780633fc497ca14620003915780636500d43f146200029d578063715018a614620002335780638da5cb5b146200020b578063933166e114620001c9578063e4ddcafb14620001c9578063f2c7f4b4146200016a5763f2fde38b14620000b457600080fd5b34620001665760203660031901126200016657620000d1620007c6565b90620000dc62000821565b6001600160a01b038092169283156200013757505082548273ffffffffffffffffffffffffffffffffffffffff198216178455167f8be0079c531659141344cd1fd0a4f28419497f9722a3daafe3b4186f6b6457e08380a380f35b908460249251917f1e4fbdf7000000000000000000000000000000000000000000000000000000008352820152fd5b8280fd5b509134620001c65781600319360112620001c65762000188620007c6565b926001600160a01b0360243594168252602052818120908154841015620001c65750602092620001b891620007f2565b91905490519160031b1c8152f35b80fd5b505034620002075760203660031901126200020757602091816001600160a01b039182620001f6620007c6565b168152600385522054169051908152f35b5080fd5b50503462000207578160031936011262000207576001600160a01b0360209254169051908152f35b8334620001c65780600319360112620001c6576200025062000821565b806001600160a01b03815473ffffffffffffffffffffffffffffffffffffffff1981168355167f8be0079c531659141344cd1fd0a4f28419497f9722a3daafe3b4186f6b6457e08280a380f35b50346200016657826003193601126200016657916001908154620002c181620008ce565b90620002d0855192836200072c565b808252620002de81620008ce565b9560209182840197601f1901368937845b81811062000338575050508451948186019282875251809352850195925b8281106200031b5785870386f35b83516001600160a01b03168752958101959281019284016200030d565b808694959699979952600285526001600160a01b03888520541686518210156200037e57906200037191868260051b89010152620008a8565b97959794939294620002ef565b602485603286634e487b7160e01b835252fd5b508234620001c6576020918260031936011262000207576001600160a01b03620003bd949394620007c6565b1682528352818120908251808584549182815201908194845286842090845b818110620004325750505081620003f59103826200072c565b83519485948186019282875251809352850193925b8281106200041a57505050500390f35b8351855286955093810193928101926001016200040a565b825484529288019260019283019201620003dc565b5090346200016657602092600319908482360112620001c65783359067ffffffffffffffff92838311620002075760e0908336030112620001c657835160e0810181811085821117620006c9578552828601358481116200016657620004b39087369186010162000765565b815260248301358481116200016657620004d39087369186010162000765565b93878201948552620004e860448501620007dd565b90868301918252620004fd60648601620007dd565b946060840195865260808401608482013581526200052960c460a087019360a4810135855201620007dd565b9760c086019889528951956126c68088019588871090871117620006b65791620005748e60e062000587948b9a99989796620008e88c39828952519188015261010087019062000866565b9051858203601f19018d87015262000866565b936001600160a01b039889809251166060860152511660808401525160a08301525160c082015260e086885116910152039082f08015620006aa5782169460015482526002875284822073ffffffffffffffffffffffffffffffffffffffff1990878282541617905586835260038852858320903390825416179055338252808752848220600154928154926801000000000000000084101562000697575050916200064182889460016200068e989795018155620007f2565b819291549060031b91821b91600019901b19161790556001549251168451908152827f5c347f490c4bc521f814819a7844bf59d61c163459274aa6bd2b4fce4769dfab883393a4620008a8565b60015551908152f35b906041602492634e487b7160e01b835252fd5b508351903d90823e3d90fd5b60248960418f634e487b7160e01b835252fd5b602483604189634e487b7160e01b835252fd5b5034620001665760203660031901126200016657816020936001600160a01b0392358152600285522054169051908152f35b84903462000207578160031936011262000207576020906001548152f35b90601f8019910116810190811067ffffffffffffffff8211176200074f57604052565b634e487b7160e01b600052604160045260246000fd5b81601f82011215620007c15780359067ffffffffffffffff82116200074f57604051926200079e601f8401601f1916602001856200072c565b82845260208383010111620007c157816000926020809301838601378301015290565b600080fd5b600435906001600160a01b0382168203620007c157565b35906001600160a01b0382168203620007c157565b80548210156200080b5760005260206000200190600090565b634e487b7160e01b600052603260045260246000fd5b6001600160a01b036000541633036200083657565b60246040517f118cdaa7000000000000000000000000000000000000000000000000000000008152336004820152fd5b919082519283825260005b84811062000893575050826000602080949584010152601f8019910116010190565b60208183018101518483018201520162000871565b6000198114620008b85760010190565b634e487b7160e01b600052601160045260246000fd5b67ffffffffffffffff81116200074f5760051b6020019056fe6040610120815234620004ed57620026c690813803806200002081620004f2565b938439820191602081840312620004ed578051906001600160401b038211620004ed570160e081840312620004ed5781519260e084016001600160401b03811185821017620003c457835281516001600160401b038111620004ed57816200008a91840162000518565b84526020820151906001600160401b038211620004ed57620000ae91830162000518565b92836020820152620000c28383016200058a565b83820152620000d4606083016200058a565b6060820152608082015191608082019283526200010060c060a08301519260a08501938452016200058a565b60c0830152815180516001600160401b038111620003c45760035491600183811c93168015620004e2575b6020841014620004cc578190601f9384811162000475575b50602090848311600114620003e657600092620003da575b50508160011b916000199060031b1c1916176003555b8551906001600160401b038211620003c4576004968754600181811c91168015620003b9575b6020821014620003a457908183859493116200034b575b506020918311600114620002e057600092620002d4575b50508160011b916000199060031b1c19161785555b6001600755818401516001600160a01b0393908416158015620002c5575b620002b5578483015184166080526060830151841660a0525160c0908152905160e0520151166101009081529062000230336200059f565b506200023c3362000620565b5051611fe29182620006c483396080518281816102e3015281816110000152818161137301526119c0015260a05182818161051d015281816107fe01528181610d210152610f34015260c05182818161069401526112ce015260e05182818161108e0152611631015251818181610f9001526116c40152f35b8451632945604560e11b81528690fd5b508360608401511615620001f8565b015190503880620001c5565b6000898152602081209350601f198516905b81811062000332575090846001959493921062000318575b505050811b018555620001da565b015160001960f88460031b161c191690553880806200030a565b92936020600181928786015181550195019301620002f2565b909192508860005260206000208380860160051c820192602087106200039a575b94869594939291940160051c01905b8181106200038a5750620001ae565b600081558594506001016200037b565b925081926200036c565b602289634e487b7160e01b6000525260246000fd5b90607f169062000197565b634e487b7160e01b600052604160045260246000fd5b0151905038806200015b565b6003600090815293507fc2575a0e9e593c00f959f8c92f12db2869c3395a3b0502d05e2516446f71f85b91905b601f198416851062000459576001945083601f198116106200043f575b505050811b0160035562000171565b015160001960f88460031b161c1916905538808062000430565b8181015183556020948501946001909301929091019062000413565b909150600360005260206000208480850160051c82019260208610620004c2575b9085949392910160051c01905b818110620004b2575062000143565b60008155849350600101620004a3565b9250819262000496565b634e487b7160e01b600052602260045260246000fd5b92607f16926200012b565b600080fd5b6040519190601f01601f191682016001600160401b03811183821017620003c457604052565b919080601f84011215620004ed5782516001600160401b038111620003c4576020906200054e601f8201601f19168301620004f2565b92818452828287010111620004ed5760005b8181106200057657508260009394955001015290565b858101830151848201840152820162000560565b51906001600160a01b0382168203620004ed57565b6001600160a01b031660008181527f05b8ccbb9d4d8fb16ea74ce3c29a41f1b461fbdaff4714a0d9a8eb05499746bc602052604081205490919060ff166200061c5781805260056020526040822081835260205260408220600160ff198254161790553391600080516020620026a68339815191528180a4600190565b5090565b6001600160a01b031660008181527fa9780ac285a6b64c20b34d35938634ccfeaf5de258bea281533158d789ca4a2f60205260408120549091907f84b05def62ce9bc2bd93f644e8c54b097db7ee9edab66685b9b15dc162c755649060ff16620006be5780835260056020526040832082845260205260408320600160ff19825416179055600080516020620026a6833981519152339380a4600190565b50509056fe608060408181526004918236101561001657600080fd5b600092833560e01c918262e77aa6146119a15750816301ffc9a71461190057816306fdde031461180b578163095ea7b31461176357816309ad1c471461172b5781630b5dce331461170757816318160ddd146116e85781631a4f94f7146116a457816323b872dd1461167f578163248a9ca3146116545781632b4353f2146116195781632f2ff15d146115ef578163313ce567146115d357816336568abe146115745781633f4ba83a146114f15781634265b3c91461146357816342966c6814611445578163464f0b0d146112ba57816348e8a94914610f585781634efa82b614610f145781635c975abb14610ef05781636f7bc9be14610e4157816370a0823114610e0b57816374a3d5b814610c7557816379cc679014610b735781637eb9d98114610b4957816383c379d414610b1f5781638456cb5914610a9a5781638695ed6414610a7b578163895955e614610a4057816391d14854146109fa57816395d89b41146108f7578163a217fddf146108dc578163a41cac7f14610766578163a9059cbb14610724578163bff08087146106f7578163d547741f146106b7578163d59624b41461067c578163dd62ed3e14610633578163e88499a914610431578163eb73fa6f14610412578163f2c399921461021e575063f9168231146101fd57600080fd5b3461021a578160031936011261021a576020906008549051908152f35b5080fd5b83833461021a578160031936011261021a57610238611f1b565b60ff60095416156103ea57338252602090600b82528083209182549081156103db57600784019360ff8554166103b3576001015460ff166103a45733855284815282852054938415610395576102a86102a1612710610299600a5487611e8b565b048095611ebe565b9533611d67565b805460ff19166001179055825163a9059cbb60e01b815233878201908152602081018690528290829081906040010381896001600160a01b037f0000000000000000000000000000000000000000000000000000000000000000165af190811561038b57869161035e575b501561034f57825193845283015233917fa34530ec0b9fd6c8b48017f6726af24c1ad4f28d0f434f7396906b6b954c1d989190a2600160075580f35b8583516312171d8360e31b8152fd5b61037e9150823d8411610384575b6103768183611d2f565b810190611e73565b87610313565b503d61036c565b84513d88823e3d90fd5b868451633a6a68b160e01b8152fd5b8583516317968e5360e31b8152fd5b8684517f5090d6c6000000000000000000000000000000000000000000000000000000008152fd5b858351633a6a68b160e01b8152fd5b9050517fa2a2b35c000000000000000000000000000000000000000000000000000000008152fd5b50503461021a578160031936011261021a57602090600c549051908152f35b9190503461062f578260031936011261062f57338352600b60205280832091825480156106205760ff6001850154166106115761047360ff8386015416611ecb565b9081156106025760028501805461048a8142611ebe565b8481106105da578461049b91611e9e565b9360036104ac60058a015487611e8b565b980194855494806104bd8b88611e50565b116105c6575b5088156105b7576104eb94926104de8a95936104e493611e8b565b90611e50565b9055611e50565b9055815163a9059cbb60e01b815233828201908152602081810186905290829081906040010381886001600160a01b037f0000000000000000000000000000000000000000000000000000000000000000165af19081156105ad57859161058f575b50156105815750519081527f399492d309dd6967e8059de2eece78587d885c0e55c73801041891dc98cb939260203392a280f35b90516312171d8360e31b8152fd5b6105a7915060203d8111610384576103768183611d2f565b3861054d565b83513d87823e3d90fd5b86885163439ece7760e01b8152fd5b6105d39199508590611ebe565b97386104c3565b8587517fb477c7b1000000000000000000000000000000000000000000000000000000008152fd5b82845163439ece7760e01b8152fd5b5090516317968e5360e31b8152fd5b509051633a6a68b160e01b8152fd5b8280fd5b50503461021a578060031936011261021a5780602092610651611a2d565b610659611a48565b6001600160a01b0391821683526001865283832091168252845220549051908152f35b50503461021a578160031936011261021a57602090517f00000000000000000000000000000000000000000000000000000000000000008152f35b9190503461062f578060031936011261062f576106f391356106ee60016106dc611a48565b93838752600560205286200154611ab6565b611cb7565b5080f35b8334610721576020366003190112610721576106f3610714611a2d565b61071c611a5e565b611c0b565b80fd5b8284346107215781600319360112610721575061073f611a2d565b50517fade576c5000000000000000000000000000000000000000000000000000000008152fd5b83833461021a5760208060031936011261062f578335907f84b05def62ce9bc2bd93f644e8c54b097db7ee9edab66685b9b15dc162c7556480855260058252838520338652825260ff8486205416156108bf57506107c2611f1b565b81156108b05782516323b872dd60e01b815233868201908152306020820152604081018490528290829081906060010381886001600160a01b037f0000000000000000000000000000000000000000000000000000000000000000165af19081156108a6578591610889575b501561087a577f04fc7965be49b3c5de2c5ae7700b1d01b9535e8cdd19811bb303e05ff19ce4a093945061086482600c54611e50565b9081600c558351928352820152a1600160075580f35b8483516312171d8360e31b8152fd5b6108a09150823d8411610384576103768183611d2f565b8661082e565b84513d87823e3d90fd5b84835163c7e1b6b160e01b8152fd5b8560449185519163e2517d3f60e01b835233908301526024820152fd5b50503461021a578160031936011261021a5751908152602090f35b83833461021a578160031936011261021a57805191809380549160019083821c928285169485156109f0575b60209586861081146109dd578589529081156109b95750600114610961575b61095d8787610953828c0383611d2f565b51918291826119e4565b0390f35b81529295507f8a35acfbc15ff81a39ae7d344fd709f28e8600b4aa8c65c6b64bfe7fe36bd19b5b8284106109a6575050508261095d9461095392820101948680610942565b8054868501880152928601928101610988565b60ff19168887015250505050151560051b83010192506109538261095d8680610942565b602484602285634e487b7160e01b835252fd5b93607f1693610923565b90503461062f578160031936011261062f578160209360ff92610a1b611a48565b90358252600586526001600160a01b0383832091168252855220541690519015158152f35b50503461021a578160031936011261021a57602090517f84b05def62ce9bc2bd93f644e8c54b097db7ee9edab66685b9b15dc162c755648152f35b50503461021a578160031936011261021a57602090600a549051908152f35b90503461062f578260031936011261062f57610ab4611a5e565b6006549060ff8216610af8575060ff1916600117600655513381527f62e78cea01bee320cd4e420270b5ea74000d11b0c9f74754ebdbfc544b05a25890602090a180f35b82517fd93c0665000000000000000000000000000000000000000000000000000000008152fd5b8334610721578060031936011261072157610b38611a5e565b60ff196009541660095580600a5580f35b8334610721576020366003190112610721576106f3610b66611a2d565b610b6e611a5e565b611adc565b8391503461021a578260031936011261021a57610b8e611a2d565b602435916001600160a01b038216808552600160205285852033865260205285852054916000198310610bca575b85610bc78686611d67565b80f35b848310610c30578115610c1a573315610c0457508495918491610bc796526001602052828720338852602052039085205583928580610bbc565b60249086885191634a1406b160e11b8352820152fd5b6024908688519163e602df0560e01b8352820152fd5b86517ffb8f41b2000000000000000000000000000000000000000000000000000000008152339181019182526020820193909352604081018590528291506060010390fd5b9190503461062f578260031936011261062f57610c90611f1b565b3383526020600b8152818420805415610dfc5760ff600782015416610ded57338552848252828520548015610ddd57610cd9600691610cd460025491600c54611e8b565b611e9e565b910193610ce7855483611ebe565b948515610dce57829055835163a9059cbb60e01b8152338282019081526020810187905284908290819060400103818a6001600160a01b037f0000000000000000000000000000000000000000000000000000000000000000165af1908115610dc4578791610da7575b5015610d99575090610d85847f0408e6e0b73daf4c873106e95fd067260fbff8bf9d1b499cad563d4480d45bac9493611ebe565b9082519485528401523392a2600160075580f35b83516312171d8360e31b8152fd5b610dbe9150843d8611610384576103768183611d2f565b38610d51565b85513d89823e3d90fd5b50835163439ece7760e01b8152fd5b50505051633a6a68b160e01b8152fd5b5050516317968e5360e31b8152fd5b505051633a6a68b160e01b8152fd5b50503461021a57602036600319011261021a57806020926001600160a01b03610e32611a2d565b16815280845220549051908152f35b828434610721576020366003190112610721576001600160a01b03610e64611a2d565b168152600b60205281812080549260ff60018301541692600283015490600384015460ff88860154169260058601549460ff6007600689015498015416978151998a52151560208a015288015260608701526003821015610edd57506101009550608085015260a084015260c0830152151560e0820152f35b80602188634e487b7160e01b6024945252fd5b50503461021a578160031936011261021a5760209060ff6006541690519015158152f35b50503461021a578160031936011261021a57602090516001600160a01b037f0000000000000000000000000000000000000000000000000000000000000000168152f35b83833461021a57606036600319011261021a57610f73611a2d565b90602435916044359060038210156112b6576001600160a01b03907f00000000000000000000000000000000000000000000000000000000000000008281163303611233579087929186156112245785516323b872dd60e01b81526001600160a01b0390911693810193845230602085810191909152604085018890529384908290819060600103818b877f0000000000000000000000000000000000000000000000000000000000000000165af190811561121a5788916111fd575b50156111ee57169182156111bf5761104a85600254611e50565b60025582865285825283862085815401905582867fddf252ad1be2c89b69c2b068fc378daa952ba7f163c4a11628f55a4df523b3ef848751898152a36127106110b37f000000000000000000000000000000000000000000000000000000000000000087611e8b565b0491845194610100860186811067ffffffffffffffff8211176111ac5790889594939291815287875261113482880187815282890192428452600b60608b01958a875260808c0197885260a08c0198895260c08c01998b8b5260e08d019b808d5252528b2098518955511515600189019060ff801983541691151516179055565b51600287015551600386015587850190516003811015611199579260079261118b959261119398979560ff8019835416911617905551600585015551600684015551151591019060ff801983541691151516179055565b600854611e50565b60085580f35b60248860218b634e487b7160e01b835252fd5b60248960418c634e487b7160e01b835252fd5b602487878651917fec442f05000000000000000000000000000000000000000000000000000000008352820152fd5b8785516312171d8360e31b8152fd5b6112149150843d8611610384576103768183611d2f565b89611030565b86513d8a823e3d90fd5b83865163c7e1b6b160e01b8152fd5b60848860208751917f08c379a0000000000000000000000000000000000000000000000000000000008352820152602360248201527f43616c6c6572206973206e6f7420746865206f66666572696e6720636f6e747260448201527f61637400000000000000000000000000000000000000000000000000000000006064820152fd5b8480fd5b90503461062f578260031936011261062f577f0000000000000000000000000000000000000000000000000000000000000000421061141e57338352602090600b8252828420906001820160ff8154166114005782541561140f5760ff600784015416611400573386528584526113348587205433611d67565b805460ff191660011790558154845163a9059cbb60e01b8152338382019081526020810192909252908490829081906040010381896001600160a01b037f0000000000000000000000000000000000000000000000000000000000000000165af19081156113f65786916113d9575b5015610d995750907f8bb992a66750701ebd5f73b74463037e5a77fa3114ea76d89b9db1818b083f48915492519283523392a280f35b6113f09150843d8611610384576103768183611d2f565b386113a3565b85513d88823e3d90fd5b5083516317968e5360e31b8152fd5b508351633a6a68b160e01b8152fd5b90517f111c4409000000000000000000000000000000000000000000000000000000008152fd5b83903461021a57602036600319011261021a57610bc7903533611d67565b9190503461062f57602036600319011261062f57813591611482611a5e565b61138883116114ca57507f373e08b9e2e94c99f958f95cf4e0a2db0e6de1f1607a5b7470341baab1ae608c91602091600160ff19600954161760095581600a5551908152a180f35b90517f458eae5b000000000000000000000000000000000000000000000000000000008152fd5b90503461062f578260031936011261062f5761150b611a5e565b6006549060ff82161561154d575060ff1916600655513381527f5db9ee0a495bf2e6ff9c91a7834c1ba4fdd244a5e8aa4e537bd38aeae4b073aa90602090a180f35b82517f8dfc202b000000000000000000000000000000000000000000000000000000008152fd5b83833461021a578060031936011261021a5761158e611a48565b90336001600160a01b038316036115ab57506106f3919235611cb7565b8390517f6697b232000000000000000000000000000000000000000000000000000000008152fd5b50503461021a578160031936011261021a576020905160128152f35b9190503461062f578060031936011261062f576106f3913561161460016106dc611a48565b611b8f565b50503461021a578160031936011261021a57602090517f00000000000000000000000000000000000000000000000000000000000000008152f35b90503461062f57602036600319011261062f5781602093600192358152600585522001549051908152f35b828434610721576060366003190112610721575061169b611a2d565b5061073f611a48565b50503461021a578160031936011261021a57602090516001600160a01b037f0000000000000000000000000000000000000000000000000000000000000000168152f35b50503461021a578160031936011261021a576020906002549051908152f35b50503461021a578160031936011261021a5760209060ff6009541690519015158152f35b50503461021a57602036600319011261021a5760609061175161174c611a2d565b611f56565b91929081519384526020840152820152f35b90503461062f578160031936011261062f5761177d611a2d565b6024359033156117f5576001600160a01b03169182156117df57508083602095338152600187528181208582528752205582519081527f8c5be1e5ebec7d5bd14f71427d1e84f3dd0314c0f7b2291e5b200ac8c7c3b925843392a35160018152f35b60249085855191634a1406b160e11b8352820152fd5b6024838686519163e602df0560e01b8352820152fd5b9190503461062f578260031936011261062f57805191836003549060019082821c9282811680156118f6575b60209586861082146118e357508488529081156118c15750600114611868575b61095d8686610953828b0383611d2f565b929550600383527fc2575a0e9e593c00f959f8c92f12db2869c3395a3b0502d05e2516446f71f85b5b8284106118ae575050508261095d94610953928201019438611857565b8054868501880152928601928101611891565b60ff191687860152505050151560051b83010192506109538261095d38611857565b836022602492634e487b7160e01b835252fd5b93607f1693611837565b90503461062f57602036600319011261062f5735907fffffffff00000000000000000000000000000000000000000000000000000000821680920361062f57602092507f7965db0b000000000000000000000000000000000000000000000000000000008214918215611977575b50519015158152f35b7f01ffc9a7000000000000000000000000000000000000000000000000000000001491503861196e565b84903461021a578160031936011261021a576020906001600160a01b037f0000000000000000000000000000000000000000000000000000000000000000168152f35b6020808252825181830181905290939260005b828110611a1957505060409293506000838284010152601f8019910116010190565b8181018601518482016040015285016119f7565b600435906001600160a01b0382168203611a4357565b600080fd5b602435906001600160a01b0382168203611a4357565b3360009081527f05b8ccbb9d4d8fb16ea74ce3c29a41f1b461fbdaff4714a0d9a8eb05499746bc602052604081205460ff1615611a985750565b6044906040519063e2517d3f60e01b82523360048301526024820152fd5b80600052600560205260406000203360005260205260ff6040600020541615611a985750565b6001600160a01b031660008181527fa9780ac285a6b64c20b34d35938634ccfeaf5de258bea281533158d789ca4a2f60205260408120549091907f84b05def62ce9bc2bd93f644e8c54b097db7ee9edab66685b9b15dc162c755649060ff16611b8a5780835260056020526040832082845260205260408320600160ff198254161790557f2f8788117e7eff1d82e926ec794901d17c78024a50270940304540a733656f0d339380a4600190565b505090565b9060009180835260056020526001600160a01b036040842092169182845260205260ff60408420541615600014611b8a5780835260056020526040832082845260205260408320600160ff198254161790557f2f8788117e7eff1d82e926ec794901d17c78024a50270940304540a733656f0d339380a4600190565b6001600160a01b031660008181527fa9780ac285a6b64c20b34d35938634ccfeaf5de258bea281533158d789ca4a2f60205260408120549091907f84b05def62ce9bc2bd93f644e8c54b097db7ee9edab66685b9b15dc162c755649060ff1615611b8a578083526005602052604083208284526020526040832060ff1981541690557ff6391f5c32d9c69d2a47ea670b442974b53935d1edc7fd64eb21e047a839171b339380a4600190565b9060009180835260056020526001600160a01b036040842092169182845260205260ff604084205416600014611b8a578083526005602052604083208284526020526040832060ff1981541690557ff6391f5c32d9c69d2a47ea670b442974b53935d1edc7fd64eb21e047a839171b339380a4600190565b90601f8019910116810190811067ffffffffffffffff821117611d5157604052565b634e487b7160e01b600052604160045260246000fd5b906001600160a01b038216908115611e1f5760009282845283602052604084205490828210611dd45750817fddf252ad1be2c89b69c2b068fc378daa952ba7f163c4a11628f55a4df523b3ef926020928587528684520360408620558060025403600255604051908152a3565b6040517fe450d38c0000000000000000000000000000000000000000000000000000000081526001600160a01b03919091166004820152602481019190915260448101829052606490fd5b60246040517f96c6fd1e00000000000000000000000000000000000000000000000000000000815260006004820152fd5b91908201809211611e5d57565b634e487b7160e01b600052601160045260246000fd5b90816020910312611a4357518015158103611a435790565b81810292918115918404141715611e5d57565b8115611ea8570490565b634e487b7160e01b600052601260045260246000fd5b91908203918211611e5d57565b6003811015611f055780611ee157506201518090565b60018103611ef1575062278d0090565b600214611efd57600090565b6301e1338090565b634e487b7160e01b600052602160045260246000fd5b600260075414611f2c576002600755565b60046040517f3ee5aeb5000000000000000000000000000000000000000000000000000000008152fd5b6001600160a01b03600091168152600b6020526040812091825415611fcd578160205260408220548015611fc457600254908115611fba57600691610cd4611fa092600c54611e8b565b9301549182841115611fb75750611fb78284611ebe565b90565b5050915080918190565b50915080918190565b91508091819056fea164736f6c6343000814000a2f8788117e7eff1d82e926ec794901d17c78024a50270940304540a733656f0da164736f6c6343000814000a","opcodes":"PUSH1 0x80 DUP1 PUSH1 0x40 MSTORE CALLVALUE PUSH2 0x7A JUMPI CALLER ISZERO PUSH2 0x64 JUMPI PUSH1 0x0 DUP1 SLOAD CALLER PUSH1 0x1 PUSH1 0x1 PUSH1 0xA0 SHL SUB NOT DUP3 AND DUP2 OR DUP4 SSTORE PUSH1 0x40 MLOAD SWAP3 SWAP1 SWAP2 PUSH1 0x1 PUSH1 0x1 PUSH1 0xA0 SHL SUB AND SWAP1 PUSH32 0x8BE0079C531659141344CD1FD0A4F28419497F9722A3DAAFE3B4186F6B6457E0 SWAP1 DUP1 LOG3 PUSH2 0x2FBA SWAP1 DUP2 PUSH2 0x80 DUP3 CODECOPY RETURN JUMPDEST PUSH4 0x1E4FBDF7 PUSH1 0xE0 SHL DUP2 MSTORE PUSH1 0x0 PUSH1 0x4 DUP3 ADD MSTORE PUSH1 0x24 SWAP1 REVERT JUMPDEST PUSH1 0x0 DUP1 REVERT INVALID PUSH1 0x80 PUSH1 0x40 DUP2 DUP2 MSTORE PUSH1 0x4 DUP1 CALLDATASIZE LT ISZERO PUSH3 0x16 JUMPI PUSH1 0x0 DUP1 REVERT JUMPDEST PUSH1 0x0 SWAP3 DUP4 CALLDATALOAD PUSH1 0xE0 SHR SWAP1 DUP2 PUSH4 0x6661ABD EQ PUSH3 0x70E JUMPI POP DUP1 PUSH4 0x14DD14B3 EQ PUSH3 0x6DC JUMPI DUP1 PUSH4 0x15AD7E94 EQ PUSH3 0x6DC JUMPI DUP1 PUSH4 0x38C98ACE EQ PUSH3 0x447 JUMPI DUP1 PUSH4 0x3FC497CA EQ PUSH3 0x391 JUMPI DUP1 PUSH4 0x6500D43F EQ PUSH3 0x29D JUMPI DUP1 PUSH4 0x715018A6 EQ PUSH3 0x233 JUMPI DUP1 PUSH4 0x8DA5CB5B EQ PUSH3 0x20B JUMPI DUP1 PUSH4 0x933166E1 EQ PUSH3 0x1C9 JUMPI DUP1 PUSH4 0xE4DDCAFB EQ PUSH3 0x1C9 JUMPI DUP1 PUSH4 0xF2C7F4B4 EQ PUSH3 0x16A JUMPI PUSH4 0xF2FDE38B EQ PUSH3 0xB4 JUMPI PUSH1 0x0 DUP1 REVERT JUMPDEST CALLVALUE PUSH3 0x166 JUMPI PUSH1 0x20 CALLDATASIZE PUSH1 0x3 NOT ADD SLT PUSH3 0x166 JUMPI PUSH3 0xD1 PUSH3 0x7C6 JUMP JUMPDEST SWAP1 PUSH3 0xDC PUSH3 0x821 JUMP JUMPDEST PUSH1 0x1 PUSH1 0x1 PUSH1 0xA0 SHL SUB DUP1 SWAP3 AND SWAP3 DUP4 ISZERO PUSH3 0x137 JUMPI POP POP DUP3 SLOAD DUP3 PUSH20 0xFFFFFFFFFFFFFFFFFFFFFFFFFFFFFFFFFFFFFFFF NOT DUP3 AND OR DUP5 SSTORE AND PUSH32 0x8BE0079C531659141344CD1FD0A4F28419497F9722A3DAAFE3B4186F6B6457E0 DUP4 DUP1 LOG3 DUP1 RETURN JUMPDEST SWAP1 DUP5 PUSH1 0x24 SWAP3 MLOAD SWAP2 PUSH32 0x1E4FBDF700000000000000000000000000000000000000000000000000000000 DUP4 MSTORE DUP3 ADD MSTORE REVERT JUMPDEST DUP3 DUP1 REVERT JUMPDEST POP SWAP2 CALLVALUE PUSH3 0x1C6 JUMPI DUP2 PUSH1 0x3 NOT CALLDATASIZE ADD SLT PUSH3 0x1C6 JUMPI PUSH3 0x188 PUSH3 0x7C6 JUMP JUMPDEST SWAP3 PUSH1 0x1 PUSH1 0x1 PUSH1 0xA0 SHL SUB PUSH1 0x24 CALLDATALOAD SWAP5 AND DUP3 MSTORE PUSH1 0x20 MSTORE DUP2 DUP2 KECCAK256 SWAP1 DUP2 SLOAD DUP5 LT ISZERO PUSH3 0x1C6 JUMPI POP PUSH1 0x20 SWAP3 PUSH3 0x1B8 SWAP2 PUSH3 0x7F2 JUMP JUMPDEST SWAP2 SWAP1 SLOAD SWAP1 MLOAD SWAP2 PUSH1 0x3 SHL SHR DUP2 MSTORE RETURN JUMPDEST DUP1 REVERT JUMPDEST POP POP CALLVALUE PUSH3 0x207 JUMPI PUSH1 0x20 CALLDATASIZE PUSH1 0x3 NOT ADD SLT PUSH3 0x207 JUMPI PUSH1 0x20 SWAP2 DUP2 PUSH1 0x1 PUSH1 0x1 PUSH1 0xA0 SHL SUB SWAP2 DUP3 PUSH3 0x1F6 PUSH3 0x7C6 JUMP JUMPDEST AND DUP2 MSTORE PUSH1 0x3 DUP6 MSTORE KECCAK256 SLOAD AND SWAP1 MLOAD SWAP1 DUP2 MSTORE RETURN JUMPDEST POP DUP1 REVERT JUMPDEST POP POP CALLVALUE PUSH3 0x207 JUMPI DUP2 PUSH1 0x3 NOT CALLDATASIZE ADD SLT PUSH3 0x207 JUMPI PUSH1 0x1 PUSH1 0x1 PUSH1 0xA0 SHL SUB PUSH1 0x20 SWAP3 SLOAD AND SWAP1 MLOAD SWAP1 DUP2 MSTORE RETURN JUMPDEST DUP4 CALLVALUE PUSH3 0x1C6 JUMPI DUP1 PUSH1 0x3 NOT CALLDATASIZE ADD SLT PUSH3 0x1C6 JUMPI PUSH3 0x250 PUSH3 0x821 JUMP JUMPDEST DUP1 PUSH1 0x1 PUSH1 0x1 PUSH1 0xA0 SHL SUB DUP2 SLOAD PUSH20 0xFFFFFFFFFFFFFFFFFFFFFFFFFFFFFFFFFFFFFFFF NOT DUP2 AND DUP4 SSTORE AND PUSH32 0x8BE0079C531659141344CD1FD0A4F28419497F9722A3DAAFE3B4186F6B6457E0 DUP3 DUP1 LOG3 DUP1 RETURN JUMPDEST POP CALLVALUE PUSH3 0x166 JUMPI DUP3 PUSH1 0x3 NOT CALLDATASIZE ADD SLT PUSH3 0x166 JUMPI SWAP2 PUSH1 0x1 SWAP1 DUP2 SLOAD PUSH3 0x2C1 DUP2 PUSH3 0x8CE JUMP JUMPDEST SWAP1 PUSH3 0x2D0 DUP6 MLOAD SWAP3 DUP4 PUSH3 0x72C JUMP JUMPDEST DUP1 DUP3 MSTORE PUSH3 0x2DE DUP2 PUSH3 0x8CE JUMP JUMPDEST SWAP6 PUSH1 0x20 SWAP2 DUP3 DUP5 ADD SWAP8 PUSH1 0x1F NOT ADD CALLDATASIZE DUP10 CALLDATACOPY DUP5 JUMPDEST DUP2 DUP2 LT PUSH3 0x338 JUMPI POP POP POP DUP5 MLOAD SWAP5 DUP2 DUP7 ADD SWAP3 DUP3 DUP8 MSTORE MLOAD DUP1 SWAP4 MSTORE DUP6 ADD SWAP6 SWAP3 JUMPDEST DUP3 DUP2 LT PUSH3 0x31B JUMPI DUP6 DUP8 SUB DUP7 RETURN JUMPDEST DUP4 MLOAD PUSH1 0x1 PUSH1 0x1 PUSH1 0xA0 SHL SUB AND DUP8 MSTORE SWAP6 DUP2 ADD SWAP6 SWAP3 DUP2 ADD SWAP3 DUP5 ADD PUSH3 0x30D JUMP JUMPDEST DUP1 DUP7 SWAP5 SWAP6 SWAP7 SWAP10 SWAP8 SWAP10 MSTORE PUSH1 0x2 DUP6 MSTORE PUSH1 0x1 PUSH1 0x1 PUSH1 0xA0 SHL SUB DUP9 DUP6 KECCAK256 SLOAD AND DUP7 MLOAD DUP3 LT ISZERO PUSH3 0x37E JUMPI SWAP1 PUSH3 0x371 SWAP2 DUP7 DUP3 PUSH1 0x5 SHL DUP10 ADD ADD MSTORE PUSH3 0x8A8 JUMP JUMPDEST SWAP8 SWAP6 SWAP8 SWAP5 SWAP4 SWAP3 SWAP5 PUSH3 0x2EF JUMP JUMPDEST PUSH1 0x24 DUP6 PUSH1 0x32 DUP7 PUSH4 0x4E487B71 PUSH1 0xE0 SHL DUP4 MSTORE MSTORE REVERT JUMPDEST POP DUP3 CALLVALUE PUSH3 0x1C6 JUMPI PUSH1 0x20 SWAP2 DUP3 PUSH1 0x3 NOT CALLDATASIZE ADD SLT PUSH3 0x207 JUMPI PUSH1 0x1 PUSH1 0x1 PUSH1 0xA0 SHL SUB PUSH3 0x3BD SWAP5 SWAP4 SWAP5 PUSH3 0x7C6 JUMP JUMPDEST AND DUP3 MSTORE DUP4 MSTORE DUP2 DUP2 KECCAK256 SWAP1 DUP3 MLOAD DUP1 DUP6 DUP5 SLOAD SWAP2 DUP3 DUP2 MSTORE ADD SWAP1 DUP2 SWAP5 DUP5 MSTORE DUP7 DUP5 KECCAK256 SWAP1 DUP5 JUMPDEST DUP2 DUP2 LT PUSH3 0x432 JUMPI POP POP POP DUP2 PUSH3 0x3F5 SWAP2 SUB DUP3 PUSH3 0x72C JUMP JUMPDEST DUP4 MLOAD SWAP5 DUP6 SWAP5 DUP2 DUP7 ADD SWAP3 DUP3 DUP8 MSTORE MLOAD DUP1 SWAP4 MSTORE DUP6 ADD SWAP4 SWAP3 JUMPDEST DUP3 DUP2 LT PUSH3 0x41A JUMPI POP POP POP POP SUB SWAP1 RETURN JUMPDEST DUP4 MLOAD DUP6 MSTORE DUP7 SWAP6 POP SWAP4 DUP2 ADD SWAP4 SWAP3 DUP2 ADD SWAP3 PUSH1 0x1 ADD PUSH3 0x40A JUMP JUMPDEST DUP3 SLOAD DUP5 MSTORE SWAP3 DUP9 ADD SWAP3 PUSH1 0x1 SWAP3 DUP4 ADD SWAP3 ADD PUSH3 0x3DC JUMP JUMPDEST POP SWAP1 CALLVALUE PUSH3 0x166 JUMPI PUSH1 0x20 SWAP3 PUSH1 0x3 NOT SWAP1 DUP5 DUP3 CALLDATASIZE ADD SLT PUSH3 0x1C6 JUMPI DUP4 CALLDATALOAD SWAP1 PUSH8 0xFFFFFFFFFFFFFFFF SWAP3 DUP4 DUP4 GT PUSH3 0x207 JUMPI PUSH1 0xE0 SWAP1 DUP4 CALLDATASIZE SUB ADD SLT PUSH3 0x1C6 JUMPI DUP4 MLOAD PUSH1 0xE0 DUP2 ADD DUP2 DUP2 LT DUP6 DUP3 GT OR PUSH3 0x6C9 JUMPI DUP6 MSTORE DUP3 DUP7 ADD CALLDATALOAD DUP5 DUP2 GT PUSH3 0x166 JUMPI PUSH3 0x4B3 SWAP1 DUP8 CALLDATASIZE SWAP2 DUP7 ADD ADD PUSH3 0x765 JUMP JUMPDEST DUP2 MSTORE PUSH1 0x24 DUP4 ADD CALLDATALOAD DUP5 DUP2 GT PUSH3 0x166 JUMPI PUSH3 0x4D3 SWAP1 DUP8 CALLDATASIZE SWAP2 DUP7 ADD ADD PUSH3 0x765 JUMP JUMPDEST SWAP4 DUP8 DUP3 ADD SWAP5 DUP6 MSTORE PUSH3 0x4E8 PUSH1 0x44 DUP6 ADD PUSH3 0x7DD JUMP JUMPDEST SWAP1 DUP7 DUP4 ADD SWAP2 DUP3 MSTORE PUSH3 0x4FD PUSH1 0x64 DUP7 ADD PUSH3 0x7DD JUMP JUMPDEST SWAP5 PUSH1 0x60 DUP5 ADD SWAP6 DUP7 MSTORE PUSH1 0x80 DUP5 ADD PUSH1 0x84 DUP3 ADD CALLDATALOAD DUP2 MSTORE PUSH3 0x529 PUSH1 0xC4 PUSH1 0xA0 DUP8 ADD SWAP4 PUSH1 0xA4 DUP2 ADD CALLDATALOAD DUP6 MSTORE ADD PUSH3 0x7DD JUMP JUMPDEST SWAP8 PUSH1 0xC0 DUP7 ADD SWAP9 DUP10 MSTORE DUP10 MLOAD SWAP6 PUSH2 0x26C6 DUP1 DUP9 ADD SWAP6 DUP9 DUP8 LT SWAP1 DUP8 GT OR PUSH3 0x6B6 JUMPI SWAP2 PUSH3 0x574 DUP15 PUSH1 0xE0 PUSH3 0x587 SWAP5 DUP12 SWAP11 SWAP10 SWAP9 SWAP8 SWAP7 PUSH3 0x8E8 DUP13 CODECOPY DUP3 DUP10 MSTORE MLOAD SWAP2 DUP9 ADD MSTORE PUSH2 0x100 DUP8 ADD SWAP1 PUSH3 0x866 JUMP JUMPDEST SWAP1 MLOAD DUP6 DUP3 SUB PUSH1 0x1F NOT ADD DUP14 DUP8 ADD MSTORE PUSH3 0x866 JUMP JUMPDEST SWAP4 PUSH1 0x1 PUSH1 0x1 PUSH1 0xA0 SHL SUB SWAP9 DUP10 DUP1 SWAP3 MLOAD AND PUSH1 0x60 DUP7 ADD MSTORE MLOAD AND PUSH1 0x80 DUP5 ADD MSTORE MLOAD PUSH1 0xA0 DUP4 ADD MSTORE MLOAD PUSH1 0xC0 DUP3 ADD MSTORE PUSH1 0xE0 DUP7 DUP9 MLOAD AND SWAP2 ADD MSTORE SUB SWAP1 DUP3 CREATE DUP1 ISZERO PUSH3 0x6AA JUMPI DUP3 AND SWAP5 PUSH1 0x1 SLOAD DUP3 MSTORE PUSH1 0x2 DUP8 MSTORE DUP5 DUP3 KECCAK256 PUSH20 0xFFFFFFFFFFFFFFFFFFFFFFFFFFFFFFFFFFFFFFFF NOT SWAP1 DUP8 DUP3 DUP3 SLOAD AND OR SWAP1 SSTORE DUP7 DUP4 MSTORE PUSH1 0x3 DUP9 MSTORE DUP6 DUP4 KECCAK256 SWAP1 CALLER SWAP1 DUP3 SLOAD AND OR SWAP1 SSTORE CALLER DUP3 MSTORE DUP1 DUP8 MSTORE DUP5 DUP3 KECCAK256 PUSH1 0x1 SLOAD SWAP3 DUP2 SLOAD SWAP3 PUSH9 0x10000000000000000 DUP5 LT ISZERO PUSH3 0x697 JUMPI POP POP SWAP2 PUSH3 0x641 DUP3 DUP9 SWAP5 PUSH1 0x1 PUSH3 0x68E SWAP9 SWAP8 SWAP6 ADD DUP2 SSTORE PUSH3 0x7F2 JUMP JUMPDEST DUP2 SWAP3 SWAP2 SLOAD SWAP1 PUSH1 0x3 SHL SWAP2 DUP3 SHL SWAP2 PUSH1 0x0 NOT SWAP1 SHL NOT AND OR SWAP1 SSTORE PUSH1 0x1 SLOAD SWAP3 MLOAD AND DUP5 MLOAD SWAP1 DUP2 MSTORE DUP3 PUSH32 0x5C347F490C4BC521F814819A7844BF59D61C163459274AA6BD2B4FCE4769DFAB DUP9 CALLER SWAP4 LOG4 PUSH3 0x8A8 JUMP JUMPDEST PUSH1 0x1 SSTORE MLOAD SWAP1 DUP2 MSTORE RETURN JUMPDEST SWAP1 PUSH1 0x41 PUSH1 0x24 SWAP3 PUSH4 0x4E487B71 PUSH1 0xE0 SHL DUP4 MSTORE MSTORE REVERT JUMPDEST POP DUP4 MLOAD SWAP1 RETURNDATASIZE SWAP1 DUP3 RETURNDATACOPY RETURNDATASIZE SWAP1 REVERT JUMPDEST PUSH1 0x24 DUP10 PUSH1 0x41 DUP16 PUSH4 0x4E487B71 PUSH1 0xE0 SHL DUP4 MSTORE MSTORE REVERT JUMPDEST PUSH1 0x24 DUP4 PUSH1 0x41 DUP10 PUSH4 0x4E487B71 PUSH1 0xE0 SHL DUP4 MSTORE MSTORE REVERT JUMPDEST POP CALLVALUE PUSH3 0x166 JUMPI PUSH1 0x20 CALLDATASIZE PUSH1 0x3 NOT ADD SLT PUSH3 0x166 JUMPI DUP2 PUSH1 0x20 SWAP4 PUSH1 0x1 PUSH1 0x1 PUSH1 0xA0 SHL SUB SWAP3 CALLDATALOAD DUP2 MSTORE PUSH1 0x2 DUP6 MSTORE KECCAK256 SLOAD AND SWAP1 MLOAD SWAP1 DUP2 MSTORE RETURN JUMPDEST DUP5 SWAP1 CALLVALUE PUSH3 0x207 JUMPI DUP2 PUSH1 0x3 NOT CALLDATASIZE ADD SLT PUSH3 0x207 JUMPI PUSH1 0x20 SWAP1 PUSH1 0x1 SLOAD DUP2 MSTORE RETURN JUMPDEST SWAP1 PUSH1 0x1F DUP1 NOT SWAP2 ADD AND DUP2 ADD SWAP1 DUP2 LT PUSH8 0xFFFFFFFFFFFFFFFF DUP3 GT OR PUSH3 0x74F JUMPI PUSH1 0x40 MSTORE JUMP JUMPDEST PUSH4 0x4E487B71 PUSH1 0xE0 SHL PUSH1 0x0 MSTORE PUSH1 0x41 PUSH1 0x4 MSTORE PUSH1 0x24 PUSH1 0x0 REVERT JUMPDEST DUP2 PUSH1 0x1F DUP3 ADD SLT ISZERO PUSH3 0x7C1 JUMPI DUP1 CALLDATALOAD SWAP1 PUSH8 0xFFFFFFFFFFFFFFFF DUP3 GT PUSH3 0x74F JUMPI PUSH1 0x40 MLOAD SWAP3 PUSH3 0x79E PUSH1 0x1F DUP5 ADD PUSH1 0x1F NOT AND PUSH1 0x20 ADD DUP6 PUSH3 0x72C JUMP JUMPDEST DUP3 DUP5 MSTORE PUSH1 0x20 DUP4 DUP4 ADD ADD GT PUSH3 0x7C1 JUMPI DUP2 PUSH1 0x0 SWAP3 PUSH1 0x20 DUP1 SWAP4 ADD DUP4 DUP7 ADD CALLDATACOPY DUP4 ADD ADD MSTORE SWAP1 JUMP JUMPDEST PUSH1 0x0 DUP1 REVERT JUMPDEST PUSH1 0x4 CALLDATALOAD SWAP1 PUSH1 0x1 PUSH1 0x1 PUSH1 0xA0 SHL SUB DUP3 AND DUP3 SUB PUSH3 0x7C1 JUMPI JUMP JUMPDEST CALLDATALOAD SWAP1 PUSH1 0x1 PUSH1 0x1 PUSH1 0xA0 SHL SUB DUP3 AND DUP3 SUB PUSH3 0x7C1 JUMPI JUMP JUMPDEST DUP1 SLOAD DUP3 LT ISZERO PUSH3 0x80B JUMPI PUSH1 0x0 MSTORE PUSH1 0x20 PUSH1 0x0 KECCAK256 ADD SWAP1 PUSH1 0x0 SWAP1 JUMP JUMPDEST PUSH4 0x4E487B71 PUSH1 0xE0 SHL PUSH1 0x0 MSTORE PUSH1 0x32 PUSH1 0x4 MSTORE PUSH1 0x24 PUSH1 0x0 REVERT JUMPDEST PUSH1 0x1 PUSH1 0x1 PUSH1 0xA0 SHL SUB PUSH1 0x0 SLOAD AND CALLER SUB PUSH3 0x836 JUMPI JUMP JUMPDEST PUSH1 0x24 PUSH1 0x40 MLOAD PUSH32 0x118CDAA700000000000000000000000000000000000000000000000000000000 DUP2 MSTORE CALLER PUSH1 0x4 DUP3 ADD MSTORE REVERT JUMPDEST SWAP2 SWAP1 DUP3 MLOAD SWAP3 DUP4 DUP3 MSTORE PUSH1 0x0 JUMPDEST DUP5 DUP2 LT PUSH3 0x893 JUMPI POP POP DUP3 PUSH1 0x0 PUSH1 0x20 DUP1 SWAP5 SWAP6 DUP5 ADD ADD MSTORE PUSH1 0x1F DUP1 NOT SWAP2 ADD AND ADD ADD SWAP1 JUMP JUMPDEST PUSH1 0x20 DUP2 DUP4 ADD DUP2 ADD MLOAD DUP5 DUP4 ADD DUP3 ADD MSTORE ADD PUSH3 0x871 JUMP JUMPDEST PUSH1 0x0 NOT DUP2 EQ PUSH3 0x8B8 JUMPI PUSH1 0x1 ADD SWAP1 JUMP JUMPDEST PUSH4 0x4E487B71 PUSH1 0xE0 SHL PUSH1 0x0 MSTORE PUSH1 0x11 PUSH1 0x4 MSTORE PUSH1 0x24 PUSH1 0x0 REVERT JUMPDEST PUSH8 0xFFFFFFFFFFFFFFFF DUP2 GT PUSH3 0x74F JUMPI PUSH1 0x5 SHL PUSH1 0x20 ADD SWAP1 JUMP INVALID PUSH1 0x40 PUSH2 0x120 DUP2 MSTORE CALLVALUE PUSH3 0x4ED JUMPI PUSH3 0x26C6 SWAP1 DUP2 CODESIZE SUB DUP1 PUSH3 0x20 DUP2 PUSH3 0x4F2 JUMP JUMPDEST SWAP4 DUP5 CODECOPY DUP3 ADD SWAP2 PUSH1 0x20 DUP2 DUP5 SUB SLT PUSH3 0x4ED JUMPI DUP1 MLOAD SWAP1 PUSH1 0x1 PUSH1 0x1 PUSH1 0x40 SHL SUB DUP3 GT PUSH3 0x4ED JUMPI ADD PUSH1 0xE0 DUP2 DUP5 SUB SLT PUSH3 0x4ED JUMPI DUP2 MLOAD SWAP3 PUSH1 0xE0 DUP5 ADD PUSH1 0x1 PUSH1 0x1 PUSH1 0x40 SHL SUB DUP2 GT DUP6 DUP3 LT OR PUSH3 0x3C4 JUMPI DUP4 MSTORE DUP2 MLOAD PUSH1 0x1 PUSH1 0x1 PUSH1 0x40 SHL SUB DUP2 GT PUSH3 0x4ED JUMPI DUP2 PUSH3 0x8A SWAP2 DUP5 ADD PUSH3 0x518 JUMP JUMPDEST DUP5 MSTORE PUSH1 0x20 DUP3 ADD MLOAD SWAP1 PUSH1 0x1 PUSH1 0x1 PUSH1 0x40 SHL SUB DUP3 GT PUSH3 0x4ED JUMPI PUSH3 0xAE SWAP2 DUP4 ADD PUSH3 0x518 JUMP JUMPDEST SWAP3 DUP4 PUSH1 0x20 DUP3 ADD MSTORE PUSH3 0xC2 DUP4 DUP4 ADD PUSH3 0x58A JUMP JUMPDEST DUP4 DUP3 ADD MSTORE PUSH3 0xD4 PUSH1 0x60 DUP4 ADD PUSH3 0x58A JUMP JUMPDEST PUSH1 0x60 DUP3 ADD MSTORE PUSH1 0x80 DUP3 ADD MLOAD SWAP2 PUSH1 0x80 DUP3 ADD SWAP3 DUP4 MSTORE PUSH3 0x100 PUSH1 0xC0 PUSH1 0xA0 DUP4 ADD MLOAD SWAP3 PUSH1 0xA0 DUP6 ADD SWAP4 DUP5 MSTORE ADD PUSH3 0x58A JUMP JUMPDEST PUSH1 0xC0 DUP4 ADD MSTORE DUP2 MLOAD DUP1 MLOAD PUSH1 0x1 PUSH1 0x1 PUSH1 0x40 SHL SUB DUP2 GT PUSH3 0x3C4 JUMPI PUSH1 0x3 SLOAD SWAP2 PUSH1 0x1 DUP4 DUP2 SHR SWAP4 AND DUP1 ISZERO PUSH3 0x4E2 JUMPI JUMPDEST PUSH1 0x20 DUP5 LT EQ PUSH3 0x4CC JUMPI DUP2 SWAP1 PUSH1 0x1F SWAP4 DUP5 DUP2 GT PUSH3 0x475 JUMPI JUMPDEST POP PUSH1 0x20 SWAP1 DUP5 DUP4 GT PUSH1 0x1 EQ PUSH3 0x3E6 JUMPI PUSH1 0x0 SWAP3 PUSH3 0x3DA JUMPI JUMPDEST POP POP DUP2 PUSH1 0x1 SHL SWAP2 PUSH1 0x0 NOT SWAP1 PUSH1 0x3 SHL SHR NOT AND OR PUSH1 0x3 SSTORE JUMPDEST DUP6 MLOAD SWAP1 PUSH1 0x1 PUSH1 0x1 PUSH1 0x40 SHL SUB DUP3 GT PUSH3 0x3C4 JUMPI PUSH1 0x4 SWAP7 DUP8 SLOAD PUSH1 0x1 DUP2 DUP2 SHR SWAP2 AND DUP1 ISZERO PUSH3 0x3B9 JUMPI JUMPDEST PUSH1 0x20 DUP3 LT EQ PUSH3 0x3A4 JUMPI SWAP1 DUP2 DUP4 DUP6 SWAP5 SWAP4 GT PUSH3 0x34B JUMPI JUMPDEST POP PUSH1 0x20 SWAP2 DUP4 GT PUSH1 0x1 EQ PUSH3 0x2E0 JUMPI PUSH1 0x0 SWAP3 PUSH3 0x2D4 JUMPI JUMPDEST POP POP DUP2 PUSH1 0x1 SHL SWAP2 PUSH1 0x0 NOT SWAP1 PUSH1 0x3 SHL SHR NOT AND OR DUP6 SSTORE JUMPDEST PUSH1 0x1 PUSH1 0x7 SSTORE DUP2 DUP5 ADD MLOAD PUSH1 0x1 PUSH1 0x1 PUSH1 0xA0 SHL SUB SWAP4 SWAP1 DUP5 AND ISZERO DUP1 ISZERO PUSH3 0x2C5 JUMPI JUMPDEST PUSH3 0x2B5 JUMPI DUP5 DUP4 ADD MLOAD DUP5 AND PUSH1 0x80 MSTORE PUSH1 0x60 DUP4 ADD MLOAD DUP5 AND PUSH1 0xA0 MSTORE MLOAD PUSH1 0xC0 SWAP1 DUP2 MSTORE SWAP1 MLOAD PUSH1 0xE0 MSTORE ADD MLOAD AND PUSH2 0x100 SWAP1 DUP2 MSTORE SWAP1 PUSH3 0x230 CALLER PUSH3 0x59F JUMP JUMPDEST POP PUSH3 0x23C CALLER PUSH3 0x620 JUMP JUMPDEST POP MLOAD PUSH2 0x1FE2 SWAP2 DUP3 PUSH3 0x6C4 DUP4 CODECOPY PUSH1 0x80 MLOAD DUP3 DUP2 DUP2 PUSH2 0x2E3 ADD MSTORE DUP2 DUP2 PUSH2 0x1000 ADD MSTORE DUP2 DUP2 PUSH2 0x1373 ADD MSTORE PUSH2 0x19C0 ADD MSTORE PUSH1 0xA0 MLOAD DUP3 DUP2 DUP2 PUSH2 0x51D ADD MSTORE DUP2 DUP2 PUSH2 0x7FE ADD MSTORE DUP2 DUP2 PUSH2 0xD21 ADD MSTORE PUSH2 0xF34 ADD MSTORE PUSH1 0xC0 MLOAD DUP3 DUP2 DUP2 PUSH2 0x694 ADD MSTORE PUSH2 0x12CE ADD MSTORE PUSH1 0xE0 MLOAD DUP3 DUP2 DUP2 PUSH2 0x108E ADD MSTORE PUSH2 0x1631 ADD MSTORE MLOAD DUP2 DUP2 DUP2 PUSH2 0xF90 ADD MSTORE PUSH2 0x16C4 ADD MSTORE RETURN JUMPDEST DUP5 MLOAD PUSH4 0x29456045 PUSH1 0xE1 SHL DUP2 MSTORE DUP7 SWAP1 REVERT JUMPDEST POP DUP4 PUSH1 0x60 DUP5 ADD MLOAD AND ISZERO PUSH3 0x1F8 JUMP JUMPDEST ADD MLOAD SWAP1 POP CODESIZE DUP1 PUSH3 0x1C5 JUMP JUMPDEST PUSH1 0x0 DUP10 DUP2 MSTORE PUSH1 0x20 DUP2 KECCAK256 SWAP4 POP PUSH1 0x1F NOT DUP6 AND SWAP1 JUMPDEST DUP2 DUP2 LT PUSH3 0x332 JUMPI POP SWAP1 DUP5 PUSH1 0x1 SWAP6 SWAP5 SWAP4 SWAP3 LT PUSH3 0x318 JUMPI JUMPDEST POP POP POP DUP2 SHL ADD DUP6 SSTORE PUSH3 0x1DA JUMP JUMPDEST ADD MLOAD PUSH1 0x0 NOT PUSH1 0xF8 DUP5 PUSH1 0x3 SHL AND SHR NOT AND SWAP1 SSTORE CODESIZE DUP1 DUP1 PUSH3 0x30A JUMP JUMPDEST SWAP3 SWAP4 PUSH1 0x20 PUSH1 0x1 DUP2 SWAP3 DUP8 DUP7 ADD MLOAD DUP2 SSTORE ADD SWAP6 ADD SWAP4 ADD PUSH3 0x2F2 JUMP JUMPDEST SWAP1 SWAP2 SWAP3 POP DUP9 PUSH1 0x0 MSTORE PUSH1 0x20 PUSH1 0x0 KECCAK256 DUP4 DUP1 DUP7 ADD PUSH1 0x5 SHR DUP3 ADD SWAP3 PUSH1 0x20 DUP8 LT PUSH3 0x39A JUMPI JUMPDEST SWAP5 DUP7 SWAP6 SWAP5 SWAP4 SWAP3 SWAP2 SWAP5 ADD PUSH1 0x5 SHR ADD SWAP1 JUMPDEST DUP2 DUP2 LT PUSH3 0x38A JUMPI POP PUSH3 0x1AE JUMP JUMPDEST PUSH1 0x0 DUP2 SSTORE DUP6 SWAP5 POP PUSH1 0x1 ADD PUSH3 0x37B JUMP JUMPDEST SWAP3 POP DUP2 SWAP3 PUSH3 0x36C JUMP JUMPDEST PUSH1 0x22 DUP10 PUSH4 0x4E487B71 PUSH1 0xE0 SHL PUSH1 0x0 MSTORE MSTORE PUSH1 0x24 PUSH1 0x0 REVERT JUMPDEST SWAP1 PUSH1 0x7F AND SWAP1 PUSH3 0x197 JUMP JUMPDEST PUSH4 0x4E487B71 PUSH1 0xE0 SHL PUSH1 0x0 MSTORE PUSH1 0x41 PUSH1 0x4 MSTORE PUSH1 0x24 PUSH1 0x0 REVERT JUMPDEST ADD MLOAD SWAP1 POP CODESIZE DUP1 PUSH3 0x15B JUMP JUMPDEST PUSH1 0x3 PUSH1 0x0 SWAP1 DUP2 MSTORE SWAP4 POP PUSH32 0xC2575A0E9E593C00F959F8C92F12DB2869C3395A3B0502D05E2516446F71F85B SWAP2 SWAP1 JUMPDEST PUSH1 0x1F NOT DUP5 AND DUP6 LT PUSH3 0x459 JUMPI PUSH1 0x1 SWAP5 POP DUP4 PUSH1 0x1F NOT DUP2 AND LT PUSH3 0x43F JUMPI JUMPDEST POP POP POP DUP2 SHL ADD PUSH1 0x3 SSTORE PUSH3 0x171 JUMP JUMPDEST ADD MLOAD PUSH1 0x0 NOT PUSH1 0xF8 DUP5 PUSH1 0x3 SHL AND SHR NOT AND SWAP1 SSTORE CODESIZE DUP1 DUP1 PUSH3 0x430 JUMP JUMPDEST DUP2 DUP2 ADD MLOAD DUP4 SSTORE PUSH1 0x20 SWAP5 DUP6 ADD SWAP5 PUSH1 0x1 SWAP1 SWAP4 ADD SWAP3 SWAP1 SWAP2 ADD SWAP1 PUSH3 0x413 JUMP JUMPDEST SWAP1 SWAP2 POP PUSH1 0x3 PUSH1 0x0 MSTORE PUSH1 0x20 PUSH1 0x0 KECCAK256 DUP5 DUP1 DUP6 ADD PUSH1 0x5 SHR DUP3 ADD SWAP3 PUSH1 0x20 DUP7 LT PUSH3 0x4C2 JUMPI JUMPDEST SWAP1 DUP6 SWAP5 SWAP4 SWAP3 SWAP2 ADD PUSH1 0x5 SHR ADD SWAP1 JUMPDEST DUP2 DUP2 LT PUSH3 0x4B2 JUMPI POP PUSH3 0x143 JUMP JUMPDEST PUSH1 0x0 DUP2 SSTORE DUP5 SWAP4 POP PUSH1 0x1 ADD PUSH3 0x4A3 JUMP JUMPDEST SWAP3 POP DUP2 SWAP3 PUSH3 0x496 JUMP JUMPDEST PUSH4 0x4E487B71 PUSH1 0xE0 SHL PUSH1 0x0 MSTORE PUSH1 0x22 PUSH1 0x4 MSTORE PUSH1 0x24 PUSH1 0x0 REVERT JUMPDEST SWAP3 PUSH1 0x7F AND SWAP3 PUSH3 0x12B JUMP JUMPDEST PUSH1 0x0 DUP1 REVERT JUMPDEST PUSH1 0x40 MLOAD SWAP2 SWAP1 PUSH1 0x1F ADD PUSH1 0x1F NOT AND DUP3 ADD PUSH1 0x1 PUSH1 0x1 PUSH1 0x40 SHL SUB DUP2 GT DUP4 DUP3 LT OR PUSH3 0x3C4 JUMPI PUSH1 0x40 MSTORE JUMP JUMPDEST SWAP2 SWAP1 DUP1 PUSH1 0x1F DUP5 ADD SLT ISZERO PUSH3 0x4ED JUMPI DUP3 MLOAD PUSH1 0x1 PUSH1 0x1 PUSH1 0x40 SHL SUB DUP2 GT PUSH3 0x3C4 JUMPI PUSH1 0x20 SWAP1 PUSH3 0x54E PUSH1 0x1F DUP3 ADD PUSH1 0x1F NOT AND DUP4 ADD PUSH3 0x4F2 JUMP JUMPDEST SWAP3 DUP2 DUP5 MSTORE DUP3 DUP3 DUP8 ADD ADD GT PUSH3 0x4ED JUMPI PUSH1 0x0 JUMPDEST DUP2 DUP2 LT PUSH3 0x576 JUMPI POP DUP3 PUSH1 0x0 SWAP4 SWAP5 SWAP6 POP ADD ADD MSTORE SWAP1 JUMP JUMPDEST DUP6 DUP2 ADD DUP4 ADD MLOAD DUP5 DUP3 ADD DUP5 ADD MSTORE DUP3 ADD PUSH3 0x560 JUMP JUMPDEST MLOAD SWAP1 PUSH1 0x1 PUSH1 0x1 PUSH1 0xA0 SHL SUB DUP3 AND DUP3 SUB PUSH3 0x4ED JUMPI JUMP JUMPDEST PUSH1 0x1 PUSH1 0x1 PUSH1 0xA0 SHL SUB AND PUSH1 0x0 DUP2 DUP2 MSTORE PUSH32 0x5B8CCBB9D4D8FB16EA74CE3C29A41F1B461FBDAFF4714A0D9A8EB05499746BC PUSH1 0x20 MSTORE PUSH1 0x40 DUP2 KECCAK256 SLOAD SWAP1 SWAP2 SWAP1 PUSH1 0xFF AND PUSH3 0x61C JUMPI DUP2 DUP1 MSTORE PUSH1 0x5 PUSH1 0x20 MSTORE PUSH1 0x40 DUP3 KECCAK256 DUP2 DUP4 MSTORE PUSH1 0x20 MSTORE PUSH1 0x40 DUP3 KECCAK256 PUSH1 0x1 PUSH1 0xFF NOT DUP3 SLOAD AND OR SWAP1 SSTORE CALLER SWAP2 PUSH1 0x0 DUP1 MLOAD PUSH1 0x20 PUSH3 0x26A6 DUP4 CODECOPY DUP2 MLOAD SWAP2 MSTORE DUP2 DUP1 LOG4 PUSH1 0x1 SWAP1 JUMP JUMPDEST POP SWAP1 JUMP JUMPDEST PUSH1 0x1 PUSH1 0x1 PUSH1 0xA0 SHL SUB AND PUSH1 0x0 DUP2 DUP2 MSTORE PUSH32 0xA9780AC285A6B64C20B34D35938634CCFEAF5DE258BEA281533158D789CA4A2F PUSH1 0x20 MSTORE PUSH1 0x40 DUP2 KECCAK256 SLOAD SWAP1 SWAP2 SWAP1 PUSH32 0x84B05DEF62CE9BC2BD93F644E8C54B097DB7EE9EDAB66685B9B15DC162C75564 SWAP1 PUSH1 0xFF AND PUSH3 0x6BE JUMPI DUP1 DUP4 MSTORE PUSH1 0x5 PUSH1 0x20 MSTORE PUSH1 0x40 DUP4 KECCAK256 DUP3 DUP5 MSTORE PUSH1 0x20 MSTORE PUSH1 0x40 DUP4 KECCAK256 PUSH1 0x1 PUSH1 0xFF NOT DUP3 SLOAD AND OR SWAP1 SSTORE PUSH1 0x0 DUP1 MLOAD PUSH1 0x20 PUSH3 0x26A6 DUP4 CODECOPY DUP2 MLOAD SWAP2 MSTORE CALLER SWAP4 DUP1 LOG4 PUSH1 0x1 SWAP1 JUMP JUMPDEST POP POP SWAP1 JUMP INVALID PUSH1 0x80 PUSH1 0x40 DUP2 DUP2 MSTORE PUSH1 0x4 SWAP2 DUP3 CALLDATASIZE LT ISZERO PUSH2 0x16 JUMPI PUSH1 0x0 DUP1 REVERT JUMPDEST PUSH1 0x0 SWAP3 DUP4 CALLDATALOAD PUSH1 0xE0 SHR SWAP2 DUP3 PUSH3 0xE77AA6 EQ PUSH2 0x19A1 JUMPI POP DUP2 PUSH4 0x1FFC9A7 EQ PUSH2 0x1900 JUMPI DUP2 PUSH4 0x6FDDE03 EQ PUSH2 0x180B JUMPI DUP2 PUSH4 0x95EA7B3 EQ PUSH2 0x1763 JUMPI DUP2 PUSH4 0x9AD1C47 EQ PUSH2 0x172B JUMPI DUP2 PUSH4 0xB5DCE33 EQ PUSH2 0x1707 JUMPI DUP2 PUSH4 0x18160DDD EQ PUSH2 0x16E8 JUMPI DUP2 PUSH4 0x1A4F94F7 EQ PUSH2 0x16A4 JUMPI DUP2 PUSH4 0x23B872DD EQ PUSH2 0x167F JUMPI DUP2 PUSH4 0x248A9CA3 EQ PUSH2 0x1654 JUMPI DUP2 PUSH4 0x2B4353F2 EQ PUSH2 0x1619 JUMPI DUP2 PUSH4 0x2F2FF15D EQ PUSH2 0x15EF JUMPI DUP2 PUSH4 0x313CE567 EQ PUSH2 0x15D3 JUMPI DUP2 PUSH4 0x36568ABE EQ PUSH2 0x1574 JUMPI DUP2 PUSH4 0x3F4BA83A EQ PUSH2 0x14F1 JUMPI DUP2 PUSH4 0x4265B3C9 EQ PUSH2 0x1463 JUMPI DUP2 PUSH4 0x42966C68 EQ PUSH2 0x1445 JUMPI DUP2 PUSH4 0x464F0B0D EQ PUSH2 0x12BA JUMPI DUP2 PUSH4 0x48E8A949 EQ PUSH2 0xF58 JUMPI DUP2 PUSH4 0x4EFA82B6 EQ PUSH2 0xF14 JUMPI DUP2 PUSH4 0x5C975ABB EQ PUSH2 0xEF0 JUMPI DUP2 PUSH4 0x6F7BC9BE EQ PUSH2 0xE41 JUMPI DUP2 PUSH4 0x70A08231 EQ PUSH2 0xE0B JUMPI DUP2 PUSH4 0x74A3D5B8 EQ PUSH2 0xC75 JUMPI DUP2 PUSH4 0x79CC6790 EQ PUSH2 0xB73 JUMPI DUP2 PUSH4 0x7EB9D981 EQ PUSH2 0xB49 JUMPI DUP2 PUSH4 0x83C379D4 EQ PUSH2 0xB1F JUMPI DUP2 PUSH4 0x8456CB59 EQ PUSH2 0xA9A JUMPI DUP2 PUSH4 0x8695ED64 EQ PUSH2 0xA7B JUMPI DUP2 PUSH4 0x895955E6 EQ PUSH2 0xA40 JUMPI DUP2 PUSH4 0x91D14854 EQ PUSH2 0x9FA JUMPI DUP2 PUSH4 0x95D89B41 EQ PUSH2 0x8F7 JUMPI DUP2 PUSH4 0xA217FDDF EQ PUSH2 0x8DC JUMPI DUP2 PUSH4 0xA41CAC7F EQ PUSH2 0x766 JUMPI DUP2 PUSH4 0xA9059CBB EQ PUSH2 0x724 JUMPI DUP2 PUSH4 0xBFF08087 EQ PUSH2 0x6F7 JUMPI DUP2 PUSH4 0xD547741F EQ PUSH2 0x6B7 JUMPI DUP2 PUSH4 0xD59624B4 EQ PUSH2 0x67C JUMPI DUP2 PUSH4 0xDD62ED3E EQ PUSH2 0x633 JUMPI DUP2 PUSH4 0xE88499A9 EQ PUSH2 0x431 JUMPI DUP2 PUSH4 0xEB73FA6F EQ PUSH2 0x412 JUMPI DUP2 PUSH4 0xF2C39992 EQ PUSH2 0x21E JUMPI POP PUSH4 0xF9168231 EQ PUSH2 0x1FD JUMPI PUSH1 0x0 DUP1 REVERT JUMPDEST CALLVALUE PUSH2 0x21A JUMPI DUP2 PUSH1 0x3 NOT CALLDATASIZE ADD SLT PUSH2 0x21A JUMPI PUSH1 0x20 SWAP1 PUSH1 0x8 SLOAD SWAP1 MLOAD SWAP1 DUP2 MSTORE RETURN JUMPDEST POP DUP1 REVERT JUMPDEST DUP4 DUP4 CALLVALUE PUSH2 0x21A JUMPI DUP2 PUSH1 0x3 NOT CALLDATASIZE ADD SLT PUSH2 0x21A JUMPI PUSH2 0x238 PUSH2 0x1F1B JUMP JUMPDEST PUSH1 0xFF PUSH1 0x9 SLOAD AND ISZERO PUSH2 0x3EA JUMPI CALLER DUP3 MSTORE PUSH1 0x20 SWAP1 PUSH1 0xB DUP3 MSTORE DUP1 DUP4 KECCAK256 SWAP2 DUP3 SLOAD SWAP1 DUP2 ISZERO PUSH2 0x3DB JUMPI PUSH1 0x7 DUP5 ADD SWAP4 PUSH1 0xFF DUP6 SLOAD AND PUSH2 0x3B3 JUMPI PUSH1 0x1 ADD SLOAD PUSH1 0xFF AND PUSH2 0x3A4 JUMPI CALLER DUP6 MSTORE DUP5 DUP2 MSTORE DUP3 DUP6 KECCAK256 SLOAD SWAP4 DUP5 ISZERO PUSH2 0x395 JUMPI PUSH2 0x2A8 PUSH2 0x2A1 PUSH2 0x2710 PUSH2 0x299 PUSH1 0xA SLOAD DUP8 PUSH2 0x1E8B JUMP JUMPDEST DIV DUP1 SWAP6 PUSH2 0x1EBE JUMP JUMPDEST SWAP6 CALLER PUSH2 0x1D67 JUMP JUMPDEST DUP1 SLOAD PUSH1 0xFF NOT AND PUSH1 0x1 OR SWAP1 SSTORE DUP3 MLOAD PUSH4 0xA9059CBB PUSH1 0xE0 SHL DUP2 MSTORE CALLER DUP8 DUP3 ADD SWAP1 DUP2 MSTORE PUSH1 0x20 DUP2 ADD DUP7 SWAP1 MSTORE DUP3 SWAP1 DUP3 SWAP1 DUP2 SWAP1 PUSH1 0x40 ADD SUB DUP2 DUP10 PUSH1 0x1 PUSH1 0x1 PUSH1 0xA0 SHL SUB PUSH32 0x0 AND GAS CALL SWAP1 DUP2 ISZERO PUSH2 0x38B JUMPI DUP7 SWAP2 PUSH2 0x35E JUMPI JUMPDEST POP ISZERO PUSH2 0x34F JUMPI DUP3 MLOAD SWAP4 DUP5 MSTORE DUP4 ADD MSTORE CALLER SWAP2 PUSH32 0xA34530EC0B9FD6C8B48017F6726AF24C1AD4F28D0F434F7396906B6B954C1D98 SWAP2 SWAP1 LOG2 PUSH1 0x1 PUSH1 0x7 SSTORE DUP1 RETURN JUMPDEST DUP6 DUP4 MLOAD PUSH4 0x12171D83 PUSH1 0xE3 SHL DUP2 MSTORE REVERT JUMPDEST PUSH2 0x37E SWAP2 POP DUP3 RETURNDATASIZE DUP5 GT PUSH2 0x384 JUMPI JUMPDEST PUSH2 0x376 DUP2 DUP4 PUSH2 0x1D2F JUMP JUMPDEST DUP2 ADD SWAP1 PUSH2 0x1E73 JUMP JUMPDEST DUP8 PUSH2 0x313 JUMP JUMPDEST POP RETURNDATASIZE PUSH2 0x36C JUMP JUMPDEST DUP5 MLOAD RETURNDATASIZE DUP9 DUP3 RETURNDATACOPY RETURNDATASIZE SWAP1 REVERT JUMPDEST DUP7 DUP5 MLOAD PUSH4 0x3A6A68B1 PUSH1 0xE0 SHL DUP2 MSTORE REVERT JUMPDEST DUP6 DUP4 MLOAD PUSH4 0x17968E53 PUSH1 0xE3 SHL DUP2 MSTORE REVERT JUMPDEST DUP7 DUP5 MLOAD PUSH32 0x5090D6C600000000000000000000000000000000000000000000000000000000 DUP2 MSTORE REVERT JUMPDEST DUP6 DUP4 MLOAD PUSH4 0x3A6A68B1 PUSH1 0xE0 SHL DUP2 MSTORE REVERT JUMPDEST SWAP1 POP MLOAD PUSH32 0xA2A2B35C00000000000000000000000000000000000000000000000000000000 DUP2 MSTORE REVERT JUMPDEST POP POP CALLVALUE PUSH2 0x21A JUMPI DUP2 PUSH1 0x3 NOT CALLDATASIZE ADD SLT PUSH2 0x21A JUMPI PUSH1 0x20 SWAP1 PUSH1 0xC SLOAD SWAP1 MLOAD SWAP1 DUP2 MSTORE RETURN JUMPDEST SWAP2 SWAP1 POP CALLVALUE PUSH2 0x62F JUMPI DUP3 PUSH1 0x3 NOT CALLDATASIZE ADD SLT PUSH2 0x62F JUMPI CALLER DUP4 MSTORE PUSH1 0xB PUSH1 0x20 MSTORE DUP1 DUP4 KECCAK256 SWAP2 DUP3 SLOAD DUP1 ISZERO PUSH2 0x620 JUMPI PUSH1 0xFF PUSH1 0x1 DUP6 ADD SLOAD AND PUSH2 0x611 JUMPI PUSH2 0x473 PUSH1 0xFF DUP4 DUP7 ADD SLOAD AND PUSH2 0x1ECB JUMP JUMPDEST SWAP1 DUP2 ISZERO PUSH2 0x602 JUMPI PUSH1 0x2 DUP6 ADD DUP1 SLOAD PUSH2 0x48A DUP2 TIMESTAMP PUSH2 0x1EBE JUMP JUMPDEST DUP5 DUP2 LT PUSH2 0x5DA JUMPI DUP5 PUSH2 0x49B SWAP2 PUSH2 0x1E9E JUMP JUMPDEST SWAP4 PUSH1 0x3 PUSH2 0x4AC PUSH1 0x5 DUP11 ADD SLOAD DUP8 PUSH2 0x1E8B JUMP JUMPDEST SWAP9 ADD SWAP5 DUP6 SLOAD SWAP5 DUP1 PUSH2 0x4BD DUP12 DUP9 PUSH2 0x1E50 JUMP JUMPDEST GT PUSH2 0x5C6 JUMPI JUMPDEST POP DUP9 ISZERO PUSH2 0x5B7 JUMPI PUSH2 0x4EB SWAP5 SWAP3 PUSH2 0x4DE DUP11 SWAP6 SWAP4 PUSH2 0x4E4 SWAP4 PUSH2 0x1E8B JUMP JUMPDEST SWAP1 PUSH2 0x1E50 JUMP JUMPDEST SWAP1 SSTORE PUSH2 0x1E50 JUMP JUMPDEST SWAP1 SSTORE DUP2 MLOAD PUSH4 0xA9059CBB PUSH1 0xE0 SHL DUP2 MSTORE CALLER DUP3 DUP3 ADD SWAP1 DUP2 MSTORE PUSH1 0x20 DUP2 DUP2 ADD DUP7 SWAP1 MSTORE SWAP1 DUP3 SWAP1 DUP2 SWAP1 PUSH1 0x40 ADD SUB DUP2 DUP9 PUSH1 0x1 PUSH1 0x1 PUSH1 0xA0 SHL SUB PUSH32 0x0 AND GAS CALL SWAP1 DUP2 ISZERO PUSH2 0x5AD JUMPI DUP6 SWAP2 PUSH2 0x58F JUMPI JUMPDEST POP ISZERO PUSH2 0x581 JUMPI POP MLOAD SWAP1 DUP2 MSTORE PUSH32 0x399492D309DD6967E8059DE2EECE78587D885C0E55C73801041891DC98CB9392 PUSH1 0x20 CALLER SWAP3 LOG2 DUP1 RETURN JUMPDEST SWAP1 MLOAD PUSH4 0x12171D83 PUSH1 0xE3 SHL DUP2 MSTORE REVERT JUMPDEST PUSH2 0x5A7 SWAP2 POP PUSH1 0x20 RETURNDATASIZE DUP2 GT PUSH2 0x384 JUMPI PUSH2 0x376 DUP2 DUP4 PUSH2 0x1D2F JUMP JUMPDEST CODESIZE PUSH2 0x54D JUMP JUMPDEST DUP4 MLOAD RETURNDATASIZE DUP8 DUP3 RETURNDATACOPY RETURNDATASIZE SWAP1 REVERT JUMPDEST DUP7 DUP9 MLOAD PUSH4 0x439ECE77 PUSH1 0xE0 SHL DUP2 MSTORE REVERT JUMPDEST PUSH2 0x5D3 SWAP2 SWAP10 POP DUP6 SWAP1 PUSH2 0x1EBE JUMP JUMPDEST SWAP8 CODESIZE PUSH2 0x4C3 JUMP JUMPDEST DUP6 DUP8 MLOAD PUSH32 0xB477C7B100000000000000000000000000000000000000000000000000000000 DUP2 MSTORE REVERT JUMPDEST DUP3 DUP5 MLOAD PUSH4 0x439ECE77 PUSH1 0xE0 SHL DUP2 MSTORE REVERT JUMPDEST POP SWAP1 MLOAD PUSH4 0x17968E53 PUSH1 0xE3 SHL DUP2 MSTORE REVERT JUMPDEST POP SWAP1 MLOAD PUSH4 0x3A6A68B1 PUSH1 0xE0 SHL DUP2 MSTORE REVERT JUMPDEST DUP3 DUP1 REVERT JUMPDEST POP POP CALLVALUE PUSH2 0x21A JUMPI DUP1 PUSH1 0x3 NOT CALLDATASIZE ADD SLT PUSH2 0x21A JUMPI DUP1 PUSH1 0x20 SWAP3 PUSH2 0x651 PUSH2 0x1A2D JUMP JUMPDEST PUSH2 0x659 PUSH2 0x1A48 JUMP JUMPDEST PUSH1 0x1 PUSH1 0x1 PUSH1 0xA0 SHL SUB SWAP2 DUP3 AND DUP4 MSTORE PUSH1 0x1 DUP7 MSTORE DUP4 DUP4 KECCAK256 SWAP2 AND DUP3 MSTORE DUP5 MSTORE KECCAK256 SLOAD SWAP1 MLOAD SWAP1 DUP2 MSTORE RETURN JUMPDEST POP POP CALLVALUE PUSH2 0x21A JUMPI DUP2 PUSH1 0x3 NOT CALLDATASIZE ADD SLT PUSH2 0x21A JUMPI PUSH1 0x20 SWAP1 MLOAD PUSH32 0x0 DUP2 MSTORE RETURN JUMPDEST SWAP2 SWAP1 POP CALLVALUE PUSH2 0x62F JUMPI DUP1 PUSH1 0x3 NOT CALLDATASIZE ADD SLT PUSH2 0x62F JUMPI PUSH2 0x6F3 SWAP2 CALLDATALOAD PUSH2 0x6EE PUSH1 0x1 PUSH2 0x6DC PUSH2 0x1A48 JUMP JUMPDEST SWAP4 DUP4 DUP8 MSTORE PUSH1 0x5 PUSH1 0x20 MSTORE DUP7 KECCAK256 ADD SLOAD PUSH2 0x1AB6 JUMP JUMPDEST PUSH2 0x1CB7 JUMP JUMPDEST POP DUP1 RETURN JUMPDEST DUP4 CALLVALUE PUSH2 0x721 JUMPI PUSH1 0x20 CALLDATASIZE PUSH1 0x3 NOT ADD SLT PUSH2 0x721 JUMPI PUSH2 0x6F3 PUSH2 0x714 PUSH2 0x1A2D JUMP JUMPDEST PUSH2 0x71C PUSH2 0x1A5E JUMP JUMPDEST PUSH2 0x1C0B JUMP JUMPDEST DUP1 REVERT JUMPDEST DUP3 DUP5 CALLVALUE PUSH2 0x721 JUMPI DUP2 PUSH1 0x3 NOT CALLDATASIZE ADD SLT PUSH2 0x721 JUMPI POP PUSH2 0x73F PUSH2 0x1A2D JUMP JUMPDEST POP MLOAD PUSH32 0xADE576C500000000000000000000000000000000000000000000000000000000 DUP2 MSTORE REVERT JUMPDEST DUP4 DUP4 CALLVALUE PUSH2 0x21A JUMPI PUSH1 0x20 DUP1 PUSH1 0x3 NOT CALLDATASIZE ADD SLT PUSH2 0x62F JUMPI DUP4 CALLDATALOAD SWAP1 PUSH32 0x84B05DEF62CE9BC2BD93F644E8C54B097DB7EE9EDAB66685B9B15DC162C75564 DUP1 DUP6 MSTORE PUSH1 0x5 DUP3 MSTORE DUP4 DUP6 KECCAK256 CALLER DUP7 MSTORE DUP3 MSTORE PUSH1 0xFF DUP5 DUP7 KECCAK256 SLOAD AND ISZERO PUSH2 0x8BF JUMPI POP PUSH2 0x7C2 PUSH2 0x1F1B JUMP JUMPDEST DUP2 ISZERO PUSH2 0x8B0 JUMPI DUP3 MLOAD PUSH4 0x23B872DD PUSH1 0xE0 SHL DUP2 MSTORE CALLER DUP7 DUP3 ADD SWAP1 DUP2 MSTORE ADDRESS PUSH1 0x20 DUP3 ADD MSTORE PUSH1 0x40 DUP2 ADD DUP5 SWAP1 MSTORE DUP3 SWAP1 DUP3 SWAP1 DUP2 SWAP1 PUSH1 0x60 ADD SUB DUP2 DUP9 PUSH1 0x1 PUSH1 0x1 PUSH1 0xA0 SHL SUB PUSH32 0x0 AND GAS CALL SWAP1 DUP2 ISZERO PUSH2 0x8A6 JUMPI DUP6 SWAP2 PUSH2 0x889 JUMPI JUMPDEST POP ISZERO PUSH2 0x87A JUMPI PUSH32 0x4FC7965BE49B3C5DE2C5AE7700B1D01B9535E8CDD19811BB303E05FF19CE4A0 SWAP4 SWAP5 POP PUSH2 0x864 DUP3 PUSH1 0xC SLOAD PUSH2 0x1E50 JUMP JUMPDEST SWAP1 DUP2 PUSH1 0xC SSTORE DUP4 MLOAD SWAP3 DUP4 MSTORE DUP3 ADD MSTORE LOG1 PUSH1 0x1 PUSH1 0x7 SSTORE DUP1 RETURN JUMPDEST DUP5 DUP4 MLOAD PUSH4 0x12171D83 PUSH1 0xE3 SHL DUP2 MSTORE REVERT JUMPDEST PUSH2 0x8A0 SWAP2 POP DUP3 RETURNDATASIZE DUP5 GT PUSH2 0x384 JUMPI PUSH2 0x376 DUP2 DUP4 PUSH2 0x1D2F JUMP JUMPDEST DUP7 PUSH2 0x82E JUMP JUMPDEST DUP5 MLOAD RETURNDATASIZE DUP8 DUP3 RETURNDATACOPY RETURNDATASIZE SWAP1 REVERT JUMPDEST DUP5 DUP4 MLOAD PUSH4 0xC7E1B6B1 PUSH1 0xE0 SHL DUP2 MSTORE REVERT JUMPDEST DUP6 PUSH1 0x44 SWAP2 DUP6 MLOAD SWAP2 PUSH4 0xE2517D3F PUSH1 0xE0 SHL DUP4 MSTORE CALLER SWAP1 DUP4 ADD MSTORE PUSH1 0x24 DUP3 ADD MSTORE REVERT JUMPDEST POP POP CALLVALUE PUSH2 0x21A JUMPI DUP2 PUSH1 0x3 NOT CALLDATASIZE ADD SLT PUSH2 0x21A JUMPI MLOAD SWAP1 DUP2 MSTORE PUSH1 0x20 SWAP1 RETURN JUMPDEST DUP4 DUP4 CALLVALUE PUSH2 0x21A JUMPI DUP2 PUSH1 0x3 NOT CALLDATASIZE ADD SLT PUSH2 0x21A JUMPI DUP1 MLOAD SWAP2 DUP1 SWAP4 DUP1 SLOAD SWAP2 PUSH1 0x1 SWAP1 DUP4 DUP3 SHR SWAP3 DUP3 DUP6 AND SWAP5 DUP6 ISZERO PUSH2 0x9F0 JUMPI JUMPDEST PUSH1 0x20 SWAP6 DUP7 DUP7 LT DUP2 EQ PUSH2 0x9DD JUMPI DUP6 DUP10 MSTORE SWAP1 DUP2 ISZERO PUSH2 0x9B9 JUMPI POP PUSH1 0x1 EQ PUSH2 0x961 JUMPI JUMPDEST PUSH2 0x95D DUP8 DUP8 PUSH2 0x953 DUP3 DUP13 SUB DUP4 PUSH2 0x1D2F JUMP JUMPDEST MLOAD SWAP2 DUP3 SWAP2 DUP3 PUSH2 0x19E4 JUMP JUMPDEST SUB SWAP1 RETURN JUMPDEST DUP2 MSTORE SWAP3 SWAP6 POP PUSH32 0x8A35ACFBC15FF81A39AE7D344FD709F28E8600B4AA8C65C6B64BFE7FE36BD19B JUMPDEST DUP3 DUP5 LT PUSH2 0x9A6 JUMPI POP POP POP DUP3 PUSH2 0x95D SWAP5 PUSH2 0x953 SWAP3 DUP3 ADD ADD SWAP5 DUP7 DUP1 PUSH2 0x942 JUMP JUMPDEST DUP1 SLOAD DUP7 DUP6 ADD DUP9 ADD MSTORE SWAP3 DUP7 ADD SWAP3 DUP2 ADD PUSH2 0x988 JUMP JUMPDEST PUSH1 0xFF NOT AND DUP9 DUP8 ADD MSTORE POP POP POP POP ISZERO ISZERO PUSH1 0x5 SHL DUP4 ADD ADD SWAP3 POP PUSH2 0x953 DUP3 PUSH2 0x95D DUP7 DUP1 PUSH2 0x942 JUMP JUMPDEST PUSH1 0x24 DUP5 PUSH1 0x22 DUP6 PUSH4 0x4E487B71 PUSH1 0xE0 SHL DUP4 MSTORE MSTORE REVERT JUMPDEST SWAP4 PUSH1 0x7F AND SWAP4 PUSH2 0x923 JUMP JUMPDEST SWAP1 POP CALLVALUE PUSH2 0x62F JUMPI DUP2 PUSH1 0x3 NOT CALLDATASIZE ADD SLT PUSH2 0x62F JUMPI DUP2 PUSH1 0x20 SWAP4 PUSH1 0xFF SWAP3 PUSH2 0xA1B PUSH2 0x1A48 JUMP JUMPDEST SWAP1 CALLDATALOAD DUP3 MSTORE PUSH1 0x5 DUP7 MSTORE PUSH1 0x1 PUSH1 0x1 PUSH1 0xA0 SHL SUB DUP4 DUP4 KECCAK256 SWAP2 AND DUP3 MSTORE DUP6 MSTORE KECCAK256 SLOAD AND SWAP1 MLOAD SWAP1 ISZERO ISZERO DUP2 MSTORE RETURN JUMPDEST POP POP CALLVALUE PUSH2 0x21A JUMPI DUP2 PUSH1 0x3 NOT CALLDATASIZE ADD SLT PUSH2 0x21A JUMPI PUSH1 0x20 SWAP1 MLOAD PUSH32 0x84B05DEF62CE9BC2BD93F644E8C54B097DB7EE9EDAB66685B9B15DC162C75564 DUP2 MSTORE RETURN JUMPDEST POP POP CALLVALUE PUSH2 0x21A JUMPI DUP2 PUSH1 0x3 NOT CALLDATASIZE ADD SLT PUSH2 0x21A JUMPI PUSH1 0x20 SWAP1 PUSH1 0xA SLOAD SWAP1 MLOAD SWAP1 DUP2 MSTORE RETURN JUMPDEST SWAP1 POP CALLVALUE PUSH2 0x62F JUMPI DUP3 PUSH1 0x3 NOT CALLDATASIZE ADD SLT PUSH2 0x62F JUMPI PUSH2 0xAB4 PUSH2 0x1A5E JUMP JUMPDEST PUSH1 0x6 SLOAD SWAP1 PUSH1 0xFF DUP3 AND PUSH2 0xAF8 JUMPI POP PUSH1 0xFF NOT AND PUSH1 0x1 OR PUSH1 0x6 SSTORE MLOAD CALLER DUP2 MSTORE PUSH32 0x62E78CEA01BEE320CD4E420270B5EA74000D11B0C9F74754EBDBFC544B05A258 SWAP1 PUSH1 0x20 SWAP1 LOG1 DUP1 RETURN JUMPDEST DUP3 MLOAD PUSH32 0xD93C066500000000000000000000000000000000000000000000000000000000 DUP2 MSTORE REVERT JUMPDEST DUP4 CALLVALUE PUSH2 0x721 JUMPI DUP1 PUSH1 0x3 NOT CALLDATASIZE ADD SLT PUSH2 0x721 JUMPI PUSH2 0xB38 PUSH2 0x1A5E JUMP JUMPDEST PUSH1 0xFF NOT PUSH1 0x9 SLOAD AND PUSH1 0x9 SSTORE DUP1 PUSH1 0xA SSTORE DUP1 RETURN JUMPDEST DUP4 CALLVALUE PUSH2 0x721 JUMPI PUSH1 0x20 CALLDATASIZE PUSH1 0x3 NOT ADD SLT PUSH2 0x721 JUMPI PUSH2 0x6F3 PUSH2 0xB66 PUSH2 0x1A2D JUMP JUMPDEST PUSH2 0xB6E PUSH2 0x1A5E JUMP JUMPDEST PUSH2 0x1ADC JUMP JUMPDEST DUP4 SWAP2 POP CALLVALUE PUSH2 0x21A JUMPI DUP3 PUSH1 0x3 NOT CALLDATASIZE ADD SLT PUSH2 0x21A JUMPI PUSH2 0xB8E PUSH2 0x1A2D JUMP JUMPDEST PUSH1 0x24 CALLDATALOAD SWAP2 PUSH1 0x1 PUSH1 0x1 PUSH1 0xA0 SHL SUB DUP3 AND DUP1 DUP6 MSTORE PUSH1 0x1 PUSH1 0x20 MSTORE DUP6 DUP6 KECCAK256 CALLER DUP7 MSTORE PUSH1 0x20 MSTORE DUP6 DUP6 KECCAK256 SLOAD SWAP2 PUSH1 0x0 NOT DUP4 LT PUSH2 0xBCA JUMPI JUMPDEST DUP6 PUSH2 0xBC7 DUP7 DUP7 PUSH2 0x1D67 JUMP JUMPDEST DUP1 RETURN JUMPDEST DUP5 DUP4 LT PUSH2 0xC30 JUMPI DUP2 ISZERO PUSH2 0xC1A JUMPI CALLER ISZERO PUSH2 0xC04 JUMPI POP DUP5 SWAP6 SWAP2 DUP5 SWAP2 PUSH2 0xBC7 SWAP7 MSTORE PUSH1 0x1 PUSH1 0x20 MSTORE DUP3 DUP8 KECCAK256 CALLER DUP9 MSTORE PUSH1 0x20 MSTORE SUB SWAP1 DUP6 KECCAK256 SSTORE DUP4 SWAP3 DUP6 DUP1 PUSH2 0xBBC JUMP JUMPDEST PUSH1 0x24 SWAP1 DUP7 DUP9 MLOAD SWAP2 PUSH4 0x4A1406B1 PUSH1 0xE1 SHL DUP4 MSTORE DUP3 ADD MSTORE REVERT JUMPDEST PUSH1 0x24 SWAP1 DUP7 DUP9 MLOAD SWAP2 PUSH4 0xE602DF05 PUSH1 0xE0 SHL DUP4 MSTORE DUP3 ADD MSTORE REVERT JUMPDEST DUP7 MLOAD PUSH32 0xFB8F41B200000000000000000000000000000000000000000000000000000000 DUP2 MSTORE CALLER SWAP2 DUP2 ADD SWAP2 DUP3 MSTORE PUSH1 0x20 DUP3 ADD SWAP4 SWAP1 SWAP4 MSTORE PUSH1 0x40 DUP2 ADD DUP6 SWAP1 MSTORE DUP3 SWAP2 POP PUSH1 0x60 ADD SUB SWAP1 REVERT JUMPDEST SWAP2 SWAP1 POP CALLVALUE PUSH2 0x62F JUMPI DUP3 PUSH1 0x3 NOT CALLDATASIZE ADD SLT PUSH2 0x62F JUMPI PUSH2 0xC90 PUSH2 0x1F1B JUMP JUMPDEST CALLER DUP4 MSTORE PUSH1 0x20 PUSH1 0xB DUP2 MSTORE DUP2 DUP5 KECCAK256 DUP1 SLOAD ISZERO PUSH2 0xDFC JUMPI PUSH1 0xFF PUSH1 0x7 DUP3 ADD SLOAD AND PUSH2 0xDED JUMPI CALLER DUP6 MSTORE DUP5 DUP3 MSTORE DUP3 DUP6 KECCAK256 SLOAD DUP1 ISZERO PUSH2 0xDDD JUMPI PUSH2 0xCD9 PUSH1 0x6 SWAP2 PUSH2 0xCD4 PUSH1 0x2 SLOAD SWAP2 PUSH1 0xC SLOAD PUSH2 0x1E8B JUMP JUMPDEST PUSH2 0x1E9E JUMP JUMPDEST SWAP2 ADD SWAP4 PUSH2 0xCE7 DUP6 SLOAD DUP4 PUSH2 0x1EBE JUMP JUMPDEST SWAP5 DUP6 ISZERO PUSH2 0xDCE JUMPI DUP3 SWAP1 SSTORE DUP4 MLOAD PUSH4 0xA9059CBB PUSH1 0xE0 SHL DUP2 MSTORE CALLER DUP3 DUP3 ADD SWAP1 DUP2 MSTORE PUSH1 0x20 DUP2 ADD DUP8 SWAP1 MSTORE DUP5 SWAP1 DUP3 SWAP1 DUP2 SWAP1 PUSH1 0x40 ADD SUB DUP2 DUP11 PUSH1 0x1 PUSH1 0x1 PUSH1 0xA0 SHL SUB PUSH32 0x0 AND GAS CALL SWAP1 DUP2 ISZERO PUSH2 0xDC4 JUMPI DUP8 SWAP2 PUSH2 0xDA7 JUMPI JUMPDEST POP ISZERO PUSH2 0xD99 JUMPI POP SWAP1 PUSH2 0xD85 DUP5 PUSH32 0x408E6E0B73DAF4C873106E95FD067260FBFF8BF9D1B499CAD563D4480D45BAC SWAP5 SWAP4 PUSH2 0x1EBE JUMP JUMPDEST SWAP1 DUP3 MLOAD SWAP5 DUP6 MSTORE DUP5 ADD MSTORE CALLER SWAP3 LOG2 PUSH1 0x1 PUSH1 0x7 SSTORE DUP1 RETURN JUMPDEST DUP4 MLOAD PUSH4 0x12171D83 PUSH1 0xE3 SHL DUP2 MSTORE REVERT JUMPDEST PUSH2 0xDBE SWAP2 POP DUP5 RETURNDATASIZE DUP7 GT PUSH2 0x384 JUMPI PUSH2 0x376 DUP2 DUP4 PUSH2 0x1D2F JUMP JUMPDEST CODESIZE PUSH2 0xD51 JUMP JUMPDEST DUP6 MLOAD RETURNDATASIZE DUP10 DUP3 RETURNDATACOPY RETURNDATASIZE SWAP1 REVERT JUMPDEST POP DUP4 MLOAD PUSH4 0x439ECE77 PUSH1 0xE0 SHL DUP2 MSTORE REVERT JUMPDEST POP POP POP MLOAD PUSH4 0x3A6A68B1 PUSH1 0xE0 SHL DUP2 MSTORE REVERT JUMPDEST POP POP MLOAD PUSH4 0x17968E53 PUSH1 0xE3 SHL DUP2 MSTORE REVERT JUMPDEST POP POP MLOAD PUSH4 0x3A6A68B1 PUSH1 0xE0 SHL DUP2 MSTORE REVERT JUMPDEST POP POP CALLVALUE PUSH2 0x21A JUMPI PUSH1 0x20 CALLDATASIZE PUSH1 0x3 NOT ADD SLT PUSH2 0x21A JUMPI DUP1 PUSH1 0x20 SWAP3 PUSH1 0x1 PUSH1 0x1 PUSH1 0xA0 SHL SUB PUSH2 0xE32 PUSH2 0x1A2D JUMP JUMPDEST AND DUP2 MSTORE DUP1 DUP5 MSTORE KECCAK256 SLOAD SWAP1 MLOAD SWAP1 DUP2 MSTORE RETURN JUMPDEST DUP3 DUP5 CALLVALUE PUSH2 0x721 JUMPI PUSH1 0x20 CALLDATASIZE PUSH1 0x3 NOT ADD SLT PUSH2 0x721 JUMPI PUSH1 0x1 PUSH1 0x1 PUSH1 0xA0 SHL SUB PUSH2 0xE64 PUSH2 0x1A2D JUMP JUMPDEST AND DUP2 MSTORE PUSH1 0xB PUSH1 0x20 MSTORE DUP2 DUP2 KECCAK256 DUP1 SLOAD SWAP3 PUSH1 0xFF PUSH1 0x1 DUP4 ADD SLOAD AND SWAP3 PUSH1 0x2 DUP4 ADD SLOAD SWAP1 PUSH1 0x3 DUP5 ADD SLOAD PUSH1 0xFF DUP9 DUP7 ADD SLOAD AND SWAP3 PUSH1 0x5 DUP7 ADD SLOAD SWAP5 PUSH1 0xFF PUSH1 0x7 PUSH1 0x6 DUP10 ADD SLOAD SWAP9 ADD SLOAD AND SWAP8 DUP2 MLOAD SWAP10 DUP11 MSTORE ISZERO ISZERO PUSH1 0x20 DUP11 ADD MSTORE DUP9 ADD MSTORE PUSH1 0x60 DUP8 ADD MSTORE PUSH1 0x3 DUP3 LT ISZERO PUSH2 0xEDD JUMPI POP PUSH2 0x100 SWAP6 POP PUSH1 0x80 DUP6 ADD MSTORE PUSH1 0xA0 DUP5 ADD MSTORE PUSH1 0xC0 DUP4 ADD MSTORE ISZERO ISZERO PUSH1 0xE0 DUP3 ADD MSTORE RETURN JUMPDEST DUP1 PUSH1 0x21 DUP9 PUSH4 0x4E487B71 PUSH1 0xE0 SHL PUSH1 0x24 SWAP5 MSTORE MSTORE REVERT JUMPDEST POP POP CALLVALUE PUSH2 0x21A JUMPI DUP2 PUSH1 0x3 NOT CALLDATASIZE ADD SLT PUSH2 0x21A JUMPI PUSH1 0x20 SWAP1 PUSH1 0xFF PUSH1 0x6 SLOAD AND SWAP1 MLOAD SWAP1 ISZERO ISZERO DUP2 MSTORE RETURN JUMPDEST POP POP CALLVALUE PUSH2 0x21A JUMPI DUP2 PUSH1 0x3 NOT CALLDATASIZE ADD SLT PUSH2 0x21A JUMPI PUSH1 0x20 SWAP1 MLOAD PUSH1 0x1 PUSH1 0x1 PUSH1 0xA0 SHL SUB PUSH32 0x0 AND DUP2 MSTORE RETURN JUMPDEST DUP4 DUP4 CALLVALUE PUSH2 0x21A JUMPI PUSH1 0x60 CALLDATASIZE PUSH1 0x3 NOT ADD SLT PUSH2 0x21A JUMPI PUSH2 0xF73 PUSH2 0x1A2D JUMP JUMPDEST SWAP1 PUSH1 0x24 CALLDATALOAD SWAP2 PUSH1 0x44 CALLDATALOAD SWAP1 PUSH1 0x3 DUP3 LT ISZERO PUSH2 0x12B6 JUMPI PUSH1 0x1 PUSH1 0x1 PUSH1 0xA0 SHL SUB SWAP1 PUSH32 0x0 DUP3 DUP2 AND CALLER SUB PUSH2 0x1233 JUMPI SWAP1 DUP8 SWAP3 SWAP2 DUP7 ISZERO PUSH2 0x1224 JUMPI DUP6 MLOAD PUSH4 0x23B872DD PUSH1 0xE0 SHL DUP2 MSTORE PUSH1 0x1 PUSH1 0x1 PUSH1 0xA0 SHL SUB SWAP1 SWAP2 AND SWAP4 DUP2 ADD SWAP4 DUP5 MSTORE ADDRESS PUSH1 0x20 DUP6 DUP2 ADD SWAP2 SWAP1 SWAP2 MSTORE PUSH1 0x40 DUP6 ADD DUP9 SWAP1 MSTORE SWAP4 DUP5 SWAP1 DUP3 SWAP1 DUP2 SWAP1 PUSH1 0x60 ADD SUB DUP2 DUP12 DUP8 PUSH32 0x0 AND GAS CALL SWAP1 DUP2 ISZERO PUSH2 0x121A JUMPI DUP9 SWAP2 PUSH2 0x11FD JUMPI JUMPDEST POP ISZERO PUSH2 0x11EE JUMPI AND SWAP2 DUP3 ISZERO PUSH2 0x11BF JUMPI PUSH2 0x104A DUP6 PUSH1 0x2 SLOAD PUSH2 0x1E50 JUMP JUMPDEST PUSH1 0x2 SSTORE DUP3 DUP7 MSTORE DUP6 DUP3 MSTORE DUP4 DUP7 KECCAK256 DUP6 DUP2 SLOAD ADD SWAP1 SSTORE DUP3 DUP7 PUSH32 0xDDF252AD1BE2C89B69C2B068FC378DAA952BA7F163C4A11628F55A4DF523B3EF DUP5 DUP8 MLOAD DUP10 DUP2 MSTORE LOG3 PUSH2 0x2710 PUSH2 0x10B3 PUSH32 0x0 DUP8 PUSH2 0x1E8B JUMP JUMPDEST DIV SWAP2 DUP5 MLOAD SWAP5 PUSH2 0x100 DUP7 ADD DUP7 DUP2 LT PUSH8 0xFFFFFFFFFFFFFFFF DUP3 GT OR PUSH2 0x11AC JUMPI SWAP1 DUP9 SWAP6 SWAP5 SWAP4 SWAP3 SWAP2 DUP2 MSTORE DUP8 DUP8 MSTORE PUSH2 0x1134 DUP3 DUP9 ADD DUP8 DUP2 MSTORE DUP3 DUP10 ADD SWAP3 TIMESTAMP DUP5 MSTORE PUSH1 0xB PUSH1 0x60 DUP12 ADD SWAP6 DUP11 DUP8 MSTORE PUSH1 0x80 DUP13 ADD SWAP8 DUP9 MSTORE PUSH1 0xA0 DUP13 ADD SWAP9 DUP10 MSTORE PUSH1 0xC0 DUP13 ADD SWAP10 DUP12 DUP12 MSTORE PUSH1 0xE0 DUP14 ADD SWAP12 DUP1 DUP14 MSTORE MSTORE MSTORE DUP12 KECCAK256 SWAP9 MLOAD DUP10 SSTORE MLOAD ISZERO ISZERO PUSH1 0x1 DUP10 ADD SWAP1 PUSH1 0xFF DUP1 NOT DUP4 SLOAD AND SWAP2 ISZERO ISZERO AND OR SWAP1 SSTORE JUMP JUMPDEST MLOAD PUSH1 0x2 DUP8 ADD SSTORE MLOAD PUSH1 0x3 DUP7 ADD SSTORE DUP8 DUP6 ADD SWAP1 MLOAD PUSH1 0x3 DUP2 LT ISZERO PUSH2 0x1199 JUMPI SWAP3 PUSH1 0x7 SWAP3 PUSH2 0x118B SWAP6 SWAP3 PUSH2 0x1193 SWAP9 SWAP8 SWAP6 PUSH1 0xFF DUP1 NOT DUP4 SLOAD AND SWAP2 AND OR SWAP1 SSTORE MLOAD PUSH1 0x5 DUP6 ADD SSTORE MLOAD PUSH1 0x6 DUP5 ADD SSTORE MLOAD ISZERO ISZERO SWAP2 ADD SWAP1 PUSH1 0xFF DUP1 NOT DUP4 SLOAD AND SWAP2 ISZERO ISZERO AND OR SWAP1 SSTORE JUMP JUMPDEST PUSH1 0x8 SLOAD PUSH2 0x1E50 JUMP JUMPDEST PUSH1 0x8 SSTORE DUP1 RETURN JUMPDEST PUSH1 0x24 DUP9 PUSH1 0x21 DUP12 PUSH4 0x4E487B71 PUSH1 0xE0 SHL DUP4 MSTORE MSTORE REVERT JUMPDEST PUSH1 0x24 DUP10 PUSH1 0x41 DUP13 PUSH4 0x4E487B71 PUSH1 0xE0 SHL DUP4 MSTORE MSTORE REVERT JUMPDEST PUSH1 0x24 DUP8 DUP8 DUP7 MLOAD SWAP2 PUSH32 0xEC442F0500000000000000000000000000000000000000000000000000000000 DUP4 MSTORE DUP3 ADD MSTORE REVERT JUMPDEST DUP8 DUP6 MLOAD PUSH4 0x12171D83 PUSH1 0xE3 SHL DUP2 MSTORE REVERT JUMPDEST PUSH2 0x1214 SWAP2 POP DUP5 RETURNDATASIZE DUP7 GT PUSH2 0x384 JUMPI PUSH2 0x376 DUP2 DUP4 PUSH2 0x1D2F JUMP JUMPDEST DUP10 PUSH2 0x1030 JUMP JUMPDEST DUP7 MLOAD RETURNDATASIZE DUP11 DUP3 RETURNDATACOPY RETURNDATASIZE SWAP1 REVERT JUMPDEST DUP4 DUP7 MLOAD PUSH4 0xC7E1B6B1 PUSH1 0xE0 SHL DUP2 MSTORE REVERT JUMPDEST PUSH1 0x84 DUP9 PUSH1 0x20 DUP8 MLOAD SWAP2 PUSH32 0x8C379A000000000000000000000000000000000000000000000000000000000 DUP4 MSTORE DUP3 ADD MSTORE PUSH1 0x23 PUSH1 0x24 DUP3 ADD MSTORE PUSH32 0x43616C6C6572206973206E6F7420746865206F66666572696E6720636F6E7472 PUSH1 0x44 DUP3 ADD MSTORE PUSH32 0x6163740000000000000000000000000000000000000000000000000000000000 PUSH1 0x64 DUP3 ADD MSTORE REVERT JUMPDEST DUP5 DUP1 REVERT JUMPDEST SWAP1 POP CALLVALUE PUSH2 0x62F JUMPI DUP3 PUSH1 0x3 NOT CALLDATASIZE ADD SLT PUSH2 0x62F JUMPI PUSH32 0x0 TIMESTAMP LT PUSH2 0x141E JUMPI CALLER DUP4 MSTORE PUSH1 0x20 SWAP1 PUSH1 0xB DUP3 MSTORE DUP3 DUP5 KECCAK256 SWAP1 PUSH1 0x1 DUP3 ADD PUSH1 0xFF DUP2 SLOAD AND PUSH2 0x1400 JUMPI DUP3 SLOAD ISZERO PUSH2 0x140F JUMPI PUSH1 0xFF PUSH1 0x7 DUP5 ADD SLOAD AND PUSH2 0x1400 JUMPI CALLER DUP7 MSTORE DUP6 DUP5 MSTORE PUSH2 0x1334 DUP6 DUP8 KECCAK256 SLOAD CALLER PUSH2 0x1D67 JUMP JUMPDEST DUP1 SLOAD PUSH1 0xFF NOT AND PUSH1 0x1 OR SWAP1 SSTORE DUP2 SLOAD DUP5 MLOAD PUSH4 0xA9059CBB PUSH1 0xE0 SHL DUP2 MSTORE CALLER DUP4 DUP3 ADD SWAP1 DUP2 MSTORE PUSH1 0x20 DUP2 ADD SWAP3 SWAP1 SWAP3 MSTORE SWAP1 DUP5 SWAP1 DUP3 SWAP1 DUP2 SWAP1 PUSH1 0x40 ADD SUB DUP2 DUP10 PUSH1 0x1 PUSH1 0x1 PUSH1 0xA0 SHL SUB PUSH32 0x0 AND GAS CALL SWAP1 DUP2 ISZERO PUSH2 0x13F6 JUMPI DUP7 SWAP2 PUSH2 0x13D9 JUMPI JUMPDEST POP ISZERO PUSH2 0xD99 JUMPI POP SWAP1 PUSH32 0x8BB992A66750701EBD5F73B74463037E5A77FA3114EA76D89B9DB1818B083F48 SWAP2 SLOAD SWAP3 MLOAD SWAP3 DUP4 MSTORE CALLER SWAP3 LOG2 DUP1 RETURN JUMPDEST PUSH2 0x13F0 SWAP2 POP DUP5 RETURNDATASIZE DUP7 GT PUSH2 0x384 JUMPI PUSH2 0x376 DUP2 DUP4 PUSH2 0x1D2F JUMP JUMPDEST CODESIZE PUSH2 0x13A3 JUMP JUMPDEST DUP6 MLOAD RETURNDATASIZE DUP9 DUP3 RETURNDATACOPY RETURNDATASIZE SWAP1 REVERT JUMPDEST POP DUP4 MLOAD PUSH4 0x17968E53 PUSH1 0xE3 SHL DUP2 MSTORE REVERT JUMPDEST POP DUP4 MLOAD PUSH4 0x3A6A68B1 PUSH1 0xE0 SHL DUP2 MSTORE REVERT JUMPDEST SWAP1 MLOAD PUSH32 0x111C440900000000000000000000000000000000000000000000000000000000 DUP2 MSTORE REVERT JUMPDEST DUP4 SWAP1 CALLVALUE PUSH2 0x21A JUMPI PUSH1 0x20 CALLDATASIZE PUSH1 0x3 NOT ADD SLT PUSH2 0x21A JUMPI PUSH2 0xBC7 SWAP1 CALLDATALOAD CALLER PUSH2 0x1D67 JUMP JUMPDEST SWAP2 SWAP1 POP CALLVALUE PUSH2 0x62F JUMPI PUSH1 0x20 CALLDATASIZE PUSH1 0x3 NOT ADD SLT PUSH2 0x62F JUMPI DUP2 CALLDATALOAD SWAP2 PUSH2 0x1482 PUSH2 0x1A5E JUMP JUMPDEST PUSH2 0x1388 DUP4 GT PUSH2 0x14CA JUMPI POP PUSH32 0x373E08B9E2E94C99F958F95CF4E0A2DB0E6DE1F1607A5B7470341BAAB1AE608C SWAP2 PUSH1 0x20 SWAP2 PUSH1 0x1 PUSH1 0xFF NOT PUSH1 0x9 SLOAD AND OR PUSH1 0x9 SSTORE DUP2 PUSH1 0xA SSTORE MLOAD SWAP1 DUP2 MSTORE LOG1 DUP1 RETURN JUMPDEST SWAP1 MLOAD PUSH32 0x458EAE5B00000000000000000000000000000000000000000000000000000000 DUP2 MSTORE REVERT JUMPDEST SWAP1 POP CALLVALUE PUSH2 0x62F JUMPI DUP3 PUSH1 0x3 NOT CALLDATASIZE ADD SLT PUSH2 0x62F JUMPI PUSH2 0x150B PUSH2 0x1A5E JUMP JUMPDEST PUSH1 0x6 SLOAD SWAP1 PUSH1 0xFF DUP3 AND ISZERO PUSH2 0x154D JUMPI POP PUSH1 0xFF NOT AND PUSH1 0x6 SSTORE MLOAD CALLER DUP2 MSTORE PUSH32 0x5DB9EE0A495BF2E6FF9C91A7834C1BA4FDD244A5E8AA4E537BD38AEAE4B073AA SWAP1 PUSH1 0x20 SWAP1 LOG1 DUP1 RETURN JUMPDEST DUP3 MLOAD PUSH32 0x8DFC202B00000000000000000000000000000000000000000000000000000000 DUP2 MSTORE REVERT JUMPDEST DUP4 DUP4 CALLVALUE PUSH2 0x21A JUMPI DUP1 PUSH1 0x3 NOT CALLDATASIZE ADD SLT PUSH2 0x21A JUMPI PUSH2 0x158E PUSH2 0x1A48 JUMP JUMPDEST SWAP1 CALLER PUSH1 0x1 PUSH1 0x1 PUSH1 0xA0 SHL SUB DUP4 AND SUB PUSH2 0x15AB JUMPI POP PUSH2 0x6F3 SWAP2 SWAP3 CALLDATALOAD PUSH2 0x1CB7 JUMP JUMPDEST DUP4 SWAP1 MLOAD PUSH32 0x6697B23200000000000000000000000000000000000000000000000000000000 DUP2 MSTORE REVERT JUMPDEST POP POP CALLVALUE PUSH2 0x21A JUMPI DUP2 PUSH1 0x3 NOT CALLDATASIZE ADD SLT PUSH2 0x21A JUMPI PUSH1 0x20 SWAP1 MLOAD PUSH1 0x12 DUP2 MSTORE RETURN JUMPDEST SWAP2 SWAP1 POP CALLVALUE PUSH2 0x62F JUMPI DUP1 PUSH1 0x3 NOT CALLDATASIZE ADD SLT PUSH2 0x62F JUMPI PUSH2 0x6F3 SWAP2 CALLDATALOAD PUSH2 0x1614 PUSH1 0x1 PUSH2 0x6DC PUSH2 0x1A48 JUMP JUMPDEST PUSH2 0x1B8F JUMP JUMPDEST POP POP CALLVALUE PUSH2 0x21A JUMPI DUP2 PUSH1 0x3 NOT CALLDATASIZE ADD SLT PUSH2 0x21A JUMPI PUSH1 0x20 SWAP1 MLOAD PUSH32 0x0 DUP2 MSTORE RETURN JUMPDEST SWAP1 POP CALLVALUE PUSH2 0x62F JUMPI PUSH1 0x20 CALLDATASIZE PUSH1 0x3 NOT ADD SLT PUSH2 0x62F JUMPI DUP2 PUSH1 0x20 SWAP4 PUSH1 0x1 SWAP3 CALLDATALOAD DUP2 MSTORE PUSH1 0x5 DUP6 MSTORE KECCAK256 ADD SLOAD SWAP1 MLOAD SWAP1 DUP2 MSTORE RETURN JUMPDEST DUP3 DUP5 CALLVALUE PUSH2 0x721 JUMPI PUSH1 0x60 CALLDATASIZE PUSH1 0x3 NOT ADD SLT PUSH2 0x721 JUMPI POP PUSH2 0x169B PUSH2 0x1A2D JUMP JUMPDEST POP PUSH2 0x73F PUSH2 0x1A48 JUMP JUMPDEST POP POP CALLVALUE PUSH2 0x21A JUMPI DUP2 PUSH1 0x3 NOT CALLDATASIZE ADD SLT PUSH2 0x21A JUMPI PUSH1 0x20 SWAP1 MLOAD PUSH1 0x1 PUSH1 0x1 PUSH1 0xA0 SHL SUB PUSH32 0x0 AND DUP2 MSTORE RETURN JUMPDEST POP POP CALLVALUE PUSH2 0x21A JUMPI DUP2 PUSH1 0x3 NOT CALLDATASIZE ADD SLT PUSH2 0x21A JUMPI PUSH1 0x20 SWAP1 PUSH1 0x2 SLOAD SWAP1 MLOAD SWAP1 DUP2 MSTORE RETURN JUMPDEST POP POP CALLVALUE PUSH2 0x21A JUMPI DUP2 PUSH1 0x3 NOT CALLDATASIZE ADD SLT PUSH2 0x21A JUMPI PUSH1 0x20 SWAP1 PUSH1 0xFF PUSH1 0x9 SLOAD AND SWAP1 MLOAD SWAP1 ISZERO ISZERO DUP2 MSTORE RETURN JUMPDEST POP POP CALLVALUE PUSH2 0x21A JUMPI PUSH1 0x20 CALLDATASIZE PUSH1 0x3 NOT ADD SLT PUSH2 0x21A JUMPI PUSH1 0x60 SWAP1 PUSH2 0x1751 PUSH2 0x174C PUSH2 0x1A2D JUMP JUMPDEST PUSH2 0x1F56 JUMP JUMPDEST SWAP2 SWAP3 SWAP1 DUP2 MLOAD SWAP4 DUP5 MSTORE PUSH1 0x20 DUP5 ADD MSTORE DUP3 ADD MSTORE RETURN JUMPDEST SWAP1 POP CALLVALUE PUSH2 0x62F JUMPI DUP2 PUSH1 0x3 NOT CALLDATASIZE ADD SLT PUSH2 0x62F JUMPI PUSH2 0x177D PUSH2 0x1A2D JUMP JUMPDEST PUSH1 0x24 CALLDATALOAD SWAP1 CALLER ISZERO PUSH2 0x17F5 JUMPI PUSH1 0x1 PUSH1 0x1 PUSH1 0xA0 SHL SUB AND SWAP2 DUP3 ISZERO PUSH2 0x17DF JUMPI POP DUP1 DUP4 PUSH1 0x20 SWAP6 CALLER DUP2 MSTORE PUSH1 0x1 DUP8 MSTORE DUP2 DUP2 KECCAK256 DUP6 DUP3 MSTORE DUP8 MSTORE KECCAK256 SSTORE DUP3 MLOAD SWAP1 DUP2 MSTORE PUSH32 0x8C5BE1E5EBEC7D5BD14F71427D1E84F3DD0314C0F7B2291E5B200AC8C7C3B925 DUP5 CALLER SWAP3 LOG3 MLOAD PUSH1 0x1 DUP2 MSTORE RETURN JUMPDEST PUSH1 0x24 SWAP1 DUP6 DUP6 MLOAD SWAP2 PUSH4 0x4A1406B1 PUSH1 0xE1 SHL DUP4 MSTORE DUP3 ADD MSTORE REVERT JUMPDEST PUSH1 0x24 DUP4 DUP7 DUP7 MLOAD SWAP2 PUSH4 0xE602DF05 PUSH1 0xE0 SHL DUP4 MSTORE DUP3 ADD MSTORE REVERT JUMPDEST SWAP2 SWAP1 POP CALLVALUE PUSH2 0x62F JUMPI DUP3 PUSH1 0x3 NOT CALLDATASIZE ADD SLT PUSH2 0x62F JUMPI DUP1 MLOAD SWAP2 DUP4 PUSH1 0x3 SLOAD SWAP1 PUSH1 0x1 SWAP1 DUP3 DUP3 SHR SWAP3 DUP3 DUP2 AND DUP1 ISZERO PUSH2 0x18F6 JUMPI JUMPDEST PUSH1 0x20 SWAP6 DUP7 DUP7 LT DUP3 EQ PUSH2 0x18E3 JUMPI POP DUP5 DUP9 MSTORE SWAP1 DUP2 ISZERO PUSH2 0x18C1 JUMPI POP PUSH1 0x1 EQ PUSH2 0x1868 JUMPI JUMPDEST PUSH2 0x95D DUP7 DUP7 PUSH2 0x953 DUP3 DUP12 SUB DUP4 PUSH2 0x1D2F JUMP JUMPDEST SWAP3 SWAP6 POP PUSH1 0x3 DUP4 MSTORE PUSH32 0xC2575A0E9E593C00F959F8C92F12DB2869C3395A3B0502D05E2516446F71F85B JUMPDEST DUP3 DUP5 LT PUSH2 0x18AE JUMPI POP POP POP DUP3 PUSH2 0x95D SWAP5 PUSH2 0x953 SWAP3 DUP3 ADD ADD SWAP5 CODESIZE PUSH2 0x1857 JUMP JUMPDEST DUP1 SLOAD DUP7 DUP6 ADD DUP9 ADD MSTORE SWAP3 DUP7 ADD SWAP3 DUP2 ADD PUSH2 0x1891 JUMP JUMPDEST PUSH1 0xFF NOT AND DUP8 DUP7 ADD MSTORE POP POP POP ISZERO ISZERO PUSH1 0x5 SHL DUP4 ADD ADD SWAP3 POP PUSH2 0x953 DUP3 PUSH2 0x95D CODESIZE PUSH2 0x1857 JUMP JUMPDEST DUP4 PUSH1 0x22 PUSH1 0x24 SWAP3 PUSH4 0x4E487B71 PUSH1 0xE0 SHL DUP4 MSTORE MSTORE REVERT JUMPDEST SWAP4 PUSH1 0x7F AND SWAP4 PUSH2 0x1837 JUMP JUMPDEST SWAP1 POP CALLVALUE PUSH2 0x62F JUMPI PUSH1 0x20 CALLDATASIZE PUSH1 0x3 NOT ADD SLT PUSH2 0x62F JUMPI CALLDATALOAD SWAP1 PUSH32 0xFFFFFFFF00000000000000000000000000000000000000000000000000000000 DUP3 AND DUP1 SWAP3 SUB PUSH2 0x62F JUMPI PUSH1 0x20 SWAP3 POP PUSH32 0x7965DB0B00000000000000000000000000000000000000000000000000000000 DUP3 EQ SWAP2 DUP3 ISZERO PUSH2 0x1977 JUMPI JUMPDEST POP MLOAD SWAP1 ISZERO ISZERO DUP2 MSTORE RETURN JUMPDEST PUSH32 0x1FFC9A700000000000000000000000000000000000000000000000000000000 EQ SWAP2 POP CODESIZE PUSH2 0x196E JUMP JUMPDEST DUP5 SWAP1 CALLVALUE PUSH2 0x21A JUMPI DUP2 PUSH1 0x3 NOT CALLDATASIZE ADD SLT PUSH2 0x21A JUMPI PUSH1 0x20 SWAP1 PUSH1 0x1 PUSH1 0x1 PUSH1 0xA0 SHL SUB PUSH32 0x0 AND DUP2 MSTORE RETURN JUMPDEST PUSH1 0x20 DUP1 DUP3 MSTORE DUP3 MLOAD DUP2 DUP4 ADD DUP2 SWAP1 MSTORE SWAP1 SWAP4 SWAP3 PUSH1 0x0 JUMPDEST DUP3 DUP2 LT PUSH2 0x1A19 JUMPI POP POP PUSH1 0x40 SWAP3 SWAP4 POP PUSH1 0x0 DUP4 DUP3 DUP5 ADD ADD MSTORE PUSH1 0x1F DUP1 NOT SWAP2 ADD AND ADD ADD SWAP1 JUMP JUMPDEST DUP2 DUP2 ADD DUP7 ADD MLOAD DUP5 DUP3 ADD PUSH1 0x40 ADD MSTORE DUP6 ADD PUSH2 0x19F7 JUMP JUMPDEST PUSH1 0x4 CALLDATALOAD SWAP1 PUSH1 0x1 PUSH1 0x1 PUSH1 0xA0 SHL SUB DUP3 AND DUP3 SUB PUSH2 0x1A43 JUMPI JUMP JUMPDEST PUSH1 0x0 DUP1 REVERT JUMPDEST PUSH1 0x24 CALLDATALOAD SWAP1 PUSH1 0x1 PUSH1 0x1 PUSH1 0xA0 SHL SUB DUP3 AND DUP3 SUB PUSH2 0x1A43 JUMPI JUMP JUMPDEST CALLER PUSH1 0x0 SWAP1 DUP2 MSTORE PUSH32 0x5B8CCBB9D4D8FB16EA74CE3C29A41F1B461FBDAFF4714A0D9A8EB05499746BC PUSH1 0x20 MSTORE PUSH1 0x40 DUP2 KECCAK256 SLOAD PUSH1 0xFF AND ISZERO PUSH2 0x1A98 JUMPI POP JUMP JUMPDEST PUSH1 0x44 SWAP1 PUSH1 0x40 MLOAD SWAP1 PUSH4 0xE2517D3F PUSH1 0xE0 SHL DUP3 MSTORE CALLER PUSH1 0x4 DUP4 ADD MSTORE PUSH1 0x24 DUP3 ADD MSTORE REVERT JUMPDEST DUP1 PUSH1 0x0 MSTORE PUSH1 0x5 PUSH1 0x20 MSTORE PUSH1 0x40 PUSH1 0x0 KECCAK256 CALLER PUSH1 0x0 MSTORE PUSH1 0x20 MSTORE PUSH1 0xFF PUSH1 0x40 PUSH1 0x0 KECCAK256 SLOAD AND ISZERO PUSH2 0x1A98 JUMPI POP JUMP JUMPDEST PUSH1 0x1 PUSH1 0x1 PUSH1 0xA0 SHL SUB AND PUSH1 0x0 DUP2 DUP2 MSTORE PUSH32 0xA9780AC285A6B64C20B34D35938634CCFEAF5DE258BEA281533158D789CA4A2F PUSH1 0x20 MSTORE PUSH1 0x40 DUP2 KECCAK256 SLOAD SWAP1 SWAP2 SWAP1 PUSH32 0x84B05DEF62CE9BC2BD93F644E8C54B097DB7EE9EDAB66685B9B15DC162C75564 SWAP1 PUSH1 0xFF AND PUSH2 0x1B8A JUMPI DUP1 DUP4 MSTORE PUSH1 0x5 PUSH1 0x20 MSTORE PUSH1 0x40 DUP4 KECCAK256 DUP3 DUP5 MSTORE PUSH1 0x20 MSTORE PUSH1 0x40 DUP4 KECCAK256 PUSH1 0x1 PUSH1 0xFF NOT DUP3 SLOAD AND OR SWAP1 SSTORE PUSH32 0x2F8788117E7EFF1D82E926EC794901D17C78024A50270940304540A733656F0D CALLER SWAP4 DUP1 LOG4 PUSH1 0x1 SWAP1 JUMP JUMPDEST POP POP SWAP1 JUMP JUMPDEST SWAP1 PUSH1 0x0 SWAP2 DUP1 DUP4 MSTORE PUSH1 0x5 PUSH1 0x20 MSTORE PUSH1 0x1 PUSH1 0x1 PUSH1 0xA0 SHL SUB PUSH1 0x40 DUP5 KECCAK256 SWAP3 AND SWAP2 DUP3 DUP5 MSTORE PUSH1 0x20 MSTORE PUSH1 0xFF PUSH1 0x40 DUP5 KECCAK256 SLOAD AND ISZERO PUSH1 0x0 EQ PUSH2 0x1B8A JUMPI DUP1 DUP4 MSTORE PUSH1 0x5 PUSH1 0x20 MSTORE PUSH1 0x40 DUP4 KECCAK256 DUP3 DUP5 MSTORE PUSH1 0x20 MSTORE PUSH1 0x40 DUP4 KECCAK256 PUSH1 0x1 PUSH1 0xFF NOT DUP3 SLOAD AND OR SWAP1 SSTORE PUSH32 0x2F8788117E7EFF1D82E926EC794901D17C78024A50270940304540A733656F0D CALLER SWAP4 DUP1 LOG4 PUSH1 0x1 SWAP1 JUMP JUMPDEST PUSH1 0x1 PUSH1 0x1 PUSH1 0xA0 SHL SUB AND PUSH1 0x0 DUP2 DUP2 MSTORE PUSH32 0xA9780AC285A6B64C20B34D35938634CCFEAF5DE258BEA281533158D789CA4A2F PUSH1 0x20 MSTORE PUSH1 0x40 DUP2 KECCAK256 SLOAD SWAP1 SWAP2 SWAP1 PUSH32 0x84B05DEF62CE9BC2BD93F644E8C54B097DB7EE9EDAB66685B9B15DC162C75564 SWAP1 PUSH1 0xFF AND ISZERO PUSH2 0x1B8A JUMPI DUP1 DUP4 MSTORE PUSH1 0x5 PUSH1 0x20 MSTORE PUSH1 0x40 DUP4 KECCAK256 DUP3 DUP5 MSTORE PUSH1 0x20 MSTORE PUSH1 0x40 DUP4 KECCAK256 PUSH1 0xFF NOT DUP2 SLOAD AND SWAP1 SSTORE PUSH32 0xF6391F5C32D9C69D2A47EA670B442974B53935D1EDC7FD64EB21E047A839171B CALLER SWAP4 DUP1 LOG4 PUSH1 0x1 SWAP1 JUMP JUMPDEST SWAP1 PUSH1 0x0 SWAP2 DUP1 DUP4 MSTORE PUSH1 0x5 PUSH1 0x20 MSTORE PUSH1 0x1 PUSH1 0x1 PUSH1 0xA0 SHL SUB PUSH1 0x40 DUP5 KECCAK256 SWAP3 AND SWAP2 DUP3 DUP5 MSTORE PUSH1 0x20 MSTORE PUSH1 0xFF PUSH1 0x40 DUP5 KECCAK256 SLOAD AND PUSH1 0x0 EQ PUSH2 0x1B8A JUMPI DUP1 DUP4 MSTORE PUSH1 0x5 PUSH1 0x20 MSTORE PUSH1 0x40 DUP4 KECCAK256 DUP3 DUP5 MSTORE PUSH1 0x20 MSTORE PUSH1 0x40 DUP4 KECCAK256 PUSH1 0xFF NOT DUP2 SLOAD AND SWAP1 SSTORE PUSH32 0xF6391F5C32D9C69D2A47EA670B442974B53935D1EDC7FD64EB21E047A839171B CALLER SWAP4 DUP1 LOG4 PUSH1 0x1 SWAP1 JUMP JUMPDEST SWAP1 PUSH1 0x1F DUP1 NOT SWAP2 ADD AND DUP2 ADD SWAP1 DUP2 LT PUSH8 0xFFFFFFFFFFFFFFFF DUP3 GT OR PUSH2 0x1D51 JUMPI PUSH1 0x40 MSTORE JUMP JUMPDEST PUSH4 0x4E487B71 PUSH1 0xE0 SHL PUSH1 0x0 MSTORE PUSH1 0x41 PUSH1 0x4 MSTORE PUSH1 0x24 PUSH1 0x0 REVERT JUMPDEST SWAP1 PUSH1 0x1 PUSH1 0x1 PUSH1 0xA0 SHL SUB DUP3 AND SWAP1 DUP2 ISZERO PUSH2 0x1E1F JUMPI PUSH1 0x0 SWAP3 DUP3 DUP5 MSTORE DUP4 PUSH1 0x20 MSTORE PUSH1 0x40 DUP5 KECCAK256 SLOAD SWAP1 DUP3 DUP3 LT PUSH2 0x1DD4 JUMPI POP DUP2 PUSH32 0xDDF252AD1BE2C89B69C2B068FC378DAA952BA7F163C4A11628F55A4DF523B3EF SWAP3 PUSH1 0x20 SWAP3 DUP6 DUP8 MSTORE DUP7 DUP5 MSTORE SUB PUSH1 0x40 DUP7 KECCAK256 SSTORE DUP1 PUSH1 0x2 SLOAD SUB PUSH1 0x2 SSTORE PUSH1 0x40 MLOAD SWAP1 DUP2 MSTORE LOG3 JUMP JUMPDEST PUSH1 0x40 MLOAD PUSH32 0xE450D38C00000000000000000000000000000000000000000000000000000000 DUP2 MSTORE PUSH1 0x1 PUSH1 0x1 PUSH1 0xA0 SHL SUB SWAP2 SWAP1 SWAP2 AND PUSH1 0x4 DUP3 ADD MSTORE PUSH1 0x24 DUP2 ADD SWAP2 SWAP1 SWAP2 MSTORE PUSH1 0x44 DUP2 ADD DUP3 SWAP1 MSTORE PUSH1 0x64 SWAP1 REVERT JUMPDEST PUSH1 0x24 PUSH1 0x40 MLOAD PUSH32 0x96C6FD1E00000000000000000000000000000000000000000000000000000000 DUP2 MSTORE PUSH1 0x0 PUSH1 0x4 DUP3 ADD MSTORE REVERT JUMPDEST SWAP2 SWAP1 DUP3 ADD DUP1 SWAP3 GT PUSH2 0x1E5D JUMPI JUMP JUMPDEST PUSH4 0x4E487B71 PUSH1 0xE0 SHL PUSH1 0x0 MSTORE PUSH1 0x11 PUSH1 0x4 MSTORE PUSH1 0x24 PUSH1 0x0 REVERT JUMPDEST SWAP1 DUP2 PUSH1 0x20 SWAP2 SUB SLT PUSH2 0x1A43 JUMPI MLOAD DUP1 ISZERO ISZERO DUP2 SUB PUSH2 0x1A43 JUMPI SWAP1 JUMP JUMPDEST DUP2 DUP2 MUL SWAP3 SWAP2 DUP2 ISZERO SWAP2 DUP5 DIV EQ OR ISZERO PUSH2 0x1E5D JUMPI JUMP JUMPDEST DUP2 ISZERO PUSH2 0x1EA8 JUMPI DIV SWAP1 JUMP JUMPDEST PUSH4 0x4E487B71 PUSH1 0xE0 SHL PUSH1 0x0 MSTORE PUSH1 0x12 PUSH1 0x4 MSTORE PUSH1 0x24 PUSH1 0x0 REVERT JUMPDEST SWAP2 SWAP1 DUP3 SUB SWAP2 DUP3 GT PUSH2 0x1E5D JUMPI JUMP JUMPDEST PUSH1 0x3 DUP2 LT ISZERO PUSH2 0x1F05 JUMPI DUP1 PUSH2 0x1EE1 JUMPI POP PUSH3 0x15180 SWAP1 JUMP JUMPDEST PUSH1 0x1 DUP2 SUB PUSH2 0x1EF1 JUMPI POP PUSH3 0x278D00 SWAP1 JUMP JUMPDEST PUSH1 0x2 EQ PUSH2 0x1EFD JUMPI PUSH1 0x0 SWAP1 JUMP JUMPDEST PUSH4 0x1E13380 SWAP1 JUMP JUMPDEST PUSH4 0x4E487B71 PUSH1 0xE0 SHL PUSH1 0x0 MSTORE PUSH1 0x21 PUSH1 0x4 MSTORE PUSH1 0x24 PUSH1 0x0 REVERT JUMPDEST PUSH1 0x2 PUSH1 0x7 SLOAD EQ PUSH2 0x1F2C JUMPI PUSH1 0x2 PUSH1 0x7 SSTORE JUMP JUMPDEST PUSH1 0x4 PUSH1 0x40 MLOAD PUSH32 0x3EE5AEB500000000000000000000000000000000000000000000000000000000 DUP2 MSTORE REVERT JUMPDEST PUSH1 0x1 PUSH1 0x1 PUSH1 0xA0 SHL SUB PUSH1 0x0 SWAP2 AND DUP2 MSTORE PUSH1 0xB PUSH1 0x20 MSTORE PUSH1 0x40 DUP2 KECCAK256 SWAP2 DUP3 SLOAD ISZERO PUSH2 0x1FCD JUMPI DUP2 PUSH1 0x20 MSTORE PUSH1 0x40 DUP3 KECCAK256 SLOAD DUP1 ISZERO PUSH2 0x1FC4 JUMPI PUSH1 0x2 SLOAD SWAP1 DUP2 ISZERO PUSH2 0x1FBA JUMPI PUSH1 0x6 SWAP2 PUSH2 0xCD4 PUSH2 0x1FA0 SWAP3 PUSH1 0xC SLOAD PUSH2 0x1E8B JUMP JUMPDEST SWAP4 ADD SLOAD SWAP2 DUP3 DUP5 GT ISZERO PUSH2 0x1FB7 JUMPI POP PUSH2 0x1FB7 DUP3 DUP5 PUSH2 0x1EBE JUMP JUMPDEST SWAP1 JUMP JUMPDEST POP POP SWAP2 POP DUP1 SWAP2 DUP2 SWAP1 JUMP JUMPDEST POP SWAP2 POP DUP1 SWAP2 DUP2 SWAP1 JUMP JUMPDEST SWAP2 POP DUP1 SWAP2 DUP2 SWAP1 JUMP INVALID LOG1 PUSH5 0x736F6C6343 STOP ADDMOD EQ STOP EXP 0x2F DUP8 DUP9 GT PUSH31 0x7EFF1D82E926EC794901D17C78024A50270940304540A733656F0DA164736F PUSH13 0x6343000814000A000000000000 "},"methodIdentifiers":{"byCreator(address,uint256)":"f2c7f4b4","count()":"06661abd","createWrappedToken((string,string,address,address,uint256,uint256,address))":"38c98ace","creators(address)":"933166e1","getAllWrappedTokens()":"6500d43f","getWrappedTokenAddress(uint256)":"15ad7e94","getWrappedTokenCreator(address)":"e4ddcafb","getWrappedTokenIdsByCreator(address)":"3fc497ca","owner()":"8da5cb5b","renounceOwnership()":"715018a6","transferOwnership(address)":"f2fde38b","wrappedTokens(uint256)":"14dd14b3"}}}}}