{"contracts/Escrow.sol":{"Escrow":{"abi":[{"inputs":[{"internalType":"address","name":"_owner","type":"address"}],"stateMutability":"nonpayable","type":"constructor"},{"inputs":[{"internalType":"address","name":"owner","type":"address"}],"name":"OwnableInvalidOwner","type":"error"},{"inputs":[{"internalType":"address","name":"account","type":"address"}],"name":"OwnableUnauthorizedAccount","type":"error"},{"inputs":[],"name":"ReentrancyGuardReentrantCall","type":"error"},{"anonymous":false,"inputs":[{"indexed":true,"internalType":"address","name":"offeringContract","type":"address"},{"indexed":true,"internalType":"address","name":"investor","type":"address"},{"indexed":true,"internalType":"address","name":"token","type":"address"},{"indexed":false,"internalType":"uint256","name":"amount","type":"uint256"}],"name":"Deposited","type":"event"},{"anonymous":false,"inputs":[{"indexed":true,"internalType":"address","name":"previousOwner","type":"address"},{"indexed":true,"internalType":"address","name":"newOwner","type":"address"}],"name":"OwnershipTransferred","type":"event"},{"anonymous":false,"inputs":[{"indexed":true,"internalType":"address","name":"offeringContract","type":"address"},{"indexed":true,"internalType":"address","name":"investor","type":"address"},{"indexed":true,"internalType":"address","name":"token","type":"address"},{"indexed":false,"internalType":"uint256","name":"amount","type":"uint256"}],"name":"Refunded","type":"event"},{"anonymous":false,"inputs":[],"name":"RefundsEnabled","type":"event"},{"anonymous":false,"inputs":[{"indexed":true,"internalType":"address","name":"token","type":"address"},{"indexed":false,"internalType":"uint256","name":"amount","type":"uint256"},{"indexed":true,"internalType":"address","name":"to","type":"address"}],"name":"Withdrawn","type":"event"},{"inputs":[{"internalType":"address","name":"_offeringContract","type":"address"}],"name":"depositNative","outputs":[],"stateMutability":"payable","type":"function"},{"inputs":[{"internalType":"address","name":"_offeringContract","type":"address"},{"internalType":"address","name":"tokenAddr","type":"address"},{"internalType":"uint256","name":"amount","type":"uint256"}],"name":"depositToken","outputs":[],"stateMutability":"nonpayable","type":"function"},{"inputs":[{"internalType":"address","name":"","type":"address"},{"internalType":"address","name":"","type":"address"}],"name":"deposits","outputs":[{"internalType":"uint256","name":"amount","type":"uint256"},{"internalType":"address","name":"token","type":"address"}],"stateMutability":"view","type":"function"},{"inputs":[],"name":"enableRefunds","outputs":[],"stateMutability":"nonpayable","type":"function"},{"inputs":[],"name":"owner","outputs":[{"internalType":"address","name":"","type":"address"}],"stateMutability":"view","type":"function"},{"inputs":[{"internalType":"address","name":"_offeringContract","type":"address"}],"name":"refund","outputs":[],"stateMutability":"nonpayable","type":"function"},{"inputs":[],"name":"refundsEnabled","outputs":[{"internalType":"bool","name":"","type":"bool"}],"stateMutability":"view","type":"function"},{"inputs":[],"name":"renounceOwnership","outputs":[],"stateMutability":"nonpayable","type":"function"},{"inputs":[{"internalType":"address","name":"newOwner","type":"address"}],"name":"transferOwnership","outputs":[],"stateMutability":"nonpayable","type":"function"},{"inputs":[{"internalType":"address","name":"tokenAddr","type":"address"},{"internalType":"uint256","name":"amount","type":"uint256"},{"internalType":"address","name":"to","type":"address"}],"name":"withdraw","outputs":[],"stateMutability":"nonpayable","type":"function"}],"evm":{"bytecode":{"linkReferences":{},"object":"6080346100bc57601f610d2f38819003918201601f19168301916001600160401b038311848410176100c1578084926020946040528339810103126100bc57516001600160a01b03808216918290036100bc5781156100a3576000548260018060a01b0319821617600055167f8be0079c531659141344cd1fd0a4f28419497f9722a3daafe3b4186f6b6457e0600080a360018055604051610c5790816100d88239f35b604051631e4fbdf760e01b815260006004820152602490fd5b600080fd5b634e487b7160e01b600052604160045260246000fdfe60406080815260048036101561001457600080fd5b600091823560e01c83816333bb7f91146108e657508063532f1179146108c257806369328dec1461062f578063715018a6146105e75780638c52dc411461059a5780638da5cb5b1461056e5780638f601f6614610515578063f2fde38b146104a0578063fa89401a1461023b5763fb0f97a81461009057600080fd5b34610237576060366003190112610237576100a9610990565b916100b26109ab565b90604435926100bf610b24565b6001600160a01b039283169485156102045783906100de8615156109ed565b6100ed60ff6002541615610a2a565b16926100fa841515610a70565b8151926323b872dd60e01b8452848185015230602485015285604485015260209384816064818c8c5af19081156101fa5789916101cd575b501561019857508151600080516020610bc283398151915293929161015682610ab8565b868252600184830192898452878b5260038652848b20338c528652848b20905181550191511660018060a01b0319825416179055519384523393a46001805580f35b825162461bcd60e51b8152908101849052600f60248201526e151c985b9cd9995c8819985a5b1959608a1b6044820152606490fd5b6101ed9150853d87116101f3575b6101e58183610ae9565b810190610b0c565b38610132565b503d6101db565b84513d8b823e3d90fd5b815162461bcd60e51b8152602081850152600d60248201526c24b73b30b634b2103a37b5b2b760991b6044820152606490fd5b8280fd5b50346102375760208060031936011261049c57610256610990565b9061025f610b24565b60ff6002541615610464576001600160a01b0391821691610281831515610a70565b82865260038252838620338752825283862084519561029f87610ab8565b826001835493848a52015416918488019283521561042d5785516102c281610ab8565b888152836001868301928b8452888c5260038852898c20338d528852898c20905181550191511660018060a01b0319825416179055878484845116801560001461037c5750508080808a51335af1610318610b62565b5015610345575090600080516020610ba283398151915292915b5116945193519384523393a46001805580f35b855162461bcd60e51b81529081018490526011602482015270115512081c99599d5b990819985a5b1959607a1b6044820152606490fd5b61039d908a518a5194858094819363a9059cbb60e01b8352338a8401610b47565b03925af1908115610423578991610406575b50156103cd575090600080516020610ba28339815191529291610332565b855162461bcd60e51b81529081018490526013602482015272151bdad95b881c99599d5b990819985a5b1959606a1b6044820152606490fd5b61041d9150853d87116101f3576101e58183610ae9565b386103af565b87513d8b823e3d90fd5b855162461bcd60e51b81529081018490526011602482015270139bdd1a1a5b99c81d1bc81c99599d5b99607a1b6044820152606490fd5b8360649184519162461bcd60e51b835282015260136024820152721499599d5b991cc81b9bdd08195b98589b1959606a1b6044820152fd5b8380fd5b509034610237576020366003190112610237576104bb610990565b906104c46109c1565b6001600160a01b039182169283156104ff57505082546001600160a01b031981168317845516600080516020610be28339815191528380a380f35b51631e4fbdf760e01b8152908101849052602490fd5b50823461056b578160031936011261056b5781610530610990565b916105396109ab565b60018060a01b038094168252600360205283838320911682526020522090600182549201541682519182526020820152f35b80fd5b838234610596578160031936011261059657905490516001600160a01b039091168152602090f35b5080fd5b833461056b578060031936011261056b576105b36109c1565b600160ff1960025416176002557f599d8e5a83cffb867d051598c4d70e805d59802d8081c1c7d6dffc5b6aca2b898180a180f35b833461056b578060031936011261056b576106006109c1565b80546001600160a01b03198116825581906001600160a01b0316600080516020610be28339815191528280a380f35b503461023757606036600319011261023757610649610990565b91602491823591604480359460018060a01b03808716978888036108be5761066f6109c1565b610677610b24565b88156108895716958661072e57508447106106fb5787808080888b5af161069c610b62565b50156106c557505050600080516020610c02833981519152916020915b51908152a36001805580f35b90601372115512081dda5d1a191c985dc819985a5b1959606a1b926020606496519562461bcd60e51b8752860152840152820152fd5b9060106f092dce6eaccccd2c6d2cadce8408aa8960831b926020606496519562461bcd60e51b8752860152840152820152fd5b84516370a0823160e01b8152308582015260209190828185818c5afa90811561087f579088918c9161084a575b5010610814578187610780928851938492839263a9059cbb60e01b84528a8401610b47565b03818d8c5af190811561080a578a916107ed575b50156107b65750505050600080516020610c02833981519152916020916106b9565b74151bdad95b881dda5d1a191c985dc819985a5b1959605a1b9291601591606496519562461bcd60e51b8752860152840152820152fd5b6108049150823d84116101f3576101e58183610ae9565b38610794565b86513d8c823e3d90fd5b5072496e73756666696369656e7420746f6b656e7360681b9291601391606496519562461bcd60e51b8752860152840152820152fd5b809250848092503d8311610878575b6108638183610ae9565b81010312610874578790513861075b565b8a80fd5b503d610859565b87513d8d823e3d90fd5b855162461bcd60e51b815260208187015260118185015270125b9d985b1a59081c9958da5c1a595b9d607a1b81860152606490fd5b8980fd5b83823461059657816003193601126105965760209060ff6002541690519015158152f35b8083602036600319011261098d576108fc610990565b906109083415156109ed565b61091760ff6002541615610a2a565b6001600160a01b039182169161092e831515610a70565b81519061093a82610ab8565b348252600160208301928684528587526003602052848720338852602052848720905181550191511660018060a01b03198254161790555190348252600080516020610bc283398151915260203393a480f35b50fd5b600435906001600160a01b03821682036109a657565b600080fd5b602435906001600160a01b03821682036109a657565b6000546001600160a01b031633036109d557565b60405163118cdaa760e01b8152336004820152602490fd5b156109f457565b60405162461bcd60e51b815260206004820152600e60248201526d125b9d985b1a5908185b5bdd5b9d60921b6044820152606490fd5b15610a3157565b60405162461bcd60e51b81526020600482015260176024820152761499599d5b991cc8185b1c9958591e48195b98589b1959604a1b6044820152606490fd5b15610a7757565b60405162461bcd60e51b8152602060048201526019602482015278125b9d985b1a59081bd999995c9a5b99c818dbdb9d1c9858dd603a1b6044820152606490fd5b604081019081106001600160401b03821117610ad357604052565b634e487b7160e01b600052604160045260246000fd5b601f909101601f19168101906001600160401b03821190821017610ad357604052565b908160209103126109a6575180151581036109a65790565b600260015414610b35576002600155565b604051633ee5aeb560e01b8152600490fd5b6001600160a01b039091168152602081019190915260400190565b3d15610b9c573d906001600160401b038211610ad35760405191610b90601f8201601f191660200184610ae9565b82523d6000602084013e565b60609056feb7c482f0c0b7ad56e2c7004be448a8ead98a8bbe84675fd80b273563099f85604174a9435a04d04d274c76779cad136a41fde6937c56241c09ab9d3c7064a1a98be0079c531659141344cd1fd0a4f28419497f9722a3daafe3b4186f6b6457e0cbcdbdf10631a43cc99c80acace8232649421c3f4f73919f16013d47c83a687aa264697066735822122016bff1c9064d6492c61295c999a80d1dc4c4a67bb8afd90664bb0fc60f60745164736f6c63430008140033","opcodes":"PUSH1 0x80 CALLVALUE PUSH2 0xBC JUMPI PUSH1 0x1F PUSH2 0xD2F CODESIZE DUP2 SWAP1 SUB SWAP2 DUP3 ADD PUSH1 0x1F NOT AND DUP4 ADD SWAP2 PUSH1 0x1 PUSH1 0x1 PUSH1 0x40 SHL SUB DUP4 GT DUP5 DUP5 LT OR PUSH2 0xC1 JUMPI DUP1 DUP5 SWAP3 PUSH1 0x20 SWAP5 PUSH1 0x40 MSTORE DUP4 CODECOPY DUP2 ADD SUB SLT PUSH2 0xBC JUMPI MLOAD PUSH1 0x1 PUSH1 0x1 PUSH1 0xA0 SHL SUB DUP1 DUP3 AND SWAP2 DUP3 SWAP1 SUB PUSH2 0xBC JUMPI DUP2 ISZERO PUSH2 0xA3 JUMPI PUSH1 0x0 SLOAD DUP3 PUSH1 0x1 DUP1 PUSH1 0xA0 SHL SUB NOT DUP3 AND OR PUSH1 0x0 SSTORE AND PUSH32 0x8BE0079C531659141344CD1FD0A4F28419497F9722A3DAAFE3B4186F6B6457E0 PUSH1 0x0 DUP1 LOG3 PUSH1 0x1 DUP1 SSTORE PUSH1 0x40 MLOAD PUSH2 0xC57 SWAP1 DUP2 PUSH2 0xD8 DUP3 CODECOPY RETURN JUMPDEST PUSH1 0x40 MLOAD PUSH4 0x1E4FBDF7 PUSH1 0xE0 SHL DUP2 MSTORE PUSH1 0x0 PUSH1 0x4 DUP3 ADD MSTORE PUSH1 0x24 SWAP1 REVERT JUMPDEST PUSH1 0x0 DUP1 REVERT JUMPDEST PUSH4 0x4E487B71 PUSH1 0xE0 SHL PUSH1 0x0 MSTORE PUSH1 0x41 PUSH1 0x4 MSTORE PUSH1 0x24 PUSH1 0x0 REVERT INVALID PUSH1 0x40 PUSH1 0x80 DUP2 MSTORE PUSH1 0x4 DUP1 CALLDATASIZE LT ISZERO PUSH2 0x14 JUMPI PUSH1 0x0 DUP1 REVERT JUMPDEST PUSH1 0x0 SWAP2 DUP3 CALLDATALOAD PUSH1 0xE0 SHR DUP4 DUP2 PUSH4 0x33BB7F91 EQ PUSH2 0x8E6 JUMPI POP DUP1 PUSH4 0x532F1179 EQ PUSH2 0x8C2 JUMPI DUP1 PUSH4 0x69328DEC EQ PUSH2 0x62F JUMPI DUP1 PUSH4 0x715018A6 EQ PUSH2 0x5E7 JUMPI DUP1 PUSH4 0x8C52DC41 EQ PUSH2 0x59A JUMPI DUP1 PUSH4 0x8DA5CB5B EQ PUSH2 0x56E JUMPI DUP1 PUSH4 0x8F601F66 EQ PUSH2 0x515 JUMPI DUP1 PUSH4 0xF2FDE38B EQ PUSH2 0x4A0 JUMPI DUP1 PUSH4 0xFA89401A EQ PUSH2 0x23B JUMPI PUSH4 0xFB0F97A8 EQ PUSH2 0x90 JUMPI PUSH1 0x0 DUP1 REVERT JUMPDEST CALLVALUE PUSH2 0x237 JUMPI PUSH1 0x60 CALLDATASIZE PUSH1 0x3 NOT ADD SLT PUSH2 0x237 JUMPI PUSH2 0xA9 PUSH2 0x990 JUMP JUMPDEST SWAP2 PUSH2 0xB2 PUSH2 0x9AB JUMP JUMPDEST SWAP1 PUSH1 0x44 CALLDATALOAD SWAP3 PUSH2 0xBF PUSH2 0xB24 JUMP JUMPDEST PUSH1 0x1 PUSH1 0x1 PUSH1 0xA0 SHL SUB SWAP3 DUP4 AND SWAP5 DUP6 ISZERO PUSH2 0x204 JUMPI DUP4 SWAP1 PUSH2 0xDE DUP7 ISZERO ISZERO PUSH2 0x9ED JUMP JUMPDEST PUSH2 0xED PUSH1 0xFF PUSH1 0x2 SLOAD AND ISZERO PUSH2 0xA2A JUMP JUMPDEST AND SWAP3 PUSH2 0xFA DUP5 ISZERO ISZERO PUSH2 0xA70 JUMP JUMPDEST DUP2 MLOAD SWAP3 PUSH4 0x23B872DD PUSH1 0xE0 SHL DUP5 MSTORE DUP5 DUP2 DUP6 ADD MSTORE ADDRESS PUSH1 0x24 DUP6 ADD MSTORE DUP6 PUSH1 0x44 DUP6 ADD MSTORE PUSH1 0x20 SWAP4 DUP5 DUP2 PUSH1 0x64 DUP2 DUP13 DUP13 GAS CALL SWAP1 DUP2 ISZERO PUSH2 0x1FA JUMPI DUP10 SWAP2 PUSH2 0x1CD JUMPI JUMPDEST POP ISZERO PUSH2 0x198 JUMPI POP DUP2 MLOAD PUSH1 0x0 DUP1 MLOAD PUSH1 0x20 PUSH2 0xBC2 DUP4 CODECOPY DUP2 MLOAD SWAP2 MSTORE SWAP4 SWAP3 SWAP2 PUSH2 0x156 DUP3 PUSH2 0xAB8 JUMP JUMPDEST DUP7 DUP3 MSTORE PUSH1 0x1 DUP5 DUP4 ADD SWAP3 DUP10 DUP5 MSTORE DUP8 DUP12 MSTORE PUSH1 0x3 DUP7 MSTORE DUP5 DUP12 KECCAK256 CALLER DUP13 MSTORE DUP7 MSTORE DUP5 DUP12 KECCAK256 SWAP1 MLOAD DUP2 SSTORE ADD SWAP2 MLOAD AND PUSH1 0x1 DUP1 PUSH1 0xA0 SHL SUB NOT DUP3 SLOAD AND OR SWAP1 SSTORE MLOAD SWAP4 DUP5 MSTORE CALLER SWAP4 LOG4 PUSH1 0x1 DUP1 SSTORE DUP1 RETURN JUMPDEST DUP3 MLOAD PUSH3 0x461BCD PUSH1 0xE5 SHL DUP2 MSTORE SWAP1 DUP2 ADD DUP5 SWAP1 MSTORE PUSH1 0xF PUSH1 0x24 DUP3 ADD MSTORE PUSH15 0x151C985B9CD9995C8819985A5B1959 PUSH1 0x8A SHL PUSH1 0x44 DUP3 ADD MSTORE PUSH1 0x64 SWAP1 REVERT JUMPDEST PUSH2 0x1ED SWAP2 POP DUP6 RETURNDATASIZE DUP8 GT PUSH2 0x1F3 JUMPI JUMPDEST PUSH2 0x1E5 DUP2 DUP4 PUSH2 0xAE9 JUMP JUMPDEST DUP2 ADD SWAP1 PUSH2 0xB0C JUMP JUMPDEST CODESIZE PUSH2 0x132 JUMP JUMPDEST POP RETURNDATASIZE PUSH2 0x1DB JUMP JUMPDEST DUP5 MLOAD RETURNDATASIZE DUP12 DUP3 RETURNDATACOPY RETURNDATASIZE SWAP1 REVERT JUMPDEST DUP2 MLOAD PUSH3 0x461BCD PUSH1 0xE5 SHL DUP2 MSTORE PUSH1 0x20 DUP2 DUP6 ADD MSTORE PUSH1 0xD PUSH1 0x24 DUP3 ADD MSTORE PUSH13 0x24B73B30B634B2103A37B5B2B7 PUSH1 0x99 SHL PUSH1 0x44 DUP3 ADD MSTORE PUSH1 0x64 SWAP1 REVERT JUMPDEST DUP3 DUP1 REVERT JUMPDEST POP CALLVALUE PUSH2 0x237 JUMPI PUSH1 0x20 DUP1 PUSH1 0x3 NOT CALLDATASIZE ADD SLT PUSH2 0x49C JUMPI PUSH2 0x256 PUSH2 0x990 JUMP JUMPDEST SWAP1 PUSH2 0x25F PUSH2 0xB24 JUMP JUMPDEST PUSH1 0xFF PUSH1 0x2 SLOAD AND ISZERO PUSH2 0x464 JUMPI PUSH1 0x1 PUSH1 0x1 PUSH1 0xA0 SHL SUB SWAP2 DUP3 AND SWAP2 PUSH2 0x281 DUP4 ISZERO ISZERO PUSH2 0xA70 JUMP JUMPDEST DUP3 DUP7 MSTORE PUSH1 0x3 DUP3 MSTORE DUP4 DUP7 KECCAK256 CALLER DUP8 MSTORE DUP3 MSTORE DUP4 DUP7 KECCAK256 DUP5 MLOAD SWAP6 PUSH2 0x29F DUP8 PUSH2 0xAB8 JUMP JUMPDEST DUP3 PUSH1 0x1 DUP4 SLOAD SWAP4 DUP5 DUP11 MSTORE ADD SLOAD AND SWAP2 DUP5 DUP9 ADD SWAP3 DUP4 MSTORE ISZERO PUSH2 0x42D JUMPI DUP6 MLOAD PUSH2 0x2C2 DUP2 PUSH2 0xAB8 JUMP JUMPDEST DUP9 DUP2 MSTORE DUP4 PUSH1 0x1 DUP7 DUP4 ADD SWAP3 DUP12 DUP5 MSTORE DUP9 DUP13 MSTORE PUSH1 0x3 DUP9 MSTORE DUP10 DUP13 KECCAK256 CALLER DUP14 MSTORE DUP9 MSTORE DUP10 DUP13 KECCAK256 SWAP1 MLOAD DUP2 SSTORE ADD SWAP2 MLOAD AND PUSH1 0x1 DUP1 PUSH1 0xA0 SHL SUB NOT DUP3 SLOAD AND OR SWAP1 SSTORE DUP8 DUP5 DUP5 DUP5 MLOAD AND DUP1 ISZERO PUSH1 0x0 EQ PUSH2 0x37C JUMPI POP POP DUP1 DUP1 DUP1 DUP11 MLOAD CALLER GAS CALL PUSH2 0x318 PUSH2 0xB62 JUMP JUMPDEST POP ISZERO PUSH2 0x345 JUMPI POP SWAP1 PUSH1 0x0 DUP1 MLOAD PUSH1 0x20 PUSH2 0xBA2 DUP4 CODECOPY DUP2 MLOAD SWAP2 MSTORE SWAP3 SWAP2 JUMPDEST MLOAD AND SWAP5 MLOAD SWAP4 MLOAD SWAP4 DUP5 MSTORE CALLER SWAP4 LOG4 PUSH1 0x1 DUP1 SSTORE DUP1 RETURN JUMPDEST DUP6 MLOAD PUSH3 0x461BCD PUSH1 0xE5 SHL DUP2 MSTORE SWAP1 DUP2 ADD DUP5 SWAP1 MSTORE PUSH1 0x11 PUSH1 0x24 DUP3 ADD MSTORE PUSH17 0x115512081C99599D5B990819985A5B1959 PUSH1 0x7A SHL PUSH1 0x44 DUP3 ADD MSTORE PUSH1 0x64 SWAP1 REVERT JUMPDEST PUSH2 0x39D SWAP1 DUP11 MLOAD DUP11 MLOAD SWAP5 DUP6 DUP1 SWAP5 DUP2 SWAP4 PUSH4 0xA9059CBB PUSH1 0xE0 SHL DUP4 MSTORE CALLER DUP11 DUP5 ADD PUSH2 0xB47 JUMP JUMPDEST SUB SWAP3 GAS CALL SWAP1 DUP2 ISZERO PUSH2 0x423 JUMPI DUP10 SWAP2 PUSH2 0x406 JUMPI JUMPDEST POP ISZERO PUSH2 0x3CD JUMPI POP SWAP1 PUSH1 0x0 DUP1 MLOAD PUSH1 0x20 PUSH2 0xBA2 DUP4 CODECOPY DUP2 MLOAD SWAP2 MSTORE SWAP3 SWAP2 PUSH2 0x332 JUMP JUMPDEST DUP6 MLOAD PUSH3 0x461BCD PUSH1 0xE5 SHL DUP2 MSTORE SWAP1 DUP2 ADD DUP5 SWAP1 MSTORE PUSH1 0x13 PUSH1 0x24 DUP3 ADD MSTORE PUSH19 0x151BDAD95B881C99599D5B990819985A5B1959 PUSH1 0x6A SHL PUSH1 0x44 DUP3 ADD MSTORE PUSH1 0x64 SWAP1 REVERT JUMPDEST PUSH2 0x41D SWAP2 POP DUP6 RETURNDATASIZE DUP8 GT PUSH2 0x1F3 JUMPI PUSH2 0x1E5 DUP2 DUP4 PUSH2 0xAE9 JUMP JUMPDEST CODESIZE PUSH2 0x3AF JUMP JUMPDEST DUP8 MLOAD RETURNDATASIZE DUP12 DUP3 RETURNDATACOPY RETURNDATASIZE SWAP1 REVERT JUMPDEST DUP6 MLOAD PUSH3 0x461BCD PUSH1 0xE5 SHL DUP2 MSTORE SWAP1 DUP2 ADD DUP5 SWAP1 MSTORE PUSH1 0x11 PUSH1 0x24 DUP3 ADD MSTORE PUSH17 0x139BDD1A1A5B99C81D1BC81C99599D5B99 PUSH1 0x7A SHL PUSH1 0x44 DUP3 ADD MSTORE PUSH1 0x64 SWAP1 REVERT JUMPDEST DUP4 PUSH1 0x64 SWAP2 DUP5 MLOAD SWAP2 PUSH3 0x461BCD PUSH1 0xE5 SHL DUP4 MSTORE DUP3 ADD MSTORE PUSH1 0x13 PUSH1 0x24 DUP3 ADD MSTORE PUSH19 0x1499599D5B991CC81B9BDD08195B98589B1959 PUSH1 0x6A SHL PUSH1 0x44 DUP3 ADD MSTORE REVERT JUMPDEST DUP4 DUP1 REVERT JUMPDEST POP SWAP1 CALLVALUE PUSH2 0x237 JUMPI PUSH1 0x20 CALLDATASIZE PUSH1 0x3 NOT ADD SLT PUSH2 0x237 JUMPI PUSH2 0x4BB PUSH2 0x990 JUMP JUMPDEST SWAP1 PUSH2 0x4C4 PUSH2 0x9C1 JUMP JUMPDEST PUSH1 0x1 PUSH1 0x1 PUSH1 0xA0 SHL SUB SWAP2 DUP3 AND SWAP3 DUP4 ISZERO PUSH2 0x4FF JUMPI POP POP DUP3 SLOAD PUSH1 0x1 PUSH1 0x1 PUSH1 0xA0 SHL SUB NOT DUP2 AND DUP4 OR DUP5 SSTORE AND PUSH1 0x0 DUP1 MLOAD PUSH1 0x20 PUSH2 0xBE2 DUP4 CODECOPY DUP2 MLOAD SWAP2 MSTORE DUP4 DUP1 LOG3 DUP1 RETURN JUMPDEST MLOAD PUSH4 0x1E4FBDF7 PUSH1 0xE0 SHL DUP2 MSTORE SWAP1 DUP2 ADD DUP5 SWAP1 MSTORE PUSH1 0x24 SWAP1 REVERT JUMPDEST POP DUP3 CALLVALUE PUSH2 0x56B JUMPI DUP2 PUSH1 0x3 NOT CALLDATASIZE ADD SLT PUSH2 0x56B JUMPI DUP2 PUSH2 0x530 PUSH2 0x990 JUMP JUMPDEST SWAP2 PUSH2 0x539 PUSH2 0x9AB JUMP JUMPDEST PUSH1 0x1 DUP1 PUSH1 0xA0 SHL SUB DUP1 SWAP5 AND DUP3 MSTORE PUSH1 0x3 PUSH1 0x20 MSTORE DUP4 DUP4 DUP4 KECCAK256 SWAP2 AND DUP3 MSTORE PUSH1 0x20 MSTORE KECCAK256 SWAP1 PUSH1 0x1 DUP3 SLOAD SWAP3 ADD SLOAD AND DUP3 MLOAD SWAP2 DUP3 MSTORE PUSH1 0x20 DUP3 ADD MSTORE RETURN JUMPDEST DUP1 REVERT JUMPDEST DUP4 DUP3 CALLVALUE PUSH2 0x596 JUMPI DUP2 PUSH1 0x3 NOT CALLDATASIZE ADD SLT PUSH2 0x596 JUMPI SWAP1 SLOAD SWAP1 MLOAD PUSH1 0x1 PUSH1 0x1 PUSH1 0xA0 SHL SUB SWAP1 SWAP2 AND DUP2 MSTORE PUSH1 0x20 SWAP1 RETURN JUMPDEST POP DUP1 REVERT JUMPDEST DUP4 CALLVALUE PUSH2 0x56B JUMPI DUP1 PUSH1 0x3 NOT CALLDATASIZE ADD SLT PUSH2 0x56B JUMPI PUSH2 0x5B3 PUSH2 0x9C1 JUMP JUMPDEST PUSH1 0x1 PUSH1 0xFF NOT PUSH1 0x2 SLOAD AND OR PUSH1 0x2 SSTORE PUSH32 0x599D8E5A83CFFB867D051598C4D70E805D59802D8081C1C7D6DFFC5B6ACA2B89 DUP2 DUP1 LOG1 DUP1 RETURN JUMPDEST DUP4 CALLVALUE PUSH2 0x56B JUMPI DUP1 PUSH1 0x3 NOT CALLDATASIZE ADD SLT PUSH2 0x56B JUMPI PUSH2 0x600 PUSH2 0x9C1 JUMP JUMPDEST DUP1 SLOAD PUSH1 0x1 PUSH1 0x1 PUSH1 0xA0 SHL SUB NOT DUP2 AND DUP3 SSTORE DUP2 SWAP1 PUSH1 0x1 PUSH1 0x1 PUSH1 0xA0 SHL SUB AND PUSH1 0x0 DUP1 MLOAD PUSH1 0x20 PUSH2 0xBE2 DUP4 CODECOPY DUP2 MLOAD SWAP2 MSTORE DUP3 DUP1 LOG3 DUP1 RETURN JUMPDEST POP CALLVALUE PUSH2 0x237 JUMPI PUSH1 0x60 CALLDATASIZE PUSH1 0x3 NOT ADD SLT PUSH2 0x237 JUMPI PUSH2 0x649 PUSH2 0x990 JUMP JUMPDEST SWAP2 PUSH1 0x24 SWAP2 DUP3 CALLDATALOAD SWAP2 PUSH1 0x44 DUP1 CALLDATALOAD SWAP5 PUSH1 0x1 DUP1 PUSH1 0xA0 SHL SUB DUP1 DUP8 AND SWAP8 DUP9 DUP9 SUB PUSH2 0x8BE JUMPI PUSH2 0x66F PUSH2 0x9C1 JUMP JUMPDEST PUSH2 0x677 PUSH2 0xB24 JUMP JUMPDEST DUP9 ISZERO PUSH2 0x889 JUMPI AND SWAP6 DUP7 PUSH2 0x72E JUMPI POP DUP5 SELFBALANCE LT PUSH2 0x6FB JUMPI DUP8 DUP1 DUP1 DUP1 DUP9 DUP12 GAS CALL PUSH2 0x69C PUSH2 0xB62 JUMP JUMPDEST POP ISZERO PUSH2 0x6C5 JUMPI POP POP POP PUSH1 0x0 DUP1 MLOAD PUSH1 0x20 PUSH2 0xC02 DUP4 CODECOPY DUP2 MLOAD SWAP2 MSTORE SWAP2 PUSH1 0x20 SWAP2 JUMPDEST MLOAD SWAP1 DUP2 MSTORE LOG3 PUSH1 0x1 DUP1 SSTORE DUP1 RETURN JUMPDEST SWAP1 PUSH1 0x13 PUSH19 0x115512081DDA5D1A191C985DC819985A5B1959 PUSH1 0x6A SHL SWAP3 PUSH1 0x20 PUSH1 0x64 SWAP7 MLOAD SWAP6 PUSH3 0x461BCD PUSH1 0xE5 SHL DUP8 MSTORE DUP7 ADD MSTORE DUP5 ADD MSTORE DUP3 ADD MSTORE REVERT JUMPDEST SWAP1 PUSH1 0x10 PUSH16 0x92DCE6EACCCCD2C6D2CADCE8408AA89 PUSH1 0x83 SHL SWAP3 PUSH1 0x20 PUSH1 0x64 SWAP7 MLOAD SWAP6 PUSH3 0x461BCD PUSH1 0xE5 SHL DUP8 MSTORE DUP7 ADD MSTORE DUP5 ADD MSTORE DUP3 ADD MSTORE REVERT JUMPDEST DUP5 MLOAD PUSH4 0x70A08231 PUSH1 0xE0 SHL DUP2 MSTORE ADDRESS DUP6 DUP3 ADD MSTORE PUSH1 0x20 SWAP2 SWAP1 DUP3 DUP2 DUP6 DUP2 DUP13 GAS STATICCALL SWAP1 DUP2 ISZERO PUSH2 0x87F JUMPI SWAP1 DUP9 SWAP2 DUP13 SWAP2 PUSH2 0x84A JUMPI JUMPDEST POP LT PUSH2 0x814 JUMPI DUP2 DUP8 PUSH2 0x780 SWAP3 DUP9 MLOAD SWAP4 DUP5 SWAP3 DUP4 SWAP3 PUSH4 0xA9059CBB PUSH1 0xE0 SHL DUP5 MSTORE DUP11 DUP5 ADD PUSH2 0xB47 JUMP JUMPDEST SUB DUP2 DUP14 DUP13 GAS CALL SWAP1 DUP2 ISZERO PUSH2 0x80A JUMPI DUP11 SWAP2 PUSH2 0x7ED JUMPI JUMPDEST POP ISZERO PUSH2 0x7B6 JUMPI POP POP POP POP PUSH1 0x0 DUP1 MLOAD PUSH1 0x20 PUSH2 0xC02 DUP4 CODECOPY DUP2 MLOAD SWAP2 MSTORE SWAP2 PUSH1 0x20 SWAP2 PUSH2 0x6B9 JUMP JUMPDEST PUSH21 0x151BDAD95B881DDA5D1A191C985DC819985A5B1959 PUSH1 0x5A SHL SWAP3 SWAP2 PUSH1 0x15 SWAP2 PUSH1 0x64 SWAP7 MLOAD SWAP6 PUSH3 0x461BCD PUSH1 0xE5 SHL DUP8 MSTORE DUP7 ADD MSTORE DUP5 ADD MSTORE DUP3 ADD MSTORE REVERT JUMPDEST PUSH2 0x804 SWAP2 POP DUP3 RETURNDATASIZE DUP5 GT PUSH2 0x1F3 JUMPI PUSH2 0x1E5 DUP2 DUP4 PUSH2 0xAE9 JUMP JUMPDEST CODESIZE PUSH2 0x794 JUMP JUMPDEST DUP7 MLOAD RETURNDATASIZE DUP13 DUP3 RETURNDATACOPY RETURNDATASIZE SWAP1 REVERT JUMPDEST POP PUSH19 0x496E73756666696369656E7420746F6B656E73 PUSH1 0x68 SHL SWAP3 SWAP2 PUSH1 0x13 SWAP2 PUSH1 0x64 SWAP7 MLOAD SWAP6 PUSH3 0x461BCD PUSH1 0xE5 SHL DUP8 MSTORE DUP7 ADD MSTORE DUP5 ADD MSTORE DUP3 ADD MSTORE REVERT JUMPDEST DUP1 SWAP3 POP DUP5 DUP1 SWAP3 POP RETURNDATASIZE DUP4 GT PUSH2 0x878 JUMPI JUMPDEST PUSH2 0x863 DUP2 DUP4 PUSH2 0xAE9 JUMP JUMPDEST DUP2 ADD SUB SLT PUSH2 0x874 JUMPI DUP8 SWAP1 MLOAD CODESIZE PUSH2 0x75B JUMP JUMPDEST DUP11 DUP1 REVERT JUMPDEST POP RETURNDATASIZE PUSH2 0x859 JUMP JUMPDEST DUP8 MLOAD RETURNDATASIZE DUP14 DUP3 RETURNDATACOPY RETURNDATASIZE SWAP1 REVERT JUMPDEST DUP6 MLOAD PUSH3 0x461BCD PUSH1 0xE5 SHL DUP2 MSTORE PUSH1 0x20 DUP2 DUP8 ADD MSTORE PUSH1 0x11 DUP2 DUP6 ADD MSTORE PUSH17 0x125B9D985B1A59081C9958DA5C1A595B9D PUSH1 0x7A SHL DUP2 DUP7 ADD MSTORE PUSH1 0x64 SWAP1 REVERT JUMPDEST DUP10 DUP1 REVERT JUMPDEST DUP4 DUP3 CALLVALUE PUSH2 0x596 JUMPI DUP2 PUSH1 0x3 NOT CALLDATASIZE ADD SLT PUSH2 0x596 JUMPI PUSH1 0x20 SWAP1 PUSH1 0xFF PUSH1 0x2 SLOAD AND SWAP1 MLOAD SWAP1 ISZERO ISZERO DUP2 MSTORE RETURN JUMPDEST DUP1 DUP4 PUSH1 0x20 CALLDATASIZE PUSH1 0x3 NOT ADD SLT PUSH2 0x98D JUMPI PUSH2 0x8FC PUSH2 0x990 JUMP JUMPDEST SWAP1 PUSH2 0x908 CALLVALUE ISZERO ISZERO PUSH2 0x9ED JUMP JUMPDEST PUSH2 0x917 PUSH1 0xFF PUSH1 0x2 SLOAD AND ISZERO PUSH2 0xA2A JUMP JUMPDEST PUSH1 0x1 PUSH1 0x1 PUSH1 0xA0 SHL SUB SWAP2 DUP3 AND SWAP2 PUSH2 0x92E DUP4 ISZERO ISZERO PUSH2 0xA70 JUMP JUMPDEST DUP2 MLOAD SWAP1 PUSH2 0x93A DUP3 PUSH2 0xAB8 JUMP JUMPDEST CALLVALUE DUP3 MSTORE PUSH1 0x1 PUSH1 0x20 DUP4 ADD SWAP3 DUP7 DUP5 MSTORE DUP6 DUP8 MSTORE PUSH1 0x3 PUSH1 0x20 MSTORE DUP5 DUP8 KECCAK256 CALLER DUP9 MSTORE PUSH1 0x20 MSTORE DUP5 DUP8 KECCAK256 SWAP1 MLOAD DUP2 SSTORE ADD SWAP2 MLOAD AND PUSH1 0x1 DUP1 PUSH1 0xA0 SHL SUB NOT DUP3 SLOAD AND OR SWAP1 SSTORE MLOAD SWAP1 CALLVALUE DUP3 MSTORE PUSH1 0x0 DUP1 MLOAD PUSH1 0x20 PUSH2 0xBC2 DUP4 CODECOPY DUP2 MLOAD SWAP2 MSTORE PUSH1 0x20 CALLER SWAP4 LOG4 DUP1 RETURN JUMPDEST POP REVERT JUMPDEST PUSH1 0x4 CALLDATALOAD SWAP1 PUSH1 0x1 PUSH1 0x1 PUSH1 0xA0 SHL SUB DUP3 AND DUP3 SUB PUSH2 0x9A6 JUMPI JUMP JUMPDEST PUSH1 0x0 DUP1 REVERT JUMPDEST PUSH1 0x24 CALLDATALOAD SWAP1 PUSH1 0x1 PUSH1 0x1 PUSH1 0xA0 SHL SUB DUP3 AND DUP3 SUB PUSH2 0x9A6 JUMPI JUMP JUMPDEST PUSH1 0x0 SLOAD PUSH1 0x1 PUSH1 0x1 PUSH1 0xA0 SHL SUB AND CALLER SUB PUSH2 0x9D5 JUMPI JUMP JUMPDEST PUSH1 0x40 MLOAD PUSH4 0x118CDAA7 PUSH1 0xE0 SHL DUP2 MSTORE CALLER PUSH1 0x4 DUP3 ADD MSTORE PUSH1 0x24 SWAP1 REVERT JUMPDEST ISZERO PUSH2 0x9F4 JUMPI JUMP JUMPDEST PUSH1 0x40 MLOAD PUSH3 0x461BCD PUSH1 0xE5 SHL DUP2 MSTORE PUSH1 0x20 PUSH1 0x4 DUP3 ADD MSTORE PUSH1 0xE PUSH1 0x24 DUP3 ADD MSTORE PUSH14 0x125B9D985B1A5908185B5BDD5B9D PUSH1 0x92 SHL PUSH1 0x44 DUP3 ADD MSTORE PUSH1 0x64 SWAP1 REVERT JUMPDEST ISZERO PUSH2 0xA31 JUMPI JUMP JUMPDEST PUSH1 0x40 MLOAD PUSH3 0x461BCD PUSH1 0xE5 SHL DUP2 MSTORE PUSH1 0x20 PUSH1 0x4 DUP3 ADD MSTORE PUSH1 0x17 PUSH1 0x24 DUP3 ADD MSTORE PUSH23 0x1499599D5B991CC8185B1C9958591E48195B98589B1959 PUSH1 0x4A SHL PUSH1 0x44 DUP3 ADD MSTORE PUSH1 0x64 SWAP1 REVERT JUMPDEST ISZERO PUSH2 0xA77 JUMPI JUMP JUMPDEST PUSH1 0x40 MLOAD PUSH3 0x461BCD PUSH1 0xE5 SHL DUP2 MSTORE PUSH1 0x20 PUSH1 0x4 DUP3 ADD MSTORE PUSH1 0x19 PUSH1 0x24 DUP3 ADD MSTORE PUSH25 0x125B9D985B1A59081BD999995C9A5B99C818DBDB9D1C9858DD PUSH1 0x3A SHL PUSH1 0x44 DUP3 ADD MSTORE PUSH1 0x64 SWAP1 REVERT JUMPDEST PUSH1 0x40 DUP2 ADD SWAP1 DUP2 LT PUSH1 0x1 PUSH1 0x1 PUSH1 0x40 SHL SUB DUP3 GT OR PUSH2 0xAD3 JUMPI PUSH1 0x40 MSTORE JUMP JUMPDEST PUSH4 0x4E487B71 PUSH1 0xE0 SHL PUSH1 0x0 MSTORE PUSH1 0x41 PUSH1 0x4 MSTORE PUSH1 0x24 PUSH1 0x0 REVERT JUMPDEST PUSH1 0x1F SWAP1 SWAP2 ADD PUSH1 0x1F NOT AND DUP2 ADD SWAP1 PUSH1 0x1 PUSH1 0x1 PUSH1 0x40 SHL SUB DUP3 GT SWAP1 DUP3 LT OR PUSH2 0xAD3 JUMPI PUSH1 0x40 MSTORE JUMP JUMPDEST SWAP1 DUP2 PUSH1 0x20 SWAP2 SUB SLT PUSH2 0x9A6 JUMPI MLOAD DUP1 ISZERO ISZERO DUP2 SUB PUSH2 0x9A6 JUMPI SWAP1 JUMP JUMPDEST PUSH1 0x2 PUSH1 0x1 SLOAD EQ PUSH2 0xB35 JUMPI PUSH1 0x2 PUSH1 0x1 SSTORE JUMP JUMPDEST PUSH1 0x40 MLOAD PUSH4 0x3EE5AEB5 PUSH1 0xE0 SHL DUP2 MSTORE PUSH1 0x4 SWAP1 REVERT JUMPDEST PUSH1 0x1 PUSH1 0x1 PUSH1 0xA0 SHL SUB SWAP1 SWAP2 AND DUP2 MSTORE PUSH1 0x20 DUP2 ADD SWAP2 SWAP1 SWAP2 MSTORE PUSH1 0x40 ADD SWAP1 JUMP JUMPDEST RETURNDATASIZE ISZERO PUSH2 0xB9C JUMPI RETURNDATASIZE SWAP1 PUSH1 0x1 PUSH1 0x1 PUSH1 0x40 SHL SUB DUP3 GT PUSH2 0xAD3 JUMPI PUSH1 0x40 MLOAD SWAP2 PUSH2 0xB90 PUSH1 0x1F DUP3 ADD PUSH1 0x1F NOT AND PUSH1 0x20 ADD DUP5 PUSH2 0xAE9 JUMP JUMPDEST DUP3 MSTORE RETURNDATASIZE PUSH1 0x0 PUSH1 0x20 DUP5 ADD RETURNDATACOPY JUMP JUMPDEST PUSH1 0x60 SWAP1 JUMP INVALID 0xB7 0xC4 DUP3 CREATE 0xC0 0xB7 0xAD JUMP 0xE2 0xC7 STOP 0x4B 0xE4 BASEFEE 0xA8 0xEA 0xD9 DUP11 DUP12 0xBE DUP5 PUSH8 0x5FD80B273563099F DUP6 PUSH1 0x41 PUSH21 0xA9435A04D04D274C76779CAD136A41FDE6937C5624 SHR MULMOD 0xAB SWAP14 EXTCODECOPY PUSH17 0x64A1A98BE0079C531659141344CD1FD0A4 CALLCODE DUP5 NOT 0x49 PUSH32 0x9722A3DAAFE3B4186F6B6457E0CBCDBDF10631A43CC99C80ACACE8232649421C EXTCODEHASH 0x4F PUSH20 0x919F16013D47C83A687AA2646970667358221220 AND 0xBF CALL 0xC9 MOD 0x4D PUSH5 0x92C61295C9 SWAP10 0xA8 0xD SAR 0xC4 0xC4 0xA6 PUSH28 0xB8AFD90664BB0FC60F60745164736F6C634300081400330000000000 "},"methodIdentifiers":{"depositNative(address)":"33bb7f91","depositToken(address,address,uint256)":"fb0f97a8","deposits(address,address)":"8f601f66","enableRefunds()":"8c52dc41","owner()":"8da5cb5b","refund(address)":"fa89401a","refundsEnabled()":"532f1179","renounceOwnership()":"715018a6","transferOwnership(address)":"f2fde38b","withdraw(address,uint256,address)":"69328dec"}}}}}