{"contracts/OfferingFactory.sol":{"OfferingFactory":{"abi":[{"inputs":[],"stateMutability":"nonpayable","type":"constructor"},{"inputs":[{"internalType":"address","name":"owner","type":"address"}],"name":"OwnableInvalidOwner","type":"error"},{"inputs":[{"internalType":"address","name":"account","type":"address"}],"name":"OwnableUnauthorizedAccount","type":"error"},{"anonymous":false,"inputs":[{"indexed":true,"internalType":"uint256","name":"offeringId","type":"uint256"},{"indexed":true,"internalType":"address","name":"creator","type":"address"},{"indexed":true,"internalType":"address","name":"offeringAddress","type":"address"},{"indexed":false,"internalType":"address","name":"tokenOwner","type":"address"}],"name":"OfferingDeployed","type":"event"},{"anonymous":false,"inputs":[{"indexed":true,"internalType":"address","name":"previousOwner","type":"address"},{"indexed":true,"internalType":"address","name":"newOwner","type":"address"}],"name":"OwnershipTransferred","type":"event"},{"anonymous":false,"inputs":[{"indexed":true,"internalType":"address","name":"usdtAddress","type":"address"},{"indexed":true,"internalType":"address","name":"usdtOracleAddress","type":"address"}],"name":"USDTConfigUpdated","type":"event"},{"inputs":[{"internalType":"address","name":"saleToken","type":"address"},{"internalType":"uint256","name":"minInvestment","type":"uint256"},{"internalType":"uint256","name":"maxInvestment","type":"uint256"},{"internalType":"uint256","name":"startDate","type":"uint256"},{"internalType":"uint256","name":"endDate","type":"uint256"},{"internalType":"uint256","name":"maturityDate","type":"uint256"},{"internalType":"bool","name":"autoTransfer","type":"bool"},{"internalType":"bool","name":"apyEnabled","type":"bool"},{"internalType":"uint256","name":"fundraisingCap","type":"uint256"},{"internalType":"uint256","name":"tokenPrice","type":"uint256"},{"internalType":"address","name":"tokenOwner","type":"address"},{"internalType":"address","name":"_escrowAddress","type":"address"},{"internalType":"address","name":"investmentManager","type":"address"}],"name":"createOffering","outputs":[{"internalType":"address","name":"offeringAddress","type":"address"}],"stateMutability":"nonpayable","type":"function"},{"inputs":[{"internalType":"address","name":"saleToken","type":"address"},{"internalType":"uint256","name":"minInvestment","type":"uint256"},{"internalType":"uint256","name":"maxInvestment","type":"uint256"},{"internalType":"uint256","name":"startDate","type":"uint256"},{"internalType":"uint256","name":"endDate","type":"uint256"},{"internalType":"uint256","name":"maturityDate","type":"uint256"},{"internalType":"bool","name":"autoTransfer","type":"bool"},{"internalType":"bool","name":"apyEnabled","type":"bool"},{"internalType":"uint256","name":"fundraisingCap","type":"uint256"},{"internalType":"uint256","name":"tokenPrice","type":"uint256"},{"internalType":"address","name":"tokenOwner","type":"address"},{"internalType":"address","name":"_escrowAddress","type":"address"},{"internalType":"address","name":"investmentManager","type":"address"},{"internalType":"address[]","name":"paymentTokens","type":"address[]"},{"internalType":"address[]","name":"oracles","type":"address[]"}],"name":"createOfferingWithPaymentTokens","outputs":[{"internalType":"address","name":"offeringAddress","type":"address"}],"stateMutability":"nonpayable","type":"function"},{"inputs":[],"name":"getAllOfferings","outputs":[{"internalType":"address[]","name":"","type":"address[]"}],"stateMutability":"view","type":"function"},{"inputs":[{"internalType":"uint256","name":"offeringId","type":"uint256"}],"name":"getOfferingAddress","outputs":[{"internalType":"address","name":"","type":"address"}],"stateMutability":"view","type":"function"},{"inputs":[{"internalType":"address","name":"tokenOwner","type":"address"}],"name":"getOfferingIdsByTokenOwner","outputs":[{"internalType":"uint256[]","name":"","type":"uint256[]"}],"stateMutability":"view","type":"function"},{"inputs":[{"internalType":"address","name":"offeringAddress","type":"address"}],"name":"getOfferingOwner","outputs":[{"internalType":"address","name":"","type":"address"}],"stateMutability":"view","type":"function"},{"inputs":[],"name":"getUSDTConfig","outputs":[{"internalType":"address","name":"usdtToken","type":"address"},{"internalType":"address","name":"usdtOracle","type":"address"}],"stateMutability":"view","type":"function"},{"inputs":[],"name":"offeringCount","outputs":[{"internalType":"uint256","name":"","type":"uint256"}],"stateMutability":"view","type":"function"},{"inputs":[{"internalType":"address","name":"","type":"address"}],"name":"offeringOwners","outputs":[{"internalType":"address","name":"","type":"address"}],"stateMutability":"view","type":"function"},{"inputs":[{"internalType":"uint256","name":"","type":"uint256"}],"name":"offerings","outputs":[{"internalType":"address","name":"","type":"address"}],"stateMutability":"view","type":"function"},{"inputs":[{"internalType":"address","name":"","type":"address"},{"internalType":"uint256","name":"","type":"uint256"}],"name":"offeringsByTokenOwner","outputs":[{"internalType":"uint256","name":"","type":"uint256"}],"stateMutability":"view","type":"function"},{"inputs":[],"name":"owner","outputs":[{"internalType":"address","name":"","type":"address"}],"stateMutability":"view","type":"function"},{"inputs":[],"name":"renounceOwnership","outputs":[],"stateMutability":"nonpayable","type":"function"},{"inputs":[{"internalType":"address","name":"_usdtAddress","type":"address"},{"internalType":"address","name":"_usdtOracleAddress","type":"address"}],"name":"setUSDTConfig","outputs":[],"stateMutability":"nonpayable","type":"function"},{"inputs":[{"internalType":"address","name":"newOwner","type":"address"}],"name":"transferOwnership","outputs":[],"stateMutability":"nonpayable","type":"function"},{"inputs":[],"name":"usdtAddress","outputs":[{"internalType":"address","name":"","type":"address"}],"stateMutability":"view","type":"function"},{"inputs":[],"name":"usdtOracleAddress","outputs":[{"internalType":"address","name":"","type":"address"}],"stateMutability":"view","type":"function"}],"evm":{"bytecode":{"linkReferences":{},"object":"6080806040523461007a5733156100645760008054336001600160a01b03198216811783556040519290916001600160a01b0316907f8be0079c531659141344cd1fd0a4f28419497f9722a3daafe3b4186f6b6457e09080a3614d7a90816100808239f35b631e4fbdf760e01b815260006004820152602490fd5b600080fdfe60a08060405260043610156200001457600080fd5b600090813560e01c9081632187bbeb1462000ea157508063222bfe521462000e445780632325d8e41462000d8c5780633db4b91a1462000b4b57806340368db51462000a3b578063577da05814620009ff5780635787862114620009d45780637105496214620009b4578063715018a6146200096757806379bf49b814620009275780638da5cb5b14620008fe5780639ab4a44514620008d35780639c379dec146200029a578063ca18988a146200016e578063dc2a95bc14620001a3578063e34fec1d146200016e5763f2fde38b14620000ee57600080fd5b346200016b5760203660031901126200016b576200010b62000ede565b6200011562000fd9565b6001600160a01b0390811690811562000152576000548260018060a01b03198216176000551660008051602062004d25833981519152600080a380f35b604051631e4fbdf760e01b815260048101849052602490fd5b80fd5b50346200016b5760203660031901126200016b57602090600435815260028252604060018060a01b0391205416604051908152f35b50346200016b57806003193601126200016b576001805490620001c68262001202565b92620001d66040519485620010da565b828452620001e48362001202565b9360209384820195601f1901368737825b818110620002405750506040519380850191818652518092526040850195925b828110620002235785870386f35b83516001600160a01b031687529581019592810192840162000215565b8084969394979597526002835260018060a01b0360408720541684518210156200028657906200027991848260051b87010152620011b6565b95939594929194620001f5565b634e487b7160e01b87526032600452602487fd5b50346200016b576101e03660031901126200016b57620002b962000ede565b620002c362000f6c565b90620002ce62000f7c565b91620002d962000ef5565b91620002e462000f0d565b620002ee62000f25565b6001600160401b0395906101a435878111620008cf576200031490369060040162000fa6565b9290956101c435898111620008cb576200033390369060040162000fa6565b9690956200034062000fd9565b8786036200088e5785156200084c57620003656001600160a01b038216151562001006565b8b946040518c612ab9808301918383109083111762000837578f989796959493929182916200121b8339039088f09c8d156200082c5785620007a3575b506001600160a01b038d163b156200079f578b958795620003f79360405198899788976328eaf5bd60e01b89526101243591610104359160a4359060843590606435908d6044359160046024359201620010fe565b0381836001600160a01b038d165af180156200061d5762000787575b505b818110620004cc57600180548952600260209081526040808b2080546001600160a01b03199081166001600160a01b03808e169182179093558d5260038452828d208054909116331790558916808c5260048352908b20925491928a92620004b792916200048491906200117e565b600154604051918252906001600160a01b038416903390839060008051602062004d05833981519152908890a4620011b6565b6001556040516001600160a01b039091168152f35b6001600160a01b03620004eb620004e5838589620011dc565b620011ed565b16156200068d576001600160a01b036200050b620004e5838787620011dc565b161562000648578762000524620004e5838589620011dc565b62000535620004e5848888620011dc565b906001600160a01b038a163b156200064457604051631d9119f360e21b8152918391839182916200056b91906004840162000f8c565b0381836001600160a01b038e165af180156200061d576200062c575b50505b876200059c620004e5838589620011dc565b6001600160a01b0389163b1562000628576040516304c26cc960e21b81526001600160a01b039182166004820152600160248201529082908290604490829084908e165af180156200061d5762000601575b5050620005fb90620011b6565b62000415565b6200060c90620010b0565b62000619578738620005ee565b8780fd5b6040513d84823e3d90fd5b5080fd5b6200063790620010b0565b6200061957873862000587565b8280fd5b60405162461bcd60e51b815260206004820152601e60248201527f496e76616c6964206f7261636c6520666f7220455243323020746f6b656e00006044820152606490fd5b6001600160a01b03620006a6620004e5838787620011dc565b1615620007425787620006bf620004e5838589620011dc565b620006d0620004e5848888620011dc565b906001600160a01b038a163b156200064457604051631d9119f360e21b8152918391839182916200070691906004840162000f8c565b0381836001600160a01b038e165af180156200061d576200072a575b50506200058a565b6200073590620010b0565b6200061957873862000722565b60405162461bcd60e51b815260206004820152601d60248201527f496e76616c6964206f7261636c6520666f72206e6174697665204554480000006044820152606490fd5b6200079290620010b0565b6200079f57863862000413565b8680fd5b919293949550955060405190816110318101109061103183011117620008185790818d9695949392620007f18e61103162003cd484396001600160a01b031660a4358661103185016200104c565b039087f080156200080d576001600160a01b03169438620003a2565b6040513d88823e3d90fd5b634e487b7160e01b8d52604160045260248dfd5b6040513d89823e3d90fd5b50634e487b7160e01b8f52604160045260248ffd5b60405162461bcd60e51b815260206004820152601a602482015279139bc81c185e5b595b9d081d1bdad95b9cc81c1c9bdd9a59195960321b6044820152606490fd5b60405162461bcd60e51b8152602060048201526015602482015274082e4e4c2f240d8cadccee8d040dad2e6dac2e8c6d605b1b6044820152606490fd5b8a80fd5b8880fd5b50346200016b57806003193601126200016b576005546040516001600160a01b039091168152602090f35b50346200016b57806003193601126200016b57546040516001600160a01b039091168152602090f35b50346200016b5760203660031901126200016b576020906001600160a01b0390604090826200095562000ede565b16815260038452205416604051908152f35b50346200016b57806003193601126200016b576200098462000fd9565b600080546001600160a01b0319811682556001600160a01b031660008051602062004d258339815191528280a380f35b50346200016b57806003193601126200016b576020600154604051908152f35b50346200016b57806003193601126200016b576006546040516001600160a01b039091168152602090f35b50346200016b57806003193601126200016b5760055460065460405191829162000a37916001600160a01b0391821691168362000f8c565b0390f35b50346200016b5760403660031901126200016b5762000a5962000ede565b6001600160a01b03602435818116929083900362000b465762000a7b62000fd9565b16801562000b0a57811562000acc578160018060a01b03198281600554161760055560065416176006557f9708fedb34d7f4b974e53ac2d03b32eb2c50270b84ec301a97aa7e7d9e25810e8380a380f35b60405162461bcd60e51b8152602060048201526016602482015275496e76616c6964206f7261636c65206164647265737360501b6044820152606490fd5b60405162461bcd60e51b8152602060048201526014602482015273496e76616c69642055534454206164647265737360601b6044820152606490fd5b600080fd5b50346200016b576101a03660031901126200016b5762000b6a62000ede565b9060a43562000b7862000f6c565b9262000b8362000f7c565b9162000b8e62000ef5565b9062000b9962000f0d565b9262000ba462000f25565b9662000baf62000fd9565b6001600160a01b039462000bc7818716151562001006565b6040516001600160401b0399908990612ab9808201908d82118383101762000818579082916200121b833903908bf0801562000d81578962000d1c575b8a9b509780999a96979816998a3b156200079f5762000c549389604051998a9889986328eaf5bd60e01b8a526101243592610104359260843590606435908d6044359160046024359201620010fe565b038183885af1801562000d11579162000ce893916020969362000cf3575b5060018054845260028752604080852080546001600160a01b031990811689179091558786526003895281862080549091163317905591909216808452600487529220905462000cc2916200117e565b82600154916040519081528260008051602062004d05833981519152873393a4620011b6565b600155604051908152f35b916040919362000d0762000cc294620010b0565b9391509162000c72565b6040513d87823e3d90fd5b9050604051611031808201809d83821091111762000d6d5762000d538c9d89898d9e9f9b9c9d869562003cd487398716926200104c565b039087f080156200080d5795999897969588169062000c04565b634e487b7160e01b8c52604160045260248cfd5b6040513d8c823e3d90fd5b50346200016b5760208060031936011262000628576001600160a01b0362000db362000ede565b168252600481526040822060405192838383549182815201908193835284832090835b81811062000e2f575050508462000def910385620010da565b60405193838594850191818652518092526040850193925b82811062000e1757505050500390f35b83518552869550938101939281019260010162000e07565b82548452928601926001928301920162000dd6565b50346200016b5760403660031901126200016b5762000e6262000ede565b6001600160a01b03168152600460205260408120805460243592908310156200016b57602062000e93848462000f3d565b90546040519160031b1c8152f35b9050346200062857602036600319011262000628576020916001600160a01b03906040908262000ed062000ede565b168152600385522054168152f35b600435906001600160a01b038216820362000b4657565b61014435906001600160a01b038216820362000b4657565b61016435906001600160a01b038216820362000b4657565b61018435906001600160a01b038216820362000b4657565b805482101562000f565760005260206000200190600090565b634e487b7160e01b600052603260045260246000fd5b60c43590811515820362000b4657565b60e43590811515820362000b4657565b6001600160a01b0391821681529116602082015260400190565b9181601f8401121562000b46578235916001600160401b03831162000b46576020808501948460051b01011162000b4657565b6000546001600160a01b0316330362000fee57565b60405163118cdaa760e01b8152336004820152602490fd5b156200100e57565b60405162461bcd60e51b8152602060048201526016602482015275496e76616c696420657363726f77206164647265737360501b6044820152606490fd5b60a0808252600d908201526c2bb930b83832b2102a37b5b2b760991b60c082015260e0602082018190526003908201526215d49560ea1b6101008201526001600160a01b039182166040820152606081019290925290911660808201526101200190565b6001600160401b038111620010c457604052565b634e487b7160e01b600052604160045260246000fd5b601f909101601f19168101906001600160401b03821190821017620010c457604052565b9c989299939e9d9a958d9c98929791956080526101c08d019f600160a01b600190039d8e9c8d9a8b809a16835260208301526040820152606001528d608051608082015260a00152151560c08d015260e08c01526101008b0152166101208901521661014087015215156101608601521661018084015216906101a00152565b8054600160401b811015620010c4576200119e9160018201815562000f3d565b819291549060031b91821b91600019901b1916179055565b6000198114620011c65760010190565b634e487b7160e01b600052601160045260246000fd5b919081101562000f565760051b0190565b356001600160a01b038116810362000b465790565b6001600160401b038111620010c45760051b6020019056fe6080806040523461001b576001600255612a9890816100218239f35b600080fdfe6080806040526004361015610094575b5036156100535760405162461bcd60e51b815260206004820152601560248201527411985b1b189858dac81b9bdd081858d8d95c1d1959605a1b6044820152606490fd5b60405162461bcd60e51b8152602060048201526019602482015278111a5c9958dd081315535250481b9bdd081858d8d95c1d1959603a1b6044820152606490fd5b600090813560e01c9081622e13161461241e5750806301ffc9a7146123c75780630b97bc86146123a95780630d342cab146123865780630d5defa41461235d5780631309b324146122de5780631e1a268b146122bb578063248a9ca31461228f57806328eaf5bd14611ea45780632f2ff15d14611e6757806336568abe14611e1f5780633784f00014611d145780633e64620814611ce75780633f4ba83a14611c705780634b31bb1014611c475780634fff540214611c215780635c975abb14611bfe57806361d027b314611bd5578063653ac4221461110c5780636a61e5fc146110b3578063764467cc14610ffe57806377d392f014610dc65780637ff9b59614610da85780638456cb5914610d4257806388e32fc214610c8f5780638a18511314610c665780638ac2c68014610c4857806390838e0914610c0f57806391d1485414610bc4578063a217fddf14610ba8578063a6527f3914610b6a578063b13ef13814610b2c578063b37fd19014610802578063b9662797146107e4578063bbcc0a06146107c6578063bd4924321461078a578063c031a66f14610751578063c24a0f8b14610733578063c5c4744c14610715578063d547741f146106d4578063d59624b4146106b6578063df695abb14610677578063df8de3e7146102eb578063e985e367146102c25763fb903b1d0361000f57346102bf5760403660031901126102bf576024356004356102aa6124ac565b6102b682821115612731565b60045560055580f35b80fd5b50346102bf57806003193601126102bf576003546040516001600160a01b039091168152602090f35b50346102bf57602090816003193601126102bf5761030761243a565b61030f6128bd565b610317612774565b600e546001600160a01b0392908316330361061d5760085442106105e157828216918282526013855260408220549384156105a7576024868260035416604051928380926370a0823160e01b82523060048301525afa80156104c15786908590610571575b61038892501015612821565b838352601386528260408120556103a185600c5461291a565b600c55858560ff600d5460081c166000146104cc57906103e69183600354168487600d546040519687958694859363095ea7b360e01b855260101c16600484016128a2565b03925af180156104c157610494575b50600d5460101c1690813b15610490578461042992849283604051809681958294630e306c4360e11b8452600484016128a2565b03925af1801561048557610471575b50505b7fd8138f8a3f377c5259ca548e70e4c2de94f129f5a11036a15b69513cba2b426a83604051848152a26001600255604051908152f35b61047b82916127d5565b6102bf5780610438565b6040513d84823e3d90fd5b8280fd5b6104b390873d89116104ba575b6104ab81836127fe565b810190612868565b50386103f5565b503d6104a1565b6040513d86823e3d90fd5b9091926104f59360035416908560405180968195829463a9059cbb60e01b8452600484016128a2565b03925af19182156105655791610548575b5061043b5760405162461bcd60e51b8152600481018490526015602482015274151bdad95b881d1c985b9cd9995c8819985a5b1959605a1b6044820152606490fd5b61055f9150843d86116104ba576104ab81836127fe565b38610506565b604051903d90823e3d90fd5b50508681813d83116105a0575b61058881836127fe565b8101031261059b5785610388915161037c565b600080fd5b503d61057e565b60405162461bcd60e51b81526004810187905260126024820152714e6f20746f6b656e7320746f20636c61696d60701b6044820152606490fd5b60405162461bcd60e51b815260048101859052601460248201527313585d1d5c9a5d1e481b9bdd081c995858da195960621b6044820152606490fd5b60405162461bcd60e51b815260206004820152602c60248201527f43616c6c6572206973206e6f742074686520696e766573746d656e744d616e6160448201526b19d95c8818dbdb9d1c9858dd60a21b6064820152608490fd5b50346102bf5760203660031901126102bf5760209060ff906040906001600160a01b036106a261243a565b168152601284522054166040519015158152f35b50346102bf57806003193601126102bf576020600854604051908152f35b50346102bf5760403660031901126102bf576107116004356106f4612450565b908084528360205261070c60016040862001546124e4565b6126ce565b5080f35b50346102bf57806003193601126102bf576020600b54604051908152f35b50346102bf57806003193601126102bf576020600754604051908152f35b50346102bf5760203660031901126102bf576020906040906001600160a01b0361077961243a565b168152601383522054604051908152f35b50346102bf5760203660031901126102bf576020906001600160a01b0390604090826107b461243a565b16815260158452205416604051908152f35b50346102bf57806003193601126102bf576020600c54604051908152f35b50346102bf57806003193601126102bf576020600a54604051908152f35b50346102bf5760603660031901126102bf5761081c61243a565b6001600160a01b03604480358281169360248035939092909186820361059b57610844612466565b61084c6128bd565b8615610af55785169485610951575083471061091b578680808681945af13d15610916573d6001600160401b0381116109035760405190610897601f8201601f1916602001836127fe565b81528760203d92013e5b156108ca57505060206000805160206129e3833981519152915b604051908152a3600160025580f35b90721315535250481c995cd8dd594819985a5b1959606a1b60649260136040519362461bcd60e51b855260206004860152840152820152fd5b634e487b7160e01b885260416004528388fd5b6108a1565b60405162461bcd60e51b8152602060048201526010818501526f4e6f7420656e6f756768204c554d494160801b81840152606490fd5b600393919354168514610ab9576040516370a0823160e01b815230600482015260209390848184818a5afa8015610aae5786918a91610a7d575b5010610a465783856109b292604051938492839263a9059cbb60e01b8452600484016128a2565b03818b8a5af1908115610a3b578891610a1e575b50156109e65750505060206000805160206129e3833981519152916108bb565b60649291601372115490cc8c081c995cd8dd594819985a5b1959606a1b926040519462461bcd60e51b86526004860152840152820152fd5b610a359150843d86116104ba576104ab81836127fe565b386109c6565b6040513d8a823e3d90fd5b60405162461bcd60e51b815260048101859052601181840152704e6f7420656e6f75676820746f6b656e7360781b81850152606490fd5b809250868092503d8311610aa7575b610a9681836127fe565b8101031261059b578590513861098b565b503d610a8c565b6040513d8b823e3d90fd5b7621b0b73737ba103932b9b1bab29039b0b632aa37b5b2b760491b60649260176040519362461bcd60e51b855260206004860152840152820152fd5b60405162461bcd60e51b81526020600482015260118186015270125b9d985b1a59081c9958da5c1a595b9d607a1b81850152606490fd5b50346102bf5760203660031901126102bf57610711610b4961243a565b610b51612466565b610b656001600160a01b0382161515612927565b612576565b50346102bf5760203660031901126102bf57610711610b8761243a565b610b8f612466565b610ba36001600160a01b0382161515612927565b612659565b50346102bf57806003193601126102bf57602090604051908152f35b50346102bf5760403660031901126102bf576040610be0612450565b91600435815280602052209060018060a01b0316600052602052602060ff604060002054166040519015158152f35b50346102bf5760203660031901126102bf576020906040906001600160a01b03610c3761243a565b168152601483522054604051908152f35b50346102bf57806003193601126102bf576020600454604051908152f35b50346102bf57806003193601126102bf576020604051600080516020612a038339815191528152f35b50346102bf5760203660031901126102bf57610ca961243a565b610cb1612466565b6001600160a01b039081168083526015602052604083205490911615610d075780825260156020908152604080842080546001600160a01b0319169055518381526000805160206129c38339815191529190a280f35b60405162461bcd60e51b81526020600482015260136024820152724e6f206f7261636c6520746f2072656d6f766560681b6044820152606490fd5b50346102bf57806003193601126102bf57610d5b612466565b610d63612774565b600160ff198154161760015560206040513381527f62e78cea01bee320cd4e420270b5ea74000d11b0c9f74754ebdbfc544b05a258918291a16020604051338152a180f35b50346102bf57806003193601126102bf576020601154604051908152f35b50346102bf57602080600319360112610ffa57610de161243a565b90610dea6124ac565b610df26128bd565b600854421115610fc8576001600160a01b0382811692908315610f9157600354166040516370a0823160e01b81523060048201528381602481855afa8015610f86578690610f57575b610e499150600c549061291a565b918215610f1c5782610e749285928860405180968195829463a9059cbb60e01b8452600484016128a2565b03925af1908115610f11578591610ef4575b5015610ebe57907ffcbf6553b2cfc097c2301f1c071469a8839b462e7287e3692f238ccfc6b9208f91604051908152a2600160025580f35b60405162461bcd60e51b815260048101839052600e60248201526d149958db185a5b4819985a5b195960921b6044820152606490fd5b610f0b9150833d85116104ba576104ab81836127fe565b38610e86565b6040513d87823e3d90fd5b60405162461bcd60e51b81526004810185905260136024820152724e6f20756e636c61696d656420746f6b656e7360681b6044820152606490fd5b508381813d8311610f7f575b610f6d81836127fe565b8101031261059b57610e499051610e3b565b503d610f63565b6040513d88823e3d90fd5b60405162461bcd60e51b815260048101849052600f60248201526e496e76616c6964206164647265737360881b6044820152606490fd5b6064906040519062461bcd60e51b82526004820152600b60248201526a139bdd081b585d1d5c995960aa1b6044820152fd5b5080fd5b50346102bf5760403660031901126102bf5761101861243a565b611020612450565b611028612466565b6001600160a01b03908116918215611075571680835260156020908152604080852080546001600160a01b031916851790555192835290916000805160206129c38339815191529190a280f35b60405162461bcd60e51b8152602060048201526016602482015275496e76616c6964206f7261636c65206164647265737360501b6044820152606490fd5b50346102bf5760203660031901126102bf577f6b361c807733cc94a3b7bda39c1c94dcc0511e91aa47b0f7f918068e9397689060206004356110f36124ac565b6110fe8115156128de565b80601155604051908152a180f35b5060603660031901126102bf5761112161243a565b9061112a612450565b916111336128bd565b61113b612774565b600e546001600160a01b0316330361061d576001600160a01b03831615611b955760ff600d5416611b5f576006544210611b2757600754421015611af5576001600160a01b03811682526012602052604082205460ff1615611ab85760443515611a85576001600160a01b03818116835260156020526040832054168015611a4f57604080516315f789a960e21b815291829060049082905afa908115611a445783916119f6575b506111f28382601b0b136128de565b6001600160a01b0382166119835760125b81601b0b6044350291604435830490601b0b0361196f57670de0b6b3a7640000820291808304670de0b6b3a7640000149015171561196f5760ff16604d811161196f57670de0b6b3a76400009161125d91600a0a906127b5565b04916004548310611933576001600160a01b038416815260146020526040812054611289908490612792565b600554106118f557600b549261129f8185612792565b600a54106118c257670de0b6b3a76400008102818104670de0b6b3a764000014821517156118ae576011546112d3916127b5565b93841561187257816112e491612792565b600b556001600160a01b03851682526014602052604082208054909161130991612792565b905560ff600954166117f0575b6001600160a01b03821661167957604435340361163a576010546001600160a01b0316803b15610ffa5781602491604051928380926333bb7f9160e01b825230600483015234905af1801561048557908291611626575b50505b60095460ff16156115de57600d5460081c60ff161561152357600354600d5460405163095ea7b360e01b81529160209183916001600160a01b03908116918391879183916113ca918c9160109190911c16600484016128a2565b03925af1908115610485578291611504575b50156114ce57600d5460101c6001600160a01b0316803b15610ffa57816040518092630e306c4360e11b82528183816114198a8c600484016128a2565b03925af18015610485576114ba575b50506000805160206129a383398151915260606020945b604080516001600160a01b03958616815260443588820152908101869052931692a2600b54600a5481101561147d575b506001600255604051908152f35b827fcb67f20f64495b30f15524c55f90201dd6571d6b5c19dac183d2aeb25315b2dc91600160ff19600d541617600d55604051908152a13861146f565b6114c482916127d5565b6102bf5780611428565b60405162461bcd60e51b815260206004820152600e60248201526d105c1c1c9bdd994819985a5b195960921b6044820152606490fd5b61151d915060203d6020116104ba576104ab81836127fe565b386113dc565b60035460405163a9059cbb60e01b81529060209082906001600160a01b03168185816115538a8c600484016128a2565b03925af191821561056557916115bf575b5015611583576000805160206129a3833981519152606060209461143f565b60405162461bcd60e51b8152602060048201526014602482015273105d5d1bcb5d1c985b9cd9995c8819985a5b195960621b6044820152606490fd5b6115d8915060203d6020116104ba576104ab81836127fe565b38611564565b606060209460406000805160206129a38339815191529360018060a01b03831681526013885220611610868254612792565b905561161e85600c54612792565b600c5561143f565b61162f906127d5565b6102bf57803861136d565b60405162461bcd60e51b8152602060048201526017602482015276125b98dbdc9c9958dd081b985d1a5d9948185b5bdd5b9d604a1b6044820152606490fd5b346117a1576040516323b872dd60e01b8152602081806116a0604435308a60048501612880565b0381856001600160a01b0388165af1801561048557611782575b5060105460405163095ea7b360e01b815290602090829081906116ed90604435906001600160a01b0316600484016128a2565b0381856001600160a01b0388165af1801561048557611763575b506010546001600160a01b0316803b15610ffa57816040518092631f61f2f560e31b825281838161173f6044358a3060048501612880565b03925af1801561048557611754575b50611370565b61175d906127d5565b3861174e565b61177b9060203d6020116104ba576104ab81836127fe565b5038611707565b61179a9060203d6020116104ba576104ab81836127fe565b50386116ba565b60405162461bcd60e51b815260206004820152602160248201527f446f206e6f742073656e642045544820666f7220746f6b656e207061796d656e6044820152601d60fa1b6064820152608490fd5b6003546040516370a0823160e01b815230600482015290602090829060249082906001600160a01b03165afa8015610485578490839061183c575b61183792501015612821565b611316565b50506020813d60201161186a575b81611857602093836127fe565b81010312610ffa5783611837915161182b565b3d915061184a565b60405162461bcd60e51b8152602060048201526014602482015273546f6b656e20616d6f756e7420746f6f206c6f7760601b6044820152606490fd5b634e487b7160e01b83526011600452602483fd5b60405162461bcd60e51b815260206004820152600b60248201526a045786365656473206361760ac1b6044820152606490fd5b60405162461bcd60e51b8152602060048201526016602482015275115e18d959591cc81b585e081a5b9d995cdd1b595b9d60521b6044820152606490fd5b60405162461bcd60e51b815260206004820152601460248201527310995b1bddc81b5a5b881a5b9d995cdd1b595b9d60621b6044820152606490fd5b634e487b7160e01b84526011600452602484fd5b60405163313ce56760e01b81526020816004816001600160a01b0387165afa9081156104c15784916119b6575b50611203565b90506020813d6020116119ee575b816119d1602093836127fe565b810103126119ea575160ff811681036119ea57386119b0565b8380fd5b3d91506119c4565b90506040813d604011611a3c575b81611a11604093836127fe565b810103126104905780519081601b0b82036119ea576020015163ffffffff81160361049057386111e3565b3d9150611a04565b6040513d85823e3d90fd5b60405162461bcd60e51b815260206004820152600e60248201526d13dc9858db19481b9bdd081cd95d60921b6044820152606490fd5b60405162461bcd60e51b815260206004820152600b60248201526a16995c9bc8185b5bdd5b9d60aa1b6044820152606490fd5b60405162461bcd60e51b8152602060048201526015602482015274151bdad95b881b9bdd081dda1a5d195b1a5cdd1959605a1b6044820152606490fd5b60405162461bcd60e51b815260206004820152600a60248201526914d85b1948195b99195960b21b6044820152606490fd5b60405162461bcd60e51b815260206004820152601060248201526f14d85b19481b9bdd081cdd185c9d195960821b6044820152606490fd5b60405162461bcd60e51b815260206004820152600e60248201526d14d85b19481a5cc818db1bdcd95960921b6044820152606490fd5b60405162461bcd60e51b8152602060048201526018602482015277496e76616c696420696e766573746f72206164647265737360401b6044820152606490fd5b50346102bf57806003193601126102bf57600f546040516001600160a01b039091168152602090f35b50346102bf57806003193601126102bf57602060ff600154166040519015158152f35b50346102bf57806003193601126102bf57602060ff600d5460081c166040519015158152f35b50346102bf57806003193601126102bf57600e546040516001600160a01b039091168152602090f35b50346102bf57806003193601126102bf57611c89612466565b60015460ff811615611cd55760ff191660015560206040513381527f5db9ee0a495bf2e6ff9c91a7834c1ba4fdd244a5e8aa4e537bd38aeae4b073aa918291a16020604051338152a180f35b604051638dfc202b60e01b8152600490fd5b50346102bf57806003193601126102bf57600d5460405160109190911c6001600160a01b03168152602090f35b50346102bf5760203660031901126102bf57600435611d31612466565b42811115611de757600754811115611d9757600854811015611d535760075580f35b606460405162461bcd60e51b815260206004820152602060248201527f456e642064617465206d757374206265206265666f7265206d617475726974796044820152fd5b60405162461bcd60e51b815260206004820152602260248201527f4e657720656e642064617465206d7573742062652061667465722063757272656044820152611b9d60f21b6064820152608490fd5b60405162461bcd60e51b815260206004820152601060248201526f496e76616c696420656e64206461746560801b6044820152606490fd5b50346102bf5760403660031901126102bf57611e39612450565b336001600160a01b03821603611e5557610711906004356126ce565b60405163334bd91960e11b8152600490fd5b50346102bf5760403660031901126102bf57610711600435611e87612450565b9080845283602052611e9f60016040862001546124e4565b6125f2565b50346102bf576101c03660031901126102bf57611ebf61243a565b60c435908115158092036104905761012435906001600160a01b03908183169081840361228b5761014435838116809103612287576101643590811515809203612283576101843590858216820361227f576101a4359580871680970361227b57600e549460ff8660a01c16612240571694851561220657156121cb57801561218d57851561213d5760e43580156120f957610104359081156120b55760243599604435611f6f818d1115612731565b6064358042116120715760843591828210156120215761200a9d60018060a01b03199b8c600354161760035560045560055560065560075560a43560085560ff801960095416911617600955600a5560115584601054161760105561ff00600d549162010000600160b01b039060101b169260081b1690610100600160b01b0319161717600d551617600e556120043361250a565b50612576565b50600e805460ff60a01b1916600160a01b17905580f35b60405162461bcd60e51b815260206004820152602260248201527f53746172742064617465206d757374206265206265666f726520656e64206461604482015261746560f01b6064820152608490fd5b606460405162461bcd60e51b815260206004820152602060248201527f53746172742064617465206d75737420626520696e20746865206675747572656044820152fd5b60405162461bcd60e51b815260206004820152601c60248201527b546f6b656e207072696365206d75737420626520706f73697469766560201b6044820152606490fd5b606460405162461bcd60e51b815260206004820152602060248201527f46756e6472616973696e6720636170206d75737420626520706f7369746976656044820152fd5b60405162461bcd60e51b815260206004820152602260248201527f496e76616c696420696e766573746d656e74206d616e61676572206164647265604482015261737360f01b6064820152608490fd5b60405162461bcd60e51b8152602060048201526016602482015275496e76616c696420657363726f77206164647265737360501b6044820152606490fd5b60405162461bcd60e51b815260206004820152601360248201527224b73b30b634b2103a37b5b2b71037bbb732b960691b6044820152606490fd5b60405162461bcd60e51b815260206004820152601260248201527124b73b30b634b21039b0b632903a37b5b2b760711b6044820152606490fd5b60405162461bcd60e51b8152602060048201526013602482015272105b1c9958591e481a5b9a5d1a585b1a5e9959606a1b6044820152606490fd5b8980fd5b8880fd5b8780fd5b8680fd5b8580fd5b50346102bf5760203660031901126102bf57600160406020926004358152808452200154604051908152f35b50346102bf57806003193601126102bf57602060ff600d54166040519015158152f35b50346102bf5760403660031901126102bf576122f861243a565b602435908115158092036104905760207f91ad45a5ce97c5eee55fa01496772afefc7f0757ed9eac59064e642690509dfb91612332612466565b6001600160a01b0316808552601282526040808620805460ff191660ff87161790555193845292a280f35b50346102bf57806003193601126102bf576010546040516001600160a01b039091168152602090f35b50346102bf57806003193601126102bf57602060ff600954166040519015158152f35b50346102bf57806003193601126102bf576020600654604051908152f35b50346102bf5760203660031901126102bf5760043563ffffffff60e01b8116809103610ffa57602090637965db0b60e01b811490811561240d575b506040519015158152f35b6301ffc9a760e01b14905082612402565b905034610ffa5781600319360112610ffa576020906005548152f35b600435906001600160a01b038216820361059b57565b602435906001600160a01b038216820361059b57565b336000908152600080516020612a43833981519152602052604081205460ff161561248e5750565b6044906040519063e2517d3f60e01b82523360048301526024820152fd5b3360009081526000805160206129838339815191526020526040902054600080516020612a038339815191529060ff161561248e5750565b80600052600060205260406000203360005260205260ff604060002054161561248e5750565b6001600160a01b03166000818152600080516020612a43833981519152602052604081205490919060ff1661257257818052816020526040822081835260205260408220600160ff1982541617905533916000805160206129638339815191528180a4600190565b5090565b6001600160a01b031660008181526000805160206129838339815191526020526040812054909190600080516020612a038339815191529060ff166125ed57808352826020526040832082845260205260408320600160ff19825416179055600080516020612963833981519152339380a4600190565b505090565b9060009180835282602052604083209160018060a01b03169182845260205260ff604084205416156000146125ed57808352826020526040832082845260205260408320600160ff19825416179055600080516020612963833981519152339380a4600190565b6001600160a01b031660008181526000805160206129838339815191526020526040812054909190600080516020612a038339815191529060ff16156125ed5780835282602052604083208284526020526040832060ff198154169055600080516020612a23833981519152339380a4600190565b9060009180835282602052604083209160018060a01b03169182845260205260ff6040842054166000146125ed5780835282602052604083208284526020526040832060ff198154169055600080516020612a23833981519152339380a4600190565b1561273857565b60405162461bcd60e51b8152602060048201526014602482015273135a5b880f881b585e081a5b9d995cdd1b595b9d60621b6044820152606490fd5b60ff6001541661278057565b60405163d93c066560e01b8152600490fd5b9190820180921161279f57565b634e487b7160e01b600052601160045260246000fd5b81156127bf570490565b634e487b7160e01b600052601260045260246000fd5b6001600160401b0381116127e857604052565b634e487b7160e01b600052604160045260246000fd5b601f909101601f19168101906001600160401b038211908210176127e857604052565b1561282857565b60405162461bcd60e51b8152602060048201526018602482015277496e73756666696369656e742073616c6520746f6b656e7360401b6044820152606490fd5b9081602091031261059b5751801515810361059b5790565b6001600160a01b03918216815291166020820152604081019190915260600190565b6001600160a01b039091168152602081019190915260400190565b60028054146128cc5760028055565b604051633ee5aeb560e01b8152600490fd5b156128e557565b60405162461bcd60e51b815260206004820152600d60248201526c496e76616c696420707269636560981b6044820152606490fd5b9190820391821161279f57565b1561292e57565b60405162461bcd60e51b815260206004820152600c60248201526b5a65726f206164647265737360a01b6044820152606490fdfe2f8788117e7eff1d82e926ec794901d17c78024a50270940304540a733656f0d7dfc0114fc2b0320947240cbd60a9ffc193468a941c37441e641a928a8c116d593638e6cf18b4f6a839de65df95898221f5d9f7dc54b87d4b31d40297643266ec1d3048301c0d23629a2532c8defa6d68f8e1a0e4157918769e9fb1b2eeb888ed27dd37d941f5a1b76926e48140fdbf50a0c59defb5431a391a1260279eb1c4c35369b3a7bb98c90641a907c2fd643ea781341eba72ccffd47cb018c128c48c3f6391f5c32d9c69d2a47ea670b442974b53935d1edc7fd64eb21e047a839171bad3228b676f7d3cd4284a5443f17f1962b36e491b30a40b2405849e597ba5fb5a2646970667358221220c5c4cc3dde782719abfa2def5e512a91cc6016897799f5f594e446c0f8182efe64736f6c6343000814003360e060405234620003a55762001031803803806200001d81620003aa565b92833981019060a081830312620003a55780516001600160401b039290838111620003a5578162000050918401620003d0565b926020918284015190828211620003a5576200006e918501620003d0565b936200007d6040850162000442565b916200009160806060870151960162000442565b958251828111620002a5576003918254916001958684811c941680156200039a575b8985101462000384578190601f948581116200032e575b508990858311600114620002c757600092620002bb575b505060001982861b1c191690861b1783555b8051938411620002a55760049687548681811c911680156200029a575b8282101462000285578381116200023a575b5080928511600114620001cc5750938394918492600095620001c0575b50501b92600019911b1c19161782555b6001600160a01b0316908115620001b1575060805260a05260c052604051610bd9908162000458823960805181818161049c0152818161063301526109b7015260a05181818161016a0152610416015260c0518181816105da01526107d40152f35b604051632945604560e11b8152fd5b0151935038806200013f565b92919084601f1981168960005285600020956000905b898383106200021f575050501062000204575b50505050811b0182556200014f565b01519060f884600019921b161c1916905538808080620001f5565b858701518955909701969485019488935090810190620001e2565b88600052816000208480880160051c8201928489106200027b575b0160051c019087905b8281106200026e57505062000122565b600081550187906200025e565b9250819262000255565b602289634e487b7160e01b6000525260246000fd5b90607f169062000110565b634e487b7160e01b600052604160045260246000fd5b015190503880620000e1565b90889350601f19831691876000528b6000209260005b8d828210620003175750508411620002fe575b505050811b018355620000f3565b015160001983881b60f8161c19169055388080620002f0565b8385015186558c97909501949384019301620002dd565b90915085600052896000208580850160051c8201928c86106200037a575b918a91869594930160051c01915b8281106200036a575050620000ca565b600081558594508a91016200035a565b925081926200034c565b634e487b7160e01b600052602260045260246000fd5b93607f1693620000b3565b600080fd5b6040519190601f01601f191682016001600160401b03811183821017620002a557604052565b919080601f84011215620003a55782516001600160401b038111620002a55760209062000406601f8201601f19168301620003aa565b92818452828287010111620003a55760005b8181106200042e57508260009394955001015290565b858101830151848201840152820162000418565b51906001600160a01b0382168203620003a55756fe608060408181526004918236101561001657600080fd5b600092833560e01c918262e77aa6146109a35750816306fdde03146108cc578163095ea7b31461082257816318160ddd146108035781631a4f94f7146107bf5781631c60d886146105b157816323b872dd1461058c578163313ce5671461057057816342966c6814610552578163464f0b0d146104015781636f7bc9be146103ba57816370a082311461038357816379cc67901461029f57816395d89b41146101b9578163a9059cbb1461018d57508063d59624b414610153578063dd62ed3e1461010b5763f9168231146100ea57600080fd5b346101075781600319360112610107576020906005549051908152f35b5080fd5b503461010757806003193601126101075780602092610128610a2f565b610130610a4a565b6001600160a01b0391821683526001865283832091168252845220549051908152f35b5034610107578160031936011261010757602090517f00000000000000000000000000000000000000000000000000000000000000008152f35b8284346101b657816003193601126101b657506101a8610a2f565b5051631de81c7b60e01b8152fd5b80fd5b838334610107578160031936011261010757805191809380549160019083821c92828516948515610295575b60209586861081146102825785895290811561025e5750600114610223575b61021f8787610215828c0383610a60565b51918291826109e6565b0390f35b9080949750528583205b82841061024b575050508261021f9461021592820101948680610204565b805486850188015292860192810161022d565b60ff19168887015250505050151560051b83010192506102158261021f8680610204565b634e487b7160e01b845260228352602484fd5b93607f16936101e5565b839150346101075782600319360112610107576102ba610a2f565b6001600160a01b038116808452600160209081528585203386529052848420546024359390919060001983106102f9575b856102f68686610a99565b80f35b84831061036157811561034a573315610333575084959184916102f6965260016020528287203388526020520390852055839285806102eb565b8651634a1406b160e11b8152908101869052602490fd5b865163e602df0560e01b8152908101869052602490fd5b905061037f848751938493637dc7a0d960e11b855233908501610b2a565b0390fd5b5050346101075760203660031901126101075760209181906001600160a01b036103ab610a2f565b16815280845220549051908152f35b505034610107576020366003190112610107579081906001600160a01b036103e0610a2f565b16815260066020522060ff6001825492015416825191825215156020820152f35b9190503461054e578260031936011261054e577f000000000000000000000000000000000000000000000000000000000000000042106105415733835260066020528083206001810160ff81541661053257815415610523573385528460205261046e8386205433610a99565b805460ff1916600117905554815163a9059cbb60e01b815233848201526024810191909152602081604481877f00000000000000000000000000000000000000000000000000000000000000006001600160a01b03165af19081156105195784916104eb575b50156104de578280f35b5163022e258160e11b8152fd5b61050c915060203d8111610512575b6105048183610a60565b810190610b6b565b386104d4565b503d6104fa565b82513d86823e3d90fd5b505051633a6a68b160e01b8152fd5b505051630c8d9eab60e31b8152fd5b5163111c440960e01b8152fd5b8280fd5b839034610107576020366003190112610107576102f6903533610a99565b5050346101075781600319360112610107576020905160128152f35b8284346101b65760603660031901126101b657506105a8610a2f565b506101a8610a4a565b8383346101075780600319360112610107576105cb610a2f565b60243591906001600160a01b037f000000000000000000000000000000000000000000000000000000000000000081169133839003610770578415610760578351926323b872dd60e01b84528784015230602484015284604484015260209283816064818a877f0000000000000000000000000000000000000000000000000000000000000000165af1908115610756578791610739575b501561072957169182156107135761067d84600254610b48565b6002558285528482528085208481540190558285600080516020610b84833981519152848451888152a38051918282016001600160401b03811184821017610700579160066106fa96959492600194835286845280840195898752895252862090518155019051151560ff80198354169116179055600554610b48565b60055580f35b634e487b7160e01b875260418852602487fd5b5163ec442f0560e01b8152808601859052602490fd5b835163022e258160e11b81528790fd5b6107509150843d8611610512576105048183610a60565b88610663565b85513d89823e3d90fd5b835163162908e360e11b81528790fd5b835162461bcd60e51b8152602081890152602360248201527f43616c6c6572206973206e6f7420746865206f66666572696e6720636f6e74726044820152621858dd60ea1b6064820152608490fd5b505034610107578160031936011261010757517f00000000000000000000000000000000000000000000000000000000000000006001600160a01b03168152602090f35b5050346101075781600319360112610107576020906002549051908152f35b90503461054e578160031936011261054e5761083c610a2f565b6024359033156108b5576001600160a01b031691821561089e57508083602095338152600187528181208582528752205582519081527f8c5be1e5ebec7d5bd14f71427d1e84f3dd0314c0f7b2291e5b200ac8c7c3b925843392a35160018152f35b8351634a1406b160e11b8152908101859052602490fd5b835163e602df0560e01b8152808401869052602490fd5b9190503461054e578260031936011261054e57805191836003549060019082821c928281168015610999575b602095868610821461098657508488529081156109645750600114610929575b61021f8686610215828b0383610a60565b929550600383528583205b828410610951575050508261021f94610215928201019438610918565b8054868501880152928601928101610934565b60ff191687860152505050151560051b83010192506102158261021f38610918565b634e487b7160e01b845260229052602483fd5b93607f16936108f8565b8490346101075781600319360112610107577f00000000000000000000000000000000000000000000000000000000000000006001600160a01b03168152602090f35b6020808252825181830181905290939260005b828110610a1b57505060409293506000838284010152601f8019910116010190565b8181018601518482016040015285016109f9565b600435906001600160a01b0382168203610a4557565b600080fd5b602435906001600160a01b0382168203610a4557565b601f909101601f19168101906001600160401b03821190821017610a8357604052565b634e487b7160e01b600052604160045260246000fd5b906001600160a01b038216908115610b115760009282845283602052604084205490828210610af4575081600080516020610b84833981519152926020928587528684520360408620558060025403600255604051908152a3565b61037f8360405193849363391434e360e21b855260048501610b2a565b604051634b637e8f60e11b815260006004820152602490fd5b604091949392606082019560018060a01b0316825260208201520152565b91908201809211610b5557565b634e487b7160e01b600052601160045260246000fd5b90816020910312610a4557518015158103610a45579056feddf252ad1be2c89b69c2b068fc378daa952ba7f163c4a11628f55a4df523b3efa264697066735822122072aff8ac0870e1ad92423de4f8b5732447afe3f3a5ddb531c39cb8bff70db26764736f6c634300081400334dd34c1e85386b354efed754df3c56823235e0653e32231c2448e8d3278145d08be0079c531659141344cd1fd0a4f28419497f9722a3daafe3b4186f6b6457e0a2646970667358221220c90a7083542e24aebda12a50ded2c8a0025137dff74349e23d4b6f04ae9fcf7064736f6c63430008140033","opcodes":"PUSH1 0x80 DUP1 PUSH1 0x40 MSTORE CALLVALUE PUSH2 0x7A JUMPI CALLER ISZERO PUSH2 0x64 JUMPI PUSH1 0x0 DUP1 SLOAD CALLER PUSH1 0x1 PUSH1 0x1 PUSH1 0xA0 SHL SUB NOT DUP3 AND DUP2 OR DUP4 SSTORE PUSH1 0x40 MLOAD SWAP3 SWAP1 SWAP2 PUSH1 0x1 PUSH1 0x1 PUSH1 0xA0 SHL SUB AND SWAP1 PUSH32 0x8BE0079C531659141344CD1FD0A4F28419497F9722A3DAAFE3B4186F6B6457E0 SWAP1 DUP1 LOG3 PUSH2 0x4D7A SWAP1 DUP2 PUSH2 0x80 DUP3 CODECOPY RETURN JUMPDEST PUSH4 0x1E4FBDF7 PUSH1 0xE0 SHL DUP2 MSTORE PUSH1 0x0 PUSH1 0x4 DUP3 ADD MSTORE PUSH1 0x24 SWAP1 REVERT JUMPDEST PUSH1 0x0 DUP1 REVERT INVALID PUSH1 0xA0 DUP1 PUSH1 0x40 MSTORE PUSH1 0x4 CALLDATASIZE LT ISZERO PUSH3 0x14 JUMPI PUSH1 0x0 DUP1 REVERT JUMPDEST PUSH1 0x0 SWAP1 DUP2 CALLDATALOAD PUSH1 0xE0 SHR SWAP1 DUP2 PUSH4 0x2187BBEB EQ PUSH3 0xEA1 JUMPI POP DUP1 PUSH4 0x222BFE52 EQ PUSH3 0xE44 JUMPI DUP1 PUSH4 0x2325D8E4 EQ PUSH3 0xD8C JUMPI DUP1 PUSH4 0x3DB4B91A EQ PUSH3 0xB4B JUMPI DUP1 PUSH4 0x40368DB5 EQ PUSH3 0xA3B JUMPI DUP1 PUSH4 0x577DA058 EQ PUSH3 0x9FF JUMPI DUP1 PUSH4 0x57878621 EQ PUSH3 0x9D4 JUMPI DUP1 PUSH4 0x71054962 EQ PUSH3 0x9B4 JUMPI DUP1 PUSH4 0x715018A6 EQ PUSH3 0x967 JUMPI DUP1 PUSH4 0x79BF49B8 EQ PUSH3 0x927 JUMPI DUP1 PUSH4 0x8DA5CB5B EQ PUSH3 0x8FE JUMPI DUP1 PUSH4 0x9AB4A445 EQ PUSH3 0x8D3 JUMPI DUP1 PUSH4 0x9C379DEC EQ PUSH3 0x29A JUMPI DUP1 PUSH4 0xCA18988A EQ PUSH3 0x16E JUMPI DUP1 PUSH4 0xDC2A95BC EQ PUSH3 0x1A3 JUMPI DUP1 PUSH4 0xE34FEC1D EQ PUSH3 0x16E JUMPI PUSH4 0xF2FDE38B EQ PUSH3 0xEE JUMPI PUSH1 0x0 DUP1 REVERT JUMPDEST CALLVALUE PUSH3 0x16B JUMPI PUSH1 0x20 CALLDATASIZE PUSH1 0x3 NOT ADD SLT PUSH3 0x16B JUMPI PUSH3 0x10B PUSH3 0xEDE JUMP JUMPDEST PUSH3 0x115 PUSH3 0xFD9 JUMP JUMPDEST PUSH1 0x1 PUSH1 0x1 PUSH1 0xA0 SHL SUB SWAP1 DUP2 AND SWAP1 DUP2 ISZERO PUSH3 0x152 JUMPI PUSH1 0x0 SLOAD DUP3 PUSH1 0x1 DUP1 PUSH1 0xA0 SHL SUB NOT DUP3 AND OR PUSH1 0x0 SSTORE AND PUSH1 0x0 DUP1 MLOAD PUSH1 0x20 PUSH3 0x4D25 DUP4 CODECOPY DUP2 MLOAD SWAP2 MSTORE PUSH1 0x0 DUP1 LOG3 DUP1 RETURN JUMPDEST PUSH1 0x40 MLOAD PUSH4 0x1E4FBDF7 PUSH1 0xE0 SHL DUP2 MSTORE PUSH1 0x4 DUP2 ADD DUP5 SWAP1 MSTORE PUSH1 0x24 SWAP1 REVERT JUMPDEST DUP1 REVERT JUMPDEST POP CALLVALUE PUSH3 0x16B JUMPI PUSH1 0x20 CALLDATASIZE PUSH1 0x3 NOT ADD SLT PUSH3 0x16B JUMPI PUSH1 0x20 SWAP1 PUSH1 0x4 CALLDATALOAD DUP2 MSTORE PUSH1 0x2 DUP3 MSTORE PUSH1 0x40 PUSH1 0x1 DUP1 PUSH1 0xA0 SHL SUB SWAP2 KECCAK256 SLOAD AND PUSH1 0x40 MLOAD SWAP1 DUP2 MSTORE RETURN JUMPDEST POP CALLVALUE PUSH3 0x16B JUMPI DUP1 PUSH1 0x3 NOT CALLDATASIZE ADD SLT PUSH3 0x16B JUMPI PUSH1 0x1 DUP1 SLOAD SWAP1 PUSH3 0x1C6 DUP3 PUSH3 0x1202 JUMP JUMPDEST SWAP3 PUSH3 0x1D6 PUSH1 0x40 MLOAD SWAP5 DUP6 PUSH3 0x10DA JUMP JUMPDEST DUP3 DUP5 MSTORE PUSH3 0x1E4 DUP4 PUSH3 0x1202 JUMP JUMPDEST SWAP4 PUSH1 0x20 SWAP4 DUP5 DUP3 ADD SWAP6 PUSH1 0x1F NOT ADD CALLDATASIZE DUP8 CALLDATACOPY DUP3 JUMPDEST DUP2 DUP2 LT PUSH3 0x240 JUMPI POP POP PUSH1 0x40 MLOAD SWAP4 DUP1 DUP6 ADD SWAP2 DUP2 DUP7 MSTORE MLOAD DUP1 SWAP3 MSTORE PUSH1 0x40 DUP6 ADD SWAP6 SWAP3 JUMPDEST DUP3 DUP2 LT PUSH3 0x223 JUMPI DUP6 DUP8 SUB DUP7 RETURN JUMPDEST DUP4 MLOAD PUSH1 0x1 PUSH1 0x1 PUSH1 0xA0 SHL SUB AND DUP8 MSTORE SWAP6 DUP2 ADD SWAP6 SWAP3 DUP2 ADD SWAP3 DUP5 ADD PUSH3 0x215 JUMP JUMPDEST DUP1 DUP5 SWAP7 SWAP4 SWAP5 SWAP8 SWAP6 SWAP8 MSTORE PUSH1 0x2 DUP4 MSTORE PUSH1 0x1 DUP1 PUSH1 0xA0 SHL SUB PUSH1 0x40 DUP8 KECCAK256 SLOAD AND DUP5 MLOAD DUP3 LT ISZERO PUSH3 0x286 JUMPI SWAP1 PUSH3 0x279 SWAP2 DUP5 DUP3 PUSH1 0x5 SHL DUP8 ADD ADD MSTORE PUSH3 0x11B6 JUMP JUMPDEST SWAP6 SWAP4 SWAP6 SWAP5 SWAP3 SWAP2 SWAP5 PUSH3 0x1F5 JUMP JUMPDEST PUSH4 0x4E487B71 PUSH1 0xE0 SHL DUP8 MSTORE PUSH1 0x32 PUSH1 0x4 MSTORE PUSH1 0x24 DUP8 REVERT JUMPDEST POP CALLVALUE PUSH3 0x16B JUMPI PUSH2 0x1E0 CALLDATASIZE PUSH1 0x3 NOT ADD SLT PUSH3 0x16B JUMPI PUSH3 0x2B9 PUSH3 0xEDE JUMP JUMPDEST PUSH3 0x2C3 PUSH3 0xF6C JUMP JUMPDEST SWAP1 PUSH3 0x2CE PUSH3 0xF7C JUMP JUMPDEST SWAP2 PUSH3 0x2D9 PUSH3 0xEF5 JUMP JUMPDEST SWAP2 PUSH3 0x2E4 PUSH3 0xF0D JUMP JUMPDEST PUSH3 0x2EE PUSH3 0xF25 JUMP JUMPDEST PUSH1 0x1 PUSH1 0x1 PUSH1 0x40 SHL SUB SWAP6 SWAP1 PUSH2 0x1A4 CALLDATALOAD DUP8 DUP2 GT PUSH3 0x8CF JUMPI PUSH3 0x314 SWAP1 CALLDATASIZE SWAP1 PUSH1 0x4 ADD PUSH3 0xFA6 JUMP JUMPDEST SWAP3 SWAP1 SWAP6 PUSH2 0x1C4 CALLDATALOAD DUP10 DUP2 GT PUSH3 0x8CB JUMPI PUSH3 0x333 SWAP1 CALLDATASIZE SWAP1 PUSH1 0x4 ADD PUSH3 0xFA6 JUMP JUMPDEST SWAP7 SWAP1 SWAP6 PUSH3 0x340 PUSH3 0xFD9 JUMP JUMPDEST DUP8 DUP7 SUB PUSH3 0x88E JUMPI DUP6 ISZERO PUSH3 0x84C JUMPI PUSH3 0x365 PUSH1 0x1 PUSH1 0x1 PUSH1 0xA0 SHL SUB DUP3 AND ISZERO ISZERO PUSH3 0x1006 JUMP JUMPDEST DUP12 SWAP5 PUSH1 0x40 MLOAD DUP13 PUSH2 0x2AB9 DUP1 DUP4 ADD SWAP2 DUP4 DUP4 LT SWAP1 DUP4 GT OR PUSH3 0x837 JUMPI DUP16 SWAP9 SWAP8 SWAP7 SWAP6 SWAP5 SWAP4 SWAP3 SWAP2 DUP3 SWAP2 PUSH3 0x121B DUP4 CODECOPY SUB SWAP1 DUP9 CREATE SWAP13 DUP14 ISZERO PUSH3 0x82C JUMPI DUP6 PUSH3 0x7A3 JUMPI JUMPDEST POP PUSH1 0x1 PUSH1 0x1 PUSH1 0xA0 SHL SUB DUP14 AND EXTCODESIZE ISZERO PUSH3 0x79F JUMPI DUP12 SWAP6 DUP8 SWAP6 PUSH3 0x3F7 SWAP4 PUSH1 0x40 MLOAD SWAP9 DUP10 SWAP8 DUP9 SWAP8 PUSH4 0x28EAF5BD PUSH1 0xE0 SHL DUP10 MSTORE PUSH2 0x124 CALLDATALOAD SWAP2 PUSH2 0x104 CALLDATALOAD SWAP2 PUSH1 0xA4 CALLDATALOAD SWAP1 PUSH1 0x84 CALLDATALOAD SWAP1 PUSH1 0x64 CALLDATALOAD SWAP1 DUP14 PUSH1 0x44 CALLDATALOAD SWAP2 PUSH1 0x4 PUSH1 0x24 CALLDATALOAD SWAP3 ADD PUSH3 0x10FE JUMP JUMPDEST SUB DUP2 DUP4 PUSH1 0x1 PUSH1 0x1 PUSH1 0xA0 SHL SUB DUP14 AND GAS CALL DUP1 ISZERO PUSH3 0x61D JUMPI PUSH3 0x787 JUMPI JUMPDEST POP JUMPDEST DUP2 DUP2 LT PUSH3 0x4CC JUMPI PUSH1 0x1 DUP1 SLOAD DUP10 MSTORE PUSH1 0x2 PUSH1 0x20 SWAP1 DUP2 MSTORE PUSH1 0x40 DUP1 DUP12 KECCAK256 DUP1 SLOAD PUSH1 0x1 PUSH1 0x1 PUSH1 0xA0 SHL SUB NOT SWAP1 DUP2 AND PUSH1 0x1 PUSH1 0x1 PUSH1 0xA0 SHL SUB DUP1 DUP15 AND SWAP2 DUP3 OR SWAP1 SWAP4 SSTORE DUP14 MSTORE PUSH1 0x3 DUP5 MSTORE DUP3 DUP14 KECCAK256 DUP1 SLOAD SWAP1 SWAP2 AND CALLER OR SWAP1 SSTORE DUP10 AND DUP1 DUP13 MSTORE PUSH1 0x4 DUP4 MSTORE SWAP1 DUP12 KECCAK256 SWAP3 SLOAD SWAP2 SWAP3 DUP11 SWAP3 PUSH3 0x4B7 SWAP3 SWAP2 PUSH3 0x484 SWAP2 SWAP1 PUSH3 0x117E JUMP JUMPDEST PUSH1 0x1 SLOAD PUSH1 0x40 MLOAD SWAP2 DUP3 MSTORE SWAP1 PUSH1 0x1 PUSH1 0x1 PUSH1 0xA0 SHL SUB DUP5 AND SWAP1 CALLER SWAP1 DUP4 SWAP1 PUSH1 0x0 DUP1 MLOAD PUSH1 0x20 PUSH3 0x4D05 DUP4 CODECOPY DUP2 MLOAD SWAP2 MSTORE SWAP1 DUP9 SWAP1 LOG4 PUSH3 0x11B6 JUMP JUMPDEST PUSH1 0x1 SSTORE PUSH1 0x40 MLOAD PUSH1 0x1 PUSH1 0x1 PUSH1 0xA0 SHL SUB SWAP1 SWAP2 AND DUP2 MSTORE RETURN JUMPDEST PUSH1 0x1 PUSH1 0x1 PUSH1 0xA0 SHL SUB PUSH3 0x4EB PUSH3 0x4E5 DUP4 DUP6 DUP10 PUSH3 0x11DC JUMP JUMPDEST PUSH3 0x11ED JUMP JUMPDEST AND ISZERO PUSH3 0x68D JUMPI PUSH1 0x1 PUSH1 0x1 PUSH1 0xA0 SHL SUB PUSH3 0x50B PUSH3 0x4E5 DUP4 DUP8 DUP8 PUSH3 0x11DC JUMP JUMPDEST AND ISZERO PUSH3 0x648 JUMPI DUP8 PUSH3 0x524 PUSH3 0x4E5 DUP4 DUP6 DUP10 PUSH3 0x11DC JUMP JUMPDEST PUSH3 0x535 PUSH3 0x4E5 DUP5 DUP9 DUP9 PUSH3 0x11DC JUMP JUMPDEST SWAP1 PUSH1 0x1 PUSH1 0x1 PUSH1 0xA0 SHL SUB DUP11 AND EXTCODESIZE ISZERO PUSH3 0x644 JUMPI PUSH1 0x40 MLOAD PUSH4 0x1D9119F3 PUSH1 0xE2 SHL DUP2 MSTORE SWAP2 DUP4 SWAP2 DUP4 SWAP2 DUP3 SWAP2 PUSH3 0x56B SWAP2 SWAP1 PUSH1 0x4 DUP5 ADD PUSH3 0xF8C JUMP JUMPDEST SUB DUP2 DUP4 PUSH1 0x1 PUSH1 0x1 PUSH1 0xA0 SHL SUB DUP15 AND GAS CALL DUP1 ISZERO PUSH3 0x61D JUMPI PUSH3 0x62C JUMPI JUMPDEST POP POP JUMPDEST DUP8 PUSH3 0x59C PUSH3 0x4E5 DUP4 DUP6 DUP10 PUSH3 0x11DC JUMP JUMPDEST PUSH1 0x1 PUSH1 0x1 PUSH1 0xA0 SHL SUB DUP10 AND EXTCODESIZE ISZERO PUSH3 0x628 JUMPI PUSH1 0x40 MLOAD PUSH4 0x4C26CC9 PUSH1 0xE2 SHL DUP2 MSTORE PUSH1 0x1 PUSH1 0x1 PUSH1 0xA0 SHL SUB SWAP2 DUP3 AND PUSH1 0x4 DUP3 ADD MSTORE PUSH1 0x1 PUSH1 0x24 DUP3 ADD MSTORE SWAP1 DUP3 SWAP1 DUP3 SWAP1 PUSH1 0x44 SWAP1 DUP3 SWAP1 DUP5 SWAP1 DUP15 AND GAS CALL DUP1 ISZERO PUSH3 0x61D JUMPI PUSH3 0x601 JUMPI JUMPDEST POP POP PUSH3 0x5FB SWAP1 PUSH3 0x11B6 JUMP JUMPDEST PUSH3 0x415 JUMP JUMPDEST PUSH3 0x60C SWAP1 PUSH3 0x10B0 JUMP JUMPDEST PUSH3 0x619 JUMPI DUP8 CODESIZE PUSH3 0x5EE JUMP JUMPDEST DUP8 DUP1 REVERT JUMPDEST PUSH1 0x40 MLOAD RETURNDATASIZE DUP5 DUP3 RETURNDATACOPY RETURNDATASIZE SWAP1 REVERT JUMPDEST POP DUP1 REVERT JUMPDEST PUSH3 0x637 SWAP1 PUSH3 0x10B0 JUMP JUMPDEST PUSH3 0x619 JUMPI DUP8 CODESIZE PUSH3 0x587 JUMP JUMPDEST DUP3 DUP1 REVERT JUMPDEST PUSH1 0x40 MLOAD PUSH3 0x461BCD PUSH1 0xE5 SHL DUP2 MSTORE PUSH1 0x20 PUSH1 0x4 DUP3 ADD MSTORE PUSH1 0x1E PUSH1 0x24 DUP3 ADD MSTORE PUSH32 0x496E76616C6964206F7261636C6520666F7220455243323020746F6B656E0000 PUSH1 0x44 DUP3 ADD MSTORE PUSH1 0x64 SWAP1 REVERT JUMPDEST PUSH1 0x1 PUSH1 0x1 PUSH1 0xA0 SHL SUB PUSH3 0x6A6 PUSH3 0x4E5 DUP4 DUP8 DUP8 PUSH3 0x11DC JUMP JUMPDEST AND ISZERO PUSH3 0x742 JUMPI DUP8 PUSH3 0x6BF PUSH3 0x4E5 DUP4 DUP6 DUP10 PUSH3 0x11DC JUMP JUMPDEST PUSH3 0x6D0 PUSH3 0x4E5 DUP5 DUP9 DUP9 PUSH3 0x11DC JUMP JUMPDEST SWAP1 PUSH1 0x1 PUSH1 0x1 PUSH1 0xA0 SHL SUB DUP11 AND EXTCODESIZE ISZERO PUSH3 0x644 JUMPI PUSH1 0x40 MLOAD PUSH4 0x1D9119F3 PUSH1 0xE2 SHL DUP2 MSTORE SWAP2 DUP4 SWAP2 DUP4 SWAP2 DUP3 SWAP2 PUSH3 0x706 SWAP2 SWAP1 PUSH1 0x4 DUP5 ADD PUSH3 0xF8C JUMP JUMPDEST SUB DUP2 DUP4 PUSH1 0x1 PUSH1 0x1 PUSH1 0xA0 SHL SUB DUP15 AND GAS CALL DUP1 ISZERO PUSH3 0x61D JUMPI PUSH3 0x72A JUMPI JUMPDEST POP POP PUSH3 0x58A JUMP JUMPDEST PUSH3 0x735 SWAP1 PUSH3 0x10B0 JUMP JUMPDEST PUSH3 0x619 JUMPI DUP8 CODESIZE PUSH3 0x722 JUMP JUMPDEST PUSH1 0x40 MLOAD PUSH3 0x461BCD PUSH1 0xE5 SHL DUP2 MSTORE PUSH1 0x20 PUSH1 0x4 DUP3 ADD MSTORE PUSH1 0x1D PUSH1 0x24 DUP3 ADD MSTORE PUSH32 0x496E76616C6964206F7261636C6520666F72206E617469766520455448000000 PUSH1 0x44 DUP3 ADD MSTORE PUSH1 0x64 SWAP1 REVERT JUMPDEST PUSH3 0x792 SWAP1 PUSH3 0x10B0 JUMP JUMPDEST PUSH3 0x79F JUMPI DUP7 CODESIZE PUSH3 0x413 JUMP JUMPDEST DUP7 DUP1 REVERT JUMPDEST SWAP2 SWAP3 SWAP4 SWAP5 SWAP6 POP SWAP6 POP PUSH1 0x40 MLOAD SWAP1 DUP2 PUSH2 0x1031 DUP2 ADD LT SWAP1 PUSH2 0x1031 DUP4 ADD GT OR PUSH3 0x818 JUMPI SWAP1 DUP2 DUP14 SWAP7 SWAP6 SWAP5 SWAP4 SWAP3 PUSH3 0x7F1 DUP15 PUSH2 0x1031 PUSH3 0x3CD4 DUP5 CODECOPY PUSH1 0x1 PUSH1 0x1 PUSH1 0xA0 SHL SUB AND PUSH1 0xA4 CALLDATALOAD DUP7 PUSH2 0x1031 DUP6 ADD PUSH3 0x104C JUMP JUMPDEST SUB SWAP1 DUP8 CREATE DUP1 ISZERO PUSH3 0x80D JUMPI PUSH1 0x1 PUSH1 0x1 PUSH1 0xA0 SHL SUB AND SWAP5 CODESIZE PUSH3 0x3A2 JUMP JUMPDEST PUSH1 0x40 MLOAD RETURNDATASIZE DUP9 DUP3 RETURNDATACOPY RETURNDATASIZE SWAP1 REVERT JUMPDEST PUSH4 0x4E487B71 PUSH1 0xE0 SHL DUP14 MSTORE PUSH1 0x41 PUSH1 0x4 MSTORE PUSH1 0x24 DUP14 REVERT JUMPDEST PUSH1 0x40 MLOAD RETURNDATASIZE DUP10 DUP3 RETURNDATACOPY RETURNDATASIZE SWAP1 REVERT JUMPDEST POP PUSH4 0x4E487B71 PUSH1 0xE0 SHL DUP16 MSTORE PUSH1 0x41 PUSH1 0x4 MSTORE PUSH1 0x24 DUP16 REVERT JUMPDEST PUSH1 0x40 MLOAD PUSH3 0x461BCD PUSH1 0xE5 SHL DUP2 MSTORE PUSH1 0x20 PUSH1 0x4 DUP3 ADD MSTORE PUSH1 0x1A PUSH1 0x24 DUP3 ADD MSTORE PUSH26 0x139BC81C185E5B595B9D081D1BDAD95B9CC81C1C9BDD9A591959 PUSH1 0x32 SHL PUSH1 0x44 DUP3 ADD MSTORE PUSH1 0x64 SWAP1 REVERT JUMPDEST PUSH1 0x40 MLOAD PUSH3 0x461BCD PUSH1 0xE5 SHL DUP2 MSTORE PUSH1 0x20 PUSH1 0x4 DUP3 ADD MSTORE PUSH1 0x15 PUSH1 0x24 DUP3 ADD MSTORE PUSH21 0x82E4E4C2F240D8CADCCEE8D040DAD2E6DAC2E8C6D PUSH1 0x5B SHL PUSH1 0x44 DUP3 ADD MSTORE PUSH1 0x64 SWAP1 REVERT JUMPDEST DUP11 DUP1 REVERT JUMPDEST DUP9 DUP1 REVERT JUMPDEST POP CALLVALUE PUSH3 0x16B JUMPI DUP1 PUSH1 0x3 NOT CALLDATASIZE ADD SLT PUSH3 0x16B JUMPI PUSH1 0x5 SLOAD PUSH1 0x40 MLOAD PUSH1 0x1 PUSH1 0x1 PUSH1 0xA0 SHL SUB SWAP1 SWAP2 AND DUP2 MSTORE PUSH1 0x20 SWAP1 RETURN JUMPDEST POP CALLVALUE PUSH3 0x16B JUMPI DUP1 PUSH1 0x3 NOT CALLDATASIZE ADD SLT PUSH3 0x16B JUMPI SLOAD PUSH1 0x40 MLOAD PUSH1 0x1 PUSH1 0x1 PUSH1 0xA0 SHL SUB SWAP1 SWAP2 AND DUP2 MSTORE PUSH1 0x20 SWAP1 RETURN JUMPDEST POP CALLVALUE PUSH3 0x16B JUMPI PUSH1 0x20 CALLDATASIZE PUSH1 0x3 NOT ADD SLT PUSH3 0x16B JUMPI PUSH1 0x20 SWAP1 PUSH1 0x1 PUSH1 0x1 PUSH1 0xA0 SHL SUB SWAP1 PUSH1 0x40 SWAP1 DUP3 PUSH3 0x955 PUSH3 0xEDE JUMP JUMPDEST AND DUP2 MSTORE PUSH1 0x3 DUP5 MSTORE KECCAK256 SLOAD AND PUSH1 0x40 MLOAD SWAP1 DUP2 MSTORE RETURN JUMPDEST POP CALLVALUE PUSH3 0x16B JUMPI DUP1 PUSH1 0x3 NOT CALLDATASIZE ADD SLT PUSH3 0x16B JUMPI PUSH3 0x984 PUSH3 0xFD9 JUMP JUMPDEST PUSH1 0x0 DUP1 SLOAD PUSH1 0x1 PUSH1 0x1 PUSH1 0xA0 SHL SUB NOT DUP2 AND DUP3 SSTORE PUSH1 0x1 PUSH1 0x1 PUSH1 0xA0 SHL SUB AND PUSH1 0x0 DUP1 MLOAD PUSH1 0x20 PUSH3 0x4D25 DUP4 CODECOPY DUP2 MLOAD SWAP2 MSTORE DUP3 DUP1 LOG3 DUP1 RETURN JUMPDEST POP CALLVALUE PUSH3 0x16B JUMPI DUP1 PUSH1 0x3 NOT CALLDATASIZE ADD SLT PUSH3 0x16B JUMPI PUSH1 0x20 PUSH1 0x1 SLOAD PUSH1 0x40 MLOAD SWAP1 DUP2 MSTORE RETURN JUMPDEST POP CALLVALUE PUSH3 0x16B JUMPI DUP1 PUSH1 0x3 NOT CALLDATASIZE ADD SLT PUSH3 0x16B JUMPI PUSH1 0x6 SLOAD PUSH1 0x40 MLOAD PUSH1 0x1 PUSH1 0x1 PUSH1 0xA0 SHL SUB SWAP1 SWAP2 AND DUP2 MSTORE PUSH1 0x20 SWAP1 RETURN JUMPDEST POP CALLVALUE PUSH3 0x16B JUMPI DUP1 PUSH1 0x3 NOT CALLDATASIZE ADD SLT PUSH3 0x16B JUMPI PUSH1 0x5 SLOAD PUSH1 0x6 SLOAD PUSH1 0x40 MLOAD SWAP2 DUP3 SWAP2 PUSH3 0xA37 SWAP2 PUSH1 0x1 PUSH1 0x1 PUSH1 0xA0 SHL SUB SWAP2 DUP3 AND SWAP2 AND DUP4 PUSH3 0xF8C JUMP JUMPDEST SUB SWAP1 RETURN JUMPDEST POP CALLVALUE PUSH3 0x16B JUMPI PUSH1 0x40 CALLDATASIZE PUSH1 0x3 NOT ADD SLT PUSH3 0x16B JUMPI PUSH3 0xA59 PUSH3 0xEDE JUMP JUMPDEST PUSH1 0x1 PUSH1 0x1 PUSH1 0xA0 SHL SUB PUSH1 0x24 CALLDATALOAD DUP2 DUP2 AND SWAP3 SWAP1 DUP4 SWAP1 SUB PUSH3 0xB46 JUMPI PUSH3 0xA7B PUSH3 0xFD9 JUMP JUMPDEST AND DUP1 ISZERO PUSH3 0xB0A JUMPI DUP2 ISZERO PUSH3 0xACC JUMPI DUP2 PUSH1 0x1 DUP1 PUSH1 0xA0 SHL SUB NOT DUP3 DUP2 PUSH1 0x5 SLOAD AND OR PUSH1 0x5 SSTORE PUSH1 0x6 SLOAD AND OR PUSH1 0x6 SSTORE PUSH32 0x9708FEDB34D7F4B974E53AC2D03B32EB2C50270B84EC301A97AA7E7D9E25810E DUP4 DUP1 LOG3 DUP1 RETURN JUMPDEST PUSH1 0x40 MLOAD PUSH3 0x461BCD PUSH1 0xE5 SHL DUP2 MSTORE PUSH1 0x20 PUSH1 0x4 DUP3 ADD MSTORE PUSH1 0x16 PUSH1 0x24 DUP3 ADD MSTORE PUSH22 0x496E76616C6964206F7261636C652061646472657373 PUSH1 0x50 SHL PUSH1 0x44 DUP3 ADD MSTORE PUSH1 0x64 SWAP1 REVERT JUMPDEST PUSH1 0x40 MLOAD PUSH3 0x461BCD PUSH1 0xE5 SHL DUP2 MSTORE PUSH1 0x20 PUSH1 0x4 DUP3 ADD MSTORE PUSH1 0x14 PUSH1 0x24 DUP3 ADD MSTORE PUSH20 0x496E76616C696420555344542061646472657373 PUSH1 0x60 SHL PUSH1 0x44 DUP3 ADD MSTORE PUSH1 0x64 SWAP1 REVERT JUMPDEST PUSH1 0x0 DUP1 REVERT JUMPDEST POP CALLVALUE PUSH3 0x16B JUMPI PUSH2 0x1A0 CALLDATASIZE PUSH1 0x3 NOT ADD SLT PUSH3 0x16B JUMPI PUSH3 0xB6A PUSH3 0xEDE JUMP JUMPDEST SWAP1 PUSH1 0xA4 CALLDATALOAD PUSH3 0xB78 PUSH3 0xF6C JUMP JUMPDEST SWAP3 PUSH3 0xB83 PUSH3 0xF7C JUMP JUMPDEST SWAP2 PUSH3 0xB8E PUSH3 0xEF5 JUMP JUMPDEST SWAP1 PUSH3 0xB99 PUSH3 0xF0D JUMP JUMPDEST SWAP3 PUSH3 0xBA4 PUSH3 0xF25 JUMP JUMPDEST SWAP7 PUSH3 0xBAF PUSH3 0xFD9 JUMP JUMPDEST PUSH1 0x1 PUSH1 0x1 PUSH1 0xA0 SHL SUB SWAP5 PUSH3 0xBC7 DUP2 DUP8 AND ISZERO ISZERO PUSH3 0x1006 JUMP JUMPDEST PUSH1 0x40 MLOAD PUSH1 0x1 PUSH1 0x1 PUSH1 0x40 SHL SUB SWAP10 SWAP1 DUP10 SWAP1 PUSH2 0x2AB9 DUP1 DUP3 ADD SWAP1 DUP14 DUP3 GT DUP4 DUP4 LT OR PUSH3 0x818 JUMPI SWAP1 DUP3 SWAP2 PUSH3 0x121B DUP4 CODECOPY SUB SWAP1 DUP12 CREATE DUP1 ISZERO PUSH3 0xD81 JUMPI DUP10 PUSH3 0xD1C JUMPI JUMPDEST DUP11 SWAP12 POP SWAP8 DUP1 SWAP10 SWAP11 SWAP7 SWAP8 SWAP9 AND SWAP10 DUP11 EXTCODESIZE ISZERO PUSH3 0x79F JUMPI PUSH3 0xC54 SWAP4 DUP10 PUSH1 0x40 MLOAD SWAP10 DUP11 SWAP9 DUP10 SWAP9 PUSH4 0x28EAF5BD PUSH1 0xE0 SHL DUP11 MSTORE PUSH2 0x124 CALLDATALOAD SWAP3 PUSH2 0x104 CALLDATALOAD SWAP3 PUSH1 0x84 CALLDATALOAD SWAP1 PUSH1 0x64 CALLDATALOAD SWAP1 DUP14 PUSH1 0x44 CALLDATALOAD SWAP2 PUSH1 0x4 PUSH1 0x24 CALLDATALOAD SWAP3 ADD PUSH3 0x10FE JUMP JUMPDEST SUB DUP2 DUP4 DUP9 GAS CALL DUP1 ISZERO PUSH3 0xD11 JUMPI SWAP2 PUSH3 0xCE8 SWAP4 SWAP2 PUSH1 0x20 SWAP7 SWAP4 PUSH3 0xCF3 JUMPI JUMPDEST POP PUSH1 0x1 DUP1 SLOAD DUP5 MSTORE PUSH1 0x2 DUP8 MSTORE PUSH1 0x40 DUP1 DUP6 KECCAK256 DUP1 SLOAD PUSH1 0x1 PUSH1 0x1 PUSH1 0xA0 SHL SUB NOT SWAP1 DUP2 AND DUP10 OR SWAP1 SWAP2 SSTORE DUP8 DUP7 MSTORE PUSH1 0x3 DUP10 MSTORE DUP2 DUP7 KECCAK256 DUP1 SLOAD SWAP1 SWAP2 AND CALLER OR SWAP1 SSTORE SWAP2 SWAP1 SWAP3 AND DUP1 DUP5 MSTORE PUSH1 0x4 DUP8 MSTORE SWAP3 KECCAK256 SWAP1 SLOAD PUSH3 0xCC2 SWAP2 PUSH3 0x117E JUMP JUMPDEST DUP3 PUSH1 0x1 SLOAD SWAP2 PUSH1 0x40 MLOAD SWAP1 DUP2 MSTORE DUP3 PUSH1 0x0 DUP1 MLOAD PUSH1 0x20 PUSH3 0x4D05 DUP4 CODECOPY DUP2 MLOAD SWAP2 MSTORE DUP8 CALLER SWAP4 LOG4 PUSH3 0x11B6 JUMP JUMPDEST PUSH1 0x1 SSTORE PUSH1 0x40 MLOAD SWAP1 DUP2 MSTORE RETURN JUMPDEST SWAP2 PUSH1 0x40 SWAP2 SWAP4 PUSH3 0xD07 PUSH3 0xCC2 SWAP5 PUSH3 0x10B0 JUMP JUMPDEST SWAP4 SWAP2 POP SWAP2 PUSH3 0xC72 JUMP JUMPDEST PUSH1 0x40 MLOAD RETURNDATASIZE DUP8 DUP3 RETURNDATACOPY RETURNDATASIZE SWAP1 REVERT JUMPDEST SWAP1 POP PUSH1 0x40 MLOAD PUSH2 0x1031 DUP1 DUP3 ADD DUP1 SWAP14 DUP4 DUP3 LT SWAP2 GT OR PUSH3 0xD6D JUMPI PUSH3 0xD53 DUP13 SWAP14 DUP10 DUP10 DUP14 SWAP15 SWAP16 SWAP12 SWAP13 SWAP14 DUP7 SWAP6 PUSH3 0x3CD4 DUP8 CODECOPY DUP8 AND SWAP3 PUSH3 0x104C JUMP JUMPDEST SUB SWAP1 DUP8 CREATE DUP1 ISZERO PUSH3 0x80D JUMPI SWAP6 SWAP10 SWAP9 SWAP8 SWAP7 SWAP6 DUP9 AND SWAP1 PUSH3 0xC04 JUMP JUMPDEST PUSH4 0x4E487B71 PUSH1 0xE0 SHL DUP13 MSTORE PUSH1 0x41 PUSH1 0x4 MSTORE PUSH1 0x24 DUP13 REVERT JUMPDEST PUSH1 0x40 MLOAD RETURNDATASIZE DUP13 DUP3 RETURNDATACOPY RETURNDATASIZE SWAP1 REVERT JUMPDEST POP CALLVALUE PUSH3 0x16B JUMPI PUSH1 0x20 DUP1 PUSH1 0x3 NOT CALLDATASIZE ADD SLT PUSH3 0x628 JUMPI PUSH1 0x1 PUSH1 0x1 PUSH1 0xA0 SHL SUB PUSH3 0xDB3 PUSH3 0xEDE JUMP JUMPDEST AND DUP3 MSTORE PUSH1 0x4 DUP2 MSTORE PUSH1 0x40 DUP3 KECCAK256 PUSH1 0x40 MLOAD SWAP3 DUP4 DUP4 DUP4 SLOAD SWAP2 DUP3 DUP2 MSTORE ADD SWAP1 DUP2 SWAP4 DUP4 MSTORE DUP5 DUP4 KECCAK256 SWAP1 DUP4 JUMPDEST DUP2 DUP2 LT PUSH3 0xE2F JUMPI POP POP POP DUP5 PUSH3 0xDEF SWAP2 SUB DUP6 PUSH3 0x10DA JUMP JUMPDEST PUSH1 0x40 MLOAD SWAP4 DUP4 DUP6 SWAP5 DUP6 ADD SWAP2 DUP2 DUP7 MSTORE MLOAD DUP1 SWAP3 MSTORE PUSH1 0x40 DUP6 ADD SWAP4 SWAP3 JUMPDEST DUP3 DUP2 LT PUSH3 0xE17 JUMPI POP POP POP POP SUB SWAP1 RETURN JUMPDEST DUP4 MLOAD DUP6 MSTORE DUP7 SWAP6 POP SWAP4 DUP2 ADD SWAP4 SWAP3 DUP2 ADD SWAP3 PUSH1 0x1 ADD PUSH3 0xE07 JUMP JUMPDEST DUP3 SLOAD DUP5 MSTORE SWAP3 DUP7 ADD SWAP3 PUSH1 0x1 SWAP3 DUP4 ADD SWAP3 ADD PUSH3 0xDD6 JUMP JUMPDEST POP CALLVALUE PUSH3 0x16B JUMPI PUSH1 0x40 CALLDATASIZE PUSH1 0x3 NOT ADD SLT PUSH3 0x16B JUMPI PUSH3 0xE62 PUSH3 0xEDE JUMP JUMPDEST PUSH1 0x1 PUSH1 0x1 PUSH1 0xA0 SHL SUB AND DUP2 MSTORE PUSH1 0x4 PUSH1 0x20 MSTORE PUSH1 0x40 DUP2 KECCAK256 DUP1 SLOAD PUSH1 0x24 CALLDATALOAD SWAP3 SWAP1 DUP4 LT ISZERO PUSH3 0x16B JUMPI PUSH1 0x20 PUSH3 0xE93 DUP5 DUP5 PUSH3 0xF3D JUMP JUMPDEST SWAP1 SLOAD PUSH1 0x40 MLOAD SWAP2 PUSH1 0x3 SHL SHR DUP2 MSTORE RETURN JUMPDEST SWAP1 POP CALLVALUE PUSH3 0x628 JUMPI PUSH1 0x20 CALLDATASIZE PUSH1 0x3 NOT ADD SLT PUSH3 0x628 JUMPI PUSH1 0x20 SWAP2 PUSH1 0x1 PUSH1 0x1 PUSH1 0xA0 SHL SUB SWAP1 PUSH1 0x40 SWAP1 DUP3 PUSH3 0xED0 PUSH3 0xEDE JUMP JUMPDEST AND DUP2 MSTORE PUSH1 0x3 DUP6 MSTORE KECCAK256 SLOAD AND DUP2 MSTORE RETURN JUMPDEST PUSH1 0x4 CALLDATALOAD SWAP1 PUSH1 0x1 PUSH1 0x1 PUSH1 0xA0 SHL SUB DUP3 AND DUP3 SUB PUSH3 0xB46 JUMPI JUMP JUMPDEST PUSH2 0x144 CALLDATALOAD SWAP1 PUSH1 0x1 PUSH1 0x1 PUSH1 0xA0 SHL SUB DUP3 AND DUP3 SUB PUSH3 0xB46 JUMPI JUMP JUMPDEST PUSH2 0x164 CALLDATALOAD SWAP1 PUSH1 0x1 PUSH1 0x1 PUSH1 0xA0 SHL SUB DUP3 AND DUP3 SUB PUSH3 0xB46 JUMPI JUMP JUMPDEST PUSH2 0x184 CALLDATALOAD SWAP1 PUSH1 0x1 PUSH1 0x1 PUSH1 0xA0 SHL SUB DUP3 AND DUP3 SUB PUSH3 0xB46 JUMPI JUMP JUMPDEST DUP1 SLOAD DUP3 LT ISZERO PUSH3 0xF56 JUMPI PUSH1 0x0 MSTORE PUSH1 0x20 PUSH1 0x0 KECCAK256 ADD SWAP1 PUSH1 0x0 SWAP1 JUMP JUMPDEST PUSH4 0x4E487B71 PUSH1 0xE0 SHL PUSH1 0x0 MSTORE PUSH1 0x32 PUSH1 0x4 MSTORE PUSH1 0x24 PUSH1 0x0 REVERT JUMPDEST PUSH1 0xC4 CALLDATALOAD SWAP1 DUP2 ISZERO ISZERO DUP3 SUB PUSH3 0xB46 JUMPI JUMP JUMPDEST PUSH1 0xE4 CALLDATALOAD SWAP1 DUP2 ISZERO ISZERO DUP3 SUB PUSH3 0xB46 JUMPI JUMP JUMPDEST PUSH1 0x1 PUSH1 0x1 PUSH1 0xA0 SHL SUB SWAP2 DUP3 AND DUP2 MSTORE SWAP2 AND PUSH1 0x20 DUP3 ADD MSTORE PUSH1 0x40 ADD SWAP1 JUMP JUMPDEST SWAP2 DUP2 PUSH1 0x1F DUP5 ADD SLT ISZERO PUSH3 0xB46 JUMPI DUP3 CALLDATALOAD SWAP2 PUSH1 0x1 PUSH1 0x1 PUSH1 0x40 SHL SUB DUP4 GT PUSH3 0xB46 JUMPI PUSH1 0x20 DUP1 DUP6 ADD SWAP5 DUP5 PUSH1 0x5 SHL ADD ADD GT PUSH3 0xB46 JUMPI JUMP JUMPDEST PUSH1 0x0 SLOAD PUSH1 0x1 PUSH1 0x1 PUSH1 0xA0 SHL SUB AND CALLER SUB PUSH3 0xFEE JUMPI JUMP JUMPDEST PUSH1 0x40 MLOAD PUSH4 0x118CDAA7 PUSH1 0xE0 SHL DUP2 MSTORE CALLER PUSH1 0x4 DUP3 ADD MSTORE PUSH1 0x24 SWAP1 REVERT JUMPDEST ISZERO PUSH3 0x100E JUMPI JUMP JUMPDEST PUSH1 0x40 MLOAD PUSH3 0x461BCD PUSH1 0xE5 SHL DUP2 MSTORE PUSH1 0x20 PUSH1 0x4 DUP3 ADD MSTORE PUSH1 0x16 PUSH1 0x24 DUP3 ADD MSTORE PUSH22 0x496E76616C696420657363726F772061646472657373 PUSH1 0x50 SHL PUSH1 0x44 DUP3 ADD MSTORE PUSH1 0x64 SWAP1 REVERT JUMPDEST PUSH1 0xA0 DUP1 DUP3 MSTORE PUSH1 0xD SWAP1 DUP3 ADD MSTORE PUSH13 0x2BB930B83832B2102A37B5B2B7 PUSH1 0x99 SHL PUSH1 0xC0 DUP3 ADD MSTORE PUSH1 0xE0 PUSH1 0x20 DUP3 ADD DUP2 SWAP1 MSTORE PUSH1 0x3 SWAP1 DUP3 ADD MSTORE PUSH3 0x15D495 PUSH1 0xEA SHL PUSH2 0x100 DUP3 ADD MSTORE PUSH1 0x1 PUSH1 0x1 PUSH1 0xA0 SHL SUB SWAP2 DUP3 AND PUSH1 0x40 DUP3 ADD MSTORE PUSH1 0x60 DUP2 ADD SWAP3 SWAP1 SWAP3 MSTORE SWAP1 SWAP2 AND PUSH1 0x80 DUP3 ADD MSTORE PUSH2 0x120 ADD SWAP1 JUMP JUMPDEST PUSH1 0x1 PUSH1 0x1 PUSH1 0x40 SHL SUB DUP2 GT PUSH3 0x10C4 JUMPI PUSH1 0x40 MSTORE JUMP JUMPDEST PUSH4 0x4E487B71 PUSH1 0xE0 SHL PUSH1 0x0 MSTORE PUSH1 0x41 PUSH1 0x4 MSTORE PUSH1 0x24 PUSH1 0x0 REVERT JUMPDEST PUSH1 0x1F SWAP1 SWAP2 ADD PUSH1 0x1F NOT AND DUP2 ADD SWAP1 PUSH1 0x1 PUSH1 0x1 PUSH1 0x40 SHL SUB DUP3 GT SWAP1 DUP3 LT OR PUSH3 0x10C4 JUMPI PUSH1 0x40 MSTORE JUMP JUMPDEST SWAP13 SWAP9 SWAP3 SWAP10 SWAP4 SWAP15 SWAP14 SWAP11 SWAP6 DUP14 SWAP13 SWAP9 SWAP3 SWAP8 SWAP2 SWAP6 PUSH1 0x80 MSTORE PUSH2 0x1C0 DUP14 ADD SWAP16 PUSH1 0x1 PUSH1 0xA0 SHL PUSH1 0x1 SWAP1 SUB SWAP14 DUP15 SWAP13 DUP14 SWAP11 DUP12 DUP1 SWAP11 AND DUP4 MSTORE PUSH1 0x20 DUP4 ADD MSTORE PUSH1 0x40 DUP3 ADD MSTORE PUSH1 0x60 ADD MSTORE DUP14 PUSH1 0x80 MLOAD PUSH1 0x80 DUP3 ADD MSTORE PUSH1 0xA0 ADD MSTORE ISZERO ISZERO PUSH1 0xC0 DUP14 ADD MSTORE PUSH1 0xE0 DUP13 ADD MSTORE PUSH2 0x100 DUP12 ADD MSTORE AND PUSH2 0x120 DUP10 ADD MSTORE AND PUSH2 0x140 DUP8 ADD MSTORE ISZERO ISZERO PUSH2 0x160 DUP7 ADD MSTORE AND PUSH2 0x180 DUP5 ADD MSTORE AND SWAP1 PUSH2 0x1A0 ADD MSTORE JUMP JUMPDEST DUP1 SLOAD PUSH1 0x1 PUSH1 0x40 SHL DUP2 LT ISZERO PUSH3 0x10C4 JUMPI PUSH3 0x119E SWAP2 PUSH1 0x1 DUP3 ADD DUP2 SSTORE PUSH3 0xF3D JUMP JUMPDEST DUP2 SWAP3 SWAP2 SLOAD SWAP1 PUSH1 0x3 SHL SWAP2 DUP3 SHL SWAP2 PUSH1 0x0 NOT SWAP1 SHL NOT AND OR SWAP1 SSTORE JUMP JUMPDEST PUSH1 0x0 NOT DUP2 EQ PUSH3 0x11C6 JUMPI PUSH1 0x1 ADD SWAP1 JUMP JUMPDEST PUSH4 0x4E487B71 PUSH1 0xE0 SHL PUSH1 0x0 MSTORE PUSH1 0x11 PUSH1 0x4 MSTORE PUSH1 0x24 PUSH1 0x0 REVERT JUMPDEST SWAP2 SWAP1 DUP2 LT ISZERO PUSH3 0xF56 JUMPI PUSH1 0x5 SHL ADD SWAP1 JUMP JUMPDEST CALLDATALOAD PUSH1 0x1 PUSH1 0x1 PUSH1 0xA0 SHL SUB DUP2 AND DUP2 SUB PUSH3 0xB46 JUMPI SWAP1 JUMP JUMPDEST PUSH1 0x1 PUSH1 0x1 PUSH1 0x40 SHL SUB DUP2 GT PUSH3 0x10C4 JUMPI PUSH1 0x5 SHL PUSH1 0x20 ADD SWAP1 JUMP INVALID PUSH1 0x80 DUP1 PUSH1 0x40 MSTORE CALLVALUE PUSH2 0x1B JUMPI PUSH1 0x1 PUSH1 0x2 SSTORE PUSH2 0x2A98 SWAP1 DUP2 PUSH2 0x21 DUP3 CODECOPY RETURN JUMPDEST PUSH1 0x0 DUP1 REVERT INVALID PUSH1 0x80 DUP1 PUSH1 0x40 MSTORE PUSH1 0x4 CALLDATASIZE LT ISZERO PUSH2 0x94 JUMPI JUMPDEST POP CALLDATASIZE ISZERO PUSH2 0x53 JUMPI PUSH1 0x40 MLOAD PUSH3 0x461BCD PUSH1 0xE5 SHL DUP2 MSTORE PUSH1 0x20 PUSH1 0x4 DUP3 ADD MSTORE PUSH1 0x15 PUSH1 0x24 DUP3 ADD MSTORE PUSH21 0x11985B1B189858DAC81B9BDD081858D8D95C1D1959 PUSH1 0x5A SHL PUSH1 0x44 DUP3 ADD MSTORE PUSH1 0x64 SWAP1 REVERT JUMPDEST PUSH1 0x40 MLOAD PUSH3 0x461BCD PUSH1 0xE5 SHL DUP2 MSTORE PUSH1 0x20 PUSH1 0x4 DUP3 ADD MSTORE PUSH1 0x19 PUSH1 0x24 DUP3 ADD MSTORE PUSH25 0x111A5C9958DD081315535250481B9BDD081858D8D95C1D1959 PUSH1 0x3A SHL PUSH1 0x44 DUP3 ADD MSTORE PUSH1 0x64 SWAP1 REVERT JUMPDEST PUSH1 0x0 SWAP1 DUP2 CALLDATALOAD PUSH1 0xE0 SHR SWAP1 DUP2 PUSH3 0x2E1316 EQ PUSH2 0x241E JUMPI POP DUP1 PUSH4 0x1FFC9A7 EQ PUSH2 0x23C7 JUMPI DUP1 PUSH4 0xB97BC86 EQ PUSH2 0x23A9 JUMPI DUP1 PUSH4 0xD342CAB EQ PUSH2 0x2386 JUMPI DUP1 PUSH4 0xD5DEFA4 EQ PUSH2 0x235D JUMPI DUP1 PUSH4 0x1309B324 EQ PUSH2 0x22DE JUMPI DUP1 PUSH4 0x1E1A268B EQ PUSH2 0x22BB JUMPI DUP1 PUSH4 0x248A9CA3 EQ PUSH2 0x228F JUMPI DUP1 PUSH4 0x28EAF5BD EQ PUSH2 0x1EA4 JUMPI DUP1 PUSH4 0x2F2FF15D EQ PUSH2 0x1E67 JUMPI DUP1 PUSH4 0x36568ABE EQ PUSH2 0x1E1F JUMPI DUP1 PUSH4 0x3784F000 EQ PUSH2 0x1D14 JUMPI DUP1 PUSH4 0x3E646208 EQ PUSH2 0x1CE7 JUMPI DUP1 PUSH4 0x3F4BA83A EQ PUSH2 0x1C70 JUMPI DUP1 PUSH4 0x4B31BB10 EQ PUSH2 0x1C47 JUMPI DUP1 PUSH4 0x4FFF5402 EQ PUSH2 0x1C21 JUMPI DUP1 PUSH4 0x5C975ABB EQ PUSH2 0x1BFE JUMPI DUP1 PUSH4 0x61D027B3 EQ PUSH2 0x1BD5 JUMPI DUP1 PUSH4 0x653AC422 EQ PUSH2 0x110C JUMPI DUP1 PUSH4 0x6A61E5FC EQ PUSH2 0x10B3 JUMPI DUP1 PUSH4 0x764467CC EQ PUSH2 0xFFE JUMPI DUP1 PUSH4 0x77D392F0 EQ PUSH2 0xDC6 JUMPI DUP1 PUSH4 0x7FF9B596 EQ PUSH2 0xDA8 JUMPI DUP1 PUSH4 0x8456CB59 EQ PUSH2 0xD42 JUMPI DUP1 PUSH4 0x88E32FC2 EQ PUSH2 0xC8F JUMPI DUP1 PUSH4 0x8A185113 EQ PUSH2 0xC66 JUMPI DUP1 PUSH4 0x8AC2C680 EQ PUSH2 0xC48 JUMPI DUP1 PUSH4 0x90838E09 EQ PUSH2 0xC0F JUMPI DUP1 PUSH4 0x91D14854 EQ PUSH2 0xBC4 JUMPI DUP1 PUSH4 0xA217FDDF EQ PUSH2 0xBA8 JUMPI DUP1 PUSH4 0xA6527F39 EQ PUSH2 0xB6A JUMPI DUP1 PUSH4 0xB13EF138 EQ PUSH2 0xB2C JUMPI DUP1 PUSH4 0xB37FD190 EQ PUSH2 0x802 JUMPI DUP1 PUSH4 0xB9662797 EQ PUSH2 0x7E4 JUMPI DUP1 PUSH4 0xBBCC0A06 EQ PUSH2 0x7C6 JUMPI DUP1 PUSH4 0xBD492432 EQ PUSH2 0x78A JUMPI DUP1 PUSH4 0xC031A66F EQ PUSH2 0x751 JUMPI DUP1 PUSH4 0xC24A0F8B EQ PUSH2 0x733 JUMPI DUP1 PUSH4 0xC5C4744C EQ PUSH2 0x715 JUMPI DUP1 PUSH4 0xD547741F EQ PUSH2 0x6D4 JUMPI DUP1 PUSH4 0xD59624B4 EQ PUSH2 0x6B6 JUMPI DUP1 PUSH4 0xDF695ABB EQ PUSH2 0x677 JUMPI DUP1 PUSH4 0xDF8DE3E7 EQ PUSH2 0x2EB JUMPI DUP1 PUSH4 0xE985E367 EQ PUSH2 0x2C2 JUMPI PUSH4 0xFB903B1D SUB PUSH2 0xF JUMPI CALLVALUE PUSH2 0x2BF JUMPI PUSH1 0x40 CALLDATASIZE PUSH1 0x3 NOT ADD SLT PUSH2 0x2BF JUMPI PUSH1 0x24 CALLDATALOAD PUSH1 0x4 CALLDATALOAD PUSH2 0x2AA PUSH2 0x24AC JUMP JUMPDEST PUSH2 0x2B6 DUP3 DUP3 GT ISZERO PUSH2 0x2731 JUMP JUMPDEST PUSH1 0x4 SSTORE PUSH1 0x5 SSTORE DUP1 RETURN JUMPDEST DUP1 REVERT JUMPDEST POP CALLVALUE PUSH2 0x2BF JUMPI DUP1 PUSH1 0x3 NOT CALLDATASIZE ADD SLT PUSH2 0x2BF JUMPI PUSH1 0x3 SLOAD PUSH1 0x40 MLOAD PUSH1 0x1 PUSH1 0x1 PUSH1 0xA0 SHL SUB SWAP1 SWAP2 AND DUP2 MSTORE PUSH1 0x20 SWAP1 RETURN JUMPDEST POP CALLVALUE PUSH2 0x2BF JUMPI PUSH1 0x20 SWAP1 DUP2 PUSH1 0x3 NOT CALLDATASIZE ADD SLT PUSH2 0x2BF JUMPI PUSH2 0x307 PUSH2 0x243A JUMP JUMPDEST PUSH2 0x30F PUSH2 0x28BD JUMP JUMPDEST PUSH2 0x317 PUSH2 0x2774 JUMP JUMPDEST PUSH1 0xE SLOAD PUSH1 0x1 PUSH1 0x1 PUSH1 0xA0 SHL SUB SWAP3 SWAP1 DUP4 AND CALLER SUB PUSH2 0x61D JUMPI PUSH1 0x8 SLOAD TIMESTAMP LT PUSH2 0x5E1 JUMPI DUP3 DUP3 AND SWAP2 DUP3 DUP3 MSTORE PUSH1 0x13 DUP6 MSTORE PUSH1 0x40 DUP3 KECCAK256 SLOAD SWAP4 DUP5 ISZERO PUSH2 0x5A7 JUMPI PUSH1 0x24 DUP7 DUP3 PUSH1 0x3 SLOAD AND PUSH1 0x40 MLOAD SWAP3 DUP4 DUP1 SWAP3 PUSH4 0x70A08231 PUSH1 0xE0 SHL DUP3 MSTORE ADDRESS PUSH1 0x4 DUP4 ADD MSTORE GAS STATICCALL DUP1 ISZERO PUSH2 0x4C1 JUMPI DUP7 SWAP1 DUP6 SWAP1 PUSH2 0x571 JUMPI JUMPDEST PUSH2 0x388 SWAP3 POP LT ISZERO PUSH2 0x2821 JUMP JUMPDEST DUP4 DUP4 MSTORE PUSH1 0x13 DUP7 MSTORE DUP3 PUSH1 0x40 DUP2 KECCAK256 SSTORE PUSH2 0x3A1 DUP6 PUSH1 0xC SLOAD PUSH2 0x291A JUMP JUMPDEST PUSH1 0xC SSTORE DUP6 DUP6 PUSH1 0xFF PUSH1 0xD SLOAD PUSH1 0x8 SHR AND PUSH1 0x0 EQ PUSH2 0x4CC JUMPI SWAP1 PUSH2 0x3E6 SWAP2 DUP4 PUSH1 0x3 SLOAD AND DUP5 DUP8 PUSH1 0xD SLOAD PUSH1 0x40 MLOAD SWAP7 DUP8 SWAP6 DUP7 SWAP5 DUP6 SWAP4 PUSH4 0x95EA7B3 PUSH1 0xE0 SHL DUP6 MSTORE PUSH1 0x10 SHR AND PUSH1 0x4 DUP5 ADD PUSH2 0x28A2 JUMP JUMPDEST SUB SWAP3 GAS CALL DUP1 ISZERO PUSH2 0x4C1 JUMPI PUSH2 0x494 JUMPI JUMPDEST POP PUSH1 0xD SLOAD PUSH1 0x10 SHR AND SWAP1 DUP2 EXTCODESIZE ISZERO PUSH2 0x490 JUMPI DUP5 PUSH2 0x429 SWAP3 DUP5 SWAP3 DUP4 PUSH1 0x40 MLOAD DUP1 SWAP7 DUP2 SWAP6 DUP3 SWAP5 PUSH4 0xE306C43 PUSH1 0xE1 SHL DUP5 MSTORE PUSH1 0x4 DUP5 ADD PUSH2 0x28A2 JUMP JUMPDEST SUB SWAP3 GAS CALL DUP1 ISZERO PUSH2 0x485 JUMPI PUSH2 0x471 JUMPI JUMPDEST POP POP JUMPDEST PUSH32 0xD8138F8A3F377C5259CA548E70E4C2DE94F129F5A11036A15B69513CBA2B426A DUP4 PUSH1 0x40 MLOAD DUP5 DUP2 MSTORE LOG2 PUSH1 0x1 PUSH1 0x2 SSTORE PUSH1 0x40 MLOAD SWAP1 DUP2 MSTORE RETURN JUMPDEST PUSH2 0x47B DUP3 SWAP2 PUSH2 0x27D5 JUMP JUMPDEST PUSH2 0x2BF JUMPI DUP1 PUSH2 0x438 JUMP JUMPDEST PUSH1 0x40 MLOAD RETURNDATASIZE DUP5 DUP3 RETURNDATACOPY RETURNDATASIZE SWAP1 REVERT JUMPDEST DUP3 DUP1 REVERT JUMPDEST PUSH2 0x4B3 SWAP1 DUP8 RETURNDATASIZE DUP10 GT PUSH2 0x4BA JUMPI JUMPDEST PUSH2 0x4AB DUP2 DUP4 PUSH2 0x27FE JUMP JUMPDEST DUP2 ADD SWAP1 PUSH2 0x2868 JUMP JUMPDEST POP CODESIZE PUSH2 0x3F5 JUMP JUMPDEST POP RETURNDATASIZE PUSH2 0x4A1 JUMP JUMPDEST PUSH1 0x40 MLOAD RETURNDATASIZE DUP7 DUP3 RETURNDATACOPY RETURNDATASIZE SWAP1 REVERT JUMPDEST SWAP1 SWAP2 SWAP3 PUSH2 0x4F5 SWAP4 PUSH1 0x3 SLOAD AND SWAP1 DUP6 PUSH1 0x40 MLOAD DUP1 SWAP7 DUP2 SWAP6 DUP3 SWAP5 PUSH4 0xA9059CBB PUSH1 0xE0 SHL DUP5 MSTORE PUSH1 0x4 DUP5 ADD PUSH2 0x28A2 JUMP JUMPDEST SUB SWAP3 GAS CALL SWAP2 DUP3 ISZERO PUSH2 0x565 JUMPI SWAP2 PUSH2 0x548 JUMPI JUMPDEST POP PUSH2 0x43B JUMPI PUSH1 0x40 MLOAD PUSH3 0x461BCD PUSH1 0xE5 SHL DUP2 MSTORE PUSH1 0x4 DUP2 ADD DUP5 SWAP1 MSTORE PUSH1 0x15 PUSH1 0x24 DUP3 ADD MSTORE PUSH21 0x151BDAD95B881D1C985B9CD9995C8819985A5B1959 PUSH1 0x5A SHL PUSH1 0x44 DUP3 ADD MSTORE PUSH1 0x64 SWAP1 REVERT JUMPDEST PUSH2 0x55F SWAP2 POP DUP5 RETURNDATASIZE DUP7 GT PUSH2 0x4BA JUMPI PUSH2 0x4AB DUP2 DUP4 PUSH2 0x27FE JUMP JUMPDEST CODESIZE PUSH2 0x506 JUMP JUMPDEST PUSH1 0x40 MLOAD SWAP1 RETURNDATASIZE SWAP1 DUP3 RETURNDATACOPY RETURNDATASIZE SWAP1 REVERT JUMPDEST POP POP DUP7 DUP2 DUP2 RETURNDATASIZE DUP4 GT PUSH2 0x5A0 JUMPI JUMPDEST PUSH2 0x588 DUP2 DUP4 PUSH2 0x27FE JUMP JUMPDEST DUP2 ADD SUB SLT PUSH2 0x59B JUMPI DUP6 PUSH2 0x388 SWAP2 MLOAD PUSH2 0x37C JUMP JUMPDEST PUSH1 0x0 DUP1 REVERT JUMPDEST POP RETURNDATASIZE PUSH2 0x57E JUMP JUMPDEST PUSH1 0x40 MLOAD PUSH3 0x461BCD PUSH1 0xE5 SHL DUP2 MSTORE PUSH1 0x4 DUP2 ADD DUP8 SWAP1 MSTORE PUSH1 0x12 PUSH1 0x24 DUP3 ADD MSTORE PUSH18 0x4E6F20746F6B656E7320746F20636C61696D PUSH1 0x70 SHL PUSH1 0x44 DUP3 ADD MSTORE PUSH1 0x64 SWAP1 REVERT JUMPDEST PUSH1 0x40 MLOAD PUSH3 0x461BCD PUSH1 0xE5 SHL DUP2 MSTORE PUSH1 0x4 DUP2 ADD DUP6 SWAP1 MSTORE PUSH1 0x14 PUSH1 0x24 DUP3 ADD MSTORE PUSH20 0x13585D1D5C9A5D1E481B9BDD081C995858DA1959 PUSH1 0x62 SHL PUSH1 0x44 DUP3 ADD MSTORE PUSH1 0x64 SWAP1 REVERT JUMPDEST PUSH1 0x40 MLOAD PUSH3 0x461BCD PUSH1 0xE5 SHL DUP2 MSTORE PUSH1 0x20 PUSH1 0x4 DUP3 ADD MSTORE PUSH1 0x2C PUSH1 0x24 DUP3 ADD MSTORE PUSH32 0x43616C6C6572206973206E6F742074686520696E766573746D656E744D616E61 PUSH1 0x44 DUP3 ADD MSTORE PUSH12 0x19D95C8818DBDB9D1C9858DD PUSH1 0xA2 SHL PUSH1 0x64 DUP3 ADD MSTORE PUSH1 0x84 SWAP1 REVERT JUMPDEST POP CALLVALUE PUSH2 0x2BF JUMPI PUSH1 0x20 CALLDATASIZE PUSH1 0x3 NOT ADD SLT PUSH2 0x2BF JUMPI PUSH1 0x20 SWAP1 PUSH1 0xFF SWAP1 PUSH1 0x40 SWAP1 PUSH1 0x1 PUSH1 0x1 PUSH1 0xA0 SHL SUB PUSH2 0x6A2 PUSH2 0x243A JUMP JUMPDEST AND DUP2 MSTORE PUSH1 0x12 DUP5 MSTORE KECCAK256 SLOAD AND PUSH1 0x40 MLOAD SWAP1 ISZERO ISZERO DUP2 MSTORE RETURN JUMPDEST POP CALLVALUE PUSH2 0x2BF JUMPI DUP1 PUSH1 0x3 NOT CALLDATASIZE ADD SLT PUSH2 0x2BF JUMPI PUSH1 0x20 PUSH1 0x8 SLOAD PUSH1 0x40 MLOAD SWAP1 DUP2 MSTORE RETURN JUMPDEST POP CALLVALUE PUSH2 0x2BF JUMPI PUSH1 0x40 CALLDATASIZE PUSH1 0x3 NOT ADD SLT PUSH2 0x2BF JUMPI PUSH2 0x711 PUSH1 0x4 CALLDATALOAD PUSH2 0x6F4 PUSH2 0x2450 JUMP JUMPDEST SWAP1 DUP1 DUP5 MSTORE DUP4 PUSH1 0x20 MSTORE PUSH2 0x70C PUSH1 0x1 PUSH1 0x40 DUP7 KECCAK256 ADD SLOAD PUSH2 0x24E4 JUMP JUMPDEST PUSH2 0x26CE JUMP JUMPDEST POP DUP1 RETURN JUMPDEST POP CALLVALUE PUSH2 0x2BF JUMPI DUP1 PUSH1 0x3 NOT CALLDATASIZE ADD SLT PUSH2 0x2BF JUMPI PUSH1 0x20 PUSH1 0xB SLOAD PUSH1 0x40 MLOAD SWAP1 DUP2 MSTORE RETURN JUMPDEST POP CALLVALUE PUSH2 0x2BF JUMPI DUP1 PUSH1 0x3 NOT CALLDATASIZE ADD SLT PUSH2 0x2BF JUMPI PUSH1 0x20 PUSH1 0x7 SLOAD PUSH1 0x40 MLOAD SWAP1 DUP2 MSTORE RETURN JUMPDEST POP CALLVALUE PUSH2 0x2BF JUMPI PUSH1 0x20 CALLDATASIZE PUSH1 0x3 NOT ADD SLT PUSH2 0x2BF JUMPI PUSH1 0x20 SWAP1 PUSH1 0x40 SWAP1 PUSH1 0x1 PUSH1 0x1 PUSH1 0xA0 SHL SUB PUSH2 0x779 PUSH2 0x243A JUMP JUMPDEST AND DUP2 MSTORE PUSH1 0x13 DUP4 MSTORE KECCAK256 SLOAD PUSH1 0x40 MLOAD SWAP1 DUP2 MSTORE RETURN JUMPDEST POP CALLVALUE PUSH2 0x2BF JUMPI PUSH1 0x20 CALLDATASIZE PUSH1 0x3 NOT ADD SLT PUSH2 0x2BF JUMPI PUSH1 0x20 SWAP1 PUSH1 0x1 PUSH1 0x1 PUSH1 0xA0 SHL SUB SWAP1 PUSH1 0x40 SWAP1 DUP3 PUSH2 0x7B4 PUSH2 0x243A JUMP JUMPDEST AND DUP2 MSTORE PUSH1 0x15 DUP5 MSTORE KECCAK256 SLOAD AND PUSH1 0x40 MLOAD SWAP1 DUP2 MSTORE RETURN JUMPDEST POP CALLVALUE PUSH2 0x2BF JUMPI DUP1 PUSH1 0x3 NOT CALLDATASIZE ADD SLT PUSH2 0x2BF JUMPI PUSH1 0x20 PUSH1 0xC SLOAD PUSH1 0x40 MLOAD SWAP1 DUP2 MSTORE RETURN JUMPDEST POP CALLVALUE PUSH2 0x2BF JUMPI DUP1 PUSH1 0x3 NOT CALLDATASIZE ADD SLT PUSH2 0x2BF JUMPI PUSH1 0x20 PUSH1 0xA SLOAD PUSH1 0x40 MLOAD SWAP1 DUP2 MSTORE RETURN JUMPDEST POP CALLVALUE PUSH2 0x2BF JUMPI PUSH1 0x60 CALLDATASIZE PUSH1 0x3 NOT ADD SLT PUSH2 0x2BF JUMPI PUSH2 0x81C PUSH2 0x243A JUMP JUMPDEST PUSH1 0x1 PUSH1 0x1 PUSH1 0xA0 SHL SUB PUSH1 0x44 DUP1 CALLDATALOAD DUP3 DUP2 AND SWAP4 PUSH1 0x24 DUP1 CALLDATALOAD SWAP4 SWAP1 SWAP3 SWAP1 SWAP2 DUP7 DUP3 SUB PUSH2 0x59B JUMPI PUSH2 0x844 PUSH2 0x2466 JUMP JUMPDEST PUSH2 0x84C PUSH2 0x28BD JUMP JUMPDEST DUP7 ISZERO PUSH2 0xAF5 JUMPI DUP6 AND SWAP5 DUP6 PUSH2 0x951 JUMPI POP DUP4 SELFBALANCE LT PUSH2 0x91B JUMPI DUP7 DUP1 DUP1 DUP7 DUP2 SWAP5 GAS CALL RETURNDATASIZE ISZERO PUSH2 0x916 JUMPI RETURNDATASIZE PUSH1 0x1 PUSH1 0x1 PUSH1 0x40 SHL SUB DUP2 GT PUSH2 0x903 JUMPI PUSH1 0x40 MLOAD SWAP1 PUSH2 0x897 PUSH1 0x1F DUP3 ADD PUSH1 0x1F NOT AND PUSH1 0x20 ADD DUP4 PUSH2 0x27FE JUMP JUMPDEST DUP2 MSTORE DUP8 PUSH1 0x20 RETURNDATASIZE SWAP3 ADD RETURNDATACOPY JUMPDEST ISZERO PUSH2 0x8CA JUMPI POP POP PUSH1 0x20 PUSH1 0x0 DUP1 MLOAD PUSH1 0x20 PUSH2 0x29E3 DUP4 CODECOPY DUP2 MLOAD SWAP2 MSTORE SWAP2 JUMPDEST PUSH1 0x40 MLOAD SWAP1 DUP2 MSTORE LOG3 PUSH1 0x1 PUSH1 0x2 SSTORE DUP1 RETURN JUMPDEST SWAP1 PUSH19 0x1315535250481C995CD8DD594819985A5B1959 PUSH1 0x6A SHL PUSH1 0x64 SWAP3 PUSH1 0x13 PUSH1 0x40 MLOAD SWAP4 PUSH3 0x461BCD PUSH1 0xE5 SHL DUP6 MSTORE PUSH1 0x20 PUSH1 0x4 DUP7 ADD MSTORE DUP5 ADD MSTORE DUP3 ADD MSTORE REVERT JUMPDEST PUSH4 0x4E487B71 PUSH1 0xE0 SHL DUP9 MSTORE PUSH1 0x41 PUSH1 0x4 MSTORE DUP4 DUP9 REVERT JUMPDEST PUSH2 0x8A1 JUMP JUMPDEST PUSH1 0x40 MLOAD PUSH3 0x461BCD PUSH1 0xE5 SHL DUP2 MSTORE PUSH1 0x20 PUSH1 0x4 DUP3 ADD MSTORE PUSH1 0x10 DUP2 DUP6 ADD MSTORE PUSH16 0x4E6F7420656E6F756768204C554D4941 PUSH1 0x80 SHL DUP2 DUP5 ADD MSTORE PUSH1 0x64 SWAP1 REVERT JUMPDEST PUSH1 0x3 SWAP4 SWAP2 SWAP4 SLOAD AND DUP6 EQ PUSH2 0xAB9 JUMPI PUSH1 0x40 MLOAD PUSH4 0x70A08231 PUSH1 0xE0 SHL DUP2 MSTORE ADDRESS PUSH1 0x4 DUP3 ADD MSTORE PUSH1 0x20 SWAP4 SWAP1 DUP5 DUP2 DUP5 DUP2 DUP11 GAS STATICCALL DUP1 ISZERO PUSH2 0xAAE JUMPI DUP7 SWAP2 DUP11 SWAP2 PUSH2 0xA7D JUMPI JUMPDEST POP LT PUSH2 0xA46 JUMPI DUP4 DUP6 PUSH2 0x9B2 SWAP3 PUSH1 0x40 MLOAD SWAP4 DUP5 SWAP3 DUP4 SWAP3 PUSH4 0xA9059CBB PUSH1 0xE0 SHL DUP5 MSTORE PUSH1 0x4 DUP5 ADD PUSH2 0x28A2 JUMP JUMPDEST SUB DUP2 DUP12 DUP11 GAS CALL SWAP1 DUP2 ISZERO PUSH2 0xA3B JUMPI DUP9 SWAP2 PUSH2 0xA1E JUMPI JUMPDEST POP ISZERO PUSH2 0x9E6 JUMPI POP POP POP PUSH1 0x20 PUSH1 0x0 DUP1 MLOAD PUSH1 0x20 PUSH2 0x29E3 DUP4 CODECOPY DUP2 MLOAD SWAP2 MSTORE SWAP2 PUSH2 0x8BB JUMP JUMPDEST PUSH1 0x64 SWAP3 SWAP2 PUSH1 0x13 PUSH19 0x115490CC8C081C995CD8DD594819985A5B1959 PUSH1 0x6A SHL SWAP3 PUSH1 0x40 MLOAD SWAP5 PUSH3 0x461BCD PUSH1 0xE5 SHL DUP7 MSTORE PUSH1 0x4 DUP7 ADD MSTORE DUP5 ADD MSTORE DUP3 ADD MSTORE REVERT JUMPDEST PUSH2 0xA35 SWAP2 POP DUP5 RETURNDATASIZE DUP7 GT PUSH2 0x4BA JUMPI PUSH2 0x4AB DUP2 DUP4 PUSH2 0x27FE JUMP JUMPDEST CODESIZE PUSH2 0x9C6 JUMP JUMPDEST PUSH1 0x40 MLOAD RETURNDATASIZE DUP11 DUP3 RETURNDATACOPY RETURNDATASIZE SWAP1 REVERT JUMPDEST PUSH1 0x40 MLOAD PUSH3 0x461BCD PUSH1 0xE5 SHL DUP2 MSTORE PUSH1 0x4 DUP2 ADD DUP6 SWAP1 MSTORE PUSH1 0x11 DUP2 DUP5 ADD MSTORE PUSH17 0x4E6F7420656E6F75676820746F6B656E73 PUSH1 0x78 SHL DUP2 DUP6 ADD MSTORE PUSH1 0x64 SWAP1 REVERT JUMPDEST DUP1 SWAP3 POP DUP7 DUP1 SWAP3 POP RETURNDATASIZE DUP4 GT PUSH2 0xAA7 JUMPI JUMPDEST PUSH2 0xA96 DUP2 DUP4 PUSH2 0x27FE JUMP JUMPDEST DUP2 ADD SUB SLT PUSH2 0x59B JUMPI DUP6 SWAP1 MLOAD CODESIZE PUSH2 0x98B JUMP JUMPDEST POP RETURNDATASIZE PUSH2 0xA8C JUMP JUMPDEST PUSH1 0x40 MLOAD RETURNDATASIZE DUP12 DUP3 RETURNDATACOPY RETURNDATASIZE SWAP1 REVERT JUMPDEST PUSH23 0x21B0B73737BA103932B9B1BAB29039B0B632AA37B5B2B7 PUSH1 0x49 SHL PUSH1 0x64 SWAP3 PUSH1 0x17 PUSH1 0x40 MLOAD SWAP4 PUSH3 0x461BCD PUSH1 0xE5 SHL DUP6 MSTORE PUSH1 0x20 PUSH1 0x4 DUP7 ADD MSTORE DUP5 ADD MSTORE DUP3 ADD MSTORE REVERT JUMPDEST PUSH1 0x40 MLOAD PUSH3 0x461BCD PUSH1 0xE5 SHL DUP2 MSTORE PUSH1 0x20 PUSH1 0x4 DUP3 ADD MSTORE PUSH1 0x11 DUP2 DUP7 ADD MSTORE PUSH17 0x125B9D985B1A59081C9958DA5C1A595B9D PUSH1 0x7A SHL DUP2 DUP6 ADD MSTORE PUSH1 0x64 SWAP1 REVERT JUMPDEST POP CALLVALUE PUSH2 0x2BF JUMPI PUSH1 0x20 CALLDATASIZE PUSH1 0x3 NOT ADD SLT PUSH2 0x2BF JUMPI PUSH2 0x711 PUSH2 0xB49 PUSH2 0x243A JUMP JUMPDEST PUSH2 0xB51 PUSH2 0x2466 JUMP JUMPDEST PUSH2 0xB65 PUSH1 0x1 PUSH1 0x1 PUSH1 0xA0 SHL SUB DUP3 AND ISZERO ISZERO PUSH2 0x2927 JUMP JUMPDEST PUSH2 0x2576 JUMP JUMPDEST POP CALLVALUE PUSH2 0x2BF JUMPI PUSH1 0x20 CALLDATASIZE PUSH1 0x3 NOT ADD SLT PUSH2 0x2BF JUMPI PUSH2 0x711 PUSH2 0xB87 PUSH2 0x243A JUMP JUMPDEST PUSH2 0xB8F PUSH2 0x2466 JUMP JUMPDEST PUSH2 0xBA3 PUSH1 0x1 PUSH1 0x1 PUSH1 0xA0 SHL SUB DUP3 AND ISZERO ISZERO PUSH2 0x2927 JUMP JUMPDEST PUSH2 0x2659 JUMP JUMPDEST POP CALLVALUE PUSH2 0x2BF JUMPI DUP1 PUSH1 0x3 NOT CALLDATASIZE ADD SLT PUSH2 0x2BF JUMPI PUSH1 0x20 SWAP1 PUSH1 0x40 MLOAD SWAP1 DUP2 MSTORE RETURN JUMPDEST POP CALLVALUE PUSH2 0x2BF JUMPI PUSH1 0x40 CALLDATASIZE PUSH1 0x3 NOT ADD SLT PUSH2 0x2BF JUMPI PUSH1 0x40 PUSH2 0xBE0 PUSH2 0x2450 JUMP JUMPDEST SWAP2 PUSH1 0x4 CALLDATALOAD DUP2 MSTORE DUP1 PUSH1 0x20 MSTORE KECCAK256 SWAP1 PUSH1 0x1 DUP1 PUSH1 0xA0 SHL SUB AND PUSH1 0x0 MSTORE PUSH1 0x20 MSTORE PUSH1 0x20 PUSH1 0xFF PUSH1 0x40 PUSH1 0x0 KECCAK256 SLOAD AND PUSH1 0x40 MLOAD SWAP1 ISZERO ISZERO DUP2 MSTORE RETURN JUMPDEST POP CALLVALUE PUSH2 0x2BF JUMPI PUSH1 0x20 CALLDATASIZE PUSH1 0x3 NOT ADD SLT PUSH2 0x2BF JUMPI PUSH1 0x20 SWAP1 PUSH1 0x40 SWAP1 PUSH1 0x1 PUSH1 0x1 PUSH1 0xA0 SHL SUB PUSH2 0xC37 PUSH2 0x243A JUMP JUMPDEST AND DUP2 MSTORE PUSH1 0x14 DUP4 MSTORE KECCAK256 SLOAD PUSH1 0x40 MLOAD SWAP1 DUP2 MSTORE RETURN JUMPDEST POP CALLVALUE PUSH2 0x2BF JUMPI DUP1 PUSH1 0x3 NOT CALLDATASIZE ADD SLT PUSH2 0x2BF JUMPI PUSH1 0x20 PUSH1 0x4 SLOAD PUSH1 0x40 MLOAD SWAP1 DUP2 MSTORE RETURN JUMPDEST POP CALLVALUE PUSH2 0x2BF JUMPI DUP1 PUSH1 0x3 NOT CALLDATASIZE ADD SLT PUSH2 0x2BF JUMPI PUSH1 0x20 PUSH1 0x40 MLOAD PUSH1 0x0 DUP1 MLOAD PUSH1 0x20 PUSH2 0x2A03 DUP4 CODECOPY DUP2 MLOAD SWAP2 MSTORE DUP2 MSTORE RETURN JUMPDEST POP CALLVALUE PUSH2 0x2BF JUMPI PUSH1 0x20 CALLDATASIZE PUSH1 0x3 NOT ADD SLT PUSH2 0x2BF JUMPI PUSH2 0xCA9 PUSH2 0x243A JUMP JUMPDEST PUSH2 0xCB1 PUSH2 0x2466 JUMP JUMPDEST PUSH1 0x1 PUSH1 0x1 PUSH1 0xA0 SHL SUB SWAP1 DUP2 AND DUP1 DUP4 MSTORE PUSH1 0x15 PUSH1 0x20 MSTORE PUSH1 0x40 DUP4 KECCAK256 SLOAD SWAP1 SWAP2 AND ISZERO PUSH2 0xD07 JUMPI DUP1 DUP3 MSTORE PUSH1 0x15 PUSH1 0x20 SWAP1 DUP2 MSTORE PUSH1 0x40 DUP1 DUP5 KECCAK256 DUP1 SLOAD PUSH1 0x1 PUSH1 0x1 PUSH1 0xA0 SHL SUB NOT AND SWAP1 SSTORE MLOAD DUP4 DUP2 MSTORE PUSH1 0x0 DUP1 MLOAD PUSH1 0x20 PUSH2 0x29C3 DUP4 CODECOPY DUP2 MLOAD SWAP2 MSTORE SWAP2 SWAP1 LOG2 DUP1 RETURN JUMPDEST PUSH1 0x40 MLOAD PUSH3 0x461BCD PUSH1 0xE5 SHL DUP2 MSTORE PUSH1 0x20 PUSH1 0x4 DUP3 ADD MSTORE PUSH1 0x13 PUSH1 0x24 DUP3 ADD MSTORE PUSH19 0x4E6F206F7261636C6520746F2072656D6F7665 PUSH1 0x68 SHL PUSH1 0x44 DUP3 ADD MSTORE PUSH1 0x64 SWAP1 REVERT JUMPDEST POP CALLVALUE PUSH2 0x2BF JUMPI DUP1 PUSH1 0x3 NOT CALLDATASIZE ADD SLT PUSH2 0x2BF JUMPI PUSH2 0xD5B PUSH2 0x2466 JUMP JUMPDEST PUSH2 0xD63 PUSH2 0x2774 JUMP JUMPDEST PUSH1 0x1 PUSH1 0xFF NOT DUP2 SLOAD AND OR PUSH1 0x1 SSTORE PUSH1 0x20 PUSH1 0x40 MLOAD CALLER DUP2 MSTORE PUSH32 0x62E78CEA01BEE320CD4E420270B5EA74000D11B0C9F74754EBDBFC544B05A258 SWAP2 DUP3 SWAP2 LOG1 PUSH1 0x20 PUSH1 0x40 MLOAD CALLER DUP2 MSTORE LOG1 DUP1 RETURN JUMPDEST POP CALLVALUE PUSH2 0x2BF JUMPI DUP1 PUSH1 0x3 NOT CALLDATASIZE ADD SLT PUSH2 0x2BF JUMPI PUSH1 0x20 PUSH1 0x11 SLOAD PUSH1 0x40 MLOAD SWAP1 DUP2 MSTORE RETURN JUMPDEST POP CALLVALUE PUSH2 0x2BF JUMPI PUSH1 0x20 DUP1 PUSH1 0x3 NOT CALLDATASIZE ADD SLT PUSH2 0xFFA JUMPI PUSH2 0xDE1 PUSH2 0x243A JUMP JUMPDEST SWAP1 PUSH2 0xDEA PUSH2 0x24AC JUMP JUMPDEST PUSH2 0xDF2 PUSH2 0x28BD JUMP JUMPDEST PUSH1 0x8 SLOAD TIMESTAMP GT ISZERO PUSH2 0xFC8 JUMPI PUSH1 0x1 PUSH1 0x1 PUSH1 0xA0 SHL SUB DUP3 DUP2 AND SWAP3 SWAP1 DUP4 ISZERO PUSH2 0xF91 JUMPI PUSH1 0x3 SLOAD AND PUSH1 0x40 MLOAD PUSH4 0x70A08231 PUSH1 0xE0 SHL DUP2 MSTORE ADDRESS PUSH1 0x4 DUP3 ADD MSTORE DUP4 DUP2 PUSH1 0x24 DUP2 DUP6 GAS STATICCALL DUP1 ISZERO PUSH2 0xF86 JUMPI DUP7 SWAP1 PUSH2 0xF57 JUMPI JUMPDEST PUSH2 0xE49 SWAP2 POP PUSH1 0xC SLOAD SWAP1 PUSH2 0x291A JUMP JUMPDEST SWAP2 DUP3 ISZERO PUSH2 0xF1C JUMPI DUP3 PUSH2 0xE74 SWAP3 DUP6 SWAP3 DUP9 PUSH1 0x40 MLOAD DUP1 SWAP7 DUP2 SWAP6 DUP3 SWAP5 PUSH4 0xA9059CBB PUSH1 0xE0 SHL DUP5 MSTORE PUSH1 0x4 DUP5 ADD PUSH2 0x28A2 JUMP JUMPDEST SUB SWAP3 GAS CALL SWAP1 DUP2 ISZERO PUSH2 0xF11 JUMPI DUP6 SWAP2 PUSH2 0xEF4 JUMPI JUMPDEST POP ISZERO PUSH2 0xEBE JUMPI SWAP1 PUSH32 0xFCBF6553B2CFC097C2301F1C071469A8839B462E7287E3692F238CCFC6B9208F SWAP2 PUSH1 0x40 MLOAD SWAP1 DUP2 MSTORE LOG2 PUSH1 0x1 PUSH1 0x2 SSTORE DUP1 RETURN JUMPDEST PUSH1 0x40 MLOAD PUSH3 0x461BCD PUSH1 0xE5 SHL DUP2 MSTORE PUSH1 0x4 DUP2 ADD DUP4 SWAP1 MSTORE PUSH1 0xE PUSH1 0x24 DUP3 ADD MSTORE PUSH14 0x149958DB185A5B4819985A5B1959 PUSH1 0x92 SHL PUSH1 0x44 DUP3 ADD MSTORE PUSH1 0x64 SWAP1 REVERT JUMPDEST PUSH2 0xF0B SWAP2 POP DUP4 RETURNDATASIZE DUP6 GT PUSH2 0x4BA JUMPI PUSH2 0x4AB DUP2 DUP4 PUSH2 0x27FE JUMP JUMPDEST CODESIZE PUSH2 0xE86 JUMP JUMPDEST PUSH1 0x40 MLOAD RETURNDATASIZE DUP8 DUP3 RETURNDATACOPY RETURNDATASIZE SWAP1 REVERT JUMPDEST PUSH1 0x40 MLOAD PUSH3 0x461BCD PUSH1 0xE5 SHL DUP2 MSTORE PUSH1 0x4 DUP2 ADD DUP6 SWAP1 MSTORE PUSH1 0x13 PUSH1 0x24 DUP3 ADD MSTORE PUSH19 0x4E6F20756E636C61696D656420746F6B656E73 PUSH1 0x68 SHL PUSH1 0x44 DUP3 ADD MSTORE PUSH1 0x64 SWAP1 REVERT JUMPDEST POP DUP4 DUP2 DUP2 RETURNDATASIZE DUP4 GT PUSH2 0xF7F JUMPI JUMPDEST PUSH2 0xF6D DUP2 DUP4 PUSH2 0x27FE JUMP JUMPDEST DUP2 ADD SUB SLT PUSH2 0x59B JUMPI PUSH2 0xE49 SWAP1 MLOAD PUSH2 0xE3B JUMP JUMPDEST POP RETURNDATASIZE PUSH2 0xF63 JUMP JUMPDEST PUSH1 0x40 MLOAD RETURNDATASIZE DUP9 DUP3 RETURNDATACOPY RETURNDATASIZE SWAP1 REVERT JUMPDEST PUSH1 0x40 MLOAD PUSH3 0x461BCD PUSH1 0xE5 SHL DUP2 MSTORE PUSH1 0x4 DUP2 ADD DUP5 SWAP1 MSTORE PUSH1 0xF PUSH1 0x24 DUP3 ADD MSTORE PUSH15 0x496E76616C69642061646472657373 PUSH1 0x88 SHL PUSH1 0x44 DUP3 ADD MSTORE PUSH1 0x64 SWAP1 REVERT JUMPDEST PUSH1 0x64 SWAP1 PUSH1 0x40 MLOAD SWAP1 PUSH3 0x461BCD PUSH1 0xE5 SHL DUP3 MSTORE PUSH1 0x4 DUP3 ADD MSTORE PUSH1 0xB PUSH1 0x24 DUP3 ADD MSTORE PUSH11 0x139BDD081B585D1D5C9959 PUSH1 0xAA SHL PUSH1 0x44 DUP3 ADD MSTORE REVERT JUMPDEST POP DUP1 REVERT JUMPDEST POP CALLVALUE PUSH2 0x2BF JUMPI PUSH1 0x40 CALLDATASIZE PUSH1 0x3 NOT ADD SLT PUSH2 0x2BF JUMPI PUSH2 0x1018 PUSH2 0x243A JUMP JUMPDEST PUSH2 0x1020 PUSH2 0x2450 JUMP JUMPDEST PUSH2 0x1028 PUSH2 0x2466 JUMP JUMPDEST PUSH1 0x1 PUSH1 0x1 PUSH1 0xA0 SHL SUB SWAP1 DUP2 AND SWAP2 DUP3 ISZERO PUSH2 0x1075 JUMPI AND DUP1 DUP4 MSTORE PUSH1 0x15 PUSH1 0x20 SWAP1 DUP2 MSTORE PUSH1 0x40 DUP1 DUP6 KECCAK256 DUP1 SLOAD PUSH1 0x1 PUSH1 0x1 PUSH1 0xA0 SHL SUB NOT AND DUP6 OR SWAP1 SSTORE MLOAD SWAP3 DUP4 MSTORE SWAP1 SWAP2 PUSH1 0x0 DUP1 MLOAD PUSH1 0x20 PUSH2 0x29C3 DUP4 CODECOPY DUP2 MLOAD SWAP2 MSTORE SWAP2 SWAP1 LOG2 DUP1 RETURN JUMPDEST PUSH1 0x40 MLOAD PUSH3 0x461BCD PUSH1 0xE5 SHL DUP2 MSTORE PUSH1 0x20 PUSH1 0x4 DUP3 ADD MSTORE PUSH1 0x16 PUSH1 0x24 DUP3 ADD MSTORE PUSH22 0x496E76616C6964206F7261636C652061646472657373 PUSH1 0x50 SHL PUSH1 0x44 DUP3 ADD MSTORE PUSH1 0x64 SWAP1 REVERT JUMPDEST POP CALLVALUE PUSH2 0x2BF JUMPI PUSH1 0x20 CALLDATASIZE PUSH1 0x3 NOT ADD SLT PUSH2 0x2BF JUMPI PUSH32 0x6B361C807733CC94A3B7BDA39C1C94DCC0511E91AA47B0F7F918068E93976890 PUSH1 0x20 PUSH1 0x4 CALLDATALOAD PUSH2 0x10F3 PUSH2 0x24AC JUMP JUMPDEST PUSH2 0x10FE DUP2 ISZERO ISZERO PUSH2 0x28DE JUMP JUMPDEST DUP1 PUSH1 0x11 SSTORE PUSH1 0x40 MLOAD SWAP1 DUP2 MSTORE LOG1 DUP1 RETURN JUMPDEST POP PUSH1 0x60 CALLDATASIZE PUSH1 0x3 NOT ADD SLT PUSH2 0x2BF JUMPI PUSH2 0x1121 PUSH2 0x243A JUMP JUMPDEST SWAP1 PUSH2 0x112A PUSH2 0x2450 JUMP JUMPDEST SWAP2 PUSH2 0x1133 PUSH2 0x28BD JUMP JUMPDEST PUSH2 0x113B PUSH2 0x2774 JUMP JUMPDEST PUSH1 0xE SLOAD PUSH1 0x1 PUSH1 0x1 PUSH1 0xA0 SHL SUB AND CALLER SUB PUSH2 0x61D JUMPI PUSH1 0x1 PUSH1 0x1 PUSH1 0xA0 SHL SUB DUP4 AND ISZERO PUSH2 0x1B95 JUMPI PUSH1 0xFF PUSH1 0xD SLOAD AND PUSH2 0x1B5F JUMPI PUSH1 0x6 SLOAD TIMESTAMP LT PUSH2 0x1B27 JUMPI PUSH1 0x7 SLOAD TIMESTAMP LT ISZERO PUSH2 0x1AF5 JUMPI PUSH1 0x1 PUSH1 0x1 PUSH1 0xA0 SHL SUB DUP2 AND DUP3 MSTORE PUSH1 0x12 PUSH1 0x20 MSTORE PUSH1 0x40 DUP3 KECCAK256 SLOAD PUSH1 0xFF AND ISZERO PUSH2 0x1AB8 JUMPI PUSH1 0x44 CALLDATALOAD ISZERO PUSH2 0x1A85 JUMPI PUSH1 0x1 PUSH1 0x1 PUSH1 0xA0 SHL SUB DUP2 DUP2 AND DUP4 MSTORE PUSH1 0x15 PUSH1 0x20 MSTORE PUSH1 0x40 DUP4 KECCAK256 SLOAD AND DUP1 ISZERO PUSH2 0x1A4F JUMPI PUSH1 0x40 DUP1 MLOAD PUSH4 0x15F789A9 PUSH1 0xE2 SHL DUP2 MSTORE SWAP2 DUP3 SWAP1 PUSH1 0x4 SWAP1 DUP3 SWAP1 GAS STATICCALL SWAP1 DUP2 ISZERO PUSH2 0x1A44 JUMPI DUP4 SWAP2 PUSH2 0x19F6 JUMPI JUMPDEST POP PUSH2 0x11F2 DUP4 DUP3 PUSH1 0x1B SIGNEXTEND SGT PUSH2 0x28DE JUMP JUMPDEST PUSH1 0x1 PUSH1 0x1 PUSH1 0xA0 SHL SUB DUP3 AND PUSH2 0x1983 JUMPI PUSH1 0x12 JUMPDEST DUP2 PUSH1 0x1B SIGNEXTEND PUSH1 0x44 CALLDATALOAD MUL SWAP2 PUSH1 0x44 CALLDATALOAD DUP4 DIV SWAP1 PUSH1 0x1B SIGNEXTEND SUB PUSH2 0x196F JUMPI PUSH8 0xDE0B6B3A7640000 DUP3 MUL SWAP2 DUP1 DUP4 DIV PUSH8 0xDE0B6B3A7640000 EQ SWAP1 ISZERO OR ISZERO PUSH2 0x196F JUMPI PUSH1 0xFF AND PUSH1 0x4D DUP2 GT PUSH2 0x196F JUMPI PUSH8 0xDE0B6B3A7640000 SWAP2 PUSH2 0x125D SWAP2 PUSH1 0xA EXP SWAP1 PUSH2 0x27B5 JUMP JUMPDEST DIV SWAP2 PUSH1 0x4 SLOAD DUP4 LT PUSH2 0x1933 JUMPI PUSH1 0x1 PUSH1 0x1 PUSH1 0xA0 SHL SUB DUP5 AND DUP2 MSTORE PUSH1 0x14 PUSH1 0x20 MSTORE PUSH1 0x40 DUP2 KECCAK256 SLOAD PUSH2 0x1289 SWAP1 DUP5 SWAP1 PUSH2 0x2792 JUMP JUMPDEST PUSH1 0x5 SLOAD LT PUSH2 0x18F5 JUMPI PUSH1 0xB SLOAD SWAP3 PUSH2 0x129F DUP2 DUP6 PUSH2 0x2792 JUMP JUMPDEST PUSH1 0xA SLOAD LT PUSH2 0x18C2 JUMPI PUSH8 0xDE0B6B3A7640000 DUP2 MUL DUP2 DUP2 DIV PUSH8 0xDE0B6B3A7640000 EQ DUP3 ISZERO OR ISZERO PUSH2 0x18AE JUMPI PUSH1 0x11 SLOAD PUSH2 0x12D3 SWAP2 PUSH2 0x27B5 JUMP JUMPDEST SWAP4 DUP5 ISZERO PUSH2 0x1872 JUMPI DUP2 PUSH2 0x12E4 SWAP2 PUSH2 0x2792 JUMP JUMPDEST PUSH1 0xB SSTORE PUSH1 0x1 PUSH1 0x1 PUSH1 0xA0 SHL SUB DUP6 AND DUP3 MSTORE PUSH1 0x14 PUSH1 0x20 MSTORE PUSH1 0x40 DUP3 KECCAK256 DUP1 SLOAD SWAP1 SWAP2 PUSH2 0x1309 SWAP2 PUSH2 0x2792 JUMP JUMPDEST SWAP1 SSTORE PUSH1 0xFF PUSH1 0x9 SLOAD AND PUSH2 0x17F0 JUMPI JUMPDEST PUSH1 0x1 PUSH1 0x1 PUSH1 0xA0 SHL SUB DUP3 AND PUSH2 0x1679 JUMPI PUSH1 0x44 CALLDATALOAD CALLVALUE SUB PUSH2 0x163A JUMPI PUSH1 0x10 SLOAD PUSH1 0x1 PUSH1 0x1 PUSH1 0xA0 SHL SUB AND DUP1 EXTCODESIZE ISZERO PUSH2 0xFFA JUMPI DUP2 PUSH1 0x24 SWAP2 PUSH1 0x40 MLOAD SWAP3 DUP4 DUP1 SWAP3 PUSH4 0x33BB7F91 PUSH1 0xE0 SHL DUP3 MSTORE ADDRESS PUSH1 0x4 DUP4 ADD MSTORE CALLVALUE SWAP1 GAS CALL DUP1 ISZERO PUSH2 0x485 JUMPI SWAP1 DUP3 SWAP2 PUSH2 0x1626 JUMPI JUMPDEST POP POP JUMPDEST PUSH1 0x9 SLOAD PUSH1 0xFF AND ISZERO PUSH2 0x15DE JUMPI PUSH1 0xD SLOAD PUSH1 0x8 SHR PUSH1 0xFF AND ISZERO PUSH2 0x1523 JUMPI PUSH1 0x3 SLOAD PUSH1 0xD SLOAD PUSH1 0x40 MLOAD PUSH4 0x95EA7B3 PUSH1 0xE0 SHL DUP2 MSTORE SWAP2 PUSH1 0x20 SWAP2 DUP4 SWAP2 PUSH1 0x1 PUSH1 0x1 PUSH1 0xA0 SHL SUB SWAP1 DUP2 AND SWAP2 DUP4 SWAP2 DUP8 SWAP2 DUP4 SWAP2 PUSH2 0x13CA SWAP2 DUP13 SWAP2 PUSH1 0x10 SWAP2 SWAP1 SWAP2 SHR AND PUSH1 0x4 DUP5 ADD PUSH2 0x28A2 JUMP JUMPDEST SUB SWAP3 GAS CALL SWAP1 DUP2 ISZERO PUSH2 0x485 JUMPI DUP3 SWAP2 PUSH2 0x1504 JUMPI JUMPDEST POP ISZERO PUSH2 0x14CE JUMPI PUSH1 0xD SLOAD PUSH1 0x10 SHR PUSH1 0x1 PUSH1 0x1 PUSH1 0xA0 SHL SUB AND DUP1 EXTCODESIZE ISZERO PUSH2 0xFFA JUMPI DUP2 PUSH1 0x40 MLOAD DUP1 SWAP3 PUSH4 0xE306C43 PUSH1 0xE1 SHL DUP3 MSTORE DUP2 DUP4 DUP2 PUSH2 0x1419 DUP11 DUP13 PUSH1 0x4 DUP5 ADD PUSH2 0x28A2 JUMP JUMPDEST SUB SWAP3 GAS CALL DUP1 ISZERO PUSH2 0x485 JUMPI PUSH2 0x14BA JUMPI JUMPDEST POP POP PUSH1 0x0 DUP1 MLOAD PUSH1 0x20 PUSH2 0x29A3 DUP4 CODECOPY DUP2 MLOAD SWAP2 MSTORE PUSH1 0x60 PUSH1 0x20 SWAP5 JUMPDEST PUSH1 0x40 DUP1 MLOAD PUSH1 0x1 PUSH1 0x1 PUSH1 0xA0 SHL SUB SWAP6 DUP7 AND DUP2 MSTORE PUSH1 0x44 CALLDATALOAD DUP9 DUP3 ADD MSTORE SWAP1 DUP2 ADD DUP7 SWAP1 MSTORE SWAP4 AND SWAP3 LOG2 PUSH1 0xB SLOAD PUSH1 0xA SLOAD DUP2 LT ISZERO PUSH2 0x147D JUMPI JUMPDEST POP PUSH1 0x1 PUSH1 0x2 SSTORE PUSH1 0x40 MLOAD SWAP1 DUP2 MSTORE RETURN JUMPDEST DUP3 PUSH32 0xCB67F20F64495B30F15524C55F90201DD6571D6B5C19DAC183D2AEB25315B2DC SWAP2 PUSH1 0x1 PUSH1 0xFF NOT PUSH1 0xD SLOAD AND OR PUSH1 0xD SSTORE PUSH1 0x40 MLOAD SWAP1 DUP2 MSTORE LOG1 CODESIZE PUSH2 0x146F JUMP JUMPDEST PUSH2 0x14C4 DUP3 SWAP2 PUSH2 0x27D5 JUMP JUMPDEST PUSH2 0x2BF JUMPI DUP1 PUSH2 0x1428 JUMP JUMPDEST PUSH1 0x40 MLOAD PUSH3 0x461BCD PUSH1 0xE5 SHL DUP2 MSTORE PUSH1 0x20 PUSH1 0x4 DUP3 ADD MSTORE PUSH1 0xE PUSH1 0x24 DUP3 ADD MSTORE PUSH14 0x105C1C1C9BDD994819985A5B1959 PUSH1 0x92 SHL PUSH1 0x44 DUP3 ADD MSTORE PUSH1 0x64 SWAP1 REVERT JUMPDEST PUSH2 0x151D SWAP2 POP PUSH1 0x20 RETURNDATASIZE PUSH1 0x20 GT PUSH2 0x4BA JUMPI PUSH2 0x4AB DUP2 DUP4 PUSH2 0x27FE JUMP JUMPDEST CODESIZE PUSH2 0x13DC JUMP JUMPDEST PUSH1 0x3 SLOAD PUSH1 0x40 MLOAD PUSH4 0xA9059CBB PUSH1 0xE0 SHL DUP2 MSTORE SWAP1 PUSH1 0x20 SWAP1 DUP3 SWAP1 PUSH1 0x1 PUSH1 0x1 PUSH1 0xA0 SHL SUB AND DUP2 DUP6 DUP2 PUSH2 0x1553 DUP11 DUP13 PUSH1 0x4 DUP5 ADD PUSH2 0x28A2 JUMP JUMPDEST SUB SWAP3 GAS CALL SWAP2 DUP3 ISZERO PUSH2 0x565 JUMPI SWAP2 PUSH2 0x15BF JUMPI JUMPDEST POP ISZERO PUSH2 0x1583 JUMPI PUSH1 0x0 DUP1 MLOAD PUSH1 0x20 PUSH2 0x29A3 DUP4 CODECOPY DUP2 MLOAD SWAP2 MSTORE PUSH1 0x60 PUSH1 0x20 SWAP5 PUSH2 0x143F JUMP JUMPDEST PUSH1 0x40 MLOAD PUSH3 0x461BCD PUSH1 0xE5 SHL DUP2 MSTORE PUSH1 0x20 PUSH1 0x4 DUP3 ADD MSTORE PUSH1 0x14 PUSH1 0x24 DUP3 ADD MSTORE PUSH20 0x105D5D1BCB5D1C985B9CD9995C8819985A5B1959 PUSH1 0x62 SHL PUSH1 0x44 DUP3 ADD MSTORE PUSH1 0x64 SWAP1 REVERT JUMPDEST PUSH2 0x15D8 SWAP2 POP PUSH1 0x20 RETURNDATASIZE PUSH1 0x20 GT PUSH2 0x4BA JUMPI PUSH2 0x4AB DUP2 DUP4 PUSH2 0x27FE JUMP JUMPDEST CODESIZE PUSH2 0x1564 JUMP JUMPDEST PUSH1 0x60 PUSH1 0x20 SWAP5 PUSH1 0x40 PUSH1 0x0 DUP1 MLOAD PUSH1 0x20 PUSH2 0x29A3 DUP4 CODECOPY DUP2 MLOAD SWAP2 MSTORE SWAP4 PUSH1 0x1 DUP1 PUSH1 0xA0 SHL SUB DUP4 AND DUP2 MSTORE PUSH1 0x13 DUP9 MSTORE KECCAK256 PUSH2 0x1610 DUP7 DUP3 SLOAD PUSH2 0x2792 JUMP JUMPDEST SWAP1 SSTORE PUSH2 0x161E DUP6 PUSH1 0xC SLOAD PUSH2 0x2792 JUMP JUMPDEST PUSH1 0xC SSTORE PUSH2 0x143F JUMP JUMPDEST PUSH2 0x162F SWAP1 PUSH2 0x27D5 JUMP JUMPDEST PUSH2 0x2BF JUMPI DUP1 CODESIZE PUSH2 0x136D JUMP JUMPDEST PUSH1 0x40 MLOAD PUSH3 0x461BCD PUSH1 0xE5 SHL DUP2 MSTORE PUSH1 0x20 PUSH1 0x4 DUP3 ADD MSTORE PUSH1 0x17 PUSH1 0x24 DUP3 ADD MSTORE PUSH23 0x125B98DBDC9C9958DD081B985D1A5D9948185B5BDD5B9D PUSH1 0x4A SHL PUSH1 0x44 DUP3 ADD MSTORE PUSH1 0x64 SWAP1 REVERT JUMPDEST CALLVALUE PUSH2 0x17A1 JUMPI PUSH1 0x40 MLOAD PUSH4 0x23B872DD PUSH1 0xE0 SHL DUP2 MSTORE PUSH1 0x20 DUP2 DUP1 PUSH2 0x16A0 PUSH1 0x44 CALLDATALOAD ADDRESS DUP11 PUSH1 0x4 DUP6 ADD PUSH2 0x2880 JUMP JUMPDEST SUB DUP2 DUP6 PUSH1 0x1 PUSH1 0x1 PUSH1 0xA0 SHL SUB DUP9 AND GAS CALL DUP1 ISZERO PUSH2 0x485 JUMPI PUSH2 0x1782 JUMPI JUMPDEST POP PUSH1 0x10 SLOAD PUSH1 0x40 MLOAD PUSH4 0x95EA7B3 PUSH1 0xE0 SHL DUP2 MSTORE SWAP1 PUSH1 0x20 SWAP1 DUP3 SWAP1 DUP2 SWAP1 PUSH2 0x16ED SWAP1 PUSH1 0x44 CALLDATALOAD SWAP1 PUSH1 0x1 PUSH1 0x1 PUSH1 0xA0 SHL SUB AND PUSH1 0x4 DUP5 ADD PUSH2 0x28A2 JUMP JUMPDEST SUB DUP2 DUP6 PUSH1 0x1 PUSH1 0x1 PUSH1 0xA0 SHL SUB DUP9 AND GAS CALL DUP1 ISZERO PUSH2 0x485 JUMPI PUSH2 0x1763 JUMPI JUMPDEST POP PUSH1 0x10 SLOAD PUSH1 0x1 PUSH1 0x1 PUSH1 0xA0 SHL SUB AND DUP1 EXTCODESIZE ISZERO PUSH2 0xFFA JUMPI DUP2 PUSH1 0x40 MLOAD DUP1 SWAP3 PUSH4 0x1F61F2F5 PUSH1 0xE3 SHL DUP3 MSTORE DUP2 DUP4 DUP2 PUSH2 0x173F PUSH1 0x44 CALLDATALOAD DUP11 ADDRESS PUSH1 0x4 DUP6 ADD PUSH2 0x2880 JUMP JUMPDEST SUB SWAP3 GAS CALL DUP1 ISZERO PUSH2 0x485 JUMPI PUSH2 0x1754 JUMPI JUMPDEST POP PUSH2 0x1370 JUMP JUMPDEST PUSH2 0x175D SWAP1 PUSH2 0x27D5 JUMP JUMPDEST CODESIZE PUSH2 0x174E JUMP JUMPDEST PUSH2 0x177B SWAP1 PUSH1 0x20 RETURNDATASIZE PUSH1 0x20 GT PUSH2 0x4BA JUMPI PUSH2 0x4AB DUP2 DUP4 PUSH2 0x27FE JUMP JUMPDEST POP CODESIZE PUSH2 0x1707 JUMP JUMPDEST PUSH2 0x179A SWAP1 PUSH1 0x20 RETURNDATASIZE PUSH1 0x20 GT PUSH2 0x4BA JUMPI PUSH2 0x4AB DUP2 DUP4 PUSH2 0x27FE JUMP JUMPDEST POP CODESIZE PUSH2 0x16BA JUMP JUMPDEST PUSH1 0x40 MLOAD PUSH3 0x461BCD PUSH1 0xE5 SHL DUP2 MSTORE PUSH1 0x20 PUSH1 0x4 DUP3 ADD MSTORE PUSH1 0x21 PUSH1 0x24 DUP3 ADD MSTORE PUSH32 0x446F206E6F742073656E642045544820666F7220746F6B656E207061796D656E PUSH1 0x44 DUP3 ADD MSTORE PUSH1 0x1D PUSH1 0xFA SHL PUSH1 0x64 DUP3 ADD MSTORE PUSH1 0x84 SWAP1 REVERT JUMPDEST PUSH1 0x3 SLOAD PUSH1 0x40 MLOAD PUSH4 0x70A08231 PUSH1 0xE0 SHL DUP2 MSTORE ADDRESS PUSH1 0x4 DUP3 ADD MSTORE SWAP1 PUSH1 0x20 SWAP1 DUP3 SWAP1 PUSH1 0x24 SWAP1 DUP3 SWAP1 PUSH1 0x1 PUSH1 0x1 PUSH1 0xA0 SHL SUB AND GAS STATICCALL DUP1 ISZERO PUSH2 0x485 JUMPI DUP5 SWAP1 DUP4 SWAP1 PUSH2 0x183C JUMPI JUMPDEST PUSH2 0x1837 SWAP3 POP LT ISZERO PUSH2 0x2821 JUMP JUMPDEST PUSH2 0x1316 JUMP JUMPDEST POP POP PUSH1 0x20 DUP2 RETURNDATASIZE PUSH1 0x20 GT PUSH2 0x186A JUMPI JUMPDEST DUP2 PUSH2 0x1857 PUSH1 0x20 SWAP4 DUP4 PUSH2 0x27FE JUMP JUMPDEST DUP2 ADD SUB SLT PUSH2 0xFFA JUMPI DUP4 PUSH2 0x1837 SWAP2 MLOAD PUSH2 0x182B JUMP JUMPDEST RETURNDATASIZE SWAP2 POP PUSH2 0x184A JUMP JUMPDEST PUSH1 0x40 MLOAD PUSH3 0x461BCD PUSH1 0xE5 SHL DUP2 MSTORE PUSH1 0x20 PUSH1 0x4 DUP3 ADD MSTORE PUSH1 0x14 PUSH1 0x24 DUP3 ADD MSTORE PUSH20 0x546F6B656E20616D6F756E7420746F6F206C6F77 PUSH1 0x60 SHL PUSH1 0x44 DUP3 ADD MSTORE PUSH1 0x64 SWAP1 REVERT JUMPDEST PUSH4 0x4E487B71 PUSH1 0xE0 SHL DUP4 MSTORE PUSH1 0x11 PUSH1 0x4 MSTORE PUSH1 0x24 DUP4 REVERT JUMPDEST PUSH1 0x40 MLOAD PUSH3 0x461BCD PUSH1 0xE5 SHL DUP2 MSTORE PUSH1 0x20 PUSH1 0x4 DUP3 ADD MSTORE PUSH1 0xB PUSH1 0x24 DUP3 ADD MSTORE PUSH11 0x457863656564732063617 PUSH1 0xAC SHL PUSH1 0x44 DUP3 ADD MSTORE PUSH1 0x64 SWAP1 REVERT JUMPDEST PUSH1 0x40 MLOAD PUSH3 0x461BCD PUSH1 0xE5 SHL DUP2 MSTORE PUSH1 0x20 PUSH1 0x4 DUP3 ADD MSTORE PUSH1 0x16 PUSH1 0x24 DUP3 ADD MSTORE PUSH22 0x115E18D959591CC81B585E081A5B9D995CDD1B595B9D PUSH1 0x52 SHL PUSH1 0x44 DUP3 ADD MSTORE PUSH1 0x64 SWAP1 REVERT JUMPDEST PUSH1 0x40 MLOAD PUSH3 0x461BCD PUSH1 0xE5 SHL DUP2 MSTORE PUSH1 0x20 PUSH1 0x4 DUP3 ADD MSTORE PUSH1 0x14 PUSH1 0x24 DUP3 ADD MSTORE PUSH20 0x10995B1BDDC81B5A5B881A5B9D995CDD1B595B9D PUSH1 0x62 SHL PUSH1 0x44 DUP3 ADD MSTORE PUSH1 0x64 SWAP1 REVERT JUMPDEST PUSH4 0x4E487B71 PUSH1 0xE0 SHL DUP5 MSTORE PUSH1 0x11 PUSH1 0x4 MSTORE PUSH1 0x24 DUP5 REVERT JUMPDEST PUSH1 0x40 MLOAD PUSH4 0x313CE567 PUSH1 0xE0 SHL DUP2 MSTORE PUSH1 0x20 DUP2 PUSH1 0x4 DUP2 PUSH1 0x1 PUSH1 0x1 PUSH1 0xA0 SHL SUB DUP8 AND GAS STATICCALL SWAP1 DUP2 ISZERO PUSH2 0x4C1 JUMPI DUP5 SWAP2 PUSH2 0x19B6 JUMPI JUMPDEST POP PUSH2 0x1203 JUMP JUMPDEST SWAP1 POP PUSH1 0x20 DUP2 RETURNDATASIZE PUSH1 0x20 GT PUSH2 0x19EE JUMPI JUMPDEST DUP2 PUSH2 0x19D1 PUSH1 0x20 SWAP4 DUP4 PUSH2 0x27FE JUMP JUMPDEST DUP2 ADD SUB SLT PUSH2 0x19EA JUMPI MLOAD PUSH1 0xFF DUP2 AND DUP2 SUB PUSH2 0x19EA JUMPI CODESIZE PUSH2 0x19B0 JUMP JUMPDEST DUP4 DUP1 REVERT JUMPDEST RETURNDATASIZE SWAP2 POP PUSH2 0x19C4 JUMP JUMPDEST SWAP1 POP PUSH1 0x40 DUP2 RETURNDATASIZE PUSH1 0x40 GT PUSH2 0x1A3C JUMPI JUMPDEST DUP2 PUSH2 0x1A11 PUSH1 0x40 SWAP4 DUP4 PUSH2 0x27FE JUMP JUMPDEST DUP2 ADD SUB SLT PUSH2 0x490 JUMPI DUP1 MLOAD SWAP1 DUP2 PUSH1 0x1B SIGNEXTEND DUP3 SUB PUSH2 0x19EA JUMPI PUSH1 0x20 ADD MLOAD PUSH4 0xFFFFFFFF DUP2 AND SUB PUSH2 0x490 JUMPI CODESIZE PUSH2 0x11E3 JUMP JUMPDEST RETURNDATASIZE SWAP2 POP PUSH2 0x1A04 JUMP JUMPDEST PUSH1 0x40 MLOAD RETURNDATASIZE DUP6 DUP3 RETURNDATACOPY RETURNDATASIZE SWAP1 REVERT JUMPDEST PUSH1 0x40 MLOAD PUSH3 0x461BCD PUSH1 0xE5 SHL DUP2 MSTORE PUSH1 0x20 PUSH1 0x4 DUP3 ADD MSTORE PUSH1 0xE PUSH1 0x24 DUP3 ADD MSTORE PUSH14 0x13DC9858DB19481B9BDD081CD95D PUSH1 0x92 SHL PUSH1 0x44 DUP3 ADD MSTORE PUSH1 0x64 SWAP1 REVERT JUMPDEST PUSH1 0x40 MLOAD PUSH3 0x461BCD PUSH1 0xE5 SHL DUP2 MSTORE PUSH1 0x20 PUSH1 0x4 DUP3 ADD MSTORE PUSH1 0xB PUSH1 0x24 DUP3 ADD MSTORE PUSH11 0x16995C9BC8185B5BDD5B9D PUSH1 0xAA SHL PUSH1 0x44 DUP3 ADD MSTORE PUSH1 0x64 SWAP1 REVERT JUMPDEST PUSH1 0x40 MLOAD PUSH3 0x461BCD PUSH1 0xE5 SHL DUP2 MSTORE PUSH1 0x20 PUSH1 0x4 DUP3 ADD MSTORE PUSH1 0x15 PUSH1 0x24 DUP3 ADD MSTORE PUSH21 0x151BDAD95B881B9BDD081DDA1A5D195B1A5CDD1959 PUSH1 0x5A SHL PUSH1 0x44 DUP3 ADD MSTORE PUSH1 0x64 SWAP1 REVERT JUMPDEST PUSH1 0x40 MLOAD PUSH3 0x461BCD PUSH1 0xE5 SHL DUP2 MSTORE PUSH1 0x20 PUSH1 0x4 DUP3 ADD MSTORE PUSH1 0xA PUSH1 0x24 DUP3 ADD MSTORE PUSH10 0x14D85B1948195B991959 PUSH1 0xB2 SHL PUSH1 0x44 DUP3 ADD MSTORE PUSH1 0x64 SWAP1 REVERT JUMPDEST PUSH1 0x40 MLOAD PUSH3 0x461BCD PUSH1 0xE5 SHL DUP2 MSTORE PUSH1 0x20 PUSH1 0x4 DUP3 ADD MSTORE PUSH1 0x10 PUSH1 0x24 DUP3 ADD MSTORE PUSH16 0x14D85B19481B9BDD081CDD185C9D1959 PUSH1 0x82 SHL PUSH1 0x44 DUP3 ADD MSTORE PUSH1 0x64 SWAP1 REVERT JUMPDEST PUSH1 0x40 MLOAD PUSH3 0x461BCD PUSH1 0xE5 SHL DUP2 MSTORE PUSH1 0x20 PUSH1 0x4 DUP3 ADD MSTORE PUSH1 0xE PUSH1 0x24 DUP3 ADD MSTORE PUSH14 0x14D85B19481A5CC818DB1BDCD959 PUSH1 0x92 SHL PUSH1 0x44 DUP3 ADD MSTORE PUSH1 0x64 SWAP1 REVERT JUMPDEST PUSH1 0x40 MLOAD PUSH3 0x461BCD PUSH1 0xE5 SHL DUP2 MSTORE PUSH1 0x20 PUSH1 0x4 DUP3 ADD MSTORE PUSH1 0x18 PUSH1 0x24 DUP3 ADD MSTORE PUSH24 0x496E76616C696420696E766573746F722061646472657373 PUSH1 0x40 SHL PUSH1 0x44 DUP3 ADD MSTORE PUSH1 0x64 SWAP1 REVERT JUMPDEST POP CALLVALUE PUSH2 0x2BF JUMPI DUP1 PUSH1 0x3 NOT CALLDATASIZE ADD SLT PUSH2 0x2BF JUMPI PUSH1 0xF SLOAD PUSH1 0x40 MLOAD PUSH1 0x1 PUSH1 0x1 PUSH1 0xA0 SHL SUB SWAP1 SWAP2 AND DUP2 MSTORE PUSH1 0x20 SWAP1 RETURN JUMPDEST POP CALLVALUE PUSH2 0x2BF JUMPI DUP1 PUSH1 0x3 NOT CALLDATASIZE ADD SLT PUSH2 0x2BF JUMPI PUSH1 0x20 PUSH1 0xFF PUSH1 0x1 SLOAD AND PUSH1 0x40 MLOAD SWAP1 ISZERO ISZERO DUP2 MSTORE RETURN JUMPDEST POP CALLVALUE PUSH2 0x2BF JUMPI DUP1 PUSH1 0x3 NOT CALLDATASIZE ADD SLT PUSH2 0x2BF JUMPI PUSH1 0x20 PUSH1 0xFF PUSH1 0xD SLOAD PUSH1 0x8 SHR AND PUSH1 0x40 MLOAD SWAP1 ISZERO ISZERO DUP2 MSTORE RETURN JUMPDEST POP CALLVALUE PUSH2 0x2BF JUMPI DUP1 PUSH1 0x3 NOT CALLDATASIZE ADD SLT PUSH2 0x2BF JUMPI PUSH1 0xE SLOAD PUSH1 0x40 MLOAD PUSH1 0x1 PUSH1 0x1 PUSH1 0xA0 SHL SUB SWAP1 SWAP2 AND DUP2 MSTORE PUSH1 0x20 SWAP1 RETURN JUMPDEST POP CALLVALUE PUSH2 0x2BF JUMPI DUP1 PUSH1 0x3 NOT CALLDATASIZE ADD SLT PUSH2 0x2BF JUMPI PUSH2 0x1C89 PUSH2 0x2466 JUMP JUMPDEST PUSH1 0x1 SLOAD PUSH1 0xFF DUP2 AND ISZERO PUSH2 0x1CD5 JUMPI PUSH1 0xFF NOT AND PUSH1 0x1 SSTORE PUSH1 0x20 PUSH1 0x40 MLOAD CALLER DUP2 MSTORE PUSH32 0x5DB9EE0A495BF2E6FF9C91A7834C1BA4FDD244A5E8AA4E537BD38AEAE4B073AA SWAP2 DUP3 SWAP2 LOG1 PUSH1 0x20 PUSH1 0x40 MLOAD CALLER DUP2 MSTORE LOG1 DUP1 RETURN JUMPDEST PUSH1 0x40 MLOAD PUSH4 0x8DFC202B PUSH1 0xE0 SHL DUP2 MSTORE PUSH1 0x4 SWAP1 REVERT JUMPDEST POP CALLVALUE PUSH2 0x2BF JUMPI DUP1 PUSH1 0x3 NOT CALLDATASIZE ADD SLT PUSH2 0x2BF JUMPI PUSH1 0xD SLOAD PUSH1 0x40 MLOAD PUSH1 0x10 SWAP2 SWAP1 SWAP2 SHR PUSH1 0x1 PUSH1 0x1 PUSH1 0xA0 SHL SUB AND DUP2 MSTORE PUSH1 0x20 SWAP1 RETURN JUMPDEST POP CALLVALUE PUSH2 0x2BF JUMPI PUSH1 0x20 CALLDATASIZE PUSH1 0x3 NOT ADD SLT PUSH2 0x2BF JUMPI PUSH1 0x4 CALLDATALOAD PUSH2 0x1D31 PUSH2 0x2466 JUMP JUMPDEST TIMESTAMP DUP2 GT ISZERO PUSH2 0x1DE7 JUMPI PUSH1 0x7 SLOAD DUP2 GT ISZERO PUSH2 0x1D97 JUMPI PUSH1 0x8 SLOAD DUP2 LT ISZERO PUSH2 0x1D53 JUMPI PUSH1 0x7 SSTORE DUP1 RETURN JUMPDEST PUSH1 0x64 PUSH1 0x40 MLOAD PUSH3 0x461BCD PUSH1 0xE5 SHL DUP2 MSTORE PUSH1 0x20 PUSH1 0x4 DUP3 ADD MSTORE PUSH1 0x20 PUSH1 0x24 DUP3 ADD MSTORE PUSH32 0x456E642064617465206D757374206265206265666F7265206D61747572697479 PUSH1 0x44 DUP3 ADD MSTORE REVERT JUMPDEST PUSH1 0x40 MLOAD PUSH3 0x461BCD PUSH1 0xE5 SHL DUP2 MSTORE PUSH1 0x20 PUSH1 0x4 DUP3 ADD MSTORE PUSH1 0x22 PUSH1 0x24 DUP3 ADD MSTORE PUSH32 0x4E657720656E642064617465206D757374206265206166746572206375727265 PUSH1 0x44 DUP3 ADD MSTORE PUSH2 0x1B9D PUSH1 0xF2 SHL PUSH1 0x64 DUP3 ADD MSTORE PUSH1 0x84 SWAP1 REVERT JUMPDEST PUSH1 0x40 MLOAD PUSH3 0x461BCD PUSH1 0xE5 SHL DUP2 MSTORE PUSH1 0x20 PUSH1 0x4 DUP3 ADD MSTORE PUSH1 0x10 PUSH1 0x24 DUP3 ADD MSTORE PUSH16 0x496E76616C696420656E642064617465 PUSH1 0x80 SHL PUSH1 0x44 DUP3 ADD MSTORE PUSH1 0x64 SWAP1 REVERT JUMPDEST POP CALLVALUE PUSH2 0x2BF JUMPI PUSH1 0x40 CALLDATASIZE PUSH1 0x3 NOT ADD SLT PUSH2 0x2BF JUMPI PUSH2 0x1E39 PUSH2 0x2450 JUMP JUMPDEST CALLER PUSH1 0x1 PUSH1 0x1 PUSH1 0xA0 SHL SUB DUP3 AND SUB PUSH2 0x1E55 JUMPI PUSH2 0x711 SWAP1 PUSH1 0x4 CALLDATALOAD PUSH2 0x26CE JUMP JUMPDEST PUSH1 0x40 MLOAD PUSH4 0x334BD919 PUSH1 0xE1 SHL DUP2 MSTORE PUSH1 0x4 SWAP1 REVERT JUMPDEST POP CALLVALUE PUSH2 0x2BF JUMPI PUSH1 0x40 CALLDATASIZE PUSH1 0x3 NOT ADD SLT PUSH2 0x2BF JUMPI PUSH2 0x711 PUSH1 0x4 CALLDATALOAD PUSH2 0x1E87 PUSH2 0x2450 JUMP JUMPDEST SWAP1 DUP1 DUP5 MSTORE DUP4 PUSH1 0x20 MSTORE PUSH2 0x1E9F PUSH1 0x1 PUSH1 0x40 DUP7 KECCAK256 ADD SLOAD PUSH2 0x24E4 JUMP JUMPDEST PUSH2 0x25F2 JUMP JUMPDEST POP CALLVALUE PUSH2 0x2BF JUMPI PUSH2 0x1C0 CALLDATASIZE PUSH1 0x3 NOT ADD SLT PUSH2 0x2BF JUMPI PUSH2 0x1EBF PUSH2 0x243A JUMP JUMPDEST PUSH1 0xC4 CALLDATALOAD SWAP1 DUP2 ISZERO ISZERO DUP1 SWAP3 SUB PUSH2 0x490 JUMPI PUSH2 0x124 CALLDATALOAD SWAP1 PUSH1 0x1 PUSH1 0x1 PUSH1 0xA0 SHL SUB SWAP1 DUP2 DUP4 AND SWAP1 DUP2 DUP5 SUB PUSH2 0x228B JUMPI PUSH2 0x144 CALLDATALOAD DUP4 DUP2 AND DUP1 SWAP2 SUB PUSH2 0x2287 JUMPI PUSH2 0x164 CALLDATALOAD SWAP1 DUP2 ISZERO ISZERO DUP1 SWAP3 SUB PUSH2 0x2283 JUMPI PUSH2 0x184 CALLDATALOAD SWAP1 DUP6 DUP3 AND DUP3 SUB PUSH2 0x227F JUMPI PUSH2 0x1A4 CALLDATALOAD SWAP6 DUP1 DUP8 AND DUP1 SWAP8 SUB PUSH2 0x227B JUMPI PUSH1 0xE SLOAD SWAP5 PUSH1 0xFF DUP7 PUSH1 0xA0 SHR AND PUSH2 0x2240 JUMPI AND SWAP5 DUP6 ISZERO PUSH2 0x2206 JUMPI ISZERO PUSH2 0x21CB JUMPI DUP1 ISZERO PUSH2 0x218D JUMPI DUP6 ISZERO PUSH2 0x213D JUMPI PUSH1 0xE4 CALLDATALOAD DUP1 ISZERO PUSH2 0x20F9 JUMPI PUSH2 0x104 CALLDATALOAD SWAP1 DUP2 ISZERO PUSH2 0x20B5 JUMPI PUSH1 0x24 CALLDATALOAD SWAP10 PUSH1 0x44 CALLDATALOAD PUSH2 0x1F6F DUP2 DUP14 GT ISZERO PUSH2 0x2731 JUMP JUMPDEST PUSH1 0x64 CALLDATALOAD DUP1 TIMESTAMP GT PUSH2 0x2071 JUMPI PUSH1 0x84 CALLDATALOAD SWAP2 DUP3 DUP3 LT ISZERO PUSH2 0x2021 JUMPI PUSH2 0x200A SWAP14 PUSH1 0x1 DUP1 PUSH1 0xA0 SHL SUB NOT SWAP12 DUP13 PUSH1 0x3 SLOAD AND OR PUSH1 0x3 SSTORE PUSH1 0x4 SSTORE PUSH1 0x5 SSTORE PUSH1 0x6 SSTORE PUSH1 0x7 SSTORE PUSH1 0xA4 CALLDATALOAD PUSH1 0x8 SSTORE PUSH1 0xFF DUP1 NOT PUSH1 0x9 SLOAD AND SWAP2 AND OR PUSH1 0x9 SSTORE PUSH1 0xA SSTORE PUSH1 0x11 SSTORE DUP5 PUSH1 0x10 SLOAD AND OR PUSH1 0x10 SSTORE PUSH2 0xFF00 PUSH1 0xD SLOAD SWAP2 PUSH3 0x10000 PUSH1 0x1 PUSH1 0xB0 SHL SUB SWAP1 PUSH1 0x10 SHL AND SWAP3 PUSH1 0x8 SHL AND SWAP1 PUSH2 0x100 PUSH1 0x1 PUSH1 0xB0 SHL SUB NOT AND OR OR PUSH1 0xD SSTORE AND OR PUSH1 0xE SSTORE PUSH2 0x2004 CALLER PUSH2 0x250A JUMP JUMPDEST POP PUSH2 0x2576 JUMP JUMPDEST POP PUSH1 0xE DUP1 SLOAD PUSH1 0xFF PUSH1 0xA0 SHL NOT AND PUSH1 0x1 PUSH1 0xA0 SHL OR SWAP1 SSTORE DUP1 RETURN JUMPDEST PUSH1 0x40 MLOAD PUSH3 0x461BCD PUSH1 0xE5 SHL DUP2 MSTORE PUSH1 0x20 PUSH1 0x4 DUP3 ADD MSTORE PUSH1 0x22 PUSH1 0x24 DUP3 ADD MSTORE PUSH32 0x53746172742064617465206D757374206265206265666F726520656E64206461 PUSH1 0x44 DUP3 ADD MSTORE PUSH2 0x7465 PUSH1 0xF0 SHL PUSH1 0x64 DUP3 ADD MSTORE PUSH1 0x84 SWAP1 REVERT JUMPDEST PUSH1 0x64 PUSH1 0x40 MLOAD PUSH3 0x461BCD PUSH1 0xE5 SHL DUP2 MSTORE PUSH1 0x20 PUSH1 0x4 DUP3 ADD MSTORE PUSH1 0x20 PUSH1 0x24 DUP3 ADD MSTORE PUSH32 0x53746172742064617465206D75737420626520696E2074686520667574757265 PUSH1 0x44 DUP3 ADD MSTORE REVERT JUMPDEST PUSH1 0x40 MLOAD PUSH3 0x461BCD PUSH1 0xE5 SHL DUP2 MSTORE PUSH1 0x20 PUSH1 0x4 DUP3 ADD MSTORE PUSH1 0x1C PUSH1 0x24 DUP3 ADD MSTORE PUSH28 0x546F6B656E207072696365206D75737420626520706F736974697665 PUSH1 0x20 SHL PUSH1 0x44 DUP3 ADD MSTORE PUSH1 0x64 SWAP1 REVERT JUMPDEST PUSH1 0x64 PUSH1 0x40 MLOAD PUSH3 0x461BCD PUSH1 0xE5 SHL DUP2 MSTORE PUSH1 0x20 PUSH1 0x4 DUP3 ADD MSTORE PUSH1 0x20 PUSH1 0x24 DUP3 ADD MSTORE PUSH32 0x46756E6472616973696E6720636170206D75737420626520706F736974697665 PUSH1 0x44 DUP3 ADD MSTORE REVERT JUMPDEST PUSH1 0x40 MLOAD PUSH3 0x461BCD PUSH1 0xE5 SHL DUP2 MSTORE PUSH1 0x20 PUSH1 0x4 DUP3 ADD MSTORE PUSH1 0x22 PUSH1 0x24 DUP3 ADD MSTORE PUSH32 0x496E76616C696420696E766573746D656E74206D616E61676572206164647265 PUSH1 0x44 DUP3 ADD MSTORE PUSH2 0x7373 PUSH1 0xF0 SHL PUSH1 0x64 DUP3 ADD MSTORE PUSH1 0x84 SWAP1 REVERT JUMPDEST PUSH1 0x40 MLOAD PUSH3 0x461BCD PUSH1 0xE5 SHL DUP2 MSTORE PUSH1 0x20 PUSH1 0x4 DUP3 ADD MSTORE PUSH1 0x16 PUSH1 0x24 DUP3 ADD MSTORE PUSH22 0x496E76616C696420657363726F772061646472657373 PUSH1 0x50 SHL PUSH1 0x44 DUP3 ADD MSTORE PUSH1 0x64 SWAP1 REVERT JUMPDEST PUSH1 0x40 MLOAD PUSH3 0x461BCD PUSH1 0xE5 SHL DUP2 MSTORE PUSH1 0x20 PUSH1 0x4 DUP3 ADD MSTORE PUSH1 0x13 PUSH1 0x24 DUP3 ADD MSTORE PUSH19 0x24B73B30B634B2103A37B5B2B71037BBB732B9 PUSH1 0x69 SHL PUSH1 0x44 DUP3 ADD MSTORE PUSH1 0x64 SWAP1 REVERT JUMPDEST PUSH1 0x40 MLOAD PUSH3 0x461BCD PUSH1 0xE5 SHL DUP2 MSTORE PUSH1 0x20 PUSH1 0x4 DUP3 ADD MSTORE PUSH1 0x12 PUSH1 0x24 DUP3 ADD MSTORE PUSH18 0x24B73B30B634B21039B0B632903A37B5B2B7 PUSH1 0x71 SHL PUSH1 0x44 DUP3 ADD MSTORE PUSH1 0x64 SWAP1 REVERT JUMPDEST PUSH1 0x40 MLOAD PUSH3 0x461BCD PUSH1 0xE5 SHL DUP2 MSTORE PUSH1 0x20 PUSH1 0x4 DUP3 ADD MSTORE PUSH1 0x13 PUSH1 0x24 DUP3 ADD MSTORE PUSH19 0x105B1C9958591E481A5B9A5D1A585B1A5E9959 PUSH1 0x6A SHL PUSH1 0x44 DUP3 ADD MSTORE PUSH1 0x64 SWAP1 REVERT JUMPDEST DUP10 DUP1 REVERT JUMPDEST DUP9 DUP1 REVERT JUMPDEST DUP8 DUP1 REVERT JUMPDEST DUP7 DUP1 REVERT JUMPDEST DUP6 DUP1 REVERT JUMPDEST POP CALLVALUE PUSH2 0x2BF JUMPI PUSH1 0x20 CALLDATASIZE PUSH1 0x3 NOT ADD SLT PUSH2 0x2BF JUMPI PUSH1 0x1 PUSH1 0x40 PUSH1 0x20 SWAP3 PUSH1 0x4 CALLDATALOAD DUP2 MSTORE DUP1 DUP5 MSTORE KECCAK256 ADD SLOAD PUSH1 0x40 MLOAD SWAP1 DUP2 MSTORE RETURN JUMPDEST POP CALLVALUE PUSH2 0x2BF JUMPI DUP1 PUSH1 0x3 NOT CALLDATASIZE ADD SLT PUSH2 0x2BF JUMPI PUSH1 0x20 PUSH1 0xFF PUSH1 0xD SLOAD AND PUSH1 0x40 MLOAD SWAP1 ISZERO ISZERO DUP2 MSTORE RETURN JUMPDEST POP CALLVALUE PUSH2 0x2BF JUMPI PUSH1 0x40 CALLDATASIZE PUSH1 0x3 NOT ADD SLT PUSH2 0x2BF JUMPI PUSH2 0x22F8 PUSH2 0x243A JUMP JUMPDEST PUSH1 0x24 CALLDATALOAD SWAP1 DUP2 ISZERO ISZERO DUP1 SWAP3 SUB PUSH2 0x490 JUMPI PUSH1 0x20 PUSH32 0x91AD45A5CE97C5EEE55FA01496772AFEFC7F0757ED9EAC59064E642690509DFB SWAP2 PUSH2 0x2332 PUSH2 0x2466 JUMP JUMPDEST PUSH1 0x1 PUSH1 0x1 PUSH1 0xA0 SHL SUB AND DUP1 DUP6 MSTORE PUSH1 0x12 DUP3 MSTORE PUSH1 0x40 DUP1 DUP7 KECCAK256 DUP1 SLOAD PUSH1 0xFF NOT AND PUSH1 0xFF DUP8 AND OR SWAP1 SSTORE MLOAD SWAP4 DUP5 MSTORE SWAP3 LOG2 DUP1 RETURN JUMPDEST POP CALLVALUE PUSH2 0x2BF JUMPI DUP1 PUSH1 0x3 NOT CALLDATASIZE ADD SLT PUSH2 0x2BF JUMPI PUSH1 0x10 SLOAD PUSH1 0x40 MLOAD PUSH1 0x1 PUSH1 0x1 PUSH1 0xA0 SHL SUB SWAP1 SWAP2 AND DUP2 MSTORE PUSH1 0x20 SWAP1 RETURN JUMPDEST POP CALLVALUE PUSH2 0x2BF JUMPI DUP1 PUSH1 0x3 NOT CALLDATASIZE ADD SLT PUSH2 0x2BF JUMPI PUSH1 0x20 PUSH1 0xFF PUSH1 0x9 SLOAD AND PUSH1 0x40 MLOAD SWAP1 ISZERO ISZERO DUP2 MSTORE RETURN JUMPDEST POP CALLVALUE PUSH2 0x2BF JUMPI DUP1 PUSH1 0x3 NOT CALLDATASIZE ADD SLT PUSH2 0x2BF JUMPI PUSH1 0x20 PUSH1 0x6 SLOAD PUSH1 0x40 MLOAD SWAP1 DUP2 MSTORE RETURN JUMPDEST POP CALLVALUE PUSH2 0x2BF JUMPI PUSH1 0x20 CALLDATASIZE PUSH1 0x3 NOT ADD SLT PUSH2 0x2BF JUMPI PUSH1 0x4 CALLDATALOAD PUSH4 0xFFFFFFFF PUSH1 0xE0 SHL DUP2 AND DUP1 SWAP2 SUB PUSH2 0xFFA JUMPI PUSH1 0x20 SWAP1 PUSH4 0x7965DB0B PUSH1 0xE0 SHL DUP2 EQ SWAP1 DUP2 ISZERO PUSH2 0x240D JUMPI JUMPDEST POP PUSH1 0x40 MLOAD SWAP1 ISZERO ISZERO DUP2 MSTORE RETURN JUMPDEST PUSH4 0x1FFC9A7 PUSH1 0xE0 SHL EQ SWAP1 POP DUP3 PUSH2 0x2402 JUMP JUMPDEST SWAP1 POP CALLVALUE PUSH2 0xFFA JUMPI DUP2 PUSH1 0x3 NOT CALLDATASIZE ADD SLT PUSH2 0xFFA JUMPI PUSH1 0x20 SWAP1 PUSH1 0x5 SLOAD DUP2 MSTORE RETURN JUMPDEST PUSH1 0x4 CALLDATALOAD SWAP1 PUSH1 0x1 PUSH1 0x1 PUSH1 0xA0 SHL SUB DUP3 AND DUP3 SUB PUSH2 0x59B JUMPI JUMP JUMPDEST PUSH1 0x24 CALLDATALOAD SWAP1 PUSH1 0x1 PUSH1 0x1 PUSH1 0xA0 SHL SUB DUP3 AND DUP3 SUB PUSH2 0x59B JUMPI JUMP JUMPDEST CALLER PUSH1 0x0 SWAP1 DUP2 MSTORE PUSH1 0x0 DUP1 MLOAD PUSH1 0x20 PUSH2 0x2A43 DUP4 CODECOPY DUP2 MLOAD SWAP2 MSTORE PUSH1 0x20 MSTORE PUSH1 0x40 DUP2 KECCAK256 SLOAD PUSH1 0xFF AND ISZERO PUSH2 0x248E JUMPI POP JUMP JUMPDEST PUSH1 0x44 SWAP1 PUSH1 0x40 MLOAD SWAP1 PUSH4 0xE2517D3F PUSH1 0xE0 SHL DUP3 MSTORE CALLER PUSH1 0x4 DUP4 ADD MSTORE PUSH1 0x24 DUP3 ADD MSTORE REVERT JUMPDEST CALLER PUSH1 0x0 SWAP1 DUP2 MSTORE PUSH1 0x0 DUP1 MLOAD PUSH1 0x20 PUSH2 0x2983 DUP4 CODECOPY DUP2 MLOAD SWAP2 MSTORE PUSH1 0x20 MSTORE PUSH1 0x40 SWAP1 KECCAK256 SLOAD PUSH1 0x0 DUP1 MLOAD PUSH1 0x20 PUSH2 0x2A03 DUP4 CODECOPY DUP2 MLOAD SWAP2 MSTORE SWAP1 PUSH1 0xFF AND ISZERO PUSH2 0x248E JUMPI POP JUMP JUMPDEST DUP1 PUSH1 0x0 MSTORE PUSH1 0x0 PUSH1 0x20 MSTORE PUSH1 0x40 PUSH1 0x0 KECCAK256 CALLER PUSH1 0x0 MSTORE PUSH1 0x20 MSTORE PUSH1 0xFF PUSH1 0x40 PUSH1 0x0 KECCAK256 SLOAD AND ISZERO PUSH2 0x248E JUMPI POP JUMP JUMPDEST PUSH1 0x1 PUSH1 0x1 PUSH1 0xA0 SHL SUB AND PUSH1 0x0 DUP2 DUP2 MSTORE PUSH1 0x0 DUP1 MLOAD PUSH1 0x20 PUSH2 0x2A43 DUP4 CODECOPY DUP2 MLOAD SWAP2 MSTORE PUSH1 0x20 MSTORE PUSH1 0x40 DUP2 KECCAK256 SLOAD SWAP1 SWAP2 SWAP1 PUSH1 0xFF AND PUSH2 0x2572 JUMPI DUP2 DUP1 MSTORE DUP2 PUSH1 0x20 MSTORE PUSH1 0x40 DUP3 KECCAK256 DUP2 DUP4 MSTORE PUSH1 0x20 MSTORE PUSH1 0x40 DUP3 KECCAK256 PUSH1 0x1 PUSH1 0xFF NOT DUP3 SLOAD AND OR SWAP1 SSTORE CALLER SWAP2 PUSH1 0x0 DUP1 MLOAD PUSH1 0x20 PUSH2 0x2963 DUP4 CODECOPY DUP2 MLOAD SWAP2 MSTORE DUP2 DUP1 LOG4 PUSH1 0x1 SWAP1 JUMP JUMPDEST POP SWAP1 JUMP JUMPDEST PUSH1 0x1 PUSH1 0x1 PUSH1 0xA0 SHL SUB AND PUSH1 0x0 DUP2 DUP2 MSTORE PUSH1 0x0 DUP1 MLOAD PUSH1 0x20 PUSH2 0x2983 DUP4 CODECOPY DUP2 MLOAD SWAP2 MSTORE PUSH1 0x20 MSTORE PUSH1 0x40 DUP2 KECCAK256 SLOAD SWAP1 SWAP2 SWAP1 PUSH1 0x0 DUP1 MLOAD PUSH1 0x20 PUSH2 0x2A03 DUP4 CODECOPY DUP2 MLOAD SWAP2 MSTORE SWAP1 PUSH1 0xFF AND PUSH2 0x25ED JUMPI DUP1 DUP4 MSTORE DUP3 PUSH1 0x20 MSTORE PUSH1 0x40 DUP4 KECCAK256 DUP3 DUP5 MSTORE PUSH1 0x20 MSTORE PUSH1 0x40 DUP4 KECCAK256 PUSH1 0x1 PUSH1 0xFF NOT DUP3 SLOAD AND OR SWAP1 SSTORE PUSH1 0x0 DUP1 MLOAD PUSH1 0x20 PUSH2 0x2963 DUP4 CODECOPY DUP2 MLOAD SWAP2 MSTORE CALLER SWAP4 DUP1 LOG4 PUSH1 0x1 SWAP1 JUMP JUMPDEST POP POP SWAP1 JUMP JUMPDEST SWAP1 PUSH1 0x0 SWAP2 DUP1 DUP4 MSTORE DUP3 PUSH1 0x20 MSTORE PUSH1 0x40 DUP4 KECCAK256 SWAP2 PUSH1 0x1 DUP1 PUSH1 0xA0 SHL SUB AND SWAP2 DUP3 DUP5 MSTORE PUSH1 0x20 MSTORE PUSH1 0xFF PUSH1 0x40 DUP5 KECCAK256 SLOAD AND ISZERO PUSH1 0x0 EQ PUSH2 0x25ED JUMPI DUP1 DUP4 MSTORE DUP3 PUSH1 0x20 MSTORE PUSH1 0x40 DUP4 KECCAK256 DUP3 DUP5 MSTORE PUSH1 0x20 MSTORE PUSH1 0x40 DUP4 KECCAK256 PUSH1 0x1 PUSH1 0xFF NOT DUP3 SLOAD AND OR SWAP1 SSTORE PUSH1 0x0 DUP1 MLOAD PUSH1 0x20 PUSH2 0x2963 DUP4 CODECOPY DUP2 MLOAD SWAP2 MSTORE CALLER SWAP4 DUP1 LOG4 PUSH1 0x1 SWAP1 JUMP JUMPDEST PUSH1 0x1 PUSH1 0x1 PUSH1 0xA0 SHL SUB AND PUSH1 0x0 DUP2 DUP2 MSTORE PUSH1 0x0 DUP1 MLOAD PUSH1 0x20 PUSH2 0x2983 DUP4 CODECOPY DUP2 MLOAD SWAP2 MSTORE PUSH1 0x20 MSTORE PUSH1 0x40 DUP2 KECCAK256 SLOAD SWAP1 SWAP2 SWAP1 PUSH1 0x0 DUP1 MLOAD PUSH1 0x20 PUSH2 0x2A03 DUP4 CODECOPY DUP2 MLOAD SWAP2 MSTORE SWAP1 PUSH1 0xFF AND ISZERO PUSH2 0x25ED JUMPI DUP1 DUP4 MSTORE DUP3 PUSH1 0x20 MSTORE PUSH1 0x40 DUP4 KECCAK256 DUP3 DUP5 MSTORE PUSH1 0x20 MSTORE PUSH1 0x40 DUP4 KECCAK256 PUSH1 0xFF NOT DUP2 SLOAD AND SWAP1 SSTORE PUSH1 0x0 DUP1 MLOAD PUSH1 0x20 PUSH2 0x2A23 DUP4 CODECOPY DUP2 MLOAD SWAP2 MSTORE CALLER SWAP4 DUP1 LOG4 PUSH1 0x1 SWAP1 JUMP JUMPDEST SWAP1 PUSH1 0x0 SWAP2 DUP1 DUP4 MSTORE DUP3 PUSH1 0x20 MSTORE PUSH1 0x40 DUP4 KECCAK256 SWAP2 PUSH1 0x1 DUP1 PUSH1 0xA0 SHL SUB AND SWAP2 DUP3 DUP5 MSTORE PUSH1 0x20 MSTORE PUSH1 0xFF PUSH1 0x40 DUP5 KECCAK256 SLOAD AND PUSH1 0x0 EQ PUSH2 0x25ED JUMPI DUP1 DUP4 MSTORE DUP3 PUSH1 0x20 MSTORE PUSH1 0x40 DUP4 KECCAK256 DUP3 DUP5 MSTORE PUSH1 0x20 MSTORE PUSH1 0x40 DUP4 KECCAK256 PUSH1 0xFF NOT DUP2 SLOAD AND SWAP1 SSTORE PUSH1 0x0 DUP1 MLOAD PUSH1 0x20 PUSH2 0x2A23 DUP4 CODECOPY DUP2 MLOAD SWAP2 MSTORE CALLER SWAP4 DUP1 LOG4 PUSH1 0x1 SWAP1 JUMP JUMPDEST ISZERO PUSH2 0x2738 JUMPI JUMP JUMPDEST PUSH1 0x40 MLOAD PUSH3 0x461BCD PUSH1 0xE5 SHL DUP2 MSTORE PUSH1 0x20 PUSH1 0x4 DUP3 ADD MSTORE PUSH1 0x14 PUSH1 0x24 DUP3 ADD MSTORE PUSH20 0x135A5B880F881B585E081A5B9D995CDD1B595B9D PUSH1 0x62 SHL PUSH1 0x44 DUP3 ADD MSTORE PUSH1 0x64 SWAP1 REVERT JUMPDEST PUSH1 0xFF PUSH1 0x1 SLOAD AND PUSH2 0x2780 JUMPI JUMP JUMPDEST PUSH1 0x40 MLOAD PUSH4 0xD93C0665 PUSH1 0xE0 SHL DUP2 MSTORE PUSH1 0x4 SWAP1 REVERT JUMPDEST SWAP2 SWAP1 DUP3 ADD DUP1 SWAP3 GT PUSH2 0x279F JUMPI JUMP JUMPDEST PUSH4 0x4E487B71 PUSH1 0xE0 SHL PUSH1 0x0 MSTORE PUSH1 0x11 PUSH1 0x4 MSTORE PUSH1 0x24 PUSH1 0x0 REVERT JUMPDEST DUP2 ISZERO PUSH2 0x27BF JUMPI DIV SWAP1 JUMP JUMPDEST PUSH4 0x4E487B71 PUSH1 0xE0 SHL PUSH1 0x0 MSTORE PUSH1 0x12 PUSH1 0x4 MSTORE PUSH1 0x24 PUSH1 0x0 REVERT JUMPDEST PUSH1 0x1 PUSH1 0x1 PUSH1 0x40 SHL SUB DUP2 GT PUSH2 0x27E8 JUMPI PUSH1 0x40 MSTORE JUMP JUMPDEST PUSH4 0x4E487B71 PUSH1 0xE0 SHL PUSH1 0x0 MSTORE PUSH1 0x41 PUSH1 0x4 MSTORE PUSH1 0x24 PUSH1 0x0 REVERT JUMPDEST PUSH1 0x1F SWAP1 SWAP2 ADD PUSH1 0x1F NOT AND DUP2 ADD SWAP1 PUSH1 0x1 PUSH1 0x1 PUSH1 0x40 SHL SUB DUP3 GT SWAP1 DUP3 LT OR PUSH2 0x27E8 JUMPI PUSH1 0x40 MSTORE JUMP JUMPDEST ISZERO PUSH2 0x2828 JUMPI JUMP JUMPDEST PUSH1 0x40 MLOAD PUSH3 0x461BCD PUSH1 0xE5 SHL DUP2 MSTORE PUSH1 0x20 PUSH1 0x4 DUP3 ADD MSTORE PUSH1 0x18 PUSH1 0x24 DUP3 ADD MSTORE PUSH24 0x496E73756666696369656E742073616C6520746F6B656E73 PUSH1 0x40 SHL PUSH1 0x44 DUP3 ADD MSTORE PUSH1 0x64 SWAP1 REVERT JUMPDEST SWAP1 DUP2 PUSH1 0x20 SWAP2 SUB SLT PUSH2 0x59B JUMPI MLOAD DUP1 ISZERO ISZERO DUP2 SUB PUSH2 0x59B JUMPI SWAP1 JUMP JUMPDEST PUSH1 0x1 PUSH1 0x1 PUSH1 0xA0 SHL SUB SWAP2 DUP3 AND DUP2 MSTORE SWAP2 AND PUSH1 0x20 DUP3 ADD MSTORE PUSH1 0x40 DUP2 ADD SWAP2 SWAP1 SWAP2 MSTORE PUSH1 0x60 ADD SWAP1 JUMP JUMPDEST PUSH1 0x1 PUSH1 0x1 PUSH1 0xA0 SHL SUB SWAP1 SWAP2 AND DUP2 MSTORE PUSH1 0x20 DUP2 ADD SWAP2 SWAP1 SWAP2 MSTORE PUSH1 0x40 ADD SWAP1 JUMP JUMPDEST PUSH1 0x2 DUP1 SLOAD EQ PUSH2 0x28CC JUMPI PUSH1 0x2 DUP1 SSTORE JUMP JUMPDEST PUSH1 0x40 MLOAD PUSH4 0x3EE5AEB5 PUSH1 0xE0 SHL DUP2 MSTORE PUSH1 0x4 SWAP1 REVERT JUMPDEST ISZERO PUSH2 0x28E5 JUMPI JUMP JUMPDEST PUSH1 0x40 MLOAD PUSH3 0x461BCD PUSH1 0xE5 SHL DUP2 MSTORE PUSH1 0x20 PUSH1 0x4 DUP3 ADD MSTORE PUSH1 0xD PUSH1 0x24 DUP3 ADD MSTORE PUSH13 0x496E76616C6964207072696365 PUSH1 0x98 SHL PUSH1 0x44 DUP3 ADD MSTORE PUSH1 0x64 SWAP1 REVERT JUMPDEST SWAP2 SWAP1 DUP3 SUB SWAP2 DUP3 GT PUSH2 0x279F JUMPI JUMP JUMPDEST ISZERO PUSH2 0x292E JUMPI JUMP JUMPDEST PUSH1 0x40 MLOAD PUSH3 0x461BCD PUSH1 0xE5 SHL DUP2 MSTORE PUSH1 0x20 PUSH1 0x4 DUP3 ADD MSTORE PUSH1 0xC PUSH1 0x24 DUP3 ADD MSTORE PUSH12 0x5A65726F2061646472657373 PUSH1 0xA0 SHL PUSH1 0x44 DUP3 ADD MSTORE PUSH1 0x64 SWAP1 REVERT INVALID 0x2F DUP8 DUP9 GT PUSH31 0x7EFF1D82E926EC794901D17C78024A50270940304540A733656F0D7DFC0114 0xFC 0x2B SUB KECCAK256 SWAP5 PUSH19 0x40CBD60A9FFC193468A941C37441E641A928A8 0xC1 AND 0xD5 SWAP4 PUSH4 0x8E6CF18B 0x4F PUSH11 0x839DE65DF95898221F5D9F PUSH30 0xC54B87D4B31D40297643266EC1D3048301C0D23629A2532C8DEFA6D68F8E BYTE 0xE COINBASE JUMPI SWAP2 DUP8 PUSH10 0xE9FB1B2EEB888ED27DD3 PUSH30 0x941F5A1B76926E48140FDBF50A0C59DEFB5431A391A1260279EB1C4C3536 SWAP12 GASPRICE PUSH28 0xB98C90641A907C2FD643EA781341EBA72CCFFD47CB018C128C48C3F6 CODECOPY 0x1F 0x5C ORIGIN 0xD9 0xC6 SWAP14 0x2A SELFBALANCE 0xEA PUSH8 0xB442974B53935D1 0xED 0xC7 REVERT PUSH5 0xEB21E047A8 CODECOPY OR SHL 0xAD ORIGIN 0x28 0xB6 PUSH23 0xF7D3CD4284A5443F17F1962B36E491B30A40B2405849E5 SWAP8 0xBA PUSH0 0xB5 LOG2 PUSH5 0x6970667358 0x22 SLT KECCAK256 0xC5 0xC4 0xCC RETURNDATASIZE 0xDE PUSH25 0x2719ABFA2DEF5E512A91CC6016897799F5F594E446C0F8182E INVALID PUSH5 0x736F6C6343 STOP ADDMOD EQ STOP CALLER PUSH1 0xE0 PUSH1 0x40 MSTORE CALLVALUE PUSH3 0x3A5 JUMPI PUSH3 0x1031 DUP1 CODESIZE SUB DUP1 PUSH3 0x1D DUP2 PUSH3 0x3AA JUMP JUMPDEST SWAP3 DUP4 CODECOPY DUP2 ADD SWAP1 PUSH1 0xA0 DUP2 DUP4 SUB SLT PUSH3 0x3A5 JUMPI DUP1 MLOAD PUSH1 0x1 PUSH1 0x1 PUSH1 0x40 SHL SUB SWAP3 SWAP1 DUP4 DUP2 GT PUSH3 0x3A5 JUMPI DUP2 PUSH3 0x50 SWAP2 DUP5 ADD PUSH3 0x3D0 JUMP JUMPDEST SWAP3 PUSH1 0x20 SWAP2 DUP3 DUP5 ADD MLOAD SWAP1 DUP3 DUP3 GT PUSH3 0x3A5 JUMPI PUSH3 0x6E SWAP2 DUP6 ADD PUSH3 0x3D0 JUMP JUMPDEST SWAP4 PUSH3 0x7D PUSH1 0x40 DUP6 ADD PUSH3 0x442 JUMP JUMPDEST SWAP2 PUSH3 0x91 PUSH1 0x80 PUSH1 0x60 DUP8 ADD MLOAD SWAP7 ADD PUSH3 0x442 JUMP JUMPDEST SWAP6 DUP3 MLOAD DUP3 DUP2 GT PUSH3 0x2A5 JUMPI PUSH1 0x3 SWAP2 DUP3 SLOAD SWAP2 PUSH1 0x1 SWAP6 DUP7 DUP5 DUP2 SHR SWAP5 AND DUP1 ISZERO PUSH3 0x39A JUMPI JUMPDEST DUP10 DUP6 LT EQ PUSH3 0x384 JUMPI DUP2 SWAP1 PUSH1 0x1F SWAP5 DUP6 DUP2 GT PUSH3 0x32E JUMPI JUMPDEST POP DUP10 SWAP1 DUP6 DUP4 GT PUSH1 0x1 EQ PUSH3 0x2C7 JUMPI PUSH1 0x0 SWAP3 PUSH3 0x2BB JUMPI JUMPDEST POP POP PUSH1 0x0 NOT DUP3 DUP7 SHL SHR NOT AND SWAP1 DUP7 SHL OR DUP4 SSTORE JUMPDEST DUP1 MLOAD SWAP4 DUP5 GT PUSH3 0x2A5 JUMPI PUSH1 0x4 SWAP7 DUP8 SLOAD DUP7 DUP2 DUP2 SHR SWAP2 AND DUP1 ISZERO PUSH3 0x29A JUMPI JUMPDEST DUP3 DUP3 LT EQ PUSH3 0x285 JUMPI DUP4 DUP2 GT PUSH3 0x23A JUMPI JUMPDEST POP DUP1 SWAP3 DUP6 GT PUSH1 0x1 EQ PUSH3 0x1CC JUMPI POP SWAP4 DUP4 SWAP5 SWAP2 DUP5 SWAP3 PUSH1 0x0 SWAP6 PUSH3 0x1C0 JUMPI JUMPDEST POP POP SHL SWAP3 PUSH1 0x0 NOT SWAP2 SHL SHR NOT AND OR DUP3 SSTORE JUMPDEST PUSH1 0x1 PUSH1 0x1 PUSH1 0xA0 SHL SUB AND SWAP1 DUP2 ISZERO PUSH3 0x1B1 JUMPI POP PUSH1 0x80 MSTORE PUSH1 0xA0 MSTORE PUSH1 0xC0 MSTORE PUSH1 0x40 MLOAD PUSH2 0xBD9 SWAP1 DUP2 PUSH3 0x458 DUP3 CODECOPY PUSH1 0x80 MLOAD DUP2 DUP2 DUP2 PUSH2 0x49C ADD MSTORE DUP2 DUP2 PUSH2 0x633 ADD MSTORE PUSH2 0x9B7 ADD MSTORE PUSH1 0xA0 MLOAD DUP2 DUP2 DUP2 PUSH2 0x16A ADD MSTORE PUSH2 0x416 ADD MSTORE PUSH1 0xC0 MLOAD DUP2 DUP2 DUP2 PUSH2 0x5DA ADD MSTORE PUSH2 0x7D4 ADD MSTORE RETURN JUMPDEST PUSH1 0x40 MLOAD PUSH4 0x29456045 PUSH1 0xE1 SHL DUP2 MSTORE REVERT JUMPDEST ADD MLOAD SWAP4 POP CODESIZE DUP1 PUSH3 0x13F JUMP JUMPDEST SWAP3 SWAP2 SWAP1 DUP5 PUSH1 0x1F NOT DUP2 AND DUP10 PUSH1 0x0 MSTORE DUP6 PUSH1 0x0 KECCAK256 SWAP6 PUSH1 0x0 SWAP1 JUMPDEST DUP10 DUP4 DUP4 LT PUSH3 0x21F JUMPI POP POP POP LT PUSH3 0x204 JUMPI JUMPDEST POP POP POP POP DUP2 SHL ADD DUP3 SSTORE PUSH3 0x14F JUMP JUMPDEST ADD MLOAD SWAP1 PUSH1 0xF8 DUP5 PUSH1 0x0 NOT SWAP3 SHL AND SHR NOT AND SWAP1 SSTORE CODESIZE DUP1 DUP1 DUP1 PUSH3 0x1F5 JUMP JUMPDEST DUP6 DUP8 ADD MLOAD DUP10 SSTORE SWAP1 SWAP8 ADD SWAP7 SWAP5 DUP6 ADD SWAP5 DUP9 SWAP4 POP SWAP1 DUP2 ADD SWAP1 PUSH3 0x1E2 JUMP JUMPDEST DUP9 PUSH1 0x0 MSTORE DUP2 PUSH1 0x0 KECCAK256 DUP5 DUP1 DUP9 ADD PUSH1 0x5 SHR DUP3 ADD SWAP3 DUP5 DUP10 LT PUSH3 0x27B JUMPI JUMPDEST ADD PUSH1 0x5 SHR ADD SWAP1 DUP8 SWAP1 JUMPDEST DUP3 DUP2 LT PUSH3 0x26E JUMPI POP POP PUSH3 0x122 JUMP JUMPDEST PUSH1 0x0 DUP2 SSTORE ADD DUP8 SWAP1 PUSH3 0x25E JUMP JUMPDEST SWAP3 POP DUP2 SWAP3 PUSH3 0x255 JUMP JUMPDEST PUSH1 0x22 DUP10 PUSH4 0x4E487B71 PUSH1 0xE0 SHL PUSH1 0x0 MSTORE MSTORE PUSH1 0x24 PUSH1 0x0 REVERT JUMPDEST SWAP1 PUSH1 0x7F AND SWAP1 PUSH3 0x110 JUMP JUMPDEST PUSH4 0x4E487B71 PUSH1 0xE0 SHL PUSH1 0x0 MSTORE PUSH1 0x41 PUSH1 0x4 MSTORE PUSH1 0x24 PUSH1 0x0 REVERT JUMPDEST ADD MLOAD SWAP1 POP CODESIZE DUP1 PUSH3 0xE1 JUMP JUMPDEST SWAP1 DUP9 SWAP4 POP PUSH1 0x1F NOT DUP4 AND SWAP2 DUP8 PUSH1 0x0 MSTORE DUP12 PUSH1 0x0 KECCAK256 SWAP3 PUSH1 0x0 JUMPDEST DUP14 DUP3 DUP3 LT PUSH3 0x317 JUMPI POP POP DUP5 GT PUSH3 0x2FE JUMPI JUMPDEST POP POP POP DUP2 SHL ADD DUP4 SSTORE PUSH3 0xF3 JUMP JUMPDEST ADD MLOAD PUSH1 0x0 NOT DUP4 DUP9 SHL PUSH1 0xF8 AND SHR NOT AND SWAP1 SSTORE CODESIZE DUP1 DUP1 PUSH3 0x2F0 JUMP JUMPDEST DUP4 DUP6 ADD MLOAD DUP7 SSTORE DUP13 SWAP8 SWAP1 SWAP6 ADD SWAP5 SWAP4 DUP5 ADD SWAP4 ADD PUSH3 0x2DD JUMP JUMPDEST SWAP1 SWAP2 POP DUP6 PUSH1 0x0 MSTORE DUP10 PUSH1 0x0 KECCAK256 DUP6 DUP1 DUP6 ADD PUSH1 0x5 SHR DUP3 ADD SWAP3 DUP13 DUP7 LT PUSH3 0x37A JUMPI JUMPDEST SWAP2 DUP11 SWAP2 DUP7 SWAP6 SWAP5 SWAP4 ADD PUSH1 0x5 SHR ADD SWAP2 JUMPDEST DUP3 DUP2 LT PUSH3 0x36A JUMPI POP POP PUSH3 0xCA JUMP JUMPDEST PUSH1 0x0 DUP2 SSTORE DUP6 SWAP5 POP DUP11 SWAP2 ADD PUSH3 0x35A JUMP JUMPDEST SWAP3 POP DUP2 SWAP3 PUSH3 0x34C JUMP JUMPDEST PUSH4 0x4E487B71 PUSH1 0xE0 SHL PUSH1 0x0 MSTORE PUSH1 0x22 PUSH1 0x4 MSTORE PUSH1 0x24 PUSH1 0x0 REVERT JUMPDEST SWAP4 PUSH1 0x7F AND SWAP4 PUSH3 0xB3 JUMP JUMPDEST PUSH1 0x0 DUP1 REVERT JUMPDEST PUSH1 0x40 MLOAD SWAP2 SWAP1 PUSH1 0x1F ADD PUSH1 0x1F NOT AND DUP3 ADD PUSH1 0x1 PUSH1 0x1 PUSH1 0x40 SHL SUB DUP2 GT DUP4 DUP3 LT OR PUSH3 0x2A5 JUMPI PUSH1 0x40 MSTORE JUMP JUMPDEST SWAP2 SWAP1 DUP1 PUSH1 0x1F DUP5 ADD SLT ISZERO PUSH3 0x3A5 JUMPI DUP3 MLOAD PUSH1 0x1 PUSH1 0x1 PUSH1 0x40 SHL SUB DUP2 GT PUSH3 0x2A5 JUMPI PUSH1 0x20 SWAP1 PUSH3 0x406 PUSH1 0x1F DUP3 ADD PUSH1 0x1F NOT AND DUP4 ADD PUSH3 0x3AA JUMP JUMPDEST SWAP3 DUP2 DUP5 MSTORE DUP3 DUP3 DUP8 ADD ADD GT PUSH3 0x3A5 JUMPI PUSH1 0x0 JUMPDEST DUP2 DUP2 LT PUSH3 0x42E JUMPI POP DUP3 PUSH1 0x0 SWAP4 SWAP5 SWAP6 POP ADD ADD MSTORE SWAP1 JUMP JUMPDEST DUP6 DUP2 ADD DUP4 ADD MLOAD DUP5 DUP3 ADD DUP5 ADD MSTORE DUP3 ADD PUSH3 0x418 JUMP JUMPDEST MLOAD SWAP1 PUSH1 0x1 PUSH1 0x1 PUSH1 0xA0 SHL SUB DUP3 AND DUP3 SUB PUSH3 0x3A5 JUMPI JUMP INVALID PUSH1 0x80 PUSH1 0x40 DUP2 DUP2 MSTORE PUSH1 0x4 SWAP2 DUP3 CALLDATASIZE LT ISZERO PUSH2 0x16 JUMPI PUSH1 0x0 DUP1 REVERT JUMPDEST PUSH1 0x0 SWAP3 DUP4 CALLDATALOAD PUSH1 0xE0 SHR SWAP2 DUP3 PUSH3 0xE77AA6 EQ PUSH2 0x9A3 JUMPI POP DUP2 PUSH4 0x6FDDE03 EQ PUSH2 0x8CC JUMPI DUP2 PUSH4 0x95EA7B3 EQ PUSH2 0x822 JUMPI DUP2 PUSH4 0x18160DDD EQ PUSH2 0x803 JUMPI DUP2 PUSH4 0x1A4F94F7 EQ PUSH2 0x7BF JUMPI DUP2 PUSH4 0x1C60D886 EQ PUSH2 0x5B1 JUMPI DUP2 PUSH4 0x23B872DD EQ PUSH2 0x58C JUMPI DUP2 PUSH4 0x313CE567 EQ PUSH2 0x570 JUMPI DUP2 PUSH4 0x42966C68 EQ PUSH2 0x552 JUMPI DUP2 PUSH4 0x464F0B0D EQ PUSH2 0x401 JUMPI DUP2 PUSH4 0x6F7BC9BE EQ PUSH2 0x3BA JUMPI DUP2 PUSH4 0x70A08231 EQ PUSH2 0x383 JUMPI DUP2 PUSH4 0x79CC6790 EQ PUSH2 0x29F JUMPI DUP2 PUSH4 0x95D89B41 EQ PUSH2 0x1B9 JUMPI DUP2 PUSH4 0xA9059CBB EQ PUSH2 0x18D JUMPI POP DUP1 PUSH4 0xD59624B4 EQ PUSH2 0x153 JUMPI DUP1 PUSH4 0xDD62ED3E EQ PUSH2 0x10B JUMPI PUSH4 0xF9168231 EQ PUSH2 0xEA JUMPI PUSH1 0x0 DUP1 REVERT JUMPDEST CALLVALUE PUSH2 0x107 JUMPI DUP2 PUSH1 0x3 NOT CALLDATASIZE ADD SLT PUSH2 0x107 JUMPI PUSH1 0x20 SWAP1 PUSH1 0x5 SLOAD SWAP1 MLOAD SWAP1 DUP2 MSTORE RETURN JUMPDEST POP DUP1 REVERT JUMPDEST POP CALLVALUE PUSH2 0x107 JUMPI DUP1 PUSH1 0x3 NOT CALLDATASIZE ADD SLT PUSH2 0x107 JUMPI DUP1 PUSH1 0x20 SWAP3 PUSH2 0x128 PUSH2 0xA2F JUMP JUMPDEST PUSH2 0x130 PUSH2 0xA4A JUMP JUMPDEST PUSH1 0x1 PUSH1 0x1 PUSH1 0xA0 SHL SUB SWAP2 DUP3 AND DUP4 MSTORE PUSH1 0x1 DUP7 MSTORE DUP4 DUP4 KECCAK256 SWAP2 AND DUP3 MSTORE DUP5 MSTORE KECCAK256 SLOAD SWAP1 MLOAD SWAP1 DUP2 MSTORE RETURN JUMPDEST POP CALLVALUE PUSH2 0x107 JUMPI DUP2 PUSH1 0x3 NOT CALLDATASIZE ADD SLT PUSH2 0x107 JUMPI PUSH1 0x20 SWAP1 MLOAD PUSH32 0x0 DUP2 MSTORE RETURN JUMPDEST DUP3 DUP5 CALLVALUE PUSH2 0x1B6 JUMPI DUP2 PUSH1 0x3 NOT CALLDATASIZE ADD SLT PUSH2 0x1B6 JUMPI POP PUSH2 0x1A8 PUSH2 0xA2F JUMP JUMPDEST POP MLOAD PUSH4 0x1DE81C7B PUSH1 0xE0 SHL DUP2 MSTORE REVERT JUMPDEST DUP1 REVERT JUMPDEST DUP4 DUP4 CALLVALUE PUSH2 0x107 JUMPI DUP2 PUSH1 0x3 NOT CALLDATASIZE ADD SLT PUSH2 0x107 JUMPI DUP1 MLOAD SWAP2 DUP1 SWAP4 DUP1 SLOAD SWAP2 PUSH1 0x1 SWAP1 DUP4 DUP3 SHR SWAP3 DUP3 DUP6 AND SWAP5 DUP6 ISZERO PUSH2 0x295 JUMPI JUMPDEST PUSH1 0x20 SWAP6 DUP7 DUP7 LT DUP2 EQ PUSH2 0x282 JUMPI DUP6 DUP10 MSTORE SWAP1 DUP2 ISZERO PUSH2 0x25E JUMPI POP PUSH1 0x1 EQ PUSH2 0x223 JUMPI JUMPDEST PUSH2 0x21F DUP8 DUP8 PUSH2 0x215 DUP3 DUP13 SUB DUP4 PUSH2 0xA60 JUMP JUMPDEST MLOAD SWAP2 DUP3 SWAP2 DUP3 PUSH2 0x9E6 JUMP JUMPDEST SUB SWAP1 RETURN JUMPDEST SWAP1 DUP1 SWAP5 SWAP8 POP MSTORE DUP6 DUP4 KECCAK256 JUMPDEST DUP3 DUP5 LT PUSH2 0x24B JUMPI POP POP POP DUP3 PUSH2 0x21F SWAP5 PUSH2 0x215 SWAP3 DUP3 ADD ADD SWAP5 DUP7 DUP1 PUSH2 0x204 JUMP JUMPDEST DUP1 SLOAD DUP7 DUP6 ADD DUP9 ADD MSTORE SWAP3 DUP7 ADD SWAP3 DUP2 ADD PUSH2 0x22D JUMP JUMPDEST PUSH1 0xFF NOT AND DUP9 DUP8 ADD MSTORE POP POP POP POP ISZERO ISZERO PUSH1 0x5 SHL DUP4 ADD ADD SWAP3 POP PUSH2 0x215 DUP3 PUSH2 0x21F DUP7 DUP1 PUSH2 0x204 JUMP JUMPDEST PUSH4 0x4E487B71 PUSH1 0xE0 SHL DUP5 MSTORE PUSH1 0x22 DUP4 MSTORE PUSH1 0x24 DUP5 REVERT JUMPDEST SWAP4 PUSH1 0x7F AND SWAP4 PUSH2 0x1E5 JUMP JUMPDEST DUP4 SWAP2 POP CALLVALUE PUSH2 0x107 JUMPI DUP3 PUSH1 0x3 NOT CALLDATASIZE ADD SLT PUSH2 0x107 JUMPI PUSH2 0x2BA PUSH2 0xA2F JUMP JUMPDEST PUSH1 0x1 PUSH1 0x1 PUSH1 0xA0 SHL SUB DUP2 AND DUP1 DUP5 MSTORE PUSH1 0x1 PUSH1 0x20 SWAP1 DUP2 MSTORE DUP6 DUP6 KECCAK256 CALLER DUP7 MSTORE SWAP1 MSTORE DUP5 DUP5 KECCAK256 SLOAD PUSH1 0x24 CALLDATALOAD SWAP4 SWAP1 SWAP2 SWAP1 PUSH1 0x0 NOT DUP4 LT PUSH2 0x2F9 JUMPI JUMPDEST DUP6 PUSH2 0x2F6 DUP7 DUP7 PUSH2 0xA99 JUMP JUMPDEST DUP1 RETURN JUMPDEST DUP5 DUP4 LT PUSH2 0x361 JUMPI DUP2 ISZERO PUSH2 0x34A JUMPI CALLER ISZERO PUSH2 0x333 JUMPI POP DUP5 SWAP6 SWAP2 DUP5 SWAP2 PUSH2 0x2F6 SWAP7 MSTORE PUSH1 0x1 PUSH1 0x20 MSTORE DUP3 DUP8 KECCAK256 CALLER DUP9 MSTORE PUSH1 0x20 MSTORE SUB SWAP1 DUP6 KECCAK256 SSTORE DUP4 SWAP3 DUP6 DUP1 PUSH2 0x2EB JUMP JUMPDEST DUP7 MLOAD PUSH4 0x4A1406B1 PUSH1 0xE1 SHL DUP2 MSTORE SWAP1 DUP2 ADD DUP7 SWAP1 MSTORE PUSH1 0x24 SWAP1 REVERT JUMPDEST DUP7 MLOAD PUSH4 0xE602DF05 PUSH1 0xE0 SHL DUP2 MSTORE SWAP1 DUP2 ADD DUP7 SWAP1 MSTORE PUSH1 0x24 SWAP1 REVERT JUMPDEST SWAP1 POP PUSH2 0x37F DUP5 DUP8 MLOAD SWAP4 DUP5 SWAP4 PUSH4 0x7DC7A0D9 PUSH1 0xE1 SHL DUP6 MSTORE CALLER SWAP1 DUP6 ADD PUSH2 0xB2A JUMP JUMPDEST SUB SWAP1 REVERT JUMPDEST POP POP CALLVALUE PUSH2 0x107 JUMPI PUSH1 0x20 CALLDATASIZE PUSH1 0x3 NOT ADD SLT PUSH2 0x107 JUMPI PUSH1 0x20 SWAP2 DUP2 SWAP1 PUSH1 0x1 PUSH1 0x1 PUSH1 0xA0 SHL SUB PUSH2 0x3AB PUSH2 0xA2F JUMP JUMPDEST AND DUP2 MSTORE DUP1 DUP5 MSTORE KECCAK256 SLOAD SWAP1 MLOAD SWAP1 DUP2 MSTORE RETURN JUMPDEST POP POP CALLVALUE PUSH2 0x107 JUMPI PUSH1 0x20 CALLDATASIZE PUSH1 0x3 NOT ADD SLT PUSH2 0x107 JUMPI SWAP1 DUP2 SWAP1 PUSH1 0x1 PUSH1 0x1 PUSH1 0xA0 SHL SUB PUSH2 0x3E0 PUSH2 0xA2F JUMP JUMPDEST AND DUP2 MSTORE PUSH1 0x6 PUSH1 0x20 MSTORE KECCAK256 PUSH1 0xFF PUSH1 0x1 DUP3 SLOAD SWAP3 ADD SLOAD AND DUP3 MLOAD SWAP2 DUP3 MSTORE ISZERO ISZERO PUSH1 0x20 DUP3 ADD MSTORE RETURN JUMPDEST SWAP2 SWAP1 POP CALLVALUE PUSH2 0x54E JUMPI DUP3 PUSH1 0x3 NOT CALLDATASIZE ADD SLT PUSH2 0x54E JUMPI PUSH32 0x0 TIMESTAMP LT PUSH2 0x541 JUMPI CALLER DUP4 MSTORE PUSH1 0x6 PUSH1 0x20 MSTORE DUP1 DUP4 KECCAK256 PUSH1 0x1 DUP2 ADD PUSH1 0xFF DUP2 SLOAD AND PUSH2 0x532 JUMPI DUP2 SLOAD ISZERO PUSH2 0x523 JUMPI CALLER DUP6 MSTORE DUP5 PUSH1 0x20 MSTORE PUSH2 0x46E DUP4 DUP7 KECCAK256 SLOAD CALLER PUSH2 0xA99 JUMP JUMPDEST DUP1 SLOAD PUSH1 0xFF NOT AND PUSH1 0x1 OR SWAP1 SSTORE SLOAD DUP2 MLOAD PUSH4 0xA9059CBB PUSH1 0xE0 SHL DUP2 MSTORE CALLER DUP5 DUP3 ADD MSTORE PUSH1 0x24 DUP2 ADD SWAP2 SWAP1 SWAP2 MSTORE PUSH1 0x20 DUP2 PUSH1 0x44 DUP2 DUP8 PUSH32 0x0 PUSH1 0x1 PUSH1 0x1 PUSH1 0xA0 SHL SUB AND GAS CALL SWAP1 DUP2 ISZERO PUSH2 0x519 JUMPI DUP5 SWAP2 PUSH2 0x4EB JUMPI JUMPDEST POP ISZERO PUSH2 0x4DE JUMPI DUP3 DUP1 RETURN JUMPDEST MLOAD PUSH4 0x22E2581 PUSH1 0xE1 SHL DUP2 MSTORE REVERT JUMPDEST PUSH2 0x50C SWAP2 POP PUSH1 0x20 RETURNDATASIZE DUP2 GT PUSH2 0x512 JUMPI JUMPDEST PUSH2 0x504 DUP2 DUP4 PUSH2 0xA60 JUMP JUMPDEST DUP2 ADD SWAP1 PUSH2 0xB6B JUMP JUMPDEST CODESIZE PUSH2 0x4D4 JUMP JUMPDEST POP RETURNDATASIZE PUSH2 0x4FA JUMP JUMPDEST DUP3 MLOAD RETURNDATASIZE DUP7 DUP3 RETURNDATACOPY RETURNDATASIZE SWAP1 REVERT JUMPDEST POP POP MLOAD PUSH4 0x3A6A68B1 PUSH1 0xE0 SHL DUP2 MSTORE REVERT JUMPDEST POP POP MLOAD PUSH4 0xC8D9EAB PUSH1 0xE3 SHL DUP2 MSTORE REVERT JUMPDEST MLOAD PUSH4 0x111C4409 PUSH1 0xE0 SHL DUP2 MSTORE REVERT JUMPDEST DUP3 DUP1 REVERT JUMPDEST DUP4 SWAP1 CALLVALUE PUSH2 0x107 JUMPI PUSH1 0x20 CALLDATASIZE PUSH1 0x3 NOT ADD SLT PUSH2 0x107 JUMPI PUSH2 0x2F6 SWAP1 CALLDATALOAD CALLER PUSH2 0xA99 JUMP JUMPDEST POP POP CALLVALUE PUSH2 0x107 JUMPI DUP2 PUSH1 0x3 NOT CALLDATASIZE ADD SLT PUSH2 0x107 JUMPI PUSH1 0x20 SWAP1 MLOAD PUSH1 0x12 DUP2 MSTORE RETURN JUMPDEST DUP3 DUP5 CALLVALUE PUSH2 0x1B6 JUMPI PUSH1 0x60 CALLDATASIZE PUSH1 0x3 NOT ADD SLT PUSH2 0x1B6 JUMPI POP PUSH2 0x5A8 PUSH2 0xA2F JUMP JUMPDEST POP PUSH2 0x1A8 PUSH2 0xA4A JUMP JUMPDEST DUP4 DUP4 CALLVALUE PUSH2 0x107 JUMPI DUP1 PUSH1 0x3 NOT CALLDATASIZE ADD SLT PUSH2 0x107 JUMPI PUSH2 0x5CB PUSH2 0xA2F JUMP JUMPDEST PUSH1 0x24 CALLDATALOAD SWAP2 SWAP1 PUSH1 0x1 PUSH1 0x1 PUSH1 0xA0 SHL SUB PUSH32 0x0 DUP2 AND SWAP2 CALLER DUP4 SWAP1 SUB PUSH2 0x770 JUMPI DUP5 ISZERO PUSH2 0x760 JUMPI DUP4 MLOAD SWAP3 PUSH4 0x23B872DD PUSH1 0xE0 SHL DUP5 MSTORE DUP8 DUP5 ADD MSTORE ADDRESS PUSH1 0x24 DUP5 ADD MSTORE DUP5 PUSH1 0x44 DUP5 ADD MSTORE PUSH1 0x20 SWAP3 DUP4 DUP2 PUSH1 0x64 DUP2 DUP11 DUP8 PUSH32 0x0 AND GAS CALL SWAP1 DUP2 ISZERO PUSH2 0x756 JUMPI DUP8 SWAP2 PUSH2 0x739 JUMPI JUMPDEST POP ISZERO PUSH2 0x729 JUMPI AND SWAP2 DUP3 ISZERO PUSH2 0x713 JUMPI PUSH2 0x67D DUP5 PUSH1 0x2 SLOAD PUSH2 0xB48 JUMP JUMPDEST PUSH1 0x2 SSTORE DUP3 DUP6 MSTORE DUP5 DUP3 MSTORE DUP1 DUP6 KECCAK256 DUP5 DUP2 SLOAD ADD SWAP1 SSTORE DUP3 DUP6 PUSH1 0x0 DUP1 MLOAD PUSH1 0x20 PUSH2 0xB84 DUP4 CODECOPY DUP2 MLOAD SWAP2 MSTORE DUP5 DUP5 MLOAD DUP9 DUP2 MSTORE LOG3 DUP1 MLOAD SWAP2 DUP3 DUP3 ADD PUSH1 0x1 PUSH1 0x1 PUSH1 0x40 SHL SUB DUP2 GT DUP5 DUP3 LT OR PUSH2 0x700 JUMPI SWAP2 PUSH1 0x6 PUSH2 0x6FA SWAP7 SWAP6 SWAP5 SWAP3 PUSH1 0x1 SWAP5 DUP4 MSTORE DUP7 DUP5 MSTORE DUP1 DUP5 ADD SWAP6 DUP10 DUP8 MSTORE DUP10 MSTORE MSTORE DUP7 KECCAK256 SWAP1 MLOAD DUP2 SSTORE ADD SWAP1 MLOAD ISZERO ISZERO PUSH1 0xFF DUP1 NOT DUP4 SLOAD AND SWAP2 AND OR SWAP1 SSTORE PUSH1 0x5 SLOAD PUSH2 0xB48 JUMP JUMPDEST PUSH1 0x5 SSTORE DUP1 RETURN JUMPDEST PUSH4 0x4E487B71 PUSH1 0xE0 SHL DUP8 MSTORE PUSH1 0x41 DUP9 MSTORE PUSH1 0x24 DUP8 REVERT JUMPDEST MLOAD PUSH4 0xEC442F05 PUSH1 0xE0 SHL DUP2 MSTORE DUP1 DUP7 ADD DUP6 SWAP1 MSTORE PUSH1 0x24 SWAP1 REVERT JUMPDEST DUP4 MLOAD PUSH4 0x22E2581 PUSH1 0xE1 SHL DUP2 MSTORE DUP8 SWAP1 REVERT JUMPDEST PUSH2 0x750 SWAP2 POP DUP5 RETURNDATASIZE DUP7 GT PUSH2 0x512 JUMPI PUSH2 0x504 DUP2 DUP4 PUSH2 0xA60 JUMP JUMPDEST DUP9 PUSH2 0x663 JUMP JUMPDEST DUP6 MLOAD RETURNDATASIZE DUP10 DUP3 RETURNDATACOPY RETURNDATASIZE SWAP1 REVERT JUMPDEST DUP4 MLOAD PUSH4 0x162908E3 PUSH1 0xE1 SHL DUP2 MSTORE DUP8 SWAP1 REVERT JUMPDEST DUP4 MLOAD PUSH3 0x461BCD PUSH1 0xE5 SHL DUP2 MSTORE PUSH1 0x20 DUP2 DUP10 ADD MSTORE PUSH1 0x23 PUSH1 0x24 DUP3 ADD MSTORE PUSH32 0x43616C6C6572206973206E6F7420746865206F66666572696E6720636F6E7472 PUSH1 0x44 DUP3 ADD MSTORE PUSH3 0x1858DD PUSH1 0xEA SHL PUSH1 0x64 DUP3 ADD MSTORE PUSH1 0x84 SWAP1 REVERT JUMPDEST POP POP CALLVALUE PUSH2 0x107 JUMPI DUP2 PUSH1 0x3 NOT CALLDATASIZE ADD SLT PUSH2 0x107 JUMPI MLOAD PUSH32 0x0 PUSH1 0x1 PUSH1 0x1 PUSH1 0xA0 SHL SUB AND DUP2 MSTORE PUSH1 0x20 SWAP1 RETURN JUMPDEST POP POP CALLVALUE PUSH2 0x107 JUMPI DUP2 PUSH1 0x3 NOT CALLDATASIZE ADD SLT PUSH2 0x107 JUMPI PUSH1 0x20 SWAP1 PUSH1 0x2 SLOAD SWAP1 MLOAD SWAP1 DUP2 MSTORE RETURN JUMPDEST SWAP1 POP CALLVALUE PUSH2 0x54E JUMPI DUP2 PUSH1 0x3 NOT CALLDATASIZE ADD SLT PUSH2 0x54E JUMPI PUSH2 0x83C PUSH2 0xA2F JUMP JUMPDEST PUSH1 0x24 CALLDATALOAD SWAP1 CALLER ISZERO PUSH2 0x8B5 JUMPI PUSH1 0x1 PUSH1 0x1 PUSH1 0xA0 SHL SUB AND SWAP2 DUP3 ISZERO PUSH2 0x89E JUMPI POP DUP1 DUP4 PUSH1 0x20 SWAP6 CALLER DUP2 MSTORE PUSH1 0x1 DUP8 MSTORE DUP2 DUP2 KECCAK256 DUP6 DUP3 MSTORE DUP8 MSTORE KECCAK256 SSTORE DUP3 MLOAD SWAP1 DUP2 MSTORE PUSH32 0x8C5BE1E5EBEC7D5BD14F71427D1E84F3DD0314C0F7B2291E5B200AC8C7C3B925 DUP5 CALLER SWAP3 LOG3 MLOAD PUSH1 0x1 DUP2 MSTORE RETURN JUMPDEST DUP4 MLOAD PUSH4 0x4A1406B1 PUSH1 0xE1 SHL DUP2 MSTORE SWAP1 DUP2 ADD DUP6 SWAP1 MSTORE PUSH1 0x24 SWAP1 REVERT JUMPDEST DUP4 MLOAD PUSH4 0xE602DF05 PUSH1 0xE0 SHL DUP2 MSTORE DUP1 DUP5 ADD DUP7 SWAP1 MSTORE PUSH1 0x24 SWAP1 REVERT JUMPDEST SWAP2 SWAP1 POP CALLVALUE PUSH2 0x54E JUMPI DUP3 PUSH1 0x3 NOT CALLDATASIZE ADD SLT PUSH2 0x54E JUMPI DUP1 MLOAD SWAP2 DUP4 PUSH1 0x3 SLOAD SWAP1 PUSH1 0x1 SWAP1 DUP3 DUP3 SHR SWAP3 DUP3 DUP2 AND DUP1 ISZERO PUSH2 0x999 JUMPI JUMPDEST PUSH1 0x20 SWAP6 DUP7 DUP7 LT DUP3 EQ PUSH2 0x986 JUMPI POP DUP5 DUP9 MSTORE SWAP1 DUP2 ISZERO PUSH2 0x964 JUMPI POP PUSH1 0x1 EQ PUSH2 0x929 JUMPI JUMPDEST PUSH2 0x21F DUP7 DUP7 PUSH2 0x215 DUP3 DUP12 SUB DUP4 PUSH2 0xA60 JUMP JUMPDEST SWAP3 SWAP6 POP PUSH1 0x3 DUP4 MSTORE DUP6 DUP4 KECCAK256 JUMPDEST DUP3 DUP5 LT PUSH2 0x951 JUMPI POP POP POP DUP3 PUSH2 0x21F SWAP5 PUSH2 0x215 SWAP3 DUP3 ADD ADD SWAP5 CODESIZE PUSH2 0x918 JUMP JUMPDEST DUP1 SLOAD DUP7 DUP6 ADD DUP9 ADD MSTORE SWAP3 DUP7 ADD SWAP3 DUP2 ADD PUSH2 0x934 JUMP JUMPDEST PUSH1 0xFF NOT AND DUP8 DUP7 ADD MSTORE POP POP POP ISZERO ISZERO PUSH1 0x5 SHL DUP4 ADD ADD SWAP3 POP PUSH2 0x215 DUP3 PUSH2 0x21F CODESIZE PUSH2 0x918 JUMP JUMPDEST PUSH4 0x4E487B71 PUSH1 0xE0 SHL DUP5 MSTORE PUSH1 0x22 SWAP1 MSTORE PUSH1 0x24 DUP4 REVERT JUMPDEST SWAP4 PUSH1 0x7F AND SWAP4 PUSH2 0x8F8 JUMP JUMPDEST DUP5 SWAP1 CALLVALUE PUSH2 0x107 JUMPI DUP2 PUSH1 0x3 NOT CALLDATASIZE ADD SLT PUSH2 0x107 JUMPI PUSH32 0x0 PUSH1 0x1 PUSH1 0x1 PUSH1 0xA0 SHL SUB AND DUP2 MSTORE PUSH1 0x20 SWAP1 RETURN JUMPDEST PUSH1 0x20 DUP1 DUP3 MSTORE DUP3 MLOAD DUP2 DUP4 ADD DUP2 SWAP1 MSTORE SWAP1 SWAP4 SWAP3 PUSH1 0x0 JUMPDEST DUP3 DUP2 LT PUSH2 0xA1B JUMPI POP POP PUSH1 0x40 SWAP3 SWAP4 POP PUSH1 0x0 DUP4 DUP3 DUP5 ADD ADD MSTORE PUSH1 0x1F DUP1 NOT SWAP2 ADD AND ADD ADD SWAP1 JUMP JUMPDEST DUP2 DUP2 ADD DUP7 ADD MLOAD DUP5 DUP3 ADD PUSH1 0x40 ADD MSTORE DUP6 ADD PUSH2 0x9F9 JUMP JUMPDEST PUSH1 0x4 CALLDATALOAD SWAP1 PUSH1 0x1 PUSH1 0x1 PUSH1 0xA0 SHL SUB DUP3 AND DUP3 SUB PUSH2 0xA45 JUMPI JUMP JUMPDEST PUSH1 0x0 DUP1 REVERT JUMPDEST PUSH1 0x24 CALLDATALOAD SWAP1 PUSH1 0x1 PUSH1 0x1 PUSH1 0xA0 SHL SUB DUP3 AND DUP3 SUB PUSH2 0xA45 JUMPI JUMP JUMPDEST PUSH1 0x1F SWAP1 SWAP2 ADD PUSH1 0x1F NOT AND DUP2 ADD SWAP1 PUSH1 0x1 PUSH1 0x1 PUSH1 0x40 SHL SUB DUP3 GT SWAP1 DUP3 LT OR PUSH2 0xA83 JUMPI PUSH1 0x40 MSTORE JUMP JUMPDEST PUSH4 0x4E487B71 PUSH1 0xE0 SHL PUSH1 0x0 MSTORE PUSH1 0x41 PUSH1 0x4 MSTORE PUSH1 0x24 PUSH1 0x0 REVERT JUMPDEST SWAP1 PUSH1 0x1 PUSH1 0x1 PUSH1 0xA0 SHL SUB DUP3 AND SWAP1 DUP2 ISZERO PUSH2 0xB11 JUMPI PUSH1 0x0 SWAP3 DUP3 DUP5 MSTORE DUP4 PUSH1 0x20 MSTORE PUSH1 0x40 DUP5 KECCAK256 SLOAD SWAP1 DUP3 DUP3 LT PUSH2 0xAF4 JUMPI POP DUP2 PUSH1 0x0 DUP1 MLOAD PUSH1 0x20 PUSH2 0xB84 DUP4 CODECOPY DUP2 MLOAD SWAP2 MSTORE SWAP3 PUSH1 0x20 SWAP3 DUP6 DUP8 MSTORE DUP7 DUP5 MSTORE SUB PUSH1 0x40 DUP7 KECCAK256 SSTORE DUP1 PUSH1 0x2 SLOAD SUB PUSH1 0x2 SSTORE PUSH1 0x40 MLOAD SWAP1 DUP2 MSTORE LOG3 JUMP JUMPDEST PUSH2 0x37F DUP4 PUSH1 0x40 MLOAD SWAP4 DUP5 SWAP4 PUSH4 0x391434E3 PUSH1 0xE2 SHL DUP6 MSTORE PUSH1 0x4 DUP6 ADD PUSH2 0xB2A JUMP JUMPDEST PUSH1 0x40 MLOAD PUSH4 0x4B637E8F PUSH1 0xE1 SHL DUP2 MSTORE PUSH1 0x0 PUSH1 0x4 DUP3 ADD MSTORE PUSH1 0x24 SWAP1 REVERT JUMPDEST PUSH1 0x40 SWAP2 SWAP5 SWAP4 SWAP3 PUSH1 0x60 DUP3 ADD SWAP6 PUSH1 0x1 DUP1 PUSH1 0xA0 SHL SUB AND DUP3 MSTORE PUSH1 0x20 DUP3 ADD MSTORE ADD MSTORE JUMP JUMPDEST SWAP2 SWAP1 DUP3 ADD DUP1 SWAP3 GT PUSH2 0xB55 JUMPI JUMP JUMPDEST PUSH4 0x4E487B71 PUSH1 0xE0 SHL PUSH1 0x0 MSTORE PUSH1 0x11 PUSH1 0x4 MSTORE PUSH1 0x24 PUSH1 0x0 REVERT JUMPDEST SWAP1 DUP2 PUSH1 0x20 SWAP2 SUB SLT PUSH2 0xA45 JUMPI MLOAD DUP1 ISZERO ISZERO DUP2 SUB PUSH2 0xA45 JUMPI SWAP1 JUMP INVALID 0xDD CALLCODE MSTORE 0xAD SHL 0xE2 0xC8 SWAP12 PUSH10 0xC2B068FC378DAA952BA7 CALL PUSH4 0xC4A11628 CREATE2 GAS 0x4D CREATE2 0x23 0xB3 0xEF LOG2 PUSH5 0x6970667358 0x22 SLT KECCAK256 PUSH19 0xAFF8AC0870E1AD92423DE4F8B5732447AFE3F3 0xA5 0xDD 0xB5 BALANCE 0xC3 SWAP13 0xB8 0xBF 0xF7 0xD 0xB2 PUSH8 0x64736F6C63430008 EQ STOP CALLER 0x4D 0xD3 0x4C 0x1E DUP6 CODESIZE PUSH12 0x354EFED754DF3C56823235E0 PUSH6 0x3E32231C2448 0xE8 0xD3 0x27 DUP2 GASLIMIT 0xD0 DUP12 0xE0 SMOD SWAP13 MSTORE8 AND MSIZE EQ SGT PREVRANDAO 0xCD 0x1F 0xD0 LOG4 CALLCODE DUP5 NOT 0x49 PUSH32 0x9722A3DAAFE3B4186F6B6457E0A2646970667358221220C90A7083542E24AEBD LOG1 0x2A POP 0xDE 0xD2 0xC8 LOG0 MUL MLOAD CALLDATACOPY 0xDF 0xF7 NUMBER 0x49 0xE2 RETURNDATASIZE 0x4B PUSH16 0x4AE9FCF7064736F6C63430008140033 "},"methodIdentifiers":{"createOffering(address,uint256,uint256,uint256,uint256,uint256,bool,bool,uint256,uint256,address,address,address)":"3db4b91a","createOfferingWithPaymentTokens(address,uint256,uint256,uint256,uint256,uint256,bool,bool,uint256,uint256,address,address,address,address[],address[])":"9c379dec","getAllOfferings()":"dc2a95bc","getOfferingAddress(uint256)":"ca18988a","getOfferingIdsByTokenOwner(address)":"2325d8e4","getOfferingOwner(address)":"79bf49b8","getUSDTConfig()":"577da058","offeringCount()":"71054962","offeringOwners(address)":"2187bbeb","offerings(uint256)":"e34fec1d","offeringsByTokenOwner(address,uint256)":"222bfe52","owner()":"8da5cb5b","renounceOwnership()":"715018a6","setUSDTConfig(address,address)":"40368db5","transferOwnership(address)":"f2fde38b","usdtAddress()":"9ab4a445","usdtOracleAddress()":"57878621"}}}}}