{"contracts/InvestmentManager.sol":{"InvestmentManager":{"abi":[{"inputs":[],"stateMutability":"nonpayable","type":"constructor"},{"inputs":[{"internalType":"address","name":"owner","type":"address"}],"name":"OwnableInvalidOwner","type":"error"},{"inputs":[{"internalType":"address","name":"account","type":"address"}],"name":"OwnableUnauthorizedAccount","type":"error"},{"anonymous":false,"inputs":[{"indexed":true,"internalType":"address","name":"investor","type":"address"},{"indexed":true,"internalType":"address","name":"offeringAddress","type":"address"},{"indexed":true,"internalType":"address","name":"paymentToken","type":"address"},{"indexed":false,"internalType":"uint256","name":"paidAmount","type":"uint256"},{"indexed":false,"internalType":"uint256","name":"tokensReceived","type":"uint256"}],"name":"InvestmentRouted","type":"event"},{"anonymous":false,"inputs":[{"indexed":true,"internalType":"address","name":"previousOwner","type":"address"},{"indexed":true,"internalType":"address","name":"newOwner","type":"address"}],"name":"OwnershipTransferred","type":"event"},{"anonymous":false,"inputs":[{"indexed":true,"internalType":"address","name":"investor","type":"address"},{"indexed":true,"internalType":"address","name":"offeringAddress","type":"address"},{"indexed":false,"internalType":"uint256","name":"amount","type":"uint256"}],"name":"TokensClaimed","type":"event"},{"inputs":[{"internalType":"address","name":"_offeringAddress","type":"address"}],"name":"claimInvestmentTokens","outputs":[],"stateMutability":"nonpayable","type":"function"},{"inputs":[],"name":"owner","outputs":[{"internalType":"address","name":"","type":"address"}],"stateMutability":"view","type":"function"},{"inputs":[],"name":"renounceOwnership","outputs":[],"stateMutability":"nonpayable","type":"function"},{"inputs":[{"internalType":"address","name":"_token","type":"address"},{"internalType":"uint256","name":"_amount","type":"uint256"},{"internalType":"address","name":"_to","type":"address"}],"name":"rescueERC20","outputs":[],"stateMutability":"nonpayable","type":"function"},{"inputs":[{"internalType":"uint256","name":"_amount","type":"uint256"},{"internalType":"address","name":"_to","type":"address"}],"name":"rescueNative","outputs":[],"stateMutability":"nonpayable","type":"function"},{"inputs":[{"internalType":"address","name":"_offeringAddress","type":"address"},{"internalType":"address","name":"_paymentToken","type":"address"},{"internalType":"uint256","name":"_paymentAmount","type":"uint256"}],"name":"routeInvestment","outputs":[],"stateMutability":"payable","type":"function"},{"inputs":[{"internalType":"address","name":"newOwner","type":"address"}],"name":"transferOwnership","outputs":[],"stateMutability":"nonpayable","type":"function"},{"stateMutability":"payable","type":"receive"}],"evm":{"bytecode":{"linkReferences":{},"object":"6080806040523461007a5733156100645760008054336001600160a01b03198216811783556040519290916001600160a01b0316907f8be0079c531659141344cd1fd0a4f28419497f9722a3daafe3b4186f6b6457e09080a36106e290816100808239f35b631e4fbdf760e01b815260006004820152602490fd5b600080fdfe60406080815260049081361015610020575b5050361561001e57600080fd5b005b600091823560e01c83816318af4c9e1461049257508063715018a61461044a57806377662ffc1461033d5780638da5cb5b14610311578063acf68f7b14610256578063d1726ca9146100f35763f2fde38b1461007c5750610011565b346100ef5760203660031901126100ef5761009561051b565b9061009e610531565b6001600160a01b039182169283156100d957505082546001600160a01b03198116831784551660008051602061066d8339815191528380a380f35b51631e4fbdf760e01b8152908101849052602490fd5b8280fd5b5060603660031901126100ef57602061010a61051b565b91610113610500565b6001600160a01b03808216959416936044359384939192909190876101d15761014f8451958693849363329d621160e11b855233918501610596565b038134885af180156101c7578690610184575b60008051602061068d83398151915292505b815193845260208401523392a480f35b506020823d82116101bf575b8161019d6020938361055d565b810103126101bb5760008051602061068d8339815191529151610162565b8580fd5b3d9150610190565b81513d88823e3d90fd5b6101ee8451958693849363329d621160e11b855233918501610596565b038189885af180156101c7578690610217575b60008051602061068d8339815191529250610174565b506020823d821161024e575b816102306020938361055d565b810103126101bb5760008051602061068d8339815191529151610201565b3d9150610223565b5090346100ef576020918260031936011261030d576001600160a01b0361027b61051b565b169282519163df8de3e760e01b83523390830152808260248188885af19182156103035785926102c2575b5060008051602061064d8339815191529192519283523392a380f35b91508082813d83116102fc575b6102d9818361055d565b810103126102f85760008051602061064d8339815191529151916102a6565b8480fd5b503d6102cf565b83513d87823e3d90fd5b8380fd5b505034610339578160031936011261033957905490516001600160a01b039091168152602090f35b5080fd5b5090346100ef5760603660031901126100ef5761035861051b565b602435926001600160a01b0360443581811693908490036104465761037b610531565b16801561040b5760209291866044926103958815156105b8565b6103a0851515610604565b8651978895869463a9059cbb60e01b865285015260248401525af190811561040257506103cb575080f35b6020813d82116103fa575b816103e36020938361055d565b810103126103395751801515036103f75780f35b80fd5b3d91506103d6565b513d84823e3d90fd5b835162461bcd60e51b81526020818401526015602482015274496e76616c696420746f6b656e206164647265737360581b6044820152606490fd5b8680fd5b83346103f757806003193601126103f757610463610531565b80546001600160a01b03198116825581906001600160a01b031660008051602061066d8339815191528280a380f35b9190503461033957826003193601126103395781808092356104b2610500565b6104ba610531565b8115906104c782156105b8565b6001600160a01b0316906104dc821515610604565b83906104f7575bf1156104ed575080f35b51903d90823e3d90fd5b506108fc6104e3565b602435906001600160a01b038216820361051657565b600080fd5b600435906001600160a01b038216820361051657565b6000546001600160a01b0316330361054557565b60405163118cdaa760e01b8152336004820152602490fd5b601f909101601f19168101906001600160401b0382119082101761058057604052565b634e487b7160e01b600052604160045260246000fd5b6001600160a01b03918216815291166020820152604081019190915260600190565b156105bf57565b60405162461bcd60e51b815260206004820152601d60248201527f416d6f756e74206d7573742062652067726561746572207468616e20300000006044820152606490fd5b1561060b57565b60405162461bcd60e51b8152602060048201526019602482015278496e76616c696420726563697069656e74206164647265737360381b6044820152606490fdfea86305abc2db271df4609aa86a8d044bc11fb36939841bfdad6c1ab2b26e94718be0079c531659141344cd1fd0a4f28419497f9722a3daafe3b4186f6b6457e04ca6fa6ca1ea19f82a05490d19bab8e9124bd2c0f8a2e4da4cbf90ce2b85fdf1a2646970667358221220cf3c3607a0ed5f0070c8bfe025231a89bc4e2b8cfe32eb3d2d2a7972beb0b24764736f6c63430008140033","opcodes":"PUSH1 0x80 DUP1 PUSH1 0x40 MSTORE CALLVALUE PUSH2 0x7A JUMPI CALLER ISZERO PUSH2 0x64 JUMPI PUSH1 0x0 DUP1 SLOAD CALLER PUSH1 0x1 PUSH1 0x1 PUSH1 0xA0 SHL SUB NOT DUP3 AND DUP2 OR DUP4 SSTORE PUSH1 0x40 MLOAD SWAP3 SWAP1 SWAP2 PUSH1 0x1 PUSH1 0x1 PUSH1 0xA0 SHL SUB AND SWAP1 PUSH32 0x8BE0079C531659141344CD1FD0A4F28419497F9722A3DAAFE3B4186F6B6457E0 SWAP1 DUP1 LOG3 PUSH2 0x6E2 SWAP1 DUP2 PUSH2 0x80 DUP3 CODECOPY RETURN JUMPDEST PUSH4 0x1E4FBDF7 PUSH1 0xE0 SHL DUP2 MSTORE PUSH1 0x0 PUSH1 0x4 DUP3 ADD MSTORE PUSH1 0x24 SWAP1 REVERT JUMPDEST PUSH1 0x0 DUP1 REVERT INVALID PUSH1 0x40 PUSH1 0x80 DUP2 MSTORE PUSH1 0x4 SWAP1 DUP2 CALLDATASIZE LT ISZERO PUSH2 0x20 JUMPI JUMPDEST POP POP CALLDATASIZE ISZERO PUSH2 0x1E JUMPI PUSH1 0x0 DUP1 REVERT JUMPDEST STOP JUMPDEST PUSH1 0x0 SWAP2 DUP3 CALLDATALOAD PUSH1 0xE0 SHR DUP4 DUP2 PUSH4 0x18AF4C9E EQ PUSH2 0x492 JUMPI POP DUP1 PUSH4 0x715018A6 EQ PUSH2 0x44A JUMPI DUP1 PUSH4 0x77662FFC EQ PUSH2 0x33D JUMPI DUP1 PUSH4 0x8DA5CB5B EQ PUSH2 0x311 JUMPI DUP1 PUSH4 0xACF68F7B EQ PUSH2 0x256 JUMPI DUP1 PUSH4 0xD1726CA9 EQ PUSH2 0xF3 JUMPI PUSH4 0xF2FDE38B EQ PUSH2 0x7C JUMPI POP PUSH2 0x11 JUMP JUMPDEST CALLVALUE PUSH2 0xEF JUMPI PUSH1 0x20 CALLDATASIZE PUSH1 0x3 NOT ADD SLT PUSH2 0xEF JUMPI PUSH2 0x95 PUSH2 0x51B JUMP JUMPDEST SWAP1 PUSH2 0x9E PUSH2 0x531 JUMP JUMPDEST PUSH1 0x1 PUSH1 0x1 PUSH1 0xA0 SHL SUB SWAP2 DUP3 AND SWAP3 DUP4 ISZERO PUSH2 0xD9 JUMPI POP POP DUP3 SLOAD PUSH1 0x1 PUSH1 0x1 PUSH1 0xA0 SHL SUB NOT DUP2 AND DUP4 OR DUP5 SSTORE AND PUSH1 0x0 DUP1 MLOAD PUSH1 0x20 PUSH2 0x66D DUP4 CODECOPY DUP2 MLOAD SWAP2 MSTORE DUP4 DUP1 LOG3 DUP1 RETURN JUMPDEST MLOAD PUSH4 0x1E4FBDF7 PUSH1 0xE0 SHL DUP2 MSTORE SWAP1 DUP2 ADD DUP5 SWAP1 MSTORE PUSH1 0x24 SWAP1 REVERT JUMPDEST DUP3 DUP1 REVERT JUMPDEST POP PUSH1 0x60 CALLDATASIZE PUSH1 0x3 NOT ADD SLT PUSH2 0xEF JUMPI PUSH1 0x20 PUSH2 0x10A PUSH2 0x51B JUMP JUMPDEST SWAP2 PUSH2 0x113 PUSH2 0x500 JUMP JUMPDEST PUSH1 0x1 PUSH1 0x1 PUSH1 0xA0 SHL SUB DUP1 DUP3 AND SWAP6 SWAP5 AND SWAP4 PUSH1 0x44 CALLDATALOAD SWAP4 DUP5 SWAP4 SWAP2 SWAP3 SWAP1 SWAP2 SWAP1 DUP8 PUSH2 0x1D1 JUMPI PUSH2 0x14F DUP5 MLOAD SWAP6 DUP7 SWAP4 DUP5 SWAP4 PUSH4 0x329D6211 PUSH1 0xE1 SHL DUP6 MSTORE CALLER SWAP2 DUP6 ADD PUSH2 0x596 JUMP JUMPDEST SUB DUP2 CALLVALUE DUP9 GAS CALL DUP1 ISZERO PUSH2 0x1C7 JUMPI DUP7 SWAP1 PUSH2 0x184 JUMPI JUMPDEST PUSH1 0x0 DUP1 MLOAD PUSH1 0x20 PUSH2 0x68D DUP4 CODECOPY DUP2 MLOAD SWAP2 MSTORE SWAP3 POP JUMPDEST DUP2 MLOAD SWAP4 DUP5 MSTORE PUSH1 0x20 DUP5 ADD MSTORE CALLER SWAP3 LOG4 DUP1 RETURN JUMPDEST POP PUSH1 0x20 DUP3 RETURNDATASIZE DUP3 GT PUSH2 0x1BF JUMPI JUMPDEST DUP2 PUSH2 0x19D PUSH1 0x20 SWAP4 DUP4 PUSH2 0x55D JUMP JUMPDEST DUP2 ADD SUB SLT PUSH2 0x1BB JUMPI PUSH1 0x0 DUP1 MLOAD PUSH1 0x20 PUSH2 0x68D DUP4 CODECOPY DUP2 MLOAD SWAP2 MSTORE SWAP2 MLOAD PUSH2 0x162 JUMP JUMPDEST DUP6 DUP1 REVERT JUMPDEST RETURNDATASIZE SWAP2 POP PUSH2 0x190 JUMP JUMPDEST DUP2 MLOAD RETURNDATASIZE DUP9 DUP3 RETURNDATACOPY RETURNDATASIZE SWAP1 REVERT JUMPDEST PUSH2 0x1EE DUP5 MLOAD SWAP6 DUP7 SWAP4 DUP5 SWAP4 PUSH4 0x329D6211 PUSH1 0xE1 SHL DUP6 MSTORE CALLER SWAP2 DUP6 ADD PUSH2 0x596 JUMP JUMPDEST SUB DUP2 DUP10 DUP9 GAS CALL DUP1 ISZERO PUSH2 0x1C7 JUMPI DUP7 SWAP1 PUSH2 0x217 JUMPI JUMPDEST PUSH1 0x0 DUP1 MLOAD PUSH1 0x20 PUSH2 0x68D DUP4 CODECOPY DUP2 MLOAD SWAP2 MSTORE SWAP3 POP PUSH2 0x174 JUMP JUMPDEST POP PUSH1 0x20 DUP3 RETURNDATASIZE DUP3 GT PUSH2 0x24E JUMPI JUMPDEST DUP2 PUSH2 0x230 PUSH1 0x20 SWAP4 DUP4 PUSH2 0x55D JUMP JUMPDEST DUP2 ADD SUB SLT PUSH2 0x1BB JUMPI PUSH1 0x0 DUP1 MLOAD PUSH1 0x20 PUSH2 0x68D DUP4 CODECOPY DUP2 MLOAD SWAP2 MSTORE SWAP2 MLOAD PUSH2 0x201 JUMP JUMPDEST RETURNDATASIZE SWAP2 POP PUSH2 0x223 JUMP JUMPDEST POP SWAP1 CALLVALUE PUSH2 0xEF JUMPI PUSH1 0x20 SWAP2 DUP3 PUSH1 0x3 NOT CALLDATASIZE ADD SLT PUSH2 0x30D JUMPI PUSH1 0x1 PUSH1 0x1 PUSH1 0xA0 SHL SUB PUSH2 0x27B PUSH2 0x51B JUMP JUMPDEST AND SWAP3 DUP3 MLOAD SWAP2 PUSH4 0xDF8DE3E7 PUSH1 0xE0 SHL DUP4 MSTORE CALLER SWAP1 DUP4 ADD MSTORE DUP1 DUP3 PUSH1 0x24 DUP2 DUP9 DUP9 GAS CALL SWAP2 DUP3 ISZERO PUSH2 0x303 JUMPI DUP6 SWAP3 PUSH2 0x2C2 JUMPI JUMPDEST POP PUSH1 0x0 DUP1 MLOAD PUSH1 0x20 PUSH2 0x64D DUP4 CODECOPY DUP2 MLOAD SWAP2 MSTORE SWAP2 SWAP3 MLOAD SWAP3 DUP4 MSTORE CALLER SWAP3 LOG3 DUP1 RETURN JUMPDEST SWAP2 POP DUP1 DUP3 DUP2 RETURNDATASIZE DUP4 GT PUSH2 0x2FC JUMPI JUMPDEST PUSH2 0x2D9 DUP2 DUP4 PUSH2 0x55D JUMP JUMPDEST DUP2 ADD SUB SLT PUSH2 0x2F8 JUMPI PUSH1 0x0 DUP1 MLOAD PUSH1 0x20 PUSH2 0x64D DUP4 CODECOPY DUP2 MLOAD SWAP2 MSTORE SWAP2 MLOAD SWAP2 PUSH2 0x2A6 JUMP JUMPDEST DUP5 DUP1 REVERT JUMPDEST POP RETURNDATASIZE PUSH2 0x2CF JUMP JUMPDEST DUP4 MLOAD RETURNDATASIZE DUP8 DUP3 RETURNDATACOPY RETURNDATASIZE SWAP1 REVERT JUMPDEST DUP4 DUP1 REVERT JUMPDEST POP POP CALLVALUE PUSH2 0x339 JUMPI DUP2 PUSH1 0x3 NOT CALLDATASIZE ADD SLT PUSH2 0x339 JUMPI SWAP1 SLOAD SWAP1 MLOAD PUSH1 0x1 PUSH1 0x1 PUSH1 0xA0 SHL SUB SWAP1 SWAP2 AND DUP2 MSTORE PUSH1 0x20 SWAP1 RETURN JUMPDEST POP DUP1 REVERT JUMPDEST POP SWAP1 CALLVALUE PUSH2 0xEF JUMPI PUSH1 0x60 CALLDATASIZE PUSH1 0x3 NOT ADD SLT PUSH2 0xEF JUMPI PUSH2 0x358 PUSH2 0x51B JUMP JUMPDEST PUSH1 0x24 CALLDATALOAD SWAP3 PUSH1 0x1 PUSH1 0x1 PUSH1 0xA0 SHL SUB PUSH1 0x44 CALLDATALOAD DUP2 DUP2 AND SWAP4 SWAP1 DUP5 SWAP1 SUB PUSH2 0x446 JUMPI PUSH2 0x37B PUSH2 0x531 JUMP JUMPDEST AND DUP1 ISZERO PUSH2 0x40B JUMPI PUSH1 0x20 SWAP3 SWAP2 DUP7 PUSH1 0x44 SWAP3 PUSH2 0x395 DUP9 ISZERO ISZERO PUSH2 0x5B8 JUMP JUMPDEST PUSH2 0x3A0 DUP6 ISZERO ISZERO PUSH2 0x604 JUMP JUMPDEST DUP7 MLOAD SWAP8 DUP9 SWAP6 DUP7 SWAP5 PUSH4 0xA9059CBB PUSH1 0xE0 SHL DUP7 MSTORE DUP6 ADD MSTORE PUSH1 0x24 DUP5 ADD MSTORE GAS CALL SWAP1 DUP2 ISZERO PUSH2 0x402 JUMPI POP PUSH2 0x3CB JUMPI POP DUP1 RETURN JUMPDEST PUSH1 0x20 DUP2 RETURNDATASIZE DUP3 GT PUSH2 0x3FA JUMPI JUMPDEST DUP2 PUSH2 0x3E3 PUSH1 0x20 SWAP4 DUP4 PUSH2 0x55D JUMP JUMPDEST DUP2 ADD SUB SLT PUSH2 0x339 JUMPI MLOAD DUP1 ISZERO ISZERO SUB PUSH2 0x3F7 JUMPI DUP1 RETURN JUMPDEST DUP1 REVERT JUMPDEST RETURNDATASIZE SWAP2 POP PUSH2 0x3D6 JUMP JUMPDEST MLOAD RETURNDATASIZE DUP5 DUP3 RETURNDATACOPY RETURNDATASIZE SWAP1 REVERT JUMPDEST DUP4 MLOAD PUSH3 0x461BCD PUSH1 0xE5 SHL DUP2 MSTORE PUSH1 0x20 DUP2 DUP5 ADD MSTORE PUSH1 0x15 PUSH1 0x24 DUP3 ADD MSTORE PUSH21 0x496E76616C696420746F6B656E2061646472657373 PUSH1 0x58 SHL PUSH1 0x44 DUP3 ADD MSTORE PUSH1 0x64 SWAP1 REVERT JUMPDEST DUP7 DUP1 REVERT JUMPDEST DUP4 CALLVALUE PUSH2 0x3F7 JUMPI DUP1 PUSH1 0x3 NOT CALLDATASIZE ADD SLT PUSH2 0x3F7 JUMPI PUSH2 0x463 PUSH2 0x531 JUMP JUMPDEST DUP1 SLOAD PUSH1 0x1 PUSH1 0x1 PUSH1 0xA0 SHL SUB NOT DUP2 AND DUP3 SSTORE DUP2 SWAP1 PUSH1 0x1 PUSH1 0x1 PUSH1 0xA0 SHL SUB AND PUSH1 0x0 DUP1 MLOAD PUSH1 0x20 PUSH2 0x66D DUP4 CODECOPY DUP2 MLOAD SWAP2 MSTORE DUP3 DUP1 LOG3 DUP1 RETURN JUMPDEST SWAP2 SWAP1 POP CALLVALUE PUSH2 0x339 JUMPI DUP3 PUSH1 0x3 NOT CALLDATASIZE ADD SLT PUSH2 0x339 JUMPI DUP2 DUP1 DUP1 SWAP3 CALLDATALOAD PUSH2 0x4B2 PUSH2 0x500 JUMP JUMPDEST PUSH2 0x4BA PUSH2 0x531 JUMP JUMPDEST DUP2 ISZERO SWAP1 PUSH2 0x4C7 DUP3 ISZERO PUSH2 0x5B8 JUMP JUMPDEST PUSH1 0x1 PUSH1 0x1 PUSH1 0xA0 SHL SUB AND SWAP1 PUSH2 0x4DC DUP3 ISZERO ISZERO PUSH2 0x604 JUMP JUMPDEST DUP4 SWAP1 PUSH2 0x4F7 JUMPI JUMPDEST CALL ISZERO PUSH2 0x4ED JUMPI POP DUP1 RETURN JUMPDEST MLOAD SWAP1 RETURNDATASIZE SWAP1 DUP3 RETURNDATACOPY RETURNDATASIZE SWAP1 REVERT JUMPDEST POP PUSH2 0x8FC PUSH2 0x4E3 JUMP JUMPDEST PUSH1 0x24 CALLDATALOAD SWAP1 PUSH1 0x1 PUSH1 0x1 PUSH1 0xA0 SHL SUB DUP3 AND DUP3 SUB PUSH2 0x516 JUMPI JUMP JUMPDEST PUSH1 0x0 DUP1 REVERT JUMPDEST PUSH1 0x4 CALLDATALOAD SWAP1 PUSH1 0x1 PUSH1 0x1 PUSH1 0xA0 SHL SUB DUP3 AND DUP3 SUB PUSH2 0x516 JUMPI JUMP JUMPDEST PUSH1 0x0 SLOAD PUSH1 0x1 PUSH1 0x1 PUSH1 0xA0 SHL SUB AND CALLER SUB PUSH2 0x545 JUMPI JUMP JUMPDEST PUSH1 0x40 MLOAD PUSH4 0x118CDAA7 PUSH1 0xE0 SHL DUP2 MSTORE CALLER PUSH1 0x4 DUP3 ADD MSTORE PUSH1 0x24 SWAP1 REVERT JUMPDEST PUSH1 0x1F SWAP1 SWAP2 ADD PUSH1 0x1F NOT AND DUP2 ADD SWAP1 PUSH1 0x1 PUSH1 0x1 PUSH1 0x40 SHL SUB DUP3 GT SWAP1 DUP3 LT OR PUSH2 0x580 JUMPI PUSH1 0x40 MSTORE JUMP JUMPDEST PUSH4 0x4E487B71 PUSH1 0xE0 SHL PUSH1 0x0 MSTORE PUSH1 0x41 PUSH1 0x4 MSTORE PUSH1 0x24 PUSH1 0x0 REVERT JUMPDEST PUSH1 0x1 PUSH1 0x1 PUSH1 0xA0 SHL SUB SWAP2 DUP3 AND DUP2 MSTORE SWAP2 AND PUSH1 0x20 DUP3 ADD MSTORE PUSH1 0x40 DUP2 ADD SWAP2 SWAP1 SWAP2 MSTORE PUSH1 0x60 ADD SWAP1 JUMP JUMPDEST ISZERO PUSH2 0x5BF JUMPI JUMP JUMPDEST PUSH1 0x40 MLOAD PUSH3 0x461BCD PUSH1 0xE5 SHL DUP2 MSTORE PUSH1 0x20 PUSH1 0x4 DUP3 ADD MSTORE PUSH1 0x1D PUSH1 0x24 DUP3 ADD MSTORE PUSH32 0x416D6F756E74206D7573742062652067726561746572207468616E2030000000 PUSH1 0x44 DUP3 ADD MSTORE PUSH1 0x64 SWAP1 REVERT JUMPDEST ISZERO PUSH2 0x60B JUMPI JUMP JUMPDEST PUSH1 0x40 MLOAD PUSH3 0x461BCD PUSH1 0xE5 SHL DUP2 MSTORE PUSH1 0x20 PUSH1 0x4 DUP3 ADD MSTORE PUSH1 0x19 PUSH1 0x24 DUP3 ADD MSTORE PUSH25 0x496E76616C696420726563697069656E742061646472657373 PUSH1 0x38 SHL PUSH1 0x44 DUP3 ADD MSTORE PUSH1 0x64 SWAP1 REVERT INVALID 0xA8 PUSH4 0x5ABC2DB 0x27 SAR DELEGATECALL PUSH1 0x9A 0xA8 PUSH11 0x8D044BC11FB36939841BFD 0xAD PUSH13 0x1AB2B26E94718BE0079C531659 EQ SGT PREVRANDAO 0xCD 0x1F 0xD0 LOG4 CALLCODE DUP5 NOT 0x49 PUSH32 0x9722A3DAAFE3B4186F6B6457E04CA6FA6CA1EA19F82A05490D19BAB8E9124BD2 0xC0 0xF8 LOG2 0xE4 0xDA 0x4C 0xBF SWAP1 0xCE 0x2B DUP6 REVERT CALL LOG2 PUSH5 0x6970667358 0x22 SLT KECCAK256 0xCF EXTCODECOPY CALLDATASIZE SMOD LOG0 0xED PUSH0 STOP PUSH17 0xC8BFE025231A89BC4E2B8CFE32EB3D2D2A PUSH26 0x72BEB0B24764736F6C6343000814003300000000000000000000 "},"methodIdentifiers":{"claimInvestmentTokens(address)":"acf68f7b","owner()":"8da5cb5b","renounceOwnership()":"715018a6","rescueERC20(address,uint256,address)":"77662ffc","rescueNative(uint256,address)":"18af4c9e","routeInvestment(address,address,uint256)":"d1726ca9","transferOwnership(address)":"f2fde38b"}}}}}