{"contracts/WrappedTokenFactory.sol":{"WrappedTokenFactory":{"abi":[{"inputs":[],"stateMutability":"nonpayable","type":"constructor"},{"inputs":[{"internalType":"address","name":"owner","type":"address"}],"name":"OwnableInvalidOwner","type":"error"},{"inputs":[{"internalType":"address","name":"account","type":"address"}],"name":"OwnableUnauthorizedAccount","type":"error"},{"anonymous":false,"inputs":[{"indexed":true,"internalType":"address","name":"previousOwner","type":"address"},{"indexed":true,"internalType":"address","name":"newOwner","type":"address"}],"name":"OwnershipTransferred","type":"event"},{"anonymous":false,"inputs":[{"indexed":true,"internalType":"uint256","name":"tokenId","type":"uint256"},{"indexed":true,"internalType":"address","name":"creator","type":"address"},{"indexed":true,"internalType":"address","name":"wrappedTokenAddress","type":"address"},{"indexed":false,"internalType":"address","name":"offeringContract","type":"address"}],"name":"WrappedTokenDeployed","type":"event"},{"inputs":[{"internalType":"address","name":"","type":"address"},{"internalType":"uint256","name":"","type":"uint256"}],"name":"byCreator","outputs":[{"internalType":"uint256","name":"","type":"uint256"}],"stateMutability":"view","type":"function"},{"inputs":[],"name":"count","outputs":[{"internalType":"uint256","name":"","type":"uint256"}],"stateMutability":"view","type":"function"},{"inputs":[{"components":[{"internalType":"string","name":"name","type":"string"},{"internalType":"string","name":"symbol","type":"string"},{"internalType":"address","name":"peggedToken","type":"address"},{"internalType":"address","name":"payoutToken","type":"address"},{"internalType":"uint256","name":"maturityDate","type":"uint256"},{"internalType":"uint256","name":"payoutAPR","type":"uint256"},{"internalType":"address","name":"offeringContract","type":"address"},{"internalType":"address","name":"admin","type":"address"},{"internalType":"uint256","name":"payoutPeriodDuration","type":"uint256"}],"internalType":"struct WrappedTokenConfig","name":"config","type":"tuple"}],"name":"createWrappedToken","outputs":[{"internalType":"address","name":"wrappedTokenAddress","type":"address"}],"stateMutability":"nonpayable","type":"function"},{"inputs":[{"internalType":"address","name":"","type":"address"}],"name":"creators","outputs":[{"internalType":"address","name":"","type":"address"}],"stateMutability":"view","type":"function"},{"inputs":[],"name":"getAllWrappedTokens","outputs":[{"internalType":"address[]","name":"","type":"address[]"}],"stateMutability":"view","type":"function"},{"inputs":[{"internalType":"uint256","name":"tokenId","type":"uint256"}],"name":"getWrappedTokenAddress","outputs":[{"internalType":"address","name":"","type":"address"}],"stateMutability":"view","type":"function"},{"inputs":[{"internalType":"address","name":"wrappedTokenAddress","type":"address"}],"name":"getWrappedTokenCreator","outputs":[{"internalType":"address","name":"","type":"address"}],"stateMutability":"view","type":"function"},{"inputs":[{"internalType":"address","name":"creator","type":"address"}],"name":"getWrappedTokenIdsByCreator","outputs":[{"internalType":"uint256[]","name":"","type":"uint256[]"}],"stateMutability":"view","type":"function"},{"inputs":[],"name":"owner","outputs":[{"internalType":"address","name":"","type":"address"}],"stateMutability":"view","type":"function"},{"inputs":[],"name":"renounceOwnership","outputs":[],"stateMutability":"nonpayable","type":"function"},{"inputs":[{"internalType":"address","name":"newOwner","type":"address"}],"name":"transferOwnership","outputs":[],"stateMutability":"nonpayable","type":"function"},{"inputs":[{"internalType":"uint256","name":"","type":"uint256"}],"name":"wrappedTokens","outputs":[{"internalType":"address","name":"","type":"address"}],"stateMutability":"view","type":"function"}],"evm":{"bytecode":{"linkReferences":{},"object":"6080806040523461007a5733156100645760008054336001600160a01b03198216811783556040519290916001600160a01b0316907f8be0079c531659141344cd1fd0a4f28419497f9722a3daafe3b4186f6b6457e09080a3613e4390816100808239f35b631e4fbdf760e01b815260006004820152602490fd5b600080fdfe60808060405260043610156200001457600080fd5b60003560e01c90816306661abd14620007e8575080630819ec9d146200048a57806314dd14b3146200045357806315ad7e9414620004535780633fc497ca14620003955780636500d43f1462000297578063715018a6146200022d5780638da5cb5b1462000204578063933166e114620001c5578063e4ddcafb14620001c5578063f2c7f4b414620001685763f2fde38b14620000b057600080fd5b34620001635760203660031901126200016357620000cd62000884565b620000d7620008c9565b6001600160a01b0380911690811562000132576000548273ffffffffffffffffffffffffffffffffffffffff19821617600055167f8be0079c531659141344cd1fd0a4f28419497f9722a3daafe3b4186f6b6457e0600080a3005b60246040517f1e4fbdf700000000000000000000000000000000000000000000000000000000815260006004820152fd5b600080fd5b346200016357604036600319011262000163576200018562000884565b6001600160a01b0360243591166000526004602052604060002080548210156200016357602091620001b791620008b0565b90546040519160031b1c8152f35b3462000163576020366003190112620001635760206001600160a01b0380620001ed62000884565b166000526003825260406000205416604051908152f35b3462000163576000366003190112620001635760206001600160a01b0360005416604051908152f35b346200016357600036600319011262000163576200024a620008c9565b60006001600160a01b03815473ffffffffffffffffffffffffffffffffffffffff1981168355167f8be0079c531659141344cd1fd0a4f28419497f9722a3daafe3b4186f6b6457e08280a3005b346200016357600036600319011262000163576001805490620002ba8262000976565b90620002ca604051928362000805565b828252620002d88362000976565b6020838101949091601f190136863760005b8181106200033757505060405192818401908285525180915260408401949160005b8281106200031a5785870386f35b83516001600160a01b03168752958101959281019284016200030c565b80600096949695939552600285526001600160a01b03604060002054169083518110156200037f576200037391868260051b8601015262000950565b949294939193620002ea565b634e487b7160e01b600052603260045260246000fd5b34620001635760208060031936011262000163576001600160a01b03620003bb62000884565b1660005260048152604060002060405190818382549182815201908192600052846000209060005b868282106200043e578686620003fc8288038362000805565b604051928392818401908285525180915260408401929160005b8281106200042657505050500390f35b83518552869550938101939281019260010162000416565b835485529093019260019283019201620003e3565b34620001635760203660031901126200016357600435600052600260205260206001600160a01b0360406000205416604051908152f35b346200016357600319602036820112620001635760043567ffffffffffffffff918282116200016357610120908236030112620001635760405190610120820182811084821117620007685760405280600401358381116200016357620004f8906004369184010162000828565b825260248101359083821162000163576200051d610104926004369184010162000828565b602084015262000530604482016200089b565b604084015262000543606482016200089b565b60608401526084810135608084015260a481013560a08401526200056a60c482016200089b565b60c08401526200057d60e482016200089b565b60e0840152013580610100830152156200078a5760405191826134a7810110906134a78401111762000768576134a762000990833960206134a7830152620005fd620005e0825161012060206134a7870101526101406134a7860101906200090e565b60208301516134a78501808303601f19016040909101526200090e565b91806001600160a01b03938460408501511660606134a7840101528460608501511660806134a784010152608084015160a06134a78401015260a084015160c06134a7840101528460c08501511660e06134a7840101528460e0850151166101006134a7840101526101008401516101206134a78401015203906000f080156200077e578216906001546000526002602052604060002073ffffffffffffffffffffffffffffffffffffffff199083828254161790558260005260036020526040600020903390825416179055336000526004602052604060002090600154938254906801000000000000000082101562000768576020956200070c836200075d9660018996018155620008b0565b819291549060031b91821b91600019901b191617905560c060015493015116604051908152827f5c347f490c4bc521f814819a7844bf59d61c163459274aa6bd2b4fce4769dfab873393a462000950565b600155604051908152f35b634e487b7160e01b600052604160045260246000fd5b6040513d6000823e3d90fd5b60646040517f08c379a000000000000000000000000000000000000000000000000000000000815260206004820152601560248201527f496e76616c6964207061796f757420706572696f6400000000000000000000006044820152fd5b346200016357600036600319011262000163576020906001548152f35b90601f8019910116810190811067ffffffffffffffff8211176200076857604052565b81601f82011215620001635780359067ffffffffffffffff821162000768576040519262000861601f8401601f19166020018562000805565b828452602083830101116200016357816000926020809301838601378301015290565b600435906001600160a01b03821682036200016357565b35906001600160a01b03821682036200016357565b80548210156200037f5760005260206000200190600090565b6001600160a01b03600054163303620008de57565b60246040517f118cdaa7000000000000000000000000000000000000000000000000000000008152336004820152fd5b919082519283825260005b8481106200093b575050826000602080949584010152601f8019910116010190565b60208183018101518483018201520162000919565b6000198114620009605760010190565b634e487b7160e01b600052601160045260246000fd5b67ffffffffffffffff8111620007685760051b6020019056fe6040610120815234620005fb57620034a79081380380620000208162000600565b938439820191602081840312620005fb578051906001600160401b038211620005fb570191610120908184820312620005fb5782519182016001600160401b03811183821017620004b857835283516001600160401b038111620005fb57816200008c91860162000626565b82526020840151906001600160401b038211620005fb57620000b091850162000626565b90816020820152620000c483850162000698565b838201908152620000d86060860162000698565b606083019081526080860151916080840192835260a08701519260a085019384526200010760c0890162000698565b9260c086019384526200011d60e08a0162000698565b60e08701526101009889015189870190815286518051919491906001600160401b038211620004b85760035490600182811c92168015620005f0575b6020831014620005da5781601f84931162000565575b50602090601f8311600114620004da57600092620004ce575b50508160011b916000199060031b1c1916176003555b87516001600160401b038111620004b8576004988954600181811c91168015620004ad575b602082101462000498579081601f84931162000440575b50602090601f8311600114620003d557600092620003c9575b50508160011b916000199060031b1c19161788555b600160065580516001600160a01b0398908916158015620003bd575b8015620003ae575b620003a057835142101562000392578451156200039257888651161562000384578651801590811562000377575b5062000369575051871660805251861660a0525160c0525160e0908152905184168652905160095580820151620002b59392906200029a908416620006ad565b50620002ab8383830151166200072e565b50015116620007d1565b506000600e556000600f5551612c17918262000870833960805182818161073e015281816109bd015281816111ce015281816118b70152612018015260a05182818161038e015281816111f2015281816114ca015281816117a701526129d0015260c051828181610ca20152818161121901526117e0015260e051828181610b9401528181611740015281816125e9015281816127ef0152612bb701525181818161060401528181610b3d0152611d0d0152f35b895163f3f7756760e01b8152fd5b612710915011386200025a565b895163d92e233d60e01b8152fd5b895163c52a9bd360e01b8152fd5b8951632945604560e11b8152fd5b508860e089015116156200022c565b50888351161562000224565b015190503880620001f3565b60008c8152602081209350601f198516905b8181106200042757509084600195949392106200040d575b505050811b01885562000208565b015160001960f88460031b161c19169055388080620003ff565b92936020600181928786015181550195019301620003e7565b9091508a6000526020600020601f840160051c810191602085106200048d575b90601f859493920160051c01905b8181106200047d5750620001da565b600081558493506001016200046e565b909150819062000460565b60228b634e487b7160e01b6000525260246000fd5b90607f1690620001c3565b634e487b7160e01b600052604160045260246000fd5b01519050388062000188565b600360009081527fc2575a0e9e593c00f959f8c92f12db2869c3395a3b0502d05e2516446f71f85b9350601f198516905b8181106200054c575090846001959493921062000532575b505050811b016003556200019e565b015160001960f88460031b161c1916905538808062000523565b929360206001819287860151815501950193016200050b565b60036000529091507fc2575a0e9e593c00f959f8c92f12db2869c3395a3b0502d05e2516446f71f85b601f840160051c81019160208510620005cf575b90601f859493920160051c01905b818110620005bf57506200016f565b60008155849350600101620005b0565b9091508190620005a2565b634e487b7160e01b600052602260045260246000fd5b91607f169162000159565b600080fd5b6040519190601f01601f191682016001600160401b03811183821017620004b857604052565b919080601f84011215620005fb5782516001600160401b038111620004b8576020906200065c601f8201601f1916830162000600565b92818452828287010111620005fb5760005b8181106200068457508260009394955001015290565b85810183015184820184015282016200066e565b51906001600160a01b0382168203620005fb57565b6001600160a01b031660008181527f05b8ccbb9d4d8fb16ea74ce3c29a41f1b461fbdaff4714a0d9a8eb05499746bc602052604081205490919060ff166200072a5781805260056020526040822081835260205260408220600160ff198254161790553391600080516020620034878339815191528180a4600190565b5090565b6001600160a01b031660008181527fa9780ac285a6b64c20b34d35938634ccfeaf5de258bea281533158d789ca4a2f60205260408120549091907f84b05def62ce9bc2bd93f644e8c54b097db7ee9edab66685b9b15dc162c755649060ff16620007cc5780835260056020526040832082845260205260408320600160ff1982541617905560008051602062003487833981519152339380a4600190565b505090565b6001600160a01b031660008181527f02321e94d40847f2658a42722631f98abe2722cedcf64b586223ef22fc35c8d560205260408120549091907f139c2898040ef16910dc9f44dc697df79363da767d8bc92f2e310312b816e46d9060ff16620007cc5780835260056020526040832082845260205260408320600160ff1982541617905560008051602062003487833981519152339380a460019056fe608060408181526004918236101561001657600080fd5b600092833560e01c918262e77aa614611ff95750816301ffc9a714611f5857816306fdde0314611e63578163095ea7b314611dbb5781630974d4b614611d935781630b5dce3314611d6f5781631781f1a014611d5057816318160ddd14611d315781631a4f94f714611ced5781631a9516ee14611cc757816323b872dd14611ca2578163248a9ca314611c77578163278e421e14611c585781632f2ff15d14611c2e578163308839bd14611c07578163313ce56714611beb57816336568abe14611b8c57816336d89da714611b55578163389ed26714611b1a5781633e839bad14611afb5781633f4ba83a14611a785781634265b3c9146119ea57816342966c68146119cc578163464f0b0d146117cb5781634efa82b6146117875781635c975abb146117635781635dbe7216146117285781636cb74a261461142a5781636f7bc9be146113be57816370a082311461138857816379cc6790146112865781637c49509f1461125f5781637cc1f867146111925781637cf5ac06146111525781637eb9d981146111085781637f4dc2ee146110a457816380f7e03a14610fdb57816383c379d414610f8d5781638456cb5914610f325781638695ed6414610f13578163895955e614610ed857816391d1485414610e9257816395d89b4114610d8f578163a217fddf14610d74578163a9059cbb14610d32578163bff0808714610d05578163d547741f14610cc5578163d59624b414610c8a578163dd62ed3e14610c41578163e4be99dd14610c22578163eeef509b14610bfa578163f17acf1614610b21578163f2c39992146108cc578163f796142f146108ad578163f8abbb41146105e0578163f9168231146105c1578163f99f9fc5146102c8575063fafbb9a3146102a257600080fd5b346102c457816003193601126102c4576020906102bd612b9e565b9051908152f35b5080fd5b8383346102c457602090816003193601126105bd5783357f84b05def62ce9bc2bd93f644e8c54b097db7ee9edab66685b9b15dc162c7556480855260058452828520338652845260ff8386205416156105a0575061032461282d565b61032c61259e565b8015610591576fffffffffffffffffffffffffffffffff80821161054f57610352612b9e565b42106105275782516323b872dd60e01b815233878201908152306020820152604081018490528590829081906060010381896001600160a01b037f0000000000000000000000000000000000000000000000000000000000000000165af190811561051d5786916104f0575b50156104e157600e5495600187018097116104ce5786600e5567ffffffffffffffff871161048c5742600f55600b5491821161044a575084957fd4329b35294681a3d4bf10232afe0382cc8c1f3fab8861d9992a7b66cd8a13619495526011855282862055600e548552601084528082862055600e5493600b54908351928352820152a2600160065580f35b6064908585519162461bcd60e51b8352820152601460248201527f546f74616c205553445420746f6f206c617267650000000000000000000000006044820152fd5b6064908585519162461bcd60e51b8352820152601760248201527f546f6f206d616e79207061796f757420706572696f64730000000000000000006044820152fd5b856011602492634e487b7160e01b835252fd5b8583516312171d8360e31b8152fd5b6105109150853d8711610516575b6105088183612449565b810190612586565b876103be565b503d6104fe565b84513d88823e3d90fd5b8583517f33ffc78b000000000000000000000000000000000000000000000000000000008152fd5b6064868585519162461bcd60e51b8352820152601760248201527f5061796f757420616d6f756e7420746f6f206c617267650000000000000000006044820152fd5b84825163162908e360e11b8152fd5b8560449184519163e2517d3f60e01b835233908301526024820152fd5b8280fd5b5050346102c457816003193601126102c457602090600a549051908152f35b8383346102c45760603660031901126102c4576105fb612085565b906024356044357f00000000000000000000000000000000000000000000000000000000000000006001600160a01b0394858216330361089f57859061063f61259e565b169485156108905783158015610888575b6108795790839161066383600a54612554565b600a5561067284600b54612554565b600b5561068183600254612554565b6002558688526020928391898352878a20828154019055888a7fddf252ad1be2c89b69c2b068fc378daa952ba7f163c4a11628f55a4df523b3ef858b51868152a3888a528a8a6014958686528a82206106db868254612554565b90558b82528686526001808c8420016106f58b8254612554565b9055600e9788546107db575b50508a516323b872dd60e01b81526001600160a01b03909116928101928352306020840152604083019490945292945084928391829060600103927f0000000000000000000000000000000000000000000000000000000000000000165af19081156107d15787916107b4575b50156107a5577fcaf54550117adf10043aeaa9270b031dac674af74f7d8dab2af30faf222f8a72949596508351928352820152a280f35b8684516312171d8360e31b8152fd5b6107cb9150823d8411610516576105088183612449565b8861076e565b85513d89823e3d90fd5b9097888e8e825b6107ef575b505050610701565b93979a9890949991959296875487116108665750505091869594939183826108339552601392838d528282208583528d528282205415610845575b50505050612577565b948d928d9289978e8e8e999b986107e2565b8152868c52878282200154928c528181208482528c5220558f8c8f8f61082a565b96509750979289965081945080836107e7565b87855163162908e360e11b8152fd5b508215610650565b87855163d92e233d60e01b8152fd5b8785516282b42960e81b8152fd5b5050346102c457816003193601126102c4576020906008549051908152f35b919050346105bd57826003193601126105bd576108e761282d565b6108ef61259e565b60ff600c541615610afb5733835260209160148352818420928354918215610aed57600285019283549560ff87168015610ae0575b610ad157338852878452858820549160018201805492610946600d5484612621565b97838911610a8f578b9291839161095d8b87612b91565b9c61ff0019166101001790555555600a549061097891612b91565b600a55600b549061098891612b91565b600b55610995903361246b565b835163a9059cbb60e01b8152338282019081526020810187905283908290819060400103818a7f00000000000000000000000000000000000000000000000000000000000000006001600160a01b03165af19081156107d1578791610a72575b5015610a325750825193845283015233917fa34530ec0b9fd6c8b48017f6726af24c1ad4f28d0f434f7396906b6b954c1d989190a2600160065580f35b8160649285519262461bcd60e51b845283015260248201527f456d657267656e637920756e6c6f636b207472616e73666572206661696c65646044820152fd5b610a899150833d8511610516576105088183612449565b386109f5565b606487898c519162461bcd60e51b8352820152601960248201527f50656e616c74792063616c63756c6174696f6e206572726f72000000000000006044820152fd5b828651630c8d9eab60e31b8152fd5b5060ff8760081c16610924565b8351633a6a68b160e01b8152fd5b517fa2a2b35c000000000000000000000000000000000000000000000000000000008152fd5b9050346105bd57826003193601126105bd576001600160a01b037f0000000000000000000000000000000000000000000000000000000000000000163303610bed57600854610bc6575060207f01088e42d45c2231b3c8d6f2b875cc704aa1b99c67346eec5ee74ba6fe9d377691610bb97f000000000000000000000000000000000000000000000000000000000000000042612554565b908160085551908152a180f35b90517fc52a9bd3000000000000000000000000000000000000000000000000000000008152fd5b90516282b42960e81b8152fd5b9050346105bd5760203660031901126105bd5760209282913581526011845220549051908152f35b5050346102c457816003193601126102c4576020906009549051908152f35b5050346102c457806003193601126102c45780602092610c5f612085565b610c676120a0565b6001600160a01b0391821683526001865283832091168252845220549051908152f35b5050346102c457816003193601126102c457602090517f00000000000000000000000000000000000000000000000000000000000000008152f35b919050346105bd57806003193601126105bd57610d019135610cfc6001610cea6120a0565b9383875260056020528620015461219e565b61239f565b5080f35b8334610d2f576020366003190112610d2f57610d01610d22612085565b610d2a612164565b6122f3565b80fd5b828434610d2f5781600319360112610d2f5750610d4d612085565b50517fade576c5000000000000000000000000000000000000000000000000000000008152fd5b5050346102c457816003193601126102c45751908152602090f35b8383346102c457816003193601126102c457805191809380549160019083821c92828516948515610e88575b6020958686108114610e7557858952908115610e515750600114610df9575b610df58787610deb828c0383612449565b519182918261203c565b0390f35b81529295507f8a35acfbc15ff81a39ae7d344fd709f28e8600b4aa8c65c6b64bfe7fe36bd19b5b828410610e3e5750505082610df594610deb92820101948680610dda565b8054868501880152928601928101610e20565b60ff19168887015250505050151560051b8301019250610deb82610df58680610dda565b602484602285634e487b7160e01b835252fd5b93607f1693610dbb565b9050346105bd57816003193601126105bd578160209360ff92610eb36120a0565b90358252600586526001600160a01b0383832091168252855220541690519015158152f35b5050346102c457816003193601126102c457602090517f84b05def62ce9bc2bd93f644e8c54b097db7ee9edab66685b9b15dc162c755648152f35b5050346102c457816003193601126102c457602090600d549051908152f35b5050346102c457816003193601126102c45760207f62e78cea01bee320cd4e420270b5ea74000d11b0c9f74754ebdbfc544b05a25891610f706120ea565b610f7861259e565b600160ff19600754161760075551338152a180f35b8334610d2f5780600319360112610d2f57610fa6612164565b60ff19600c5416600c5580600d557fc2bd196abee045fde7a74e121a11ad6196a74256a1b0a2bcbc7ef0b2e2df991f8180a180f35b839150346102c457816003193601126102c457600e5491600f5491610ffe612b9e565b9085805180927f308839bd00000000000000000000000000000000000000000000000000000000825281305afa928315611099578093611064575b50508060c09560095494815196875260208701528501524210156060840152608083015260a0820152f35b909580935086813d8311611092575b61107d8183612449565b81010312610d2f57508060c095519295611039565b503d611073565b8651903d90823e3d90fd5b828434610d2f576020366003190112610d2f57506110fa610df56110ce6110c9612085565b612931565b94969397809391935198899889526020890152870152606086015260c0608086015260c08501906120b6565b9083820360a08501526120b6565b9050346105bd5760203660031901126105bd57611123612085565b9161112c612164565b6001600160a01b038316156111455783610d01846121c4565b5163d92e233d60e01b8152fd5b5050346102c457806003193601126102c457806020926001600160a01b03611178612085565b168152601384528181206024358252845220549051908152f35b5050346102c457816003193601126102c45761012090600a54600b54600e546009549060ff600c541692600d54948651966001600160a01b03807f00000000000000000000000000000000000000000000000000000000000000001689527f00000000000000000000000000000000000000000000000000000000000000001660208901527f0000000000000000000000000000000000000000000000000000000000000000908801526060870152608086015260a085015260c0840152151560e0830152610100820152f35b5050346102c457816003193601126102c45760209061127c612b9e565b4210159051908152f35b839150346102c457826003193601126102c4576112a1612085565b602435916001600160a01b0382168085526001602052858520338652602052858520549160001983106112dd575b856112da868661246b565b80f35b84831061134357811561132d573315611317575084959184916112da965260016020528287203388526020520390852055839285806112cf565b60249086885191634a1406b160e11b8352820152fd5b6024908688519163e602df0560e01b8352820152fd5b86517ffb8f41b2000000000000000000000000000000000000000000000000000000008152339181019182526020820193909352604081018590528291506060010390fd5b5050346102c45760203660031901126102c457806020926001600160a01b036113af612085565b16815280845220549051908152f35b5050346102c45760203660031901126102c4578060a0926001600160a01b036113e5612085565b1681526014602052209060ff82549260018101549260036002830154920154938151958652602086015282821615159085015260081c16151560608301526080820152f35b919050346105bd57826003193601126105bd5761144561282d565b61144d61259e565b3383526020601481528184209283541561171a57600284015460ff811690811561170c575b506116fe5784933386526012835283862054600181018091116116eb57600e54905b818111156116625750851561163a57906003913388526012855285882055016114be858254612554565b90556001600160a01b037f00000000000000000000000000000000000000000000000000000000000000001683516370a0823160e01b815230838201528381602481855afa9081156107d1578791611609575b50808611611601575b50828451809263a9059cbb60e01b82528189816115508b338a8401602090939291936001600160a01b0360408201951681520152565b03925af190811561051d5786916115e4575b50156115a35750907f0408e6e0b73daf4c873106e95fd067260fbff8bf9d1b499cad563d4480d45bac91600e549082519485528401523392a2600160065580f35b90606492519162461bcd60e51b8352820152601660248201527f5061796f7574207472616e73666572206661696c6564000000000000000000006044820152fd5b6115fb9150833d8511610516576105088183612449565b38611562565b94503861151a565b90508381813d8311611633575b6116208183612449565b8101031261162f575138611511565b8680fd5b503d611616565b8285517f439ece77000000000000000000000000000000000000000000000000000000008152fd5b8088526010855285882054601186528689205490801515806116e2575b611694575b505061168f90612577565b611494565b61169e8333612868565b90816116ab575b50611684565b82999399156116d5576116cc9261168f94926116c692612708565b90612554565b969038806116a5565b5050509561168f90612577565b5081151561167f565b602487601185634e487b7160e01b835252fd5b8251630c8d9eab60e31b8152fd5b60ff915060081c1638611472565b8251633a6a68b160e01b8152fd5b5050346102c457816003193601126102c457602090517f00000000000000000000000000000000000000000000000000000000000000008152f35b5050346102c457816003193601126102c45760209060ff6007541690519015158152f35b5050346102c457816003193601126102c457602090516001600160a01b037f0000000000000000000000000000000000000000000000000000000000000000168152f35b919050346105bd57826003193601126105bd577f000000000000000000000000000000000000000000000000000000000000000042106119a65761180d61282d565b61181561259e565b33835260209060148252808420926002840193845460ff81166119975760ff8160081c1661199757815495861561198857611887929161187e91338a52898852600180888c20549501549260ff191617905561187388600a54612b91565b600a55600b54612b91565b600b553361246b565b815163a9059cbb60e01b815233828201908152602081018690528490829081906040010381896001600160a01b037f0000000000000000000000000000000000000000000000000000000000000000165af190811561197e578691611961575b50156119205750907f8bb992a66750701ebd5f73b74463037e5a77fa3114ea76d89b9db1818b083f4891519283523392a2600160065580f35b82606492519162461bcd60e51b8352820152601b60248201527f46696e616c20746f6b656e207472616e73666572206661696c656400000000006044820152fd5b6119789150843d8611610516576105088183612449565b386118e7565b83513d88823e3d90fd5b838551633a6a68b160e01b8152fd5b828451630c8d9eab60e31b8152fd5b517f111c4409000000000000000000000000000000000000000000000000000000008152fd5b8390346102c45760203660031901126102c4576112da90353361246b565b919050346105bd5760203660031901126105bd57813591611a09612164565b6113888311611a5157507f373e08b9e2e94c99f958f95cf4e0a2db0e6de1f1607a5b7470341baab1ae608c91602091600160ff19600c541617600c5581600d5551908152a180f35b90517f458eae5b000000000000000000000000000000000000000000000000000000008152fd5b9050346105bd57826003193601126105bd57611a926120ea565b6007549060ff821615611ad4575060ff1916600755513381527f5db9ee0a495bf2e6ff9c91a7834c1ba4fdd244a5e8aa4e537bd38aeae4b073aa90602090a180f35b82517f8dfc202b000000000000000000000000000000000000000000000000000000008152fd5b5050346102c457816003193601126102c457602090600f549051908152f35b5050346102c457816003193601126102c457602090517f139c2898040ef16910dc9f44dc697df79363da767d8bc92f2e310312b816e46d8152f35b5050346102c45760203660031901126102c457806020926001600160a01b03611b7c612085565b1681526012845220549051908152f35b8383346102c457806003193601126102c457611ba66120a0565b90336001600160a01b03831603611bc35750610d0191923561239f565b8390517f6697b232000000000000000000000000000000000000000000000000000000008152fd5b5050346102c457816003193601126102c4576020905160128152f35b828434610d2f5780600319360112610d2f5750611c226125d4565b82519182526020820152f35b919050346105bd57806003193601126105bd57610d019135611c536001610cea6120a0565b612277565b5050346102c457816003193601126102c457602090600e549051908152f35b9050346105bd5760203660031901126105bd5781602093600192358152600585522001549051908152f35b828434610d2f576060366003190112610d2f5750611cbe612085565b50610d4d6120a0565b5050346102c45760203660031901126102c4576020906102bd611ce8612085565b6127bc565b5050346102c457816003193601126102c457602090516001600160a01b037f0000000000000000000000000000000000000000000000000000000000000000168152f35b5050346102c457816003193601126102c4576020906002549051908152f35b5050346102c457816003193601126102c457602090600b549051908152f35b5050346102c457816003193601126102c45760209060ff600c541690519015158152f35b9050346105bd5760203660031901126105bd5760209282913581526010845220549051908152f35b9050346105bd57816003193601126105bd57611dd5612085565b602435903315611e4d576001600160a01b0316918215611e3757508083602095338152600187528181208582528752205582519081527f8c5be1e5ebec7d5bd14f71427d1e84f3dd0314c0f7b2291e5b200ac8c7c3b925843392a35160018152f35b60249085855191634a1406b160e11b8352820152fd5b6024838686519163e602df0560e01b8352820152fd5b919050346105bd57826003193601126105bd57805191836003549060019082821c928281168015611f4e575b6020958686108214611f3b5750848852908115611f195750600114611ec0575b610df58686610deb828b0383612449565b929550600383527fc2575a0e9e593c00f959f8c92f12db2869c3395a3b0502d05e2516446f71f85b5b828410611f065750505082610df594610deb928201019438611eaf565b8054868501880152928601928101611ee9565b60ff191687860152505050151560051b8301019250610deb82610df538611eaf565b836022602492634e487b7160e01b835252fd5b93607f1693611e8f565b9050346105bd5760203660031901126105bd5735907fffffffff0000000000000000000000000000000000000000000000000000000082168092036105bd57602092507f7965db0b000000000000000000000000000000000000000000000000000000008214918215611fcf575b50519015158152f35b7f01ffc9a70000000000000000000000000000000000000000000000000000000014915038611fc6565b8490346102c457816003193601126102c4576020906001600160a01b037f0000000000000000000000000000000000000000000000000000000000000000168152f35b6020808252825181830181905290939260005b82811061207157505060409293506000838284010152601f8019910116010190565b81810186015184820160400152850161204f565b600435906001600160a01b038216820361209b57565b600080fd5b602435906001600160a01b038216820361209b57565b90815180825260208080930193019160005b8281106120d6575050505090565b8351855293810193928101926001016120c8565b3360009081527f02321e94d40847f2658a42722631f98abe2722cedcf64b586223ef22fc35c8d560205260409020547f139c2898040ef16910dc9f44dc697df79363da767d8bc92f2e310312b816e46d9060ff16156121465750565b6044906040519063e2517d3f60e01b82523360048301526024820152fd5b3360009081527f05b8ccbb9d4d8fb16ea74ce3c29a41f1b461fbdaff4714a0d9a8eb05499746bc602052604081205460ff16156121465750565b80600052600560205260406000203360005260205260ff60406000205416156121465750565b6001600160a01b031660008181527fa9780ac285a6b64c20b34d35938634ccfeaf5de258bea281533158d789ca4a2f60205260408120549091907f84b05def62ce9bc2bd93f644e8c54b097db7ee9edab66685b9b15dc162c755649060ff166122725780835260056020526040832082845260205260408320600160ff198254161790557f2f8788117e7eff1d82e926ec794901d17c78024a50270940304540a733656f0d339380a4600190565b505090565b9060009180835260056020526001600160a01b036040842092169182845260205260ff604084205416156000146122725780835260056020526040832082845260205260408320600160ff198254161790557f2f8788117e7eff1d82e926ec794901d17c78024a50270940304540a733656f0d339380a4600190565b6001600160a01b031660008181527fa9780ac285a6b64c20b34d35938634ccfeaf5de258bea281533158d789ca4a2f60205260408120549091907f84b05def62ce9bc2bd93f644e8c54b097db7ee9edab66685b9b15dc162c755649060ff1615612272578083526005602052604083208284526020526040832060ff1981541690557ff6391f5c32d9c69d2a47ea670b442974b53935d1edc7fd64eb21e047a839171b339380a4600190565b9060009180835260056020526001600160a01b036040842092169182845260205260ff604084205416600014612272578083526005602052604083208284526020526040832060ff1981541690557ff6391f5c32d9c69d2a47ea670b442974b53935d1edc7fd64eb21e047a839171b339380a4600190565b6020810190811067ffffffffffffffff82111761243357604052565b634e487b7160e01b600052604160045260246000fd5b90601f8019910116810190811067ffffffffffffffff82111761243357604052565b906001600160a01b03821690811561252357600092828452836020526040842054908282106124d85750817fddf252ad1be2c89b69c2b068fc378daa952ba7f163c4a11628f55a4df523b3ef926020928587528684520360408620558060025403600255604051908152a3565b6040517fe450d38c0000000000000000000000000000000000000000000000000000000081526001600160a01b03919091166004820152602481019190915260448101829052606490fd5b60246040517f96c6fd1e00000000000000000000000000000000000000000000000000000000815260006004820152fd5b9190820180921161256157565b634e487b7160e01b600052601160045260246000fd5b60001981146125615760010190565b9081602091031261209b5751801515810361209b5790565b60ff600754166125aa57565b60046040517fd93c0665000000000000000000000000000000000000000000000000000000008152fd5b600b549081156126195761261561260e6009547f00000000000000000000000000000000000000000000000000000000000000009061269c565b8093612621565b9190565b600091508190565b906000198183098183029182808310920391808303921461269157612710908282111561267e577fbc01a36e2eb1c432ca57a786c226809d495182a9930be0ded288ce703afb7e91940990828211900360fc1b910360041c170290565b634e487b7160005260116020526024601cfd5b505061271091500490565b90600019818309818302918280831092039180830392146126fb576301e13380908282111561267e577f98f5be4dd1e14769fbd6666224dc1eb80dd2e0a3d2c8b328f57e76b7ae103957940990828211900360f91b910360071c170290565b50506301e1338091500490565b90916000198383099280830292838086109503948086039514612798578483111561277f579082910981600003821680920460028082600302188083028203028083028203028083028203028083028203028083028203028092029003029360018380600003040190848311900302920304170290565b82634e487b71600052156003026011186020526024601cfd5b5050809250156127a6570490565b634e487b7160e01b600052601260045260246000fd5b6001600160a01b0316600052601460205260016040600020015480158015612823575b61281d5761281a906128146009547f00000000000000000000000000000000000000000000000000000000000000009061269c565b90612621565b90565b50600090565b50600b54156127df565b60026006541461283e576002600655565b60046040517f3ee5aeb5000000000000000000000000000000000000000000000000000000008152fd5b906000918183526011602052604083205415612272576001600160a01b0316908183526013602052604083209083526020526040822054806128b7575081526014602052604090206001015490565b91505090565b67ffffffffffffffff81116124335760051b60200190565b906128df826128bd565b6128ec6040519182612449565b82815280926128fd601f19916128bd565b0190602036910137565b805182101561291b5760209160051b010190565b634e487b7160e01b600052603260045260246000fd5b906001600160a01b03808316916000838152601460205260408120928354158015612b80575b612b4c57600384015494825260126020526001604083205494015492826001860192838711612b3857600e54845b81811115612b0357506129a061299a876128d5565b966128d5565b94839a84915b83811115612a5157505050506020602491604051928380926370a0823160e01b82523060048301527f0000000000000000000000000000000000000000000000000000000000000000165afa918215612a45578092612a10575b5050808811612a0c5750565b9650565b9091506020823d602011612a3d575b81612a2c60209383612449565b81010312610d2f5750513880612a00565b3d9150612a1f565b604051903d90823e3d90fd5b80865260106020526040862054601160205260408720549080151580612afa575b612a87575b5050612a8290612577565b6129a6565b612a918385612868565b9081612a9e575b50612a77565b949e92948215612aec578f90938c612ad7838e8a612ad1612ac9612ae39a612add9a612a829d612708565b978896612907565b52612907565b52612554565b9d612577565b92903880612a98565b5050509b91612a8290612577565b50811515612a72565b80845260106020526040842054612b23575b612b1e90612577565b612985565b95612b30612b1e91612577565b969050612b15565b602482634e487b7160e01b81526011600452fd5b50935091505060405191612b5f83612417565b80835260405192612b6f84612417565b818452813681378193829383929190565b5060ff600285015460081c16612957565b9190820391821161256157565b6008548015612be057600f548015612bdc5761281a91507f000000000000000000000000000000000000000000000000000000000000000090612554565b5090565b60046040517f816ace66000000000000000000000000000000000000000000000000000000008152fdfea164736f6c6343000814000a2f8788117e7eff1d82e926ec794901d17c78024a50270940304540a733656f0da164736f6c6343000814000a","opcodes":"PUSH1 0x80 DUP1 PUSH1 0x40 MSTORE CALLVALUE PUSH2 0x7A JUMPI CALLER ISZERO PUSH2 0x64 JUMPI PUSH1 0x0 DUP1 SLOAD CALLER PUSH1 0x1 PUSH1 0x1 PUSH1 0xA0 SHL SUB NOT DUP3 AND DUP2 OR DUP4 SSTORE PUSH1 0x40 MLOAD SWAP3 SWAP1 SWAP2 PUSH1 0x1 PUSH1 0x1 PUSH1 0xA0 SHL SUB AND SWAP1 PUSH32 0x8BE0079C531659141344CD1FD0A4F28419497F9722A3DAAFE3B4186F6B6457E0 SWAP1 DUP1 LOG3 PUSH2 0x3E43 SWAP1 DUP2 PUSH2 0x80 DUP3 CODECOPY RETURN JUMPDEST PUSH4 0x1E4FBDF7 PUSH1 0xE0 SHL DUP2 MSTORE PUSH1 0x0 PUSH1 0x4 DUP3 ADD MSTORE PUSH1 0x24 SWAP1 REVERT JUMPDEST PUSH1 0x0 DUP1 REVERT INVALID PUSH1 0x80 DUP1 PUSH1 0x40 MSTORE PUSH1 0x4 CALLDATASIZE LT ISZERO PUSH3 0x14 JUMPI PUSH1 0x0 DUP1 REVERT JUMPDEST PUSH1 0x0 CALLDATALOAD PUSH1 0xE0 SHR SWAP1 DUP2 PUSH4 0x6661ABD EQ PUSH3 0x7E8 JUMPI POP DUP1 PUSH4 0x819EC9D EQ PUSH3 0x48A JUMPI DUP1 PUSH4 0x14DD14B3 EQ PUSH3 0x453 JUMPI DUP1 PUSH4 0x15AD7E94 EQ PUSH3 0x453 JUMPI DUP1 PUSH4 0x3FC497CA EQ PUSH3 0x395 JUMPI DUP1 PUSH4 0x6500D43F EQ PUSH3 0x297 JUMPI DUP1 PUSH4 0x715018A6 EQ PUSH3 0x22D JUMPI DUP1 PUSH4 0x8DA5CB5B EQ PUSH3 0x204 JUMPI DUP1 PUSH4 0x933166E1 EQ PUSH3 0x1C5 JUMPI DUP1 PUSH4 0xE4DDCAFB EQ PUSH3 0x1C5 JUMPI DUP1 PUSH4 0xF2C7F4B4 EQ PUSH3 0x168 JUMPI PUSH4 0xF2FDE38B EQ PUSH3 0xB0 JUMPI PUSH1 0x0 DUP1 REVERT JUMPDEST CALLVALUE PUSH3 0x163 JUMPI PUSH1 0x20 CALLDATASIZE PUSH1 0x3 NOT ADD SLT PUSH3 0x163 JUMPI PUSH3 0xCD PUSH3 0x884 JUMP JUMPDEST PUSH3 0xD7 PUSH3 0x8C9 JUMP JUMPDEST PUSH1 0x1 PUSH1 0x1 PUSH1 0xA0 SHL SUB DUP1 SWAP2 AND SWAP1 DUP2 ISZERO PUSH3 0x132 JUMPI PUSH1 0x0 SLOAD DUP3 PUSH20 0xFFFFFFFFFFFFFFFFFFFFFFFFFFFFFFFFFFFFFFFF NOT DUP3 AND OR PUSH1 0x0 SSTORE AND PUSH32 0x8BE0079C531659141344CD1FD0A4F28419497F9722A3DAAFE3B4186F6B6457E0 PUSH1 0x0 DUP1 LOG3 STOP JUMPDEST PUSH1 0x24 PUSH1 0x40 MLOAD PUSH32 0x1E4FBDF700000000000000000000000000000000000000000000000000000000 DUP2 MSTORE PUSH1 0x0 PUSH1 0x4 DUP3 ADD MSTORE REVERT JUMPDEST PUSH1 0x0 DUP1 REVERT JUMPDEST CALLVALUE PUSH3 0x163 JUMPI PUSH1 0x40 CALLDATASIZE PUSH1 0x3 NOT ADD SLT PUSH3 0x163 JUMPI PUSH3 0x185 PUSH3 0x884 JUMP JUMPDEST PUSH1 0x1 PUSH1 0x1 PUSH1 0xA0 SHL SUB PUSH1 0x24 CALLDATALOAD SWAP2 AND PUSH1 0x0 MSTORE PUSH1 0x4 PUSH1 0x20 MSTORE PUSH1 0x40 PUSH1 0x0 KECCAK256 DUP1 SLOAD DUP3 LT ISZERO PUSH3 0x163 JUMPI PUSH1 0x20 SWAP2 PUSH3 0x1B7 SWAP2 PUSH3 0x8B0 JUMP JUMPDEST SWAP1 SLOAD PUSH1 0x40 MLOAD SWAP2 PUSH1 0x3 SHL SHR DUP2 MSTORE RETURN JUMPDEST CALLVALUE PUSH3 0x163 JUMPI PUSH1 0x20 CALLDATASIZE PUSH1 0x3 NOT ADD SLT PUSH3 0x163 JUMPI PUSH1 0x20 PUSH1 0x1 PUSH1 0x1 PUSH1 0xA0 SHL SUB DUP1 PUSH3 0x1ED PUSH3 0x884 JUMP JUMPDEST AND PUSH1 0x0 MSTORE PUSH1 0x3 DUP3 MSTORE PUSH1 0x40 PUSH1 0x0 KECCAK256 SLOAD AND PUSH1 0x40 MLOAD SWAP1 DUP2 MSTORE RETURN JUMPDEST CALLVALUE PUSH3 0x163 JUMPI PUSH1 0x0 CALLDATASIZE PUSH1 0x3 NOT ADD SLT PUSH3 0x163 JUMPI PUSH1 0x20 PUSH1 0x1 PUSH1 0x1 PUSH1 0xA0 SHL SUB PUSH1 0x0 SLOAD AND PUSH1 0x40 MLOAD SWAP1 DUP2 MSTORE RETURN JUMPDEST CALLVALUE PUSH3 0x163 JUMPI PUSH1 0x0 CALLDATASIZE PUSH1 0x3 NOT ADD SLT PUSH3 0x163 JUMPI PUSH3 0x24A PUSH3 0x8C9 JUMP JUMPDEST PUSH1 0x0 PUSH1 0x1 PUSH1 0x1 PUSH1 0xA0 SHL SUB DUP2 SLOAD PUSH20 0xFFFFFFFFFFFFFFFFFFFFFFFFFFFFFFFFFFFFFFFF NOT DUP2 AND DUP4 SSTORE AND PUSH32 0x8BE0079C531659141344CD1FD0A4F28419497F9722A3DAAFE3B4186F6B6457E0 DUP3 DUP1 LOG3 STOP JUMPDEST CALLVALUE PUSH3 0x163 JUMPI PUSH1 0x0 CALLDATASIZE PUSH1 0x3 NOT ADD SLT PUSH3 0x163 JUMPI PUSH1 0x1 DUP1 SLOAD SWAP1 PUSH3 0x2BA DUP3 PUSH3 0x976 JUMP JUMPDEST SWAP1 PUSH3 0x2CA PUSH1 0x40 MLOAD SWAP3 DUP4 PUSH3 0x805 JUMP JUMPDEST DUP3 DUP3 MSTORE PUSH3 0x2D8 DUP4 PUSH3 0x976 JUMP JUMPDEST PUSH1 0x20 DUP4 DUP2 ADD SWAP5 SWAP1 SWAP2 PUSH1 0x1F NOT ADD CALLDATASIZE DUP7 CALLDATACOPY PUSH1 0x0 JUMPDEST DUP2 DUP2 LT PUSH3 0x337 JUMPI POP POP PUSH1 0x40 MLOAD SWAP3 DUP2 DUP5 ADD SWAP1 DUP3 DUP6 MSTORE MLOAD DUP1 SWAP2 MSTORE PUSH1 0x40 DUP5 ADD SWAP5 SWAP2 PUSH1 0x0 JUMPDEST DUP3 DUP2 LT PUSH3 0x31A JUMPI DUP6 DUP8 SUB DUP7 RETURN JUMPDEST DUP4 MLOAD PUSH1 0x1 PUSH1 0x1 PUSH1 0xA0 SHL SUB AND DUP8 MSTORE SWAP6 DUP2 ADD SWAP6 SWAP3 DUP2 ADD SWAP3 DUP5 ADD PUSH3 0x30C JUMP JUMPDEST DUP1 PUSH1 0x0 SWAP7 SWAP5 SWAP7 SWAP6 SWAP4 SWAP6 MSTORE PUSH1 0x2 DUP6 MSTORE PUSH1 0x1 PUSH1 0x1 PUSH1 0xA0 SHL SUB PUSH1 0x40 PUSH1 0x0 KECCAK256 SLOAD AND SWAP1 DUP4 MLOAD DUP2 LT ISZERO PUSH3 0x37F JUMPI PUSH3 0x373 SWAP2 DUP7 DUP3 PUSH1 0x5 SHL DUP7 ADD ADD MSTORE PUSH3 0x950 JUMP JUMPDEST SWAP5 SWAP3 SWAP5 SWAP4 SWAP2 SWAP4 PUSH3 0x2EA JUMP JUMPDEST PUSH4 0x4E487B71 PUSH1 0xE0 SHL PUSH1 0x0 MSTORE PUSH1 0x32 PUSH1 0x4 MSTORE PUSH1 0x24 PUSH1 0x0 REVERT JUMPDEST CALLVALUE PUSH3 0x163 JUMPI PUSH1 0x20 DUP1 PUSH1 0x3 NOT CALLDATASIZE ADD SLT PUSH3 0x163 JUMPI PUSH1 0x1 PUSH1 0x1 PUSH1 0xA0 SHL SUB PUSH3 0x3BB PUSH3 0x884 JUMP JUMPDEST AND PUSH1 0x0 MSTORE PUSH1 0x4 DUP2 MSTORE PUSH1 0x40 PUSH1 0x0 KECCAK256 PUSH1 0x40 MLOAD SWAP1 DUP2 DUP4 DUP3 SLOAD SWAP2 DUP3 DUP2 MSTORE ADD SWAP1 DUP2 SWAP3 PUSH1 0x0 MSTORE DUP5 PUSH1 0x0 KECCAK256 SWAP1 PUSH1 0x0 JUMPDEST DUP7 DUP3 DUP3 LT PUSH3 0x43E JUMPI DUP7 DUP7 PUSH3 0x3FC DUP3 DUP9 SUB DUP4 PUSH3 0x805 JUMP JUMPDEST PUSH1 0x40 MLOAD SWAP3 DUP4 SWAP3 DUP2 DUP5 ADD SWAP1 DUP3 DUP6 MSTORE MLOAD DUP1 SWAP2 MSTORE PUSH1 0x40 DUP5 ADD SWAP3 SWAP2 PUSH1 0x0 JUMPDEST DUP3 DUP2 LT PUSH3 0x426 JUMPI POP POP POP POP SUB SWAP1 RETURN JUMPDEST DUP4 MLOAD DUP6 MSTORE DUP7 SWAP6 POP SWAP4 DUP2 ADD SWAP4 SWAP3 DUP2 ADD SWAP3 PUSH1 0x1 ADD PUSH3 0x416 JUMP JUMPDEST DUP4 SLOAD DUP6 MSTORE SWAP1 SWAP4 ADD SWAP3 PUSH1 0x1 SWAP3 DUP4 ADD SWAP3 ADD PUSH3 0x3E3 JUMP JUMPDEST CALLVALUE PUSH3 0x163 JUMPI PUSH1 0x20 CALLDATASIZE PUSH1 0x3 NOT ADD SLT PUSH3 0x163 JUMPI PUSH1 0x4 CALLDATALOAD PUSH1 0x0 MSTORE PUSH1 0x2 PUSH1 0x20 MSTORE PUSH1 0x20 PUSH1 0x1 PUSH1 0x1 PUSH1 0xA0 SHL SUB PUSH1 0x40 PUSH1 0x0 KECCAK256 SLOAD AND PUSH1 0x40 MLOAD SWAP1 DUP2 MSTORE RETURN JUMPDEST CALLVALUE PUSH3 0x163 JUMPI PUSH1 0x3 NOT PUSH1 0x20 CALLDATASIZE DUP3 ADD SLT PUSH3 0x163 JUMPI PUSH1 0x4 CALLDATALOAD PUSH8 0xFFFFFFFFFFFFFFFF SWAP2 DUP3 DUP3 GT PUSH3 0x163 JUMPI PUSH2 0x120 SWAP1 DUP3 CALLDATASIZE SUB ADD SLT PUSH3 0x163 JUMPI PUSH1 0x40 MLOAD SWAP1 PUSH2 0x120 DUP3 ADD DUP3 DUP2 LT DUP5 DUP3 GT OR PUSH3 0x768 JUMPI PUSH1 0x40 MSTORE DUP1 PUSH1 0x4 ADD CALLDATALOAD DUP4 DUP2 GT PUSH3 0x163 JUMPI PUSH3 0x4F8 SWAP1 PUSH1 0x4 CALLDATASIZE SWAP2 DUP5 ADD ADD PUSH3 0x828 JUMP JUMPDEST DUP3 MSTORE PUSH1 0x24 DUP2 ADD CALLDATALOAD SWAP1 DUP4 DUP3 GT PUSH3 0x163 JUMPI PUSH3 0x51D PUSH2 0x104 SWAP3 PUSH1 0x4 CALLDATASIZE SWAP2 DUP5 ADD ADD PUSH3 0x828 JUMP JUMPDEST PUSH1 0x20 DUP5 ADD MSTORE PUSH3 0x530 PUSH1 0x44 DUP3 ADD PUSH3 0x89B JUMP JUMPDEST PUSH1 0x40 DUP5 ADD MSTORE PUSH3 0x543 PUSH1 0x64 DUP3 ADD PUSH3 0x89B JUMP JUMPDEST PUSH1 0x60 DUP5 ADD MSTORE PUSH1 0x84 DUP2 ADD CALLDATALOAD PUSH1 0x80 DUP5 ADD MSTORE PUSH1 0xA4 DUP2 ADD CALLDATALOAD PUSH1 0xA0 DUP5 ADD MSTORE PUSH3 0x56A PUSH1 0xC4 DUP3 ADD PUSH3 0x89B JUMP JUMPDEST PUSH1 0xC0 DUP5 ADD MSTORE PUSH3 0x57D PUSH1 0xE4 DUP3 ADD PUSH3 0x89B JUMP JUMPDEST PUSH1 0xE0 DUP5 ADD MSTORE ADD CALLDATALOAD DUP1 PUSH2 0x100 DUP4 ADD MSTORE ISZERO PUSH3 0x78A JUMPI PUSH1 0x40 MLOAD SWAP2 DUP3 PUSH2 0x34A7 DUP2 ADD LT SWAP1 PUSH2 0x34A7 DUP5 ADD GT OR PUSH3 0x768 JUMPI PUSH2 0x34A7 PUSH3 0x990 DUP4 CODECOPY PUSH1 0x20 PUSH2 0x34A7 DUP4 ADD MSTORE PUSH3 0x5FD PUSH3 0x5E0 DUP3 MLOAD PUSH2 0x120 PUSH1 0x20 PUSH2 0x34A7 DUP8 ADD ADD MSTORE PUSH2 0x140 PUSH2 0x34A7 DUP7 ADD ADD SWAP1 PUSH3 0x90E JUMP JUMPDEST PUSH1 0x20 DUP4 ADD MLOAD PUSH2 0x34A7 DUP6 ADD DUP1 DUP4 SUB PUSH1 0x1F NOT ADD PUSH1 0x40 SWAP1 SWAP2 ADD MSTORE PUSH3 0x90E JUMP JUMPDEST SWAP2 DUP1 PUSH1 0x1 PUSH1 0x1 PUSH1 0xA0 SHL SUB SWAP4 DUP5 PUSH1 0x40 DUP6 ADD MLOAD AND PUSH1 0x60 PUSH2 0x34A7 DUP5 ADD ADD MSTORE DUP5 PUSH1 0x60 DUP6 ADD MLOAD AND PUSH1 0x80 PUSH2 0x34A7 DUP5 ADD ADD MSTORE PUSH1 0x80 DUP5 ADD MLOAD PUSH1 0xA0 PUSH2 0x34A7 DUP5 ADD ADD MSTORE PUSH1 0xA0 DUP5 ADD MLOAD PUSH1 0xC0 PUSH2 0x34A7 DUP5 ADD ADD MSTORE DUP5 PUSH1 0xC0 DUP6 ADD MLOAD AND PUSH1 0xE0 PUSH2 0x34A7 DUP5 ADD ADD MSTORE DUP5 PUSH1 0xE0 DUP6 ADD MLOAD AND PUSH2 0x100 PUSH2 0x34A7 DUP5 ADD ADD MSTORE PUSH2 0x100 DUP5 ADD MLOAD PUSH2 0x120 PUSH2 0x34A7 DUP5 ADD ADD MSTORE SUB SWAP1 PUSH1 0x0 CREATE DUP1 ISZERO PUSH3 0x77E JUMPI DUP3 AND SWAP1 PUSH1 0x1 SLOAD PUSH1 0x0 MSTORE PUSH1 0x2 PUSH1 0x20 MSTORE PUSH1 0x40 PUSH1 0x0 KECCAK256 PUSH20 0xFFFFFFFFFFFFFFFFFFFFFFFFFFFFFFFFFFFFFFFF NOT SWAP1 DUP4 DUP3 DUP3 SLOAD AND OR SWAP1 SSTORE DUP3 PUSH1 0x0 MSTORE PUSH1 0x3 PUSH1 0x20 MSTORE PUSH1 0x40 PUSH1 0x0 KECCAK256 SWAP1 CALLER SWAP1 DUP3 SLOAD AND OR SWAP1 SSTORE CALLER PUSH1 0x0 MSTORE PUSH1 0x4 PUSH1 0x20 MSTORE PUSH1 0x40 PUSH1 0x0 KECCAK256 SWAP1 PUSH1 0x1 SLOAD SWAP4 DUP3 SLOAD SWAP1 PUSH9 0x10000000000000000 DUP3 LT ISZERO PUSH3 0x768 JUMPI PUSH1 0x20 SWAP6 PUSH3 0x70C DUP4 PUSH3 0x75D SWAP7 PUSH1 0x1 DUP10 SWAP7 ADD DUP2 SSTORE PUSH3 0x8B0 JUMP JUMPDEST DUP2 SWAP3 SWAP2 SLOAD SWAP1 PUSH1 0x3 SHL SWAP2 DUP3 SHL SWAP2 PUSH1 0x0 NOT SWAP1 SHL NOT AND OR SWAP1 SSTORE PUSH1 0xC0 PUSH1 0x1 SLOAD SWAP4 ADD MLOAD AND PUSH1 0x40 MLOAD SWAP1 DUP2 MSTORE DUP3 PUSH32 0x5C347F490C4BC521F814819A7844BF59D61C163459274AA6BD2B4FCE4769DFAB DUP8 CALLER SWAP4 LOG4 PUSH3 0x950 JUMP JUMPDEST PUSH1 0x1 SSTORE PUSH1 0x40 MLOAD SWAP1 DUP2 MSTORE RETURN JUMPDEST PUSH4 0x4E487B71 PUSH1 0xE0 SHL PUSH1 0x0 MSTORE PUSH1 0x41 PUSH1 0x4 MSTORE PUSH1 0x24 PUSH1 0x0 REVERT JUMPDEST PUSH1 0x40 MLOAD RETURNDATASIZE PUSH1 0x0 DUP3 RETURNDATACOPY RETURNDATASIZE SWAP1 REVERT JUMPDEST PUSH1 0x64 PUSH1 0x40 MLOAD PUSH32 0x8C379A000000000000000000000000000000000000000000000000000000000 DUP2 MSTORE PUSH1 0x20 PUSH1 0x4 DUP3 ADD MSTORE PUSH1 0x15 PUSH1 0x24 DUP3 ADD MSTORE PUSH32 0x496E76616C6964207061796F757420706572696F640000000000000000000000 PUSH1 0x44 DUP3 ADD MSTORE REVERT JUMPDEST CALLVALUE PUSH3 0x163 JUMPI PUSH1 0x0 CALLDATASIZE PUSH1 0x3 NOT ADD SLT PUSH3 0x163 JUMPI PUSH1 0x20 SWAP1 PUSH1 0x1 SLOAD DUP2 MSTORE RETURN JUMPDEST SWAP1 PUSH1 0x1F DUP1 NOT SWAP2 ADD AND DUP2 ADD SWAP1 DUP2 LT PUSH8 0xFFFFFFFFFFFFFFFF DUP3 GT OR PUSH3 0x768 JUMPI PUSH1 0x40 MSTORE JUMP JUMPDEST DUP2 PUSH1 0x1F DUP3 ADD SLT ISZERO PUSH3 0x163 JUMPI DUP1 CALLDATALOAD SWAP1 PUSH8 0xFFFFFFFFFFFFFFFF DUP3 GT PUSH3 0x768 JUMPI PUSH1 0x40 MLOAD SWAP3 PUSH3 0x861 PUSH1 0x1F DUP5 ADD PUSH1 0x1F NOT AND PUSH1 0x20 ADD DUP6 PUSH3 0x805 JUMP JUMPDEST DUP3 DUP5 MSTORE PUSH1 0x20 DUP4 DUP4 ADD ADD GT PUSH3 0x163 JUMPI DUP2 PUSH1 0x0 SWAP3 PUSH1 0x20 DUP1 SWAP4 ADD DUP4 DUP7 ADD CALLDATACOPY DUP4 ADD ADD MSTORE SWAP1 JUMP JUMPDEST PUSH1 0x4 CALLDATALOAD SWAP1 PUSH1 0x1 PUSH1 0x1 PUSH1 0xA0 SHL SUB DUP3 AND DUP3 SUB PUSH3 0x163 JUMPI JUMP JUMPDEST CALLDATALOAD SWAP1 PUSH1 0x1 PUSH1 0x1 PUSH1 0xA0 SHL SUB DUP3 AND DUP3 SUB PUSH3 0x163 JUMPI JUMP JUMPDEST DUP1 SLOAD DUP3 LT ISZERO PUSH3 0x37F JUMPI PUSH1 0x0 MSTORE PUSH1 0x20 PUSH1 0x0 KECCAK256 ADD SWAP1 PUSH1 0x0 SWAP1 JUMP JUMPDEST PUSH1 0x1 PUSH1 0x1 PUSH1 0xA0 SHL SUB PUSH1 0x0 SLOAD AND CALLER SUB PUSH3 0x8DE JUMPI JUMP JUMPDEST PUSH1 0x24 PUSH1 0x40 MLOAD PUSH32 0x118CDAA700000000000000000000000000000000000000000000000000000000 DUP2 MSTORE CALLER PUSH1 0x4 DUP3 ADD MSTORE REVERT JUMPDEST SWAP2 SWAP1 DUP3 MLOAD SWAP3 DUP4 DUP3 MSTORE PUSH1 0x0 JUMPDEST DUP5 DUP2 LT PUSH3 0x93B JUMPI POP POP DUP3 PUSH1 0x0 PUSH1 0x20 DUP1 SWAP5 SWAP6 DUP5 ADD ADD MSTORE PUSH1 0x1F DUP1 NOT SWAP2 ADD AND ADD ADD SWAP1 JUMP JUMPDEST PUSH1 0x20 DUP2 DUP4 ADD DUP2 ADD MLOAD DUP5 DUP4 ADD DUP3 ADD MSTORE ADD PUSH3 0x919 JUMP JUMPDEST PUSH1 0x0 NOT DUP2 EQ PUSH3 0x960 JUMPI PUSH1 0x1 ADD SWAP1 JUMP JUMPDEST PUSH4 0x4E487B71 PUSH1 0xE0 SHL PUSH1 0x0 MSTORE PUSH1 0x11 PUSH1 0x4 MSTORE PUSH1 0x24 PUSH1 0x0 REVERT JUMPDEST PUSH8 0xFFFFFFFFFFFFFFFF DUP2 GT PUSH3 0x768 JUMPI PUSH1 0x5 SHL PUSH1 0x20 ADD SWAP1 JUMP INVALID PUSH1 0x40 PUSH2 0x120 DUP2 MSTORE CALLVALUE PUSH3 0x5FB JUMPI PUSH3 0x34A7 SWAP1 DUP2 CODESIZE SUB DUP1 PUSH3 0x20 DUP2 PUSH3 0x600 JUMP JUMPDEST SWAP4 DUP5 CODECOPY DUP3 ADD SWAP2 PUSH1 0x20 DUP2 DUP5 SUB SLT PUSH3 0x5FB JUMPI DUP1 MLOAD SWAP1 PUSH1 0x1 PUSH1 0x1 PUSH1 0x40 SHL SUB DUP3 GT PUSH3 0x5FB JUMPI ADD SWAP2 PUSH2 0x120 SWAP1 DUP2 DUP5 DUP3 SUB SLT PUSH3 0x5FB JUMPI DUP3 MLOAD SWAP2 DUP3 ADD PUSH1 0x1 PUSH1 0x1 PUSH1 0x40 SHL SUB DUP2 GT DUP4 DUP3 LT OR PUSH3 0x4B8 JUMPI DUP4 MSTORE DUP4 MLOAD PUSH1 0x1 PUSH1 0x1 PUSH1 0x40 SHL SUB DUP2 GT PUSH3 0x5FB JUMPI DUP2 PUSH3 0x8C SWAP2 DUP7 ADD PUSH3 0x626 JUMP JUMPDEST DUP3 MSTORE PUSH1 0x20 DUP5 ADD MLOAD SWAP1 PUSH1 0x1 PUSH1 0x1 PUSH1 0x40 SHL SUB DUP3 GT PUSH3 0x5FB JUMPI PUSH3 0xB0 SWAP2 DUP6 ADD PUSH3 0x626 JUMP JUMPDEST SWAP1 DUP2 PUSH1 0x20 DUP3 ADD MSTORE PUSH3 0xC4 DUP4 DUP6 ADD PUSH3 0x698 JUMP JUMPDEST DUP4 DUP3 ADD SWAP1 DUP2 MSTORE PUSH3 0xD8 PUSH1 0x60 DUP7 ADD PUSH3 0x698 JUMP JUMPDEST PUSH1 0x60 DUP4 ADD SWAP1 DUP2 MSTORE PUSH1 0x80 DUP7 ADD MLOAD SWAP2 PUSH1 0x80 DUP5 ADD SWAP3 DUP4 MSTORE PUSH1 0xA0 DUP8 ADD MLOAD SWAP3 PUSH1 0xA0 DUP6 ADD SWAP4 DUP5 MSTORE PUSH3 0x107 PUSH1 0xC0 DUP10 ADD PUSH3 0x698 JUMP JUMPDEST SWAP3 PUSH1 0xC0 DUP7 ADD SWAP4 DUP5 MSTORE PUSH3 0x11D PUSH1 0xE0 DUP11 ADD PUSH3 0x698 JUMP JUMPDEST PUSH1 0xE0 DUP8 ADD MSTORE PUSH2 0x100 SWAP9 DUP10 ADD MLOAD DUP10 DUP8 ADD SWAP1 DUP2 MSTORE DUP7 MLOAD DUP1 MLOAD SWAP2 SWAP5 SWAP2 SWAP1 PUSH1 0x1 PUSH1 0x1 PUSH1 0x40 SHL SUB DUP3 GT PUSH3 0x4B8 JUMPI PUSH1 0x3 SLOAD SWAP1 PUSH1 0x1 DUP3 DUP2 SHR SWAP3 AND DUP1 ISZERO PUSH3 0x5F0 JUMPI JUMPDEST PUSH1 0x20 DUP4 LT EQ PUSH3 0x5DA JUMPI DUP2 PUSH1 0x1F DUP5 SWAP4 GT PUSH3 0x565 JUMPI JUMPDEST POP PUSH1 0x20 SWAP1 PUSH1 0x1F DUP4 GT PUSH1 0x1 EQ PUSH3 0x4DA JUMPI PUSH1 0x0 SWAP3 PUSH3 0x4CE JUMPI JUMPDEST POP POP DUP2 PUSH1 0x1 SHL SWAP2 PUSH1 0x0 NOT SWAP1 PUSH1 0x3 SHL SHR NOT AND OR PUSH1 0x3 SSTORE JUMPDEST DUP8 MLOAD PUSH1 0x1 PUSH1 0x1 PUSH1 0x40 SHL SUB DUP2 GT PUSH3 0x4B8 JUMPI PUSH1 0x4 SWAP9 DUP10 SLOAD PUSH1 0x1 DUP2 DUP2 SHR SWAP2 AND DUP1 ISZERO PUSH3 0x4AD JUMPI JUMPDEST PUSH1 0x20 DUP3 LT EQ PUSH3 0x498 JUMPI SWAP1 DUP2 PUSH1 0x1F DUP5 SWAP4 GT PUSH3 0x440 JUMPI JUMPDEST POP PUSH1 0x20 SWAP1 PUSH1 0x1F DUP4 GT PUSH1 0x1 EQ PUSH3 0x3D5 JUMPI PUSH1 0x0 SWAP3 PUSH3 0x3C9 JUMPI JUMPDEST POP POP DUP2 PUSH1 0x1 SHL SWAP2 PUSH1 0x0 NOT SWAP1 PUSH1 0x3 SHL SHR NOT AND OR DUP9 SSTORE JUMPDEST PUSH1 0x1 PUSH1 0x6 SSTORE DUP1 MLOAD PUSH1 0x1 PUSH1 0x1 PUSH1 0xA0 SHL SUB SWAP9 SWAP1 DUP10 AND ISZERO DUP1 ISZERO PUSH3 0x3BD JUMPI JUMPDEST DUP1 ISZERO PUSH3 0x3AE JUMPI JUMPDEST PUSH3 0x3A0 JUMPI DUP4 MLOAD TIMESTAMP LT ISZERO PUSH3 0x392 JUMPI DUP5 MLOAD ISZERO PUSH3 0x392 JUMPI DUP9 DUP7 MLOAD AND ISZERO PUSH3 0x384 JUMPI DUP7 MLOAD DUP1 ISZERO SWAP1 DUP2 ISZERO PUSH3 0x377 JUMPI JUMPDEST POP PUSH3 0x369 JUMPI POP MLOAD DUP8 AND PUSH1 0x80 MSTORE MLOAD DUP7 AND PUSH1 0xA0 MSTORE MLOAD PUSH1 0xC0 MSTORE MLOAD PUSH1 0xE0 SWAP1 DUP2 MSTORE SWAP1 MLOAD DUP5 AND DUP7 MSTORE SWAP1 MLOAD PUSH1 0x9 SSTORE DUP1 DUP3 ADD MLOAD PUSH3 0x2B5 SWAP4 SWAP3 SWAP1 PUSH3 0x29A SWAP1 DUP5 AND PUSH3 0x6AD JUMP JUMPDEST POP PUSH3 0x2AB DUP4 DUP4 DUP4 ADD MLOAD AND PUSH3 0x72E JUMP JUMPDEST POP ADD MLOAD AND PUSH3 0x7D1 JUMP JUMPDEST POP PUSH1 0x0 PUSH1 0xE SSTORE PUSH1 0x0 PUSH1 0xF SSTORE MLOAD PUSH2 0x2C17 SWAP2 DUP3 PUSH3 0x870 DUP4 CODECOPY PUSH1 0x80 MLOAD DUP3 DUP2 DUP2 PUSH2 0x73E ADD MSTORE DUP2 DUP2 PUSH2 0x9BD ADD MSTORE DUP2 DUP2 PUSH2 0x11CE ADD MSTORE DUP2 DUP2 PUSH2 0x18B7 ADD MSTORE PUSH2 0x2018 ADD MSTORE PUSH1 0xA0 MLOAD DUP3 DUP2 DUP2 PUSH2 0x38E ADD MSTORE DUP2 DUP2 PUSH2 0x11F2 ADD MSTORE DUP2 DUP2 PUSH2 0x14CA ADD MSTORE DUP2 DUP2 PUSH2 0x17A7 ADD MSTORE PUSH2 0x29D0 ADD MSTORE PUSH1 0xC0 MLOAD DUP3 DUP2 DUP2 PUSH2 0xCA2 ADD MSTORE DUP2 DUP2 PUSH2 0x1219 ADD MSTORE PUSH2 0x17E0 ADD MSTORE PUSH1 0xE0 MLOAD DUP3 DUP2 DUP2 PUSH2 0xB94 ADD MSTORE DUP2 DUP2 PUSH2 0x1740 ADD MSTORE DUP2 DUP2 PUSH2 0x25E9 ADD MSTORE DUP2 DUP2 PUSH2 0x27EF ADD MSTORE PUSH2 0x2BB7 ADD MSTORE MLOAD DUP2 DUP2 DUP2 PUSH2 0x604 ADD MSTORE DUP2 DUP2 PUSH2 0xB3D ADD MSTORE PUSH2 0x1D0D ADD MSTORE RETURN JUMPDEST DUP10 MLOAD PUSH4 0xF3F77567 PUSH1 0xE0 SHL DUP2 MSTORE REVERT JUMPDEST PUSH2 0x2710 SWAP2 POP GT CODESIZE PUSH3 0x25A JUMP JUMPDEST DUP10 MLOAD PUSH4 0xD92E233D PUSH1 0xE0 SHL DUP2 MSTORE REVERT JUMPDEST DUP10 MLOAD PUSH4 0xC52A9BD3 PUSH1 0xE0 SHL DUP2 MSTORE REVERT JUMPDEST DUP10 MLOAD PUSH4 0x29456045 PUSH1 0xE1 SHL DUP2 MSTORE REVERT JUMPDEST POP DUP9 PUSH1 0xE0 DUP10 ADD MLOAD AND ISZERO PUSH3 0x22C JUMP JUMPDEST POP DUP9 DUP4 MLOAD AND ISZERO PUSH3 0x224 JUMP JUMPDEST ADD MLOAD SWAP1 POP CODESIZE DUP1 PUSH3 0x1F3 JUMP JUMPDEST PUSH1 0x0 DUP13 DUP2 MSTORE PUSH1 0x20 DUP2 KECCAK256 SWAP4 POP PUSH1 0x1F NOT DUP6 AND SWAP1 JUMPDEST DUP2 DUP2 LT PUSH3 0x427 JUMPI POP SWAP1 DUP5 PUSH1 0x1 SWAP6 SWAP5 SWAP4 SWAP3 LT PUSH3 0x40D JUMPI JUMPDEST POP POP POP DUP2 SHL ADD DUP9 SSTORE PUSH3 0x208 JUMP JUMPDEST ADD MLOAD PUSH1 0x0 NOT PUSH1 0xF8 DUP5 PUSH1 0x3 SHL AND SHR NOT AND SWAP1 SSTORE CODESIZE DUP1 DUP1 PUSH3 0x3FF JUMP JUMPDEST SWAP3 SWAP4 PUSH1 0x20 PUSH1 0x1 DUP2 SWAP3 DUP8 DUP7 ADD MLOAD DUP2 SSTORE ADD SWAP6 ADD SWAP4 ADD PUSH3 0x3E7 JUMP JUMPDEST SWAP1 SWAP2 POP DUP11 PUSH1 0x0 MSTORE PUSH1 0x20 PUSH1 0x0 KECCAK256 PUSH1 0x1F DUP5 ADD PUSH1 0x5 SHR DUP2 ADD SWAP2 PUSH1 0x20 DUP6 LT PUSH3 0x48D JUMPI JUMPDEST SWAP1 PUSH1 0x1F DUP6 SWAP5 SWAP4 SWAP3 ADD PUSH1 0x5 SHR ADD SWAP1 JUMPDEST DUP2 DUP2 LT PUSH3 0x47D JUMPI POP PUSH3 0x1DA JUMP JUMPDEST PUSH1 0x0 DUP2 SSTORE DUP5 SWAP4 POP PUSH1 0x1 ADD PUSH3 0x46E JUMP JUMPDEST SWAP1 SWAP2 POP DUP2 SWAP1 PUSH3 0x460 JUMP JUMPDEST PUSH1 0x22 DUP12 PUSH4 0x4E487B71 PUSH1 0xE0 SHL PUSH1 0x0 MSTORE MSTORE PUSH1 0x24 PUSH1 0x0 REVERT JUMPDEST SWAP1 PUSH1 0x7F AND SWAP1 PUSH3 0x1C3 JUMP JUMPDEST PUSH4 0x4E487B71 PUSH1 0xE0 SHL PUSH1 0x0 MSTORE PUSH1 0x41 PUSH1 0x4 MSTORE PUSH1 0x24 PUSH1 0x0 REVERT JUMPDEST ADD MLOAD SWAP1 POP CODESIZE DUP1 PUSH3 0x188 JUMP JUMPDEST PUSH1 0x3 PUSH1 0x0 SWAP1 DUP2 MSTORE PUSH32 0xC2575A0E9E593C00F959F8C92F12DB2869C3395A3B0502D05E2516446F71F85B SWAP4 POP PUSH1 0x1F NOT DUP6 AND SWAP1 JUMPDEST DUP2 DUP2 LT PUSH3 0x54C JUMPI POP SWAP1 DUP5 PUSH1 0x1 SWAP6 SWAP5 SWAP4 SWAP3 LT PUSH3 0x532 JUMPI JUMPDEST POP POP POP DUP2 SHL ADD PUSH1 0x3 SSTORE PUSH3 0x19E JUMP JUMPDEST ADD MLOAD PUSH1 0x0 NOT PUSH1 0xF8 DUP5 PUSH1 0x3 SHL AND SHR NOT AND SWAP1 SSTORE CODESIZE DUP1 DUP1 PUSH3 0x523 JUMP JUMPDEST SWAP3 SWAP4 PUSH1 0x20 PUSH1 0x1 DUP2 SWAP3 DUP8 DUP7 ADD MLOAD DUP2 SSTORE ADD SWAP6 ADD SWAP4 ADD PUSH3 0x50B JUMP JUMPDEST PUSH1 0x3 PUSH1 0x0 MSTORE SWAP1 SWAP2 POP PUSH32 0xC2575A0E9E593C00F959F8C92F12DB2869C3395A3B0502D05E2516446F71F85B PUSH1 0x1F DUP5 ADD PUSH1 0x5 SHR DUP2 ADD SWAP2 PUSH1 0x20 DUP6 LT PUSH3 0x5CF JUMPI JUMPDEST SWAP1 PUSH1 0x1F DUP6 SWAP5 SWAP4 SWAP3 ADD PUSH1 0x5 SHR ADD SWAP1 JUMPDEST DUP2 DUP2 LT PUSH3 0x5BF JUMPI POP PUSH3 0x16F JUMP JUMPDEST PUSH1 0x0 DUP2 SSTORE DUP5 SWAP4 POP PUSH1 0x1 ADD PUSH3 0x5B0 JUMP JUMPDEST SWAP1 SWAP2 POP DUP2 SWAP1 PUSH3 0x5A2 JUMP JUMPDEST PUSH4 0x4E487B71 PUSH1 0xE0 SHL PUSH1 0x0 MSTORE PUSH1 0x22 PUSH1 0x4 MSTORE PUSH1 0x24 PUSH1 0x0 REVERT JUMPDEST SWAP2 PUSH1 0x7F AND SWAP2 PUSH3 0x159 JUMP JUMPDEST PUSH1 0x0 DUP1 REVERT JUMPDEST PUSH1 0x40 MLOAD SWAP2 SWAP1 PUSH1 0x1F ADD PUSH1 0x1F NOT AND DUP3 ADD PUSH1 0x1 PUSH1 0x1 PUSH1 0x40 SHL SUB DUP2 GT DUP4 DUP3 LT OR PUSH3 0x4B8 JUMPI PUSH1 0x40 MSTORE JUMP JUMPDEST SWAP2 SWAP1 DUP1 PUSH1 0x1F DUP5 ADD SLT ISZERO PUSH3 0x5FB JUMPI DUP3 MLOAD PUSH1 0x1 PUSH1 0x1 PUSH1 0x40 SHL SUB DUP2 GT PUSH3 0x4B8 JUMPI PUSH1 0x20 SWAP1 PUSH3 0x65C PUSH1 0x1F DUP3 ADD PUSH1 0x1F NOT AND DUP4 ADD PUSH3 0x600 JUMP JUMPDEST SWAP3 DUP2 DUP5 MSTORE DUP3 DUP3 DUP8 ADD ADD GT PUSH3 0x5FB JUMPI PUSH1 0x0 JUMPDEST DUP2 DUP2 LT PUSH3 0x684 JUMPI POP DUP3 PUSH1 0x0 SWAP4 SWAP5 SWAP6 POP ADD ADD MSTORE SWAP1 JUMP JUMPDEST DUP6 DUP2 ADD DUP4 ADD MLOAD DUP5 DUP3 ADD DUP5 ADD MSTORE DUP3 ADD PUSH3 0x66E JUMP JUMPDEST MLOAD SWAP1 PUSH1 0x1 PUSH1 0x1 PUSH1 0xA0 SHL SUB DUP3 AND DUP3 SUB PUSH3 0x5FB JUMPI JUMP JUMPDEST PUSH1 0x1 PUSH1 0x1 PUSH1 0xA0 SHL SUB AND PUSH1 0x0 DUP2 DUP2 MSTORE PUSH32 0x5B8CCBB9D4D8FB16EA74CE3C29A41F1B461FBDAFF4714A0D9A8EB05499746BC PUSH1 0x20 MSTORE PUSH1 0x40 DUP2 KECCAK256 SLOAD SWAP1 SWAP2 SWAP1 PUSH1 0xFF AND PUSH3 0x72A JUMPI DUP2 DUP1 MSTORE PUSH1 0x5 PUSH1 0x20 MSTORE PUSH1 0x40 DUP3 KECCAK256 DUP2 DUP4 MSTORE PUSH1 0x20 MSTORE PUSH1 0x40 DUP3 KECCAK256 PUSH1 0x1 PUSH1 0xFF NOT DUP3 SLOAD AND OR SWAP1 SSTORE CALLER SWAP2 PUSH1 0x0 DUP1 MLOAD PUSH1 0x20 PUSH3 0x3487 DUP4 CODECOPY DUP2 MLOAD SWAP2 MSTORE DUP2 DUP1 LOG4 PUSH1 0x1 SWAP1 JUMP JUMPDEST POP SWAP1 JUMP JUMPDEST PUSH1 0x1 PUSH1 0x1 PUSH1 0xA0 SHL SUB AND PUSH1 0x0 DUP2 DUP2 MSTORE PUSH32 0xA9780AC285A6B64C20B34D35938634CCFEAF5DE258BEA281533158D789CA4A2F PUSH1 0x20 MSTORE PUSH1 0x40 DUP2 KECCAK256 SLOAD SWAP1 SWAP2 SWAP1 PUSH32 0x84B05DEF62CE9BC2BD93F644E8C54B097DB7EE9EDAB66685B9B15DC162C75564 SWAP1 PUSH1 0xFF AND PUSH3 0x7CC JUMPI DUP1 DUP4 MSTORE PUSH1 0x5 PUSH1 0x20 MSTORE PUSH1 0x40 DUP4 KECCAK256 DUP3 DUP5 MSTORE PUSH1 0x20 MSTORE PUSH1 0x40 DUP4 KECCAK256 PUSH1 0x1 PUSH1 0xFF NOT DUP3 SLOAD AND OR SWAP1 SSTORE PUSH1 0x0 DUP1 MLOAD PUSH1 0x20 PUSH3 0x3487 DUP4 CODECOPY DUP2 MLOAD SWAP2 MSTORE CALLER SWAP4 DUP1 LOG4 PUSH1 0x1 SWAP1 JUMP JUMPDEST POP POP SWAP1 JUMP JUMPDEST PUSH1 0x1 PUSH1 0x1 PUSH1 0xA0 SHL SUB AND PUSH1 0x0 DUP2 DUP2 MSTORE PUSH32 0x2321E94D40847F2658A42722631F98ABE2722CEDCF64B586223EF22FC35C8D5 PUSH1 0x20 MSTORE PUSH1 0x40 DUP2 KECCAK256 SLOAD SWAP1 SWAP2 SWAP1 PUSH32 0x139C2898040EF16910DC9F44DC697DF79363DA767D8BC92F2E310312B816E46D SWAP1 PUSH1 0xFF AND PUSH3 0x7CC JUMPI DUP1 DUP4 MSTORE PUSH1 0x5 PUSH1 0x20 MSTORE PUSH1 0x40 DUP4 KECCAK256 DUP3 DUP5 MSTORE PUSH1 0x20 MSTORE PUSH1 0x40 DUP4 KECCAK256 PUSH1 0x1 PUSH1 0xFF NOT DUP3 SLOAD AND OR SWAP1 SSTORE PUSH1 0x0 DUP1 MLOAD PUSH1 0x20 PUSH3 0x3487 DUP4 CODECOPY DUP2 MLOAD SWAP2 MSTORE CALLER SWAP4 DUP1 LOG4 PUSH1 0x1 SWAP1 JUMP INVALID PUSH1 0x80 PUSH1 0x40 DUP2 DUP2 MSTORE PUSH1 0x4 SWAP2 DUP3 CALLDATASIZE LT ISZERO PUSH2 0x16 JUMPI PUSH1 0x0 DUP1 REVERT JUMPDEST PUSH1 0x0 SWAP3 DUP4 CALLDATALOAD PUSH1 0xE0 SHR SWAP2 DUP3 PUSH3 0xE77AA6 EQ PUSH2 0x1FF9 JUMPI POP DUP2 PUSH4 0x1FFC9A7 EQ PUSH2 0x1F58 JUMPI DUP2 PUSH4 0x6FDDE03 EQ PUSH2 0x1E63 JUMPI DUP2 PUSH4 0x95EA7B3 EQ PUSH2 0x1DBB JUMPI DUP2 PUSH4 0x974D4B6 EQ PUSH2 0x1D93 JUMPI DUP2 PUSH4 0xB5DCE33 EQ PUSH2 0x1D6F JUMPI DUP2 PUSH4 0x1781F1A0 EQ PUSH2 0x1D50 JUMPI DUP2 PUSH4 0x18160DDD EQ PUSH2 0x1D31 JUMPI DUP2 PUSH4 0x1A4F94F7 EQ PUSH2 0x1CED JUMPI DUP2 PUSH4 0x1A9516EE EQ PUSH2 0x1CC7 JUMPI DUP2 PUSH4 0x23B872DD EQ PUSH2 0x1CA2 JUMPI DUP2 PUSH4 0x248A9CA3 EQ PUSH2 0x1C77 JUMPI DUP2 PUSH4 0x278E421E EQ PUSH2 0x1C58 JUMPI DUP2 PUSH4 0x2F2FF15D EQ PUSH2 0x1C2E JUMPI DUP2 PUSH4 0x308839BD EQ PUSH2 0x1C07 JUMPI DUP2 PUSH4 0x313CE567 EQ PUSH2 0x1BEB JUMPI DUP2 PUSH4 0x36568ABE EQ PUSH2 0x1B8C JUMPI DUP2 PUSH4 0x36D89DA7 EQ PUSH2 0x1B55 JUMPI DUP2 PUSH4 0x389ED267 EQ PUSH2 0x1B1A JUMPI DUP2 PUSH4 0x3E839BAD EQ PUSH2 0x1AFB JUMPI DUP2 PUSH4 0x3F4BA83A EQ PUSH2 0x1A78 JUMPI DUP2 PUSH4 0x4265B3C9 EQ PUSH2 0x19EA JUMPI DUP2 PUSH4 0x42966C68 EQ PUSH2 0x19CC JUMPI DUP2 PUSH4 0x464F0B0D EQ PUSH2 0x17CB JUMPI DUP2 PUSH4 0x4EFA82B6 EQ PUSH2 0x1787 JUMPI DUP2 PUSH4 0x5C975ABB EQ PUSH2 0x1763 JUMPI DUP2 PUSH4 0x5DBE7216 EQ PUSH2 0x1728 JUMPI DUP2 PUSH4 0x6CB74A26 EQ PUSH2 0x142A JUMPI DUP2 PUSH4 0x6F7BC9BE EQ PUSH2 0x13BE JUMPI DUP2 PUSH4 0x70A08231 EQ PUSH2 0x1388 JUMPI DUP2 PUSH4 0x79CC6790 EQ PUSH2 0x1286 JUMPI DUP2 PUSH4 0x7C49509F EQ PUSH2 0x125F JUMPI DUP2 PUSH4 0x7CC1F867 EQ PUSH2 0x1192 JUMPI DUP2 PUSH4 0x7CF5AC06 EQ PUSH2 0x1152 JUMPI DUP2 PUSH4 0x7EB9D981 EQ PUSH2 0x1108 JUMPI DUP2 PUSH4 0x7F4DC2EE EQ PUSH2 0x10A4 JUMPI DUP2 PUSH4 0x80F7E03A EQ PUSH2 0xFDB JUMPI DUP2 PUSH4 0x83C379D4 EQ PUSH2 0xF8D JUMPI DUP2 PUSH4 0x8456CB59 EQ PUSH2 0xF32 JUMPI DUP2 PUSH4 0x8695ED64 EQ PUSH2 0xF13 JUMPI DUP2 PUSH4 0x895955E6 EQ PUSH2 0xED8 JUMPI DUP2 PUSH4 0x91D14854 EQ PUSH2 0xE92 JUMPI DUP2 PUSH4 0x95D89B41 EQ PUSH2 0xD8F JUMPI DUP2 PUSH4 0xA217FDDF EQ PUSH2 0xD74 JUMPI DUP2 PUSH4 0xA9059CBB EQ PUSH2 0xD32 JUMPI DUP2 PUSH4 0xBFF08087 EQ PUSH2 0xD05 JUMPI DUP2 PUSH4 0xD547741F EQ PUSH2 0xCC5 JUMPI DUP2 PUSH4 0xD59624B4 EQ PUSH2 0xC8A JUMPI DUP2 PUSH4 0xDD62ED3E EQ PUSH2 0xC41 JUMPI DUP2 PUSH4 0xE4BE99DD EQ PUSH2 0xC22 JUMPI DUP2 PUSH4 0xEEEF509B EQ PUSH2 0xBFA JUMPI DUP2 PUSH4 0xF17ACF16 EQ PUSH2 0xB21 JUMPI DUP2 PUSH4 0xF2C39992 EQ PUSH2 0x8CC JUMPI DUP2 PUSH4 0xF796142F EQ PUSH2 0x8AD JUMPI DUP2 PUSH4 0xF8ABBB41 EQ PUSH2 0x5E0 JUMPI DUP2 PUSH4 0xF9168231 EQ PUSH2 0x5C1 JUMPI DUP2 PUSH4 0xF99F9FC5 EQ PUSH2 0x2C8 JUMPI POP PUSH4 0xFAFBB9A3 EQ PUSH2 0x2A2 JUMPI PUSH1 0x0 DUP1 REVERT JUMPDEST CALLVALUE PUSH2 0x2C4 JUMPI DUP2 PUSH1 0x3 NOT CALLDATASIZE ADD SLT PUSH2 0x2C4 JUMPI PUSH1 0x20 SWAP1 PUSH2 0x2BD PUSH2 0x2B9E JUMP JUMPDEST SWAP1 MLOAD SWAP1 DUP2 MSTORE RETURN JUMPDEST POP DUP1 REVERT JUMPDEST DUP4 DUP4 CALLVALUE PUSH2 0x2C4 JUMPI PUSH1 0x20 SWAP1 DUP2 PUSH1 0x3 NOT CALLDATASIZE ADD SLT PUSH2 0x5BD JUMPI DUP4 CALLDATALOAD PUSH32 0x84B05DEF62CE9BC2BD93F644E8C54B097DB7EE9EDAB66685B9B15DC162C75564 DUP1 DUP6 MSTORE PUSH1 0x5 DUP5 MSTORE DUP3 DUP6 KECCAK256 CALLER DUP7 MSTORE DUP5 MSTORE PUSH1 0xFF DUP4 DUP7 KECCAK256 SLOAD AND ISZERO PUSH2 0x5A0 JUMPI POP PUSH2 0x324 PUSH2 0x282D JUMP JUMPDEST PUSH2 0x32C PUSH2 0x259E JUMP JUMPDEST DUP1 ISZERO PUSH2 0x591 JUMPI PUSH16 0xFFFFFFFFFFFFFFFFFFFFFFFFFFFFFFFF DUP1 DUP3 GT PUSH2 0x54F JUMPI PUSH2 0x352 PUSH2 0x2B9E JUMP JUMPDEST TIMESTAMP LT PUSH2 0x527 JUMPI DUP3 MLOAD PUSH4 0x23B872DD PUSH1 0xE0 SHL DUP2 MSTORE CALLER DUP8 DUP3 ADD SWAP1 DUP2 MSTORE ADDRESS PUSH1 0x20 DUP3 ADD MSTORE PUSH1 0x40 DUP2 ADD DUP5 SWAP1 MSTORE DUP6 SWAP1 DUP3 SWAP1 DUP2 SWAP1 PUSH1 0x60 ADD SUB DUP2 DUP10 PUSH1 0x1 PUSH1 0x1 PUSH1 0xA0 SHL SUB PUSH32 0x0 AND GAS CALL SWAP1 DUP2 ISZERO PUSH2 0x51D JUMPI DUP7 SWAP2 PUSH2 0x4F0 JUMPI JUMPDEST POP ISZERO PUSH2 0x4E1 JUMPI PUSH1 0xE SLOAD SWAP6 PUSH1 0x1 DUP8 ADD DUP1 SWAP8 GT PUSH2 0x4CE JUMPI DUP7 PUSH1 0xE SSTORE PUSH8 0xFFFFFFFFFFFFFFFF DUP8 GT PUSH2 0x48C JUMPI TIMESTAMP PUSH1 0xF SSTORE PUSH1 0xB SLOAD SWAP2 DUP3 GT PUSH2 0x44A JUMPI POP DUP5 SWAP6 PUSH32 0xD4329B35294681A3D4BF10232AFE0382CC8C1F3FAB8861D9992A7B66CD8A1361 SWAP5 SWAP6 MSTORE PUSH1 0x11 DUP6 MSTORE DUP3 DUP7 KECCAK256 SSTORE PUSH1 0xE SLOAD DUP6 MSTORE PUSH1 0x10 DUP5 MSTORE DUP1 DUP3 DUP7 KECCAK256 SSTORE PUSH1 0xE SLOAD SWAP4 PUSH1 0xB SLOAD SWAP1 DUP4 MLOAD SWAP3 DUP4 MSTORE DUP3 ADD MSTORE LOG2 PUSH1 0x1 PUSH1 0x6 SSTORE DUP1 RETURN JUMPDEST PUSH1 0x64 SWAP1 DUP6 DUP6 MLOAD SWAP2 PUSH3 0x461BCD PUSH1 0xE5 SHL DUP4 MSTORE DUP3 ADD MSTORE PUSH1 0x14 PUSH1 0x24 DUP3 ADD MSTORE PUSH32 0x546F74616C205553445420746F6F206C61726765000000000000000000000000 PUSH1 0x44 DUP3 ADD MSTORE REVERT JUMPDEST PUSH1 0x64 SWAP1 DUP6 DUP6 MLOAD SWAP2 PUSH3 0x461BCD PUSH1 0xE5 SHL DUP4 MSTORE DUP3 ADD MSTORE PUSH1 0x17 PUSH1 0x24 DUP3 ADD MSTORE PUSH32 0x546F6F206D616E79207061796F757420706572696F6473000000000000000000 PUSH1 0x44 DUP3 ADD MSTORE REVERT JUMPDEST DUP6 PUSH1 0x11 PUSH1 0x24 SWAP3 PUSH4 0x4E487B71 PUSH1 0xE0 SHL DUP4 MSTORE MSTORE REVERT JUMPDEST DUP6 DUP4 MLOAD PUSH4 0x12171D83 PUSH1 0xE3 SHL DUP2 MSTORE REVERT JUMPDEST PUSH2 0x510 SWAP2 POP DUP6 RETURNDATASIZE DUP8 GT PUSH2 0x516 JUMPI JUMPDEST PUSH2 0x508 DUP2 DUP4 PUSH2 0x2449 JUMP JUMPDEST DUP2 ADD SWAP1 PUSH2 0x2586 JUMP JUMPDEST DUP8 PUSH2 0x3BE JUMP JUMPDEST POP RETURNDATASIZE PUSH2 0x4FE JUMP JUMPDEST DUP5 MLOAD RETURNDATASIZE DUP9 DUP3 RETURNDATACOPY RETURNDATASIZE SWAP1 REVERT JUMPDEST DUP6 DUP4 MLOAD PUSH32 0x33FFC78B00000000000000000000000000000000000000000000000000000000 DUP2 MSTORE REVERT JUMPDEST PUSH1 0x64 DUP7 DUP6 DUP6 MLOAD SWAP2 PUSH3 0x461BCD PUSH1 0xE5 SHL DUP4 MSTORE DUP3 ADD MSTORE PUSH1 0x17 PUSH1 0x24 DUP3 ADD MSTORE PUSH32 0x5061796F757420616D6F756E7420746F6F206C61726765000000000000000000 PUSH1 0x44 DUP3 ADD MSTORE REVERT JUMPDEST DUP5 DUP3 MLOAD PUSH4 0x162908E3 PUSH1 0xE1 SHL DUP2 MSTORE REVERT JUMPDEST DUP6 PUSH1 0x44 SWAP2 DUP5 MLOAD SWAP2 PUSH4 0xE2517D3F PUSH1 0xE0 SHL DUP4 MSTORE CALLER SWAP1 DUP4 ADD MSTORE PUSH1 0x24 DUP3 ADD MSTORE REVERT JUMPDEST DUP3 DUP1 REVERT JUMPDEST POP POP CALLVALUE PUSH2 0x2C4 JUMPI DUP2 PUSH1 0x3 NOT CALLDATASIZE ADD SLT PUSH2 0x2C4 JUMPI PUSH1 0x20 SWAP1 PUSH1 0xA SLOAD SWAP1 MLOAD SWAP1 DUP2 MSTORE RETURN JUMPDEST DUP4 DUP4 CALLVALUE PUSH2 0x2C4 JUMPI PUSH1 0x60 CALLDATASIZE PUSH1 0x3 NOT ADD SLT PUSH2 0x2C4 JUMPI PUSH2 0x5FB PUSH2 0x2085 JUMP JUMPDEST SWAP1 PUSH1 0x24 CALLDATALOAD PUSH1 0x44 CALLDATALOAD PUSH32 0x0 PUSH1 0x1 PUSH1 0x1 PUSH1 0xA0 SHL SUB SWAP5 DUP6 DUP3 AND CALLER SUB PUSH2 0x89F JUMPI DUP6 SWAP1 PUSH2 0x63F PUSH2 0x259E JUMP JUMPDEST AND SWAP5 DUP6 ISZERO PUSH2 0x890 JUMPI DUP4 ISZERO DUP1 ISZERO PUSH2 0x888 JUMPI JUMPDEST PUSH2 0x879 JUMPI SWAP1 DUP4 SWAP2 PUSH2 0x663 DUP4 PUSH1 0xA SLOAD PUSH2 0x2554 JUMP JUMPDEST PUSH1 0xA SSTORE PUSH2 0x672 DUP5 PUSH1 0xB SLOAD PUSH2 0x2554 JUMP JUMPDEST PUSH1 0xB SSTORE PUSH2 0x681 DUP4 PUSH1 0x2 SLOAD PUSH2 0x2554 JUMP JUMPDEST PUSH1 0x2 SSTORE DUP7 DUP9 MSTORE PUSH1 0x20 SWAP3 DUP4 SWAP2 DUP10 DUP4 MSTORE DUP8 DUP11 KECCAK256 DUP3 DUP2 SLOAD ADD SWAP1 SSTORE DUP9 DUP11 PUSH32 0xDDF252AD1BE2C89B69C2B068FC378DAA952BA7F163C4A11628F55A4DF523B3EF DUP6 DUP12 MLOAD DUP7 DUP2 MSTORE LOG3 DUP9 DUP11 MSTORE DUP11 DUP11 PUSH1 0x14 SWAP6 DUP7 DUP7 MSTORE DUP11 DUP3 KECCAK256 PUSH2 0x6DB DUP7 DUP3 SLOAD PUSH2 0x2554 JUMP JUMPDEST SWAP1 SSTORE DUP12 DUP3 MSTORE DUP7 DUP7 MSTORE PUSH1 0x1 DUP1 DUP13 DUP5 KECCAK256 ADD PUSH2 0x6F5 DUP12 DUP3 SLOAD PUSH2 0x2554 JUMP JUMPDEST SWAP1 SSTORE PUSH1 0xE SWAP8 DUP9 SLOAD PUSH2 0x7DB JUMPI JUMPDEST POP POP DUP11 MLOAD PUSH4 0x23B872DD PUSH1 0xE0 SHL DUP2 MSTORE PUSH1 0x1 PUSH1 0x1 PUSH1 0xA0 SHL SUB SWAP1 SWAP2 AND SWAP3 DUP2 ADD SWAP3 DUP4 MSTORE ADDRESS PUSH1 0x20 DUP5 ADD MSTORE PUSH1 0x40 DUP4 ADD SWAP5 SWAP1 SWAP5 MSTORE SWAP3 SWAP5 POP DUP5 SWAP3 DUP4 SWAP2 DUP3 SWAP1 PUSH1 0x60 ADD SUB SWAP3 PUSH32 0x0 AND GAS CALL SWAP1 DUP2 ISZERO PUSH2 0x7D1 JUMPI DUP8 SWAP2 PUSH2 0x7B4 JUMPI JUMPDEST POP ISZERO PUSH2 0x7A5 JUMPI PUSH32 0xCAF54550117ADF10043AEAA9270B031DAC674AF74F7D8DAB2AF30FAF222F8A72 SWAP5 SWAP6 SWAP7 POP DUP4 MLOAD SWAP3 DUP4 MSTORE DUP3 ADD MSTORE LOG2 DUP1 RETURN JUMPDEST DUP7 DUP5 MLOAD PUSH4 0x12171D83 PUSH1 0xE3 SHL DUP2 MSTORE REVERT JUMPDEST PUSH2 0x7CB SWAP2 POP DUP3 RETURNDATASIZE DUP5 GT PUSH2 0x516 JUMPI PUSH2 0x508 DUP2 DUP4 PUSH2 0x2449 JUMP JUMPDEST DUP9 PUSH2 0x76E JUMP JUMPDEST DUP6 MLOAD RETURNDATASIZE DUP10 DUP3 RETURNDATACOPY RETURNDATASIZE SWAP1 REVERT JUMPDEST SWAP1 SWAP8 DUP9 DUP15 DUP15 DUP3 JUMPDEST PUSH2 0x7EF JUMPI JUMPDEST POP POP POP PUSH2 0x701 JUMP JUMPDEST SWAP4 SWAP8 SWAP11 SWAP9 SWAP1 SWAP5 SWAP10 SWAP2 SWAP6 SWAP3 SWAP7 DUP8 SLOAD DUP8 GT PUSH2 0x866 JUMPI POP POP POP SWAP2 DUP7 SWAP6 SWAP5 SWAP4 SWAP2 DUP4 DUP3 PUSH2 0x833 SWAP6 MSTORE PUSH1 0x13 SWAP3 DUP4 DUP14 MSTORE DUP3 DUP3 KECCAK256 DUP6 DUP4 MSTORE DUP14 MSTORE DUP3 DUP3 KECCAK256 SLOAD ISZERO PUSH2 0x845 JUMPI JUMPDEST POP POP POP POP PUSH2 0x2577 JUMP JUMPDEST SWAP5 DUP14 SWAP3 DUP14 SWAP3 DUP10 SWAP8 DUP15 DUP15 DUP15 SWAP10 SWAP12 SWAP9 PUSH2 0x7E2 JUMP JUMPDEST DUP2 MSTORE DUP7 DUP13 MSTORE DUP8 DUP3 DUP3 KECCAK256 ADD SLOAD SWAP3 DUP13 MSTORE DUP2 DUP2 KECCAK256 DUP5 DUP3 MSTORE DUP13 MSTORE KECCAK256 SSTORE DUP16 DUP13 DUP16 DUP16 PUSH2 0x82A JUMP JUMPDEST SWAP7 POP SWAP8 POP SWAP8 SWAP3 DUP10 SWAP7 POP DUP2 SWAP5 POP DUP1 DUP4 PUSH2 0x7E7 JUMP JUMPDEST DUP8 DUP6 MLOAD PUSH4 0x162908E3 PUSH1 0xE1 SHL DUP2 MSTORE REVERT JUMPDEST POP DUP3 ISZERO PUSH2 0x650 JUMP JUMPDEST DUP8 DUP6 MLOAD PUSH4 0xD92E233D PUSH1 0xE0 SHL DUP2 MSTORE REVERT JUMPDEST DUP8 DUP6 MLOAD PUSH3 0x82B429 PUSH1 0xE8 SHL DUP2 MSTORE REVERT JUMPDEST POP POP CALLVALUE PUSH2 0x2C4 JUMPI DUP2 PUSH1 0x3 NOT CALLDATASIZE ADD SLT PUSH2 0x2C4 JUMPI PUSH1 0x20 SWAP1 PUSH1 0x8 SLOAD SWAP1 MLOAD SWAP1 DUP2 MSTORE RETURN JUMPDEST SWAP2 SWAP1 POP CALLVALUE PUSH2 0x5BD JUMPI DUP3 PUSH1 0x3 NOT CALLDATASIZE ADD SLT PUSH2 0x5BD JUMPI PUSH2 0x8E7 PUSH2 0x282D JUMP JUMPDEST PUSH2 0x8EF PUSH2 0x259E JUMP JUMPDEST PUSH1 0xFF PUSH1 0xC SLOAD AND ISZERO PUSH2 0xAFB JUMPI CALLER DUP4 MSTORE PUSH1 0x20 SWAP2 PUSH1 0x14 DUP4 MSTORE DUP2 DUP5 KECCAK256 SWAP3 DUP4 SLOAD SWAP2 DUP3 ISZERO PUSH2 0xAED JUMPI PUSH1 0x2 DUP6 ADD SWAP3 DUP4 SLOAD SWAP6 PUSH1 0xFF DUP8 AND DUP1 ISZERO PUSH2 0xAE0 JUMPI JUMPDEST PUSH2 0xAD1 JUMPI CALLER DUP9 MSTORE DUP8 DUP5 MSTORE DUP6 DUP9 KECCAK256 SLOAD SWAP2 PUSH1 0x1 DUP3 ADD DUP1 SLOAD SWAP3 PUSH2 0x946 PUSH1 0xD SLOAD DUP5 PUSH2 0x2621 JUMP JUMPDEST SWAP8 DUP4 DUP10 GT PUSH2 0xA8F JUMPI DUP12 SWAP3 SWAP2 DUP4 SWAP2 PUSH2 0x95D DUP12 DUP8 PUSH2 0x2B91 JUMP JUMPDEST SWAP13 PUSH2 0xFF00 NOT AND PUSH2 0x100 OR SWAP1 SSTORE SSTORE SSTORE PUSH1 0xA SLOAD SWAP1 PUSH2 0x978 SWAP2 PUSH2 0x2B91 JUMP JUMPDEST PUSH1 0xA SSTORE PUSH1 0xB SLOAD SWAP1 PUSH2 0x988 SWAP2 PUSH2 0x2B91 JUMP JUMPDEST PUSH1 0xB SSTORE PUSH2 0x995 SWAP1 CALLER PUSH2 0x246B JUMP JUMPDEST DUP4 MLOAD PUSH4 0xA9059CBB PUSH1 0xE0 SHL DUP2 MSTORE CALLER DUP3 DUP3 ADD SWAP1 DUP2 MSTORE PUSH1 0x20 DUP2 ADD DUP8 SWAP1 MSTORE DUP4 SWAP1 DUP3 SWAP1 DUP2 SWAP1 PUSH1 0x40 ADD SUB DUP2 DUP11 PUSH32 0x0 PUSH1 0x1 PUSH1 0x1 PUSH1 0xA0 SHL SUB AND GAS CALL SWAP1 DUP2 ISZERO PUSH2 0x7D1 JUMPI DUP8 SWAP2 PUSH2 0xA72 JUMPI JUMPDEST POP ISZERO PUSH2 0xA32 JUMPI POP DUP3 MLOAD SWAP4 DUP5 MSTORE DUP4 ADD MSTORE CALLER SWAP2 PUSH32 0xA34530EC0B9FD6C8B48017F6726AF24C1AD4F28D0F434F7396906B6B954C1D98 SWAP2 SWAP1 LOG2 PUSH1 0x1 PUSH1 0x6 SSTORE DUP1 RETURN JUMPDEST DUP2 PUSH1 0x64 SWAP3 DUP6 MLOAD SWAP3 PUSH3 0x461BCD PUSH1 0xE5 SHL DUP5 MSTORE DUP4 ADD MSTORE PUSH1 0x24 DUP3 ADD MSTORE PUSH32 0x456D657267656E637920756E6C6F636B207472616E73666572206661696C6564 PUSH1 0x44 DUP3 ADD MSTORE REVERT JUMPDEST PUSH2 0xA89 SWAP2 POP DUP4 RETURNDATASIZE DUP6 GT PUSH2 0x516 JUMPI PUSH2 0x508 DUP2 DUP4 PUSH2 0x2449 JUMP JUMPDEST CODESIZE PUSH2 0x9F5 JUMP JUMPDEST PUSH1 0x64 DUP8 DUP10 DUP13 MLOAD SWAP2 PUSH3 0x461BCD PUSH1 0xE5 SHL DUP4 MSTORE DUP3 ADD MSTORE PUSH1 0x19 PUSH1 0x24 DUP3 ADD MSTORE PUSH32 0x50656E616C74792063616C63756C6174696F6E206572726F7200000000000000 PUSH1 0x44 DUP3 ADD MSTORE REVERT JUMPDEST DUP3 DUP7 MLOAD PUSH4 0xC8D9EAB PUSH1 0xE3 SHL DUP2 MSTORE REVERT JUMPDEST POP PUSH1 0xFF DUP8 PUSH1 0x8 SHR AND PUSH2 0x924 JUMP JUMPDEST DUP4 MLOAD PUSH4 0x3A6A68B1 PUSH1 0xE0 SHL DUP2 MSTORE REVERT JUMPDEST MLOAD PUSH32 0xA2A2B35C00000000000000000000000000000000000000000000000000000000 DUP2 MSTORE REVERT JUMPDEST SWAP1 POP CALLVALUE PUSH2 0x5BD JUMPI DUP3 PUSH1 0x3 NOT CALLDATASIZE ADD SLT PUSH2 0x5BD JUMPI PUSH1 0x1 PUSH1 0x1 PUSH1 0xA0 SHL SUB PUSH32 0x0 AND CALLER SUB PUSH2 0xBED JUMPI PUSH1 0x8 SLOAD PUSH2 0xBC6 JUMPI POP PUSH1 0x20 PUSH32 0x1088E42D45C2231B3C8D6F2B875CC704AA1B99C67346EEC5EE74BA6FE9D3776 SWAP2 PUSH2 0xBB9 PUSH32 0x0 TIMESTAMP PUSH2 0x2554 JUMP JUMPDEST SWAP1 DUP2 PUSH1 0x8 SSTORE MLOAD SWAP1 DUP2 MSTORE LOG1 DUP1 RETURN JUMPDEST SWAP1 MLOAD PUSH32 0xC52A9BD300000000000000000000000000000000000000000000000000000000 DUP2 MSTORE REVERT JUMPDEST SWAP1 MLOAD PUSH3 0x82B429 PUSH1 0xE8 SHL DUP2 MSTORE REVERT JUMPDEST SWAP1 POP CALLVALUE PUSH2 0x5BD JUMPI PUSH1 0x20 CALLDATASIZE PUSH1 0x3 NOT ADD SLT PUSH2 0x5BD JUMPI PUSH1 0x20 SWAP3 DUP3 SWAP2 CALLDATALOAD DUP2 MSTORE PUSH1 0x11 DUP5 MSTORE KECCAK256 SLOAD SWAP1 MLOAD SWAP1 DUP2 MSTORE RETURN JUMPDEST POP POP CALLVALUE PUSH2 0x2C4 JUMPI DUP2 PUSH1 0x3 NOT CALLDATASIZE ADD SLT PUSH2 0x2C4 JUMPI PUSH1 0x20 SWAP1 PUSH1 0x9 SLOAD SWAP1 MLOAD SWAP1 DUP2 MSTORE RETURN JUMPDEST POP POP CALLVALUE PUSH2 0x2C4 JUMPI DUP1 PUSH1 0x3 NOT CALLDATASIZE ADD SLT PUSH2 0x2C4 JUMPI DUP1 PUSH1 0x20 SWAP3 PUSH2 0xC5F PUSH2 0x2085 JUMP JUMPDEST PUSH2 0xC67 PUSH2 0x20A0 JUMP JUMPDEST PUSH1 0x1 PUSH1 0x1 PUSH1 0xA0 SHL SUB SWAP2 DUP3 AND DUP4 MSTORE PUSH1 0x1 DUP7 MSTORE DUP4 DUP4 KECCAK256 SWAP2 AND DUP3 MSTORE DUP5 MSTORE KECCAK256 SLOAD SWAP1 MLOAD SWAP1 DUP2 MSTORE RETURN JUMPDEST POP POP CALLVALUE PUSH2 0x2C4 JUMPI DUP2 PUSH1 0x3 NOT CALLDATASIZE ADD SLT PUSH2 0x2C4 JUMPI PUSH1 0x20 SWAP1 MLOAD PUSH32 0x0 DUP2 MSTORE RETURN JUMPDEST SWAP2 SWAP1 POP CALLVALUE PUSH2 0x5BD JUMPI DUP1 PUSH1 0x3 NOT CALLDATASIZE ADD SLT PUSH2 0x5BD JUMPI PUSH2 0xD01 SWAP2 CALLDATALOAD PUSH2 0xCFC PUSH1 0x1 PUSH2 0xCEA PUSH2 0x20A0 JUMP JUMPDEST SWAP4 DUP4 DUP8 MSTORE PUSH1 0x5 PUSH1 0x20 MSTORE DUP7 KECCAK256 ADD SLOAD PUSH2 0x219E JUMP JUMPDEST PUSH2 0x239F JUMP JUMPDEST POP DUP1 RETURN JUMPDEST DUP4 CALLVALUE PUSH2 0xD2F JUMPI PUSH1 0x20 CALLDATASIZE PUSH1 0x3 NOT ADD SLT PUSH2 0xD2F JUMPI PUSH2 0xD01 PUSH2 0xD22 PUSH2 0x2085 JUMP JUMPDEST PUSH2 0xD2A PUSH2 0x2164 JUMP JUMPDEST PUSH2 0x22F3 JUMP JUMPDEST DUP1 REVERT JUMPDEST DUP3 DUP5 CALLVALUE PUSH2 0xD2F JUMPI DUP2 PUSH1 0x3 NOT CALLDATASIZE ADD SLT PUSH2 0xD2F JUMPI POP PUSH2 0xD4D PUSH2 0x2085 JUMP JUMPDEST POP MLOAD PUSH32 0xADE576C500000000000000000000000000000000000000000000000000000000 DUP2 MSTORE REVERT JUMPDEST POP POP CALLVALUE PUSH2 0x2C4 JUMPI DUP2 PUSH1 0x3 NOT CALLDATASIZE ADD SLT PUSH2 0x2C4 JUMPI MLOAD SWAP1 DUP2 MSTORE PUSH1 0x20 SWAP1 RETURN JUMPDEST DUP4 DUP4 CALLVALUE PUSH2 0x2C4 JUMPI DUP2 PUSH1 0x3 NOT CALLDATASIZE ADD SLT PUSH2 0x2C4 JUMPI DUP1 MLOAD SWAP2 DUP1 SWAP4 DUP1 SLOAD SWAP2 PUSH1 0x1 SWAP1 DUP4 DUP3 SHR SWAP3 DUP3 DUP6 AND SWAP5 DUP6 ISZERO PUSH2 0xE88 JUMPI JUMPDEST PUSH1 0x20 SWAP6 DUP7 DUP7 LT DUP2 EQ PUSH2 0xE75 JUMPI DUP6 DUP10 MSTORE SWAP1 DUP2 ISZERO PUSH2 0xE51 JUMPI POP PUSH1 0x1 EQ PUSH2 0xDF9 JUMPI JUMPDEST PUSH2 0xDF5 DUP8 DUP8 PUSH2 0xDEB DUP3 DUP13 SUB DUP4 PUSH2 0x2449 JUMP JUMPDEST MLOAD SWAP2 DUP3 SWAP2 DUP3 PUSH2 0x203C JUMP JUMPDEST SUB SWAP1 RETURN JUMPDEST DUP2 MSTORE SWAP3 SWAP6 POP PUSH32 0x8A35ACFBC15FF81A39AE7D344FD709F28E8600B4AA8C65C6B64BFE7FE36BD19B JUMPDEST DUP3 DUP5 LT PUSH2 0xE3E JUMPI POP POP POP DUP3 PUSH2 0xDF5 SWAP5 PUSH2 0xDEB SWAP3 DUP3 ADD ADD SWAP5 DUP7 DUP1 PUSH2 0xDDA JUMP JUMPDEST DUP1 SLOAD DUP7 DUP6 ADD DUP9 ADD MSTORE SWAP3 DUP7 ADD SWAP3 DUP2 ADD PUSH2 0xE20 JUMP JUMPDEST PUSH1 0xFF NOT AND DUP9 DUP8 ADD MSTORE POP POP POP POP ISZERO ISZERO PUSH1 0x5 SHL DUP4 ADD ADD SWAP3 POP PUSH2 0xDEB DUP3 PUSH2 0xDF5 DUP7 DUP1 PUSH2 0xDDA JUMP JUMPDEST PUSH1 0x24 DUP5 PUSH1 0x22 DUP6 PUSH4 0x4E487B71 PUSH1 0xE0 SHL DUP4 MSTORE MSTORE REVERT JUMPDEST SWAP4 PUSH1 0x7F AND SWAP4 PUSH2 0xDBB JUMP JUMPDEST SWAP1 POP CALLVALUE PUSH2 0x5BD JUMPI DUP2 PUSH1 0x3 NOT CALLDATASIZE ADD SLT PUSH2 0x5BD JUMPI DUP2 PUSH1 0x20 SWAP4 PUSH1 0xFF SWAP3 PUSH2 0xEB3 PUSH2 0x20A0 JUMP JUMPDEST SWAP1 CALLDATALOAD DUP3 MSTORE PUSH1 0x5 DUP7 MSTORE PUSH1 0x1 PUSH1 0x1 PUSH1 0xA0 SHL SUB DUP4 DUP4 KECCAK256 SWAP2 AND DUP3 MSTORE DUP6 MSTORE KECCAK256 SLOAD AND SWAP1 MLOAD SWAP1 ISZERO ISZERO DUP2 MSTORE RETURN JUMPDEST POP POP CALLVALUE PUSH2 0x2C4 JUMPI DUP2 PUSH1 0x3 NOT CALLDATASIZE ADD SLT PUSH2 0x2C4 JUMPI PUSH1 0x20 SWAP1 MLOAD PUSH32 0x84B05DEF62CE9BC2BD93F644E8C54B097DB7EE9EDAB66685B9B15DC162C75564 DUP2 MSTORE RETURN JUMPDEST POP POP CALLVALUE PUSH2 0x2C4 JUMPI DUP2 PUSH1 0x3 NOT CALLDATASIZE ADD SLT PUSH2 0x2C4 JUMPI PUSH1 0x20 SWAP1 PUSH1 0xD SLOAD SWAP1 MLOAD SWAP1 DUP2 MSTORE RETURN JUMPDEST POP POP CALLVALUE PUSH2 0x2C4 JUMPI DUP2 PUSH1 0x3 NOT CALLDATASIZE ADD SLT PUSH2 0x2C4 JUMPI PUSH1 0x20 PUSH32 0x62E78CEA01BEE320CD4E420270B5EA74000D11B0C9F74754EBDBFC544B05A258 SWAP2 PUSH2 0xF70 PUSH2 0x20EA JUMP JUMPDEST PUSH2 0xF78 PUSH2 0x259E JUMP JUMPDEST PUSH1 0x1 PUSH1 0xFF NOT PUSH1 0x7 SLOAD AND OR PUSH1 0x7 SSTORE MLOAD CALLER DUP2 MSTORE LOG1 DUP1 RETURN JUMPDEST DUP4 CALLVALUE PUSH2 0xD2F JUMPI DUP1 PUSH1 0x3 NOT CALLDATASIZE ADD SLT PUSH2 0xD2F JUMPI PUSH2 0xFA6 PUSH2 0x2164 JUMP JUMPDEST PUSH1 0xFF NOT PUSH1 0xC SLOAD AND PUSH1 0xC SSTORE DUP1 PUSH1 0xD SSTORE PUSH32 0xC2BD196ABEE045FDE7A74E121A11AD6196A74256A1B0A2BCBC7EF0B2E2DF991F DUP2 DUP1 LOG1 DUP1 RETURN JUMPDEST DUP4 SWAP2 POP CALLVALUE PUSH2 0x2C4 JUMPI DUP2 PUSH1 0x3 NOT CALLDATASIZE ADD SLT PUSH2 0x2C4 JUMPI PUSH1 0xE SLOAD SWAP2 PUSH1 0xF SLOAD SWAP2 PUSH2 0xFFE PUSH2 0x2B9E JUMP JUMPDEST SWAP1 DUP6 DUP1 MLOAD DUP1 SWAP3 PUSH32 0x308839BD00000000000000000000000000000000000000000000000000000000 DUP3 MSTORE DUP2 ADDRESS GAS STATICCALL SWAP3 DUP4 ISZERO PUSH2 0x1099 JUMPI DUP1 SWAP4 PUSH2 0x1064 JUMPI JUMPDEST POP POP DUP1 PUSH1 0xC0 SWAP6 PUSH1 0x9 SLOAD SWAP5 DUP2 MLOAD SWAP7 DUP8 MSTORE PUSH1 0x20 DUP8 ADD MSTORE DUP6 ADD MSTORE TIMESTAMP LT ISZERO PUSH1 0x60 DUP5 ADD MSTORE PUSH1 0x80 DUP4 ADD MSTORE PUSH1 0xA0 DUP3 ADD MSTORE RETURN JUMPDEST SWAP1 SWAP6 DUP1 SWAP4 POP DUP7 DUP2 RETURNDATASIZE DUP4 GT PUSH2 0x1092 JUMPI JUMPDEST PUSH2 0x107D DUP2 DUP4 PUSH2 0x2449 JUMP JUMPDEST DUP2 ADD SUB SLT PUSH2 0xD2F JUMPI POP DUP1 PUSH1 0xC0 SWAP6 MLOAD SWAP3 SWAP6 PUSH2 0x1039 JUMP JUMPDEST POP RETURNDATASIZE PUSH2 0x1073 JUMP JUMPDEST DUP7 MLOAD SWAP1 RETURNDATASIZE SWAP1 DUP3 RETURNDATACOPY RETURNDATASIZE SWAP1 REVERT JUMPDEST DUP3 DUP5 CALLVALUE PUSH2 0xD2F JUMPI PUSH1 0x20 CALLDATASIZE PUSH1 0x3 NOT ADD SLT PUSH2 0xD2F JUMPI POP PUSH2 0x10FA PUSH2 0xDF5 PUSH2 0x10CE PUSH2 0x10C9 PUSH2 0x2085 JUMP JUMPDEST PUSH2 0x2931 JUMP JUMPDEST SWAP5 SWAP7 SWAP4 SWAP8 DUP1 SWAP4 SWAP2 SWAP4 MLOAD SWAP9 DUP10 SWAP9 DUP10 MSTORE PUSH1 0x20 DUP10 ADD MSTORE DUP8 ADD MSTORE PUSH1 0x60 DUP7 ADD MSTORE PUSH1 0xC0 PUSH1 0x80 DUP7 ADD MSTORE PUSH1 0xC0 DUP6 ADD SWAP1 PUSH2 0x20B6 JUMP JUMPDEST SWAP1 DUP4 DUP3 SUB PUSH1 0xA0 DUP6 ADD MSTORE PUSH2 0x20B6 JUMP JUMPDEST SWAP1 POP CALLVALUE PUSH2 0x5BD JUMPI PUSH1 0x20 CALLDATASIZE PUSH1 0x3 NOT ADD SLT PUSH2 0x5BD JUMPI PUSH2 0x1123 PUSH2 0x2085 JUMP JUMPDEST SWAP2 PUSH2 0x112C PUSH2 0x2164 JUMP JUMPDEST PUSH1 0x1 PUSH1 0x1 PUSH1 0xA0 SHL SUB DUP4 AND ISZERO PUSH2 0x1145 JUMPI DUP4 PUSH2 0xD01 DUP5 PUSH2 0x21C4 JUMP JUMPDEST MLOAD PUSH4 0xD92E233D PUSH1 0xE0 SHL DUP2 MSTORE REVERT JUMPDEST POP POP CALLVALUE PUSH2 0x2C4 JUMPI DUP1 PUSH1 0x3 NOT CALLDATASIZE ADD SLT PUSH2 0x2C4 JUMPI DUP1 PUSH1 0x20 SWAP3 PUSH1 0x1 PUSH1 0x1 PUSH1 0xA0 SHL SUB PUSH2 0x1178 PUSH2 0x2085 JUMP JUMPDEST AND DUP2 MSTORE PUSH1 0x13 DUP5 MSTORE DUP2 DUP2 KECCAK256 PUSH1 0x24 CALLDATALOAD DUP3 MSTORE DUP5 MSTORE KECCAK256 SLOAD SWAP1 MLOAD SWAP1 DUP2 MSTORE RETURN JUMPDEST POP POP CALLVALUE PUSH2 0x2C4 JUMPI DUP2 PUSH1 0x3 NOT CALLDATASIZE ADD SLT PUSH2 0x2C4 JUMPI PUSH2 0x120 SWAP1 PUSH1 0xA SLOAD PUSH1 0xB SLOAD PUSH1 0xE SLOAD PUSH1 0x9 SLOAD SWAP1 PUSH1 0xFF PUSH1 0xC SLOAD AND SWAP3 PUSH1 0xD SLOAD SWAP5 DUP7 MLOAD SWAP7 PUSH1 0x1 PUSH1 0x1 PUSH1 0xA0 SHL SUB DUP1 PUSH32 0x0 AND DUP10 MSTORE PUSH32 0x0 AND PUSH1 0x20 DUP10 ADD MSTORE PUSH32 0x0 SWAP1 DUP9 ADD MSTORE PUSH1 0x60 DUP8 ADD MSTORE PUSH1 0x80 DUP7 ADD MSTORE PUSH1 0xA0 DUP6 ADD MSTORE PUSH1 0xC0 DUP5 ADD MSTORE ISZERO ISZERO PUSH1 0xE0 DUP4 ADD MSTORE PUSH2 0x100 DUP3 ADD MSTORE RETURN JUMPDEST POP POP CALLVALUE PUSH2 0x2C4 JUMPI DUP2 PUSH1 0x3 NOT CALLDATASIZE ADD SLT PUSH2 0x2C4 JUMPI PUSH1 0x20 SWAP1 PUSH2 0x127C PUSH2 0x2B9E JUMP JUMPDEST TIMESTAMP LT ISZERO SWAP1 MLOAD SWAP1 DUP2 MSTORE RETURN JUMPDEST DUP4 SWAP2 POP CALLVALUE PUSH2 0x2C4 JUMPI DUP3 PUSH1 0x3 NOT CALLDATASIZE ADD SLT PUSH2 0x2C4 JUMPI PUSH2 0x12A1 PUSH2 0x2085 JUMP JUMPDEST PUSH1 0x24 CALLDATALOAD SWAP2 PUSH1 0x1 PUSH1 0x1 PUSH1 0xA0 SHL SUB DUP3 AND DUP1 DUP6 MSTORE PUSH1 0x1 PUSH1 0x20 MSTORE DUP6 DUP6 KECCAK256 CALLER DUP7 MSTORE PUSH1 0x20 MSTORE DUP6 DUP6 KECCAK256 SLOAD SWAP2 PUSH1 0x0 NOT DUP4 LT PUSH2 0x12DD JUMPI JUMPDEST DUP6 PUSH2 0x12DA DUP7 DUP7 PUSH2 0x246B JUMP JUMPDEST DUP1 RETURN JUMPDEST DUP5 DUP4 LT PUSH2 0x1343 JUMPI DUP2 ISZERO PUSH2 0x132D JUMPI CALLER ISZERO PUSH2 0x1317 JUMPI POP DUP5 SWAP6 SWAP2 DUP5 SWAP2 PUSH2 0x12DA SWAP7 MSTORE PUSH1 0x1 PUSH1 0x20 MSTORE DUP3 DUP8 KECCAK256 CALLER DUP9 MSTORE PUSH1 0x20 MSTORE SUB SWAP1 DUP6 KECCAK256 SSTORE DUP4 SWAP3 DUP6 DUP1 PUSH2 0x12CF JUMP JUMPDEST PUSH1 0x24 SWAP1 DUP7 DUP9 MLOAD SWAP2 PUSH4 0x4A1406B1 PUSH1 0xE1 SHL DUP4 MSTORE DUP3 ADD MSTORE REVERT JUMPDEST PUSH1 0x24 SWAP1 DUP7 DUP9 MLOAD SWAP2 PUSH4 0xE602DF05 PUSH1 0xE0 SHL DUP4 MSTORE DUP3 ADD MSTORE REVERT JUMPDEST DUP7 MLOAD PUSH32 0xFB8F41B200000000000000000000000000000000000000000000000000000000 DUP2 MSTORE CALLER SWAP2 DUP2 ADD SWAP2 DUP3 MSTORE PUSH1 0x20 DUP3 ADD SWAP4 SWAP1 SWAP4 MSTORE PUSH1 0x40 DUP2 ADD DUP6 SWAP1 MSTORE DUP3 SWAP2 POP PUSH1 0x60 ADD SUB SWAP1 REVERT JUMPDEST POP POP CALLVALUE PUSH2 0x2C4 JUMPI PUSH1 0x20 CALLDATASIZE PUSH1 0x3 NOT ADD SLT PUSH2 0x2C4 JUMPI DUP1 PUSH1 0x20 SWAP3 PUSH1 0x1 PUSH1 0x1 PUSH1 0xA0 SHL SUB PUSH2 0x13AF PUSH2 0x2085 JUMP JUMPDEST AND DUP2 MSTORE DUP1 DUP5 MSTORE KECCAK256 SLOAD SWAP1 MLOAD SWAP1 DUP2 MSTORE RETURN JUMPDEST POP POP CALLVALUE PUSH2 0x2C4 JUMPI PUSH1 0x20 CALLDATASIZE PUSH1 0x3 NOT ADD SLT PUSH2 0x2C4 JUMPI DUP1 PUSH1 0xA0 SWAP3 PUSH1 0x1 PUSH1 0x1 PUSH1 0xA0 SHL SUB PUSH2 0x13E5 PUSH2 0x2085 JUMP JUMPDEST AND DUP2 MSTORE PUSH1 0x14 PUSH1 0x20 MSTORE KECCAK256 SWAP1 PUSH1 0xFF DUP3 SLOAD SWAP3 PUSH1 0x1 DUP2 ADD SLOAD SWAP3 PUSH1 0x3 PUSH1 0x2 DUP4 ADD SLOAD SWAP3 ADD SLOAD SWAP4 DUP2 MLOAD SWAP6 DUP7 MSTORE PUSH1 0x20 DUP7 ADD MSTORE DUP3 DUP3 AND ISZERO ISZERO SWAP1 DUP6 ADD MSTORE PUSH1 0x8 SHR AND ISZERO ISZERO PUSH1 0x60 DUP4 ADD MSTORE PUSH1 0x80 DUP3 ADD MSTORE RETURN JUMPDEST SWAP2 SWAP1 POP CALLVALUE PUSH2 0x5BD JUMPI DUP3 PUSH1 0x3 NOT CALLDATASIZE ADD SLT PUSH2 0x5BD JUMPI PUSH2 0x1445 PUSH2 0x282D JUMP JUMPDEST PUSH2 0x144D PUSH2 0x259E JUMP JUMPDEST CALLER DUP4 MSTORE PUSH1 0x20 PUSH1 0x14 DUP2 MSTORE DUP2 DUP5 KECCAK256 SWAP3 DUP4 SLOAD ISZERO PUSH2 0x171A JUMPI PUSH1 0x2 DUP5 ADD SLOAD PUSH1 0xFF DUP2 AND SWAP1 DUP2 ISZERO PUSH2 0x170C JUMPI JUMPDEST POP PUSH2 0x16FE JUMPI DUP5 SWAP4 CALLER DUP7 MSTORE PUSH1 0x12 DUP4 MSTORE DUP4 DUP7 KECCAK256 SLOAD PUSH1 0x1 DUP2 ADD DUP1 SWAP2 GT PUSH2 0x16EB JUMPI PUSH1 0xE SLOAD SWAP1 JUMPDEST DUP2 DUP2 GT ISZERO PUSH2 0x1662 JUMPI POP DUP6 ISZERO PUSH2 0x163A JUMPI SWAP1 PUSH1 0x3 SWAP2 CALLER DUP9 MSTORE PUSH1 0x12 DUP6 MSTORE DUP6 DUP9 KECCAK256 SSTORE ADD PUSH2 0x14BE DUP6 DUP3 SLOAD PUSH2 0x2554 JUMP JUMPDEST SWAP1 SSTORE PUSH1 0x1 PUSH1 0x1 PUSH1 0xA0 SHL SUB PUSH32 0x0 AND DUP4 MLOAD PUSH4 0x70A08231 PUSH1 0xE0 SHL DUP2 MSTORE ADDRESS DUP4 DUP3 ADD MSTORE DUP4 DUP2 PUSH1 0x24 DUP2 DUP6 GAS STATICCALL SWAP1 DUP2 ISZERO PUSH2 0x7D1 JUMPI DUP8 SWAP2 PUSH2 0x1609 JUMPI JUMPDEST POP DUP1 DUP7 GT PUSH2 0x1601 JUMPI JUMPDEST POP DUP3 DUP5 MLOAD DUP1 SWAP3 PUSH4 0xA9059CBB PUSH1 0xE0 SHL DUP3 MSTORE DUP2 DUP10 DUP2 PUSH2 0x1550 DUP12 CALLER DUP11 DUP5 ADD PUSH1 0x20 SWAP1 SWAP4 SWAP3 SWAP2 SWAP4 PUSH1 0x1 PUSH1 0x1 PUSH1 0xA0 SHL SUB PUSH1 0x40 DUP3 ADD SWAP6 AND DUP2 MSTORE ADD MSTORE JUMP JUMPDEST SUB SWAP3 GAS CALL SWAP1 DUP2 ISZERO PUSH2 0x51D JUMPI DUP7 SWAP2 PUSH2 0x15E4 JUMPI JUMPDEST POP ISZERO PUSH2 0x15A3 JUMPI POP SWAP1 PUSH32 0x408E6E0B73DAF4C873106E95FD067260FBFF8BF9D1B499CAD563D4480D45BAC SWAP2 PUSH1 0xE SLOAD SWAP1 DUP3 MLOAD SWAP5 DUP6 MSTORE DUP5 ADD MSTORE CALLER SWAP3 LOG2 PUSH1 0x1 PUSH1 0x6 SSTORE DUP1 RETURN JUMPDEST SWAP1 PUSH1 0x64 SWAP3 MLOAD SWAP2 PUSH3 0x461BCD PUSH1 0xE5 SHL DUP4 MSTORE DUP3 ADD MSTORE PUSH1 0x16 PUSH1 0x24 DUP3 ADD MSTORE PUSH32 0x5061796F7574207472616E73666572206661696C656400000000000000000000 PUSH1 0x44 DUP3 ADD MSTORE REVERT JUMPDEST PUSH2 0x15FB SWAP2 POP DUP4 RETURNDATASIZE DUP6 GT PUSH2 0x516 JUMPI PUSH2 0x508 DUP2 DUP4 PUSH2 0x2449 JUMP JUMPDEST CODESIZE PUSH2 0x1562 JUMP JUMPDEST SWAP5 POP CODESIZE PUSH2 0x151A JUMP JUMPDEST SWAP1 POP DUP4 DUP2 DUP2 RETURNDATASIZE DUP4 GT PUSH2 0x1633 JUMPI JUMPDEST PUSH2 0x1620 DUP2 DUP4 PUSH2 0x2449 JUMP JUMPDEST DUP2 ADD SUB SLT PUSH2 0x162F JUMPI MLOAD CODESIZE PUSH2 0x1511 JUMP JUMPDEST DUP7 DUP1 REVERT JUMPDEST POP RETURNDATASIZE PUSH2 0x1616 JUMP JUMPDEST DUP3 DUP6 MLOAD PUSH32 0x439ECE7700000000000000000000000000000000000000000000000000000000 DUP2 MSTORE REVERT JUMPDEST DUP1 DUP9 MSTORE PUSH1 0x10 DUP6 MSTORE DUP6 DUP9 KECCAK256 SLOAD PUSH1 0x11 DUP7 MSTORE DUP7 DUP10 KECCAK256 SLOAD SWAP1 DUP1 ISZERO ISZERO DUP1 PUSH2 0x16E2 JUMPI JUMPDEST PUSH2 0x1694 JUMPI JUMPDEST POP POP PUSH2 0x168F SWAP1 PUSH2 0x2577 JUMP JUMPDEST PUSH2 0x1494 JUMP JUMPDEST PUSH2 0x169E DUP4 CALLER PUSH2 0x2868 JUMP JUMPDEST SWAP1 DUP2 PUSH2 0x16AB JUMPI JUMPDEST POP PUSH2 0x1684 JUMP JUMPDEST DUP3 SWAP10 SWAP4 SWAP10 ISZERO PUSH2 0x16D5 JUMPI PUSH2 0x16CC SWAP3 PUSH2 0x168F SWAP5 SWAP3 PUSH2 0x16C6 SWAP3 PUSH2 0x2708 JUMP JUMPDEST SWAP1 PUSH2 0x2554 JUMP JUMPDEST SWAP7 SWAP1 CODESIZE DUP1 PUSH2 0x16A5 JUMP JUMPDEST POP POP POP SWAP6 PUSH2 0x168F SWAP1 PUSH2 0x2577 JUMP JUMPDEST POP DUP2 ISZERO ISZERO PUSH2 0x167F JUMP JUMPDEST PUSH1 0x24 DUP8 PUSH1 0x11 DUP6 PUSH4 0x4E487B71 PUSH1 0xE0 SHL DUP4 MSTORE MSTORE REVERT JUMPDEST DUP3 MLOAD PUSH4 0xC8D9EAB PUSH1 0xE3 SHL DUP2 MSTORE REVERT JUMPDEST PUSH1 0xFF SWAP2 POP PUSH1 0x8 SHR AND CODESIZE PUSH2 0x1472 JUMP JUMPDEST DUP3 MLOAD PUSH4 0x3A6A68B1 PUSH1 0xE0 SHL DUP2 MSTORE REVERT JUMPDEST POP POP CALLVALUE PUSH2 0x2C4 JUMPI DUP2 PUSH1 0x3 NOT CALLDATASIZE ADD SLT PUSH2 0x2C4 JUMPI PUSH1 0x20 SWAP1 MLOAD PUSH32 0x0 DUP2 MSTORE RETURN JUMPDEST POP POP CALLVALUE PUSH2 0x2C4 JUMPI DUP2 PUSH1 0x3 NOT CALLDATASIZE ADD SLT PUSH2 0x2C4 JUMPI PUSH1 0x20 SWAP1 PUSH1 0xFF PUSH1 0x7 SLOAD AND SWAP1 MLOAD SWAP1 ISZERO ISZERO DUP2 MSTORE RETURN JUMPDEST POP POP CALLVALUE PUSH2 0x2C4 JUMPI DUP2 PUSH1 0x3 NOT CALLDATASIZE ADD SLT PUSH2 0x2C4 JUMPI PUSH1 0x20 SWAP1 MLOAD PUSH1 0x1 PUSH1 0x1 PUSH1 0xA0 SHL SUB PUSH32 0x0 AND DUP2 MSTORE RETURN JUMPDEST SWAP2 SWAP1 POP CALLVALUE PUSH2 0x5BD JUMPI DUP3 PUSH1 0x3 NOT CALLDATASIZE ADD SLT PUSH2 0x5BD JUMPI PUSH32 0x0 TIMESTAMP LT PUSH2 0x19A6 JUMPI PUSH2 0x180D PUSH2 0x282D JUMP JUMPDEST PUSH2 0x1815 PUSH2 0x259E JUMP JUMPDEST CALLER DUP4 MSTORE PUSH1 0x20 SWAP1 PUSH1 0x14 DUP3 MSTORE DUP1 DUP5 KECCAK256 SWAP3 PUSH1 0x2 DUP5 ADD SWAP4 DUP5 SLOAD PUSH1 0xFF DUP2 AND PUSH2 0x1997 JUMPI PUSH1 0xFF DUP2 PUSH1 0x8 SHR AND PUSH2 0x1997 JUMPI DUP2 SLOAD SWAP6 DUP7 ISZERO PUSH2 0x1988 JUMPI PUSH2 0x1887 SWAP3 SWAP2 PUSH2 0x187E SWAP2 CALLER DUP11 MSTORE DUP10 DUP9 MSTORE PUSH1 0x1 DUP1 DUP9 DUP13 KECCAK256 SLOAD SWAP6 ADD SLOAD SWAP3 PUSH1 0xFF NOT AND OR SWAP1 SSTORE PUSH2 0x1873 DUP9 PUSH1 0xA SLOAD PUSH2 0x2B91 JUMP JUMPDEST PUSH1 0xA SSTORE PUSH1 0xB SLOAD PUSH2 0x2B91 JUMP JUMPDEST PUSH1 0xB SSTORE CALLER PUSH2 0x246B JUMP JUMPDEST DUP2 MLOAD PUSH4 0xA9059CBB PUSH1 0xE0 SHL DUP2 MSTORE CALLER DUP3 DUP3 ADD SWAP1 DUP2 MSTORE PUSH1 0x20 DUP2 ADD DUP7 SWAP1 MSTORE DUP5 SWAP1 DUP3 SWAP1 DUP2 SWAP1 PUSH1 0x40 ADD SUB DUP2 DUP10 PUSH1 0x1 PUSH1 0x1 PUSH1 0xA0 SHL SUB PUSH32 0x0 AND GAS CALL SWAP1 DUP2 ISZERO PUSH2 0x197E JUMPI DUP7 SWAP2 PUSH2 0x1961 JUMPI JUMPDEST POP ISZERO PUSH2 0x1920 JUMPI POP SWAP1 PUSH32 0x8BB992A66750701EBD5F73B74463037E5A77FA3114EA76D89B9DB1818B083F48 SWAP2 MLOAD SWAP3 DUP4 MSTORE CALLER SWAP3 LOG2 PUSH1 0x1 PUSH1 0x6 SSTORE DUP1 RETURN JUMPDEST DUP3 PUSH1 0x64 SWAP3 MLOAD SWAP2 PUSH3 0x461BCD PUSH1 0xE5 SHL DUP4 MSTORE DUP3 ADD MSTORE PUSH1 0x1B PUSH1 0x24 DUP3 ADD MSTORE PUSH32 0x46696E616C20746F6B656E207472616E73666572206661696C65640000000000 PUSH1 0x44 DUP3 ADD MSTORE REVERT JUMPDEST PUSH2 0x1978 SWAP2 POP DUP5 RETURNDATASIZE DUP7 GT PUSH2 0x516 JUMPI PUSH2 0x508 DUP2 DUP4 PUSH2 0x2449 JUMP JUMPDEST CODESIZE PUSH2 0x18E7 JUMP JUMPDEST DUP4 MLOAD RETURNDATASIZE DUP9 DUP3 RETURNDATACOPY RETURNDATASIZE SWAP1 REVERT JUMPDEST DUP4 DUP6 MLOAD PUSH4 0x3A6A68B1 PUSH1 0xE0 SHL DUP2 MSTORE REVERT JUMPDEST DUP3 DUP5 MLOAD PUSH4 0xC8D9EAB PUSH1 0xE3 SHL DUP2 MSTORE REVERT JUMPDEST MLOAD PUSH32 0x111C440900000000000000000000000000000000000000000000000000000000 DUP2 MSTORE REVERT JUMPDEST DUP4 SWAP1 CALLVALUE PUSH2 0x2C4 JUMPI PUSH1 0x20 CALLDATASIZE PUSH1 0x3 NOT ADD SLT PUSH2 0x2C4 JUMPI PUSH2 0x12DA SWAP1 CALLDATALOAD CALLER PUSH2 0x246B JUMP JUMPDEST SWAP2 SWAP1 POP CALLVALUE PUSH2 0x5BD JUMPI PUSH1 0x20 CALLDATASIZE PUSH1 0x3 NOT ADD SLT PUSH2 0x5BD JUMPI DUP2 CALLDATALOAD SWAP2 PUSH2 0x1A09 PUSH2 0x2164 JUMP JUMPDEST PUSH2 0x1388 DUP4 GT PUSH2 0x1A51 JUMPI POP PUSH32 0x373E08B9E2E94C99F958F95CF4E0A2DB0E6DE1F1607A5B7470341BAAB1AE608C SWAP2 PUSH1 0x20 SWAP2 PUSH1 0x1 PUSH1 0xFF NOT PUSH1 0xC SLOAD AND OR PUSH1 0xC SSTORE DUP2 PUSH1 0xD SSTORE MLOAD SWAP1 DUP2 MSTORE LOG1 DUP1 RETURN JUMPDEST SWAP1 MLOAD PUSH32 0x458EAE5B00000000000000000000000000000000000000000000000000000000 DUP2 MSTORE REVERT JUMPDEST SWAP1 POP CALLVALUE PUSH2 0x5BD JUMPI DUP3 PUSH1 0x3 NOT CALLDATASIZE ADD SLT PUSH2 0x5BD JUMPI PUSH2 0x1A92 PUSH2 0x20EA JUMP JUMPDEST PUSH1 0x7 SLOAD SWAP1 PUSH1 0xFF DUP3 AND ISZERO PUSH2 0x1AD4 JUMPI POP PUSH1 0xFF NOT AND PUSH1 0x7 SSTORE MLOAD CALLER DUP2 MSTORE PUSH32 0x5DB9EE0A495BF2E6FF9C91A7834C1BA4FDD244A5E8AA4E537BD38AEAE4B073AA SWAP1 PUSH1 0x20 SWAP1 LOG1 DUP1 RETURN JUMPDEST DUP3 MLOAD PUSH32 0x8DFC202B00000000000000000000000000000000000000000000000000000000 DUP2 MSTORE REVERT JUMPDEST POP POP CALLVALUE PUSH2 0x2C4 JUMPI DUP2 PUSH1 0x3 NOT CALLDATASIZE ADD SLT PUSH2 0x2C4 JUMPI PUSH1 0x20 SWAP1 PUSH1 0xF SLOAD SWAP1 MLOAD SWAP1 DUP2 MSTORE RETURN JUMPDEST POP POP CALLVALUE PUSH2 0x2C4 JUMPI DUP2 PUSH1 0x3 NOT CALLDATASIZE ADD SLT PUSH2 0x2C4 JUMPI PUSH1 0x20 SWAP1 MLOAD PUSH32 0x139C2898040EF16910DC9F44DC697DF79363DA767D8BC92F2E310312B816E46D DUP2 MSTORE RETURN JUMPDEST POP POP CALLVALUE PUSH2 0x2C4 JUMPI PUSH1 0x20 CALLDATASIZE PUSH1 0x3 NOT ADD SLT PUSH2 0x2C4 JUMPI DUP1 PUSH1 0x20 SWAP3 PUSH1 0x1 PUSH1 0x1 PUSH1 0xA0 SHL SUB PUSH2 0x1B7C PUSH2 0x2085 JUMP JUMPDEST AND DUP2 MSTORE PUSH1 0x12 DUP5 MSTORE KECCAK256 SLOAD SWAP1 MLOAD SWAP1 DUP2 MSTORE RETURN JUMPDEST DUP4 DUP4 CALLVALUE PUSH2 0x2C4 JUMPI DUP1 PUSH1 0x3 NOT CALLDATASIZE ADD SLT PUSH2 0x2C4 JUMPI PUSH2 0x1BA6 PUSH2 0x20A0 JUMP JUMPDEST SWAP1 CALLER PUSH1 0x1 PUSH1 0x1 PUSH1 0xA0 SHL SUB DUP4 AND SUB PUSH2 0x1BC3 JUMPI POP PUSH2 0xD01 SWAP2 SWAP3 CALLDATALOAD PUSH2 0x239F JUMP JUMPDEST DUP4 SWAP1 MLOAD PUSH32 0x6697B23200000000000000000000000000000000000000000000000000000000 DUP2 MSTORE REVERT JUMPDEST POP POP CALLVALUE PUSH2 0x2C4 JUMPI DUP2 PUSH1 0x3 NOT CALLDATASIZE ADD SLT PUSH2 0x2C4 JUMPI PUSH1 0x20 SWAP1 MLOAD PUSH1 0x12 DUP2 MSTORE RETURN JUMPDEST DUP3 DUP5 CALLVALUE PUSH2 0xD2F JUMPI DUP1 PUSH1 0x3 NOT CALLDATASIZE ADD SLT PUSH2 0xD2F JUMPI POP PUSH2 0x1C22 PUSH2 0x25D4 JUMP JUMPDEST DUP3 MLOAD SWAP2 DUP3 MSTORE PUSH1 0x20 DUP3 ADD MSTORE RETURN JUMPDEST SWAP2 SWAP1 POP CALLVALUE PUSH2 0x5BD JUMPI DUP1 PUSH1 0x3 NOT CALLDATASIZE ADD SLT PUSH2 0x5BD JUMPI PUSH2 0xD01 SWAP2 CALLDATALOAD PUSH2 0x1C53 PUSH1 0x1 PUSH2 0xCEA PUSH2 0x20A0 JUMP JUMPDEST PUSH2 0x2277 JUMP JUMPDEST POP POP CALLVALUE PUSH2 0x2C4 JUMPI DUP2 PUSH1 0x3 NOT CALLDATASIZE ADD SLT PUSH2 0x2C4 JUMPI PUSH1 0x20 SWAP1 PUSH1 0xE SLOAD SWAP1 MLOAD SWAP1 DUP2 MSTORE RETURN JUMPDEST SWAP1 POP CALLVALUE PUSH2 0x5BD JUMPI PUSH1 0x20 CALLDATASIZE PUSH1 0x3 NOT ADD SLT PUSH2 0x5BD JUMPI DUP2 PUSH1 0x20 SWAP4 PUSH1 0x1 SWAP3 CALLDATALOAD DUP2 MSTORE PUSH1 0x5 DUP6 MSTORE KECCAK256 ADD SLOAD SWAP1 MLOAD SWAP1 DUP2 MSTORE RETURN JUMPDEST DUP3 DUP5 CALLVALUE PUSH2 0xD2F JUMPI PUSH1 0x60 CALLDATASIZE PUSH1 0x3 NOT ADD SLT PUSH2 0xD2F JUMPI POP PUSH2 0x1CBE PUSH2 0x2085 JUMP JUMPDEST POP PUSH2 0xD4D PUSH2 0x20A0 JUMP JUMPDEST POP POP CALLVALUE PUSH2 0x2C4 JUMPI PUSH1 0x20 CALLDATASIZE PUSH1 0x3 NOT ADD SLT PUSH2 0x2C4 JUMPI PUSH1 0x20 SWAP1 PUSH2 0x2BD PUSH2 0x1CE8 PUSH2 0x2085 JUMP JUMPDEST PUSH2 0x27BC JUMP JUMPDEST POP POP CALLVALUE PUSH2 0x2C4 JUMPI DUP2 PUSH1 0x3 NOT CALLDATASIZE ADD SLT PUSH2 0x2C4 JUMPI PUSH1 0x20 SWAP1 MLOAD PUSH1 0x1 PUSH1 0x1 PUSH1 0xA0 SHL SUB PUSH32 0x0 AND DUP2 MSTORE RETURN JUMPDEST POP POP CALLVALUE PUSH2 0x2C4 JUMPI DUP2 PUSH1 0x3 NOT CALLDATASIZE ADD SLT PUSH2 0x2C4 JUMPI PUSH1 0x20 SWAP1 PUSH1 0x2 SLOAD SWAP1 MLOAD SWAP1 DUP2 MSTORE RETURN JUMPDEST POP POP CALLVALUE PUSH2 0x2C4 JUMPI DUP2 PUSH1 0x3 NOT CALLDATASIZE ADD SLT PUSH2 0x2C4 JUMPI PUSH1 0x20 SWAP1 PUSH1 0xB SLOAD SWAP1 MLOAD SWAP1 DUP2 MSTORE RETURN JUMPDEST POP POP CALLVALUE PUSH2 0x2C4 JUMPI DUP2 PUSH1 0x3 NOT CALLDATASIZE ADD SLT PUSH2 0x2C4 JUMPI PUSH1 0x20 SWAP1 PUSH1 0xFF PUSH1 0xC SLOAD AND SWAP1 MLOAD SWAP1 ISZERO ISZERO DUP2 MSTORE RETURN JUMPDEST SWAP1 POP CALLVALUE PUSH2 0x5BD JUMPI PUSH1 0x20 CALLDATASIZE PUSH1 0x3 NOT ADD SLT PUSH2 0x5BD JUMPI PUSH1 0x20 SWAP3 DUP3 SWAP2 CALLDATALOAD DUP2 MSTORE PUSH1 0x10 DUP5 MSTORE KECCAK256 SLOAD SWAP1 MLOAD SWAP1 DUP2 MSTORE RETURN JUMPDEST SWAP1 POP CALLVALUE PUSH2 0x5BD JUMPI DUP2 PUSH1 0x3 NOT CALLDATASIZE ADD SLT PUSH2 0x5BD JUMPI PUSH2 0x1DD5 PUSH2 0x2085 JUMP JUMPDEST PUSH1 0x24 CALLDATALOAD SWAP1 CALLER ISZERO PUSH2 0x1E4D JUMPI PUSH1 0x1 PUSH1 0x1 PUSH1 0xA0 SHL SUB AND SWAP2 DUP3 ISZERO PUSH2 0x1E37 JUMPI POP DUP1 DUP4 PUSH1 0x20 SWAP6 CALLER DUP2 MSTORE PUSH1 0x1 DUP8 MSTORE DUP2 DUP2 KECCAK256 DUP6 DUP3 MSTORE DUP8 MSTORE KECCAK256 SSTORE DUP3 MLOAD SWAP1 DUP2 MSTORE PUSH32 0x8C5BE1E5EBEC7D5BD14F71427D1E84F3DD0314C0F7B2291E5B200AC8C7C3B925 DUP5 CALLER SWAP3 LOG3 MLOAD PUSH1 0x1 DUP2 MSTORE RETURN JUMPDEST PUSH1 0x24 SWAP1 DUP6 DUP6 MLOAD SWAP2 PUSH4 0x4A1406B1 PUSH1 0xE1 SHL DUP4 MSTORE DUP3 ADD MSTORE REVERT JUMPDEST PUSH1 0x24 DUP4 DUP7 DUP7 MLOAD SWAP2 PUSH4 0xE602DF05 PUSH1 0xE0 SHL DUP4 MSTORE DUP3 ADD MSTORE REVERT JUMPDEST SWAP2 SWAP1 POP CALLVALUE PUSH2 0x5BD JUMPI DUP3 PUSH1 0x3 NOT CALLDATASIZE ADD SLT PUSH2 0x5BD JUMPI DUP1 MLOAD SWAP2 DUP4 PUSH1 0x3 SLOAD SWAP1 PUSH1 0x1 SWAP1 DUP3 DUP3 SHR SWAP3 DUP3 DUP2 AND DUP1 ISZERO PUSH2 0x1F4E JUMPI JUMPDEST PUSH1 0x20 SWAP6 DUP7 DUP7 LT DUP3 EQ PUSH2 0x1F3B JUMPI POP DUP5 DUP9 MSTORE SWAP1 DUP2 ISZERO PUSH2 0x1F19 JUMPI POP PUSH1 0x1 EQ PUSH2 0x1EC0 JUMPI JUMPDEST PUSH2 0xDF5 DUP7 DUP7 PUSH2 0xDEB DUP3 DUP12 SUB DUP4 PUSH2 0x2449 JUMP JUMPDEST SWAP3 SWAP6 POP PUSH1 0x3 DUP4 MSTORE PUSH32 0xC2575A0E9E593C00F959F8C92F12DB2869C3395A3B0502D05E2516446F71F85B JUMPDEST DUP3 DUP5 LT PUSH2 0x1F06 JUMPI POP POP POP DUP3 PUSH2 0xDF5 SWAP5 PUSH2 0xDEB SWAP3 DUP3 ADD ADD SWAP5 CODESIZE PUSH2 0x1EAF JUMP JUMPDEST DUP1 SLOAD DUP7 DUP6 ADD DUP9 ADD MSTORE SWAP3 DUP7 ADD SWAP3 DUP2 ADD PUSH2 0x1EE9 JUMP JUMPDEST PUSH1 0xFF NOT AND DUP8 DUP7 ADD MSTORE POP POP POP ISZERO ISZERO PUSH1 0x5 SHL DUP4 ADD ADD SWAP3 POP PUSH2 0xDEB DUP3 PUSH2 0xDF5 CODESIZE PUSH2 0x1EAF JUMP JUMPDEST DUP4 PUSH1 0x22 PUSH1 0x24 SWAP3 PUSH4 0x4E487B71 PUSH1 0xE0 SHL DUP4 MSTORE MSTORE REVERT JUMPDEST SWAP4 PUSH1 0x7F AND SWAP4 PUSH2 0x1E8F JUMP JUMPDEST SWAP1 POP CALLVALUE PUSH2 0x5BD JUMPI PUSH1 0x20 CALLDATASIZE PUSH1 0x3 NOT ADD SLT PUSH2 0x5BD JUMPI CALLDATALOAD SWAP1 PUSH32 0xFFFFFFFF00000000000000000000000000000000000000000000000000000000 DUP3 AND DUP1 SWAP3 SUB PUSH2 0x5BD JUMPI PUSH1 0x20 SWAP3 POP PUSH32 0x7965DB0B00000000000000000000000000000000000000000000000000000000 DUP3 EQ SWAP2 DUP3 ISZERO PUSH2 0x1FCF JUMPI JUMPDEST POP MLOAD SWAP1 ISZERO ISZERO DUP2 MSTORE RETURN JUMPDEST PUSH32 0x1FFC9A700000000000000000000000000000000000000000000000000000000 EQ SWAP2 POP CODESIZE PUSH2 0x1FC6 JUMP JUMPDEST DUP5 SWAP1 CALLVALUE PUSH2 0x2C4 JUMPI DUP2 PUSH1 0x3 NOT CALLDATASIZE ADD SLT PUSH2 0x2C4 JUMPI PUSH1 0x20 SWAP1 PUSH1 0x1 PUSH1 0x1 PUSH1 0xA0 SHL SUB PUSH32 0x0 AND DUP2 MSTORE RETURN JUMPDEST PUSH1 0x20 DUP1 DUP3 MSTORE DUP3 MLOAD DUP2 DUP4 ADD DUP2 SWAP1 MSTORE SWAP1 SWAP4 SWAP3 PUSH1 0x0 JUMPDEST DUP3 DUP2 LT PUSH2 0x2071 JUMPI POP POP PUSH1 0x40 SWAP3 SWAP4 POP PUSH1 0x0 DUP4 DUP3 DUP5 ADD ADD MSTORE PUSH1 0x1F DUP1 NOT SWAP2 ADD AND ADD ADD SWAP1 JUMP JUMPDEST DUP2 DUP2 ADD DUP7 ADD MLOAD DUP5 DUP3 ADD PUSH1 0x40 ADD MSTORE DUP6 ADD PUSH2 0x204F JUMP JUMPDEST PUSH1 0x4 CALLDATALOAD SWAP1 PUSH1 0x1 PUSH1 0x1 PUSH1 0xA0 SHL SUB DUP3 AND DUP3 SUB PUSH2 0x209B JUMPI JUMP JUMPDEST PUSH1 0x0 DUP1 REVERT JUMPDEST PUSH1 0x24 CALLDATALOAD SWAP1 PUSH1 0x1 PUSH1 0x1 PUSH1 0xA0 SHL SUB DUP3 AND DUP3 SUB PUSH2 0x209B JUMPI JUMP JUMPDEST SWAP1 DUP2 MLOAD DUP1 DUP3 MSTORE PUSH1 0x20 DUP1 DUP1 SWAP4 ADD SWAP4 ADD SWAP2 PUSH1 0x0 JUMPDEST DUP3 DUP2 LT PUSH2 0x20D6 JUMPI POP POP POP POP SWAP1 JUMP JUMPDEST DUP4 MLOAD DUP6 MSTORE SWAP4 DUP2 ADD SWAP4 SWAP3 DUP2 ADD SWAP3 PUSH1 0x1 ADD PUSH2 0x20C8 JUMP JUMPDEST CALLER PUSH1 0x0 SWAP1 DUP2 MSTORE PUSH32 0x2321E94D40847F2658A42722631F98ABE2722CEDCF64B586223EF22FC35C8D5 PUSH1 0x20 MSTORE PUSH1 0x40 SWAP1 KECCAK256 SLOAD PUSH32 0x139C2898040EF16910DC9F44DC697DF79363DA767D8BC92F2E310312B816E46D SWAP1 PUSH1 0xFF AND ISZERO PUSH2 0x2146 JUMPI POP JUMP JUMPDEST PUSH1 0x44 SWAP1 PUSH1 0x40 MLOAD SWAP1 PUSH4 0xE2517D3F PUSH1 0xE0 SHL DUP3 MSTORE CALLER PUSH1 0x4 DUP4 ADD MSTORE PUSH1 0x24 DUP3 ADD MSTORE REVERT JUMPDEST CALLER PUSH1 0x0 SWAP1 DUP2 MSTORE PUSH32 0x5B8CCBB9D4D8FB16EA74CE3C29A41F1B461FBDAFF4714A0D9A8EB05499746BC PUSH1 0x20 MSTORE PUSH1 0x40 DUP2 KECCAK256 SLOAD PUSH1 0xFF AND ISZERO PUSH2 0x2146 JUMPI POP JUMP JUMPDEST DUP1 PUSH1 0x0 MSTORE PUSH1 0x5 PUSH1 0x20 MSTORE PUSH1 0x40 PUSH1 0x0 KECCAK256 CALLER PUSH1 0x0 MSTORE PUSH1 0x20 MSTORE PUSH1 0xFF PUSH1 0x40 PUSH1 0x0 KECCAK256 SLOAD AND ISZERO PUSH2 0x2146 JUMPI POP JUMP JUMPDEST PUSH1 0x1 PUSH1 0x1 PUSH1 0xA0 SHL SUB AND PUSH1 0x0 DUP2 DUP2 MSTORE PUSH32 0xA9780AC285A6B64C20B34D35938634CCFEAF5DE258BEA281533158D789CA4A2F PUSH1 0x20 MSTORE PUSH1 0x40 DUP2 KECCAK256 SLOAD SWAP1 SWAP2 SWAP1 PUSH32 0x84B05DEF62CE9BC2BD93F644E8C54B097DB7EE9EDAB66685B9B15DC162C75564 SWAP1 PUSH1 0xFF AND PUSH2 0x2272 JUMPI DUP1 DUP4 MSTORE PUSH1 0x5 PUSH1 0x20 MSTORE PUSH1 0x40 DUP4 KECCAK256 DUP3 DUP5 MSTORE PUSH1 0x20 MSTORE PUSH1 0x40 DUP4 KECCAK256 PUSH1 0x1 PUSH1 0xFF NOT DUP3 SLOAD AND OR SWAP1 SSTORE PUSH32 0x2F8788117E7EFF1D82E926EC794901D17C78024A50270940304540A733656F0D CALLER SWAP4 DUP1 LOG4 PUSH1 0x1 SWAP1 JUMP JUMPDEST POP POP SWAP1 JUMP JUMPDEST SWAP1 PUSH1 0x0 SWAP2 DUP1 DUP4 MSTORE PUSH1 0x5 PUSH1 0x20 MSTORE PUSH1 0x1 PUSH1 0x1 PUSH1 0xA0 SHL SUB PUSH1 0x40 DUP5 KECCAK256 SWAP3 AND SWAP2 DUP3 DUP5 MSTORE PUSH1 0x20 MSTORE PUSH1 0xFF PUSH1 0x40 DUP5 KECCAK256 SLOAD AND ISZERO PUSH1 0x0 EQ PUSH2 0x2272 JUMPI DUP1 DUP4 MSTORE PUSH1 0x5 PUSH1 0x20 MSTORE PUSH1 0x40 DUP4 KECCAK256 DUP3 DUP5 MSTORE PUSH1 0x20 MSTORE PUSH1 0x40 DUP4 KECCAK256 PUSH1 0x1 PUSH1 0xFF NOT DUP3 SLOAD AND OR SWAP1 SSTORE PUSH32 0x2F8788117E7EFF1D82E926EC794901D17C78024A50270940304540A733656F0D CALLER SWAP4 DUP1 LOG4 PUSH1 0x1 SWAP1 JUMP JUMPDEST PUSH1 0x1 PUSH1 0x1 PUSH1 0xA0 SHL SUB AND PUSH1 0x0 DUP2 DUP2 MSTORE PUSH32 0xA9780AC285A6B64C20B34D35938634CCFEAF5DE258BEA281533158D789CA4A2F PUSH1 0x20 MSTORE PUSH1 0x40 DUP2 KECCAK256 SLOAD SWAP1 SWAP2 SWAP1 PUSH32 0x84B05DEF62CE9BC2BD93F644E8C54B097DB7EE9EDAB66685B9B15DC162C75564 SWAP1 PUSH1 0xFF AND ISZERO PUSH2 0x2272 JUMPI DUP1 DUP4 MSTORE PUSH1 0x5 PUSH1 0x20 MSTORE PUSH1 0x40 DUP4 KECCAK256 DUP3 DUP5 MSTORE PUSH1 0x20 MSTORE PUSH1 0x40 DUP4 KECCAK256 PUSH1 0xFF NOT DUP2 SLOAD AND SWAP1 SSTORE PUSH32 0xF6391F5C32D9C69D2A47EA670B442974B53935D1EDC7FD64EB21E047A839171B CALLER SWAP4 DUP1 LOG4 PUSH1 0x1 SWAP1 JUMP JUMPDEST SWAP1 PUSH1 0x0 SWAP2 DUP1 DUP4 MSTORE PUSH1 0x5 PUSH1 0x20 MSTORE PUSH1 0x1 PUSH1 0x1 PUSH1 0xA0 SHL SUB PUSH1 0x40 DUP5 KECCAK256 SWAP3 AND SWAP2 DUP3 DUP5 MSTORE PUSH1 0x20 MSTORE PUSH1 0xFF PUSH1 0x40 DUP5 KECCAK256 SLOAD AND PUSH1 0x0 EQ PUSH2 0x2272 JUMPI DUP1 DUP4 MSTORE PUSH1 0x5 PUSH1 0x20 MSTORE PUSH1 0x40 DUP4 KECCAK256 DUP3 DUP5 MSTORE PUSH1 0x20 MSTORE PUSH1 0x40 DUP4 KECCAK256 PUSH1 0xFF NOT DUP2 SLOAD AND SWAP1 SSTORE PUSH32 0xF6391F5C32D9C69D2A47EA670B442974B53935D1EDC7FD64EB21E047A839171B CALLER SWAP4 DUP1 LOG4 PUSH1 0x1 SWAP1 JUMP JUMPDEST PUSH1 0x20 DUP2 ADD SWAP1 DUP2 LT PUSH8 0xFFFFFFFFFFFFFFFF DUP3 GT OR PUSH2 0x2433 JUMPI PUSH1 0x40 MSTORE JUMP JUMPDEST PUSH4 0x4E487B71 PUSH1 0xE0 SHL PUSH1 0x0 MSTORE PUSH1 0x41 PUSH1 0x4 MSTORE PUSH1 0x24 PUSH1 0x0 REVERT JUMPDEST SWAP1 PUSH1 0x1F DUP1 NOT SWAP2 ADD AND DUP2 ADD SWAP1 DUP2 LT PUSH8 0xFFFFFFFFFFFFFFFF DUP3 GT OR PUSH2 0x2433 JUMPI PUSH1 0x40 MSTORE JUMP JUMPDEST SWAP1 PUSH1 0x1 PUSH1 0x1 PUSH1 0xA0 SHL SUB DUP3 AND SWAP1 DUP2 ISZERO PUSH2 0x2523 JUMPI PUSH1 0x0 SWAP3 DUP3 DUP5 MSTORE DUP4 PUSH1 0x20 MSTORE PUSH1 0x40 DUP5 KECCAK256 SLOAD SWAP1 DUP3 DUP3 LT PUSH2 0x24D8 JUMPI POP DUP2 PUSH32 0xDDF252AD1BE2C89B69C2B068FC378DAA952BA7F163C4A11628F55A4DF523B3EF SWAP3 PUSH1 0x20 SWAP3 DUP6 DUP8 MSTORE DUP7 DUP5 MSTORE SUB PUSH1 0x40 DUP7 KECCAK256 SSTORE DUP1 PUSH1 0x2 SLOAD SUB PUSH1 0x2 SSTORE PUSH1 0x40 MLOAD SWAP1 DUP2 MSTORE LOG3 JUMP JUMPDEST PUSH1 0x40 MLOAD PUSH32 0xE450D38C00000000000000000000000000000000000000000000000000000000 DUP2 MSTORE PUSH1 0x1 PUSH1 0x1 PUSH1 0xA0 SHL SUB SWAP2 SWAP1 SWAP2 AND PUSH1 0x4 DUP3 ADD MSTORE PUSH1 0x24 DUP2 ADD SWAP2 SWAP1 SWAP2 MSTORE PUSH1 0x44 DUP2 ADD DUP3 SWAP1 MSTORE PUSH1 0x64 SWAP1 REVERT JUMPDEST PUSH1 0x24 PUSH1 0x40 MLOAD PUSH32 0x96C6FD1E00000000000000000000000000000000000000000000000000000000 DUP2 MSTORE PUSH1 0x0 PUSH1 0x4 DUP3 ADD MSTORE REVERT JUMPDEST SWAP2 SWAP1 DUP3 ADD DUP1 SWAP3 GT PUSH2 0x2561 JUMPI JUMP JUMPDEST PUSH4 0x4E487B71 PUSH1 0xE0 SHL PUSH1 0x0 MSTORE PUSH1 0x11 PUSH1 0x4 MSTORE PUSH1 0x24 PUSH1 0x0 REVERT JUMPDEST PUSH1 0x0 NOT DUP2 EQ PUSH2 0x2561 JUMPI PUSH1 0x1 ADD SWAP1 JUMP JUMPDEST SWAP1 DUP2 PUSH1 0x20 SWAP2 SUB SLT PUSH2 0x209B JUMPI MLOAD DUP1 ISZERO ISZERO DUP2 SUB PUSH2 0x209B JUMPI SWAP1 JUMP JUMPDEST PUSH1 0xFF PUSH1 0x7 SLOAD AND PUSH2 0x25AA JUMPI JUMP JUMPDEST PUSH1 0x4 PUSH1 0x40 MLOAD PUSH32 0xD93C066500000000000000000000000000000000000000000000000000000000 DUP2 MSTORE REVERT JUMPDEST PUSH1 0xB SLOAD SWAP1 DUP2 ISZERO PUSH2 0x2619 JUMPI PUSH2 0x2615 PUSH2 0x260E PUSH1 0x9 SLOAD PUSH32 0x0 SWAP1 PUSH2 0x269C JUMP JUMPDEST DUP1 SWAP4 PUSH2 0x2621 JUMP JUMPDEST SWAP2 SWAP1 JUMP JUMPDEST PUSH1 0x0 SWAP2 POP DUP2 SWAP1 JUMP JUMPDEST SWAP1 PUSH1 0x0 NOT DUP2 DUP4 MULMOD DUP2 DUP4 MUL SWAP2 DUP3 DUP1 DUP4 LT SWAP3 SUB SWAP2 DUP1 DUP4 SUB SWAP3 EQ PUSH2 0x2691 JUMPI PUSH2 0x2710 SWAP1 DUP3 DUP3 GT ISZERO PUSH2 0x267E JUMPI PUSH32 0xBC01A36E2EB1C432CA57A786C226809D495182A9930BE0DED288CE703AFB7E91 SWAP5 MULMOD SWAP1 DUP3 DUP3 GT SWAP1 SUB PUSH1 0xFC SHL SWAP2 SUB PUSH1 0x4 SHR OR MUL SWAP1 JUMP JUMPDEST PUSH4 0x4E487B71 PUSH1 0x0 MSTORE PUSH1 0x11 PUSH1 0x20 MSTORE PUSH1 0x24 PUSH1 0x1C REVERT JUMPDEST POP POP PUSH2 0x2710 SWAP2 POP DIV SWAP1 JUMP JUMPDEST SWAP1 PUSH1 0x0 NOT DUP2 DUP4 MULMOD DUP2 DUP4 MUL SWAP2 DUP3 DUP1 DUP4 LT SWAP3 SUB SWAP2 DUP1 DUP4 SUB SWAP3 EQ PUSH2 0x26FB JUMPI PUSH4 0x1E13380 SWAP1 DUP3 DUP3 GT ISZERO PUSH2 0x267E JUMPI PUSH32 0x98F5BE4DD1E14769FBD6666224DC1EB80DD2E0A3D2C8B328F57E76B7AE103957 SWAP5 MULMOD SWAP1 DUP3 DUP3 GT SWAP1 SUB PUSH1 0xF9 SHL SWAP2 SUB PUSH1 0x7 SHR OR MUL SWAP1 JUMP JUMPDEST POP POP PUSH4 0x1E13380 SWAP2 POP DIV SWAP1 JUMP JUMPDEST SWAP1 SWAP2 PUSH1 0x0 NOT DUP4 DUP4 MULMOD SWAP3 DUP1 DUP4 MUL SWAP3 DUP4 DUP1 DUP7 LT SWAP6 SUB SWAP5 DUP1 DUP7 SUB SWAP6 EQ PUSH2 0x2798 JUMPI DUP5 DUP4 GT ISZERO PUSH2 0x277F JUMPI SWAP1 DUP3 SWAP2 MULMOD DUP2 PUSH1 0x0 SUB DUP3 AND DUP1 SWAP3 DIV PUSH1 0x2 DUP1 DUP3 PUSH1 0x3 MUL XOR DUP1 DUP4 MUL DUP3 SUB MUL DUP1 DUP4 MUL DUP3 SUB MUL DUP1 DUP4 MUL DUP3 SUB MUL DUP1 DUP4 MUL DUP3 SUB MUL DUP1 DUP4 MUL DUP3 SUB MUL DUP1 SWAP3 MUL SWAP1 SUB MUL SWAP4 PUSH1 0x1 DUP4 DUP1 PUSH1 0x0 SUB DIV ADD SWAP1 DUP5 DUP4 GT SWAP1 SUB MUL SWAP3 SUB DIV OR MUL SWAP1 JUMP JUMPDEST DUP3 PUSH4 0x4E487B71 PUSH1 0x0 MSTORE ISZERO PUSH1 0x3 MUL PUSH1 0x11 XOR PUSH1 0x20 MSTORE PUSH1 0x24 PUSH1 0x1C REVERT JUMPDEST POP POP DUP1 SWAP3 POP ISZERO PUSH2 0x27A6 JUMPI DIV SWAP1 JUMP JUMPDEST PUSH4 0x4E487B71 PUSH1 0xE0 SHL PUSH1 0x0 MSTORE PUSH1 0x12 PUSH1 0x4 MSTORE PUSH1 0x24 PUSH1 0x0 REVERT JUMPDEST PUSH1 0x1 PUSH1 0x1 PUSH1 0xA0 SHL SUB AND PUSH1 0x0 MSTORE PUSH1 0x14 PUSH1 0x20 MSTORE PUSH1 0x1 PUSH1 0x40 PUSH1 0x0 KECCAK256 ADD SLOAD DUP1 ISZERO DUP1 ISZERO PUSH2 0x2823 JUMPI JUMPDEST PUSH2 0x281D JUMPI PUSH2 0x281A SWAP1 PUSH2 0x2814 PUSH1 0x9 SLOAD PUSH32 0x0 SWAP1 PUSH2 0x269C JUMP JUMPDEST SWAP1 PUSH2 0x2621 JUMP JUMPDEST SWAP1 JUMP JUMPDEST POP PUSH1 0x0 SWAP1 JUMP JUMPDEST POP PUSH1 0xB SLOAD ISZERO PUSH2 0x27DF JUMP JUMPDEST PUSH1 0x2 PUSH1 0x6 SLOAD EQ PUSH2 0x283E JUMPI PUSH1 0x2 PUSH1 0x6 SSTORE JUMP JUMPDEST PUSH1 0x4 PUSH1 0x40 MLOAD PUSH32 0x3EE5AEB500000000000000000000000000000000000000000000000000000000 DUP2 MSTORE REVERT JUMPDEST SWAP1 PUSH1 0x0 SWAP2 DUP2 DUP4 MSTORE PUSH1 0x11 PUSH1 0x20 MSTORE PUSH1 0x40 DUP4 KECCAK256 SLOAD ISZERO PUSH2 0x2272 JUMPI PUSH1 0x1 PUSH1 0x1 PUSH1 0xA0 SHL SUB AND SWAP1 DUP2 DUP4 MSTORE PUSH1 0x13 PUSH1 0x20 MSTORE PUSH1 0x40 DUP4 KECCAK256 SWAP1 DUP4 MSTORE PUSH1 0x20 MSTORE PUSH1 0x40 DUP3 KECCAK256 SLOAD DUP1 PUSH2 0x28B7 JUMPI POP DUP2 MSTORE PUSH1 0x14 PUSH1 0x20 MSTORE PUSH1 0x40 SWAP1 KECCAK256 PUSH1 0x1 ADD SLOAD SWAP1 JUMP JUMPDEST SWAP2 POP POP SWAP1 JUMP JUMPDEST PUSH8 0xFFFFFFFFFFFFFFFF DUP2 GT PUSH2 0x2433 JUMPI PUSH1 0x5 SHL PUSH1 0x20 ADD SWAP1 JUMP JUMPDEST SWAP1 PUSH2 0x28DF DUP3 PUSH2 0x28BD JUMP JUMPDEST PUSH2 0x28EC PUSH1 0x40 MLOAD SWAP2 DUP3 PUSH2 0x2449 JUMP JUMPDEST DUP3 DUP2 MSTORE DUP1 SWAP3 PUSH2 0x28FD PUSH1 0x1F NOT SWAP2 PUSH2 0x28BD JUMP JUMPDEST ADD SWAP1 PUSH1 0x20 CALLDATASIZE SWAP2 ADD CALLDATACOPY JUMP JUMPDEST DUP1 MLOAD DUP3 LT ISZERO PUSH2 0x291B JUMPI PUSH1 0x20 SWAP2 PUSH1 0x5 SHL ADD ADD SWAP1 JUMP JUMPDEST PUSH4 0x4E487B71 PUSH1 0xE0 SHL PUSH1 0x0 MSTORE PUSH1 0x32 PUSH1 0x4 MSTORE PUSH1 0x24 PUSH1 0x0 REVERT JUMPDEST SWAP1 PUSH1 0x1 PUSH1 0x1 PUSH1 0xA0 SHL SUB DUP1 DUP4 AND SWAP2 PUSH1 0x0 DUP4 DUP2 MSTORE PUSH1 0x14 PUSH1 0x20 MSTORE PUSH1 0x40 DUP2 KECCAK256 SWAP3 DUP4 SLOAD ISZERO DUP1 ISZERO PUSH2 0x2B80 JUMPI JUMPDEST PUSH2 0x2B4C JUMPI PUSH1 0x3 DUP5 ADD SLOAD SWAP5 DUP3 MSTORE PUSH1 0x12 PUSH1 0x20 MSTORE PUSH1 0x1 PUSH1 0x40 DUP4 KECCAK256 SLOAD SWAP5 ADD SLOAD SWAP3 DUP3 PUSH1 0x1 DUP7 ADD SWAP3 DUP4 DUP8 GT PUSH2 0x2B38 JUMPI PUSH1 0xE SLOAD DUP5 JUMPDEST DUP2 DUP2 GT ISZERO PUSH2 0x2B03 JUMPI POP PUSH2 0x29A0 PUSH2 0x299A DUP8 PUSH2 0x28D5 JUMP JUMPDEST SWAP7 PUSH2 0x28D5 JUMP JUMPDEST SWAP5 DUP4 SWAP11 DUP5 SWAP2 JUMPDEST DUP4 DUP2 GT ISZERO PUSH2 0x2A51 JUMPI POP POP POP POP PUSH1 0x20 PUSH1 0x24 SWAP2 PUSH1 0x40 MLOAD SWAP3 DUP4 DUP1 SWAP3 PUSH4 0x70A08231 PUSH1 0xE0 SHL DUP3 MSTORE ADDRESS PUSH1 0x4 DUP4 ADD MSTORE PUSH32 0x0 AND GAS STATICCALL SWAP2 DUP3 ISZERO PUSH2 0x2A45 JUMPI DUP1 SWAP3 PUSH2 0x2A10 JUMPI JUMPDEST POP POP DUP1 DUP9 GT PUSH2 0x2A0C JUMPI POP JUMP JUMPDEST SWAP7 POP JUMP JUMPDEST SWAP1 SWAP2 POP PUSH1 0x20 DUP3 RETURNDATASIZE PUSH1 0x20 GT PUSH2 0x2A3D JUMPI JUMPDEST DUP2 PUSH2 0x2A2C PUSH1 0x20 SWAP4 DUP4 PUSH2 0x2449 JUMP JUMPDEST DUP2 ADD SUB SLT PUSH2 0xD2F JUMPI POP MLOAD CODESIZE DUP1 PUSH2 0x2A00 JUMP JUMPDEST RETURNDATASIZE SWAP2 POP PUSH2 0x2A1F JUMP JUMPDEST PUSH1 0x40 MLOAD SWAP1 RETURNDATASIZE SWAP1 DUP3 RETURNDATACOPY RETURNDATASIZE SWAP1 REVERT JUMPDEST DUP1 DUP7 MSTORE PUSH1 0x10 PUSH1 0x20 MSTORE PUSH1 0x40 DUP7 KECCAK256 SLOAD PUSH1 0x11 PUSH1 0x20 MSTORE PUSH1 0x40 DUP8 KECCAK256 SLOAD SWAP1 DUP1 ISZERO ISZERO DUP1 PUSH2 0x2AFA JUMPI JUMPDEST PUSH2 0x2A87 JUMPI JUMPDEST POP POP PUSH2 0x2A82 SWAP1 PUSH2 0x2577 JUMP JUMPDEST PUSH2 0x29A6 JUMP JUMPDEST PUSH2 0x2A91 DUP4 DUP6 PUSH2 0x2868 JUMP JUMPDEST SWAP1 DUP2 PUSH2 0x2A9E JUMPI JUMPDEST POP PUSH2 0x2A77 JUMP JUMPDEST SWAP5 SWAP15 SWAP3 SWAP5 DUP3 ISZERO PUSH2 0x2AEC JUMPI DUP16 SWAP1 SWAP4 DUP13 PUSH2 0x2AD7 DUP4 DUP15 DUP11 PUSH2 0x2AD1 PUSH2 0x2AC9 PUSH2 0x2AE3 SWAP11 PUSH2 0x2ADD SWAP11 PUSH2 0x2A82 SWAP14 PUSH2 0x2708 JUMP JUMPDEST SWAP8 DUP9 SWAP7 PUSH2 0x2907 JUMP JUMPDEST MSTORE PUSH2 0x2907 JUMP JUMPDEST MSTORE PUSH2 0x2554 JUMP JUMPDEST SWAP14 PUSH2 0x2577 JUMP JUMPDEST SWAP3 SWAP1 CODESIZE DUP1 PUSH2 0x2A98 JUMP JUMPDEST POP POP POP SWAP12 SWAP2 PUSH2 0x2A82 SWAP1 PUSH2 0x2577 JUMP JUMPDEST POP DUP2 ISZERO ISZERO PUSH2 0x2A72 JUMP JUMPDEST DUP1 DUP5 MSTORE PUSH1 0x10 PUSH1 0x20 MSTORE PUSH1 0x40 DUP5 KECCAK256 SLOAD PUSH2 0x2B23 JUMPI JUMPDEST PUSH2 0x2B1E SWAP1 PUSH2 0x2577 JUMP JUMPDEST PUSH2 0x2985 JUMP JUMPDEST SWAP6 PUSH2 0x2B30 PUSH2 0x2B1E SWAP2 PUSH2 0x2577 JUMP JUMPDEST SWAP7 SWAP1 POP PUSH2 0x2B15 JUMP JUMPDEST PUSH1 0x24 DUP3 PUSH4 0x4E487B71 PUSH1 0xE0 SHL DUP2 MSTORE PUSH1 0x11 PUSH1 0x4 MSTORE REVERT JUMPDEST POP SWAP4 POP SWAP2 POP POP PUSH1 0x40 MLOAD SWAP2 PUSH2 0x2B5F DUP4 PUSH2 0x2417 JUMP JUMPDEST DUP1 DUP4 MSTORE PUSH1 0x40 MLOAD SWAP3 PUSH2 0x2B6F DUP5 PUSH2 0x2417 JUMP JUMPDEST DUP2 DUP5 MSTORE DUP2 CALLDATASIZE DUP2 CALLDATACOPY DUP2 SWAP4 DUP3 SWAP4 DUP4 SWAP3 SWAP2 SWAP1 JUMP JUMPDEST POP PUSH1 0xFF PUSH1 0x2 DUP6 ADD SLOAD PUSH1 0x8 SHR AND PUSH2 0x2957 JUMP JUMPDEST SWAP2 SWAP1 DUP3 SUB SWAP2 DUP3 GT PUSH2 0x2561 JUMPI JUMP JUMPDEST PUSH1 0x8 SLOAD DUP1 ISZERO PUSH2 0x2BE0 JUMPI PUSH1 0xF SLOAD DUP1 ISZERO PUSH2 0x2BDC JUMPI PUSH2 0x281A SWAP2 POP PUSH32 0x0 SWAP1 PUSH2 0x2554 JUMP JUMPDEST POP SWAP1 JUMP JUMPDEST PUSH1 0x4 PUSH1 0x40 MLOAD PUSH32 0x816ACE6600000000000000000000000000000000000000000000000000000000 DUP2 MSTORE REVERT INVALID LOG1 PUSH5 0x736F6C6343 STOP ADDMOD EQ STOP EXP 0x2F DUP8 DUP9 GT PUSH31 0x7EFF1D82E926EC794901D17C78024A50270940304540A733656F0DA164736F PUSH13 0x6343000814000A000000000000 "},"methodIdentifiers":{"byCreator(address,uint256)":"f2c7f4b4","count()":"06661abd","createWrappedToken((string,string,address,address,uint256,uint256,address,address,uint256))":"0819ec9d","creators(address)":"933166e1","getAllWrappedTokens()":"6500d43f","getWrappedTokenAddress(uint256)":"15ad7e94","getWrappedTokenCreator(address)":"e4ddcafb","getWrappedTokenIdsByCreator(address)":"3fc497ca","owner()":"8da5cb5b","renounceOwnership()":"715018a6","transferOwnership(address)":"f2fde38b","wrappedTokens(uint256)":"14dd14b3"}}}}}