{
  "_format": "hh-sol-artifact-1",
  "contractName": "WRAPEDTOKEN",
  "sourceName": "contracts/WrapedToken.sol",
  "abi": [
    {
      "inputs": [
        {
          "components": [
            {
              "internalType": "string",
              "name": "name",
              "type": "string"
            },
            {
              "internalType": "string",
              "name": "symbol",
              "type": "string"
            },
            {
              "internalType": "address",
              "name": "peggedToken",
              "type": "address"
            },
            {
              "internalType": "address",
              "name": "payoutToken",
              "type": "address"
            },
            {
              "internalType": "uint256",
              "name": "maturityDate",
              "type": "uint256"
            },
            {
              "internalType": "uint256",
              "name": "payoutRate",
              "type": "uint256"
            },
            {
              "internalType": "address",
              "name": "offeringContract",
              "type": "address"
            }
          ],
          "internalType": "struct WrapedTokenConfig",
          "name": "config",
          "type": "tuple"
        }
      ],
      "stateMutability": "nonpayable",
      "type": "constructor"
    },
    {
      "inputs": [],
      "name": "AlreadyClaimed",
      "type": "error"
    },
    {
      "inputs": [],
      "name": "AlreadyMatured",
      "type": "error"
    },
    {
      "inputs": [
        {
          "internalType": "address",
          "name": "spender",
          "type": "address"
        },
        {
          "internalType": "uint256",
          "name": "allowance",
          "type": "uint256"
        },
        {
          "internalType": "uint256",
          "name": "needed",
          "type": "uint256"
        }
      ],
      "name": "ERC20InsufficientAllowance",
      "type": "error"
    },
    {
      "inputs": [
        {
          "internalType": "address",
          "name": "sender",
          "type": "address"
        },
        {
          "internalType": "uint256",
          "name": "balance",
          "type": "uint256"
        },
        {
          "internalType": "uint256",
          "name": "needed",
          "type": "uint256"
        }
      ],
      "name": "ERC20InsufficientBalance",
      "type": "error"
    },
    {
      "inputs": [
        {
          "internalType": "address",
          "name": "approver",
          "type": "address"
        }
      ],
      "name": "ERC20InvalidApprover",
      "type": "error"
    },
    {
      "inputs": [
        {
          "internalType": "address",
          "name": "receiver",
          "type": "address"
        }
      ],
      "name": "ERC20InvalidReceiver",
      "type": "error"
    },
    {
      "inputs": [
        {
          "internalType": "address",
          "name": "sender",
          "type": "address"
        }
      ],
      "name": "ERC20InvalidSender",
      "type": "error"
    },
    {
      "inputs": [
        {
          "internalType": "address",
          "name": "spender",
          "type": "address"
        }
      ],
      "name": "ERC20InvalidSpender",
      "type": "error"
    },
    {
      "inputs": [],
      "name": "InvalidAmount",
      "type": "error"
    },
    {
      "inputs": [],
      "name": "InvalidStablecoin",
      "type": "error"
    },
    {
      "inputs": [],
      "name": "NoDeposit",
      "type": "error"
    },
    {
      "inputs": [],
      "name": "NoPayoutDue",
      "type": "error"
    },
    {
      "inputs": [],
      "name": "NoTransfersAllowed",
      "type": "error"
    },
    {
      "inputs": [],
      "name": "NotMatured",
      "type": "error"
    },
    {
      "inputs": [],
      "name": "PayoutPeriodNotElapsed",
      "type": "error"
    },
    {
      "inputs": [],
      "name": "TokenTransferFailed",
      "type": "error"
    },
    {
      "anonymous": false,
      "inputs": [
        {
          "indexed": true,
          "internalType": "address",
          "name": "owner",
          "type": "address"
        },
        {
          "indexed": true,
          "internalType": "address",
          "name": "spender",
          "type": "address"
        },
        {
          "indexed": false,
          "internalType": "uint256",
          "name": "value",
          "type": "uint256"
        }
      ],
      "name": "Approval",
      "type": "event"
    },
    {
      "anonymous": false,
      "inputs": [
        {
          "indexed": true,
          "internalType": "address",
          "name": "from",
          "type": "address"
        },
        {
          "indexed": true,
          "internalType": "address",
          "name": "to",
          "type": "address"
        },
        {
          "indexed": false,
          "internalType": "uint256",
          "name": "value",
          "type": "uint256"
        }
      ],
      "name": "Transfer",
      "type": "event"
    },
    {
      "inputs": [
        {
          "internalType": "address",
          "name": "owner",
          "type": "address"
        },
        {
          "internalType": "address",
          "name": "spender",
          "type": "address"
        }
      ],
      "name": "allowance",
      "outputs": [
        {
          "internalType": "uint256",
          "name": "",
          "type": "uint256"
        }
      ],
      "stateMutability": "view",
      "type": "function"
    },
    {
      "inputs": [
        {
          "internalType": "address",
          "name": "spender",
          "type": "address"
        },
        {
          "internalType": "uint256",
          "name": "value",
          "type": "uint256"
        }
      ],
      "name": "approve",
      "outputs": [
        {
          "internalType": "bool",
          "name": "",
          "type": "bool"
        }
      ],
      "stateMutability": "nonpayable",
      "type": "function"
    },
    {
      "inputs": [
        {
          "internalType": "address",
          "name": "account",
          "type": "address"
        }
      ],
      "name": "balanceOf",
      "outputs": [
        {
          "internalType": "uint256",
          "name": "",
          "type": "uint256"
        }
      ],
      "stateMutability": "view",
      "type": "function"
    },
    {
      "inputs": [
        {
          "internalType": "uint256",
          "name": "value",
          "type": "uint256"
        }
      ],
      "name": "burn",
      "outputs": [],
      "stateMutability": "nonpayable",
      "type": "function"
    },
    {
      "inputs": [
        {
          "internalType": "address",
          "name": "account",
          "type": "address"
        },
        {
          "internalType": "uint256",
          "name": "value",
          "type": "uint256"
        }
      ],
      "name": "burnFrom",
      "outputs": [],
      "stateMutability": "nonpayable",
      "type": "function"
    },
    {
      "inputs": [],
      "name": "claimFinalTokens",
      "outputs": [],
      "stateMutability": "nonpayable",
      "type": "function"
    },
    {
      "inputs": [],
      "name": "claimPayout",
      "outputs": [],
      "stateMutability": "nonpayable",
      "type": "function"
    },
    {
      "inputs": [],
      "name": "decimals",
      "outputs": [
        {
          "internalType": "uint8",
          "name": "",
          "type": "uint8"
        }
      ],
      "stateMutability": "view",
      "type": "function"
    },
    {
      "inputs": [
        {
          "internalType": "address",
          "name": "",
          "type": "address"
        }
      ],
      "name": "investors",
      "outputs": [
        {
          "internalType": "uint256",
          "name": "deposited",
          "type": "uint256"
        },
        {
          "internalType": "bool",
          "name": "hasClaimedTokens",
          "type": "bool"
        },
        {
          "internalType": "uint256",
          "name": "lastPayoutTime",
          "type": "uint256"
        },
        {
          "internalType": "uint256",
          "name": "totalPayoutsClaimed",
          "type": "uint256"
        },
        {
          "internalType": "enum WRAPEDTOKEN.PayoutFrequency",
          "name": "payoutFrequency",
          "type": "uint8"
        },
        {
          "internalType": "uint256",
          "name": "payoutAmountPerPeriod",
          "type": "uint256"
        }
      ],
      "stateMutability": "view",
      "type": "function"
    },
    {
      "inputs": [],
      "name": "maturityDate",
      "outputs": [
        {
          "internalType": "uint256",
          "name": "",
          "type": "uint256"
        }
      ],
      "stateMutability": "view",
      "type": "function"
    },
    {
      "inputs": [],
      "name": "name",
      "outputs": [
        {
          "internalType": "string",
          "name": "",
          "type": "string"
        }
      ],
      "stateMutability": "view",
      "type": "function"
    },
    {
      "inputs": [],
      "name": "offeringContract",
      "outputs": [
        {
          "internalType": "address",
          "name": "",
          "type": "address"
        }
      ],
      "stateMutability": "view",
      "type": "function"
    },
    {
      "inputs": [],
      "name": "payoutRate",
      "outputs": [
        {
          "internalType": "uint256",
          "name": "",
          "type": "uint256"
        }
      ],
      "stateMutability": "view",
      "type": "function"
    },
    {
      "inputs": [],
      "name": "payoutToken",
      "outputs": [
        {
          "internalType": "contract IERC20",
          "name": "",
          "type": "address"
        }
      ],
      "stateMutability": "view",
      "type": "function"
    },
    {
      "inputs": [],
      "name": "peggedToken",
      "outputs": [
        {
          "internalType": "contract IERC20",
          "name": "",
          "type": "address"
        }
      ],
      "stateMutability": "view",
      "type": "function"
    },
    {
      "inputs": [
        {
          "internalType": "address",
          "name": "_user",
          "type": "address"
        },
        {
          "internalType": "uint256",
          "name": "amount",
          "type": "uint256"
        },
        {
          "internalType": "enum WRAPEDTOKEN.PayoutFrequency",
          "name": "_payoutFrequency",
          "type": "uint8"
        }
      ],
      "name": "registerInvestment",
      "outputs": [],
      "stateMutability": "nonpayable",
      "type": "function"
    },
    {
      "inputs": [],
      "name": "symbol",
      "outputs": [
        {
          "internalType": "string",
          "name": "",
          "type": "string"
        }
      ],
      "stateMutability": "view",
      "type": "function"
    },
    {
      "inputs": [],
      "name": "totalEscrowed",
      "outputs": [
        {
          "internalType": "uint256",
          "name": "",
          "type": "uint256"
        }
      ],
      "stateMutability": "view",
      "type": "function"
    },
    {
      "inputs": [],
      "name": "totalSupply",
      "outputs": [
        {
          "internalType": "uint256",
          "name": "",
          "type": "uint256"
        }
      ],
      "stateMutability": "view",
      "type": "function"
    },
    {
      "inputs": [
        {
          "internalType": "address",
          "name": "",
          "type": "address"
        },
        {
          "internalType": "uint256",
          "name": "",
          "type": "uint256"
        }
      ],
      "name": "transfer",
      "outputs": [
        {
          "internalType": "bool",
          "name": "",
          "type": "bool"
        }
      ],
      "stateMutability": "pure",
      "type": "function"
    },
    {
      "inputs": [
        {
          "internalType": "address",
          "name": "",
          "type": "address"
        },
        {
          "internalType": "address",
          "name": "",
          "type": "address"
        },
        {
          "internalType": "uint256",
          "name": "",
          "type": "uint256"
        }
      ],
      "name": "transferFrom",
      "outputs": [
        {
          "internalType": "bool",
          "name": "",
          "type": "bool"
        }
      ],
      "stateMutability": "pure",
      "type": "function"
    }
  ],
  "bytecode": "0x6040610120815234620004bb576200150190813803806200002081620004c0565b938439820191602081840312620004bb578051906001600160401b038211620004bb570160e081840312620004bb5781519260e084016001600160401b038111858210176200039257835281516001600160401b038111620004bb57816200008a918401620004e6565b84526020820151906001600160401b038211620004bb57620000ae918301620004e6565b92836020820152620000c283830162000558565b83820152620000d46060830162000558565b6060820152608082015191608082019283526200010060c060a08301519260a085019384520162000558565b60c0830152815180516001600160401b038111620003925760035491600183811c93168015620004b0575b60208410146200049a578190601f9384811162000443575b50602090848311600114620003b457600092620003a8575b50508160011b916000199060031b1c1916176003555b8551906001600160401b03821162000392576004968754600181811c9116801562000387575b602082101462000372579081838594931162000319575b506020918311600114620002ae57600092620002a2575b50508160011b916000199060031b1c19161785555b818401516001600160a01b039390841615801562000293575b62000283578483015184166080526060830151841660a0525160c0908152905160e0520151166101009081529051610f9391826200056e833960805182818161070c015281816109dd0152610ce6015260a051828181610206015261064c015260c051828181610354015261093d015260e0518281816107880152610aa60152518181816106b40152610b030152f35b8451632945604560e11b81528690fd5b508360608401511615620001f3565b015190503880620001c5565b6000898152602081209350601f198516905b818110620003005750908460019594939210620002e6575b505050811b018555620001da565b015160001960f88460031b161c19169055388080620002d8565b92936020600181928786015181550195019301620002c0565b909192508860005260206000208380860160051c8201926020871062000368575b94869594939291940160051c01905b818110620003585750620001ae565b6000815585945060010162000349565b925081926200033a565b602289634e487b7160e01b6000525260246000fd5b90607f169062000197565b634e487b7160e01b600052604160045260246000fd5b0151905038806200015b565b6003600090815293507fc2575a0e9e593c00f959f8c92f12db2869c3395a3b0502d05e2516446f71f85b91905b601f198416851062000427576001945083601f198116106200040d575b505050811b0160035562000171565b015160001960f88460031b161c19169055388080620003fe565b81810151835560209485019460019093019290910190620003e1565b909150600360005260206000208480850160051c8201926020861062000490575b9085949392910160051c01905b81811062000480575062000143565b6000815584935060010162000471565b9250819262000464565b634e487b7160e01b600052602260045260246000fd5b92607f16926200012b565b600080fd5b6040519190601f01601f191682016001600160401b038111838210176200039257604052565b919080601f84011215620004bb5782516001600160401b03811162000392576020906200051c601f8201601f19168301620004c0565b92818452828287010111620004bb5760005b8181106200054457508260009394955001015290565b85810183015184820184015282016200052e565b51906001600160a01b0382168203620004bb5756fe608060408181526004918236101561001657600080fd5b600092833560e01c918262e77aa614610cd25750816306fdde0314610bfb578163095ea7b314610b5157816318160ddd14610b325781631a4f94f714610aee57816323b872dd14610ac95781632b4353f214610a8e578163313ce56714610a7257816342966c6814610a54578163464f0b0d1461092857816348e8a9491461067b5781634efa82b6146106375781636f7bc9be146105a457816370a082311461056d57816379cc67901461048957816395d89b41146103a3578163a9059cbb14610377578163d59624b41461033c578163dd62ed3e146102f3578163e88499a91461012c575063f91682311461010b57600080fd5b346101285781600319360112610128576020906005549051908152f35b5080fd5b919050346102ef57826003193601126102ef573383526006602052808320805480156102e05760ff6001830154166102d15761016d60ff8584015416610eed565b9081156102c1576002830180546101848142610ec5565b8481106102b15784900493600361019f600588015487610eb2565b960194855494806101b08988610e77565b1161029d575b50861561028d5793602095936101df6101e6946101d98a98956102019b96610eb2565b90610e77565b9055610e77565b905583518093819263a9059cbb60e01b835233888401610ed2565b0381877f00000000000000000000000000000000000000000000000000000000000000006001600160a01b03165af1908115610283578491610255575b5015610248578280f35b5163022e258160e11b8152fd5b610276915060203d811161027c575b61026e8183610d8f565b810190610e9a565b3861023e565b503d610264565b82513d86823e3d90fd5b8751630ac48ff560e41b81528990fd5b6102aa9197508590610ec5565b95386101b6565b865163b477c7b160e01b81528890fd5b50505051630ac48ff560e41b8152fd5b505051630c8d9eab60e31b8152fd5b505051633a6a68b160e01b8152fd5b8280fd5b50503461012857806003193601126101285780602092610311610d5e565b610319610d79565b6001600160a01b0391821683526001865283832091168252845220549051908152f35b505034610128578160031936011261012857602090517f00000000000000000000000000000000000000000000000000000000000000008152f35b8284346103a057816003193601126103a05750610392610d5e565b5051631de81c7b60e01b8152fd5b80fd5b838334610128578160031936011261012857805191809380549160019083821c9282851694851561047f575b602095868610811461046c57858952908115610448575060011461040d575b61040987876103ff828c0383610d8f565b5191829182610d15565b0390f35b9080949750528583205b8284106104355750505082610409946103ff928201019486806103ee565b8054868501880152928601928101610417565b60ff19168887015250505050151560051b83010192506103ff8261040986806103ee565b634e487b7160e01b845260228352602484fd5b93607f16936103cf565b839150346101285782600319360112610128576104a4610d5e565b6001600160a01b038116808452600160209081528585203386529052848420546024359390919060001983106104e3575b856104e08686610dc8565b80f35b84831061054b57811561053457331561051d575084959184916104e0965260016020528287203388526020520390852055839285806104d5565b8651634a1406b160e11b8152908101869052602490fd5b865163e602df0560e01b8152908101869052602490fd5b9050610569848751938493637dc7a0d960e11b855233908501610e59565b0390fd5b5050346101285760203660031901126101285760209181906001600160a01b03610595610d5e565b16815280845220549051908152f35b838334610128576020366003190112610128576001600160a01b036105c7610d5e565b168252600660205280822080549260ff600183015416926002830154600384015491600560ff89870154169501549581519788521515602088015286015260608501526003821015610624575060c09350608083015260a0820152f35b634e487b7160e01b815260218552602490fd5b505034610128578160031936011261012857517f00000000000000000000000000000000000000000000000000000000000000006001600160a01b03168152602090f35b8391503461012857606036600319011261012857610697610d5e565b602493843592604435916003831015610924576001600160a01b037f0000000000000000000000000000000000000000000000000000000000000000811694338690036108d65786156108c7578251956323b872dd60e01b875284870152308987015286604487015260209586816064818c877f0000000000000000000000000000000000000000000000000000000000000000165af19081156108bd5789916108a0575b5015610891571696871561087d5761075686600254610e77565b6002558787528685528187208681540190558787600080516020610f3e8339815191528785518a8152a36127106107ad7f000000000000000000000000000000000000000000000000000000000000000088610eb2565b835191900498909560c087016001600160401b0381118882101761086b5784528787528087019389855260068189019242845260608a01948c865260808b01998a5260a08b019d8e528c525289209651875560018701935115159360ff199460ff868354169116179055516002870155516003860155828501935192600384101561085a5750509161085495969160ff600594835416911617905551910155600554610e77565b60055580f35b634e487b7160e01b88526021905286fd5b634e487b7160e01b8a5260418652838afd5b815163ec442f0560e01b8152808401889052fd5b50505163022e258160e11b8152fd5b6108b79150873d891161027c5761026e8183610d8f565b8a61073c565b84513d8b823e3d90fd5b50505163162908e360e11b8152fd5b825162461bcd60e51b81526020818601526023818b01527f43616c6c6572206973206e6f7420746865206f66666572696e6720636f6e74726044820152621858dd60ea1b6064820152608490fd5b8580fd5b919050346102ef57826003193601126102ef577f00000000000000000000000000000000000000000000000000000000000000004210610a475733835260066020528083206001810160ff8154166102d1578154156102e05761099060ff8584015416610eed565b80610a1e575b506109d8916020913387528683526109b18588205433610dc8565b805460ff1916600117905554835163a9059cbb60e01b815292839182919033888401610ed2565b0381877f00000000000000000000000000000000000000000000000000000000000000006001600160a01b03165af1908115610283578491610255575015610248578280f35b610a2c600284015442610ec5565b1015610a385738610996565b505051630ac48ff560e41b8152fd5b5163111c440960e01b8152fd5b839034610128576020366003190112610128576104e0903533610dc8565b5050346101285781600319360112610128576020905160128152f35b505034610128578160031936011261012857602090517f00000000000000000000000000000000000000000000000000000000000000008152f35b8284346103a05760603660031901126103a05750610ae5610d5e565b50610392610d79565b505034610128578160031936011261012857517f00000000000000000000000000000000000000000000000000000000000000006001600160a01b03168152602090f35b5050346101285781600319360112610128576020906002549051908152f35b9050346102ef57816003193601126102ef57610b6b610d5e565b602435903315610be4576001600160a01b0316918215610bcd57508083602095338152600187528181208582528752205582519081527f8c5be1e5ebec7d5bd14f71427d1e84f3dd0314c0f7b2291e5b200ac8c7c3b925843392a35160018152f35b8351634a1406b160e11b8152908101859052602490fd5b835163e602df0560e01b8152808401869052602490fd5b919050346102ef57826003193601126102ef57805191836003549060019082821c928281168015610cc8575b6020958686108214610cb55750848852908115610c935750600114610c58575b61040986866103ff828b0383610d8f565b929550600383528583205b828410610c805750505082610409946103ff928201019438610c47565b8054868501880152928601928101610c63565b60ff191687860152505050151560051b83010192506103ff8261040938610c47565b634e487b7160e01b845260229052602483fd5b93607f1693610c27565b8490346101285781600319360112610128577f00000000000000000000000000000000000000000000000000000000000000006001600160a01b03168152602090f35b6020808252825181830181905290939260005b828110610d4a57505060409293506000838284010152601f8019910116010190565b818101860151848201604001528501610d28565b600435906001600160a01b0382168203610d7457565b600080fd5b602435906001600160a01b0382168203610d7457565b601f909101601f19168101906001600160401b03821190821017610db257604052565b634e487b7160e01b600052604160045260246000fd5b906001600160a01b038216908115610e405760009282845283602052604084205490828210610e23575081600080516020610f3e833981519152926020928587528684520360408620558060025403600255604051908152a3565b6105698360405193849363391434e360e21b855260048501610e59565b604051634b637e8f60e11b815260006004820152602490fd5b604091949392606082019560018060a01b0316825260208201520152565b91908201809211610e8457565b634e487b7160e01b600052601160045260246000fd5b90816020910312610d7457518015158103610d745790565b81810292918115918404141715610e8457565b91908203918211610e8457565b6001600160a01b039091168152602081019190915260400190565b6003811015610f275780610f0357506201518090565b60018103610f13575062278d0090565b600214610f1f57600090565b6301e1338090565b634e487b7160e01b600052602160045260246000fdfeddf252ad1be2c89b69c2b068fc378daa952ba7f163c4a11628f55a4df523b3efa26469706673582212200291455d8d4c7edf5f905a81c8e1e45383bc1145a73a08a1afe718db0fc5e66b64736f6c63430008140033",
  "linkReferences": {},
  "deployedLinkReferences": {}
}