{
  "_format": "hh-sol-artifact-1",
  "contractName": "WRAPPEDTOKEN",
  "sourceName": "contracts/WrapedToken.sol",
  "abi": [
    {
      "inputs": [
        {
          "components": [
            {
              "internalType": "string",
              "name": "name",
              "type": "string"
            },
            {
              "internalType": "string",
              "name": "symbol",
              "type": "string"
            },
            {
              "internalType": "address",
              "name": "peggedToken",
              "type": "address"
            },
            {
              "internalType": "address",
              "name": "payoutToken",
              "type": "address"
            },
            {
              "internalType": "uint256",
              "name": "maturityDate",
              "type": "uint256"
            },
            {
              "internalType": "uint256",
              "name": "payoutAPR",
              "type": "uint256"
            },
            {
              "internalType": "address",
              "name": "offeringContract",
              "type": "address"
            },
            {
              "internalType": "address",
              "name": "admin",
              "type": "address"
            },
            {
              "internalType": "uint256",
              "name": "payoutPeriodDuration",
              "type": "uint256"
            }
          ],
          "internalType": "struct WrappedTokenConfig",
          "name": "config",
          "type": "tuple"
        }
      ],
      "stateMutability": "nonpayable",
      "type": "constructor"
    },
    {
      "inputs": [],
      "name": "AccessControlBadConfirmation",
      "type": "error"
    },
    {
      "inputs": [
        {
          "internalType": "address",
          "name": "account",
          "type": "address"
        },
        {
          "internalType": "bytes32",
          "name": "neededRole",
          "type": "bytes32"
        }
      ],
      "name": "AccessControlUnauthorizedAccount",
      "type": "error"
    },
    {
      "inputs": [],
      "name": "AlreadyClaimed",
      "type": "error"
    },
    {
      "inputs": [
        {
          "internalType": "address",
          "name": "spender",
          "type": "address"
        },
        {
          "internalType": "uint256",
          "name": "allowance",
          "type": "uint256"
        },
        {
          "internalType": "uint256",
          "name": "needed",
          "type": "uint256"
        }
      ],
      "name": "ERC20InsufficientAllowance",
      "type": "error"
    },
    {
      "inputs": [
        {
          "internalType": "address",
          "name": "sender",
          "type": "address"
        },
        {
          "internalType": "uint256",
          "name": "balance",
          "type": "uint256"
        },
        {
          "internalType": "uint256",
          "name": "needed",
          "type": "uint256"
        }
      ],
      "name": "ERC20InsufficientBalance",
      "type": "error"
    },
    {
      "inputs": [
        {
          "internalType": "address",
          "name": "approver",
          "type": "address"
        }
      ],
      "name": "ERC20InvalidApprover",
      "type": "error"
    },
    {
      "inputs": [
        {
          "internalType": "address",
          "name": "receiver",
          "type": "address"
        }
      ],
      "name": "ERC20InvalidReceiver",
      "type": "error"
    },
    {
      "inputs": [
        {
          "internalType": "address",
          "name": "sender",
          "type": "address"
        }
      ],
      "name": "ERC20InvalidSender",
      "type": "error"
    },
    {
      "inputs": [
        {
          "internalType": "address",
          "name": "spender",
          "type": "address"
        }
      ],
      "name": "ERC20InvalidSpender",
      "type": "error"
    },
    {
      "inputs": [],
      "name": "EnforcedPause",
      "type": "error"
    },
    {
      "inputs": [],
      "name": "ExpectedPause",
      "type": "error"
    },
    {
      "inputs": [],
      "name": "FirstPayoutDateNotSet",
      "type": "error"
    },
    {
      "inputs": [],
      "name": "InsufficientFunds",
      "type": "error"
    },
    {
      "inputs": [],
      "name": "InvalidAPR",
      "type": "error"
    },
    {
      "inputs": [],
      "name": "InvalidAmount",
      "type": "error"
    },
    {
      "inputs": [],
      "name": "InvalidConfiguration",
      "type": "error"
    },
    {
      "inputs": [],
      "name": "InvalidPenalty",
      "type": "error"
    },
    {
      "inputs": [],
      "name": "InvalidStablecoin",
      "type": "error"
    },
    {
      "inputs": [],
      "name": "InvalidToken",
      "type": "error"
    },
    {
      "inputs": [],
      "name": "Matured",
      "type": "error"
    },
    {
      "inputs": [],
      "name": "NoDeposit",
      "type": "error"
    },
    {
      "inputs": [],
      "name": "NoPayout",
      "type": "error"
    },
    {
      "inputs": [],
      "name": "NoTransfers",
      "type": "error"
    },
    {
      "inputs": [],
      "name": "NotMatured",
      "type": "error"
    },
    {
      "inputs": [],
      "name": "PayoutNotAvailable",
      "type": "error"
    },
    {
      "inputs": [],
      "name": "ReentrancyGuardReentrantCall",
      "type": "error"
    },
    {
      "inputs": [],
      "name": "TransferFailed",
      "type": "error"
    },
    {
      "inputs": [],
      "name": "Unauthorized",
      "type": "error"
    },
    {
      "inputs": [],
      "name": "UnlockDisabled",
      "type": "error"
    },
    {
      "inputs": [],
      "name": "ZeroAddress",
      "type": "error"
    },
    {
      "anonymous": false,
      "inputs": [
        {
          "indexed": true,
          "internalType": "address",
          "name": "owner",
          "type": "address"
        },
        {
          "indexed": true,
          "internalType": "address",
          "name": "spender",
          "type": "address"
        },
        {
          "indexed": false,
          "internalType": "uint256",
          "name": "value",
          "type": "uint256"
        }
      ],
      "name": "Approval",
      "type": "event"
    },
    {
      "anonymous": false,
      "inputs": [],
      "name": "EmergencyUnlockDisabled",
      "type": "event"
    },
    {
      "anonymous": false,
      "inputs": [
        {
          "indexed": false,
          "internalType": "uint256",
          "name": "penalty",
          "type": "uint256"
        }
      ],
      "name": "EmergencyUnlockEnabled",
      "type": "event"
    },
    {
      "anonymous": false,
      "inputs": [
        {
          "indexed": true,
          "internalType": "address",
          "name": "user",
          "type": "address"
        },
        {
          "indexed": false,
          "internalType": "uint256",
          "name": "amount",
          "type": "uint256"
        },
        {
          "indexed": false,
          "internalType": "uint256",
          "name": "penalty",
          "type": "uint256"
        }
      ],
      "name": "EmergencyUnlockUsed",
      "type": "event"
    },
    {
      "anonymous": false,
      "inputs": [
        {
          "indexed": true,
          "internalType": "address",
          "name": "user",
          "type": "address"
        },
        {
          "indexed": false,
          "internalType": "uint256",
          "name": "amount",
          "type": "uint256"
        }
      ],
      "name": "FinalTokensClaimed",
      "type": "event"
    },
    {
      "anonymous": false,
      "inputs": [
        {
          "indexed": false,
          "internalType": "uint256",
          "name": "firstPayoutDate",
          "type": "uint256"
        }
      ],
      "name": "FirstPayoutDateSet",
      "type": "event"
    },
    {
      "anonymous": false,
      "inputs": [
        {
          "indexed": true,
          "internalType": "address",
          "name": "user",
          "type": "address"
        },
        {
          "indexed": false,
          "internalType": "uint256",
          "name": "tokenAmount",
          "type": "uint256"
        },
        {
          "indexed": false,
          "internalType": "uint256",
          "name": "usdtValue",
          "type": "uint256"
        }
      ],
      "name": "InvestmentRegistered",
      "type": "event"
    },
    {
      "anonymous": false,
      "inputs": [
        {
          "indexed": false,
          "internalType": "address",
          "name": "account",
          "type": "address"
        }
      ],
      "name": "Paused",
      "type": "event"
    },
    {
      "anonymous": false,
      "inputs": [
        {
          "indexed": false,
          "internalType": "uint256",
          "name": "oldAPR",
          "type": "uint256"
        },
        {
          "indexed": false,
          "internalType": "uint256",
          "name": "newAPR",
          "type": "uint256"
        }
      ],
      "name": "PayoutAPRUpdated",
      "type": "event"
    },
    {
      "anonymous": false,
      "inputs": [
        {
          "indexed": true,
          "internalType": "address",
          "name": "user",
          "type": "address"
        },
        {
          "indexed": false,
          "internalType": "uint256",
          "name": "amount",
          "type": "uint256"
        },
        {
          "indexed": false,
          "internalType": "uint256",
          "name": "period",
          "type": "uint256"
        }
      ],
      "name": "PayoutClaimed",
      "type": "event"
    },
    {
      "anonymous": false,
      "inputs": [
        {
          "indexed": true,
          "internalType": "uint256",
          "name": "period",
          "type": "uint256"
        },
        {
          "indexed": false,
          "internalType": "uint256",
          "name": "amount",
          "type": "uint256"
        },
        {
          "indexed": false,
          "internalType": "uint256",
          "name": "totalUSDTAtDistribution",
          "type": "uint256"
        }
      ],
      "name": "PayoutDistributed",
      "type": "event"
    },
    {
      "anonymous": false,
      "inputs": [
        {
          "indexed": true,
          "internalType": "bytes32",
          "name": "role",
          "type": "bytes32"
        },
        {
          "indexed": true,
          "internalType": "bytes32",
          "name": "previousAdminRole",
          "type": "bytes32"
        },
        {
          "indexed": true,
          "internalType": "bytes32",
          "name": "newAdminRole",
          "type": "bytes32"
        }
      ],
      "name": "RoleAdminChanged",
      "type": "event"
    },
    {
      "anonymous": false,
      "inputs": [
        {
          "indexed": true,
          "internalType": "bytes32",
          "name": "role",
          "type": "bytes32"
        },
        {
          "indexed": true,
          "internalType": "address",
          "name": "account",
          "type": "address"
        },
        {
          "indexed": true,
          "internalType": "address",
          "name": "sender",
          "type": "address"
        }
      ],
      "name": "RoleGranted",
      "type": "event"
    },
    {
      "anonymous": false,
      "inputs": [
        {
          "indexed": true,
          "internalType": "bytes32",
          "name": "role",
          "type": "bytes32"
        },
        {
          "indexed": true,
          "internalType": "address",
          "name": "account",
          "type": "address"
        },
        {
          "indexed": true,
          "internalType": "address",
          "name": "sender",
          "type": "address"
        }
      ],
      "name": "RoleRevoked",
      "type": "event"
    },
    {
      "anonymous": false,
      "inputs": [
        {
          "indexed": true,
          "internalType": "address",
          "name": "from",
          "type": "address"
        },
        {
          "indexed": true,
          "internalType": "address",
          "name": "to",
          "type": "address"
        },
        {
          "indexed": false,
          "internalType": "uint256",
          "name": "value",
          "type": "uint256"
        }
      ],
      "name": "Transfer",
      "type": "event"
    },
    {
      "anonymous": false,
      "inputs": [
        {
          "indexed": false,
          "internalType": "address",
          "name": "account",
          "type": "address"
        }
      ],
      "name": "Unpaused",
      "type": "event"
    },
    {
      "inputs": [],
      "name": "DEFAULT_ADMIN_ROLE",
      "outputs": [
        {
          "internalType": "bytes32",
          "name": "",
          "type": "bytes32"
        }
      ],
      "stateMutability": "view",
      "type": "function"
    },
    {
      "inputs": [],
      "name": "PAUSE_ROLE",
      "outputs": [
        {
          "internalType": "bytes32",
          "name": "",
          "type": "bytes32"
        }
      ],
      "stateMutability": "view",
      "type": "function"
    },
    {
      "inputs": [],
      "name": "PAYOUT_ADMIN_ROLE",
      "outputs": [
        {
          "internalType": "bytes32",
          "name": "",
          "type": "bytes32"
        }
      ],
      "stateMutability": "view",
      "type": "function"
    },
    {
      "inputs": [
        {
          "internalType": "address",
          "name": "owner",
          "type": "address"
        },
        {
          "internalType": "address",
          "name": "spender",
          "type": "address"
        }
      ],
      "name": "allowance",
      "outputs": [
        {
          "internalType": "uint256",
          "name": "",
          "type": "uint256"
        }
      ],
      "stateMutability": "view",
      "type": "function"
    },
    {
      "inputs": [
        {
          "internalType": "address",
          "name": "spender",
          "type": "address"
        },
        {
          "internalType": "uint256",
          "name": "value",
          "type": "uint256"
        }
      ],
      "name": "approve",
      "outputs": [
        {
          "internalType": "bool",
          "name": "",
          "type": "bool"
        }
      ],
      "stateMutability": "nonpayable",
      "type": "function"
    },
    {
      "inputs": [
        {
          "internalType": "address",
          "name": "account",
          "type": "address"
        }
      ],
      "name": "balanceOf",
      "outputs": [
        {
          "internalType": "uint256",
          "name": "",
          "type": "uint256"
        }
      ],
      "stateMutability": "view",
      "type": "function"
    },
    {
      "inputs": [
        {
          "internalType": "uint256",
          "name": "value",
          "type": "uint256"
        }
      ],
      "name": "burn",
      "outputs": [],
      "stateMutability": "nonpayable",
      "type": "function"
    },
    {
      "inputs": [
        {
          "internalType": "address",
          "name": "account",
          "type": "address"
        },
        {
          "internalType": "uint256",
          "name": "value",
          "type": "uint256"
        }
      ],
      "name": "burnFrom",
      "outputs": [],
      "stateMutability": "nonpayable",
      "type": "function"
    },
    {
      "inputs": [],
      "name": "calculateRequiredPayoutTokens",
      "outputs": [
        {
          "internalType": "uint256",
          "name": "requiredAmount",
          "type": "uint256"
        },
        {
          "internalType": "uint256",
          "name": "periodAPR",
          "type": "uint256"
        }
      ],
      "stateMutability": "view",
      "type": "function"
    },
    {
      "inputs": [],
      "name": "claimAvailablePayouts",
      "outputs": [],
      "stateMutability": "nonpayable",
      "type": "function"
    },
    {
      "inputs": [],
      "name": "claimFinalTokens",
      "outputs": [],
      "stateMutability": "nonpayable",
      "type": "function"
    },
    {
      "inputs": [],
      "name": "currentPayoutPeriod",
      "outputs": [
        {
          "internalType": "uint256",
          "name": "",
          "type": "uint256"
        }
      ],
      "stateMutability": "view",
      "type": "function"
    },
    {
      "inputs": [],
      "name": "decimals",
      "outputs": [
        {
          "internalType": "uint8",
          "name": "",
          "type": "uint8"
        }
      ],
      "stateMutability": "view",
      "type": "function"
    },
    {
      "inputs": [],
      "name": "disableEmergencyUnlock",
      "outputs": [],
      "stateMutability": "nonpayable",
      "type": "function"
    },
    {
      "inputs": [
        {
          "internalType": "uint256",
          "name": "_amount",
          "type": "uint256"
        }
      ],
      "name": "distributePayoutForPeriod",
      "outputs": [],
      "stateMutability": "nonpayable",
      "type": "function"
    },
    {
      "inputs": [],
      "name": "emergencyUnlock",
      "outputs": [],
      "stateMutability": "nonpayable",
      "type": "function"
    },
    {
      "inputs": [],
      "name": "emergencyUnlockEnabled",
      "outputs": [
        {
          "internalType": "bool",
          "name": "",
          "type": "bool"
        }
      ],
      "stateMutability": "view",
      "type": "function"
    },
    {
      "inputs": [],
      "name": "emergencyUnlockPenalty",
      "outputs": [
        {
          "internalType": "uint256",
          "name": "",
          "type": "uint256"
        }
      ],
      "stateMutability": "view",
      "type": "function"
    },
    {
      "inputs": [
        {
          "internalType": "uint256",
          "name": "_penaltyPercentage",
          "type": "uint256"
        }
      ],
      "name": "enableEmergencyUnlock",
      "outputs": [],
      "stateMutability": "nonpayable",
      "type": "function"
    },
    {
      "inputs": [],
      "name": "firstPayoutDate",
      "outputs": [
        {
          "internalType": "uint256",
          "name": "",
          "type": "uint256"
        }
      ],
      "stateMutability": "view",
      "type": "function"
    },
    {
      "inputs": [],
      "name": "getContractInfo",
      "outputs": [
        {
          "internalType": "address",
          "name": "peggedTokenAddress",
          "type": "address"
        },
        {
          "internalType": "address",
          "name": "payoutTokenAddress",
          "type": "address"
        },
        {
          "internalType": "uint256",
          "name": "maturityTimestamp",
          "type": "uint256"
        },
        {
          "internalType": "uint256",
          "name": "totalEscrowedAmount",
          "type": "uint256"
        },
        {
          "internalType": "uint256",
          "name": "totalUSDTInvestedAmount",
          "type": "uint256"
        },
        {
          "internalType": "uint256",
          "name": "currentPeriod",
          "type": "uint256"
        },
        {
          "internalType": "uint256",
          "name": "currentPayoutAPR",
          "type": "uint256"
        },
        {
          "internalType": "bool",
          "name": "emergencyUnlockStatus",
          "type": "bool"
        },
        {
          "internalType": "uint256",
          "name": "emergencyPenalty",
          "type": "uint256"
        }
      ],
      "stateMutability": "view",
      "type": "function"
    },
    {
      "inputs": [],
      "name": "getCurrentPayoutPeriodInfo",
      "outputs": [
        {
          "internalType": "uint256",
          "name": "period",
          "type": "uint256"
        },
        {
          "internalType": "uint256",
          "name": "lastDistributionTime",
          "type": "uint256"
        },
        {
          "internalType": "uint256",
          "name": "nextPayoutTime",
          "type": "uint256"
        },
        {
          "internalType": "bool",
          "name": "canDistribute",
          "type": "bool"
        },
        {
          "internalType": "uint256",
          "name": "requiredTokens",
          "type": "uint256"
        },
        {
          "internalType": "uint256",
          "name": "currentAPR",
          "type": "uint256"
        }
      ],
      "stateMutability": "view",
      "type": "function"
    },
    {
      "inputs": [
        {
          "internalType": "address",
          "name": "_user",
          "type": "address"
        }
      ],
      "name": "getExpectedPayoutForUser",
      "outputs": [
        {
          "internalType": "uint256",
          "name": "expectedPayout",
          "type": "uint256"
        }
      ],
      "stateMutability": "view",
      "type": "function"
    },
    {
      "inputs": [],
      "name": "getNextPayoutTime",
      "outputs": [
        {
          "internalType": "uint256",
          "name": "",
          "type": "uint256"
        }
      ],
      "stateMutability": "view",
      "type": "function"
    },
    {
      "inputs": [
        {
          "internalType": "bytes32",
          "name": "role",
          "type": "bytes32"
        }
      ],
      "name": "getRoleAdmin",
      "outputs": [
        {
          "internalType": "bytes32",
          "name": "",
          "type": "bytes32"
        }
      ],
      "stateMutability": "view",
      "type": "function"
    },
    {
      "inputs": [
        {
          "internalType": "address",
          "name": "_user",
          "type": "address"
        }
      ],
      "name": "getUserPayoutInfo",
      "outputs": [
        {
          "internalType": "uint256",
          "name": "totalClaimable",
          "type": "uint256"
        },
        {
          "internalType": "uint256",
          "name": "totalClaimed",
          "type": "uint256"
        },
        {
          "internalType": "uint256",
          "name": "lastClaimedPeriod",
          "type": "uint256"
        },
        {
          "internalType": "uint256",
          "name": "userUSDTValue",
          "type": "uint256"
        },
        {
          "internalType": "uint256[]",
          "name": "claimablePeriods",
          "type": "uint256[]"
        },
        {
          "internalType": "uint256[]",
          "name": "claimableAmounts",
          "type": "uint256[]"
        }
      ],
      "stateMutability": "view",
      "type": "function"
    },
    {
      "inputs": [
        {
          "internalType": "address",
          "name": "_admin",
          "type": "address"
        }
      ],
      "name": "grantPayoutAdminRole",
      "outputs": [],
      "stateMutability": "nonpayable",
      "type": "function"
    },
    {
      "inputs": [
        {
          "internalType": "bytes32",
          "name": "role",
          "type": "bytes32"
        },
        {
          "internalType": "address",
          "name": "account",
          "type": "address"
        }
      ],
      "name": "grantRole",
      "outputs": [],
      "stateMutability": "nonpayable",
      "type": "function"
    },
    {
      "inputs": [
        {
          "internalType": "bytes32",
          "name": "role",
          "type": "bytes32"
        },
        {
          "internalType": "address",
          "name": "account",
          "type": "address"
        }
      ],
      "name": "hasRole",
      "outputs": [
        {
          "internalType": "bool",
          "name": "",
          "type": "bool"
        }
      ],
      "stateMutability": "view",
      "type": "function"
    },
    {
      "inputs": [
        {
          "internalType": "address",
          "name": "",
          "type": "address"
        }
      ],
      "name": "investors",
      "outputs": [
        {
          "internalType": "uint256",
          "name": "deposited",
          "type": "uint256"
        },
        {
          "internalType": "uint256",
          "name": "usdtValue",
          "type": "uint256"
        },
        {
          "internalType": "bool",
          "name": "hasClaimedFinalTokens",
          "type": "bool"
        },
        {
          "internalType": "bool",
          "name": "emergencyUnlocked",
          "type": "bool"
        },
        {
          "internalType": "uint256",
          "name": "totalPayoutsClaimed",
          "type": "uint256"
        }
      ],
      "stateMutability": "view",
      "type": "function"
    },
    {
      "inputs": [],
      "name": "isPayoutPeriodAvailable",
      "outputs": [
        {
          "internalType": "bool",
          "name": "",
          "type": "bool"
        }
      ],
      "stateMutability": "view",
      "type": "function"
    },
    {
      "inputs": [],
      "name": "lastPayoutDistributionTime",
      "outputs": [
        {
          "internalType": "uint256",
          "name": "",
          "type": "uint256"
        }
      ],
      "stateMutability": "view",
      "type": "function"
    },
    {
      "inputs": [],
      "name": "maturityDate",
      "outputs": [
        {
          "internalType": "uint256",
          "name": "",
          "type": "uint256"
        }
      ],
      "stateMutability": "view",
      "type": "function"
    },
    {
      "inputs": [],
      "name": "name",
      "outputs": [
        {
          "internalType": "string",
          "name": "",
          "type": "string"
        }
      ],
      "stateMutability": "view",
      "type": "function"
    },
    {
      "inputs": [],
      "name": "offeringContract",
      "outputs": [
        {
          "internalType": "address",
          "name": "",
          "type": "address"
        }
      ],
      "stateMutability": "view",
      "type": "function"
    },
    {
      "inputs": [],
      "name": "pause",
      "outputs": [],
      "stateMutability": "nonpayable",
      "type": "function"
    },
    {
      "inputs": [],
      "name": "paused",
      "outputs": [
        {
          "internalType": "bool",
          "name": "",
          "type": "bool"
        }
      ],
      "stateMutability": "view",
      "type": "function"
    },
    {
      "inputs": [],
      "name": "payoutAPR",
      "outputs": [
        {
          "internalType": "uint256",
          "name": "",
          "type": "uint256"
        }
      ],
      "stateMutability": "view",
      "type": "function"
    },
    {
      "inputs": [
        {
          "internalType": "uint256",
          "name": "",
          "type": "uint256"
        }
      ],
      "name": "payoutFundsPerPeriod",
      "outputs": [
        {
          "internalType": "uint256",
          "name": "",
          "type": "uint256"
        }
      ],
      "stateMutability": "view",
      "type": "function"
    },
    {
      "inputs": [],
      "name": "payoutPeriodDuration",
      "outputs": [
        {
          "internalType": "uint256",
          "name": "",
          "type": "uint256"
        }
      ],
      "stateMutability": "view",
      "type": "function"
    },
    {
      "inputs": [],
      "name": "payoutToken",
      "outputs": [
        {
          "internalType": "contract IERC20",
          "name": "",
          "type": "address"
        }
      ],
      "stateMutability": "view",
      "type": "function"
    },
    {
      "inputs": [],
      "name": "peggedToken",
      "outputs": [
        {
          "internalType": "contract IERC20",
          "name": "",
          "type": "address"
        }
      ],
      "stateMutability": "view",
      "type": "function"
    },
    {
      "inputs": [
        {
          "internalType": "address",
          "name": "_user",
          "type": "address"
        },
        {
          "internalType": "uint256",
          "name": "amount",
          "type": "uint256"
        },
        {
          "internalType": "uint256",
          "name": "usdtValue",
          "type": "uint256"
        }
      ],
      "name": "registerInvestment",
      "outputs": [],
      "stateMutability": "nonpayable",
      "type": "function"
    },
    {
      "inputs": [
        {
          "internalType": "bytes32",
          "name": "role",
          "type": "bytes32"
        },
        {
          "internalType": "address",
          "name": "callerConfirmation",
          "type": "address"
        }
      ],
      "name": "renounceRole",
      "outputs": [],
      "stateMutability": "nonpayable",
      "type": "function"
    },
    {
      "inputs": [
        {
          "internalType": "address",
          "name": "_admin",
          "type": "address"
        }
      ],
      "name": "revokePayoutAdminRole",
      "outputs": [],
      "stateMutability": "nonpayable",
      "type": "function"
    },
    {
      "inputs": [
        {
          "internalType": "bytes32",
          "name": "role",
          "type": "bytes32"
        },
        {
          "internalType": "address",
          "name": "account",
          "type": "address"
        }
      ],
      "name": "revokeRole",
      "outputs": [],
      "stateMutability": "nonpayable",
      "type": "function"
    },
    {
      "inputs": [],
      "name": "setFirstPayoutDate",
      "outputs": [],
      "stateMutability": "nonpayable",
      "type": "function"
    },
    {
      "inputs": [
        {
          "internalType": "bytes4",
          "name": "interfaceId",
          "type": "bytes4"
        }
      ],
      "name": "supportsInterface",
      "outputs": [
        {
          "internalType": "bool",
          "name": "",
          "type": "bool"
        }
      ],
      "stateMutability": "view",
      "type": "function"
    },
    {
      "inputs": [],
      "name": "symbol",
      "outputs": [
        {
          "internalType": "string",
          "name": "",
          "type": "string"
        }
      ],
      "stateMutability": "view",
      "type": "function"
    },
    {
      "inputs": [],
      "name": "totalEscrowed",
      "outputs": [
        {
          "internalType": "uint256",
          "name": "",
          "type": "uint256"
        }
      ],
      "stateMutability": "view",
      "type": "function"
    },
    {
      "inputs": [],
      "name": "totalSupply",
      "outputs": [
        {
          "internalType": "uint256",
          "name": "",
          "type": "uint256"
        }
      ],
      "stateMutability": "view",
      "type": "function"
    },
    {
      "inputs": [],
      "name": "totalUSDTInvested",
      "outputs": [
        {
          "internalType": "uint256",
          "name": "",
          "type": "uint256"
        }
      ],
      "stateMutability": "view",
      "type": "function"
    },
    {
      "inputs": [
        {
          "internalType": "uint256",
          "name": "",
          "type": "uint256"
        }
      ],
      "name": "totalUSDTSnapshot",
      "outputs": [
        {
          "internalType": "uint256",
          "name": "",
          "type": "uint256"
        }
      ],
      "stateMutability": "view",
      "type": "function"
    },
    {
      "inputs": [
        {
          "internalType": "address",
          "name": "",
          "type": "address"
        },
        {
          "internalType": "uint256",
          "name": "",
          "type": "uint256"
        }
      ],
      "name": "transfer",
      "outputs": [
        {
          "internalType": "bool",
          "name": "",
          "type": "bool"
        }
      ],
      "stateMutability": "pure",
      "type": "function"
    },
    {
      "inputs": [
        {
          "internalType": "address",
          "name": "",
          "type": "address"
        },
        {
          "internalType": "address",
          "name": "",
          "type": "address"
        },
        {
          "internalType": "uint256",
          "name": "",
          "type": "uint256"
        }
      ],
      "name": "transferFrom",
      "outputs": [
        {
          "internalType": "bool",
          "name": "",
          "type": "bool"
        }
      ],
      "stateMutability": "pure",
      "type": "function"
    },
    {
      "inputs": [],
      "name": "unpause",
      "outputs": [],
      "stateMutability": "nonpayable",
      "type": "function"
    },
    {
      "inputs": [
        {
          "internalType": "address",
          "name": "",
          "type": "address"
        }
      ],
      "name": "userLastClaimedPeriod",
      "outputs": [
        {
          "internalType": "uint256",
          "name": "",
          "type": "uint256"
        }
      ],
      "stateMutability": "view",
      "type": "function"
    },
    {
      "inputs": [
        {
          "internalType": "address",
          "name": "",
          "type": "address"
        },
        {
          "internalType": "uint256",
          "name": "",
          "type": "uint256"
        }
      ],
      "name": "userUSDTSnapshot",
      "outputs": [
        {
          "internalType": "uint256",
          "name": "",
          "type": "uint256"
        }
      ],
      "stateMutability": "view",
      "type": "function"
    }
  ],
  "bytecode": "0x6040610120815234620004b0576200317a90813803806200002081620004b5565b93843982016020908184820312620004b05783516001600160401b0394858211620004b0570193610120918286820312620004b057845192830183811083821117620003b05785528551828111620004b0578162000080918801620004db565b83528386015190828211620004b0576200009c918701620004db565b918284820152620000af8587016200054d565b92858201938452620000c4606088016200054d565b93606083019485526080880151916080840192835260a08901519660a08501978852620000f460c08b016200054d565b9560c086019687526200010a60e08c016200054d565b60e0870152610100809b0151958b810196875251928351828111620003b0576003918254916001968784811c94168015620004a5575b878510146200048f578190601f9485811162000439575b508790858311600114620003d257600092620003c6575b505060001982861b1c191690871b1783555b8051938411620003b05760049485548781811c91168015620003a5575b82821014620003905790818487969594931162000334575b5080928511600114620002c65750600093620002ba575b505082851b92600019911b1c19161790555b600655516001600160a01b039081166080529351841660a0525160c0525160e05251168352516009556000600e819055600f5551612c17918262000563833960805182818161073e015281816109bd015281816111ce015281816118b70152612018015260a05182818161038e015281816111f2015281816114ca015281816117a701526129d0015260c051828181610ca20152818161121901526117e0015260e051828181610b9401528181611740015281816125e9015281816127ef0152612bb701525181818161060401528181610b3d0152611d0d0152f35b015191503880620001cc565b929190879550601f1985168760005284600020946000905b8282106200031a5750508511620002ff575b50505050811b019055620001de565b01519060f884600019921b161c1916905538808080620002f0565b8484015187558a98909601959384019390810190620002de565b90919293945086600052816000208480880160051c82019284891062000386575b918a91899897969594930160051c01915b82811062000376575050620001b5565b600081558897508a910162000366565b9250819262000355565b602287634e487b7160e01b6000525260246000fd5b90607f16906200019d565b634e487b7160e01b600052604160045260246000fd5b0151905038806200016e565b90899350601f1983169187600052896000209260005b8b82821062000422575050841162000409575b505050811b01835562000180565b015160001983881b60f8161c19169055388080620003fb565b8385015186558d97909501949384019301620003e8565b90915085600052876000208580850160051c8201928a861062000485575b918b91869594930160051c01915b8281106200047557505062000157565b600081558594508b910162000465565b9250819262000457565b634e487b7160e01b600052602260045260246000fd5b93607f169362000140565b600080fd5b6040519190601f01601f191682016001600160401b03811183821017620003b057604052565b919080601f84011215620004b05782516001600160401b038111620003b05760209062000511601f8201601f19168301620004b5565b92818452828287010111620004b05760005b8181106200053957508260009394955001015290565b858101830151848201840152820162000523565b51906001600160a01b0382168203620004b05756fe608060408181526004918236101561001657600080fd5b600092833560e01c918262e77aa614611ff95750816301ffc9a714611f5857816306fdde0314611e63578163095ea7b314611dbb5781630974d4b614611d935781630b5dce3314611d6f5781631781f1a014611d5057816318160ddd14611d315781631a4f94f714611ced5781631a9516ee14611cc757816323b872dd14611ca2578163248a9ca314611c77578163278e421e14611c585781632f2ff15d14611c2e578163308839bd14611c07578163313ce56714611beb57816336568abe14611b8c57816336d89da714611b55578163389ed26714611b1a5781633e839bad14611afb5781633f4ba83a14611a785781634265b3c9146119ea57816342966c68146119cc578163464f0b0d146117cb5781634efa82b6146117875781635c975abb146117635781635dbe7216146117285781636cb74a261461142a5781636f7bc9be146113be57816370a082311461138857816379cc6790146112865781637c49509f1461125f5781637cc1f867146111925781637cf5ac06146111525781637eb9d981146111085781637f4dc2ee146110a457816380f7e03a14610fdb57816383c379d414610f8d5781638456cb5914610f325781638695ed6414610f13578163895955e614610ed857816391d1485414610e9257816395d89b4114610d8f578163a217fddf14610d74578163a9059cbb14610d32578163bff0808714610d05578163d547741f14610cc5578163d59624b414610c8a578163dd62ed3e14610c41578163e4be99dd14610c22578163eeef509b14610bfa578163f17acf1614610b21578163f2c39992146108cc578163f796142f146108ad578163f8abbb41146105e0578163f9168231146105c1578163f99f9fc5146102c8575063fafbb9a3146102a257600080fd5b346102c457816003193601126102c4576020906102bd612b9e565b9051908152f35b5080fd5b8383346102c457602090816003193601126105bd5783357f84b05def62ce9bc2bd93f644e8c54b097db7ee9edab66685b9b15dc162c7556480855260058452828520338652845260ff8386205416156105a0575061032461282d565b61032c61259e565b8015610591576fffffffffffffffffffffffffffffffff80821161054f57610352612b9e565b42106105275782516323b872dd60e01b815233878201908152306020820152604081018490528590829081906060010381896001600160a01b037f0000000000000000000000000000000000000000000000000000000000000000165af190811561051d5786916104f0575b50156104e157600e5495600187018097116104ce5786600e5567ffffffffffffffff871161048c5742600f55600b5491821161044a575084957fd4329b35294681a3d4bf10232afe0382cc8c1f3fab8861d9992a7b66cd8a13619495526011855282862055600e548552601084528082862055600e5493600b54908351928352820152a2600160065580f35b6064908585519162461bcd60e51b8352820152601460248201527f546f74616c205553445420746f6f206c617267650000000000000000000000006044820152fd5b6064908585519162461bcd60e51b8352820152601760248201527f546f6f206d616e79207061796f757420706572696f64730000000000000000006044820152fd5b856011602492634e487b7160e01b835252fd5b8583516312171d8360e31b8152fd5b6105109150853d8711610516575b6105088183612449565b810190612586565b876103be565b503d6104fe565b84513d88823e3d90fd5b8583517f33ffc78b000000000000000000000000000000000000000000000000000000008152fd5b6064868585519162461bcd60e51b8352820152601760248201527f5061796f757420616d6f756e7420746f6f206c617267650000000000000000006044820152fd5b84825163162908e360e11b8152fd5b8560449184519163e2517d3f60e01b835233908301526024820152fd5b8280fd5b5050346102c457816003193601126102c457602090600a549051908152f35b8383346102c45760603660031901126102c4576105fb612085565b906024356044357f00000000000000000000000000000000000000000000000000000000000000006001600160a01b0394858216330361089f57859061063f61259e565b169485156108905783158015610888575b6108795790839161066383600a54612554565b600a5561067284600b54612554565b600b5561068183600254612554565b6002558688526020928391898352878a20828154019055888a7fddf252ad1be2c89b69c2b068fc378daa952ba7f163c4a11628f55a4df523b3ef858b51868152a3888a528a8a6014958686528a82206106db868254612554565b90558b82528686526001808c8420016106f58b8254612554565b9055600e9788546107db575b50508a516323b872dd60e01b81526001600160a01b03909116928101928352306020840152604083019490945292945084928391829060600103927f0000000000000000000000000000000000000000000000000000000000000000165af19081156107d15787916107b4575b50156107a5577fcaf54550117adf10043aeaa9270b031dac674af74f7d8dab2af30faf222f8a72949596508351928352820152a280f35b8684516312171d8360e31b8152fd5b6107cb9150823d8411610516576105088183612449565b8861076e565b85513d89823e3d90fd5b9097888e8e825b6107ef575b505050610701565b93979a9890949991959296875487116108665750505091869594939183826108339552601392838d528282208583528d528282205415610845575b50505050612577565b948d928d9289978e8e8e999b986107e2565b8152868c52878282200154928c528181208482528c5220558f8c8f8f61082a565b96509750979289965081945080836107e7565b87855163162908e360e11b8152fd5b508215610650565b87855163d92e233d60e01b8152fd5b8785516282b42960e81b8152fd5b5050346102c457816003193601126102c4576020906008549051908152f35b919050346105bd57826003193601126105bd576108e761282d565b6108ef61259e565b60ff600c541615610afb5733835260209160148352818420928354918215610aed57600285019283549560ff87168015610ae0575b610ad157338852878452858820549160018201805492610946600d5484612621565b97838911610a8f578b9291839161095d8b87612b91565b9c61ff0019166101001790555555600a549061097891612b91565b600a55600b549061098891612b91565b600b55610995903361246b565b835163a9059cbb60e01b8152338282019081526020810187905283908290819060400103818a7f00000000000000000000000000000000000000000000000000000000000000006001600160a01b03165af19081156107d1578791610a72575b5015610a325750825193845283015233917fa34530ec0b9fd6c8b48017f6726af24c1ad4f28d0f434f7396906b6b954c1d989190a2600160065580f35b8160649285519262461bcd60e51b845283015260248201527f456d657267656e637920756e6c6f636b207472616e73666572206661696c65646044820152fd5b610a899150833d8511610516576105088183612449565b386109f5565b606487898c519162461bcd60e51b8352820152601960248201527f50656e616c74792063616c63756c6174696f6e206572726f72000000000000006044820152fd5b828651630c8d9eab60e31b8152fd5b5060ff8760081c16610924565b8351633a6a68b160e01b8152fd5b517fa2a2b35c000000000000000000000000000000000000000000000000000000008152fd5b9050346105bd57826003193601126105bd576001600160a01b037f0000000000000000000000000000000000000000000000000000000000000000163303610bed57600854610bc6575060207f01088e42d45c2231b3c8d6f2b875cc704aa1b99c67346eec5ee74ba6fe9d377691610bb97f000000000000000000000000000000000000000000000000000000000000000042612554565b908160085551908152a180f35b90517fc52a9bd3000000000000000000000000000000000000000000000000000000008152fd5b90516282b42960e81b8152fd5b9050346105bd5760203660031901126105bd5760209282913581526011845220549051908152f35b5050346102c457816003193601126102c4576020906009549051908152f35b5050346102c457806003193601126102c45780602092610c5f612085565b610c676120a0565b6001600160a01b0391821683526001865283832091168252845220549051908152f35b5050346102c457816003193601126102c457602090517f00000000000000000000000000000000000000000000000000000000000000008152f35b919050346105bd57806003193601126105bd57610d019135610cfc6001610cea6120a0565b9383875260056020528620015461219e565b61239f565b5080f35b8334610d2f576020366003190112610d2f57610d01610d22612085565b610d2a612164565b6122f3565b80fd5b828434610d2f5781600319360112610d2f5750610d4d612085565b50517fade576c5000000000000000000000000000000000000000000000000000000008152fd5b5050346102c457816003193601126102c45751908152602090f35b8383346102c457816003193601126102c457805191809380549160019083821c92828516948515610e88575b6020958686108114610e7557858952908115610e515750600114610df9575b610df58787610deb828c0383612449565b519182918261203c565b0390f35b81529295507f8a35acfbc15ff81a39ae7d344fd709f28e8600b4aa8c65c6b64bfe7fe36bd19b5b828410610e3e5750505082610df594610deb92820101948680610dda565b8054868501880152928601928101610e20565b60ff19168887015250505050151560051b8301019250610deb82610df58680610dda565b602484602285634e487b7160e01b835252fd5b93607f1693610dbb565b9050346105bd57816003193601126105bd578160209360ff92610eb36120a0565b90358252600586526001600160a01b0383832091168252855220541690519015158152f35b5050346102c457816003193601126102c457602090517f84b05def62ce9bc2bd93f644e8c54b097db7ee9edab66685b9b15dc162c755648152f35b5050346102c457816003193601126102c457602090600d549051908152f35b5050346102c457816003193601126102c45760207f62e78cea01bee320cd4e420270b5ea74000d11b0c9f74754ebdbfc544b05a25891610f706120ea565b610f7861259e565b600160ff19600754161760075551338152a180f35b8334610d2f5780600319360112610d2f57610fa6612164565b60ff19600c5416600c5580600d557fc2bd196abee045fde7a74e121a11ad6196a74256a1b0a2bcbc7ef0b2e2df991f8180a180f35b839150346102c457816003193601126102c457600e5491600f5491610ffe612b9e565b9085805180927f308839bd00000000000000000000000000000000000000000000000000000000825281305afa928315611099578093611064575b50508060c09560095494815196875260208701528501524210156060840152608083015260a0820152f35b909580935086813d8311611092575b61107d8183612449565b81010312610d2f57508060c095519295611039565b503d611073565b8651903d90823e3d90fd5b828434610d2f576020366003190112610d2f57506110fa610df56110ce6110c9612085565b612931565b94969397809391935198899889526020890152870152606086015260c0608086015260c08501906120b6565b9083820360a08501526120b6565b9050346105bd5760203660031901126105bd57611123612085565b9161112c612164565b6001600160a01b038316156111455783610d01846121c4565b5163d92e233d60e01b8152fd5b5050346102c457806003193601126102c457806020926001600160a01b03611178612085565b168152601384528181206024358252845220549051908152f35b5050346102c457816003193601126102c45761012090600a54600b54600e546009549060ff600c541692600d54948651966001600160a01b03807f00000000000000000000000000000000000000000000000000000000000000001689527f00000000000000000000000000000000000000000000000000000000000000001660208901527f0000000000000000000000000000000000000000000000000000000000000000908801526060870152608086015260a085015260c0840152151560e0830152610100820152f35b5050346102c457816003193601126102c45760209061127c612b9e565b4210159051908152f35b839150346102c457826003193601126102c4576112a1612085565b602435916001600160a01b0382168085526001602052858520338652602052858520549160001983106112dd575b856112da868661246b565b80f35b84831061134357811561132d573315611317575084959184916112da965260016020528287203388526020520390852055839285806112cf565b60249086885191634a1406b160e11b8352820152fd5b6024908688519163e602df0560e01b8352820152fd5b86517ffb8f41b2000000000000000000000000000000000000000000000000000000008152339181019182526020820193909352604081018590528291506060010390fd5b5050346102c45760203660031901126102c457806020926001600160a01b036113af612085565b16815280845220549051908152f35b5050346102c45760203660031901126102c4578060a0926001600160a01b036113e5612085565b1681526014602052209060ff82549260018101549260036002830154920154938151958652602086015282821615159085015260081c16151560608301526080820152f35b919050346105bd57826003193601126105bd5761144561282d565b61144d61259e565b3383526020601481528184209283541561171a57600284015460ff811690811561170c575b506116fe5784933386526012835283862054600181018091116116eb57600e54905b818111156116625750851561163a57906003913388526012855285882055016114be858254612554565b90556001600160a01b037f00000000000000000000000000000000000000000000000000000000000000001683516370a0823160e01b815230838201528381602481855afa9081156107d1578791611609575b50808611611601575b50828451809263a9059cbb60e01b82528189816115508b338a8401602090939291936001600160a01b0360408201951681520152565b03925af190811561051d5786916115e4575b50156115a35750907f0408e6e0b73daf4c873106e95fd067260fbff8bf9d1b499cad563d4480d45bac91600e549082519485528401523392a2600160065580f35b90606492519162461bcd60e51b8352820152601660248201527f5061796f7574207472616e73666572206661696c6564000000000000000000006044820152fd5b6115fb9150833d8511610516576105088183612449565b38611562565b94503861151a565b90508381813d8311611633575b6116208183612449565b8101031261162f575138611511565b8680fd5b503d611616565b8285517f439ece77000000000000000000000000000000000000000000000000000000008152fd5b8088526010855285882054601186528689205490801515806116e2575b611694575b505061168f90612577565b611494565b61169e8333612868565b90816116ab575b50611684565b82999399156116d5576116cc9261168f94926116c692612708565b90612554565b969038806116a5565b5050509561168f90612577565b5081151561167f565b602487601185634e487b7160e01b835252fd5b8251630c8d9eab60e31b8152fd5b60ff915060081c1638611472565b8251633a6a68b160e01b8152fd5b5050346102c457816003193601126102c457602090517f00000000000000000000000000000000000000000000000000000000000000008152f35b5050346102c457816003193601126102c45760209060ff6007541690519015158152f35b5050346102c457816003193601126102c457602090516001600160a01b037f0000000000000000000000000000000000000000000000000000000000000000168152f35b919050346105bd57826003193601126105bd577f000000000000000000000000000000000000000000000000000000000000000042106119a65761180d61282d565b61181561259e565b33835260209060148252808420926002840193845460ff81166119975760ff8160081c1661199757815495861561198857611887929161187e91338a52898852600180888c20549501549260ff191617905561187388600a54612b91565b600a55600b54612b91565b600b553361246b565b815163a9059cbb60e01b815233828201908152602081018690528490829081906040010381896001600160a01b037f0000000000000000000000000000000000000000000000000000000000000000165af190811561197e578691611961575b50156119205750907f8bb992a66750701ebd5f73b74463037e5a77fa3114ea76d89b9db1818b083f4891519283523392a2600160065580f35b82606492519162461bcd60e51b8352820152601b60248201527f46696e616c20746f6b656e207472616e73666572206661696c656400000000006044820152fd5b6119789150843d8611610516576105088183612449565b386118e7565b83513d88823e3d90fd5b838551633a6a68b160e01b8152fd5b828451630c8d9eab60e31b8152fd5b517f111c4409000000000000000000000000000000000000000000000000000000008152fd5b8390346102c45760203660031901126102c4576112da90353361246b565b919050346105bd5760203660031901126105bd57813591611a09612164565b6113888311611a5157507f373e08b9e2e94c99f958f95cf4e0a2db0e6de1f1607a5b7470341baab1ae608c91602091600160ff19600c541617600c5581600d5551908152a180f35b90517f458eae5b000000000000000000000000000000000000000000000000000000008152fd5b9050346105bd57826003193601126105bd57611a926120ea565b6007549060ff821615611ad4575060ff1916600755513381527f5db9ee0a495bf2e6ff9c91a7834c1ba4fdd244a5e8aa4e537bd38aeae4b073aa90602090a180f35b82517f8dfc202b000000000000000000000000000000000000000000000000000000008152fd5b5050346102c457816003193601126102c457602090600f549051908152f35b5050346102c457816003193601126102c457602090517f139c2898040ef16910dc9f44dc697df79363da767d8bc92f2e310312b816e46d8152f35b5050346102c45760203660031901126102c457806020926001600160a01b03611b7c612085565b1681526012845220549051908152f35b8383346102c457806003193601126102c457611ba66120a0565b90336001600160a01b03831603611bc35750610d0191923561239f565b8390517f6697b232000000000000000000000000000000000000000000000000000000008152fd5b5050346102c457816003193601126102c4576020905160128152f35b828434610d2f5780600319360112610d2f5750611c226125d4565b82519182526020820152f35b919050346105bd57806003193601126105bd57610d019135611c536001610cea6120a0565b612277565b5050346102c457816003193601126102c457602090600e549051908152f35b9050346105bd5760203660031901126105bd5781602093600192358152600585522001549051908152f35b828434610d2f576060366003190112610d2f5750611cbe612085565b50610d4d6120a0565b5050346102c45760203660031901126102c4576020906102bd611ce8612085565b6127bc565b5050346102c457816003193601126102c457602090516001600160a01b037f0000000000000000000000000000000000000000000000000000000000000000168152f35b5050346102c457816003193601126102c4576020906002549051908152f35b5050346102c457816003193601126102c457602090600b549051908152f35b5050346102c457816003193601126102c45760209060ff600c541690519015158152f35b9050346105bd5760203660031901126105bd5760209282913581526010845220549051908152f35b9050346105bd57816003193601126105bd57611dd5612085565b602435903315611e4d576001600160a01b0316918215611e3757508083602095338152600187528181208582528752205582519081527f8c5be1e5ebec7d5bd14f71427d1e84f3dd0314c0f7b2291e5b200ac8c7c3b925843392a35160018152f35b60249085855191634a1406b160e11b8352820152fd5b6024838686519163e602df0560e01b8352820152fd5b919050346105bd57826003193601126105bd57805191836003549060019082821c928281168015611f4e575b6020958686108214611f3b5750848852908115611f195750600114611ec0575b610df58686610deb828b0383612449565b929550600383527fc2575a0e9e593c00f959f8c92f12db2869c3395a3b0502d05e2516446f71f85b5b828410611f065750505082610df594610deb928201019438611eaf565b8054868501880152928601928101611ee9565b60ff191687860152505050151560051b8301019250610deb82610df538611eaf565b836022602492634e487b7160e01b835252fd5b93607f1693611e8f565b9050346105bd5760203660031901126105bd5735907fffffffff0000000000000000000000000000000000000000000000000000000082168092036105bd57602092507f7965db0b000000000000000000000000000000000000000000000000000000008214918215611fcf575b50519015158152f35b7f01ffc9a70000000000000000000000000000000000000000000000000000000014915038611fc6565b8490346102c457816003193601126102c4576020906001600160a01b037f0000000000000000000000000000000000000000000000000000000000000000168152f35b6020808252825181830181905290939260005b82811061207157505060409293506000838284010152601f8019910116010190565b81810186015184820160400152850161204f565b600435906001600160a01b038216820361209b57565b600080fd5b602435906001600160a01b038216820361209b57565b90815180825260208080930193019160005b8281106120d6575050505090565b8351855293810193928101926001016120c8565b3360009081527f02321e94d40847f2658a42722631f98abe2722cedcf64b586223ef22fc35c8d560205260409020547f139c2898040ef16910dc9f44dc697df79363da767d8bc92f2e310312b816e46d9060ff16156121465750565b6044906040519063e2517d3f60e01b82523360048301526024820152fd5b3360009081527f05b8ccbb9d4d8fb16ea74ce3c29a41f1b461fbdaff4714a0d9a8eb05499746bc602052604081205460ff16156121465750565b80600052600560205260406000203360005260205260ff60406000205416156121465750565b6001600160a01b031660008181527fa9780ac285a6b64c20b34d35938634ccfeaf5de258bea281533158d789ca4a2f60205260408120549091907f84b05def62ce9bc2bd93f644e8c54b097db7ee9edab66685b9b15dc162c755649060ff166122725780835260056020526040832082845260205260408320600160ff198254161790557f2f8788117e7eff1d82e926ec794901d17c78024a50270940304540a733656f0d339380a4600190565b505090565b9060009180835260056020526001600160a01b036040842092169182845260205260ff604084205416156000146122725780835260056020526040832082845260205260408320600160ff198254161790557f2f8788117e7eff1d82e926ec794901d17c78024a50270940304540a733656f0d339380a4600190565b6001600160a01b031660008181527fa9780ac285a6b64c20b34d35938634ccfeaf5de258bea281533158d789ca4a2f60205260408120549091907f84b05def62ce9bc2bd93f644e8c54b097db7ee9edab66685b9b15dc162c755649060ff1615612272578083526005602052604083208284526020526040832060ff1981541690557ff6391f5c32d9c69d2a47ea670b442974b53935d1edc7fd64eb21e047a839171b339380a4600190565b9060009180835260056020526001600160a01b036040842092169182845260205260ff604084205416600014612272578083526005602052604083208284526020526040832060ff1981541690557ff6391f5c32d9c69d2a47ea670b442974b53935d1edc7fd64eb21e047a839171b339380a4600190565b6020810190811067ffffffffffffffff82111761243357604052565b634e487b7160e01b600052604160045260246000fd5b90601f8019910116810190811067ffffffffffffffff82111761243357604052565b906001600160a01b03821690811561252357600092828452836020526040842054908282106124d85750817fddf252ad1be2c89b69c2b068fc378daa952ba7f163c4a11628f55a4df523b3ef926020928587528684520360408620558060025403600255604051908152a3565b6040517fe450d38c0000000000000000000000000000000000000000000000000000000081526001600160a01b03919091166004820152602481019190915260448101829052606490fd5b60246040517f96c6fd1e00000000000000000000000000000000000000000000000000000000815260006004820152fd5b9190820180921161256157565b634e487b7160e01b600052601160045260246000fd5b60001981146125615760010190565b9081602091031261209b5751801515810361209b5790565b60ff600754166125aa57565b60046040517fd93c0665000000000000000000000000000000000000000000000000000000008152fd5b600b549081156126195761261561260e6009547f00000000000000000000000000000000000000000000000000000000000000009061269c565b8093612621565b9190565b600091508190565b906000198183098183029182808310920391808303921461269157612710908282111561267e577fbc01a36e2eb1c432ca57a786c226809d495182a9930be0ded288ce703afb7e91940990828211900360fc1b910360041c170290565b634e487b7160005260116020526024601cfd5b505061271091500490565b90600019818309818302918280831092039180830392146126fb576301e13380908282111561267e577f98f5be4dd1e14769fbd6666224dc1eb80dd2e0a3d2c8b328f57e76b7ae103957940990828211900360f91b910360071c170290565b50506301e1338091500490565b90916000198383099280830292838086109503948086039514612798578483111561277f579082910981600003821680920460028082600302188083028203028083028203028083028203028083028203028083028203028092029003029360018380600003040190848311900302920304170290565b82634e487b71600052156003026011186020526024601cfd5b5050809250156127a6570490565b634e487b7160e01b600052601260045260246000fd5b6001600160a01b0316600052601460205260016040600020015480158015612823575b61281d5761281a906128146009547f00000000000000000000000000000000000000000000000000000000000000009061269c565b90612621565b90565b50600090565b50600b54156127df565b60026006541461283e576002600655565b60046040517f3ee5aeb5000000000000000000000000000000000000000000000000000000008152fd5b906000918183526011602052604083205415612272576001600160a01b0316908183526013602052604083209083526020526040822054806128b7575081526014602052604090206001015490565b91505090565b67ffffffffffffffff81116124335760051b60200190565b906128df826128bd565b6128ec6040519182612449565b82815280926128fd601f19916128bd565b0190602036910137565b805182101561291b5760209160051b010190565b634e487b7160e01b600052603260045260246000fd5b906001600160a01b03808316916000838152601460205260408120928354158015612b80575b612b4c57600384015494825260126020526001604083205494015492826001860192838711612b3857600e54845b81811115612b0357506129a061299a876128d5565b966128d5565b94839a84915b83811115612a5157505050506020602491604051928380926370a0823160e01b82523060048301527f0000000000000000000000000000000000000000000000000000000000000000165afa918215612a45578092612a10575b5050808811612a0c5750565b9650565b9091506020823d602011612a3d575b81612a2c60209383612449565b81010312610d2f5750513880612a00565b3d9150612a1f565b604051903d90823e3d90fd5b80865260106020526040862054601160205260408720549080151580612afa575b612a87575b5050612a8290612577565b6129a6565b612a918385612868565b9081612a9e575b50612a77565b949e92948215612aec578f90938c612ad7838e8a612ad1612ac9612ae39a612add9a612a829d612708565b978896612907565b52612907565b52612554565b9d612577565b92903880612a98565b5050509b91612a8290612577565b50811515612a72565b80845260106020526040842054612b23575b612b1e90612577565b612985565b95612b30612b1e91612577565b969050612b15565b602482634e487b7160e01b81526011600452fd5b50935091505060405191612b5f83612417565b80835260405192612b6f84612417565b818452813681378193829383929190565b5060ff600285015460081c16612957565b9190820391821161256157565b6008548015612be057600f548015612bdc5761281a91507f000000000000000000000000000000000000000000000000000000000000000090612554565b5090565b60046040517f816ace66000000000000000000000000000000000000000000000000000000008152fdfea164736f6c6343000814000a",
  "linkReferences": {},
  "deployedLinkReferences": {}
}