{
  "_format": "hh-sol-artifact-1",
  "contractName": "WRAPEDTOKEN",
  "sourceName": "contracts/WrapedToken.sol",
  "abi": [
    {
      "inputs": [
        {
          "internalType": "string",
          "name": "name",
          "type": "string"
        },
        {
          "internalType": "string",
          "name": "symbol",
          "type": "string"
        },
        {
          "internalType": "address",
          "name": "_peggedToken",
          "type": "address"
        },
        {
          "internalType": "uint256",
          "name": "_maturityDate",
          "type": "uint256"
        },
        {
          "internalType": "address",
          "name": "_offeringContract",
          "type": "address"
        }
      ],
      "stateMutability": "nonpayable",
      "type": "constructor"
    },
    {
      "inputs": [],
      "name": "AlreadyClaimed",
      "type": "error"
    },
    {
      "inputs": [],
      "name": "AlreadyMatured",
      "type": "error"
    },
    {
      "inputs": [
        {
          "internalType": "address",
          "name": "spender",
          "type": "address"
        },
        {
          "internalType": "uint256",
          "name": "allowance",
          "type": "uint256"
        },
        {
          "internalType": "uint256",
          "name": "needed",
          "type": "uint256"
        }
      ],
      "name": "ERC20InsufficientAllowance",
      "type": "error"
    },
    {
      "inputs": [
        {
          "internalType": "address",
          "name": "sender",
          "type": "address"
        },
        {
          "internalType": "uint256",
          "name": "balance",
          "type": "uint256"
        },
        {
          "internalType": "uint256",
          "name": "needed",
          "type": "uint256"
        }
      ],
      "name": "ERC20InsufficientBalance",
      "type": "error"
    },
    {
      "inputs": [
        {
          "internalType": "address",
          "name": "approver",
          "type": "address"
        }
      ],
      "name": "ERC20InvalidApprover",
      "type": "error"
    },
    {
      "inputs": [
        {
          "internalType": "address",
          "name": "receiver",
          "type": "address"
        }
      ],
      "name": "ERC20InvalidReceiver",
      "type": "error"
    },
    {
      "inputs": [
        {
          "internalType": "address",
          "name": "sender",
          "type": "address"
        }
      ],
      "name": "ERC20InvalidSender",
      "type": "error"
    },
    {
      "inputs": [
        {
          "internalType": "address",
          "name": "spender",
          "type": "address"
        }
      ],
      "name": "ERC20InvalidSpender",
      "type": "error"
    },
    {
      "inputs": [],
      "name": "InvalidAmount",
      "type": "error"
    },
    {
      "inputs": [],
      "name": "InvalidStablecoin",
      "type": "error"
    },
    {
      "inputs": [],
      "name": "NoDeposit",
      "type": "error"
    },
    {
      "inputs": [],
      "name": "NoTransfersAllowed",
      "type": "error"
    },
    {
      "inputs": [],
      "name": "NotMatured",
      "type": "error"
    },
    {
      "inputs": [],
      "name": "TokenTransferFailed",
      "type": "error"
    },
    {
      "anonymous": false,
      "inputs": [
        {
          "indexed": true,
          "internalType": "address",
          "name": "owner",
          "type": "address"
        },
        {
          "indexed": true,
          "internalType": "address",
          "name": "spender",
          "type": "address"
        },
        {
          "indexed": false,
          "internalType": "uint256",
          "name": "value",
          "type": "uint256"
        }
      ],
      "name": "Approval",
      "type": "event"
    },
    {
      "anonymous": false,
      "inputs": [
        {
          "indexed": true,
          "internalType": "address",
          "name": "from",
          "type": "address"
        },
        {
          "indexed": true,
          "internalType": "address",
          "name": "to",
          "type": "address"
        },
        {
          "indexed": false,
          "internalType": "uint256",
          "name": "value",
          "type": "uint256"
        }
      ],
      "name": "Transfer",
      "type": "event"
    },
    {
      "inputs": [
        {
          "internalType": "address",
          "name": "owner",
          "type": "address"
        },
        {
          "internalType": "address",
          "name": "spender",
          "type": "address"
        }
      ],
      "name": "allowance",
      "outputs": [
        {
          "internalType": "uint256",
          "name": "",
          "type": "uint256"
        }
      ],
      "stateMutability": "view",
      "type": "function"
    },
    {
      "inputs": [
        {
          "internalType": "address",
          "name": "spender",
          "type": "address"
        },
        {
          "internalType": "uint256",
          "name": "value",
          "type": "uint256"
        }
      ],
      "name": "approve",
      "outputs": [
        {
          "internalType": "bool",
          "name": "",
          "type": "bool"
        }
      ],
      "stateMutability": "nonpayable",
      "type": "function"
    },
    {
      "inputs": [
        {
          "internalType": "address",
          "name": "account",
          "type": "address"
        }
      ],
      "name": "balanceOf",
      "outputs": [
        {
          "internalType": "uint256",
          "name": "",
          "type": "uint256"
        }
      ],
      "stateMutability": "view",
      "type": "function"
    },
    {
      "inputs": [
        {
          "internalType": "uint256",
          "name": "value",
          "type": "uint256"
        }
      ],
      "name": "burn",
      "outputs": [],
      "stateMutability": "nonpayable",
      "type": "function"
    },
    {
      "inputs": [
        {
          "internalType": "address",
          "name": "account",
          "type": "address"
        },
        {
          "internalType": "uint256",
          "name": "value",
          "type": "uint256"
        }
      ],
      "name": "burnFrom",
      "outputs": [],
      "stateMutability": "nonpayable",
      "type": "function"
    },
    {
      "inputs": [],
      "name": "claimFinalTokens",
      "outputs": [],
      "stateMutability": "nonpayable",
      "type": "function"
    },
    {
      "inputs": [],
      "name": "decimals",
      "outputs": [
        {
          "internalType": "uint8",
          "name": "",
          "type": "uint8"
        }
      ],
      "stateMutability": "view",
      "type": "function"
    },
    {
      "inputs": [
        {
          "internalType": "address",
          "name": "",
          "type": "address"
        }
      ],
      "name": "investors",
      "outputs": [
        {
          "internalType": "uint256",
          "name": "deposited",
          "type": "uint256"
        },
        {
          "internalType": "bool",
          "name": "hasClaimedTokens",
          "type": "bool"
        }
      ],
      "stateMutability": "view",
      "type": "function"
    },
    {
      "inputs": [],
      "name": "maturityDate",
      "outputs": [
        {
          "internalType": "uint256",
          "name": "",
          "type": "uint256"
        }
      ],
      "stateMutability": "view",
      "type": "function"
    },
    {
      "inputs": [],
      "name": "name",
      "outputs": [
        {
          "internalType": "string",
          "name": "",
          "type": "string"
        }
      ],
      "stateMutability": "view",
      "type": "function"
    },
    {
      "inputs": [],
      "name": "offeringContract",
      "outputs": [
        {
          "internalType": "address",
          "name": "",
          "type": "address"
        }
      ],
      "stateMutability": "view",
      "type": "function"
    },
    {
      "inputs": [],
      "name": "peggedToken",
      "outputs": [
        {
          "internalType": "contract IERC20",
          "name": "",
          "type": "address"
        }
      ],
      "stateMutability": "view",
      "type": "function"
    },
    {
      "inputs": [
        {
          "internalType": "address",
          "name": "_user",
          "type": "address"
        },
        {
          "internalType": "uint256",
          "name": "amount",
          "type": "uint256"
        }
      ],
      "name": "registerInvestment",
      "outputs": [],
      "stateMutability": "nonpayable",
      "type": "function"
    },
    {
      "inputs": [],
      "name": "symbol",
      "outputs": [
        {
          "internalType": "string",
          "name": "",
          "type": "string"
        }
      ],
      "stateMutability": "view",
      "type": "function"
    },
    {
      "inputs": [],
      "name": "totalEscrowed",
      "outputs": [
        {
          "internalType": "uint256",
          "name": "",
          "type": "uint256"
        }
      ],
      "stateMutability": "view",
      "type": "function"
    },
    {
      "inputs": [],
      "name": "totalSupply",
      "outputs": [
        {
          "internalType": "uint256",
          "name": "",
          "type": "uint256"
        }
      ],
      "stateMutability": "view",
      "type": "function"
    },
    {
      "inputs": [
        {
          "internalType": "address",
          "name": "",
          "type": "address"
        },
        {
          "internalType": "uint256",
          "name": "",
          "type": "uint256"
        }
      ],
      "name": "transfer",
      "outputs": [
        {
          "internalType": "bool",
          "name": "",
          "type": "bool"
        }
      ],
      "stateMutability": "pure",
      "type": "function"
    },
    {
      "inputs": [
        {
          "internalType": "address",
          "name": "",
          "type": "address"
        },
        {
          "internalType": "address",
          "name": "",
          "type": "address"
        },
        {
          "internalType": "uint256",
          "name": "",
          "type": "uint256"
        }
      ],
      "name": "transferFrom",
      "outputs": [
        {
          "internalType": "bool",
          "name": "",
          "type": "bool"
        }
      ],
      "stateMutability": "pure",
      "type": "function"
    }
  ],
  "bytecode": "0x60e060405234620003a55762001031803803806200001d81620003aa565b92833981019060a081830312620003a55780516001600160401b039290838111620003a5578162000050918401620003d0565b926020918284015190828211620003a5576200006e918501620003d0565b936200007d6040850162000442565b916200009160806060870151960162000442565b958251828111620002a5576003918254916001958684811c941680156200039a575b8985101462000384578190601f948581116200032e575b508990858311600114620002c757600092620002bb575b505060001982861b1c191690861b1783555b8051938411620002a55760049687548681811c911680156200029a575b8282101462000285578381116200023a575b5080928511600114620001cc5750938394918492600095620001c0575b50501b92600019911b1c19161782555b6001600160a01b0316908115620001b1575060805260a05260c052604051610bd9908162000458823960805181818161049c0152818161063301526109b7015260a05181818161016a0152610416015260c0518181816105da01526107d40152f35b604051632945604560e11b8152fd5b0151935038806200013f565b92919084601f1981168960005285600020956000905b898383106200021f575050501062000204575b50505050811b0182556200014f565b01519060f884600019921b161c1916905538808080620001f5565b858701518955909701969485019488935090810190620001e2565b88600052816000208480880160051c8201928489106200027b575b0160051c019087905b8281106200026e57505062000122565b600081550187906200025e565b9250819262000255565b602289634e487b7160e01b6000525260246000fd5b90607f169062000110565b634e487b7160e01b600052604160045260246000fd5b015190503880620000e1565b90889350601f19831691876000528b6000209260005b8d828210620003175750508411620002fe575b505050811b018355620000f3565b015160001983881b60f8161c19169055388080620002f0565b8385015186558c97909501949384019301620002dd565b90915085600052896000208580850160051c8201928c86106200037a575b918a91869594930160051c01915b8281106200036a575050620000ca565b600081558594508a91016200035a565b925081926200034c565b634e487b7160e01b600052602260045260246000fd5b93607f1693620000b3565b600080fd5b6040519190601f01601f191682016001600160401b03811183821017620002a557604052565b919080601f84011215620003a55782516001600160401b038111620002a55760209062000406601f8201601f19168301620003aa565b92818452828287010111620003a55760005b8181106200042e57508260009394955001015290565b858101830151848201840152820162000418565b51906001600160a01b0382168203620003a55756fe608060408181526004918236101561001657600080fd5b600092833560e01c918262e77aa6146109a35750816306fdde03146108cc578163095ea7b31461082257816318160ddd146108035781631a4f94f7146107bf5781631c60d886146105b157816323b872dd1461058c578163313ce5671461057057816342966c6814610552578163464f0b0d146104015781636f7bc9be146103ba57816370a082311461038357816379cc67901461029f57816395d89b41146101b9578163a9059cbb1461018d57508063d59624b414610153578063dd62ed3e1461010b5763f9168231146100ea57600080fd5b346101075781600319360112610107576020906005549051908152f35b5080fd5b503461010757806003193601126101075780602092610128610a2f565b610130610a4a565b6001600160a01b0391821683526001865283832091168252845220549051908152f35b5034610107578160031936011261010757602090517f00000000000000000000000000000000000000000000000000000000000000008152f35b8284346101b657816003193601126101b657506101a8610a2f565b5051631de81c7b60e01b8152fd5b80fd5b838334610107578160031936011261010757805191809380549160019083821c92828516948515610295575b60209586861081146102825785895290811561025e5750600114610223575b61021f8787610215828c0383610a60565b51918291826109e6565b0390f35b9080949750528583205b82841061024b575050508261021f9461021592820101948680610204565b805486850188015292860192810161022d565b60ff19168887015250505050151560051b83010192506102158261021f8680610204565b634e487b7160e01b845260228352602484fd5b93607f16936101e5565b839150346101075782600319360112610107576102ba610a2f565b6001600160a01b038116808452600160209081528585203386529052848420546024359390919060001983106102f9575b856102f68686610a99565b80f35b84831061036157811561034a573315610333575084959184916102f6965260016020528287203388526020520390852055839285806102eb565b8651634a1406b160e11b8152908101869052602490fd5b865163e602df0560e01b8152908101869052602490fd5b905061037f848751938493637dc7a0d960e11b855233908501610b2a565b0390fd5b5050346101075760203660031901126101075760209181906001600160a01b036103ab610a2f565b16815280845220549051908152f35b505034610107576020366003190112610107579081906001600160a01b036103e0610a2f565b16815260066020522060ff6001825492015416825191825215156020820152f35b9190503461054e578260031936011261054e577f000000000000000000000000000000000000000000000000000000000000000042106105415733835260066020528083206001810160ff81541661053257815415610523573385528460205261046e8386205433610a99565b805460ff1916600117905554815163a9059cbb60e01b815233848201526024810191909152602081604481877f00000000000000000000000000000000000000000000000000000000000000006001600160a01b03165af19081156105195784916104eb575b50156104de578280f35b5163022e258160e11b8152fd5b61050c915060203d8111610512575b6105048183610a60565b810190610b6b565b386104d4565b503d6104fa565b82513d86823e3d90fd5b505051633a6a68b160e01b8152fd5b505051630c8d9eab60e31b8152fd5b5163111c440960e01b8152fd5b8280fd5b839034610107576020366003190112610107576102f6903533610a99565b5050346101075781600319360112610107576020905160128152f35b8284346101b65760603660031901126101b657506105a8610a2f565b506101a8610a4a565b8383346101075780600319360112610107576105cb610a2f565b60243591906001600160a01b037f000000000000000000000000000000000000000000000000000000000000000081169133839003610770578415610760578351926323b872dd60e01b84528784015230602484015284604484015260209283816064818a877f0000000000000000000000000000000000000000000000000000000000000000165af1908115610756578791610739575b501561072957169182156107135761067d84600254610b48565b6002558285528482528085208481540190558285600080516020610b84833981519152848451888152a38051918282016001600160401b03811184821017610700579160066106fa96959492600194835286845280840195898752895252862090518155019051151560ff80198354169116179055600554610b48565b60055580f35b634e487b7160e01b875260418852602487fd5b5163ec442f0560e01b8152808601859052602490fd5b835163022e258160e11b81528790fd5b6107509150843d8611610512576105048183610a60565b88610663565b85513d89823e3d90fd5b835163162908e360e11b81528790fd5b835162461bcd60e51b8152602081890152602360248201527f43616c6c6572206973206e6f7420746865206f66666572696e6720636f6e74726044820152621858dd60ea1b6064820152608490fd5b505034610107578160031936011261010757517f00000000000000000000000000000000000000000000000000000000000000006001600160a01b03168152602090f35b5050346101075781600319360112610107576020906002549051908152f35b90503461054e578160031936011261054e5761083c610a2f565b6024359033156108b5576001600160a01b031691821561089e57508083602095338152600187528181208582528752205582519081527f8c5be1e5ebec7d5bd14f71427d1e84f3dd0314c0f7b2291e5b200ac8c7c3b925843392a35160018152f35b8351634a1406b160e11b8152908101859052602490fd5b835163e602df0560e01b8152808401869052602490fd5b9190503461054e578260031936011261054e57805191836003549060019082821c928281168015610999575b602095868610821461098657508488529081156109645750600114610929575b61021f8686610215828b0383610a60565b929550600383528583205b828410610951575050508261021f94610215928201019438610918565b8054868501880152928601928101610934565b60ff191687860152505050151560051b83010192506102158261021f38610918565b634e487b7160e01b845260229052602483fd5b93607f16936108f8565b8490346101075781600319360112610107577f00000000000000000000000000000000000000000000000000000000000000006001600160a01b03168152602090f35b6020808252825181830181905290939260005b828110610a1b57505060409293506000838284010152601f8019910116010190565b8181018601518482016040015285016109f9565b600435906001600160a01b0382168203610a4557565b600080fd5b602435906001600160a01b0382168203610a4557565b601f909101601f19168101906001600160401b03821190821017610a8357604052565b634e487b7160e01b600052604160045260246000fd5b906001600160a01b038216908115610b115760009282845283602052604084205490828210610af4575081600080516020610b84833981519152926020928587528684520360408620558060025403600255604051908152a3565b61037f8360405193849363391434e360e21b855260048501610b2a565b604051634b637e8f60e11b815260006004820152602490fd5b604091949392606082019560018060a01b0316825260208201520152565b91908201809211610b5557565b634e487b7160e01b600052601160045260246000fd5b90816020910312610a4557518015158103610a45579056feddf252ad1be2c89b69c2b068fc378daa952ba7f163c4a11628f55a4df523b3efa264697066735822122072aff8ac0870e1ad92423de4f8b5732447afe3f3a5ddb531c39cb8bff70db26764736f6c63430008140033",
  "linkReferences": {},
  "deployedLinkReferences": {}
}