{
  "_format": "hh-sol-artifact-1",
  "contractName": "Offering",
  "sourceName": "contracts/Offering.sol",
  "abi": [
    {
      "inputs": [],
      "name": "AccessControlBadConfirmation",
      "type": "error"
    },
    {
      "inputs": [
        {
          "internalType": "address",
          "name": "account",
          "type": "address"
        },
        {
          "internalType": "bytes32",
          "name": "neededRole",
          "type": "bytes32"
        }
      ],
      "name": "AccessControlUnauthorizedAccount",
      "type": "error"
    },
    {
      "inputs": [],
      "name": "EnforcedPause",
      "type": "error"
    },
    {
      "inputs": [],
      "name": "ExpectedPause",
      "type": "error"
    },
    {
      "inputs": [],
      "name": "ReentrancyGuardReentrantCall",
      "type": "error"
    },
    {
      "anonymous": false,
      "inputs": [
        {
          "indexed": true,
          "internalType": "address",
          "name": "investor",
          "type": "address"
        },
        {
          "indexed": false,
          "internalType": "uint256",
          "name": "amount",
          "type": "uint256"
        }
      ],
      "name": "Claimed",
      "type": "event"
    },
    {
      "anonymous": false,
      "inputs": [
        {
          "indexed": true,
          "internalType": "address",
          "name": "investor",
          "type": "address"
        },
        {
          "indexed": false,
          "internalType": "address",
          "name": "paymentToken",
          "type": "address"
        },
        {
          "indexed": false,
          "internalType": "uint256",
          "name": "paidAmount",
          "type": "uint256"
        },
        {
          "indexed": false,
          "internalType": "uint256",
          "name": "tokensReceived",
          "type": "uint256"
        }
      ],
      "name": "Invested",
      "type": "event"
    },
    {
      "anonymous": false,
      "inputs": [
        {
          "indexed": true,
          "internalType": "address",
          "name": "token",
          "type": "address"
        },
        {
          "indexed": false,
          "internalType": "address",
          "name": "oracle",
          "type": "address"
        }
      ],
      "name": "OracleSet",
      "type": "event"
    },
    {
      "anonymous": false,
      "inputs": [
        {
          "indexed": false,
          "internalType": "address",
          "name": "account",
          "type": "address"
        }
      ],
      "name": "Paused",
      "type": "event"
    },
    {
      "anonymous": false,
      "inputs": [
        {
          "indexed": true,
          "internalType": "address",
          "name": "token",
          "type": "address"
        },
        {
          "indexed": false,
          "internalType": "bool",
          "name": "status",
          "type": "bool"
        }
      ],
      "name": "PaymentTokenWhitelisted",
      "type": "event"
    },
    {
      "anonymous": false,
      "inputs": [
        {
          "indexed": true,
          "internalType": "address",
          "name": "token",
          "type": "address"
        },
        {
          "indexed": false,
          "internalType": "uint256",
          "name": "amount",
          "type": "uint256"
        },
        {
          "indexed": true,
          "internalType": "address",
          "name": "to",
          "type": "address"
        }
      ],
      "name": "Rescue",
      "type": "event"
    },
    {
      "anonymous": false,
      "inputs": [
        {
          "indexed": true,
          "internalType": "bytes32",
          "name": "role",
          "type": "bytes32"
        },
        {
          "indexed": true,
          "internalType": "bytes32",
          "name": "previousAdminRole",
          "type": "bytes32"
        },
        {
          "indexed": true,
          "internalType": "bytes32",
          "name": "newAdminRole",
          "type": "bytes32"
        }
      ],
      "name": "RoleAdminChanged",
      "type": "event"
    },
    {
      "anonymous": false,
      "inputs": [
        {
          "indexed": true,
          "internalType": "bytes32",
          "name": "role",
          "type": "bytes32"
        },
        {
          "indexed": true,
          "internalType": "address",
          "name": "account",
          "type": "address"
        },
        {
          "indexed": true,
          "internalType": "address",
          "name": "sender",
          "type": "address"
        }
      ],
      "name": "RoleGranted",
      "type": "event"
    },
    {
      "anonymous": false,
      "inputs": [
        {
          "indexed": true,
          "internalType": "bytes32",
          "name": "role",
          "type": "bytes32"
        },
        {
          "indexed": true,
          "internalType": "address",
          "name": "account",
          "type": "address"
        },
        {
          "indexed": true,
          "internalType": "address",
          "name": "sender",
          "type": "address"
        }
      ],
      "name": "RoleRevoked",
      "type": "event"
    },
    {
      "anonymous": false,
      "inputs": [
        {
          "indexed": false,
          "internalType": "uint256",
          "name": "totalRaised",
          "type": "uint256"
        }
      ],
      "name": "SaleClosed",
      "type": "event"
    },
    {
      "anonymous": false,
      "inputs": [
        {
          "indexed": false,
          "internalType": "uint256",
          "name": "newPrice",
          "type": "uint256"
        }
      ],
      "name": "TokenPriceUpdated",
      "type": "event"
    },
    {
      "anonymous": false,
      "inputs": [
        {
          "indexed": true,
          "internalType": "address",
          "name": "to",
          "type": "address"
        },
        {
          "indexed": false,
          "internalType": "uint256",
          "name": "amount",
          "type": "uint256"
        }
      ],
      "name": "UnclaimedTokensReclaimed",
      "type": "event"
    },
    {
      "anonymous": false,
      "inputs": [
        {
          "indexed": false,
          "internalType": "address",
          "name": "account",
          "type": "address"
        }
      ],
      "name": "Unpaused",
      "type": "event"
    },
    {
      "stateMutability": "payable",
      "type": "fallback"
    },
    {
      "inputs": [],
      "name": "DEFAULT_ADMIN_ROLE",
      "outputs": [
        {
          "internalType": "bytes32",
          "name": "",
          "type": "bytes32"
        }
      ],
      "stateMutability": "view",
      "type": "function"
    },
    {
      "inputs": [],
      "name": "TOKEN_OWNER_ROLE",
      "outputs": [
        {
          "internalType": "bytes32",
          "name": "",
          "type": "bytes32"
        }
      ],
      "stateMutability": "view",
      "type": "function"
    },
    {
      "inputs": [],
      "name": "apyEnabled",
      "outputs": [
        {
          "internalType": "bool",
          "name": "",
          "type": "bool"
        }
      ],
      "stateMutability": "view",
      "type": "function"
    },
    {
      "inputs": [],
      "name": "autoTransfer",
      "outputs": [
        {
          "internalType": "bool",
          "name": "",
          "type": "bool"
        }
      ],
      "stateMutability": "view",
      "type": "function"
    },
    {
      "inputs": [
        {
          "internalType": "address",
          "name": "_investor",
          "type": "address"
        }
      ],
      "name": "claimTokens",
      "outputs": [
        {
          "internalType": "uint256",
          "name": "",
          "type": "uint256"
        }
      ],
      "stateMutability": "nonpayable",
      "type": "function"
    },
    {
      "inputs": [],
      "name": "defaultPayoutFrequency",
      "outputs": [
        {
          "internalType": "enum IWRAPEDTOKEN.PayoutFrequency",
          "name": "",
          "type": "uint8"
        }
      ],
      "stateMutability": "view",
      "type": "function"
    },
    {
      "inputs": [],
      "name": "endDate",
      "outputs": [
        {
          "internalType": "uint256",
          "name": "",
          "type": "uint256"
        }
      ],
      "stateMutability": "view",
      "type": "function"
    },
    {
      "inputs": [],
      "name": "escrowAddress",
      "outputs": [
        {
          "internalType": "address",
          "name": "",
          "type": "address"
        }
      ],
      "stateMutability": "view",
      "type": "function"
    },
    {
      "inputs": [],
      "name": "fundraisingCap",
      "outputs": [
        {
          "internalType": "uint256",
          "name": "",
          "type": "uint256"
        }
      ],
      "stateMutability": "view",
      "type": "function"
    },
    {
      "inputs": [
        {
          "internalType": "bytes32",
          "name": "role",
          "type": "bytes32"
        }
      ],
      "name": "getRoleAdmin",
      "outputs": [
        {
          "internalType": "bytes32",
          "name": "",
          "type": "bytes32"
        }
      ],
      "stateMutability": "view",
      "type": "function"
    },
    {
      "inputs": [
        {
          "internalType": "bytes32",
          "name": "role",
          "type": "bytes32"
        },
        {
          "internalType": "address",
          "name": "account",
          "type": "address"
        }
      ],
      "name": "grantRole",
      "outputs": [],
      "stateMutability": "nonpayable",
      "type": "function"
    },
    {
      "inputs": [
        {
          "internalType": "address",
          "name": "newOwner",
          "type": "address"
        }
      ],
      "name": "grantTokenOwner",
      "outputs": [],
      "stateMutability": "nonpayable",
      "type": "function"
    },
    {
      "inputs": [
        {
          "internalType": "bytes32",
          "name": "role",
          "type": "bytes32"
        },
        {
          "internalType": "address",
          "name": "account",
          "type": "address"
        }
      ],
      "name": "hasRole",
      "outputs": [
        {
          "internalType": "bool",
          "name": "",
          "type": "bool"
        }
      ],
      "stateMutability": "view",
      "type": "function"
    },
    {
      "inputs": [
        {
          "components": [
            {
              "internalType": "address",
              "name": "saleToken",
              "type": "address"
            },
            {
              "internalType": "uint256",
              "name": "minInvestment",
              "type": "uint256"
            },
            {
              "internalType": "uint256",
              "name": "maxInvestment",
              "type": "uint256"
            },
            {
              "internalType": "uint256",
              "name": "startDate",
              "type": "uint256"
            },
            {
              "internalType": "uint256",
              "name": "endDate",
              "type": "uint256"
            },
            {
              "internalType": "uint256",
              "name": "maturityDate",
              "type": "uint256"
            },
            {
              "internalType": "bool",
              "name": "autoTransfer",
              "type": "bool"
            },
            {
              "internalType": "uint256",
              "name": "fundraisingCap",
              "type": "uint256"
            },
            {
              "internalType": "uint256",
              "name": "tokenPrice",
              "type": "uint256"
            },
            {
              "internalType": "address",
              "name": "tokenOwner",
              "type": "address"
            },
            {
              "internalType": "address",
              "name": "escrowAddress",
              "type": "address"
            },
            {
              "internalType": "bool",
              "name": "apyEnabled",
              "type": "bool"
            },
            {
              "internalType": "address",
              "name": "wrappedTokenAddress",
              "type": "address"
            },
            {
              "internalType": "address",
              "name": "investmentManager",
              "type": "address"
            },
            {
              "internalType": "address",
              "name": "payoutTokenAddress",
              "type": "address"
            },
            {
              "internalType": "uint256",
              "name": "payoutRate",
              "type": "uint256"
            },
            {
              "internalType": "enum IWRAPEDTOKEN.PayoutFrequency",
              "name": "defaultPayoutFrequency",
              "type": "uint8"
            }
          ],
          "internalType": "struct InitConfig",
          "name": "config",
          "type": "tuple"
        }
      ],
      "name": "initialize",
      "outputs": [],
      "stateMutability": "nonpayable",
      "type": "function"
    },
    {
      "inputs": [
        {
          "internalType": "address",
          "name": "paymentToken",
          "type": "address"
        },
        {
          "internalType": "address",
          "name": "investor",
          "type": "address"
        },
        {
          "internalType": "uint256",
          "name": "paymentAmount",
          "type": "uint256"
        }
      ],
      "name": "invest",
      "outputs": [
        {
          "internalType": "uint256",
          "name": "",
          "type": "uint256"
        }
      ],
      "stateMutability": "payable",
      "type": "function"
    },
    {
      "inputs": [],
      "name": "investmentManager",
      "outputs": [
        {
          "internalType": "address",
          "name": "",
          "type": "address"
        }
      ],
      "stateMutability": "view",
      "type": "function"
    },
    {
      "inputs": [],
      "name": "isSaleClosed",
      "outputs": [
        {
          "internalType": "bool",
          "name": "",
          "type": "bool"
        }
      ],
      "stateMutability": "view",
      "type": "function"
    },
    {
      "inputs": [],
      "name": "maturityDate",
      "outputs": [
        {
          "internalType": "uint256",
          "name": "",
          "type": "uint256"
        }
      ],
      "stateMutability": "view",
      "type": "function"
    },
    {
      "inputs": [],
      "name": "maxInvestment",
      "outputs": [
        {
          "internalType": "uint256",
          "name": "",
          "type": "uint256"
        }
      ],
      "stateMutability": "view",
      "type": "function"
    },
    {
      "inputs": [],
      "name": "minInvestment",
      "outputs": [
        {
          "internalType": "uint256",
          "name": "",
          "type": "uint256"
        }
      ],
      "stateMutability": "view",
      "type": "function"
    },
    {
      "inputs": [],
      "name": "pause",
      "outputs": [],
      "stateMutability": "nonpayable",
      "type": "function"
    },
    {
      "inputs": [],
      "name": "paused",
      "outputs": [
        {
          "internalType": "bool",
          "name": "",
          "type": "bool"
        }
      ],
      "stateMutability": "view",
      "type": "function"
    },
    {
      "inputs": [],
      "name": "payoutRate",
      "outputs": [
        {
          "internalType": "uint256",
          "name": "",
          "type": "uint256"
        }
      ],
      "stateMutability": "view",
      "type": "function"
    },
    {
      "inputs": [],
      "name": "payoutTokenAddress",
      "outputs": [
        {
          "internalType": "address",
          "name": "",
          "type": "address"
        }
      ],
      "stateMutability": "view",
      "type": "function"
    },
    {
      "inputs": [
        {
          "internalType": "address",
          "name": "",
          "type": "address"
        }
      ],
      "name": "pendingTokens",
      "outputs": [
        {
          "internalType": "uint256",
          "name": "",
          "type": "uint256"
        }
      ],
      "stateMutability": "view",
      "type": "function"
    },
    {
      "inputs": [
        {
          "internalType": "address",
          "name": "to",
          "type": "address"
        }
      ],
      "name": "reclaimUnclaimedTokens",
      "outputs": [],
      "stateMutability": "nonpayable",
      "type": "function"
    },
    {
      "inputs": [
        {
          "internalType": "address",
          "name": "token",
          "type": "address"
        }
      ],
      "name": "removeTokenOracle",
      "outputs": [],
      "stateMutability": "nonpayable",
      "type": "function"
    },
    {
      "inputs": [
        {
          "internalType": "bytes32",
          "name": "role",
          "type": "bytes32"
        },
        {
          "internalType": "address",
          "name": "callerConfirmation",
          "type": "address"
        }
      ],
      "name": "renounceRole",
      "outputs": [],
      "stateMutability": "nonpayable",
      "type": "function"
    },
    {
      "inputs": [
        {
          "internalType": "address",
          "name": "token",
          "type": "address"
        },
        {
          "internalType": "uint256",
          "name": "amount",
          "type": "uint256"
        },
        {
          "internalType": "address",
          "name": "to",
          "type": "address"
        }
      ],
      "name": "rescueTokens",
      "outputs": [],
      "stateMutability": "nonpayable",
      "type": "function"
    },
    {
      "inputs": [
        {
          "internalType": "bytes32",
          "name": "role",
          "type": "bytes32"
        },
        {
          "internalType": "address",
          "name": "account",
          "type": "address"
        }
      ],
      "name": "revokeRole",
      "outputs": [],
      "stateMutability": "nonpayable",
      "type": "function"
    },
    {
      "inputs": [
        {
          "internalType": "address",
          "name": "owner",
          "type": "address"
        }
      ],
      "name": "revokeTokenOwner",
      "outputs": [],
      "stateMutability": "nonpayable",
      "type": "function"
    },
    {
      "inputs": [],
      "name": "saleToken",
      "outputs": [
        {
          "internalType": "contract IERC20",
          "name": "",
          "type": "address"
        }
      ],
      "stateMutability": "view",
      "type": "function"
    },
    {
      "inputs": [
        {
          "internalType": "uint256",
          "name": "_endDate",
          "type": "uint256"
        }
      ],
      "name": "setEndDate",
      "outputs": [],
      "stateMutability": "nonpayable",
      "type": "function"
    },
    {
      "inputs": [
        {
          "internalType": "uint256",
          "name": "_minInvestment",
          "type": "uint256"
        },
        {
          "internalType": "uint256",
          "name": "_maxInvestment",
          "type": "uint256"
        }
      ],
      "name": "setInvestmentLimits",
      "outputs": [],
      "stateMutability": "nonpayable",
      "type": "function"
    },
    {
      "inputs": [
        {
          "internalType": "address",
          "name": "token",
          "type": "address"
        },
        {
          "internalType": "address",
          "name": "oracle",
          "type": "address"
        }
      ],
      "name": "setTokenOracle",
      "outputs": [],
      "stateMutability": "nonpayable",
      "type": "function"
    },
    {
      "inputs": [
        {
          "internalType": "uint256",
          "name": "newPrice",
          "type": "uint256"
        }
      ],
      "name": "setTokenPrice",
      "outputs": [],
      "stateMutability": "nonpayable",
      "type": "function"
    },
    {
      "inputs": [
        {
          "internalType": "address",
          "name": "token",
          "type": "address"
        },
        {
          "internalType": "bool",
          "name": "status",
          "type": "bool"
        }
      ],
      "name": "setWhitelistedPaymentToken",
      "outputs": [],
      "stateMutability": "nonpayable",
      "type": "function"
    },
    {
      "inputs": [],
      "name": "startDate",
      "outputs": [
        {
          "internalType": "uint256",
          "name": "",
          "type": "uint256"
        }
      ],
      "stateMutability": "view",
      "type": "function"
    },
    {
      "inputs": [
        {
          "internalType": "bytes4",
          "name": "interfaceId",
          "type": "bytes4"
        }
      ],
      "name": "supportsInterface",
      "outputs": [
        {
          "internalType": "bool",
          "name": "",
          "type": "bool"
        }
      ],
      "stateMutability": "view",
      "type": "function"
    },
    {
      "inputs": [
        {
          "internalType": "address",
          "name": "",
          "type": "address"
        }
      ],
      "name": "tokenOracles",
      "outputs": [
        {
          "internalType": "address",
          "name": "",
          "type": "address"
        }
      ],
      "stateMutability": "view",
      "type": "function"
    },
    {
      "inputs": [],
      "name": "tokenPrice",
      "outputs": [
        {
          "internalType": "uint256",
          "name": "",
          "type": "uint256"
        }
      ],
      "stateMutability": "view",
      "type": "function"
    },
    {
      "inputs": [
        {
          "internalType": "address",
          "name": "",
          "type": "address"
        }
      ],
      "name": "totalInvested",
      "outputs": [
        {
          "internalType": "uint256",
          "name": "",
          "type": "uint256"
        }
      ],
      "stateMutability": "view",
      "type": "function"
    },
    {
      "inputs": [],
      "name": "totalPendingTokens",
      "outputs": [
        {
          "internalType": "uint256",
          "name": "",
          "type": "uint256"
        }
      ],
      "stateMutability": "view",
      "type": "function"
    },
    {
      "inputs": [],
      "name": "totalRaised",
      "outputs": [
        {
          "internalType": "uint256",
          "name": "",
          "type": "uint256"
        }
      ],
      "stateMutability": "view",
      "type": "function"
    },
    {
      "inputs": [],
      "name": "treasury",
      "outputs": [
        {
          "internalType": "address",
          "name": "",
          "type": "address"
        }
      ],
      "stateMutability": "view",
      "type": "function"
    },
    {
      "inputs": [],
      "name": "unpause",
      "outputs": [],
      "stateMutability": "nonpayable",
      "type": "function"
    },
    {
      "inputs": [
        {
          "internalType": "address",
          "name": "",
          "type": "address"
        }
      ],
      "name": "whitelistedPaymentTokens",
      "outputs": [
        {
          "internalType": "bool",
          "name": "",
          "type": "bool"
        }
      ],
      "stateMutability": "view",
      "type": "function"
    },
    {
      "inputs": [],
      "name": "wrappedTokenAddress",
      "outputs": [
        {
          "internalType": "address",
          "name": "",
          "type": "address"
        }
      ],
      "stateMutability": "view",
      "type": "function"
    },
    {
      "stateMutability": "payable",
      "type": "receive"
    }
  ],
  "bytecode": "0x6080806040523461001b576001600255612d9e90816100218239f35b600080fdfe6080806040526004361015610094575b5036156100535760405162461bcd60e51b815260206004820152601560248201527411985b1b189858dac81b9bdd081858d8d95c1d1959605a1b6044820152606490fd5b60405162461bcd60e51b8152602060048201526019602482015278111a5c9958dd081315535250481b9bdd081858d8d95c1d1959603a1b6044820152606490fd5b600090813560e01c9081622e1316146126f95750806301ffc9a7146126a25780630b97bc86146126845780630d342cab146126615780630d5defa41461263857806311e72114146120295780631309b32414611faa5780631e1a268b14611f87578063248a9ca314611f5b5780632b4353f214611f3d5780632f2ff15d14611f0057806336568abe14611eb85780633784f00014611dad5780633e64620814611d805780633f4ba83a14611d095780634b31bb1014611ce05780634fff540214611cba5780635c975abb14611c975780635cc0483814611c6e57806361d027b314611c41578063653ac4221461115d5780636a61e5fc14611104578063764467cc1461104f57806377d392f014610e175780637ff9b59614610df95780638456cb5914610d9357806388e32fc214610ce05780638a18511314610cb75780638ac2c68014610c995780638cd0593314610c7157806390838e0914610c3857806391d1485414610bed578063a217fddf14610bd1578063a6527f3914610b93578063b13ef13814610b55578063b37fd1901461082b578063b96627971461080d578063bbcc0a06146107ef578063bd492432146107b3578063c031a66f1461077a578063c24a0f8b1461075c578063c5c4744c1461073e578063d547741f146106fd578063d59624b4146106df578063df695abb146106a0578063df8de3e71461030c578063e985e367146102e35763fb903b1d0361000f57346102e05760403660031901126102e0576024356004356102cb6127f6565b6102d782821115612a7b565b60045560055580f35b80fd5b50346102e057806003193601126102e0576003546040516001600160a01b039091168152602090f35b50346102e057602090816003193601126102e057610328612761565b610330612bc3565b610338612abe565b600e546001600160a01b0392908316330361064657600854421061060a57828216918282526015855260408220549384156105d0576024868260035416604051928380926370a0823160e01b82523060048301525afa80156104ea578690859061059a575b6103a992501015612b1f565b838352601586528260408120556103c285600c54612c20565b600c55858560ff600d5460081c166000146104f557906104079183600354168487600d546040519687958694859363095ea7b360e01b855260101c1660048401612b7e565b03925af180156104ea576104bd575b50600d5460101c1660ff6011541691813b156104b957918391868361045295604051968795869485936348e8a94960e01b855260048501612b99565b03925af180156104ae5761049a575b50505b7fd8138f8a3f377c5259ca548e70e4c2de94f129f5a11036a15b69513cba2b426a83604051848152a26001600255604051908152f35b6104a48291612715565b6102e05780610461565b6040513d84823e3d90fd5b8380fd5b6104dc90873d89116104e3575b6104d4818361273e565b810190612b66565b5038610416565b503d6104ca565b6040513d86823e3d90fd5b90919261051e9360035416908560405180968195829463a9059cbb60e01b845260048401612b7e565b03925af191821561058e5791610571575b506104645760405162461bcd60e51b8152600481018490526015602482015274151bdad95b881d1c985b9cd9995c8819985a5b1959605a1b6044820152606490fd5b6105889150843d86116104e3576104d4818361273e565b3861052f565b604051903d90823e3d90fd5b50508681813d83116105c9575b6105b1818361273e565b810103126105c457856103a9915161039d565b600080fd5b503d6105a7565b60405162461bcd60e51b81526004810187905260126024820152714e6f20746f6b656e7320746f20636c61696d60701b6044820152606490fd5b60405162461bcd60e51b815260048101859052601460248201527313585d1d5c9a5d1e481b9bdd081c995858da195960621b6044820152606490fd5b60405162461bcd60e51b815260206004820152602c60248201527f43616c6c6572206973206e6f742074686520696e766573746d656e744d616e6160448201526b19d95c8818dbdb9d1c9858dd60a21b6064820152608490fd5b50346102e05760203660031901126102e05760209060ff906040906001600160a01b036106cb612761565b168152601484522054166040519015158152f35b50346102e057806003193601126102e0576020600854604051908152f35b50346102e05760403660031901126102e05761073a60043561071d612777565b9080845283602052610735600160408620015461282e565b612a18565b5080f35b50346102e057806003193601126102e0576020600b54604051908152f35b50346102e057806003193601126102e0576020600754604051908152f35b50346102e05760203660031901126102e0576020906040906001600160a01b036107a2612761565b168152601583522054604051908152f35b50346102e05760203660031901126102e0576020906001600160a01b0390604090826107dd612761565b16815260178452205416604051908152f35b50346102e057806003193601126102e0576020600c54604051908152f35b50346102e057806003193601126102e0576020600a54604051908152f35b50346102e05760603660031901126102e057610845612761565b6001600160a01b0360448035828116936024803593909290918682036105c45761086d6127b0565b610875612bc3565b8615610b1e578516948561097a5750834710610944578680808681945af13d1561093f573d6001600160401b03811161092c57604051906108c0601f8201601f19166020018361273e565b81528760203d92013e5b156108f35750506020600080516020612ce9833981519152915b604051908152a3600160025580f35b90721315535250481c995cd8dd594819985a5b1959606a1b60649260136040519362461bcd60e51b855260206004860152840152820152fd5b634e487b7160e01b885260416004528388fd5b6108ca565b60405162461bcd60e51b8152602060048201526010818501526f4e6f7420656e6f756768204c554d494160801b81840152606490fd5b600393919354168514610ae2576040516370a0823160e01b815230600482015260209390848184818a5afa8015610ad75786918a91610aa6575b5010610a6f5783856109db92604051938492839263a9059cbb60e01b845260048401612b7e565b03818b8a5af1908115610a64578891610a47575b5015610a0f575050506020600080516020612ce9833981519152916108e4565b60649291601372115490cc8c081c995cd8dd594819985a5b1959606a1b926040519462461bcd60e51b86526004860152840152820152fd5b610a5e9150843d86116104e3576104d4818361273e565b386109ef565b6040513d8a823e3d90fd5b60405162461bcd60e51b815260048101859052601181840152704e6f7420656e6f75676820746f6b656e7360781b81850152606490fd5b809250868092503d8311610ad0575b610abf818361273e565b810103126105c457859051386109b4565b503d610ab5565b6040513d8b823e3d90fd5b7621b0b73737ba103932b9b1bab29039b0b632aa37b5b2b760491b60649260176040519362461bcd60e51b855260206004860152840152820152fd5b60405162461bcd60e51b81526020600482015260118186015270125b9d985b1a59081c9958da5c1a595b9d607a1b81850152606490fd5b50346102e05760203660031901126102e05761073a610b72612761565b610b7a6127b0565b610b8e6001600160a01b0382161515612c2d565b6128c0565b50346102e05760203660031901126102e05761073a610bb0612761565b610bb86127b0565b610bcc6001600160a01b0382161515612c2d565b6129a3565b50346102e057806003193601126102e057602090604051908152f35b50346102e05760403660031901126102e0576040610c09612777565b91600435815280602052209060018060a01b0316600052602052602060ff604060002054166040519015158152f35b50346102e05760203660031901126102e0576020906040906001600160a01b03610c60612761565b168152601683522054604051908152f35b50346102e057806003193601126102e057602060ff60115416610c97604051809261278d565bf35b50346102e057806003193601126102e0576020600454604051908152f35b50346102e057806003193601126102e0576020604051600080516020612d098339815191528152f35b50346102e05760203660031901126102e057610cfa612761565b610d026127b0565b6001600160a01b039081168083526017602052604083205490911615610d585780825260176020908152604080842080546001600160a01b031916905551838152600080516020612cc98339815191529190a280f35b60405162461bcd60e51b81526020600482015260136024820152724e6f206f7261636c6520746f2072656d6f766560681b6044820152606490fd5b50346102e057806003193601126102e057610dac6127b0565b610db4612abe565b600160ff198154161760015560206040513381527f62e78cea01bee320cd4e420270b5ea74000d11b0c9f74754ebdbfc544b05a258918291a16020604051338152a180f35b50346102e057806003193601126102e0576020601354604051908152f35b50346102e05760208060031936011261104b57610e32612761565b90610e3b6127f6565b610e43612bc3565b600854421115611019576001600160a01b0382811692908315610fe257600354166040516370a0823160e01b81523060048201528381602481855afa8015610fd7578690610fa8575b610e9a9150600c5490612c20565b918215610f6d5782610ec59285928860405180968195829463a9059cbb60e01b845260048401612b7e565b03925af1908115610f62578591610f45575b5015610f0f57907ffcbf6553b2cfc097c2301f1c071469a8839b462e7287e3692f238ccfc6b9208f91604051908152a2600160025580f35b60405162461bcd60e51b815260048101839052600e60248201526d149958db185a5b4819985a5b195960921b6044820152606490fd5b610f5c9150833d85116104e3576104d4818361273e565b38610ed7565b6040513d87823e3d90fd5b60405162461bcd60e51b81526004810185905260136024820152724e6f20756e636c61696d656420746f6b656e7360681b6044820152606490fd5b508381813d8311610fd0575b610fbe818361273e565b810103126105c457610e9a9051610e8c565b503d610fb4565b6040513d88823e3d90fd5b60405162461bcd60e51b815260048101849052600f60248201526e496e76616c6964206164647265737360881b6044820152606490fd5b6064906040519062461bcd60e51b82526004820152600b60248201526a139bdd081b585d1d5c995960aa1b6044820152fd5b5080fd5b50346102e05760403660031901126102e057611069612761565b611071612777565b6110796127b0565b6001600160a01b039081169182156110c6571680835260176020908152604080852080546001600160a01b03191685179055519283529091600080516020612cc98339815191529190a280f35b60405162461bcd60e51b8152602060048201526016602482015275496e76616c6964206f7261636c65206164647265737360501b6044820152606490fd5b50346102e05760203660031901126102e0577f6b361c807733cc94a3b7bda39c1c94dcc0511e91aa47b0f7f918068e9397689060206004356111446127f6565b61114f811515612be4565b80601355604051908152a180f35b5060603660031901126102e057611172612761565b9061117b612777565b91611184612bc3565b61118c612abe565b600e546001600160a01b03163303610646576001600160a01b03831615611c015760ff600d5416611bcb576006544210611b9357600754421015611b61576001600160a01b03811682526014602052604082205460ff1615611b245760443515611af1576001600160a01b03818116835260176020526040832054168015611abb57604080516315f789a960e21b815291829060049082905afa908115611ab0578391611a62575b50601b0b91611244818413612be4565b6001600160a01b0382166119f2576012925b8060443502906044358204036119de57670de0b6b3a7640000938482029180830486149015171561191d5760ff16604d811161191d57849161129b91600a0a90612aff565b0460045481106119a2576001600160a01b0385168252601660205260408220546112c6908290612adc565b6005541061196457600b54936112dc8286612adc565b600a54106119315780820290828204148215171561191d5760135461130091612aff565b9384156118e1578161131191612adc565b600b556001600160a01b03851682526016602052604082208054909161133691612adc565b905560ff6009541661185f575b6001600160a01b0382166116c4576044353403611685576012546001600160a01b0316803b1561104b5760405163701bb89160e01b81523060048201526001600160a01b03861660248201529082908290604490829034905af180156104ae57908291611671575b50505b60095460ff161561162957600d5460081c60ff161561156e57600354600d5460405163095ea7b360e01b81529160209183916001600160a01b0390811691839187918391611408918c9160109190911c1660048401612b7e565b03925af19081156104ae57829161154f575b50156115195760018060a01b03600d5460101c1660ff60115416813b1561151557611460839283926040519485809481936348e8a94960e01b83528b8d60048501612b99565b03925af180156104ae57611501575b5050600080516020612ca983398151915260606020945b604080516001600160a01b03958616815260443588820152908101869052931692a2600b54600a548110156114c4575b506001600255604051908152f35b827fcb67f20f64495b30f15524c55f90201dd6571d6b5c19dac183d2aeb25315b2dc91600160ff19600d541617600d55604051908152a1386114b6565b61150b8291612715565b6102e0578061146f565b8280fd5b60405162461bcd60e51b815260206004820152600e60248201526d105c1c1c9bdd994819985a5b195960921b6044820152606490fd5b611568915060203d6020116104e3576104d4818361273e565b3861141a565b60035460405163a9059cbb60e01b81529060209082906001600160a01b031681858161159e8a8c60048401612b7e565b03925af191821561058e579161160a575b50156115ce57600080516020612ca98339815191526060602094611486565b60405162461bcd60e51b8152602060048201526014602482015273105d5d1bcb5d1c985b9cd9995c8819985a5b195960621b6044820152606490fd5b611623915060203d6020116104e3576104d4818361273e565b386115af565b60606020946040600080516020612ca98339815191529360018060a01b0383168152601588522061165b868254612adc565b905561166985600c54612adc565b600c55611486565b61167a90612715565b6102e05780386113ab565b60405162461bcd60e51b8152602060048201526017602482015276125b98dbdc9c9958dd081b985d1a5d9948185b5bdd5b9d604a1b6044820152606490fd5b34611810576040516323b872dd60e01b81526001600160a01b038581166004830152306024830152604480359083015260209082906064908290869088165af180156104ae576117f1575b5060125460405163095ea7b360e01b8152906020908290819061174290604435906001600160a01b031660048401612b7e565b0381856001600160a01b0388165af180156104ae576117d2575b506012546001600160a01b0316803b1561104b57604051630ef7c5a760e01b81523060048201526001600160a01b03868116602483015284166044808301919091523560648201529082908290608490829084905af180156104ae576117c3575b506113ae565b6117cc90612715565b386117bd565b6117ea9060203d6020116104e3576104d4818361273e565b503861175c565b6118099060203d6020116104e3576104d4818361273e565b503861170f565b60405162461bcd60e51b815260206004820152602160248201527f446f206e6f742073656e642045544820666f7220746f6b656e207061796d656e6044820152601d60fa1b6064820152608490fd5b6003546040516370a0823160e01b815230600482015290602090829060249082906001600160a01b03165afa80156104ae57849083906118ab575b6118a692501015612b1f565b611343565b50506020813d6020116118d9575b816118c66020938361273e565b8101031261104b57836118a6915161189a565b3d91506118b9565b60405162461bcd60e51b8152602060048201526014602482015273546f6b656e20616d6f756e7420746f6f206c6f7760601b6044820152606490fd5b634e487b7160e01b83526011600452602483fd5b60405162461bcd60e51b815260206004820152600b60248201526a045786365656473206361760ac1b6044820152606490fd5b60405162461bcd60e51b8152602060048201526016602482015275115e18d959591cc81b585e081a5b9d995cdd1b595b9d60521b6044820152606490fd5b60405162461bcd60e51b815260206004820152601460248201527310995b1bddc81b5a5b881a5b9d995cdd1b595b9d60621b6044820152606490fd5b634e487b7160e01b82526011600452602482fd5b60405163313ce56760e01b81526020816004816001600160a01b0387165afa9081156104ae578291611a26575b5092611256565b90506020813d602011611a5a575b81611a416020938361273e565b8101031261104b575160ff8116810361104b5738611a1f565b3d9150611a34565b90506040813d604011611aa8575b81611a7d6040938361273e565b810103126115155780519081601b0b82036104b9576020015163ffffffff8116036115155738611234565b3d9150611a70565b6040513d85823e3d90fd5b60405162461bcd60e51b815260206004820152600e60248201526d13dc9858db19481b9bdd081cd95d60921b6044820152606490fd5b60405162461bcd60e51b815260206004820152600b60248201526a16995c9bc8185b5bdd5b9d60aa1b6044820152606490fd5b60405162461bcd60e51b8152602060048201526015602482015274151bdad95b881b9bdd081dda1a5d195b1a5cdd1959605a1b6044820152606490fd5b60405162461bcd60e51b815260206004820152600a60248201526914d85b1948195b99195960b21b6044820152606490fd5b60405162461bcd60e51b815260206004820152601060248201526f14d85b19481b9bdd081cdd185c9d195960821b6044820152606490fd5b60405162461bcd60e51b815260206004820152600e60248201526d14d85b19481a5cc818db1bdcd95960921b6044820152606490fd5b60405162461bcd60e51b8152602060048201526018602482015277496e76616c696420696e766573746f72206164647265737360401b6044820152606490fd5b50346102e057806003193601126102e05760115460405160109190911c6001600160a01b03168152602090f35b50346102e057806003193601126102e057600f546040516001600160a01b039091168152602090f35b50346102e057806003193601126102e057602060ff600154166040519015158152f35b50346102e057806003193601126102e057602060ff600d5460081c166040519015158152f35b50346102e057806003193601126102e057600e546040516001600160a01b039091168152602090f35b50346102e057806003193601126102e057611d226127b0565b60015460ff811615611d6e5760ff191660015560206040513381527f5db9ee0a495bf2e6ff9c91a7834c1ba4fdd244a5e8aa4e537bd38aeae4b073aa918291a16020604051338152a180f35b604051638dfc202b60e01b8152600490fd5b50346102e057806003193601126102e057600d5460405160109190911c6001600160a01b03168152602090f35b50346102e05760203660031901126102e057600435611dca6127b0565b42811115611e8057600754811115611e3057600854811015611dec5760075580f35b606460405162461bcd60e51b815260206004820152602060248201527f456e642064617465206d757374206265206265666f7265206d617475726974796044820152fd5b60405162461bcd60e51b815260206004820152602260248201527f4e657720656e642064617465206d7573742062652061667465722063757272656044820152611b9d60f21b6064820152608490fd5b60405162461bcd60e51b815260206004820152601060248201526f496e76616c696420656e64206461746560801b6044820152606490fd5b50346102e05760403660031901126102e057611ed2612777565b336001600160a01b03821603611eee5761073a90600435612a18565b60405163334bd91960e11b8152600490fd5b50346102e05760403660031901126102e05761073a600435611f20612777565b9080845283602052611f38600160408620015461282e565b61293c565b50346102e057806003193601126102e0576020601054604051908152f35b50346102e05760203660031901126102e057600160406020926004358152808452200154604051908152f35b50346102e057806003193601126102e057602060ff600d54166040519015158152f35b50346102e05760403660031901126102e057611fc4612761565b602435908115158092036115155760207f91ad45a5ce97c5eee55fa01496772afefc7f0757ed9eac59064e642690509dfb91611ffe6127b0565b6001600160a01b0316808552601482526040808620805460ff191660ff87161790555193845292a280f35b50346102e05761022090816003193601126102e0576040519182016001600160401b0381118382101761262457604052612061612761565b8252602435602083015260443560408301526064356060830152608435608083015260a43560a083015260c435801515810361104b5760c083015260e43560e083015261010435610100830152610124356001600160a01b03811690036102e05761012435610120830152610144356001600160a01b038116810361104b5761014083015261016435151561016435036102e05761016435610160830152610184356001600160a01b03811690036102e057610184356101808301526101a4356001600160a01b03811690036102e0576101a4356101a08301526101c4356001600160a01b038116810361104b576101c08301526101e4356101e083015260036102043510156102e057610204356102008301526011549160ff8360081c166125e95780516001600160a01b0316156125af576101208101516001600160a01b031615612574576101408101516001600160a01b031615612536576101a08101516001600160a01b0316156124e65760e0810151156124a2576101008101511561245e576121f9602082015160408301511015612a7b565b6060810151421161241a576060810151608082015111156123ca576101c08101516001600160a01b031615612386578051600380546001600160a01b03199081166001600160a01b03938416178255602084015160045560408401516005556060840151600655608084015160075560a0840151600890815560c08501516009805460ff9215159290921660ff1992831617905560e0860151600a55610100860151601355610140860151601280548516918716919091179055610160860151600d8054610180890151610100600160b01b031990911692151590941b61ff001691909117601093841b62010000600160b01b03161790556101a0860151600e805485169187169190911790556101c0860151600f80549094169516949094179091556101e084015190556102008301519491908510156123725760ff61235f94951691161760115561234b33612854565b5061012001516001600160a01b03166128c0565b5061010061ff0019601154161760115580f35b634e487b7160e01b84526021600452602484fd5b60405162461bcd60e51b815260206004820152601c60248201527b496e76616c6964207061796f757420746f6b656e206164647265737360201b6044820152606490fd5b60405162461bcd60e51b815260206004820152602260248201527f53746172742064617465206d757374206265206265666f726520656e64206461604482015261746560f01b6064820152608490fd5b606460405162461bcd60e51b815260206004820152602060248201527f53746172742064617465206d75737420626520696e20746865206675747572656044820152fd5b60405162461bcd60e51b815260206004820152601c60248201527b546f6b656e207072696365206d75737420626520706f73697469766560201b6044820152606490fd5b606460405162461bcd60e51b815260206004820152602060248201527f46756e6472616973696e6720636170206d75737420626520706f7369746976656044820152fd5b60405162461bcd60e51b815260206004820152602260248201527f496e76616c696420696e766573746d656e74206d616e61676572206164647265604482015261737360f01b6064820152608490fd5b60405162461bcd60e51b8152602060048201526016602482015275496e76616c696420657363726f77206164647265737360501b6044820152606490fd5b60405162461bcd60e51b815260206004820152601360248201527224b73b30b634b2103a37b5b2b71037bbb732b960691b6044820152606490fd5b60405162461bcd60e51b815260206004820152601260248201527124b73b30b634b21039b0b632903a37b5b2b760711b6044820152606490fd5b60405162461bcd60e51b8152602060048201526013602482015272105b1c9958591e481a5b9a5d1a585b1a5e9959606a1b6044820152606490fd5b634e487b7160e01b82526041600452602482fd5b50346102e057806003193601126102e0576012546040516001600160a01b039091168152602090f35b50346102e057806003193601126102e057602060ff600954166040519015158152f35b50346102e057806003193601126102e0576020600654604051908152f35b50346102e05760203660031901126102e05760043563ffffffff60e01b811680910361104b57602090637965db0b60e01b81149081156126e8575b506040519015158152f35b6301ffc9a760e01b149050826126dd565b90503461104b578160031936011261104b576020906005548152f35b6001600160401b03811161272857604052565b634e487b7160e01b600052604160045260246000fd5b601f909101601f19168101906001600160401b0382119082101761272857604052565b600435906001600160a01b03821682036105c457565b602435906001600160a01b03821682036105c457565b90600382101561279a5752565b634e487b7160e01b600052602160045260246000fd5b336000908152600080516020612d49833981519152602052604081205460ff16156127d85750565b6044906040519063e2517d3f60e01b82523360048301526024820152fd5b336000908152600080516020612c898339815191526020526040902054600080516020612d098339815191529060ff16156127d85750565b80600052600060205260406000203360005260205260ff60406000205416156127d85750565b6001600160a01b03166000818152600080516020612d49833981519152602052604081205490919060ff166128bc57818052816020526040822081835260205260408220600160ff198254161790553391600080516020612c698339815191528180a4600190565b5090565b6001600160a01b03166000818152600080516020612c898339815191526020526040812054909190600080516020612d098339815191529060ff1661293757808352826020526040832082845260205260408320600160ff19825416179055600080516020612c69833981519152339380a4600190565b505090565b9060009180835282602052604083209160018060a01b03169182845260205260ff6040842054161560001461293757808352826020526040832082845260205260408320600160ff19825416179055600080516020612c69833981519152339380a4600190565b6001600160a01b03166000818152600080516020612c898339815191526020526040812054909190600080516020612d098339815191529060ff16156129375780835282602052604083208284526020526040832060ff198154169055600080516020612d29833981519152339380a4600190565b9060009180835282602052604083209160018060a01b03169182845260205260ff6040842054166000146129375780835282602052604083208284526020526040832060ff198154169055600080516020612d29833981519152339380a4600190565b15612a8257565b60405162461bcd60e51b8152602060048201526014602482015273135a5b880f881b585e081a5b9d995cdd1b595b9d60621b6044820152606490fd5b60ff60015416612aca57565b60405163d93c066560e01b8152600490fd5b91908201809211612ae957565b634e487b7160e01b600052601160045260246000fd5b8115612b09570490565b634e487b7160e01b600052601260045260246000fd5b15612b2657565b60405162461bcd60e51b8152602060048201526018602482015277496e73756666696369656e742073616c6520746f6b656e7360401b6044820152606490fd5b908160209103126105c4575180151581036105c45790565b6001600160a01b039091168152602081019190915260400190565b6001600160a01b0390911681526020810191909152606081019291612bc1916040019061278d565b565b6002805414612bd25760028055565b604051633ee5aeb560e01b8152600490fd5b15612beb57565b60405162461bcd60e51b815260206004820152600d60248201526c496e76616c696420707269636560981b6044820152606490fd5b91908203918211612ae957565b15612c3457565b60405162461bcd60e51b815260206004820152600c60248201526b5a65726f206164647265737360a01b6044820152606490fdfe2f8788117e7eff1d82e926ec794901d17c78024a50270940304540a733656f0d7dfc0114fc2b0320947240cbd60a9ffc193468a941c37441e641a928a8c116d593638e6cf18b4f6a839de65df95898221f5d9f7dc54b87d4b31d40297643266ec1d3048301c0d23629a2532c8defa6d68f8e1a0e4157918769e9fb1b2eeb888ed27dd37d941f5a1b76926e48140fdbf50a0c59defb5431a391a1260279eb1c4c35369b3a7bb98c90641a907c2fd643ea781341eba72ccffd47cb018c128c48c3f6391f5c32d9c69d2a47ea670b442974b53935d1edc7fd64eb21e047a839171bad3228b676f7d3cd4284a5443f17f1962b36e491b30a40b2405849e597ba5fb5a26469706673582212200885644bd92a1df99fe0200e3175c84efa61b78f2359cc0bb745dbb11550b0dd64736f6c63430008140033",
  "linkReferences": {},
  "deployedLinkReferences": {}
}