{
  "_format": "hh-sol-artifact-1",
  "contractName": "Offering",
  "sourceName": "contracts/Offering.sol",
  "abi": [
    {
      "inputs": [],
      "name": "AccessControlBadConfirmation",
      "type": "error"
    },
    {
      "inputs": [
        {
          "internalType": "address",
          "name": "account",
          "type": "address"
        },
        {
          "internalType": "bytes32",
          "name": "neededRole",
          "type": "bytes32"
        }
      ],
      "name": "AccessControlUnauthorizedAccount",
      "type": "error"
    },
    {
      "inputs": [],
      "name": "EnforcedPause",
      "type": "error"
    },
    {
      "inputs": [],
      "name": "ExpectedPause",
      "type": "error"
    },
    {
      "inputs": [],
      "name": "ReentrancyGuardReentrantCall",
      "type": "error"
    },
    {
      "anonymous": false,
      "inputs": [
        {
          "indexed": true,
          "internalType": "address",
          "name": "investor",
          "type": "address"
        },
        {
          "indexed": false,
          "internalType": "uint256",
          "name": "amount",
          "type": "uint256"
        }
      ],
      "name": "Claimed",
      "type": "event"
    },
    {
      "anonymous": false,
      "inputs": [
        {
          "indexed": true,
          "internalType": "address",
          "name": "investor",
          "type": "address"
        },
        {
          "indexed": false,
          "internalType": "address",
          "name": "paymentToken",
          "type": "address"
        },
        {
          "indexed": false,
          "internalType": "uint256",
          "name": "paidAmount",
          "type": "uint256"
        },
        {
          "indexed": false,
          "internalType": "uint256",
          "name": "tokensReceived",
          "type": "uint256"
        }
      ],
      "name": "Invested",
      "type": "event"
    },
    {
      "anonymous": false,
      "inputs": [
        {
          "indexed": true,
          "internalType": "address",
          "name": "token",
          "type": "address"
        },
        {
          "indexed": false,
          "internalType": "address",
          "name": "oracle",
          "type": "address"
        }
      ],
      "name": "OracleSet",
      "type": "event"
    },
    {
      "anonymous": false,
      "inputs": [
        {
          "indexed": false,
          "internalType": "address",
          "name": "account",
          "type": "address"
        }
      ],
      "name": "Paused",
      "type": "event"
    },
    {
      "anonymous": false,
      "inputs": [
        {
          "indexed": true,
          "internalType": "address",
          "name": "token",
          "type": "address"
        },
        {
          "indexed": false,
          "internalType": "bool",
          "name": "status",
          "type": "bool"
        }
      ],
      "name": "PaymentTokenWhitelisted",
      "type": "event"
    },
    {
      "anonymous": false,
      "inputs": [
        {
          "indexed": true,
          "internalType": "address",
          "name": "token",
          "type": "address"
        },
        {
          "indexed": false,
          "internalType": "uint256",
          "name": "amount",
          "type": "uint256"
        },
        {
          "indexed": true,
          "internalType": "address",
          "name": "to",
          "type": "address"
        }
      ],
      "name": "Rescue",
      "type": "event"
    },
    {
      "anonymous": false,
      "inputs": [
        {
          "indexed": true,
          "internalType": "bytes32",
          "name": "role",
          "type": "bytes32"
        },
        {
          "indexed": true,
          "internalType": "bytes32",
          "name": "previousAdminRole",
          "type": "bytes32"
        },
        {
          "indexed": true,
          "internalType": "bytes32",
          "name": "newAdminRole",
          "type": "bytes32"
        }
      ],
      "name": "RoleAdminChanged",
      "type": "event"
    },
    {
      "anonymous": false,
      "inputs": [
        {
          "indexed": true,
          "internalType": "bytes32",
          "name": "role",
          "type": "bytes32"
        },
        {
          "indexed": true,
          "internalType": "address",
          "name": "account",
          "type": "address"
        },
        {
          "indexed": true,
          "internalType": "address",
          "name": "sender",
          "type": "address"
        }
      ],
      "name": "RoleGranted",
      "type": "event"
    },
    {
      "anonymous": false,
      "inputs": [
        {
          "indexed": true,
          "internalType": "bytes32",
          "name": "role",
          "type": "bytes32"
        },
        {
          "indexed": true,
          "internalType": "address",
          "name": "account",
          "type": "address"
        },
        {
          "indexed": true,
          "internalType": "address",
          "name": "sender",
          "type": "address"
        }
      ],
      "name": "RoleRevoked",
      "type": "event"
    },
    {
      "anonymous": false,
      "inputs": [
        {
          "indexed": false,
          "internalType": "uint256",
          "name": "totalRaised",
          "type": "uint256"
        }
      ],
      "name": "SaleClosed",
      "type": "event"
    },
    {
      "anonymous": false,
      "inputs": [
        {
          "indexed": false,
          "internalType": "uint256",
          "name": "newPrice",
          "type": "uint256"
        }
      ],
      "name": "TokenPriceUpdated",
      "type": "event"
    },
    {
      "anonymous": false,
      "inputs": [
        {
          "indexed": true,
          "internalType": "address",
          "name": "to",
          "type": "address"
        },
        {
          "indexed": false,
          "internalType": "uint256",
          "name": "amount",
          "type": "uint256"
        }
      ],
      "name": "UnclaimedTokensReclaimed",
      "type": "event"
    },
    {
      "anonymous": false,
      "inputs": [
        {
          "indexed": false,
          "internalType": "address",
          "name": "account",
          "type": "address"
        }
      ],
      "name": "Unpaused",
      "type": "event"
    },
    {
      "stateMutability": "payable",
      "type": "fallback"
    },
    {
      "inputs": [],
      "name": "DEFAULT_ADMIN_ROLE",
      "outputs": [
        {
          "internalType": "bytes32",
          "name": "",
          "type": "bytes32"
        }
      ],
      "stateMutability": "view",
      "type": "function"
    },
    {
      "inputs": [],
      "name": "TOKEN_OWNER_ROLE",
      "outputs": [
        {
          "internalType": "bytes32",
          "name": "",
          "type": "bytes32"
        }
      ],
      "stateMutability": "view",
      "type": "function"
    },
    {
      "inputs": [],
      "name": "apyEnabled",
      "outputs": [
        {
          "internalType": "bool",
          "name": "",
          "type": "bool"
        }
      ],
      "stateMutability": "view",
      "type": "function"
    },
    {
      "inputs": [],
      "name": "autoTransfer",
      "outputs": [
        {
          "internalType": "bool",
          "name": "",
          "type": "bool"
        }
      ],
      "stateMutability": "view",
      "type": "function"
    },
    {
      "inputs": [
        {
          "internalType": "address",
          "name": "_investor",
          "type": "address"
        }
      ],
      "name": "claimTokens",
      "outputs": [
        {
          "internalType": "uint256",
          "name": "",
          "type": "uint256"
        }
      ],
      "stateMutability": "nonpayable",
      "type": "function"
    },
    {
      "inputs": [],
      "name": "defaultPayoutFrequency",
      "outputs": [
        {
          "internalType": "enum IWRAPEDTOKEN.PayoutFrequency",
          "name": "",
          "type": "uint8"
        }
      ],
      "stateMutability": "view",
      "type": "function"
    },
    {
      "inputs": [],
      "name": "endDate",
      "outputs": [
        {
          "internalType": "uint256",
          "name": "",
          "type": "uint256"
        }
      ],
      "stateMutability": "view",
      "type": "function"
    },
    {
      "inputs": [],
      "name": "escrowAddress",
      "outputs": [
        {
          "internalType": "address",
          "name": "",
          "type": "address"
        }
      ],
      "stateMutability": "view",
      "type": "function"
    },
    {
      "inputs": [],
      "name": "fundraisingCap",
      "outputs": [
        {
          "internalType": "uint256",
          "name": "",
          "type": "uint256"
        }
      ],
      "stateMutability": "view",
      "type": "function"
    },
    {
      "inputs": [
        {
          "internalType": "bytes32",
          "name": "role",
          "type": "bytes32"
        }
      ],
      "name": "getRoleAdmin",
      "outputs": [
        {
          "internalType": "bytes32",
          "name": "",
          "type": "bytes32"
        }
      ],
      "stateMutability": "view",
      "type": "function"
    },
    {
      "inputs": [
        {
          "internalType": "bytes32",
          "name": "role",
          "type": "bytes32"
        },
        {
          "internalType": "address",
          "name": "account",
          "type": "address"
        }
      ],
      "name": "grantRole",
      "outputs": [],
      "stateMutability": "nonpayable",
      "type": "function"
    },
    {
      "inputs": [
        {
          "internalType": "address",
          "name": "newOwner",
          "type": "address"
        }
      ],
      "name": "grantTokenOwner",
      "outputs": [],
      "stateMutability": "nonpayable",
      "type": "function"
    },
    {
      "inputs": [
        {
          "internalType": "bytes32",
          "name": "role",
          "type": "bytes32"
        },
        {
          "internalType": "address",
          "name": "account",
          "type": "address"
        }
      ],
      "name": "hasRole",
      "outputs": [
        {
          "internalType": "bool",
          "name": "",
          "type": "bool"
        }
      ],
      "stateMutability": "view",
      "type": "function"
    },
    {
      "inputs": [
        {
          "components": [
            {
              "internalType": "address",
              "name": "saleToken",
              "type": "address"
            },
            {
              "internalType": "uint256",
              "name": "minInvestment",
              "type": "uint256"
            },
            {
              "internalType": "uint256",
              "name": "maxInvestment",
              "type": "uint256"
            },
            {
              "internalType": "uint256",
              "name": "startDate",
              "type": "uint256"
            },
            {
              "internalType": "uint256",
              "name": "endDate",
              "type": "uint256"
            },
            {
              "internalType": "uint256",
              "name": "maturityDate",
              "type": "uint256"
            },
            {
              "internalType": "bool",
              "name": "autoTransfer",
              "type": "bool"
            },
            {
              "internalType": "uint256",
              "name": "fundraisingCap",
              "type": "uint256"
            },
            {
              "internalType": "uint256",
              "name": "tokenPrice",
              "type": "uint256"
            },
            {
              "internalType": "address",
              "name": "tokenOwner",
              "type": "address"
            },
            {
              "internalType": "address",
              "name": "escrowAddress",
              "type": "address"
            },
            {
              "internalType": "bool",
              "name": "apyEnabled",
              "type": "bool"
            },
            {
              "internalType": "address",
              "name": "wrappedTokenAddress",
              "type": "address"
            },
            {
              "internalType": "address",
              "name": "investmentManager",
              "type": "address"
            },
            {
              "internalType": "address",
              "name": "payoutTokenAddress",
              "type": "address"
            },
            {
              "internalType": "uint256",
              "name": "payoutRate",
              "type": "uint256"
            },
            {
              "internalType": "enum IWRAPEDTOKEN.PayoutFrequency",
              "name": "defaultPayoutFrequency",
              "type": "uint8"
            }
          ],
          "internalType": "struct InitConfig",
          "name": "config",
          "type": "tuple"
        }
      ],
      "name": "initialize",
      "outputs": [],
      "stateMutability": "nonpayable",
      "type": "function"
    },
    {
      "inputs": [
        {
          "internalType": "address",
          "name": "paymentToken",
          "type": "address"
        },
        {
          "internalType": "address",
          "name": "investor",
          "type": "address"
        },
        {
          "internalType": "uint256",
          "name": "paymentAmount",
          "type": "uint256"
        }
      ],
      "name": "invest",
      "outputs": [
        {
          "internalType": "uint256",
          "name": "",
          "type": "uint256"
        }
      ],
      "stateMutability": "payable",
      "type": "function"
    },
    {
      "inputs": [],
      "name": "investmentManager",
      "outputs": [
        {
          "internalType": "address",
          "name": "",
          "type": "address"
        }
      ],
      "stateMutability": "view",
      "type": "function"
    },
    {
      "inputs": [],
      "name": "isSaleClosed",
      "outputs": [
        {
          "internalType": "bool",
          "name": "",
          "type": "bool"
        }
      ],
      "stateMutability": "view",
      "type": "function"
    },
    {
      "inputs": [],
      "name": "maturityDate",
      "outputs": [
        {
          "internalType": "uint256",
          "name": "",
          "type": "uint256"
        }
      ],
      "stateMutability": "view",
      "type": "function"
    },
    {
      "inputs": [],
      "name": "maxInvestment",
      "outputs": [
        {
          "internalType": "uint256",
          "name": "",
          "type": "uint256"
        }
      ],
      "stateMutability": "view",
      "type": "function"
    },
    {
      "inputs": [],
      "name": "minInvestment",
      "outputs": [
        {
          "internalType": "uint256",
          "name": "",
          "type": "uint256"
        }
      ],
      "stateMutability": "view",
      "type": "function"
    },
    {
      "inputs": [],
      "name": "pause",
      "outputs": [],
      "stateMutability": "nonpayable",
      "type": "function"
    },
    {
      "inputs": [],
      "name": "paused",
      "outputs": [
        {
          "internalType": "bool",
          "name": "",
          "type": "bool"
        }
      ],
      "stateMutability": "view",
      "type": "function"
    },
    {
      "inputs": [],
      "name": "payoutRate",
      "outputs": [
        {
          "internalType": "uint256",
          "name": "",
          "type": "uint256"
        }
      ],
      "stateMutability": "view",
      "type": "function"
    },
    {
      "inputs": [],
      "name": "payoutTokenAddress",
      "outputs": [
        {
          "internalType": "address",
          "name": "",
          "type": "address"
        }
      ],
      "stateMutability": "view",
      "type": "function"
    },
    {
      "inputs": [
        {
          "internalType": "address",
          "name": "",
          "type": "address"
        }
      ],
      "name": "pendingTokens",
      "outputs": [
        {
          "internalType": "uint256",
          "name": "",
          "type": "uint256"
        }
      ],
      "stateMutability": "view",
      "type": "function"
    },
    {
      "inputs": [
        {
          "internalType": "address",
          "name": "to",
          "type": "address"
        }
      ],
      "name": "reclaimUnclaimedTokens",
      "outputs": [],
      "stateMutability": "nonpayable",
      "type": "function"
    },
    {
      "inputs": [
        {
          "internalType": "address",
          "name": "token",
          "type": "address"
        }
      ],
      "name": "removeTokenOracle",
      "outputs": [],
      "stateMutability": "nonpayable",
      "type": "function"
    },
    {
      "inputs": [
        {
          "internalType": "bytes32",
          "name": "role",
          "type": "bytes32"
        },
        {
          "internalType": "address",
          "name": "callerConfirmation",
          "type": "address"
        }
      ],
      "name": "renounceRole",
      "outputs": [],
      "stateMutability": "nonpayable",
      "type": "function"
    },
    {
      "inputs": [
        {
          "internalType": "address",
          "name": "token",
          "type": "address"
        },
        {
          "internalType": "uint256",
          "name": "amount",
          "type": "uint256"
        },
        {
          "internalType": "address",
          "name": "to",
          "type": "address"
        }
      ],
      "name": "rescueTokens",
      "outputs": [],
      "stateMutability": "nonpayable",
      "type": "function"
    },
    {
      "inputs": [
        {
          "internalType": "bytes32",
          "name": "role",
          "type": "bytes32"
        },
        {
          "internalType": "address",
          "name": "account",
          "type": "address"
        }
      ],
      "name": "revokeRole",
      "outputs": [],
      "stateMutability": "nonpayable",
      "type": "function"
    },
    {
      "inputs": [
        {
          "internalType": "address",
          "name": "owner",
          "type": "address"
        }
      ],
      "name": "revokeTokenOwner",
      "outputs": [],
      "stateMutability": "nonpayable",
      "type": "function"
    },
    {
      "inputs": [],
      "name": "saleToken",
      "outputs": [
        {
          "internalType": "contract IERC20",
          "name": "",
          "type": "address"
        }
      ],
      "stateMutability": "view",
      "type": "function"
    },
    {
      "inputs": [
        {
          "internalType": "uint256",
          "name": "_endDate",
          "type": "uint256"
        }
      ],
      "name": "setEndDate",
      "outputs": [],
      "stateMutability": "nonpayable",
      "type": "function"
    },
    {
      "inputs": [
        {
          "internalType": "uint256",
          "name": "_minInvestment",
          "type": "uint256"
        },
        {
          "internalType": "uint256",
          "name": "_maxInvestment",
          "type": "uint256"
        }
      ],
      "name": "setInvestmentLimits",
      "outputs": [],
      "stateMutability": "nonpayable",
      "type": "function"
    },
    {
      "inputs": [
        {
          "internalType": "address",
          "name": "token",
          "type": "address"
        },
        {
          "internalType": "address",
          "name": "oracle",
          "type": "address"
        }
      ],
      "name": "setTokenOracle",
      "outputs": [],
      "stateMutability": "nonpayable",
      "type": "function"
    },
    {
      "inputs": [
        {
          "internalType": "uint256",
          "name": "newPrice",
          "type": "uint256"
        }
      ],
      "name": "setTokenPrice",
      "outputs": [],
      "stateMutability": "nonpayable",
      "type": "function"
    },
    {
      "inputs": [
        {
          "internalType": "address",
          "name": "token",
          "type": "address"
        },
        {
          "internalType": "bool",
          "name": "status",
          "type": "bool"
        }
      ],
      "name": "setWhitelistedPaymentToken",
      "outputs": [],
      "stateMutability": "nonpayable",
      "type": "function"
    },
    {
      "inputs": [],
      "name": "startDate",
      "outputs": [
        {
          "internalType": "uint256",
          "name": "",
          "type": "uint256"
        }
      ],
      "stateMutability": "view",
      "type": "function"
    },
    {
      "inputs": [
        {
          "internalType": "bytes4",
          "name": "interfaceId",
          "type": "bytes4"
        }
      ],
      "name": "supportsInterface",
      "outputs": [
        {
          "internalType": "bool",
          "name": "",
          "type": "bool"
        }
      ],
      "stateMutability": "view",
      "type": "function"
    },
    {
      "inputs": [
        {
          "internalType": "address",
          "name": "",
          "type": "address"
        }
      ],
      "name": "tokenOracles",
      "outputs": [
        {
          "internalType": "address",
          "name": "",
          "type": "address"
        }
      ],
      "stateMutability": "view",
      "type": "function"
    },
    {
      "inputs": [],
      "name": "tokenPrice",
      "outputs": [
        {
          "internalType": "uint256",
          "name": "",
          "type": "uint256"
        }
      ],
      "stateMutability": "view",
      "type": "function"
    },
    {
      "inputs": [
        {
          "internalType": "address",
          "name": "",
          "type": "address"
        }
      ],
      "name": "totalInvested",
      "outputs": [
        {
          "internalType": "uint256",
          "name": "",
          "type": "uint256"
        }
      ],
      "stateMutability": "view",
      "type": "function"
    },
    {
      "inputs": [],
      "name": "totalPendingTokens",
      "outputs": [
        {
          "internalType": "uint256",
          "name": "",
          "type": "uint256"
        }
      ],
      "stateMutability": "view",
      "type": "function"
    },
    {
      "inputs": [],
      "name": "totalRaised",
      "outputs": [
        {
          "internalType": "uint256",
          "name": "",
          "type": "uint256"
        }
      ],
      "stateMutability": "view",
      "type": "function"
    },
    {
      "inputs": [],
      "name": "treasury",
      "outputs": [
        {
          "internalType": "address",
          "name": "",
          "type": "address"
        }
      ],
      "stateMutability": "view",
      "type": "function"
    },
    {
      "inputs": [],
      "name": "unpause",
      "outputs": [],
      "stateMutability": "nonpayable",
      "type": "function"
    },
    {
      "inputs": [
        {
          "internalType": "address",
          "name": "",
          "type": "address"
        }
      ],
      "name": "whitelistedPaymentTokens",
      "outputs": [
        {
          "internalType": "bool",
          "name": "",
          "type": "bool"
        }
      ],
      "stateMutability": "view",
      "type": "function"
    },
    {
      "inputs": [],
      "name": "wrappedTokenAddress",
      "outputs": [
        {
          "internalType": "address",
          "name": "",
          "type": "address"
        }
      ],
      "stateMutability": "view",
      "type": "function"
    },
    {
      "stateMutability": "payable",
      "type": "receive"
    }
  ],
  "bytecode": "0x6080806040523461001b57600160025561318090816100218239f35b600080fdfe608080604052600436101561009e575b50361561005a57606460405162461bcd60e51b815260206004820152601560248201527f46616c6c6261636b206e6f7420616363657074656400000000000000000000006044820152fd5b606460405162461bcd60e51b815260206004820152601960248201527f446972656374204c554d4941206e6f74206163636570746564000000000000006044820152fd5b600090813560e01c9081622e131614612ac05750806301ffc9a714612a1e5780630b97bc8614612a005780630d342cab146129dd5780630d5defa4146129b657806311e72114146123155780631309b324146122955780631e1a268b14612272578063248a9ca3146122465780632b4353f2146122285780632f2ff15d146121eb57806336568abe1461218b5780633784f0001461205a5780633e646208146120305780633f4ba83a14611fa15780634b31bb1014611f7a5780634fff540214611f545780635c975abb14611f315780635cc0483814611f0a57806361d027b314611ee0578063653ac422146112955780636a61e5fc1461123c578063764467cc1461117057806377d392f014610ef75780637ff9b59614610ed95780638456cb5914610e7357806388e32fc214610da75780638a18511314610d6c5780638ac2c68014610d4e5780638cd0593314610d2657806390838e0914610cee57806391d1485414610ca2578063a217fddf14610c86578063a6527f3914610c48578063b13ef13814610c0a578063b37fd19014610878578063b96627971461085a578063bbcc0a061461083c578063bd49243214610801578063c031a66f146107c9578063c24a0f8b146107ab578063c5c4744c1461078d578063d547741f1461074c578063d59624b41461072e578063df695abb146106f1578063df8de3e714610314578063e985e367146102ed5763fb903b1d0361000f57346102ea5760403660031901126102ea576024356004356102d5612be8565b6102e182821115612f47565b60045560055580f35b80fd5b50346102ea57806003193601126102ea5760206001600160a01b0360035416604051908152f35b50346102ea57602090816003193601126102ea57610330612b28565b610338613097565b610340612f92565b6001600160a01b039182600e5416330361068657600854421061064257828216918282526015855260408220549384156105fe576024868260035416604051928380926370a0823160e01b82523060048301525afa801561050757869085906105c8575b6103b09250101561300b565b838352601586528260408120556103c985600c5461311b565b600c55858560ff600d5460081c1660001461051257906104249183600354168487600d546040519687958694859363095ea7b360e01b855260101c1660048401602090939291936001600160a01b0360408201951681520152565b03925af18015610507576104da575b50600d5460101c1660ff6011541691813b156104d657918391868361046f95604051968795869485936348e8a94960e01b85526004850161306e565b03925af180156104cb576104b7575b50505b7fd8138f8a3f377c5259ca548e70e4c2de94f129f5a11036a15b69513cba2b426a83604051848152a26001600255604051908152f35b6104c18291612adc565b6102ea578061047e565b6040513d84823e3d90fd5b8380fd5b6104f990873d8911610500575b6104f18183612b06565b810190613056565b5038610433565b503d6104e7565b6040513d86823e3d90fd5b60035460405163a9059cbb60e01b81526001600160a01b0395909516600486015260248501919091529091839160449183918791165af19182156105bc579161059f575b50610481576064836040519062461bcd60e51b82526004820152601560248201527f546f6b656e207472616e73666572206661696c656400000000000000000000006044820152fd5b6105b69150843d8611610500576104f18183612b06565b38610556565b604051903d90823e3d90fd5b50508681813d83116105f7575b6105df8183612b06565b810103126105f257856103b091516103a4565b600080fd5b503d6105d5565b6064866040519062461bcd60e51b82526004820152601260248201527f4e6f20746f6b656e7320746f20636c61696d00000000000000000000000000006044820152fd5b6064846040519062461bcd60e51b82526004820152601460248201527f4d61747572697479206e6f7420726561636865640000000000000000000000006044820152fd5b60405162461bcd60e51b815260206004820152602c60248201527f43616c6c6572206973206e6f742074686520696e766573746d656e744d616e6160448201527f67657220636f6e747261637400000000000000000000000000000000000000006064820152608490fd5b50346102ea5760203660031901126102ea5760ff60406020926001600160a01b0361071a612b28565b168152601484522054166040519015158152f35b50346102ea57806003193601126102ea576020600854604051908152f35b50346102ea5760403660031901126102ea5761078960043561076c612b3e565b90808452836020526107846001604086200154612c44565b612ed1565b5080f35b50346102ea57806003193601126102ea576020600b54604051908152f35b50346102ea57806003193601126102ea576020600754604051908152f35b50346102ea5760203660031901126102ea5760406020916001600160a01b036107f0612b28565b168152601583522054604051908152f35b50346102ea5760203660031901126102ea5760209060406001600160a01b03918261082a612b28565b16815260178452205416604051908152f35b50346102ea57806003193601126102ea576020600c54604051908152f35b50346102ea57806003193601126102ea576020600a54604051908152f35b50346102ea5760603660031901126102ea57610892612b28565b602480356044918235926001600160a01b0393848116958682036105f2576108b8612b77565b6108c0613097565b8615610bc757851694856109ef57508347106109ac578680808681945af13d156109a7573d67ffffffffffffffff8111610994576040519061090c601f8201601f191660200183612b06565b81528760203d92013e5b1561095157505060207fd27dd37d941f5a1b76926e48140fdbf50a0c59defb5431a391a1260279eb1c4c915b604051908152a3600160025580f35b907f4c554d494120726573637565206661696c65640000000000000000000000000060649260136040519362461bcd60e51b855260206004860152840152820152fd5b8388634e487b7160e01b81526041600452fd5b610916565b6064837f4e6f7420656e6f756768204c554d4941000000000000000000000000000000008460106040519362461bcd60e51b855260206004860152840152820152fd5b600393919354168514610b8557604051926370a0823160e01b8452306004850152602093848184818a5afa8015610b7a5786918a91610b49575b5010610b075760405163a9059cbb60e01b81526001600160a01b039190911660048201526024810185905283816044818b8a5af1908115610afc578891610adf575b5015610a9d5750505060207fd27dd37d941f5a1b76926e48140fdbf50a0c59defb5431a391a1260279eb1c4c91610942565b6064929160137f455243323020726573637565206661696c656400000000000000000000000000926040519462461bcd60e51b86526004860152840152820152fd5b610af69150843d8611610500576104f18183612b06565b38610a6b565b6040513d8a823e3d90fd5b6064847f4e6f7420656e6f75676820746f6b656e73000000000000000000000000000000856011866040519462461bcd60e51b86526004860152840152820152fd5b809250868092503d8311610b73575b610b628183612b06565b810103126105f25785905138610a29565b503d610b58565b6040513d8b823e3d90fd5b7f43616e6e6f74207265736375652073616c65546f6b656e00000000000000000060649260176040519362461bcd60e51b855260206004860152840152820152fd5b6064847f496e76616c696420726563697069656e740000000000000000000000000000008560116040519362461bcd60e51b855260206004860152840152820152fd5b50346102ea5760203660031901126102ea57610789610c27612b28565b610c2f612b77565b610c436001600160a01b0382161515613128565b612cfa565b50346102ea5760203660031901126102ea57610789610c65612b28565b610c6d612b77565b610c816001600160a01b0382161515613128565b612e26565b50346102ea57806003193601126102ea57602090604051908152f35b50346102ea5760403660031901126102ea576001600160a01b036040610cc6612b3e565b92600435815280602052209116600052602052602060ff604060002054166040519015158152f35b50346102ea5760203660031901126102ea5760406020916001600160a01b03610d15612b28565b168152601683522054604051908152f35b50346102ea57806003193601126102ea57602060ff60115416610d4c6040518092612b54565bf35b50346102ea57806003193601126102ea576020600454604051908152f35b50346102ea57806003193601126102ea5760206040517f35369b3a7bb98c90641a907c2fd643ea781341eba72ccffd47cb018c128c48c38152f35b50346102ea5760203660031901126102ea57610dc1612b28565b610dc9612b77565b6001600160a01b0380911690818352601760205260408320541615610e2f578082526017602052604082206001600160a01b031981541690557fc1d3048301c0d23629a2532c8defa6d68f8e1a0e4157918769e9fb1b2eeb888e6020604051848152a280f35b606460405162461bcd60e51b815260206004820152601360248201527f4e6f206f7261636c6520746f2072656d6f7665000000000000000000000000006044820152fd5b50346102ea57806003193601126102ea57610e8c612b77565b610e94612f92565b600160ff198154161760015560206040513381527f62e78cea01bee320cd4e420270b5ea74000d11b0c9f74754ebdbfc544b05a258918291a16020604051338152a180f35b50346102ea57806003193601126102ea576020601354604051908152f35b50346102ea5760208060031936011261116c57610f12612b28565b90610f1b612be8565b610f23613097565b600854421115611128576001600160a01b03918281169283156110e457600354166040516370a0823160e01b81523060048201528381602481855afa80156110d95786906110aa575b610f7a9150600c549061311b565b9182156110665760405163a9059cbb60e01b81526001600160a01b03919091166004820152602481018390529083908290604490829089905af190811561105b57859161103e575b5015610ffa57907ffcbf6553b2cfc097c2301f1c071469a8839b462e7287e3692f238ccfc6b9208f91604051908152a2600160025580f35b6064826040519062461bcd60e51b82526004820152600e60248201527f5265636c61696d206661696c65640000000000000000000000000000000000006044820152fd5b6110559150833d8511610500576104f18183612b06565b38610fc2565b6040513d87823e3d90fd5b6064846040519062461bcd60e51b82526004820152601360248201527f4e6f20756e636c61696d656420746f6b656e73000000000000000000000000006044820152fd5b508381813d83116110d2575b6110c08183612b06565b810103126105f257610f7a9051610f6c565b503d6110b6565b6040513d88823e3d90fd5b6064836040519062461bcd60e51b82526004820152600f60248201527f496e76616c6964206164647265737300000000000000000000000000000000006044820152fd5b6064906040519062461bcd60e51b82526004820152600b60248201527f4e6f74206d6174757265640000000000000000000000000000000000000000006044820152fd5b5080fd5b50346102ea5760403660031901126102ea5761118a612b28565b611192612b3e565b61119a612b77565b6001600160a01b038091169182156111f8577fc1d3048301c0d23629a2532c8defa6d68f8e1a0e4157918769e9fb1b2eeb888e9160209116928385526017825260408520816001600160a01b0319825416179055604051908152a280f35b606460405162461bcd60e51b815260206004820152601660248201527f496e76616c6964206f7261636c652061646472657373000000000000000000006044820152fd5b50346102ea5760203660031901126102ea577f6b361c807733cc94a3b7bda39c1c94dcc0511e91aa47b0f7f918068e93976890602060043561127c612be8565b6112878115156130d0565b80601355604051908152a180f35b5060603660031901126102ea576112aa612b28565b906112b3612b3e565b916112bc613097565b6112c4612f92565b6001600160a01b03600e54163303610686576001600160a01b03831615611e9c5760ff600d5416611e58576006544210611e1457600754421015611dd0576001600160a01b0381168252601460205260ff60408320541615611d8c5760443515611d48576001600160a01b038116825260176020526001600160a01b036040832054168015611d045760406004918151928380927f57de26a40000000000000000000000000000000000000000000000000000000082525afa908115611cf9578391611cab575b50601b0b9161139b8184136130d0565b6001600160a01b038216611c22576012925b806044350290604435820403611c0e57670de0b6b3a76400009384820291808304861490151715611b2e5760ff16604d8111611b2e5784916113f291600a0a90612feb565b046004548110611bca576001600160a01b0385168252601660205261141b816040842054612fc8565b60055410611b8657600b54936114318286612fc8565b600a5410611b4257808202908282041482151715611b2e5760135461145591612feb565b938415611aea578161146691612fc8565b600b556001600160a01b0385168252601660205261148960408320918254612fc8565b905560ff60095416611a6b575b6001600160a01b038216611888576044353403611844576001600160a01b0360125416803b1561116c5781604491604051928380927f701bb8910000000000000000000000000000000000000000000000000000000082523060048301526001600160a01b038a16602483015234905af180156104cb57908291611830575b50505b60095460ff16156117d457600d5460081c60ff16156116f357600354600d5460405163095ea7b360e01b81526001600160a01b0360109290921c8216600482015260248101869052916020918391168185816044810103925af19081156104cb5782916116d4575b5015611690576001600160a01b03600d5460101c1660ff60115416813b1561168c576115c7839283926040519485809481936348e8a94960e01b83528b8d6004850161306e565b03925af180156104cb57611678575b50507f93638e6cf18b4f6a839de65df95898221f5d9f7dc54b87d4b31d40297643266e60606001600160a01b036020955b8160405195168552604435878601528560408601521692a2600b54600a5481101561163b575b506001600255604051908152f35b827fcb67f20f64495b30f15524c55f90201dd6571d6b5c19dac183d2aeb25315b2dc91600160ff19600d541617600d55604051908152a13861162d565b6116828291612adc565b6102ea57806115d6565b8280fd5b606460405162461bcd60e51b815260206004820152600e60248201527f417070726f7665206661696c65640000000000000000000000000000000000006044820152fd5b6116ed915060203d602011610500576104f18183612b06565b38611580565b60035460405163a9059cbb60e01b81526001600160a01b038681166004830152602482018690529091602091839160449183918791165af19182156105bc57916117b5575b5015611771577f93638e6cf18b4f6a839de65df95898221f5d9f7dc54b87d4b31d40297643266e60606001600160a01b03602095611607565b606460405162461bcd60e51b815260206004820152601460248201527f4175746f2d7472616e73666572206661696c65640000000000000000000000006044820152fd5b6117ce915060203d602011610500576104f18183612b06565b38611738565b60606001600160a01b038560407f93638e6cf18b4f6a839de65df95898221f5d9f7dc54b87d4b31d40297643266e9483602099168152601589522061181a878254612fc8565b905561182886600c54612fc8565b600c55611607565b61183990612adc565b6102ea578038611515565b606460405162461bcd60e51b815260206004820152601760248201527f496e636f7272656374206e617469766520616d6f756e740000000000000000006044820152fd5b34611a01576040517f23b872dd0000000000000000000000000000000000000000000000000000000081526001600160a01b03851660048201523060248201526044356044820152602081606481856001600160a01b0388165af180156104cb576119e2575b5060125460405163095ea7b360e01b81526001600160a01b039182166004820152604480356024830152909160209183918290869088165af180156104cb576119c3575b506001600160a01b0360125416803b1561116c578180916084604051809481937f0ef7c5a70000000000000000000000000000000000000000000000000000000083523060048401526001600160a01b038b1660248401526001600160a01b038916604484015260443560648401525af180156104cb576119b4575b50611518565b6119bd90612adc565b386119ae565b6119db9060203d602011610500576104f18183612b06565b5038611932565b6119fa9060203d602011610500576104f18183612b06565b50386118ee565b608460405162461bcd60e51b815260206004820152602160248201527f446f206e6f742073656e642045544820666f7220746f6b656e207061796d656e60448201527f74000000000000000000000000000000000000000000000000000000000000006064820152fd5b602460206001600160a01b0360035416604051928380926370a0823160e01b82523060048301525afa80156104cb5784908390611ab4575b611aaf9250101561300b565b611496565b50506020813d602011611ae2575b81611acf60209383612b06565b8101031261116c5783611aaf9151611aa3565b3d9150611ac2565b606460405162461bcd60e51b815260206004820152601460248201527f546f6b656e20616d6f756e7420746f6f206c6f770000000000000000000000006044820152fd5b602483634e487b7160e01b81526011600452fd5b606460405162461bcd60e51b815260206004820152600b60248201527f45786365656473206361700000000000000000000000000000000000000000006044820152fd5b606460405162461bcd60e51b815260206004820152601660248201527f45786365656473206d617820696e766573746d656e74000000000000000000006044820152fd5b606460405162461bcd60e51b815260206004820152601460248201527f42656c6f77206d696e20696e766573746d656e740000000000000000000000006044820152fd5b602482634e487b7160e01b81526011600452fd5b6040517f313ce5670000000000000000000000000000000000000000000000000000000081526020816004816001600160a01b0387165afa9081156104cb578291611c6f575b50926113ad565b90506020813d602011611ca3575b81611c8a60209383612b06565b8101031261116c575160ff8116810361116c5738611c68565b3d9150611c7d565b90506040813d604011611cf1575b81611cc660409383612b06565b8101031261168c5780519081601b0b82036104d6576020015163ffffffff81160361168c573861138b565b3d9150611cb9565b6040513d85823e3d90fd5b606460405162461bcd60e51b815260206004820152600e60248201527f4f7261636c65206e6f74207365740000000000000000000000000000000000006044820152fd5b606460405162461bcd60e51b815260206004820152600b60248201527f5a65726f20616d6f756e740000000000000000000000000000000000000000006044820152fd5b606460405162461bcd60e51b815260206004820152601560248201527f546f6b656e206e6f742077686974656c697374656400000000000000000000006044820152fd5b606460405162461bcd60e51b815260206004820152600a60248201527f53616c6520656e646564000000000000000000000000000000000000000000006044820152fd5b606460405162461bcd60e51b815260206004820152601060248201527f53616c65206e6f742073746172746564000000000000000000000000000000006044820152fd5b606460405162461bcd60e51b815260206004820152600e60248201527f53616c6520697320636c6f7365640000000000000000000000000000000000006044820152fd5b606460405162461bcd60e51b815260206004820152601860248201527f496e76616c696420696e766573746f72206164647265737300000000000000006044820152fd5b50346102ea57806003193601126102ea5760206001600160a01b0360115460101c16604051908152f35b50346102ea57806003193601126102ea5760206001600160a01b03600f5416604051908152f35b50346102ea57806003193601126102ea57602060ff600154166040519015158152f35b50346102ea57806003193601126102ea57602060ff600d5460081c166040519015158152f35b50346102ea57806003193601126102ea5760206001600160a01b03600e5416604051908152f35b50346102ea57806003193601126102ea57611fba612b77565b60015460ff8116156120065760ff191660015560206040513381527f5db9ee0a495bf2e6ff9c91a7834c1ba4fdd244a5e8aa4e537bd38aeae4b073aa918291a16020604051338152a180f35b60046040517f8dfc202b000000000000000000000000000000000000000000000000000000008152fd5b50346102ea57806003193601126102ea5760206001600160a01b03600d5460101c16604051908152f35b50346102ea5760203660031901126102ea57600435612077612b77565b42811115612147576007548111156120dd576008548110156120995760075580f35b606460405162461bcd60e51b815260206004820152602060248201527f456e642064617465206d757374206265206265666f7265206d617475726974796044820152fd5b608460405162461bcd60e51b815260206004820152602260248201527f4e657720656e642064617465206d75737420626520616674657220637572726560448201527f6e740000000000000000000000000000000000000000000000000000000000006064820152fd5b606460405162461bcd60e51b815260206004820152601060248201527f496e76616c696420656e642064617465000000000000000000000000000000006044820152fd5b50346102ea5760403660031901126102ea576121a5612b3e565b336001600160a01b038216036121c15761078990600435612ed1565b60046040517f6697b232000000000000000000000000000000000000000000000000000000008152fd5b50346102ea5760403660031901126102ea5761078960043561220b612b3e565b90808452836020526122236001604086200154612c44565b612dac565b50346102ea57806003193601126102ea576020601054604051908152f35b50346102ea5760203660031901126102ea57600160406020926004358152808452200154604051908152f35b50346102ea57806003193601126102ea57602060ff600d54166040519015158152f35b50346102ea5760403660031901126102ea576122af612b28565b6024359081151580920361168c5760206001600160a01b037f91ad45a5ce97c5eee55fa01496772afefc7f0757ed9eac59064e642690509dfb926122f1612b77565b1692838552601482526040852060ff1981541660ff8316179055604051908152a280f35b50346102ea576102208060031936011261116c5760405190810181811067ffffffffffffffff8211176129a25760405261234d612b28565b8152602435602082015260443560408201526064356060820152608435608082015260a43560a082015260c435801515810361168c5760c082015260e43560e0820152610104356101008201526001600160a01b036101243516610124350361116c5761012435610120820152610144356001600160a01b038116810361168c57610140820152610164351515610164350361116c57610164356101608201526001600160a01b036101843516610184350361116c57610184356101808201526001600160a01b036101a435166101a4350361116c576101a4356101a08201526101c4356001600160a01b038116810361168c576101c08201526101e4356101e0820152600361020435101561116c576102043561020082015260115460ff8160081c1661295e576001600160a01b038251161561291a576001600160a01b0361012083015116156128d6576001600160a01b036101408301511615612892576001600160a01b036101a083015116156128285760e0820151156127e457610100820151156127a0576124ea602083015160408401511015612f47565b6060820151421161275c576060820151608083015111156126f2576001600160a01b036101c083015116156126ae576001600160a01b038251166001600160a01b03196003541617600355602082015160045560408201516005556060820151600655608082015160075560a082015160085560c0820151151560ff199060ff826009541691161760095560e0830151600a556101008301516013556001600160a01b03610140840151166001600160a01b031960125416176012556101608301511515600d547fffffffffffffffffffff000000000000000000000000000000000000000000ff61ff0075ffffffffffffffffffffffffffffffffffffffff000061018088015160101b169360081b1691161717600d556001600160a01b036101a0840151166001600160a01b0319600e541617600e556001600160a01b036101c0840151166001600160a01b0319600f541617600f556101e0830151601055610200830151600381101561269a57926001600160a01b03926101209260ff612687961691161760115561267e33612c6a565b50015116612cfa565b5061010061ff0019601154161760115580f35b602485634e487b7160e01b81526021600452fd5b606460405162461bcd60e51b815260206004820152601c60248201527f496e76616c6964207061796f757420746f6b656e2061646472657373000000006044820152fd5b608460405162461bcd60e51b815260206004820152602260248201527f53746172742064617465206d757374206265206265666f726520656e6420646160448201527f74650000000000000000000000000000000000000000000000000000000000006064820152fd5b606460405162461bcd60e51b815260206004820152602060248201527f53746172742064617465206d75737420626520696e20746865206675747572656044820152fd5b606460405162461bcd60e51b815260206004820152601c60248201527f546f6b656e207072696365206d75737420626520706f736974697665000000006044820152fd5b606460405162461bcd60e51b815260206004820152602060248201527f46756e6472616973696e6720636170206d75737420626520706f7369746976656044820152fd5b608460405162461bcd60e51b815260206004820152602260248201527f496e76616c696420696e766573746d656e74206d616e6167657220616464726560448201527f73730000000000000000000000000000000000000000000000000000000000006064820152fd5b606460405162461bcd60e51b815260206004820152601660248201527f496e76616c696420657363726f772061646472657373000000000000000000006044820152fd5b606460405162461bcd60e51b815260206004820152601360248201527f496e76616c696420746f6b656e206f776e6572000000000000000000000000006044820152fd5b606460405162461bcd60e51b815260206004820152601260248201527f496e76616c69642073616c6520746f6b656e00000000000000000000000000006044820152fd5b606460405162461bcd60e51b815260206004820152601360248201527f416c726561647920696e697469616c697a6564000000000000000000000000006044820152fd5b602483634e487b7160e01b81526041600452fd5b50346102ea57806003193601126102ea5760206001600160a01b0360125416604051908152f35b50346102ea57806003193601126102ea57602060ff600954166040519015158152f35b50346102ea57806003193601126102ea576020600654604051908152f35b50346102ea5760203660031901126102ea576004357fffffffff00000000000000000000000000000000000000000000000000000000811680910361116c57807f7965db0b0000000000000000000000000000000000000000000000000000000060209214908115612a96575b506040519015158152f35b7f01ffc9a70000000000000000000000000000000000000000000000000000000091501482612a8b565b90503461116c578160031936011261116c576020906005548152f35b67ffffffffffffffff8111612af057604052565b634e487b7160e01b600052604160045260246000fd5b90601f8019910116810190811067ffffffffffffffff821117612af057604052565b600435906001600160a01b03821682036105f257565b602435906001600160a01b03821682036105f257565b906003821015612b615752565b634e487b7160e01b600052602160045260246000fd5b3360009081527fad3228b676f7d3cd4284a5443f17f1962b36e491b30a40b2405849e597ba5fb5602052604081205460ff1615612bb15750565b604490604051907fe2517d3f0000000000000000000000000000000000000000000000000000000082523360048301526024820152fd5b3360009081527f7dfc0114fc2b0320947240cbd60a9ffc193468a941c37441e641a928a8c116d560205260409020547f35369b3a7bb98c90641a907c2fd643ea781341eba72ccffd47cb018c128c48c39060ff1615612bb15750565b80600052600060205260406000203360005260205260ff6040600020541615612bb15750565b6001600160a01b031660008181527fad3228b676f7d3cd4284a5443f17f1962b36e491b30a40b2405849e597ba5fb5602052604081205490919060ff16612cf657818052816020526040822081835260205260408220600160ff1982541617905533917f2f8788117e7eff1d82e926ec794901d17c78024a50270940304540a733656f0d8180a4600190565b5090565b6001600160a01b031660008181527f7dfc0114fc2b0320947240cbd60a9ffc193468a941c37441e641a928a8c116d560205260408120549091907f35369b3a7bb98c90641a907c2fd643ea781341eba72ccffd47cb018c128c48c39060ff16612da757808352826020526040832082845260205260408320600160ff198254161790557f2f8788117e7eff1d82e926ec794901d17c78024a50270940304540a733656f0d339380a4600190565b505090565b90600091808352826020526001600160a01b036040842092169182845260205260ff60408420541615600014612da757808352826020526040832082845260205260408320600160ff198254161790557f2f8788117e7eff1d82e926ec794901d17c78024a50270940304540a733656f0d339380a4600190565b6001600160a01b031660008181527f7dfc0114fc2b0320947240cbd60a9ffc193468a941c37441e641a928a8c116d560205260408120549091907f35369b3a7bb98c90641a907c2fd643ea781341eba72ccffd47cb018c128c48c39060ff1615612da75780835282602052604083208284526020526040832060ff1981541690557ff6391f5c32d9c69d2a47ea670b442974b53935d1edc7fd64eb21e047a839171b339380a4600190565b90600091808352826020526001600160a01b036040842092169182845260205260ff604084205416600014612da75780835282602052604083208284526020526040832060ff1981541690557ff6391f5c32d9c69d2a47ea670b442974b53935d1edc7fd64eb21e047a839171b339380a4600190565b15612f4e57565b606460405162461bcd60e51b815260206004820152601460248201527f4d696e203e206d617820696e766573746d656e740000000000000000000000006044820152fd5b60ff60015416612f9e57565b60046040517fd93c0665000000000000000000000000000000000000000000000000000000008152fd5b91908201809211612fd557565b634e487b7160e01b600052601160045260246000fd5b8115612ff5570490565b634e487b7160e01b600052601260045260246000fd5b1561301257565b606460405162461bcd60e51b815260206004820152601860248201527f496e73756666696369656e742073616c6520746f6b656e7300000000000000006044820152fd5b908160209103126105f2575180151581036105f25790565b60409061309593959492956001600160a01b03606083019716825260208201520190612b54565b565b60028054146130a65760028055565b60046040517f3ee5aeb5000000000000000000000000000000000000000000000000000000008152fd5b156130d757565b606460405162461bcd60e51b815260206004820152600d60248201527f496e76616c6964207072696365000000000000000000000000000000000000006044820152fd5b91908203918211612fd557565b1561312f57565b606460405162461bcd60e51b815260206004820152600c60248201527f5a65726f206164647265737300000000000000000000000000000000000000006044820152fdfea164736f6c6343000814000a",
  "linkReferences": {},
  "deployedLinkReferences": {}
}