{
  "_format": "hh-sol-artifact-1",
  "contractName": "Offering",
  "sourceName": "contracts/Offering.sol",
  "abi": [
    {
      "inputs": [],
      "name": "AccessControlBadConfirmation",
      "type": "error"
    },
    {
      "inputs": [
        {
          "internalType": "address",
          "name": "account",
          "type": "address"
        },
        {
          "internalType": "bytes32",
          "name": "neededRole",
          "type": "bytes32"
        }
      ],
      "name": "AccessControlUnauthorizedAccount",
      "type": "error"
    },
    {
      "inputs": [],
      "name": "EnforcedPause",
      "type": "error"
    },
    {
      "inputs": [],
      "name": "ExpectedPause",
      "type": "error"
    },
    {
      "inputs": [],
      "name": "ReentrancyGuardReentrantCall",
      "type": "error"
    },
    {
      "anonymous": false,
      "inputs": [
        {
          "indexed": true,
          "internalType": "address",
          "name": "investor",
          "type": "address"
        },
        {
          "indexed": false,
          "internalType": "uint256",
          "name": "amount",
          "type": "uint256"
        }
      ],
      "name": "Claimed",
      "type": "event"
    },
    {
      "anonymous": false,
      "inputs": [
        {
          "indexed": true,
          "internalType": "address",
          "name": "investor",
          "type": "address"
        },
        {
          "indexed": false,
          "internalType": "address",
          "name": "paymentToken",
          "type": "address"
        },
        {
          "indexed": false,
          "internalType": "uint256",
          "name": "paidAmount",
          "type": "uint256"
        },
        {
          "indexed": false,
          "internalType": "uint256",
          "name": "tokensReceived",
          "type": "uint256"
        }
      ],
      "name": "Invested",
      "type": "event"
    },
    {
      "anonymous": false,
      "inputs": [
        {
          "indexed": false,
          "internalType": "uint256",
          "name": "timestamp",
          "type": "uint256"
        }
      ],
      "name": "OfferingCancelled",
      "type": "event"
    },
    {
      "anonymous": false,
      "inputs": [
        {
          "indexed": false,
          "internalType": "uint256",
          "name": "timestamp",
          "type": "uint256"
        }
      ],
      "name": "OfferingFinalized",
      "type": "event"
    },
    {
      "anonymous": false,
      "inputs": [
        {
          "indexed": true,
          "internalType": "address",
          "name": "token",
          "type": "address"
        },
        {
          "indexed": false,
          "internalType": "address",
          "name": "oracle",
          "type": "address"
        }
      ],
      "name": "OracleSet",
      "type": "event"
    },
    {
      "anonymous": false,
      "inputs": [
        {
          "indexed": false,
          "internalType": "address",
          "name": "account",
          "type": "address"
        }
      ],
      "name": "Paused",
      "type": "event"
    },
    {
      "anonymous": false,
      "inputs": [
        {
          "indexed": true,
          "internalType": "address",
          "name": "token",
          "type": "address"
        },
        {
          "indexed": false,
          "internalType": "bool",
          "name": "status",
          "type": "bool"
        }
      ],
      "name": "PaymentTokenWhitelisted",
      "type": "event"
    },
    {
      "anonymous": false,
      "inputs": [
        {
          "indexed": true,
          "internalType": "address",
          "name": "token",
          "type": "address"
        },
        {
          "indexed": false,
          "internalType": "uint256",
          "name": "amount",
          "type": "uint256"
        },
        {
          "indexed": true,
          "internalType": "address",
          "name": "to",
          "type": "address"
        }
      ],
      "name": "Rescue",
      "type": "event"
    },
    {
      "anonymous": false,
      "inputs": [
        {
          "indexed": true,
          "internalType": "bytes32",
          "name": "role",
          "type": "bytes32"
        },
        {
          "indexed": true,
          "internalType": "bytes32",
          "name": "previousAdminRole",
          "type": "bytes32"
        },
        {
          "indexed": true,
          "internalType": "bytes32",
          "name": "newAdminRole",
          "type": "bytes32"
        }
      ],
      "name": "RoleAdminChanged",
      "type": "event"
    },
    {
      "anonymous": false,
      "inputs": [
        {
          "indexed": true,
          "internalType": "bytes32",
          "name": "role",
          "type": "bytes32"
        },
        {
          "indexed": true,
          "internalType": "address",
          "name": "account",
          "type": "address"
        },
        {
          "indexed": true,
          "internalType": "address",
          "name": "sender",
          "type": "address"
        }
      ],
      "name": "RoleGranted",
      "type": "event"
    },
    {
      "anonymous": false,
      "inputs": [
        {
          "indexed": true,
          "internalType": "bytes32",
          "name": "role",
          "type": "bytes32"
        },
        {
          "indexed": true,
          "internalType": "address",
          "name": "account",
          "type": "address"
        },
        {
          "indexed": true,
          "internalType": "address",
          "name": "sender",
          "type": "address"
        }
      ],
      "name": "RoleRevoked",
      "type": "event"
    },
    {
      "anonymous": false,
      "inputs": [
        {
          "indexed": false,
          "internalType": "uint256",
          "name": "totalRaised",
          "type": "uint256"
        }
      ],
      "name": "SaleClosed",
      "type": "event"
    },
    {
      "anonymous": false,
      "inputs": [
        {
          "indexed": false,
          "internalType": "uint256",
          "name": "totalRaised",
          "type": "uint256"
        },
        {
          "indexed": false,
          "internalType": "uint256",
          "name": "softCap",
          "type": "uint256"
        }
      ],
      "name": "SoftCapReached",
      "type": "event"
    },
    {
      "anonymous": false,
      "inputs": [
        {
          "indexed": false,
          "internalType": "uint256",
          "name": "newPrice",
          "type": "uint256"
        }
      ],
      "name": "TokenPriceUpdated",
      "type": "event"
    },
    {
      "anonymous": false,
      "inputs": [
        {
          "indexed": true,
          "internalType": "address",
          "name": "to",
          "type": "address"
        },
        {
          "indexed": false,
          "internalType": "uint256",
          "name": "amount",
          "type": "uint256"
        }
      ],
      "name": "UnclaimedTokensReclaimed",
      "type": "event"
    },
    {
      "anonymous": false,
      "inputs": [
        {
          "indexed": false,
          "internalType": "address",
          "name": "account",
          "type": "address"
        }
      ],
      "name": "Unpaused",
      "type": "event"
    },
    {
      "stateMutability": "payable",
      "type": "fallback"
    },
    {
      "inputs": [],
      "name": "DEFAULT_ADMIN_ROLE",
      "outputs": [
        {
          "internalType": "bytes32",
          "name": "",
          "type": "bytes32"
        }
      ],
      "stateMutability": "view",
      "type": "function"
    },
    {
      "inputs": [],
      "name": "TOKEN_OWNER_ROLE",
      "outputs": [
        {
          "internalType": "bytes32",
          "name": "",
          "type": "bytes32"
        }
      ],
      "stateMutability": "view",
      "type": "function"
    },
    {
      "inputs": [],
      "name": "apyEnabled",
      "outputs": [
        {
          "internalType": "bool",
          "name": "",
          "type": "bool"
        }
      ],
      "stateMutability": "view",
      "type": "function"
    },
    {
      "inputs": [],
      "name": "canCancel",
      "outputs": [
        {
          "internalType": "bool",
          "name": "",
          "type": "bool"
        }
      ],
      "stateMutability": "view",
      "type": "function"
    },
    {
      "inputs": [],
      "name": "canFinalize",
      "outputs": [
        {
          "internalType": "bool",
          "name": "",
          "type": "bool"
        }
      ],
      "stateMutability": "view",
      "type": "function"
    },
    {
      "inputs": [],
      "name": "cancelOffering",
      "outputs": [],
      "stateMutability": "nonpayable",
      "type": "function"
    },
    {
      "inputs": [
        {
          "internalType": "address",
          "name": "_investor",
          "type": "address"
        }
      ],
      "name": "claimTokens",
      "outputs": [
        {
          "internalType": "uint256",
          "name": "",
          "type": "uint256"
        }
      ],
      "stateMutability": "nonpayable",
      "type": "function"
    },
    {
      "inputs": [],
      "name": "defaultPayoutFrequency",
      "outputs": [
        {
          "internalType": "enum IWRAPEDTOKEN.PayoutFrequency",
          "name": "",
          "type": "uint8"
        }
      ],
      "stateMutability": "view",
      "type": "function"
    },
    {
      "inputs": [],
      "name": "endDate",
      "outputs": [
        {
          "internalType": "uint256",
          "name": "",
          "type": "uint256"
        }
      ],
      "stateMutability": "view",
      "type": "function"
    },
    {
      "inputs": [],
      "name": "escrowAddress",
      "outputs": [
        {
          "internalType": "address",
          "name": "",
          "type": "address"
        }
      ],
      "stateMutability": "view",
      "type": "function"
    },
    {
      "inputs": [],
      "name": "finalizeOffering",
      "outputs": [],
      "stateMutability": "nonpayable",
      "type": "function"
    },
    {
      "inputs": [],
      "name": "finalizeOfferingSoftCap",
      "outputs": [],
      "stateMutability": "nonpayable",
      "type": "function"
    },
    {
      "inputs": [],
      "name": "fundraisingCap",
      "outputs": [
        {
          "internalType": "uint256",
          "name": "",
          "type": "uint256"
        }
      ],
      "stateMutability": "view",
      "type": "function"
    },
    {
      "inputs": [],
      "name": "getOfferingStatus",
      "outputs": [
        {
          "internalType": "bool",
          "name": "saleActive",
          "type": "bool"
        },
        {
          "internalType": "bool",
          "name": "saleClosed",
          "type": "bool"
        },
        {
          "internalType": "bool",
          "name": "finalized",
          "type": "bool"
        },
        {
          "internalType": "bool",
          "name": "cancelled",
          "type": "bool"
        },
        {
          "internalType": "bool",
          "name": "softCapReached",
          "type": "bool"
        },
        {
          "internalType": "uint256",
          "name": "raised",
          "type": "uint256"
        },
        {
          "internalType": "uint256",
          "name": "softCapAmount",
          "type": "uint256"
        },
        {
          "internalType": "uint256",
          "name": "cap",
          "type": "uint256"
        },
        {
          "internalType": "uint256",
          "name": "endTime",
          "type": "uint256"
        }
      ],
      "stateMutability": "view",
      "type": "function"
    },
    {
      "inputs": [
        {
          "internalType": "bytes32",
          "name": "role",
          "type": "bytes32"
        }
      ],
      "name": "getRoleAdmin",
      "outputs": [
        {
          "internalType": "bytes32",
          "name": "",
          "type": "bytes32"
        }
      ],
      "stateMutability": "view",
      "type": "function"
    },
    {
      "inputs": [
        {
          "internalType": "bytes32",
          "name": "role",
          "type": "bytes32"
        },
        {
          "internalType": "address",
          "name": "account",
          "type": "address"
        }
      ],
      "name": "grantRole",
      "outputs": [],
      "stateMutability": "nonpayable",
      "type": "function"
    },
    {
      "inputs": [
        {
          "internalType": "bytes32",
          "name": "role",
          "type": "bytes32"
        },
        {
          "internalType": "address",
          "name": "account",
          "type": "address"
        }
      ],
      "name": "hasRole",
      "outputs": [
        {
          "internalType": "bool",
          "name": "",
          "type": "bool"
        }
      ],
      "stateMutability": "view",
      "type": "function"
    },
    {
      "inputs": [
        {
          "components": [
            {
              "internalType": "address",
              "name": "saleToken",
              "type": "address"
            },
            {
              "internalType": "uint256",
              "name": "minInvestment",
              "type": "uint256"
            },
            {
              "internalType": "uint256",
              "name": "maxInvestment",
              "type": "uint256"
            },
            {
              "internalType": "uint256",
              "name": "startDate",
              "type": "uint256"
            },
            {
              "internalType": "uint256",
              "name": "endDate",
              "type": "uint256"
            },
            {
              "internalType": "uint256",
              "name": "softCap",
              "type": "uint256"
            },
            {
              "internalType": "uint256",
              "name": "fundraisingCap",
              "type": "uint256"
            },
            {
              "internalType": "uint256",
              "name": "tokenPrice",
              "type": "uint256"
            },
            {
              "internalType": "address",
              "name": "tokenOwner",
              "type": "address"
            },
            {
              "internalType": "address",
              "name": "escrowAddress",
              "type": "address"
            },
            {
              "internalType": "bool",
              "name": "apyEnabled",
              "type": "bool"
            },
            {
              "internalType": "address",
              "name": "wrappedTokenAddress",
              "type": "address"
            },
            {
              "internalType": "address",
              "name": "investmentManager",
              "type": "address"
            },
            {
              "internalType": "address",
              "name": "payoutTokenAddress",
              "type": "address"
            },
            {
              "internalType": "uint256",
              "name": "payoutRate",
              "type": "uint256"
            }
          ],
          "internalType": "struct InitConfig",
          "name": "config",
          "type": "tuple"
        }
      ],
      "name": "initialize",
      "outputs": [],
      "stateMutability": "nonpayable",
      "type": "function"
    },
    {
      "inputs": [
        {
          "internalType": "address",
          "name": "paymentToken",
          "type": "address"
        },
        {
          "internalType": "address",
          "name": "investor",
          "type": "address"
        },
        {
          "internalType": "uint256",
          "name": "paymentAmount",
          "type": "uint256"
        }
      ],
      "name": "invest",
      "outputs": [
        {
          "internalType": "uint256",
          "name": "",
          "type": "uint256"
        }
      ],
      "stateMutability": "payable",
      "type": "function"
    },
    {
      "inputs": [],
      "name": "investmentManager",
      "outputs": [
        {
          "internalType": "address",
          "name": "",
          "type": "address"
        }
      ],
      "stateMutability": "view",
      "type": "function"
    },
    {
      "inputs": [],
      "name": "isOfferingCancelled",
      "outputs": [
        {
          "internalType": "bool",
          "name": "",
          "type": "bool"
        }
      ],
      "stateMutability": "view",
      "type": "function"
    },
    {
      "inputs": [],
      "name": "isOfferingFinalized",
      "outputs": [
        {
          "internalType": "bool",
          "name": "",
          "type": "bool"
        }
      ],
      "stateMutability": "view",
      "type": "function"
    },
    {
      "inputs": [],
      "name": "isSaleClosed",
      "outputs": [
        {
          "internalType": "bool",
          "name": "",
          "type": "bool"
        }
      ],
      "stateMutability": "view",
      "type": "function"
    },
    {
      "inputs": [],
      "name": "isSoftCapReached",
      "outputs": [
        {
          "internalType": "bool",
          "name": "",
          "type": "bool"
        }
      ],
      "stateMutability": "view",
      "type": "function"
    },
    {
      "inputs": [],
      "name": "maxInvestment",
      "outputs": [
        {
          "internalType": "uint256",
          "name": "",
          "type": "uint256"
        }
      ],
      "stateMutability": "view",
      "type": "function"
    },
    {
      "inputs": [],
      "name": "minInvestment",
      "outputs": [
        {
          "internalType": "uint256",
          "name": "",
          "type": "uint256"
        }
      ],
      "stateMutability": "view",
      "type": "function"
    },
    {
      "inputs": [],
      "name": "pause",
      "outputs": [],
      "stateMutability": "nonpayable",
      "type": "function"
    },
    {
      "inputs": [],
      "name": "paused",
      "outputs": [
        {
          "internalType": "bool",
          "name": "",
          "type": "bool"
        }
      ],
      "stateMutability": "view",
      "type": "function"
    },
    {
      "inputs": [],
      "name": "payoutRate",
      "outputs": [
        {
          "internalType": "uint256",
          "name": "",
          "type": "uint256"
        }
      ],
      "stateMutability": "view",
      "type": "function"
    },
    {
      "inputs": [],
      "name": "payoutTokenAddress",
      "outputs": [
        {
          "internalType": "address",
          "name": "",
          "type": "address"
        }
      ],
      "stateMutability": "view",
      "type": "function"
    },
    {
      "inputs": [
        {
          "internalType": "address",
          "name": "",
          "type": "address"
        }
      ],
      "name": "pendingTokens",
      "outputs": [
        {
          "internalType": "uint256",
          "name": "",
          "type": "uint256"
        }
      ],
      "stateMutability": "view",
      "type": "function"
    },
    {
      "inputs": [
        {
          "internalType": "address",
          "name": "to",
          "type": "address"
        }
      ],
      "name": "reclaimUnclaimedTokens",
      "outputs": [],
      "stateMutability": "nonpayable",
      "type": "function"
    },
    {
      "inputs": [
        {
          "internalType": "address",
          "name": "token",
          "type": "address"
        }
      ],
      "name": "removeTokenOracle",
      "outputs": [],
      "stateMutability": "nonpayable",
      "type": "function"
    },
    {
      "inputs": [
        {
          "internalType": "bytes32",
          "name": "role",
          "type": "bytes32"
        },
        {
          "internalType": "address",
          "name": "callerConfirmation",
          "type": "address"
        }
      ],
      "name": "renounceRole",
      "outputs": [],
      "stateMutability": "nonpayable",
      "type": "function"
    },
    {
      "inputs": [
        {
          "internalType": "address",
          "name": "token",
          "type": "address"
        },
        {
          "internalType": "uint256",
          "name": "amount",
          "type": "uint256"
        },
        {
          "internalType": "address",
          "name": "to",
          "type": "address"
        }
      ],
      "name": "rescueTokens",
      "outputs": [],
      "stateMutability": "nonpayable",
      "type": "function"
    },
    {
      "inputs": [
        {
          "internalType": "bytes32",
          "name": "role",
          "type": "bytes32"
        },
        {
          "internalType": "address",
          "name": "account",
          "type": "address"
        }
      ],
      "name": "revokeRole",
      "outputs": [],
      "stateMutability": "nonpayable",
      "type": "function"
    },
    {
      "inputs": [],
      "name": "saleToken",
      "outputs": [
        {
          "internalType": "contract IERC20",
          "name": "",
          "type": "address"
        }
      ],
      "stateMutability": "view",
      "type": "function"
    },
    {
      "inputs": [
        {
          "internalType": "address",
          "name": "token",
          "type": "address"
        },
        {
          "internalType": "address",
          "name": "oracle",
          "type": "address"
        }
      ],
      "name": "setTokenOracle",
      "outputs": [],
      "stateMutability": "nonpayable",
      "type": "function"
    },
    {
      "inputs": [
        {
          "internalType": "address",
          "name": "token",
          "type": "address"
        },
        {
          "internalType": "bool",
          "name": "status",
          "type": "bool"
        }
      ],
      "name": "setWhitelistedPaymentToken",
      "outputs": [],
      "stateMutability": "nonpayable",
      "type": "function"
    },
    {
      "inputs": [],
      "name": "softCap",
      "outputs": [
        {
          "internalType": "uint256",
          "name": "",
          "type": "uint256"
        }
      ],
      "stateMutability": "view",
      "type": "function"
    },
    {
      "inputs": [],
      "name": "startDate",
      "outputs": [
        {
          "internalType": "uint256",
          "name": "",
          "type": "uint256"
        }
      ],
      "stateMutability": "view",
      "type": "function"
    },
    {
      "inputs": [
        {
          "internalType": "bytes4",
          "name": "interfaceId",
          "type": "bytes4"
        }
      ],
      "name": "supportsInterface",
      "outputs": [
        {
          "internalType": "bool",
          "name": "",
          "type": "bool"
        }
      ],
      "stateMutability": "view",
      "type": "function"
    },
    {
      "inputs": [
        {
          "internalType": "address",
          "name": "",
          "type": "address"
        }
      ],
      "name": "tokenOracles",
      "outputs": [
        {
          "internalType": "address",
          "name": "",
          "type": "address"
        }
      ],
      "stateMutability": "view",
      "type": "function"
    },
    {
      "inputs": [],
      "name": "tokenPrice",
      "outputs": [
        {
          "internalType": "uint256",
          "name": "",
          "type": "uint256"
        }
      ],
      "stateMutability": "view",
      "type": "function"
    },
    {
      "inputs": [
        {
          "internalType": "address",
          "name": "",
          "type": "address"
        }
      ],
      "name": "totalInvested",
      "outputs": [
        {
          "internalType": "uint256",
          "name": "",
          "type": "uint256"
        }
      ],
      "stateMutability": "view",
      "type": "function"
    },
    {
      "inputs": [],
      "name": "totalPendingTokens",
      "outputs": [
        {
          "internalType": "uint256",
          "name": "",
          "type": "uint256"
        }
      ],
      "stateMutability": "view",
      "type": "function"
    },
    {
      "inputs": [],
      "name": "totalRaised",
      "outputs": [
        {
          "internalType": "uint256",
          "name": "",
          "type": "uint256"
        }
      ],
      "stateMutability": "view",
      "type": "function"
    },
    {
      "inputs": [],
      "name": "treasury",
      "outputs": [
        {
          "internalType": "address",
          "name": "",
          "type": "address"
        }
      ],
      "stateMutability": "view",
      "type": "function"
    },
    {
      "inputs": [],
      "name": "unpause",
      "outputs": [],
      "stateMutability": "nonpayable",
      "type": "function"
    },
    {
      "inputs": [
        {
          "internalType": "address",
          "name": "",
          "type": "address"
        }
      ],
      "name": "whitelistedPaymentTokens",
      "outputs": [
        {
          "internalType": "bool",
          "name": "",
          "type": "bool"
        }
      ],
      "stateMutability": "view",
      "type": "function"
    },
    {
      "inputs": [],
      "name": "wrappedTokenAddress",
      "outputs": [
        {
          "internalType": "address",
          "name": "",
          "type": "address"
        }
      ],
      "stateMutability": "view",
      "type": "function"
    },
    {
      "stateMutability": "payable",
      "type": "receive"
    }
  ],
  "bytecode": "0x6080806040523461001b5760016002556132f290816100218239f35b600080fdfe608080604052600436101561009e575b50361561005a57606460405162461bcd60e51b815260206004820152601560248201527f46616c6c6261636b206e6f7420616363657074656400000000000000000000006044820152fd5b606460405162461bcd60e51b815260206004820152601960248201527f446972656374204c554d4941206e6f74206163636570746564000000000000006044820152fd5b600090813560e01c9081622e131614612d2c5750806301ffc9a714612c8b5780630b97bc8614612c6d5780630d5defa414612c465780631309b32414612bc65780631e1a268b14612ba3578063248a9ca314612b775780632b4353f214612b595780632f2ff15d14612b1c57806335a41aaf1461297657806336568abe146129165780633d70a11d146128645780633e6462081461283b5780633f4ba83a146127ac5780634b31bb10146127855780634c6c8a311461275f5780634cf08fbb146120415780634f4f7c2414611f255780634fff540214611eff5780635c975abb14611edc5780635cc0483814611eb557806361d027b314611e8b578063653ac4221461149357806371e281261461142e578063764467cc1461136257806377d392f01461111d5780637ff9b596146110ff57806380d32f85146110dc5780638456cb591461107657806386dea3ec14610ec157806388e32fc214610df55780638a18511314610dba5780638ac2c68014610d9c5780638cd0593314610d5c578063906a26e014610d3e57806390838e0914610d0657806391d1485414610cba578063a217fddf14610c9e578063b37fd1901461090c578063b473acf3146108e6578063b9662797146108c8578063bbcc0a06146108aa578063bd4924321461086f578063c031a66f14610837578063c24a0f8b14610819578063c5c4744c146107fb578063d0f3725f146107bc578063d547741f1461077b578063df695abb1461073e578063df8de3e7146103005763e985e3670361000f57346102fd57806003193601126102fd5760206001600160a01b0360035416604051908152f35b80fd5b50346102fd57602090816003193601126102fd5761031c612d48565b90610325613209565b61032d6130cf565b6001600160a01b039081600d541633036106d357610375600c5461037060ff808360081c169261035c84613242565b60101c16159161036b83613150565b613242565b613150565b8183169182825260148552604082205493841561068f576024868360035416604051928380926370a0823160e01b82523060048301525afa908115610552579086918591610659575b501061061557838352601486528260408120556103dd85600b5461328d565b600b55858560ff600c5460181c1660001461055d579061043691846003541685600c54841c168760405180968195829463095ea7b360e01b845260048401602090939291936001600160a01b0360408201951681520152565b03925af1801561055257610525575b50670de0b6b3a764000061045b601254876131be565b0491600c54871c1690813b15610521576040517ff8abbb410000000000000000000000000000000000000000000000000000000081526001600160a01b0391909116600482015260248101869052604481019290925282908290606490829084905af1801561051657610502575b50505b7fd8138f8a3f377c5259ca548e70e4c2de94f129f5a11036a15b69513cba2b426a83604051848152a26001600255604051908152f35b61050c8291612d74565b6102fd57806104c9565b6040513d84823e3d90fd5b8380fd5b61054490873d891161054b575b61053c8183612d88565b8101906131f1565b5038610445565b503d610532565b6040513d86823e3d90fd5b60035460405163a9059cbb60e01b81526001600160a01b03949094166004850152602484019190915291929091839160449183918791165af191821561060957916105ec575b506104cc576064836040519062461bcd60e51b82526004820152601560248201527f546f6b656e207472616e73666572206661696c656400000000000000000000006044820152fd5b6106039150843d861161054b5761053c8183612d88565b386105a3565b604051903d90823e3d90fd5b6064866040519062461bcd60e51b82526004820152601860248201527f496e73756666696369656e742073616c6520746f6b656e7300000000000000006044820152fd5b809250888092503d8311610688575b6106728183612d88565b8101031261068357859051386103be565b600080fd5b503d610668565b6064866040519062461bcd60e51b82526004820152601260248201527f4e6f20746f6b656e7320746f20636c61696d00000000000000000000000000006044820152fd5b60405162461bcd60e51b815260206004820152602c60248201527f43616c6c6572206973206e6f742074686520696e766573746d656e744d616e6160448201527f67657220636f6e747261637400000000000000000000000000000000000000006064820152608490fd5b50346102fd5760203660031901126102fd5760ff60406020926001600160a01b03610767612d48565b168152601384522054166040519015158152f35b50346102fd5760403660031901126102fd576107b860043561079b612d5e565b90808452836020526107b36001604086200154612e77565b613059565b5080f35b50346102fd57806003193601126102fd576020600c5460ff8160081c161590816107ec575b506040519015158152f35b60ff915060101c1615826107e1565b50346102fd57806003193601126102fd576020600a54604051908152f35b50346102fd57806003193601126102fd576020600754604051908152f35b50346102fd5760203660031901126102fd5760406020916001600160a01b0361085e612d48565b168152601483522054604051908152f35b50346102fd5760203660031901126102fd5760209060406001600160a01b039182610898612d48565b16815260168452205416604051908152f35b50346102fd57806003193601126102fd576020600b54604051908152f35b50346102fd57806003193601126102fd576020600954604051908152f35b50346102fd57806003193601126102fd57602060ff600c5460101c166040519015158152f35b50346102fd5760603660031901126102fd57610926612d48565b602480356044918235926001600160a01b0393848116958682036106835761094c612daa565b610954613209565b8615610c5b5785169485610a835750834710610a40578680808681945af13d15610a3b573d67ffffffffffffffff8111610a2857604051906109a0601f8201601f191660200183612d88565b81528760203d92013e5b156109e557505060207fd27dd37d941f5a1b76926e48140fdbf50a0c59defb5431a391a1260279eb1c4c915b604051908152a3600160025580f35b907f4c554d494120726573637565206661696c65640000000000000000000000000060649260136040519362461bcd60e51b855260206004860152840152820152fd5b8388634e487b7160e01b81526041600452fd5b6109aa565b6064837f4e6f7420656e6f756768204c554d4941000000000000000000000000000000008460106040519362461bcd60e51b855260206004860152840152820152fd5b600393919354168514610c1957604051926370a0823160e01b8452306004850152602093848184818a5afa8015610c0e5786918a91610bdd575b5010610b9b5760405163a9059cbb60e01b81526001600160a01b039190911660048201526024810185905283816044818b8a5af1908115610b90578891610b73575b5015610b315750505060207fd27dd37d941f5a1b76926e48140fdbf50a0c59defb5431a391a1260279eb1c4c916109d6565b6064929160137f455243323020726573637565206661696c656400000000000000000000000000926040519462461bcd60e51b86526004860152840152820152fd5b610b8a9150843d861161054b5761053c8183612d88565b38610aff565b6040513d8a823e3d90fd5b6064847f4e6f7420656e6f75676820746f6b656e73000000000000000000000000000000856011866040519462461bcd60e51b86526004860152840152820152fd5b809250868092503d8311610c07575b610bf68183612d88565b810103126106835785905138610abd565b503d610bec565b6040513d8b823e3d90fd5b7f43616e6e6f74207265736375652073616c65546f6b656e00000000000000000060649260176040519362461bcd60e51b855260206004860152840152820152fd5b6064847f496e76616c696420726563697069656e740000000000000000000000000000008560116040519362461bcd60e51b855260206004860152840152820152fd5b50346102fd57806003193601126102fd57602090604051908152f35b50346102fd5760403660031901126102fd576001600160a01b036040610cde612d5e565b92600435815280602052209116600052602052602060ff604060002054166040519015158152f35b50346102fd5760203660031901126102fd5760406020916001600160a01b03610d2d612d48565b168152601583522054604051908152f35b50346102fd57806003193601126102fd576020600854604051908152f35b50346102fd57806003193601126102fd5760ff60105416604051906003811015610d8857602092508152f35b602483634e487b7160e01b81526021600452fd5b50346102fd57806003193601126102fd576020600454604051908152f35b50346102fd57806003193601126102fd5760206040517f35369b3a7bb98c90641a907c2fd643ea781341eba72ccffd47cb018c128c48c38152f35b50346102fd5760203660031901126102fd57610e0f612d48565b610e17612daa565b6001600160a01b0380911690818352601660205260408320541615610e7d578082526016602052604082206001600160a01b031981541690557fc1d3048301c0d23629a2532c8defa6d68f8e1a0e4157918769e9fb1b2eeb888e6020604051848152a280f35b606460405162461bcd60e51b815260206004820152601360248201527f4e6f206f7261636c6520746f2072656d6f7665000000000000000000000000006044820152fd5b50346102fd57806003193601126102fd57610eda612e1b565b600a546008541161103257600c54610ef860ff8260081c1615613105565b610f0860ff8260101c1615613150565b60ff8116610fee57610101829161ffff19161780600c5560ff8160181c1680610fd9575b610f8c575b507f88a7d28eab96d3365f5163f9ec845ac889ace5a29ae33059254ee6493dee4a616020604051428152a17fcb67f20f64495b30f15524c55f90201dd6571d6b5c19dac183d2aeb25315b2dc6020600a54604051908152a180f35b60201c6001600160a01b0316803b15610fd6578180916004604051809481936378bd678b60e11b83525af180156105165715610f3157610fcb90612d74565b6102fd578038610f31565b50fd5b506001600160a01b038160201c161515610f2c565b606460405162461bcd60e51b815260206004820152601360248201527f53616c6520616c726561647920636c6f736564000000000000000000000000006044820152fd5b606460405162461bcd60e51b815260206004820152601460248201527f536f667420636170206e6f7420726561636865640000000000000000000000006044820152fd5b50346102fd57806003193601126102fd5761108f612daa565b6110976130cf565b600160ff198154161760015560206040513381527f62e78cea01bee320cd4e420270b5ea74000d11b0c9f74754ebdbfc544b05a258918291a16020604051338152a180f35b50346102fd57806003193601126102fd576020600a546008541115604051908152f35b50346102fd57806003193601126102fd576020601254604051908152f35b50346102fd5760208060031936011261135e57611138612d48565b90611141612e1b565b611149613209565b61116360ff600c5460081c1661115e8161329a565b61329a565b6001600160a01b039182811692831561131a57600354166040516370a0823160e01b81523060048201528381602481855afa801561130f5786906112e0575b6111b09150600b549061328d565b91821561129c5760405163a9059cbb60e01b81526001600160a01b03919091166004820152602481018390529083908290604490829089905af1908115611291578591611274575b501561123057907ffcbf6553b2cfc097c2301f1c071469a8839b462e7287e3692f238ccfc6b9208f91604051908152a2600160025580f35b6064826040519062461bcd60e51b82526004820152600e60248201527f5265636c61696d206661696c65640000000000000000000000000000000000006044820152fd5b61128b9150833d851161054b5761053c8183612d88565b386111f8565b6040513d87823e3d90fd5b6064846040519062461bcd60e51b82526004820152601360248201527f4e6f20756e636c61696d656420746f6b656e73000000000000000000000000006044820152fd5b508381813d8311611308575b6112f68183612d88565b81010312610683576111b090516111a2565b503d6112ec565b6040513d88823e3d90fd5b6064836040519062461bcd60e51b82526004820152600f60248201527f496e76616c6964206164647265737300000000000000000000000000000000006044820152fd5b5080fd5b50346102fd5760403660031901126102fd5761137c612d48565b611384612d5e565b61138c612daa565b6001600160a01b038091169182156113ea577fc1d3048301c0d23629a2532c8defa6d68f8e1a0e4157918769e9fb1b2eeb888e9160209116928385526016825260408520816001600160a01b0319825416179055604051908152a280f35b606460405162461bcd60e51b815260206004820152601660248201527f496e76616c6964206f7261636c652061646472657373000000000000000000006044820152fd5b50346102fd57806003193601126102fd576007544210801590611485575b80611475575b80611465575b6020906040519015158152f35b50600c5460101c60ff1615611458565b5060ff600c5460081c1615611452565b50600a54600854111561144c565b5060603660031901126102fd576114a8612d48565b906114b1612d5e565b9060449283356114bf613209565b6114c76130cf565b6001600160a01b039384600d541633036106d3578416918215611e4757600c5460ff8116611e035760ff6115039160101c161561037081613150565b6006544210611dbf57600754421015611d7b57848116938481526020966013885260ff60408320541615611d38578315611cf55785825260168852866040832054168015611cb25760406004918151928380927f57de26a40000000000000000000000000000000000000000000000000000000082525afa908115611ca7578391611c5a575b50601b0b9682881315611c17578615968715611b94576115ac6012995b876131be565b670de0b6b3a7640000998a8202918083048c1490151715611ab75760ff16604d8111611ab7578a916115e191600a0a906131d1565b04976004548910611b515787855260158b5261160189604087205461319b565b60055410611b0e57600a54996116178a8c61319b565b60095410611acb57808a02908a8204148a151715611ab75760125461163b916131d1565b998a15611a74578961164c9161319b565b600a5587855260158b52604085206116658a825461319b565b9055156118a357508434036118605760115416803b1561185c578290604051928380927f701bb89100000000000000000000000000000000000000000000000000000000825230600483015289602483015234905af1801561051657611848575b509060407f93638e6cf18b4f6a839de65df95898221f5d9f7dc54b87d4b31d40297643266e93925b858152601489522061170187825461319b565b905561170f86600b5461319b565b600b5561173c86604051938493846040919493926001600160a01b03606083019616825260208201520152565b0390a2600a54600854909181831015908180611836575b611803575b816117f0575b506117bb575b508260095482101561177e575b6001600255604051838152f35b7fcb67f20f64495b30f15524c55f90201dd6571d6b5c19dac183d2aeb25315b2dc91600160ff19600c541617600c55604051908152a13882611771565b60407fb43ca1b105f16771375b5b40a413666f837e4732dc6dd193f408c02736edac859181519084825286820152a138611764565b6117fb91508261319b565b82103861175e565b7fb43ca1b105f16771375b5b40a413666f837e4732dc6dd193f408c02736edac85604080518681528589820152a1611758565b50611841818461319b565b8410611753565b6118528291612d74565b6102fd57386116c6565b8280fd5b6064897f496e636f7272656374206e617469766520616d6f756e74000000000000000000846040519262461bcd60e51b8452600484015260176024840152820152fd5b9034611a0b576040517f23b872dd00000000000000000000000000000000000000000000000000000000815287600482015230602482015286848201528a8160648188875af18015611291576119ee575b5060115460405163095ea7b360e01b81529082166001600160a01b03166004820152602481018790528a8160448188875af18015611291576119d1575b506011541691823b156105215790608484928360405195869485937f0ef7c5a70000000000000000000000000000000000000000000000000000000085523060048601528c60248601528401528960648401525af18015610516576119bd575b509060407f93638e6cf18b4f6a839de65df95898221f5d9f7dc54b87d4b31d40297643266e93926116ee565b6119c78291612d74565b6102fd5738611991565b6119e7908b3d8d1161054b5761053c8183612d88565b5038611931565b611a04908b3d8d1161054b5761053c8183612d88565b50386118f4565b60848a7f446f206e6f742073656e642045544820666f7220746f6b656e207061796d656e856040519262461bcd60e51b84526004840152602160248401528201527f74000000000000000000000000000000000000000000000000000000000000006064820152fd5b60648c7f546f6b656e20616d6f756e7420746f6f206c6f77000000000000000000000000876040519262461bcd60e51b8452600484015260146024840152820152fd5b602486634e487b7160e01b81526011600452fd5b60648c7f4578636565647320636170000000000000000000000000000000000000000000876040519262461bcd60e51b84526004840152600b6024840152820152fd5b60648b7f45786365656473206d617820696e766573746d656e7400000000000000000000866040519262461bcd60e51b8452600484015260166024840152820152fd5b60648b7f42656c6f77206d696e20696e766573746d656e74000000000000000000000000866040519262461bcd60e51b8452600484015260146024840152820152fd5b6040517f313ce5670000000000000000000000000000000000000000000000000000000081528a81600481855afa8015611291578590611bda575b6115ac9150996115a6565b508a81813d8311611c10575b611bf08183612d88565b81010312611c0c575160ff81168103611c0c576115ac90611bcf565b8480fd5b503d611be6565b6064897f496e76616c696420707269636500000000000000000000000000000000000000846040519262461bcd60e51b84526004840152600d6024840152820152fd5b90506040813d604011611c9f575b81611c7560409383612d88565b8101031261185c5780519081601b0b82036105215789015163ffffffff81160361185c5738611589565b3d9150611c68565b6040513d85823e3d90fd5b6064897f4f7261636c65206e6f7420736574000000000000000000000000000000000000846040519262461bcd60e51b84526004840152600e6024840152820152fd5b877f5a65726f20616d6f756e740000000000000000000000000000000000000000006064926040519262461bcd60e51b84526004840152600b6024840152820152fd5b877f546f6b656e206e6f742077686974656c697374656400000000000000000000006064926040519262461bcd60e51b8452600484015260156024840152820152fd5b6064867f53616c6520656e646564000000000000000000000000000000000000000000006040519162461bcd60e51b835260206004840152600a6024840152820152fd5b6064867f53616c65206e6f742073746172746564000000000000000000000000000000006040519162461bcd60e51b83526020600484015260106024840152820152fd5b6064877f53616c6520697320636c6f7365640000000000000000000000000000000000006040519162461bcd60e51b835260206004840152600e6024840152820152fd5b6064867f496e76616c696420696e766573746f72206164647265737300000000000000006040519162461bcd60e51b83526020600484015260186024840152820152fd5b50346102fd57806003193601126102fd5760206001600160a01b0360105460101c16604051908152f35b50346102fd57806003193601126102fd5760206001600160a01b03600e5416604051908152f35b50346102fd57806003193601126102fd57602060ff600154166040519015158152f35b50346102fd57806003193601126102fd57602060ff600c5460181c166040519015158152f35b50346102fd57806003193601126102fd57611f3e612e1b565b600c54611f5160ff8260081c1615613105565b60ff8160101c16611ffd5762ff00ff19166201000117600c5560115481906001600160a01b0316803b15610fd6578180916004604051809481937fdcdcafaa0000000000000000000000000000000000000000000000000000000083525af1801561051657611fe9575b507f0a94fbe15a0ddbadfc15077a69292dd28a535c34f78b22a3fcac5463a9e1256d6020604051428152a180f35b611ff290612d74565b6102fd578038611fbb565b606460405162461bcd60e51b815260206004820152601160248201527f416c72656164792063616e63656c6c65640000000000000000000000000000006044820152fd5b50346102fd576101e08060031936011261135e5760405190810181811067ffffffffffffffff82111761274957604052612079612d48565b8152602435602082015260443560408201526064356060820152608435608082015260a43560a082015260c43560c082015260e43560e08201526001600160a01b036101043516610104350361068357610104356101008201526001600160a01b0361012435166101243503610683576101243561012082015261014435801515810361068357610140820152610164356001600160a01b0381168103610683576101608201526001600160a01b036101843516610184350361068357610184356101808201526001600160a01b036101a435166101a43503610683576101a4356101a08201526101c4356101c082015260ff60105460081c16612705576001600160a01b03815116156126c1576001600160a01b03610100820151161561267d576001600160a01b036101208201511615612639576001600160a01b0361018082015116156125cf5760a08101511561258b5760c0810151156125475760a081015160c0820151106124dd5760e0810151156124995760208101516040820151106124555760608101514211612411576060810151608082015111156123a7576001600160a01b036101a08201511615612363576001600160a01b0361010082826123509451166001600160a01b03196003541617600355602081015160045560408101516005556060810151600655608081015160075560a081015160085560c081015160095560e081015160125582610120820151166001600160a01b031960115416176011556101408101511515600c547fffffffffffffffff000000000000000000000000000000000000000000ffffff63ff00000077ffffffffffffffffffffffffffffffffffffffff0000000061016086015160201b169360181b1691161717600c5582610180820151166001600160a01b0319600d541617600d55826101a0820151166001600160a01b0319600e541617600e556101c0810151600f5561234733612e9d565b50015116612f2d565b5061010061ff0019601054161760105580f35b606460405162461bcd60e51b815260206004820152601c60248201527f496e76616c6964207061796f757420746f6b656e2061646472657373000000006044820152fd5b608460405162461bcd60e51b815260206004820152602260248201527f53746172742064617465206d757374206265206265666f726520656e6420646160448201527f74650000000000000000000000000000000000000000000000000000000000006064820152fd5b606460405162461bcd60e51b815260206004820152602060248201527f53746172742064617465206d75737420626520696e20746865206675747572656044820152fd5b606460405162461bcd60e51b815260206004820152601460248201527f4d696e203e206d617820696e766573746d656e740000000000000000000000006044820152fd5b606460405162461bcd60e51b815260206004820152601c60248201527f546f6b656e207072696365206d75737420626520706f736974697665000000006044820152fd5b608460405162461bcd60e51b815260206004820152602660248201527f536f6674206361702063616e6e6f74206578636565642066756e64726169736960448201527f6e672063617000000000000000000000000000000000000000000000000000006064820152fd5b606460405162461bcd60e51b815260206004820152602060248201527f46756e6472616973696e6720636170206d75737420626520706f7369746976656044820152fd5b606460405162461bcd60e51b815260206004820152601960248201527f536f667420636170206d75737420626520706f736974697665000000000000006044820152fd5b608460405162461bcd60e51b815260206004820152602260248201527f496e76616c696420696e766573746d656e74206d616e6167657220616464726560448201527f73730000000000000000000000000000000000000000000000000000000000006064820152fd5b606460405162461bcd60e51b815260206004820152601660248201527f496e76616c696420657363726f772061646472657373000000000000000000006044820152fd5b606460405162461bcd60e51b815260206004820152601360248201527f496e76616c696420746f6b656e206f776e6572000000000000000000000000006044820152fd5b606460405162461bcd60e51b815260206004820152601260248201527f496e76616c69642073616c6520746f6b656e00000000000000000000000000006044820152fd5b606460405162461bcd60e51b815260206004820152601360248201527f416c726561647920696e697469616c697a6564000000000000000000000000006044820152fd5b634e487b7160e01b600052604160045260246000fd5b50346102fd57806003193601126102fd57602060ff600c5460081c166040519015158152f35b50346102fd57806003193601126102fd5760206001600160a01b03600d5416604051908152f35b50346102fd57806003193601126102fd576127c5612daa565b60015460ff8116156128115760ff191660015560206040513381527f5db9ee0a495bf2e6ff9c91a7834c1ba4fdd244a5e8aa4e537bd38aeae4b073aa918291a16020604051338152a180f35b60046040517f8dfc202b000000000000000000000000000000000000000000000000000000008152fd5b50346102fd57806003193601126102fd576020600c546001600160a01b0360405191831c168152f35b50346102fd57806003193601126102fd576006544210158061290b575b806128fe575b806128ee575b61012090600c54600a546008546009549160ff60075494604051961515875281811615156020880152818160081c161515604088015260101c161515606086015281811015608086015260a085015260c084015260e0830152610100820152f35b50600c5460101c60ff161561288d565b5060ff600c541615612887565b506007544210612881565b50346102fd5760403660031901126102fd57612930612d5e565b336001600160a01b0382160361294c576107b890600435613059565b60046040517f6697b232000000000000000000000000000000000000000000000000000000008152fd5b50346102fd57806003193601126102fd576001600160a01b0380601154163303612ad8576007544210612a94578190610101600c546129bb60ff8260081c1615613105565b6129cb60ff8260101c1615613150565b61ffff19161780600c5560ff8160181c1680612a86575b612a42575b827f88a7d28eab96d3365f5163f9ec845ac889ace5a29ae33059254ee6493dee4a616020604051428152a17fcb67f20f64495b30f15524c55f90201dd6571d6b5c19dac183d2aeb25315b2dc6020600a54604051908152a180f35b60201c16803b15610fd65781906004604051809481936378bd678b60e11b83525af1801561051657612a77575b8082916129e7565b612a8090612d74565b38612a6f565b50818160201c1615156129e2565b606460405162461bcd60e51b815260206004820152601260248201527f53616c65206e6f7420656e6465642079657400000000000000000000000000006044820152fd5b606460405162461bcd60e51b815260206004820152601a60248201527f4e6f7420617574686f72697a656420746f2066696e616c697a650000000000006044820152fd5b50346102fd5760403660031901126102fd576107b8600435612b3c612d5e565b9080845283602052612b546001604086200154612e77565b612fdf565b50346102fd57806003193601126102fd576020600f54604051908152f35b50346102fd5760203660031901126102fd57600160406020926004358152808452200154604051908152f35b50346102fd57806003193601126102fd57602060ff600c54166040519015158152f35b50346102fd5760403660031901126102fd57612be0612d48565b6024359081151580920361185c5760206001600160a01b037f91ad45a5ce97c5eee55fa01496772afefc7f0757ed9eac59064e642690509dfb92612c22612daa565b1692838552601382526040852060ff1981541660ff8316179055604051908152a280f35b50346102fd57806003193601126102fd5760206001600160a01b0360115416604051908152f35b50346102fd57806003193601126102fd576020600654604051908152f35b50346102fd5760203660031901126102fd576004357fffffffff00000000000000000000000000000000000000000000000000000000811680910361135e57807f7965db0b0000000000000000000000000000000000000000000000000000000060209214908115612d0257506040519015158152f35b7f01ffc9a700000000000000000000000000000000000000000000000000000000915014826107e1565b90503461135e578160031936011261135e576020906005548152f35b600435906001600160a01b038216820361068357565b602435906001600160a01b038216820361068357565b67ffffffffffffffff811161274957604052565b90601f8019910116810190811067ffffffffffffffff82111761274957604052565b3360009081527fad3228b676f7d3cd4284a5443f17f1962b36e491b30a40b2405849e597ba5fb5602052604081205460ff1615612de45750565b604490604051907fe2517d3f0000000000000000000000000000000000000000000000000000000082523360048301526024820152fd5b3360009081527f7dfc0114fc2b0320947240cbd60a9ffc193468a941c37441e641a928a8c116d560205260409020547f35369b3a7bb98c90641a907c2fd643ea781341eba72ccffd47cb018c128c48c39060ff1615612de45750565b80600052600060205260406000203360005260205260ff6040600020541615612de45750565b6001600160a01b031660008181527fad3228b676f7d3cd4284a5443f17f1962b36e491b30a40b2405849e597ba5fb5602052604081205490919060ff16612f2957818052816020526040822081835260205260408220600160ff1982541617905533917f2f8788117e7eff1d82e926ec794901d17c78024a50270940304540a733656f0d8180a4600190565b5090565b6001600160a01b031660008181527f7dfc0114fc2b0320947240cbd60a9ffc193468a941c37441e641a928a8c116d560205260408120549091907f35369b3a7bb98c90641a907c2fd643ea781341eba72ccffd47cb018c128c48c39060ff16612fda57808352826020526040832082845260205260408320600160ff198254161790557f2f8788117e7eff1d82e926ec794901d17c78024a50270940304540a733656f0d339380a4600190565b505090565b90600091808352826020526001600160a01b036040842092169182845260205260ff60408420541615600014612fda57808352826020526040832082845260205260408320600160ff198254161790557f2f8788117e7eff1d82e926ec794901d17c78024a50270940304540a733656f0d339380a4600190565b90600091808352826020526001600160a01b036040842092169182845260205260ff604084205416600014612fda5780835282602052604083208284526020526040832060ff1981541690557ff6391f5c32d9c69d2a47ea670b442974b53935d1edc7fd64eb21e047a839171b339380a4600190565b60ff600154166130db57565b60046040517fd93c0665000000000000000000000000000000000000000000000000000000008152fd5b1561310c57565b606460405162461bcd60e51b815260206004820152601160248201527f416c72656164792066696e616c697a65640000000000000000000000000000006044820152fd5b1561315757565b606460405162461bcd60e51b815260206004820152601560248201527f4f66666572696e672069732063616e63656c6c656400000000000000000000006044820152fd5b919082018092116131a857565b634e487b7160e01b600052601160045260246000fd5b818102929181159184041417156131a857565b81156131db570490565b634e487b7160e01b600052601260045260246000fd5b90816020910312610683575180151581036106835790565b60028054146132185760028055565b60046040517f3ee5aeb5000000000000000000000000000000000000000000000000000000008152fd5b1561324957565b606460405162461bcd60e51b815260206004820152601a60248201527f4f66666572696e67206e6f742066696e616c697a6564207965740000000000006044820152fd5b919082039182116131a857565b156132a157565b606460405162461bcd60e51b815260206004820152601660248201527f4f66666572696e67206e6f742066696e616c697a6564000000000000000000006044820152fdfea164736f6c6343000814000a",
  "linkReferences": {},
  "deployedLinkReferences": {}
}