{
  "_format": "hh-sol-artifact-1",
  "contractName": "OfferingFactory",
  "sourceName": "contracts/OfferingFactory.sol",
  "abi": [
    {
      "inputs": [
        {
          "internalType": "address",
          "name": "_wrappedTokenFactory",
          "type": "address"
        }
      ],
      "stateMutability": "nonpayable",
      "type": "constructor"
    },
    {
      "inputs": [
        {
          "internalType": "address",
          "name": "owner",
          "type": "address"
        }
      ],
      "name": "OwnableInvalidOwner",
      "type": "error"
    },
    {
      "inputs": [
        {
          "internalType": "address",
          "name": "account",
          "type": "address"
        }
      ],
      "name": "OwnableUnauthorizedAccount",
      "type": "error"
    },
    {
      "anonymous": false,
      "inputs": [
        {
          "indexed": true,
          "internalType": "uint256",
          "name": "offeringId",
          "type": "uint256"
        },
        {
          "indexed": true,
          "internalType": "address",
          "name": "creator",
          "type": "address"
        },
        {
          "indexed": true,
          "internalType": "address",
          "name": "offeringAddress",
          "type": "address"
        },
        {
          "indexed": false,
          "internalType": "address",
          "name": "tokenOwner",
          "type": "address"
        }
      ],
      "name": "OfferingDeployed",
      "type": "event"
    },
    {
      "anonymous": false,
      "inputs": [
        {
          "indexed": true,
          "internalType": "address",
          "name": "previousOwner",
          "type": "address"
        },
        {
          "indexed": true,
          "internalType": "address",
          "name": "newOwner",
          "type": "address"
        }
      ],
      "name": "OwnershipTransferred",
      "type": "event"
    },
    {
      "anonymous": false,
      "inputs": [
        {
          "indexed": true,
          "internalType": "address",
          "name": "usdtAddress",
          "type": "address"
        },
        {
          "indexed": true,
          "internalType": "address",
          "name": "usdtOracleAddress",
          "type": "address"
        }
      ],
      "name": "USDTConfigUpdated",
      "type": "event"
    },
    {
      "anonymous": false,
      "inputs": [
        {
          "indexed": true,
          "internalType": "address",
          "name": "oldFactory",
          "type": "address"
        },
        {
          "indexed": true,
          "internalType": "address",
          "name": "newFactory",
          "type": "address"
        }
      ],
      "name": "WrappedTokenFactoryUpdated",
      "type": "event"
    },
    {
      "inputs": [
        {
          "internalType": "address",
          "name": "",
          "type": "address"
        },
        {
          "internalType": "uint256",
          "name": "",
          "type": "uint256"
        }
      ],
      "name": "byOwner",
      "outputs": [
        {
          "internalType": "uint256",
          "name": "",
          "type": "uint256"
        }
      ],
      "stateMutability": "view",
      "type": "function"
    },
    {
      "inputs": [],
      "name": "count",
      "outputs": [
        {
          "internalType": "uint256",
          "name": "",
          "type": "uint256"
        }
      ],
      "stateMutability": "view",
      "type": "function"
    },
    {
      "inputs": [
        {
          "components": [
            {
              "internalType": "address",
              "name": "saleToken",
              "type": "address"
            },
            {
              "internalType": "uint256",
              "name": "minInvestment",
              "type": "uint256"
            },
            {
              "internalType": "uint256",
              "name": "maxInvestment",
              "type": "uint256"
            },
            {
              "internalType": "uint256",
              "name": "startDate",
              "type": "uint256"
            },
            {
              "internalType": "uint256",
              "name": "endDate",
              "type": "uint256"
            },
            {
              "internalType": "bool",
              "name": "apyEnabled",
              "type": "bool"
            },
            {
              "internalType": "uint256",
              "name": "softCap",
              "type": "uint256"
            },
            {
              "internalType": "uint256",
              "name": "fundraisingCap",
              "type": "uint256"
            },
            {
              "internalType": "uint256",
              "name": "tokenPrice",
              "type": "uint256"
            },
            {
              "internalType": "address",
              "name": "tokenOwner",
              "type": "address"
            },
            {
              "internalType": "address",
              "name": "escrowAddress",
              "type": "address"
            },
            {
              "internalType": "address",
              "name": "investmentManager",
              "type": "address"
            },
            {
              "internalType": "address",
              "name": "payoutTokenAddress",
              "type": "address"
            },
            {
              "internalType": "uint256",
              "name": "payoutRate",
              "type": "uint256"
            },
            {
              "internalType": "uint256",
              "name": "payoutPeriodDuration",
              "type": "uint256"
            },
            {
              "internalType": "uint256",
              "name": "maturityDate",
              "type": "uint256"
            }
          ],
          "internalType": "struct CreateOfferingConfig",
          "name": "config",
          "type": "tuple"
        }
      ],
      "name": "createOffering",
      "outputs": [
        {
          "internalType": "address",
          "name": "offeringAddress",
          "type": "address"
        }
      ],
      "stateMutability": "nonpayable",
      "type": "function"
    },
    {
      "inputs": [
        {
          "components": [
            {
              "internalType": "address",
              "name": "saleToken",
              "type": "address"
            },
            {
              "internalType": "uint256",
              "name": "minInvestment",
              "type": "uint256"
            },
            {
              "internalType": "uint256",
              "name": "maxInvestment",
              "type": "uint256"
            },
            {
              "internalType": "uint256",
              "name": "startDate",
              "type": "uint256"
            },
            {
              "internalType": "uint256",
              "name": "endDate",
              "type": "uint256"
            },
            {
              "internalType": "bool",
              "name": "apyEnabled",
              "type": "bool"
            },
            {
              "internalType": "uint256",
              "name": "softCap",
              "type": "uint256"
            },
            {
              "internalType": "uint256",
              "name": "fundraisingCap",
              "type": "uint256"
            },
            {
              "internalType": "uint256",
              "name": "tokenPrice",
              "type": "uint256"
            },
            {
              "internalType": "address",
              "name": "tokenOwner",
              "type": "address"
            },
            {
              "internalType": "address",
              "name": "escrowAddress",
              "type": "address"
            },
            {
              "internalType": "address",
              "name": "investmentManager",
              "type": "address"
            },
            {
              "internalType": "address",
              "name": "payoutTokenAddress",
              "type": "address"
            },
            {
              "internalType": "uint256",
              "name": "payoutRate",
              "type": "uint256"
            },
            {
              "internalType": "uint256",
              "name": "payoutPeriodDuration",
              "type": "uint256"
            },
            {
              "internalType": "uint256",
              "name": "maturityDate",
              "type": "uint256"
            }
          ],
          "internalType": "struct CreateOfferingConfig",
          "name": "config",
          "type": "tuple"
        },
        {
          "internalType": "address[]",
          "name": "paymentTokens",
          "type": "address[]"
        },
        {
          "internalType": "address[]",
          "name": "oracles",
          "type": "address[]"
        }
      ],
      "name": "createOfferingWithPaymentTokens",
      "outputs": [
        {
          "internalType": "address",
          "name": "offeringAddress",
          "type": "address"
        }
      ],
      "stateMutability": "nonpayable",
      "type": "function"
    },
    {
      "inputs": [],
      "name": "getAllOfferings",
      "outputs": [
        {
          "internalType": "address[]",
          "name": "",
          "type": "address[]"
        }
      ],
      "stateMutability": "view",
      "type": "function"
    },
    {
      "inputs": [
        {
          "internalType": "uint256",
          "name": "offeringId",
          "type": "uint256"
        }
      ],
      "name": "getOfferingAddress",
      "outputs": [
        {
          "internalType": "address",
          "name": "",
          "type": "address"
        }
      ],
      "stateMutability": "view",
      "type": "function"
    },
    {
      "inputs": [
        {
          "internalType": "address",
          "name": "tokenOwner",
          "type": "address"
        }
      ],
      "name": "getOfferingIdsByTokenOwner",
      "outputs": [
        {
          "internalType": "uint256[]",
          "name": "",
          "type": "uint256[]"
        }
      ],
      "stateMutability": "view",
      "type": "function"
    },
    {
      "inputs": [
        {
          "internalType": "address",
          "name": "offeringAddress",
          "type": "address"
        }
      ],
      "name": "getOfferingOwner",
      "outputs": [
        {
          "internalType": "address",
          "name": "",
          "type": "address"
        }
      ],
      "stateMutability": "view",
      "type": "function"
    },
    {
      "inputs": [],
      "name": "getUSDTConfig",
      "outputs": [
        {
          "internalType": "address",
          "name": "usdtToken",
          "type": "address"
        },
        {
          "internalType": "address",
          "name": "usdtOracle",
          "type": "address"
        }
      ],
      "stateMutability": "view",
      "type": "function"
    },
    {
      "inputs": [
        {
          "internalType": "uint256",
          "name": "",
          "type": "uint256"
        }
      ],
      "name": "offerings",
      "outputs": [
        {
          "internalType": "address",
          "name": "",
          "type": "address"
        }
      ],
      "stateMutability": "view",
      "type": "function"
    },
    {
      "inputs": [],
      "name": "owner",
      "outputs": [
        {
          "internalType": "address",
          "name": "",
          "type": "address"
        }
      ],
      "stateMutability": "view",
      "type": "function"
    },
    {
      "inputs": [
        {
          "internalType": "address",
          "name": "",
          "type": "address"
        }
      ],
      "name": "owners",
      "outputs": [
        {
          "internalType": "address",
          "name": "",
          "type": "address"
        }
      ],
      "stateMutability": "view",
      "type": "function"
    },
    {
      "inputs": [],
      "name": "renounceOwnership",
      "outputs": [],
      "stateMutability": "nonpayable",
      "type": "function"
    },
    {
      "inputs": [
        {
          "internalType": "address",
          "name": "_usdtAddress",
          "type": "address"
        },
        {
          "internalType": "address",
          "name": "_usdtOracleAddress",
          "type": "address"
        }
      ],
      "name": "setUSDTConfig",
      "outputs": [],
      "stateMutability": "nonpayable",
      "type": "function"
    },
    {
      "inputs": [
        {
          "internalType": "address",
          "name": "_wrappedTokenFactory",
          "type": "address"
        }
      ],
      "name": "setWrappedTokenFactory",
      "outputs": [],
      "stateMutability": "nonpayable",
      "type": "function"
    },
    {
      "inputs": [
        {
          "internalType": "address",
          "name": "newOwner",
          "type": "address"
        }
      ],
      "name": "transferOwnership",
      "outputs": [],
      "stateMutability": "nonpayable",
      "type": "function"
    },
    {
      "inputs": [],
      "name": "usdtAddress",
      "outputs": [
        {
          "internalType": "address",
          "name": "",
          "type": "address"
        }
      ],
      "stateMutability": "view",
      "type": "function"
    },
    {
      "inputs": [],
      "name": "usdtOracleAddress",
      "outputs": [
        {
          "internalType": "address",
          "name": "",
          "type": "address"
        }
      ],
      "stateMutability": "view",
      "type": "function"
    },
    {
      "inputs": [],
      "name": "wrappedTokenFactory",
      "outputs": [
        {
          "internalType": "contract IWrappedTokenFactory",
          "name": "",
          "type": "address"
        }
      ],
      "stateMutability": "view",
      "type": "function"
    }
  ],
  "bytecode": "0x60803461010657601f620050b638819003918201601f19168301916001600160401b0383118484101761010b5780849260209460405283398101031261010657516001600160a01b03808216918290036101065733156100ed576000549060018060a01b0319913383821617600055604051913391167f8be0079c531659141344cd1fd0a4f28419497f9722a3daafe3b4186f6b6457e0600080a382156100b957506007541617600755604051614f949081620001228239f35b62461bcd60e51b815260206004820152600f60248201526e496e76616c696420666163746f727960881b6044820152606490fd5b604051631e4fbdf760e01b815260006004820152602490fd5b600080fd5b634e487b7160e01b600052604160045260246000fdfe61014080604052600436101561001457600080fd5b6000908161010052813560e01c908163022914a7146111a15750806306661abd146111805780632325d8e4146110c257806340368db514610fac578063577da05814610f755780635787862114610f4b578063715018a614610eeb57806379bf49b814610eac5780637fd5ce4b14610b4e5780638da5cb5b14610b255780639ab4a44514610afb5780639d799e4e146103f9578063c82fcef01461039d578063ca18988a146101d1578063dc2a95bc146102c1578063dff11d771461020a578063e34fec1d146101d1578063eaa7c826146101a45763f2fde38b146100f857600080fd5b3461019d57602036600319011261019d576101116111dd565b9061011a611447565b6001600160a01b0380921691821561016a577f8be0079c531659141344cd1fd0a4f28419497f9722a3daafe3b4186f6b6457e0908254846001600160a01b03198216178455169180a36101005180f35b60246040517f1e4fbdf7000000000000000000000000000000000000000000000000000000008152610100516004820152fd5b6101005180fd5b3461019d5761010051806003193601126101ce5760206001600160a01b0360075416604051908152f35b80fd5b3461019d57602036600319011261019d576004356101005152600260205260206001600160a01b03604061010051205416604051908152f35b3461019d57602036600319011261019d576102236111dd565b61022b611447565b6001600160a01b03809116801561027d5760075491816001600160a01b03198416176007556101005192167f9cd85baced21f5770117ab6f982e05f2fcdaaa82632c94ac761f3e411fab030b8380a380f35b606460405162461bcd60e51b815260206004820152600f60248201527f496e76616c696420666163746f727900000000000000000000000000000000006044820152fd5b3461019d5761010051806003193601126101ce5760018054906102e382611393565b906102f16040519283611278565b8282526102fd83611393565b6020838101949091601f1901368637610100515b81811061035d575050604051928184019082855251809152604084019491610100515b8281106103415785870386f35b83516001600160a01b0316875295810195928101928401610334565b80610392916101009795979694965152600286526001600160a01b0360406101005120541661038c8286611889565b52611864565b949294939193610311565b3461019d57604036600319011261019d576103b66111dd565b6001600160a01b0360243591166101005152600460205261010051604081209081548310156101ce5760206103eb8484611419565b90546040519160031b1c8152f35b3461019d5761024036600319011261019d576104143661129a565b67ffffffffffffffff6102043581811161019d576104369036906004016113ab565b60a0526102243581811161019d576104529036906004016113ab565b9061045b611447565b60a05151825103610ab75760a0515115610a73576104886001600160a01b0361014085015116151561148b565b6104a16001600160a01b036101808501511615156114d6565b6101005160405161360280820193841182851017610a5c576119868239806101005193039083f0918215610a50575060a0840151610938575b8380516001600160a01b0316916020820151610120526040820151906060830151608084015160c085015160e0860151610100870151906101208801516001600160a01b0316926101408901516001600160a01b03169460a08a01511515966101608b01516001600160a01b0316996101808c01516001600160a01b03169b6101a001519c6040518060e05261056f9061122b565b60e051526101205160e0516020015260e0516040015260e0516060015260e0516080015260e05160a0015260e05160c0015260e05160e0015260e051610100015260e051610120015260e05161014001526001600160a01b031660e051610160015260e051610180015260e0516101a0015260e0516101c001526001600160a01b031690813b1561019d5760408051634cf08fbb60e01b8152610100805160e0805180516001600160a01b03908116600487015260208201516024870152958101516044860152606081015160648601526080810151608486015260a081015160a486015260c081015160c48601529081015160e485015291820151841661010484015261012082015184166101248401526101408201511515610144840152610160820151841661016484015261018082015184166101848401526101a08201519093166101a48301526101c001516101c48201529081806101e48101038161010051875af1801561084257610929575b50610100515b60a051805182101561090657610705826001600160a01b0392611889565b5116156108aa576001600160a01b0361071e8284611889565b511615610866575b6001600160a01b0361073a8260a051611889565b51166001600160a01b0361074e8385611889565b511690843b1561019d576040517f764467cc000000000000000000000000000000000000000000000000000000008152610100516001600160a01b039283166004830152919092166024830152818060448101038161010051885af1801561084257610850575b506001600160a01b036107ca8260a051611889565b5116833b1561019d57604051907f1309b324000000000000000000000000000000000000000000000000000000008252600482015260016024820152610100518160448183885af180156108425761082c575b5061082790611864565b6106e7565b61083590611248565b61010051801561081d5780fd5b6040513d61010051823e3d90fd5b61085990611248565b6101005180156107b55780fd5b606460405162461bcd60e51b815260206004820152601e60248201527f496e76616c6964206f7261636c6520666f7220455243323020746f6b656e00006044820152fd5b6001600160a01b036108bc8284611889565b511661072657606460405162461bcd60e51b815260206004820152601d60248201527f496e76616c6964206f7261636c6520666f72206e6174697665204554480000006044820152fd5b6020846109216001600160a01b03610120890151168261189d565b604051908152f35b61093290611248565b836106e1565b50610a0260206109516001600160a01b03865116611683565b6001600160a01b038751166001600160a01b03610180890151166101e0890151906101a08a0151926101c08b0151946040519661098d886111f8565b87528787015260408601526060850152608084015260a08301526001600160a01b03851660c08301523360e08301526101008201526001600160a01b036007541660405180809581947f0819ec9d00000000000000000000000000000000000000000000000000000000835260048301611588565b039161010051905af1908115610842576101005191610a22575b506104da565b610a43915060203d8111610a49575b610a3b8183611278565b810190611521565b84610a1c565b503d610a31565b604051903d90823e3d90fd5b634e487b7160e01b83526041600452602461010051fd5b606460405162461bcd60e51b815260206004820152601a60248201527f4e6f207061796d656e7420746f6b656e732070726f76696465640000000000006044820152fd5b606460405162461bcd60e51b815260206004820152601560248201527f4172726179206c656e677468206d69736d6174636800000000000000000000006044820152fd5b3461019d5761010051806003193601126101ce5760206001600160a01b0360055416604051908152f35b3461019d5761010051806003193601126101ce576001600160a01b036020915416604051908152f35b3461019d5761020036600319011261019d57610b693661129a565b610b71611447565b610b8a6001600160a01b0361014083015116151561148b565b610ba36001600160a01b036101808301511615156114d6565b6101005160405190613602918281019281841067ffffffffffffffff851117610a5c576119868239806101005193039083f0918215610a50575060a0830151610e19575b8280516001600160a01b03169160208201516080526040820151906060830151608084015160c085015160e0860151610100870151906101208801516001600160a01b0316926101408901516001600160a01b03169460a08a01511515966101608b01516001600160a01b0316996101808c01516001600160a01b03169b6101a001519c6040518060c052610c7b9061122b565b60c0515260805160c0516020015260c0516040015260c0516060015260c0516080015260c05160a0015260c05160c0015260c05160e0015260c051610100015260c051610120015260c05161014001526001600160a01b031660c051610160015260c051610180015260c0516101a0015260c0516101c001526001600160a01b0316803b1561019d5760408051634cf08fbb60e01b8152610100805160c0805180516001600160a01b03908116600487015260208201516024870152958101516044860152606081015160648601526080810151608486015260a081015160a48601529081015160c485015260e081015160e485015291820151841661010484015261012082015184166101248401526101408201511515610144840152610160820151841661016484015261018082015184166101848401526101a08201519093166101a48301526101c001516101c4820152929083806101e48101038161010051865af192831561084257610120610921926001600160a01b0392602096610e0a575b500151168261189d565b610e1390611248565b86610e00565b50610e6e6020610e326001600160a01b03855116611683565b6001600160a01b038651166001600160a01b03610180880151166101e0880151906101a0890151926101c08a0151946040519661098d886111f8565b039161010051905af1908115610842576101005191610e8e575b50610be7565b610ea6915060203d8111610a4957610a3b8183611278565b83610e88565b3461019d57602036600319011261019d5760206001600160a01b0380610ed06111dd565b16610100515260038252604061010051205416604051908152f35b3461019d5761010051806003193601126101ce57610f07611447565b61010051806001600160a01b0381546001600160a01b031981168355167f8be0079c531659141344cd1fd0a4f28419497f9722a3daafe3b4186f6b6457e08280a380f35b3461019d5761010051806003193601126101ce5760206001600160a01b0360065416604051908152f35b3461019d5761010051806003193601126101ce57600554600654604080516001600160a01b03938416815292909116602083015290f35b3461019d57604036600319011261019d57610fc56111dd565b602435906001600160a01b039081831680930361019d57610fe4611447565b1690811561107e57801561103a57806001600160a01b031983816005541617600555600654161760065561010051917f9708fedb34d7f4b974e53ac2d03b32eb2c50270b84ec301a97aa7e7d9e25810e8380a380f35b606460405162461bcd60e51b815260206004820152601660248201527f496e76616c6964206f7261636c652061646472657373000000000000000000006044820152fd5b606460405162461bcd60e51b815260206004820152601460248201527f496e76616c6964205553445420616464726573730000000000000000000000006044820152fd5b3461019d5760208060031936011261019d576001600160a01b036110e46111dd565b16610100515260048152604061010051206040519081838254918281520190819261010051526101005190858220915b8682821061116c57868661112a82880383611278565b6040519283928184019082855251809152604084019291610100515b82811061115557505050500390f35b835185528695509381019392810192600101611146565b835485529093019260019283019201611114565b3461019d5761010051806003193601126101ce576020600154604051908152f35b9050346111d95760203660031901126111d95760209160406001600160a01b0391826111cb6111dd565b168152600385522054168152f35b5080fd5b600435906001600160a01b03821682036111f357565b600080fd5b610120810190811067ffffffffffffffff82111761121557604052565b634e487b7160e01b600052604160045260246000fd5b6101e0810190811067ffffffffffffffff82111761121557604052565b67ffffffffffffffff811161121557604052565b6040810190811067ffffffffffffffff82111761121557604052565b90601f8019910116810190811067ffffffffffffffff82111761121557604052565b90610200809260031901126111f35760405191820182811067ffffffffffffffff82111761121557604052816001600160a01b0360043581811681036111f3578252602435602083015260443560408301526064356060830152608435608083015260a43580151581036111f35760a083015260c43560c083015260e43560e0830152610104356101008301526101243581811681036111f3576101208301526101443581811681036111f3576101408301526101643581811681036111f3576101608301526101843590811681036111f3576101808201526101a4356101a08201526101c4356101c08201526101e06101e435910152565b67ffffffffffffffff81116112155760051b60200190565b81601f820112156111f3578035916113c283611393565b926113d06040519485611278565b808452602092838086019260051b8201019283116111f3578301905b8282106113fa575050505090565b81356001600160a01b03811681036111f35781529083019083016113ec565b80548210156114315760005260206000200190600090565b634e487b7160e01b600052603260045260246000fd5b6001600160a01b0360005416330361145b57565b60246040517f118cdaa7000000000000000000000000000000000000000000000000000000008152336004820152fd5b1561149257565b606460405162461bcd60e51b815260206004820152601660248201527f496e76616c696420657363726f772061646472657373000000000000000000006044820152fd5b156114dd57565b606460405162461bcd60e51b815260206004820152601c60248201527f496e76616c6964207061796f757420746f6b656e2061646472657373000000006044820152fd5b908160209103126111f357516001600160a01b03811681036111f35790565b60005b8381106115535750506000910152565b8181015183820152602001611543565b9060209161157c81518092818552858086019101611540565b601f01601f1916010190565b6020815281516115bf6115a961012092836020860152610140850190611563565b6020850151848203601f19016040860152611563565b926001600160a01b03806040830151166060850152806060830151166080850152608082015160a085015260a082015160c08501528060c08301511660e085015260e082015116906101009182850152015191015290565b6020818303126111f357805167ffffffffffffffff918282116111f357019082601f830112156111f35781519081116112155760405192611662601f8301601f191660200185611278565b818452602082840101116111f3576116809160208085019101611540565b90565b6001600160a01b0316906040600481517f06fdde0300000000000000000000000000000000000000000000000000000000815260008181818582958a5afa829181611848575b506117f0575083516116da8161125c565b600d81527f5772617070656420546f6b656e000000000000000000000000000000000000006020820152955b8451938480927f95d89b410000000000000000000000000000000000000000000000000000000082525afa909182826117cb575b505061177857505161174b8161125c565b600381527f5752540000000000000000000000000000000000000000000000000000000000602082015290565b906021611680915180937f770000000000000000000000000000000000000000000000000000000000000060208301526117bb8151809260208686019101611540565b8101036001810184520182611278565b6117e89293503d8091833e6117e08183611278565b810190611617565b90388061173a565b611842602886518361180c829551809260208086019101611540565b81017f20577261707065640000000000000000000000000000000000000000000000006020820152036008810184520182611278565b95611706565b61185d9192503d8085833e6117e08183611278565b90386116c9565b60001981146118735760010190565b634e487b7160e01b600052601160045260246000fd5b80518210156114315760209160051b010190565b9190600154926000938452600260205260408420916001600160a01b03809216926001600160a01b03199084828254161790558386526003602052604086209033908254161790551690818452600460205260408420600154908054956801000000000000000087101561197157508561192091600161196c9798018155611419565b819291549060031b91821b91600019901b191617905560015491604051908152827f4dd34c1e85386b354efed754df3c56823235e0653e32231c2448e8d3278145d060203393a4611864565b600155565b80634e487b7160e01b602492526041600452fdfe6080806040523461001b5760016002556135e190816100218239f35b600080fdfe608080604052600436101561009e575b50361561005a57606460405162461bcd60e51b815260206004820152601560248201527f46616c6c6261636b206e6f7420616363657074656400000000000000000000006044820152fd5b606460405162461bcd60e51b815260206004820152601960248201527f446972656374204c554d4941206e6f74206163636570746564000000000000006044820152fd5b600090813560e01c9081622e131614612ff15750806301ffc9a714612f505780630b97bc8614612f325780630d5defa414612f0b5780631309b32414612e8b5780631e1a268b14612e68578063248a9ca314612e3c5780632b4353f214612e1e5780632f2ff15d14612de157806335a41aaf14612c3b57806336568abe14612bdb5780633d70a11d14612b295780633e64620814612b005780633f4ba83a14612a715780634b31bb1014612a4a5780634c6c8a3114612a245780634cf08fbb1461231c5780634f4f7c24146122005780634fff5402146121da5780635c975abb146121b75780635cc048381461219057806361d027b314612166578063653ac4221461144c57806371e28126146113e7578063764467cc1461131b57806377d392f0146110d65780637ff9b596146110b857806380d32f85146110955780638456cb591461102f57806386dea3ec14610e7a57806388e32fc214610dae5780638a18511314610d735780638ac2c68014610d555780638cd0593314610d15578063906a26e014610cf757806390838e0914610cbf57806391d1485414610c73578063a217fddf14610c57578063b37fd1901461090c578063b473acf3146108e6578063b9662797146108c8578063bbcc0a06146108aa578063bd4924321461086f578063c031a66f14610837578063c24a0f8b14610819578063c5c4744c146107fb578063d0f3725f146107bc578063d547741f1461077b578063df695abb1461073e578063df8de3e7146103005763e985e3670361000f57346102fd57806003193601126102fd5760206001600160a01b0360035416604051908152f35b80fd5b50346102fd57602090816003193601126102fd5761031c61300d565b90610325613505565b61032d613394565b6001600160a01b039081600d541633036106d357610375600c5461037060ff808360081c169261035c8461353e565b60101c16159161036b83613415565b61353e565b613415565b8183169182825260148552604082205493841561068f576024868360035416604051928380926370a0823160e01b82523060048301525afa908115610552579086918591610659575b501061061557838352601486528260408120556103dd85600b5461346d565b600b55858560ff600c5460181c1660001461055d579061043691846003541685600c54841c168760405180968195829463095ea7b360e01b845260048401602090939291936001600160a01b0360408201951681520152565b03925af1801561055257610525575b50670de0b6b3a764000061045b6012548761347a565b0491600c54871c1690813b15610521576040517ff8abbb410000000000000000000000000000000000000000000000000000000081526001600160a01b0391909116600482015260248101869052604481019290925282908290606490829084905af1801561051657610502575b50505b7fd8138f8a3f377c5259ca548e70e4c2de94f129f5a11036a15b69513cba2b426a83604051848152a26001600255604051908152f35b61050c8291613039565b6102fd57806104c9565b6040513d84823e3d90fd5b8380fd5b61054490873d891161054b575b61053c818361304d565b8101906134ad565b5038610445565b503d610532565b6040513d86823e3d90fd5b60035460405163a9059cbb60e01b81526001600160a01b03949094166004850152602484019190915291929091839160449183918791165af191821561060957916105ec575b506104cc576064836040519062461bcd60e51b82526004820152601560248201527f546f6b656e207472616e73666572206661696c656400000000000000000000006044820152fd5b6106039150843d861161054b5761053c818361304d565b386105a3565b604051903d90823e3d90fd5b6064866040519062461bcd60e51b82526004820152601860248201527f496e73756666696369656e742073616c6520746f6b656e7300000000000000006044820152fd5b809250888092503d8311610688575b610672818361304d565b8101031261068357859051386103be565b600080fd5b503d610668565b6064866040519062461bcd60e51b82526004820152601260248201527f4e6f20746f6b656e7320746f20636c61696d00000000000000000000000000006044820152fd5b60405162461bcd60e51b815260206004820152602c60248201527f43616c6c6572206973206e6f742074686520696e766573746d656e744d616e6160448201527f67657220636f6e747261637400000000000000000000000000000000000000006064820152608490fd5b50346102fd5760203660031901126102fd5760ff60406020926001600160a01b0361076761300d565b168152601384522054166040519015158152f35b50346102fd5760403660031901126102fd576107b860043561079b613023565b90808452836020526107b3600160408620015461313c565b61331e565b5080f35b50346102fd57806003193601126102fd576020600c5460ff8160081c161590816107ec575b506040519015158152f35b60ff915060101c1615826107e1565b50346102fd57806003193601126102fd576020600a54604051908152f35b50346102fd57806003193601126102fd576020600754604051908152f35b50346102fd5760203660031901126102fd5760406020916001600160a01b0361085e61300d565b168152601483522054604051908152f35b50346102fd5760203660031901126102fd5760209060406001600160a01b03918261089861300d565b16815260168452205416604051908152f35b50346102fd57806003193601126102fd576020600b54604051908152f35b50346102fd57806003193601126102fd576020600954604051908152f35b50346102fd57806003193601126102fd57602060ff600c5460101c166040519015158152f35b50346102fd5760603660031901126102fd5761092661300d565b602480356044918235926001600160a01b0393848116958682036106835761094c61306f565b610954613505565b8615610c145785169485610a3c57508347106109f9578680808681945af161097a6134c5565b50156109b657505060207fd27dd37d941f5a1b76926e48140fdbf50a0c59defb5431a391a1260279eb1c4c915b604051908152a3600160025580f35b907f4c554d494120726573637565206661696c65640000000000000000000000000060649260136040519362461bcd60e51b855260206004860152840152820152fd5b6064837f4e6f7420656e6f756768204c554d4941000000000000000000000000000000008460106040519362461bcd60e51b855260206004860152840152820152fd5b600393919354168514610bd257604051926370a0823160e01b8452306004850152602093848184818a5afa8015610bc75786918a91610b96575b5010610b545760405163a9059cbb60e01b81526001600160a01b039190911660048201526024810185905283816044818b8a5af1908115610b49578891610b2c575b5015610aea5750505060207fd27dd37d941f5a1b76926e48140fdbf50a0c59defb5431a391a1260279eb1c4c916109a7565b60649291601c7f455243323020726573637565207472616e73666572206661696c656400000000926040519462461bcd60e51b86526004860152840152820152fd5b610b439150843d861161054b5761053c818361304d565b38610ab8565b6040513d8a823e3d90fd5b6064847f4e6f7420656e6f75676820746f6b656e73000000000000000000000000000000856011866040519462461bcd60e51b86526004860152840152820152fd5b809250868092503d8311610bc0575b610baf818361304d565b810103126106835785905138610a76565b503d610ba5565b6040513d8b823e3d90fd5b7f43616e6e6f74207265736375652073616c65546f6b656e00000000000000000060649260176040519362461bcd60e51b855260206004860152840152820152fd5b6064847f496e76616c696420726563697069656e740000000000000000000000000000008560116040519362461bcd60e51b855260206004860152840152820152fd5b50346102fd57806003193601126102fd57602090604051908152f35b50346102fd5760403660031901126102fd576001600160a01b036040610c97613023565b92600435815280602052209116600052602052602060ff604060002054166040519015158152f35b50346102fd5760203660031901126102fd5760406020916001600160a01b03610ce661300d565b168152601583522054604051908152f35b50346102fd57806003193601126102fd576020600854604051908152f35b50346102fd57806003193601126102fd5760ff60105416604051906003811015610d4157602092508152f35b602483634e487b7160e01b81526021600452fd5b50346102fd57806003193601126102fd576020600454604051908152f35b50346102fd57806003193601126102fd5760206040517f35369b3a7bb98c90641a907c2fd643ea781341eba72ccffd47cb018c128c48c38152f35b50346102fd5760203660031901126102fd57610dc861300d565b610dd061306f565b6001600160a01b0380911690818352601660205260408320541615610e36578082526016602052604082206001600160a01b031981541690557fc1d3048301c0d23629a2532c8defa6d68f8e1a0e4157918769e9fb1b2eeb888e6020604051848152a280f35b606460405162461bcd60e51b815260206004820152601360248201527f4e6f206f7261636c6520746f2072656d6f7665000000000000000000000000006044820152fd5b50346102fd57806003193601126102fd57610e936130e0565b600a5460085411610feb57600c54610eb160ff8260081c16156133ca565b610ec160ff8260101c1615613415565b60ff8116610fa757610101829161ffff19161780600c5560ff8160181c1680610f92575b610f45575b507f88a7d28eab96d3365f5163f9ec845ac889ace5a29ae33059254ee6493dee4a616020604051428152a17fcb67f20f64495b30f15524c55f90201dd6571d6b5c19dac183d2aeb25315b2dc6020600a54604051908152a180f35b60201c6001600160a01b0316803b15610f8f578180916004604051809481936378bd678b60e11b83525af180156105165715610eea57610f8490613039565b6102fd578038610eea565b50fd5b506001600160a01b038160201c161515610ee5565b606460405162461bcd60e51b815260206004820152601360248201527f53616c6520616c726561647920636c6f736564000000000000000000000000006044820152fd5b606460405162461bcd60e51b815260206004820152601460248201527f536f667420636170206e6f7420726561636865640000000000000000000000006044820152fd5b50346102fd57806003193601126102fd5761104861306f565b611050613394565b600160ff198154161760015560206040513381527f62e78cea01bee320cd4e420270b5ea74000d11b0c9f74754ebdbfc544b05a258918291a16020604051338152a180f35b50346102fd57806003193601126102fd576020600a546008541115604051908152f35b50346102fd57806003193601126102fd576020601254604051908152f35b50346102fd57602080600319360112611317576110f161300d565b906110fa6130e0565b611102613505565b61111c60ff600c5460081c1661111781613589565b613589565b6001600160a01b03918281169283156112d357600354166040516370a0823160e01b81523060048201528381602481855afa80156112c8578690611299575b6111699150600b549061346d565b9182156112555760405163a9059cbb60e01b81526001600160a01b03919091166004820152602481018390529083908290604490829089905af190811561124a57859161122d575b50156111e957907ffcbf6553b2cfc097c2301f1c071469a8839b462e7287e3692f238ccfc6b9208f91604051908152a2600160025580f35b6064826040519062461bcd60e51b82526004820152601760248201527f5265636c61696d207472616e73666572206661696c65640000000000000000006044820152fd5b6112449150833d851161054b5761053c818361304d565b386111b1565b6040513d87823e3d90fd5b6064846040519062461bcd60e51b82526004820152601360248201527f4e6f20756e636c61696d656420746f6b656e73000000000000000000000000006044820152fd5b508381813d83116112c1575b6112af818361304d565b8101031261068357611169905161115b565b503d6112a5565b6040513d88823e3d90fd5b6064836040519062461bcd60e51b82526004820152600f60248201527f496e76616c6964206164647265737300000000000000000000000000000000006044820152fd5b5080fd5b50346102fd5760403660031901126102fd5761133561300d565b61133d613023565b61134561306f565b6001600160a01b038091169182156113a3577fc1d3048301c0d23629a2532c8defa6d68f8e1a0e4157918769e9fb1b2eeb888e9160209116928385526016825260408520816001600160a01b0319825416179055604051908152a280f35b606460405162461bcd60e51b815260206004820152601660248201527f496e76616c6964206f7261636c652061646472657373000000000000000000006044820152fd5b50346102fd57806003193601126102fd57600754421080159061143e575b8061142e575b8061141e575b6020906040519015158152f35b50600c5460101c60ff1615611411565b5060ff600c5460081c161561140b565b50600a546008541115611405565b5060603660031901126102fd5761146161300d565b9061146a613023565b906044928335611478613505565b611480613394565b6001600160a01b039384600d541633036106d357841691821561212257600c5460ff81166120de5760ff6114bc9160101c161561037081613415565b600654421061209a5760075442101561205657848116938481526020956013875260ff60408320541615612013578315611fd05785825260168752806040832054168015611f8d5790604060049899928151998a80927f57de26a40000000000000000000000000000000000000000000000000000000082525afa978815611f825783908499611f2e575b50601b0b9783891315611eeb5761156863ffffffff6201518092164261346d565b11611ea8578615968715611e25576115836012995b8761347a565b670de0b6b3a7640000998a8202918083048c1490151715611e115760ff16604d8111611e11578a916115b891600a0a9061348d565b04978815611dce576004548910611d8b5787855260158b526115de896040872054613460565b60055410611d4857600a546115f38a82613460565b60095410611d05576fffffffffffffffffffffffffffffffff9a8b8b11611cc2578a8c038c8111611cac578211611c6957808b02908b820403611c555760125461163c9161348d565b9a8b15611c12578b11611bcf578961165391613460565b600a5587855260158b526040852061166c8a8254613460565b90551561190957508434036118c6576011541660405190898201907f701bb8910000000000000000000000000000000000000000000000000000000082523060248401528784840152838352608083019183831067ffffffffffffffff8411176118b05785938493604052519134905af16116e56134c5565b501561186d57509060407f93638e6cf18b4f6a839de65df95898221f5d9f7dc54b87d4b31d40297643266e93925b8581526014895220611726878254613460565b905561173486600b54613460565b600b5561176186604051938493846040919493926001600160a01b03606083019616825260208201520152565b0390a2600a5460085490918183101590818061185b575b611828575b81611815575b506117e0575b50826009548210156117a3575b6001600255604051838152f35b7fcb67f20f64495b30f15524c55f90201dd6571d6b5c19dac183d2aeb25315b2dc91600160ff19600c541617600c55604051908152a13882611796565b60407fb43ca1b105f16771375b5b40a413666f837e4732dc6dd193f408c02736edac859181519084825286820152a138611789565b611820915082613460565b821038611783565b7fb43ca1b105f16771375b5b40a413666f837e4732dc6dd193f408c02736edac85604080518681528589820152a161177d565b506118668184613460565b8410611778565b877f457363726f77206465706f736974206661696c656400000000000000000000006064926040519262461bcd60e51b8452600484015260156024840152820152fd5b634e487b7160e01b600052604160045260246000fd5b6064897f496e636f7272656374206e617469766520616d6f756e74000000000000000000846040519262461bcd60e51b8452600484015260176024840152820152fd5b34611b6657604051917f23b872dd000000000000000000000000000000000000000000000000000000008352876004840152602492308482015287858201528b8160648189875af19081156112c8578691611b49575b5015611b075760115460405163095ea7b360e01b81529082166001600160a01b03166004820152602481018890528b8160448189875af19081156112c8578691611aea575b5015611aa85760115416906040518b8101917f0ef7c5a70000000000000000000000000000000000000000000000000000000083523085830152898683015260648201528760848201526084815260c0810181811067ffffffffffffffff821117611a935760405251859283929083905af1611a1e6134c5565b5015611a515750509060407f93638e6cf18b4f6a839de65df95898221f5d9f7dc54b87d4b31d40297643266e9392611713565b7f457363726f7720746f6b656e206465706f736974206661696c65640000000000606492601b8b936040519462461bcd60e51b86526004860152840152820152fd5b84634e487b7160e01b60005260416004526000fd5b60648b7f5061796d656e7420746f6b656e20617070726f76616c206661696c656400000086601d876040519462461bcd60e51b86526004860152840152820152fd5b611b0191508c8d3d1061054b5761053c818361304d565b386119a4565b60648b7f5061796d656e7420746f6b656e207472616e73666572206661696c656400000086601d876040519462461bcd60e51b86526004860152840152820152fd5b611b6091508c8d3d1061054b5761053c818361304d565b3861195f565b60848a7f446f206e6f742073656e642045544820666f7220746f6b656e207061796d656e856040519262461bcd60e51b84526004840152602160248401528201527f74000000000000000000000000000000000000000000000000000000000000006064820152fd5b60648c7f546f6b656e20616d6f756e7420746f6f206c6172676500000000000000000000876040519262461bcd60e51b8452600484015260166024840152820152fd5b60648d7f546f6b656e20616d6f756e7420746f6f206c6f77000000000000000000000000886040519262461bcd60e51b8452600484015260146024840152820152fd5b602487634e487b7160e01b81526011600452fd5b60648d7f546f74616c2072616973656420776f756c64206f766572666c6f770000000000886040519262461bcd60e51b84526004840152601b6024840152820152fd5b634e487b7160e01b600052601160045260246000fd5b60648d7f496e766573746d656e7420616d6f756e7420746f6f206c617267650000000000886040519262461bcd60e51b84526004840152601b6024840152820152fd5b60648c7f4578636565647320636170000000000000000000000000000000000000000000876040519262461bcd60e51b84526004840152600b6024840152820152fd5b60648b7f45786365656473206d617820696e766573746d656e7400000000000000000000866040519262461bcd60e51b8452600484015260166024840152820152fd5b60648b7f42656c6f77206d696e20696e766573746d656e74000000000000000000000000866040519262461bcd60e51b8452600484015260146024840152820152fd5b60648b7f5553442076616c75652063616c63756c6174696f6e206f766572666c6f770000866040519262461bcd60e51b84526004840152601e6024840152820152fd5b602486634e487b7160e01b81526011600452fd5b6040517f313ce5670000000000000000000000000000000000000000000000000000000081528a81600481855afa801561124a578590611e6b575b61158391509961157d565b508a81813d8311611ea1575b611e81818361304d565b81010312611e9d575160ff81168103611e9d5761158390611e60565b8480fd5b503d611e77565b6064897f5072696365206461746120746f6f207374616c65000000000000000000000000846040519262461bcd60e51b8452600484015260146024840152820152fd5b60648a7f496e76616c696420707269636500000000000000000000000000000000000000856040519262461bcd60e51b84526004840152600d6024840152820152fd5b9850506040883d604011611f7a575b81611f4a6040938361304d565b81010312611f765787519788601b0b8903610521578901519763ffffffff891689036105215738611547565b8280fd5b3d9150611f3d565b6040513d85823e3d90fd5b6064887f4f7261636c65206e6f74207365740000000000000000000000000000000000008b6040519262461bcd60e51b84526004840152600e6024840152820152fd5b6064877f5a65726f20616d6f756e740000000000000000000000000000000000000000008a6040519262461bcd60e51b84526004840152600b6024840152820152fd5b6064877f546f6b656e206e6f742077686974656c697374656400000000000000000000008a6040519262461bcd60e51b8452600484015260156024840152820152fd5b6064867f53616c6520656e646564000000000000000000000000000000000000000000006040519162461bcd60e51b835260206004840152600a6024840152820152fd5b6064867f53616c65206e6f742073746172746564000000000000000000000000000000006040519162461bcd60e51b83526020600484015260106024840152820152fd5b6064877f53616c6520697320636c6f7365640000000000000000000000000000000000006040519162461bcd60e51b835260206004840152600e6024840152820152fd5b6064867f496e76616c696420696e766573746f72206164647265737300000000000000006040519162461bcd60e51b83526020600484015260186024840152820152fd5b50346102fd57806003193601126102fd5760206001600160a01b0360105460101c16604051908152f35b50346102fd57806003193601126102fd5760206001600160a01b03600e5416604051908152f35b50346102fd57806003193601126102fd57602060ff600154166040519015158152f35b50346102fd57806003193601126102fd57602060ff600c5460181c166040519015158152f35b50346102fd57806003193601126102fd576122196130e0565b600c5461222c60ff8260081c16156133ca565b60ff8160101c166122d85762ff00ff19166201000117600c5560115481906001600160a01b0316803b15610f8f578180916004604051809481937fdcdcafaa0000000000000000000000000000000000000000000000000000000083525af18015610516576122c4575b507f0a94fbe15a0ddbadfc15077a69292dd28a535c34f78b22a3fcac5463a9e1256d6020604051428152a180f35b6122cd90613039565b6102fd578038612296565b606460405162461bcd60e51b815260206004820152601160248201527f416c72656164792063616e63656c6c65640000000000000000000000000000006044820152fd5b50346102fd576101e0806003193601126113175760405190810181811067ffffffffffffffff8211176118b05760405261235461300d565b8152602435602082015260443560408201526064356060820152608435608082015260a43560a082015260c43560c082015260e43560e08201526001600160a01b036101043516610104350361068357610104356101008201526001600160a01b0361012435166101243503610683576101243561012082015261014435801515810361068357610140820152610164356001600160a01b0381168103610683576101608201526001600160a01b036101843516610184350361068357610184356101808201526001600160a01b036101a435166101a43503610683576101a4356101a08201526101c4356101c082015260ff60105460081c166129e0576001600160a01b038151161561299c576001600160a01b036101008201511615612958576001600160a01b036101208201511615612914576001600160a01b0361018082015116156128aa5760a0810151156128665760c0810151156128225760a081015160c0820151106127b85760e08101511561277457602081015160408201511061273057606081015142116126ec57606081015160808201511115612682576001600160a01b036101a0820151161561263e576001600160a01b03610100828261262b9451166001600160a01b03196003541617600355602081015160045560408101516005556060810151600655608081015160075560a081015160085560c081015160095560e081015160125582610120820151166001600160a01b031960115416176011556101408101511515600c547fffffffffffffffff000000000000000000000000000000000000000000ffffff63ff00000077ffffffffffffffffffffffffffffffffffffffff0000000061016086015160201b169360181b1691161717600c5582610180820151166001600160a01b0319600d541617600d55826101a0820151166001600160a01b0319600e541617600e556101c0810151600f5561262233613162565b500151166131f2565b5061010061ff0019601054161760105580f35b606460405162461bcd60e51b815260206004820152601c60248201527f496e76616c6964207061796f757420746f6b656e2061646472657373000000006044820152fd5b608460405162461bcd60e51b815260206004820152602260248201527f53746172742064617465206d757374206265206265666f726520656e6420646160448201527f74650000000000000000000000000000000000000000000000000000000000006064820152fd5b606460405162461bcd60e51b815260206004820152602060248201527f53746172742064617465206d75737420626520696e20746865206675747572656044820152fd5b606460405162461bcd60e51b815260206004820152601460248201527f4d696e203e206d617820696e766573746d656e740000000000000000000000006044820152fd5b606460405162461bcd60e51b815260206004820152601c60248201527f546f6b656e207072696365206d75737420626520706f736974697665000000006044820152fd5b608460405162461bcd60e51b815260206004820152602660248201527f536f6674206361702063616e6e6f74206578636565642066756e64726169736960448201527f6e672063617000000000000000000000000000000000000000000000000000006064820152fd5b606460405162461bcd60e51b815260206004820152602060248201527f46756e6472616973696e6720636170206d75737420626520706f7369746976656044820152fd5b606460405162461bcd60e51b815260206004820152601960248201527f536f667420636170206d75737420626520706f736974697665000000000000006044820152fd5b608460405162461bcd60e51b815260206004820152602260248201527f496e76616c696420696e766573746d656e74206d616e6167657220616464726560448201527f73730000000000000000000000000000000000000000000000000000000000006064820152fd5b606460405162461bcd60e51b815260206004820152601660248201527f496e76616c696420657363726f772061646472657373000000000000000000006044820152fd5b606460405162461bcd60e51b815260206004820152601360248201527f496e76616c696420746f6b656e206f776e6572000000000000000000000000006044820152fd5b606460405162461bcd60e51b815260206004820152601260248201527f496e76616c69642073616c6520746f6b656e00000000000000000000000000006044820152fd5b606460405162461bcd60e51b815260206004820152601360248201527f416c726561647920696e697469616c697a6564000000000000000000000000006044820152fd5b50346102fd57806003193601126102fd57602060ff600c5460081c166040519015158152f35b50346102fd57806003193601126102fd5760206001600160a01b03600d5416604051908152f35b50346102fd57806003193601126102fd57612a8a61306f565b60015460ff811615612ad65760ff191660015560206040513381527f5db9ee0a495bf2e6ff9c91a7834c1ba4fdd244a5e8aa4e537bd38aeae4b073aa918291a16020604051338152a180f35b60046040517f8dfc202b000000000000000000000000000000000000000000000000000000008152fd5b50346102fd57806003193601126102fd576020600c546001600160a01b0360405191831c168152f35b50346102fd57806003193601126102fd5760065442101580612bd0575b80612bc3575b80612bb3575b61012090600c54600a546008546009549160ff60075494604051961515875281811615156020880152818160081c161515604088015260101c161515606086015281811015608086015260a085015260c084015260e0830152610100820152f35b50600c5460101c60ff1615612b52565b5060ff600c541615612b4c565b506007544210612b46565b50346102fd5760403660031901126102fd57612bf5613023565b336001600160a01b03821603612c11576107b89060043561331e565b60046040517f6697b232000000000000000000000000000000000000000000000000000000008152fd5b50346102fd57806003193601126102fd576001600160a01b0380601154163303612d9d576007544210612d59578190610101600c54612c8060ff8260081c16156133ca565b612c9060ff8260101c1615613415565b61ffff19161780600c5560ff8160181c1680612d4b575b612d07575b827f88a7d28eab96d3365f5163f9ec845ac889ace5a29ae33059254ee6493dee4a616020604051428152a17fcb67f20f64495b30f15524c55f90201dd6571d6b5c19dac183d2aeb25315b2dc6020600a54604051908152a180f35b60201c16803b15610f8f5781906004604051809481936378bd678b60e11b83525af1801561051657612d3c575b808291612cac565b612d4590613039565b38612d34565b50818160201c161515612ca7565b606460405162461bcd60e51b815260206004820152601260248201527f53616c65206e6f7420656e6465642079657400000000000000000000000000006044820152fd5b606460405162461bcd60e51b815260206004820152601a60248201527f4e6f7420617574686f72697a656420746f2066696e616c697a650000000000006044820152fd5b50346102fd5760403660031901126102fd576107b8600435612e01613023565b9080845283602052612e19600160408620015461313c565b6132a4565b50346102fd57806003193601126102fd576020600f54604051908152f35b50346102fd5760203660031901126102fd57600160406020926004358152808452200154604051908152f35b50346102fd57806003193601126102fd57602060ff600c54166040519015158152f35b50346102fd5760403660031901126102fd57612ea561300d565b60243590811515809203611f765760206001600160a01b037f91ad45a5ce97c5eee55fa01496772afefc7f0757ed9eac59064e642690509dfb92612ee761306f565b1692838552601382526040852060ff1981541660ff8316179055604051908152a280f35b50346102fd57806003193601126102fd5760206001600160a01b0360115416604051908152f35b50346102fd57806003193601126102fd576020600654604051908152f35b50346102fd5760203660031901126102fd576004357fffffffff00000000000000000000000000000000000000000000000000000000811680910361131757807f7965db0b0000000000000000000000000000000000000000000000000000000060209214908115612fc757506040519015158152f35b7f01ffc9a700000000000000000000000000000000000000000000000000000000915014826107e1565b9050346113175781600319360112611317576020906005548152f35b600435906001600160a01b038216820361068357565b602435906001600160a01b038216820361068357565b67ffffffffffffffff81116118b057604052565b90601f8019910116810190811067ffffffffffffffff8211176118b057604052565b3360009081527fad3228b676f7d3cd4284a5443f17f1962b36e491b30a40b2405849e597ba5fb5602052604081205460ff16156130a95750565b604490604051907fe2517d3f0000000000000000000000000000000000000000000000000000000082523360048301526024820152fd5b3360009081527f7dfc0114fc2b0320947240cbd60a9ffc193468a941c37441e641a928a8c116d560205260409020547f35369b3a7bb98c90641a907c2fd643ea781341eba72ccffd47cb018c128c48c39060ff16156130a95750565b80600052600060205260406000203360005260205260ff60406000205416156130a95750565b6001600160a01b031660008181527fad3228b676f7d3cd4284a5443f17f1962b36e491b30a40b2405849e597ba5fb5602052604081205490919060ff166131ee57818052816020526040822081835260205260408220600160ff1982541617905533917f2f8788117e7eff1d82e926ec794901d17c78024a50270940304540a733656f0d8180a4600190565b5090565b6001600160a01b031660008181527f7dfc0114fc2b0320947240cbd60a9ffc193468a941c37441e641a928a8c116d560205260408120549091907f35369b3a7bb98c90641a907c2fd643ea781341eba72ccffd47cb018c128c48c39060ff1661329f57808352826020526040832082845260205260408320600160ff198254161790557f2f8788117e7eff1d82e926ec794901d17c78024a50270940304540a733656f0d339380a4600190565b505090565b90600091808352826020526001600160a01b036040842092169182845260205260ff6040842054161560001461329f57808352826020526040832082845260205260408320600160ff198254161790557f2f8788117e7eff1d82e926ec794901d17c78024a50270940304540a733656f0d339380a4600190565b90600091808352826020526001600160a01b036040842092169182845260205260ff60408420541660001461329f5780835282602052604083208284526020526040832060ff1981541690557ff6391f5c32d9c69d2a47ea670b442974b53935d1edc7fd64eb21e047a839171b339380a4600190565b60ff600154166133a057565b60046040517fd93c0665000000000000000000000000000000000000000000000000000000008152fd5b156133d157565b606460405162461bcd60e51b815260206004820152601160248201527f416c72656164792066696e616c697a65640000000000000000000000000000006044820152fd5b1561341c57565b606460405162461bcd60e51b815260206004820152601560248201527f4f66666572696e672069732063616e63656c6c656400000000000000000000006044820152fd5b91908201809211611cac57565b91908203918211611cac57565b81810292918115918404141715611cac57565b8115613497570490565b634e487b7160e01b600052601260045260246000fd5b90816020910312610683575180151581036106835790565b3d15613500573d9067ffffffffffffffff82116118b057604051916134f4601f8201601f19166020018461304d565b82523d6000602084013e565b606090565b60028054146135145760028055565b60046040517f3ee5aeb5000000000000000000000000000000000000000000000000000000008152fd5b1561354557565b606460405162461bcd60e51b815260206004820152601a60248201527f4f66666572696e67206e6f742066696e616c697a6564207965740000000000006044820152fd5b1561359057565b606460405162461bcd60e51b815260206004820152601660248201527f4f66666572696e67206e6f742066696e616c697a6564000000000000000000006044820152fdfea164736f6c6343000814000aa164736f6c6343000814000a",
  "linkReferences": {},
  "deployedLinkReferences": {}
}