{
  "_format": "hh-sol-artifact-1",
  "contractName": "OfferingFactory",
  "sourceName": "contracts/OfferingFactory.sol",
  "abi": [
    {
      "inputs": [
        {
          "internalType": "address",
          "name": "_wrappedTokenFactory",
          "type": "address"
        }
      ],
      "stateMutability": "nonpayable",
      "type": "constructor"
    },
    {
      "inputs": [
        {
          "internalType": "address",
          "name": "owner",
          "type": "address"
        }
      ],
      "name": "OwnableInvalidOwner",
      "type": "error"
    },
    {
      "inputs": [
        {
          "internalType": "address",
          "name": "account",
          "type": "address"
        }
      ],
      "name": "OwnableUnauthorizedAccount",
      "type": "error"
    },
    {
      "anonymous": false,
      "inputs": [
        {
          "indexed": true,
          "internalType": "uint256",
          "name": "offeringId",
          "type": "uint256"
        },
        {
          "indexed": true,
          "internalType": "address",
          "name": "creator",
          "type": "address"
        },
        {
          "indexed": true,
          "internalType": "address",
          "name": "offeringAddress",
          "type": "address"
        },
        {
          "indexed": false,
          "internalType": "address",
          "name": "tokenOwner",
          "type": "address"
        }
      ],
      "name": "OfferingDeployed",
      "type": "event"
    },
    {
      "anonymous": false,
      "inputs": [
        {
          "indexed": true,
          "internalType": "address",
          "name": "previousOwner",
          "type": "address"
        },
        {
          "indexed": true,
          "internalType": "address",
          "name": "newOwner",
          "type": "address"
        }
      ],
      "name": "OwnershipTransferred",
      "type": "event"
    },
    {
      "anonymous": false,
      "inputs": [
        {
          "indexed": true,
          "internalType": "address",
          "name": "usdtAddress",
          "type": "address"
        },
        {
          "indexed": true,
          "internalType": "address",
          "name": "usdtOracleAddress",
          "type": "address"
        }
      ],
      "name": "USDTConfigUpdated",
      "type": "event"
    },
    {
      "anonymous": false,
      "inputs": [
        {
          "indexed": true,
          "internalType": "address",
          "name": "oldFactory",
          "type": "address"
        },
        {
          "indexed": true,
          "internalType": "address",
          "name": "newFactory",
          "type": "address"
        }
      ],
      "name": "WrappedTokenFactoryUpdated",
      "type": "event"
    },
    {
      "inputs": [
        {
          "internalType": "address",
          "name": "",
          "type": "address"
        },
        {
          "internalType": "uint256",
          "name": "",
          "type": "uint256"
        }
      ],
      "name": "byOwner",
      "outputs": [
        {
          "internalType": "uint256",
          "name": "",
          "type": "uint256"
        }
      ],
      "stateMutability": "view",
      "type": "function"
    },
    {
      "inputs": [],
      "name": "count",
      "outputs": [
        {
          "internalType": "uint256",
          "name": "",
          "type": "uint256"
        }
      ],
      "stateMutability": "view",
      "type": "function"
    },
    {
      "inputs": [
        {
          "components": [
            {
              "internalType": "address",
              "name": "saleToken",
              "type": "address"
            },
            {
              "internalType": "uint256",
              "name": "minInvestment",
              "type": "uint256"
            },
            {
              "internalType": "uint256",
              "name": "maxInvestment",
              "type": "uint256"
            },
            {
              "internalType": "uint256",
              "name": "startDate",
              "type": "uint256"
            },
            {
              "internalType": "uint256",
              "name": "endDate",
              "type": "uint256"
            },
            {
              "internalType": "uint256",
              "name": "maturityDate",
              "type": "uint256"
            },
            {
              "internalType": "bool",
              "name": "autoTransfer",
              "type": "bool"
            },
            {
              "internalType": "bool",
              "name": "apyEnabled",
              "type": "bool"
            },
            {
              "internalType": "uint256",
              "name": "fundraisingCap",
              "type": "uint256"
            },
            {
              "internalType": "uint256",
              "name": "tokenPrice",
              "type": "uint256"
            },
            {
              "internalType": "address",
              "name": "tokenOwner",
              "type": "address"
            },
            {
              "internalType": "address",
              "name": "escrowAddress",
              "type": "address"
            },
            {
              "internalType": "address",
              "name": "investmentManager",
              "type": "address"
            },
            {
              "internalType": "address",
              "name": "payoutTokenAddress",
              "type": "address"
            },
            {
              "internalType": "uint256",
              "name": "payoutRate",
              "type": "uint256"
            },
            {
              "internalType": "enum IWRAPEDTOKEN.PayoutFrequency",
              "name": "defaultPayoutFrequency",
              "type": "uint8"
            }
          ],
          "internalType": "struct CreateOfferingConfig",
          "name": "config",
          "type": "tuple"
        }
      ],
      "name": "createOffering",
      "outputs": [
        {
          "internalType": "address",
          "name": "offeringAddress",
          "type": "address"
        }
      ],
      "stateMutability": "nonpayable",
      "type": "function"
    },
    {
      "inputs": [
        {
          "components": [
            {
              "internalType": "address",
              "name": "saleToken",
              "type": "address"
            },
            {
              "internalType": "uint256",
              "name": "minInvestment",
              "type": "uint256"
            },
            {
              "internalType": "uint256",
              "name": "maxInvestment",
              "type": "uint256"
            },
            {
              "internalType": "uint256",
              "name": "startDate",
              "type": "uint256"
            },
            {
              "internalType": "uint256",
              "name": "endDate",
              "type": "uint256"
            },
            {
              "internalType": "uint256",
              "name": "maturityDate",
              "type": "uint256"
            },
            {
              "internalType": "bool",
              "name": "autoTransfer",
              "type": "bool"
            },
            {
              "internalType": "bool",
              "name": "apyEnabled",
              "type": "bool"
            },
            {
              "internalType": "uint256",
              "name": "fundraisingCap",
              "type": "uint256"
            },
            {
              "internalType": "uint256",
              "name": "tokenPrice",
              "type": "uint256"
            },
            {
              "internalType": "address",
              "name": "tokenOwner",
              "type": "address"
            },
            {
              "internalType": "address",
              "name": "escrowAddress",
              "type": "address"
            },
            {
              "internalType": "address",
              "name": "investmentManager",
              "type": "address"
            },
            {
              "internalType": "address",
              "name": "payoutTokenAddress",
              "type": "address"
            },
            {
              "internalType": "uint256",
              "name": "payoutRate",
              "type": "uint256"
            },
            {
              "internalType": "enum IWRAPEDTOKEN.PayoutFrequency",
              "name": "defaultPayoutFrequency",
              "type": "uint8"
            },
            {
              "internalType": "address[]",
              "name": "paymentTokens",
              "type": "address[]"
            },
            {
              "internalType": "address[]",
              "name": "oracles",
              "type": "address[]"
            }
          ],
          "internalType": "struct CreateOfferingWithTokensConfig",
          "name": "config",
          "type": "tuple"
        }
      ],
      "name": "createOfferingWithPaymentTokens",
      "outputs": [
        {
          "internalType": "address",
          "name": "offeringAddress",
          "type": "address"
        }
      ],
      "stateMutability": "nonpayable",
      "type": "function"
    },
    {
      "inputs": [],
      "name": "getAllOfferings",
      "outputs": [
        {
          "internalType": "address[]",
          "name": "",
          "type": "address[]"
        }
      ],
      "stateMutability": "view",
      "type": "function"
    },
    {
      "inputs": [
        {
          "internalType": "uint256",
          "name": "offeringId",
          "type": "uint256"
        }
      ],
      "name": "getOfferingAddress",
      "outputs": [
        {
          "internalType": "address",
          "name": "",
          "type": "address"
        }
      ],
      "stateMutability": "view",
      "type": "function"
    },
    {
      "inputs": [
        {
          "internalType": "address",
          "name": "tokenOwner",
          "type": "address"
        }
      ],
      "name": "getOfferingIdsByTokenOwner",
      "outputs": [
        {
          "internalType": "uint256[]",
          "name": "",
          "type": "uint256[]"
        }
      ],
      "stateMutability": "view",
      "type": "function"
    },
    {
      "inputs": [
        {
          "internalType": "address",
          "name": "offeringAddress",
          "type": "address"
        }
      ],
      "name": "getOfferingOwner",
      "outputs": [
        {
          "internalType": "address",
          "name": "",
          "type": "address"
        }
      ],
      "stateMutability": "view",
      "type": "function"
    },
    {
      "inputs": [],
      "name": "getUSDTConfig",
      "outputs": [
        {
          "internalType": "address",
          "name": "usdtToken",
          "type": "address"
        },
        {
          "internalType": "address",
          "name": "usdtOracle",
          "type": "address"
        }
      ],
      "stateMutability": "view",
      "type": "function"
    },
    {
      "inputs": [
        {
          "internalType": "uint256",
          "name": "",
          "type": "uint256"
        }
      ],
      "name": "offerings",
      "outputs": [
        {
          "internalType": "address",
          "name": "",
          "type": "address"
        }
      ],
      "stateMutability": "view",
      "type": "function"
    },
    {
      "inputs": [],
      "name": "owner",
      "outputs": [
        {
          "internalType": "address",
          "name": "",
          "type": "address"
        }
      ],
      "stateMutability": "view",
      "type": "function"
    },
    {
      "inputs": [
        {
          "internalType": "address",
          "name": "",
          "type": "address"
        }
      ],
      "name": "owners",
      "outputs": [
        {
          "internalType": "address",
          "name": "",
          "type": "address"
        }
      ],
      "stateMutability": "view",
      "type": "function"
    },
    {
      "inputs": [],
      "name": "renounceOwnership",
      "outputs": [],
      "stateMutability": "nonpayable",
      "type": "function"
    },
    {
      "inputs": [
        {
          "internalType": "address",
          "name": "_usdtAddress",
          "type": "address"
        },
        {
          "internalType": "address",
          "name": "_usdtOracleAddress",
          "type": "address"
        }
      ],
      "name": "setUSDTConfig",
      "outputs": [],
      "stateMutability": "nonpayable",
      "type": "function"
    },
    {
      "inputs": [
        {
          "internalType": "address",
          "name": "_wrappedTokenFactory",
          "type": "address"
        }
      ],
      "name": "setWrappedTokenFactory",
      "outputs": [],
      "stateMutability": "nonpayable",
      "type": "function"
    },
    {
      "inputs": [
        {
          "internalType": "address",
          "name": "newOwner",
          "type": "address"
        }
      ],
      "name": "transferOwnership",
      "outputs": [],
      "stateMutability": "nonpayable",
      "type": "function"
    },
    {
      "inputs": [],
      "name": "usdtAddress",
      "outputs": [
        {
          "internalType": "address",
          "name": "",
          "type": "address"
        }
      ],
      "stateMutability": "view",
      "type": "function"
    },
    {
      "inputs": [],
      "name": "usdtOracleAddress",
      "outputs": [
        {
          "internalType": "address",
          "name": "",
          "type": "address"
        }
      ],
      "stateMutability": "view",
      "type": "function"
    },
    {
      "inputs": [],
      "name": "wrappedTokenFactory",
      "outputs": [
        {
          "internalType": "contract IWrappedTokenFactory",
          "name": "",
          "type": "address"
        }
      ],
      "stateMutability": "view",
      "type": "function"
    }
  ],
  "bytecode": "0x60803461010457601f614c7c38819003918201601f19168301916001600160401b038311848410176101095780849260209460405283398101031261010457516001600160a01b03808216918290036101045733156100eb576000549060018060a01b0319913383821617600055604051913391167f8be0079c531659141344cd1fd0a4f28419497f9722a3daafe3b4186f6b6457e0600080a382156100b757506007541617600755604051614b5c90816101208239f35b62461bcd60e51b815260206004820152600f60248201526e496e76616c696420666163746f727960881b6044820152606490fd5b604051631e4fbdf760e01b815260006004820152602490fd5b600080fd5b634e487b7160e01b600052604160045260246000fdfe6101c080604052600436101561001457600080fd5b6000908160a052813560e01c908163022914a7146114115750806306661abd146113f15780632325d8e4146113385780633941bf5214610e9857806340368db514610d83578063577da05814610d4d5780635787862114610d24578063715018a614610cc657806379bf49b814610c895780638da5cb5b14610c615780639ab4a44514610c38578063c82fcef014610bde578063ca18988a146101cc578063dc2a95bc14610b07578063dff11d7714610a51578063e297651214610203578063e34fec1d146101cc578063eaa7c826146101a05763f2fde38b146100f757600080fd5b3461019a57602036600319011261019a5761011061144d565b906101196115d7565b6001600160a01b03809216918215610168577f8be0079c531659141344cd1fd0a4f28419497f9722a3daafe3b4186f6b6457e0908254846001600160a01b03198216178455169180a360a05180f35b60246040517f1e4fbdf700000000000000000000000000000000000000000000000000000000815260a0516004820152fd5b60a05180fd5b3461019a5760a051806003193601126101c95760206001600160a01b0360075416604051908152f35b80fd5b3461019a57602036600319011261019a5760043560a05152600260205260206001600160a01b03604060a051205416604051908152f35b3461019a5760031960203682011261019a5767ffffffffffffffff6004351161019a5761024080916004353603011261019a5760405190810181811067ffffffffffffffff821117610a3957604052610260600435600401611468565b81526004356024810135602083015260448101356040830152606461012081905281013560608301526084810135608083015260a481013560a08301526102a99060c40161151e565b60c08201526102bc60e46004350161151e565b60e08201526004356101048101356101008301526101248101356101208301526102e99061014401611468565b6101408201526102fe61016460043501611468565b61016082015261031361018460043501611468565b6101808201526103286101a460043501611468565b6101a08201526101c460043501356101c082015260036101e46004350135101561019a576101e460043501356101e082015267ffffffffffffffff61020460043501351161019a5761038536600480356102048101350101611571565b61020082015267ffffffffffffffff61022460043501351161019a576103b636600480356102248101350101611571565b6102208201526103c46115d7565b6102008101515161022082015151036109f25761020081015151156109ab576103fc6001600160a01b0361016083015116151561161b565b6104156001600160a01b036101a0830151161515611666565b60a0519060405191826131a181011067ffffffffffffffff6131a185011117610995576131a16119af843960a05192806131a18101039084f0806101a0521561098a57819060e0820151610863575b81809181516001600160a01b03169060208301516101805260408301516060840151608085015160a086015160c0870151151561010088015190610120890151926101408a01516001600160a01b0316946101608b01516001600160a01b03169660e08c01511515986101808d01516001600160a01b03169c6101a001516001600160a01b03169d6101c001519e6101e0015180610160526003111561084b576001600160a01b039b61051c604051806080526114af565b608051526101805160206080510152604060805101526060608051015260808051015260a0608051015260c0608051015260e0608051015261010060805101526101206080510152610140608051015261016060805101521661018060805101526101a060805101526101c060805101526101e060805101526105a86101605161020060805101611793565b6001600160a01b036101a05116803b1561019a57604051630479c84560e21b815260a05181806105dd608051600483016117b5565b038160a051865af180156107515761083c575b5061020082015161022083015160a0515b8251811015610819576001600160a01b0361061c82856118b2565b5116156107ba576001600160a01b0361063582846118b2565b511615610773575b6001600160a01b0361064f82856118b2565b51166001600160a01b0361066383856118b2565b511690853b1561019a576040517f764467cc00000000000000000000000000000000000000000000000000000000815260a0516001600160a01b039283166004830152919092166024830152818060448101038160a051895af180156107515761075e575b506001600160a01b036106db82856118b2565b5116843b1561019a57604051907f1309b32400000000000000000000000000000000000000000000000000000000825260048201526001602482015260a0518160448183895af180156107515761073c575b506107379061188d565b610601565b610745906114cc565b60a051801561072d5780fd5b6040513d60a051823e3d90fd5b610767906114cc565b60a05180156106c85780fd5b60405162461bcd60e51b815260206004820152601e60248201527f496e76616c6964206f7261636c6520666f7220455243323020746f6b656e000060448201526101205190fd5b6001600160a01b036107cc82846118b2565b511661063d5760405162461bcd60e51b815260206004820152601d60248201527f496e76616c6964206f7261636c6520666f72206e61746976652045544800000060448201526101205190fd5b6020846108346001600160a01b0361014089015116826118c6565b604051908152f35b610845906114cc565b826105f0565b634e487b7160e01b60a051526021600452602460a051fd5b5060206001600160a01b036109359251166001600160a01b036101a08501511660a08501516101c0860151916040519361089c8561147c565b6040516108a8816114e0565b600d81526c2bb930b83832b2102a37b5b2b760991b8782015285526040516108cf816114e0565b600381526215d49560ea1b878201528686015260408501526060840152608083015260a08201526001600160a01b036101a0511660c08201523360e08201526001600160a01b0360075416604051808095819463a1b5f7fb60e01b835260048301611710565b039160a051905af180156107515782809291819260a0519161095b575b50915050610464565b61097d915060203d602011610983575b61097581836114fc565b8101906116b1565b85610952565b503d61096b565b6040513d84823e3d90fd5b634e487b7160e01b90526041600452602460a051fd5b60405162461bcd60e51b815260206004820152601a60248201527f4e6f207061796d656e7420746f6b656e732070726f766964656400000000000060448201526101205190fd5b60405162461bcd60e51b815260206004820152601560248201527f4172726179206c656e677468206d69736d61746368000000000000000000000060448201526101205190fd5b634e487b7160e01b60a051526041600452602460a051fd5b3461019a57602036600319011261019a57610a6a61144d565b610a726115d7565b6001600160a01b038091168015610ac35760075491816001600160a01b031984161760075560a05192167f9cd85baced21f5770117ab6f982e05f2fcdaaa82632c94ac761f3e411fab030b8380a380f35b606460405162461bcd60e51b815260206004820152600f60248201527f496e76616c696420666163746f727900000000000000000000000000000000006044820152fd5b3461019a5760a051806003193601126101c9576001805490610b2882611559565b90610b3660405192836114fc565b828252610b4283611559565b6020838101949091601f190136863760a0515b818110610ba057505060405192818401908285525180915260408401949160a0515b828110610b845785870386f35b83516001600160a01b0316875295810195928101928401610b77565b80610bd39160a09795979694965152600286526001600160a01b03604060a051205416610bcd82866118b2565b5261188d565b949294939193610b55565b3461019a57604036600319011261019a57610bf761144d565b6001600160a01b03602435911660a05152600460205260a051604081209081548310156101c9576020610c2a848461152b565b90546040519160031b1c8152f35b3461019a5760a051806003193601126101c95760206001600160a01b0360055416604051908152f35b3461019a5760a051806003193601126101c9576001600160a01b036020915416604051908152f35b3461019a57602036600319011261019a5760206001600160a01b0380610cad61144d565b1660a0515260038252604060a051205416604051908152f35b3461019a5760a051806003193601126101c957610ce16115d7565b60a051806001600160a01b0381546001600160a01b031981168355167f8be0079c531659141344cd1fd0a4f28419497f9722a3daafe3b4186f6b6457e08280a380f35b3461019a5760a051806003193601126101c95760206001600160a01b0360065416604051908152f35b3461019a5760a051806003193601126101c957600554600654604080516001600160a01b03938416815292909116602083015290f35b3461019a57604036600319011261019a57610d9c61144d565b602435906001600160a01b039081831680930361019a57610dbb6115d7565b16908115610e54578015610e1057806001600160a01b031983816005541617600555600654161760065560a051917f9708fedb34d7f4b974e53ac2d03b32eb2c50270b84ec301a97aa7e7d9e25810e8380a380f35b606460405162461bcd60e51b815260206004820152601660248201527f496e76616c6964206f7261636c652061646472657373000000000000000000006044820152fd5b606460405162461bcd60e51b815260206004820152601460248201527f496e76616c6964205553445420616464726573730000000000000000000000006044820152fd5b3461019a5761020036600319011261019a57604051610200810181811067ffffffffffffffff821117610a3957604052610ed061144d565b8152602435602082015260443560408201526064356060820152608435608082015260a43560a082015260c435801515810361019a5760c082015260e435801515810361019a5760e082015261010435610100820152610124356101208201526001600160a01b036101443516610144350361019a57610144356101408201526001600160a01b036101643516610164350361019a57610164356101608201526001600160a01b036101843516610184350361019a57610184356101808201526001600160a01b036101a435166101a4350361019a576101a4356101a08201526101c4356101c082015260036101e435101561019a576101e4356101e0820152610fd86115d7565b610ff16001600160a01b0361016083015116151561161b565b61100a6001600160a01b036101a0830151161515611666565b60a0519060405191826131a181011067ffffffffffffffff6131a185011117610995576131a16119af843960a05192806131a18101039084f080610100521561098a57819060e0820151611221575b81809181516001600160a01b031690602083015160c05260408301516060840151608085015160a086015160c0870151151561010088015190610120890151926101408a01516001600160a01b0316946101608b01516001600160a01b03169660e08c01511515986101808d01516001600160a01b03169c6101a001516001600160a01b03169d6101c001519e6101e001518060e0526003111561084b576001600160a01b039b61111060405180610140526114af565b610140515260c051602061014051015260406101405101526060610140510152608061014051015260a061014051015260c061014051015260e061014051015261010061014051015261012061014051015261014080510152610160610140510152166101806101405101526101a06101405101526101c06101405101526101e06101405101526111aa60e0516102006101405101611793565b6001600160a01b036101005116803b1561019a5760405191630479c84560e21b835260a05183806111e161014051600483016117b5565b038160a051865af192831561075157610140610834926001600160a01b0392602096611212575b50015116826118c6565b61121b906114cc565b86611208565b5060206001600160a01b036112f39251166001600160a01b036101a08501511660a08501516101c0860151916040519361125a8561147c565b604051611266816114e0565b600d81526c2bb930b83832b2102a37b5b2b760991b87820152855260405161128d816114e0565b600381526215d49560ea1b878201528686015260408501526060840152608083015260a08201526001600160a01b03610100511660c08201523360e08201526001600160a01b0360075416604051808095819463a1b5f7fb60e01b835260048301611710565b039160a051905af180156107515782809291819260a05191611319575b50915050611059565b611332915060203d6020116109835761097581836114fc565b85611310565b3461019a5760208060031936011261019a576001600160a01b0361135a61144d565b1660a0515260048152604060a051206040519081838254918281520190819260a0515260a05190858220915b868282106113dd57868661139c828803836114fc565b604051928392818401908285525180915260408401929160a0515b8281106113c657505050500390f35b8351855286955093810193928101926001016113b7565b835485529093019260019283019201611386565b3461019a5760a051806003193601126101c9576020600154604051908152f35b9050346114495760203660031901126114495760209160406001600160a01b03918261143b61144d565b168152600385522054168152f35b5080fd5b600435906001600160a01b038216820361146357565b600080fd5b35906001600160a01b038216820361146357565b610100810190811067ffffffffffffffff82111761149957604052565b634e487b7160e01b600052604160045260246000fd5b610220810190811067ffffffffffffffff82111761149957604052565b67ffffffffffffffff811161149957604052565b6040810190811067ffffffffffffffff82111761149957604052565b90601f8019910116810190811067ffffffffffffffff82111761149957604052565b3590811515820361146357565b80548210156115435760005260206000200190600090565b634e487b7160e01b600052603260045260246000fd5b67ffffffffffffffff81116114995760051b60200190565b81601f820112156114635780359161158883611559565b9261159660405194856114fc565b808452602092838086019260051b820101928311611463578301905b8282106115c0575050505090565b8380916115cc84611468565b8152019101906115b2565b6001600160a01b036000541633036115eb57565b60246040517f118cdaa7000000000000000000000000000000000000000000000000000000008152336004820152fd5b1561162257565b606460405162461bcd60e51b815260206004820152601660248201527f496e76616c696420657363726f772061646472657373000000000000000000006044820152fd5b1561166d57565b606460405162461bcd60e51b815260206004820152601c60248201527f496e76616c6964207061796f757420746f6b656e2061646472657373000000006044820152fd5b9081602091031261146357516001600160a01b03811681036114635790565b919082519283825260005b8481106116fc575050826000602080949584010152601f8019910116010190565b6020818301810151848301820152016116db565b602081528151611747611731610100928360208601526101208501906116d0565b6020850151848203601f190160408601526116d0565b9260e06001600160a01b0391826040820151166060860152826060820151166080860152608081015160a086015260a081015160c08601528260c0820151168286015201511691015290565b600382101561179f5752565b634e487b7160e01b600052602160045260246000fd5b9190916102208101926001600160a01b038082511683526020820151602084015260408201516040840152606082015160608401526080820151608084015260a082015160a084015260c0820151151560c084015260e082015160e08401526101008083015190840152610120818184015116908401526101408181840151169084015261016080830151151590840152610180818184015116908401526101a0818184015116908401526101c0908183015116908301526101e080820151908301526102008091015191600383101561179f570152565b600019811461189c5760010190565b634e487b7160e01b600052601160045260246000fd5b80518210156115435760209160051b010190565b9190600154926000938452600260205260408420916001600160a01b03809216926001600160a01b03199084828254161790558386526003602052604086209033908254161790551690818452600460205260408420600154908054956801000000000000000087101561199a575085611949916001611995979801815561152b565b819291549060031b91821b91600019901b191617905560015491604051908152827f4dd34c1e85386b354efed754df3c56823235e0653e32231c2448e8d3278145d060203393a461188d565b600155565b80634e487b7160e01b602492526041600452fdfe6080806040523461001b57600160025561318090816100218239f35b600080fdfe608080604052600436101561009e575b50361561005a57606460405162461bcd60e51b815260206004820152601560248201527f46616c6c6261636b206e6f7420616363657074656400000000000000000000006044820152fd5b606460405162461bcd60e51b815260206004820152601960248201527f446972656374204c554d4941206e6f74206163636570746564000000000000006044820152fd5b600090813560e01c9081622e131614612ac05750806301ffc9a714612a1e5780630b97bc8614612a005780630d342cab146129dd5780630d5defa4146129b657806311e72114146123155780631309b324146122955780631e1a268b14612272578063248a9ca3146122465780632b4353f2146122285780632f2ff15d146121eb57806336568abe1461218b5780633784f0001461205a5780633e646208146120305780633f4ba83a14611fa15780634b31bb1014611f7a5780634fff540214611f545780635c975abb14611f315780635cc0483814611f0a57806361d027b314611ee0578063653ac422146112955780636a61e5fc1461123c578063764467cc1461117057806377d392f014610ef75780637ff9b59614610ed95780638456cb5914610e7357806388e32fc214610da75780638a18511314610d6c5780638ac2c68014610d4e5780638cd0593314610d2657806390838e0914610cee57806391d1485414610ca2578063a217fddf14610c86578063a6527f3914610c48578063b13ef13814610c0a578063b37fd19014610878578063b96627971461085a578063bbcc0a061461083c578063bd49243214610801578063c031a66f146107c9578063c24a0f8b146107ab578063c5c4744c1461078d578063d547741f1461074c578063d59624b41461072e578063df695abb146106f1578063df8de3e714610314578063e985e367146102ed5763fb903b1d0361000f57346102ea5760403660031901126102ea576024356004356102d5612be8565b6102e182821115612f47565b60045560055580f35b80fd5b50346102ea57806003193601126102ea5760206001600160a01b0360035416604051908152f35b50346102ea57602090816003193601126102ea57610330612b28565b610338613097565b610340612f92565b6001600160a01b039182600e5416330361068657600854421061064257828216918282526015855260408220549384156105fe576024868260035416604051928380926370a0823160e01b82523060048301525afa801561050757869085906105c8575b6103b09250101561300b565b838352601586528260408120556103c985600c5461311b565b600c55858560ff600d5460081c1660001461051257906104249183600354168487600d546040519687958694859363095ea7b360e01b855260101c1660048401602090939291936001600160a01b0360408201951681520152565b03925af18015610507576104da575b50600d5460101c1660ff6011541691813b156104d657918391868361046f95604051968795869485936348e8a94960e01b85526004850161306e565b03925af180156104cb576104b7575b50505b7fd8138f8a3f377c5259ca548e70e4c2de94f129f5a11036a15b69513cba2b426a83604051848152a26001600255604051908152f35b6104c18291612adc565b6102ea578061047e565b6040513d84823e3d90fd5b8380fd5b6104f990873d8911610500575b6104f18183612b06565b810190613056565b5038610433565b503d6104e7565b6040513d86823e3d90fd5b60035460405163a9059cbb60e01b81526001600160a01b0395909516600486015260248501919091529091839160449183918791165af19182156105bc579161059f575b50610481576064836040519062461bcd60e51b82526004820152601560248201527f546f6b656e207472616e73666572206661696c656400000000000000000000006044820152fd5b6105b69150843d8611610500576104f18183612b06565b38610556565b604051903d90823e3d90fd5b50508681813d83116105f7575b6105df8183612b06565b810103126105f257856103b091516103a4565b600080fd5b503d6105d5565b6064866040519062461bcd60e51b82526004820152601260248201527f4e6f20746f6b656e7320746f20636c61696d00000000000000000000000000006044820152fd5b6064846040519062461bcd60e51b82526004820152601460248201527f4d61747572697479206e6f7420726561636865640000000000000000000000006044820152fd5b60405162461bcd60e51b815260206004820152602c60248201527f43616c6c6572206973206e6f742074686520696e766573746d656e744d616e6160448201527f67657220636f6e747261637400000000000000000000000000000000000000006064820152608490fd5b50346102ea5760203660031901126102ea5760ff60406020926001600160a01b0361071a612b28565b168152601484522054166040519015158152f35b50346102ea57806003193601126102ea576020600854604051908152f35b50346102ea5760403660031901126102ea5761078960043561076c612b3e565b90808452836020526107846001604086200154612c44565b612ed1565b5080f35b50346102ea57806003193601126102ea576020600b54604051908152f35b50346102ea57806003193601126102ea576020600754604051908152f35b50346102ea5760203660031901126102ea5760406020916001600160a01b036107f0612b28565b168152601583522054604051908152f35b50346102ea5760203660031901126102ea5760209060406001600160a01b03918261082a612b28565b16815260178452205416604051908152f35b50346102ea57806003193601126102ea576020600c54604051908152f35b50346102ea57806003193601126102ea576020600a54604051908152f35b50346102ea5760603660031901126102ea57610892612b28565b602480356044918235926001600160a01b0393848116958682036105f2576108b8612b77565b6108c0613097565b8615610bc757851694856109ef57508347106109ac578680808681945af13d156109a7573d67ffffffffffffffff8111610994576040519061090c601f8201601f191660200183612b06565b81528760203d92013e5b1561095157505060207fd27dd37d941f5a1b76926e48140fdbf50a0c59defb5431a391a1260279eb1c4c915b604051908152a3600160025580f35b907f4c554d494120726573637565206661696c65640000000000000000000000000060649260136040519362461bcd60e51b855260206004860152840152820152fd5b8388634e487b7160e01b81526041600452fd5b610916565b6064837f4e6f7420656e6f756768204c554d4941000000000000000000000000000000008460106040519362461bcd60e51b855260206004860152840152820152fd5b600393919354168514610b8557604051926370a0823160e01b8452306004850152602093848184818a5afa8015610b7a5786918a91610b49575b5010610b075760405163a9059cbb60e01b81526001600160a01b039190911660048201526024810185905283816044818b8a5af1908115610afc578891610adf575b5015610a9d5750505060207fd27dd37d941f5a1b76926e48140fdbf50a0c59defb5431a391a1260279eb1c4c91610942565b6064929160137f455243323020726573637565206661696c656400000000000000000000000000926040519462461bcd60e51b86526004860152840152820152fd5b610af69150843d8611610500576104f18183612b06565b38610a6b565b6040513d8a823e3d90fd5b6064847f4e6f7420656e6f75676820746f6b656e73000000000000000000000000000000856011866040519462461bcd60e51b86526004860152840152820152fd5b809250868092503d8311610b73575b610b628183612b06565b810103126105f25785905138610a29565b503d610b58565b6040513d8b823e3d90fd5b7f43616e6e6f74207265736375652073616c65546f6b656e00000000000000000060649260176040519362461bcd60e51b855260206004860152840152820152fd5b6064847f496e76616c696420726563697069656e740000000000000000000000000000008560116040519362461bcd60e51b855260206004860152840152820152fd5b50346102ea5760203660031901126102ea57610789610c27612b28565b610c2f612b77565b610c436001600160a01b0382161515613128565b612cfa565b50346102ea5760203660031901126102ea57610789610c65612b28565b610c6d612b77565b610c816001600160a01b0382161515613128565b612e26565b50346102ea57806003193601126102ea57602090604051908152f35b50346102ea5760403660031901126102ea576001600160a01b036040610cc6612b3e565b92600435815280602052209116600052602052602060ff604060002054166040519015158152f35b50346102ea5760203660031901126102ea5760406020916001600160a01b03610d15612b28565b168152601683522054604051908152f35b50346102ea57806003193601126102ea57602060ff60115416610d4c6040518092612b54565bf35b50346102ea57806003193601126102ea576020600454604051908152f35b50346102ea57806003193601126102ea5760206040517f35369b3a7bb98c90641a907c2fd643ea781341eba72ccffd47cb018c128c48c38152f35b50346102ea5760203660031901126102ea57610dc1612b28565b610dc9612b77565b6001600160a01b0380911690818352601760205260408320541615610e2f578082526017602052604082206001600160a01b031981541690557fc1d3048301c0d23629a2532c8defa6d68f8e1a0e4157918769e9fb1b2eeb888e6020604051848152a280f35b606460405162461bcd60e51b815260206004820152601360248201527f4e6f206f7261636c6520746f2072656d6f7665000000000000000000000000006044820152fd5b50346102ea57806003193601126102ea57610e8c612b77565b610e94612f92565b600160ff198154161760015560206040513381527f62e78cea01bee320cd4e420270b5ea74000d11b0c9f74754ebdbfc544b05a258918291a16020604051338152a180f35b50346102ea57806003193601126102ea576020601354604051908152f35b50346102ea5760208060031936011261116c57610f12612b28565b90610f1b612be8565b610f23613097565b600854421115611128576001600160a01b03918281169283156110e457600354166040516370a0823160e01b81523060048201528381602481855afa80156110d95786906110aa575b610f7a9150600c549061311b565b9182156110665760405163a9059cbb60e01b81526001600160a01b03919091166004820152602481018390529083908290604490829089905af190811561105b57859161103e575b5015610ffa57907ffcbf6553b2cfc097c2301f1c071469a8839b462e7287e3692f238ccfc6b9208f91604051908152a2600160025580f35b6064826040519062461bcd60e51b82526004820152600e60248201527f5265636c61696d206661696c65640000000000000000000000000000000000006044820152fd5b6110559150833d8511610500576104f18183612b06565b38610fc2565b6040513d87823e3d90fd5b6064846040519062461bcd60e51b82526004820152601360248201527f4e6f20756e636c61696d656420746f6b656e73000000000000000000000000006044820152fd5b508381813d83116110d2575b6110c08183612b06565b810103126105f257610f7a9051610f6c565b503d6110b6565b6040513d88823e3d90fd5b6064836040519062461bcd60e51b82526004820152600f60248201527f496e76616c6964206164647265737300000000000000000000000000000000006044820152fd5b6064906040519062461bcd60e51b82526004820152600b60248201527f4e6f74206d6174757265640000000000000000000000000000000000000000006044820152fd5b5080fd5b50346102ea5760403660031901126102ea5761118a612b28565b611192612b3e565b61119a612b77565b6001600160a01b038091169182156111f8577fc1d3048301c0d23629a2532c8defa6d68f8e1a0e4157918769e9fb1b2eeb888e9160209116928385526017825260408520816001600160a01b0319825416179055604051908152a280f35b606460405162461bcd60e51b815260206004820152601660248201527f496e76616c6964206f7261636c652061646472657373000000000000000000006044820152fd5b50346102ea5760203660031901126102ea577f6b361c807733cc94a3b7bda39c1c94dcc0511e91aa47b0f7f918068e93976890602060043561127c612be8565b6112878115156130d0565b80601355604051908152a180f35b5060603660031901126102ea576112aa612b28565b906112b3612b3e565b916112bc613097565b6112c4612f92565b6001600160a01b03600e54163303610686576001600160a01b03831615611e9c5760ff600d5416611e58576006544210611e1457600754421015611dd0576001600160a01b0381168252601460205260ff60408320541615611d8c5760443515611d48576001600160a01b038116825260176020526001600160a01b036040832054168015611d045760406004918151928380927f57de26a40000000000000000000000000000000000000000000000000000000082525afa908115611cf9578391611cab575b50601b0b9161139b8184136130d0565b6001600160a01b038216611c22576012925b806044350290604435820403611c0e57670de0b6b3a76400009384820291808304861490151715611b2e5760ff16604d8111611b2e5784916113f291600a0a90612feb565b046004548110611bca576001600160a01b0385168252601660205261141b816040842054612fc8565b60055410611b8657600b54936114318286612fc8565b600a5410611b4257808202908282041482151715611b2e5760135461145591612feb565b938415611aea578161146691612fc8565b600b556001600160a01b0385168252601660205261148960408320918254612fc8565b905560ff60095416611a6b575b6001600160a01b038216611888576044353403611844576001600160a01b0360125416803b1561116c5781604491604051928380927f701bb8910000000000000000000000000000000000000000000000000000000082523060048301526001600160a01b038a16602483015234905af180156104cb57908291611830575b50505b60095460ff16156117d457600d5460081c60ff16156116f357600354600d5460405163095ea7b360e01b81526001600160a01b0360109290921c8216600482015260248101869052916020918391168185816044810103925af19081156104cb5782916116d4575b5015611690576001600160a01b03600d5460101c1660ff60115416813b1561168c576115c7839283926040519485809481936348e8a94960e01b83528b8d6004850161306e565b03925af180156104cb57611678575b50507f93638e6cf18b4f6a839de65df95898221f5d9f7dc54b87d4b31d40297643266e60606001600160a01b036020955b8160405195168552604435878601528560408601521692a2600b54600a5481101561163b575b506001600255604051908152f35b827fcb67f20f64495b30f15524c55f90201dd6571d6b5c19dac183d2aeb25315b2dc91600160ff19600d541617600d55604051908152a13861162d565b6116828291612adc565b6102ea57806115d6565b8280fd5b606460405162461bcd60e51b815260206004820152600e60248201527f417070726f7665206661696c65640000000000000000000000000000000000006044820152fd5b6116ed915060203d602011610500576104f18183612b06565b38611580565b60035460405163a9059cbb60e01b81526001600160a01b038681166004830152602482018690529091602091839160449183918791165af19182156105bc57916117b5575b5015611771577f93638e6cf18b4f6a839de65df95898221f5d9f7dc54b87d4b31d40297643266e60606001600160a01b03602095611607565b606460405162461bcd60e51b815260206004820152601460248201527f4175746f2d7472616e73666572206661696c65640000000000000000000000006044820152fd5b6117ce915060203d602011610500576104f18183612b06565b38611738565b60606001600160a01b038560407f93638e6cf18b4f6a839de65df95898221f5d9f7dc54b87d4b31d40297643266e9483602099168152601589522061181a878254612fc8565b905561182886600c54612fc8565b600c55611607565b61183990612adc565b6102ea578038611515565b606460405162461bcd60e51b815260206004820152601760248201527f496e636f7272656374206e617469766520616d6f756e740000000000000000006044820152fd5b34611a01576040517f23b872dd0000000000000000000000000000000000000000000000000000000081526001600160a01b03851660048201523060248201526044356044820152602081606481856001600160a01b0388165af180156104cb576119e2575b5060125460405163095ea7b360e01b81526001600160a01b039182166004820152604480356024830152909160209183918290869088165af180156104cb576119c3575b506001600160a01b0360125416803b1561116c578180916084604051809481937f0ef7c5a70000000000000000000000000000000000000000000000000000000083523060048401526001600160a01b038b1660248401526001600160a01b038916604484015260443560648401525af180156104cb576119b4575b50611518565b6119bd90612adc565b386119ae565b6119db9060203d602011610500576104f18183612b06565b5038611932565b6119fa9060203d602011610500576104f18183612b06565b50386118ee565b608460405162461bcd60e51b815260206004820152602160248201527f446f206e6f742073656e642045544820666f7220746f6b656e207061796d656e60448201527f74000000000000000000000000000000000000000000000000000000000000006064820152fd5b602460206001600160a01b0360035416604051928380926370a0823160e01b82523060048301525afa80156104cb5784908390611ab4575b611aaf9250101561300b565b611496565b50506020813d602011611ae2575b81611acf60209383612b06565b8101031261116c5783611aaf9151611aa3565b3d9150611ac2565b606460405162461bcd60e51b815260206004820152601460248201527f546f6b656e20616d6f756e7420746f6f206c6f770000000000000000000000006044820152fd5b602483634e487b7160e01b81526011600452fd5b606460405162461bcd60e51b815260206004820152600b60248201527f45786365656473206361700000000000000000000000000000000000000000006044820152fd5b606460405162461bcd60e51b815260206004820152601660248201527f45786365656473206d617820696e766573746d656e74000000000000000000006044820152fd5b606460405162461bcd60e51b815260206004820152601460248201527f42656c6f77206d696e20696e766573746d656e740000000000000000000000006044820152fd5b602482634e487b7160e01b81526011600452fd5b6040517f313ce5670000000000000000000000000000000000000000000000000000000081526020816004816001600160a01b0387165afa9081156104cb578291611c6f575b50926113ad565b90506020813d602011611ca3575b81611c8a60209383612b06565b8101031261116c575160ff8116810361116c5738611c68565b3d9150611c7d565b90506040813d604011611cf1575b81611cc660409383612b06565b8101031261168c5780519081601b0b82036104d6576020015163ffffffff81160361168c573861138b565b3d9150611cb9565b6040513d85823e3d90fd5b606460405162461bcd60e51b815260206004820152600e60248201527f4f7261636c65206e6f74207365740000000000000000000000000000000000006044820152fd5b606460405162461bcd60e51b815260206004820152600b60248201527f5a65726f20616d6f756e740000000000000000000000000000000000000000006044820152fd5b606460405162461bcd60e51b815260206004820152601560248201527f546f6b656e206e6f742077686974656c697374656400000000000000000000006044820152fd5b606460405162461bcd60e51b815260206004820152600a60248201527f53616c6520656e646564000000000000000000000000000000000000000000006044820152fd5b606460405162461bcd60e51b815260206004820152601060248201527f53616c65206e6f742073746172746564000000000000000000000000000000006044820152fd5b606460405162461bcd60e51b815260206004820152600e60248201527f53616c6520697320636c6f7365640000000000000000000000000000000000006044820152fd5b606460405162461bcd60e51b815260206004820152601860248201527f496e76616c696420696e766573746f72206164647265737300000000000000006044820152fd5b50346102ea57806003193601126102ea5760206001600160a01b0360115460101c16604051908152f35b50346102ea57806003193601126102ea5760206001600160a01b03600f5416604051908152f35b50346102ea57806003193601126102ea57602060ff600154166040519015158152f35b50346102ea57806003193601126102ea57602060ff600d5460081c166040519015158152f35b50346102ea57806003193601126102ea5760206001600160a01b03600e5416604051908152f35b50346102ea57806003193601126102ea57611fba612b77565b60015460ff8116156120065760ff191660015560206040513381527f5db9ee0a495bf2e6ff9c91a7834c1ba4fdd244a5e8aa4e537bd38aeae4b073aa918291a16020604051338152a180f35b60046040517f8dfc202b000000000000000000000000000000000000000000000000000000008152fd5b50346102ea57806003193601126102ea5760206001600160a01b03600d5460101c16604051908152f35b50346102ea5760203660031901126102ea57600435612077612b77565b42811115612147576007548111156120dd576008548110156120995760075580f35b606460405162461bcd60e51b815260206004820152602060248201527f456e642064617465206d757374206265206265666f7265206d617475726974796044820152fd5b608460405162461bcd60e51b815260206004820152602260248201527f4e657720656e642064617465206d75737420626520616674657220637572726560448201527f6e740000000000000000000000000000000000000000000000000000000000006064820152fd5b606460405162461bcd60e51b815260206004820152601060248201527f496e76616c696420656e642064617465000000000000000000000000000000006044820152fd5b50346102ea5760403660031901126102ea576121a5612b3e565b336001600160a01b038216036121c15761078990600435612ed1565b60046040517f6697b232000000000000000000000000000000000000000000000000000000008152fd5b50346102ea5760403660031901126102ea5761078960043561220b612b3e565b90808452836020526122236001604086200154612c44565b612dac565b50346102ea57806003193601126102ea576020601054604051908152f35b50346102ea5760203660031901126102ea57600160406020926004358152808452200154604051908152f35b50346102ea57806003193601126102ea57602060ff600d54166040519015158152f35b50346102ea5760403660031901126102ea576122af612b28565b6024359081151580920361168c5760206001600160a01b037f91ad45a5ce97c5eee55fa01496772afefc7f0757ed9eac59064e642690509dfb926122f1612b77565b1692838552601482526040852060ff1981541660ff8316179055604051908152a280f35b50346102ea576102208060031936011261116c5760405190810181811067ffffffffffffffff8211176129a25760405261234d612b28565b8152602435602082015260443560408201526064356060820152608435608082015260a43560a082015260c435801515810361168c5760c082015260e43560e0820152610104356101008201526001600160a01b036101243516610124350361116c5761012435610120820152610144356001600160a01b038116810361168c57610140820152610164351515610164350361116c57610164356101608201526001600160a01b036101843516610184350361116c57610184356101808201526001600160a01b036101a435166101a4350361116c576101a4356101a08201526101c4356001600160a01b038116810361168c576101c08201526101e4356101e0820152600361020435101561116c576102043561020082015260115460ff8160081c1661295e576001600160a01b038251161561291a576001600160a01b0361012083015116156128d6576001600160a01b036101408301511615612892576001600160a01b036101a083015116156128285760e0820151156127e457610100820151156127a0576124ea602083015160408401511015612f47565b6060820151421161275c576060820151608083015111156126f2576001600160a01b036101c083015116156126ae576001600160a01b038251166001600160a01b03196003541617600355602082015160045560408201516005556060820151600655608082015160075560a082015160085560c0820151151560ff199060ff826009541691161760095560e0830151600a556101008301516013556001600160a01b03610140840151166001600160a01b031960125416176012556101608301511515600d547fffffffffffffffffffff000000000000000000000000000000000000000000ff61ff0075ffffffffffffffffffffffffffffffffffffffff000061018088015160101b169360081b1691161717600d556001600160a01b036101a0840151166001600160a01b0319600e541617600e556001600160a01b036101c0840151166001600160a01b0319600f541617600f556101e0830151601055610200830151600381101561269a57926001600160a01b03926101209260ff612687961691161760115561267e33612c6a565b50015116612cfa565b5061010061ff0019601154161760115580f35b602485634e487b7160e01b81526021600452fd5b606460405162461bcd60e51b815260206004820152601c60248201527f496e76616c6964207061796f757420746f6b656e2061646472657373000000006044820152fd5b608460405162461bcd60e51b815260206004820152602260248201527f53746172742064617465206d757374206265206265666f726520656e6420646160448201527f74650000000000000000000000000000000000000000000000000000000000006064820152fd5b606460405162461bcd60e51b815260206004820152602060248201527f53746172742064617465206d75737420626520696e20746865206675747572656044820152fd5b606460405162461bcd60e51b815260206004820152601c60248201527f546f6b656e207072696365206d75737420626520706f736974697665000000006044820152fd5b606460405162461bcd60e51b815260206004820152602060248201527f46756e6472616973696e6720636170206d75737420626520706f7369746976656044820152fd5b608460405162461bcd60e51b815260206004820152602260248201527f496e76616c696420696e766573746d656e74206d616e6167657220616464726560448201527f73730000000000000000000000000000000000000000000000000000000000006064820152fd5b606460405162461bcd60e51b815260206004820152601660248201527f496e76616c696420657363726f772061646472657373000000000000000000006044820152fd5b606460405162461bcd60e51b815260206004820152601360248201527f496e76616c696420746f6b656e206f776e6572000000000000000000000000006044820152fd5b606460405162461bcd60e51b815260206004820152601260248201527f496e76616c69642073616c6520746f6b656e00000000000000000000000000006044820152fd5b606460405162461bcd60e51b815260206004820152601360248201527f416c726561647920696e697469616c697a6564000000000000000000000000006044820152fd5b602483634e487b7160e01b81526041600452fd5b50346102ea57806003193601126102ea5760206001600160a01b0360125416604051908152f35b50346102ea57806003193601126102ea57602060ff600954166040519015158152f35b50346102ea57806003193601126102ea576020600654604051908152f35b50346102ea5760203660031901126102ea576004357fffffffff00000000000000000000000000000000000000000000000000000000811680910361116c57807f7965db0b0000000000000000000000000000000000000000000000000000000060209214908115612a96575b506040519015158152f35b7f01ffc9a70000000000000000000000000000000000000000000000000000000091501482612a8b565b90503461116c578160031936011261116c576020906005548152f35b67ffffffffffffffff8111612af057604052565b634e487b7160e01b600052604160045260246000fd5b90601f8019910116810190811067ffffffffffffffff821117612af057604052565b600435906001600160a01b03821682036105f257565b602435906001600160a01b03821682036105f257565b906003821015612b615752565b634e487b7160e01b600052602160045260246000fd5b3360009081527fad3228b676f7d3cd4284a5443f17f1962b36e491b30a40b2405849e597ba5fb5602052604081205460ff1615612bb15750565b604490604051907fe2517d3f0000000000000000000000000000000000000000000000000000000082523360048301526024820152fd5b3360009081527f7dfc0114fc2b0320947240cbd60a9ffc193468a941c37441e641a928a8c116d560205260409020547f35369b3a7bb98c90641a907c2fd643ea781341eba72ccffd47cb018c128c48c39060ff1615612bb15750565b80600052600060205260406000203360005260205260ff6040600020541615612bb15750565b6001600160a01b031660008181527fad3228b676f7d3cd4284a5443f17f1962b36e491b30a40b2405849e597ba5fb5602052604081205490919060ff16612cf657818052816020526040822081835260205260408220600160ff1982541617905533917f2f8788117e7eff1d82e926ec794901d17c78024a50270940304540a733656f0d8180a4600190565b5090565b6001600160a01b031660008181527f7dfc0114fc2b0320947240cbd60a9ffc193468a941c37441e641a928a8c116d560205260408120549091907f35369b3a7bb98c90641a907c2fd643ea781341eba72ccffd47cb018c128c48c39060ff16612da757808352826020526040832082845260205260408320600160ff198254161790557f2f8788117e7eff1d82e926ec794901d17c78024a50270940304540a733656f0d339380a4600190565b505090565b90600091808352826020526001600160a01b036040842092169182845260205260ff60408420541615600014612da757808352826020526040832082845260205260408320600160ff198254161790557f2f8788117e7eff1d82e926ec794901d17c78024a50270940304540a733656f0d339380a4600190565b6001600160a01b031660008181527f7dfc0114fc2b0320947240cbd60a9ffc193468a941c37441e641a928a8c116d560205260408120549091907f35369b3a7bb98c90641a907c2fd643ea781341eba72ccffd47cb018c128c48c39060ff1615612da75780835282602052604083208284526020526040832060ff1981541690557ff6391f5c32d9c69d2a47ea670b442974b53935d1edc7fd64eb21e047a839171b339380a4600190565b90600091808352826020526001600160a01b036040842092169182845260205260ff604084205416600014612da75780835282602052604083208284526020526040832060ff1981541690557ff6391f5c32d9c69d2a47ea670b442974b53935d1edc7fd64eb21e047a839171b339380a4600190565b15612f4e57565b606460405162461bcd60e51b815260206004820152601460248201527f4d696e203e206d617820696e766573746d656e740000000000000000000000006044820152fd5b60ff60015416612f9e57565b60046040517fd93c0665000000000000000000000000000000000000000000000000000000008152fd5b91908201809211612fd557565b634e487b7160e01b600052601160045260246000fd5b8115612ff5570490565b634e487b7160e01b600052601260045260246000fd5b1561301257565b606460405162461bcd60e51b815260206004820152601860248201527f496e73756666696369656e742073616c6520746f6b656e7300000000000000006044820152fd5b908160209103126105f2575180151581036105f25790565b60409061309593959492956001600160a01b03606083019716825260208201520190612b54565b565b60028054146130a65760028055565b60046040517f3ee5aeb5000000000000000000000000000000000000000000000000000000008152fd5b156130d757565b606460405162461bcd60e51b815260206004820152600d60248201527f496e76616c6964207072696365000000000000000000000000000000000000006044820152fd5b91908203918211612fd557565b1561312f57565b606460405162461bcd60e51b815260206004820152600c60248201527f5a65726f206164647265737300000000000000000000000000000000000000006044820152fdfea164736f6c6343000814000aa164736f6c6343000814000a",
  "linkReferences": {},
  "deployedLinkReferences": {}
}