{
  "_format": "hh-sol-artifact-1",
  "contractName": "InvestmentManager",
  "sourceName": "contracts/InvestmentManager.sol",
  "abi": [
    {
      "inputs": [],
      "stateMutability": "nonpayable",
      "type": "constructor"
    },
    {
      "inputs": [],
      "name": "ECDSAInvalidSignature",
      "type": "error"
    },
    {
      "inputs": [
        {
          "internalType": "uint256",
          "name": "length",
          "type": "uint256"
        }
      ],
      "name": "ECDSAInvalidSignatureLength",
      "type": "error"
    },
    {
      "inputs": [
        {
          "internalType": "bytes32",
          "name": "s",
          "type": "bytes32"
        }
      ],
      "name": "ECDSAInvalidSignatureS",
      "type": "error"
    },
    {
      "inputs": [
        {
          "internalType": "address",
          "name": "owner",
          "type": "address"
        }
      ],
      "name": "OwnableInvalidOwner",
      "type": "error"
    },
    {
      "inputs": [
        {
          "internalType": "address",
          "name": "account",
          "type": "address"
        }
      ],
      "name": "OwnableUnauthorizedAccount",
      "type": "error"
    },
    {
      "anonymous": false,
      "inputs": [
        {
          "indexed": true,
          "internalType": "address",
          "name": "investor",
          "type": "address"
        },
        {
          "indexed": true,
          "internalType": "address",
          "name": "offeringAddress",
          "type": "address"
        },
        {
          "indexed": true,
          "internalType": "address",
          "name": "paymentToken",
          "type": "address"
        },
        {
          "indexed": false,
          "internalType": "uint256",
          "name": "paidAmount",
          "type": "uint256"
        },
        {
          "indexed": false,
          "internalType": "uint256",
          "name": "tokensReceived",
          "type": "uint256"
        }
      ],
      "name": "InvestmentRouted",
      "type": "event"
    },
    {
      "anonymous": false,
      "inputs": [
        {
          "indexed": true,
          "internalType": "address",
          "name": "investor",
          "type": "address"
        },
        {
          "indexed": true,
          "internalType": "address",
          "name": "offeringAddress",
          "type": "address"
        },
        {
          "indexed": true,
          "internalType": "address",
          "name": "paymentToken",
          "type": "address"
        },
        {
          "indexed": false,
          "internalType": "uint256",
          "name": "paidAmount",
          "type": "uint256"
        },
        {
          "indexed": false,
          "internalType": "uint256",
          "name": "tokensReceived",
          "type": "uint256"
        },
        {
          "indexed": false,
          "internalType": "bytes32",
          "name": "signatureHash",
          "type": "bytes32"
        }
      ],
      "name": "KYBValidatedInvestment",
      "type": "event"
    },
    {
      "anonymous": false,
      "inputs": [
        {
          "indexed": true,
          "internalType": "address",
          "name": "validator",
          "type": "address"
        }
      ],
      "name": "KYBValidatorAdded",
      "type": "event"
    },
    {
      "anonymous": false,
      "inputs": [
        {
          "indexed": true,
          "internalType": "address",
          "name": "validator",
          "type": "address"
        }
      ],
      "name": "KYBValidatorRemoved",
      "type": "event"
    },
    {
      "anonymous": false,
      "inputs": [
        {
          "indexed": true,
          "internalType": "address",
          "name": "oldValidator",
          "type": "address"
        },
        {
          "indexed": true,
          "internalType": "address",
          "name": "newValidator",
          "type": "address"
        }
      ],
      "name": "KYBValidatorUpdated",
      "type": "event"
    },
    {
      "anonymous": false,
      "inputs": [
        {
          "indexed": true,
          "internalType": "address",
          "name": "previousOwner",
          "type": "address"
        },
        {
          "indexed": true,
          "internalType": "address",
          "name": "newOwner",
          "type": "address"
        }
      ],
      "name": "OwnershipTransferred",
      "type": "event"
    },
    {
      "anonymous": false,
      "inputs": [
        {
          "indexed": true,
          "internalType": "address",
          "name": "investor",
          "type": "address"
        },
        {
          "indexed": true,
          "internalType": "address",
          "name": "offeringAddress",
          "type": "address"
        },
        {
          "indexed": true,
          "internalType": "address",
          "name": "token",
          "type": "address"
        },
        {
          "indexed": false,
          "internalType": "uint256",
          "name": "amount",
          "type": "uint256"
        }
      ],
      "name": "RefundClaimed",
      "type": "event"
    },
    {
      "anonymous": false,
      "inputs": [
        {
          "indexed": true,
          "internalType": "address",
          "name": "investor",
          "type": "address"
        },
        {
          "indexed": true,
          "internalType": "address",
          "name": "offeringAddress",
          "type": "address"
        },
        {
          "indexed": false,
          "internalType": "uint256",
          "name": "amount",
          "type": "uint256"
        }
      ],
      "name": "TokensClaimed",
      "type": "event"
    },
    {
      "anonymous": false,
      "inputs": [
        {
          "indexed": true,
          "internalType": "address",
          "name": "offeringAddress",
          "type": "address"
        }
      ],
      "name": "refundEnabled",
      "type": "event"
    },
    {
      "inputs": [
        {
          "internalType": "address",
          "name": "_kybValidator",
          "type": "address"
        }
      ],
      "name": "addKYBValidator",
      "outputs": [],
      "stateMutability": "nonpayable",
      "type": "function"
    },
    {
      "inputs": [
        {
          "internalType": "address",
          "name": "_offeringAddress",
          "type": "address"
        }
      ],
      "name": "claimInvestmentTokens",
      "outputs": [],
      "stateMutability": "nonpayable",
      "type": "function"
    },
    {
      "inputs": [
        {
          "internalType": "address",
          "name": "_offeringContract",
          "type": "address"
        },
        {
          "internalType": "address",
          "name": "_token",
          "type": "address"
        }
      ],
      "name": "claimRefund",
      "outputs": [],
      "stateMutability": "nonpayable",
      "type": "function"
    },
    {
      "inputs": [],
      "name": "escrowContract",
      "outputs": [
        {
          "internalType": "address",
          "name": "",
          "type": "address"
        }
      ],
      "stateMutability": "view",
      "type": "function"
    },
    {
      "inputs": [],
      "name": "getKYBValidatorCount",
      "outputs": [
        {
          "internalType": "uint256",
          "name": "count",
          "type": "uint256"
        }
      ],
      "stateMutability": "view",
      "type": "function"
    },
    {
      "inputs": [
        {
          "internalType": "address",
          "name": "_validator",
          "type": "address"
        }
      ],
      "name": "isKYBValidator",
      "outputs": [
        {
          "internalType": "bool",
          "name": "isValidator",
          "type": "bool"
        }
      ],
      "stateMutability": "view",
      "type": "function"
    },
    {
      "inputs": [
        {
          "internalType": "bytes32",
          "name": "_signatureHash",
          "type": "bytes32"
        }
      ],
      "name": "isSignatureUsed",
      "outputs": [
        {
          "internalType": "bool",
          "name": "isUsed",
          "type": "bool"
        }
      ],
      "stateMutability": "view",
      "type": "function"
    },
    {
      "inputs": [],
      "name": "kybValidatorCount",
      "outputs": [
        {
          "internalType": "uint256",
          "name": "",
          "type": "uint256"
        }
      ],
      "stateMutability": "view",
      "type": "function"
    },
    {
      "inputs": [
        {
          "internalType": "address",
          "name": "",
          "type": "address"
        }
      ],
      "name": "kybValidators",
      "outputs": [
        {
          "internalType": "bool",
          "name": "",
          "type": "bool"
        }
      ],
      "stateMutability": "view",
      "type": "function"
    },
    {
      "inputs": [
        {
          "internalType": "address",
          "name": "_offeringContract",
          "type": "address"
        }
      ],
      "name": "notifyRefundsEnabled",
      "outputs": [],
      "stateMutability": "nonpayable",
      "type": "function"
    },
    {
      "inputs": [],
      "name": "owner",
      "outputs": [
        {
          "internalType": "address",
          "name": "",
          "type": "address"
        }
      ],
      "stateMutability": "view",
      "type": "function"
    },
    {
      "inputs": [
        {
          "internalType": "address",
          "name": "",
          "type": "address"
        }
      ],
      "name": "refundsEnabledForOffering",
      "outputs": [
        {
          "internalType": "bool",
          "name": "",
          "type": "bool"
        }
      ],
      "stateMutability": "view",
      "type": "function"
    },
    {
      "inputs": [
        {
          "internalType": "address",
          "name": "_kybValidator",
          "type": "address"
        }
      ],
      "name": "removeKYBValidator",
      "outputs": [],
      "stateMutability": "nonpayable",
      "type": "function"
    },
    {
      "inputs": [],
      "name": "renounceOwnership",
      "outputs": [],
      "stateMutability": "nonpayable",
      "type": "function"
    },
    {
      "inputs": [
        {
          "internalType": "address",
          "name": "_token",
          "type": "address"
        },
        {
          "internalType": "uint256",
          "name": "_amount",
          "type": "uint256"
        },
        {
          "internalType": "address",
          "name": "_to",
          "type": "address"
        }
      ],
      "name": "rescueERC20",
      "outputs": [],
      "stateMutability": "nonpayable",
      "type": "function"
    },
    {
      "inputs": [
        {
          "internalType": "uint256",
          "name": "_amount",
          "type": "uint256"
        },
        {
          "internalType": "address",
          "name": "_to",
          "type": "address"
        }
      ],
      "name": "rescueNative",
      "outputs": [],
      "stateMutability": "nonpayable",
      "type": "function"
    },
    {
      "inputs": [
        {
          "internalType": "address",
          "name": "_offeringAddress",
          "type": "address"
        },
        {
          "internalType": "address",
          "name": "_paymentToken",
          "type": "address"
        },
        {
          "internalType": "uint256",
          "name": "_paymentAmount",
          "type": "uint256"
        }
      ],
      "name": "routeInvestment",
      "outputs": [],
      "stateMutability": "payable",
      "type": "function"
    },
    {
      "inputs": [
        {
          "internalType": "address",
          "name": "_offeringAddress",
          "type": "address"
        },
        {
          "internalType": "address",
          "name": "_paymentToken",
          "type": "address"
        },
        {
          "internalType": "uint256",
          "name": "_paymentAmount",
          "type": "uint256"
        },
        {
          "internalType": "uint256",
          "name": "_nonce",
          "type": "uint256"
        },
        {
          "internalType": "uint256",
          "name": "_expiry",
          "type": "uint256"
        },
        {
          "internalType": "bytes",
          "name": "_signature",
          "type": "bytes"
        }
      ],
      "name": "routeInvestmentWithKYB",
      "outputs": [],
      "stateMutability": "payable",
      "type": "function"
    },
    {
      "inputs": [
        {
          "internalType": "address",
          "name": "_escrowContract",
          "type": "address"
        }
      ],
      "name": "setEscrowContract",
      "outputs": [],
      "stateMutability": "nonpayable",
      "type": "function"
    },
    {
      "inputs": [
        {
          "internalType": "address",
          "name": "_kybValidator",
          "type": "address"
        }
      ],
      "name": "setKYBValidator",
      "outputs": [],
      "stateMutability": "nonpayable",
      "type": "function"
    },
    {
      "inputs": [
        {
          "internalType": "address",
          "name": "newOwner",
          "type": "address"
        }
      ],
      "name": "transferOwnership",
      "outputs": [],
      "stateMutability": "nonpayable",
      "type": "function"
    },
    {
      "inputs": [
        {
          "internalType": "bytes32",
          "name": "",
          "type": "bytes32"
        }
      ],
      "name": "usedSignatures",
      "outputs": [
        {
          "internalType": "bool",
          "name": "",
          "type": "bool"
        }
      ],
      "stateMutability": "view",
      "type": "function"
    },
    {
      "inputs": [
        {
          "internalType": "address",
          "name": "_wallet",
          "type": "address"
        },
        {
          "internalType": "uint256",
          "name": "_nonce",
          "type": "uint256"
        },
        {
          "internalType": "uint256",
          "name": "_expiry",
          "type": "uint256"
        },
        {
          "internalType": "bytes",
          "name": "_signature",
          "type": "bytes"
        }
      ],
      "name": "verifyKYBSignature",
      "outputs": [
        {
          "internalType": "bool",
          "name": "isValid",
          "type": "bool"
        }
      ],
      "stateMutability": "view",
      "type": "function"
    },
    {
      "stateMutability": "payable",
      "type": "receive"
    }
  ],
  "bytecode": "0x6080806040523461007a5733156100645760008054336001600160a01b03198216811783556040519290916001600160a01b0316907f8be0079c531659141344cd1fd0a4f28419497f9722a3daafe3b4186f6b6457e09080a36118ec90816100808239f35b631e4fbdf760e01b815260006004820152602490fd5b600080fdfe60806040818152600480361015610021575b505050361561001f57600080fd5b005b600092833560e01c90816305ba484b146112fd5750806318af4c9e1461123c57806325b5c8ba146112025780633d66da8e14610ea45780633e2c3e4414610ddc57806341ade38f14610ca257806345f4f24414610c495780634d80efae14610c1d578063681c423c14610a16578063715018a614610bb357806377662ffc14610a785780638da5cb5b14610a52578063a17d997114610a16578063acf68f7b14610922578063bd01c30014610903578063bf3cc17f1461064b578063c7103ea314610577578063d1726ca9146103a1578063e42a96e714610375578063f2fde38b146102c6578063f42375b51461022e578063f576dd4a146101565763f978fd61036100115734610152576020366003190112610152578160209360ff923581526005855220541690519015158152f35b8280fd5b509034610152576020366003190112610152576001600160a01b0361017961132f565b6101816113e0565b169161018e831515611424565b828452600260205260ff82852054166101ec575081835260026020528220600160ff198254161790556101c260035461146f565b6003557f2192294437b5b338c3c8b632e448e72f44b9d499877c3f3f677980333b4628118280a280f35b6020606492519162461bcd60e51b8352820152601860248201527f56616c696461746f7220616c72656164792065786973747300000000000000006044820152fd5b5034610152576020366003190112610152576001600160a01b0361025061132f565b6102586113e0565b1691821561028357505073ffffffffffffffffffffffffffffffffffffffff19600154161760015580f35b906020606492519162461bcd60e51b8352820152601f60248201527f496e76616c696420657363726f7720636f6e74726163742061646472657373006044820152fd5b5034610152576020366003190112610152576102e061132f565b906102e96113e0565b6001600160a01b038092169283156103465750506000548273ffffffffffffffffffffffffffffffffffffffff19821617600055167f8be0079c531659141344cd1fd0a4f28419497f9722a3daafe3b4186f6b6457e0600080a380f35b908460249251917f1e4fbdf7000000000000000000000000000000000000000000000000000000008352820152fd5b50503461039d578160031936011261039d576020906001600160a01b03600154169051908152f35b5080fd5b5060603660031901126101525760206103b861132f565b916103c1611319565b936044359283926001600160a01b038096169587169687156000146104b957835163329d621160e11b81526001600160a01b03909116918101918252336020830152604082019490945283908190606001038134885af180156104af578690610459575b7f4ca6fa6ca1ea19f82a05490d19bab8e9124bd2c0f8a2e4da4cbf90ce2b85fdf192505b815193845260208401523392a480f35b506020823d82116104a7575b8161047260209383611345565b810103126104a2577f4ca6fa6ca1ea19f82a05490d19bab8e9124bd2c0f8a2e4da4cbf90ce2b85fdf19151610425565b600080fd5b3d9150610465565b81513d88823e3d90fd5b835163329d621160e11b81526001600160a01b03909116918101918252336020830152604082019490945283908190606001038189885af180156104af578690610526575b7f4ca6fa6ca1ea19f82a05490d19bab8e9124bd2c0f8a2e4da4cbf90ce2b85fdf19250610449565b506020823d821161056f575b8161053f60209383611345565b810103126104a2577f4ca6fa6ca1ea19f82a05490d19bab8e9124bd2c0f8a2e4da4cbf90ce2b85fdf191516104fe565b3d9150610532565b5090346101525760203660031901126101525761059261132f565b6001600160a01b0390816001541633036105e25716918284526020528220600160ff198254161790557fd7ef9ff788993c5f1f6b6adbb4f3cf84b3ecaf44d67577300f107aa1fadb1e728280a280f35b608484602085519162461bcd60e51b8352820152602b60248201527f4f6e6c7920457363726f7720636f6e74726163742063616e2063616c6c20746860448201527f69732066756e6374696f6e0000000000000000000000000000000000000000006064820152fd5b5060c03660031901126101525761066061132f565b90610669611319565b9260443591606435906084359060a43567ffffffffffffffff81116108ff576106959036908301611399565b926106a284848333611494565b156108bc579185918594936107249651610732816020998a9687830195309146913389939092609695927f4b59425f56414c49444154494f4e00000000000000000000000000000000000086526bffffffffffffffffffffffff19809560601b16600e87015260228601526042850152606284015260601b1660828201520190565b03601f198101835282611345565b5190207f19457468657265756d205369676e6564204d6573736167653a0a3332000000008b52601c52603c8a208a5260058252848a20805460ff191660011790556001600160a01b03898116999816978961084257855163329d621160e11b81526001600160a01b039091169181019182523360208301526040820193909352829081906060010381348a5af190811561083857889161080b575b50905b8381519101209282519485528401528201527f1f42736f274a87d38cfb6fb2aba76f41e41d2f981b55107d42a3d2527eb4a28560603392a480f35b90508381813d8311610831575b6108228183611345565b810103126104a25751386107cd565b503d610818565b83513d8a823e3d90fd5b855163329d621160e11b81526001600160a01b0390911691810191825233602083015260408201939093528290819060600103818b8a5af190811561083857889161088f575b50906107d0565b90508381813d83116108b5575b6108a68183611345565b810103126104a2575138610888565b503d61089c565b606482602087519162461bcd60e51b8352820152601560248201527f496e76616c6964204b5942207369676e617475726500000000000000000000006044820152fd5b8880fd5b50503461039d578160031936011261039d576020906003549051908152f35b5090346101525760209182600319360112610a12576001600160a01b0361094761132f565b16928251917fdf8de3e70000000000000000000000000000000000000000000000000000000083523390830152808260248188885af1918215610a085785926109b9575b507fa86305abc2db271df4609aa86a8d044bc11fb36939841bfdad6c1ab2b26e94719192519283523392a380f35b91508082813d8311610a01575b6109d08183611345565b810103126104a2577fa86305abc2db271df4609aa86a8d044bc11fb36939841bfdad6c1ab2b26e947191519161098b565b503d6109c6565b83513d87823e3d90fd5b8380fd5b50503461039d57602036600319011261039d5760ff816020936001600160a01b03610a3f61132f565b1681526002855220541690519015158152f35b50503461039d578160031936011261039d576001600160a01b0360209254169051908152f35b50903461015257606036600319011261015257610a9361132f565b6001600160a01b0360443581811692602435918490036104a257602092604491610abb6113e0565b1693610ac88515156117fe565b610ad3831515611849565b610ade811515611894565b87865195869485937fa9059cbb0000000000000000000000000000000000000000000000000000000085528a85015260248401525af1908115610ba9578491610b6f575b5015610b2c578280f35b906020606492519162461bcd60e51b8352820152601c60248201527f455243323020726573637565207472616e73666572206661696c6564000000006044820152fd5b90506020813d8211610ba1575b81610b8960209383611345565b81010312610a1257518015158103610a125738610b22565b3d9150610b7c565b82513d86823e3d90fd5b8334610c1a5780600319360112610c1a57610bcc6113e0565b60006001600160a01b03815473ffffffffffffffffffffffffffffffffffffffff1981168355167f8be0079c531659141344cd1fd0a4f28419497f9722a3daafe3b4186f6b6457e08280a380f35b80fd5b5034610152576020366003190112610152578160209360ff923581526005855220541690519015158152f35b503461015257608036600319011261015257610c6361132f565b926064359067ffffffffffffffff8211610c1a575092610c8b610c9992602095369101611399565b906044359060243590611494565b90519015158152f35b5034610152576020366003190112610152576001600160a01b03610cc461132f565b610ccc6113e0565b1691610cd9831515611424565b828452600260205260ff818520541615610d995760016003541115610d565782845260026020528320805460ff19169055600354908115610d435750600019016003557fedbb10f58a7ffabf46a7894ef02269394350959655518d5fad67cb08791b452f8280a280f35b836011602492634e487b7160e01b835252fd5b906020606492519162461bcd60e51b8352820152601c60248201527f43616e6e6f742072656d6f7665206c6173742076616c696461746f72000000006044820152fd5b906020606492519162461bcd60e51b8352820152601860248201527f56616c696461746f7220646f6573206e6f7420657869737400000000000000006044820152fd5b509034610152576020366003190112610152576001600160a01b03610dff61132f565b610e076113e0565b1691610e14831515611424565b600354610e3c575081835260026020528220600160ff198254161790556101c260035461146f565b6020608492519162461bcd60e51b8352820152602d60248201527f557365206164644b594256616c696461746f7220666f72206164646974696f6e60448201527f616c2076616c696461746f7273000000000000000000000000000000000000006064820152fd5b5091903461039d578060031936011261039d57610ebf61132f565b90610ec8611319565b906001600160a01b03918284169283865260209187835260ff84882054161561119a578415611158578116610f07811580801591611150575b506117fe565b60015484517f7c45e5790000000000000000000000000000000000000000000000000000000081526001600160a01b0388168a8201908152336020820152909791841691908690899081906040010381855afa9788156111465789986110d2575b508751156110905784880192848451160361104e57813b156108ff5785517f5e30b8a60000000000000000000000000000000000000000000000000000000081526001600160a01b03909116818b019081523360208201529091899183919082908490829060400103925af1801561104457611013575b50907f74ce707ecbd67ceda60331b15321122eb484a382378aa41fabe4231420a3d77292915116945192519283523392a480f35b67ffffffffffffffff81989298116110315784529596508638610fdf565b60248260418b634e487b7160e01b835252fd5b85513d8a823e3d90fd5b60648a8688519162461bcd60e51b8352820152601960248201527f546f6b656e206d69736d6174636820666f7220726566756e64000000000000006044820152fd5b60648a8688519162461bcd60e51b8352820152601b60248201527f4e6f206465706f73697420666f756e6420666f7220726566756e6400000000006044820152fd5b9097508581813d831161113f575b6110ea8183611345565b810103126108ff5785519086820182811067ffffffffffffffff82111761112c57875280518252850151848116810361112857858201529638610f68565b8980fd5b60248b60418e634e487b7160e01b835252fd5b503d6110e0565b86513d8b823e3d90fd5b905038610f01565b6064888486519162461bcd60e51b8352820152601960248201527f496e76616c6964206f66666572696e6720636f6e7472616374000000000000006044820152fd5b6084888486519162461bcd60e51b8352820152602560248201527f526566756e6473206e6f7420656e61626c656420666f722074686973206f666660448201527f6572696e670000000000000000000000000000000000000000000000000000006064820152fd5b5034610152576020366003190112610152578160209360ff926001600160a01b0361122b61132f565b168252855220541690519015158152f35b5090346101525780600319360112610152578280808085356001600160a01b03611264611319565b61126c6113e0565b611277831515611849565b16611283811515611894565b5af13d156112f8573d6112958161137d565b906112a284519283611345565b81528460203d92013e5b156112b5578280f35b906020606492519162461bcd60e51b8352820152601d60248201527f4e617469766520726573637565207472616e73666572206661696c65640000006044820152fd5b6112ac565b84903461039d578160031936011261039d576020906003548152f35b602435906001600160a01b03821682036104a257565b600435906001600160a01b03821682036104a257565b90601f8019910116810190811067ffffffffffffffff82111761136757604052565b634e487b7160e01b600052604160045260246000fd5b67ffffffffffffffff811161136757601f01601f191660200190565b81601f820112156104a2578035906113b08261137d565b926113be6040519485611345565b828452602083830101116104a257816000926020809301838601378301015290565b6001600160a01b036000541633036113f457565b60246040517f118cdaa7000000000000000000000000000000000000000000000000000000008152336004820152fd5b1561142b57565b606460405162461bcd60e51b815260206004820152601d60248201527f496e76616c6964204b59422076616c696461746f7220616464726573730000006044820152fd5b600019811461147e5760010190565b634e487b7160e01b600052601160045260246000fd5b60035415611620578242116115dc576040517f4b59425f56414c49444154494f4e000000000000000000000000000000000000602082019081526bffffffffffffffffffffffff19606093841b8116602e840152604283019490945260628201949094524660828201523090911b90911660a28201526115178160b68101610724565b519020904615611598576000917f19457468657265756d205369676e6564204d6573736167653a0a3332000000008352601c52603c8220808352600560205260ff60408420541661159357916001600160a01b0361158561157c60409460ff96611664565b90929192611730565b168152600260205220541690565b505090565b606460405162461bcd60e51b815260206004820152601060248201527f496e76616c696420636861696e204944000000000000000000000000000000006044820152fd5b606460405162461bcd60e51b815260206004820152601160248201527f5369676e617475726520657870697265640000000000000000000000000000006044820152fd5b606460405162461bcd60e51b815260206004820152601560248201527f4e6f204b59422076616c696461746f72732073657400000000000000000000006044820152fd5b81519190604183036116955761168e92506020820151906060604084015193015160001a906116a0565b9192909190565b505060009160029190565b91907f7fffffffffffffffffffffffffffffff5d576e7357a4501ddfe92f46681b20a0841161172457926020929160ff608095604051948552168484015260408301526060820152600092839182805260015afa156117185780516001600160a01b0381161561170f57918190565b50809160019190565b604051903d90823e3d90fd5b50505060009160039190565b60048110156117e85780611742575050565b600181036117745760046040517ff645eedf000000000000000000000000000000000000000000000000000000008152fd5b600281036117ad57602482604051907ffce698f70000000000000000000000000000000000000000000000000000000082526004820152fd5b6003146117b75750565b602490604051907fd78bce0c0000000000000000000000000000000000000000000000000000000082526004820152fd5b634e487b7160e01b600052602160045260246000fd5b1561180557565b606460405162461bcd60e51b815260206004820152601560248201527f496e76616c696420746f6b656e206164647265737300000000000000000000006044820152fd5b1561185057565b606460405162461bcd60e51b815260206004820152601d60248201527f416d6f756e74206d7573742062652067726561746572207468616e20300000006044820152fd5b1561189b57565b606460405162461bcd60e51b815260206004820152601960248201527f496e76616c696420726563697069656e742061646472657373000000000000006044820152fdfea164736f6c6343000814000a",
  "linkReferences": {},
  "deployedLinkReferences": {}
}