{
  "_format": "hh-sol-artifact-1",
  "contractName": "MockERC20",
  "sourceName": "contracts/mocks/MockERC20.sol",
  "abi": [
    {
      "inputs": [
        {
          "internalType": "string",
          "name": "name",
          "type": "string"
        },
        {
          "internalType": "string",
          "name": "symbol",
          "type": "string"
        }
      ],
      "stateMutability": "nonpayable",
      "type": "constructor"
    },
    {
      "inputs": [
        {
          "internalType": "address",
          "name": "spender",
          "type": "address"
        },
        {
          "internalType": "uint256",
          "name": "allowance",
          "type": "uint256"
        },
        {
          "internalType": "uint256",
          "name": "needed",
          "type": "uint256"
        }
      ],
      "name": "ERC20InsufficientAllowance",
      "type": "error"
    },
    {
      "inputs": [
        {
          "internalType": "address",
          "name": "sender",
          "type": "address"
        },
        {
          "internalType": "uint256",
          "name": "balance",
          "type": "uint256"
        },
        {
          "internalType": "uint256",
          "name": "needed",
          "type": "uint256"
        }
      ],
      "name": "ERC20InsufficientBalance",
      "type": "error"
    },
    {
      "inputs": [
        {
          "internalType": "address",
          "name": "approver",
          "type": "address"
        }
      ],
      "name": "ERC20InvalidApprover",
      "type": "error"
    },
    {
      "inputs": [
        {
          "internalType": "address",
          "name": "receiver",
          "type": "address"
        }
      ],
      "name": "ERC20InvalidReceiver",
      "type": "error"
    },
    {
      "inputs": [
        {
          "internalType": "address",
          "name": "sender",
          "type": "address"
        }
      ],
      "name": "ERC20InvalidSender",
      "type": "error"
    },
    {
      "inputs": [
        {
          "internalType": "address",
          "name": "spender",
          "type": "address"
        }
      ],
      "name": "ERC20InvalidSpender",
      "type": "error"
    },
    {
      "anonymous": false,
      "inputs": [
        {
          "indexed": true,
          "internalType": "address",
          "name": "owner",
          "type": "address"
        },
        {
          "indexed": true,
          "internalType": "address",
          "name": "spender",
          "type": "address"
        },
        {
          "indexed": false,
          "internalType": "uint256",
          "name": "value",
          "type": "uint256"
        }
      ],
      "name": "Approval",
      "type": "event"
    },
    {
      "anonymous": false,
      "inputs": [
        {
          "indexed": true,
          "internalType": "address",
          "name": "from",
          "type": "address"
        },
        {
          "indexed": true,
          "internalType": "address",
          "name": "to",
          "type": "address"
        },
        {
          "indexed": false,
          "internalType": "uint256",
          "name": "value",
          "type": "uint256"
        }
      ],
      "name": "Transfer",
      "type": "event"
    },
    {
      "inputs": [
        {
          "internalType": "address",
          "name": "owner",
          "type": "address"
        },
        {
          "internalType": "address",
          "name": "spender",
          "type": "address"
        }
      ],
      "name": "allowance",
      "outputs": [
        {
          "internalType": "uint256",
          "name": "",
          "type": "uint256"
        }
      ],
      "stateMutability": "view",
      "type": "function"
    },
    {
      "inputs": [
        {
          "internalType": "address",
          "name": "spender",
          "type": "address"
        },
        {
          "internalType": "uint256",
          "name": "value",
          "type": "uint256"
        }
      ],
      "name": "approve",
      "outputs": [
        {
          "internalType": "bool",
          "name": "",
          "type": "bool"
        }
      ],
      "stateMutability": "nonpayable",
      "type": "function"
    },
    {
      "inputs": [
        {
          "internalType": "address",
          "name": "account",
          "type": "address"
        }
      ],
      "name": "balanceOf",
      "outputs": [
        {
          "internalType": "uint256",
          "name": "",
          "type": "uint256"
        }
      ],
      "stateMutability": "view",
      "type": "function"
    },
    {
      "inputs": [],
      "name": "decimals",
      "outputs": [
        {
          "internalType": "uint8",
          "name": "",
          "type": "uint8"
        }
      ],
      "stateMutability": "view",
      "type": "function"
    },
    {
      "inputs": [
        {
          "internalType": "address",
          "name": "to",
          "type": "address"
        },
        {
          "internalType": "uint256",
          "name": "amount",
          "type": "uint256"
        }
      ],
      "name": "mint",
      "outputs": [],
      "stateMutability": "nonpayable",
      "type": "function"
    },
    {
      "inputs": [],
      "name": "name",
      "outputs": [
        {
          "internalType": "string",
          "name": "",
          "type": "string"
        }
      ],
      "stateMutability": "view",
      "type": "function"
    },
    {
      "inputs": [],
      "name": "symbol",
      "outputs": [
        {
          "internalType": "string",
          "name": "",
          "type": "string"
        }
      ],
      "stateMutability": "view",
      "type": "function"
    },
    {
      "inputs": [],
      "name": "totalSupply",
      "outputs": [
        {
          "internalType": "uint256",
          "name": "",
          "type": "uint256"
        }
      ],
      "stateMutability": "view",
      "type": "function"
    },
    {
      "inputs": [
        {
          "internalType": "address",
          "name": "to",
          "type": "address"
        },
        {
          "internalType": "uint256",
          "name": "value",
          "type": "uint256"
        }
      ],
      "name": "transfer",
      "outputs": [
        {
          "internalType": "bool",
          "name": "",
          "type": "bool"
        }
      ],
      "stateMutability": "nonpayable",
      "type": "function"
    },
    {
      "inputs": [
        {
          "internalType": "address",
          "name": "from",
          "type": "address"
        },
        {
          "internalType": "address",
          "name": "to",
          "type": "address"
        },
        {
          "internalType": "uint256",
          "name": "value",
          "type": "uint256"
        }
      ],
      "name": "transferFrom",
      "outputs": [
        {
          "internalType": "bool",
          "name": "",
          "type": "bool"
        }
      ],
      "stateMutability": "nonpayable",
      "type": "function"
    }
  ],
  "bytecode": "0x6080604052346200031d5762000b29803803806200001d8162000322565b9283398101906040818303126200031d5780516001600160401b03908181116200031d57836200004f91840162000348565b91602093848201518381116200031d576200006b920162000348565b82518281116200021d576003918254916001958684811c9416801562000312575b88851014620002fc578190601f94858111620002a6575b5088908583116001146200023f5760009262000233575b505060001982861b1c191690861b1783555b80519384116200021d5760049586548681811c9116801562000212575b82821014620001fd57838111620001b2575b508092851160011462000144575093839491849260009562000138575b50501b92600019911b1c19161790555b60405161076e9081620003bb8239f35b01519350388062000118565b92919084601f1981168860005285600020956000905b898383106200019757505050106200017c575b50505050811b01905562000128565b01519060f884600019921b161c19169055388080806200016d565b8587015189559097019694850194889350908101906200015a565b87600052816000208480880160051c820192848910620001f3575b0160051c019087905b828110620001e6575050620000fb565b60008155018790620001d6565b92508192620001cd565b602288634e487b7160e01b6000525260246000fd5b90607f1690620000e9565b634e487b7160e01b600052604160045260246000fd5b015190503880620000ba565b90889350601f19831691876000528a6000209260005b8c8282106200028f575050841162000276575b505050811b018355620000cc565b015160001983881b60f8161c1916905538808062000268565b8385015186558c9790950194938401930162000255565b90915085600052886000208580850160051c8201928b8610620002f2575b918a91869594930160051c01915b828110620002e2575050620000a3565b600081558594508a9101620002d2565b92508192620002c4565b634e487b7160e01b600052602260045260246000fd5b93607f16936200008c565b600080fd5b6040519190601f01601f191682016001600160401b038111838210176200021d57604052565b919080601f840112156200031d5782516001600160401b0381116200021d576020906200037e601f8201601f1916830162000322565b928184528282870101116200031d5760005b818110620003a657508260009394955001015290565b85810183015184820184015282016200039056fe608060408181526004918236101561001657600080fd5b600092833560e01c91826306fdde031461050157508163095ea7b31461045957816318160ddd1461043a57816323b872dd1461032b578163313ce5671461030f57816340c10f191461026357816370a082311461022d57816395d89b411461010e57508063a9059cbb146100de5763dd62ed3e1461009357600080fd5b346100da57806003193601126100da57806020926100af610622565b6100b761063d565b6001600160a01b0391821683526001865283832091168252845220549051908152f35b5080fd5b50346100da57806003193601126100da576020906101076100fd610622565b6024359033610653565b5160018152f35b8383346100da57816003193601126100da57805190828454600181811c90808316928315610223575b6020938484108114610210578388529081156101f4575060011461019f575b505050829003601f01601f191682019267ffffffffffffffff84118385101761018c57508291826101889252826105d9565b0390f35b80604186634e487b7160e01b6024945252fd5b8787529192508591837f8a35acfbc15ff81a39ae7d344fd709f28e8600b4aa8c65c6b64bfe7fe36bd19b5b8385106101e05750505050830101858080610156565b8054888601830152930192849082016101ca565b60ff1916878501525050151560051b8401019050858080610156565b60248960228c634e487b7160e01b835252fd5b91607f1691610137565b5050346100da5760203660031901126100da57806020926001600160a01b03610254610622565b16815280845220549051908152f35b9190503461030b578060031936011261030b5761027e610622565b906001600160a01b0360243592169283156102f657600254908382018092116102e3575084927fddf252ad1be2c89b69c2b068fc378daa952ba7f163c4a11628f55a4df523b3ef9260209260025585855284835280852082815401905551908152a380f35b856011602492634e487b7160e01b835252fd5b84602492519163ec442f0560e01b8352820152fd5b8280fd5b5050346100da57816003193601126100da576020905160128152f35b9050823461043757606036600319011261043757610347610622565b61034f61063d565b91604435936001600160a01b03831680835260016020528683203384526020528683205491600019831061038c575b602088610107898989610653565b8683106103f25781156103dc5733156103c6575082526001602090815286832033845281529186902090859003905582906101078761037e565b60249084895191634a1406b160e11b8352820152fd5b6024908489519163e602df0560e01b8352820152fd5b87517ffb8f41b2000000000000000000000000000000000000000000000000000000008152339181019182526020820193909352604081018790528291506060010390fd5b80fd5b5050346100da57816003193601126100da576020906002549051908152f35b90503461030b578160031936011261030b57610473610622565b6024359033156104eb576001600160a01b03169182156104d557508083602095338152600187528181208582528752205582519081527f8c5be1e5ebec7d5bd14f71427d1e84f3dd0314c0f7b2291e5b200ac8c7c3b925843392a35160018152f35b60249085855191634a1406b160e11b8352820152fd5b6024838686519163e602df0560e01b8352820152fd5b8490843461030b578260031936011261030b5782600354600181811c908083169283156105cf575b6020938484108114610210578388529081156101f4575060011461057957505050829003601f01601f191682019267ffffffffffffffff84118385101761018c57508291826101889252826105d9565b600387529192508591837fc2575a0e9e593c00f959f8c92f12db2869c3395a3b0502d05e2516446f71f85b5b8385106105bb5750505050830101858080610156565b8054888601830152930192849082016105a5565b91607f1691610529565b6020808252825181830181905290939260005b82811061060e57505060409293506000838284010152601f8019910116010190565b8181018601518482016040015285016105ec565b600435906001600160a01b038216820361063857565b600080fd5b602435906001600160a01b038216820361063857565b916001600160a01b03808416928315610730571692831561071857600090838252816020526040822054908382106106cd575091604082827fddf252ad1be2c89b69c2b068fc378daa952ba7f163c4a11628f55a4df523b3ef958760209652828652038282205586815220818154019055604051908152a3565b6040517fe450d38c0000000000000000000000000000000000000000000000000000000081526001600160a01b03919091166004820152602481019190915260448101839052606490fd5b602460405163ec442f0560e01b815260006004820152fd5b60246040517f96c6fd1e00000000000000000000000000000000000000000000000000000000815260006004820152fdfea164736f6c6343000814000a",
  "linkReferences": {},
  "deployedLinkReferences": {}
}