{
  "_format": "hh-sol-artifact-1",
  "contractName": "InvestmentManager",
  "sourceName": "contracts/InvestmentManager.sol",
  "abi": [
    {
      "inputs": [],
      "stateMutability": "nonpayable",
      "type": "constructor"
    },
    {
      "inputs": [],
      "name": "ECDSAInvalidSignature",
      "type": "error"
    },
    {
      "inputs": [
        {
          "internalType": "uint256",
          "name": "length",
          "type": "uint256"
        }
      ],
      "name": "ECDSAInvalidSignatureLength",
      "type": "error"
    },
    {
      "inputs": [
        {
          "internalType": "bytes32",
          "name": "s",
          "type": "bytes32"
        }
      ],
      "name": "ECDSAInvalidSignatureS",
      "type": "error"
    },
    {
      "inputs": [
        {
          "internalType": "address",
          "name": "owner",
          "type": "address"
        }
      ],
      "name": "OwnableInvalidOwner",
      "type": "error"
    },
    {
      "inputs": [
        {
          "internalType": "address",
          "name": "account",
          "type": "address"
        }
      ],
      "name": "OwnableUnauthorizedAccount",
      "type": "error"
    },
    {
      "anonymous": false,
      "inputs": [
        {
          "indexed": true,
          "internalType": "address",
          "name": "investor",
          "type": "address"
        },
        {
          "indexed": true,
          "internalType": "address",
          "name": "offeringAddress",
          "type": "address"
        },
        {
          "indexed": true,
          "internalType": "address",
          "name": "paymentToken",
          "type": "address"
        },
        {
          "indexed": false,
          "internalType": "uint256",
          "name": "paidAmount",
          "type": "uint256"
        },
        {
          "indexed": false,
          "internalType": "uint256",
          "name": "tokensReceived",
          "type": "uint256"
        }
      ],
      "name": "InvestmentRouted",
      "type": "event"
    },
    {
      "anonymous": false,
      "inputs": [
        {
          "indexed": true,
          "internalType": "address",
          "name": "investor",
          "type": "address"
        },
        {
          "indexed": true,
          "internalType": "address",
          "name": "offeringAddress",
          "type": "address"
        },
        {
          "indexed": true,
          "internalType": "address",
          "name": "paymentToken",
          "type": "address"
        },
        {
          "indexed": false,
          "internalType": "uint256",
          "name": "paidAmount",
          "type": "uint256"
        },
        {
          "indexed": false,
          "internalType": "uint256",
          "name": "tokensReceived",
          "type": "uint256"
        },
        {
          "indexed": false,
          "internalType": "bytes32",
          "name": "signatureHash",
          "type": "bytes32"
        }
      ],
      "name": "KYBValidatedInvestment",
      "type": "event"
    },
    {
      "anonymous": false,
      "inputs": [
        {
          "indexed": true,
          "internalType": "address",
          "name": "validator",
          "type": "address"
        }
      ],
      "name": "KYBValidatorAdded",
      "type": "event"
    },
    {
      "anonymous": false,
      "inputs": [
        {
          "indexed": true,
          "internalType": "address",
          "name": "validator",
          "type": "address"
        }
      ],
      "name": "KYBValidatorRemoved",
      "type": "event"
    },
    {
      "anonymous": false,
      "inputs": [
        {
          "indexed": true,
          "internalType": "address",
          "name": "oldValidator",
          "type": "address"
        },
        {
          "indexed": true,
          "internalType": "address",
          "name": "newValidator",
          "type": "address"
        }
      ],
      "name": "KYBValidatorUpdated",
      "type": "event"
    },
    {
      "anonymous": false,
      "inputs": [
        {
          "indexed": true,
          "internalType": "address",
          "name": "previousOwner",
          "type": "address"
        },
        {
          "indexed": true,
          "internalType": "address",
          "name": "newOwner",
          "type": "address"
        }
      ],
      "name": "OwnershipTransferred",
      "type": "event"
    },
    {
      "anonymous": false,
      "inputs": [
        {
          "indexed": true,
          "internalType": "address",
          "name": "investor",
          "type": "address"
        },
        {
          "indexed": true,
          "internalType": "address",
          "name": "offeringAddress",
          "type": "address"
        },
        {
          "indexed": true,
          "internalType": "address",
          "name": "token",
          "type": "address"
        },
        {
          "indexed": false,
          "internalType": "uint256",
          "name": "amount",
          "type": "uint256"
        }
      ],
      "name": "RefundClaimed",
      "type": "event"
    },
    {
      "anonymous": false,
      "inputs": [
        {
          "indexed": true,
          "internalType": "address",
          "name": "investor",
          "type": "address"
        },
        {
          "indexed": true,
          "internalType": "address",
          "name": "offeringAddress",
          "type": "address"
        },
        {
          "indexed": false,
          "internalType": "uint256",
          "name": "amount",
          "type": "uint256"
        }
      ],
      "name": "TokensClaimed",
      "type": "event"
    },
    {
      "anonymous": false,
      "inputs": [
        {
          "indexed": true,
          "internalType": "address",
          "name": "offeringAddress",
          "type": "address"
        }
      ],
      "name": "refundEnabled",
      "type": "event"
    },
    {
      "inputs": [
        {
          "internalType": "address",
          "name": "_kybValidator",
          "type": "address"
        }
      ],
      "name": "addKYBValidator",
      "outputs": [],
      "stateMutability": "nonpayable",
      "type": "function"
    },
    {
      "inputs": [
        {
          "internalType": "address",
          "name": "_offeringAddress",
          "type": "address"
        }
      ],
      "name": "claimInvestmentTokens",
      "outputs": [],
      "stateMutability": "nonpayable",
      "type": "function"
    },
    {
      "inputs": [
        {
          "internalType": "address",
          "name": "_offeringContract",
          "type": "address"
        },
        {
          "internalType": "address",
          "name": "_token",
          "type": "address"
        }
      ],
      "name": "claimRefund",
      "outputs": [],
      "stateMutability": "nonpayable",
      "type": "function"
    },
    {
      "inputs": [],
      "name": "escrowContract",
      "outputs": [
        {
          "internalType": "address",
          "name": "",
          "type": "address"
        }
      ],
      "stateMutability": "view",
      "type": "function"
    },
    {
      "inputs": [],
      "name": "getKYBValidatorCount",
      "outputs": [
        {
          "internalType": "uint256",
          "name": "count",
          "type": "uint256"
        }
      ],
      "stateMutability": "view",
      "type": "function"
    },
    {
      "inputs": [
        {
          "internalType": "address",
          "name": "_validator",
          "type": "address"
        }
      ],
      "name": "isKYBValidator",
      "outputs": [
        {
          "internalType": "bool",
          "name": "isValidator",
          "type": "bool"
        }
      ],
      "stateMutability": "view",
      "type": "function"
    },
    {
      "inputs": [
        {
          "internalType": "bytes32",
          "name": "_signatureHash",
          "type": "bytes32"
        }
      ],
      "name": "isSignatureUsed",
      "outputs": [
        {
          "internalType": "bool",
          "name": "isUsed",
          "type": "bool"
        }
      ],
      "stateMutability": "view",
      "type": "function"
    },
    {
      "inputs": [],
      "name": "kybValidatorCount",
      "outputs": [
        {
          "internalType": "uint256",
          "name": "",
          "type": "uint256"
        }
      ],
      "stateMutability": "view",
      "type": "function"
    },
    {
      "inputs": [
        {
          "internalType": "address",
          "name": "",
          "type": "address"
        }
      ],
      "name": "kybValidators",
      "outputs": [
        {
          "internalType": "bool",
          "name": "",
          "type": "bool"
        }
      ],
      "stateMutability": "view",
      "type": "function"
    },
    {
      "inputs": [
        {
          "internalType": "address",
          "name": "_offeringContract",
          "type": "address"
        }
      ],
      "name": "notifyRefundsEnabled",
      "outputs": [],
      "stateMutability": "nonpayable",
      "type": "function"
    },
    {
      "inputs": [],
      "name": "owner",
      "outputs": [
        {
          "internalType": "address",
          "name": "",
          "type": "address"
        }
      ],
      "stateMutability": "view",
      "type": "function"
    },
    {
      "inputs": [
        {
          "internalType": "address",
          "name": "",
          "type": "address"
        }
      ],
      "name": "refundsEnabledForOffering",
      "outputs": [
        {
          "internalType": "bool",
          "name": "",
          "type": "bool"
        }
      ],
      "stateMutability": "view",
      "type": "function"
    },
    {
      "inputs": [
        {
          "internalType": "address",
          "name": "_kybValidator",
          "type": "address"
        }
      ],
      "name": "removeKYBValidator",
      "outputs": [],
      "stateMutability": "nonpayable",
      "type": "function"
    },
    {
      "inputs": [],
      "name": "renounceOwnership",
      "outputs": [],
      "stateMutability": "nonpayable",
      "type": "function"
    },
    {
      "inputs": [
        {
          "internalType": "address",
          "name": "_token",
          "type": "address"
        },
        {
          "internalType": "uint256",
          "name": "_amount",
          "type": "uint256"
        },
        {
          "internalType": "address",
          "name": "_to",
          "type": "address"
        }
      ],
      "name": "rescueERC20",
      "outputs": [],
      "stateMutability": "nonpayable",
      "type": "function"
    },
    {
      "inputs": [
        {
          "internalType": "uint256",
          "name": "_amount",
          "type": "uint256"
        },
        {
          "internalType": "address",
          "name": "_to",
          "type": "address"
        }
      ],
      "name": "rescueNative",
      "outputs": [],
      "stateMutability": "nonpayable",
      "type": "function"
    },
    {
      "inputs": [
        {
          "internalType": "address",
          "name": "_offeringAddress",
          "type": "address"
        },
        {
          "internalType": "address",
          "name": "_paymentToken",
          "type": "address"
        },
        {
          "internalType": "uint256",
          "name": "_paymentAmount",
          "type": "uint256"
        }
      ],
      "name": "routeInvestment",
      "outputs": [],
      "stateMutability": "payable",
      "type": "function"
    },
    {
      "inputs": [
        {
          "internalType": "address",
          "name": "_offeringAddress",
          "type": "address"
        },
        {
          "internalType": "address",
          "name": "_paymentToken",
          "type": "address"
        },
        {
          "internalType": "uint256",
          "name": "_paymentAmount",
          "type": "uint256"
        },
        {
          "internalType": "uint256",
          "name": "_nonce",
          "type": "uint256"
        },
        {
          "internalType": "uint256",
          "name": "_expiry",
          "type": "uint256"
        },
        {
          "internalType": "bytes",
          "name": "_signature",
          "type": "bytes"
        }
      ],
      "name": "routeInvestmentWithKYB",
      "outputs": [],
      "stateMutability": "payable",
      "type": "function"
    },
    {
      "inputs": [
        {
          "internalType": "address",
          "name": "_escrowContract",
          "type": "address"
        }
      ],
      "name": "setEscrowContract",
      "outputs": [],
      "stateMutability": "nonpayable",
      "type": "function"
    },
    {
      "inputs": [
        {
          "internalType": "address",
          "name": "_kybValidator",
          "type": "address"
        }
      ],
      "name": "setKYBValidator",
      "outputs": [],
      "stateMutability": "nonpayable",
      "type": "function"
    },
    {
      "inputs": [
        {
          "internalType": "address",
          "name": "newOwner",
          "type": "address"
        }
      ],
      "name": "transferOwnership",
      "outputs": [],
      "stateMutability": "nonpayable",
      "type": "function"
    },
    {
      "inputs": [
        {
          "internalType": "bytes32",
          "name": "",
          "type": "bytes32"
        }
      ],
      "name": "usedSignatures",
      "outputs": [
        {
          "internalType": "bool",
          "name": "",
          "type": "bool"
        }
      ],
      "stateMutability": "view",
      "type": "function"
    },
    {
      "inputs": [
        {
          "internalType": "address",
          "name": "_wallet",
          "type": "address"
        },
        {
          "internalType": "uint256",
          "name": "_nonce",
          "type": "uint256"
        },
        {
          "internalType": "uint256",
          "name": "_expiry",
          "type": "uint256"
        },
        {
          "internalType": "bytes",
          "name": "_signature",
          "type": "bytes"
        }
      ],
      "name": "verifyKYBSignature",
      "outputs": [
        {
          "internalType": "bool",
          "name": "isValid",
          "type": "bool"
        }
      ],
      "stateMutability": "view",
      "type": "function"
    },
    {
      "stateMutability": "payable",
      "type": "receive"
    }
  ],
  "bytecode": "0x6080806040523461007a5733156100645760008054336001600160a01b03198216811783556040519290916001600160a01b0316907f8be0079c531659141344cd1fd0a4f28419497f9722a3daafe3b4186f6b6457e09080a36117f290816100808239f35b631e4fbdf760e01b815260006004820152602490fd5b600080fdfe60806040818152600480361015610021575b505050361561001f57600080fd5b005b600092833560e01c90816305ba484b14611259575083816318af4c9e146111eb5750806325b5c8ba146111b15780633d66da8e14610e535780633e2c3e4414610d8b57806341ade38f14610c5157806345f4f24414610bf85780634d80efae14610bcc578063681c423c14610a18578063715018a614610b6557806377662ffc14610a7a5780638da5cb5b14610a54578063a17d997114610a18578063acf68f7b14610924578063bd01c30014610905578063bf3cc17f1461064d578063c7103ea314610579578063d1726ca9146103a3578063e42a96e714610377578063f2fde38b146102c8578063f42375b514610230578063f576dd4a146101585763f978fd61036100115734610154576020366003190112610154578160209360ff923581526005855220541690519015158152f35b8280fd5b509034610154576020366003190112610154576001600160a01b0361017b61128b565b610183611330565b1691610190831515611374565b828452600260205260ff82852054166101ee575081835260026020528220600160ff198254161790556101c46003546113bf565b6003557f2192294437b5b338c3c8b632e448e72f44b9d499877c3f3f677980333b4628118280a280f35b6020606492519162461bcd60e51b8352820152601860248201527f56616c696461746f7220616c72656164792065786973747300000000000000006044820152fd5b5034610154576020366003190112610154576001600160a01b0361025261128b565b61025a611330565b1691821561028557505073ffffffffffffffffffffffffffffffffffffffff19600154161760015580f35b906020606492519162461bcd60e51b8352820152601f60248201527f496e76616c696420657363726f7720636f6e74726163742061646472657373006044820152fd5b5034610154576020366003190112610154576102e261128b565b906102eb611330565b6001600160a01b038092169283156103485750506000548273ffffffffffffffffffffffffffffffffffffffff19821617600055167f8be0079c531659141344cd1fd0a4f28419497f9722a3daafe3b4186f6b6457e0600080a380f35b908460249251917f1e4fbdf7000000000000000000000000000000000000000000000000000000008352820152fd5b50503461039f578160031936011261039f576020906001600160a01b03600154169051908152f35b5080fd5b5060603660031901126101545760206103ba61128b565b916103c3611275565b936044359283926001600160a01b038096169587169687156000146104bb57835163329d621160e11b81526001600160a01b03909116918101918252336020830152604082019490945283908190606001038134885af180156104b157869061045b575b7f4ca6fa6ca1ea19f82a05490d19bab8e9124bd2c0f8a2e4da4cbf90ce2b85fdf192505b815193845260208401523392a480f35b506020823d82116104a9575b81610474602093836112a1565b810103126104a4577f4ca6fa6ca1ea19f82a05490d19bab8e9124bd2c0f8a2e4da4cbf90ce2b85fdf19151610427565b600080fd5b3d9150610467565b81513d88823e3d90fd5b835163329d621160e11b81526001600160a01b03909116918101918252336020830152604082019490945283908190606001038189885af180156104b1578690610528575b7f4ca6fa6ca1ea19f82a05490d19bab8e9124bd2c0f8a2e4da4cbf90ce2b85fdf1925061044b565b506020823d8211610571575b81610541602093836112a1565b810103126104a4577f4ca6fa6ca1ea19f82a05490d19bab8e9124bd2c0f8a2e4da4cbf90ce2b85fdf19151610500565b3d9150610534565b5090346101545760203660031901126101545761059461128b565b6001600160a01b0390816001541633036105e45716918284526020528220600160ff198254161790557fd7ef9ff788993c5f1f6b6adbb4f3cf84b3ecaf44d67577300f107aa1fadb1e728280a280f35b608484602085519162461bcd60e51b8352820152602b60248201527f4f6e6c7920457363726f7720636f6e74726163742063616e2063616c6c20746860448201527f69732066756e6374696f6e0000000000000000000000000000000000000000006064820152fd5b5060c03660031901126101545761066261128b565b9061066b611275565b9260443591606435906084359060a43567ffffffffffffffff81116109015761069790369083016112d9565b926106a4848483336113e4565b156108be579185918594936107269651610734816020998a9687830195309146913389939092609695927f4b59425f56414c49444154494f4e00000000000000000000000000000000000086526bffffffffffffffffffffffff19809560601b16600e87015260228601526042850152606284015260601b1660828201520190565b03601f1981018352826112a1565b5190207f19457468657265756d205369676e6564204d6573736167653a0a3332000000008b52601c52603c8a208a5260058252848a20805460ff191660011790556001600160a01b03898116999816978961084457855163329d621160e11b81526001600160a01b039091169181019182523360208301526040820193909352829081906060010381348a5af190811561083a57889161080d575b50905b8381519101209282519485528401528201527f1f42736f274a87d38cfb6fb2aba76f41e41d2f981b55107d42a3d2527eb4a28560603392a480f35b90508381813d8311610833575b61082481836112a1565b810103126104a45751386107cf565b503d61081a565b83513d8a823e3d90fd5b855163329d621160e11b81526001600160a01b0390911691810191825233602083015260408201939093528290819060600103818b8a5af190811561083a578891610891575b50906107d2565b90508381813d83116108b7575b6108a881836112a1565b810103126104a457513861088a565b503d61089e565b606482602087519162461bcd60e51b8352820152601560248201527f496e76616c6964204b5942207369676e617475726500000000000000000000006044820152fd5b8880fd5b50503461039f578160031936011261039f576020906003549051908152f35b5090346101545760209182600319360112610a14576001600160a01b0361094961128b565b16928251917fdf8de3e70000000000000000000000000000000000000000000000000000000083523390830152808260248188885af1918215610a0a5785926109bb575b507fa86305abc2db271df4609aa86a8d044bc11fb36939841bfdad6c1ab2b26e94719192519283523392a380f35b91508082813d8311610a03575b6109d281836112a1565b810103126104a4577fa86305abc2db271df4609aa86a8d044bc11fb36939841bfdad6c1ab2b26e947191519161098d565b503d6109c8565b83513d87823e3d90fd5b8380fd5b50503461039f57602036600319011261039f5760ff816020936001600160a01b03610a4161128b565b1681526002855220541690519015158152f35b50503461039f578160031936011261039f576001600160a01b0360209254169051908152f35b50903461015457606036600319011261015457610a9561128b565b60243592604435906001600160a01b03908183168093036104a45786604492602095610abf611330565b16610acb811515611704565b610ad688151561174f565b610ae185151561179a565b865197889586947fa9059cbb00000000000000000000000000000000000000000000000000000000865285015260248401525af1908115610b5c5750610b25575080f35b6020813d8211610b54575b81610b3d602093836112a1565b8101031261039f575180151503610b515780f35b80fd5b3d9150610b30565b513d84823e3d90fd5b8334610b515780600319360112610b5157610b7e611330565b60006001600160a01b03815473ffffffffffffffffffffffffffffffffffffffff1981168355167f8be0079c531659141344cd1fd0a4f28419497f9722a3daafe3b4186f6b6457e08280a380f35b5034610154576020366003190112610154578160209360ff923581526005855220541690519015158152f35b503461015457608036600319011261015457610c1261128b565b926064359067ffffffffffffffff8211610b51575092610c3a610c48926020953691016112d9565b9060443590602435906113e4565b90519015158152f35b5034610154576020366003190112610154576001600160a01b03610c7361128b565b610c7b611330565b1691610c88831515611374565b828452600260205260ff818520541615610d485760016003541115610d055782845260026020528320805460ff19169055600354908115610cf25750600019016003557fedbb10f58a7ffabf46a7894ef02269394350959655518d5fad67cb08791b452f8280a280f35b836011602492634e487b7160e01b835252fd5b906020606492519162461bcd60e51b8352820152601c60248201527f43616e6e6f742072656d6f7665206c6173742076616c696461746f72000000006044820152fd5b906020606492519162461bcd60e51b8352820152601860248201527f56616c696461746f7220646f6573206e6f7420657869737400000000000000006044820152fd5b509034610154576020366003190112610154576001600160a01b03610dae61128b565b610db6611330565b1691610dc3831515611374565b600354610deb575081835260026020528220600160ff198254161790556101c46003546113bf565b6020608492519162461bcd60e51b8352820152602d60248201527f557365206164644b594256616c696461746f7220666f72206164646974696f6e60448201527f616c2076616c696461746f7273000000000000000000000000000000000000006064820152fd5b5091903461039f578060031936011261039f57610e6e61128b565b90610e77611275565b906001600160a01b03918284169283865260209187835260ff848820541615611149578415611107578116610eb68115808015916110ff575b50611704565b60015484517f7c45e5790000000000000000000000000000000000000000000000000000000081526001600160a01b0388168a8201908152336020820152909791841691908690899081906040010381855afa9788156110f5578998611081575b5087511561103f57848801928484511603610ffd57813b156109015785517f5e30b8a60000000000000000000000000000000000000000000000000000000081526001600160a01b03909116818b019081523360208201529091899183919082908490829060400103925af18015610ff357610fc2575b50907f74ce707ecbd67ceda60331b15321122eb484a382378aa41fabe4231420a3d77292915116945192519283523392a480f35b67ffffffffffffffff8198929811610fe05784529596508638610f8e565b60248260418b634e487b7160e01b835252fd5b85513d8a823e3d90fd5b60648a8688519162461bcd60e51b8352820152601960248201527f546f6b656e206d69736d6174636820666f7220726566756e64000000000000006044820152fd5b60648a8688519162461bcd60e51b8352820152601b60248201527f4e6f206465706f73697420666f756e6420666f7220726566756e6400000000006044820152fd5b9097508581813d83116110ee575b61109981836112a1565b810103126109015785519086820182811067ffffffffffffffff8211176110db5787528051825285015184811681036110d757858201529638610f17565b8980fd5b60248b60418e634e487b7160e01b835252fd5b503d61108f565b86513d8b823e3d90fd5b905038610eb0565b6064888486519162461bcd60e51b8352820152601960248201527f496e76616c6964206f66666572696e6720636f6e7472616374000000000000006044820152fd5b6084888486519162461bcd60e51b8352820152602560248201527f526566756e6473206e6f7420656e61626c656420666f722074686973206f666660448201527f6572696e670000000000000000000000000000000000000000000000000000006064820152fd5b5034610154576020366003190112610154578160209360ff926001600160a01b036111da61128b565b168252855220541690519015158152f35b9190503461039f578260031936011261039f57818080923561120b611275565b611213611330565b6001600160a01b03821591611228831561174f565b169061123582151561179a565b8390611250575bf115611246575080f35b51903d90823e3d90fd5b506108fc61123c565b84903461039f578160031936011261039f576020906003548152f35b602435906001600160a01b03821682036104a457565b600435906001600160a01b03821682036104a457565b90601f8019910116810190811067ffffffffffffffff8211176112c357604052565b634e487b7160e01b600052604160045260246000fd5b81601f820112156104a45780359067ffffffffffffffff82116112c3576040519261130e601f8401601f1916602001856112a1565b828452602083830101116104a457816000926020809301838601378301015290565b6001600160a01b0360005416330361134457565b60246040517f118cdaa7000000000000000000000000000000000000000000000000000000008152336004820152fd5b1561137b57565b606460405162461bcd60e51b815260206004820152601d60248201527f496e76616c6964204b59422076616c696461746f7220616464726573730000006044820152fd5b60001981146113ce5760010190565b634e487b7160e01b600052601160045260246000fd5b60035415611526578242116114e2576040517f4b59425f56414c49444154494f4e000000000000000000000000000000000000602082019081526bffffffffffffffffffffffff19606093841b8116602e840152604283019490945260628201949094524660828201523090911b90911660a28201526114678160b68101610726565b519020906000917f19457468657265756d205369676e6564204d6573736167653a0a3332000000008352601c52603c8220808352600560205260ff6040842054166114dd57916001600160a01b036114cf6114c660409460ff9661156a565b90929192611636565b168152600260205220541690565b505090565b606460405162461bcd60e51b815260206004820152601160248201527f5369676e617475726520657870697265640000000000000000000000000000006044820152fd5b606460405162461bcd60e51b815260206004820152601560248201527f4e6f204b59422076616c696461746f72732073657400000000000000000000006044820152fd5b815191906041830361159b5761159492506020820151906060604084015193015160001a906115a6565b9192909190565b505060009160029190565b91907f7fffffffffffffffffffffffffffffff5d576e7357a4501ddfe92f46681b20a0841161162a57926020929160ff608095604051948552168484015260408301526060820152600092839182805260015afa1561161e5780516001600160a01b0381161561161557918190565b50809160019190565b604051903d90823e3d90fd5b50505060009160039190565b60048110156116ee5780611648575050565b6001810361167a5760046040517ff645eedf000000000000000000000000000000000000000000000000000000008152fd5b600281036116b357602482604051907ffce698f70000000000000000000000000000000000000000000000000000000082526004820152fd5b6003146116bd5750565b602490604051907fd78bce0c0000000000000000000000000000000000000000000000000000000082526004820152fd5b634e487b7160e01b600052602160045260246000fd5b1561170b57565b606460405162461bcd60e51b815260206004820152601560248201527f496e76616c696420746f6b656e206164647265737300000000000000000000006044820152fd5b1561175657565b606460405162461bcd60e51b815260206004820152601d60248201527f416d6f756e74206d7573742062652067726561746572207468616e20300000006044820152fd5b156117a157565b606460405162461bcd60e51b815260206004820152601960248201527f496e76616c696420726563697069656e742061646472657373000000000000006044820152fdfea164736f6c6343000814000a",
  "linkReferences": {},
  "deployedLinkReferences": {}
}