{
  "_format": "hh-sol-artifact-1",
  "contractName": "InvestmentManager",
  "sourceName": "contracts/InvestmentManager.sol",
  "abi": [
    {
      "inputs": [],
      "stateMutability": "nonpayable",
      "type": "constructor"
    },
    {
      "inputs": [
        {
          "internalType": "address",
          "name": "owner",
          "type": "address"
        }
      ],
      "name": "OwnableInvalidOwner",
      "type": "error"
    },
    {
      "inputs": [
        {
          "internalType": "address",
          "name": "account",
          "type": "address"
        }
      ],
      "name": "OwnableUnauthorizedAccount",
      "type": "error"
    },
    {
      "anonymous": false,
      "inputs": [
        {
          "indexed": true,
          "internalType": "address",
          "name": "investor",
          "type": "address"
        },
        {
          "indexed": true,
          "internalType": "address",
          "name": "offeringAddress",
          "type": "address"
        },
        {
          "indexed": true,
          "internalType": "address",
          "name": "paymentToken",
          "type": "address"
        },
        {
          "indexed": false,
          "internalType": "uint256",
          "name": "paidAmount",
          "type": "uint256"
        },
        {
          "indexed": false,
          "internalType": "uint256",
          "name": "tokensReceived",
          "type": "uint256"
        }
      ],
      "name": "InvestmentRouted",
      "type": "event"
    },
    {
      "anonymous": false,
      "inputs": [
        {
          "indexed": true,
          "internalType": "address",
          "name": "previousOwner",
          "type": "address"
        },
        {
          "indexed": true,
          "internalType": "address",
          "name": "newOwner",
          "type": "address"
        }
      ],
      "name": "OwnershipTransferred",
      "type": "event"
    },
    {
      "anonymous": false,
      "inputs": [
        {
          "indexed": true,
          "internalType": "address",
          "name": "investor",
          "type": "address"
        },
        {
          "indexed": true,
          "internalType": "address",
          "name": "offeringAddress",
          "type": "address"
        },
        {
          "indexed": false,
          "internalType": "uint256",
          "name": "amount",
          "type": "uint256"
        }
      ],
      "name": "TokensClaimed",
      "type": "event"
    },
    {
      "inputs": [
        {
          "internalType": "address",
          "name": "_offeringAddress",
          "type": "address"
        }
      ],
      "name": "claimInvestmentTokens",
      "outputs": [],
      "stateMutability": "nonpayable",
      "type": "function"
    },
    {
      "inputs": [],
      "name": "owner",
      "outputs": [
        {
          "internalType": "address",
          "name": "",
          "type": "address"
        }
      ],
      "stateMutability": "view",
      "type": "function"
    },
    {
      "inputs": [],
      "name": "renounceOwnership",
      "outputs": [],
      "stateMutability": "nonpayable",
      "type": "function"
    },
    {
      "inputs": [
        {
          "internalType": "address",
          "name": "_token",
          "type": "address"
        },
        {
          "internalType": "uint256",
          "name": "_amount",
          "type": "uint256"
        },
        {
          "internalType": "address",
          "name": "_to",
          "type": "address"
        }
      ],
      "name": "rescueERC20",
      "outputs": [],
      "stateMutability": "nonpayable",
      "type": "function"
    },
    {
      "inputs": [
        {
          "internalType": "uint256",
          "name": "_amount",
          "type": "uint256"
        },
        {
          "internalType": "address",
          "name": "_to",
          "type": "address"
        }
      ],
      "name": "rescueNative",
      "outputs": [],
      "stateMutability": "nonpayable",
      "type": "function"
    },
    {
      "inputs": [
        {
          "internalType": "address",
          "name": "_offeringAddress",
          "type": "address"
        },
        {
          "internalType": "address",
          "name": "_paymentToken",
          "type": "address"
        },
        {
          "internalType": "uint256",
          "name": "_paymentAmount",
          "type": "uint256"
        }
      ],
      "name": "routeInvestment",
      "outputs": [],
      "stateMutability": "payable",
      "type": "function"
    },
    {
      "inputs": [
        {
          "internalType": "address",
          "name": "newOwner",
          "type": "address"
        }
      ],
      "name": "transferOwnership",
      "outputs": [],
      "stateMutability": "nonpayable",
      "type": "function"
    },
    {
      "stateMutability": "payable",
      "type": "receive"
    }
  ],
  "bytecode": "0x6080806040523461007a5733156100645760008054336001600160a01b03198216811783556040519290916001600160a01b0316907f8be0079c531659141344cd1fd0a4f28419497f9722a3daafe3b4186f6b6457e09080a361078d90816100808239f35b631e4fbdf760e01b815260006004820152602490fd5b600080fdfe60406080815260049081361015610020575b5050361561001e57600080fd5b005b600091823560e01c83816318af4c9e146105b657508063715018a61461055057806377662ffc146104225780638da5cb5b146103f8578063acf68f7b14610300578063d1726ca91461012b5763f2fde38b1461007c5750610011565b346101275760203660031901126101275761009561063f565b9061009e610655565b6001600160a01b038092169283156100f857505082548273ffffffffffffffffffffffffffffffffffffffff198216178455167f8be0079c531659141344cd1fd0a4f28419497f9722a3daafe3b4186f6b6457e08380a380f35b908460249251917f1e4fbdf7000000000000000000000000000000000000000000000000000000008352820152fd5b8280fd5b50606036600319011261012757602061014261063f565b9161014b610624565b936044359283926001600160a01b0380961695871696871560001461024257835163329d621160e11b81526001600160a01b03909116918101918252336020830152604082019490945283908190606001038134885af180156102385786906101e3575b7f4ca6fa6ca1ea19f82a05490d19bab8e9124bd2c0f8a2e4da4cbf90ce2b85fdf192505b815193845260208401523392a480f35b506020823d8211610230575b816101fc60209383610699565b8101031261022c577f4ca6fa6ca1ea19f82a05490d19bab8e9124bd2c0f8a2e4da4cbf90ce2b85fdf191516101af565b8580fd5b3d91506101ef565b81513d88823e3d90fd5b835163329d621160e11b81526001600160a01b03909116918101918252336020830152604082019490945283908190606001038189885af180156102385786906102af575b7f4ca6fa6ca1ea19f82a05490d19bab8e9124bd2c0f8a2e4da4cbf90ce2b85fdf192506101d3565b506020823d82116102f8575b816102c860209383610699565b8101031261022c577f4ca6fa6ca1ea19f82a05490d19bab8e9124bd2c0f8a2e4da4cbf90ce2b85fdf19151610287565b3d91506102bb565b50903461012757602091826003193601126103f4576001600160a01b0361032561063f565b16928251917fdf8de3e70000000000000000000000000000000000000000000000000000000083523390830152808260248188885af19182156103ea578592610397575b507fa86305abc2db271df4609aa86a8d044bc11fb36939841bfdad6c1ab2b26e94719192519283523392a380f35b91508082813d83116103e3575b6103ae8183610699565b810103126103df577fa86305abc2db271df4609aa86a8d044bc11fb36939841bfdad6c1ab2b26e9471915191610369565b8480fd5b503d6103a4565b83513d87823e3d90fd5b8380fd5b50503461041e578160031936011261041e576001600160a01b0360209254169051908152f35b5080fd5b5090346101275760603660031901126101275761043d61063f565b60243592604435916001600160a01b039081841680940361054c57610460610655565b16801561050957602092918660449261047a8815156106ea565b610485851515610735565b865197889586947fa9059cbb00000000000000000000000000000000000000000000000000000000865285015260248401525af190811561050057506104c9575080f35b6020813d82116104f8575b816104e160209383610699565b8101031261041e5751801515036104f55780f35b80fd5b3d91506104d4565b513d84823e3d90fd5b606482602086519162461bcd60e51b8352820152601560248201527f496e76616c696420746f6b656e206164647265737300000000000000000000006044820152fd5b8680fd5b83346104f557806003193601126104f557610569610655565b806001600160a01b03815473ffffffffffffffffffffffffffffffffffffffff1981168355167f8be0079c531659141344cd1fd0a4f28419497f9722a3daafe3b4186f6b6457e08280a380f35b9190503461041e578260031936011261041e5781808092356105d6610624565b6105de610655565b6001600160a01b038215916105f383156106ea565b1690610600821515610735565b839061061b575bf115610611575080f35b51903d90823e3d90fd5b506108fc610607565b602435906001600160a01b038216820361063a57565b600080fd5b600435906001600160a01b038216820361063a57565b6001600160a01b0360005416330361066957565b60246040517f118cdaa7000000000000000000000000000000000000000000000000000000008152336004820152fd5b90601f8019910116810190811067ffffffffffffffff8211176106bb57604052565b7f4e487b7100000000000000000000000000000000000000000000000000000000600052604160045260246000fd5b156106f157565b606460405162461bcd60e51b815260206004820152601d60248201527f416d6f756e74206d7573742062652067726561746572207468616e20300000006044820152fd5b1561073c57565b606460405162461bcd60e51b815260206004820152601960248201527f496e76616c696420726563697069656e742061646472657373000000000000006044820152fdfea164736f6c6343000814000a",
  "linkReferences": {},
  "deployedLinkReferences": {}
}