{
  "_format": "hh-sol-artifact-1",
  "contractName": "InvestmentManager",
  "sourceName": "contracts/InvestmentManager.sol",
  "abi": [
    {
      "inputs": [],
      "stateMutability": "nonpayable",
      "type": "constructor"
    },
    {
      "inputs": [
        {
          "internalType": "address",
          "name": "owner",
          "type": "address"
        }
      ],
      "name": "OwnableInvalidOwner",
      "type": "error"
    },
    {
      "inputs": [
        {
          "internalType": "address",
          "name": "account",
          "type": "address"
        }
      ],
      "name": "OwnableUnauthorizedAccount",
      "type": "error"
    },
    {
      "anonymous": false,
      "inputs": [
        {
          "indexed": true,
          "internalType": "address",
          "name": "investor",
          "type": "address"
        },
        {
          "indexed": true,
          "internalType": "address",
          "name": "offeringAddress",
          "type": "address"
        },
        {
          "indexed": true,
          "internalType": "address",
          "name": "paymentToken",
          "type": "address"
        },
        {
          "indexed": false,
          "internalType": "uint256",
          "name": "paidAmount",
          "type": "uint256"
        },
        {
          "indexed": false,
          "internalType": "uint256",
          "name": "tokensReceived",
          "type": "uint256"
        }
      ],
      "name": "InvestmentRouted",
      "type": "event"
    },
    {
      "anonymous": false,
      "inputs": [
        {
          "indexed": true,
          "internalType": "address",
          "name": "previousOwner",
          "type": "address"
        },
        {
          "indexed": true,
          "internalType": "address",
          "name": "newOwner",
          "type": "address"
        }
      ],
      "name": "OwnershipTransferred",
      "type": "event"
    },
    {
      "anonymous": false,
      "inputs": [
        {
          "indexed": true,
          "internalType": "address",
          "name": "investor",
          "type": "address"
        },
        {
          "indexed": true,
          "internalType": "address",
          "name": "offeringAddress",
          "type": "address"
        },
        {
          "indexed": false,
          "internalType": "uint256",
          "name": "amount",
          "type": "uint256"
        }
      ],
      "name": "TokensClaimed",
      "type": "event"
    },
    {
      "inputs": [
        {
          "internalType": "address",
          "name": "_offeringAddress",
          "type": "address"
        }
      ],
      "name": "claimInvestmentTokens",
      "outputs": [],
      "stateMutability": "nonpayable",
      "type": "function"
    },
    {
      "inputs": [],
      "name": "owner",
      "outputs": [
        {
          "internalType": "address",
          "name": "",
          "type": "address"
        }
      ],
      "stateMutability": "view",
      "type": "function"
    },
    {
      "inputs": [],
      "name": "renounceOwnership",
      "outputs": [],
      "stateMutability": "nonpayable",
      "type": "function"
    },
    {
      "inputs": [
        {
          "internalType": "address",
          "name": "_token",
          "type": "address"
        },
        {
          "internalType": "uint256",
          "name": "_amount",
          "type": "uint256"
        },
        {
          "internalType": "address",
          "name": "_to",
          "type": "address"
        }
      ],
      "name": "rescueERC20",
      "outputs": [],
      "stateMutability": "nonpayable",
      "type": "function"
    },
    {
      "inputs": [
        {
          "internalType": "uint256",
          "name": "_amount",
          "type": "uint256"
        },
        {
          "internalType": "address",
          "name": "_to",
          "type": "address"
        }
      ],
      "name": "rescueNative",
      "outputs": [],
      "stateMutability": "nonpayable",
      "type": "function"
    },
    {
      "inputs": [
        {
          "internalType": "address",
          "name": "_offeringAddress",
          "type": "address"
        },
        {
          "internalType": "address",
          "name": "_paymentToken",
          "type": "address"
        },
        {
          "internalType": "uint256",
          "name": "_paymentAmount",
          "type": "uint256"
        }
      ],
      "name": "routeInvestment",
      "outputs": [],
      "stateMutability": "payable",
      "type": "function"
    },
    {
      "inputs": [
        {
          "internalType": "address",
          "name": "newOwner",
          "type": "address"
        }
      ],
      "name": "transferOwnership",
      "outputs": [],
      "stateMutability": "nonpayable",
      "type": "function"
    },
    {
      "stateMutability": "payable",
      "type": "receive"
    }
  ],
  "bytecode": "0x6080806040523461007a5733156100645760008054336001600160a01b03198216811783556040519290916001600160a01b0316907f8be0079c531659141344cd1fd0a4f28419497f9722a3daafe3b4186f6b6457e09080a36106e290816100808239f35b631e4fbdf760e01b815260006004820152602490fd5b600080fdfe60406080815260049081361015610020575b5050361561001e57600080fd5b005b600091823560e01c83816318af4c9e1461049257508063715018a61461044a57806377662ffc1461033d5780638da5cb5b14610311578063acf68f7b14610256578063d1726ca9146100f35763f2fde38b1461007c5750610011565b346100ef5760203660031901126100ef5761009561051b565b9061009e610531565b6001600160a01b039182169283156100d957505082546001600160a01b03198116831784551660008051602061066d8339815191528380a380f35b51631e4fbdf760e01b8152908101849052602490fd5b8280fd5b5060603660031901126100ef57602061010a61051b565b91610113610500565b6001600160a01b03808216959416936044359384939192909190876101d15761014f8451958693849363329d621160e11b855233918501610596565b038134885af180156101c7578690610184575b60008051602061068d83398151915292505b815193845260208401523392a480f35b506020823d82116101bf575b8161019d6020938361055d565b810103126101bb5760008051602061068d8339815191529151610162565b8580fd5b3d9150610190565b81513d88823e3d90fd5b6101ee8451958693849363329d621160e11b855233918501610596565b038189885af180156101c7578690610217575b60008051602061068d8339815191529250610174565b506020823d821161024e575b816102306020938361055d565b810103126101bb5760008051602061068d8339815191529151610201565b3d9150610223565b5090346100ef576020918260031936011261030d576001600160a01b0361027b61051b565b169282519163df8de3e760e01b83523390830152808260248188885af19182156103035785926102c2575b5060008051602061064d8339815191529192519283523392a380f35b91508082813d83116102fc575b6102d9818361055d565b810103126102f85760008051602061064d8339815191529151916102a6565b8480fd5b503d6102cf565b83513d87823e3d90fd5b8380fd5b505034610339578160031936011261033957905490516001600160a01b039091168152602090f35b5080fd5b5090346100ef5760603660031901126100ef5761035861051b565b602435926001600160a01b0360443581811693908490036104465761037b610531565b16801561040b5760209291866044926103958815156105b8565b6103a0851515610604565b8651978895869463a9059cbb60e01b865285015260248401525af190811561040257506103cb575080f35b6020813d82116103fa575b816103e36020938361055d565b810103126103395751801515036103f75780f35b80fd5b3d91506103d6565b513d84823e3d90fd5b835162461bcd60e51b81526020818401526015602482015274496e76616c696420746f6b656e206164647265737360581b6044820152606490fd5b8680fd5b83346103f757806003193601126103f757610463610531565b80546001600160a01b03198116825581906001600160a01b031660008051602061066d8339815191528280a380f35b9190503461033957826003193601126103395781808092356104b2610500565b6104ba610531565b8115906104c782156105b8565b6001600160a01b0316906104dc821515610604565b83906104f7575bf1156104ed575080f35b51903d90823e3d90fd5b506108fc6104e3565b602435906001600160a01b038216820361051657565b600080fd5b600435906001600160a01b038216820361051657565b6000546001600160a01b0316330361054557565b60405163118cdaa760e01b8152336004820152602490fd5b601f909101601f19168101906001600160401b0382119082101761058057604052565b634e487b7160e01b600052604160045260246000fd5b6001600160a01b03918216815291166020820152604081019190915260600190565b156105bf57565b60405162461bcd60e51b815260206004820152601d60248201527f416d6f756e74206d7573742062652067726561746572207468616e20300000006044820152606490fd5b1561060b57565b60405162461bcd60e51b8152602060048201526019602482015278496e76616c696420726563697069656e74206164647265737360381b6044820152606490fdfea86305abc2db271df4609aa86a8d044bc11fb36939841bfdad6c1ab2b26e94718be0079c531659141344cd1fd0a4f28419497f9722a3daafe3b4186f6b6457e04ca6fa6ca1ea19f82a05490d19bab8e9124bd2c0f8a2e4da4cbf90ce2b85fdf1a2646970667358221220cf3c3607a0ed5f0070c8bfe025231a89bc4e2b8cfe32eb3d2d2a7972beb0b24764736f6c63430008140033",
  "linkReferences": {},
  "deployedLinkReferences": {}
}