{
  "_format": "hh-sol-artifact-1",
  "contractName": "MockV3Aggregator",
  "sourceName": "contracts/mocks/MockV3Aggregator.sol",
  "abi": [
    {
      "inputs": [
        {
          "internalType": "int224",
          "name": "_price",
          "type": "int224"
        },
        {
          "internalType": "bool",
          "name": "_fresh",
          "type": "bool"
        }
      ],
      "stateMutability": "nonpayable",
      "type": "constructor"
    },
    {
      "inputs": [],
      "name": "read",
      "outputs": [
        {
          "internalType": "int224",
          "name": "",
          "type": "int224"
        },
        {
          "internalType": "uint32",
          "name": "",
          "type": "uint32"
        }
      ],
      "stateMutability": "view",
      "type": "function"
    },
    {
      "inputs": [
        {
          "internalType": "bool",
          "name": "_fresh",
          "type": "bool"
        }
      ],
      "name": "setFresh",
      "outputs": [],
      "stateMutability": "nonpayable",
      "type": "function"
    },
    {
      "inputs": [
        {
          "internalType": "int224",
          "name": "_price",
          "type": "int224"
        }
      ],
      "name": "setPrice",
      "outputs": [],
      "stateMutability": "nonpayable",
      "type": "function"
    }
  ],
  "bytecode": "0x60803461009357601f61021038819003918201601f19168301916001600160401b038311848410176100985780849260409485528339810103126100935780519081601b0b8203610093576020015180151580910361009357600080546001600160e81b0319166001600160e01b039093169290921760e09190911b60ff60e01b1617905560405161016190816100af8239f35b600080fd5b634e487b7160e01b600052604160045260246000fdfe6080604052600436101561001257600080fd5b6000803560e01c8063488b70e3146100ee57806357de26a41461007e5763abb7cc941461003e57600080fd5b3461007b57602036600319011261007b5760043580151580910361007757815460ff60e01b191660e09190911b60ff60e01b1617815580f35b5080fd5b80fd5b503461007b578060031936011261007b57805460ff8160e01c166000146100bc576040915063ffffffff8042165b835192601b0b8352166020820152f35b610f9f194201914283116100da575063ffffffff80604093166100ac565b634e487b7160e01b81526011600452602490fd5b503461007b57602036600319011261007b5760043580601b0b81036100775781546001600160e01b0319166001600160e01b039190911617815580f3fea26469706673582212205bc080d9ae9ce1cd7ecad5509b6b70067be3a51e66ead78ef70dc73a00f8e8ef64736f6c63430008140033",
  "linkReferences": {},
  "deployedLinkReferences": {}
}