{
  "_format": "hh-sol-artifact-1",
  "contractName": "MockV3Aggregator",
  "sourceName": "contracts/mocks/MockV3Aggregator.sol",
  "abi": [
    {
      "inputs": [
        {
          "internalType": "int224",
          "name": "_price",
          "type": "int224"
        },
        {
          "internalType": "bool",
          "name": "_fresh",
          "type": "bool"
        }
      ],
      "stateMutability": "nonpayable",
      "type": "constructor"
    },
    {
      "inputs": [],
      "name": "read",
      "outputs": [
        {
          "internalType": "int224",
          "name": "",
          "type": "int224"
        },
        {
          "internalType": "uint32",
          "name": "",
          "type": "uint32"
        }
      ],
      "stateMutability": "view",
      "type": "function"
    },
    {
      "inputs": [
        {
          "internalType": "bool",
          "name": "_fresh",
          "type": "bool"
        }
      ],
      "name": "setFresh",
      "outputs": [],
      "stateMutability": "nonpayable",
      "type": "function"
    },
    {
      "inputs": [
        {
          "internalType": "int224",
          "name": "_price",
          "type": "int224"
        }
      ],
      "name": "setPrice",
      "outputs": [],
      "stateMutability": "nonpayable",
      "type": "function"
    }
  ],
  "bytecode": "0x60803461009357601f61025e38819003918201601f19168301916001600160401b038311848410176100985780849260409485528339810103126100935780519081601b0b8203610093576020015180151580910361009357600080546001600160e81b0319166001600160e01b039093169290921760e09190911b60ff60e01b161790556040516101af90816100af8239f35b600080fd5b634e487b7160e01b600052604160045260246000fdfe6080604052600436101561001257600080fd5b6000803560e01c8063488b70e31461013a57806357de26a4146100b15763abb7cc941461003e57600080fd5b346100ae5760203660031901126100ae576004358015158091036100aa577fffffff00ffffffffffffffffffffffffffffffffffffffffffffffffffffffff7cff0000000000000000000000000000000000000000000000000000000083549260e01b16911617815580f35b5080fd5b80fd5b50346100ae57806003193601126100ae57805460ff8160e01c166000146100ef576040915063ffffffff8042165b835192601b0b8352166020820152f35b610f9f1942019142831161010d575063ffffffff80604093166100df565b807f4e487b7100000000000000000000000000000000000000000000000000000000602492526011600452fd5b50346100ae5760203660031901126100ae5760043580601b0b81036100aa577fffffffff00000000000000000000000000000000000000000000000000000000825416907bffffffffffffffffffffffffffffffffffffffffffffffffffffffff1617815580f3fea164736f6c6343000814000a",
  "linkReferences": {},
  "deployedLinkReferences": {}
}