{
  "_format": "hh-sol-artifact-1",
  "contractName": "WrappedTokenFactory",
  "sourceName": "contracts/WrappedTokenFactory.sol",
  "abi": [
    {
      "inputs": [],
      "stateMutability": "nonpayable",
      "type": "constructor"
    },
    {
      "inputs": [
        {
          "internalType": "address",
          "name": "owner",
          "type": "address"
        }
      ],
      "name": "OwnableInvalidOwner",
      "type": "error"
    },
    {
      "inputs": [
        {
          "internalType": "address",
          "name": "account",
          "type": "address"
        }
      ],
      "name": "OwnableUnauthorizedAccount",
      "type": "error"
    },
    {
      "anonymous": false,
      "inputs": [
        {
          "indexed": true,
          "internalType": "address",
          "name": "previousOwner",
          "type": "address"
        },
        {
          "indexed": true,
          "internalType": "address",
          "name": "newOwner",
          "type": "address"
        }
      ],
      "name": "OwnershipTransferred",
      "type": "event"
    },
    {
      "anonymous": false,
      "inputs": [
        {
          "indexed": true,
          "internalType": "uint256",
          "name": "tokenId",
          "type": "uint256"
        },
        {
          "indexed": true,
          "internalType": "address",
          "name": "creator",
          "type": "address"
        },
        {
          "indexed": true,
          "internalType": "address",
          "name": "wrappedTokenAddress",
          "type": "address"
        },
        {
          "indexed": false,
          "internalType": "address",
          "name": "offeringContract",
          "type": "address"
        }
      ],
      "name": "WrappedTokenDeployed",
      "type": "event"
    },
    {
      "inputs": [
        {
          "internalType": "address",
          "name": "",
          "type": "address"
        },
        {
          "internalType": "uint256",
          "name": "",
          "type": "uint256"
        }
      ],
      "name": "byCreator",
      "outputs": [
        {
          "internalType": "uint256",
          "name": "",
          "type": "uint256"
        }
      ],
      "stateMutability": "view",
      "type": "function"
    },
    {
      "inputs": [],
      "name": "count",
      "outputs": [
        {
          "internalType": "uint256",
          "name": "",
          "type": "uint256"
        }
      ],
      "stateMutability": "view",
      "type": "function"
    },
    {
      "inputs": [
        {
          "components": [
            {
              "internalType": "string",
              "name": "name",
              "type": "string"
            },
            {
              "internalType": "string",
              "name": "symbol",
              "type": "string"
            },
            {
              "internalType": "address",
              "name": "peggedToken",
              "type": "address"
            },
            {
              "internalType": "address",
              "name": "payoutToken",
              "type": "address"
            },
            {
              "internalType": "uint256",
              "name": "maturityDate",
              "type": "uint256"
            },
            {
              "internalType": "uint256",
              "name": "payoutRate",
              "type": "uint256"
            },
            {
              "internalType": "address",
              "name": "offeringContract",
              "type": "address"
            }
          ],
          "internalType": "struct WrapedTokenConfig",
          "name": "config",
          "type": "tuple"
        }
      ],
      "name": "createWrappedToken",
      "outputs": [
        {
          "internalType": "address",
          "name": "wrappedTokenAddress",
          "type": "address"
        }
      ],
      "stateMutability": "nonpayable",
      "type": "function"
    },
    {
      "inputs": [
        {
          "internalType": "address",
          "name": "",
          "type": "address"
        }
      ],
      "name": "creators",
      "outputs": [
        {
          "internalType": "address",
          "name": "",
          "type": "address"
        }
      ],
      "stateMutability": "view",
      "type": "function"
    },
    {
      "inputs": [],
      "name": "getAllWrappedTokens",
      "outputs": [
        {
          "internalType": "address[]",
          "name": "",
          "type": "address[]"
        }
      ],
      "stateMutability": "view",
      "type": "function"
    },
    {
      "inputs": [
        {
          "internalType": "uint256",
          "name": "tokenId",
          "type": "uint256"
        }
      ],
      "name": "getWrappedTokenAddress",
      "outputs": [
        {
          "internalType": "address",
          "name": "",
          "type": "address"
        }
      ],
      "stateMutability": "view",
      "type": "function"
    },
    {
      "inputs": [
        {
          "internalType": "address",
          "name": "wrappedTokenAddress",
          "type": "address"
        }
      ],
      "name": "getWrappedTokenCreator",
      "outputs": [
        {
          "internalType": "address",
          "name": "",
          "type": "address"
        }
      ],
      "stateMutability": "view",
      "type": "function"
    },
    {
      "inputs": [
        {
          "internalType": "address",
          "name": "creator",
          "type": "address"
        }
      ],
      "name": "getWrappedTokenIdsByCreator",
      "outputs": [
        {
          "internalType": "uint256[]",
          "name": "",
          "type": "uint256[]"
        }
      ],
      "stateMutability": "view",
      "type": "function"
    },
    {
      "inputs": [],
      "name": "owner",
      "outputs": [
        {
          "internalType": "address",
          "name": "",
          "type": "address"
        }
      ],
      "stateMutability": "view",
      "type": "function"
    },
    {
      "inputs": [],
      "name": "renounceOwnership",
      "outputs": [],
      "stateMutability": "nonpayable",
      "type": "function"
    },
    {
      "inputs": [
        {
          "internalType": "address",
          "name": "newOwner",
          "type": "address"
        }
      ],
      "name": "transferOwnership",
      "outputs": [],
      "stateMutability": "nonpayable",
      "type": "function"
    },
    {
      "inputs": [
        {
          "internalType": "uint256",
          "name": "",
          "type": "uint256"
        }
      ],
      "name": "wrappedTokens",
      "outputs": [
        {
          "internalType": "address",
          "name": "",
          "type": "address"
        }
      ],
      "stateMutability": "view",
      "type": "function"
    }
  ],
  "bytecode": "0x6080806040523461007a5733156100645760008054336001600160a01b03198216811783556040519290916001600160a01b0316907f8be0079c531659141344cd1fd0a4f28419497f9722a3daafe3b4186f6b6457e09080a3612fba90816100808239f35b631e4fbdf760e01b815260006004820152602490fd5b600080fdfe608060408181526004803610156200001657600080fd5b600092833560e01c90816306661abd146200070e5750806314dd14b314620006dc57806315ad7e9414620006dc57806338c98ace14620004475780633fc497ca14620003915780636500d43f146200029d578063715018a614620002335780638da5cb5b146200020b578063933166e114620001c9578063e4ddcafb14620001c9578063f2c7f4b4146200016a5763f2fde38b14620000b457600080fd5b34620001665760203660031901126200016657620000d1620007c6565b90620000dc62000821565b6001600160a01b038092169283156200013757505082548273ffffffffffffffffffffffffffffffffffffffff198216178455167f8be0079c531659141344cd1fd0a4f28419497f9722a3daafe3b4186f6b6457e08380a380f35b908460249251917f1e4fbdf7000000000000000000000000000000000000000000000000000000008352820152fd5b8280fd5b509134620001c65781600319360112620001c65762000188620007c6565b926001600160a01b0360243594168252602052818120908154841015620001c65750602092620001b891620007f2565b91905490519160031b1c8152f35b80fd5b505034620002075760203660031901126200020757602091816001600160a01b039182620001f6620007c6565b168152600385522054169051908152f35b5080fd5b50503462000207578160031936011262000207576001600160a01b0360209254169051908152f35b8334620001c65780600319360112620001c6576200025062000821565b806001600160a01b03815473ffffffffffffffffffffffffffffffffffffffff1981168355167f8be0079c531659141344cd1fd0a4f28419497f9722a3daafe3b4186f6b6457e08280a380f35b50346200016657826003193601126200016657916001908154620002c181620008ce565b90620002d0855192836200072c565b808252620002de81620008ce565b9560209182840197601f1901368937845b81811062000338575050508451948186019282875251809352850195925b8281106200031b5785870386f35b83516001600160a01b03168752958101959281019284016200030d565b808694959699979952600285526001600160a01b03888520541686518210156200037e57906200037191868260051b89010152620008a8565b97959794939294620002ef565b602485603286634e487b7160e01b835252fd5b508234620001c6576020918260031936011262000207576001600160a01b03620003bd949394620007c6565b1682528352818120908251808584549182815201908194845286842090845b818110620004325750505081620003f59103826200072c565b83519485948186019282875251809352850193925b8281106200041a57505050500390f35b8351855286955093810193928101926001016200040a565b825484529288019260019283019201620003dc565b5090346200016657602092600319908482360112620001c65783359067ffffffffffffffff92838311620002075760e0908336030112620001c657835160e0810181811085821117620006c9578552828601358481116200016657620004b39087369186010162000765565b815260248301358481116200016657620004d39087369186010162000765565b93878201948552620004e860448501620007dd565b90868301918252620004fd60648601620007dd565b946060840195865260808401608482013581526200052960c460a087019360a4810135855201620007dd565b9760c086019889528951956126c68088019588871090871117620006b65791620005748e60e062000587948b9a99989796620008e88c39828952519188015261010087019062000866565b9051858203601f19018d87015262000866565b936001600160a01b039889809251166060860152511660808401525160a08301525160c082015260e086885116910152039082f08015620006aa5782169460015482526002875284822073ffffffffffffffffffffffffffffffffffffffff1990878282541617905586835260038852858320903390825416179055338252808752848220600154928154926801000000000000000084101562000697575050916200064182889460016200068e989795018155620007f2565b819291549060031b91821b91600019901b19161790556001549251168451908152827f5c347f490c4bc521f814819a7844bf59d61c163459274aa6bd2b4fce4769dfab883393a4620008a8565b60015551908152f35b906041602492634e487b7160e01b835252fd5b508351903d90823e3d90fd5b60248960418f634e487b7160e01b835252fd5b602483604189634e487b7160e01b835252fd5b5034620001665760203660031901126200016657816020936001600160a01b0392358152600285522054169051908152f35b84903462000207578160031936011262000207576020906001548152f35b90601f8019910116810190811067ffffffffffffffff8211176200074f57604052565b634e487b7160e01b600052604160045260246000fd5b81601f82011215620007c15780359067ffffffffffffffff82116200074f57604051926200079e601f8401601f1916602001856200072c565b82845260208383010111620007c157816000926020809301838601378301015290565b600080fd5b600435906001600160a01b0382168203620007c157565b35906001600160a01b0382168203620007c157565b80548210156200080b5760005260206000200190600090565b634e487b7160e01b600052603260045260246000fd5b6001600160a01b036000541633036200083657565b60246040517f118cdaa7000000000000000000000000000000000000000000000000000000008152336004820152fd5b919082519283825260005b84811062000893575050826000602080949584010152601f8019910116010190565b60208183018101518483018201520162000871565b6000198114620008b85760010190565b634e487b7160e01b600052601160045260246000fd5b67ffffffffffffffff81116200074f5760051b6020019056fe6040610120815234620004ed57620026c690813803806200002081620004f2565b938439820191602081840312620004ed578051906001600160401b038211620004ed570160e081840312620004ed5781519260e084016001600160401b03811185821017620003c457835281516001600160401b038111620004ed57816200008a91840162000518565b84526020820151906001600160401b038211620004ed57620000ae91830162000518565b92836020820152620000c28383016200058a565b83820152620000d4606083016200058a565b6060820152608082015191608082019283526200010060c060a08301519260a08501938452016200058a565b60c0830152815180516001600160401b038111620003c45760035491600183811c93168015620004e2575b6020841014620004cc578190601f9384811162000475575b50602090848311600114620003e657600092620003da575b50508160011b916000199060031b1c1916176003555b8551906001600160401b038211620003c4576004968754600181811c91168015620003b9575b6020821014620003a457908183859493116200034b575b506020918311600114620002e057600092620002d4575b50508160011b916000199060031b1c19161785555b6001600755818401516001600160a01b0393908416158015620002c5575b620002b5578483015184166080526060830151841660a0525160c0908152905160e0520151166101009081529062000230336200059f565b506200023c3362000620565b5051611fe29182620006c483396080518281816102e3015281816110000152818161137301526119c0015260a05182818161051d015281816107fe01528181610d210152610f34015260c05182818161069401526112ce015260e05182818161108e0152611631015251818181610f9001526116c40152f35b8451632945604560e11b81528690fd5b508360608401511615620001f8565b015190503880620001c5565b6000898152602081209350601f198516905b81811062000332575090846001959493921062000318575b505050811b018555620001da565b015160001960f88460031b161c191690553880806200030a565b92936020600181928786015181550195019301620002f2565b909192508860005260206000208380860160051c820192602087106200039a575b94869594939291940160051c01905b8181106200038a5750620001ae565b600081558594506001016200037b565b925081926200036c565b602289634e487b7160e01b6000525260246000fd5b90607f169062000197565b634e487b7160e01b600052604160045260246000fd5b0151905038806200015b565b6003600090815293507fc2575a0e9e593c00f959f8c92f12db2869c3395a3b0502d05e2516446f71f85b91905b601f198416851062000459576001945083601f198116106200043f575b505050811b0160035562000171565b015160001960f88460031b161c1916905538808062000430565b8181015183556020948501946001909301929091019062000413565b909150600360005260206000208480850160051c82019260208610620004c2575b9085949392910160051c01905b818110620004b2575062000143565b60008155849350600101620004a3565b9250819262000496565b634e487b7160e01b600052602260045260246000fd5b92607f16926200012b565b600080fd5b6040519190601f01601f191682016001600160401b03811183821017620003c457604052565b919080601f84011215620004ed5782516001600160401b038111620003c4576020906200054e601f8201601f19168301620004f2565b92818452828287010111620004ed5760005b8181106200057657508260009394955001015290565b858101830151848201840152820162000560565b51906001600160a01b0382168203620004ed57565b6001600160a01b031660008181527f05b8ccbb9d4d8fb16ea74ce3c29a41f1b461fbdaff4714a0d9a8eb05499746bc602052604081205490919060ff166200061c5781805260056020526040822081835260205260408220600160ff198254161790553391600080516020620026a68339815191528180a4600190565b5090565b6001600160a01b031660008181527fa9780ac285a6b64c20b34d35938634ccfeaf5de258bea281533158d789ca4a2f60205260408120549091907f84b05def62ce9bc2bd93f644e8c54b097db7ee9edab66685b9b15dc162c755649060ff16620006be5780835260056020526040832082845260205260408320600160ff19825416179055600080516020620026a6833981519152339380a4600190565b50509056fe608060408181526004918236101561001657600080fd5b600092833560e01c918262e77aa6146119a15750816301ffc9a71461190057816306fdde031461180b578163095ea7b31461176357816309ad1c471461172b5781630b5dce331461170757816318160ddd146116e85781631a4f94f7146116a457816323b872dd1461167f578163248a9ca3146116545781632b4353f2146116195781632f2ff15d146115ef578163313ce567146115d357816336568abe146115745781633f4ba83a146114f15781634265b3c91461146357816342966c6814611445578163464f0b0d146112ba57816348e8a94914610f585781634efa82b614610f145781635c975abb14610ef05781636f7bc9be14610e4157816370a0823114610e0b57816374a3d5b814610c7557816379cc679014610b735781637eb9d98114610b4957816383c379d414610b1f5781638456cb5914610a9a5781638695ed6414610a7b578163895955e614610a4057816391d14854146109fa57816395d89b41146108f7578163a217fddf146108dc578163a41cac7f14610766578163a9059cbb14610724578163bff08087146106f7578163d547741f146106b7578163d59624b41461067c578163dd62ed3e14610633578163e88499a914610431578163eb73fa6f14610412578163f2c399921461021e575063f9168231146101fd57600080fd5b3461021a578160031936011261021a576020906008549051908152f35b5080fd5b83833461021a578160031936011261021a57610238611f1b565b60ff60095416156103ea57338252602090600b82528083209182549081156103db57600784019360ff8554166103b3576001015460ff166103a45733855284815282852054938415610395576102a86102a1612710610299600a5487611e8b565b048095611ebe565b9533611d67565b805460ff19166001179055825163a9059cbb60e01b815233878201908152602081018690528290829081906040010381896001600160a01b037f0000000000000000000000000000000000000000000000000000000000000000165af190811561038b57869161035e575b501561034f57825193845283015233917fa34530ec0b9fd6c8b48017f6726af24c1ad4f28d0f434f7396906b6b954c1d989190a2600160075580f35b8583516312171d8360e31b8152fd5b61037e9150823d8411610384575b6103768183611d2f565b810190611e73565b87610313565b503d61036c565b84513d88823e3d90fd5b868451633a6a68b160e01b8152fd5b8583516317968e5360e31b8152fd5b8684517f5090d6c6000000000000000000000000000000000000000000000000000000008152fd5b858351633a6a68b160e01b8152fd5b9050517fa2a2b35c000000000000000000000000000000000000000000000000000000008152fd5b50503461021a578160031936011261021a57602090600c549051908152f35b9190503461062f578260031936011261062f57338352600b60205280832091825480156106205760ff6001850154166106115761047360ff8386015416611ecb565b9081156106025760028501805461048a8142611ebe565b8481106105da578461049b91611e9e565b9360036104ac60058a015487611e8b565b980194855494806104bd8b88611e50565b116105c6575b5088156105b7576104eb94926104de8a95936104e493611e8b565b90611e50565b9055611e50565b9055815163a9059cbb60e01b815233828201908152602081810186905290829081906040010381886001600160a01b037f0000000000000000000000000000000000000000000000000000000000000000165af19081156105ad57859161058f575b50156105815750519081527f399492d309dd6967e8059de2eece78587d885c0e55c73801041891dc98cb939260203392a280f35b90516312171d8360e31b8152fd5b6105a7915060203d8111610384576103768183611d2f565b3861054d565b83513d87823e3d90fd5b86885163439ece7760e01b8152fd5b6105d39199508590611ebe565b97386104c3565b8587517fb477c7b1000000000000000000000000000000000000000000000000000000008152fd5b82845163439ece7760e01b8152fd5b5090516317968e5360e31b8152fd5b509051633a6a68b160e01b8152fd5b8280fd5b50503461021a578060031936011261021a5780602092610651611a2d565b610659611a48565b6001600160a01b0391821683526001865283832091168252845220549051908152f35b50503461021a578160031936011261021a57602090517f00000000000000000000000000000000000000000000000000000000000000008152f35b9190503461062f578060031936011261062f576106f391356106ee60016106dc611a48565b93838752600560205286200154611ab6565b611cb7565b5080f35b8334610721576020366003190112610721576106f3610714611a2d565b61071c611a5e565b611c0b565b80fd5b8284346107215781600319360112610721575061073f611a2d565b50517fade576c5000000000000000000000000000000000000000000000000000000008152fd5b83833461021a5760208060031936011261062f578335907f84b05def62ce9bc2bd93f644e8c54b097db7ee9edab66685b9b15dc162c7556480855260058252838520338652825260ff8486205416156108bf57506107c2611f1b565b81156108b05782516323b872dd60e01b815233868201908152306020820152604081018490528290829081906060010381886001600160a01b037f0000000000000000000000000000000000000000000000000000000000000000165af19081156108a6578591610889575b501561087a577f04fc7965be49b3c5de2c5ae7700b1d01b9535e8cdd19811bb303e05ff19ce4a093945061086482600c54611e50565b9081600c558351928352820152a1600160075580f35b8483516312171d8360e31b8152fd5b6108a09150823d8411610384576103768183611d2f565b8661082e565b84513d87823e3d90fd5b84835163c7e1b6b160e01b8152fd5b8560449185519163e2517d3f60e01b835233908301526024820152fd5b50503461021a578160031936011261021a5751908152602090f35b83833461021a578160031936011261021a57805191809380549160019083821c928285169485156109f0575b60209586861081146109dd578589529081156109b95750600114610961575b61095d8787610953828c0383611d2f565b51918291826119e4565b0390f35b81529295507f8a35acfbc15ff81a39ae7d344fd709f28e8600b4aa8c65c6b64bfe7fe36bd19b5b8284106109a6575050508261095d9461095392820101948680610942565b8054868501880152928601928101610988565b60ff19168887015250505050151560051b83010192506109538261095d8680610942565b602484602285634e487b7160e01b835252fd5b93607f1693610923565b90503461062f578160031936011261062f578160209360ff92610a1b611a48565b90358252600586526001600160a01b0383832091168252855220541690519015158152f35b50503461021a578160031936011261021a57602090517f84b05def62ce9bc2bd93f644e8c54b097db7ee9edab66685b9b15dc162c755648152f35b50503461021a578160031936011261021a57602090600a549051908152f35b90503461062f578260031936011261062f57610ab4611a5e565b6006549060ff8216610af8575060ff1916600117600655513381527f62e78cea01bee320cd4e420270b5ea74000d11b0c9f74754ebdbfc544b05a25890602090a180f35b82517fd93c0665000000000000000000000000000000000000000000000000000000008152fd5b8334610721578060031936011261072157610b38611a5e565b60ff196009541660095580600a5580f35b8334610721576020366003190112610721576106f3610b66611a2d565b610b6e611a5e565b611adc565b8391503461021a578260031936011261021a57610b8e611a2d565b602435916001600160a01b038216808552600160205285852033865260205285852054916000198310610bca575b85610bc78686611d67565b80f35b848310610c30578115610c1a573315610c0457508495918491610bc796526001602052828720338852602052039085205583928580610bbc565b60249086885191634a1406b160e11b8352820152fd5b6024908688519163e602df0560e01b8352820152fd5b86517ffb8f41b2000000000000000000000000000000000000000000000000000000008152339181019182526020820193909352604081018590528291506060010390fd5b9190503461062f578260031936011261062f57610c90611f1b565b3383526020600b8152818420805415610dfc5760ff600782015416610ded57338552848252828520548015610ddd57610cd9600691610cd460025491600c54611e8b565b611e9e565b910193610ce7855483611ebe565b948515610dce57829055835163a9059cbb60e01b8152338282019081526020810187905284908290819060400103818a6001600160a01b037f0000000000000000000000000000000000000000000000000000000000000000165af1908115610dc4578791610da7575b5015610d99575090610d85847f0408e6e0b73daf4c873106e95fd067260fbff8bf9d1b499cad563d4480d45bac9493611ebe565b9082519485528401523392a2600160075580f35b83516312171d8360e31b8152fd5b610dbe9150843d8611610384576103768183611d2f565b38610d51565b85513d89823e3d90fd5b50835163439ece7760e01b8152fd5b50505051633a6a68b160e01b8152fd5b5050516317968e5360e31b8152fd5b505051633a6a68b160e01b8152fd5b50503461021a57602036600319011261021a57806020926001600160a01b03610e32611a2d565b16815280845220549051908152f35b828434610721576020366003190112610721576001600160a01b03610e64611a2d565b168152600b60205281812080549260ff60018301541692600283015490600384015460ff88860154169260058601549460ff6007600689015498015416978151998a52151560208a015288015260608701526003821015610edd57506101009550608085015260a084015260c0830152151560e0820152f35b80602188634e487b7160e01b6024945252fd5b50503461021a578160031936011261021a5760209060ff6006541690519015158152f35b50503461021a578160031936011261021a57602090516001600160a01b037f0000000000000000000000000000000000000000000000000000000000000000168152f35b83833461021a57606036600319011261021a57610f73611a2d565b90602435916044359060038210156112b6576001600160a01b03907f00000000000000000000000000000000000000000000000000000000000000008281163303611233579087929186156112245785516323b872dd60e01b81526001600160a01b0390911693810193845230602085810191909152604085018890529384908290819060600103818b877f0000000000000000000000000000000000000000000000000000000000000000165af190811561121a5788916111fd575b50156111ee57169182156111bf5761104a85600254611e50565b60025582865285825283862085815401905582867fddf252ad1be2c89b69c2b068fc378daa952ba7f163c4a11628f55a4df523b3ef848751898152a36127106110b37f000000000000000000000000000000000000000000000000000000000000000087611e8b565b0491845194610100860186811067ffffffffffffffff8211176111ac5790889594939291815287875261113482880187815282890192428452600b60608b01958a875260808c0197885260a08c0198895260c08c01998b8b5260e08d019b808d5252528b2098518955511515600189019060ff801983541691151516179055565b51600287015551600386015587850190516003811015611199579260079261118b959261119398979560ff8019835416911617905551600585015551600684015551151591019060ff801983541691151516179055565b600854611e50565b60085580f35b60248860218b634e487b7160e01b835252fd5b60248960418c634e487b7160e01b835252fd5b602487878651917fec442f05000000000000000000000000000000000000000000000000000000008352820152fd5b8785516312171d8360e31b8152fd5b6112149150843d8611610384576103768183611d2f565b89611030565b86513d8a823e3d90fd5b83865163c7e1b6b160e01b8152fd5b60848860208751917f08c379a0000000000000000000000000000000000000000000000000000000008352820152602360248201527f43616c6c6572206973206e6f7420746865206f66666572696e6720636f6e747260448201527f61637400000000000000000000000000000000000000000000000000000000006064820152fd5b8480fd5b90503461062f578260031936011261062f577f0000000000000000000000000000000000000000000000000000000000000000421061141e57338352602090600b8252828420906001820160ff8154166114005782541561140f5760ff600784015416611400573386528584526113348587205433611d67565b805460ff191660011790558154845163a9059cbb60e01b8152338382019081526020810192909252908490829081906040010381896001600160a01b037f0000000000000000000000000000000000000000000000000000000000000000165af19081156113f65786916113d9575b5015610d995750907f8bb992a66750701ebd5f73b74463037e5a77fa3114ea76d89b9db1818b083f48915492519283523392a280f35b6113f09150843d8611610384576103768183611d2f565b386113a3565b85513d88823e3d90fd5b5083516317968e5360e31b8152fd5b508351633a6a68b160e01b8152fd5b90517f111c4409000000000000000000000000000000000000000000000000000000008152fd5b83903461021a57602036600319011261021a57610bc7903533611d67565b9190503461062f57602036600319011261062f57813591611482611a5e565b61138883116114ca57507f373e08b9e2e94c99f958f95cf4e0a2db0e6de1f1607a5b7470341baab1ae608c91602091600160ff19600954161760095581600a5551908152a180f35b90517f458eae5b000000000000000000000000000000000000000000000000000000008152fd5b90503461062f578260031936011261062f5761150b611a5e565b6006549060ff82161561154d575060ff1916600655513381527f5db9ee0a495bf2e6ff9c91a7834c1ba4fdd244a5e8aa4e537bd38aeae4b073aa90602090a180f35b82517f8dfc202b000000000000000000000000000000000000000000000000000000008152fd5b83833461021a578060031936011261021a5761158e611a48565b90336001600160a01b038316036115ab57506106f3919235611cb7565b8390517f6697b232000000000000000000000000000000000000000000000000000000008152fd5b50503461021a578160031936011261021a576020905160128152f35b9190503461062f578060031936011261062f576106f3913561161460016106dc611a48565b611b8f565b50503461021a578160031936011261021a57602090517f00000000000000000000000000000000000000000000000000000000000000008152f35b90503461062f57602036600319011261062f5781602093600192358152600585522001549051908152f35b828434610721576060366003190112610721575061169b611a2d565b5061073f611a48565b50503461021a578160031936011261021a57602090516001600160a01b037f0000000000000000000000000000000000000000000000000000000000000000168152f35b50503461021a578160031936011261021a576020906002549051908152f35b50503461021a578160031936011261021a5760209060ff6009541690519015158152f35b50503461021a57602036600319011261021a5760609061175161174c611a2d565b611f56565b91929081519384526020840152820152f35b90503461062f578160031936011261062f5761177d611a2d565b6024359033156117f5576001600160a01b03169182156117df57508083602095338152600187528181208582528752205582519081527f8c5be1e5ebec7d5bd14f71427d1e84f3dd0314c0f7b2291e5b200ac8c7c3b925843392a35160018152f35b60249085855191634a1406b160e11b8352820152fd5b6024838686519163e602df0560e01b8352820152fd5b9190503461062f578260031936011261062f57805191836003549060019082821c9282811680156118f6575b60209586861082146118e357508488529081156118c15750600114611868575b61095d8686610953828b0383611d2f565b929550600383527fc2575a0e9e593c00f959f8c92f12db2869c3395a3b0502d05e2516446f71f85b5b8284106118ae575050508261095d94610953928201019438611857565b8054868501880152928601928101611891565b60ff191687860152505050151560051b83010192506109538261095d38611857565b836022602492634e487b7160e01b835252fd5b93607f1693611837565b90503461062f57602036600319011261062f5735907fffffffff00000000000000000000000000000000000000000000000000000000821680920361062f57602092507f7965db0b000000000000000000000000000000000000000000000000000000008214918215611977575b50519015158152f35b7f01ffc9a7000000000000000000000000000000000000000000000000000000001491503861196e565b84903461021a578160031936011261021a576020906001600160a01b037f0000000000000000000000000000000000000000000000000000000000000000168152f35b6020808252825181830181905290939260005b828110611a1957505060409293506000838284010152601f8019910116010190565b8181018601518482016040015285016119f7565b600435906001600160a01b0382168203611a4357565b600080fd5b602435906001600160a01b0382168203611a4357565b3360009081527f05b8ccbb9d4d8fb16ea74ce3c29a41f1b461fbdaff4714a0d9a8eb05499746bc602052604081205460ff1615611a985750565b6044906040519063e2517d3f60e01b82523360048301526024820152fd5b80600052600560205260406000203360005260205260ff6040600020541615611a985750565b6001600160a01b031660008181527fa9780ac285a6b64c20b34d35938634ccfeaf5de258bea281533158d789ca4a2f60205260408120549091907f84b05def62ce9bc2bd93f644e8c54b097db7ee9edab66685b9b15dc162c755649060ff16611b8a5780835260056020526040832082845260205260408320600160ff198254161790557f2f8788117e7eff1d82e926ec794901d17c78024a50270940304540a733656f0d339380a4600190565b505090565b9060009180835260056020526001600160a01b036040842092169182845260205260ff60408420541615600014611b8a5780835260056020526040832082845260205260408320600160ff198254161790557f2f8788117e7eff1d82e926ec794901d17c78024a50270940304540a733656f0d339380a4600190565b6001600160a01b031660008181527fa9780ac285a6b64c20b34d35938634ccfeaf5de258bea281533158d789ca4a2f60205260408120549091907f84b05def62ce9bc2bd93f644e8c54b097db7ee9edab66685b9b15dc162c755649060ff1615611b8a578083526005602052604083208284526020526040832060ff1981541690557ff6391f5c32d9c69d2a47ea670b442974b53935d1edc7fd64eb21e047a839171b339380a4600190565b9060009180835260056020526001600160a01b036040842092169182845260205260ff604084205416600014611b8a578083526005602052604083208284526020526040832060ff1981541690557ff6391f5c32d9c69d2a47ea670b442974b53935d1edc7fd64eb21e047a839171b339380a4600190565b90601f8019910116810190811067ffffffffffffffff821117611d5157604052565b634e487b7160e01b600052604160045260246000fd5b906001600160a01b038216908115611e1f5760009282845283602052604084205490828210611dd45750817fddf252ad1be2c89b69c2b068fc378daa952ba7f163c4a11628f55a4df523b3ef926020928587528684520360408620558060025403600255604051908152a3565b6040517fe450d38c0000000000000000000000000000000000000000000000000000000081526001600160a01b03919091166004820152602481019190915260448101829052606490fd5b60246040517f96c6fd1e00000000000000000000000000000000000000000000000000000000815260006004820152fd5b91908201809211611e5d57565b634e487b7160e01b600052601160045260246000fd5b90816020910312611a4357518015158103611a435790565b81810292918115918404141715611e5d57565b8115611ea8570490565b634e487b7160e01b600052601260045260246000fd5b91908203918211611e5d57565b6003811015611f055780611ee157506201518090565b60018103611ef1575062278d0090565b600214611efd57600090565b6301e1338090565b634e487b7160e01b600052602160045260246000fd5b600260075414611f2c576002600755565b60046040517f3ee5aeb5000000000000000000000000000000000000000000000000000000008152fd5b6001600160a01b03600091168152600b6020526040812091825415611fcd578160205260408220548015611fc457600254908115611fba57600691610cd4611fa092600c54611e8b565b9301549182841115611fb75750611fb78284611ebe565b90565b5050915080918190565b50915080918190565b91508091819056fea164736f6c6343000814000a2f8788117e7eff1d82e926ec794901d17c78024a50270940304540a733656f0da164736f6c6343000814000a",
  "linkReferences": {},
  "deployedLinkReferences": {}
}