{
  "_format": "hh-sol-artifact-1",
  "contractName": "Escrow",
  "sourceName": "contracts/Escrow.sol",
  "abi": [
    {
      "inputs": [
        {
          "components": [
            {
              "internalType": "address",
              "name": "owner",
              "type": "address"
            }
          ],
          "internalType": "struct EscrowConfig",
          "name": "config",
          "type": "tuple"
        }
      ],
      "stateMutability": "nonpayable",
      "type": "constructor"
    },
    {
      "inputs": [
        {
          "internalType": "address",
          "name": "owner",
          "type": "address"
        }
      ],
      "name": "OwnableInvalidOwner",
      "type": "error"
    },
    {
      "inputs": [
        {
          "internalType": "address",
          "name": "account",
          "type": "address"
        }
      ],
      "name": "OwnableUnauthorizedAccount",
      "type": "error"
    },
    {
      "inputs": [],
      "name": "ReentrancyGuardReentrantCall",
      "type": "error"
    },
    {
      "anonymous": false,
      "inputs": [
        {
          "indexed": true,
          "internalType": "address",
          "name": "offeringContract",
          "type": "address"
        },
        {
          "indexed": true,
          "internalType": "address",
          "name": "investor",
          "type": "address"
        },
        {
          "indexed": true,
          "internalType": "address",
          "name": "token",
          "type": "address"
        },
        {
          "indexed": false,
          "internalType": "uint256",
          "name": "amount",
          "type": "uint256"
        }
      ],
      "name": "Deposited",
      "type": "event"
    },
    {
      "anonymous": false,
      "inputs": [
        {
          "indexed": true,
          "internalType": "address",
          "name": "offeringContract",
          "type": "address"
        },
        {
          "indexed": true,
          "internalType": "address",
          "name": "owner",
          "type": "address"
        },
        {
          "indexed": false,
          "internalType": "uint256",
          "name": "totalETH",
          "type": "uint256"
        },
        {
          "indexed": false,
          "internalType": "address[]",
          "name": "tokens",
          "type": "address[]"
        },
        {
          "indexed": false,
          "internalType": "uint256[]",
          "name": "tokenAmounts",
          "type": "uint256[]"
        }
      ],
      "name": "OfferingFinalized",
      "type": "event"
    },
    {
      "anonymous": false,
      "inputs": [
        {
          "indexed": true,
          "internalType": "address",
          "name": "offeringContract",
          "type": "address"
        },
        {
          "indexed": true,
          "internalType": "address",
          "name": "owner",
          "type": "address"
        }
      ],
      "name": "OfferingRegistered",
      "type": "event"
    },
    {
      "anonymous": false,
      "inputs": [
        {
          "indexed": true,
          "internalType": "address",
          "name": "previousOwner",
          "type": "address"
        },
        {
          "indexed": true,
          "internalType": "address",
          "name": "newOwner",
          "type": "address"
        }
      ],
      "name": "OwnershipTransferred",
      "type": "event"
    },
    {
      "anonymous": false,
      "inputs": [
        {
          "indexed": true,
          "internalType": "address",
          "name": "offeringContract",
          "type": "address"
        },
        {
          "indexed": true,
          "internalType": "address",
          "name": "investor",
          "type": "address"
        },
        {
          "indexed": true,
          "internalType": "address",
          "name": "token",
          "type": "address"
        },
        {
          "indexed": false,
          "internalType": "uint256",
          "name": "amount",
          "type": "uint256"
        }
      ],
      "name": "Refunded",
      "type": "event"
    },
    {
      "anonymous": false,
      "inputs": [
        {
          "indexed": true,
          "internalType": "address",
          "name": "offeringContract",
          "type": "address"
        }
      ],
      "name": "RefundsEnabled",
      "type": "event"
    },
    {
      "anonymous": false,
      "inputs": [
        {
          "indexed": true,
          "internalType": "address",
          "name": "token",
          "type": "address"
        },
        {
          "indexed": false,
          "internalType": "uint256",
          "name": "amount",
          "type": "uint256"
        },
        {
          "indexed": true,
          "internalType": "address",
          "name": "to",
          "type": "address"
        }
      ],
      "name": "Withdrawn",
      "type": "event"
    },
    {
      "inputs": [
        {
          "internalType": "address",
          "name": "_offeringContract",
          "type": "address"
        },
        {
          "internalType": "address",
          "name": "_investor",
          "type": "address"
        }
      ],
      "name": "depositNative",
      "outputs": [],
      "stateMutability": "payable",
      "type": "function"
    },
    {
      "inputs": [
        {
          "internalType": "address",
          "name": "_offeringContract",
          "type": "address"
        },
        {
          "internalType": "address",
          "name": "_investor",
          "type": "address"
        },
        {
          "internalType": "address",
          "name": "tokenAddr",
          "type": "address"
        },
        {
          "internalType": "uint256",
          "name": "amount",
          "type": "uint256"
        }
      ],
      "name": "depositToken",
      "outputs": [],
      "stateMutability": "nonpayable",
      "type": "function"
    },
    {
      "inputs": [
        {
          "internalType": "address",
          "name": "",
          "type": "address"
        },
        {
          "internalType": "address",
          "name": "",
          "type": "address"
        }
      ],
      "name": "deposits",
      "outputs": [
        {
          "internalType": "uint256",
          "name": "amount",
          "type": "uint256"
        },
        {
          "internalType": "address",
          "name": "token",
          "type": "address"
        }
      ],
      "stateMutability": "view",
      "type": "function"
    },
    {
      "inputs": [],
      "name": "enableRefundsByOffering",
      "outputs": [],
      "stateMutability": "nonpayable",
      "type": "function"
    },
    {
      "inputs": [
        {
          "internalType": "address",
          "name": "_offeringContract",
          "type": "address"
        }
      ],
      "name": "enableRefundsByOwner",
      "outputs": [],
      "stateMutability": "nonpayable",
      "type": "function"
    },
    {
      "inputs": [
        {
          "internalType": "address",
          "name": "_offeringContract",
          "type": "address"
        }
      ],
      "name": "finalizeOffering",
      "outputs": [],
      "stateMutability": "nonpayable",
      "type": "function"
    },
    {
      "inputs": [
        {
          "internalType": "address",
          "name": "_offeringContract",
          "type": "address"
        },
        {
          "internalType": "address",
          "name": "_investor",
          "type": "address"
        }
      ],
      "name": "getDepositInfo",
      "outputs": [
        {
          "components": [
            {
              "internalType": "uint256",
              "name": "amount",
              "type": "uint256"
            },
            {
              "internalType": "address",
              "name": "token",
              "type": "address"
            }
          ],
          "internalType": "struct Escrow.DepositInfo",
          "name": "",
          "type": "tuple"
        }
      ],
      "stateMutability": "view",
      "type": "function"
    },
    {
      "inputs": [
        {
          "internalType": "address",
          "name": "_offeringContract",
          "type": "address"
        }
      ],
      "name": "getInvestedTokens",
      "outputs": [
        {
          "internalType": "address[]",
          "name": "",
          "type": "address[]"
        }
      ],
      "stateMutability": "view",
      "type": "function"
    },
    {
      "inputs": [
        {
          "internalType": "address",
          "name": "_offeringContract",
          "type": "address"
        }
      ],
      "name": "getInvestmentSummary",
      "outputs": [
        {
          "internalType": "uint256",
          "name": "totalETH",
          "type": "uint256"
        },
        {
          "internalType": "address[]",
          "name": "tokens",
          "type": "address[]"
        },
        {
          "internalType": "uint256[]",
          "name": "tokenAmounts",
          "type": "uint256[]"
        }
      ],
      "stateMutability": "view",
      "type": "function"
    },
    {
      "inputs": [
        {
          "internalType": "address",
          "name": "_offeringContract",
          "type": "address"
        }
      ],
      "name": "getOfferingInfo",
      "outputs": [
        {
          "components": [
            {
              "internalType": "address",
              "name": "owner",
              "type": "address"
            },
            {
              "internalType": "bool",
              "name": "isRegistered",
              "type": "bool"
            },
            {
              "internalType": "bool",
              "name": "isFinalized",
              "type": "bool"
            }
          ],
          "internalType": "struct Escrow.OfferingInfo",
          "name": "",
          "type": "tuple"
        }
      ],
      "stateMutability": "view",
      "type": "function"
    },
    {
      "inputs": [
        {
          "internalType": "address",
          "name": "_offeringContract",
          "type": "address"
        }
      ],
      "name": "getTotalETH",
      "outputs": [
        {
          "internalType": "uint256",
          "name": "",
          "type": "uint256"
        }
      ],
      "stateMutability": "view",
      "type": "function"
    },
    {
      "inputs": [
        {
          "internalType": "address",
          "name": "_offeringContract",
          "type": "address"
        },
        {
          "internalType": "address",
          "name": "token",
          "type": "address"
        }
      ],
      "name": "getTotalTokenAmount",
      "outputs": [
        {
          "internalType": "uint256",
          "name": "",
          "type": "uint256"
        }
      ],
      "stateMutability": "view",
      "type": "function"
    },
    {
      "inputs": [],
      "name": "investmentManager",
      "outputs": [
        {
          "internalType": "address",
          "name": "",
          "type": "address"
        }
      ],
      "stateMutability": "view",
      "type": "function"
    },
    {
      "inputs": [
        {
          "internalType": "address",
          "name": "_offeringContract",
          "type": "address"
        }
      ],
      "name": "isOfferingFinalized",
      "outputs": [
        {
          "internalType": "bool",
          "name": "",
          "type": "bool"
        }
      ],
      "stateMutability": "view",
      "type": "function"
    },
    {
      "inputs": [
        {
          "internalType": "address",
          "name": "_offeringContract",
          "type": "address"
        }
      ],
      "name": "isOfferingRegistered",
      "outputs": [
        {
          "internalType": "bool",
          "name": "",
          "type": "bool"
        }
      ],
      "stateMutability": "view",
      "type": "function"
    },
    {
      "inputs": [
        {
          "internalType": "address",
          "name": "",
          "type": "address"
        }
      ],
      "name": "offerings",
      "outputs": [
        {
          "internalType": "address",
          "name": "owner",
          "type": "address"
        },
        {
          "internalType": "bool",
          "name": "isRegistered",
          "type": "bool"
        },
        {
          "internalType": "bool",
          "name": "isFinalized",
          "type": "bool"
        }
      ],
      "stateMutability": "view",
      "type": "function"
    },
    {
      "inputs": [],
      "name": "owner",
      "outputs": [
        {
          "internalType": "address",
          "name": "",
          "type": "address"
        }
      ],
      "stateMutability": "view",
      "type": "function"
    },
    {
      "inputs": [
        {
          "internalType": "address",
          "name": "_offeringContract",
          "type": "address"
        },
        {
          "internalType": "address",
          "name": "_investor",
          "type": "address"
        }
      ],
      "name": "refund",
      "outputs": [],
      "stateMutability": "nonpayable",
      "type": "function"
    },
    {
      "inputs": [
        {
          "internalType": "address",
          "name": "",
          "type": "address"
        }
      ],
      "name": "refundsEnabled",
      "outputs": [
        {
          "internalType": "bool",
          "name": "",
          "type": "bool"
        }
      ],
      "stateMutability": "view",
      "type": "function"
    },
    {
      "inputs": [
        {
          "internalType": "address",
          "name": "_offeringContract",
          "type": "address"
        },
        {
          "internalType": "address",
          "name": "_offeringOwner",
          "type": "address"
        }
      ],
      "name": "registerOffering",
      "outputs": [],
      "stateMutability": "nonpayable",
      "type": "function"
    },
    {
      "inputs": [],
      "name": "renounceOwnership",
      "outputs": [],
      "stateMutability": "nonpayable",
      "type": "function"
    },
    {
      "inputs": [
        {
          "internalType": "address",
          "name": "_investmentManager",
          "type": "address"
        }
      ],
      "name": "setInvestmentManager",
      "outputs": [],
      "stateMutability": "nonpayable",
      "type": "function"
    },
    {
      "inputs": [
        {
          "internalType": "address",
          "name": "newOwner",
          "type": "address"
        }
      ],
      "name": "transferOwnership",
      "outputs": [],
      "stateMutability": "nonpayable",
      "type": "function"
    },
    {
      "inputs": [
        {
          "internalType": "address",
          "name": "tokenAddr",
          "type": "address"
        },
        {
          "internalType": "uint256",
          "name": "amount",
          "type": "uint256"
        },
        {
          "internalType": "address",
          "name": "to",
          "type": "address"
        }
      ],
      "name": "withdraw",
      "outputs": [],
      "stateMutability": "nonpayable",
      "type": "function"
    },
    {
      "stateMutability": "payable",
      "type": "receive"
    }
  ],
  "bytecode": "0x6080346200012157601f6200261338819003918201601f19168301926001600160401b0392909183851183861017620001265781602092849260409788528339810103126200012157825191602083019081118382101762000126578352516001600160a01b038082169290918381036200012157815282156200010957600080546001600160a01b031981168517825585519491908416907f8be0079c531659141344cd1fd0a4f28419497f9722a3daafe3b4186f6b6457e09080a360018055511615620000d75750516124d690816200013d8239f35b62461bcd60e51b815260206004820152600d60248201526c24b73b30b634b21037bbb732b960991b6044820152606490fd5b8351631e4fbdf760e01b815260006004820152602490fd5b600080fd5b634e487b7160e01b600052604160045260246000fdfe60406080815260049081361015610020575b5050361561001e57600080fd5b005b600091823560e01c80630434c8c214611c195780630ef7c5a7146118635780631cfd3a89146117d05780632dce5c01146112215783816331b97e621461111a5750806333ead650146110c7578063410f539c146110905780634b31bb10146110685780635e30b8a614610cb857806369328dec146109af5780636de5de0f146108fe57838163701bb8911461073357508063715018a6146106d95780637c45e579146106655780637d08c26f14610616578063874e2783146105d75780638853636e1461059d5780638da5cb5b146105775780638f601f661461051d578063b40073f5146104c7578063d8695e071461048457838163dcdcafaa1461038357508063ec4083de146101e05763f2fde38b1461013b5750610011565b346101dc5760203660031901126101dc57610154611cc1565b9061015d611d93565b6001600160a01b038092169283156101ad575050600054826001600160a01b0319821617600055167f8be0079c531659141344cd1fd0a4f28419497f9722a3daafe3b4186f6b6457e0600080a380f35b908460249251917f1e4fbdf7000000000000000000000000000000000000000000000000000000008352820152fd5b8280fd5b5090346101dc57806003193601126101dc576101fa611cc1565b90610203611cd7565b9161020c611d93565b6001600160a01b038080921693610224851515611dd7565b1693841561034057838652600560205260ff8387205460a01c166102fd575081519161024f83611e54565b84835260208301916001835281840191878352858852600560205287209351167fffffffffffffffffffff0000000000000000000000000000000000000000000075ff00000000000000000000000000000000000000000074ff000000000000000000000000000000000000000086549551151560a01b169351151560a81b16931617171790557f459b6de71f7d3a2d186f0b89e3fa460a69e0c6b9b91b27875032129b7ce11eba8380a380f35b606490602084519162461bcd60e51b8352820152601b60248201527f4f66666572696e6720616c7265616479207265676973746572656400000000006044820152fd5b606490602084519162461bcd60e51b8352820152601660248201527f496e76616c6964206f66666572696e67206f776e6572000000000000000000006044820152fd5b929050346104805782600319360112610480576103a1331515611dd7565b33835260056020526103bb60ff8285205460a01c16611ff8565b33835260056020526103d660ff8285205460a81c16156123fe565b33835281602052808320600160ff19825416179055805191337fdfe9f2e2d9a591e6f645aef6d055f259f1f68cff03c5021bbc474eee389fcca18580a26001600160a01b036002541680610428578480f35b803b1561047c57602484868193819563c7103ea360e01b845233908401525af1908115610473575061045c575b8080808480f35b61046590611e70565b610470578038610455565b80fd5b513d84823e3d90fd5b8480fd5b5050fd5b5050346104c35760203660031901126104c35760ff816020936001600160a01b036104ad611cc1565b16815260058552205460a01c1690519015158152f35b5080fd5b5050346104c35760203660031901126104c357908160ff6060936001600160a01b0393846104f3611cc1565b1681526005602052205482519381168452818160a01c161515602085015260a81c16151590820152f35b828434610470578160031936011261047057610537611cc1565b61053f611cd7565b90836001600160a01b039384809316815260036020522091166000526020528160002090600182549201541682519182526020820152f35b5050346104c357816003193601126104c3576001600160a01b0360209254169051908152f35b50346101dc5760203660031901126101dc578160209360ff926001600160a01b036105c6611cc1565b168252855220541690519015158152f35b5050346104c35760203660031901126104c35760ff816020936001600160a01b03610600611cc1565b16815260058552205460a81c1690519015158152f35b5050346104c357806003193601126104c357602091610633611cc1565b60018361063e611cd7565b936001600160a01b0380941681526006875220019116600052825280600020549051908152f35b82843461047057816003193601126104705761067f611cc1565b610687611cd7565b90826020855161069681611e22565b8281520152836001600160a01b039384809316815260036020522091166000526020526106c58260002061208e565b906020835192805184520151166020820152f35b83346104705780600319360112610470576106f2611d93565b60006001600160a01b0381546001600160a01b031981168355167f8be0079c531659141344cd1fd0a4f28419497f9722a3daafe3b4186f6b6457e08280a380f35b92809150600319360112610480577f4174a9435a04d04d274c76779cad136a41fde6937c56241c09ab9d3c7064a1a961076a611cc1565b92610773611cd7565b926001600160a01b038086169461078b863314611ea6565b610796341515611f17565b85885260209384526107ae60ff848a20541615611f62565b6107b9861515611dd7565b818116966107c8881515611fad565b868952600585526107e160ff858b205460a01c16611ff8565b868952600585526107fb60ff858b205460a81c1615612043565b8689526005855261081460ff858b205460a01c16611ff8565b8689526005855261082e60ff858b205460a81c1615612043565b868952600385528389208860005285528360002091825415158080916108f0575b156108865750505090506108643482546120b5565b90555b8386526006825280862061087c3482546120b5565b905551348152a480f35b6108d6575b50505081519061089a82611e22565b348252600184830192898452878a5260038652848a208960005286528460002090518155019151166001600160a01b0319825416179055610867565b6108e26108e89361208e565b9161223c565b38808061088b565b50846001850154161561084f565b50346101dc5760203660031901126101dc576001600160a01b03610920611cc1565b610928611d93565b169182156109465750506001600160a01b0319600254161760025580f35b906020608492519162461bcd60e51b8352820152602260248201527f496e76616c696420696e766573746d656e74206d616e6167657220616464726560448201527f73730000000000000000000000000000000000000000000000000000000000006064820152fd5b5090346101dc5760603660031901126101dc576109ca611cc1565b916024918235916109d9611ced565b936109e2611d93565b6109ea61211e565b6001600160a01b03808616968715610c7657169485610ad75750834710610a965786808080878a5af1610a1b6121b1565b5015610a555750507fcbcdbdf10631a43cc99c80acace8232649421c3f4f73919f16013d47c83a687a916020915b51908152a36001805580f35b601c906020606494519362461bcd60e51b85528401528201527f455448207769746864726177207472616e73666572206661696c6564000000006044820152fd5b6010906020606494519362461bcd60e51b85528401528201527f496e73756666696369656e7420455448000000000000000000000000000000006044820152fd5b8351906370a0823160e01b82523084830152602091828185818b5afa908115610c6c579087918b91610c36575b5010610bf557845163a9059cbb60e01b81526001600160a01b039091168482019081526020810187905282908290819060400103818c8b5af1908115610beb578991610bbe575b5015610b7e575050507fcbcdbdf10631a43cc99c80acace8232649421c3f4f73919f16013d47c83a687a91602091610a49565b90601e91606494519362461bcd60e51b85528401528201527f546f6b656e207769746864726177207472616e73666572206661696c656400006044820152fd5b610bde9150823d8411610be4575b610bd68183611e84565b8101906120d8565b38610b4b565b503d610bcc565b85513d8b823e3d90fd5b5090601391606494519362461bcd60e51b85528401528201527f496e73756666696369656e7420746f6b656e73000000000000000000000000006044820152fd5b809250848092503d8311610c65575b610c4f8183611e84565b81010312610c605786905138610b04565b600080fd5b503d610c45565b86513d8c823e3d90fd5b606484601185602089519362461bcd60e51b85528401528201527f496e76616c696420726563697069656e740000000000000000000000000000006044820152fd5b5090346101dc57806003193601126101dc57610cd2611cc1565b610cda611cd7565b916001600160a01b039182600254163303610fff578290610cf961211e565b169081865260209060058252610d1760ff8289205460a01c16611ff8565b82875285825260ff818820541615610fbd57610d34831515611dd7565b83851693610d43851515611fad565b8388526005835260ff8289205460a81c16610f555783885260038352818820856000528352610d748260002061208e565b95865115610f13578251610d8781611e22565b898152826001868301928c8452888d5260038852868d208a60005288528660002090518155019151166001600160a01b0319825416179055838701908282511615600014610ee5578751868b5260068652610de6858c20918254612159565b90555b815183169081610e46575050869750610e35898080807fb7c482f0c0b7ad56e2c7004be448a8ead98a8bbe84675fd80b273563099f8560999a9b518c5af1610e2f6121b1565b506121f1565b511695519051908152a46001805580f35b8851855163a9059cbb60e01b81526001600160a01b039092169a82019a8b5260208b01529885918a9182908d90829060400103925af1978815610edb577fb7c482f0c0b7ad56e2c7004be448a8ead98a8bbe84675fd80b273563099f856095969798610eb9918b91610ebe575b50612166565b610e35565b610ed59150863d8811610be457610bd68183611e84565b38610eb3565b83513d8b823e3d90fd5b8751868b52600686526001858c2001848451166000528652610f0c85600020918254612159565b9055610de9565b6064888585519162461bcd60e51b8352820152601160248201527f4e6f7468696e6720746f20726566756e640000000000000000000000000000006044820152fd5b6084878484519162461bcd60e51b8352820152602260248201527f43616e6e6f7420726566756e64202d206f66666572696e672066696e616c697a60448201527f65640000000000000000000000000000000000000000000000000000000000006064820152fd5b6064918691519162461bcd60e51b8352820152601360248201527f526566756e6473206e6f7420656e61626c6564000000000000000000000000006044820152fd5b608485602084519162461bcd60e51b8352820152602d60248201527f4f6e6c7920496e766573746d656e744d616e616765722063616e2063616c6c2060448201527f746869732066756e6374696f6e000000000000000000000000000000000000006064820152fd5b5050346104c357816003193601126104c3576020906001600160a01b03600254169051908152f35b5050346104c35760203660031901126104c357806020926001600160a01b036110b7611cc1565b1681526006845220549051908152f35b5050346104c35760203660031901126104c357611103600282611116946001600160a01b036110f4611cc1565b1681526006602052200161246f565b9051918291602083526020830190611d03565b0390f35b9290503461048057602036600319011261048057611136611cc1565b9161113f611d93565b6001600160a01b0380931690611156821515611dd7565b818552600560205261117060ff8487205460a01c16611ff8565b818552600560205261118b60ff8487205460a81c16156123fe565b81855280602052828520600160ff19825416179055825193827fdfe9f2e2d9a591e6f645aef6d055f259f1f68cff03c5021bbc474eee389fcca18780a260025416806111d5578580f35b803b1561121d5784866024928195839563c7103ea360e01b85528401525af19081156104735750611209575b808080808580f35b61121290611e70565b610470578038611201565b8580fd5b5090346101dc57602091826003193601126117cc5761123e611cc1565b61124661211e565b6001600160a01b038091169161125d831515611dd7565b8286526005855261127660ff8588205460a01c16611ff8565b8286526005855261129060ff8588205460a81c1615612043565b82865280855260ff848720541661176457818654163314801561174f575b156116e757828652600585528386209081549175010000000000000000000000000000000000000000007fffffffffffffffffffff00ffffffffffffffffffffffffffffffffffffffffff84161790556006865284872095843b156116e35785517f35a41aaf00000000000000000000000000000000000000000000000000000000815288818481838a5af180156116d9576116c6575b50600287019687549161138161135a84612391565b936113678a519586611e84565b808552601f1961137682612391565b0136848701376123a9565b938254806115f8575b506001998a9290848401908d80865b6113e4575b50505050505050916113dc917ff111a5f6aca39c7d31470586ae67db6f1180e4bef16cb07d72b398134f995e08959493549751948594169784611d40565b0390a3805580f35b8d83548310156115f25782918b918b8f8561142a91611403828b6120f0565b90549060031b1c1695866000528a8c52866114248660002054998a966123ea565b526123ea565b5283611445575b5050505061143e906123db565b8e86611399565b90919293949596979850516370a0823160e01b815230898201528781602481865afa9182156115e5579084926115b4575b501061157157908f91878f918e858f6114bb8c96519788968795869463a9059cbb60e01b865216908401602090939291936001600160a01b0360408201951681520152565b03925af19182156115665791611549575b50156114e157908c94939291388f808f611431565b608485858e519162461bcd60e51b8352820152602760248201527f546f6b656e207472616e7366657220746f206f66666572696e67206f776e657260448201527f206661696c6564000000000000000000000000000000000000000000000000006064820152fd5b6115609150853d8711610be457610bd68183611e84565b386114cc565b8e51903d90823e3d90fd5b50606486868f519162461bcd60e51b8352820152601a60248201527f496e73756666696369656e7420746f6b656e2062616c616e63650000000000006044820152fd5b809250888092503d83116115de575b6115cd8183611e84565b81010312610c605782905138611476565b503d6115c3565b90508f51903d90823e3d90fd5b5061139e565b804710611684578b808080938b8b165af16116116121b1565b501561161d573861138a565b60849189519162461bcd60e51b8352820152602560248201527f455448207472616e7366657220746f206f66666572696e67206f776e6572206660448201527f61696c65640000000000000000000000000000000000000000000000000000006064820152fd5b5060649189519162461bcd60e51b8352820152601860248201527f496e73756666696369656e74204554482062616c616e636500000000000000006044820152fd5b6116d290989198611e70565b9638611345565b87513d8b823e3d90fd5b8780fd5b6084908585519162461bcd60e51b8352820152603060248201527f4f6e6c7920657363726f77206f776e6572206f72206f66666572696e67206f7760448201527f6e65722063616e2066696e616c697a65000000000000000000000000000000006064820152fd5b508286526005855281848720541633146112ae565b6084908585519162461bcd60e51b8352820152602160248201527f526566756e647320656e61626c6564202d2063616e6e6f742066696e616c697a60448201527f65000000000000000000000000000000000000000000000000000000000000006064820152fd5b8380fd5b5050346104c35760203660031901126104c35790816060926117f0611cc1565b92808280516117fe81611e54565b82815282602082015201526001600160a01b0380941681526005602052209181519261182984611e54565b549081169283815260ff836020830192828560a01c1615158452019260a81c16151582528251938452511515602084015251151590820152f35b5082346104705760803660031901126104705761187e611cc1565b611886611cd7565b61188e611ced565b906064359061189b61211e565b6001600160a01b039081808616946118b4863314611ea6565b16948515611bd6576064928785938b936118d361190a99981515611f17565b878352898c89602099828b93845260ff976118f3898c8320541615611f62565b6118fe841515611dd7565b8988169e8f1515611fad565b83815260058552611922898c83205460a01c16611ff8565b8381526005855261193b898c83205460a81c1615612043565b83815260058552611953898c83205460a01c16611ff8565b8381526005855261196c898c83205460a81c1615612043565b8a5195869485937f23b872dd0000000000000000000000000000000000000000000000000000000085528401523060248401528c60448401525af1908115611bcc578c91611baf575b5015611b6d57878b5260038752848b20898c528752848b209182541515808091611b5e575b15611afb575050506119ed8582546120b5565b90555b8589526006855282892090888a52600182018652838a20611a128682546120b5565b9055868a5260078652838a20898b528652838a20541615611a5f575b5050519081527f4174a9435a04d04d274c76779cad136a41fde6937c56241c09ab9d3c7064a1a99190a46001805580f35b60020180549068010000000000000000821015611ae8577f4174a9435a04d04d274c76779cad136a41fde6937c56241c09ab9d3c7064a1a9969798999a5090611aad916001820181556120f0565b819291549060031b918a831b921b1916179055848852600783528088208789528352808820600160ff19825416179055879695949389611a2e565b60248a60418d634e487b7160e01b835252fd5b611b4a575b5050508251611b0e81611e22565b848152826001878301928b8452898d52600389528c8b88822091528952868d2090518155019151166001600160a01b03198254161790556119f0565b6108e2611b569361208e565b8a8080611b00565b508b86600186015416146119da565b60648c8887519162461bcd60e51b8352820152600f60248201527f5472616e73666572206661696c656400000000000000000000000000000000006044820152fd5b611bc69150883d8a11610be457610bd68183611e84565b8d6119b5565b86513d8e823e3d90fd5b60648860208b519162461bcd60e51b8352820152600d60248201527f496e76616c696420746f6b656e000000000000000000000000000000000000006044820152fd5b828434610470576020806003193601126104c3576001600160a01b039283611c3f611cc1565b1683526006825280832093845493611c596002870161246f565b95611c6487516123a9565b946001939184019183855b611c83575b8651806111168a8d8d84611d40565b8951811015611cbc578082611c9b611cb6938d6123ea565b5116865284845287862054611cb0828b6123ea565b526123db565b85611c6f565b611c74565b600435906001600160a01b0382168203610c6057565b602435906001600160a01b0382168203610c6057565b604435906001600160a01b0382168203610c6057565b90815180825260208080930193019160005b828110611d23575050505090565b83516001600160a01b031685529381019392810192600101611d15565b908152611d596020926060848401526060830190611d03565b90604081830391015281808451928381520193019160005b828110611d7f575050505090565b835185529381019392810192600101611d71565b6001600160a01b03600054163303611da757565b60246040517f118cdaa7000000000000000000000000000000000000000000000000000000008152336004820152fd5b15611dde57565b606460405162461bcd60e51b815260206004820152601960248201527f496e76616c6964206f66666572696e6720636f6e7472616374000000000000006044820152fd5b6040810190811067ffffffffffffffff821117611e3e57604052565b634e487b7160e01b600052604160045260246000fd5b6060810190811067ffffffffffffffff821117611e3e57604052565b67ffffffffffffffff8111611e3e57604052565b90601f8019910116810190811067ffffffffffffffff821117611e3e57604052565b15611ead57565b608460405162461bcd60e51b815260206004820152602260248201527f4f6e6c79206f66666572696e6720636f6e74726163742063616e206465706f7360448201527f69740000000000000000000000000000000000000000000000000000000000006064820152fd5b15611f1e57565b606460405162461bcd60e51b815260206004820152600e60248201527f496e76616c696420616d6f756e740000000000000000000000000000000000006044820152fd5b15611f6957565b606460405162461bcd60e51b815260206004820152601760248201527f526566756e647320616c726561647920656e61626c65640000000000000000006044820152fd5b15611fb457565b606460405162461bcd60e51b815260206004820152601860248201527f496e76616c696420696e766573746f72206164647265737300000000000000006044820152fd5b15611fff57565b606460405162461bcd60e51b815260206004820152601760248201527f4f66666572696e67206e6f7420726567697374657265640000000000000000006044820152fd5b1561204a57565b606460405162461bcd60e51b815260206004820152601a60248201527f4f66666572696e6720616c72656164792066696e616c697a65640000000000006044820152fd5b9060405161209b81611e22565b60206001600160a01b036001839580548552015416910152565b919082018092116120c257565b634e487b7160e01b600052601160045260246000fd5b90816020910312610c6057518015158103610c605790565b80548210156121085760005260206000200190600090565b634e487b7160e01b600052603260045260246000fd5b60026001541461212f576002600155565b60046040517f3ee5aeb5000000000000000000000000000000000000000000000000000000008152fd5b919082039182116120c257565b1561216d57565b606460405162461bcd60e51b815260206004820152601c60248201527f546f6b656e20726566756e64207472616e73666572206661696c6564000000006044820152fd5b3d156121ec573d9067ffffffffffffffff8211611e3e57604051916121e0601f8201601f191660200184611e84565b82523d6000602084013e565b606090565b156121f857565b606460405162461bcd60e51b815260206004820152601a60248201527f45544820726566756e64207472616e73666572206661696c65640000000000006044820152fd5b9060208084016001600160a01b039081815116156000146122c3579080807fb7c482f0c0b7ad56e2c7004be448a8ead98a8bbe84675fd80b273563099f856094936122b18951600090848b1682526006885261229d60408320918254612159565b90558080808d51878d165af1610e2f6121b1565b511696519460405195865216941692a4565b60008286168152600684526040812060018851918585511684520185526122ef60408320918254612159565b90558151875160405163a9059cbb60e01b81526001600160a01b0388166004820152602481019190915290859082906044908290869089165af191821561238557926123698594938594937fb7c482f0c0b7ad56e2c7004be448a8ead98a8bbe84675fd80b273563099f85609897949161236e5750612166565b6122b1565b610ed59150873d8911610be457610bd68183611e84565b604051903d90823e3d90fd5b67ffffffffffffffff8111611e3e5760051b60200190565b906123b382612391565b6123c06040519182611e84565b82815280926123d1601f1991612391565b0190602036910137565b60001981146120c25760010190565b80518210156121085760209160051b010190565b1561240557565b608460405162461bcd60e51b815260206004820152602a60248201527f43616e6e6f7420656e61626c6520726566756e6473202d206f66666572696e6760448201527f2066696e616c697a6564000000000000000000000000000000000000000000006064820152fd5b9060405191828154918282526020928383019160005283600020936000905b8282106124a6575050506124a492500383611e84565b565b85546001600160a01b03168452600195860195889550938101939091019061248e56fea164736f6c6343000814000a",
  "linkReferences": {},
  "deployedLinkReferences": {}
}