{
  "_format": "hh-sol-artifact-1",
  "contractName": "Escrow",
  "sourceName": "contracts/Escrow.sol",
  "abi": [
    {
      "inputs": [
        {
          "components": [
            {
              "internalType": "address",
              "name": "owner",
              "type": "address"
            }
          ],
          "internalType": "struct EscrowConfig",
          "name": "config",
          "type": "tuple"
        }
      ],
      "stateMutability": "nonpayable",
      "type": "constructor"
    },
    {
      "inputs": [
        {
          "internalType": "address",
          "name": "owner",
          "type": "address"
        }
      ],
      "name": "OwnableInvalidOwner",
      "type": "error"
    },
    {
      "inputs": [
        {
          "internalType": "address",
          "name": "account",
          "type": "address"
        }
      ],
      "name": "OwnableUnauthorizedAccount",
      "type": "error"
    },
    {
      "inputs": [],
      "name": "ReentrancyGuardReentrantCall",
      "type": "error"
    },
    {
      "anonymous": false,
      "inputs": [
        {
          "indexed": true,
          "internalType": "address",
          "name": "offeringContract",
          "type": "address"
        },
        {
          "indexed": true,
          "internalType": "address",
          "name": "investor",
          "type": "address"
        },
        {
          "indexed": true,
          "internalType": "address",
          "name": "token",
          "type": "address"
        },
        {
          "indexed": false,
          "internalType": "uint256",
          "name": "amount",
          "type": "uint256"
        }
      ],
      "name": "Deposited",
      "type": "event"
    },
    {
      "anonymous": false,
      "inputs": [
        {
          "indexed": true,
          "internalType": "address",
          "name": "previousOwner",
          "type": "address"
        },
        {
          "indexed": true,
          "internalType": "address",
          "name": "newOwner",
          "type": "address"
        }
      ],
      "name": "OwnershipTransferred",
      "type": "event"
    },
    {
      "anonymous": false,
      "inputs": [
        {
          "indexed": true,
          "internalType": "address",
          "name": "offeringContract",
          "type": "address"
        },
        {
          "indexed": true,
          "internalType": "address",
          "name": "investor",
          "type": "address"
        },
        {
          "indexed": true,
          "internalType": "address",
          "name": "token",
          "type": "address"
        },
        {
          "indexed": false,
          "internalType": "uint256",
          "name": "amount",
          "type": "uint256"
        }
      ],
      "name": "Refunded",
      "type": "event"
    },
    {
      "anonymous": false,
      "inputs": [],
      "name": "RefundsEnabled",
      "type": "event"
    },
    {
      "anonymous": false,
      "inputs": [
        {
          "indexed": true,
          "internalType": "address",
          "name": "token",
          "type": "address"
        },
        {
          "indexed": false,
          "internalType": "uint256",
          "name": "amount",
          "type": "uint256"
        },
        {
          "indexed": true,
          "internalType": "address",
          "name": "to",
          "type": "address"
        }
      ],
      "name": "Withdrawn",
      "type": "event"
    },
    {
      "inputs": [
        {
          "internalType": "address",
          "name": "_offeringContract",
          "type": "address"
        },
        {
          "internalType": "address",
          "name": "_investor",
          "type": "address"
        }
      ],
      "name": "depositNative",
      "outputs": [],
      "stateMutability": "payable",
      "type": "function"
    },
    {
      "inputs": [
        {
          "internalType": "address",
          "name": "_offeringContract",
          "type": "address"
        },
        {
          "internalType": "address",
          "name": "_investor",
          "type": "address"
        },
        {
          "internalType": "address",
          "name": "tokenAddr",
          "type": "address"
        },
        {
          "internalType": "uint256",
          "name": "amount",
          "type": "uint256"
        }
      ],
      "name": "depositToken",
      "outputs": [],
      "stateMutability": "nonpayable",
      "type": "function"
    },
    {
      "inputs": [
        {
          "internalType": "address",
          "name": "",
          "type": "address"
        },
        {
          "internalType": "address",
          "name": "",
          "type": "address"
        }
      ],
      "name": "deposits",
      "outputs": [
        {
          "internalType": "uint256",
          "name": "amount",
          "type": "uint256"
        },
        {
          "internalType": "address",
          "name": "token",
          "type": "address"
        }
      ],
      "stateMutability": "view",
      "type": "function"
    },
    {
      "inputs": [],
      "name": "enableRefunds",
      "outputs": [],
      "stateMutability": "nonpayable",
      "type": "function"
    },
    {
      "inputs": [],
      "name": "owner",
      "outputs": [
        {
          "internalType": "address",
          "name": "",
          "type": "address"
        }
      ],
      "stateMutability": "view",
      "type": "function"
    },
    {
      "inputs": [
        {
          "internalType": "address",
          "name": "_offeringContract",
          "type": "address"
        },
        {
          "internalType": "address",
          "name": "_investor",
          "type": "address"
        }
      ],
      "name": "refund",
      "outputs": [],
      "stateMutability": "nonpayable",
      "type": "function"
    },
    {
      "inputs": [],
      "name": "refundsEnabled",
      "outputs": [
        {
          "internalType": "bool",
          "name": "",
          "type": "bool"
        }
      ],
      "stateMutability": "view",
      "type": "function"
    },
    {
      "inputs": [],
      "name": "renounceOwnership",
      "outputs": [],
      "stateMutability": "nonpayable",
      "type": "function"
    },
    {
      "inputs": [
        {
          "internalType": "address",
          "name": "newOwner",
          "type": "address"
        }
      ],
      "name": "transferOwnership",
      "outputs": [],
      "stateMutability": "nonpayable",
      "type": "function"
    },
    {
      "inputs": [
        {
          "internalType": "address",
          "name": "tokenAddr",
          "type": "address"
        },
        {
          "internalType": "uint256",
          "name": "amount",
          "type": "uint256"
        },
        {
          "internalType": "address",
          "name": "to",
          "type": "address"
        }
      ],
      "name": "withdraw",
      "outputs": [],
      "stateMutability": "nonpayable",
      "type": "function"
    }
  ],
  "bytecode": "0x60803461011857601f610fd238819003918201601f19168301926001600160401b039290918385118386101761011d57816020928492604097885283398101031261011857825191602083019081118382101761011d578352516001600160a01b03808216929091838103610118578152821561010057600080546001600160a01b031981168517825585519491908416907f8be0079c531659141344cd1fd0a4f28419497f9722a3daafe3b4186f6b6457e09080a3600180555116156100ce575051610e9e90816101348239f35b62461bcd60e51b815260206004820152600d60248201526c24b73b30b634b21037bbb732b960991b6044820152606490fd5b8351631e4fbdf760e01b815260006004820152602490fd5b600080fd5b634e487b7160e01b600052604160045260246000fdfe6040608081526004908136101561001557600080fd5b600091823560e01c80630ef7c5a714610966578063532f1179146109425780635e30b8a61461065657806369328dec1461033557838163701bb8911461025d57508063715018a6146102045780638c52dc41146101b75780638da5cb5b1461018d5780638f601f66146101335763f2fde38b1461009157600080fd5b3461012f57602036600319011261012f576100aa610b69565b906100b3610bb0565b6001600160a01b038092169283156101005750508254826001600160a01b03198216178455167f8be0079c531659141344cd1fd0a4f28419497f9722a3daafe3b4186f6b6457e08380a380f35b908460249251917f1e4fbdf7000000000000000000000000000000000000000000000000000000008352820152fd5b8280fd5b82843461018a578160031936011261018a578161014e610b69565b91610157610b84565b6001600160a01b038094168252600360205283838320911682526020522090600182549201541682519182526020820152f35b80fd5b5050346101b357816003193601126101b3576001600160a01b0360209254169051908152f35b5080fd5b833461018a578060031936011261018a576101d0610bb0565b600160ff1960025416176002557f599d8e5a83cffb867d051598c4d70e805d59802d8081c1c7d6dffc5b6aca2b898180a180f35b833461018a578060031936011261018a5761021d610bb0565b806001600160a01b0381546001600160a01b031981168355167f8be0079c531659141344cd1fd0a4f28419497f9722a3daafe3b4186f6b6457e08280a380f35b80848060031936011261033257610272610b69565b907f4174a9435a04d04d274c76779cad136a41fde6937c56241c09ab9d3c7064a1a9602061029e610b84565b926001600160a01b0380809616946102b7863314610bf4565b6102c2341515610c65565b6102d160ff6002541615610cb0565b6102dc861515610cfb565b16946102e9861515610d46565b8151906102f582610d91565b348252600184830192898452878a5260038652848a20898b528652848a2090518155019151166001600160a01b031982541617905551348152a480f35b50fd5b50903461012f57606036600319011261012f57610350610b69565b9160249182359161035f610b9a565b93610368610bb0565b610370610e16565b6001600160a01b038086169687156106145716948561045d575083471061041c5786808080878a5af16103a1610e51565b50156103db5750507fcbcdbdf10631a43cc99c80acace8232649421c3f4f73919f16013d47c83a687a916020915b51908152a36001805580f35b6013906020606494519362461bcd60e51b85528401528201527f455448207769746864726177206661696c6564000000000000000000000000006044820152fd5b6010906020606494519362461bcd60e51b85528401528201527f496e73756666696369656e7420455448000000000000000000000000000000006044820152fd5b8351907f70a082310000000000000000000000000000000000000000000000000000000082523084830152602091828185818b5afa90811561060a579087918b916105d5575b501061059457845163a9059cbb60e01b81526001600160a01b039091168482019081526020810187905282908290819060400103818c8b5af190811561058a57899161055d575b501561051d575050507fcbcdbdf10631a43cc99c80acace8232649421c3f4f73919f16013d47c83a687a916020916103cf565b90601591606494519362461bcd60e51b85528401528201527f546f6b656e207769746864726177206661696c656400000000000000000000006044820152fd5b61057d9150823d8411610583575b6105758183610ddc565b810190610dfe565b386104ea565b503d61056b565b85513d8b823e3d90fd5b5090601391606494519362461bcd60e51b85528401528201527f496e73756666696369656e7420746f6b656e73000000000000000000000000006044820152fd5b809250848092503d8311610603575b6105ee8183610ddc565b810103126105ff57869051386104a3565b8980fd5b503d6105e4565b86513d8c823e3d90fd5b606484601185602089519362461bcd60e51b85528401528201527f496e76616c696420726563697069656e740000000000000000000000000000006044820152fd5b50903461012f578060031936011261012f57610670610b69565b90610679610b84565b92610682610bb0565b61068a610e16565b60ff6002541615610900576001600160a01b03809316916106ac831515610cfb565b838516936106bb851515610d46565b838752602092600384528288208689528452828820908351976106dd89610d91565b836001845494858c5201541692868a01938452156108be5789846001875161070481610d91565b838152888a8201948086528c815260038c528d8282209082528c522090518155019151166001600160a01b031982541617905585848451169182156000146107da57505050888080808b518b5af161075a610e51565b50156107985750907fb7c482f0c0b7ad56e2c7004be448a8ead98a8bbe84675fd80b273563099f85609392915b511695519051908152a46001805580f35b6064908585519162461bcd60e51b8352820152601160248201527f45544820726566756e64206661696c65640000000000000000000000000000006044820152fd5b610812928b51918d895180968195829463a9059cbb60e01b84528a8401602090939291936001600160a01b0360408201951681520152565b03925af19081156108b4578a91610897575b50156108555750907fb7c482f0c0b7ad56e2c7004be448a8ead98a8bbe84675fd80b273563099f8560939291610787565b6064908585519162461bcd60e51b8352820152601360248201527f546f6b656e20726566756e64206661696c6564000000000000000000000000006044820152fd5b6108ae9150863d8811610583576105758183610ddc565b38610824565b85513d8c823e3d90fd5b6064828787519162461bcd60e51b8352820152601160248201527f4e6f7468696e6720746f20726566756e640000000000000000000000000000006044820152fd5b6020606492519162461bcd60e51b8352820152601360248201527f526566756e6473206e6f7420656e61626c6564000000000000000000000000006044820152fd5b5050346101b357816003193601126101b35760209060ff6002541690519015158152f35b50903461012f57608036600319011261012f57610981610b69565b9061098a610b84565b92610993610b9a565b91606435906109a0610e16565b6001600160a01b0380809616946109b8863314610bf4565b16958615610b265785906109cd841515610c65565b6109dc60ff6002541615610cb0565b6109e7861515610cfb565b16946109f4861515610d46565b8151937f23b872dd000000000000000000000000000000000000000000000000000000008552858186015230602486015283604486015260209485816064818d8d5af1908115610b1c578a91610aff575b5015610abd575081517f4174a9435a04d04d274c76779cad136a41fde6937c56241c09ab9d3c7064a1a994939291610a7c82610d91565b8382526001858301928a8452888c5260038752848c208a8d528752848c2090518155019151166001600160a01b031982541617905551908152a46001805580f35b6064908584519162461bcd60e51b8352820152600f60248201527f5472616e73666572206661696c656400000000000000000000000000000000006044820152fd5b610b169150863d8811610583576105758183610ddc565b38610a45565b84513d8c823e3d90fd5b606484602084519162461bcd60e51b8352820152600d60248201527f496e76616c696420746f6b656e000000000000000000000000000000000000006044820152fd5b600435906001600160a01b0382168203610b7f57565b600080fd5b602435906001600160a01b0382168203610b7f57565b604435906001600160a01b0382168203610b7f57565b6001600160a01b03600054163303610bc457565b60246040517f118cdaa7000000000000000000000000000000000000000000000000000000008152336004820152fd5b15610bfb57565b608460405162461bcd60e51b815260206004820152602260248201527f4f6e6c79206f66666572696e6720636f6e74726163742063616e206465706f7360448201527f69740000000000000000000000000000000000000000000000000000000000006064820152fd5b15610c6c57565b606460405162461bcd60e51b815260206004820152600e60248201527f496e76616c696420616d6f756e740000000000000000000000000000000000006044820152fd5b15610cb757565b606460405162461bcd60e51b815260206004820152601760248201527f526566756e647320616c726561647920656e61626c65640000000000000000006044820152fd5b15610d0257565b606460405162461bcd60e51b815260206004820152601960248201527f496e76616c6964206f66666572696e6720636f6e7472616374000000000000006044820152fd5b15610d4d57565b606460405162461bcd60e51b815260206004820152601860248201527f496e76616c696420696e766573746f72206164647265737300000000000000006044820152fd5b6040810190811067ffffffffffffffff821117610dad57604052565b7f4e487b7100000000000000000000000000000000000000000000000000000000600052604160045260246000fd5b90601f8019910116810190811067ffffffffffffffff821117610dad57604052565b90816020910312610b7f57518015158103610b7f5790565b600260015414610e27576002600155565b60046040517f3ee5aeb5000000000000000000000000000000000000000000000000000000008152fd5b3d15610e8c573d9067ffffffffffffffff8211610dad5760405191610e80601f8201601f191660200184610ddc565b82523d6000602084013e565b60609056fea164736f6c6343000814000a",
  "linkReferences": {},
  "deployedLinkReferences": {}
}