{
  "_format": "hh-sol-artifact-1",
  "contractName": "Escrow",
  "sourceName": "contracts/Escrow.sol",
  "abi": [
    {
      "inputs": [
        {
          "internalType": "address",
          "name": "_owner",
          "type": "address"
        }
      ],
      "stateMutability": "nonpayable",
      "type": "constructor"
    },
    {
      "inputs": [
        {
          "internalType": "address",
          "name": "owner",
          "type": "address"
        }
      ],
      "name": "OwnableInvalidOwner",
      "type": "error"
    },
    {
      "inputs": [
        {
          "internalType": "address",
          "name": "account",
          "type": "address"
        }
      ],
      "name": "OwnableUnauthorizedAccount",
      "type": "error"
    },
    {
      "inputs": [],
      "name": "ReentrancyGuardReentrantCall",
      "type": "error"
    },
    {
      "anonymous": false,
      "inputs": [
        {
          "indexed": true,
          "internalType": "address",
          "name": "offeringContract",
          "type": "address"
        },
        {
          "indexed": true,
          "internalType": "address",
          "name": "investor",
          "type": "address"
        },
        {
          "indexed": true,
          "internalType": "address",
          "name": "token",
          "type": "address"
        },
        {
          "indexed": false,
          "internalType": "uint256",
          "name": "amount",
          "type": "uint256"
        }
      ],
      "name": "Deposited",
      "type": "event"
    },
    {
      "anonymous": false,
      "inputs": [
        {
          "indexed": true,
          "internalType": "address",
          "name": "previousOwner",
          "type": "address"
        },
        {
          "indexed": true,
          "internalType": "address",
          "name": "newOwner",
          "type": "address"
        }
      ],
      "name": "OwnershipTransferred",
      "type": "event"
    },
    {
      "anonymous": false,
      "inputs": [
        {
          "indexed": true,
          "internalType": "address",
          "name": "offeringContract",
          "type": "address"
        },
        {
          "indexed": true,
          "internalType": "address",
          "name": "investor",
          "type": "address"
        },
        {
          "indexed": true,
          "internalType": "address",
          "name": "token",
          "type": "address"
        },
        {
          "indexed": false,
          "internalType": "uint256",
          "name": "amount",
          "type": "uint256"
        }
      ],
      "name": "Refunded",
      "type": "event"
    },
    {
      "anonymous": false,
      "inputs": [],
      "name": "RefundsEnabled",
      "type": "event"
    },
    {
      "anonymous": false,
      "inputs": [
        {
          "indexed": true,
          "internalType": "address",
          "name": "token",
          "type": "address"
        },
        {
          "indexed": false,
          "internalType": "uint256",
          "name": "amount",
          "type": "uint256"
        },
        {
          "indexed": true,
          "internalType": "address",
          "name": "to",
          "type": "address"
        }
      ],
      "name": "Withdrawn",
      "type": "event"
    },
    {
      "inputs": [
        {
          "internalType": "address",
          "name": "_offeringContract",
          "type": "address"
        }
      ],
      "name": "depositNative",
      "outputs": [],
      "stateMutability": "payable",
      "type": "function"
    },
    {
      "inputs": [
        {
          "internalType": "address",
          "name": "_offeringContract",
          "type": "address"
        },
        {
          "internalType": "address",
          "name": "tokenAddr",
          "type": "address"
        },
        {
          "internalType": "uint256",
          "name": "amount",
          "type": "uint256"
        }
      ],
      "name": "depositToken",
      "outputs": [],
      "stateMutability": "nonpayable",
      "type": "function"
    },
    {
      "inputs": [
        {
          "internalType": "address",
          "name": "",
          "type": "address"
        },
        {
          "internalType": "address",
          "name": "",
          "type": "address"
        }
      ],
      "name": "deposits",
      "outputs": [
        {
          "internalType": "uint256",
          "name": "amount",
          "type": "uint256"
        },
        {
          "internalType": "address",
          "name": "token",
          "type": "address"
        }
      ],
      "stateMutability": "view",
      "type": "function"
    },
    {
      "inputs": [],
      "name": "enableRefunds",
      "outputs": [],
      "stateMutability": "nonpayable",
      "type": "function"
    },
    {
      "inputs": [],
      "name": "owner",
      "outputs": [
        {
          "internalType": "address",
          "name": "",
          "type": "address"
        }
      ],
      "stateMutability": "view",
      "type": "function"
    },
    {
      "inputs": [
        {
          "internalType": "address",
          "name": "_offeringContract",
          "type": "address"
        }
      ],
      "name": "refund",
      "outputs": [],
      "stateMutability": "nonpayable",
      "type": "function"
    },
    {
      "inputs": [],
      "name": "refundsEnabled",
      "outputs": [
        {
          "internalType": "bool",
          "name": "",
          "type": "bool"
        }
      ],
      "stateMutability": "view",
      "type": "function"
    },
    {
      "inputs": [],
      "name": "renounceOwnership",
      "outputs": [],
      "stateMutability": "nonpayable",
      "type": "function"
    },
    {
      "inputs": [
        {
          "internalType": "address",
          "name": "newOwner",
          "type": "address"
        }
      ],
      "name": "transferOwnership",
      "outputs": [],
      "stateMutability": "nonpayable",
      "type": "function"
    },
    {
      "inputs": [
        {
          "internalType": "address",
          "name": "tokenAddr",
          "type": "address"
        },
        {
          "internalType": "uint256",
          "name": "amount",
          "type": "uint256"
        },
        {
          "internalType": "address",
          "name": "to",
          "type": "address"
        }
      ],
      "name": "withdraw",
      "outputs": [],
      "stateMutability": "nonpayable",
      "type": "function"
    }
  ],
  "bytecode": "0x6080346100bc57601f610d2f38819003918201601f19168301916001600160401b038311848410176100c1578084926020946040528339810103126100bc57516001600160a01b03808216918290036100bc5781156100a3576000548260018060a01b0319821617600055167f8be0079c531659141344cd1fd0a4f28419497f9722a3daafe3b4186f6b6457e0600080a360018055604051610c5790816100d88239f35b604051631e4fbdf760e01b815260006004820152602490fd5b600080fd5b634e487b7160e01b600052604160045260246000fdfe60406080815260048036101561001457600080fd5b600091823560e01c83816333bb7f91146108e657508063532f1179146108c257806369328dec1461062f578063715018a6146105e75780638c52dc411461059a5780638da5cb5b1461056e5780638f601f6614610515578063f2fde38b146104a0578063fa89401a1461023b5763fb0f97a81461009057600080fd5b34610237576060366003190112610237576100a9610990565b916100b26109ab565b90604435926100bf610b24565b6001600160a01b039283169485156102045783906100de8615156109ed565b6100ed60ff6002541615610a2a565b16926100fa841515610a70565b8151926323b872dd60e01b8452848185015230602485015285604485015260209384816064818c8c5af19081156101fa5789916101cd575b501561019857508151600080516020610bc283398151915293929161015682610ab8565b868252600184830192898452878b5260038652848b20338c528652848b20905181550191511660018060a01b0319825416179055519384523393a46001805580f35b825162461bcd60e51b8152908101849052600f60248201526e151c985b9cd9995c8819985a5b1959608a1b6044820152606490fd5b6101ed9150853d87116101f3575b6101e58183610ae9565b810190610b0c565b38610132565b503d6101db565b84513d8b823e3d90fd5b815162461bcd60e51b8152602081850152600d60248201526c24b73b30b634b2103a37b5b2b760991b6044820152606490fd5b8280fd5b50346102375760208060031936011261049c57610256610990565b9061025f610b24565b60ff6002541615610464576001600160a01b0391821691610281831515610a70565b82865260038252838620338752825283862084519561029f87610ab8565b826001835493848a52015416918488019283521561042d5785516102c281610ab8565b888152836001868301928b8452888c5260038852898c20338d528852898c20905181550191511660018060a01b0319825416179055878484845116801560001461037c5750508080808a51335af1610318610b62565b5015610345575090600080516020610ba283398151915292915b5116945193519384523393a46001805580f35b855162461bcd60e51b81529081018490526011602482015270115512081c99599d5b990819985a5b1959607a1b6044820152606490fd5b61039d908a518a5194858094819363a9059cbb60e01b8352338a8401610b47565b03925af1908115610423578991610406575b50156103cd575090600080516020610ba28339815191529291610332565b855162461bcd60e51b81529081018490526013602482015272151bdad95b881c99599d5b990819985a5b1959606a1b6044820152606490fd5b61041d9150853d87116101f3576101e58183610ae9565b386103af565b87513d8b823e3d90fd5b855162461bcd60e51b81529081018490526011602482015270139bdd1a1a5b99c81d1bc81c99599d5b99607a1b6044820152606490fd5b8360649184519162461bcd60e51b835282015260136024820152721499599d5b991cc81b9bdd08195b98589b1959606a1b6044820152fd5b8380fd5b509034610237576020366003190112610237576104bb610990565b906104c46109c1565b6001600160a01b039182169283156104ff57505082546001600160a01b031981168317845516600080516020610be28339815191528380a380f35b51631e4fbdf760e01b8152908101849052602490fd5b50823461056b578160031936011261056b5781610530610990565b916105396109ab565b60018060a01b038094168252600360205283838320911682526020522090600182549201541682519182526020820152f35b80fd5b838234610596578160031936011261059657905490516001600160a01b039091168152602090f35b5080fd5b833461056b578060031936011261056b576105b36109c1565b600160ff1960025416176002557f599d8e5a83cffb867d051598c4d70e805d59802d8081c1c7d6dffc5b6aca2b898180a180f35b833461056b578060031936011261056b576106006109c1565b80546001600160a01b03198116825581906001600160a01b0316600080516020610be28339815191528280a380f35b503461023757606036600319011261023757610649610990565b91602491823591604480359460018060a01b03808716978888036108be5761066f6109c1565b610677610b24565b88156108895716958661072e57508447106106fb5787808080888b5af161069c610b62565b50156106c557505050600080516020610c02833981519152916020915b51908152a36001805580f35b90601372115512081dda5d1a191c985dc819985a5b1959606a1b926020606496519562461bcd60e51b8752860152840152820152fd5b9060106f092dce6eaccccd2c6d2cadce8408aa8960831b926020606496519562461bcd60e51b8752860152840152820152fd5b84516370a0823160e01b8152308582015260209190828185818c5afa90811561087f579088918c9161084a575b5010610814578187610780928851938492839263a9059cbb60e01b84528a8401610b47565b03818d8c5af190811561080a578a916107ed575b50156107b65750505050600080516020610c02833981519152916020916106b9565b74151bdad95b881dda5d1a191c985dc819985a5b1959605a1b9291601591606496519562461bcd60e51b8752860152840152820152fd5b6108049150823d84116101f3576101e58183610ae9565b38610794565b86513d8c823e3d90fd5b5072496e73756666696369656e7420746f6b656e7360681b9291601391606496519562461bcd60e51b8752860152840152820152fd5b809250848092503d8311610878575b6108638183610ae9565b81010312610874578790513861075b565b8a80fd5b503d610859565b87513d8d823e3d90fd5b855162461bcd60e51b815260208187015260118185015270125b9d985b1a59081c9958da5c1a595b9d607a1b81860152606490fd5b8980fd5b83823461059657816003193601126105965760209060ff6002541690519015158152f35b8083602036600319011261098d576108fc610990565b906109083415156109ed565b61091760ff6002541615610a2a565b6001600160a01b039182169161092e831515610a70565b81519061093a82610ab8565b348252600160208301928684528587526003602052848720338852602052848720905181550191511660018060a01b03198254161790555190348252600080516020610bc283398151915260203393a480f35b50fd5b600435906001600160a01b03821682036109a657565b600080fd5b602435906001600160a01b03821682036109a657565b6000546001600160a01b031633036109d557565b60405163118cdaa760e01b8152336004820152602490fd5b156109f457565b60405162461bcd60e51b815260206004820152600e60248201526d125b9d985b1a5908185b5bdd5b9d60921b6044820152606490fd5b15610a3157565b60405162461bcd60e51b81526020600482015260176024820152761499599d5b991cc8185b1c9958591e48195b98589b1959604a1b6044820152606490fd5b15610a7757565b60405162461bcd60e51b8152602060048201526019602482015278125b9d985b1a59081bd999995c9a5b99c818dbdb9d1c9858dd603a1b6044820152606490fd5b604081019081106001600160401b03821117610ad357604052565b634e487b7160e01b600052604160045260246000fd5b601f909101601f19168101906001600160401b03821190821017610ad357604052565b908160209103126109a6575180151581036109a65790565b600260015414610b35576002600155565b604051633ee5aeb560e01b8152600490fd5b6001600160a01b039091168152602081019190915260400190565b3d15610b9c573d906001600160401b038211610ad35760405191610b90601f8201601f191660200184610ae9565b82523d6000602084013e565b60609056feb7c482f0c0b7ad56e2c7004be448a8ead98a8bbe84675fd80b273563099f85604174a9435a04d04d274c76779cad136a41fde6937c56241c09ab9d3c7064a1a98be0079c531659141344cd1fd0a4f28419497f9722a3daafe3b4186f6b6457e0cbcdbdf10631a43cc99c80acace8232649421c3f4f73919f16013d47c83a687aa264697066735822122016bff1c9064d6492c61295c999a80d1dc4c4a67bb8afd90664bb0fc60f60745164736f6c63430008140033",
  "linkReferences": {},
  "deployedLinkReferences": {}
}