{
  "_format": "hh-sol-artifact-1",
  "contractName": "Escrow",
  "sourceName": "contracts/Escrow.sol",
  "abi": [
    {
      "inputs": [
        {
          "components": [
            {
              "internalType": "address",
              "name": "owner",
              "type": "address"
            }
          ],
          "internalType": "struct EscrowConfig",
          "name": "config",
          "type": "tuple"
        }
      ],
      "stateMutability": "nonpayable",
      "type": "constructor"
    },
    {
      "inputs": [
        {
          "internalType": "address",
          "name": "owner",
          "type": "address"
        }
      ],
      "name": "OwnableInvalidOwner",
      "type": "error"
    },
    {
      "inputs": [
        {
          "internalType": "address",
          "name": "account",
          "type": "address"
        }
      ],
      "name": "OwnableUnauthorizedAccount",
      "type": "error"
    },
    {
      "inputs": [],
      "name": "ReentrancyGuardReentrantCall",
      "type": "error"
    },
    {
      "anonymous": false,
      "inputs": [
        {
          "indexed": true,
          "internalType": "address",
          "name": "offeringContract",
          "type": "address"
        },
        {
          "indexed": true,
          "internalType": "address",
          "name": "investor",
          "type": "address"
        },
        {
          "indexed": true,
          "internalType": "address",
          "name": "token",
          "type": "address"
        },
        {
          "indexed": false,
          "internalType": "uint256",
          "name": "amount",
          "type": "uint256"
        }
      ],
      "name": "Deposited",
      "type": "event"
    },
    {
      "anonymous": false,
      "inputs": [
        {
          "indexed": true,
          "internalType": "address",
          "name": "previousOwner",
          "type": "address"
        },
        {
          "indexed": true,
          "internalType": "address",
          "name": "newOwner",
          "type": "address"
        }
      ],
      "name": "OwnershipTransferred",
      "type": "event"
    },
    {
      "anonymous": false,
      "inputs": [
        {
          "indexed": true,
          "internalType": "address",
          "name": "offeringContract",
          "type": "address"
        },
        {
          "indexed": true,
          "internalType": "address",
          "name": "investor",
          "type": "address"
        },
        {
          "indexed": true,
          "internalType": "address",
          "name": "token",
          "type": "address"
        },
        {
          "indexed": false,
          "internalType": "uint256",
          "name": "amount",
          "type": "uint256"
        }
      ],
      "name": "Refunded",
      "type": "event"
    },
    {
      "anonymous": false,
      "inputs": [],
      "name": "RefundsEnabled",
      "type": "event"
    },
    {
      "anonymous": false,
      "inputs": [
        {
          "indexed": true,
          "internalType": "address",
          "name": "token",
          "type": "address"
        },
        {
          "indexed": false,
          "internalType": "uint256",
          "name": "amount",
          "type": "uint256"
        },
        {
          "indexed": true,
          "internalType": "address",
          "name": "to",
          "type": "address"
        }
      ],
      "name": "Withdrawn",
      "type": "event"
    },
    {
      "inputs": [
        {
          "internalType": "address",
          "name": "_offeringContract",
          "type": "address"
        },
        {
          "internalType": "address",
          "name": "_investor",
          "type": "address"
        }
      ],
      "name": "depositNative",
      "outputs": [],
      "stateMutability": "payable",
      "type": "function"
    },
    {
      "inputs": [
        {
          "internalType": "address",
          "name": "_offeringContract",
          "type": "address"
        },
        {
          "internalType": "address",
          "name": "_investor",
          "type": "address"
        },
        {
          "internalType": "address",
          "name": "tokenAddr",
          "type": "address"
        },
        {
          "internalType": "uint256",
          "name": "amount",
          "type": "uint256"
        }
      ],
      "name": "depositToken",
      "outputs": [],
      "stateMutability": "nonpayable",
      "type": "function"
    },
    {
      "inputs": [
        {
          "internalType": "address",
          "name": "",
          "type": "address"
        },
        {
          "internalType": "address",
          "name": "",
          "type": "address"
        }
      ],
      "name": "deposits",
      "outputs": [
        {
          "internalType": "uint256",
          "name": "amount",
          "type": "uint256"
        },
        {
          "internalType": "address",
          "name": "token",
          "type": "address"
        }
      ],
      "stateMutability": "view",
      "type": "function"
    },
    {
      "inputs": [],
      "name": "enableRefunds",
      "outputs": [],
      "stateMutability": "nonpayable",
      "type": "function"
    },
    {
      "inputs": [],
      "name": "owner",
      "outputs": [
        {
          "internalType": "address",
          "name": "",
          "type": "address"
        }
      ],
      "stateMutability": "view",
      "type": "function"
    },
    {
      "inputs": [
        {
          "internalType": "address",
          "name": "_offeringContract",
          "type": "address"
        },
        {
          "internalType": "address",
          "name": "_investor",
          "type": "address"
        }
      ],
      "name": "refund",
      "outputs": [],
      "stateMutability": "nonpayable",
      "type": "function"
    },
    {
      "inputs": [],
      "name": "refundsEnabled",
      "outputs": [
        {
          "internalType": "bool",
          "name": "",
          "type": "bool"
        }
      ],
      "stateMutability": "view",
      "type": "function"
    },
    {
      "inputs": [],
      "name": "renounceOwnership",
      "outputs": [],
      "stateMutability": "nonpayable",
      "type": "function"
    },
    {
      "inputs": [
        {
          "internalType": "address",
          "name": "newOwner",
          "type": "address"
        }
      ],
      "name": "transferOwnership",
      "outputs": [],
      "stateMutability": "nonpayable",
      "type": "function"
    },
    {
      "inputs": [
        {
          "internalType": "address",
          "name": "tokenAddr",
          "type": "address"
        },
        {
          "internalType": "uint256",
          "name": "amount",
          "type": "uint256"
        },
        {
          "internalType": "address",
          "name": "to",
          "type": "address"
        }
      ],
      "name": "withdraw",
      "outputs": [],
      "stateMutability": "nonpayable",
      "type": "function"
    }
  ],
  "bytecode": "0x60803461011857601f610ea638819003918201601f19168301926001600160401b039290918385118386101761011d57816020928492604097885283398101031261011857825191602083019081118382101761011d578352516001600160a01b03808216929091838103610118578152821561010057600080546001600160a01b031981168517825585519491908416907f8be0079c531659141344cd1fd0a4f28419497f9722a3daafe3b4186f6b6457e09080a3600180555116156100ce575051610d7290816101348239f35b62461bcd60e51b815260206004820152600d60248201526c24b73b30b634b21037bbb732b960991b6044820152606490fd5b8351631e4fbdf760e01b815260006004820152602490fd5b600080fd5b634e487b7160e01b600052604160045260246000fdfe6040608081526004908136101561001557600080fd5b600091823560e01c80630ef7c5a714610837578063532f1179146108135780635e30b8a61461058957806369328dec146102e857838163701bb8911461022257508063715018a6146101da5780638c52dc411461018d5780638da5cb5b146101615780638f601f66146101085763f2fde38b1461009157600080fd5b34610104576020366003190112610104576100aa6109f7565b906100b3610a3e565b6001600160a01b039182169283156100ee57505082546001600160a01b031981168317845516600080516020610cfd8339815191528380a380f35b51631e4fbdf760e01b8152908101849052602490fd5b8280fd5b82843461015e578160031936011261015e57816101236109f7565b9161012c610a12565b60018060a01b038094168252600360205283838320911682526020522090600182549201541682519182526020820152f35b80fd5b505034610189578160031936011261018957905490516001600160a01b039091168152602090f35b5080fd5b833461015e578060031936011261015e576101a6610a3e565b600160ff1960025416176002557f599d8e5a83cffb867d051598c4d70e805d59802d8081c1c7d6dffc5b6aca2b898180a180f35b833461015e578060031936011261015e576101f3610a3e565b80546001600160a01b03198116825581906001600160a01b0316600080516020610cfd8339815191528280a380f35b8084806003193601126102e5576102376109f7565b90600080516020610cdd8339815191526020610251610a12565b6001600160a01b039485169390859061026b338714610a6a565b610276341515610ac1565b61028560ff6002541615610afe565b610290861515610b44565b169461029d861515610b8c565b8151906102a982610bd3565b348252600184830192898452878a5260038652848a20898b528652848a20905181550191511660018060a01b031982541617905551348152a480f35b50fd5b509034610104576060366003190112610104576103036109f7565b91602491823591610312610a28565b9361031b610a3e565b610323610c3f565b6001600160a01b03858116968715610553571694856103e757508347106103b35786808080878a5af1610354610c7d565b501561037c575050600080516020610d1d833981519152916020915b51908152a36001805580f35b6013906020606494519362461bcd60e51b855284015282015272115512081dda5d1a191c985dc819985a5b1959606a1b6044820152fd5b6010906020606494519362461bcd60e51b85528401528201526f092dce6eaccccd2c6d2cadce8408aa8960831b6044820152fd5b83516370a0823160e01b8152308482015260209190828185818b5afa908115610549579087918b91610514575b50106104dd578186610439928751938492839263a9059cbb60e01b8452898401610c62565b03818c8b5af19081156104d35789916104a6575b501561046e57505050600080516020610d1d83398151915291602091610370565b90601591606494519362461bcd60e51b855284015282015274151bdad95b881dda5d1a191c985dc819985a5b1959605a1b6044820152fd5b6104c69150823d84116104cc575b6104be8183610c04565b810190610c27565b3861044d565b503d6104b4565b85513d8b823e3d90fd5b5090601391606494519362461bcd60e51b855284015282015272496e73756666696369656e7420746f6b656e7360681b6044820152fd5b809250848092503d8311610542575b61052d8183610c04565b8101031261053e5786905138610414565b8980fd5b503d610523565b86513d8c823e3d90fd5b845162461bcd60e51b815260208186015260118185015270125b9d985b1a59081c9958da5c1a595b9d607a1b6044820152606490fd5b5090346101045780600319360112610104576105a36109f7565b906105ac610a12565b926105b5610a3e565b6105bd610c3f565b60ff60025416156107db576001600160a01b03928316916105df831515610b44565b838516936105ee851515610b8c565b8387526020926003845282882086895284528288209083519761061089610bd3565b836001845494858c5201541692868a01938452156107a45789846001875161063781610bd3565b8381528981018481528b855260038b528985208d86528b5293899020905181559251920180546001600160a01b0319169190921617905582518416908690826106f157505050888080808b518b5af161068e610c7d565b50156106ba575090600080516020610cbd8339815191529392915b511695519051908152a46001805580f35b835162461bcd60e51b81529081018590526011602482015270115512081c99599d5b990819985a5b1959607a1b6044820152606490fd5b610713928b51918d895180968195829463a9059cbb60e01b84528a8401610c62565b03925af190811561079a578a9161077d575b5015610744575090600080516020610cbd8339815191529392916106a9565b835162461bcd60e51b81529081018590526013602482015272151bdad95b881c99599d5b990819985a5b1959606a1b6044820152606490fd5b6107949150863d88116104cc576104be8183610c04565b38610725565b85513d8c823e3d90fd5b845162461bcd60e51b81528083018790526011602482015270139bdd1a1a5b99c81d1bc81c99599d5b99607a1b6044820152606490fd5b6020606492519162461bcd60e51b835282015260136024820152721499599d5b991cc81b9bdd08195b98589b1959606a1b6044820152fd5b50503461018957816003193601126101895760209060ff6002541690519015158152f35b509034610104576080366003190112610104576108526109f7565b9061085b610a12565b92610864610a28565b9160643590610871610c3f565b6001600160a01b0394851693859061088a338714610a6a565b169586156109c457859061089f841515610ac1565b6108ae60ff6002541615610afe565b6108b9861515610b44565b16946108c6861515610b8c565b8151936323b872dd60e01b8552858186015230602486015283604486015260209485816064818d8d5af19081156109ba578a9161099d575b501561096857508151600080516020610cdd8339815191529493929161092382610bd3565b838252848201898152878b5260038652838b20898c528652838b20925183555160019290920180546001600160a01b0319169190921617905551908152a46001805580f35b825162461bcd60e51b8152908101859052600f60248201526e151c985b9cd9995c8819985a5b1959608a1b6044820152606490fd5b6109b49150863d88116104cc576104be8183610c04565b386108fe565b84513d8c823e3d90fd5b815162461bcd60e51b8152602081860152600d60248201526c24b73b30b634b2103a37b5b2b760991b6044820152606490fd5b600435906001600160a01b0382168203610a0d57565b600080fd5b602435906001600160a01b0382168203610a0d57565b604435906001600160a01b0382168203610a0d57565b6000546001600160a01b03163303610a5257565b60405163118cdaa760e01b8152336004820152602490fd5b15610a7157565b60405162461bcd60e51b815260206004820152602260248201527f4f6e6c79206f66666572696e6720636f6e74726163742063616e206465706f736044820152611a5d60f21b6064820152608490fd5b15610ac857565b60405162461bcd60e51b815260206004820152600e60248201526d125b9d985b1a5908185b5bdd5b9d60921b6044820152606490fd5b15610b0557565b60405162461bcd60e51b81526020600482015260176024820152761499599d5b991cc8185b1c9958591e48195b98589b1959604a1b6044820152606490fd5b15610b4b57565b60405162461bcd60e51b8152602060048201526019602482015278125b9d985b1a59081bd999995c9a5b99c818dbdb9d1c9858dd603a1b6044820152606490fd5b15610b9357565b60405162461bcd60e51b8152602060048201526018602482015277496e76616c696420696e766573746f72206164647265737360401b6044820152606490fd5b604081019081106001600160401b03821117610bee57604052565b634e487b7160e01b600052604160045260246000fd5b601f909101601f19168101906001600160401b03821190821017610bee57604052565b90816020910312610a0d57518015158103610a0d5790565b600260015414610c50576002600155565b604051633ee5aeb560e01b8152600490fd5b6001600160a01b039091168152602081019190915260400190565b3d15610cb7573d906001600160401b038211610bee5760405191610cab601f8201601f191660200184610c04565b82523d6000602084013e565b60609056feb7c482f0c0b7ad56e2c7004be448a8ead98a8bbe84675fd80b273563099f85604174a9435a04d04d274c76779cad136a41fde6937c56241c09ab9d3c7064a1a98be0079c531659141344cd1fd0a4f28419497f9722a3daafe3b4186f6b6457e0cbcdbdf10631a43cc99c80acace8232649421c3f4f73919f16013d47c83a687aa264697066735822122088ff976f420e3b371b4f5b0167f151bab05abfa37e1c0ee51d3925323aebfeac64736f6c63430008140033",
  "linkReferences": {},
  "deployedLinkReferences": {}
}