{
  "_format": "hh-sol-artifact-1",
  "contractName": "Escrow",
  "sourceName": "contracts/Escrow.sol",
  "abi": [
    {
      "inputs": [
        {
          "components": [
            {
              "internalType": "address",
              "name": "owner",
              "type": "address"
            }
          ],
          "internalType": "struct EscrowConfig",
          "name": "config",
          "type": "tuple"
        }
      ],
      "stateMutability": "nonpayable",
      "type": "constructor"
    },
    {
      "inputs": [
        {
          "internalType": "address",
          "name": "owner",
          "type": "address"
        }
      ],
      "name": "OwnableInvalidOwner",
      "type": "error"
    },
    {
      "inputs": [
        {
          "internalType": "address",
          "name": "account",
          "type": "address"
        }
      ],
      "name": "OwnableUnauthorizedAccount",
      "type": "error"
    },
    {
      "inputs": [],
      "name": "ReentrancyGuardReentrantCall",
      "type": "error"
    },
    {
      "anonymous": false,
      "inputs": [
        {
          "indexed": true,
          "internalType": "address",
          "name": "offeringContract",
          "type": "address"
        },
        {
          "indexed": true,
          "internalType": "address",
          "name": "investor",
          "type": "address"
        },
        {
          "indexed": true,
          "internalType": "address",
          "name": "token",
          "type": "address"
        },
        {
          "indexed": false,
          "internalType": "uint256",
          "name": "amount",
          "type": "uint256"
        }
      ],
      "name": "Deposited",
      "type": "event"
    },
    {
      "anonymous": false,
      "inputs": [
        {
          "indexed": true,
          "internalType": "address",
          "name": "offeringContract",
          "type": "address"
        },
        {
          "indexed": true,
          "internalType": "address",
          "name": "owner",
          "type": "address"
        },
        {
          "indexed": false,
          "internalType": "uint256",
          "name": "totalETH",
          "type": "uint256"
        },
        {
          "indexed": false,
          "internalType": "address[]",
          "name": "tokens",
          "type": "address[]"
        },
        {
          "indexed": false,
          "internalType": "uint256[]",
          "name": "tokenAmounts",
          "type": "uint256[]"
        }
      ],
      "name": "OfferingFinalized",
      "type": "event"
    },
    {
      "anonymous": false,
      "inputs": [
        {
          "indexed": true,
          "internalType": "address",
          "name": "offeringContract",
          "type": "address"
        },
        {
          "indexed": true,
          "internalType": "address",
          "name": "owner",
          "type": "address"
        }
      ],
      "name": "OfferingRegistered",
      "type": "event"
    },
    {
      "anonymous": false,
      "inputs": [
        {
          "indexed": true,
          "internalType": "address",
          "name": "previousOwner",
          "type": "address"
        },
        {
          "indexed": true,
          "internalType": "address",
          "name": "newOwner",
          "type": "address"
        }
      ],
      "name": "OwnershipTransferred",
      "type": "event"
    },
    {
      "anonymous": false,
      "inputs": [
        {
          "indexed": true,
          "internalType": "address",
          "name": "offeringContract",
          "type": "address"
        },
        {
          "indexed": true,
          "internalType": "address",
          "name": "investor",
          "type": "address"
        },
        {
          "indexed": true,
          "internalType": "address",
          "name": "token",
          "type": "address"
        },
        {
          "indexed": false,
          "internalType": "uint256",
          "name": "amount",
          "type": "uint256"
        }
      ],
      "name": "Refunded",
      "type": "event"
    },
    {
      "anonymous": false,
      "inputs": [
        {
          "indexed": true,
          "internalType": "address",
          "name": "offeringContract",
          "type": "address"
        }
      ],
      "name": "RefundsEnabled",
      "type": "event"
    },
    {
      "anonymous": false,
      "inputs": [
        {
          "indexed": true,
          "internalType": "address",
          "name": "token",
          "type": "address"
        },
        {
          "indexed": false,
          "internalType": "uint256",
          "name": "amount",
          "type": "uint256"
        },
        {
          "indexed": true,
          "internalType": "address",
          "name": "to",
          "type": "address"
        }
      ],
      "name": "Withdrawn",
      "type": "event"
    },
    {
      "inputs": [
        {
          "internalType": "address",
          "name": "_offeringContract",
          "type": "address"
        },
        {
          "internalType": "address",
          "name": "_investor",
          "type": "address"
        }
      ],
      "name": "depositNative",
      "outputs": [],
      "stateMutability": "payable",
      "type": "function"
    },
    {
      "inputs": [
        {
          "internalType": "address",
          "name": "_offeringContract",
          "type": "address"
        },
        {
          "internalType": "address",
          "name": "_investor",
          "type": "address"
        },
        {
          "internalType": "address",
          "name": "tokenAddr",
          "type": "address"
        },
        {
          "internalType": "uint256",
          "name": "amount",
          "type": "uint256"
        }
      ],
      "name": "depositToken",
      "outputs": [],
      "stateMutability": "nonpayable",
      "type": "function"
    },
    {
      "inputs": [
        {
          "internalType": "address",
          "name": "",
          "type": "address"
        },
        {
          "internalType": "address",
          "name": "",
          "type": "address"
        }
      ],
      "name": "deposits",
      "outputs": [
        {
          "internalType": "uint256",
          "name": "amount",
          "type": "uint256"
        },
        {
          "internalType": "address",
          "name": "token",
          "type": "address"
        }
      ],
      "stateMutability": "view",
      "type": "function"
    },
    {
      "inputs": [],
      "name": "enableRefundsByOffering",
      "outputs": [],
      "stateMutability": "nonpayable",
      "type": "function"
    },
    {
      "inputs": [
        {
          "internalType": "address",
          "name": "_offeringContract",
          "type": "address"
        }
      ],
      "name": "enableRefundsByOwner",
      "outputs": [],
      "stateMutability": "nonpayable",
      "type": "function"
    },
    {
      "inputs": [
        {
          "internalType": "address",
          "name": "_offeringContract",
          "type": "address"
        }
      ],
      "name": "finalizeOffering",
      "outputs": [],
      "stateMutability": "nonpayable",
      "type": "function"
    },
    {
      "inputs": [
        {
          "internalType": "address",
          "name": "_offeringContract",
          "type": "address"
        },
        {
          "internalType": "address",
          "name": "_investor",
          "type": "address"
        }
      ],
      "name": "getDepositInfo",
      "outputs": [
        {
          "components": [
            {
              "internalType": "uint256",
              "name": "amount",
              "type": "uint256"
            },
            {
              "internalType": "address",
              "name": "token",
              "type": "address"
            }
          ],
          "internalType": "struct Escrow.DepositInfo",
          "name": "",
          "type": "tuple"
        }
      ],
      "stateMutability": "view",
      "type": "function"
    },
    {
      "inputs": [
        {
          "internalType": "address",
          "name": "_offeringContract",
          "type": "address"
        }
      ],
      "name": "getInvestedTokens",
      "outputs": [
        {
          "internalType": "address[]",
          "name": "",
          "type": "address[]"
        }
      ],
      "stateMutability": "view",
      "type": "function"
    },
    {
      "inputs": [
        {
          "internalType": "address",
          "name": "_offeringContract",
          "type": "address"
        }
      ],
      "name": "getInvestmentSummary",
      "outputs": [
        {
          "internalType": "uint256",
          "name": "totalETH",
          "type": "uint256"
        },
        {
          "internalType": "address[]",
          "name": "tokens",
          "type": "address[]"
        },
        {
          "internalType": "uint256[]",
          "name": "tokenAmounts",
          "type": "uint256[]"
        }
      ],
      "stateMutability": "view",
      "type": "function"
    },
    {
      "inputs": [
        {
          "internalType": "address",
          "name": "_offeringContract",
          "type": "address"
        }
      ],
      "name": "getOfferingInfo",
      "outputs": [
        {
          "components": [
            {
              "internalType": "address",
              "name": "owner",
              "type": "address"
            },
            {
              "internalType": "bool",
              "name": "isRegistered",
              "type": "bool"
            },
            {
              "internalType": "bool",
              "name": "isFinalized",
              "type": "bool"
            }
          ],
          "internalType": "struct Escrow.OfferingInfo",
          "name": "",
          "type": "tuple"
        }
      ],
      "stateMutability": "view",
      "type": "function"
    },
    {
      "inputs": [
        {
          "internalType": "address",
          "name": "_offeringContract",
          "type": "address"
        }
      ],
      "name": "getTotalETH",
      "outputs": [
        {
          "internalType": "uint256",
          "name": "",
          "type": "uint256"
        }
      ],
      "stateMutability": "view",
      "type": "function"
    },
    {
      "inputs": [
        {
          "internalType": "address",
          "name": "_offeringContract",
          "type": "address"
        },
        {
          "internalType": "address",
          "name": "token",
          "type": "address"
        }
      ],
      "name": "getTotalTokenAmount",
      "outputs": [
        {
          "internalType": "uint256",
          "name": "",
          "type": "uint256"
        }
      ],
      "stateMutability": "view",
      "type": "function"
    },
    {
      "inputs": [],
      "name": "investmentManager",
      "outputs": [
        {
          "internalType": "address",
          "name": "",
          "type": "address"
        }
      ],
      "stateMutability": "view",
      "type": "function"
    },
    {
      "inputs": [
        {
          "internalType": "address",
          "name": "_offeringContract",
          "type": "address"
        }
      ],
      "name": "isOfferingFinalized",
      "outputs": [
        {
          "internalType": "bool",
          "name": "",
          "type": "bool"
        }
      ],
      "stateMutability": "view",
      "type": "function"
    },
    {
      "inputs": [
        {
          "internalType": "address",
          "name": "_offeringContract",
          "type": "address"
        }
      ],
      "name": "isOfferingRegistered",
      "outputs": [
        {
          "internalType": "bool",
          "name": "",
          "type": "bool"
        }
      ],
      "stateMutability": "view",
      "type": "function"
    },
    {
      "inputs": [
        {
          "internalType": "address",
          "name": "",
          "type": "address"
        }
      ],
      "name": "offerings",
      "outputs": [
        {
          "internalType": "address",
          "name": "owner",
          "type": "address"
        },
        {
          "internalType": "bool",
          "name": "isRegistered",
          "type": "bool"
        },
        {
          "internalType": "bool",
          "name": "isFinalized",
          "type": "bool"
        }
      ],
      "stateMutability": "view",
      "type": "function"
    },
    {
      "inputs": [],
      "name": "owner",
      "outputs": [
        {
          "internalType": "address",
          "name": "",
          "type": "address"
        }
      ],
      "stateMutability": "view",
      "type": "function"
    },
    {
      "inputs": [
        {
          "internalType": "address",
          "name": "_offeringContract",
          "type": "address"
        },
        {
          "internalType": "address",
          "name": "_investor",
          "type": "address"
        }
      ],
      "name": "refund",
      "outputs": [],
      "stateMutability": "nonpayable",
      "type": "function"
    },
    {
      "inputs": [
        {
          "internalType": "address",
          "name": "",
          "type": "address"
        }
      ],
      "name": "refundsEnabled",
      "outputs": [
        {
          "internalType": "bool",
          "name": "",
          "type": "bool"
        }
      ],
      "stateMutability": "view",
      "type": "function"
    },
    {
      "inputs": [
        {
          "internalType": "address",
          "name": "_offeringContract",
          "type": "address"
        },
        {
          "internalType": "address",
          "name": "_offeringOwner",
          "type": "address"
        }
      ],
      "name": "registerOffering",
      "outputs": [],
      "stateMutability": "nonpayable",
      "type": "function"
    },
    {
      "inputs": [],
      "name": "renounceOwnership",
      "outputs": [],
      "stateMutability": "nonpayable",
      "type": "function"
    },
    {
      "inputs": [
        {
          "internalType": "address",
          "name": "_investmentManager",
          "type": "address"
        }
      ],
      "name": "setInvestmentManager",
      "outputs": [],
      "stateMutability": "nonpayable",
      "type": "function"
    },
    {
      "inputs": [
        {
          "internalType": "address",
          "name": "newOwner",
          "type": "address"
        }
      ],
      "name": "transferOwnership",
      "outputs": [],
      "stateMutability": "nonpayable",
      "type": "function"
    },
    {
      "inputs": [
        {
          "internalType": "address",
          "name": "tokenAddr",
          "type": "address"
        },
        {
          "internalType": "uint256",
          "name": "amount",
          "type": "uint256"
        },
        {
          "internalType": "address",
          "name": "to",
          "type": "address"
        }
      ],
      "name": "withdraw",
      "outputs": [],
      "stateMutability": "nonpayable",
      "type": "function"
    },
    {
      "stateMutability": "payable",
      "type": "receive"
    }
  ],
  "bytecode": "0x6080346200012157601f620024f338819003918201601f19168301926001600160401b0392909183851183861017620001265781602092849260409788528339810103126200012157825191602083019081118382101762000126578352516001600160a01b038082169290918381036200012157815282156200010957600080546001600160a01b031981168517825585519491908416907f8be0079c531659141344cd1fd0a4f28419497f9722a3daafe3b4186f6b6457e09080a360018055511615620000d75750516123b690816200013d8239f35b62461bcd60e51b815260206004820152600d60248201526c24b73b30b634b21037bbb732b960991b6044820152606490fd5b8351631e4fbdf760e01b815260006004820152602490fd5b600080fd5b634e487b7160e01b600052604160045260246000fdfe60406080815260049081361015610020575b5050361561001e57600080fd5b005b600091823560e01c80630434c8c214611af95780630ef7c5a7146117745780631cfd3a89146116e15780632dce5c01146111585783816331b97e62146110515750806333ead65014610ffe578063410f539c14610fc75780634b31bb1014610f9f5780635e30b8a614610c8557806369328dec1461097c5780636de5de0f146108cb57838163701bb8911461073357508063715018a6146106d95780637c45e579146106655780637d08c26f14610616578063874e2783146105d75780638853636e1461059d5780638da5cb5b146105775780638f601f661461051d578063b40073f5146104c7578063d8695e071461048457838163dcdcafaa1461038357508063ec4083de146101e05763f2fde38b1461013b5750610011565b346101dc5760203660031901126101dc57610154611ba1565b9061015d611c73565b6001600160a01b038092169283156101ad575050600054826001600160a01b0319821617600055167f8be0079c531659141344cd1fd0a4f28419497f9722a3daafe3b4186f6b6457e0600080a380f35b908460249251917f1e4fbdf7000000000000000000000000000000000000000000000000000000008352820152fd5b8280fd5b5090346101dc57806003193601126101dc576101fa611ba1565b90610203611bb7565b9161020c611c73565b6001600160a01b038080921693610224851515611cb7565b1693841561034057838652600560205260ff8387205460a01c166102fd575081519161024f83611d34565b84835260208301916001835281840191878352858852600560205287209351167fffffffffffffffffffff0000000000000000000000000000000000000000000075ff00000000000000000000000000000000000000000074ff000000000000000000000000000000000000000086549551151560a01b169351151560a81b16931617171790557f459b6de71f7d3a2d186f0b89e3fa460a69e0c6b9b91b27875032129b7ce11eba8380a380f35b606490602084519162461bcd60e51b8352820152601b60248201527f4f66666572696e6720616c7265616479207265676973746572656400000000006044820152fd5b606490602084519162461bcd60e51b8352820152601660248201527f496e76616c6964206f66666572696e67206f776e6572000000000000000000006044820152fd5b929050346104805782600319360112610480576103a1331515611cb7565b33835260056020526103bb60ff8285205460a01c16611ed8565b33835260056020526103d660ff8285205460a81c16156122de565b33835281602052808320600160ff19825416179055805191337fdfe9f2e2d9a591e6f645aef6d055f259f1f68cff03c5021bbc474eee389fcca18580a26001600160a01b036002541680610428578480f35b803b1561047c57602484868193819563c7103ea360e01b845233908401525af1908115610473575061045c575b8080808480f35b61046590611d50565b610470578038610455565b80fd5b513d84823e3d90fd5b8480fd5b5050fd5b5050346104c35760203660031901126104c35760ff816020936001600160a01b036104ad611ba1565b16815260058552205460a01c1690519015158152f35b5080fd5b5050346104c35760203660031901126104c357908160ff6060936001600160a01b0393846104f3611ba1565b1681526005602052205482519381168452818160a01c161515602085015260a81c16151590820152f35b828434610470578160031936011261047057610537611ba1565b61053f611bb7565b90836001600160a01b039384809316815260036020522091166000526020528160002090600182549201541682519182526020820152f35b5050346104c357816003193601126104c3576001600160a01b0360209254169051908152f35b50346101dc5760203660031901126101dc578160209360ff926001600160a01b036105c6611ba1565b168252855220541690519015158152f35b5050346104c35760203660031901126104c35760ff816020936001600160a01b03610600611ba1565b16815260058552205460a81c1690519015158152f35b5050346104c357806003193601126104c357602091610633611ba1565b60018361063e611bb7565b936001600160a01b0380941681526006875220019116600052825280600020549051908152f35b82843461047057816003193601126104705761067f611ba1565b610687611bb7565b90826020855161069681611d02565b8281520152836001600160a01b039384809316815260036020522091166000526020526106c582600020611f6e565b906020835192805184520151166020820152f35b83346104705780600319360112610470576106f2611c73565b60006001600160a01b0381546001600160a01b031981168355167f8be0079c531659141344cd1fd0a4f28419497f9722a3daafe3b4186f6b6457e08280a380f35b92809150600319360112610480577f4174a9435a04d04d274c76779cad136a41fde6937c56241c09ab9d3c7064a1a961076a611ba1565b92610773611bb7565b926001600160a01b038086169461078b863314611d86565b610796341515611df7565b85885260209384526107ae60ff848a20541615611e42565b6107b9861515611cb7565b818116966107c8881515611e8d565b868952600585526107e160ff858b205460a01c16611ed8565b868952600585526107fb60ff858b205460a81c1615611f23565b868952600385528389208860005285528360002091825415158080916108bd575b15610853575050509050610831348254611f95565b90555b83865260068252808620610849348254611f95565b905551348152a480f35b6108a3575b50505081519061086782611d02565b348252600184830192898452878a5260038652848a208960005286528460002090518155019151166001600160a01b0319825416179055610834565b6108af6108b593611f6e565b9161211c565b388080610858565b50846001850154161561081c565b50346101dc5760203660031901126101dc576001600160a01b036108ed611ba1565b6108f5611c73565b169182156109135750506001600160a01b0319600254161760025580f35b906020608492519162461bcd60e51b8352820152602260248201527f496e76616c696420696e766573746d656e74206d616e6167657220616464726560448201527f73730000000000000000000000000000000000000000000000000000000000006064820152fd5b5090346101dc5760603660031901126101dc57610997611ba1565b916024918235916109a6611bcd565b936109af611c73565b6109b7611ffe565b6001600160a01b03808616968715610c4357169485610aa45750834710610a635786808080878a5af16109e8612091565b5015610a225750507fcbcdbdf10631a43cc99c80acace8232649421c3f4f73919f16013d47c83a687a916020915b51908152a36001805580f35b6013906020606494519362461bcd60e51b85528401528201527f455448207769746864726177206661696c6564000000000000000000000000006044820152fd5b6010906020606494519362461bcd60e51b85528401528201527f496e73756666696369656e7420455448000000000000000000000000000000006044820152fd5b8351906370a0823160e01b82523084830152602091828185818b5afa908115610c39579087918b91610c03575b5010610bc257845163a9059cbb60e01b81526001600160a01b039091168482019081526020810187905282908290819060400103818c8b5af1908115610bb8578991610b8b575b5015610b4b575050507fcbcdbdf10631a43cc99c80acace8232649421c3f4f73919f16013d47c83a687a91602091610a16565b90601591606494519362461bcd60e51b85528401528201527f546f6b656e207769746864726177206661696c656400000000000000000000006044820152fd5b610bab9150823d8411610bb1575b610ba38183611d64565b810190611fb8565b38610b18565b503d610b99565b85513d8b823e3d90fd5b5090601391606494519362461bcd60e51b85528401528201527f496e73756666696369656e7420746f6b656e73000000000000000000000000006044820152fd5b809250848092503d8311610c32575b610c1c8183611d64565b81010312610c2d5786905138610ad1565b600080fd5b503d610c12565b86513d8c823e3d90fd5b606484601185602089519362461bcd60e51b85528401528201527f496e76616c696420726563697069656e740000000000000000000000000000006044820152fd5b5090346101dc57806003193601126101dc57610c9f611ba1565b610ca7611bb7565b916001600160a01b039182600254163303610f36578290610cc6611ffe565b169081865260209085825260ff818820541615610ef457610ce8831515611cb7565b83851693610cf7851515611e8d565b83885260038352818820856000528352610d1382600020611f6e565b95865115610eb2578251610d2681611d02565b898152826001868301928c8452888d5260038852868d208a60005288528660002090518155019151166001600160a01b0319825416179055838701908282511615600014610e84578751868b5260068652610d85858c20918254612039565b90555b815183169081610de5575050869750610dd4898080807fb7c482f0c0b7ad56e2c7004be448a8ead98a8bbe84675fd80b273563099f8560999a9b518c5af1610dce612091565b506120d1565b511695519051908152a46001805580f35b8851855163a9059cbb60e01b81526001600160a01b039092169a82019a8b5260208b01529885918a9182908d90829060400103925af1978815610e7a577fb7c482f0c0b7ad56e2c7004be448a8ead98a8bbe84675fd80b273563099f856095969798610e58918b91610e5d575b50612046565b610dd4565b610e749150863d8811610bb157610ba38183611d64565b38610e52565b83513d8b823e3d90fd5b8751868b52600686526001858c2001848451166000528652610eab85600020918254612039565b9055610d88565b6064888585519162461bcd60e51b8352820152601160248201527f4e6f7468696e6720746f20726566756e640000000000000000000000000000006044820152fd5b6064918691519162461bcd60e51b8352820152601360248201527f526566756e6473206e6f7420656e61626c6564000000000000000000000000006044820152fd5b608485602084519162461bcd60e51b8352820152602d60248201527f4f6e6c7920496e766573746d656e744d616e616765722063616e2063616c6c2060448201527f746869732066756e6374696f6e000000000000000000000000000000000000006064820152fd5b5050346104c357816003193601126104c3576020906001600160a01b03600254169051908152f35b5050346104c35760203660031901126104c357806020926001600160a01b03610fee611ba1565b1681526006845220549051908152f35b5050346104c35760203660031901126104c35761103a60028261104d946001600160a01b0361102b611ba1565b1681526006602052200161234f565b9051918291602083526020830190611be3565b0390f35b929050346104805760203660031901126104805761106d611ba1565b91611076611c73565b6001600160a01b038093169061108d821515611cb7565b81855260056020526110a760ff8487205460a01c16611ed8565b81855260056020526110c260ff8487205460a81c16156122de565b81855280602052828520600160ff19825416179055825193827fdfe9f2e2d9a591e6f645aef6d055f259f1f68cff03c5021bbc474eee389fcca18780a2600254168061110c578580f35b803b156111545784866024928195839563c7103ea360e01b85528401525af19081156104735750611140575b808080808580f35b61114990611d50565b610470578038611138565b8580fd5b5090346101dc57602091826003193601126116dd57611175611ba1565b61117d611ffe565b6001600160a01b0380911691611194831515611cb7565b828652600585526111ad60ff8588205460a01c16611ed8565b828652600585526111c760ff8588205460a81c1615611f23565b82865280855260ff8487205416611675578186541633148015611660575b156115f857828652600585528386209081549175010000000000000000000000000000000000000000007fffffffffffffffffffff00ffffffffffffffffffffffffffffffffffffffffff84161790556006865284872095843b156115f45785517f35a41aaf00000000000000000000000000000000000000000000000000000000815288818481838a5af180156115ea576115d7575b5060028701968754916112b861129184612271565b9361129e8a519586611d64565b808552601f196112ad82612271565b013684870137612289565b93825480611509575b506001998a9290848401908d80865b61131b575b5050505050505091611313917ff111a5f6aca39c7d31470586ae67db6f1180e4bef16cb07d72b398134f995e08959493549751948594169784611c20565b0390a3805580f35b8d83548310156115035782918b918b8f856113619161133a828b611fd0565b90549060031b1c1695866000528a8c528661135b8660002054998a966122ca565b526122ca565b528361137c575b50505050611375906122bb565b8e866112d0565b90919293949596979850516370a0823160e01b815230898201528781602481865afa9182156114f6579084926114c5575b501061148257908f91878f918e858f6113f28c96519788968795869463a9059cbb60e01b865216908401602090939291936001600160a01b0360408201951681520152565b03925af1918215611477579161145a575b501561141857908c94939291388f808f611368565b606485858e519162461bcd60e51b8352820152601560248201527f546f6b656e207472616e73666572206661696c656400000000000000000000006044820152fd5b6114719150853d8711610bb157610ba38183611d64565b38611403565b8e51903d90823e3d90fd5b50606486868f519162461bcd60e51b8352820152601a60248201527f496e73756666696369656e7420746f6b656e2062616c616e63650000000000006044820152fd5b809250888092503d83116114ef575b6114de8183611d64565b81010312610c2d57829051386113ad565b503d6114d4565b90508f51903d90823e3d90fd5b506112d5565b804710611595578b808080938b8b165af1611522612091565b501561152e57386112c1565b60849189519162461bcd60e51b8352820152602560248201527f455448207472616e7366657220746f206f66666572696e67206f776e6572206660448201527f61696c65640000000000000000000000000000000000000000000000000000006064820152fd5b5060649189519162461bcd60e51b8352820152601860248201527f496e73756666696369656e74204554482062616c616e636500000000000000006044820152fd5b6115e390989198611d50565b963861127c565b87513d8b823e3d90fd5b8780fd5b6084908585519162461bcd60e51b8352820152603060248201527f4f6e6c7920657363726f77206f776e6572206f72206f66666572696e67206f7760448201527f6e65722063616e2066696e616c697a65000000000000000000000000000000006064820152fd5b508286526005855281848720541633146111e5565b6084908585519162461bcd60e51b8352820152602160248201527f526566756e647320656e61626c6564202d2063616e6e6f742066696e616c697a60448201527f65000000000000000000000000000000000000000000000000000000000000006064820152fd5b8380fd5b5050346104c35760203660031901126104c3579081606092611701611ba1565b928082805161170f81611d34565b82815282602082015201526001600160a01b0380941681526005602052209181519261173a84611d34565b549081169283815260ff836020830192828560a01c1615158452019260a81c16151582528251938452511515602084015251151590820152f35b5082346104705760803660031901126104705761178f611ba1565b611797611bb7565b61179f611bcd565b90606435906117ac611ffe565b6001600160a01b039081808616946117c5863314611d86565b16948515611ab657879284928a926117e261181998971515611df7565b868a52888a8860646020998a9381855261180260ff8b8320541615611e42565b61180d841515611cb7565b8888169d8e1515611e8d565b8381526005855261183260ff8b83205460a01c16611ed8565b8381526005855261184c60ff8b83205460a81c1615611f23565b895195869485937f23b872dd0000000000000000000000000000000000000000000000000000000085528401523060248401528b60448401525af1908115611aac578b91611a8f575b5015611a4d57868a5260038652838a20888b528652838a209182541515808091611a3e575b156119dc575050506118cd848254611f95565b90555b848852600684528188208789526001810185528289206118f1858254611f95565b905585895260078552828920888a52855260ff838a20541615611940575b5050519081527f4174a9435a04d04d274c76779cad136a41fde6937c56241c09ab9d3c7064a1a99190a46001805580f35b600201805490680100000000000000008210156119c9577f4174a9435a04d04d274c76779cad136a41fde6937c56241c09ab9d3c7064a1a9969798999a509061198e91600182018155611fd0565b819291549060031b918a831b921b1916179055848852600783528088208789528352808820600160ff1982541617905587969594938961190f565b60248a60418d634e487b7160e01b835252fd5b611a2a575b50505081516119ef81611d02565b838152816001868301928a8452888c5260038852858c208a8d528852858c2090518155019151166001600160a01b03198254161790556118d0565b6108af611a3693611f6e565b8980806119e1565b508a85600186015416146118ba565b60648b8786519162461bcd60e51b8352820152600f60248201527f5472616e73666572206661696c656400000000000000000000000000000000006044820152fd5b611aa69150873d8911610bb157610ba38183611d64565b8c611895565b85513d8d823e3d90fd5b60648860208b519162461bcd60e51b8352820152600d60248201527f496e76616c696420746f6b656e000000000000000000000000000000000000006044820152fd5b828434610470576020806003193601126104c3576001600160a01b039283611b1f611ba1565b1683526006825280832093845493611b396002870161234f565b95611b448751612289565b946001939184019183855b611b63575b86518061104d8a8d8d84611c20565b8951811015611b9c578082611b7b611b96938d6122ca565b5116865284845287862054611b90828b6122ca565b526122bb565b85611b4f565b611b54565b600435906001600160a01b0382168203610c2d57565b602435906001600160a01b0382168203610c2d57565b604435906001600160a01b0382168203610c2d57565b90815180825260208080930193019160005b828110611c03575050505090565b83516001600160a01b031685529381019392810192600101611bf5565b908152611c396020926060848401526060830190611be3565b90604081830391015281808451928381520193019160005b828110611c5f575050505090565b835185529381019392810192600101611c51565b6001600160a01b03600054163303611c8757565b60246040517f118cdaa7000000000000000000000000000000000000000000000000000000008152336004820152fd5b15611cbe57565b606460405162461bcd60e51b815260206004820152601960248201527f496e76616c6964206f66666572696e6720636f6e7472616374000000000000006044820152fd5b6040810190811067ffffffffffffffff821117611d1e57604052565b634e487b7160e01b600052604160045260246000fd5b6060810190811067ffffffffffffffff821117611d1e57604052565b67ffffffffffffffff8111611d1e57604052565b90601f8019910116810190811067ffffffffffffffff821117611d1e57604052565b15611d8d57565b608460405162461bcd60e51b815260206004820152602260248201527f4f6e6c79206f66666572696e6720636f6e74726163742063616e206465706f7360448201527f69740000000000000000000000000000000000000000000000000000000000006064820152fd5b15611dfe57565b606460405162461bcd60e51b815260206004820152600e60248201527f496e76616c696420616d6f756e740000000000000000000000000000000000006044820152fd5b15611e4957565b606460405162461bcd60e51b815260206004820152601760248201527f526566756e647320616c726561647920656e61626c65640000000000000000006044820152fd5b15611e9457565b606460405162461bcd60e51b815260206004820152601860248201527f496e76616c696420696e766573746f72206164647265737300000000000000006044820152fd5b15611edf57565b606460405162461bcd60e51b815260206004820152601760248201527f4f66666572696e67206e6f7420726567697374657265640000000000000000006044820152fd5b15611f2a57565b606460405162461bcd60e51b815260206004820152601a60248201527f4f66666572696e6720616c72656164792066696e616c697a65640000000000006044820152fd5b90604051611f7b81611d02565b60206001600160a01b036001839580548552015416910152565b91908201809211611fa257565b634e487b7160e01b600052601160045260246000fd5b90816020910312610c2d57518015158103610c2d5790565b8054821015611fe85760005260206000200190600090565b634e487b7160e01b600052603260045260246000fd5b60026001541461200f576002600155565b60046040517f3ee5aeb5000000000000000000000000000000000000000000000000000000008152fd5b91908203918211611fa257565b1561204d57565b606460405162461bcd60e51b815260206004820152601360248201527f546f6b656e20726566756e64206661696c6564000000000000000000000000006044820152fd5b3d156120cc573d9067ffffffffffffffff8211611d1e57604051916120c0601f8201601f191660200184611d64565b82523d6000602084013e565b606090565b156120d857565b606460405162461bcd60e51b815260206004820152601160248201527f45544820726566756e64206661696c65640000000000000000000000000000006044820152fd5b9060208084016001600160a01b039081815116156000146121a3579080807fb7c482f0c0b7ad56e2c7004be448a8ead98a8bbe84675fd80b273563099f856094936121918951600090848b1682526006885261217d60408320918254612039565b90558080808d51878d165af1610dce612091565b511696519460405195865216941692a4565b60008286168152600684526040812060018851918585511684520185526121cf60408320918254612039565b90558151875160405163a9059cbb60e01b81526001600160a01b0388166004820152602481019190915290859082906044908290869089165af191821561226557926122498594938594937fb7c482f0c0b7ad56e2c7004be448a8ead98a8bbe84675fd80b273563099f85609897949161224e5750612046565b612191565b610e749150873d8911610bb157610ba38183611d64565b604051903d90823e3d90fd5b67ffffffffffffffff8111611d1e5760051b60200190565b9061229382612271565b6122a06040519182611d64565b82815280926122b1601f1991612271565b0190602036910137565b6000198114611fa25760010190565b8051821015611fe85760209160051b010190565b156122e557565b608460405162461bcd60e51b815260206004820152602a60248201527f43616e6e6f7420656e61626c6520726566756e6473202d206f66666572696e6760448201527f2066696e616c697a6564000000000000000000000000000000000000000000006064820152fd5b9060405191828154918282526020928383019160005283600020936000905b8282106123865750505061238492500383611d64565b565b85546001600160a01b03168452600195860195889550938101939091019061236e56fea164736f6c6343000814000a",
  "linkReferences": {},
  "deployedLinkReferences": {}
}