{
  "_format": "hh-sol-artifact-1",
  "contractName": "Payout",
  "sourceName": "contracts/Payout.sol",
  "abi": [
    {
      "inputs": [
        {
          "internalType": "address",
          "name": "defaultAdmin",
          "type": "address"
        },
        {
          "internalType": "address",
          "name": "initialSigner",
          "type": "address"
        }
      ],
      "stateMutability": "nonpayable",
      "type": "constructor"
    },
    {
      "inputs": [],
      "name": "AccessControlBadConfirmation",
      "type": "error"
    },
    {
      "inputs": [
        {
          "internalType": "address",
          "name": "account",
          "type": "address"
        },
        {
          "internalType": "bytes32",
          "name": "neededRole",
          "type": "bytes32"
        }
      ],
      "name": "AccessControlUnauthorizedAccount",
      "type": "error"
    },
    {
      "inputs": [],
      "name": "EnforcedPause",
      "type": "error"
    },
    {
      "inputs": [],
      "name": "ExpectedPause",
      "type": "error"
    },
    {
      "inputs": [],
      "name": "ReentrancyGuardReentrantCall",
      "type": "error"
    },
    {
      "anonymous": false,
      "inputs": [
        {
          "indexed": false,
          "internalType": "address",
          "name": "account",
          "type": "address"
        }
      ],
      "name": "Paused",
      "type": "event"
    },
    {
      "anonymous": false,
      "inputs": [
        {
          "indexed": true,
          "internalType": "uint256",
          "name": "payoutId",
          "type": "uint256"
        },
        {
          "indexed": true,
          "internalType": "address",
          "name": "funder",
          "type": "address"
        },
        {
          "indexed": false,
          "internalType": "address",
          "name": "token",
          "type": "address"
        },
        {
          "indexed": false,
          "internalType": "uint256",
          "name": "totalAmount",
          "type": "uint256"
        },
        {
          "indexed": false,
          "internalType": "uint256",
          "name": "payoutNonce",
          "type": "uint256"
        }
      ],
      "name": "PayoutAllotted",
      "type": "event"
    },
    {
      "anonymous": false,
      "inputs": [
        {
          "indexed": true,
          "internalType": "uint256",
          "name": "payoutId",
          "type": "uint256"
        },
        {
          "indexed": true,
          "internalType": "address",
          "name": "claimant",
          "type": "address"
        },
        {
          "indexed": false,
          "internalType": "address",
          "name": "token",
          "type": "address"
        },
        {
          "indexed": false,
          "internalType": "uint256",
          "name": "amountClaimed",
          "type": "uint256"
        }
      ],
      "name": "PayoutClaimed",
      "type": "event"
    },
    {
      "anonymous": false,
      "inputs": [
        {
          "indexed": true,
          "internalType": "bytes32",
          "name": "role",
          "type": "bytes32"
        },
        {
          "indexed": true,
          "internalType": "bytes32",
          "name": "previousAdminRole",
          "type": "bytes32"
        },
        {
          "indexed": true,
          "internalType": "bytes32",
          "name": "newAdminRole",
          "type": "bytes32"
        }
      ],
      "name": "RoleAdminChanged",
      "type": "event"
    },
    {
      "anonymous": false,
      "inputs": [
        {
          "indexed": true,
          "internalType": "bytes32",
          "name": "role",
          "type": "bytes32"
        },
        {
          "indexed": true,
          "internalType": "address",
          "name": "account",
          "type": "address"
        },
        {
          "indexed": true,
          "internalType": "address",
          "name": "sender",
          "type": "address"
        }
      ],
      "name": "RoleGranted",
      "type": "event"
    },
    {
      "anonymous": false,
      "inputs": [
        {
          "indexed": true,
          "internalType": "bytes32",
          "name": "role",
          "type": "bytes32"
        },
        {
          "indexed": true,
          "internalType": "address",
          "name": "account",
          "type": "address"
        },
        {
          "indexed": true,
          "internalType": "address",
          "name": "sender",
          "type": "address"
        }
      ],
      "name": "RoleRevoked",
      "type": "event"
    },
    {
      "anonymous": false,
      "inputs": [
        {
          "indexed": false,
          "internalType": "address",
          "name": "account",
          "type": "address"
        }
      ],
      "name": "Unpaused",
      "type": "event"
    },
    {
      "inputs": [],
      "name": "DEFAULT_ADMIN_ROLE",
      "outputs": [
        {
          "internalType": "bytes32",
          "name": "",
          "type": "bytes32"
        }
      ],
      "stateMutability": "view",
      "type": "function"
    },
    {
      "inputs": [],
      "name": "PAYOUT_FUNDER_ROLE",
      "outputs": [
        {
          "internalType": "bytes32",
          "name": "",
          "type": "bytes32"
        }
      ],
      "stateMutability": "view",
      "type": "function"
    },
    {
      "inputs": [],
      "name": "SIGNER_ROLE",
      "outputs": [
        {
          "internalType": "bytes32",
          "name": "",
          "type": "bytes32"
        }
      ],
      "stateMutability": "view",
      "type": "function"
    },
    {
      "inputs": [
        {
          "internalType": "address",
          "name": "_token",
          "type": "address"
        },
        {
          "internalType": "uint256",
          "name": "_amount",
          "type": "uint256"
        }
      ],
      "name": "allotPayout",
      "outputs": [
        {
          "internalType": "uint256",
          "name": "",
          "type": "uint256"
        }
      ],
      "stateMutability": "nonpayable",
      "type": "function"
    },
    {
      "inputs": [
        {
          "internalType": "uint256",
          "name": "_payoutId",
          "type": "uint256"
        },
        {
          "internalType": "uint256",
          "name": "_amountToClaim",
          "type": "uint256"
        },
        {
          "internalType": "uint256",
          "name": "_claimantNonce",
          "type": "uint256"
        },
        {
          "internalType": "bytes",
          "name": "_signature",
          "type": "bytes"
        }
      ],
      "name": "claimPayout",
      "outputs": [],
      "stateMutability": "nonpayable",
      "type": "function"
    },
    {
      "inputs": [
        {
          "internalType": "uint256",
          "name": "",
          "type": "uint256"
        },
        {
          "internalType": "address",
          "name": "",
          "type": "address"
        }
      ],
      "name": "claimantNonces",
      "outputs": [
        {
          "internalType": "uint256",
          "name": "",
          "type": "uint256"
        }
      ],
      "stateMutability": "view",
      "type": "function"
    },
    {
      "inputs": [
        {
          "internalType": "uint256",
          "name": "_payoutId",
          "type": "uint256"
        }
      ],
      "name": "getNumClaimants",
      "outputs": [
        {
          "internalType": "uint256",
          "name": "",
          "type": "uint256"
        }
      ],
      "stateMutability": "view",
      "type": "function"
    },
    {
      "inputs": [
        {
          "internalType": "uint256",
          "name": "_payoutId",
          "type": "uint256"
        }
      ],
      "name": "getRemainingAmount",
      "outputs": [
        {
          "internalType": "uint256",
          "name": "",
          "type": "uint256"
        }
      ],
      "stateMutability": "view",
      "type": "function"
    },
    {
      "inputs": [
        {
          "internalType": "bytes32",
          "name": "role",
          "type": "bytes32"
        }
      ],
      "name": "getRoleAdmin",
      "outputs": [
        {
          "internalType": "bytes32",
          "name": "",
          "type": "bytes32"
        }
      ],
      "stateMutability": "view",
      "type": "function"
    },
    {
      "inputs": [
        {
          "internalType": "address",
          "name": "_funder",
          "type": "address"
        }
      ],
      "name": "grantPayoutFunderRole",
      "outputs": [],
      "stateMutability": "nonpayable",
      "type": "function"
    },
    {
      "inputs": [
        {
          "internalType": "bytes32",
          "name": "role",
          "type": "bytes32"
        },
        {
          "internalType": "address",
          "name": "account",
          "type": "address"
        }
      ],
      "name": "grantRole",
      "outputs": [],
      "stateMutability": "nonpayable",
      "type": "function"
    },
    {
      "inputs": [
        {
          "internalType": "address",
          "name": "_signer",
          "type": "address"
        }
      ],
      "name": "grantSignerRole",
      "outputs": [],
      "stateMutability": "nonpayable",
      "type": "function"
    },
    {
      "inputs": [
        {
          "internalType": "uint256",
          "name": "",
          "type": "uint256"
        },
        {
          "internalType": "address",
          "name": "",
          "type": "address"
        }
      ],
      "name": "hasClaimed",
      "outputs": [
        {
          "internalType": "bool",
          "name": "",
          "type": "bool"
        }
      ],
      "stateMutability": "view",
      "type": "function"
    },
    {
      "inputs": [
        {
          "internalType": "bytes32",
          "name": "role",
          "type": "bytes32"
        },
        {
          "internalType": "address",
          "name": "account",
          "type": "address"
        }
      ],
      "name": "hasRole",
      "outputs": [
        {
          "internalType": "bool",
          "name": "",
          "type": "bool"
        }
      ],
      "stateMutability": "view",
      "type": "function"
    },
    {
      "inputs": [],
      "name": "nextPayoutId",
      "outputs": [
        {
          "internalType": "uint256",
          "name": "",
          "type": "uint256"
        }
      ],
      "stateMutability": "view",
      "type": "function"
    },
    {
      "inputs": [],
      "name": "pause",
      "outputs": [],
      "stateMutability": "nonpayable",
      "type": "function"
    },
    {
      "inputs": [],
      "name": "paused",
      "outputs": [
        {
          "internalType": "bool",
          "name": "",
          "type": "bool"
        }
      ],
      "stateMutability": "view",
      "type": "function"
    },
    {
      "inputs": [
        {
          "internalType": "uint256",
          "name": "",
          "type": "uint256"
        }
      ],
      "name": "payouts",
      "outputs": [
        {
          "internalType": "address",
          "name": "funder",
          "type": "address"
        },
        {
          "internalType": "address",
          "name": "token",
          "type": "address"
        },
        {
          "internalType": "uint256",
          "name": "totalAmount",
          "type": "uint256"
        },
        {
          "internalType": "uint256",
          "name": "claimedAmount",
          "type": "uint256"
        },
        {
          "internalType": "uint256",
          "name": "numClaimants",
          "type": "uint256"
        },
        {
          "internalType": "bool",
          "name": "isActive",
          "type": "bool"
        },
        {
          "internalType": "uint256",
          "name": "payoutNonce",
          "type": "uint256"
        }
      ],
      "stateMutability": "view",
      "type": "function"
    },
    {
      "inputs": [
        {
          "internalType": "bytes32",
          "name": "role",
          "type": "bytes32"
        },
        {
          "internalType": "address",
          "name": "callerConfirmation",
          "type": "address"
        }
      ],
      "name": "renounceRole",
      "outputs": [],
      "stateMutability": "nonpayable",
      "type": "function"
    },
    {
      "inputs": [
        {
          "internalType": "address",
          "name": "_funder",
          "type": "address"
        }
      ],
      "name": "revokePayoutFunderRole",
      "outputs": [],
      "stateMutability": "nonpayable",
      "type": "function"
    },
    {
      "inputs": [
        {
          "internalType": "bytes32",
          "name": "role",
          "type": "bytes32"
        },
        {
          "internalType": "address",
          "name": "account",
          "type": "address"
        }
      ],
      "name": "revokeRole",
      "outputs": [],
      "stateMutability": "nonpayable",
      "type": "function"
    },
    {
      "inputs": [
        {
          "internalType": "address",
          "name": "_signer",
          "type": "address"
        }
      ],
      "name": "revokeSignerRole",
      "outputs": [],
      "stateMutability": "nonpayable",
      "type": "function"
    },
    {
      "inputs": [
        {
          "internalType": "bytes4",
          "name": "interfaceId",
          "type": "bytes4"
        }
      ],
      "name": "supportsInterface",
      "outputs": [
        {
          "internalType": "bool",
          "name": "",
          "type": "bool"
        }
      ],
      "stateMutability": "view",
      "type": "function"
    },
    {
      "inputs": [],
      "name": "unpause",
      "outputs": [],
      "stateMutability": "nonpayable",
      "type": "function"
    }
  ],
  "bytecode": "0x6080346200008c57601f6200167b38819003918201601f19168301916001600160401b03831184841017620000915780849260409485528339810103126200008c57806200006f6200006360206200005b6200007695620000a7565b9301620000a7565b916001600255620000bc565b506200013c565b50600160035560405161147c9081620001df8239f35b600080fd5b634e487b7160e01b600052604160045260246000fd5b51906001600160a01b03821682036200008c57565b6001600160a01b031660008181527fad3228b676f7d3cd4284a5443f17f1962b36e491b30a40b2405849e597ba5fb5602052604081205490919060ff166200013857818052816020526040822081835260205260408220600160ff1982541617905533916000805160206200165b8339815191528180a4600190565b5090565b6001600160a01b031660008181527f059f08e7d7ba1c82eddc57afae67f80df851baf38a099607a779825038c3ce5b60205260408120549091907fe2f4eaae4a9751e85a3e4a7b9587827a877f29914755229b07a7b2da98285f709060ff16620001d957808352826020526040832082845260205260408320600160ff198254161790556000805160206200165b833981519152339380a4600190565b50509056fe6080604052600436101561001257600080fd5b60003560e01c806301ffc9a714610197578063248a9ca31461019257806329652e861461018d5780632f2ff15d1461018857806336568abe146101835780633f4ba83a1461017e578063493ddb3c146101795780635c975abb1461017457806372091b391461016f5780638456cb591461016a578063873f6f9e1461016557806391d1485414610160578063923af4eb1461015b578063a1ebf35d14610156578063a217fddf14610151578063a8b1a7d11461014c578063b7e2c37c14610147578063cb894e7c14610142578063cffa81871461013d578063d547741f14610138578063d5c94bbd14610133578063f3f9d8481461012e578063f6252ff2146101295763ff9a30d61461012457600080fd5b610938565b610883565b610865565b61083c565b6107fd565b6107d4565b610791565b610768565b61073f565b610723565b6106fa565b6106bf565b61068b565b61064b565b6105cf565b6105a6565b610583565b6103d8565b610362565b61031b565b6102da565b610231565b6101f2565b346101ed5760203660031901126101ed5760043563ffffffff60e01b81168091036101ed57602090637965db0b60e01b81149081156101dc575b506040519015158152f35b6301ffc9a760e01b149050386101d1565b600080fd5b346101ed5760203660031901126101ed5760043560005260006020526020600160406000200154604051908152f35b6000526004602052604060002090565b346101ed5760203660031901126101ed57600435600052600460205260e0604060002060018060a01b039081815416916001820154169060028101546003820154600483015491600660ff600586015416940154946040519687526020870152604086015260608501526080840152151560a083015260c0820152f35b602435906001600160a01b03821682036101ed57565b600435906001600160a01b03821682036101ed57565b346101ed5760403660031901126101ed576103196004356102f96102ae565b90806000526000602052610314600160406000200154610a9d565b610b7e565b005b346101ed5760403660031901126101ed576103346102ae565b336001600160a01b038216036103505761031990600435610c57565b60405163334bd91960e11b8152600490fd5b346101ed5760003660031901126101ed5761037b6109e8565b60015460ff8116156103c65760ff191660015560206040513381527f5db9ee0a495bf2e6ff9c91a7834c1ba4fdd244a5e8aa4e537bd38aeae4b073aa918291a16020604051338152a1005b604051638dfc202b60e01b8152600490fd5b346101ed5760403660031901126101ed576103f16102c4565b602435906103fd610a44565b610405610dea565b61040d610e08565b6001600160a01b03811690610423821515610c70565b61042e831515610cb4565b6003549161044361043e84610d15565b600355565b610458600661045185610221565b0154610d24565b6104aa610463610919565b3381526001600160a01b0385166020820152866040820152600060608201526000608082015261049660a0820160019052565b8260c08201526104a586610221565b610d5e565b6040516323b872dd60e01b81523360048201523060248201526044810186905291602090839060649082906000905af190811561057e5761054c9585937f14c3655037c4d8b3b38bfd705973294a3789bbaded8d0364b15ba2c7edde30ff93610550575b50604080516001600160a01b0396909616865260208601919091528401523392606090a361053c6001600255565b6040519081529081906020820190565b0390f35b6105709060203d8111610577575b61056881836108f1565b810190610dc6565b503861050e565b503d61055e565b610dde565b346101ed5760003660031901126101ed57602060ff600154166040519015158152f35b346101ed5760203660031901126101ed576103196105c26102c4565b6105ca6109e8565b610b97565b346101ed5760003660031901126101ed576105e86109e8565b6105f0610dea565b600160ff198154161760015560206040513381527f62e78cea01bee320cd4e420270b5ea74000d11b0c9f74754ebdbfc544b05a258918291a16020604051338152a1005b9060018060a01b0316600052602052604060002090565b346101ed5760403660031901126101ed57602060ff61067f61066b6102ae565b600435600052600584526040600020610634565b54166040519015158152f35b346101ed5760403660031901126101ed57602060ff61067f6106ab6102ae565b600435600052600084526040600020610634565b346101ed5760403660031901126101ed5760206106f16106dd6102ae565b600435600052600683526040600020610634565b54604051908152f35b346101ed5760003660031901126101ed5760206040516000805160206114078339815191528152f35b346101ed5760003660031901126101ed57602060405160008152f35b346101ed5760203660031901126101ed5761031961075b6102c4565b6107636109e8565b610c23565b346101ed5760203660031901126101ed576103196107846102c4565b61078c6109e8565b610ab6565b346101ed5760203660031901126101ed5760043560005260046020526020600460406000206107ca60018060a01b0382541615156110fd565b0154604051908152f35b346101ed5760203660031901126101ed576103196107f06102c4565b6107f86109e8565b610b4a565b346101ed5760403660031901126101ed5761031960043561081c6102ae565b90806000526000602052610837600160406000200154610a9d565b610c57565b346101ed5760003660031901126101ed5760206040516000805160206113c78339815191528152f35b346101ed5760003660031901126101ed576020600354604051908152f35b346101ed5760203660031901126101ed57600435600052600460205260406000206108b860018060a01b0382541615156110fd565b6003600282015491015481039081116108d657602090604051908152f35b610cff565b634e487b7160e01b600052604160045260246000fd5b601f909101601f19168101906001600160401b0382119082101761091457604052565b6108db565b6040519060e082016001600160401b0381118382101761091457604052565b346101ed5760803660031901126101ed576064356001600160401b038082116101ed57366023830112156101ed578160040135908111610914576040519061098a601f8201601f1916602001836108f1565b80825236602482850101116101ed57602081600092602461031996018386013783010152604435602435600435610e29565b6109e360ff9160008051602061140783398151915260005260006020526040600020610634565b541690565b600080805260205260ff610a1c337fad3228b676f7d3cd4284a5443f17f1962b36e491b30a40b2405849e597ba5fb5610634565b541615610a2557565b60405163e2517d3f60e01b815233600482015260006024820152604490fd5b6000805160206113c7833981519152600081815260205260ff610a75336000805160206113e7833981519152610634565b541615610a7f5750565b6044906040519063e2517d3f60e01b82523360048301526024820152fd5b80600052600060205260ff610a75336040600020610634565b6000805160206113c7833981519152600081815260208190529060ff610aea846000805160206113e7833981519152610634565b5416610b445780825281602052610b048360408420610634565b805460ff1916600117905533926001600160a01b0316917f2f8788117e7eff1d82e926ec794901d17c78024a50270940304540a733656f0d9080a4600190565b50905090565b600080516020611407833981519152600081815260208190529060ff610aea84600080516020611427833981519152610634565b6000908082528160205260ff610aea8460408520610634565b6000805160206113c7833981519152600081815260208190529060ff610bcb846000805160206113e7833981519152610634565b541615610b445780825281602052610be68360408420610634565b805460ff1916905533926001600160a01b0316917ff6391f5c32d9c69d2a47ea670b442974b53935d1edc7fd64eb21e047a839171b9080a4600190565b600080516020611407833981519152600081815260208190529060ff610bcb84600080516020611427833981519152610634565b6000908082528160205260ff610bcb8460408520610634565b15610c7757565b60405162461bcd60e51b8152602060048201526015602482015274496e76616c696420746f6b656e206164647265737360581b6044820152606490fd5b15610cbb57565b606460405162461bcd60e51b815260206004820152602060248201527f416d6f756e74206d7573742062652067726561746572207468616e207a65726f6044820152fd5b634e487b7160e01b600052601160045260246000fd5b60001981146108d65760010190565b90600182018092116108d657565b919082018092116108d657565b80546001600160a01b0319166001600160a01b03909216919091179055565b9060c0600691610d8a60018060a01b03610d7b8184511687610d3f565b60208301511660018601610d3f565b6040810151600285015560608101516003850155608081015160048501556005840160a0820151151560ff801983541691161790550151910155565b908160209103126101ed575180151581036101ed5790565b6040513d6000823e3d90fd5b60ff60015416610df657565b60405163d93c066560e01b8152600490fd5b6002805414610e175760028055565b604051633ee5aeb560e01b8152600490fd5b91610f1290610ef6610fe18486610fdc610fd7610fd26001999b610e4b610e08565b610e53610dea565b610f1e89610f18610e6388610221565b9c8d988f80610e889160a01b03610e808c5460018060a01b031690565b1615156110fd565b610e9e610e9960058c015460ff1690565b611141565b610ed4610ecf610ecb610ec433610ebf866000526005602052604060002090565b610634565b5460ff1690565b1590565b611184565b610edf8b15156111cf565b610efd8b600360028d01549c019e8f54809d61122d565b101561123a565b610ebf33916000526006602052604060002090565b54610d24565b14611285565b60068a015460408051602081018f81526001600160601b031933606090811b821694840194909452605483018b9052607483018e90523090931b909216609482015260a880820193909352918252601f1991610f7b60c8826108f1565b51902090610fca6040519182610fbe602082019586603c917b0ca2ba3432b932bab69029b4b3b732b21026b2b9b9b0b3b29d05199960211b8252601c8201520190565b039081018352826108f1565b51902061133b565b6109bc565b6112e3565b610d32565b905560048201610ff18154610d15565b905561101b61100e33610ebf876000526005602052604060002090565b805460ff19166001179055565b61103333610ebf866000526006602052604060002090565b550180546110579061104b906001600160a01b031681565b6001600160a01b031690565b6020604051809263a9059cbb60e01b82528160008161107a8a3360048401611320565b03925af1801561057e577ff9a14d9b61a9505a2368c9180178adf3cee68729fef922c2976d84368cd36e21926110d0926110c1926110df575b50546001600160a01b031690565b93604051918291339683611320565b0390a36110dd6001600255565b565b6110f69060203d81116105775761056881836108f1565b50386110b3565b1561110457565b60405162461bcd60e51b815260206004820152601560248201527414185e5bdd5d08191bd95cc81b9bdd08195e1a5cdd605a1b6044820152606490fd5b1561114857565b60405162461bcd60e51b81526020600482015260146024820152735061796f7574206973206e6f742061637469766560601b6044820152606490fd5b1561118b57565b606460405162461bcd60e51b815260206004820152602060248201527f416c726561647920636c61696d65642066726f6d2074686973207061796f75746044820152fd5b156111d657565b60405162461bcd60e51b815260206004820152602960248201527f416d6f756e7420746f20636c61696d206d7573742062652067726561746572206044820152687468616e207a65726f60b81b6064820152608490fd5b919082039182116108d657565b1561124157565b60405162461bcd60e51b815260206004820152601c60248201527b496e73756666696369656e742066756e64732072656d61696e696e6760201b6044820152606490fd5b1561128c57565b60405162461bcd60e51b815260206004820152602960248201527f496e636f727265637420636c61696d616e74206e6f6e6365206f72207265706c60448201526861792061747461636b60b81b6064820152608490fd5b156112ea57565b60405162461bcd60e51b815260206004820152600e60248201526d24b73b30b634b21039b4b3b732b960911b6044820152606490fd5b6001600160a01b039091168152602081019190915260400190565b906041815103611386576020818101516040808401516060948501518251968752600090811a8786015291860192909252928401528180529160809060015afa1561057e5760005190565b60405162461bcd60e51b8152602060048201526018602482015277092dcecc2d8d2c840e6d2cedcc2e8eae4ca40d8cadccee8d60431b6044820152606490fdfedd01ab90b70e8c65d33958baf3f2903825e567eda9345348566db0976335c63b2f248c084653d121695721f7e91d2fd5fbbe3fbfd21a6b49a0deeea66f402953e2f4eaae4a9751e85a3e4a7b9587827a877f29914755229b07a7b2da98285f70059f08e7d7ba1c82eddc57afae67f80df851baf38a099607a779825038c3ce5ba2646970667358221220ae7ba530f3cb076e7590b9a1510aa239cf008341c3377e2ff61e3c2757ac99c464736f6c634300081400332f8788117e7eff1d82e926ec794901d17c78024a50270940304540a733656f0d",
  "linkReferences": {},
  "deployedLinkReferences": {}
}